{"contracts/MissionFactory.sol":{"MissionFactory":{"abi":[{"inputs":[{"internalType":"address","name":"_impl","type":"address"}],"stateMutability":"nonpayable","type":"constructor"},{"inputs":[],"name":"FailedDeployment","type":"error"},{"inputs":[{"internalType":"uint256","name":"balance","type":"uint256"},{"internalType":"uint256","name":"needed","type":"uint256"}],"name":"InsufficientBalance","type":"error"},{"inputs":[{"internalType":"address","name":"owner","type":"address"}],"name":"OwnableInvalidOwner","type":"error"},{"inputs":[{"internalType":"address","name":"account","type":"address"}],"name":"OwnableUnauthorizedAccount","type":"error"},{"inputs":[],"name":"ReentrancyGuardReentrantCall","type":"error"},{"anonymous":false,"inputs":[{"indexed":true,"internalType":"address","name":"addr","type":"address"}],"name":"AuthorizedAddressAdded","type":"event"},{"anonymous":false,"inputs":[{"indexed":true,"internalType":"address","name":"addr","type":"address"}],"name":"AuthorizedAddressRemoved","type":"event"},{"anonymous":false,"inputs":[{"indexed":false,"internalType":"uint8","name":"newWeekly","type":"uint8"},{"indexed":false,"internalType":"uint8","name":"newMonthly","type":"uint8"}],"name":"EnrollmentLimitUpdated","type":"event"},{"anonymous":false,"inputs":[{"indexed":true,"internalType":"address","name":"user","type":"address"},{"indexed":false,"internalType":"uint256","name":"timestamp","type":"uint256"}],"name":"EnrollmentRecorded","type":"event"},{"anonymous":false,"inputs":[{"indexed":true,"internalType":"address","name":"sender","type":"address"},{"indexed":false,"internalType":"uint256","name":"amount","type":"uint256"}],"name":"FundsReceived","type":"event"},{"anonymous":false,"inputs":[{"indexed":true,"internalType":"address","name":"to","type":"address"},{"indexed":false,"internalType":"uint256","name":"amount","type":"uint256"}],"name":"FundsWithdrawn","type":"event"},{"anonymous":false,"inputs":[{"indexed":true,"internalType":"address","name":"missionAddress","type":"address"},{"indexed":true,"internalType":"enum MissionType","name":"missionType","type":"uint8"}],"name":"MissionCreated","type":"event"},{"anonymous":false,"inputs":[{"indexed":false,"internalType":"uint256","name":"amount","type":"uint256"},{"indexed":true,"internalType":"enum MissionType","name":"missionType","type":"uint8"},{"indexed":true,"internalType":"address","name":"sender","type":"address"}],"name":"MissionFundsRegistered","type":"event"},{"anonymous":false,"inputs":[{"indexed":true,"internalType":"address","name":"confirmer","type":"address"},{"indexed":false,"internalType":"address","name":"newOwner","type":"address"},{"indexed":false,"internalType":"uint256","name":"timestamp","type":"uint256"}],"name":"OwnershipTransferConfirmed","type":"event"},{"anonymous":false,"inputs":[{"indexed":true,"internalType":"address","name":"proposer","type":"address"},{"indexed":false,"internalType":"address","name":"newOwner","type":"address"},{"indexed":false,"internalType":"uint256","name":"timestamp","type":"uint256"}],"name":"OwnershipTransferProposed","type":"event"},{"anonymous":false,"inputs":[{"indexed":true,"internalType":"address","name":"previousOwner","type":"address"},{"indexed":true,"internalType":"address","name":"newOwner","type":"address"}],"name":"OwnershipTransferred","type":"event"},{"stateMutability":"payable","type":"fallback"},{"inputs":[],"name":"OWNERSHIP_PROPOSAL_WINDOW","outputs":[{"internalType":"uint256","name":"","type":"uint256"}],"stateMutability":"view","type":"function"},{"inputs":[{"internalType":"address","name":"account","type":"address"}],"name":"addAuthorizedAddress","outputs":[],"stateMutability":"nonpayable","type":"function"},{"inputs":[{"internalType":"address","name":"","type":"address"}],"name":"authorized","outputs":[{"internalType":"bool","name":"","type":"bool"}],"stateMutability":"view","type":"function"},{"inputs":[{"internalType":"address","name":"user","type":"address"}],"name":"canEnroll","outputs":[{"internalType":"bool","name":"ok","type":"bool"},{"internalType":"enum Limit","name":"breach","type":"uint8"}],"stateMutability":"view","type":"function"},{"inputs":[{"internalType":"address","name":"newOwner","type":"address"}],"name":"confirmOwnershipTransfer","outputs":[],"stateMutability":"nonpayable","type":"function"},{"inputs":[{"internalType":"enum MissionType","name":"_missionType","type":"uint8"},{"internalType":"uint256","name":"_enrollmentStart","type":"uint256"},{"internalType":"uint256","name":"_enrollmentEnd","type":"uint256"},{"internalType":"uint256","name":"_enrollmentAmount","type":"uint256"},{"internalType":"uint8","name":"_enrollmentMinPlayers","type":"uint8"},{"internalType":"uint8","name":"_enrollmentMaxPlayers","type":"uint8"},{"internalType":"uint256","name":"_missionStart","type":"uint256"},{"internalType":"uint256","name":"_missionEnd","type":"uint256"},{"internalType":"uint8","name":"_missionRounds","type":"uint8"}],"name":"createMission","outputs":[{"internalType":"address","name":"","type":"address"}],"stateMutability":"payable","type":"function"},{"inputs":[],"name":"getAllMissions","outputs":[{"internalType":"address[]","name":"","type":"address[]"},{"internalType":"enum Status[]","name":"","type":"uint8[]"}],"stateMutability":"view","type":"function"},{"inputs":[],"name":"getFactorySummary","outputs":[{"internalType":"address","name":"ownerAddress","type":"address"},{"internalType":"address","name":"factoryAddress","type":"address"},{"internalType":"address","name":"implementation","type":"address"},{"internalType":"uint256","name":"totalMissions","type":"uint256"},{"internalType":"uint256","name":"weekly","type":"uint256"},{"internalType":"uint256","name":"monthly","type":"uint256"},{"internalType":"uint256","name":"missionFunds","type":"uint256"},{"internalType":"uint256","name":"ownerFunds","type":"uint256"},{"internalType":"uint256","name":"successes","type":"uint256"},{"internalType":"uint256","name":"failures","type":"uint256"},{"internalType":"uint256[7]","name":"fundsPerTypeArray","type":"uint256[7]"}],"stateMutability":"view","type":"function"},{"inputs":[{"internalType":"enum MissionType","name":"_type","type":"uint8"}],"name":"getFundsByType","outputs":[{"internalType":"uint256","name":"","type":"uint256"}],"stateMutability":"view","type":"function"},{"inputs":[{"internalType":"uint256","name":"n","type":"uint256"}],"name":"getLatestMissions","outputs":[{"internalType":"address[]","name":"","type":"address[]"},{"internalType":"uint8[]","name":"","type":"uint8[]"}],"stateMutability":"view","type":"function"},{"inputs":[{"internalType":"address","name":"missionAddress","type":"address"}],"name":"getMissionData","outputs":[{"components":[{"internalType":"address[]","name":"players","type":"address[]"},{"internalType":"enum MissionType","name":"missionType","type":"uint8"},{"internalType":"uint256","name":"enrollmentStart","type":"uint256"},{"internalType":"uint256","name":"enrollmentEnd","type":"uint256"},{"internalType":"uint256","name":"enrollmentAmount","type":"uint256"},{"internalType":"uint8","name":"enrollmentMinPlayers","type":"uint8"},{"internalType":"uint8","name":"enrollmentMaxPlayers","type":"uint8"},{"internalType":"uint256","name":"missionStart","type":"uint256"},{"internalType":"uint256","name":"missionEnd","type":"uint256"},{"internalType":"uint8","name":"missionRounds","type":"uint8"},{"internalType":"uint8","name":"roundCount","type":"uint8"},{"internalType":"uint256","name":"croStart","type":"uint256"},{"internalType":"uint256","name":"croCurrent","type":"uint256"},{"components":[{"internalType":"address","name":"player","type":"address"},{"internalType":"uint256","name":"amountWon","type":"uint256"}],"internalType":"struct Mission.PlayersWon[]","name":"playersWon","type":"tuple[]"},{"internalType":"uint256","name":"pauseTimestamp","type":"uint256"},{"internalType":"address[]","name":"refundedPlayers","type":"address[]"}],"internalType":"struct Mission.MissionData","name":"","type":"tuple"}],"stateMutability":"view","type":"function"},{"inputs":[{"internalType":"enum Status","name":"s","type":"uint8"}],"name":"getMissionsByStatus","outputs":[{"internalType":"address[]","name":"","type":"address[]"},{"internalType":"uint8[]","name":"","type":"uint8[]"}],"stateMutability":"view","type":"function"},{"inputs":[],"name":"getMissionsEnded","outputs":[{"internalType":"address[]","name":"","type":"address[]"},{"internalType":"uint8[]","name":"","type":"uint8[]"}],"stateMutability":"view","type":"function"},{"inputs":[],"name":"getMissionsNotEnded","outputs":[{"internalType":"address[]","name":"","type":"address[]"},{"internalType":"uint8[]","name":"","type":"uint8[]"}],"stateMutability":"view","type":"function"},{"inputs":[{"internalType":"address","name":"player","type":"address"}],"name":"getPlayerLimits","outputs":[{"internalType":"uint8","name":"weekUsed","type":"uint8"},{"internalType":"uint8","name":"weekMax","type":"uint8"},{"internalType":"uint8","name":"monthUsed","type":"uint8"},{"internalType":"uint8","name":"monthMax","type":"uint8"},{"internalType":"uint256","name":"secToWeek","type":"uint256"},{"internalType":"uint256","name":"secToMonth","type":"uint256"}],"stateMutability":"view","type":"function"},{"inputs":[{"internalType":"address","name":"player","type":"address"}],"name":"getPlayerParticipation","outputs":[{"internalType":"address[]","name":"joined","type":"address[]"},{"internalType":"enum Status[]","name":"statuses","type":"uint8[]"}],"stateMutability":"view","type":"function"},{"inputs":[],"name":"getTotalMissions","outputs":[{"internalType":"uint256","name":"","type":"uint256"}],"stateMutability":"view","type":"function"},{"inputs":[{"internalType":"address","name":"","type":"address"}],"name":"isMission","outputs":[{"internalType":"bool","name":"","type":"bool"}],"stateMutability":"view","type":"function"},{"inputs":[],"name":"missionImplementation","outputs":[{"internalType":"address","name":"","type":"address"}],"stateMutability":"view","type":"function"},{"inputs":[{"internalType":"address","name":"","type":"address"}],"name":"missionStatus","outputs":[{"internalType":"enum Status","name":"","type":"uint8"}],"stateMutability":"view","type":"function"},{"inputs":[{"internalType":"uint256","name":"","type":"uint256"}],"name":"missions","outputs":[{"internalType":"address","name":"","type":"address"}],"stateMutability":"view","type":"function"},{"inputs":[],"name":"monthlyLimit","outputs":[{"internalType":"uint8","name":"","type":"uint8"}],"stateMutability":"view","type":"function"},{"inputs":[],"name":"owner","outputs":[{"internalType":"address","name":"","type":"address"}],"stateMutability":"view","type":"function"},{"inputs":[{"internalType":"address","name":"","type":"address"}],"name":"ownershipProposals","outputs":[{"internalType":"address","name":"proposer","type":"address"},{"internalType":"uint256","name":"timestamp","type":"uint256"}],"stateMutability":"view","type":"function"},{"inputs":[{"internalType":"address","name":"newOwner","type":"address"}],"name":"proposeOwnershipTransfer","outputs":[],"stateMutability":"nonpayable","type":"function"},{"inputs":[{"internalType":"address","name":"user","type":"address"}],"name":"recordEnrollment","outputs":[],"stateMutability":"nonpayable","type":"function"},{"inputs":[{"internalType":"enum MissionType","name":"missionType","type":"uint8"}],"name":"registerMissionFunds","outputs":[],"stateMutability":"payable","type":"function"},{"inputs":[{"internalType":"address","name":"account","type":"address"}],"name":"removeAuthorizedAddress","outputs":[],"stateMutability":"nonpayable","type":"function"},{"inputs":[],"name":"renounceOwnership","outputs":[],"stateMutability":"nonpayable","type":"function"},{"inputs":[{"internalType":"enum MissionType","name":"","type":"uint8"}],"name":"reservedFunds","outputs":[{"internalType":"uint256","name":"","type":"uint256"}],"stateMutability":"view","type":"function"},{"inputs":[],"name":"reservedFundsBreakdown","outputs":[{"internalType":"uint256[7]","name":"","type":"uint256[7]"}],"stateMutability":"view","type":"function"},{"inputs":[{"internalType":"address","name":"user","type":"address"}],"name":"secondsTillMonthlySlot","outputs":[{"internalType":"uint256","name":"","type":"uint256"}],"stateMutability":"view","type":"function"},{"inputs":[{"internalType":"address","name":"user","type":"address"}],"name":"secondsTillWeeklySlot","outputs":[{"internalType":"uint256","name":"","type":"uint256"}],"stateMutability":"view","type":"function"},{"inputs":[{"internalType":"uint8","name":"_weekly","type":"uint8"},{"internalType":"uint8","name":"_monthly","type":"uint8"}],"name":"setEnrollmentLimits","outputs":[],"stateMutability":"nonpayable","type":"function"},{"inputs":[{"internalType":"enum Status","name":"newStatus","type":"uint8"}],"name":"setMissionStatus","outputs":[],"stateMutability":"nonpayable","type":"function"},{"inputs":[],"name":"totalMissionFailures","outputs":[{"internalType":"uint256","name":"","type":"uint256"}],"stateMutability":"view","type":"function"},{"inputs":[],"name":"totalMissionFunds","outputs":[{"internalType":"uint256","name":"","type":"uint256"}],"stateMutability":"view","type":"function"},{"inputs":[],"name":"totalMissionSuccesses","outputs":[{"internalType":"uint256","name":"","type":"uint256"}],"stateMutability":"view","type":"function"},{"inputs":[],"name":"totalOwnerEarnedFunds","outputs":[{"internalType":"uint256","name":"","type":"uint256"}],"stateMutability":"view","type":"function"},{"inputs":[{"internalType":"address","name":"newOwner","type":"address"}],"name":"transferOwnership","outputs":[],"stateMutability":"nonpayable","type":"function"},{"inputs":[],"name":"weeklyLimit","outputs":[{"internalType":"uint8","name":"","type":"uint8"}],"stateMutability":"view","type":"function"},{"inputs":[{"internalType":"uint256","name":"amount","type":"uint256"}],"name":"withdrawFunds","outputs":[],"stateMutability":"nonpayable","type":"function"},{"stateMutability":"payable","type":"receive"}],"evm":{"bytecode":{"linkReferences":{},"object":"60a03461012557601f6131e338819003918201601f19168301916001600160401b0383118484101761012a5780849260209460405283398101031261012557516001600160a01b03811680820361012557331561010f5760008054336001600160a01b0319821681178355604051939290916001600160a01b0316907f8be0079c531659141344cd1fd0a4f28419497f9722a3daafe3b4186f6b6457e09080a360018055610a0461ffff196003541617600355156100e157506080526040516130a29081610141823960805181818161044f01528181610a9e0152610ee90152f35b62461bcd60e51b8152602060048201526009602482015268696d706c207a65726f60b81b6044820152606490fd5b631e4fbdf760e01b600052600060045260246000fd5b600080fd5b634e487b7160e01b600052604160045260246000fdfe6080806040526004361015610011575b005b600090813560e01c9081630814ab8214612542575080630a6005da1461251e578063155dd5ee146123925780631e59d5841461223257806320c5718f14611fc957806321040fc314611ea15780632c8fe52614611e5d5780632e33b07f146108215780633589cf7214611e3f5780633701276214611d605780633c21395714611b8357806342f1181e14611a92578063503c0b88146118625780635c5bb6f21461184457806363679723146118265780636805036d146116d35780636d8a1390146116aa57806370712939146115bf578063715018a6146115655780637e9eae501461147f57806383fbea5114611461578063861a68d6146114405780638da5cb5b146114195780639804a586146113cf5780639b15953914610e36578063a9bea78914610cc2578063aa1f059514610c80578063b620291314610b0f578063b918161114610acd578063bd48772514610a88578063c17f9e5914610854578063c416ad2a14610821578063c892fde314610803578063cbf2080d1461066c578063d3050eba1461064e578063d41eca64146105a0578063d8d6e8ff14610519578063df4db463146104ab578063e5047770146103ae578063eff0ab92146102a1578063f2fde38b1461024a5763fb4cdea70361000f5734610247576020366003190112610247576004356001600160a01b03811690819003610245578152600b6020908152604091829020805460019091015483516001600160a01b0390921682529181019190915290819081015b0390f35b505b80fd5b5034610247576020366003190112610247576004356001600160a01b03811680820361029d57610278612fda565b156102895761028690613025565b80f35b631e4fbdf760e01b82526004829052602482fd5b8280fd5b5034610247576020366003190112610247576004356001600160a01b03811690819003610245578152600d6020526040812080548291825b82811061032957505050816102f557602091505b604051908152f35b62093a80820180921161031557506103106020914290612ad7565b6102ed565b634e487b7160e01b81526011600452602490fd5b6103338183612670565b90549060031b1c62093a80810180911161039a574210610356575b6001016102d9565b84158015610381575b1561034e57935060016103728583612670565b90549060031b1c94905061034e565b508461038d8284612670565b90549060031b1c1061035f565b634e487b7160e01b85526011600452602485fd5b503461024757806003193601126102475760e0806040516103cf8282612770565b3690376040516103df8282612770565b81368237825b600781101561040c576001906103fa816126e0565b546104058285612fc9565b52016103e5565b506104a9906102209360018060a01b03905416926002549060035490600454906005549160ff60065494600754966040519a8b523060208c015260018060a01b037f00000000000000000000000000000000000000000000000000000000000000001660408c015260608b015281811660808b015260081c1660a089015260c08801528601526101008501526101208401526101408301906126f9565bf35b503461024757806003193601126102475760e090816040516104cd8282612770565b3690376040516104dd8382612770565b82368237815b600781101561050a576001906104f8816126e0565b546105038285612fc9565b52016104e3565b83826104a960405180926126f9565b503461024757602036600319011261024757600435600881101561024557338252600960205261054f60ff604084205416612f5e565b338252600a6020526040822060ff1981541660ff831617905560068114600014610585575061057f600654612792565b60065580f35b60071461058f5780f35b61059a600754612792565b60075580f35b50346102475760403660031901126102475760043560ff81168091036102455760243560ff81169182820361064a577f321994b8855ae38e4fd6162f7a0bd7cde88be83aa3acc96e03c17b7f733b43e19260409260018060a01b0386541633148015610635575b61061090612a6f565b8261ff006003549260081b169161ffff1916171760035582519182526020820152a180f35b5033865260086020528386205460ff16610607565b8380fd5b50346102475780600319360112610247576020604051620151808152f35b5034610247576020366003190112610247576004356001600160a01b03811690819003610245578152600d602052604081208190829083809181908054915b82811061075857505050600354948015600014610726575080915b80610700575060c09460ff8092945b8160405197168752818316602088015216604086015260081c166060840152608083015260a0820152f35b9062278d008201809211610315575060c09460ff61072081934290612ad7565b946106d5565b62093a8081018091116107445761073e904290612ad7565b916106c6565b634e487b7160e01b82526011600452602482fd5b6107628183612670565b90549060031b1c62278d0081018082116107de574210610786575b506001016106ab565b9561079090612792565b95851580156107fa575b6107f2575b62093a8081018082116107de5742101561077d57966107bd90612792565b96881580156107d5575b1561077d579750600161077d565b508881106107c7565b634e487b7160e01b86526011600452602486fd5b94508461079f565b5085811061079a565b50346102475780600319360112610247576020600654604051908152f35b50346102475760203660031901126102475760043590600782101561024757602061084b836126e0565b54604051908152f35b5034610247576020366003190112610247576004356001600160a01b0381169081900361024557338252600a60205260ff6040832054166008811015610a7457600103610a3e5762278cff19420190428211610a2a57808352600d60205260408320805492845b84811080610a11575b156108d7576108d290612792565b6108bb565b838387928061095d575b50805490600160401b821015610949578161090491600161091c94018155612670565b429082549060031b91821b91600019901b1916179055565b7f498f5e6dcf570483a1848853791046a7f10012193176d71f959f46eb7713d7446020604051428152a280f35b634e487b7160e01b84526041600452602484fd5b92805b61096b858454612ad7565b8110156109bb57806109b561098b61098588600195612aca565b86612670565b90549060031b1c61099c8387612670565b90919082549060031b91821b91600019901b1916179055565b01610960565b5092835b8181106109cc57506108e1565b825480156109fd5760019190600019016109e68186612670565b8154906000199060031b1b191690558455016109bf565b634e487b7160e01b86526031600452602486fd5b5081610a1d8285612670565b90549060031b1c106108c4565b634e487b7160e01b83526011600452602483fd5b60405162461bcd60e51b815260206004820152600e60248201526d24b73b30b634b21031b0b63632b960911b6044820152606490fd5b634e487b7160e01b83526021600452602483fd5b50346102475780600319360112610247576040517f00000000000000000000000000000000000000000000000000000000000000006001600160a01b03168152602090f35b5034610247576020366003190112610247576004356001600160a01b038116908190036102455760408260ff9260209452600884522054166040519015158152f35b50346102475780600319360112610247576002549080805b838110610c145750610b41610b3b836127cf565b926127cf565b9281805b828110610b5b57604051806102418888836125e0565b610b648161263f565b905460039190911b1c6001600160a01b03168252600a602052604082205460ff16600881101580610c0057600682148015610bf4575b610ba9575b5050600101610b45565b610bb483969361263f565b905460039190911b1c6001600160a01b0316610bd08489612801565b52610a745781610bec91610be66001948a612801565b52612792565b939038610b9f565b50508260078214610b9a565b634e487b7160e01b84526021600452602484fd5b610c1d8161263f565b905460039190911b1c6001600160a01b03168252600a602052604082205460ff166008811015610a745760068114908115610c75575b50610c61575b600101610b27565b91610c6d600191612792565b929050610c59565b600791501438610c53565b5034610247576020366003190112610247576004356001600160a01b038116908190036102455760408260ff9260209452600984522054166040519015158152f35b506020366003190112610247576004356007811015610245573382526009602052610cf360ff604084205416612f5e565b610cfb613003565b3415610df257338252600a60205260ff6040832054166008811015610a74576006148015610dd0575b15610d9457610d32816126e0565b610d3d348254612aca565b9055610d4b34600454612aca565b600455610d5d60033404600554612aca565b600555604051903482527f606617fd09d9890413e3c46147b844d4562351f86e0f7a5c60849bbf0ef0281160203393a36001805580f35b60405162461bcd60e51b815260206004820152601460248201527321b0b63632b9103737ba10309036b4b9b9b4b7b760611b6044820152606490fd5b50338252600a60205260ff6040832054166008811015610a7457600714610d24565b606460405162461bcd60e51b815260206004820152602060248201527f416d6f756e74206d7573742062652067726561746572207468616e207a65726f6044820152fd5b5061012036600319011261024757600435600781101561024557602435906044359160643560843560ff81168091036113cb5760a43560ff81168091036113c75760c4359060e43592610104359460ff86168096036113c35789546001600160a01b0316331480156113ad575b610eac90612a6f565b610eb4613003565b6005861061134e578582106112e3578183106112795788871015611228578884106111ca578385111561118657801561112d577f0000000000000000000000000000000000000000000000000000000000000000608881901c62ffffff16763d602d80600a3d3981f3363d3d373d3d3d363d73000000178b5260781b6e5af43d82803e903d91602b57fd5bf3176020526001600160a01b03603760098cf01698891561111e57898b52600960205260408b20600160ff19825416179055898b52600a60205260408b2060ff19815416905560018060a01b038b5416978a3b1561111a576040519863c54168b360e01b8a5260048a01523060248a0152610fbd60448a018b612632565b6064890152608488015260a487015260c486015260e485015261010484015261012483015261014482015283816101648134875af1801561110f576110fb575b50600254600160401b8110156109495780600161101d920160025561263f565b81546001600160a01b0360039290921b91821b19169084901b17905580827f0ac1ac89285bf936f515aafcf6808b3e062e77fd57f52c8892d20fc9409b8b538580a3611068816126e0565b5460021c90811515806110f1575b61108a575b60208360018055604051908152f35b611093906126e0565b61109e828254612ad7565b905582823b156102475760405163eb2bab7760e01b81529182906004908290865af180156110e6576110d1575b8061107b565b6110dc838092612770565b61024557816110cb565b6040513d85823e3d90fd5b5081471015611076565b8361110891949294612770565b9138610ffd565b6040513d86823e3d90fd5b8b80fd5b63b06ebf3d60e01b8b5260048bfd5b60405162461bcd60e51b815260206004820152602b60248201527f456e726f6c6c6d656e7420616d6f756e74206d7573742062652067726561746560448201526a72207468616e207a65726f60a81b6064820152608490fd5b606460405162461bcd60e51b815260206004820152602060248201527f4d697373696f6e207374617274206d757374206265206265666f726520656e646044820152fd5b60405162461bcd60e51b815260206004820152603060248201527f4d697373696f6e207374617274206d757374206265206f6e206f72206166746560448201526f1c88195b9c9bdb1b1b595b9d08195b9960821b6064820152608490fd5b60405162461bcd60e51b815260206004820152602360248201527f456e726f6c6c6d656e74207374617274206d757374206265206265666f726520604482015262195b9960ea1b6064820152608490fd5b608460405162461bcd60e51b815260206004820152604060248201527f4d6178696d756d20706c6179657273206d75737420626520677265617465722060448201527f7468616e206f7220657175616c20746f206d696e696d756d20706c61796572736064820152fd5b60405162461bcd60e51b815260206004820152603f60248201527f4d696e696d756d20706c6179657273206d75737420626520677265617465722060448201527f7468616e206f7220657175616c20746f206d697373696f6e20726f756e6473006064820152608490fd5b60405162461bcd60e51b815260206004820152603160248201527f4d697373696f6e20726f756e6473206d7573742062652067726561746572207460448201527068616e206f7220657175616c20746f203560781b6064820152608490fd5b50338a52600860205260408a205460ff16610ea3565b8980fd5b8680fd5b8580fd5b5034610247576020366003190112610247576004356001600160a01b0381168103610245576113fd90612ddf565b60405191151582526003811015610a7457604092506020820152f35b5034610247578060031936011261024757546040516001600160a01b039091168152602090f35b5034610247578060031936011261024757602060ff60035416604051908152f35b50346102475780600319360112610247576020600754604051908152f35b5034610247576020366003190112610247576002549060043582811161155e575b6114a9816127cf565b916114b3826127cf565b936000198101908111825b8481106114d457604051806102418989836125e0565b8161154a576114eb6114e68285612ad7565b61263f565b905460039190911b1c6001600160a01b0316806115088389612801565b528452600a60205260ff6040852054166008811015611536579060019161152f828a612801565b52016114be565b634e487b7160e01b85526021600452602485fd5b634e487b7160e01b84526011600452602484fd5b50816114a0565b503461024757806003193601126102475761157e612fda565b80546001600160a01b03198116825581906001600160a01b03167f8be0079c531659141344cd1fd0a4f28419497f9722a3daafe3b4186f6b6457e08280a380f35b5034610247576020366003190112610247576004356001600160a01b038116908190036102455781546001600160a01b031633148015611694575b61160390612a6f565b61160e811515612ae4565b808252600860205260ff6040832054161561165e57808252600860205260408220805460ff191690557f66d5f06f711af3c9feba3203fdb00b51345d514c68585d9d319c5ff5e6f775928280a280f35b60405162461bcd60e51b815260206004820152600e60248201526d139bdd08185d5d1a1bdc9a5e995960921b6044820152606490fd5b503382526008602052604082205460ff166115fa565b50346102475780600319360112610247576116c3612b53565b9061024160405192839283612688565b50346102475780600319360112610247576002549080805b8381106117b957506116ff610b3b836127cf565b9281805b82811061171957604051806102418888836125e0565b6117228161263f565b905460039190911b1c6001600160a01b03168252600a602052604082205460ff16600881101580610c00576006821415806117ac575b611767575b5050600101611703565b61177283969361263f565b905460039190911b1c6001600160a01b031661178e8489612801565b52610a7457816117a491610be66001948a612801565b93903861175d565b5050826007821415611758565b6117c28161263f565b905460039190911b1c6001600160a01b03168252600a602052604082205460ff166008811015610a74576006811415908161181a575b50611806575b6001016116eb565b91611812600191612792565b9290506117fe565b600791501415386117f8565b50346102475780600319360112610247576020600454604051908152f35b50346102475780600319360112610247576020600254604051908152f35b5034610247576020366003190112610247576004356001600160a01b038116919082900361024757600254918183805b6119f857506118a96118a3846127cf565b936127cf565b9381815b6118c05760405180610241888883612688565b600019820182811161154a576118d59061263f565b9054604051629c95e160e41b81526004810187905260039290921b1c6001600160a01b031690602081602481855afa9081156119ed5785916119bf575b5061192a575b509061192390612b22565b90816118ad565b60208160049261193a858a612801565b526040516368c6ba2160e01b815292839182905afa90811561110f578491611983575b508161197861197d92611973611923958b612801565b612b47565b612792565b90611918565b90506020813d82116119b7575b8161199d60209383612770565b8101031261064a5751600881101561064a5761192361195d565b3d9150611990565b6119e0915060203d81116119e6575b6119d88183612770565b810190612b2f565b38611912565b503d6119ce565b6040513d87823e3d90fd5b6000198101818111610a2a576020611a1160249261263f565b9054604051629c95e160e41b8152600481018890529384929091839160031b1c6001600160a01b03165afa9081156110e6578391611a74575b50611a5f575b611a5990612b22565b80611892565b92611a6c611a5991612792565b939050611a50565b611a8c915060203d81116119e6576119d88183612770565b38611a4a565b5034610247576020366003190112610247576004356001600160a01b038116908190036102455781546001600160a01b031633148015611b6d575b611ad690612a6f565b611ae1811515612ae4565b808252600860205260ff604083205416611b3357808252600860205260408220805460ff191660011790557f10ac961f00d5e732ba4dcc2c6fb09bebea0eb9edd2a75c8109775ef288382e678280a280f35b60405162461bcd60e51b8152602060048201526012602482015271105b1c9958591e48185d5d1a1bdc9a5e995960721b6044820152606490fd5b503382526008602052604082205460ff16611acd565b5034610247576020366003190112610247576004356001600160a01b03811680820361029d5782546001600160a01b031633148015611d4a575b611bc690612a6f565b808352600b60205260408320604051611bde81612754565b81546001600160a01b0316808252600190920154602082019081529115611d0557516001600160a01b03163314611cc1575162015180810180911161154a574211611c8957611c2c82613025565b8252600b6020908152604080842084815560010184905580516001600160a01b039093168352429183019190915233917fdd72dd33198968a9cdc9b1e5cbff344fb8d04d99f8c15c0a02416b04e857b46791819081015b0390a280f35b60405162461bcd60e51b815260206004820152601060248201526f141c9bdc1bdcd85b08195e1c1a5c995960821b6044820152606490fd5b606460405162461bcd60e51b815260206004820152602060248201527f43616e6e6f7420636f6e6669726d20796f7572206f776e2070726f706f73616c6044820152fd5b60405162461bcd60e51b815260206004820152601a60248201527f4e6f2070726f706f73616c20666f722074686973206f776e65720000000000006044820152606490fd5b503383526008602052604083205460ff16611bbd565b5034610247576020366003190112610247576004356001600160a01b03811690819003610245578152600d6020526040812080548291825b828110611dce5750505081611db35760209150604051908152f35b62278d00820180921161031557506103106020914290612ad7565b611dd88183612670565b90549060031b1c62278d00810180911161039a574210611dfb575b600101611d98565b84158015611e26575b15611df35793506001611e178583612670565b90549060031b1c949050611df3565b5084611e328284612670565b90549060031b1c10611e04565b50346102475780600319360112610247576020600554604051908152f35b50346102475760203660031901126102475760043590600254821015610247576020611e888361263f565b905460405160039290921b1c6001600160a01b03168152f35b5034610247576020366003190112610247576004356001600160a01b03811680820361029d5782546001600160a01b031633148015611fb3575b611ee490612a6f565b8015611f7a57600160405191611ef983612754565b33835260208301904282528552600b6020526040852092828060a01b039051166bffffffffffffffffffffffff60a01b845416178355519101557fc29bdbd554e41df97e5c40fc273a09677ac133c245f0064bdffef5cc72176e1960405180611c83339442908360209093929193604081019460018060a01b031681520152565b60405162461bcd60e51b815260206004820152601160248201527024b73b30b634b2103732bb9037bbb732b960791b6044820152606490fd5b503383526008602052604083205460ff16611edb565b5034610247576020366003190112610247576004356001600160a01b038116908190036102455760606101e060405161200181612721565b82815284602082015284604082015284838201528460808201528460a08201528460c08201528460e08201528461010082015284610120820152846101408201528461016082015284610180820152826101a0820152846101c0820152015280156121ed578160049160405192838092631f385f7960e21b82525afa9081156121e25782916121c0575b5060405190602082526120ac815161020060208501526102208401906125a3565b926120bf60208301516040850190612632565b6040820151606084015260608201516080840152608082015160a084015260ff60a08301511660c084015260ff60c08301511660e084015260e082015161010084015261010082015161012084015260ff6101208301511661014084015260ff610140830151166101608401526101608201516101808401526101808201516101a08401526101a082015193601f19848203016101c0850152602080865192838152019501915b818110612195578480610241886101e0886101c0810151828601520151601f19848303016102008501526125a3565b825180516001600160a01b031687526020908101518188015260409096019590920191600101612166565b6121dc91503d8084833e6121d48183612770565b8101906128a1565b3861208b565b6040513d84823e3d90fd5b60405162461bcd60e51b815260206004820152601760248201527f496e76616c6964206d697373696f6e20616464726573730000000000000000006044820152606490fd5b5034610247576020366003190112610247576004359060088210159081610247576002548192825b828110612337575061227461226e856127cf565b946127cf565b948391845b84811061228f57604051806102418a8a836125e0565b6122988161263f565b905460039190911b1c6001600160a01b03168652600a602052604086205460ff16826123235760088110156123235783146122d6575b600101612279565b9290506122e28361263f565b905460039190911b1c6001600160a01b03166122fe8288612801565b52600161231b8692612310818b612801565b60ff86169052612792565b9390506122ce565b634e487b7160e01b87526021600452602487fd5b6123408161263f565b905460039190911b1c6001600160a01b03168452600a602052604084205460ff168261153657600881101561153657861461237e575b60010161225a565b9361238a600191612792565b949050612376565b5034610247576020366003190112610247576004356123af612fda565b6123b7613003565b81546001600160a01b0316908082156124e157156124da575b47811161249e578280808084865af13d15612499573d67ffffffffffffffff8111612485576040519061240d601f8201601f191660200183612770565b81528460203d92013e5b1561244e5760207feaff4b37086828766ad3268786972c0cd24259d4c87a80f9d3963a3c3d999b0d91604051908152a26001805580f35b60405162461bcd60e51b815260206004820152600f60248201526e151c985b9cd9995c8819985a5b1959608a1b6044820152606490fd5b634e487b7160e01b85526041600452602485fd5b612417565b60405162461bcd60e51b8152602060048201526014602482015273496e73756666696369656e742062616c616e636560601b6044820152606490fd5b50476123d0565b60405162461bcd60e51b815260206004820152601560248201527424b73b30b634b21036b0b730b3b2b91037bbb732b960591b6044820152606490fd5b5034610247578060031936011261024757602060ff60035460081c16604051908152f35b905034610245576020366003190112610245576004356001600160a01b0381169081900361029d578160ff6040856104a99460209752600a87522054165b90600882101561258d5752565b634e487b7160e01b600052602160045260246000fd5b906020808351928381520192019060005b8181106125c15750505090565b82516001600160a01b03168452602093840193909201916001016125b4565b906125f3906040835260408301906125a3565b9060208183039101526020808351928381520192019060005b8181106126195750505090565b825160ff1684526020938401939092019160010161260c565b90600782101561258d5752565b60025481101561265a57600260005260206000200190600090565b634e487b7160e01b600052603260045260246000fd5b805482101561265a5760005260206000200190600090565b9061269b906040835260408301906125a3565b9060208183039101526020808351928381520192019060005b8181106126c15750505090565b909192602080826126d56001948851612580565b0194019291016126b4565b600781101561258d57600052600c602052604060002090565b906000905b6007821061270b57505050565b60208060019285518152019301910190916126fe565b610200810190811067ffffffffffffffff82111761273e57604052565b634e487b7160e01b600052604160045260246000fd5b6040810190811067ffffffffffffffff82111761273e57604052565b90601f8019910116810190811067ffffffffffffffff82111761273e57604052565b60001981146127a15760010190565b634e487b7160e01b600052601160045260246000fd5b67ffffffffffffffff811161273e5760051b60200190565b906127d9826127b7565b6127e66040519182612770565b82815280926127f7601f19916127b7565b0190602036910137565b805182101561265a5760209160051b010190565b51906001600160a01b038216820361282957565b600080fd5b9080601f83011215612829578151612845816127b7565b926128536040519485612770565b81845260208085019260051b82010192831161282957602001905b82821061287b5750505090565b6020809161288884612815565b81520191019061286e565b519060ff8216820361282957565b6020818303126128295780519067ffffffffffffffff821161282957016102008183031261282957604051916128d683612721565b815167ffffffffffffffff811161282957816128f391840161282e565b83526020820151600781101561282957602084015260408201516040840152606082015160608401526080820151608084015261293260a08301612893565b60a084015261294360c08301612893565b60c084015260e082015160e084015261010082015161010084015261296b6101208301612893565b61012084015261297e6101408301612893565b6101408401526101608201516101608401526101808201516101808401526101a082015167ffffffffffffffff811161282957820181601f820112156128295780516129c9816127b7565b916129d76040519384612770565b81835260208084019260061b8201019084821161282957602001915b818310612a37575050506101a08401526101c08201516101c08401526101e082015167ffffffffffffffff811161282957612a2e920161282e565b6101e082015290565b6040838603126128295760206040918251612a5181612754565b612a5a86612815565b815282860151838201528152019201916129f3565b15612a7657565b60405162461bcd60e51b815260206004820152602660248201527f4e6f74206f776e6572206f72204d697373696f6e466163746f727920617574686044820152651bdc9a5e995960d21b6064820152608490fd5b919082018092116127a157565b919082039182116127a157565b15612aeb57565b60405162461bcd60e51b815260206004820152600f60248201526e496e76616c6964206164647265737360881b6044820152606490fd5b80156127a1576000190190565b90816020910312612829575180151581036128295790565b600882101561258d5752565b6002548015612da957624f19ff1942014281116127a15762278cff1942014281116127a15760009392939284805b612cbd575b50612b90846127cf565b90612b9a856127cf565b956000905b80151580612cb4575b15612ca9576000190190612bbb8261263f565b60018060a01b0391549060031b1c1680600052600a60205260ff6040600020541690604051631f385f7960e21b8152600081600481855afa8015612c9d578891600091612c84575b508960e082018181511080612c61575b15612c565750506101000151105b612c49578291612c4291612c3760019589612801565b52611973838c612801565b0190612b9f565b5050505093509150509190565b915091505110612c21565b50925050600884101561258d578989926006861480612c13575060078614612c13565b612c97913d8091833e6121d48183612770565b38612c03565b6040513d6000823e3d90fd5b505093509150509190565b50868210612ba8565b600019019493612ccc8661263f565b60018060a01b0391549060031b1c1680600052600a6020526004600060ff6040822054169260405192838092631f385f7960e21b82525afa908115612c9d5785928791600093612d8e575b5060e0830190828251109081612d5e575b5015612d535750506101000151105b612d4c57612d458691612792565b9495612b81565b9394612b86565b915091505110612d37565b9250509250600881101561258d578592816006899314908115612d83575b5038612d28565b600791501438612d7c565b612da291933d8091833e6121d48183612770565b9138612d17565b50602090604051612dba8382612770565b60008152600036813760405192612dd18185612770565b600084525060003681379190565b6001600160a01b03166000908152600d602052604081208054829182918291825b828110612ec7575050506003549160ff8316119060ff82159360081c1611918215928280612ec0575b612eb25781612eaa575b50612e9e5781612e96575b50612e8c5762093a8081018091116127a157612e5b904290612ad7565b9062278d0081018091116127a157612e74904290612ad7565b1115612e84576002905b60009190565b600190612e7e565b5050600090600290565b905038612e3e565b50505050600090600190565b905038612e33565b505050505050600190600090565b5080612e29565b612ed18183612670565b90549060031b1c62278d0081018082116127a1574210612ef5575b50600101612e00565b93612eff90612792565b9387158015612f55575b612f4d575b62093a8081018082116127a157421015612eec5794612f2c90612792565b9486158015612f44575b15612eec5795506001612eec565b50868110612f36565b965086612f0e565b50878110612f09565b15612f6557565b60405162461bcd60e51b815260206004820152603660248201527f4d697373696f6e466163746f72793a2063616c6c6572206973206e6f742061206044820152751d985b1a59081b5a5cdcda5bdb8818dbdb9d1c9858dd60521b6064820152608490fd5b90600781101561265a5760051b0190565b6000546001600160a01b03163303612fee57565b63118cdaa760e01b6000523360045260246000fd5b600260015414613014576002600155565b633ee5aeb560e01b60005260046000fd5b600080546001600160a01b039283166001600160a01b03198216811783559216907f8be0079c531659141344cd1fd0a4f28419497f9722a3daafe3b4186f6b6457e09080a356fea2646970667358221220f1aaca94dc4e38eb3759f5b8b374b25f9c8b0720dfd9259736b45b986df9e35364736f6c634300081e0033","opcodes":"PUSH1 0xA0 CALLVALUE PUSH2 0x125 JUMPI PUSH1 0x1F PUSH2 0x31E3 CODESIZE DUP2 SWAP1 SUB SWAP2 DUP3 ADD PUSH1 0x1F NOT AND DUP4 ADD SWAP2 PUSH1 0x1 PUSH1 0x1 PUSH1 0x40 SHL SUB DUP4 GT DUP5 DUP5 LT OR PUSH2 0x12A JUMPI DUP1 DUP5 SWAP3 PUSH1 0x20 SWAP5 PUSH1 0x40 MSTORE DUP4 CODECOPY DUP2 ADD SUB SLT PUSH2 0x125 JUMPI MLOAD PUSH1 0x1 PUSH1 0x1 PUSH1 0xA0 SHL SUB DUP2 AND DUP1 DUP3 SUB PUSH2 0x125 JUMPI CALLER ISZERO PUSH2 0x10F JUMPI PUSH1 0x0 DUP1 SLOAD CALLER PUSH1 0x1 PUSH1 0x1 PUSH1 0xA0 SHL SUB NOT DUP3 AND DUP2 OR DUP4 SSTORE PUSH1 0x40 MLOAD SWAP4 SWAP3 SWAP1 SWAP2 PUSH1 0x1 PUSH1 0x1 PUSH1 0xA0 SHL SUB AND SWAP1 PUSH32 0x8BE0079C531659141344CD1FD0A4F28419497F9722A3DAAFE3B4186F6B6457E0 SWAP1 DUP1 LOG3 PUSH1 0x1 DUP1 SSTORE PUSH2 0xA04 PUSH2 0xFFFF NOT PUSH1 0x3 SLOAD AND OR PUSH1 0x3 SSTORE ISZERO PUSH2 0xE1 JUMPI POP PUSH1 0x80 MSTORE PUSH1 0x40 MLOAD PUSH2 0x30A2 SWAP1 DUP2 PUSH2 0x141 DUP3 CODECOPY PUSH1 0x80 MLOAD DUP2 DUP2 DUP2 PUSH2 0x44F ADD MSTORE DUP2 DUP2 PUSH2 0xA9E ADD MSTORE PUSH2 0xEE9 ADD MSTORE RETURN JUMPDEST PUSH3 0x461BCD PUSH1 0xE5 SHL DUP2 MSTORE PUSH1 0x20 PUSH1 0x4 DUP3 ADD MSTORE PUSH1 0x9 PUSH1 0x24 DUP3 ADD MSTORE PUSH9 0x696D706C207A65726F PUSH1 0xB8 SHL PUSH1 0x44 DUP3 ADD MSTORE PUSH1 0x64 SWAP1 REVERT JUMPDEST PUSH4 0x1E4FBDF7 PUSH1 0xE0 SHL PUSH1 0x0 MSTORE PUSH1 0x0 PUSH1 0x4 MSTORE PUSH1 0x24 PUSH1 0x0 REVERT JUMPDEST PUSH1 0x0 DUP1 REVERT JUMPDEST PUSH4 0x4E487B71 PUSH1 0xE0 SHL PUSH1 0x0 MSTORE PUSH1 0x41 PUSH1 0x4 MSTORE PUSH1 0x24 PUSH1 0x0 REVERT INVALID PUSH1 0x80 DUP1 PUSH1 0x40 MSTORE PUSH1 0x4 CALLDATASIZE LT ISZERO PUSH2 0x11 JUMPI JUMPDEST STOP JUMPDEST PUSH1 0x0 SWAP1 DUP2 CALLDATALOAD PUSH1 0xE0 SHR SWAP1 DUP2 PUSH4 0x814AB82 EQ PUSH2 0x2542 JUMPI POP DUP1 PUSH4 0xA6005DA EQ PUSH2 0x251E JUMPI DUP1 PUSH4 0x155DD5EE EQ PUSH2 0x2392 JUMPI DUP1 PUSH4 0x1E59D584 EQ PUSH2 0x2232 JUMPI DUP1 PUSH4 0x20C5718F EQ PUSH2 0x1FC9 JUMPI DUP1 PUSH4 0x21040FC3 EQ PUSH2 0x1EA1 JUMPI DUP1 PUSH4 0x2C8FE526 EQ PUSH2 0x1E5D JUMPI DUP1 PUSH4 0x2E33B07F EQ PUSH2 0x821 JUMPI DUP1 PUSH4 0x3589CF72 EQ PUSH2 0x1E3F JUMPI DUP1 PUSH4 0x37012762 EQ PUSH2 0x1D60 JUMPI DUP1 PUSH4 0x3C213957 EQ PUSH2 0x1B83 JUMPI DUP1 PUSH4 0x42F1181E EQ PUSH2 0x1A92 JUMPI DUP1 PUSH4 0x503C0B88 EQ PUSH2 0x1862 JUMPI DUP1 PUSH4 0x5C5BB6F2 EQ PUSH2 0x1844 JUMPI DUP1 PUSH4 0x63679723 EQ PUSH2 0x1826 JUMPI DUP1 PUSH4 0x6805036D EQ PUSH2 0x16D3 JUMPI DUP1 PUSH4 0x6D8A1390 EQ PUSH2 0x16AA JUMPI DUP1 PUSH4 0x70712939 EQ PUSH2 0x15BF JUMPI DUP1 PUSH4 0x715018A6 EQ PUSH2 0x1565 JUMPI DUP1 PUSH4 0x7E9EAE50 EQ PUSH2 0x147F JUMPI DUP1 PUSH4 0x83FBEA51 EQ PUSH2 0x1461 JUMPI DUP1 PUSH4 0x861A68D6 EQ PUSH2 0x1440 JUMPI DUP1 PUSH4 0x8DA5CB5B EQ PUSH2 0x1419 JUMPI DUP1 PUSH4 0x9804A586 EQ PUSH2 0x13CF JUMPI DUP1 PUSH4 0x9B159539 EQ PUSH2 0xE36 JUMPI DUP1 PUSH4 0xA9BEA789 EQ PUSH2 0xCC2 JUMPI DUP1 PUSH4 0xAA1F0595 EQ PUSH2 0xC80 JUMPI DUP1 PUSH4 0xB6202913 EQ PUSH2 0xB0F JUMPI DUP1 PUSH4 0xB9181611 EQ PUSH2 0xACD JUMPI DUP1 PUSH4 0xBD487725 EQ PUSH2 0xA88 JUMPI DUP1 PUSH4 0xC17F9E59 EQ PUSH2 0x854 JUMPI DUP1 PUSH4 0xC416AD2A EQ PUSH2 0x821 JUMPI DUP1 PUSH4 0xC892FDE3 EQ PUSH2 0x803 JUMPI DUP1 PUSH4 0xCBF2080D EQ PUSH2 0x66C JUMPI DUP1 PUSH4 0xD3050EBA EQ PUSH2 0x64E JUMPI DUP1 PUSH4 0xD41ECA64 EQ PUSH2 0x5A0 JUMPI DUP1 PUSH4 0xD8D6E8FF EQ PUSH2 0x519 JUMPI DUP1 PUSH4 0xDF4DB463 EQ PUSH2 0x4AB JUMPI DUP1 PUSH4 0xE5047770 EQ PUSH2 0x3AE JUMPI DUP1 PUSH4 0xEFF0AB92 EQ PUSH2 0x2A1 JUMPI DUP1 PUSH4 0xF2FDE38B EQ PUSH2 0x24A JUMPI PUSH4 0xFB4CDEA7 SUB PUSH2 0xF JUMPI CALLVALUE PUSH2 0x247 JUMPI PUSH1 0x20 CALLDATASIZE PUSH1 0x3 NOT ADD SLT PUSH2 0x247 JUMPI PUSH1 0x4 CALLDATALOAD PUSH1 0x1 PUSH1 0x1 PUSH1 0xA0 SHL SUB DUP2 AND SWAP1 DUP2 SWAP1 SUB PUSH2 0x245 JUMPI DUP2 MSTORE PUSH1 0xB PUSH1 0x20 SWAP1 DUP2 MSTORE PUSH1 0x40 SWAP2 DUP3 SWAP1 KECCAK256 DUP1 SLOAD PUSH1 0x1 SWAP1 SWAP2 ADD SLOAD DUP4 MLOAD PUSH1 0x1 PUSH1 0x1 PUSH1 0xA0 SHL SUB SWAP1 SWAP3 AND DUP3 MSTORE SWAP2 DUP2 ADD SWAP2 SWAP1 SWAP2 MSTORE SWAP1 DUP2 SWAP1 DUP2 ADD JUMPDEST SUB SWAP1 RETURN JUMPDEST POP JUMPDEST DUP1 REVERT JUMPDEST POP CALLVALUE PUSH2 0x247 JUMPI PUSH1 0x20 CALLDATASIZE PUSH1 0x3 NOT ADD SLT PUSH2 0x247 JUMPI PUSH1 0x4 CALLDATALOAD PUSH1 0x1 PUSH1 0x1 PUSH1 0xA0 SHL SUB DUP2 AND DUP1 DUP3 SUB PUSH2 0x29D JUMPI PUSH2 0x278 PUSH2 0x2FDA JUMP JUMPDEST ISZERO PUSH2 0x289 JUMPI PUSH2 0x286 SWAP1 PUSH2 0x3025 JUMP JUMPDEST DUP1 RETURN JUMPDEST PUSH4 0x1E4FBDF7 PUSH1 0xE0 SHL DUP3 MSTORE PUSH1 0x4 DUP3 SWAP1 MSTORE PUSH1 0x24 DUP3 REVERT JUMPDEST DUP3 DUP1 REVERT JUMPDEST POP CALLVALUE PUSH2 0x247 JUMPI PUSH1 0x20 CALLDATASIZE PUSH1 0x3 NOT ADD SLT PUSH2 0x247 JUMPI PUSH1 0x4 CALLDATALOAD PUSH1 0x1 PUSH1 0x1 PUSH1 0xA0 SHL SUB DUP2 AND SWAP1 DUP2 SWAP1 SUB PUSH2 0x245 JUMPI DUP2 MSTORE PUSH1 0xD PUSH1 0x20 MSTORE PUSH1 0x40 DUP2 KECCAK256 DUP1 SLOAD DUP3 SWAP2 DUP3 JUMPDEST DUP3 DUP2 LT PUSH2 0x329 JUMPI POP POP POP DUP2 PUSH2 0x2F5 JUMPI PUSH1 0x20 SWAP2 POP JUMPDEST PUSH1 0x40 MLOAD SWAP1 DUP2 MSTORE RETURN JUMPDEST PUSH3 0x93A80 DUP3 ADD DUP1 SWAP3 GT PUSH2 0x315 JUMPI POP PUSH2 0x310 PUSH1 0x20 SWAP2 TIMESTAMP SWAP1 PUSH2 0x2AD7 JUMP JUMPDEST PUSH2 0x2ED JUMP JUMPDEST PUSH4 0x4E487B71 PUSH1 0xE0 SHL DUP2 MSTORE PUSH1 0x11 PUSH1 0x4 MSTORE PUSH1 0x24 SWAP1 REVERT JUMPDEST PUSH2 0x333 DUP2 DUP4 PUSH2 0x2670 JUMP JUMPDEST SWAP1 SLOAD SWAP1 PUSH1 0x3 SHL SHR PUSH3 0x93A80 DUP2 ADD DUP1 SWAP2 GT PUSH2 0x39A JUMPI TIMESTAMP LT PUSH2 0x356 JUMPI JUMPDEST PUSH1 0x1 ADD PUSH2 0x2D9 JUMP JUMPDEST DUP5 ISZERO DUP1 ISZERO PUSH2 0x381 JUMPI JUMPDEST ISZERO PUSH2 0x34E JUMPI SWAP4 POP PUSH1 0x1 PUSH2 0x372 DUP6 DUP4 PUSH2 0x2670 JUMP JUMPDEST SWAP1 SLOAD SWAP1 PUSH1 0x3 SHL SHR SWAP5 SWAP1 POP PUSH2 0x34E JUMP JUMPDEST POP DUP5 PUSH2 0x38D DUP3 DUP5 PUSH2 0x2670 JUMP JUMPDEST SWAP1 SLOAD SWAP1 PUSH1 0x3 SHL SHR LT PUSH2 0x35F JUMP JUMPDEST PUSH4 0x4E487B71 PUSH1 0xE0 SHL DUP6 MSTORE PUSH1 0x11 PUSH1 0x4 MSTORE PUSH1 0x24 DUP6 REVERT JUMPDEST POP CALLVALUE PUSH2 0x247 JUMPI DUP1 PUSH1 0x3 NOT CALLDATASIZE ADD SLT PUSH2 0x247 JUMPI PUSH1 0xE0 DUP1 PUSH1 0x40 MLOAD PUSH2 0x3CF DUP3 DUP3 PUSH2 0x2770 JUMP JUMPDEST CALLDATASIZE SWAP1 CALLDATACOPY PUSH1 0x40 MLOAD PUSH2 0x3DF DUP3 DUP3 PUSH2 0x2770 JUMP JUMPDEST DUP2 CALLDATASIZE DUP3 CALLDATACOPY DUP3 JUMPDEST PUSH1 0x7 DUP2 LT ISZERO PUSH2 0x40C JUMPI PUSH1 0x1 SWAP1 PUSH2 0x3FA DUP2 PUSH2 0x26E0 JUMP JUMPDEST SLOAD PUSH2 0x405 DUP3 DUP6 PUSH2 0x2FC9 JUMP JUMPDEST MSTORE ADD PUSH2 0x3E5 JUMP JUMPDEST POP PUSH2 0x4A9 SWAP1 PUSH2 0x220 SWAP4 PUSH1 0x1 DUP1 PUSH1 0xA0 SHL SUB SWAP1 SLOAD AND SWAP3 PUSH1 0x2 SLOAD SWAP1 PUSH1 0x3 SLOAD SWAP1 PUSH1 0x4 SLOAD SWAP1 PUSH1 0x5 SLOAD SWAP2 PUSH1 0xFF PUSH1 0x6 SLOAD SWAP5 PUSH1 0x7 SLOAD SWAP7 PUSH1 0x40 MLOAD SWAP11 DUP12 MSTORE ADDRESS PUSH1 0x20 DUP13 ADD MSTORE PUSH1 0x1 DUP1 PUSH1 0xA0 SHL SUB PUSH32 0x0 AND PUSH1 0x40 DUP13 ADD MSTORE PUSH1 0x60 DUP12 ADD MSTORE DUP2 DUP2 AND PUSH1 0x80 DUP12 ADD MSTORE PUSH1 0x8 SHR AND PUSH1 0xA0 DUP10 ADD MSTORE PUSH1 0xC0 DUP9 ADD MSTORE DUP7 ADD MSTORE PUSH2 0x100 DUP6 ADD MSTORE PUSH2 0x120 DUP5 ADD MSTORE PUSH2 0x140 DUP4 ADD SWAP1 PUSH2 0x26F9 JUMP JUMPDEST RETURN JUMPDEST POP CALLVALUE PUSH2 0x247 JUMPI DUP1 PUSH1 0x3 NOT CALLDATASIZE ADD SLT PUSH2 0x247 JUMPI PUSH1 0xE0 SWAP1 DUP2 PUSH1 0x40 MLOAD PUSH2 0x4CD DUP3 DUP3 PUSH2 0x2770 JUMP JUMPDEST CALLDATASIZE SWAP1 CALLDATACOPY PUSH1 0x40 MLOAD PUSH2 0x4DD DUP4 DUP3 PUSH2 0x2770 JUMP JUMPDEST DUP3 CALLDATASIZE DUP3 CALLDATACOPY DUP2 JUMPDEST PUSH1 0x7 DUP2 LT ISZERO PUSH2 0x50A JUMPI PUSH1 0x1 SWAP1 PUSH2 0x4F8 DUP2 PUSH2 0x26E0 JUMP JUMPDEST SLOAD PUSH2 0x503 DUP3 DUP6 PUSH2 0x2FC9 JUMP JUMPDEST MSTORE ADD PUSH2 0x4E3 JUMP JUMPDEST DUP4 DUP3 PUSH2 0x4A9 PUSH1 0x40 MLOAD DUP1 SWAP3 PUSH2 0x26F9 JUMP JUMPDEST POP CALLVALUE PUSH2 0x247 JUMPI PUSH1 0x20 CALLDATASIZE PUSH1 0x3 NOT ADD SLT PUSH2 0x247 JUMPI PUSH1 0x4 CALLDATALOAD PUSH1 0x8 DUP2 LT ISZERO PUSH2 0x245 JUMPI CALLER DUP3 MSTORE PUSH1 0x9 PUSH1 0x20 MSTORE PUSH2 0x54F PUSH1 0xFF PUSH1 0x40 DUP5 KECCAK256 SLOAD AND PUSH2 0x2F5E JUMP JUMPDEST CALLER DUP3 MSTORE PUSH1 0xA PUSH1 0x20 MSTORE PUSH1 0x40 DUP3 KECCAK256 PUSH1 0xFF NOT DUP2 SLOAD AND PUSH1 0xFF DUP4 AND OR SWAP1 SSTORE PUSH1 0x6 DUP2 EQ PUSH1 0x0 EQ PUSH2 0x585 JUMPI POP PUSH2 0x57F PUSH1 0x6 SLOAD PUSH2 0x2792 JUMP JUMPDEST PUSH1 0x6 SSTORE DUP1 RETURN JUMPDEST PUSH1 0x7 EQ PUSH2 0x58F JUMPI DUP1 RETURN JUMPDEST PUSH2 0x59A PUSH1 0x7 SLOAD PUSH2 0x2792 JUMP JUMPDEST PUSH1 0x7 SSTORE DUP1 RETURN JUMPDEST POP CALLVALUE PUSH2 0x247 JUMPI PUSH1 0x40 CALLDATASIZE PUSH1 0x3 NOT ADD SLT PUSH2 0x247 JUMPI PUSH1 0x4 CALLDATALOAD PUSH1 0xFF DUP2 AND DUP1 SWAP2 SUB PUSH2 0x245 JUMPI PUSH1 0x24 CALLDATALOAD PUSH1 0xFF DUP2 AND SWAP2 DUP3 DUP3 SUB PUSH2 0x64A JUMPI PUSH32 0x321994B8855AE38E4FD6162F7A0BD7CDE88BE83AA3ACC96E03C17B7F733B43E1 SWAP3 PUSH1 0x40 SWAP3 PUSH1 0x1 DUP1 PUSH1 0xA0 SHL SUB DUP7 SLOAD AND CALLER EQ DUP1 ISZERO PUSH2 0x635 JUMPI JUMPDEST PUSH2 0x610 SWAP1 PUSH2 0x2A6F JUMP JUMPDEST DUP3 PUSH2 0xFF00 PUSH1 0x3 SLOAD SWAP3 PUSH1 0x8 SHL AND SWAP2 PUSH2 0xFFFF NOT AND OR OR PUSH1 0x3 SSTORE DUP3 MLOAD SWAP2 DUP3 MSTORE PUSH1 0x20 DUP3 ADD MSTORE LOG1 DUP1 RETURN JUMPDEST POP CALLER DUP7 MSTORE PUSH1 0x8 PUSH1 0x20 MSTORE DUP4 DUP7 KECCAK256 SLOAD PUSH1 0xFF AND PUSH2 0x607 JUMP JUMPDEST DUP4 DUP1 REVERT JUMPDEST POP CALLVALUE PUSH2 0x247 JUMPI DUP1 PUSH1 0x3 NOT CALLDATASIZE ADD SLT PUSH2 0x247 JUMPI PUSH1 0x20 PUSH1 0x40 MLOAD PUSH3 0x15180 DUP2 MSTORE RETURN JUMPDEST POP CALLVALUE PUSH2 0x247 JUMPI PUSH1 0x20 CALLDATASIZE PUSH1 0x3 NOT ADD SLT PUSH2 0x247 JUMPI PUSH1 0x4 CALLDATALOAD PUSH1 0x1 PUSH1 0x1 PUSH1 0xA0 SHL SUB DUP2 AND SWAP1 DUP2 SWAP1 SUB PUSH2 0x245 JUMPI DUP2 MSTORE PUSH1 0xD PUSH1 0x20 MSTORE PUSH1 0x40 DUP2 KECCAK256 DUP2 SWAP1 DUP3 SWAP1 DUP4 DUP1 SWAP2 DUP2 SWAP1 DUP1 SLOAD SWAP2 JUMPDEST DUP3 DUP2 LT PUSH2 0x758 JUMPI POP POP POP PUSH1 0x3 SLOAD SWAP5 DUP1 ISZERO PUSH1 0x0 EQ PUSH2 0x726 JUMPI POP DUP1 SWAP2 JUMPDEST DUP1 PUSH2 0x700 JUMPI POP PUSH1 0xC0 SWAP5 PUSH1 0xFF DUP1 SWAP3 SWAP5 JUMPDEST DUP2 PUSH1 0x40 MLOAD SWAP8 AND DUP8 MSTORE DUP2 DUP4 AND PUSH1 0x20 DUP9 ADD MSTORE AND PUSH1 0x40 DUP7 ADD MSTORE PUSH1 0x8 SHR AND PUSH1 0x60 DUP5 ADD MSTORE PUSH1 0x80 DUP4 ADD MSTORE PUSH1 0xA0 DUP3 ADD MSTORE RETURN JUMPDEST SWAP1 PUSH3 0x278D00 DUP3 ADD DUP1 SWAP3 GT PUSH2 0x315 JUMPI POP PUSH1 0xC0 SWAP5 PUSH1 0xFF PUSH2 0x720 DUP2 SWAP4 TIMESTAMP SWAP1 PUSH2 0x2AD7 JUMP JUMPDEST SWAP5 PUSH2 0x6D5 JUMP JUMPDEST PUSH3 0x93A80 DUP2 ADD DUP1 SWAP2 GT PUSH2 0x744 JUMPI PUSH2 0x73E SWAP1 TIMESTAMP SWAP1 PUSH2 0x2AD7 JUMP JUMPDEST SWAP2 PUSH2 0x6C6 JUMP JUMPDEST PUSH4 0x4E487B71 PUSH1 0xE0 SHL DUP3 MSTORE PUSH1 0x11 PUSH1 0x4 MSTORE PUSH1 0x24 DUP3 REVERT JUMPDEST PUSH2 0x762 DUP2 DUP4 PUSH2 0x2670 JUMP JUMPDEST SWAP1 SLOAD SWAP1 PUSH1 0x3 SHL SHR PUSH3 0x278D00 DUP2 ADD DUP1 DUP3 GT PUSH2 0x7DE JUMPI TIMESTAMP LT PUSH2 0x786 JUMPI JUMPDEST POP PUSH1 0x1 ADD PUSH2 0x6AB JUMP JUMPDEST SWAP6 PUSH2 0x790 SWAP1 PUSH2 0x2792 JUMP JUMPDEST SWAP6 DUP6 ISZERO DUP1 ISZERO PUSH2 0x7FA JUMPI JUMPDEST PUSH2 0x7F2 JUMPI JUMPDEST PUSH3 0x93A80 DUP2 ADD DUP1 DUP3 GT PUSH2 0x7DE JUMPI TIMESTAMP LT ISZERO PUSH2 0x77D JUMPI SWAP7 PUSH2 0x7BD SWAP1 PUSH2 0x2792 JUMP JUMPDEST SWAP7 DUP9 ISZERO DUP1 ISZERO PUSH2 0x7D5 JUMPI JUMPDEST ISZERO PUSH2 0x77D JUMPI SWAP8 POP PUSH1 0x1 PUSH2 0x77D JUMP JUMPDEST POP DUP9 DUP2 LT PUSH2 0x7C7 JUMP JUMPDEST PUSH4 0x4E487B71 PUSH1 0xE0 SHL DUP7 MSTORE PUSH1 0x11 PUSH1 0x4 MSTORE PUSH1 0x24 DUP7 REVERT JUMPDEST SWAP5 POP DUP5 PUSH2 0x79F JUMP JUMPDEST POP DUP6 DUP2 LT PUSH2 0x79A JUMP JUMPDEST POP CALLVALUE PUSH2 0x247 JUMPI DUP1 PUSH1 0x3 NOT CALLDATASIZE ADD SLT PUSH2 0x247 JUMPI PUSH1 0x20 PUSH1 0x6 SLOAD PUSH1 0x40 MLOAD SWAP1 DUP2 MSTORE RETURN JUMPDEST POP CALLVALUE PUSH2 0x247 JUMPI PUSH1 0x20 CALLDATASIZE PUSH1 0x3 NOT ADD SLT PUSH2 0x247 JUMPI PUSH1 0x4 CALLDATALOAD SWAP1 PUSH1 0x7 DUP3 LT ISZERO PUSH2 0x247 JUMPI PUSH1 0x20 PUSH2 0x84B DUP4 PUSH2 0x26E0 JUMP JUMPDEST SLOAD PUSH1 0x40 MLOAD SWAP1 DUP2 MSTORE RETURN JUMPDEST POP CALLVALUE PUSH2 0x247 JUMPI PUSH1 0x20 CALLDATASIZE PUSH1 0x3 NOT ADD SLT PUSH2 0x247 JUMPI PUSH1 0x4 CALLDATALOAD PUSH1 0x1 PUSH1 0x1 PUSH1 0xA0 SHL SUB DUP2 AND SWAP1 DUP2 SWAP1 SUB PUSH2 0x245 JUMPI CALLER DUP3 MSTORE PUSH1 0xA PUSH1 0x20 MSTORE PUSH1 0xFF PUSH1 0x40 DUP4 KECCAK256 SLOAD AND PUSH1 0x8 DUP2 LT ISZERO PUSH2 0xA74 JUMPI PUSH1 0x1 SUB PUSH2 0xA3E JUMPI PUSH3 0x278CFF NOT TIMESTAMP ADD SWAP1 TIMESTAMP DUP3 GT PUSH2 0xA2A JUMPI DUP1 DUP4 MSTORE PUSH1 0xD PUSH1 0x20 MSTORE PUSH1 0x40 DUP4 KECCAK256 DUP1 SLOAD SWAP3 DUP5 JUMPDEST DUP5 DUP2 LT DUP1 PUSH2 0xA11 JUMPI JUMPDEST ISZERO PUSH2 0x8D7 JUMPI PUSH2 0x8D2 SWAP1 PUSH2 0x2792 JUMP JUMPDEST PUSH2 0x8BB JUMP JUMPDEST DUP4 DUP4 DUP8 SWAP3 DUP1 PUSH2 0x95D JUMPI JUMPDEST POP DUP1 SLOAD SWAP1 PUSH1 0x1 PUSH1 0x40 SHL DUP3 LT ISZERO PUSH2 0x949 JUMPI DUP2 PUSH2 0x904 SWAP2 PUSH1 0x1 PUSH2 0x91C SWAP5 ADD DUP2 SSTORE PUSH2 0x2670 JUMP JUMPDEST TIMESTAMP SWAP1 DUP3 SLOAD SWAP1 PUSH1 0x3 SHL SWAP2 DUP3 SHL SWAP2 PUSH1 0x0 NOT SWAP1 SHL NOT AND OR SWAP1 SSTORE JUMP JUMPDEST PUSH32 0x498F5E6DCF570483A1848853791046A7F10012193176D71F959F46EB7713D744 PUSH1 0x20 PUSH1 0x40 MLOAD TIMESTAMP DUP2 MSTORE LOG2 DUP1 RETURN JUMPDEST PUSH4 0x4E487B71 PUSH1 0xE0 SHL DUP5 MSTORE PUSH1 0x41 PUSH1 0x4 MSTORE PUSH1 0x24 DUP5 REVERT JUMPDEST SWAP3 DUP1 JUMPDEST PUSH2 0x96B DUP6 DUP5 SLOAD PUSH2 0x2AD7 JUMP JUMPDEST DUP2 LT ISZERO PUSH2 0x9BB JUMPI DUP1 PUSH2 0x9B5 PUSH2 0x98B PUSH2 0x985 DUP9 PUSH1 0x1 SWAP6 PUSH2 0x2ACA JUMP JUMPDEST DUP7 PUSH2 0x2670 JUMP JUMPDEST SWAP1 SLOAD SWAP1 PUSH1 0x3 SHL SHR PUSH2 0x99C DUP4 DUP8 PUSH2 0x2670 JUMP JUMPDEST SWAP1 SWAP2 SWAP1 DUP3 SLOAD SWAP1 PUSH1 0x3 SHL SWAP2 DUP3 SHL SWAP2 PUSH1 0x0 NOT SWAP1 SHL NOT AND OR SWAP1 SSTORE JUMP JUMPDEST ADD PUSH2 0x960 JUMP JUMPDEST POP SWAP3 DUP4 JUMPDEST DUP2 DUP2 LT PUSH2 0x9CC JUMPI POP PUSH2 0x8E1 JUMP JUMPDEST DUP3 SLOAD DUP1 ISZERO PUSH2 0x9FD JUMPI PUSH1 0x1 SWAP2 SWAP1 PUSH1 0x0 NOT ADD PUSH2 0x9E6 DUP2 DUP7 PUSH2 0x2670 JUMP JUMPDEST DUP2 SLOAD SWAP1 PUSH1 0x0 NOT SWAP1 PUSH1 0x3 SHL SHL NOT AND SWAP1 SSTORE DUP5 SSTORE ADD PUSH2 0x9BF JUMP JUMPDEST PUSH4 0x4E487B71 PUSH1 0xE0 SHL DUP7 MSTORE PUSH1 0x31 PUSH1 0x4 MSTORE PUSH1 0x24 DUP7 REVERT JUMPDEST POP DUP2 PUSH2 0xA1D DUP3 DUP6 PUSH2 0x2670 JUMP JUMPDEST SWAP1 SLOAD SWAP1 PUSH1 0x3 SHL SHR LT PUSH2 0x8C4 JUMP JUMPDEST PUSH4 0x4E487B71 PUSH1 0xE0 SHL DUP4 MSTORE PUSH1 0x11 PUSH1 0x4 MSTORE PUSH1 0x24 DUP4 REVERT JUMPDEST PUSH1 0x40 MLOAD PUSH3 0x461BCD PUSH1 0xE5 SHL DUP2 MSTORE PUSH1 0x20 PUSH1 0x4 DUP3 ADD MSTORE PUSH1 0xE PUSH1 0x24 DUP3 ADD MSTORE PUSH14 0x24B73B30B634B21031B0B63632B9 PUSH1 0x91 SHL PUSH1 0x44 DUP3 ADD MSTORE PUSH1 0x64 SWAP1 REVERT JUMPDEST PUSH4 0x4E487B71 PUSH1 0xE0 SHL DUP4 MSTORE PUSH1 0x21 PUSH1 0x4 MSTORE PUSH1 0x24 DUP4 REVERT JUMPDEST POP CALLVALUE PUSH2 0x247 JUMPI DUP1 PUSH1 0x3 NOT CALLDATASIZE ADD SLT PUSH2 0x247 JUMPI PUSH1 0x40 MLOAD PUSH32 0x0 PUSH1 0x1 PUSH1 0x1 PUSH1 0xA0 SHL SUB AND DUP2 MSTORE PUSH1 0x20 SWAP1 RETURN JUMPDEST POP CALLVALUE PUSH2 0x247 JUMPI PUSH1 0x20 CALLDATASIZE PUSH1 0x3 NOT ADD SLT PUSH2 0x247 JUMPI PUSH1 0x4 CALLDATALOAD PUSH1 0x1 PUSH1 0x1 PUSH1 0xA0 SHL SUB DUP2 AND SWAP1 DUP2 SWAP1 SUB PUSH2 0x245 JUMPI PUSH1 0x40 DUP3 PUSH1 0xFF SWAP3 PUSH1 0x20 SWAP5 MSTORE PUSH1 0x8 DUP5 MSTORE KECCAK256 SLOAD AND PUSH1 0x40 MLOAD SWAP1 ISZERO ISZERO DUP2 MSTORE RETURN JUMPDEST POP CALLVALUE PUSH2 0x247 JUMPI DUP1 PUSH1 0x3 NOT CALLDATASIZE ADD SLT PUSH2 0x247 JUMPI PUSH1 0x2 SLOAD SWAP1 DUP1 DUP1 JUMPDEST DUP4 DUP2 LT PUSH2 0xC14 JUMPI POP PUSH2 0xB41 PUSH2 0xB3B DUP4 PUSH2 0x27CF JUMP JUMPDEST SWAP3 PUSH2 0x27CF JUMP JUMPDEST SWAP3 DUP2 DUP1 JUMPDEST DUP3 DUP2 LT PUSH2 0xB5B JUMPI PUSH1 0x40 MLOAD DUP1 PUSH2 0x241 DUP9 DUP9 DUP4 PUSH2 0x25E0 JUMP JUMPDEST PUSH2 0xB64 DUP2 PUSH2 0x263F JUMP JUMPDEST SWAP1 SLOAD PUSH1 0x3 SWAP2 SWAP1 SWAP2 SHL SHR PUSH1 0x1 PUSH1 0x1 PUSH1 0xA0 SHL SUB AND DUP3 MSTORE PUSH1 0xA PUSH1 0x20 MSTORE PUSH1 0x40 DUP3 KECCAK256 SLOAD PUSH1 0xFF AND PUSH1 0x8 DUP2 LT ISZERO DUP1 PUSH2 0xC00 JUMPI PUSH1 0x6 DUP3 EQ DUP1 ISZERO PUSH2 0xBF4 JUMPI JUMPDEST PUSH2 0xBA9 JUMPI JUMPDEST POP POP PUSH1 0x1 ADD PUSH2 0xB45 JUMP JUMPDEST PUSH2 0xBB4 DUP4 SWAP7 SWAP4 PUSH2 0x263F JUMP JUMPDEST SWAP1 SLOAD PUSH1 0x3 SWAP2 SWAP1 SWAP2 SHL SHR PUSH1 0x1 PUSH1 0x1 PUSH1 0xA0 SHL SUB AND PUSH2 0xBD0 DUP5 DUP10 PUSH2 0x2801 JUMP JUMPDEST MSTORE PUSH2 0xA74 JUMPI DUP2 PUSH2 0xBEC SWAP2 PUSH2 0xBE6 PUSH1 0x1 SWAP5 DUP11 PUSH2 0x2801 JUMP JUMPDEST MSTORE PUSH2 0x2792 JUMP JUMPDEST SWAP4 SWAP1 CODESIZE PUSH2 0xB9F JUMP JUMPDEST POP POP DUP3 PUSH1 0x7 DUP3 EQ PUSH2 0xB9A JUMP JUMPDEST PUSH4 0x4E487B71 PUSH1 0xE0 SHL DUP5 MSTORE PUSH1 0x21 PUSH1 0x4 MSTORE PUSH1 0x24 DUP5 REVERT JUMPDEST PUSH2 0xC1D DUP2 PUSH2 0x263F JUMP JUMPDEST SWAP1 SLOAD PUSH1 0x3 SWAP2 SWAP1 SWAP2 SHL SHR PUSH1 0x1 PUSH1 0x1 PUSH1 0xA0 SHL SUB AND DUP3 MSTORE PUSH1 0xA PUSH1 0x20 MSTORE PUSH1 0x40 DUP3 KECCAK256 SLOAD PUSH1 0xFF AND PUSH1 0x8 DUP2 LT ISZERO PUSH2 0xA74 JUMPI PUSH1 0x6 DUP2 EQ SWAP1 DUP2 ISZERO PUSH2 0xC75 JUMPI JUMPDEST POP PUSH2 0xC61 JUMPI JUMPDEST PUSH1 0x1 ADD PUSH2 0xB27 JUMP JUMPDEST SWAP2 PUSH2 0xC6D PUSH1 0x1 SWAP2 PUSH2 0x2792 JUMP JUMPDEST SWAP3 SWAP1 POP PUSH2 0xC59 JUMP JUMPDEST PUSH1 0x7 SWAP2 POP EQ CODESIZE PUSH2 0xC53 JUMP JUMPDEST POP CALLVALUE PUSH2 0x247 JUMPI PUSH1 0x20 CALLDATASIZE PUSH1 0x3 NOT ADD SLT PUSH2 0x247 JUMPI PUSH1 0x4 CALLDATALOAD PUSH1 0x1 PUSH1 0x1 PUSH1 0xA0 SHL SUB DUP2 AND SWAP1 DUP2 SWAP1 SUB PUSH2 0x245 JUMPI PUSH1 0x40 DUP3 PUSH1 0xFF SWAP3 PUSH1 0x20 SWAP5 MSTORE PUSH1 0x9 DUP5 MSTORE KECCAK256 SLOAD AND PUSH1 0x40 MLOAD SWAP1 ISZERO ISZERO DUP2 MSTORE RETURN JUMPDEST POP PUSH1 0x20 CALLDATASIZE PUSH1 0x3 NOT ADD SLT PUSH2 0x247 JUMPI PUSH1 0x4 CALLDATALOAD PUSH1 0x7 DUP2 LT ISZERO PUSH2 0x245 JUMPI CALLER DUP3 MSTORE PUSH1 0x9 PUSH1 0x20 MSTORE PUSH2 0xCF3 PUSH1 0xFF PUSH1 0x40 DUP5 KECCAK256 SLOAD AND PUSH2 0x2F5E JUMP JUMPDEST PUSH2 0xCFB PUSH2 0x3003 JUMP JUMPDEST CALLVALUE ISZERO PUSH2 0xDF2 JUMPI CALLER DUP3 MSTORE PUSH1 0xA PUSH1 0x20 MSTORE PUSH1 0xFF PUSH1 0x40 DUP4 KECCAK256 SLOAD AND PUSH1 0x8 DUP2 LT ISZERO PUSH2 0xA74 JUMPI PUSH1 0x6 EQ DUP1 ISZERO PUSH2 0xDD0 JUMPI JUMPDEST ISZERO PUSH2 0xD94 JUMPI PUSH2 0xD32 DUP2 PUSH2 0x26E0 JUMP JUMPDEST PUSH2 0xD3D CALLVALUE DUP3 SLOAD PUSH2 0x2ACA JUMP JUMPDEST SWAP1 SSTORE PUSH2 0xD4B CALLVALUE PUSH1 0x4 SLOAD PUSH2 0x2ACA JUMP JUMPDEST PUSH1 0x4 SSTORE PUSH2 0xD5D PUSH1 0x3 CALLVALUE DIV PUSH1 0x5 SLOAD PUSH2 0x2ACA JUMP JUMPDEST PUSH1 0x5 SSTORE PUSH1 0x40 MLOAD SWAP1 CALLVALUE DUP3 MSTORE PUSH32 0x606617FD09D9890413E3C46147B844D4562351F86E0F7A5C60849BBF0EF02811 PUSH1 0x20 CALLER SWAP4 LOG3 PUSH1 0x1 DUP1 SSTORE DUP1 RETURN JUMPDEST PUSH1 0x40 MLOAD PUSH3 0x461BCD PUSH1 0xE5 SHL DUP2 MSTORE PUSH1 0x20 PUSH1 0x4 DUP3 ADD MSTORE PUSH1 0x14 PUSH1 0x24 DUP3 ADD MSTORE PUSH20 0x21B0B63632B9103737BA10309036B4B9B9B4B7B7 PUSH1 0x61 SHL PUSH1 0x44 DUP3 ADD MSTORE PUSH1 0x64 SWAP1 REVERT JUMPDEST POP CALLER DUP3 MSTORE PUSH1 0xA PUSH1 0x20 MSTORE PUSH1 0xFF PUSH1 0x40 DUP4 KECCAK256 SLOAD AND PUSH1 0x8 DUP2 LT ISZERO PUSH2 0xA74 JUMPI PUSH1 0x7 EQ PUSH2 0xD24 JUMP JUMPDEST PUSH1 0x64 PUSH1 0x40 MLOAD PUSH3 0x461BCD PUSH1 0xE5 SHL DUP2 MSTORE PUSH1 0x20 PUSH1 0x4 DUP3 ADD MSTORE PUSH1 0x20 PUSH1 0x24 DUP3 ADD MSTORE PUSH32 0x416D6F756E74206D7573742062652067726561746572207468616E207A65726F PUSH1 0x44 DUP3 ADD MSTORE REVERT JUMPDEST POP PUSH2 0x120 CALLDATASIZE PUSH1 0x3 NOT ADD SLT PUSH2 0x247 JUMPI PUSH1 0x4 CALLDATALOAD PUSH1 0x7 DUP2 LT ISZERO PUSH2 0x245 JUMPI PUSH1 0x24 CALLDATALOAD SWAP1 PUSH1 0x44 CALLDATALOAD SWAP2 PUSH1 0x64 CALLDATALOAD PUSH1 0x84 CALLDATALOAD PUSH1 0xFF DUP2 AND DUP1 SWAP2 SUB PUSH2 0x13CB JUMPI PUSH1 0xA4 CALLDATALOAD PUSH1 0xFF DUP2 AND DUP1 SWAP2 SUB PUSH2 0x13C7 JUMPI PUSH1 0xC4 CALLDATALOAD SWAP1 PUSH1 0xE4 CALLDATALOAD SWAP3 PUSH2 0x104 CALLDATALOAD SWAP5 PUSH1 0xFF DUP7 AND DUP1 SWAP7 SUB PUSH2 0x13C3 JUMPI DUP10 SLOAD PUSH1 0x1 PUSH1 0x1 PUSH1 0xA0 SHL SUB AND CALLER EQ DUP1 ISZERO PUSH2 0x13AD JUMPI JUMPDEST PUSH2 0xEAC SWAP1 PUSH2 0x2A6F JUMP JUMPDEST PUSH2 0xEB4 PUSH2 0x3003 JUMP JUMPDEST PUSH1 0x5 DUP7 LT PUSH2 0x134E JUMPI DUP6 DUP3 LT PUSH2 0x12E3 JUMPI DUP2 DUP4 LT PUSH2 0x1279 JUMPI DUP9 DUP8 LT ISZERO PUSH2 0x1228 JUMPI DUP9 DUP5 LT PUSH2 0x11CA JUMPI DUP4 DUP6 GT ISZERO PUSH2 0x1186 JUMPI DUP1 ISZERO PUSH2 0x112D JUMPI PUSH32 0x0 PUSH1 0x88 DUP2 SWAP1 SHR PUSH3 0xFFFFFF AND PUSH23 0x3D602D80600A3D3981F3363D3D373D3D3D363D73000000 OR DUP12 MSTORE PUSH1 0x78 SHL PUSH15 0x5AF43D82803E903D91602B57FD5BF3 OR PUSH1 0x20 MSTORE PUSH1 0x1 PUSH1 0x1 PUSH1 0xA0 SHL SUB PUSH1 0x37 PUSH1 0x9 DUP13 CREATE AND SWAP9 DUP10 ISZERO PUSH2 0x111E JUMPI DUP10 DUP12 MSTORE PUSH1 0x9 PUSH1 0x20 MSTORE PUSH1 0x40 DUP12 KECCAK256 PUSH1 0x1 PUSH1 0xFF NOT DUP3 SLOAD AND OR SWAP1 SSTORE DUP10 DUP12 MSTORE PUSH1 0xA PUSH1 0x20 MSTORE PUSH1 0x40 DUP12 KECCAK256 PUSH1 0xFF NOT DUP2 SLOAD AND SWAP1 SSTORE PUSH1 0x1 DUP1 PUSH1 0xA0 SHL SUB DUP12 SLOAD AND SWAP8 DUP11 EXTCODESIZE ISZERO PUSH2 0x111A JUMPI PUSH1 0x40 MLOAD SWAP9 PUSH4 0xC54168B3 PUSH1 0xE0 SHL DUP11 MSTORE PUSH1 0x4 DUP11 ADD MSTORE ADDRESS PUSH1 0x24 DUP11 ADD MSTORE PUSH2 0xFBD PUSH1 0x44 DUP11 ADD DUP12 PUSH2 0x2632 JUMP JUMPDEST PUSH1 0x64 DUP10 ADD MSTORE PUSH1 0x84 DUP9 ADD MSTORE PUSH1 0xA4 DUP8 ADD MSTORE PUSH1 0xC4 DUP7 ADD MSTORE PUSH1 0xE4 DUP6 ADD MSTORE PUSH2 0x104 DUP5 ADD MSTORE PUSH2 0x124 DUP4 ADD MSTORE PUSH2 0x144 DUP3 ADD MSTORE DUP4 DUP2 PUSH2 0x164 DUP2 CALLVALUE DUP8 GAS CALL DUP1 ISZERO PUSH2 0x110F JUMPI PUSH2 0x10FB JUMPI JUMPDEST POP PUSH1 0x2 SLOAD PUSH1 0x1 PUSH1 0x40 SHL DUP2 LT ISZERO PUSH2 0x949 JUMPI DUP1 PUSH1 0x1 PUSH2 0x101D SWAP3 ADD PUSH1 0x2 SSTORE PUSH2 0x263F JUMP JUMPDEST DUP2 SLOAD PUSH1 0x1 PUSH1 0x1 PUSH1 0xA0 SHL SUB PUSH1 0x3 SWAP3 SWAP1 SWAP3 SHL SWAP2 DUP3 SHL NOT AND SWAP1 DUP5 SWAP1 SHL OR SWAP1 SSTORE DUP1 DUP3 PUSH32 0xAC1AC89285BF936F515AAFCF6808B3E062E77FD57F52C8892D20FC9409B8B53 DUP6 DUP1 LOG3 PUSH2 0x1068 DUP2 PUSH2 0x26E0 JUMP JUMPDEST SLOAD PUSH1 0x2 SHR SWAP1 DUP2 ISZERO ISZERO DUP1 PUSH2 0x10F1 JUMPI JUMPDEST PUSH2 0x108A JUMPI JUMPDEST PUSH1 0x20 DUP4 PUSH1 0x1 DUP1 SSTORE PUSH1 0x40 MLOAD SWAP1 DUP2 MSTORE RETURN JUMPDEST PUSH2 0x1093 SWAP1 PUSH2 0x26E0 JUMP JUMPDEST PUSH2 0x109E DUP3 DUP3 SLOAD PUSH2 0x2AD7 JUMP JUMPDEST SWAP1 SSTORE DUP3 DUP3 EXTCODESIZE ISZERO PUSH2 0x247 JUMPI PUSH1 0x40 MLOAD PUSH4 0xEB2BAB77 PUSH1 0xE0 SHL DUP2 MSTORE SWAP2 DUP3 SWAP1 PUSH1 0x4 SWAP1 DUP3 SWAP1 DUP7 GAS CALL DUP1 ISZERO PUSH2 0x10E6 JUMPI PUSH2 0x10D1 JUMPI JUMPDEST DUP1 PUSH2 0x107B JUMP JUMPDEST PUSH2 0x10DC DUP4 DUP1 SWAP3 PUSH2 0x2770 JUMP JUMPDEST PUSH2 0x245 JUMPI DUP2 PUSH2 0x10CB JUMP JUMPDEST PUSH1 0x40 MLOAD RETURNDATASIZE DUP6 DUP3 RETURNDATACOPY RETURNDATASIZE SWAP1 REVERT JUMPDEST POP DUP2 SELFBALANCE LT ISZERO PUSH2 0x1076 JUMP JUMPDEST DUP4 PUSH2 0x1108 SWAP2 SWAP5 SWAP3 SWAP5 PUSH2 0x2770 JUMP JUMPDEST SWAP2 CODESIZE PUSH2 0xFFD JUMP JUMPDEST PUSH1 0x40 MLOAD RETURNDATASIZE DUP7 DUP3 RETURNDATACOPY RETURNDATASIZE SWAP1 REVERT JUMPDEST DUP12 DUP1 REVERT JUMPDEST PUSH4 0xB06EBF3D PUSH1 0xE0 SHL DUP12 MSTORE PUSH1 0x4 DUP12 REVERT JUMPDEST PUSH1 0x40 MLOAD PUSH3 0x461BCD PUSH1 0xE5 SHL DUP2 MSTORE PUSH1 0x20 PUSH1 0x4 DUP3 ADD MSTORE PUSH1 0x2B PUSH1 0x24 DUP3 ADD MSTORE PUSH32 0x456E726F6C6C6D656E7420616D6F756E74206D75737420626520677265617465 PUSH1 0x44 DUP3 ADD MSTORE PUSH11 0x72207468616E207A65726F PUSH1 0xA8 SHL PUSH1 0x64 DUP3 ADD MSTORE PUSH1 0x84 SWAP1 REVERT JUMPDEST PUSH1 0x64 PUSH1 0x40 MLOAD PUSH3 0x461BCD PUSH1 0xE5 SHL DUP2 MSTORE PUSH1 0x20 PUSH1 0x4 DUP3 ADD MSTORE PUSH1 0x20 PUSH1 0x24 DUP3 ADD MSTORE PUSH32 0x4D697373696F6E207374617274206D757374206265206265666F726520656E64 PUSH1 0x44 DUP3 ADD MSTORE REVERT JUMPDEST PUSH1 0x40 MLOAD PUSH3 0x461BCD PUSH1 0xE5 SHL DUP2 MSTORE PUSH1 0x20 PUSH1 0x4 DUP3 ADD MSTORE PUSH1 0x30 PUSH1 0x24 DUP3 ADD MSTORE PUSH32 0x4D697373696F6E207374617274206D757374206265206F6E206F722061667465 PUSH1 0x44 DUP3 ADD MSTORE PUSH16 0x1C88195B9C9BDB1B1B595B9D08195B99 PUSH1 0x82 SHL PUSH1 0x64 DUP3 ADD MSTORE PUSH1 0x84 SWAP1 REVERT JUMPDEST PUSH1 0x40 MLOAD PUSH3 0x461BCD PUSH1 0xE5 SHL DUP2 MSTORE PUSH1 0x20 PUSH1 0x4 DUP3 ADD MSTORE PUSH1 0x23 PUSH1 0x24 DUP3 ADD MSTORE PUSH32 0x456E726F6C6C6D656E74207374617274206D757374206265206265666F726520 PUSH1 0x44 DUP3 ADD MSTORE PUSH3 0x195B99 PUSH1 0xEA SHL PUSH1 0x64 DUP3 ADD MSTORE PUSH1 0x84 SWAP1 REVERT JUMPDEST PUSH1 0x84 PUSH1 0x40 MLOAD PUSH3 0x461BCD PUSH1 0xE5 SHL DUP2 MSTORE PUSH1 0x20 PUSH1 0x4 DUP3 ADD MSTORE PUSH1 0x40 PUSH1 0x24 DUP3 ADD MSTORE PUSH32 0x4D6178696D756D20706C6179657273206D757374206265206772656174657220 PUSH1 0x44 DUP3 ADD MSTORE PUSH32 0x7468616E206F7220657175616C20746F206D696E696D756D20706C6179657273 PUSH1 0x64 DUP3 ADD MSTORE REVERT JUMPDEST PUSH1 0x40 MLOAD PUSH3 0x461BCD PUSH1 0xE5 SHL DUP2 MSTORE PUSH1 0x20 PUSH1 0x4 DUP3 ADD MSTORE PUSH1 0x3F PUSH1 0x24 DUP3 ADD MSTORE PUSH32 0x4D696E696D756D20706C6179657273206D757374206265206772656174657220 PUSH1 0x44 DUP3 ADD MSTORE PUSH32 0x7468616E206F7220657175616C20746F206D697373696F6E20726F756E647300 PUSH1 0x64 DUP3 ADD MSTORE PUSH1 0x84 SWAP1 REVERT JUMPDEST PUSH1 0x40 MLOAD PUSH3 0x461BCD PUSH1 0xE5 SHL DUP2 MSTORE PUSH1 0x20 PUSH1 0x4 DUP3 ADD MSTORE PUSH1 0x31 PUSH1 0x24 DUP3 ADD MSTORE PUSH32 0x4D697373696F6E20726F756E6473206D75737420626520677265617465722074 PUSH1 0x44 DUP3 ADD MSTORE PUSH17 0x68616E206F7220657175616C20746F2035 PUSH1 0x78 SHL PUSH1 0x64 DUP3 ADD MSTORE PUSH1 0x84 SWAP1 REVERT JUMPDEST POP CALLER DUP11 MSTORE PUSH1 0x8 PUSH1 0x20 MSTORE PUSH1 0x40 DUP11 KECCAK256 SLOAD PUSH1 0xFF AND PUSH2 0xEA3 JUMP JUMPDEST DUP10 DUP1 REVERT JUMPDEST DUP7 DUP1 REVERT JUMPDEST DUP6 DUP1 REVERT JUMPDEST POP CALLVALUE PUSH2 0x247 JUMPI PUSH1 0x20 CALLDATASIZE PUSH1 0x3 NOT ADD SLT PUSH2 0x247 JUMPI PUSH1 0x4 CALLDATALOAD PUSH1 0x1 PUSH1 0x1 PUSH1 0xA0 SHL SUB DUP2 AND DUP2 SUB PUSH2 0x245 JUMPI PUSH2 0x13FD SWAP1 PUSH2 0x2DDF JUMP JUMPDEST PUSH1 0x40 MLOAD SWAP2 ISZERO ISZERO DUP3 MSTORE PUSH1 0x3 DUP2 LT ISZERO PUSH2 0xA74 JUMPI PUSH1 0x40 SWAP3 POP PUSH1 0x20 DUP3 ADD MSTORE RETURN JUMPDEST POP CALLVALUE PUSH2 0x247 JUMPI DUP1 PUSH1 0x3 NOT CALLDATASIZE ADD SLT PUSH2 0x247 JUMPI SLOAD PUSH1 0x40 MLOAD PUSH1 0x1 PUSH1 0x1 PUSH1 0xA0 SHL SUB SWAP1 SWAP2 AND DUP2 MSTORE PUSH1 0x20 SWAP1 RETURN JUMPDEST POP CALLVALUE PUSH2 0x247 JUMPI DUP1 PUSH1 0x3 NOT CALLDATASIZE ADD SLT PUSH2 0x247 JUMPI PUSH1 0x20 PUSH1 0xFF PUSH1 0x3 SLOAD AND PUSH1 0x40 MLOAD SWAP1 DUP2 MSTORE RETURN JUMPDEST POP CALLVALUE PUSH2 0x247 JUMPI DUP1 PUSH1 0x3 NOT CALLDATASIZE ADD SLT PUSH2 0x247 JUMPI PUSH1 0x20 PUSH1 0x7 SLOAD PUSH1 0x40 MLOAD SWAP1 DUP2 MSTORE RETURN JUMPDEST POP CALLVALUE PUSH2 0x247 JUMPI PUSH1 0x20 CALLDATASIZE PUSH1 0x3 NOT ADD SLT PUSH2 0x247 JUMPI PUSH1 0x2 SLOAD SWAP1 PUSH1 0x4 CALLDATALOAD DUP3 DUP2 GT PUSH2 0x155E JUMPI JUMPDEST PUSH2 0x14A9 DUP2 PUSH2 0x27CF JUMP JUMPDEST SWAP2 PUSH2 0x14B3 DUP3 PUSH2 0x27CF JUMP JUMPDEST SWAP4 PUSH1 0x0 NOT DUP2 ADD SWAP1 DUP2 GT DUP3 JUMPDEST DUP5 DUP2 LT PUSH2 0x14D4 JUMPI PUSH1 0x40 MLOAD DUP1 PUSH2 0x241 DUP10 DUP10 DUP4 PUSH2 0x25E0 JUMP JUMPDEST DUP2 PUSH2 0x154A JUMPI PUSH2 0x14EB PUSH2 0x14E6 DUP3 DUP6 PUSH2 0x2AD7 JUMP JUMPDEST PUSH2 0x263F JUMP JUMPDEST SWAP1 SLOAD PUSH1 0x3 SWAP2 SWAP1 SWAP2 SHL SHR PUSH1 0x1 PUSH1 0x1 PUSH1 0xA0 SHL SUB AND DUP1 PUSH2 0x1508 DUP4 DUP10 PUSH2 0x2801 JUMP JUMPDEST MSTORE DUP5 MSTORE PUSH1 0xA PUSH1 0x20 MSTORE PUSH1 0xFF PUSH1 0x40 DUP6 KECCAK256 SLOAD AND PUSH1 0x8 DUP2 LT ISZERO PUSH2 0x1536 JUMPI SWAP1 PUSH1 0x1 SWAP2 PUSH2 0x152F DUP3 DUP11 PUSH2 0x2801 JUMP JUMPDEST MSTORE ADD PUSH2 0x14BE JUMP JUMPDEST PUSH4 0x4E487B71 PUSH1 0xE0 SHL DUP6 MSTORE PUSH1 0x21 PUSH1 0x4 MSTORE PUSH1 0x24 DUP6 REVERT JUMPDEST PUSH4 0x4E487B71 PUSH1 0xE0 SHL DUP5 MSTORE PUSH1 0x11 PUSH1 0x4 MSTORE PUSH1 0x24 DUP5 REVERT JUMPDEST POP DUP2 PUSH2 0x14A0 JUMP JUMPDEST POP CALLVALUE PUSH2 0x247 JUMPI DUP1 PUSH1 0x3 NOT CALLDATASIZE ADD SLT PUSH2 0x247 JUMPI PUSH2 0x157E PUSH2 0x2FDA JUMP JUMPDEST DUP1 SLOAD PUSH1 0x1 PUSH1 0x1 PUSH1 0xA0 SHL SUB NOT DUP2 AND DUP3 SSTORE DUP2 SWAP1 PUSH1 0x1 PUSH1 0x1 PUSH1 0xA0 SHL SUB AND PUSH32 0x8BE0079C531659141344CD1FD0A4F28419497F9722A3DAAFE3B4186F6B6457E0 DUP3 DUP1 LOG3 DUP1 RETURN JUMPDEST POP CALLVALUE PUSH2 0x247 JUMPI PUSH1 0x20 CALLDATASIZE PUSH1 0x3 NOT ADD SLT PUSH2 0x247 JUMPI PUSH1 0x4 CALLDATALOAD PUSH1 0x1 PUSH1 0x1 PUSH1 0xA0 SHL SUB DUP2 AND SWAP1 DUP2 SWAP1 SUB PUSH2 0x245 JUMPI DUP2 SLOAD PUSH1 0x1 PUSH1 0x1 PUSH1 0xA0 SHL SUB AND CALLER EQ DUP1 ISZERO PUSH2 0x1694 JUMPI JUMPDEST PUSH2 0x1603 SWAP1 PUSH2 0x2A6F JUMP JUMPDEST PUSH2 0x160E DUP2 ISZERO ISZERO PUSH2 0x2AE4 JUMP JUMPDEST DUP1 DUP3 MSTORE PUSH1 0x8 PUSH1 0x20 MSTORE PUSH1 0xFF PUSH1 0x40 DUP4 KECCAK256 SLOAD AND ISZERO PUSH2 0x165E JUMPI DUP1 DUP3 MSTORE PUSH1 0x8 PUSH1 0x20 MSTORE PUSH1 0x40 DUP3 KECCAK256 DUP1 SLOAD PUSH1 0xFF NOT AND SWAP1 SSTORE PUSH32 0x66D5F06F711AF3C9FEBA3203FDB00B51345D514C68585D9D319C5FF5E6F77592 DUP3 DUP1 LOG2 DUP1 RETURN JUMPDEST PUSH1 0x40 MLOAD PUSH3 0x461BCD PUSH1 0xE5 SHL DUP2 MSTORE PUSH1 0x20 PUSH1 0x4 DUP3 ADD MSTORE PUSH1 0xE PUSH1 0x24 DUP3 ADD MSTORE PUSH14 0x139BDD08185D5D1A1BDC9A5E9959 PUSH1 0x92 SHL PUSH1 0x44 DUP3 ADD MSTORE PUSH1 0x64 SWAP1 REVERT JUMPDEST POP CALLER DUP3 MSTORE PUSH1 0x8 PUSH1 0x20 MSTORE PUSH1 0x40 DUP3 KECCAK256 SLOAD PUSH1 0xFF AND PUSH2 0x15FA JUMP JUMPDEST POP CALLVALUE PUSH2 0x247 JUMPI DUP1 PUSH1 0x3 NOT CALLDATASIZE ADD SLT PUSH2 0x247 JUMPI PUSH2 0x16C3 PUSH2 0x2B53 JUMP JUMPDEST SWAP1 PUSH2 0x241 PUSH1 0x40 MLOAD SWAP3 DUP4 SWAP3 DUP4 PUSH2 0x2688 JUMP JUMPDEST POP CALLVALUE PUSH2 0x247 JUMPI DUP1 PUSH1 0x3 NOT CALLDATASIZE ADD SLT PUSH2 0x247 JUMPI PUSH1 0x2 SLOAD SWAP1 DUP1 DUP1 JUMPDEST DUP4 DUP2 LT PUSH2 0x17B9 JUMPI POP PUSH2 0x16FF PUSH2 0xB3B DUP4 PUSH2 0x27CF JUMP JUMPDEST SWAP3 DUP2 DUP1 JUMPDEST DUP3 DUP2 LT PUSH2 0x1719 JUMPI PUSH1 0x40 MLOAD DUP1 PUSH2 0x241 DUP9 DUP9 DUP4 PUSH2 0x25E0 JUMP JUMPDEST PUSH2 0x1722 DUP2 PUSH2 0x263F JUMP JUMPDEST SWAP1 SLOAD PUSH1 0x3 SWAP2 SWAP1 SWAP2 SHL SHR PUSH1 0x1 PUSH1 0x1 PUSH1 0xA0 SHL SUB AND DUP3 MSTORE PUSH1 0xA PUSH1 0x20 MSTORE PUSH1 0x40 DUP3 KECCAK256 SLOAD PUSH1 0xFF AND PUSH1 0x8 DUP2 LT ISZERO DUP1 PUSH2 0xC00 JUMPI PUSH1 0x6 DUP3 EQ ISZERO DUP1 PUSH2 0x17AC JUMPI JUMPDEST PUSH2 0x1767 JUMPI JUMPDEST POP POP PUSH1 0x1 ADD PUSH2 0x1703 JUMP JUMPDEST PUSH2 0x1772 DUP4 SWAP7 SWAP4 PUSH2 0x263F JUMP JUMPDEST SWAP1 SLOAD PUSH1 0x3 SWAP2 SWAP1 SWAP2 SHL SHR PUSH1 0x1 PUSH1 0x1 PUSH1 0xA0 SHL SUB AND PUSH2 0x178E DUP5 DUP10 PUSH2 0x2801 JUMP JUMPDEST MSTORE PUSH2 0xA74 JUMPI DUP2 PUSH2 0x17A4 SWAP2 PUSH2 0xBE6 PUSH1 0x1 SWAP5 DUP11 PUSH2 0x2801 JUMP JUMPDEST SWAP4 SWAP1 CODESIZE PUSH2 0x175D JUMP JUMPDEST POP POP DUP3 PUSH1 0x7 DUP3 EQ ISZERO PUSH2 0x1758 JUMP JUMPDEST PUSH2 0x17C2 DUP2 PUSH2 0x263F JUMP JUMPDEST SWAP1 SLOAD PUSH1 0x3 SWAP2 SWAP1 SWAP2 SHL SHR PUSH1 0x1 PUSH1 0x1 PUSH1 0xA0 SHL SUB AND DUP3 MSTORE PUSH1 0xA PUSH1 0x20 MSTORE PUSH1 0x40 DUP3 KECCAK256 SLOAD PUSH1 0xFF AND PUSH1 0x8 DUP2 LT ISZERO PUSH2 0xA74 JUMPI PUSH1 0x6 DUP2 EQ ISZERO SWAP1 DUP2 PUSH2 0x181A JUMPI JUMPDEST POP PUSH2 0x1806 JUMPI JUMPDEST PUSH1 0x1 ADD PUSH2 0x16EB JUMP JUMPDEST SWAP2 PUSH2 0x1812 PUSH1 0x1 SWAP2 PUSH2 0x2792 JUMP JUMPDEST SWAP3 SWAP1 POP PUSH2 0x17FE JUMP JUMPDEST PUSH1 0x7 SWAP2 POP EQ ISZERO CODESIZE PUSH2 0x17F8 JUMP JUMPDEST POP CALLVALUE PUSH2 0x247 JUMPI DUP1 PUSH1 0x3 NOT CALLDATASIZE ADD SLT PUSH2 0x247 JUMPI PUSH1 0x20 PUSH1 0x4 SLOAD PUSH1 0x40 MLOAD SWAP1 DUP2 MSTORE RETURN JUMPDEST POP CALLVALUE PUSH2 0x247 JUMPI DUP1 PUSH1 0x3 NOT CALLDATASIZE ADD SLT PUSH2 0x247 JUMPI PUSH1 0x20 PUSH1 0x2 SLOAD PUSH1 0x40 MLOAD SWAP1 DUP2 MSTORE RETURN JUMPDEST POP CALLVALUE PUSH2 0x247 JUMPI PUSH1 0x20 CALLDATASIZE PUSH1 0x3 NOT ADD SLT PUSH2 0x247 JUMPI PUSH1 0x4 CALLDATALOAD PUSH1 0x1 PUSH1 0x1 PUSH1 0xA0 SHL SUB DUP2 AND SWAP2 SWAP1 DUP3 SWAP1 SUB PUSH2 0x247 JUMPI PUSH1 0x2 SLOAD SWAP2 DUP2 DUP4 DUP1 JUMPDEST PUSH2 0x19F8 JUMPI POP PUSH2 0x18A9 PUSH2 0x18A3 DUP5 PUSH2 0x27CF JUMP JUMPDEST SWAP4 PUSH2 0x27CF JUMP JUMPDEST SWAP4 DUP2 DUP2 JUMPDEST PUSH2 0x18C0 JUMPI PUSH1 0x40 MLOAD DUP1 PUSH2 0x241 DUP9 DUP9 DUP4 PUSH2 0x2688 JUMP JUMPDEST PUSH1 0x0 NOT DUP3 ADD DUP3 DUP2 GT PUSH2 0x154A JUMPI PUSH2 0x18D5 SWAP1 PUSH2 0x263F JUMP JUMPDEST SWAP1 SLOAD PUSH1 0x40 MLOAD PUSH3 0x9C95E1 PUSH1 0xE4 SHL DUP2 MSTORE PUSH1 0x4 DUP2 ADD DUP8 SWAP1 MSTORE PUSH1 0x3 SWAP3 SWAP1 SWAP3 SHL SHR PUSH1 0x1 PUSH1 0x1 PUSH1 0xA0 SHL SUB AND SWAP1 PUSH1 0x20 DUP2 PUSH1 0x24 DUP2 DUP6 GAS STATICCALL SWAP1 DUP2 ISZERO PUSH2 0x19ED JUMPI DUP6 SWAP2 PUSH2 0x19BF JUMPI JUMPDEST POP PUSH2 0x192A JUMPI JUMPDEST POP SWAP1 PUSH2 0x1923 SWAP1 PUSH2 0x2B22 JUMP JUMPDEST SWAP1 DUP2 PUSH2 0x18AD JUMP JUMPDEST PUSH1 0x20 DUP2 PUSH1 0x4 SWAP3 PUSH2 0x193A DUP6 DUP11 PUSH2 0x2801 JUMP JUMPDEST MSTORE PUSH1 0x40 MLOAD PUSH4 0x68C6BA21 PUSH1 0xE0 SHL DUP2 MSTORE SWAP3 DUP4 SWAP2 DUP3 SWAP1 GAS STATICCALL SWAP1 DUP2 ISZERO PUSH2 0x110F JUMPI DUP5 SWAP2 PUSH2 0x1983 JUMPI JUMPDEST POP DUP2 PUSH2 0x1978 PUSH2 0x197D SWAP3 PUSH2 0x1973 PUSH2 0x1923 SWAP6 DUP12 PUSH2 0x2801 JUMP JUMPDEST PUSH2 0x2B47 JUMP JUMPDEST PUSH2 0x2792 JUMP JUMPDEST SWAP1 PUSH2 0x1918 JUMP JUMPDEST SWAP1 POP PUSH1 0x20 DUP2 RETURNDATASIZE DUP3 GT PUSH2 0x19B7 JUMPI JUMPDEST DUP2 PUSH2 0x199D PUSH1 0x20 SWAP4 DUP4 PUSH2 0x2770 JUMP JUMPDEST DUP2 ADD SUB SLT PUSH2 0x64A JUMPI MLOAD PUSH1 0x8 DUP2 LT ISZERO PUSH2 0x64A JUMPI PUSH2 0x1923 PUSH2 0x195D JUMP JUMPDEST RETURNDATASIZE SWAP2 POP PUSH2 0x1990 JUMP JUMPDEST PUSH2 0x19E0 SWAP2 POP PUSH1 0x20 RETURNDATASIZE DUP2 GT PUSH2 0x19E6 JUMPI JUMPDEST PUSH2 0x19D8 DUP2 DUP4 PUSH2 0x2770 JUMP JUMPDEST DUP2 ADD SWAP1 PUSH2 0x2B2F JUMP JUMPDEST CODESIZE PUSH2 0x1912 JUMP JUMPDEST POP RETURNDATASIZE PUSH2 0x19CE JUMP JUMPDEST PUSH1 0x40 MLOAD RETURNDATASIZE DUP8 DUP3 RETURNDATACOPY RETURNDATASIZE SWAP1 REVERT JUMPDEST PUSH1 0x0 NOT DUP2 ADD DUP2 DUP2 GT PUSH2 0xA2A JUMPI PUSH1 0x20 PUSH2 0x1A11 PUSH1 0x24 SWAP3 PUSH2 0x263F JUMP JUMPDEST SWAP1 SLOAD PUSH1 0x40 MLOAD PUSH3 0x9C95E1 PUSH1 0xE4 SHL DUP2 MSTORE PUSH1 0x4 DUP2 ADD DUP9 SWAP1 MSTORE SWAP4 DUP5 SWAP3 SWAP1 SWAP2 DUP4 SWAP2 PUSH1 0x3 SHL SHR PUSH1 0x1 PUSH1 0x1 PUSH1 0xA0 SHL SUB AND GAS STATICCALL SWAP1 DUP2 ISZERO PUSH2 0x10E6 JUMPI DUP4 SWAP2 PUSH2 0x1A74 JUMPI JUMPDEST POP PUSH2 0x1A5F JUMPI JUMPDEST PUSH2 0x1A59 SWAP1 PUSH2 0x2B22 JUMP JUMPDEST DUP1 PUSH2 0x1892 JUMP JUMPDEST SWAP3 PUSH2 0x1A6C PUSH2 0x1A59 SWAP2 PUSH2 0x2792 JUMP JUMPDEST SWAP4 SWAP1 POP PUSH2 0x1A50 JUMP JUMPDEST PUSH2 0x1A8C SWAP2 POP PUSH1 0x20 RETURNDATASIZE DUP2 GT PUSH2 0x19E6 JUMPI PUSH2 0x19D8 DUP2 DUP4 PUSH2 0x2770 JUMP JUMPDEST CODESIZE PUSH2 0x1A4A JUMP JUMPDEST POP CALLVALUE PUSH2 0x247 JUMPI PUSH1 0x20 CALLDATASIZE PUSH1 0x3 NOT ADD SLT PUSH2 0x247 JUMPI PUSH1 0x4 CALLDATALOAD PUSH1 0x1 PUSH1 0x1 PUSH1 0xA0 SHL SUB DUP2 AND SWAP1 DUP2 SWAP1 SUB PUSH2 0x245 JUMPI DUP2 SLOAD PUSH1 0x1 PUSH1 0x1 PUSH1 0xA0 SHL SUB AND CALLER EQ DUP1 ISZERO PUSH2 0x1B6D JUMPI JUMPDEST PUSH2 0x1AD6 SWAP1 PUSH2 0x2A6F JUMP JUMPDEST PUSH2 0x1AE1 DUP2 ISZERO ISZERO PUSH2 0x2AE4 JUMP JUMPDEST DUP1 DUP3 MSTORE PUSH1 0x8 PUSH1 0x20 MSTORE PUSH1 0xFF PUSH1 0x40 DUP4 KECCAK256 SLOAD AND PUSH2 0x1B33 JUMPI DUP1 DUP3 MSTORE PUSH1 0x8 PUSH1 0x20 MSTORE PUSH1 0x40 DUP3 KECCAK256 DUP1 SLOAD PUSH1 0xFF NOT AND PUSH1 0x1 OR SWAP1 SSTORE PUSH32 0x10AC961F00D5E732BA4DCC2C6FB09BEBEA0EB9EDD2A75C8109775EF288382E67 DUP3 DUP1 LOG2 DUP1 RETURN JUMPDEST PUSH1 0x40 MLOAD PUSH3 0x461BCD PUSH1 0xE5 SHL DUP2 MSTORE PUSH1 0x20 PUSH1 0x4 DUP3 ADD MSTORE PUSH1 0x12 PUSH1 0x24 DUP3 ADD MSTORE PUSH18 0x105B1C9958591E48185D5D1A1BDC9A5E9959 PUSH1 0x72 SHL PUSH1 0x44 DUP3 ADD MSTORE PUSH1 0x64 SWAP1 REVERT JUMPDEST POP CALLER DUP3 MSTORE PUSH1 0x8 PUSH1 0x20 MSTORE PUSH1 0x40 DUP3 KECCAK256 SLOAD PUSH1 0xFF AND PUSH2 0x1ACD JUMP JUMPDEST POP CALLVALUE PUSH2 0x247 JUMPI PUSH1 0x20 CALLDATASIZE PUSH1 0x3 NOT ADD SLT PUSH2 0x247 JUMPI PUSH1 0x4 CALLDATALOAD PUSH1 0x1 PUSH1 0x1 PUSH1 0xA0 SHL SUB DUP2 AND DUP1 DUP3 SUB PUSH2 0x29D JUMPI DUP3 SLOAD PUSH1 0x1 PUSH1 0x1 PUSH1 0xA0 SHL SUB AND CALLER EQ DUP1 ISZERO PUSH2 0x1D4A JUMPI JUMPDEST PUSH2 0x1BC6 SWAP1 PUSH2 0x2A6F JUMP JUMPDEST DUP1 DUP4 MSTORE PUSH1 0xB PUSH1 0x20 MSTORE PUSH1 0x40 DUP4 KECCAK256 PUSH1 0x40 MLOAD PUSH2 0x1BDE DUP2 PUSH2 0x2754 JUMP JUMPDEST DUP2 SLOAD PUSH1 0x1 PUSH1 0x1 PUSH1 0xA0 SHL SUB AND DUP1 DUP3 MSTORE PUSH1 0x1 SWAP1 SWAP3 ADD SLOAD PUSH1 0x20 DUP3 ADD SWAP1 DUP2 MSTORE SWAP2 ISZERO PUSH2 0x1D05 JUMPI MLOAD PUSH1 0x1 PUSH1 0x1 PUSH1 0xA0 SHL SUB AND CALLER EQ PUSH2 0x1CC1 JUMPI MLOAD PUSH3 0x15180 DUP2 ADD DUP1 SWAP2 GT PUSH2 0x154A JUMPI TIMESTAMP GT PUSH2 0x1C89 JUMPI PUSH2 0x1C2C DUP3 PUSH2 0x3025 JUMP JUMPDEST DUP3 MSTORE PUSH1 0xB PUSH1 0x20 SWAP1 DUP2 MSTORE PUSH1 0x40 DUP1 DUP5 KECCAK256 DUP5 DUP2 SSTORE PUSH1 0x1 ADD DUP5 SWAP1 SSTORE DUP1 MLOAD PUSH1 0x1 PUSH1 0x1 PUSH1 0xA0 SHL SUB SWAP1 SWAP4 AND DUP4 MSTORE TIMESTAMP SWAP2 DUP4 ADD SWAP2 SWAP1 SWAP2 MSTORE CALLER SWAP2 PUSH32 0xDD72DD33198968A9CDC9B1E5CBFF344FB8D04D99F8C15C0A02416B04E857B467 SWAP2 DUP2 SWAP1 DUP2 ADD JUMPDEST SUB SWAP1 LOG2 DUP1 RETURN JUMPDEST PUSH1 0x40 MLOAD PUSH3 0x461BCD PUSH1 0xE5 SHL DUP2 MSTORE PUSH1 0x20 PUSH1 0x4 DUP3 ADD MSTORE PUSH1 0x10 PUSH1 0x24 DUP3 ADD MSTORE PUSH16 0x141C9BDC1BDCD85B08195E1C1A5C9959 PUSH1 0x82 SHL PUSH1 0x44 DUP3 ADD MSTORE PUSH1 0x64 SWAP1 REVERT JUMPDEST PUSH1 0x64 PUSH1 0x40 MLOAD PUSH3 0x461BCD PUSH1 0xE5 SHL DUP2 MSTORE PUSH1 0x20 PUSH1 0x4 DUP3 ADD MSTORE PUSH1 0x20 PUSH1 0x24 DUP3 ADD MSTORE PUSH32 0x43616E6E6F7420636F6E6669726D20796F7572206F776E2070726F706F73616C PUSH1 0x44 DUP3 ADD MSTORE REVERT JUMPDEST PUSH1 0x40 MLOAD PUSH3 0x461BCD PUSH1 0xE5 SHL DUP2 MSTORE PUSH1 0x20 PUSH1 0x4 DUP3 ADD MSTORE PUSH1 0x1A PUSH1 0x24 DUP3 ADD MSTORE PUSH32 0x4E6F2070726F706F73616C20666F722074686973206F776E6572000000000000 PUSH1 0x44 DUP3 ADD MSTORE PUSH1 0x64 SWAP1 REVERT JUMPDEST POP CALLER DUP4 MSTORE PUSH1 0x8 PUSH1 0x20 MSTORE PUSH1 0x40 DUP4 KECCAK256 SLOAD PUSH1 0xFF AND PUSH2 0x1BBD JUMP JUMPDEST POP CALLVALUE PUSH2 0x247 JUMPI PUSH1 0x20 CALLDATASIZE PUSH1 0x3 NOT ADD SLT PUSH2 0x247 JUMPI PUSH1 0x4 CALLDATALOAD PUSH1 0x1 PUSH1 0x1 PUSH1 0xA0 SHL SUB DUP2 AND SWAP1 DUP2 SWAP1 SUB PUSH2 0x245 JUMPI DUP2 MSTORE PUSH1 0xD PUSH1 0x20 MSTORE PUSH1 0x40 DUP2 KECCAK256 DUP1 SLOAD DUP3 SWAP2 DUP3 JUMPDEST DUP3 DUP2 LT PUSH2 0x1DCE JUMPI POP POP POP DUP2 PUSH2 0x1DB3 JUMPI PUSH1 0x20 SWAP2 POP PUSH1 0x40 MLOAD SWAP1 DUP2 MSTORE RETURN JUMPDEST PUSH3 0x278D00 DUP3 ADD DUP1 SWAP3 GT PUSH2 0x315 JUMPI POP PUSH2 0x310 PUSH1 0x20 SWAP2 TIMESTAMP SWAP1 PUSH2 0x2AD7 JUMP JUMPDEST PUSH2 0x1DD8 DUP2 DUP4 PUSH2 0x2670 JUMP JUMPDEST SWAP1 SLOAD SWAP1 PUSH1 0x3 SHL SHR PUSH3 0x278D00 DUP2 ADD DUP1 SWAP2 GT PUSH2 0x39A JUMPI TIMESTAMP LT PUSH2 0x1DFB JUMPI JUMPDEST PUSH1 0x1 ADD PUSH2 0x1D98 JUMP JUMPDEST DUP5 ISZERO DUP1 ISZERO PUSH2 0x1E26 JUMPI JUMPDEST ISZERO PUSH2 0x1DF3 JUMPI SWAP4 POP PUSH1 0x1 PUSH2 0x1E17 DUP6 DUP4 PUSH2 0x2670 JUMP JUMPDEST SWAP1 SLOAD SWAP1 PUSH1 0x3 SHL SHR SWAP5 SWAP1 POP PUSH2 0x1DF3 JUMP JUMPDEST POP DUP5 PUSH2 0x1E32 DUP3 DUP5 PUSH2 0x2670 JUMP JUMPDEST SWAP1 SLOAD SWAP1 PUSH1 0x3 SHL SHR LT PUSH2 0x1E04 JUMP JUMPDEST POP CALLVALUE PUSH2 0x247 JUMPI DUP1 PUSH1 0x3 NOT CALLDATASIZE ADD SLT PUSH2 0x247 JUMPI PUSH1 0x20 PUSH1 0x5 SLOAD PUSH1 0x40 MLOAD SWAP1 DUP2 MSTORE RETURN JUMPDEST POP CALLVALUE PUSH2 0x247 JUMPI PUSH1 0x20 CALLDATASIZE PUSH1 0x3 NOT ADD SLT PUSH2 0x247 JUMPI PUSH1 0x4 CALLDATALOAD SWAP1 PUSH1 0x2 SLOAD DUP3 LT ISZERO PUSH2 0x247 JUMPI PUSH1 0x20 PUSH2 0x1E88 DUP4 PUSH2 0x263F JUMP JUMPDEST SWAP1 SLOAD PUSH1 0x40 MLOAD PUSH1 0x3 SWAP3 SWAP1 SWAP3 SHL SHR PUSH1 0x1 PUSH1 0x1 PUSH1 0xA0 SHL SUB AND DUP2 MSTORE RETURN JUMPDEST POP CALLVALUE PUSH2 0x247 JUMPI PUSH1 0x20 CALLDATASIZE PUSH1 0x3 NOT ADD SLT PUSH2 0x247 JUMPI PUSH1 0x4 CALLDATALOAD PUSH1 0x1 PUSH1 0x1 PUSH1 0xA0 SHL SUB DUP2 AND DUP1 DUP3 SUB PUSH2 0x29D JUMPI DUP3 SLOAD PUSH1 0x1 PUSH1 0x1 PUSH1 0xA0 SHL SUB AND CALLER EQ DUP1 ISZERO PUSH2 0x1FB3 JUMPI JUMPDEST PUSH2 0x1EE4 SWAP1 PUSH2 0x2A6F JUMP JUMPDEST DUP1 ISZERO PUSH2 0x1F7A JUMPI PUSH1 0x1 PUSH1 0x40 MLOAD SWAP2 PUSH2 0x1EF9 DUP4 PUSH2 0x2754 JUMP JUMPDEST CALLER DUP4 MSTORE PUSH1 0x20 DUP4 ADD SWAP1 TIMESTAMP DUP3 MSTORE DUP6 MSTORE PUSH1 0xB PUSH1 0x20 MSTORE PUSH1 0x40 DUP6 KECCAK256 SWAP3 DUP3 DUP1 PUSH1 0xA0 SHL SUB SWAP1 MLOAD AND PUSH12 0xFFFFFFFFFFFFFFFFFFFFFFFF PUSH1 0xA0 SHL DUP5 SLOAD AND OR DUP4 SSTORE MLOAD SWAP2 ADD SSTORE PUSH32 0xC29BDBD554E41DF97E5C40FC273A09677AC133C245F0064BDFFEF5CC72176E19 PUSH1 0x40 MLOAD DUP1 PUSH2 0x1C83 CALLER SWAP5 TIMESTAMP SWAP1 DUP4 PUSH1 0x20 SWAP1 SWAP4 SWAP3 SWAP2 SWAP4 PUSH1 0x40 DUP2 ADD SWAP5 PUSH1 0x1 DUP1 PUSH1 0xA0 SHL SUB AND DUP2 MSTORE ADD MSTORE JUMP JUMPDEST PUSH1 0x40 MLOAD PUSH3 0x461BCD PUSH1 0xE5 SHL DUP2 MSTORE PUSH1 0x20 PUSH1 0x4 DUP3 ADD MSTORE PUSH1 0x11 PUSH1 0x24 DUP3 ADD MSTORE PUSH17 0x24B73B30B634B2103732BB9037BBB732B9 PUSH1 0x79 SHL PUSH1 0x44 DUP3 ADD MSTORE PUSH1 0x64 SWAP1 REVERT JUMPDEST POP CALLER DUP4 MSTORE PUSH1 0x8 PUSH1 0x20 MSTORE PUSH1 0x40 DUP4 KECCAK256 SLOAD PUSH1 0xFF AND PUSH2 0x1EDB JUMP JUMPDEST POP CALLVALUE PUSH2 0x247 JUMPI PUSH1 0x20 CALLDATASIZE PUSH1 0x3 NOT ADD SLT PUSH2 0x247 JUMPI PUSH1 0x4 CALLDATALOAD PUSH1 0x1 PUSH1 0x1 PUSH1 0xA0 SHL SUB DUP2 AND SWAP1 DUP2 SWAP1 SUB PUSH2 0x245 JUMPI PUSH1 0x60 PUSH2 0x1E0 PUSH1 0x40 MLOAD PUSH2 0x2001 DUP2 PUSH2 0x2721 JUMP JUMPDEST DUP3 DUP2 MSTORE DUP5 PUSH1 0x20 DUP3 ADD MSTORE DUP5 PUSH1 0x40 DUP3 ADD MSTORE DUP5 DUP4 DUP3 ADD MSTORE DUP5 PUSH1 0x80 DUP3 ADD MSTORE DUP5 PUSH1 0xA0 DUP3 ADD MSTORE DUP5 PUSH1 0xC0 DUP3 ADD MSTORE DUP5 PUSH1 0xE0 DUP3 ADD MSTORE DUP5 PUSH2 0x100 DUP3 ADD MSTORE DUP5 PUSH2 0x120 DUP3 ADD MSTORE DUP5 PUSH2 0x140 DUP3 ADD MSTORE DUP5 PUSH2 0x160 DUP3 ADD MSTORE DUP5 PUSH2 0x180 DUP3 ADD MSTORE DUP3 PUSH2 0x1A0 DUP3 ADD MSTORE DUP5 PUSH2 0x1C0 DUP3 ADD MSTORE ADD MSTORE DUP1 ISZERO PUSH2 0x21ED JUMPI DUP2 PUSH1 0x4 SWAP2 PUSH1 0x40 MLOAD SWAP3 DUP4 DUP1 SWAP3 PUSH4 0x1F385F79 PUSH1 0xE2 SHL DUP3 MSTORE GAS STATICCALL SWAP1 DUP2 ISZERO PUSH2 0x21E2 JUMPI DUP3 SWAP2 PUSH2 0x21C0 JUMPI JUMPDEST POP PUSH1 0x40 MLOAD SWAP1 PUSH1 0x20 DUP3 MSTORE PUSH2 0x20AC DUP2 MLOAD PUSH2 0x200 PUSH1 0x20 DUP6 ADD MSTORE PUSH2 0x220 DUP5 ADD SWAP1 PUSH2 0x25A3 JUMP JUMPDEST SWAP3 PUSH2 0x20BF PUSH1 0x20 DUP4 ADD MLOAD PUSH1 0x40 DUP6 ADD SWAP1 PUSH2 0x2632 JUMP JUMPDEST PUSH1 0x40 DUP3 ADD MLOAD PUSH1 0x60 DUP5 ADD MSTORE PUSH1 0x60 DUP3 ADD MLOAD PUSH1 0x80 DUP5 ADD MSTORE PUSH1 0x80 DUP3 ADD MLOAD PUSH1 0xA0 DUP5 ADD MSTORE PUSH1 0xFF PUSH1 0xA0 DUP4 ADD MLOAD AND PUSH1 0xC0 DUP5 ADD MSTORE PUSH1 0xFF PUSH1 0xC0 DUP4 ADD MLOAD AND PUSH1 0xE0 DUP5 ADD MSTORE PUSH1 0xE0 DUP3 ADD MLOAD PUSH2 0x100 DUP5 ADD MSTORE PUSH2 0x100 DUP3 ADD MLOAD PUSH2 0x120 DUP5 ADD MSTORE PUSH1 0xFF PUSH2 0x120 DUP4 ADD MLOAD AND PUSH2 0x140 DUP5 ADD MSTORE PUSH1 0xFF PUSH2 0x140 DUP4 ADD MLOAD AND PUSH2 0x160 DUP5 ADD MSTORE PUSH2 0x160 DUP3 ADD MLOAD PUSH2 0x180 DUP5 ADD MSTORE PUSH2 0x180 DUP3 ADD MLOAD PUSH2 0x1A0 DUP5 ADD MSTORE PUSH2 0x1A0 DUP3 ADD MLOAD SWAP4 PUSH1 0x1F NOT DUP5 DUP3 SUB ADD PUSH2 0x1C0 DUP6 ADD MSTORE PUSH1 0x20 DUP1 DUP7 MLOAD SWAP3 DUP4 DUP2 MSTORE ADD SWAP6 ADD SWAP2 JUMPDEST DUP2 DUP2 LT PUSH2 0x2195 JUMPI DUP5 DUP1 PUSH2 0x241 DUP9 PUSH2 0x1E0 DUP9 PUSH2 0x1C0 DUP2 ADD MLOAD DUP3 DUP7 ADD MSTORE ADD MLOAD PUSH1 0x1F NOT DUP5 DUP4 SUB ADD PUSH2 0x200 DUP6 ADD MSTORE PUSH2 0x25A3 JUMP JUMPDEST DUP3 MLOAD DUP1 MLOAD PUSH1 0x1 PUSH1 0x1 PUSH1 0xA0 SHL SUB AND DUP8 MSTORE PUSH1 0x20 SWAP1 DUP2 ADD MLOAD DUP2 DUP9 ADD MSTORE PUSH1 0x40 SWAP1 SWAP7 ADD SWAP6 SWAP1 SWAP3 ADD SWAP2 PUSH1 0x1 ADD PUSH2 0x2166 JUMP JUMPDEST PUSH2 0x21DC SWAP2 POP RETURNDATASIZE DUP1 DUP5 DUP4 RETURNDATACOPY PUSH2 0x21D4 DUP2 DUP4 PUSH2 0x2770 JUMP JUMPDEST DUP2 ADD SWAP1 PUSH2 0x28A1 JUMP JUMPDEST CODESIZE PUSH2 0x208B JUMP JUMPDEST PUSH1 0x40 MLOAD RETURNDATASIZE DUP5 DUP3 RETURNDATACOPY RETURNDATASIZE SWAP1 REVERT JUMPDEST PUSH1 0x40 MLOAD PUSH3 0x461BCD PUSH1 0xE5 SHL DUP2 MSTORE PUSH1 0x20 PUSH1 0x4 DUP3 ADD MSTORE PUSH1 0x17 PUSH1 0x24 DUP3 ADD MSTORE PUSH32 0x496E76616C6964206D697373696F6E2061646472657373000000000000000000 PUSH1 0x44 DUP3 ADD MSTORE PUSH1 0x64 SWAP1 REVERT JUMPDEST POP CALLVALUE PUSH2 0x247 JUMPI PUSH1 0x20 CALLDATASIZE PUSH1 0x3 NOT ADD SLT PUSH2 0x247 JUMPI PUSH1 0x4 CALLDATALOAD SWAP1 PUSH1 0x8 DUP3 LT ISZERO SWAP1 DUP2 PUSH2 0x247 JUMPI PUSH1 0x2 SLOAD DUP2 SWAP3 DUP3 JUMPDEST DUP3 DUP2 LT PUSH2 0x2337 JUMPI POP PUSH2 0x2274 PUSH2 0x226E DUP6 PUSH2 0x27CF JUMP JUMPDEST SWAP5 PUSH2 0x27CF JUMP JUMPDEST SWAP5 DUP4 SWAP2 DUP5 JUMPDEST DUP5 DUP2 LT PUSH2 0x228F JUMPI PUSH1 0x40 MLOAD DUP1 PUSH2 0x241 DUP11 DUP11 DUP4 PUSH2 0x25E0 JUMP JUMPDEST PUSH2 0x2298 DUP2 PUSH2 0x263F JUMP JUMPDEST SWAP1 SLOAD PUSH1 0x3 SWAP2 SWAP1 SWAP2 SHL SHR PUSH1 0x1 PUSH1 0x1 PUSH1 0xA0 SHL SUB AND DUP7 MSTORE PUSH1 0xA PUSH1 0x20 MSTORE PUSH1 0x40 DUP7 KECCAK256 SLOAD PUSH1 0xFF AND DUP3 PUSH2 0x2323 JUMPI PUSH1 0x8 DUP2 LT ISZERO PUSH2 0x2323 JUMPI DUP4 EQ PUSH2 0x22D6 JUMPI JUMPDEST PUSH1 0x1 ADD PUSH2 0x2279 JUMP JUMPDEST SWAP3 SWAP1 POP PUSH2 0x22E2 DUP4 PUSH2 0x263F JUMP JUMPDEST SWAP1 SLOAD PUSH1 0x3 SWAP2 SWAP1 SWAP2 SHL SHR PUSH1 0x1 PUSH1 0x1 PUSH1 0xA0 SHL SUB AND PUSH2 0x22FE DUP3 DUP9 PUSH2 0x2801 JUMP JUMPDEST MSTORE PUSH1 0x1 PUSH2 0x231B DUP7 SWAP3 PUSH2 0x2310 DUP2 DUP12 PUSH2 0x2801 JUMP JUMPDEST PUSH1 0xFF DUP7 AND SWAP1 MSTORE PUSH2 0x2792 JUMP JUMPDEST SWAP4 SWAP1 POP PUSH2 0x22CE JUMP JUMPDEST PUSH4 0x4E487B71 PUSH1 0xE0 SHL DUP8 MSTORE PUSH1 0x21 PUSH1 0x4 MSTORE PUSH1 0x24 DUP8 REVERT JUMPDEST PUSH2 0x2340 DUP2 PUSH2 0x263F JUMP JUMPDEST SWAP1 SLOAD PUSH1 0x3 SWAP2 SWAP1 SWAP2 SHL SHR PUSH1 0x1 PUSH1 0x1 PUSH1 0xA0 SHL SUB AND DUP5 MSTORE PUSH1 0xA PUSH1 0x20 MSTORE PUSH1 0x40 DUP5 KECCAK256 SLOAD PUSH1 0xFF AND DUP3 PUSH2 0x1536 JUMPI PUSH1 0x8 DUP2 LT ISZERO PUSH2 0x1536 JUMPI DUP7 EQ PUSH2 0x237E JUMPI JUMPDEST PUSH1 0x1 ADD PUSH2 0x225A JUMP JUMPDEST SWAP4 PUSH2 0x238A PUSH1 0x1 SWAP2 PUSH2 0x2792 JUMP JUMPDEST SWAP5 SWAP1 POP PUSH2 0x2376 JUMP JUMPDEST POP CALLVALUE PUSH2 0x247 JUMPI PUSH1 0x20 CALLDATASIZE PUSH1 0x3 NOT ADD SLT PUSH2 0x247 JUMPI PUSH1 0x4 CALLDATALOAD PUSH2 0x23AF PUSH2 0x2FDA JUMP JUMPDEST PUSH2 0x23B7 PUSH2 0x3003 JUMP JUMPDEST DUP2 SLOAD PUSH1 0x1 PUSH1 0x1 PUSH1 0xA0 SHL SUB AND SWAP1 DUP1 DUP3 ISZERO PUSH2 0x24E1 JUMPI ISZERO PUSH2 0x24DA JUMPI JUMPDEST SELFBALANCE DUP2 GT PUSH2 0x249E JUMPI DUP3 DUP1 DUP1 DUP1 DUP5 DUP7 GAS CALL RETURNDATASIZE ISZERO PUSH2 0x2499 JUMPI RETURNDATASIZE PUSH8 0xFFFFFFFFFFFFFFFF DUP2 GT PUSH2 0x2485 JUMPI PUSH1 0x40 MLOAD SWAP1 PUSH2 0x240D PUSH1 0x1F DUP3 ADD PUSH1 0x1F NOT AND PUSH1 0x20 ADD DUP4 PUSH2 0x2770 JUMP JUMPDEST DUP2 MSTORE DUP5 PUSH1 0x20 RETURNDATASIZE SWAP3 ADD RETURNDATACOPY JUMPDEST ISZERO PUSH2 0x244E JUMPI PUSH1 0x20 PUSH32 0xEAFF4B37086828766AD3268786972C0CD24259D4C87A80F9D3963A3C3D999B0D SWAP2 PUSH1 0x40 MLOAD SWAP1 DUP2 MSTORE LOG2 PUSH1 0x1 DUP1 SSTORE DUP1 RETURN JUMPDEST PUSH1 0x40 MLOAD PUSH3 0x461BCD PUSH1 0xE5 SHL DUP2 MSTORE PUSH1 0x20 PUSH1 0x4 DUP3 ADD MSTORE PUSH1 0xF PUSH1 0x24 DUP3 ADD MSTORE PUSH15 0x151C985B9CD9995C8819985A5B1959 PUSH1 0x8A SHL PUSH1 0x44 DUP3 ADD MSTORE PUSH1 0x64 SWAP1 REVERT JUMPDEST PUSH4 0x4E487B71 PUSH1 0xE0 SHL DUP6 MSTORE PUSH1 0x41 PUSH1 0x4 MSTORE PUSH1 0x24 DUP6 REVERT JUMPDEST PUSH2 0x2417 JUMP JUMPDEST PUSH1 0x40 MLOAD PUSH3 0x461BCD PUSH1 0xE5 SHL DUP2 MSTORE PUSH1 0x20 PUSH1 0x4 DUP3 ADD MSTORE PUSH1 0x14 PUSH1 0x24 DUP3 ADD MSTORE PUSH20 0x496E73756666696369656E742062616C616E6365 PUSH1 0x60 SHL PUSH1 0x44 DUP3 ADD MSTORE PUSH1 0x64 SWAP1 REVERT JUMPDEST POP SELFBALANCE PUSH2 0x23D0 JUMP JUMPDEST PUSH1 0x40 MLOAD PUSH3 0x461BCD PUSH1 0xE5 SHL DUP2 MSTORE PUSH1 0x20 PUSH1 0x4 DUP3 ADD MSTORE PUSH1 0x15 PUSH1 0x24 DUP3 ADD MSTORE PUSH21 0x24B73B30B634B21036B0B730B3B2B91037BBB732B9 PUSH1 0x59 SHL PUSH1 0x44 DUP3 ADD MSTORE PUSH1 0x64 SWAP1 REVERT JUMPDEST POP CALLVALUE PUSH2 0x247 JUMPI DUP1 PUSH1 0x3 NOT CALLDATASIZE ADD SLT PUSH2 0x247 JUMPI PUSH1 0x20 PUSH1 0xFF PUSH1 0x3 SLOAD PUSH1 0x8 SHR AND PUSH1 0x40 MLOAD SWAP1 DUP2 MSTORE RETURN JUMPDEST SWAP1 POP CALLVALUE PUSH2 0x245 JUMPI PUSH1 0x20 CALLDATASIZE PUSH1 0x3 NOT ADD SLT PUSH2 0x245 JUMPI PUSH1 0x4 CALLDATALOAD PUSH1 0x1 PUSH1 0x1 PUSH1 0xA0 SHL SUB DUP2 AND SWAP1 DUP2 SWAP1 SUB PUSH2 0x29D JUMPI DUP2 PUSH1 0xFF PUSH1 0x40 DUP6 PUSH2 0x4A9 SWAP5 PUSH1 0x20 SWAP8 MSTORE PUSH1 0xA DUP8 MSTORE KECCAK256 SLOAD AND JUMPDEST SWAP1 PUSH1 0x8 DUP3 LT ISZERO PUSH2 0x258D JUMPI MSTORE JUMP JUMPDEST PUSH4 0x4E487B71 PUSH1 0xE0 SHL PUSH1 0x0 MSTORE PUSH1 0x21 PUSH1 0x4 MSTORE PUSH1 0x24 PUSH1 0x0 REVERT JUMPDEST SWAP1 PUSH1 0x20 DUP1 DUP4 MLOAD SWAP3 DUP4 DUP2 MSTORE ADD SWAP3 ADD SWAP1 PUSH1 0x0 JUMPDEST DUP2 DUP2 LT PUSH2 0x25C1 JUMPI POP POP POP SWAP1 JUMP JUMPDEST DUP3 MLOAD PUSH1 0x1 PUSH1 0x1 PUSH1 0xA0 SHL SUB AND DUP5 MSTORE PUSH1 0x20 SWAP4 DUP5 ADD SWAP4 SWAP1 SWAP3 ADD SWAP2 PUSH1 0x1 ADD PUSH2 0x25B4 JUMP JUMPDEST SWAP1 PUSH2 0x25F3 SWAP1 PUSH1 0x40 DUP4 MSTORE PUSH1 0x40 DUP4 ADD SWAP1 PUSH2 0x25A3 JUMP JUMPDEST SWAP1 PUSH1 0x20 DUP2 DUP4 SUB SWAP2 ADD MSTORE PUSH1 0x20 DUP1 DUP4 MLOAD SWAP3 DUP4 DUP2 MSTORE ADD SWAP3 ADD SWAP1 PUSH1 0x0 JUMPDEST DUP2 DUP2 LT PUSH2 0x2619 JUMPI POP POP POP SWAP1 JUMP JUMPDEST DUP3 MLOAD PUSH1 0xFF AND DUP5 MSTORE PUSH1 0x20 SWAP4 DUP5 ADD SWAP4 SWAP1 SWAP3 ADD SWAP2 PUSH1 0x1 ADD PUSH2 0x260C JUMP JUMPDEST SWAP1 PUSH1 0x7 DUP3 LT ISZERO PUSH2 0x258D JUMPI MSTORE JUMP JUMPDEST PUSH1 0x2 SLOAD DUP2 LT ISZERO PUSH2 0x265A JUMPI PUSH1 0x2 PUSH1 0x0 MSTORE PUSH1 0x20 PUSH1 0x0 KECCAK256 ADD SWAP1 PUSH1 0x0 SWAP1 JUMP JUMPDEST PUSH4 0x4E487B71 PUSH1 0xE0 SHL PUSH1 0x0 MSTORE PUSH1 0x32 PUSH1 0x4 MSTORE PUSH1 0x24 PUSH1 0x0 REVERT JUMPDEST DUP1 SLOAD DUP3 LT ISZERO PUSH2 0x265A JUMPI PUSH1 0x0 MSTORE PUSH1 0x20 PUSH1 0x0 KECCAK256 ADD SWAP1 PUSH1 0x0 SWAP1 JUMP JUMPDEST SWAP1 PUSH2 0x269B SWAP1 PUSH1 0x40 DUP4 MSTORE PUSH1 0x40 DUP4 ADD SWAP1 PUSH2 0x25A3 JUMP JUMPDEST SWAP1 PUSH1 0x20 DUP2 DUP4 SUB SWAP2 ADD MSTORE PUSH1 0x20 DUP1 DUP4 MLOAD SWAP3 DUP4 DUP2 MSTORE ADD SWAP3 ADD SWAP1 PUSH1 0x0 JUMPDEST DUP2 DUP2 LT PUSH2 0x26C1 JUMPI POP POP POP SWAP1 JUMP JUMPDEST SWAP1 SWAP2 SWAP3 PUSH1 0x20 DUP1 DUP3 PUSH2 0x26D5 PUSH1 0x1 SWAP5 DUP9 MLOAD PUSH2 0x2580 JUMP JUMPDEST ADD SWAP5 ADD SWAP3 SWAP2 ADD PUSH2 0x26B4 JUMP JUMPDEST PUSH1 0x7 DUP2 LT ISZERO PUSH2 0x258D JUMPI PUSH1 0x0 MSTORE PUSH1 0xC PUSH1 0x20 MSTORE PUSH1 0x40 PUSH1 0x0 KECCAK256 SWAP1 JUMP JUMPDEST SWAP1 PUSH1 0x0 SWAP1 JUMPDEST PUSH1 0x7 DUP3 LT PUSH2 0x270B JUMPI POP POP POP JUMP JUMPDEST PUSH1 0x20 DUP1 PUSH1 0x1 SWAP3 DUP6 MLOAD DUP2 MSTORE ADD SWAP4 ADD SWAP2 ADD SWAP1 SWAP2 PUSH2 0x26FE JUMP JUMPDEST PUSH2 0x200 DUP2 ADD SWAP1 DUP2 LT PUSH8 0xFFFFFFFFFFFFFFFF DUP3 GT OR PUSH2 0x273E JUMPI PUSH1 0x40 MSTORE JUMP JUMPDEST PUSH4 0x4E487B71 PUSH1 0xE0 SHL PUSH1 0x0 MSTORE PUSH1 0x41 PUSH1 0x4 MSTORE PUSH1 0x24 PUSH1 0x0 REVERT JUMPDEST PUSH1 0x40 DUP2 ADD SWAP1 DUP2 LT PUSH8 0xFFFFFFFFFFFFFFFF DUP3 GT OR PUSH2 0x273E JUMPI PUSH1 0x40 MSTORE JUMP JUMPDEST SWAP1 PUSH1 0x1F DUP1 NOT SWAP2 ADD AND DUP2 ADD SWAP1 DUP2 LT PUSH8 0xFFFFFFFFFFFFFFFF DUP3 GT OR PUSH2 0x273E JUMPI PUSH1 0x40 MSTORE JUMP JUMPDEST PUSH1 0x0 NOT DUP2 EQ PUSH2 0x27A1 JUMPI PUSH1 0x1 ADD SWAP1 JUMP JUMPDEST PUSH4 0x4E487B71 PUSH1 0xE0 SHL PUSH1 0x0 MSTORE PUSH1 0x11 PUSH1 0x4 MSTORE PUSH1 0x24 PUSH1 0x0 REVERT JUMPDEST PUSH8 0xFFFFFFFFFFFFFFFF DUP2 GT PUSH2 0x273E JUMPI PUSH1 0x5 SHL PUSH1 0x20 ADD SWAP1 JUMP JUMPDEST SWAP1 PUSH2 0x27D9 DUP3 PUSH2 0x27B7 JUMP JUMPDEST PUSH2 0x27E6 PUSH1 0x40 MLOAD SWAP2 DUP3 PUSH2 0x2770 JUMP JUMPDEST DUP3 DUP2 MSTORE DUP1 SWAP3 PUSH2 0x27F7 PUSH1 0x1F NOT SWAP2 PUSH2 0x27B7 JUMP JUMPDEST ADD SWAP1 PUSH1 0x20 CALLDATASIZE SWAP2 ADD CALLDATACOPY JUMP JUMPDEST DUP1 MLOAD DUP3 LT ISZERO PUSH2 0x265A JUMPI PUSH1 0x20 SWAP2 PUSH1 0x5 SHL ADD ADD SWAP1 JUMP JUMPDEST MLOAD SWAP1 PUSH1 0x1 PUSH1 0x1 PUSH1 0xA0 SHL SUB DUP3 AND DUP3 SUB PUSH2 0x2829 JUMPI JUMP JUMPDEST PUSH1 0x0 DUP1 REVERT JUMPDEST SWAP1 DUP1 PUSH1 0x1F DUP4 ADD SLT ISZERO PUSH2 0x2829 JUMPI DUP2 MLOAD PUSH2 0x2845 DUP2 PUSH2 0x27B7 JUMP JUMPDEST SWAP3 PUSH2 0x2853 PUSH1 0x40 MLOAD SWAP5 DUP6 PUSH2 0x2770 JUMP JUMPDEST DUP2 DUP5 MSTORE PUSH1 0x20 DUP1 DUP6 ADD SWAP3 PUSH1 0x5 SHL DUP3 ADD ADD SWAP3 DUP4 GT PUSH2 0x2829 JUMPI PUSH1 0x20 ADD SWAP1 JUMPDEST DUP3 DUP3 LT PUSH2 0x287B JUMPI POP POP POP SWAP1 JUMP JUMPDEST PUSH1 0x20 DUP1 SWAP2 PUSH2 0x2888 DUP5 PUSH2 0x2815 JUMP JUMPDEST DUP2 MSTORE ADD SWAP2 ADD SWAP1 PUSH2 0x286E JUMP JUMPDEST MLOAD SWAP1 PUSH1 0xFF DUP3 AND DUP3 SUB PUSH2 0x2829 JUMPI JUMP JUMPDEST PUSH1 0x20 DUP2 DUP4 SUB SLT PUSH2 0x2829 JUMPI DUP1 MLOAD SWAP1 PUSH8 0xFFFFFFFFFFFFFFFF DUP3 GT PUSH2 0x2829 JUMPI ADD PUSH2 0x200 DUP2 DUP4 SUB SLT PUSH2 0x2829 JUMPI PUSH1 0x40 MLOAD SWAP2 PUSH2 0x28D6 DUP4 PUSH2 0x2721 JUMP JUMPDEST DUP2 MLOAD PUSH8 0xFFFFFFFFFFFFFFFF DUP2 GT PUSH2 0x2829 JUMPI DUP2 PUSH2 0x28F3 SWAP2 DUP5 ADD PUSH2 0x282E JUMP JUMPDEST DUP4 MSTORE PUSH1 0x20 DUP3 ADD MLOAD PUSH1 0x7 DUP2 LT ISZERO PUSH2 0x2829 JUMPI PUSH1 0x20 DUP5 ADD MSTORE PUSH1 0x40 DUP3 ADD MLOAD PUSH1 0x40 DUP5 ADD MSTORE PUSH1 0x60 DUP3 ADD MLOAD PUSH1 0x60 DUP5 ADD MSTORE PUSH1 0x80 DUP3 ADD MLOAD PUSH1 0x80 DUP5 ADD MSTORE PUSH2 0x2932 PUSH1 0xA0 DUP4 ADD PUSH2 0x2893 JUMP JUMPDEST PUSH1 0xA0 DUP5 ADD MSTORE PUSH2 0x2943 PUSH1 0xC0 DUP4 ADD PUSH2 0x2893 JUMP JUMPDEST PUSH1 0xC0 DUP5 ADD MSTORE PUSH1 0xE0 DUP3 ADD MLOAD PUSH1 0xE0 DUP5 ADD MSTORE PUSH2 0x100 DUP3 ADD MLOAD PUSH2 0x100 DUP5 ADD MSTORE PUSH2 0x296B PUSH2 0x120 DUP4 ADD PUSH2 0x2893 JUMP JUMPDEST PUSH2 0x120 DUP5 ADD MSTORE PUSH2 0x297E PUSH2 0x140 DUP4 ADD PUSH2 0x2893 JUMP JUMPDEST PUSH2 0x140 DUP5 ADD MSTORE PUSH2 0x160 DUP3 ADD MLOAD PUSH2 0x160 DUP5 ADD MSTORE PUSH2 0x180 DUP3 ADD MLOAD PUSH2 0x180 DUP5 ADD MSTORE PUSH2 0x1A0 DUP3 ADD MLOAD PUSH8 0xFFFFFFFFFFFFFFFF DUP2 GT PUSH2 0x2829 JUMPI DUP3 ADD DUP2 PUSH1 0x1F DUP3 ADD SLT ISZERO PUSH2 0x2829 JUMPI DUP1 MLOAD PUSH2 0x29C9 DUP2 PUSH2 0x27B7 JUMP JUMPDEST SWAP2 PUSH2 0x29D7 PUSH1 0x40 MLOAD SWAP4 DUP5 PUSH2 0x2770 JUMP JUMPDEST DUP2 DUP4 MSTORE PUSH1 0x20 DUP1 DUP5 ADD SWAP3 PUSH1 0x6 SHL DUP3 ADD ADD SWAP1 DUP5 DUP3 GT PUSH2 0x2829 JUMPI PUSH1 0x20 ADD SWAP2 JUMPDEST DUP2 DUP4 LT PUSH2 0x2A37 JUMPI POP POP POP PUSH2 0x1A0 DUP5 ADD MSTORE PUSH2 0x1C0 DUP3 ADD MLOAD PUSH2 0x1C0 DUP5 ADD MSTORE PUSH2 0x1E0 DUP3 ADD MLOAD PUSH8 0xFFFFFFFFFFFFFFFF DUP2 GT PUSH2 0x2829 JUMPI PUSH2 0x2A2E SWAP3 ADD PUSH2 0x282E JUMP JUMPDEST PUSH2 0x1E0 DUP3 ADD MSTORE SWAP1 JUMP JUMPDEST PUSH1 0x40 DUP4 DUP7 SUB SLT PUSH2 0x2829 JUMPI PUSH1 0x20 PUSH1 0x40 SWAP2 DUP3 MLOAD PUSH2 0x2A51 DUP2 PUSH2 0x2754 JUMP JUMPDEST PUSH2 0x2A5A DUP7 PUSH2 0x2815 JUMP JUMPDEST DUP2 MSTORE DUP3 DUP7 ADD MLOAD DUP4 DUP3 ADD MSTORE DUP2 MSTORE ADD SWAP3 ADD SWAP2 PUSH2 0x29F3 JUMP JUMPDEST ISZERO PUSH2 0x2A76 JUMPI JUMP JUMPDEST PUSH1 0x40 MLOAD PUSH3 0x461BCD PUSH1 0xE5 SHL DUP2 MSTORE PUSH1 0x20 PUSH1 0x4 DUP3 ADD MSTORE PUSH1 0x26 PUSH1 0x24 DUP3 ADD MSTORE PUSH32 0x4E6F74206F776E6572206F72204D697373696F6E466163746F72792061757468 PUSH1 0x44 DUP3 ADD MSTORE PUSH6 0x1BDC9A5E9959 PUSH1 0xD2 SHL PUSH1 0x64 DUP3 ADD MSTORE PUSH1 0x84 SWAP1 REVERT JUMPDEST SWAP2 SWAP1 DUP3 ADD DUP1 SWAP3 GT PUSH2 0x27A1 JUMPI JUMP JUMPDEST SWAP2 SWAP1 DUP3 SUB SWAP2 DUP3 GT PUSH2 0x27A1 JUMPI JUMP JUMPDEST ISZERO PUSH2 0x2AEB JUMPI JUMP JUMPDEST PUSH1 0x40 MLOAD PUSH3 0x461BCD PUSH1 0xE5 SHL DUP2 MSTORE PUSH1 0x20 PUSH1 0x4 DUP3 ADD MSTORE PUSH1 0xF PUSH1 0x24 DUP3 ADD MSTORE PUSH15 0x496E76616C69642061646472657373 PUSH1 0x88 SHL PUSH1 0x44 DUP3 ADD MSTORE PUSH1 0x64 SWAP1 REVERT JUMPDEST DUP1 ISZERO PUSH2 0x27A1 JUMPI PUSH1 0x0 NOT ADD SWAP1 JUMP JUMPDEST SWAP1 DUP2 PUSH1 0x20 SWAP2 SUB SLT PUSH2 0x2829 JUMPI MLOAD DUP1 ISZERO ISZERO DUP2 SUB PUSH2 0x2829 JUMPI SWAP1 JUMP JUMPDEST PUSH1 0x8 DUP3 LT ISZERO PUSH2 0x258D JUMPI MSTORE JUMP JUMPDEST PUSH1 0x2 SLOAD DUP1 ISZERO PUSH2 0x2DA9 JUMPI PUSH3 0x4F19FF NOT TIMESTAMP ADD TIMESTAMP DUP2 GT PUSH2 0x27A1 JUMPI PUSH3 0x278CFF NOT TIMESTAMP ADD TIMESTAMP DUP2 GT PUSH2 0x27A1 JUMPI PUSH1 0x0 SWAP4 SWAP3 SWAP4 SWAP3 DUP5 DUP1 JUMPDEST PUSH2 0x2CBD JUMPI JUMPDEST POP PUSH2 0x2B90 DUP5 PUSH2 0x27CF JUMP JUMPDEST SWAP1 PUSH2 0x2B9A DUP6 PUSH2 0x27CF JUMP JUMPDEST SWAP6 PUSH1 0x0 SWAP1 JUMPDEST DUP1 ISZERO ISZERO DUP1 PUSH2 0x2CB4 JUMPI JUMPDEST ISZERO PUSH2 0x2CA9 JUMPI PUSH1 0x0 NOT ADD SWAP1 PUSH2 0x2BBB DUP3 PUSH2 0x263F JUMP JUMPDEST PUSH1 0x1 DUP1 PUSH1 0xA0 SHL SUB SWAP2 SLOAD SWAP1 PUSH1 0x3 SHL SHR AND DUP1 PUSH1 0x0 MSTORE PUSH1 0xA PUSH1 0x20 MSTORE PUSH1 0xFF PUSH1 0x40 PUSH1 0x0 KECCAK256 SLOAD AND SWAP1 PUSH1 0x40 MLOAD PUSH4 0x1F385F79 PUSH1 0xE2 SHL DUP2 MSTORE PUSH1 0x0 DUP2 PUSH1 0x4 DUP2 DUP6 GAS STATICCALL DUP1 ISZERO PUSH2 0x2C9D JUMPI DUP9 SWAP2 PUSH1 0x0 SWAP2 PUSH2 0x2C84 JUMPI JUMPDEST POP DUP10 PUSH1 0xE0 DUP3 ADD DUP2 DUP2 MLOAD LT DUP1 PUSH2 0x2C61 JUMPI JUMPDEST ISZERO PUSH2 0x2C56 JUMPI POP POP PUSH2 0x100 ADD MLOAD LT JUMPDEST PUSH2 0x2C49 JUMPI DUP3 SWAP2 PUSH2 0x2C42 SWAP2 PUSH2 0x2C37 PUSH1 0x1 SWAP6 DUP10 PUSH2 0x2801 JUMP JUMPDEST MSTORE PUSH2 0x1973 DUP4 DUP13 PUSH2 0x2801 JUMP JUMPDEST ADD SWAP1 PUSH2 0x2B9F JUMP JUMPDEST POP POP POP POP SWAP4 POP SWAP2 POP POP SWAP2 SWAP1 JUMP JUMPDEST SWAP2 POP SWAP2 POP MLOAD LT PUSH2 0x2C21 JUMP JUMPDEST POP SWAP3 POP POP PUSH1 0x8 DUP5 LT ISZERO PUSH2 0x258D JUMPI DUP10 DUP10 SWAP3 PUSH1 0x6 DUP7 EQ DUP1 PUSH2 0x2C13 JUMPI POP PUSH1 0x7 DUP7 EQ PUSH2 0x2C13 JUMP JUMPDEST PUSH2 0x2C97 SWAP2 RETURNDATASIZE DUP1 SWAP2 DUP4 RETURNDATACOPY PUSH2 0x21D4 DUP2 DUP4 PUSH2 0x2770 JUMP JUMPDEST CODESIZE PUSH2 0x2C03 JUMP JUMPDEST PUSH1 0x40 MLOAD RETURNDATASIZE PUSH1 0x0 DUP3 RETURNDATACOPY RETURNDATASIZE SWAP1 REVERT JUMPDEST POP POP SWAP4 POP SWAP2 POP POP SWAP2 SWAP1 JUMP JUMPDEST POP DUP7 DUP3 LT PUSH2 0x2BA8 JUMP JUMPDEST PUSH1 0x0 NOT ADD SWAP5 SWAP4 PUSH2 0x2CCC DUP7 PUSH2 0x263F JUMP JUMPDEST PUSH1 0x1 DUP1 PUSH1 0xA0 SHL SUB SWAP2 SLOAD SWAP1 PUSH1 0x3 SHL SHR AND DUP1 PUSH1 0x0 MSTORE PUSH1 0xA PUSH1 0x20 MSTORE PUSH1 0x4 PUSH1 0x0 PUSH1 0xFF PUSH1 0x40 DUP3 KECCAK256 SLOAD AND SWAP3 PUSH1 0x40 MLOAD SWAP3 DUP4 DUP1 SWAP3 PUSH4 0x1F385F79 PUSH1 0xE2 SHL DUP3 MSTORE GAS STATICCALL SWAP1 DUP2 ISZERO PUSH2 0x2C9D JUMPI DUP6 SWAP3 DUP8 SWAP2 PUSH1 0x0 SWAP4 PUSH2 0x2D8E JUMPI JUMPDEST POP PUSH1 0xE0 DUP4 ADD SWAP1 DUP3 DUP3 MLOAD LT SWAP1 DUP2 PUSH2 0x2D5E JUMPI JUMPDEST POP ISZERO PUSH2 0x2D53 JUMPI POP POP PUSH2 0x100 ADD MLOAD LT JUMPDEST PUSH2 0x2D4C JUMPI PUSH2 0x2D45 DUP7 SWAP2 PUSH2 0x2792 JUMP JUMPDEST SWAP5 SWAP6 PUSH2 0x2B81 JUMP JUMPDEST SWAP4 SWAP5 PUSH2 0x2B86 JUMP JUMPDEST SWAP2 POP SWAP2 POP MLOAD LT PUSH2 0x2D37 JUMP JUMPDEST SWAP3 POP POP SWAP3 POP PUSH1 0x8 DUP2 LT ISZERO PUSH2 0x258D JUMPI DUP6 SWAP3 DUP2 PUSH1 0x6 DUP10 SWAP4 EQ SWAP1 DUP2 ISZERO PUSH2 0x2D83 JUMPI JUMPDEST POP CODESIZE PUSH2 0x2D28 JUMP JUMPDEST PUSH1 0x7 SWAP2 POP EQ CODESIZE PUSH2 0x2D7C JUMP JUMPDEST PUSH2 0x2DA2 SWAP2 SWAP4 RETURNDATASIZE DUP1 SWAP2 DUP4 RETURNDATACOPY PUSH2 0x21D4 DUP2 DUP4 PUSH2 0x2770 JUMP JUMPDEST SWAP2 CODESIZE PUSH2 0x2D17 JUMP JUMPDEST POP PUSH1 0x20 SWAP1 PUSH1 0x40 MLOAD PUSH2 0x2DBA DUP4 DUP3 PUSH2 0x2770 JUMP JUMPDEST PUSH1 0x0 DUP2 MSTORE PUSH1 0x0 CALLDATASIZE DUP2 CALLDATACOPY PUSH1 0x40 MLOAD SWAP3 PUSH2 0x2DD1 DUP2 DUP6 PUSH2 0x2770 JUMP JUMPDEST PUSH1 0x0 DUP5 MSTORE POP PUSH1 0x0 CALLDATASIZE DUP2 CALLDATACOPY SWAP2 SWAP1 JUMP JUMPDEST PUSH1 0x1 PUSH1 0x1 PUSH1 0xA0 SHL SUB AND PUSH1 0x0 SWAP1 DUP2 MSTORE PUSH1 0xD PUSH1 0x20 MSTORE PUSH1 0x40 DUP2 KECCAK256 DUP1 SLOAD DUP3 SWAP2 DUP3 SWAP2 DUP3 SWAP2 DUP3 JUMPDEST DUP3 DUP2 LT PUSH2 0x2EC7 JUMPI POP POP POP PUSH1 0x3 SLOAD SWAP2 PUSH1 0xFF DUP4 AND GT SWAP1 PUSH1 0xFF DUP3 ISZERO SWAP4 PUSH1 0x8 SHR AND GT SWAP2 DUP3 ISZERO SWAP3 DUP3 DUP1 PUSH2 0x2EC0 JUMPI JUMPDEST PUSH2 0x2EB2 JUMPI DUP2 PUSH2 0x2EAA JUMPI JUMPDEST POP PUSH2 0x2E9E JUMPI DUP2 PUSH2 0x2E96 JUMPI JUMPDEST POP PUSH2 0x2E8C JUMPI PUSH3 0x93A80 DUP2 ADD DUP1 SWAP2 GT PUSH2 0x27A1 JUMPI PUSH2 0x2E5B SWAP1 TIMESTAMP SWAP1 PUSH2 0x2AD7 JUMP JUMPDEST SWAP1 PUSH3 0x278D00 DUP2 ADD DUP1 SWAP2 GT PUSH2 0x27A1 JUMPI PUSH2 0x2E74 SWAP1 TIMESTAMP SWAP1 PUSH2 0x2AD7 JUMP JUMPDEST GT ISZERO PUSH2 0x2E84 JUMPI PUSH1 0x2 SWAP1 JUMPDEST PUSH1 0x0 SWAP2 SWAP1 JUMP JUMPDEST PUSH1 0x1 SWAP1 PUSH2 0x2E7E JUMP JUMPDEST POP POP PUSH1 0x0 SWAP1 PUSH1 0x2 SWAP1 JUMP JUMPDEST SWAP1 POP CODESIZE PUSH2 0x2E3E JUMP JUMPDEST POP POP POP POP PUSH1 0x0 SWAP1 PUSH1 0x1 SWAP1 JUMP JUMPDEST SWAP1 POP CODESIZE PUSH2 0x2E33 JUMP JUMPDEST POP POP POP POP POP POP PUSH1 0x1 SWAP1 PUSH1 0x0 SWAP1 JUMP JUMPDEST POP DUP1 PUSH2 0x2E29 JUMP JUMPDEST PUSH2 0x2ED1 DUP2 DUP4 PUSH2 0x2670 JUMP JUMPDEST SWAP1 SLOAD SWAP1 PUSH1 0x3 SHL SHR PUSH3 0x278D00 DUP2 ADD DUP1 DUP3 GT PUSH2 0x27A1 JUMPI TIMESTAMP LT PUSH2 0x2EF5 JUMPI JUMPDEST POP PUSH1 0x1 ADD PUSH2 0x2E00 JUMP JUMPDEST SWAP4 PUSH2 0x2EFF SWAP1 PUSH2 0x2792 JUMP JUMPDEST SWAP4 DUP8 ISZERO DUP1 ISZERO PUSH2 0x2F55 JUMPI JUMPDEST PUSH2 0x2F4D JUMPI JUMPDEST PUSH3 0x93A80 DUP2 ADD DUP1 DUP3 GT PUSH2 0x27A1 JUMPI TIMESTAMP LT ISZERO PUSH2 0x2EEC JUMPI SWAP5 PUSH2 0x2F2C SWAP1 PUSH2 0x2792 JUMP JUMPDEST SWAP5 DUP7 ISZERO DUP1 ISZERO PUSH2 0x2F44 JUMPI JUMPDEST ISZERO PUSH2 0x2EEC JUMPI SWAP6 POP PUSH1 0x1 PUSH2 0x2EEC JUMP JUMPDEST POP DUP7 DUP2 LT PUSH2 0x2F36 JUMP JUMPDEST SWAP7 POP DUP7 PUSH2 0x2F0E JUMP JUMPDEST POP DUP8 DUP2 LT PUSH2 0x2F09 JUMP JUMPDEST ISZERO PUSH2 0x2F65 JUMPI JUMP JUMPDEST PUSH1 0x40 MLOAD PUSH3 0x461BCD PUSH1 0xE5 SHL DUP2 MSTORE PUSH1 0x20 PUSH1 0x4 DUP3 ADD MSTORE PUSH1 0x36 PUSH1 0x24 DUP3 ADD MSTORE PUSH32 0x4D697373696F6E466163746F72793A2063616C6C6572206973206E6F74206120 PUSH1 0x44 DUP3 ADD MSTORE PUSH22 0x1D985B1A59081B5A5CDCDA5BDB8818DBDB9D1C9858DD PUSH1 0x52 SHL PUSH1 0x64 DUP3 ADD MSTORE PUSH1 0x84 SWAP1 REVERT JUMPDEST SWAP1 PUSH1 0x7 DUP2 LT ISZERO PUSH2 0x265A JUMPI PUSH1 0x5 SHL ADD SWAP1 JUMP JUMPDEST PUSH1 0x0 SLOAD PUSH1 0x1 PUSH1 0x1 PUSH1 0xA0 SHL SUB AND CALLER SUB PUSH2 0x2FEE JUMPI JUMP JUMPDEST PUSH4 0x118CDAA7 PUSH1 0xE0 SHL PUSH1 0x0 MSTORE CALLER PUSH1 0x4 MSTORE PUSH1 0x24 PUSH1 0x0 REVERT JUMPDEST PUSH1 0x2 PUSH1 0x1 SLOAD EQ PUSH2 0x3014 JUMPI PUSH1 0x2 PUSH1 0x1 SSTORE JUMP JUMPDEST PUSH4 0x3EE5AEB5 PUSH1 0xE0 SHL PUSH1 0x0 MSTORE PUSH1 0x4 PUSH1 0x0 REVERT JUMPDEST PUSH1 0x0 DUP1 SLOAD PUSH1 0x1 PUSH1 0x1 PUSH1 0xA0 SHL SUB SWAP3 DUP4 AND PUSH1 0x1 PUSH1 0x1 PUSH1 0xA0 SHL SUB NOT DUP3 AND DUP2 OR DUP4 SSTORE SWAP3 AND SWAP1 PUSH32 0x8BE0079C531659141344CD1FD0A4F28419497F9722A3DAAFE3B4186F6B6457E0 SWAP1 DUP1 LOG3 JUMP INVALID LOG2 PUSH5 0x6970667358 0x22 SLT KECCAK256 CALL 0xAA 0xCA SWAP5 0xDC 0x4E CODESIZE 0xEB CALLDATACOPY MSIZE CREATE2 0xB8 0xB3 PUSH21 0xB25F9C8B0720DFD9259736B45B986DF9E35364736F PUSH13 0x634300081E0033000000000000 "},"methodIdentifiers":{"OWNERSHIP_PROPOSAL_WINDOW()":"d3050eba","addAuthorizedAddress(address)":"42f1181e","authorized(address)":"b9181611","canEnroll(address)":"9804a586","confirmOwnershipTransfer(address)":"3c213957","createMission(uint8,uint256,uint256,uint256,uint8,uint8,uint256,uint256,uint8)":"9b159539","getAllMissions()":"6d8a1390","getFactorySummary()":"e5047770","getFundsByType(uint8)":"2e33b07f","getLatestMissions(uint256)":"7e9eae50","getMissionData(address)":"20c5718f","getMissionsByStatus(uint8)":"1e59d584","getMissionsEnded()":"b6202913","getMissionsNotEnded()":"6805036d","getPlayerLimits(address)":"cbf2080d","getPlayerParticipation(address)":"503c0b88","getTotalMissions()":"5c5bb6f2","isMission(address)":"aa1f0595","missionImplementation()":"bd487725","missionStatus(address)":"0814ab82","missions(uint256)":"2c8fe526","monthlyLimit()":"0a6005da","owner()":"8da5cb5b","ownershipProposals(address)":"fb4cdea7","proposeOwnershipTransfer(address)":"21040fc3","recordEnrollment(address)":"c17f9e59","registerMissionFunds(uint8)":"a9bea789","removeAuthorizedAddress(address)":"70712939","renounceOwnership()":"715018a6","reservedFunds(uint8)":"c416ad2a","reservedFundsBreakdown()":"df4db463","secondsTillMonthlySlot(address)":"37012762","secondsTillWeeklySlot(address)":"eff0ab92","setEnrollmentLimits(uint8,uint8)":"d41eca64","setMissionStatus(uint8)":"d8d6e8ff","totalMissionFailures()":"83fbea51","totalMissionFunds()":"63679723","totalMissionSuccesses()":"c892fde3","totalOwnerEarnedFunds()":"3589cf72","transferOwnership(address)":"f2fde38b","weeklyLimit()":"861a68d6","withdrawFunds(uint256)":"155dd5ee"}}}}}