{"contracts/MissionFactory.sol":{"MissionFactory":{"abi":[{"inputs":[],"stateMutability":"nonpayable","type":"constructor"},{"inputs":[],"name":"FailedDeployment","type":"error"},{"inputs":[{"internalType":"uint256","name":"balance","type":"uint256"},{"internalType":"uint256","name":"needed","type":"uint256"}],"name":"InsufficientBalance","type":"error"},{"inputs":[{"internalType":"address","name":"owner","type":"address"}],"name":"OwnableInvalidOwner","type":"error"},{"inputs":[{"internalType":"address","name":"account","type":"address"}],"name":"OwnableUnauthorizedAccount","type":"error"},{"inputs":[],"name":"ReentrancyGuardReentrantCall","type":"error"},{"anonymous":false,"inputs":[{"indexed":true,"internalType":"address","name":"addr","type":"address"}],"name":"AuthorizedAddressAdded","type":"event"},{"anonymous":false,"inputs":[{"indexed":true,"internalType":"address","name":"addr","type":"address"}],"name":"AuthorizedAddressRemoved","type":"event"},{"anonymous":false,"inputs":[{"indexed":false,"internalType":"uint8","name":"newWeekly","type":"uint8"},{"indexed":false,"internalType":"uint8","name":"newMonthly","type":"uint8"}],"name":"EnrollmentLimitUpdated","type":"event"},{"anonymous":false,"inputs":[{"indexed":true,"internalType":"address","name":"user","type":"address"},{"indexed":false,"internalType":"uint256","name":"timestamp","type":"uint256"}],"name":"EnrollmentRecorded","type":"event"},{"anonymous":false,"inputs":[{"indexed":true,"internalType":"address","name":"sender","type":"address"},{"indexed":false,"internalType":"uint256","name":"amount","type":"uint256"}],"name":"FundsReceived","type":"event"},{"anonymous":false,"inputs":[{"indexed":true,"internalType":"address","name":"to","type":"address"},{"indexed":false,"internalType":"uint256","name":"amount","type":"uint256"}],"name":"FundsWithdrawn","type":"event"},{"anonymous":false,"inputs":[{"indexed":true,"internalType":"address","name":"missionAddress","type":"address"},{"indexed":true,"internalType":"enum MissionType","name":"missionType","type":"uint8"}],"name":"MissionCreated","type":"event"},{"anonymous":false,"inputs":[{"indexed":false,"internalType":"uint256","name":"amount","type":"uint256"},{"indexed":true,"internalType":"enum MissionType","name":"missionType","type":"uint8"},{"indexed":true,"internalType":"address","name":"sender","type":"address"}],"name":"MissionFundsRegistered","type":"event"},{"anonymous":false,"inputs":[{"indexed":true,"internalType":"address","name":"confirmer","type":"address"},{"indexed":false,"internalType":"address","name":"newOwner","type":"address"},{"indexed":false,"internalType":"uint256","name":"timestamp","type":"uint256"}],"name":"OwnershipTransferConfirmed","type":"event"},{"anonymous":false,"inputs":[{"indexed":true,"internalType":"address","name":"proposer","type":"address"},{"indexed":false,"internalType":"address","name":"newOwner","type":"address"},{"indexed":false,"internalType":"uint256","name":"timestamp","type":"uint256"}],"name":"OwnershipTransferProposed","type":"event"},{"anonymous":false,"inputs":[{"indexed":true,"internalType":"address","name":"previousOwner","type":"address"},{"indexed":true,"internalType":"address","name":"newOwner","type":"address"}],"name":"OwnershipTransferred","type":"event"},{"stateMutability":"payable","type":"fallback"},{"inputs":[],"name":"OWNERSHIP_PROPOSAL_WINDOW","outputs":[{"internalType":"uint256","name":"","type":"uint256"}],"stateMutability":"view","type":"function"},{"inputs":[{"internalType":"address","name":"account","type":"address"}],"name":"addAuthorizedAddress","outputs":[],"stateMutability":"nonpayable","type":"function"},{"inputs":[{"internalType":"address","name":"","type":"address"}],"name":"authorized","outputs":[{"internalType":"bool","name":"","type":"bool"}],"stateMutability":"view","type":"function"},{"inputs":[{"internalType":"address","name":"user","type":"address"}],"name":"canEnroll","outputs":[{"internalType":"bool","name":"allowed","type":"bool"},{"internalType":"string","name":"reason","type":"string"}],"stateMutability":"view","type":"function"},{"inputs":[{"internalType":"address","name":"newOwner","type":"address"}],"name":"confirmOwnershipTransfer","outputs":[],"stateMutability":"nonpayable","type":"function"},{"inputs":[{"internalType":"enum MissionType","name":"_missionType","type":"uint8"},{"internalType":"uint256","name":"_enrollmentStart","type":"uint256"},{"internalType":"uint256","name":"_enrollmentEnd","type":"uint256"},{"internalType":"uint256","name":"_enrollmentAmount","type":"uint256"},{"internalType":"uint8","name":"_enrollmentMinPlayers","type":"uint8"},{"internalType":"uint8","name":"_enrollmentMaxPlayers","type":"uint8"},{"internalType":"uint256","name":"_missionStart","type":"uint256"},{"internalType":"uint256","name":"_missionEnd","type":"uint256"},{"internalType":"uint8","name":"_missionRounds","type":"uint8"}],"name":"createMission","outputs":[{"internalType":"address","name":"","type":"address"}],"stateMutability":"payable","type":"function"},{"inputs":[],"name":"getAllMissions","outputs":[{"internalType":"address[]","name":"","type":"address[]"},{"internalType":"enum Status[]","name":"","type":"uint8[]"}],"stateMutability":"view","type":"function"},{"inputs":[{"internalType":"enum MissionType","name":"_type","type":"uint8"}],"name":"getFundsByType","outputs":[{"internalType":"uint256","name":"","type":"uint256"}],"stateMutability":"view","type":"function"},{"inputs":[{"internalType":"address","name":"missionAddress","type":"address"}],"name":"getMissionData","outputs":[{"components":[{"internalType":"address[]","name":"players","type":"address[]"},{"internalType":"enum MissionType","name":"missionType","type":"uint8"},{"internalType":"enum Status","name":"missionStatus","type":"uint8"},{"internalType":"uint256","name":"enrollmentStart","type":"uint256"},{"internalType":"uint256","name":"enrollmentEnd","type":"uint256"},{"internalType":"uint256","name":"enrollmentAmount","type":"uint256"},{"internalType":"uint8","name":"enrollmentMinPlayers","type":"uint8"},{"internalType":"uint8","name":"enrollmentMaxPlayers","type":"uint8"},{"internalType":"uint256","name":"missionStart","type":"uint256"},{"internalType":"uint256","name":"missionEnd","type":"uint256"},{"internalType":"uint8","name":"missionRounds","type":"uint8"},{"internalType":"uint8","name":"roundCount","type":"uint8"},{"internalType":"uint256","name":"ethStart","type":"uint256"},{"internalType":"uint256","name":"ethCurrent","type":"uint256"},{"components":[{"internalType":"address","name":"player","type":"address"},{"internalType":"uint256","name":"amountWon","type":"uint256"}],"internalType":"struct Mission.PlayersWon[]","name":"playersWon","type":"tuple[]"},{"internalType":"uint256","name":"pauseTime","type":"uint256"},{"internalType":"address[]","name":"refundedPlayers","type":"address[]"}],"internalType":"struct Mission.MissionData","name":"","type":"tuple"}],"stateMutability":"view","type":"function"},{"inputs":[{"internalType":"enum Status","name":"filter","type":"uint8"}],"name":"getMissionsByStatus","outputs":[{"internalType":"address[]","name":"","type":"address[]"}],"stateMutability":"view","type":"function"},{"inputs":[],"name":"getMissionsEnded","outputs":[{"internalType":"address[]","name":"","type":"address[]"}],"stateMutability":"view","type":"function"},{"inputs":[],"name":"getMissionsNotEnded","outputs":[{"internalType":"address[]","name":"","type":"address[]"}],"stateMutability":"view","type":"function"},{"inputs":[{"internalType":"address","name":"","type":"address"}],"name":"isMission","outputs":[{"internalType":"bool","name":"","type":"bool"}],"stateMutability":"view","type":"function"},{"inputs":[],"name":"missionImplementation","outputs":[{"internalType":"address","name":"","type":"address"}],"stateMutability":"view","type":"function"},{"inputs":[{"internalType":"address","name":"","type":"address"}],"name":"missionStatus","outputs":[{"internalType":"enum Status","name":"","type":"uint8"}],"stateMutability":"view","type":"function"},{"inputs":[{"internalType":"uint256","name":"","type":"uint256"}],"name":"missions","outputs":[{"internalType":"address","name":"","type":"address"}],"stateMutability":"view","type":"function"},{"inputs":[],"name":"monthlyLimit","outputs":[{"internalType":"uint8","name":"","type":"uint8"}],"stateMutability":"view","type":"function"},{"inputs":[],"name":"owner","outputs":[{"internalType":"address","name":"","type":"address"}],"stateMutability":"view","type":"function"},{"inputs":[{"internalType":"address","name":"","type":"address"}],"name":"ownershipProposals","outputs":[{"internalType":"address","name":"proposer","type":"address"},{"internalType":"uint256","name":"timestamp","type":"uint256"}],"stateMutability":"view","type":"function"},{"inputs":[{"internalType":"address","name":"newOwner","type":"address"}],"name":"proposeOwnershipTransfer","outputs":[],"stateMutability":"nonpayable","type":"function"},{"inputs":[{"internalType":"address","name":"user","type":"address"}],"name":"recordEnrollment","outputs":[],"stateMutability":"nonpayable","type":"function"},{"inputs":[{"internalType":"uint256","name":"amount","type":"uint256"},{"internalType":"enum MissionType","name":"missionType","type":"uint8"}],"name":"registerMissionFunds","outputs":[],"stateMutability":"nonpayable","type":"function"},{"inputs":[{"internalType":"address","name":"account","type":"address"}],"name":"removeAuthorizedAddress","outputs":[],"stateMutability":"nonpayable","type":"function"},{"inputs":[],"name":"renounceOwnership","outputs":[],"stateMutability":"nonpayable","type":"function"},{"inputs":[{"internalType":"enum MissionType","name":"","type":"uint8"}],"name":"reservedFunds","outputs":[{"internalType":"uint256","name":"","type":"uint256"}],"stateMutability":"view","type":"function"},{"inputs":[{"internalType":"uint8","name":"_weekly","type":"uint8"},{"internalType":"uint8","name":"_monthly","type":"uint8"}],"name":"setEnrollmentLimits","outputs":[],"stateMutability":"nonpayable","type":"function"},{"inputs":[{"internalType":"enum Status","name":"newStatus","type":"uint8"}],"name":"setMissionStatus","outputs":[],"stateMutability":"nonpayable","type":"function"},{"inputs":[{"internalType":"address","name":"newOwner","type":"address"}],"name":"transferOwnership","outputs":[],"stateMutability":"nonpayable","type":"function"},{"inputs":[],"name":"weeklyLimit","outputs":[{"internalType":"uint8","name":"","type":"uint8"}],"stateMutability":"view","type":"function"},{"inputs":[{"internalType":"uint256","name":"amount","type":"uint256"}],"name":"withdrawFunds","outputs":[],"stateMutability":"nonpayable","type":"function"},{"stateMutability":"payable","type":"receive"}],"evm":{"bytecode":{"linkReferences":{},"object":"608080604052346100f95733156100e35760008054336001600160a01b0319821681178355916001600160a01b03909116907f8be0079c531659141344cd1fd0a4f28419497f9722a3daafe3b4186f6b6457e09080a360018055600a805461ffff1916610a041790556129128181016001600160401b038111838210176100cd57829161291f833903906000f080156100c157600780546001600160a01b0319166001600160a01b039290921691909117905560405161282090816100ff8239f35b6040513d6000823e3d90fd5b634e487b7160e01b600052604160045260246000fd5b631e4fbdf760e01b600052600060045260246000fd5b600080fdfe6080806040526004361015610011575b005b600090813560e01c9081630814ab8214612065575080630a6005da14612041578063155dd5ee14611e7f5780631e59d58414611c8f57806320c5718f14611a1357806321040fc3146118eb5780632c8fe526146118a75780632e33b07f1461039c5780633c2139571461169457806342f1181e146115a35780636805036d1461140d5780636d8a139014611138578063707129391461104d578063715018a614610ff3578063861a68d614610fd25780638da5cb5b14610fab5780639804a58614610f5e5780639b15953914610a4e5780639c3d3a20146108d5578063aa1f059514610893578063b6202913146106d0578063b91816111461068e578063bd48772514610665578063c17f9e59146103cf578063c416ad2a1461039c578063d3050eba1461037e578063d41eca64146102d0578063d8d6e8ff1461021d578063f2fde38b146101c65763fb4cdea70361000f57346101c35760203660031901126101c3576004356001600160a01b038116908190036101c157815260086020908152604091829020805460019091015483516001600160a01b0390921682529181019190915290819081015b0390f35b505b80fd5b50346101c35760203660031901126101c3576004356001600160a01b038116808203610219576101f461277a565b1561020557610202906127a3565b80f35b631e4fbdf760e01b82526004829052602482fd5b8280fd5b50346101c35760203660031901126101c35760043560068110156101c157338252600560205260ff6040832054161561026c573382526004602052604082209060ff8019835416911617905580f35b60405162461bcd60e51b815260206004820152603660248201527f4d697373696f6e466163746f72793a2063616c6c6572206973206e6f742061206044820152751d985b1a59081b5a5cdcda5bdb8818dbdb9d1c9858dd60521b6064820152608490fd5b50346101c35760403660031901126101c35760043560ff81168091036101c15760243560ff81169182820361037a577f321994b8855ae38e4fd6162f7a0bd7cde88be83aa3acc96e03c17b7f733b43e19260409260018060a01b0386541633148015610365575b610340906121b9565b8261ff00600a549260081b169161ffff19161717600a5582519182526020820152a180f35b5033865260026020528386205460ff16610337565b8380fd5b50346101c357806003193601126101c3576020604051620151808152f35b50346101c35760203660031901126101c3576004359060078210156101c35760206103c6836121a0565b54604051908152f35b50346101c35760203660031901126101c3576004356001600160a01b0381169081810361021957338352600460205260ff604084205416600681101561065157600114801561062f575b156105f957610427906125cf565b90156105d1575062278cff194201904282116105bd57808352600960205260408320805492845b848110806105a4575b1561046a5761046590612285565b61044e565b83838792806104f0575b50805490600160401b8210156104dc57816104979160016104af94018155612147565b429082549060031b91821b91600019901b1916179055565b7f498f5e6dcf570483a1848853791046a7f10012193176d71f959f46eb7713d7446020604051428152a280f35b634e487b7160e01b84526041600452602484fd5b92805b6104fe8584546125c2565b81101561054e578061054861051e61051888600195612577565b86612147565b90549060031b1c61052f8387612147565b90919082549060031b91821b91600019901b1916179055565b016104f3565b5092835b81811061055f5750610474565b825480156105905760019190600019016105798186612147565b8154906000199060031b1b19169055845501610552565b634e487b7160e01b86526031600452602486fd5b50816105b08285612147565b90549060031b1c10610457565b634e487b7160e01b83526011600452602483fd5b60405162461bcd60e51b8152602060048201529081906105f590602483019061215f565b0390fd5b60405162461bcd60e51b815260206004820152600e60248201526d24b73b30b634b21031b0b63632b960911b6044820152606490fd5b50338352600460205260ff604084205416600681101561065157600214610419565b634e487b7160e01b84526021600452602484fd5b50346101c357806003193601126101c3576007546040516001600160a01b039091168152602090f35b50346101c35760203660031901126101c3576004356001600160a01b038116908190036101c15760408260ff9260209452600284522054166040519015158152f35b50346101c357806003193601126101c35760065481825b8281106107e557506106f8906122c2565b9082835b82811061071957604051602080825281906101bd908201876120cc565b61072281612116565b905460039190911b1c6001600160a01b031685526004602052604085205460ff1660068110156107d1576004148015610795575b90600191610765575b016106fc565b61076e81612116565b838060a01b0391549060031b1c1661078f61078885612285565b94876122f4565b5261075f565b5061079f81612116565b905460039190911b1c6001600160a01b031685526004602052604085205460ff1660068110156107d157600514610756565b634e487b7160e01b86526021600452602486fd5b6107ee81612116565b905460039190911b1c6001600160a01b031684526004602052604084205460ff16600681101561087f576004148015610843575b61082f575b6001016106e7565b9061083b600191612285565b919050610827565b5061084d81612116565b905460039190911b1c6001600160a01b031684526004602052604084205460ff16600681101561087f57600514610822565b634e487b7160e01b85526021600452602485fd5b50346101c35760203660031901126101c3576004356001600160a01b038116908190036101c15760408260ff9260209452600584522054166040519015158152f35b50346101c35760403660031901126101c3576004356024356007811015610219578115610a0a57338352600460205260ff60408420541660068110156106515760041480156109e8575b83546001600160a01b0316331480156109d2575b81156109ca575b501561098557610949816121a0565b610954838254612577565b90556040519182527f606617fd09d9890413e3c46147b844d4562351f86e0f7a5c60849bbf0ef0281160203393a380f35b60405162461bcd60e51b815260206004820152601d60248201527f43616c6c6572206e6f742061206d697373696f6e206f722061646d696e0000006044820152606490fd5b90503861093a565b50338452600260205260ff604085205416610933565b50338352600460205260ff60408420541660068110156106515760051461091f565b606460405162461bcd60e51b815260206004820152602060248201527f416d6f756e74206d7573742062652067726561746572207468616e207a65726f6044820152fd5b506101203660031901126101c35760043560078110156101c157602435906044359160643560843560ff8116809103610f5a5760a43560ff8116809103610f565760c4359060e43592610104359460ff8616809603610f525789546001600160a01b031633148015610f3c575b610ac4906121b9565b60058610610edd57858210610e725788871015610e2157888410610dc35783851115610d7f578015610d2657600754608881901c62ffffff16763d602d80600a3d3981f3363d3d373d3d3d363d73000000178b5260781b6effffffffffffffffffffffffffffff19166e5af43d82803e903d91602b57fd5bf3176020526001600160a01b03603760098cf016988915610d1757898b52600560205260408b20600160ff19825416179055898b52600460205260408b2060ff19815416905560018060a01b038b5416978a3b15610d13576040519863c54168b360e01b8a5260048a01523060248a0152610bba60448a018b612109565b6064890152608488015260a487015260c486015260e485015261010484015261012483015261014482015283816101648134875af18015610d0857610cf4575b50600654600160401b8110156104dc57806001610c1a9201600655612116565b81546001600160a01b0360039290921b91821b19169084901b17905580827f0ac1ac89285bf936f515aafcf6808b3e062e77fd57f52c8892d20fc9409b8b538580a3610c65816121a0565b5460021c9081151580610cea575b610c83575b602083604051908152f35b610c8c906121a0565b610c978282546125c2565b905582823b156101c35760405163eb2bab7760e01b81529182906004908290865af18015610cdf57610cca575b80610c78565b610cd5838092612263565b6101c15781610cc4565b6040513d85823e3d90fd5b5081471015610c73565b83610d0191949294612263565b9138610bfa565b6040513d86823e3d90fd5b8b80fd5b63b06ebf3d60e01b8b5260048bfd5b60405162461bcd60e51b815260206004820152602b60248201527f456e726f6c6c6d656e7420616d6f756e74206d7573742062652067726561746560448201526a72207468616e207a65726f60a81b6064820152608490fd5b606460405162461bcd60e51b815260206004820152602060248201527f4d697373696f6e207374617274206d757374206265206265666f726520656e646044820152fd5b60405162461bcd60e51b815260206004820152603060248201527f4d697373696f6e207374617274206d757374206265206f6e206f72206166746560448201526f1c88195b9c9bdb1b1b595b9d08195b9960821b6064820152608490fd5b60405162461bcd60e51b815260206004820152602360248201527f456e726f6c6c6d656e74207374617274206d757374206265206265666f726520604482015262195b9960ea1b6064820152608490fd5b60405162461bcd60e51b815260206004820152603f60248201527f4d696e696d756d20706c6179657273206d75737420626520677265617465722060448201527f7468616e206f7220657175616c20746f206d697373696f6e20726f756e6473006064820152608490fd5b60405162461bcd60e51b815260206004820152603160248201527f4d697373696f6e20726f756e6473206d7573742062652067726561746572207460448201527068616e206f7220657175616c20746f203560781b6064820152608490fd5b50338a52600260205260408a205460ff16610abb565b8980fd5b8680fd5b8580fd5b50346101c35760203660031901126101c3576004356001600160a01b03811681036101c157610f8c906125cf565b906101bd6040519283921515835260406020840152604083019061215f565b50346101c357806003193601126101c357546040516001600160a01b039091168152602090f35b50346101c357806003193601126101c357602060ff600a5416604051908152f35b50346101c357806003193601126101c35761100c61277a565b80546001600160a01b03198116825581906001600160a01b03167f8be0079c531659141344cd1fd0a4f28419497f9722a3daafe3b4186f6b6457e08280a380f35b50346101c35760203660031901126101c3576004356001600160a01b038116908190036101c15781546001600160a01b031633148015611122575b611091906121b9565b61109c811515612584565b808252600260205260ff604083205416156110ec57808252600260205260408220805460ff191690557f66d5f06f711af3c9feba3203fdb00b51345d514c68585d9d319c5ff5e6f775928280a280f35b60405162461bcd60e51b815260206004820152600e60248201526d139bdd08185d5d1a1bdc9a5e995960921b6044820152606490fd5b503382526002602052604082205460ff16611088565b50346101c357806003193601126101c35760065462278cff194201914283116113f957919082805b82811061132b5750611171846122c2565b9261119461117e866122aa565b9561118c6040519788612263565b8087526122aa565b602086019390601f19013685378291825b82841061120c57505050506111ca9360206040519586956040875260408701906120cc565b918583038287015251918281520192915b8181106111e9575050500390f35b91935091602080826111fe60019488516120a9565b0194019101918493926111db565b6112198498969798612116565b905460039190911b1c6001600160a01b03168086526004602052604086205460ff1690600682101590816113175760048314801561130a575b61129f575b611261848c6122f4565b5261126c83896122f4565b9061128b575260019061127e90612285565b935b0192969594966111a5565b634e487b7160e01b87526021600452602487fd5b604051631f385f7960e21b81528881600481855afa9081156112ff578691610120918b916112dd575b50015110156112575750505092600190611280565b6112f991503d808d833e6112f18183612263565b810190612394565b386112c8565b6040513d8b823e3d90fd5b5087915060058314611252565b634e487b7160e01b88526021600452602488fd5b91929361133783612116565b905460039190911b1c6001600160a01b03168083526004602052604083205460ff16600681101561065157908160048593149081156113ee575b50611390575b5050611384600191612285565b925b0193929193611160565b604051631f385f7960e21b81529190829060049082905afa908115610cdf5786916101209185916113d4575b500151106113cb578138611377565b91600190611386565b6113e891503d8087833e6112f18183612263565b386113bc565b600591501438611371565b634e487b7160e01b81526011600452602490fd5b50346101c357806003193601126101c35760065481825b8281106115085750611435906122c2565b9082835b82811061145657604051602080825281906101bd908201876120cc565b61145f81612116565b905460039190911b1c6001600160a01b031685526004602052604085205460ff1660068110156107d15760041415806114cb575b906001916114a2575b01611439565b6114ab81612116565b838060a01b0391549060031b1c166114c561078885612285565b5261149c565b506114d581612116565b905460039190911b1c6001600160a01b031685526004602052604085205460ff1660068110156107d15760051415611493565b61151181612116565b905460039190911b1c6001600160a01b031684526004602052604084205460ff16600681101561087f576004141580611566575b611552575b600101611424565b9061155e600191612285565b91905061154a565b5061157081612116565b905460039190911b1c6001600160a01b031684526004602052604084205460ff16600681101561087f5760051415611545565b50346101c35760203660031901126101c3576004356001600160a01b038116908190036101c15781546001600160a01b03163314801561167e575b6115e7906121b9565b6115f2811515612584565b808252600260205260ff60408320541661164457808252600260205260408220805460ff191660011790557f10ac961f00d5e732ba4dcc2c6fb09bebea0eb9edd2a75c8109775ef288382e678280a280f35b60405162461bcd60e51b8152602060048201526012602482015271105b1c9958591e48185d5d1a1bdc9a5e995960721b6044820152606490fd5b503382526002602052604082205460ff166115de565b50346101c35760203660031901126101c3576004356001600160a01b0381168082036102195782546001600160a01b031633148015611891575b6116d7906121b9565b8083526008602052604083206040516116ef81612247565b81546001600160a01b031680825260019092015460208201908152911561184c57516001600160a01b0316331461180857516201518081018091116117f45742116117bc5761173c61277a565b80156117a85761174b826127a3565b825260086020908152604080842084815560010184905580516001600160a01b039093168352429183019190915233917fdd72dd33198968a9cdc9b1e5cbff344fb8d04d99f8c15c0a02416b04e857b46791819081015b0390a280f35b631e4fbdf760e01b83526004839052602483fd5b60405162461bcd60e51b815260206004820152601060248201526f141c9bdc1bdcd85b08195e1c1a5c995960821b6044820152606490fd5b634e487b7160e01b84526011600452602484fd5b606460405162461bcd60e51b815260206004820152602060248201527f43616e6e6f7420636f6e6669726d20796f7572206f776e2070726f706f73616c6044820152fd5b60405162461bcd60e51b815260206004820152601a60248201527f4e6f2070726f706f73616c20666f722074686973206f776e65720000000000006044820152606490fd5b503383526002602052604083205460ff166116ce565b50346101c35760203660031901126101c357600435906006548210156101c35760206118d283612116565b905460405160039290921b1c6001600160a01b03168152f35b50346101c35760203660031901126101c3576004356001600160a01b0381168082036102195782546001600160a01b0316331480156119fd575b61192e906121b9565b80156119c45760016040519161194383612247565b3383526020830190428252855260086020526040852092828060a01b039051166bffffffffffffffffffffffff60a01b845416178355519101557fc29bdbd554e41df97e5c40fc273a09677ac133c245f0064bdffef5cc72176e19604051806117a2339442908360209093929193604081019460018060a01b031681520152565b60405162461bcd60e51b815260206004820152601160248201527024b73b30b634b2103732bb9037bbb732b960791b6044820152606490fd5b503383526002602052604083205460ff16611925565b50346101c35760203660031901126101c3576004356001600160a01b038116908190036101c1576060610200604051611a4b81612214565b82815284602082015284604082015284838201528460808201528460a08201528460c08201528460e08201528461010082015284610120820152846101408201528461016082015284610180820152846101a0820152826101c0820152846101e082015201528015611c4a578160049160405192838092631f385f7960e21b82525afa908115611c3f578291611c25575b506040519060208252611afd815161022060208501526102408401906120cc565b92611b1060208301516040850190612109565b611b22604083015160608501906120a9565b60608201516080840152608082015160a084015260a082015160c084015260ff60c08301511660e084015260ff60e08301511661010084015261010082015161012084015261012082015161014084015260ff6101408301511661016084015260ff610160830151166101808401526101808201516101a08401526101a08201516101c08401526101c082015193601f19848203016101e0850152602080865192838152019501915b818110611bfa5784806101bd88610200886101e0810151828601520151601f19848303016102208501526120cc565b825180516001600160a01b031687526020908101518188015260409096019590920191600101611bcb565b611c3991503d8084833e6112f18183612263565b38611adc565b6040513d84823e3d90fd5b60405162461bcd60e51b815260206004820152601760248201527f496e76616c6964206d697373696f6e20616464726573730000000000000000006044820152606490fd5b50346101c35760203660031901126101c35760043560068110158061021957600654906002831484805b83858210611dd0575050611ccc906122c2565b938592865b858110611cee57604051602080825281906101bd9082018a6120cc565b81611317578380611d94575b8015611d40575b90600191611d10575b01611cd1565b611d1981612116565b838060a01b0391549060031b1c16611d3a611d3388612285565b978a6122f4565b52611d0a565b509050611d4c81612116565b905460039190911b1c6001600160a01b031687526004602052604087205487919060ff166006811015611d80578314611d01565b634e487b7160e01b89526021600452602489fd5b50611d9e81612116565b905460039190911b1c6001600160a01b031688526004602052604088205460ff166006811015611d8057600314611cfa565b61128b578280611e43575b8015611e03575b611def575b600101611cb9565b90611dfb600191612285565b919050611de7565b509250611e0f83612116565b905460039190911b1c6001600160a01b031686526004602052604086205486939060ff166006811015611317578614611de2565b50611e4d81612116565b905460039190911b1c6001600160a01b031687526004602052604087205460ff16600681101561131757600314611ddb565b50346101c35760203660031901126101c35780546001600160a01b0316600435338214801561202b575b611eb2906121b9565b60026001541461201c576002600155808215611fdf5715611fd8575b478111611f9c578280808084865af13d15611f97573d67ffffffffffffffff8111611f835760405190611f0b601f8201601f191660200183612263565b81528460203d92013e5b15611f4c5760207feaff4b37086828766ad3268786972c0cd24259d4c87a80f9d3963a3c3d999b0d91604051908152a26001805580f35b60405162461bcd60e51b815260206004820152600f60248201526e151c985b9cd9995c8819985a5b1959608a1b6044820152606490fd5b634e487b7160e01b85526041600452602485fd5b611f15565b60405162461bcd60e51b8152602060048201526014602482015273496e73756666696369656e742062616c616e636560601b6044820152606490fd5b5047611ece565b60405162461bcd60e51b815260206004820152601560248201527424b73b30b634b21036b0b730b3b2b91037bbb732b960591b6044820152606490fd5b633ee5aeb560e01b8352600483fd5b503383526002602052604083205460ff16611ea9565b50346101c357806003193601126101c357602060ff600a5460081c16604051908152f35b9050346101c15760203660031901126101c1576004356001600160a01b03811690819003610219578160ff6040856120a79460209752600487522054166120a9565bf35b9060068210156120b65752565b634e487b7160e01b600052602160045260246000fd5b906020808351928381520192019060005b8181106120ea5750505090565b82516001600160a01b03168452602093840193909201916001016120dd565b9060078210156120b65752565b60065481101561213157600660005260206000200190600090565b634e487b7160e01b600052603260045260246000fd5b80548210156121315760005260206000200190600090565b919082519283825260005b84811061218b575050826000602080949584010152601f8019910116010190565b8060208092840101518282860101520161216a565b60078110156120b6576000526003602052604060002090565b156121c057565b60405162461bcd60e51b815260206004820152602660248201527f4e6f74206f776e6572206f72204d697373696f6e466163746f727920617574686044820152651bdc9a5e995960d21b6064820152608490fd5b610220810190811067ffffffffffffffff82111761223157604052565b634e487b7160e01b600052604160045260246000fd5b6040810190811067ffffffffffffffff82111761223157604052565b90601f8019910116810190811067ffffffffffffffff82111761223157604052565b60001981146122945760010190565b634e487b7160e01b600052601160045260246000fd5b67ffffffffffffffff81116122315760051b60200190565b906122cc826122aa565b6122d96040519182612263565b82815280926122ea601f19916122aa565b0190602036910137565b80518210156121315760209160051b010190565b51906001600160a01b038216820361231c57565b600080fd5b9080601f8301121561231c578151612338816122aa565b926123466040519485612263565b81845260208085019260051b82010192831161231c57602001905b82821061236e5750505090565b6020809161237b84612308565b815201910190612361565b519060ff8216820361231c57565b60208183031261231c5780519067ffffffffffffffff821161231c57016102208183031261231c57604051916123c983612214565b815167ffffffffffffffff811161231c57816123e6918401612321565b83526020820151600781101561231c5760208401526040820151600681101561231c576040840152606082015160608401526080820151608084015260a082015160a084015261243860c08301612386565b60c084015261244960e08301612386565b60e08401526101008201516101008401526101208201516101208401526124736101408301612386565b6101408401526124866101608301612386565b6101608401526101808201516101808401526101a08201516101a08401526101c082015167ffffffffffffffff811161231c57820181601f8201121561231c5780516124d1816122aa565b916124df6040519384612263565b81835260208084019260061b8201019084821161231c57602001915b81831061253f575050506101c08401526101e08201516101e084015261020082015167ffffffffffffffff811161231c576125369201612321565b61020082015290565b60408386031261231c576020604091825161255981612247565b61256286612308565b815282860151838201528152019201916124fb565b9190820180921161229457565b1561258b57565b60405162461bcd60e51b815260206004820152600f60248201526e496e76616c6964206164647265737360881b6044820152606490fd5b9190820391821161229457565b9060609060009260009060018060a01b031660005260096020526040600020916040518084602082965493848152019060005260206000209260005b81811061276157505061262092500384612263565b60005b83518110156126915761263681856122f4565b5162278d008101809111612294574210612653575b600101612623565b9161265d90612285565b9161266881856122f4565b5162093a8081018091116122945742101561264b5794612689600191612285565b95905061264b565b5093915091600a549160ff83161115612714575060081c60ff1611156126c9576001906040516126c2602082612263565b6000815290565b6000906040516126da606082612263565b602481527f416e7469416464696374696f6e3a204d6f6e74686c79206c696d69742072656160208201526318da195960e21b604082015290565b929150506000916127286040519182612263565b602381527f416e7469416464696374696f6e3a205765656b6c79206c696d697420726561636020820152621a195960ea1b604082015290565b845483526001948501948894506020909301920161260b565b6000546001600160a01b0316330361278e57565b63118cdaa760e01b6000523360045260246000fd5b600080546001600160a01b039283166001600160a01b03198216811783559216907f8be0079c531659141344cd1fd0a4f28419497f9722a3daafe3b4186f6b6457e09080a356fea264697066735822122053b0972580b705fd73843ca2a01a5c56f34cd0c432106c86b93b66b78e8f68b364736f6c634300081e003360808060405234607957331560635760008054336001600160a01b0319821681178355916001600160a01b03909116907f8be0079c531659141344cd1fd0a4f28419497f9722a3daafe3b4186f6b6457e09080a360018055612893908161007f8239f35b631e4fbdf760e01b600052600060045260246000fd5b600080fdfe6080604052600436101561000f57005b6000803560e01c806301fb8d1f14611c9f57806310eb0e0e14611c605780631212484814611ac957806324600fc31461176e5780633072cf601461174b578063715018a6146116f15780637475a4cb146111315780637ce17de414610d5d5780638da5cb5b14610d36578063987c543a146108b557806398bdae43146107f4578063a52b2b88146107b5578063b2a4a5d21461077c578063b9713b77146106c1578063c033a49014610682578063c54168b31461021b578063eb2bab7714610164578063f2fde38b146101135763fa4cf5a1146100e857005b346101105780600319360112610110576002546040516001600160a01b039091168152602090f35b80fd5b50346101105760203660031901126101105761012d611db5565b6101356127ad565b6001600160a01b038116156101505761014d906127d6565b80f35b631e4fbdf760e01b82526004829052602482fd5b50806003193601126101105761017b34151561205f565b6002546001600160a01b031633036101de5761019934600f54611f38565b600f557f7272b264c9ef2a1e8e9303944736f4977b14a5761227b7b9869fecaa60f8938760406101cb34601054611f38565b806010558151903482526020820152a180f35b60405162461bcd60e51b815260206004820152601560248201527413db9b1e48199858dd1bdc9e4818d85b88199d5b99605a1b6044820152606490fd5b5061016036600319011261011057610231611db5565b6024356001600160a01b0381169290839003610110576044359260078410156104c55760c43560ff811680910361067e5760e4359060ff8216820361067a57610144359260ff84168094036106765761028861209b565b60145460ff811661063b576001906102a134151561205f565b60ff1916176014556102b2866127d6565b6bffffffffffffffffffffffff60a01b600254161760025560ff196007541660ff87161760075560643560085560843560095560a435600a5561ff00600b549260081b169161ffff19161717600b5561010435600c5561012435600d5561ffff19600e541617600e5534600f5534601055806012556020906040516103378382611e71565b818152600036813780519067ffffffffffffffff821161058b57600160401b821161058b578390600654836006558084106105da575b500160068352825b82811061059f5750505060405161038c8382611e71565b8181528190600160401b821161058b57839060115483601155808410610507575b50016011835260008051602061281e8339815191528484925b8484106104c95750505050506007549060ff8260081c169161ff00191660075560018060a01b0360025416803b156104c55781809160246040518094819363d8d6e8ff60e01b835261041b6004840183611e15565b5af180156104ba579082916104a5575b50506006821015610491578061049157509060007fe9597995b7a2af444cc28b2b776b88b1253d701282a9bcf902d4f59750df7c579260008051602061283e83398151915283604051428152a36040514281526001600160a01b0390931692a360018055005b634e487b7160e01b81526021600452602490fd5b816104af91611e71565b61011057803861042b565b6040513d84823e3d90fd5b5080fd5b8051805184546001600160a01b0319166001600160a01b039190911617845560200151600184810191909155916002910192019201919085906103c6565b9091506001600160ff1b0381168103610577576001600160ff1b03831683036105775790849160011b60008051602061281e833981519152018360011b60008051602061281e833981519152015b81811061056257506103ad565b85815560018101869055869350600201610555565b634e487b7160e01b84526011600452602484fd5b634e487b7160e01b83526041600452602483fd5b81516001600160a01b03167ff652222313e28459528d920b65115c16c04f3efc82aaedc97be59f3f377c0d3f82015590840190600101610375565b7ff652222313e28459528d920b65115c16c04f3efc82aaedc97be59f3f377c0d3f01837ff652222313e28459528d920b65115c16c04f3efc82aaedc97be59f3f377c0d3f015b81811061062d575061036d565b858155869350600101610620565b60405162461bcd60e51b8152602060048201526013602482015272105b1c9958591e481a5b9a5d1a585b1a5e9959606a1b6044820152606490fd5b8480fd5b8380fd5b8280fd5b50346101105760203660031901126101105760209060ff906040906001600160a01b036106ad611db5565b168152600584522054166040519015158152f35b5034610110578060031936011261011057600754600854600954600a54600b54600c54600d5490600e5492600f549460105496601254986040519a8b60ff82169061070b91611e08565b60208c019060081c60ff169061072091611e15565b60408b015260608a0152608089015260ff811660a089015260081c60ff1660c088015260e087015261010086015260ff811661012086015260081c60ff166101408501526101608401526101808301526101a08201526101c090f35b5034610110576020366003190112610110576020906040906001600160a01b036107a4611db5565b168152601583522054604051908152f35b50346101105760203660031901126101105760209060ff906040906001600160a01b036107e0611db5565b168152600484522054166040519015158152f35b503461011057806003193601126101105761080d61209b565b80546001600160a01b031633148015610839575b61082a90611ea0565b6108326122a7565b6001805580f35b5060025460405163b918161160e01b815233600482015290602090829060249082906001600160a01b03165afa80156104ba57829061087a575b9050610821565b506020813d6020116108ad575b8161089460209383611e71565b810103126104c5576108a861082a91611e93565b610873565b3d9150610887565b5080600319360112610110576108c961209b565b6008544210610cf1574260095410610cb55760065460ff600b5460081c161115610c7a57600a543403610c3557338152600360205260ff604082205416610bf057600254604051634c0252c360e11b8152336004820152908290829060249082906001600160a01b03165afa9081156104ba5782908392610b69575b5015610b2b5750600654600160401b811015610b175780600161096d92016006556006612047565b81549060031b9033821b9160018060a01b03901b1916179055338152600360205260408120600160ff198254161790556109a934600f54611f38565b600f556109b834601054611f38565b60105560075461010060ff8260081c169161ff0019161760075560018060a01b0360025416803b1561067e5760405163d8d6e8ff60e01b81528381602481838096600160048401525af180156104ba57610aec575b50506006811015610ad85781610ad85760019060008051602061283e8339815191526020604051428152a36002546001600160a01b0316803b15610ad3576000809160246040518094819363c17f9e5960e01b83523360048401525af18015610ac757610ab2575b506006546040519034825260208201527fbedd10d90b8962eb521114c7e2b49019403d371ffa1e46afbda7a3f1fde8f06f60403392a26001805580f35b610abf9150600090611e71565b600038610a75565b6040513d6000823e3d90fd5b600080fd5b634e487b7160e01b82526021600452602482fd5b81610af691611e71565b6104c5578138610a0d565b634e487b7160e01b600052602160045260246000fd5b634e487b7160e01b82526041600452602482fd5b6044604051809262461bcd60e51b825260206004830152610b5b8151809281602486015260208686019101612009565b601f01601f19168101030190fd5b9150503d8083833e610b7b8183611e71565b81019060408183031261067e57610b9181611e93565b9060208101519067ffffffffffffffff8211610676570182601f8201121561067a578051610bbe81611fbd565b93610bcc6040519586611e71565b8185526020828401011161067657610bea9160208086019101612009565b38610945565b60405162461bcd60e51b815260206004820152601760248201527f506c6179657220616c726561647920656e726f6c6c65640000000000000000006044820152606490fd5b60405162461bcd60e51b815260206004820152601b60248201527f496e636f727265637420656e726f6c6c6d656e7420616d6f756e7400000000006044820152606490fd5b60405162461bcd60e51b815260206004820152601360248201527213585e081c1b185e595c9cc81c995858da1959606a1b6044820152606490fd5b60405162461bcd60e51b8152602060048201526014602482015273115b9c9bdb1b1b595b9d081a185cc8195b99195960621b6044820152606490fd5b60405162461bcd60e51b815260206004820152601e60248201527f456e726f6c6c6d656e7420686173206e6f7420737461727465642079657400006044820152606490fd5b5034610110578060031936011261011057546040516001600160a01b039091168152602090f35b50346101105780600319360112610110576060610200604051610d7f81611e54565b82815283602082015283604082015283838201528360808201528360a08201528360c08201528360e08201528361010082015283610120820152836101408201528361016082015283610180820152836101a0820152826101c0820152836101e08201520152604051610df181611e54565b6040516006548082528160208101600686526020862092865b81811061110f575050610e1f92500382611e71565b815260075460ff811660078110156110fb57602083015260081c60ff1660068110156110e757604082015260085460608201526009546080820152600a5460a082015260ff600b5481811660c084015260081c1660e0820152600c54610100820152600d5461012082015260ff600e5481811661014084015260081c16610160820152600f546101808201526010546101a082015260115467ffffffffffffffff811161058b5760208160051b0190610edb6040519283611e71565b808252601184528360008051602061281e833981519152602084015b8383106110b357505050506101c08201526012546101e08201526040516013548082528160208101601386526020862092865b818110611091575050610f3f92500382611e71565b6102008201526040519060208252610f6581516102206020850152610240840190611dcb565b92610f7860208301516040850190611e08565b610f8a60408301516060850190611e15565b60608201516080840152608082015160a084015260a082015160c084015260ff60c08301511660e084015260ff60e08301511661010084015261010082015161012084015261012082015161014084015260ff6101408301511661016084015260ff610160830151166101808401526101808201516101a08401526101a08201516101c08401526101c082015193601f19848203016101e0850152602080865192838152019501915b81811061106657848061106288610200886101e0810151828601520151601f1984830301610220850152611dcb565b0390f35b825180516001600160a01b031687526020908101518188015260409096019590920191600101611033565b84546001600160a01b0316835260019485019486945060209093019201610f2a565b600260206001926040516110c681611e22565b848060a01b0386541681528486015483820152815201920192019190610ef7565b634e487b7160e01b83526021600452602483fd5b634e487b7160e01b84526021600452602484fd5b84546001600160a01b0316835260019485019486945060209093019201610e0a565b503461011057806003193601126101105761114a61209b565b60125480159081156116a5575b501561166c57338152600460205260ff60408220541661162757338152600360205260ff604082205416156115e257600c54421061159d57600d544210156115645760ff60075460081c166006811015610ad8576002810361152757600e5460ff8082169160081c1610156114eb576003146114de575b600c546111db8142611f5b565b906064820291808304606414901517156114c257906111ff61120592600d54611f5b565b90611f68565b60115480156114d65760001981019081116114c257611225600191611f88565b500154905b6064820291808304606414901517156114c2576112549061124e600f548094611f68565b90611f5b565b8181029181830414901517156114ae576064900461127481601054611f5b565b601055600e5460ff8160081c1660ff811461057757600161ff00910160081b169061ff00191617600e55338252600460205260408220600160ff198254161790556040516112c181611e22565b338152816020820152601154600160401b81101561149a578060016112e99201601155611f88565b61148657815181546001600160a01b0319166001600160a01b03919091161781556020909101516001909101558180808084335af1611326611fd9565b50156114485760ff600e54818160081c16809360105460405191825260208201527fbbdd894f5e6d754c18172761a1a461095c26de58905e706a8c33657573d4067260403392a316036113835761137b612214565b610832612724565b60075461030060ff8260081c169161ff0019161760075560018060a01b0360025416803b1561067e5760405163d8d6e8ff60e01b81528381602481838096600360048401525af180156104ba57611433575b5050426012557fae3ba0777e3d90978a607fca3c27811130deb71f173b067e83f1bcbd10173b4a6020604051428152a16006811015610ad85781610ad85760039060008051602061283e8339815191526020604051428152a3610832565b8161143d91611e71565b6104c55781386113d5565b60405162461bcd60e51b815260206004820152601660248201527514185e5bdd5d081d1c985b9cd9995c8819985a5b195960521b6044820152606490fd5b634e487b7160e01b84526004849052602484fd5b634e487b7160e01b84526041600452602484fd5b634e487b7160e01b82526011600452602482fd5b634e487b7160e01b83526011600452602483fd5b50819061122a565b6114e66120bd565b6111ce565b60405162461bcd60e51b8152602060048201526014602482015273105b1b081c9bdd5b991cc818dbdb5c1b195d195960621b6044820152606490fd5b60405162461bcd60e51b81526020600482015260156024820152744d697373696f6e206973206e6f742041637469766560581b6044820152606490fd5b60405162461bcd60e51b8152602060048201526011602482015270135a5cdcda5bdb881a185cc8195b991959607a1b6044820152606490fd5b60405162461bcd60e51b815260206004820152601b60248201527f4d697373696f6e20686173206e6f7420737461727465642079657400000000006044820152606490fd5b60405162461bcd60e51b815260206004820152601760248201527f4e6f7420656e726f6c6c656420696e206d697373696f6e0000000000000000006044820152606490fd5b60405162461bcd60e51b815260206004820152601f60248201527f506c6179657220616c726561647920776f6e2074686973206d697373696f6e006044820152606490fd5b60405162461bcd60e51b8152602060048201526011602482015270135a5cdcda5bdb881a5cc81c185d5cd959607a1b6044820152606490fd5b919050600e5491600160ff8460081c160160ff81116114c25791926116dd9260ff9081169116036116e65761ffff603c5b1690611f38565b42101538611157565b61ffff61012c6116d6565b503461011057806003193601126101105761170a6127ad565b80546001600160a01b03198116825581906001600160a01b03167f8be0079c531659141344cd1fd0a4f28419497f9722a3daafe3b4186f6b6457e08280a380f35b5034610110578060031936011261011057602060ff601454166040519015158152f35b503461011057806003193601126101105761178761209b565b80546001600160a01b031633148015611a4d575b6117a490611ea0565b60ff60075460081c166006811015610ad85760048114908115611a42575b5015611a09574780156117de81156117d9816126e1565b6126e1565b601982029082820460191417156114c25760646117fd91048092611f5b565b600254604051638da5cb5b60e01b81528491602090829060049082906001600160a01b03165afa9081156104ba578291859183916119c1575b50829182916001600160a01b03165af161184e611fd9565b501561198457828080808460018060a01b03600254165af161186e611fd9565b501561193f5760018060a01b03600254168360ff60075416823b156104c55760446118b6918360405195869485936304e1e9d160e51b85528960048601526024850190611e08565b5af18015611934576118fb575b507fd66662c0ded9e58fd31d5e44944bcfd07ffc15e6927ecc1382e7941cb7bd24c49160409182519182526020820152a16001805580f35b918361192b604093957fd66662c0ded9e58fd31d5e44944bcfd07ffc15e6927ecc1382e7941cb7bd24c495611e71565b939150916118c3565b6040513d86823e3d90fd5b60405162461bcd60e51b815260206004820152601760248201527f466163746f7279207472616e73666572206661696c65640000000000000000006044820152606490fd5b60405162461bcd60e51b815260206004820152601560248201527413dddb995c881d1c985b9cd9995c8819985a5b1959605a1b6044820152606490fd5b925050506020813d602011611a01575b816119de60209383611e71565b810103126104c557516001600160a01b03811681036104c5578190849082611836565b3d91506119d1565b60405162461bcd60e51b8152602060048201526011602482015270135a5cdcda5bdb881b9bdd08195b991959607a1b6044820152606490fd5b6005915014386117c2565b5060025460405163b918161160e01b815233600482015290602090829060249082906001600160a01b03165afa80156104ba578290611a8e575b905061179b565b506020813d602011611ac1575b81611aa860209383611e71565b810103126104c557611abc6117a491611e93565b611a87565b3d9150611a9b565b503461011057806003193601126101105780546001600160a01b031633148015611be4575b611af790611ea0565b611aff61209b565b600d54421115611ba75760ff60075460081c166006811015610ad85760028114908115611b9c575b5015611b5757600e5460081c60ff16611b425761082a612180565b611b4a612214565b611b52612724565b610832565b60405162461bcd60e51b815260206004820152601b60248201527f4d697373696f6e2063616e6e6f742062652066696e616c697a656400000000006044820152606490fd5b600391501438611b27565b60405162461bcd60e51b8152602060048201526015602482015274135a5cdcda5bdb881b9bdd08195b991959081e595d605a1b6044820152606490fd5b5060025460405163b918161160e01b815233600482015290602090829060249082906001600160a01b03165afa80156104ba578290611c25575b9050611aee565b506020813d602011611c58575b81611c3f60209383611e71565b810103126104c557611c53611af791611e93565b611c1e565b3d9150611c32565b50346101105760203660031901126101105760209060ff906040906001600160a01b03611c8b611db5565b168152600384522054166040519015158152f35b5034610110578060031936011261011057611cb861209b565b80546001600160a01b031633148015611d39575b611cd590611ea0565b611ce3600954421015611eec565b600654600b5460ff161115611cfa5761082a612180565b611d026120bd565b7f413bcdce36601de9d10af5354f226f61d5dde1e304291e211ced6a6dee6b255660406006548151904282526020820152a1610832565b5060025460405163b918161160e01b815233600482015290602090829060249082906001600160a01b03165afa80156104ba578290611d7a575b9050611ccc565b506020813d602011611dad575b81611d9460209383611e71565b810103126104c557611da8611cd591611e93565b611d73565b3d9150611d87565b600435906001600160a01b0382168203610ad357565b906020808351928381520192019060005b818110611de95750505090565b82516001600160a01b0316845260209384019390920191600101611ddc565b906007821015610b015752565b906006821015610b015752565b6040810190811067ffffffffffffffff821117611e3e57604052565b634e487b7160e01b600052604160045260246000fd5b610220810190811067ffffffffffffffff821117611e3e57604052565b90601f8019910116810190811067ffffffffffffffff821117611e3e57604052565b51908115158203610ad357565b15611ea757565b60405162461bcd60e51b815260206004820152601760248201527f4e6f74206f776e6572206f7220617574686f72697a65640000000000000000006044820152606490fd5b15611ef357565b60405162461bcd60e51b815260206004820152601860248201527f456e726f6c6c6d656e74207374696c6c206f6e676f696e6700000000000000006044820152606490fd5b91908201809211611f4557565b634e487b7160e01b600052601160045260246000fd5b91908203918211611f4557565b8115611f72570490565b634e487b7160e01b600052601260045260246000fd5b601154811015611fa757601160005260206000209060011b0190600090565b634e487b7160e01b600052603260045260246000fd5b67ffffffffffffffff8111611e3e57601f01601f191660200190565b3d15612004573d90611fea82611fbd565b91611ff86040519384611e71565b82523d6000602084013e565b606090565b60005b83811061201c5750506000910152565b818101518382015260200161200c565b600654811015611fa757600660005260206000200190600090565b8054821015611fa75760005260206000200190600090565b1561206657565b60405162461bcd60e51b815260206004820152600d60248201526c139bc8199d5b991cc81cd95b9d609a1b6044820152606490fd5b6002600154146120ac576002600155565b633ee5aeb560e01b60005260046000fd5b60075461020060ff8260081c169161ff0019161760075560018060a01b0360025416803b15610ad35760405163d8d6e8ff60e01b8152600260048201525a81602481600080968195f180156104ba578290612170575b905050806012557f90819cd8de9b72986080ab279ab70683338d97e13bbb542d0c4320ef2ff9557f6020604051428152a160068210156104915780610491575060029060008051602061283e8339815191526020604051428152a3565b61217991611e71565b3881612113565b60075461050060ff8260081c169161ff0019161760075560018060a01b0360025416803b15610ad35760405163d8d6e8ff60e01b8152600560048201525a81602481600080968195f180156104ba578290612204575b505060068210156104915780610491575060059060008051602061283e8339815191526020604051428152a3565b61220d91611e71565b38816121d6565b60075461040060ff8260081c169161ff0019161760075560018060a01b0360025416803b15610ad35760405163d8d6e8ff60e01b81526004808201525a81602481600080968195f180156104ba578290612297575b505060068210156104915780610491575060049060008051602061283e8339815191526020604051428152a3565b6122a091611e71565b3881612269565b600954906122b9600092421015611eec565b60ff60075460081c1660068110156110e75760050361269c576006541561266057600190825b60065481101561242b576122f28161202c565b905460039190911b1c6001600160a01b03168085526005602052604085205460ff1615612323575b506001016122df565b84808080600a54855af1612335611fd9565b50156123d657808552600560205260408520805460ff19166001179055601354600160401b8110156123c25790612376826001809594016013556013612047565b81549060031b9083821b91868060a01b03901b19161790557f48d31f1c958cd44f1f83a52ae2dfaf61e88a1b82c07a6d5711a4abef60b6531e6020600a54604051908152a25b9061231a565b634e487b7160e01b86526041600452602486fd5b909250600a5481855260156020526123f360408620918254611f38565b90557faf73b0b217208b61be286bbc37095bce7eb8b9ccf617244c2f0f154e8e04e3ff6020600a54604051908152a2600183926123bc565b50919060ff60075460081c1660068110156110e75760048114908115612655575b5015611a0957479061245f8215156126e1565b156125eb57905b811561247281156126e1565b601983029083820460191417156114ae57606461249191048093611f5b565b600254604051638da5cb5b60e01b815291929190602090829060049082906001600160a01b03165afa9081156104ba578291859183916125a3575b50829182918291906001600160a01b03165af16124e7611fd9565b501561198457808080808560018060a01b03600254165af1612507611fd9565b501561193f5760018060a01b036002541660ff60075416813b1561067e5761254f604484928360405195869485936304e1e9d160e51b85528a60048601526024850190611e08565b5af180156104ba5791604093917fd66662c0ded9e58fd31d5e44944bcfd07ffc15e6927ecc1382e7941cb7bd24c49593612593575b505082519182526020820152a1565b8161259d91611e71565b38612584565b925050506020813d6020116125e3575b816125c060209383611e71565b810103126104c557516001600160a01b03811681036104c55781908490826124cc565b3d91506125b3565b919080816006545b80821061261c5750508361260e929394821161261457611f5b565b90612466565b905080611f5b565b909161264d60019161262d8561202c565b848060a01b0391549060031b1c1686526015602052604086205490611f38565b9201906125f3565b60059150143861244c565b60405162461bcd60e51b8152602060048201526014602482015273139bc81c1b185e595c9cc81d1bc81c99599d5b9960621b6044820152606490fd5b60405162461bcd60e51b815260206004820152601f60248201527f4d697373696f6e206973206e6f7420696e204661696c656420737461747573006044820152606490fd5b156126e857565b60405162461bcd60e51b81526020600482015260146024820152734e6f2066756e647320746f20776974686472617760601b6044820152606490fd5b60009060ff60075460081c1660068110156110e757600481149081156127a2575b5015611a095747916127588315156126e1565b50600080816006545b8082106127895750508361277c929394821161261457611f5b565b90811561247281156126e1565b909161279a60019161262d8561202c565b920190612761565b600591501438612745565b6000546001600160a01b031633036127c157565b63118cdaa760e01b6000523360045260246000fd5b600080546001600160a01b039283166001600160a01b03198216811783559216907f8be0079c531659141344cd1fd0a4f28419497f9722a3daafe3b4186f6b6457e09080a356fe31ecc21a745e3968a04e9570e4425bc18fa8019c68028196b546d1669c200c6839ba628632d48c45c7f562c07db20a44cf68423691d5d79b20f87ba84138aedfa26469706673582212205256274fa88c7509194aa1573e80691188510fabc3b3d03719a7a2943875c19964736f6c634300081e0033","opcodes":"PUSH1 0x80 DUP1 PUSH1 0x40 MSTORE CALLVALUE PUSH2 0xF9 JUMPI CALLER ISZERO PUSH2 0xE3 JUMPI PUSH1 0x0 DUP1 SLOAD CALLER PUSH1 0x1 PUSH1 0x1 PUSH1 0xA0 SHL SUB NOT DUP3 AND DUP2 OR DUP4 SSTORE SWAP2 PUSH1 0x1 PUSH1 0x1 PUSH1 0xA0 SHL SUB SWAP1 SWAP2 AND SWAP1 PUSH32 0x8BE0079C531659141344CD1FD0A4F28419497F9722A3DAAFE3B4186F6B6457E0 SWAP1 DUP1 LOG3 PUSH1 0x1 DUP1 SSTORE PUSH1 0xA DUP1 SLOAD PUSH2 0xFFFF NOT AND PUSH2 0xA04 OR SWAP1 SSTORE PUSH2 0x2912 DUP2 DUP2 ADD PUSH1 0x1 PUSH1 0x1 PUSH1 0x40 SHL SUB DUP2 GT DUP4 DUP3 LT OR PUSH2 0xCD JUMPI DUP3 SWAP2 PUSH2 0x291F DUP4 CODECOPY SUB SWAP1 PUSH1 0x0 CREATE DUP1 ISZERO PUSH2 0xC1 JUMPI PUSH1 0x7 DUP1 SLOAD PUSH1 0x1 PUSH1 0x1 PUSH1 0xA0 SHL SUB NOT AND PUSH1 0x1 PUSH1 0x1 PUSH1 0xA0 SHL SUB SWAP3 SWAP1 SWAP3 AND SWAP2 SWAP1 SWAP2 OR SWAP1 SSTORE PUSH1 0x40 MLOAD PUSH2 0x2820 SWAP1 DUP2 PUSH2 0xFF DUP3 CODECOPY RETURN JUMPDEST PUSH1 0x40 MLOAD RETURNDATASIZE PUSH1 0x0 DUP3 RETURNDATACOPY RETURNDATASIZE SWAP1 REVERT JUMPDEST PUSH4 0x4E487B71 PUSH1 0xE0 SHL PUSH1 0x0 MSTORE PUSH1 0x41 PUSH1 0x4 MSTORE PUSH1 0x24 PUSH1 0x0 REVERT JUMPDEST PUSH4 0x1E4FBDF7 PUSH1 0xE0 SHL PUSH1 0x0 MSTORE PUSH1 0x0 PUSH1 0x4 MSTORE PUSH1 0x24 PUSH1 0x0 REVERT JUMPDEST PUSH1 0x0 DUP1 REVERT INVALID PUSH1 0x80 DUP1 PUSH1 0x40 MSTORE PUSH1 0x4 CALLDATASIZE LT ISZERO PUSH2 0x11 JUMPI JUMPDEST STOP JUMPDEST PUSH1 0x0 SWAP1 DUP2 CALLDATALOAD PUSH1 0xE0 SHR SWAP1 DUP2 PUSH4 0x814AB82 EQ PUSH2 0x2065 JUMPI POP DUP1 PUSH4 0xA6005DA EQ PUSH2 0x2041 JUMPI DUP1 PUSH4 0x155DD5EE EQ PUSH2 0x1E7F JUMPI DUP1 PUSH4 0x1E59D584 EQ PUSH2 0x1C8F JUMPI DUP1 PUSH4 0x20C5718F EQ PUSH2 0x1A13 JUMPI DUP1 PUSH4 0x21040FC3 EQ PUSH2 0x18EB JUMPI DUP1 PUSH4 0x2C8FE526 EQ PUSH2 0x18A7 JUMPI DUP1 PUSH4 0x2E33B07F EQ PUSH2 0x39C JUMPI DUP1 PUSH4 0x3C213957 EQ PUSH2 0x1694 JUMPI DUP1 PUSH4 0x42F1181E EQ PUSH2 0x15A3 JUMPI DUP1 PUSH4 0x6805036D EQ PUSH2 0x140D JUMPI DUP1 PUSH4 0x6D8A1390 EQ PUSH2 0x1138 JUMPI DUP1 PUSH4 0x70712939 EQ PUSH2 0x104D JUMPI DUP1 PUSH4 0x715018A6 EQ PUSH2 0xFF3 JUMPI DUP1 PUSH4 0x861A68D6 EQ PUSH2 0xFD2 JUMPI DUP1 PUSH4 0x8DA5CB5B EQ PUSH2 0xFAB JUMPI DUP1 PUSH4 0x9804A586 EQ PUSH2 0xF5E JUMPI DUP1 PUSH4 0x9B159539 EQ PUSH2 0xA4E JUMPI DUP1 PUSH4 0x9C3D3A20 EQ PUSH2 0x8D5 JUMPI DUP1 PUSH4 0xAA1F0595 EQ PUSH2 0x893 JUMPI DUP1 PUSH4 0xB6202913 EQ PUSH2 0x6D0 JUMPI DUP1 PUSH4 0xB9181611 EQ PUSH2 0x68E JUMPI DUP1 PUSH4 0xBD487725 EQ PUSH2 0x665 JUMPI DUP1 PUSH4 0xC17F9E59 EQ PUSH2 0x3CF JUMPI DUP1 PUSH4 0xC416AD2A EQ PUSH2 0x39C JUMPI DUP1 PUSH4 0xD3050EBA EQ PUSH2 0x37E JUMPI DUP1 PUSH4 0xD41ECA64 EQ PUSH2 0x2D0 JUMPI DUP1 PUSH4 0xD8D6E8FF EQ PUSH2 0x21D JUMPI DUP1 PUSH4 0xF2FDE38B EQ PUSH2 0x1C6 JUMPI PUSH4 0xFB4CDEA7 SUB PUSH2 0xF JUMPI CALLVALUE PUSH2 0x1C3 JUMPI PUSH1 0x20 CALLDATASIZE PUSH1 0x3 NOT ADD SLT PUSH2 0x1C3 JUMPI PUSH1 0x4 CALLDATALOAD PUSH1 0x1 PUSH1 0x1 PUSH1 0xA0 SHL SUB DUP2 AND SWAP1 DUP2 SWAP1 SUB PUSH2 0x1C1 JUMPI DUP2 MSTORE PUSH1 0x8 PUSH1 0x20 SWAP1 DUP2 MSTORE PUSH1 0x40 SWAP2 DUP3 SWAP1 KECCAK256 DUP1 SLOAD PUSH1 0x1 SWAP1 SWAP2 ADD SLOAD DUP4 MLOAD PUSH1 0x1 PUSH1 0x1 PUSH1 0xA0 SHL SUB SWAP1 SWAP3 AND DUP3 MSTORE SWAP2 DUP2 ADD SWAP2 SWAP1 SWAP2 MSTORE SWAP1 DUP2 SWAP1 DUP2 ADD JUMPDEST SUB SWAP1 RETURN JUMPDEST POP JUMPDEST DUP1 REVERT JUMPDEST POP CALLVALUE PUSH2 0x1C3 JUMPI PUSH1 0x20 CALLDATASIZE PUSH1 0x3 NOT ADD SLT PUSH2 0x1C3 JUMPI PUSH1 0x4 CALLDATALOAD PUSH1 0x1 PUSH1 0x1 PUSH1 0xA0 SHL SUB DUP2 AND DUP1 DUP3 SUB PUSH2 0x219 JUMPI PUSH2 0x1F4 PUSH2 0x277A JUMP JUMPDEST ISZERO PUSH2 0x205 JUMPI PUSH2 0x202 SWAP1 PUSH2 0x27A3 JUMP JUMPDEST DUP1 RETURN JUMPDEST PUSH4 0x1E4FBDF7 PUSH1 0xE0 SHL DUP3 MSTORE PUSH1 0x4 DUP3 SWAP1 MSTORE PUSH1 0x24 DUP3 REVERT JUMPDEST DUP3 DUP1 REVERT JUMPDEST POP CALLVALUE PUSH2 0x1C3 JUMPI PUSH1 0x20 CALLDATASIZE PUSH1 0x3 NOT ADD SLT PUSH2 0x1C3 JUMPI PUSH1 0x4 CALLDATALOAD PUSH1 0x6 DUP2 LT ISZERO PUSH2 0x1C1 JUMPI CALLER DUP3 MSTORE PUSH1 0x5 PUSH1 0x20 MSTORE PUSH1 0xFF PUSH1 0x40 DUP4 KECCAK256 SLOAD AND ISZERO PUSH2 0x26C JUMPI CALLER DUP3 MSTORE PUSH1 0x4 PUSH1 0x20 MSTORE PUSH1 0x40 DUP3 KECCAK256 SWAP1 PUSH1 0xFF DUP1 NOT DUP4 SLOAD AND SWAP2 AND OR SWAP1 SSTORE DUP1 RETURN JUMPDEST PUSH1 0x40 MLOAD PUSH3 0x461BCD PUSH1 0xE5 SHL DUP2 MSTORE PUSH1 0x20 PUSH1 0x4 DUP3 ADD MSTORE PUSH1 0x36 PUSH1 0x24 DUP3 ADD MSTORE PUSH32 0x4D697373696F6E466163746F72793A2063616C6C6572206973206E6F74206120 PUSH1 0x44 DUP3 ADD MSTORE PUSH22 0x1D985B1A59081B5A5CDCDA5BDB8818DBDB9D1C9858DD PUSH1 0x52 SHL PUSH1 0x64 DUP3 ADD MSTORE PUSH1 0x84 SWAP1 REVERT JUMPDEST POP CALLVALUE PUSH2 0x1C3 JUMPI PUSH1 0x40 CALLDATASIZE PUSH1 0x3 NOT ADD SLT PUSH2 0x1C3 JUMPI PUSH1 0x4 CALLDATALOAD PUSH1 0xFF DUP2 AND DUP1 SWAP2 SUB PUSH2 0x1C1 JUMPI PUSH1 0x24 CALLDATALOAD PUSH1 0xFF DUP2 AND SWAP2 DUP3 DUP3 SUB PUSH2 0x37A JUMPI PUSH32 0x321994B8855AE38E4FD6162F7A0BD7CDE88BE83AA3ACC96E03C17B7F733B43E1 SWAP3 PUSH1 0x40 SWAP3 PUSH1 0x1 DUP1 PUSH1 0xA0 SHL SUB DUP7 SLOAD AND CALLER EQ DUP1 ISZERO PUSH2 0x365 JUMPI JUMPDEST PUSH2 0x340 SWAP1 PUSH2 0x21B9 JUMP JUMPDEST DUP3 PUSH2 0xFF00 PUSH1 0xA SLOAD SWAP3 PUSH1 0x8 SHL AND SWAP2 PUSH2 0xFFFF NOT AND OR OR PUSH1 0xA SSTORE DUP3 MLOAD SWAP2 DUP3 MSTORE PUSH1 0x20 DUP3 ADD MSTORE LOG1 DUP1 RETURN JUMPDEST POP CALLER DUP7 MSTORE PUSH1 0x2 PUSH1 0x20 MSTORE DUP4 DUP7 KECCAK256 SLOAD PUSH1 0xFF AND PUSH2 0x337 JUMP JUMPDEST DUP4 DUP1 REVERT JUMPDEST POP CALLVALUE PUSH2 0x1C3 JUMPI DUP1 PUSH1 0x3 NOT CALLDATASIZE ADD SLT PUSH2 0x1C3 JUMPI PUSH1 0x20 PUSH1 0x40 MLOAD PUSH3 0x15180 DUP2 MSTORE RETURN JUMPDEST POP CALLVALUE PUSH2 0x1C3 JUMPI PUSH1 0x20 CALLDATASIZE PUSH1 0x3 NOT ADD SLT PUSH2 0x1C3 JUMPI PUSH1 0x4 CALLDATALOAD SWAP1 PUSH1 0x7 DUP3 LT ISZERO PUSH2 0x1C3 JUMPI PUSH1 0x20 PUSH2 0x3C6 DUP4 PUSH2 0x21A0 JUMP JUMPDEST SLOAD PUSH1 0x40 MLOAD SWAP1 DUP2 MSTORE RETURN JUMPDEST POP CALLVALUE PUSH2 0x1C3 JUMPI PUSH1 0x20 CALLDATASIZE PUSH1 0x3 NOT ADD SLT PUSH2 0x1C3 JUMPI PUSH1 0x4 CALLDATALOAD PUSH1 0x1 PUSH1 0x1 PUSH1 0xA0 SHL SUB DUP2 AND SWAP1 DUP2 DUP2 SUB PUSH2 0x219 JUMPI CALLER DUP4 MSTORE PUSH1 0x4 PUSH1 0x20 MSTORE PUSH1 0xFF PUSH1 0x40 DUP5 KECCAK256 SLOAD AND PUSH1 0x6 DUP2 LT ISZERO PUSH2 0x651 JUMPI PUSH1 0x1 EQ DUP1 ISZERO PUSH2 0x62F JUMPI JUMPDEST ISZERO PUSH2 0x5F9 JUMPI PUSH2 0x427 SWAP1 PUSH2 0x25CF JUMP JUMPDEST SWAP1 ISZERO PUSH2 0x5D1 JUMPI POP PUSH3 0x278CFF NOT TIMESTAMP ADD SWAP1 TIMESTAMP DUP3 GT PUSH2 0x5BD JUMPI DUP1 DUP4 MSTORE PUSH1 0x9 PUSH1 0x20 MSTORE PUSH1 0x40 DUP4 KECCAK256 DUP1 SLOAD SWAP3 DUP5 JUMPDEST DUP5 DUP2 LT DUP1 PUSH2 0x5A4 JUMPI JUMPDEST ISZERO PUSH2 0x46A JUMPI PUSH2 0x465 SWAP1 PUSH2 0x2285 JUMP JUMPDEST PUSH2 0x44E JUMP JUMPDEST DUP4 DUP4 DUP8 SWAP3 DUP1 PUSH2 0x4F0 JUMPI JUMPDEST POP DUP1 SLOAD SWAP1 PUSH1 0x1 PUSH1 0x40 SHL DUP3 LT ISZERO PUSH2 0x4DC JUMPI DUP2 PUSH2 0x497 SWAP2 PUSH1 0x1 PUSH2 0x4AF SWAP5 ADD DUP2 SSTORE PUSH2 0x2147 JUMP JUMPDEST TIMESTAMP SWAP1 DUP3 SLOAD SWAP1 PUSH1 0x3 SHL SWAP2 DUP3 SHL SWAP2 PUSH1 0x0 NOT SWAP1 SHL NOT AND OR SWAP1 SSTORE JUMP JUMPDEST PUSH32 0x498F5E6DCF570483A1848853791046A7F10012193176D71F959F46EB7713D744 PUSH1 0x20 PUSH1 0x40 MLOAD TIMESTAMP DUP2 MSTORE LOG2 DUP1 RETURN JUMPDEST PUSH4 0x4E487B71 PUSH1 0xE0 SHL DUP5 MSTORE PUSH1 0x41 PUSH1 0x4 MSTORE PUSH1 0x24 DUP5 REVERT JUMPDEST SWAP3 DUP1 JUMPDEST PUSH2 0x4FE DUP6 DUP5 SLOAD PUSH2 0x25C2 JUMP JUMPDEST DUP2 LT ISZERO PUSH2 0x54E JUMPI DUP1 PUSH2 0x548 PUSH2 0x51E PUSH2 0x518 DUP9 PUSH1 0x1 SWAP6 PUSH2 0x2577 JUMP JUMPDEST DUP7 PUSH2 0x2147 JUMP JUMPDEST SWAP1 SLOAD SWAP1 PUSH1 0x3 SHL SHR PUSH2 0x52F DUP4 DUP8 PUSH2 0x2147 JUMP JUMPDEST SWAP1 SWAP2 SWAP1 DUP3 SLOAD SWAP1 PUSH1 0x3 SHL SWAP2 DUP3 SHL SWAP2 PUSH1 0x0 NOT SWAP1 SHL NOT AND OR SWAP1 SSTORE JUMP JUMPDEST ADD PUSH2 0x4F3 JUMP JUMPDEST POP SWAP3 DUP4 JUMPDEST DUP2 DUP2 LT PUSH2 0x55F JUMPI POP PUSH2 0x474 JUMP JUMPDEST DUP3 SLOAD DUP1 ISZERO PUSH2 0x590 JUMPI PUSH1 0x1 SWAP2 SWAP1 PUSH1 0x0 NOT ADD PUSH2 0x579 DUP2 DUP7 PUSH2 0x2147 JUMP JUMPDEST DUP2 SLOAD SWAP1 PUSH1 0x0 NOT SWAP1 PUSH1 0x3 SHL SHL NOT AND SWAP1 SSTORE DUP5 SSTORE ADD PUSH2 0x552 JUMP JUMPDEST PUSH4 0x4E487B71 PUSH1 0xE0 SHL DUP7 MSTORE PUSH1 0x31 PUSH1 0x4 MSTORE PUSH1 0x24 DUP7 REVERT JUMPDEST POP DUP2 PUSH2 0x5B0 DUP3 DUP6 PUSH2 0x2147 JUMP JUMPDEST SWAP1 SLOAD SWAP1 PUSH1 0x3 SHL SHR LT PUSH2 0x457 JUMP JUMPDEST PUSH4 0x4E487B71 PUSH1 0xE0 SHL DUP4 MSTORE PUSH1 0x11 PUSH1 0x4 MSTORE PUSH1 0x24 DUP4 REVERT JUMPDEST PUSH1 0x40 MLOAD PUSH3 0x461BCD PUSH1 0xE5 SHL DUP2 MSTORE PUSH1 0x20 PUSH1 0x4 DUP3 ADD MSTORE SWAP1 DUP2 SWAP1 PUSH2 0x5F5 SWAP1 PUSH1 0x24 DUP4 ADD SWAP1 PUSH2 0x215F JUMP JUMPDEST SUB SWAP1 REVERT JUMPDEST PUSH1 0x40 MLOAD PUSH3 0x461BCD PUSH1 0xE5 SHL DUP2 MSTORE PUSH1 0x20 PUSH1 0x4 DUP3 ADD MSTORE PUSH1 0xE PUSH1 0x24 DUP3 ADD MSTORE PUSH14 0x24B73B30B634B21031B0B63632B9 PUSH1 0x91 SHL PUSH1 0x44 DUP3 ADD MSTORE PUSH1 0x64 SWAP1 REVERT JUMPDEST POP CALLER DUP4 MSTORE PUSH1 0x4 PUSH1 0x20 MSTORE PUSH1 0xFF PUSH1 0x40 DUP5 KECCAK256 SLOAD AND PUSH1 0x6 DUP2 LT ISZERO PUSH2 0x651 JUMPI PUSH1 0x2 EQ PUSH2 0x419 JUMP JUMPDEST PUSH4 0x4E487B71 PUSH1 0xE0 SHL DUP5 MSTORE PUSH1 0x21 PUSH1 0x4 MSTORE PUSH1 0x24 DUP5 REVERT JUMPDEST POP CALLVALUE PUSH2 0x1C3 JUMPI DUP1 PUSH1 0x3 NOT CALLDATASIZE ADD SLT PUSH2 0x1C3 JUMPI PUSH1 0x7 SLOAD PUSH1 0x40 MLOAD PUSH1 0x1 PUSH1 0x1 PUSH1 0xA0 SHL SUB SWAP1 SWAP2 AND DUP2 MSTORE PUSH1 0x20 SWAP1 RETURN JUMPDEST POP CALLVALUE PUSH2 0x1C3 JUMPI PUSH1 0x20 CALLDATASIZE PUSH1 0x3 NOT ADD SLT PUSH2 0x1C3 JUMPI PUSH1 0x4 CALLDATALOAD PUSH1 0x1 PUSH1 0x1 PUSH1 0xA0 SHL SUB DUP2 AND SWAP1 DUP2 SWAP1 SUB PUSH2 0x1C1 JUMPI PUSH1 0x40 DUP3 PUSH1 0xFF SWAP3 PUSH1 0x20 SWAP5 MSTORE PUSH1 0x2 DUP5 MSTORE KECCAK256 SLOAD AND PUSH1 0x40 MLOAD SWAP1 ISZERO ISZERO DUP2 MSTORE RETURN JUMPDEST POP CALLVALUE PUSH2 0x1C3 JUMPI DUP1 PUSH1 0x3 NOT CALLDATASIZE ADD SLT PUSH2 0x1C3 JUMPI PUSH1 0x6 SLOAD DUP2 DUP3 JUMPDEST DUP3 DUP2 LT PUSH2 0x7E5 JUMPI POP PUSH2 0x6F8 SWAP1 PUSH2 0x22C2 JUMP JUMPDEST SWAP1 DUP3 DUP4 JUMPDEST DUP3 DUP2 LT PUSH2 0x719 JUMPI PUSH1 0x40 MLOAD PUSH1 0x20 DUP1 DUP3 MSTORE DUP2 SWAP1 PUSH2 0x1BD SWAP1 DUP3 ADD DUP8 PUSH2 0x20CC JUMP JUMPDEST PUSH2 0x722 DUP2 PUSH2 0x2116 JUMP JUMPDEST SWAP1 SLOAD PUSH1 0x3 SWAP2 SWAP1 SWAP2 SHL SHR PUSH1 0x1 PUSH1 0x1 PUSH1 0xA0 SHL SUB AND DUP6 MSTORE PUSH1 0x4 PUSH1 0x20 MSTORE PUSH1 0x40 DUP6 KECCAK256 SLOAD PUSH1 0xFF AND PUSH1 0x6 DUP2 LT ISZERO PUSH2 0x7D1 JUMPI PUSH1 0x4 EQ DUP1 ISZERO PUSH2 0x795 JUMPI JUMPDEST SWAP1 PUSH1 0x1 SWAP2 PUSH2 0x765 JUMPI JUMPDEST ADD PUSH2 0x6FC JUMP JUMPDEST PUSH2 0x76E DUP2 PUSH2 0x2116 JUMP JUMPDEST DUP4 DUP1 PUSH1 0xA0 SHL SUB SWAP2 SLOAD SWAP1 PUSH1 0x3 SHL SHR AND PUSH2 0x78F PUSH2 0x788 DUP6 PUSH2 0x2285 JUMP JUMPDEST SWAP5 DUP8 PUSH2 0x22F4 JUMP JUMPDEST MSTORE PUSH2 0x75F JUMP JUMPDEST POP PUSH2 0x79F DUP2 PUSH2 0x2116 JUMP JUMPDEST SWAP1 SLOAD PUSH1 0x3 SWAP2 SWAP1 SWAP2 SHL SHR PUSH1 0x1 PUSH1 0x1 PUSH1 0xA0 SHL SUB AND DUP6 MSTORE PUSH1 0x4 PUSH1 0x20 MSTORE PUSH1 0x40 DUP6 KECCAK256 SLOAD PUSH1 0xFF AND PUSH1 0x6 DUP2 LT ISZERO PUSH2 0x7D1 JUMPI PUSH1 0x5 EQ PUSH2 0x756 JUMP JUMPDEST PUSH4 0x4E487B71 PUSH1 0xE0 SHL DUP7 MSTORE PUSH1 0x21 PUSH1 0x4 MSTORE PUSH1 0x24 DUP7 REVERT JUMPDEST PUSH2 0x7EE DUP2 PUSH2 0x2116 JUMP JUMPDEST SWAP1 SLOAD PUSH1 0x3 SWAP2 SWAP1 SWAP2 SHL SHR PUSH1 0x1 PUSH1 0x1 PUSH1 0xA0 SHL SUB AND DUP5 MSTORE PUSH1 0x4 PUSH1 0x20 MSTORE PUSH1 0x40 DUP5 KECCAK256 SLOAD PUSH1 0xFF AND PUSH1 0x6 DUP2 LT ISZERO PUSH2 0x87F JUMPI PUSH1 0x4 EQ DUP1 ISZERO PUSH2 0x843 JUMPI JUMPDEST PUSH2 0x82F JUMPI JUMPDEST PUSH1 0x1 ADD PUSH2 0x6E7 JUMP JUMPDEST SWAP1 PUSH2 0x83B PUSH1 0x1 SWAP2 PUSH2 0x2285 JUMP JUMPDEST SWAP2 SWAP1 POP PUSH2 0x827 JUMP JUMPDEST POP PUSH2 0x84D DUP2 PUSH2 0x2116 JUMP JUMPDEST SWAP1 SLOAD PUSH1 0x3 SWAP2 SWAP1 SWAP2 SHL SHR PUSH1 0x1 PUSH1 0x1 PUSH1 0xA0 SHL SUB AND DUP5 MSTORE PUSH1 0x4 PUSH1 0x20 MSTORE PUSH1 0x40 DUP5 KECCAK256 SLOAD PUSH1 0xFF AND PUSH1 0x6 DUP2 LT ISZERO PUSH2 0x87F JUMPI PUSH1 0x5 EQ PUSH2 0x822 JUMP JUMPDEST PUSH4 0x4E487B71 PUSH1 0xE0 SHL DUP6 MSTORE PUSH1 0x21 PUSH1 0x4 MSTORE PUSH1 0x24 DUP6 REVERT JUMPDEST POP CALLVALUE PUSH2 0x1C3 JUMPI PUSH1 0x20 CALLDATASIZE PUSH1 0x3 NOT ADD SLT PUSH2 0x1C3 JUMPI PUSH1 0x4 CALLDATALOAD PUSH1 0x1 PUSH1 0x1 PUSH1 0xA0 SHL SUB DUP2 AND SWAP1 DUP2 SWAP1 SUB PUSH2 0x1C1 JUMPI PUSH1 0x40 DUP3 PUSH1 0xFF SWAP3 PUSH1 0x20 SWAP5 MSTORE PUSH1 0x5 DUP5 MSTORE KECCAK256 SLOAD AND PUSH1 0x40 MLOAD SWAP1 ISZERO ISZERO DUP2 MSTORE RETURN JUMPDEST POP CALLVALUE PUSH2 0x1C3 JUMPI PUSH1 0x40 CALLDATASIZE PUSH1 0x3 NOT ADD SLT PUSH2 0x1C3 JUMPI PUSH1 0x4 CALLDATALOAD PUSH1 0x24 CALLDATALOAD PUSH1 0x7 DUP2 LT ISZERO PUSH2 0x219 JUMPI DUP2 ISZERO PUSH2 0xA0A JUMPI CALLER DUP4 MSTORE PUSH1 0x4 PUSH1 0x20 MSTORE PUSH1 0xFF PUSH1 0x40 DUP5 KECCAK256 SLOAD AND PUSH1 0x6 DUP2 LT ISZERO PUSH2 0x651 JUMPI PUSH1 0x4 EQ DUP1 ISZERO PUSH2 0x9E8 JUMPI JUMPDEST DUP4 SLOAD PUSH1 0x1 PUSH1 0x1 PUSH1 0xA0 SHL SUB AND CALLER EQ DUP1 ISZERO PUSH2 0x9D2 JUMPI JUMPDEST DUP2 ISZERO PUSH2 0x9CA JUMPI JUMPDEST POP ISZERO PUSH2 0x985 JUMPI PUSH2 0x949 DUP2 PUSH2 0x21A0 JUMP JUMPDEST PUSH2 0x954 DUP4 DUP3 SLOAD PUSH2 0x2577 JUMP JUMPDEST SWAP1 SSTORE PUSH1 0x40 MLOAD SWAP2 DUP3 MSTORE PUSH32 0x606617FD09D9890413E3C46147B844D4562351F86E0F7A5C60849BBF0EF02811 PUSH1 0x20 CALLER SWAP4 LOG3 DUP1 RETURN JUMPDEST PUSH1 0x40 MLOAD PUSH3 0x461BCD PUSH1 0xE5 SHL DUP2 MSTORE PUSH1 0x20 PUSH1 0x4 DUP3 ADD MSTORE PUSH1 0x1D PUSH1 0x24 DUP3 ADD MSTORE PUSH32 0x43616C6C6572206E6F742061206D697373696F6E206F722061646D696E000000 PUSH1 0x44 DUP3 ADD MSTORE PUSH1 0x64 SWAP1 REVERT JUMPDEST SWAP1 POP CODESIZE PUSH2 0x93A JUMP JUMPDEST POP CALLER DUP5 MSTORE PUSH1 0x2 PUSH1 0x20 MSTORE PUSH1 0xFF PUSH1 0x40 DUP6 KECCAK256 SLOAD AND PUSH2 0x933 JUMP JUMPDEST POP CALLER DUP4 MSTORE PUSH1 0x4 PUSH1 0x20 MSTORE PUSH1 0xFF PUSH1 0x40 DUP5 KECCAK256 SLOAD AND PUSH1 0x6 DUP2 LT ISZERO PUSH2 0x651 JUMPI PUSH1 0x5 EQ PUSH2 0x91F JUMP JUMPDEST PUSH1 0x64 PUSH1 0x40 MLOAD PUSH3 0x461BCD PUSH1 0xE5 SHL DUP2 MSTORE PUSH1 0x20 PUSH1 0x4 DUP3 ADD MSTORE PUSH1 0x20 PUSH1 0x24 DUP3 ADD MSTORE PUSH32 0x416D6F756E74206D7573742062652067726561746572207468616E207A65726F PUSH1 0x44 DUP3 ADD MSTORE REVERT JUMPDEST POP PUSH2 0x120 CALLDATASIZE PUSH1 0x3 NOT ADD SLT PUSH2 0x1C3 JUMPI PUSH1 0x4 CALLDATALOAD PUSH1 0x7 DUP2 LT ISZERO PUSH2 0x1C1 JUMPI PUSH1 0x24 CALLDATALOAD SWAP1 PUSH1 0x44 CALLDATALOAD SWAP2 PUSH1 0x64 CALLDATALOAD PUSH1 0x84 CALLDATALOAD PUSH1 0xFF DUP2 AND DUP1 SWAP2 SUB PUSH2 0xF5A JUMPI PUSH1 0xA4 CALLDATALOAD PUSH1 0xFF DUP2 AND DUP1 SWAP2 SUB PUSH2 0xF56 JUMPI PUSH1 0xC4 CALLDATALOAD SWAP1 PUSH1 0xE4 CALLDATALOAD SWAP3 PUSH2 0x104 CALLDATALOAD SWAP5 PUSH1 0xFF DUP7 AND DUP1 SWAP7 SUB PUSH2 0xF52 JUMPI DUP10 SLOAD PUSH1 0x1 PUSH1 0x1 PUSH1 0xA0 SHL SUB AND CALLER EQ DUP1 ISZERO PUSH2 0xF3C JUMPI JUMPDEST PUSH2 0xAC4 SWAP1 PUSH2 0x21B9 JUMP JUMPDEST PUSH1 0x5 DUP7 LT PUSH2 0xEDD JUMPI DUP6 DUP3 LT PUSH2 0xE72 JUMPI DUP9 DUP8 LT ISZERO PUSH2 0xE21 JUMPI DUP9 DUP5 LT PUSH2 0xDC3 JUMPI DUP4 DUP6 GT ISZERO PUSH2 0xD7F JUMPI DUP1 ISZERO PUSH2 0xD26 JUMPI PUSH1 0x7 SLOAD PUSH1 0x88 DUP2 SWAP1 SHR PUSH3 0xFFFFFF AND PUSH23 0x3D602D80600A3D3981F3363D3D373D3D3D363D73000000 OR DUP12 MSTORE PUSH1 0x78 SHL PUSH15 0xFFFFFFFFFFFFFFFFFFFFFFFFFFFFFF NOT AND PUSH15 0x5AF43D82803E903D91602B57FD5BF3 OR PUSH1 0x20 MSTORE PUSH1 0x1 PUSH1 0x1 PUSH1 0xA0 SHL SUB PUSH1 0x37 PUSH1 0x9 DUP13 CREATE AND SWAP9 DUP10 ISZERO PUSH2 0xD17 JUMPI DUP10 DUP12 MSTORE PUSH1 0x5 PUSH1 0x20 MSTORE PUSH1 0x40 DUP12 KECCAK256 PUSH1 0x1 PUSH1 0xFF NOT DUP3 SLOAD AND OR SWAP1 SSTORE DUP10 DUP12 MSTORE PUSH1 0x4 PUSH1 0x20 MSTORE PUSH1 0x40 DUP12 KECCAK256 PUSH1 0xFF NOT DUP2 SLOAD AND SWAP1 SSTORE PUSH1 0x1 DUP1 PUSH1 0xA0 SHL SUB DUP12 SLOAD AND SWAP8 DUP11 EXTCODESIZE ISZERO PUSH2 0xD13 JUMPI PUSH1 0x40 MLOAD SWAP9 PUSH4 0xC54168B3 PUSH1 0xE0 SHL DUP11 MSTORE PUSH1 0x4 DUP11 ADD MSTORE ADDRESS PUSH1 0x24 DUP11 ADD MSTORE PUSH2 0xBBA PUSH1 0x44 DUP11 ADD DUP12 PUSH2 0x2109 JUMP JUMPDEST PUSH1 0x64 DUP10 ADD MSTORE PUSH1 0x84 DUP9 ADD MSTORE PUSH1 0xA4 DUP8 ADD MSTORE PUSH1 0xC4 DUP7 ADD MSTORE PUSH1 0xE4 DUP6 ADD MSTORE PUSH2 0x104 DUP5 ADD MSTORE PUSH2 0x124 DUP4 ADD MSTORE PUSH2 0x144 DUP3 ADD MSTORE DUP4 DUP2 PUSH2 0x164 DUP2 CALLVALUE DUP8 GAS CALL DUP1 ISZERO PUSH2 0xD08 JUMPI PUSH2 0xCF4 JUMPI JUMPDEST POP PUSH1 0x6 SLOAD PUSH1 0x1 PUSH1 0x40 SHL DUP2 LT ISZERO PUSH2 0x4DC JUMPI DUP1 PUSH1 0x1 PUSH2 0xC1A SWAP3 ADD PUSH1 0x6 SSTORE PUSH2 0x2116 JUMP JUMPDEST DUP2 SLOAD PUSH1 0x1 PUSH1 0x1 PUSH1 0xA0 SHL SUB PUSH1 0x3 SWAP3 SWAP1 SWAP3 SHL SWAP2 DUP3 SHL NOT AND SWAP1 DUP5 SWAP1 SHL OR SWAP1 SSTORE DUP1 DUP3 PUSH32 0xAC1AC89285BF936F515AAFCF6808B3E062E77FD57F52C8892D20FC9409B8B53 DUP6 DUP1 LOG3 PUSH2 0xC65 DUP2 PUSH2 0x21A0 JUMP JUMPDEST SLOAD PUSH1 0x2 SHR SWAP1 DUP2 ISZERO ISZERO DUP1 PUSH2 0xCEA JUMPI JUMPDEST PUSH2 0xC83 JUMPI JUMPDEST PUSH1 0x20 DUP4 PUSH1 0x40 MLOAD SWAP1 DUP2 MSTORE RETURN JUMPDEST PUSH2 0xC8C SWAP1 PUSH2 0x21A0 JUMP JUMPDEST PUSH2 0xC97 DUP3 DUP3 SLOAD PUSH2 0x25C2 JUMP JUMPDEST SWAP1 SSTORE DUP3 DUP3 EXTCODESIZE ISZERO PUSH2 0x1C3 JUMPI PUSH1 0x40 MLOAD PUSH4 0xEB2BAB77 PUSH1 0xE0 SHL DUP2 MSTORE SWAP2 DUP3 SWAP1 PUSH1 0x4 SWAP1 DUP3 SWAP1 DUP7 GAS CALL DUP1 ISZERO PUSH2 0xCDF JUMPI PUSH2 0xCCA JUMPI JUMPDEST DUP1 PUSH2 0xC78 JUMP JUMPDEST PUSH2 0xCD5 DUP4 DUP1 SWAP3 PUSH2 0x2263 JUMP JUMPDEST PUSH2 0x1C1 JUMPI DUP2 PUSH2 0xCC4 JUMP JUMPDEST PUSH1 0x40 MLOAD RETURNDATASIZE DUP6 DUP3 RETURNDATACOPY RETURNDATASIZE SWAP1 REVERT JUMPDEST POP DUP2 SELFBALANCE LT ISZERO PUSH2 0xC73 JUMP JUMPDEST DUP4 PUSH2 0xD01 SWAP2 SWAP5 SWAP3 SWAP5 PUSH2 0x2263 JUMP JUMPDEST SWAP2 CODESIZE PUSH2 0xBFA JUMP JUMPDEST PUSH1 0x40 MLOAD RETURNDATASIZE DUP7 DUP3 RETURNDATACOPY RETURNDATASIZE SWAP1 REVERT JUMPDEST DUP12 DUP1 REVERT JUMPDEST PUSH4 0xB06EBF3D PUSH1 0xE0 SHL DUP12 MSTORE PUSH1 0x4 DUP12 REVERT JUMPDEST PUSH1 0x40 MLOAD PUSH3 0x461BCD PUSH1 0xE5 SHL DUP2 MSTORE PUSH1 0x20 PUSH1 0x4 DUP3 ADD MSTORE PUSH1 0x2B PUSH1 0x24 DUP3 ADD MSTORE PUSH32 0x456E726F6C6C6D656E7420616D6F756E74206D75737420626520677265617465 PUSH1 0x44 DUP3 ADD MSTORE PUSH11 0x72207468616E207A65726F PUSH1 0xA8 SHL PUSH1 0x64 DUP3 ADD MSTORE PUSH1 0x84 SWAP1 REVERT JUMPDEST PUSH1 0x64 PUSH1 0x40 MLOAD PUSH3 0x461BCD PUSH1 0xE5 SHL DUP2 MSTORE PUSH1 0x20 PUSH1 0x4 DUP3 ADD MSTORE PUSH1 0x20 PUSH1 0x24 DUP3 ADD MSTORE PUSH32 0x4D697373696F6E207374617274206D757374206265206265666F726520656E64 PUSH1 0x44 DUP3 ADD MSTORE REVERT JUMPDEST PUSH1 0x40 MLOAD PUSH3 0x461BCD PUSH1 0xE5 SHL DUP2 MSTORE PUSH1 0x20 PUSH1 0x4 DUP3 ADD MSTORE PUSH1 0x30 PUSH1 0x24 DUP3 ADD MSTORE PUSH32 0x4D697373696F6E207374617274206D757374206265206F6E206F722061667465 PUSH1 0x44 DUP3 ADD MSTORE PUSH16 0x1C88195B9C9BDB1B1B595B9D08195B99 PUSH1 0x82 SHL PUSH1 0x64 DUP3 ADD MSTORE PUSH1 0x84 SWAP1 REVERT JUMPDEST PUSH1 0x40 MLOAD PUSH3 0x461BCD PUSH1 0xE5 SHL DUP2 MSTORE PUSH1 0x20 PUSH1 0x4 DUP3 ADD MSTORE PUSH1 0x23 PUSH1 0x24 DUP3 ADD MSTORE PUSH32 0x456E726F6C6C6D656E74207374617274206D757374206265206265666F726520 PUSH1 0x44 DUP3 ADD MSTORE PUSH3 0x195B99 PUSH1 0xEA SHL PUSH1 0x64 DUP3 ADD MSTORE PUSH1 0x84 SWAP1 REVERT JUMPDEST PUSH1 0x40 MLOAD PUSH3 0x461BCD PUSH1 0xE5 SHL DUP2 MSTORE PUSH1 0x20 PUSH1 0x4 DUP3 ADD MSTORE PUSH1 0x3F PUSH1 0x24 DUP3 ADD MSTORE PUSH32 0x4D696E696D756D20706C6179657273206D757374206265206772656174657220 PUSH1 0x44 DUP3 ADD MSTORE PUSH32 0x7468616E206F7220657175616C20746F206D697373696F6E20726F756E647300 PUSH1 0x64 DUP3 ADD MSTORE PUSH1 0x84 SWAP1 REVERT JUMPDEST PUSH1 0x40 MLOAD PUSH3 0x461BCD PUSH1 0xE5 SHL DUP2 MSTORE PUSH1 0x20 PUSH1 0x4 DUP3 ADD MSTORE PUSH1 0x31 PUSH1 0x24 DUP3 ADD MSTORE PUSH32 0x4D697373696F6E20726F756E6473206D75737420626520677265617465722074 PUSH1 0x44 DUP3 ADD MSTORE PUSH17 0x68616E206F7220657175616C20746F2035 PUSH1 0x78 SHL PUSH1 0x64 DUP3 ADD MSTORE PUSH1 0x84 SWAP1 REVERT JUMPDEST POP CALLER DUP11 MSTORE PUSH1 0x2 PUSH1 0x20 MSTORE PUSH1 0x40 DUP11 KECCAK256 SLOAD PUSH1 0xFF AND PUSH2 0xABB JUMP JUMPDEST DUP10 DUP1 REVERT JUMPDEST DUP7 DUP1 REVERT JUMPDEST DUP6 DUP1 REVERT JUMPDEST POP CALLVALUE PUSH2 0x1C3 JUMPI PUSH1 0x20 CALLDATASIZE PUSH1 0x3 NOT ADD SLT PUSH2 0x1C3 JUMPI PUSH1 0x4 CALLDATALOAD PUSH1 0x1 PUSH1 0x1 PUSH1 0xA0 SHL SUB DUP2 AND DUP2 SUB PUSH2 0x1C1 JUMPI PUSH2 0xF8C SWAP1 PUSH2 0x25CF JUMP JUMPDEST SWAP1 PUSH2 0x1BD PUSH1 0x40 MLOAD SWAP3 DUP4 SWAP3 ISZERO ISZERO DUP4 MSTORE PUSH1 0x40 PUSH1 0x20 DUP5 ADD MSTORE PUSH1 0x40 DUP4 ADD SWAP1 PUSH2 0x215F JUMP JUMPDEST POP CALLVALUE PUSH2 0x1C3 JUMPI DUP1 PUSH1 0x3 NOT CALLDATASIZE ADD SLT PUSH2 0x1C3 JUMPI SLOAD PUSH1 0x40 MLOAD PUSH1 0x1 PUSH1 0x1 PUSH1 0xA0 SHL SUB SWAP1 SWAP2 AND DUP2 MSTORE PUSH1 0x20 SWAP1 RETURN JUMPDEST POP CALLVALUE PUSH2 0x1C3 JUMPI DUP1 PUSH1 0x3 NOT CALLDATASIZE ADD SLT PUSH2 0x1C3 JUMPI PUSH1 0x20 PUSH1 0xFF PUSH1 0xA SLOAD AND PUSH1 0x40 MLOAD SWAP1 DUP2 MSTORE RETURN JUMPDEST POP CALLVALUE PUSH2 0x1C3 JUMPI DUP1 PUSH1 0x3 NOT CALLDATASIZE ADD SLT PUSH2 0x1C3 JUMPI PUSH2 0x100C PUSH2 0x277A JUMP JUMPDEST DUP1 SLOAD PUSH1 0x1 PUSH1 0x1 PUSH1 0xA0 SHL SUB NOT DUP2 AND DUP3 SSTORE DUP2 SWAP1 PUSH1 0x1 PUSH1 0x1 PUSH1 0xA0 SHL SUB AND PUSH32 0x8BE0079C531659141344CD1FD0A4F28419497F9722A3DAAFE3B4186F6B6457E0 DUP3 DUP1 LOG3 DUP1 RETURN JUMPDEST POP CALLVALUE PUSH2 0x1C3 JUMPI PUSH1 0x20 CALLDATASIZE PUSH1 0x3 NOT ADD SLT PUSH2 0x1C3 JUMPI PUSH1 0x4 CALLDATALOAD PUSH1 0x1 PUSH1 0x1 PUSH1 0xA0 SHL SUB DUP2 AND SWAP1 DUP2 SWAP1 SUB PUSH2 0x1C1 JUMPI DUP2 SLOAD PUSH1 0x1 PUSH1 0x1 PUSH1 0xA0 SHL SUB AND CALLER EQ DUP1 ISZERO PUSH2 0x1122 JUMPI JUMPDEST PUSH2 0x1091 SWAP1 PUSH2 0x21B9 JUMP JUMPDEST PUSH2 0x109C DUP2 ISZERO ISZERO PUSH2 0x2584 JUMP JUMPDEST DUP1 DUP3 MSTORE PUSH1 0x2 PUSH1 0x20 MSTORE PUSH1 0xFF PUSH1 0x40 DUP4 KECCAK256 SLOAD AND ISZERO PUSH2 0x10EC JUMPI DUP1 DUP3 MSTORE PUSH1 0x2 PUSH1 0x20 MSTORE PUSH1 0x40 DUP3 KECCAK256 DUP1 SLOAD PUSH1 0xFF NOT AND SWAP1 SSTORE PUSH32 0x66D5F06F711AF3C9FEBA3203FDB00B51345D514C68585D9D319C5FF5E6F77592 DUP3 DUP1 LOG2 DUP1 RETURN JUMPDEST PUSH1 0x40 MLOAD PUSH3 0x461BCD PUSH1 0xE5 SHL DUP2 MSTORE PUSH1 0x20 PUSH1 0x4 DUP3 ADD MSTORE PUSH1 0xE PUSH1 0x24 DUP3 ADD MSTORE PUSH14 0x139BDD08185D5D1A1BDC9A5E9959 PUSH1 0x92 SHL PUSH1 0x44 DUP3 ADD MSTORE PUSH1 0x64 SWAP1 REVERT JUMPDEST POP CALLER DUP3 MSTORE PUSH1 0x2 PUSH1 0x20 MSTORE PUSH1 0x40 DUP3 KECCAK256 SLOAD PUSH1 0xFF AND PUSH2 0x1088 JUMP JUMPDEST POP CALLVALUE PUSH2 0x1C3 JUMPI DUP1 PUSH1 0x3 NOT CALLDATASIZE ADD SLT PUSH2 0x1C3 JUMPI PUSH1 0x6 SLOAD PUSH3 0x278CFF NOT TIMESTAMP ADD SWAP2 TIMESTAMP DUP4 GT PUSH2 0x13F9 JUMPI SWAP2 SWAP1 DUP3 DUP1 JUMPDEST DUP3 DUP2 LT PUSH2 0x132B JUMPI POP PUSH2 0x1171 DUP5 PUSH2 0x22C2 JUMP JUMPDEST SWAP3 PUSH2 0x1194 PUSH2 0x117E DUP7 PUSH2 0x22AA JUMP JUMPDEST SWAP6 PUSH2 0x118C PUSH1 0x40 MLOAD SWAP8 DUP9 PUSH2 0x2263 JUMP JUMPDEST DUP1 DUP8 MSTORE PUSH2 0x22AA JUMP JUMPDEST PUSH1 0x20 DUP7 ADD SWAP4 SWAP1 PUSH1 0x1F NOT ADD CALLDATASIZE DUP6 CALLDATACOPY DUP3 SWAP2 DUP3 JUMPDEST DUP3 DUP5 LT PUSH2 0x120C JUMPI POP POP POP POP PUSH2 0x11CA SWAP4 PUSH1 0x20 PUSH1 0x40 MLOAD SWAP6 DUP7 SWAP6 PUSH1 0x40 DUP8 MSTORE PUSH1 0x40 DUP8 ADD SWAP1 PUSH2 0x20CC JUMP JUMPDEST SWAP2 DUP6 DUP4 SUB DUP3 DUP8 ADD MSTORE MLOAD SWAP2 DUP3 DUP2 MSTORE ADD SWAP3 SWAP2 JUMPDEST DUP2 DUP2 LT PUSH2 0x11E9 JUMPI POP POP POP SUB SWAP1 RETURN JUMPDEST SWAP2 SWAP4 POP SWAP2 PUSH1 0x20 DUP1 DUP3 PUSH2 0x11FE PUSH1 0x1 SWAP5 DUP9 MLOAD PUSH2 0x20A9 JUMP JUMPDEST ADD SWAP5 ADD SWAP2 ADD SWAP2 DUP5 SWAP4 SWAP3 PUSH2 0x11DB JUMP JUMPDEST PUSH2 0x1219 DUP5 SWAP9 SWAP7 SWAP8 SWAP9 PUSH2 0x2116 JUMP JUMPDEST SWAP1 SLOAD PUSH1 0x3 SWAP2 SWAP1 SWAP2 SHL SHR PUSH1 0x1 PUSH1 0x1 PUSH1 0xA0 SHL SUB AND DUP1 DUP7 MSTORE PUSH1 0x4 PUSH1 0x20 MSTORE PUSH1 0x40 DUP7 KECCAK256 SLOAD PUSH1 0xFF AND SWAP1 PUSH1 0x6 DUP3 LT ISZERO SWAP1 DUP2 PUSH2 0x1317 JUMPI PUSH1 0x4 DUP4 EQ DUP1 ISZERO PUSH2 0x130A JUMPI JUMPDEST PUSH2 0x129F JUMPI JUMPDEST PUSH2 0x1261 DUP5 DUP13 PUSH2 0x22F4 JUMP JUMPDEST MSTORE PUSH2 0x126C DUP4 DUP10 PUSH2 0x22F4 JUMP JUMPDEST SWAP1 PUSH2 0x128B JUMPI MSTORE PUSH1 0x1 SWAP1 PUSH2 0x127E SWAP1 PUSH2 0x2285 JUMP JUMPDEST SWAP4 JUMPDEST ADD SWAP3 SWAP7 SWAP6 SWAP5 SWAP7 PUSH2 0x11A5 JUMP JUMPDEST PUSH4 0x4E487B71 PUSH1 0xE0 SHL DUP8 MSTORE PUSH1 0x21 PUSH1 0x4 MSTORE PUSH1 0x24 DUP8 REVERT JUMPDEST PUSH1 0x40 MLOAD PUSH4 0x1F385F79 PUSH1 0xE2 SHL DUP2 MSTORE DUP9 DUP2 PUSH1 0x4 DUP2 DUP6 GAS STATICCALL SWAP1 DUP2 ISZERO PUSH2 0x12FF JUMPI DUP7 SWAP2 PUSH2 0x120 SWAP2 DUP12 SWAP2 PUSH2 0x12DD JUMPI JUMPDEST POP ADD MLOAD LT ISZERO PUSH2 0x1257 JUMPI POP POP POP SWAP3 PUSH1 0x1 SWAP1 PUSH2 0x1280 JUMP JUMPDEST PUSH2 0x12F9 SWAP2 POP RETURNDATASIZE DUP1 DUP14 DUP4 RETURNDATACOPY PUSH2 0x12F1 DUP2 DUP4 PUSH2 0x2263 JUMP JUMPDEST DUP2 ADD SWAP1 PUSH2 0x2394 JUMP JUMPDEST CODESIZE PUSH2 0x12C8 JUMP JUMPDEST PUSH1 0x40 MLOAD RETURNDATASIZE DUP12 DUP3 RETURNDATACOPY RETURNDATASIZE SWAP1 REVERT JUMPDEST POP DUP8 SWAP2 POP PUSH1 0x5 DUP4 EQ PUSH2 0x1252 JUMP JUMPDEST PUSH4 0x4E487B71 PUSH1 0xE0 SHL DUP9 MSTORE PUSH1 0x21 PUSH1 0x4 MSTORE PUSH1 0x24 DUP9 REVERT JUMPDEST SWAP2 SWAP3 SWAP4 PUSH2 0x1337 DUP4 PUSH2 0x2116 JUMP JUMPDEST SWAP1 SLOAD PUSH1 0x3 SWAP2 SWAP1 SWAP2 SHL SHR PUSH1 0x1 PUSH1 0x1 PUSH1 0xA0 SHL SUB AND DUP1 DUP4 MSTORE PUSH1 0x4 PUSH1 0x20 MSTORE PUSH1 0x40 DUP4 KECCAK256 SLOAD PUSH1 0xFF AND PUSH1 0x6 DUP2 LT ISZERO PUSH2 0x651 JUMPI SWAP1 DUP2 PUSH1 0x4 DUP6 SWAP4 EQ SWAP1 DUP2 ISZERO PUSH2 0x13EE JUMPI JUMPDEST POP PUSH2 0x1390 JUMPI JUMPDEST POP POP PUSH2 0x1384 PUSH1 0x1 SWAP2 PUSH2 0x2285 JUMP JUMPDEST SWAP3 JUMPDEST ADD SWAP4 SWAP3 SWAP2 SWAP4 PUSH2 0x1160 JUMP JUMPDEST PUSH1 0x40 MLOAD PUSH4 0x1F385F79 PUSH1 0xE2 SHL DUP2 MSTORE SWAP2 SWAP1 DUP3 SWAP1 PUSH1 0x4 SWAP1 DUP3 SWAP1 GAS STATICCALL SWAP1 DUP2 ISZERO PUSH2 0xCDF JUMPI DUP7 SWAP2 PUSH2 0x120 SWAP2 DUP6 SWAP2 PUSH2 0x13D4 JUMPI JUMPDEST POP ADD MLOAD LT PUSH2 0x13CB JUMPI DUP2 CODESIZE PUSH2 0x1377 JUMP JUMPDEST SWAP2 PUSH1 0x1 SWAP1 PUSH2 0x1386 JUMP JUMPDEST PUSH2 0x13E8 SWAP2 POP RETURNDATASIZE DUP1 DUP8 DUP4 RETURNDATACOPY PUSH2 0x12F1 DUP2 DUP4 PUSH2 0x2263 JUMP JUMPDEST CODESIZE PUSH2 0x13BC JUMP JUMPDEST PUSH1 0x5 SWAP2 POP EQ CODESIZE PUSH2 0x1371 JUMP JUMPDEST PUSH4 0x4E487B71 PUSH1 0xE0 SHL DUP2 MSTORE PUSH1 0x11 PUSH1 0x4 MSTORE PUSH1 0x24 SWAP1 REVERT JUMPDEST POP CALLVALUE PUSH2 0x1C3 JUMPI DUP1 PUSH1 0x3 NOT CALLDATASIZE ADD SLT PUSH2 0x1C3 JUMPI PUSH1 0x6 SLOAD DUP2 DUP3 JUMPDEST DUP3 DUP2 LT PUSH2 0x1508 JUMPI POP PUSH2 0x1435 SWAP1 PUSH2 0x22C2 JUMP JUMPDEST SWAP1 DUP3 DUP4 JUMPDEST DUP3 DUP2 LT PUSH2 0x1456 JUMPI PUSH1 0x40 MLOAD PUSH1 0x20 DUP1 DUP3 MSTORE DUP2 SWAP1 PUSH2 0x1BD SWAP1 DUP3 ADD DUP8 PUSH2 0x20CC JUMP JUMPDEST PUSH2 0x145F DUP2 PUSH2 0x2116 JUMP JUMPDEST SWAP1 SLOAD PUSH1 0x3 SWAP2 SWAP1 SWAP2 SHL SHR PUSH1 0x1 PUSH1 0x1 PUSH1 0xA0 SHL SUB AND DUP6 MSTORE PUSH1 0x4 PUSH1 0x20 MSTORE PUSH1 0x40 DUP6 KECCAK256 SLOAD PUSH1 0xFF AND PUSH1 0x6 DUP2 LT ISZERO PUSH2 0x7D1 JUMPI PUSH1 0x4 EQ ISZERO DUP1 PUSH2 0x14CB JUMPI JUMPDEST SWAP1 PUSH1 0x1 SWAP2 PUSH2 0x14A2 JUMPI JUMPDEST ADD PUSH2 0x1439 JUMP JUMPDEST PUSH2 0x14AB DUP2 PUSH2 0x2116 JUMP JUMPDEST DUP4 DUP1 PUSH1 0xA0 SHL SUB SWAP2 SLOAD SWAP1 PUSH1 0x3 SHL SHR AND PUSH2 0x14C5 PUSH2 0x788 DUP6 PUSH2 0x2285 JUMP JUMPDEST MSTORE PUSH2 0x149C JUMP JUMPDEST POP PUSH2 0x14D5 DUP2 PUSH2 0x2116 JUMP JUMPDEST SWAP1 SLOAD PUSH1 0x3 SWAP2 SWAP1 SWAP2 SHL SHR PUSH1 0x1 PUSH1 0x1 PUSH1 0xA0 SHL SUB AND DUP6 MSTORE PUSH1 0x4 PUSH1 0x20 MSTORE PUSH1 0x40 DUP6 KECCAK256 SLOAD PUSH1 0xFF AND PUSH1 0x6 DUP2 LT ISZERO PUSH2 0x7D1 JUMPI PUSH1 0x5 EQ ISZERO PUSH2 0x1493 JUMP JUMPDEST PUSH2 0x1511 DUP2 PUSH2 0x2116 JUMP JUMPDEST SWAP1 SLOAD PUSH1 0x3 SWAP2 SWAP1 SWAP2 SHL SHR PUSH1 0x1 PUSH1 0x1 PUSH1 0xA0 SHL SUB AND DUP5 MSTORE PUSH1 0x4 PUSH1 0x20 MSTORE PUSH1 0x40 DUP5 KECCAK256 SLOAD PUSH1 0xFF AND PUSH1 0x6 DUP2 LT ISZERO PUSH2 0x87F JUMPI PUSH1 0x4 EQ ISZERO DUP1 PUSH2 0x1566 JUMPI JUMPDEST PUSH2 0x1552 JUMPI JUMPDEST PUSH1 0x1 ADD PUSH2 0x1424 JUMP JUMPDEST SWAP1 PUSH2 0x155E PUSH1 0x1 SWAP2 PUSH2 0x2285 JUMP JUMPDEST SWAP2 SWAP1 POP PUSH2 0x154A JUMP JUMPDEST POP PUSH2 0x1570 DUP2 PUSH2 0x2116 JUMP JUMPDEST SWAP1 SLOAD PUSH1 0x3 SWAP2 SWAP1 SWAP2 SHL SHR PUSH1 0x1 PUSH1 0x1 PUSH1 0xA0 SHL SUB AND DUP5 MSTORE PUSH1 0x4 PUSH1 0x20 MSTORE PUSH1 0x40 DUP5 KECCAK256 SLOAD PUSH1 0xFF AND PUSH1 0x6 DUP2 LT ISZERO PUSH2 0x87F JUMPI PUSH1 0x5 EQ ISZERO PUSH2 0x1545 JUMP JUMPDEST POP CALLVALUE PUSH2 0x1C3 JUMPI PUSH1 0x20 CALLDATASIZE PUSH1 0x3 NOT ADD SLT PUSH2 0x1C3 JUMPI PUSH1 0x4 CALLDATALOAD PUSH1 0x1 PUSH1 0x1 PUSH1 0xA0 SHL SUB DUP2 AND SWAP1 DUP2 SWAP1 SUB PUSH2 0x1C1 JUMPI DUP2 SLOAD PUSH1 0x1 PUSH1 0x1 PUSH1 0xA0 SHL SUB AND CALLER EQ DUP1 ISZERO PUSH2 0x167E JUMPI JUMPDEST PUSH2 0x15E7 SWAP1 PUSH2 0x21B9 JUMP JUMPDEST PUSH2 0x15F2 DUP2 ISZERO ISZERO PUSH2 0x2584 JUMP JUMPDEST DUP1 DUP3 MSTORE PUSH1 0x2 PUSH1 0x20 MSTORE PUSH1 0xFF PUSH1 0x40 DUP4 KECCAK256 SLOAD AND PUSH2 0x1644 JUMPI DUP1 DUP3 MSTORE PUSH1 0x2 PUSH1 0x20 MSTORE PUSH1 0x40 DUP3 KECCAK256 DUP1 SLOAD PUSH1 0xFF NOT AND PUSH1 0x1 OR SWAP1 SSTORE PUSH32 0x10AC961F00D5E732BA4DCC2C6FB09BEBEA0EB9EDD2A75C8109775EF288382E67 DUP3 DUP1 LOG2 DUP1 RETURN JUMPDEST PUSH1 0x40 MLOAD PUSH3 0x461BCD PUSH1 0xE5 SHL DUP2 MSTORE PUSH1 0x20 PUSH1 0x4 DUP3 ADD MSTORE PUSH1 0x12 PUSH1 0x24 DUP3 ADD MSTORE PUSH18 0x105B1C9958591E48185D5D1A1BDC9A5E9959 PUSH1 0x72 SHL PUSH1 0x44 DUP3 ADD MSTORE PUSH1 0x64 SWAP1 REVERT JUMPDEST POP CALLER DUP3 MSTORE PUSH1 0x2 PUSH1 0x20 MSTORE PUSH1 0x40 DUP3 KECCAK256 SLOAD PUSH1 0xFF AND PUSH2 0x15DE JUMP JUMPDEST POP CALLVALUE PUSH2 0x1C3 JUMPI PUSH1 0x20 CALLDATASIZE PUSH1 0x3 NOT ADD SLT PUSH2 0x1C3 JUMPI PUSH1 0x4 CALLDATALOAD PUSH1 0x1 PUSH1 0x1 PUSH1 0xA0 SHL SUB DUP2 AND DUP1 DUP3 SUB PUSH2 0x219 JUMPI DUP3 SLOAD PUSH1 0x1 PUSH1 0x1 PUSH1 0xA0 SHL SUB AND CALLER EQ DUP1 ISZERO PUSH2 0x1891 JUMPI JUMPDEST PUSH2 0x16D7 SWAP1 PUSH2 0x21B9 JUMP JUMPDEST DUP1 DUP4 MSTORE PUSH1 0x8 PUSH1 0x20 MSTORE PUSH1 0x40 DUP4 KECCAK256 PUSH1 0x40 MLOAD PUSH2 0x16EF DUP2 PUSH2 0x2247 JUMP JUMPDEST DUP2 SLOAD PUSH1 0x1 PUSH1 0x1 PUSH1 0xA0 SHL SUB AND DUP1 DUP3 MSTORE PUSH1 0x1 SWAP1 SWAP3 ADD SLOAD PUSH1 0x20 DUP3 ADD SWAP1 DUP2 MSTORE SWAP2 ISZERO PUSH2 0x184C JUMPI MLOAD PUSH1 0x1 PUSH1 0x1 PUSH1 0xA0 SHL SUB AND CALLER EQ PUSH2 0x1808 JUMPI MLOAD PUSH3 0x15180 DUP2 ADD DUP1 SWAP2 GT PUSH2 0x17F4 JUMPI TIMESTAMP GT PUSH2 0x17BC JUMPI PUSH2 0x173C PUSH2 0x277A JUMP JUMPDEST DUP1 ISZERO PUSH2 0x17A8 JUMPI PUSH2 0x174B DUP3 PUSH2 0x27A3 JUMP JUMPDEST DUP3 MSTORE PUSH1 0x8 PUSH1 0x20 SWAP1 DUP2 MSTORE PUSH1 0x40 DUP1 DUP5 KECCAK256 DUP5 DUP2 SSTORE PUSH1 0x1 ADD DUP5 SWAP1 SSTORE DUP1 MLOAD PUSH1 0x1 PUSH1 0x1 PUSH1 0xA0 SHL SUB SWAP1 SWAP4 AND DUP4 MSTORE TIMESTAMP SWAP2 DUP4 ADD SWAP2 SWAP1 SWAP2 MSTORE CALLER SWAP2 PUSH32 0xDD72DD33198968A9CDC9B1E5CBFF344FB8D04D99F8C15C0A02416B04E857B467 SWAP2 DUP2 SWAP1 DUP2 ADD JUMPDEST SUB SWAP1 LOG2 DUP1 RETURN JUMPDEST PUSH4 0x1E4FBDF7 PUSH1 0xE0 SHL DUP4 MSTORE PUSH1 0x4 DUP4 SWAP1 MSTORE PUSH1 0x24 DUP4 REVERT JUMPDEST PUSH1 0x40 MLOAD PUSH3 0x461BCD PUSH1 0xE5 SHL DUP2 MSTORE PUSH1 0x20 PUSH1 0x4 DUP3 ADD MSTORE PUSH1 0x10 PUSH1 0x24 DUP3 ADD MSTORE PUSH16 0x141C9BDC1BDCD85B08195E1C1A5C9959 PUSH1 0x82 SHL PUSH1 0x44 DUP3 ADD MSTORE PUSH1 0x64 SWAP1 REVERT JUMPDEST PUSH4 0x4E487B71 PUSH1 0xE0 SHL DUP5 MSTORE PUSH1 0x11 PUSH1 0x4 MSTORE PUSH1 0x24 DUP5 REVERT JUMPDEST PUSH1 0x64 PUSH1 0x40 MLOAD PUSH3 0x461BCD PUSH1 0xE5 SHL DUP2 MSTORE PUSH1 0x20 PUSH1 0x4 DUP3 ADD MSTORE PUSH1 0x20 PUSH1 0x24 DUP3 ADD MSTORE PUSH32 0x43616E6E6F7420636F6E6669726D20796F7572206F776E2070726F706F73616C PUSH1 0x44 DUP3 ADD MSTORE REVERT JUMPDEST PUSH1 0x40 MLOAD PUSH3 0x461BCD PUSH1 0xE5 SHL DUP2 MSTORE PUSH1 0x20 PUSH1 0x4 DUP3 ADD MSTORE PUSH1 0x1A PUSH1 0x24 DUP3 ADD MSTORE PUSH32 0x4E6F2070726F706F73616C20666F722074686973206F776E6572000000000000 PUSH1 0x44 DUP3 ADD MSTORE PUSH1 0x64 SWAP1 REVERT JUMPDEST POP CALLER DUP4 MSTORE PUSH1 0x2 PUSH1 0x20 MSTORE PUSH1 0x40 DUP4 KECCAK256 SLOAD PUSH1 0xFF AND PUSH2 0x16CE JUMP JUMPDEST POP CALLVALUE PUSH2 0x1C3 JUMPI PUSH1 0x20 CALLDATASIZE PUSH1 0x3 NOT ADD SLT PUSH2 0x1C3 JUMPI PUSH1 0x4 CALLDATALOAD SWAP1 PUSH1 0x6 SLOAD DUP3 LT ISZERO PUSH2 0x1C3 JUMPI PUSH1 0x20 PUSH2 0x18D2 DUP4 PUSH2 0x2116 JUMP JUMPDEST SWAP1 SLOAD PUSH1 0x40 MLOAD PUSH1 0x3 SWAP3 SWAP1 SWAP3 SHL SHR PUSH1 0x1 PUSH1 0x1 PUSH1 0xA0 SHL SUB AND DUP2 MSTORE RETURN JUMPDEST POP CALLVALUE PUSH2 0x1C3 JUMPI PUSH1 0x20 CALLDATASIZE PUSH1 0x3 NOT ADD SLT PUSH2 0x1C3 JUMPI PUSH1 0x4 CALLDATALOAD PUSH1 0x1 PUSH1 0x1 PUSH1 0xA0 SHL SUB DUP2 AND DUP1 DUP3 SUB PUSH2 0x219 JUMPI DUP3 SLOAD PUSH1 0x1 PUSH1 0x1 PUSH1 0xA0 SHL SUB AND CALLER EQ DUP1 ISZERO PUSH2 0x19FD JUMPI JUMPDEST PUSH2 0x192E SWAP1 PUSH2 0x21B9 JUMP JUMPDEST DUP1 ISZERO PUSH2 0x19C4 JUMPI PUSH1 0x1 PUSH1 0x40 MLOAD SWAP2 PUSH2 0x1943 DUP4 PUSH2 0x2247 JUMP JUMPDEST CALLER DUP4 MSTORE PUSH1 0x20 DUP4 ADD SWAP1 TIMESTAMP DUP3 MSTORE DUP6 MSTORE PUSH1 0x8 PUSH1 0x20 MSTORE PUSH1 0x40 DUP6 KECCAK256 SWAP3 DUP3 DUP1 PUSH1 0xA0 SHL SUB SWAP1 MLOAD AND PUSH12 0xFFFFFFFFFFFFFFFFFFFFFFFF PUSH1 0xA0 SHL DUP5 SLOAD AND OR DUP4 SSTORE MLOAD SWAP2 ADD SSTORE PUSH32 0xC29BDBD554E41DF97E5C40FC273A09677AC133C245F0064BDFFEF5CC72176E19 PUSH1 0x40 MLOAD DUP1 PUSH2 0x17A2 CALLER SWAP5 TIMESTAMP SWAP1 DUP4 PUSH1 0x20 SWAP1 SWAP4 SWAP3 SWAP2 SWAP4 PUSH1 0x40 DUP2 ADD SWAP5 PUSH1 0x1 DUP1 PUSH1 0xA0 SHL SUB AND DUP2 MSTORE ADD MSTORE JUMP JUMPDEST PUSH1 0x40 MLOAD PUSH3 0x461BCD PUSH1 0xE5 SHL DUP2 MSTORE PUSH1 0x20 PUSH1 0x4 DUP3 ADD MSTORE PUSH1 0x11 PUSH1 0x24 DUP3 ADD MSTORE PUSH17 0x24B73B30B634B2103732BB9037BBB732B9 PUSH1 0x79 SHL PUSH1 0x44 DUP3 ADD MSTORE PUSH1 0x64 SWAP1 REVERT JUMPDEST POP CALLER DUP4 MSTORE PUSH1 0x2 PUSH1 0x20 MSTORE PUSH1 0x40 DUP4 KECCAK256 SLOAD PUSH1 0xFF AND PUSH2 0x1925 JUMP JUMPDEST POP CALLVALUE PUSH2 0x1C3 JUMPI PUSH1 0x20 CALLDATASIZE PUSH1 0x3 NOT ADD SLT PUSH2 0x1C3 JUMPI PUSH1 0x4 CALLDATALOAD PUSH1 0x1 PUSH1 0x1 PUSH1 0xA0 SHL SUB DUP2 AND SWAP1 DUP2 SWAP1 SUB PUSH2 0x1C1 JUMPI PUSH1 0x60 PUSH2 0x200 PUSH1 0x40 MLOAD PUSH2 0x1A4B DUP2 PUSH2 0x2214 JUMP JUMPDEST DUP3 DUP2 MSTORE DUP5 PUSH1 0x20 DUP3 ADD MSTORE DUP5 PUSH1 0x40 DUP3 ADD MSTORE DUP5 DUP4 DUP3 ADD MSTORE DUP5 PUSH1 0x80 DUP3 ADD MSTORE DUP5 PUSH1 0xA0 DUP3 ADD MSTORE DUP5 PUSH1 0xC0 DUP3 ADD MSTORE DUP5 PUSH1 0xE0 DUP3 ADD MSTORE DUP5 PUSH2 0x100 DUP3 ADD MSTORE DUP5 PUSH2 0x120 DUP3 ADD MSTORE DUP5 PUSH2 0x140 DUP3 ADD MSTORE DUP5 PUSH2 0x160 DUP3 ADD MSTORE DUP5 PUSH2 0x180 DUP3 ADD MSTORE DUP5 PUSH2 0x1A0 DUP3 ADD MSTORE DUP3 PUSH2 0x1C0 DUP3 ADD MSTORE DUP5 PUSH2 0x1E0 DUP3 ADD MSTORE ADD MSTORE DUP1 ISZERO PUSH2 0x1C4A JUMPI DUP2 PUSH1 0x4 SWAP2 PUSH1 0x40 MLOAD SWAP3 DUP4 DUP1 SWAP3 PUSH4 0x1F385F79 PUSH1 0xE2 SHL DUP3 MSTORE GAS STATICCALL SWAP1 DUP2 ISZERO PUSH2 0x1C3F JUMPI DUP3 SWAP2 PUSH2 0x1C25 JUMPI JUMPDEST POP PUSH1 0x40 MLOAD SWAP1 PUSH1 0x20 DUP3 MSTORE PUSH2 0x1AFD DUP2 MLOAD PUSH2 0x220 PUSH1 0x20 DUP6 ADD MSTORE PUSH2 0x240 DUP5 ADD SWAP1 PUSH2 0x20CC JUMP JUMPDEST SWAP3 PUSH2 0x1B10 PUSH1 0x20 DUP4 ADD MLOAD PUSH1 0x40 DUP6 ADD SWAP1 PUSH2 0x2109 JUMP JUMPDEST PUSH2 0x1B22 PUSH1 0x40 DUP4 ADD MLOAD PUSH1 0x60 DUP6 ADD SWAP1 PUSH2 0x20A9 JUMP JUMPDEST PUSH1 0x60 DUP3 ADD MLOAD PUSH1 0x80 DUP5 ADD MSTORE PUSH1 0x80 DUP3 ADD MLOAD PUSH1 0xA0 DUP5 ADD MSTORE PUSH1 0xA0 DUP3 ADD MLOAD PUSH1 0xC0 DUP5 ADD MSTORE PUSH1 0xFF PUSH1 0xC0 DUP4 ADD MLOAD AND PUSH1 0xE0 DUP5 ADD MSTORE PUSH1 0xFF PUSH1 0xE0 DUP4 ADD MLOAD AND PUSH2 0x100 DUP5 ADD MSTORE PUSH2 0x100 DUP3 ADD MLOAD PUSH2 0x120 DUP5 ADD MSTORE PUSH2 0x120 DUP3 ADD MLOAD PUSH2 0x140 DUP5 ADD MSTORE PUSH1 0xFF PUSH2 0x140 DUP4 ADD MLOAD AND PUSH2 0x160 DUP5 ADD MSTORE PUSH1 0xFF PUSH2 0x160 DUP4 ADD MLOAD AND PUSH2 0x180 DUP5 ADD MSTORE PUSH2 0x180 DUP3 ADD MLOAD PUSH2 0x1A0 DUP5 ADD MSTORE PUSH2 0x1A0 DUP3 ADD MLOAD PUSH2 0x1C0 DUP5 ADD MSTORE PUSH2 0x1C0 DUP3 ADD MLOAD SWAP4 PUSH1 0x1F NOT DUP5 DUP3 SUB ADD PUSH2 0x1E0 DUP6 ADD MSTORE PUSH1 0x20 DUP1 DUP7 MLOAD SWAP3 DUP4 DUP2 MSTORE ADD SWAP6 ADD SWAP2 JUMPDEST DUP2 DUP2 LT PUSH2 0x1BFA JUMPI DUP5 DUP1 PUSH2 0x1BD DUP9 PUSH2 0x200 DUP9 PUSH2 0x1E0 DUP2 ADD MLOAD DUP3 DUP7 ADD MSTORE ADD MLOAD PUSH1 0x1F NOT DUP5 DUP4 SUB ADD PUSH2 0x220 DUP6 ADD MSTORE PUSH2 0x20CC JUMP JUMPDEST DUP3 MLOAD DUP1 MLOAD PUSH1 0x1 PUSH1 0x1 PUSH1 0xA0 SHL SUB AND DUP8 MSTORE PUSH1 0x20 SWAP1 DUP2 ADD MLOAD DUP2 DUP9 ADD MSTORE PUSH1 0x40 SWAP1 SWAP7 ADD SWAP6 SWAP1 SWAP3 ADD SWAP2 PUSH1 0x1 ADD PUSH2 0x1BCB JUMP JUMPDEST PUSH2 0x1C39 SWAP2 POP RETURNDATASIZE DUP1 DUP5 DUP4 RETURNDATACOPY PUSH2 0x12F1 DUP2 DUP4 PUSH2 0x2263 JUMP JUMPDEST CODESIZE PUSH2 0x1ADC JUMP JUMPDEST PUSH1 0x40 MLOAD RETURNDATASIZE DUP5 DUP3 RETURNDATACOPY RETURNDATASIZE SWAP1 REVERT JUMPDEST PUSH1 0x40 MLOAD PUSH3 0x461BCD PUSH1 0xE5 SHL DUP2 MSTORE PUSH1 0x20 PUSH1 0x4 DUP3 ADD MSTORE PUSH1 0x17 PUSH1 0x24 DUP3 ADD MSTORE PUSH32 0x496E76616C6964206D697373696F6E2061646472657373000000000000000000 PUSH1 0x44 DUP3 ADD MSTORE PUSH1 0x64 SWAP1 REVERT JUMPDEST POP CALLVALUE PUSH2 0x1C3 JUMPI PUSH1 0x20 CALLDATASIZE PUSH1 0x3 NOT ADD SLT PUSH2 0x1C3 JUMPI PUSH1 0x4 CALLDATALOAD PUSH1 0x6 DUP2 LT ISZERO DUP1 PUSH2 0x219 JUMPI PUSH1 0x6 SLOAD SWAP1 PUSH1 0x2 DUP4 EQ DUP5 DUP1 JUMPDEST DUP4 DUP6 DUP3 LT PUSH2 0x1DD0 JUMPI POP POP PUSH2 0x1CCC SWAP1 PUSH2 0x22C2 JUMP JUMPDEST SWAP4 DUP6 SWAP3 DUP7 JUMPDEST DUP6 DUP2 LT PUSH2 0x1CEE JUMPI PUSH1 0x40 MLOAD PUSH1 0x20 DUP1 DUP3 MSTORE DUP2 SWAP1 PUSH2 0x1BD SWAP1 DUP3 ADD DUP11 PUSH2 0x20CC JUMP JUMPDEST DUP2 PUSH2 0x1317 JUMPI DUP4 DUP1 PUSH2 0x1D94 JUMPI JUMPDEST DUP1 ISZERO PUSH2 0x1D40 JUMPI JUMPDEST SWAP1 PUSH1 0x1 SWAP2 PUSH2 0x1D10 JUMPI JUMPDEST ADD PUSH2 0x1CD1 JUMP JUMPDEST PUSH2 0x1D19 DUP2 PUSH2 0x2116 JUMP JUMPDEST DUP4 DUP1 PUSH1 0xA0 SHL SUB SWAP2 SLOAD SWAP1 PUSH1 0x3 SHL SHR AND PUSH2 0x1D3A PUSH2 0x1D33 DUP9 PUSH2 0x2285 JUMP JUMPDEST SWAP8 DUP11 PUSH2 0x22F4 JUMP JUMPDEST MSTORE PUSH2 0x1D0A JUMP JUMPDEST POP SWAP1 POP PUSH2 0x1D4C DUP2 PUSH2 0x2116 JUMP JUMPDEST SWAP1 SLOAD PUSH1 0x3 SWAP2 SWAP1 SWAP2 SHL SHR PUSH1 0x1 PUSH1 0x1 PUSH1 0xA0 SHL SUB AND DUP8 MSTORE PUSH1 0x4 PUSH1 0x20 MSTORE PUSH1 0x40 DUP8 KECCAK256 SLOAD DUP8 SWAP2 SWAP1 PUSH1 0xFF AND PUSH1 0x6 DUP2 LT ISZERO PUSH2 0x1D80 JUMPI DUP4 EQ PUSH2 0x1D01 JUMP JUMPDEST PUSH4 0x4E487B71 PUSH1 0xE0 SHL DUP10 MSTORE PUSH1 0x21 PUSH1 0x4 MSTORE PUSH1 0x24 DUP10 REVERT JUMPDEST POP PUSH2 0x1D9E DUP2 PUSH2 0x2116 JUMP JUMPDEST SWAP1 SLOAD PUSH1 0x3 SWAP2 SWAP1 SWAP2 SHL SHR PUSH1 0x1 PUSH1 0x1 PUSH1 0xA0 SHL SUB AND DUP9 MSTORE PUSH1 0x4 PUSH1 0x20 MSTORE PUSH1 0x40 DUP9 KECCAK256 SLOAD PUSH1 0xFF AND PUSH1 0x6 DUP2 LT ISZERO PUSH2 0x1D80 JUMPI PUSH1 0x3 EQ PUSH2 0x1CFA JUMP JUMPDEST PUSH2 0x128B JUMPI DUP3 DUP1 PUSH2 0x1E43 JUMPI JUMPDEST DUP1 ISZERO PUSH2 0x1E03 JUMPI JUMPDEST PUSH2 0x1DEF JUMPI JUMPDEST PUSH1 0x1 ADD PUSH2 0x1CB9 JUMP JUMPDEST SWAP1 PUSH2 0x1DFB PUSH1 0x1 SWAP2 PUSH2 0x2285 JUMP JUMPDEST SWAP2 SWAP1 POP PUSH2 0x1DE7 JUMP JUMPDEST POP SWAP3 POP PUSH2 0x1E0F DUP4 PUSH2 0x2116 JUMP JUMPDEST SWAP1 SLOAD PUSH1 0x3 SWAP2 SWAP1 SWAP2 SHL SHR PUSH1 0x1 PUSH1 0x1 PUSH1 0xA0 SHL SUB AND DUP7 MSTORE PUSH1 0x4 PUSH1 0x20 MSTORE PUSH1 0x40 DUP7 KECCAK256 SLOAD DUP7 SWAP4 SWAP1 PUSH1 0xFF AND PUSH1 0x6 DUP2 LT ISZERO PUSH2 0x1317 JUMPI DUP7 EQ PUSH2 0x1DE2 JUMP JUMPDEST POP PUSH2 0x1E4D DUP2 PUSH2 0x2116 JUMP JUMPDEST SWAP1 SLOAD PUSH1 0x3 SWAP2 SWAP1 SWAP2 SHL SHR PUSH1 0x1 PUSH1 0x1 PUSH1 0xA0 SHL SUB AND DUP8 MSTORE PUSH1 0x4 PUSH1 0x20 MSTORE PUSH1 0x40 DUP8 KECCAK256 SLOAD PUSH1 0xFF AND PUSH1 0x6 DUP2 LT ISZERO PUSH2 0x1317 JUMPI PUSH1 0x3 EQ PUSH2 0x1DDB JUMP JUMPDEST POP CALLVALUE PUSH2 0x1C3 JUMPI PUSH1 0x20 CALLDATASIZE PUSH1 0x3 NOT ADD SLT PUSH2 0x1C3 JUMPI DUP1 SLOAD PUSH1 0x1 PUSH1 0x1 PUSH1 0xA0 SHL SUB AND PUSH1 0x4 CALLDATALOAD CALLER DUP3 EQ DUP1 ISZERO PUSH2 0x202B JUMPI JUMPDEST PUSH2 0x1EB2 SWAP1 PUSH2 0x21B9 JUMP JUMPDEST PUSH1 0x2 PUSH1 0x1 SLOAD EQ PUSH2 0x201C JUMPI PUSH1 0x2 PUSH1 0x1 SSTORE DUP1 DUP3 ISZERO PUSH2 0x1FDF JUMPI ISZERO PUSH2 0x1FD8 JUMPI JUMPDEST SELFBALANCE DUP2 GT PUSH2 0x1F9C JUMPI DUP3 DUP1 DUP1 DUP1 DUP5 DUP7 GAS CALL RETURNDATASIZE ISZERO PUSH2 0x1F97 JUMPI RETURNDATASIZE PUSH8 0xFFFFFFFFFFFFFFFF DUP2 GT PUSH2 0x1F83 JUMPI PUSH1 0x40 MLOAD SWAP1 PUSH2 0x1F0B PUSH1 0x1F DUP3 ADD PUSH1 0x1F NOT AND PUSH1 0x20 ADD DUP4 PUSH2 0x2263 JUMP JUMPDEST DUP2 MSTORE DUP5 PUSH1 0x20 RETURNDATASIZE SWAP3 ADD RETURNDATACOPY JUMPDEST ISZERO PUSH2 0x1F4C JUMPI PUSH1 0x20 PUSH32 0xEAFF4B37086828766AD3268786972C0CD24259D4C87A80F9D3963A3C3D999B0D SWAP2 PUSH1 0x40 MLOAD SWAP1 DUP2 MSTORE LOG2 PUSH1 0x1 DUP1 SSTORE DUP1 RETURN JUMPDEST PUSH1 0x40 MLOAD PUSH3 0x461BCD PUSH1 0xE5 SHL DUP2 MSTORE PUSH1 0x20 PUSH1 0x4 DUP3 ADD MSTORE PUSH1 0xF PUSH1 0x24 DUP3 ADD MSTORE PUSH15 0x151C985B9CD9995C8819985A5B1959 PUSH1 0x8A SHL PUSH1 0x44 DUP3 ADD MSTORE PUSH1 0x64 SWAP1 REVERT JUMPDEST PUSH4 0x4E487B71 PUSH1 0xE0 SHL DUP6 MSTORE PUSH1 0x41 PUSH1 0x4 MSTORE PUSH1 0x24 DUP6 REVERT JUMPDEST PUSH2 0x1F15 JUMP JUMPDEST PUSH1 0x40 MLOAD PUSH3 0x461BCD PUSH1 0xE5 SHL DUP2 MSTORE PUSH1 0x20 PUSH1 0x4 DUP3 ADD MSTORE PUSH1 0x14 PUSH1 0x24 DUP3 ADD MSTORE PUSH20 0x496E73756666696369656E742062616C616E6365 PUSH1 0x60 SHL PUSH1 0x44 DUP3 ADD MSTORE PUSH1 0x64 SWAP1 REVERT JUMPDEST POP SELFBALANCE PUSH2 0x1ECE JUMP JUMPDEST PUSH1 0x40 MLOAD PUSH3 0x461BCD PUSH1 0xE5 SHL DUP2 MSTORE PUSH1 0x20 PUSH1 0x4 DUP3 ADD MSTORE PUSH1 0x15 PUSH1 0x24 DUP3 ADD MSTORE PUSH21 0x24B73B30B634B21036B0B730B3B2B91037BBB732B9 PUSH1 0x59 SHL PUSH1 0x44 DUP3 ADD MSTORE PUSH1 0x64 SWAP1 REVERT JUMPDEST PUSH4 0x3EE5AEB5 PUSH1 0xE0 SHL DUP4 MSTORE PUSH1 0x4 DUP4 REVERT JUMPDEST POP CALLER DUP4 MSTORE PUSH1 0x2 PUSH1 0x20 MSTORE PUSH1 0x40 DUP4 KECCAK256 SLOAD PUSH1 0xFF AND PUSH2 0x1EA9 JUMP JUMPDEST POP CALLVALUE PUSH2 0x1C3 JUMPI DUP1 PUSH1 0x3 NOT CALLDATASIZE ADD SLT PUSH2 0x1C3 JUMPI PUSH1 0x20 PUSH1 0xFF PUSH1 0xA SLOAD PUSH1 0x8 SHR AND PUSH1 0x40 MLOAD SWAP1 DUP2 MSTORE RETURN JUMPDEST SWAP1 POP CALLVALUE PUSH2 0x1C1 JUMPI PUSH1 0x20 CALLDATASIZE PUSH1 0x3 NOT ADD SLT PUSH2 0x1C1 JUMPI PUSH1 0x4 CALLDATALOAD PUSH1 0x1 PUSH1 0x1 PUSH1 0xA0 SHL SUB DUP2 AND SWAP1 DUP2 SWAP1 SUB PUSH2 0x219 JUMPI DUP2 PUSH1 0xFF PUSH1 0x40 DUP6 PUSH2 0x20A7 SWAP5 PUSH1 0x20 SWAP8 MSTORE PUSH1 0x4 DUP8 MSTORE KECCAK256 SLOAD AND PUSH2 0x20A9 JUMP JUMPDEST RETURN JUMPDEST SWAP1 PUSH1 0x6 DUP3 LT ISZERO PUSH2 0x20B6 JUMPI MSTORE JUMP JUMPDEST PUSH4 0x4E487B71 PUSH1 0xE0 SHL PUSH1 0x0 MSTORE PUSH1 0x21 PUSH1 0x4 MSTORE PUSH1 0x24 PUSH1 0x0 REVERT JUMPDEST SWAP1 PUSH1 0x20 DUP1 DUP4 MLOAD SWAP3 DUP4 DUP2 MSTORE ADD SWAP3 ADD SWAP1 PUSH1 0x0 JUMPDEST DUP2 DUP2 LT PUSH2 0x20EA JUMPI POP POP POP SWAP1 JUMP JUMPDEST DUP3 MLOAD PUSH1 0x1 PUSH1 0x1 PUSH1 0xA0 SHL SUB AND DUP5 MSTORE PUSH1 0x20 SWAP4 DUP5 ADD SWAP4 SWAP1 SWAP3 ADD SWAP2 PUSH1 0x1 ADD PUSH2 0x20DD JUMP JUMPDEST SWAP1 PUSH1 0x7 DUP3 LT ISZERO PUSH2 0x20B6 JUMPI MSTORE JUMP JUMPDEST PUSH1 0x6 SLOAD DUP2 LT ISZERO PUSH2 0x2131 JUMPI PUSH1 0x6 PUSH1 0x0 MSTORE PUSH1 0x20 PUSH1 0x0 KECCAK256 ADD SWAP1 PUSH1 0x0 SWAP1 JUMP JUMPDEST PUSH4 0x4E487B71 PUSH1 0xE0 SHL PUSH1 0x0 MSTORE PUSH1 0x32 PUSH1 0x4 MSTORE PUSH1 0x24 PUSH1 0x0 REVERT JUMPDEST DUP1 SLOAD DUP3 LT ISZERO PUSH2 0x2131 JUMPI PUSH1 0x0 MSTORE PUSH1 0x20 PUSH1 0x0 KECCAK256 ADD SWAP1 PUSH1 0x0 SWAP1 JUMP JUMPDEST SWAP2 SWAP1 DUP3 MLOAD SWAP3 DUP4 DUP3 MSTORE PUSH1 0x0 JUMPDEST DUP5 DUP2 LT PUSH2 0x218B JUMPI POP POP DUP3 PUSH1 0x0 PUSH1 0x20 DUP1 SWAP5 SWAP6 DUP5 ADD ADD MSTORE PUSH1 0x1F DUP1 NOT SWAP2 ADD AND ADD ADD SWAP1 JUMP JUMPDEST DUP1 PUSH1 0x20 DUP1 SWAP3 DUP5 ADD ADD MLOAD DUP3 DUP3 DUP7 ADD ADD MSTORE ADD PUSH2 0x216A JUMP JUMPDEST PUSH1 0x7 DUP2 LT ISZERO PUSH2 0x20B6 JUMPI PUSH1 0x0 MSTORE PUSH1 0x3 PUSH1 0x20 MSTORE PUSH1 0x40 PUSH1 0x0 KECCAK256 SWAP1 JUMP JUMPDEST ISZERO PUSH2 0x21C0 JUMPI JUMP JUMPDEST PUSH1 0x40 MLOAD PUSH3 0x461BCD PUSH1 0xE5 SHL DUP2 MSTORE PUSH1 0x20 PUSH1 0x4 DUP3 ADD MSTORE PUSH1 0x26 PUSH1 0x24 DUP3 ADD MSTORE PUSH32 0x4E6F74206F776E6572206F72204D697373696F6E466163746F72792061757468 PUSH1 0x44 DUP3 ADD MSTORE PUSH6 0x1BDC9A5E9959 PUSH1 0xD2 SHL PUSH1 0x64 DUP3 ADD MSTORE PUSH1 0x84 SWAP1 REVERT JUMPDEST PUSH2 0x220 DUP2 ADD SWAP1 DUP2 LT PUSH8 0xFFFFFFFFFFFFFFFF DUP3 GT OR PUSH2 0x2231 JUMPI PUSH1 0x40 MSTORE JUMP JUMPDEST PUSH4 0x4E487B71 PUSH1 0xE0 SHL PUSH1 0x0 MSTORE PUSH1 0x41 PUSH1 0x4 MSTORE PUSH1 0x24 PUSH1 0x0 REVERT JUMPDEST PUSH1 0x40 DUP2 ADD SWAP1 DUP2 LT PUSH8 0xFFFFFFFFFFFFFFFF DUP3 GT OR PUSH2 0x2231 JUMPI PUSH1 0x40 MSTORE JUMP JUMPDEST SWAP1 PUSH1 0x1F DUP1 NOT SWAP2 ADD AND DUP2 ADD SWAP1 DUP2 LT PUSH8 0xFFFFFFFFFFFFFFFF DUP3 GT OR PUSH2 0x2231 JUMPI PUSH1 0x40 MSTORE JUMP JUMPDEST PUSH1 0x0 NOT DUP2 EQ PUSH2 0x2294 JUMPI PUSH1 0x1 ADD SWAP1 JUMP JUMPDEST PUSH4 0x4E487B71 PUSH1 0xE0 SHL PUSH1 0x0 MSTORE PUSH1 0x11 PUSH1 0x4 MSTORE PUSH1 0x24 PUSH1 0x0 REVERT JUMPDEST PUSH8 0xFFFFFFFFFFFFFFFF DUP2 GT PUSH2 0x2231 JUMPI PUSH1 0x5 SHL PUSH1 0x20 ADD SWAP1 JUMP JUMPDEST SWAP1 PUSH2 0x22CC DUP3 PUSH2 0x22AA JUMP JUMPDEST PUSH2 0x22D9 PUSH1 0x40 MLOAD SWAP2 DUP3 PUSH2 0x2263 JUMP JUMPDEST DUP3 DUP2 MSTORE DUP1 SWAP3 PUSH2 0x22EA PUSH1 0x1F NOT SWAP2 PUSH2 0x22AA JUMP JUMPDEST ADD SWAP1 PUSH1 0x20 CALLDATASIZE SWAP2 ADD CALLDATACOPY JUMP JUMPDEST DUP1 MLOAD DUP3 LT ISZERO PUSH2 0x2131 JUMPI PUSH1 0x20 SWAP2 PUSH1 0x5 SHL ADD ADD SWAP1 JUMP JUMPDEST MLOAD SWAP1 PUSH1 0x1 PUSH1 0x1 PUSH1 0xA0 SHL SUB DUP3 AND DUP3 SUB PUSH2 0x231C JUMPI JUMP JUMPDEST PUSH1 0x0 DUP1 REVERT JUMPDEST SWAP1 DUP1 PUSH1 0x1F DUP4 ADD SLT ISZERO PUSH2 0x231C JUMPI DUP2 MLOAD PUSH2 0x2338 DUP2 PUSH2 0x22AA JUMP JUMPDEST SWAP3 PUSH2 0x2346 PUSH1 0x40 MLOAD SWAP5 DUP6 PUSH2 0x2263 JUMP JUMPDEST DUP2 DUP5 MSTORE PUSH1 0x20 DUP1 DUP6 ADD SWAP3 PUSH1 0x5 SHL DUP3 ADD ADD SWAP3 DUP4 GT PUSH2 0x231C JUMPI PUSH1 0x20 ADD SWAP1 JUMPDEST DUP3 DUP3 LT PUSH2 0x236E JUMPI POP POP POP SWAP1 JUMP JUMPDEST PUSH1 0x20 DUP1 SWAP2 PUSH2 0x237B DUP5 PUSH2 0x2308 JUMP JUMPDEST DUP2 MSTORE ADD SWAP2 ADD SWAP1 PUSH2 0x2361 JUMP JUMPDEST MLOAD SWAP1 PUSH1 0xFF DUP3 AND DUP3 SUB PUSH2 0x231C JUMPI JUMP JUMPDEST PUSH1 0x20 DUP2 DUP4 SUB SLT PUSH2 0x231C JUMPI DUP1 MLOAD SWAP1 PUSH8 0xFFFFFFFFFFFFFFFF DUP3 GT PUSH2 0x231C JUMPI ADD PUSH2 0x220 DUP2 DUP4 SUB SLT PUSH2 0x231C JUMPI PUSH1 0x40 MLOAD SWAP2 PUSH2 0x23C9 DUP4 PUSH2 0x2214 JUMP JUMPDEST DUP2 MLOAD PUSH8 0xFFFFFFFFFFFFFFFF DUP2 GT PUSH2 0x231C JUMPI DUP2 PUSH2 0x23E6 SWAP2 DUP5 ADD PUSH2 0x2321 JUMP JUMPDEST DUP4 MSTORE PUSH1 0x20 DUP3 ADD MLOAD PUSH1 0x7 DUP2 LT ISZERO PUSH2 0x231C JUMPI PUSH1 0x20 DUP5 ADD MSTORE PUSH1 0x40 DUP3 ADD MLOAD PUSH1 0x6 DUP2 LT ISZERO PUSH2 0x231C JUMPI PUSH1 0x40 DUP5 ADD MSTORE PUSH1 0x60 DUP3 ADD MLOAD PUSH1 0x60 DUP5 ADD MSTORE PUSH1 0x80 DUP3 ADD MLOAD PUSH1 0x80 DUP5 ADD MSTORE PUSH1 0xA0 DUP3 ADD MLOAD PUSH1 0xA0 DUP5 ADD MSTORE PUSH2 0x2438 PUSH1 0xC0 DUP4 ADD PUSH2 0x2386 JUMP JUMPDEST PUSH1 0xC0 DUP5 ADD MSTORE PUSH2 0x2449 PUSH1 0xE0 DUP4 ADD PUSH2 0x2386 JUMP JUMPDEST PUSH1 0xE0 DUP5 ADD MSTORE PUSH2 0x100 DUP3 ADD MLOAD PUSH2 0x100 DUP5 ADD MSTORE PUSH2 0x120 DUP3 ADD MLOAD PUSH2 0x120 DUP5 ADD MSTORE PUSH2 0x2473 PUSH2 0x140 DUP4 ADD PUSH2 0x2386 JUMP JUMPDEST PUSH2 0x140 DUP5 ADD MSTORE PUSH2 0x2486 PUSH2 0x160 DUP4 ADD PUSH2 0x2386 JUMP JUMPDEST PUSH2 0x160 DUP5 ADD MSTORE PUSH2 0x180 DUP3 ADD MLOAD PUSH2 0x180 DUP5 ADD MSTORE PUSH2 0x1A0 DUP3 ADD MLOAD PUSH2 0x1A0 DUP5 ADD MSTORE PUSH2 0x1C0 DUP3 ADD MLOAD PUSH8 0xFFFFFFFFFFFFFFFF DUP2 GT PUSH2 0x231C JUMPI DUP3 ADD DUP2 PUSH1 0x1F DUP3 ADD SLT ISZERO PUSH2 0x231C JUMPI DUP1 MLOAD PUSH2 0x24D1 DUP2 PUSH2 0x22AA JUMP JUMPDEST SWAP2 PUSH2 0x24DF PUSH1 0x40 MLOAD SWAP4 DUP5 PUSH2 0x2263 JUMP JUMPDEST DUP2 DUP4 MSTORE PUSH1 0x20 DUP1 DUP5 ADD SWAP3 PUSH1 0x6 SHL DUP3 ADD ADD SWAP1 DUP5 DUP3 GT PUSH2 0x231C JUMPI PUSH1 0x20 ADD SWAP2 JUMPDEST DUP2 DUP4 LT PUSH2 0x253F JUMPI POP POP POP PUSH2 0x1C0 DUP5 ADD MSTORE PUSH2 0x1E0 DUP3 ADD MLOAD PUSH2 0x1E0 DUP5 ADD MSTORE PUSH2 0x200 DUP3 ADD MLOAD PUSH8 0xFFFFFFFFFFFFFFFF DUP2 GT PUSH2 0x231C JUMPI PUSH2 0x2536 SWAP3 ADD PUSH2 0x2321 JUMP JUMPDEST PUSH2 0x200 DUP3 ADD MSTORE SWAP1 JUMP JUMPDEST PUSH1 0x40 DUP4 DUP7 SUB SLT PUSH2 0x231C JUMPI PUSH1 0x20 PUSH1 0x40 SWAP2 DUP3 MLOAD PUSH2 0x2559 DUP2 PUSH2 0x2247 JUMP JUMPDEST PUSH2 0x2562 DUP7 PUSH2 0x2308 JUMP JUMPDEST DUP2 MSTORE DUP3 DUP7 ADD MLOAD DUP4 DUP3 ADD MSTORE DUP2 MSTORE ADD SWAP3 ADD SWAP2 PUSH2 0x24FB JUMP JUMPDEST SWAP2 SWAP1 DUP3 ADD DUP1 SWAP3 GT PUSH2 0x2294 JUMPI JUMP JUMPDEST ISZERO PUSH2 0x258B JUMPI JUMP JUMPDEST PUSH1 0x40 MLOAD PUSH3 0x461BCD PUSH1 0xE5 SHL DUP2 MSTORE PUSH1 0x20 PUSH1 0x4 DUP3 ADD MSTORE PUSH1 0xF PUSH1 0x24 DUP3 ADD MSTORE PUSH15 0x496E76616C69642061646472657373 PUSH1 0x88 SHL PUSH1 0x44 DUP3 ADD MSTORE PUSH1 0x64 SWAP1 REVERT JUMPDEST SWAP2 SWAP1 DUP3 SUB SWAP2 DUP3 GT PUSH2 0x2294 JUMPI JUMP JUMPDEST SWAP1 PUSH1 0x60 SWAP1 PUSH1 0x0 SWAP3 PUSH1 0x0 SWAP1 PUSH1 0x1 DUP1 PUSH1 0xA0 SHL SUB AND PUSH1 0x0 MSTORE PUSH1 0x9 PUSH1 0x20 MSTORE PUSH1 0x40 PUSH1 0x0 KECCAK256 SWAP2 PUSH1 0x40 MLOAD DUP1 DUP5 PUSH1 0x20 DUP3 SWAP7 SLOAD SWAP4 DUP5 DUP2 MSTORE ADD SWAP1 PUSH1 0x0 MSTORE PUSH1 0x20 PUSH1 0x0 KECCAK256 SWAP3 PUSH1 0x0 JUMPDEST DUP2 DUP2 LT PUSH2 0x2761 JUMPI POP POP PUSH2 0x2620 SWAP3 POP SUB DUP5 PUSH2 0x2263 JUMP JUMPDEST PUSH1 0x0 JUMPDEST DUP4 MLOAD DUP2 LT ISZERO PUSH2 0x2691 JUMPI PUSH2 0x2636 DUP2 DUP6 PUSH2 0x22F4 JUMP JUMPDEST MLOAD PUSH3 0x278D00 DUP2 ADD DUP1 SWAP2 GT PUSH2 0x2294 JUMPI TIMESTAMP LT PUSH2 0x2653 JUMPI JUMPDEST PUSH1 0x1 ADD PUSH2 0x2623 JUMP JUMPDEST SWAP2 PUSH2 0x265D SWAP1 PUSH2 0x2285 JUMP JUMPDEST SWAP2 PUSH2 0x2668 DUP2 DUP6 PUSH2 0x22F4 JUMP JUMPDEST MLOAD PUSH3 0x93A80 DUP2 ADD DUP1 SWAP2 GT PUSH2 0x2294 JUMPI TIMESTAMP LT ISZERO PUSH2 0x264B JUMPI SWAP5 PUSH2 0x2689 PUSH1 0x1 SWAP2 PUSH2 0x2285 JUMP JUMPDEST SWAP6 SWAP1 POP PUSH2 0x264B JUMP JUMPDEST POP SWAP4 SWAP2 POP SWAP2 PUSH1 0xA SLOAD SWAP2 PUSH1 0xFF DUP4 AND GT ISZERO PUSH2 0x2714 JUMPI POP PUSH1 0x8 SHR PUSH1 0xFF AND GT ISZERO PUSH2 0x26C9 JUMPI PUSH1 0x1 SWAP1 PUSH1 0x40 MLOAD PUSH2 0x26C2 PUSH1 0x20 DUP3 PUSH2 0x2263 JUMP JUMPDEST PUSH1 0x0 DUP2 MSTORE SWAP1 JUMP JUMPDEST PUSH1 0x0 SWAP1 PUSH1 0x40 MLOAD PUSH2 0x26DA PUSH1 0x60 DUP3 PUSH2 0x2263 JUMP JUMPDEST PUSH1 0x24 DUP2 MSTORE PUSH32 0x416E7469416464696374696F6E3A204D6F6E74686C79206C696D697420726561 PUSH1 0x20 DUP3 ADD MSTORE PUSH4 0x18DA1959 PUSH1 0xE2 SHL PUSH1 0x40 DUP3 ADD MSTORE SWAP1 JUMP JUMPDEST SWAP3 SWAP2 POP POP PUSH1 0x0 SWAP2 PUSH2 0x2728 PUSH1 0x40 MLOAD SWAP2 DUP3 PUSH2 0x2263 JUMP JUMPDEST PUSH1 0x23 DUP2 MSTORE PUSH32 0x416E7469416464696374696F6E3A205765656B6C79206C696D69742072656163 PUSH1 0x20 DUP3 ADD MSTORE PUSH3 0x1A1959 PUSH1 0xEA SHL PUSH1 0x40 DUP3 ADD MSTORE SWAP1 JUMP JUMPDEST DUP5 SLOAD DUP4 MSTORE PUSH1 0x1 SWAP5 DUP6 ADD SWAP5 DUP9 SWAP5 POP PUSH1 0x20 SWAP1 SWAP4 ADD SWAP3 ADD PUSH2 0x260B JUMP JUMPDEST PUSH1 0x0 SLOAD PUSH1 0x1 PUSH1 0x1 PUSH1 0xA0 SHL SUB AND CALLER SUB PUSH2 0x278E JUMPI JUMP JUMPDEST PUSH4 0x118CDAA7 PUSH1 0xE0 SHL PUSH1 0x0 MSTORE CALLER PUSH1 0x4 MSTORE PUSH1 0x24 PUSH1 0x0 REVERT JUMPDEST PUSH1 0x0 DUP1 SLOAD PUSH1 0x1 PUSH1 0x1 PUSH1 0xA0 SHL SUB SWAP3 DUP4 AND PUSH1 0x1 PUSH1 0x1 PUSH1 0xA0 SHL SUB NOT DUP3 AND DUP2 OR DUP4 SSTORE SWAP3 AND SWAP1 PUSH32 0x8BE0079C531659141344CD1FD0A4F28419497F9722A3DAAFE3B4186F6B6457E0 SWAP1 DUP1 LOG3 JUMP INVALID LOG2 PUSH5 0x6970667358 0x22 SLT KECCAK256 MSTORE8 0xB0 SWAP8 0x25 DUP1 0xB7 SDIV REVERT PUSH20 0x843CA2A01A5C56F34CD0C432106C86B93B66B78E DUP16 PUSH9 0xB364736F6C63430008 0x1E STOP CALLER PUSH1 0x80 DUP1 PUSH1 0x40 MSTORE CALLVALUE PUSH1 0x79 JUMPI CALLER ISZERO PUSH1 0x63 JUMPI PUSH1 0x0 DUP1 SLOAD CALLER PUSH1 0x1 PUSH1 0x1 PUSH1 0xA0 SHL SUB NOT DUP3 AND DUP2 OR DUP4 SSTORE SWAP2 PUSH1 0x1 PUSH1 0x1 PUSH1 0xA0 SHL SUB SWAP1 SWAP2 AND SWAP1 PUSH32 0x8BE0079C531659141344CD1FD0A4F28419497F9722A3DAAFE3B4186F6B6457E0 SWAP1 DUP1 LOG3 PUSH1 0x1 DUP1 SSTORE PUSH2 0x2893 SWAP1 DUP2 PUSH2 0x7F DUP3 CODECOPY RETURN JUMPDEST PUSH4 0x1E4FBDF7 PUSH1 0xE0 SHL PUSH1 0x0 MSTORE PUSH1 0x0 PUSH1 0x4 MSTORE PUSH1 0x24 PUSH1 0x0 REVERT JUMPDEST PUSH1 0x0 DUP1 REVERT INVALID PUSH1 0x80 PUSH1 0x40 MSTORE PUSH1 0x4 CALLDATASIZE LT ISZERO PUSH2 0xF JUMPI STOP JUMPDEST PUSH1 0x0 DUP1 CALLDATALOAD PUSH1 0xE0 SHR DUP1 PUSH4 0x1FB8D1F EQ PUSH2 0x1C9F JUMPI DUP1 PUSH4 0x10EB0E0E EQ PUSH2 0x1C60 JUMPI DUP1 PUSH4 0x12124848 EQ PUSH2 0x1AC9 JUMPI DUP1 PUSH4 0x24600FC3 EQ PUSH2 0x176E JUMPI DUP1 PUSH4 0x3072CF60 EQ PUSH2 0x174B JUMPI DUP1 PUSH4 0x715018A6 EQ PUSH2 0x16F1 JUMPI DUP1 PUSH4 0x7475A4CB EQ PUSH2 0x1131 JUMPI DUP1 PUSH4 0x7CE17DE4 EQ PUSH2 0xD5D JUMPI DUP1 PUSH4 0x8DA5CB5B EQ PUSH2 0xD36 JUMPI DUP1 PUSH4 0x987C543A EQ PUSH2 0x8B5 JUMPI DUP1 PUSH4 0x98BDAE43 EQ PUSH2 0x7F4 JUMPI DUP1 PUSH4 0xA52B2B88 EQ PUSH2 0x7B5 JUMPI DUP1 PUSH4 0xB2A4A5D2 EQ PUSH2 0x77C JUMPI DUP1 PUSH4 0xB9713B77 EQ PUSH2 0x6C1 JUMPI DUP1 PUSH4 0xC033A490 EQ PUSH2 0x682 JUMPI DUP1 PUSH4 0xC54168B3 EQ PUSH2 0x21B JUMPI DUP1 PUSH4 0xEB2BAB77 EQ PUSH2 0x164 JUMPI DUP1 PUSH4 0xF2FDE38B EQ PUSH2 0x113 JUMPI PUSH4 0xFA4CF5A1 EQ PUSH2 0xE8 JUMPI STOP JUMPDEST CALLVALUE PUSH2 0x110 JUMPI DUP1 PUSH1 0x3 NOT CALLDATASIZE ADD SLT PUSH2 0x110 JUMPI PUSH1 0x2 SLOAD PUSH1 0x40 MLOAD PUSH1 0x1 PUSH1 0x1 PUSH1 0xA0 SHL SUB SWAP1 SWAP2 AND DUP2 MSTORE PUSH1 0x20 SWAP1 RETURN JUMPDEST DUP1 REVERT JUMPDEST POP CALLVALUE PUSH2 0x110 JUMPI PUSH1 0x20 CALLDATASIZE PUSH1 0x3 NOT ADD SLT PUSH2 0x110 JUMPI PUSH2 0x12D PUSH2 0x1DB5 JUMP JUMPDEST PUSH2 0x135 PUSH2 0x27AD JUMP JUMPDEST PUSH1 0x1 PUSH1 0x1 PUSH1 0xA0 SHL SUB DUP2 AND ISZERO PUSH2 0x150 JUMPI PUSH2 0x14D SWAP1 PUSH2 0x27D6 JUMP JUMPDEST DUP1 RETURN JUMPDEST PUSH4 0x1E4FBDF7 PUSH1 0xE0 SHL DUP3 MSTORE PUSH1 0x4 DUP3 SWAP1 MSTORE PUSH1 0x24 DUP3 REVERT JUMPDEST POP DUP1 PUSH1 0x3 NOT CALLDATASIZE ADD SLT PUSH2 0x110 JUMPI PUSH2 0x17B CALLVALUE ISZERO ISZERO PUSH2 0x205F JUMP JUMPDEST PUSH1 0x2 SLOAD PUSH1 0x1 PUSH1 0x1 PUSH1 0xA0 SHL SUB AND CALLER SUB PUSH2 0x1DE JUMPI PUSH2 0x199 CALLVALUE PUSH1 0xF SLOAD PUSH2 0x1F38 JUMP JUMPDEST PUSH1 0xF SSTORE PUSH32 0x7272B264C9EF2A1E8E9303944736F4977B14A5761227B7B9869FECAA60F89387 PUSH1 0x40 PUSH2 0x1CB CALLVALUE PUSH1 0x10 SLOAD PUSH2 0x1F38 JUMP JUMPDEST DUP1 PUSH1 0x10 SSTORE DUP2 MLOAD SWAP1 CALLVALUE DUP3 MSTORE PUSH1 0x20 DUP3 ADD MSTORE LOG1 DUP1 RETURN JUMPDEST PUSH1 0x40 MLOAD PUSH3 0x461BCD PUSH1 0xE5 SHL DUP2 MSTORE PUSH1 0x20 PUSH1 0x4 DUP3 ADD MSTORE PUSH1 0x15 PUSH1 0x24 DUP3 ADD MSTORE PUSH21 0x13DB9B1E48199858DD1BDC9E4818D85B88199D5B99 PUSH1 0x5A SHL PUSH1 0x44 DUP3 ADD MSTORE PUSH1 0x64 SWAP1 REVERT JUMPDEST POP PUSH2 0x160 CALLDATASIZE PUSH1 0x3 NOT ADD SLT PUSH2 0x110 JUMPI PUSH2 0x231 PUSH2 0x1DB5 JUMP JUMPDEST PUSH1 0x24 CALLDATALOAD PUSH1 0x1 PUSH1 0x1 PUSH1 0xA0 SHL SUB DUP2 AND SWAP3 SWAP1 DUP4 SWAP1 SUB PUSH2 0x110 JUMPI PUSH1 0x44 CALLDATALOAD SWAP3 PUSH1 0x7 DUP5 LT ISZERO PUSH2 0x4C5 JUMPI PUSH1 0xC4 CALLDATALOAD PUSH1 0xFF DUP2 AND DUP1 SWAP2 SUB PUSH2 0x67E JUMPI PUSH1 0xE4 CALLDATALOAD SWAP1 PUSH1 0xFF DUP3 AND DUP3 SUB PUSH2 0x67A JUMPI PUSH2 0x144 CALLDATALOAD SWAP3 PUSH1 0xFF DUP5 AND DUP1 SWAP5 SUB PUSH2 0x676 JUMPI PUSH2 0x288 PUSH2 0x209B JUMP JUMPDEST PUSH1 0x14 SLOAD PUSH1 0xFF DUP2 AND PUSH2 0x63B JUMPI PUSH1 0x1 SWAP1 PUSH2 0x2A1 CALLVALUE ISZERO ISZERO PUSH2 0x205F JUMP JUMPDEST PUSH1 0xFF NOT AND OR PUSH1 0x14 SSTORE PUSH2 0x2B2 DUP7 PUSH2 0x27D6 JUMP JUMPDEST PUSH12 0xFFFFFFFFFFFFFFFFFFFFFFFF PUSH1 0xA0 SHL PUSH1 0x2 SLOAD AND OR PUSH1 0x2 SSTORE PUSH1 0xFF NOT PUSH1 0x7 SLOAD AND PUSH1 0xFF DUP8 AND OR PUSH1 0x7 SSTORE PUSH1 0x64 CALLDATALOAD PUSH1 0x8 SSTORE PUSH1 0x84 CALLDATALOAD PUSH1 0x9 SSTORE PUSH1 0xA4 CALLDATALOAD PUSH1 0xA SSTORE PUSH2 0xFF00 PUSH1 0xB SLOAD SWAP3 PUSH1 0x8 SHL AND SWAP2 PUSH2 0xFFFF NOT AND OR OR PUSH1 0xB SSTORE PUSH2 0x104 CALLDATALOAD PUSH1 0xC SSTORE PUSH2 0x124 CALLDATALOAD PUSH1 0xD SSTORE PUSH2 0xFFFF NOT PUSH1 0xE SLOAD AND OR PUSH1 0xE SSTORE CALLVALUE PUSH1 0xF SSTORE CALLVALUE PUSH1 0x10 SSTORE DUP1 PUSH1 0x12 SSTORE PUSH1 0x20 SWAP1 PUSH1 0x40 MLOAD PUSH2 0x337 DUP4 DUP3 PUSH2 0x1E71 JUMP JUMPDEST DUP2 DUP2 MSTORE PUSH1 0x0 CALLDATASIZE DUP2 CALLDATACOPY DUP1 MLOAD SWAP1 PUSH8 0xFFFFFFFFFFFFFFFF DUP3 GT PUSH2 0x58B JUMPI PUSH1 0x1 PUSH1 0x40 SHL DUP3 GT PUSH2 0x58B JUMPI DUP4 SWAP1 PUSH1 0x6 SLOAD DUP4 PUSH1 0x6 SSTORE DUP1 DUP5 LT PUSH2 0x5DA JUMPI JUMPDEST POP ADD PUSH1 0x6 DUP4 MSTORE DUP3 JUMPDEST DUP3 DUP2 LT PUSH2 0x59F JUMPI POP POP POP PUSH1 0x40 MLOAD PUSH2 0x38C DUP4 DUP3 PUSH2 0x1E71 JUMP JUMPDEST DUP2 DUP2 MSTORE DUP2 SWAP1 PUSH1 0x1 PUSH1 0x40 SHL DUP3 GT PUSH2 0x58B JUMPI DUP4 SWAP1 PUSH1 0x11 SLOAD DUP4 PUSH1 0x11 SSTORE DUP1 DUP5 LT PUSH2 0x507 JUMPI JUMPDEST POP ADD PUSH1 0x11 DUP4 MSTORE PUSH1 0x0 DUP1 MLOAD PUSH1 0x20 PUSH2 0x281E DUP4 CODECOPY DUP2 MLOAD SWAP2 MSTORE DUP5 DUP5 SWAP3 JUMPDEST DUP5 DUP5 LT PUSH2 0x4C9 JUMPI POP POP POP POP POP PUSH1 0x7 SLOAD SWAP1 PUSH1 0xFF DUP3 PUSH1 0x8 SHR AND SWAP2 PUSH2 0xFF00 NOT AND PUSH1 0x7 SSTORE PUSH1 0x1 DUP1 PUSH1 0xA0 SHL SUB PUSH1 0x2 SLOAD AND DUP1 EXTCODESIZE ISZERO PUSH2 0x4C5 JUMPI DUP2 DUP1 SWAP2 PUSH1 0x24 PUSH1 0x40 MLOAD DUP1 SWAP5 DUP2 SWAP4 PUSH4 0xD8D6E8FF PUSH1 0xE0 SHL DUP4 MSTORE PUSH2 0x41B PUSH1 0x4 DUP5 ADD DUP4 PUSH2 0x1E15 JUMP JUMPDEST GAS CALL DUP1 ISZERO PUSH2 0x4BA JUMPI SWAP1 DUP3 SWAP2 PUSH2 0x4A5 JUMPI JUMPDEST POP POP PUSH1 0x6 DUP3 LT ISZERO PUSH2 0x491 JUMPI DUP1 PUSH2 0x491 JUMPI POP SWAP1 PUSH1 0x0 PUSH32 0xE9597995B7A2AF444CC28B2B776B88B1253D701282A9BCF902D4F59750DF7C57 SWAP3 PUSH1 0x0 DUP1 MLOAD PUSH1 0x20 PUSH2 0x283E DUP4 CODECOPY DUP2 MLOAD SWAP2 MSTORE DUP4 PUSH1 0x40 MLOAD TIMESTAMP DUP2 MSTORE LOG3 PUSH1 0x40 MLOAD TIMESTAMP DUP2 MSTORE PUSH1 0x1 PUSH1 0x1 PUSH1 0xA0 SHL SUB SWAP1 SWAP4 AND SWAP3 LOG3 PUSH1 0x1 DUP1 SSTORE STOP JUMPDEST PUSH4 0x4E487B71 PUSH1 0xE0 SHL DUP2 MSTORE PUSH1 0x21 PUSH1 0x4 MSTORE PUSH1 0x24 SWAP1 REVERT JUMPDEST DUP2 PUSH2 0x4AF SWAP2 PUSH2 0x1E71 JUMP JUMPDEST PUSH2 0x110 JUMPI DUP1 CODESIZE PUSH2 0x42B JUMP JUMPDEST PUSH1 0x40 MLOAD RETURNDATASIZE DUP5 DUP3 RETURNDATACOPY RETURNDATASIZE SWAP1 REVERT JUMPDEST POP DUP1 REVERT JUMPDEST DUP1 MLOAD DUP1 MLOAD DUP5 SLOAD PUSH1 0x1 PUSH1 0x1 PUSH1 0xA0 SHL SUB NOT AND PUSH1 0x1 PUSH1 0x1 PUSH1 0xA0 SHL SUB SWAP2 SWAP1 SWAP2 AND OR DUP5 SSTORE PUSH1 0x20 ADD MLOAD PUSH1 0x1 DUP5 DUP2 ADD SWAP2 SWAP1 SWAP2 SSTORE SWAP2 PUSH1 0x2 SWAP2 ADD SWAP3 ADD SWAP3 ADD SWAP2 SWAP1 DUP6 SWAP1 PUSH2 0x3C6 JUMP JUMPDEST SWAP1 SWAP2 POP PUSH1 0x1 PUSH1 0x1 PUSH1 0xFF SHL SUB DUP2 AND DUP2 SUB PUSH2 0x577 JUMPI PUSH1 0x1 PUSH1 0x1 PUSH1 0xFF SHL SUB DUP4 AND DUP4 SUB PUSH2 0x577 JUMPI SWAP1 DUP5 SWAP2 PUSH1 0x1 SHL PUSH1 0x0 DUP1 MLOAD PUSH1 0x20 PUSH2 0x281E DUP4 CODECOPY DUP2 MLOAD SWAP2 MSTORE ADD DUP4 PUSH1 0x1 SHL PUSH1 0x0 DUP1 MLOAD PUSH1 0x20 PUSH2 0x281E DUP4 CODECOPY DUP2 MLOAD SWAP2 MSTORE ADD JUMPDEST DUP2 DUP2 LT PUSH2 0x562 JUMPI POP PUSH2 0x3AD JUMP JUMPDEST DUP6 DUP2 SSTORE PUSH1 0x1 DUP2 ADD DUP7 SWAP1 SSTORE DUP7 SWAP4 POP PUSH1 0x2 ADD PUSH2 0x555 JUMP JUMPDEST PUSH4 0x4E487B71 PUSH1 0xE0 SHL DUP5 MSTORE PUSH1 0x11 PUSH1 0x4 MSTORE PUSH1 0x24 DUP5 REVERT JUMPDEST PUSH4 0x4E487B71 PUSH1 0xE0 SHL DUP4 MSTORE PUSH1 0x41 PUSH1 0x4 MSTORE PUSH1 0x24 DUP4 REVERT JUMPDEST DUP2 MLOAD PUSH1 0x1 PUSH1 0x1 PUSH1 0xA0 SHL SUB AND PUSH32 0xF652222313E28459528D920B65115C16C04F3EFC82AAEDC97BE59F3F377C0D3F DUP3 ADD SSTORE SWAP1 DUP5 ADD SWAP1 PUSH1 0x1 ADD PUSH2 0x375 JUMP JUMPDEST PUSH32 0xF652222313E28459528D920B65115C16C04F3EFC82AAEDC97BE59F3F377C0D3F ADD DUP4 PUSH32 0xF652222313E28459528D920B65115C16C04F3EFC82AAEDC97BE59F3F377C0D3F ADD JUMPDEST DUP2 DUP2 LT PUSH2 0x62D JUMPI POP PUSH2 0x36D JUMP JUMPDEST DUP6 DUP2 SSTORE DUP7 SWAP4 POP PUSH1 0x1 ADD PUSH2 0x620 JUMP JUMPDEST PUSH1 0x40 MLOAD PUSH3 0x461BCD PUSH1 0xE5 SHL DUP2 MSTORE PUSH1 0x20 PUSH1 0x4 DUP3 ADD MSTORE PUSH1 0x13 PUSH1 0x24 DUP3 ADD MSTORE PUSH19 0x105B1C9958591E481A5B9A5D1A585B1A5E9959 PUSH1 0x6A SHL PUSH1 0x44 DUP3 ADD MSTORE PUSH1 0x64 SWAP1 REVERT JUMPDEST DUP5 DUP1 REVERT JUMPDEST DUP4 DUP1 REVERT JUMPDEST DUP3 DUP1 REVERT JUMPDEST POP CALLVALUE PUSH2 0x110 JUMPI PUSH1 0x20 CALLDATASIZE PUSH1 0x3 NOT ADD SLT PUSH2 0x110 JUMPI PUSH1 0x20 SWAP1 PUSH1 0xFF SWAP1 PUSH1 0x40 SWAP1 PUSH1 0x1 PUSH1 0x1 PUSH1 0xA0 SHL SUB PUSH2 0x6AD PUSH2 0x1DB5 JUMP JUMPDEST AND DUP2 MSTORE PUSH1 0x5 DUP5 MSTORE KECCAK256 SLOAD AND PUSH1 0x40 MLOAD SWAP1 ISZERO ISZERO DUP2 MSTORE RETURN JUMPDEST POP CALLVALUE PUSH2 0x110 JUMPI DUP1 PUSH1 0x3 NOT CALLDATASIZE ADD SLT PUSH2 0x110 JUMPI PUSH1 0x7 SLOAD PUSH1 0x8 SLOAD PUSH1 0x9 SLOAD PUSH1 0xA SLOAD PUSH1 0xB SLOAD PUSH1 0xC SLOAD PUSH1 0xD SLOAD SWAP1 PUSH1 0xE SLOAD SWAP3 PUSH1 0xF SLOAD SWAP5 PUSH1 0x10 SLOAD SWAP7 PUSH1 0x12 SLOAD SWAP9 PUSH1 0x40 MLOAD SWAP11 DUP12 PUSH1 0xFF DUP3 AND SWAP1 PUSH2 0x70B SWAP2 PUSH2 0x1E08 JUMP JUMPDEST PUSH1 0x20 DUP13 ADD SWAP1 PUSH1 0x8 SHR PUSH1 0xFF AND SWAP1 PUSH2 0x720 SWAP2 PUSH2 0x1E15 JUMP JUMPDEST PUSH1 0x40 DUP12 ADD MSTORE PUSH1 0x60 DUP11 ADD MSTORE PUSH1 0x80 DUP10 ADD MSTORE PUSH1 0xFF DUP2 AND PUSH1 0xA0 DUP10 ADD MSTORE PUSH1 0x8 SHR PUSH1 0xFF AND PUSH1 0xC0 DUP9 ADD MSTORE PUSH1 0xE0 DUP8 ADD MSTORE PUSH2 0x100 DUP7 ADD MSTORE PUSH1 0xFF DUP2 AND PUSH2 0x120 DUP7 ADD MSTORE PUSH1 0x8 SHR PUSH1 0xFF AND PUSH2 0x140 DUP6 ADD MSTORE PUSH2 0x160 DUP5 ADD MSTORE PUSH2 0x180 DUP4 ADD MSTORE PUSH2 0x1A0 DUP3 ADD MSTORE PUSH2 0x1C0 SWAP1 RETURN JUMPDEST POP CALLVALUE PUSH2 0x110 JUMPI PUSH1 0x20 CALLDATASIZE PUSH1 0x3 NOT ADD SLT PUSH2 0x110 JUMPI PUSH1 0x20 SWAP1 PUSH1 0x40 SWAP1 PUSH1 0x1 PUSH1 0x1 PUSH1 0xA0 SHL SUB PUSH2 0x7A4 PUSH2 0x1DB5 JUMP JUMPDEST AND DUP2 MSTORE PUSH1 0x15 DUP4 MSTORE KECCAK256 SLOAD PUSH1 0x40 MLOAD SWAP1 DUP2 MSTORE RETURN JUMPDEST POP CALLVALUE PUSH2 0x110 JUMPI PUSH1 0x20 CALLDATASIZE PUSH1 0x3 NOT ADD SLT PUSH2 0x110 JUMPI PUSH1 0x20 SWAP1 PUSH1 0xFF SWAP1 PUSH1 0x40 SWAP1 PUSH1 0x1 PUSH1 0x1 PUSH1 0xA0 SHL SUB PUSH2 0x7E0 PUSH2 0x1DB5 JUMP JUMPDEST AND DUP2 MSTORE PUSH1 0x4 DUP5 MSTORE KECCAK256 SLOAD AND PUSH1 0x40 MLOAD SWAP1 ISZERO ISZERO DUP2 MSTORE RETURN JUMPDEST POP CALLVALUE PUSH2 0x110 JUMPI DUP1 PUSH1 0x3 NOT CALLDATASIZE ADD SLT PUSH2 0x110 JUMPI PUSH2 0x80D PUSH2 0x209B JUMP JUMPDEST DUP1 SLOAD PUSH1 0x1 PUSH1 0x1 PUSH1 0xA0 SHL SUB AND CALLER EQ DUP1 ISZERO PUSH2 0x839 JUMPI JUMPDEST PUSH2 0x82A SWAP1 PUSH2 0x1EA0 JUMP JUMPDEST PUSH2 0x832 PUSH2 0x22A7 JUMP JUMPDEST PUSH1 0x1 DUP1 SSTORE DUP1 RETURN JUMPDEST POP PUSH1 0x2 SLOAD PUSH1 0x40 MLOAD PUSH4 0xB9181611 PUSH1 0xE0 SHL DUP2 MSTORE CALLER PUSH1 0x4 DUP3 ADD MSTORE SWAP1 PUSH1 0x20 SWAP1 DUP3 SWAP1 PUSH1 0x24 SWAP1 DUP3 SWAP1 PUSH1 0x1 PUSH1 0x1 PUSH1 0xA0 SHL SUB AND GAS STATICCALL DUP1 ISZERO PUSH2 0x4BA JUMPI DUP3 SWAP1 PUSH2 0x87A JUMPI JUMPDEST SWAP1 POP PUSH2 0x821 JUMP JUMPDEST POP PUSH1 0x20 DUP2 RETURNDATASIZE PUSH1 0x20 GT PUSH2 0x8AD JUMPI JUMPDEST DUP2 PUSH2 0x894 PUSH1 0x20 SWAP4 DUP4 PUSH2 0x1E71 JUMP JUMPDEST DUP2 ADD SUB SLT PUSH2 0x4C5 JUMPI PUSH2 0x8A8 PUSH2 0x82A SWAP2 PUSH2 0x1E93 JUMP JUMPDEST PUSH2 0x873 JUMP JUMPDEST RETURNDATASIZE SWAP2 POP PUSH2 0x887 JUMP JUMPDEST POP DUP1 PUSH1 0x3 NOT CALLDATASIZE ADD SLT PUSH2 0x110 JUMPI PUSH2 0x8C9 PUSH2 0x209B JUMP JUMPDEST PUSH1 0x8 SLOAD TIMESTAMP LT PUSH2 0xCF1 JUMPI TIMESTAMP PUSH1 0x9 SLOAD LT PUSH2 0xCB5 JUMPI PUSH1 0x6 SLOAD PUSH1 0xFF PUSH1 0xB SLOAD PUSH1 0x8 SHR AND GT ISZERO PUSH2 0xC7A JUMPI PUSH1 0xA SLOAD CALLVALUE SUB PUSH2 0xC35 JUMPI CALLER DUP2 MSTORE PUSH1 0x3 PUSH1 0x20 MSTORE PUSH1 0xFF PUSH1 0x40 DUP3 KECCAK256 SLOAD AND PUSH2 0xBF0 JUMPI PUSH1 0x2 SLOAD PUSH1 0x40 MLOAD PUSH4 0x4C0252C3 PUSH1 0xE1 SHL DUP2 MSTORE CALLER PUSH1 0x4 DUP3 ADD MSTORE SWAP1 DUP3 SWAP1 DUP3 SWAP1 PUSH1 0x24 SWAP1 DUP3 SWAP1 PUSH1 0x1 PUSH1 0x1 PUSH1 0xA0 SHL SUB AND GAS STATICCALL SWAP1 DUP2 ISZERO PUSH2 0x4BA JUMPI DUP3 SWAP1 DUP4 SWAP3 PUSH2 0xB69 JUMPI JUMPDEST POP ISZERO PUSH2 0xB2B JUMPI POP PUSH1 0x6 SLOAD PUSH1 0x1 PUSH1 0x40 SHL DUP2 LT ISZERO PUSH2 0xB17 JUMPI DUP1 PUSH1 0x1 PUSH2 0x96D SWAP3 ADD PUSH1 0x6 SSTORE PUSH1 0x6 PUSH2 0x2047 JUMP JUMPDEST DUP2 SLOAD SWAP1 PUSH1 0x3 SHL SWAP1 CALLER DUP3 SHL SWAP2 PUSH1 0x1 DUP1 PUSH1 0xA0 SHL SUB SWAP1 SHL NOT AND OR SWAP1 SSTORE CALLER DUP2 MSTORE PUSH1 0x3 PUSH1 0x20 MSTORE PUSH1 0x40 DUP2 KECCAK256 PUSH1 0x1 PUSH1 0xFF NOT DUP3 SLOAD AND OR SWAP1 SSTORE PUSH2 0x9A9 CALLVALUE PUSH1 0xF SLOAD PUSH2 0x1F38 JUMP JUMPDEST PUSH1 0xF SSTORE PUSH2 0x9B8 CALLVALUE PUSH1 0x10 SLOAD PUSH2 0x1F38 JUMP JUMPDEST PUSH1 0x10 SSTORE PUSH1 0x7 SLOAD PUSH2 0x100 PUSH1 0xFF DUP3 PUSH1 0x8 SHR AND SWAP2 PUSH2 0xFF00 NOT AND OR PUSH1 0x7 SSTORE PUSH1 0x1 DUP1 PUSH1 0xA0 SHL SUB PUSH1 0x2 SLOAD AND DUP1 EXTCODESIZE ISZERO PUSH2 0x67E JUMPI PUSH1 0x40 MLOAD PUSH4 0xD8D6E8FF PUSH1 0xE0 SHL DUP2 MSTORE DUP4 DUP2 PUSH1 0x24 DUP2 DUP4 DUP1 SWAP7 PUSH1 0x1 PUSH1 0x4 DUP5 ADD MSTORE GAS CALL DUP1 ISZERO PUSH2 0x4BA JUMPI PUSH2 0xAEC JUMPI JUMPDEST POP POP PUSH1 0x6 DUP2 LT ISZERO PUSH2 0xAD8 JUMPI DUP2 PUSH2 0xAD8 JUMPI PUSH1 0x1 SWAP1 PUSH1 0x0 DUP1 MLOAD PUSH1 0x20 PUSH2 0x283E DUP4 CODECOPY DUP2 MLOAD SWAP2 MSTORE PUSH1 0x20 PUSH1 0x40 MLOAD TIMESTAMP DUP2 MSTORE LOG3 PUSH1 0x2 SLOAD PUSH1 0x1 PUSH1 0x1 PUSH1 0xA0 SHL SUB AND DUP1 EXTCODESIZE ISZERO PUSH2 0xAD3 JUMPI PUSH1 0x0 DUP1 SWAP2 PUSH1 0x24 PUSH1 0x40 MLOAD DUP1 SWAP5 DUP2 SWAP4 PUSH4 0xC17F9E59 PUSH1 0xE0 SHL DUP4 MSTORE CALLER PUSH1 0x4 DUP5 ADD MSTORE GAS CALL DUP1 ISZERO PUSH2 0xAC7 JUMPI PUSH2 0xAB2 JUMPI JUMPDEST POP PUSH1 0x6 SLOAD PUSH1 0x40 MLOAD SWAP1 CALLVALUE DUP3 MSTORE PUSH1 0x20 DUP3 ADD MSTORE PUSH32 0xBEDD10D90B8962EB521114C7E2B49019403D371FFA1E46AFBDA7A3F1FDE8F06F PUSH1 0x40 CALLER SWAP3 LOG2 PUSH1 0x1 DUP1 SSTORE DUP1 RETURN JUMPDEST PUSH2 0xABF SWAP2 POP PUSH1 0x0 SWAP1 PUSH2 0x1E71 JUMP JUMPDEST PUSH1 0x0 CODESIZE PUSH2 0xA75 JUMP JUMPDEST PUSH1 0x40 MLOAD RETURNDATASIZE PUSH1 0x0 DUP3 RETURNDATACOPY RETURNDATASIZE SWAP1 REVERT JUMPDEST PUSH1 0x0 DUP1 REVERT JUMPDEST PUSH4 0x4E487B71 PUSH1 0xE0 SHL DUP3 MSTORE PUSH1 0x21 PUSH1 0x4 MSTORE PUSH1 0x24 DUP3 REVERT JUMPDEST DUP2 PUSH2 0xAF6 SWAP2 PUSH2 0x1E71 JUMP JUMPDEST PUSH2 0x4C5 JUMPI DUP2 CODESIZE PUSH2 0xA0D JUMP JUMPDEST PUSH4 0x4E487B71 PUSH1 0xE0 SHL PUSH1 0x0 MSTORE PUSH1 0x21 PUSH1 0x4 MSTORE PUSH1 0x24 PUSH1 0x0 REVERT JUMPDEST PUSH4 0x4E487B71 PUSH1 0xE0 SHL DUP3 MSTORE PUSH1 0x41 PUSH1 0x4 MSTORE PUSH1 0x24 DUP3 REVERT JUMPDEST PUSH1 0x44 PUSH1 0x40 MLOAD DUP1 SWAP3 PUSH3 0x461BCD PUSH1 0xE5 SHL DUP3 MSTORE PUSH1 0x20 PUSH1 0x4 DUP4 ADD MSTORE PUSH2 0xB5B DUP2 MLOAD DUP1 SWAP3 DUP2 PUSH1 0x24 DUP7 ADD MSTORE PUSH1 0x20 DUP7 DUP7 ADD SWAP2 ADD PUSH2 0x2009 JUMP JUMPDEST PUSH1 0x1F ADD PUSH1 0x1F NOT AND DUP2 ADD SUB ADD SWAP1 REVERT JUMPDEST SWAP2 POP POP RETURNDATASIZE DUP1 DUP4 DUP4 RETURNDATACOPY PUSH2 0xB7B DUP2 DUP4 PUSH2 0x1E71 JUMP JUMPDEST DUP2 ADD SWAP1 PUSH1 0x40 DUP2 DUP4 SUB SLT PUSH2 0x67E JUMPI PUSH2 0xB91 DUP2 PUSH2 0x1E93 JUMP JUMPDEST SWAP1 PUSH1 0x20 DUP2 ADD MLOAD SWAP1 PUSH8 0xFFFFFFFFFFFFFFFF DUP3 GT PUSH2 0x676 JUMPI ADD DUP3 PUSH1 0x1F DUP3 ADD SLT ISZERO PUSH2 0x67A JUMPI DUP1 MLOAD PUSH2 0xBBE DUP2 PUSH2 0x1FBD JUMP JUMPDEST SWAP4 PUSH2 0xBCC PUSH1 0x40 MLOAD SWAP6 DUP7 PUSH2 0x1E71 JUMP JUMPDEST DUP2 DUP6 MSTORE PUSH1 0x20 DUP3 DUP5 ADD ADD GT PUSH2 0x676 JUMPI PUSH2 0xBEA SWAP2 PUSH1 0x20 DUP1 DUP7 ADD SWAP2 ADD PUSH2 0x2009 JUMP JUMPDEST CODESIZE PUSH2 0x945 JUMP JUMPDEST PUSH1 0x40 MLOAD PUSH3 0x461BCD PUSH1 0xE5 SHL DUP2 MSTORE PUSH1 0x20 PUSH1 0x4 DUP3 ADD MSTORE PUSH1 0x17 PUSH1 0x24 DUP3 ADD MSTORE PUSH32 0x506C6179657220616C726561647920656E726F6C6C6564000000000000000000 PUSH1 0x44 DUP3 ADD MSTORE PUSH1 0x64 SWAP1 REVERT JUMPDEST PUSH1 0x40 MLOAD PUSH3 0x461BCD PUSH1 0xE5 SHL DUP2 MSTORE PUSH1 0x20 PUSH1 0x4 DUP3 ADD MSTORE PUSH1 0x1B PUSH1 0x24 DUP3 ADD MSTORE PUSH32 0x496E636F727265637420656E726F6C6C6D656E7420616D6F756E740000000000 PUSH1 0x44 DUP3 ADD MSTORE PUSH1 0x64 SWAP1 REVERT JUMPDEST PUSH1 0x40 MLOAD PUSH3 0x461BCD PUSH1 0xE5 SHL DUP2 MSTORE PUSH1 0x20 PUSH1 0x4 DUP3 ADD MSTORE PUSH1 0x13 PUSH1 0x24 DUP3 ADD MSTORE PUSH19 0x13585E081C1B185E595C9CC81C995858DA1959 PUSH1 0x6A SHL PUSH1 0x44 DUP3 ADD MSTORE PUSH1 0x64 SWAP1 REVERT JUMPDEST PUSH1 0x40 MLOAD PUSH3 0x461BCD PUSH1 0xE5 SHL DUP2 MSTORE PUSH1 0x20 PUSH1 0x4 DUP3 ADD MSTORE PUSH1 0x14 PUSH1 0x24 DUP3 ADD MSTORE PUSH20 0x115B9C9BDB1B1B595B9D081A185CC8195B991959 PUSH1 0x62 SHL PUSH1 0x44 DUP3 ADD MSTORE PUSH1 0x64 SWAP1 REVERT JUMPDEST PUSH1 0x40 MLOAD PUSH3 0x461BCD PUSH1 0xE5 SHL DUP2 MSTORE PUSH1 0x20 PUSH1 0x4 DUP3 ADD MSTORE PUSH1 0x1E PUSH1 0x24 DUP3 ADD MSTORE PUSH32 0x456E726F6C6C6D656E7420686173206E6F742073746172746564207965740000 PUSH1 0x44 DUP3 ADD MSTORE PUSH1 0x64 SWAP1 REVERT JUMPDEST POP CALLVALUE PUSH2 0x110 JUMPI DUP1 PUSH1 0x3 NOT CALLDATASIZE ADD SLT PUSH2 0x110 JUMPI SLOAD PUSH1 0x40 MLOAD PUSH1 0x1 PUSH1 0x1 PUSH1 0xA0 SHL SUB SWAP1 SWAP2 AND DUP2 MSTORE PUSH1 0x20 SWAP1 RETURN JUMPDEST POP CALLVALUE PUSH2 0x110 JUMPI DUP1 PUSH1 0x3 NOT CALLDATASIZE ADD SLT PUSH2 0x110 JUMPI PUSH1 0x60 PUSH2 0x200 PUSH1 0x40 MLOAD PUSH2 0xD7F DUP2 PUSH2 0x1E54 JUMP JUMPDEST DUP3 DUP2 MSTORE DUP4 PUSH1 0x20 DUP3 ADD MSTORE DUP4 PUSH1 0x40 DUP3 ADD MSTORE DUP4 DUP4 DUP3 ADD MSTORE DUP4 PUSH1 0x80 DUP3 ADD MSTORE DUP4 PUSH1 0xA0 DUP3 ADD MSTORE DUP4 PUSH1 0xC0 DUP3 ADD MSTORE DUP4 PUSH1 0xE0 DUP3 ADD MSTORE DUP4 PUSH2 0x100 DUP3 ADD MSTORE DUP4 PUSH2 0x120 DUP3 ADD MSTORE DUP4 PUSH2 0x140 DUP3 ADD MSTORE DUP4 PUSH2 0x160 DUP3 ADD MSTORE DUP4 PUSH2 0x180 DUP3 ADD MSTORE DUP4 PUSH2 0x1A0 DUP3 ADD MSTORE DUP3 PUSH2 0x1C0 DUP3 ADD MSTORE DUP4 PUSH2 0x1E0 DUP3 ADD MSTORE ADD MSTORE PUSH1 0x40 MLOAD PUSH2 0xDF1 DUP2 PUSH2 0x1E54 JUMP JUMPDEST PUSH1 0x40 MLOAD PUSH1 0x6 SLOAD DUP1 DUP3 MSTORE DUP2 PUSH1 0x20 DUP2 ADD PUSH1 0x6 DUP7 MSTORE PUSH1 0x20 DUP7 KECCAK256 SWAP3 DUP7 JUMPDEST DUP2 DUP2 LT PUSH2 0x110F JUMPI POP POP PUSH2 0xE1F SWAP3 POP SUB DUP3 PUSH2 0x1E71 JUMP JUMPDEST DUP2 MSTORE PUSH1 0x7 SLOAD PUSH1 0xFF DUP2 AND PUSH1 0x7 DUP2 LT ISZERO PUSH2 0x10FB JUMPI PUSH1 0x20 DUP4 ADD MSTORE PUSH1 0x8 SHR PUSH1 0xFF AND PUSH1 0x6 DUP2 LT ISZERO PUSH2 0x10E7 JUMPI PUSH1 0x40 DUP3 ADD MSTORE PUSH1 0x8 SLOAD PUSH1 0x60 DUP3 ADD MSTORE PUSH1 0x9 SLOAD PUSH1 0x80 DUP3 ADD MSTORE PUSH1 0xA SLOAD PUSH1 0xA0 DUP3 ADD MSTORE PUSH1 0xFF PUSH1 0xB SLOAD DUP2 DUP2 AND PUSH1 0xC0 DUP5 ADD MSTORE PUSH1 0x8 SHR AND PUSH1 0xE0 DUP3 ADD MSTORE PUSH1 0xC SLOAD PUSH2 0x100 DUP3 ADD MSTORE PUSH1 0xD SLOAD PUSH2 0x120 DUP3 ADD MSTORE PUSH1 0xFF PUSH1 0xE SLOAD DUP2 DUP2 AND PUSH2 0x140 DUP5 ADD MSTORE PUSH1 0x8 SHR AND PUSH2 0x160 DUP3 ADD MSTORE PUSH1 0xF SLOAD PUSH2 0x180 DUP3 ADD MSTORE PUSH1 0x10 SLOAD PUSH2 0x1A0 DUP3 ADD MSTORE PUSH1 0x11 SLOAD PUSH8 0xFFFFFFFFFFFFFFFF DUP2 GT PUSH2 0x58B JUMPI PUSH1 0x20 DUP2 PUSH1 0x5 SHL ADD SWAP1 PUSH2 0xEDB PUSH1 0x40 MLOAD SWAP3 DUP4 PUSH2 0x1E71 JUMP JUMPDEST DUP1 DUP3 MSTORE PUSH1 0x11 DUP5 MSTORE DUP4 PUSH1 0x0 DUP1 MLOAD PUSH1 0x20 PUSH2 0x281E DUP4 CODECOPY DUP2 MLOAD SWAP2 MSTORE PUSH1 0x20 DUP5 ADD JUMPDEST DUP4 DUP4 LT PUSH2 0x10B3 JUMPI POP POP POP POP PUSH2 0x1C0 DUP3 ADD MSTORE PUSH1 0x12 SLOAD PUSH2 0x1E0 DUP3 ADD MSTORE PUSH1 0x40 MLOAD PUSH1 0x13 SLOAD DUP1 DUP3 MSTORE DUP2 PUSH1 0x20 DUP2 ADD PUSH1 0x13 DUP7 MSTORE PUSH1 0x20 DUP7 KECCAK256 SWAP3 DUP7 JUMPDEST DUP2 DUP2 LT PUSH2 0x1091 JUMPI POP POP PUSH2 0xF3F SWAP3 POP SUB DUP3 PUSH2 0x1E71 JUMP JUMPDEST PUSH2 0x200 DUP3 ADD MSTORE PUSH1 0x40 MLOAD SWAP1 PUSH1 0x20 DUP3 MSTORE PUSH2 0xF65 DUP2 MLOAD PUSH2 0x220 PUSH1 0x20 DUP6 ADD MSTORE PUSH2 0x240 DUP5 ADD SWAP1 PUSH2 0x1DCB JUMP JUMPDEST SWAP3 PUSH2 0xF78 PUSH1 0x20 DUP4 ADD MLOAD PUSH1 0x40 DUP6 ADD SWAP1 PUSH2 0x1E08 JUMP JUMPDEST PUSH2 0xF8A PUSH1 0x40 DUP4 ADD MLOAD PUSH1 0x60 DUP6 ADD SWAP1 PUSH2 0x1E15 JUMP JUMPDEST PUSH1 0x60 DUP3 ADD MLOAD PUSH1 0x80 DUP5 ADD MSTORE PUSH1 0x80 DUP3 ADD MLOAD PUSH1 0xA0 DUP5 ADD MSTORE PUSH1 0xA0 DUP3 ADD MLOAD PUSH1 0xC0 DUP5 ADD MSTORE PUSH1 0xFF PUSH1 0xC0 DUP4 ADD MLOAD AND PUSH1 0xE0 DUP5 ADD MSTORE PUSH1 0xFF PUSH1 0xE0 DUP4 ADD MLOAD AND PUSH2 0x100 DUP5 ADD MSTORE PUSH2 0x100 DUP3 ADD MLOAD PUSH2 0x120 DUP5 ADD MSTORE PUSH2 0x120 DUP3 ADD MLOAD PUSH2 0x140 DUP5 ADD MSTORE PUSH1 0xFF PUSH2 0x140 DUP4 ADD MLOAD AND PUSH2 0x160 DUP5 ADD MSTORE PUSH1 0xFF PUSH2 0x160 DUP4 ADD MLOAD AND PUSH2 0x180 DUP5 ADD MSTORE PUSH2 0x180 DUP3 ADD MLOAD PUSH2 0x1A0 DUP5 ADD MSTORE PUSH2 0x1A0 DUP3 ADD MLOAD PUSH2 0x1C0 DUP5 ADD MSTORE PUSH2 0x1C0 DUP3 ADD MLOAD SWAP4 PUSH1 0x1F NOT DUP5 DUP3 SUB ADD PUSH2 0x1E0 DUP6 ADD MSTORE PUSH1 0x20 DUP1 DUP7 MLOAD SWAP3 DUP4 DUP2 MSTORE ADD SWAP6 ADD SWAP2 JUMPDEST DUP2 DUP2 LT PUSH2 0x1066 JUMPI DUP5 DUP1 PUSH2 0x1062 DUP9 PUSH2 0x200 DUP9 PUSH2 0x1E0 DUP2 ADD MLOAD DUP3 DUP7 ADD MSTORE ADD MLOAD PUSH1 0x1F NOT DUP5 DUP4 SUB ADD PUSH2 0x220 DUP6 ADD MSTORE PUSH2 0x1DCB JUMP JUMPDEST SUB SWAP1 RETURN JUMPDEST DUP3 MLOAD DUP1 MLOAD PUSH1 0x1 PUSH1 0x1 PUSH1 0xA0 SHL SUB AND DUP8 MSTORE PUSH1 0x20 SWAP1 DUP2 ADD MLOAD DUP2 DUP9 ADD MSTORE PUSH1 0x40 SWAP1 SWAP7 ADD SWAP6 SWAP1 SWAP3 ADD SWAP2 PUSH1 0x1 ADD PUSH2 0x1033 JUMP JUMPDEST DUP5 SLOAD PUSH1 0x1 PUSH1 0x1 PUSH1 0xA0 SHL SUB AND DUP4 MSTORE PUSH1 0x1 SWAP5 DUP6 ADD SWAP5 DUP7 SWAP5 POP PUSH1 0x20 SWAP1 SWAP4 ADD SWAP3 ADD PUSH2 0xF2A JUMP JUMPDEST PUSH1 0x2 PUSH1 0x20 PUSH1 0x1 SWAP3 PUSH1 0x40 MLOAD PUSH2 0x10C6 DUP2 PUSH2 0x1E22 JUMP JUMPDEST DUP5 DUP1 PUSH1 0xA0 SHL SUB DUP7 SLOAD AND DUP2 MSTORE DUP5 DUP7 ADD SLOAD DUP4 DUP3 ADD MSTORE DUP2 MSTORE ADD SWAP3 ADD SWAP3 ADD SWAP2 SWAP1 PUSH2 0xEF7 JUMP JUMPDEST PUSH4 0x4E487B71 PUSH1 0xE0 SHL DUP4 MSTORE PUSH1 0x21 PUSH1 0x4 MSTORE PUSH1 0x24 DUP4 REVERT JUMPDEST PUSH4 0x4E487B71 PUSH1 0xE0 SHL DUP5 MSTORE PUSH1 0x21 PUSH1 0x4 MSTORE PUSH1 0x24 DUP5 REVERT JUMPDEST DUP5 SLOAD PUSH1 0x1 PUSH1 0x1 PUSH1 0xA0 SHL SUB AND DUP4 MSTORE PUSH1 0x1 SWAP5 DUP6 ADD SWAP5 DUP7 SWAP5 POP PUSH1 0x20 SWAP1 SWAP4 ADD SWAP3 ADD PUSH2 0xE0A JUMP JUMPDEST POP CALLVALUE PUSH2 0x110 JUMPI DUP1 PUSH1 0x3 NOT CALLDATASIZE ADD SLT PUSH2 0x110 JUMPI PUSH2 0x114A PUSH2 0x209B JUMP JUMPDEST PUSH1 0x12 SLOAD DUP1 ISZERO SWAP1 DUP2 ISZERO PUSH2 0x16A5 JUMPI JUMPDEST POP ISZERO PUSH2 0x166C JUMPI CALLER DUP2 MSTORE PUSH1 0x4 PUSH1 0x20 MSTORE PUSH1 0xFF PUSH1 0x40 DUP3 KECCAK256 SLOAD AND PUSH2 0x1627 JUMPI CALLER DUP2 MSTORE PUSH1 0x3 PUSH1 0x20 MSTORE PUSH1 0xFF PUSH1 0x40 DUP3 KECCAK256 SLOAD AND ISZERO PUSH2 0x15E2 JUMPI PUSH1 0xC SLOAD TIMESTAMP LT PUSH2 0x159D JUMPI PUSH1 0xD SLOAD TIMESTAMP LT ISZERO PUSH2 0x1564 JUMPI PUSH1 0xFF PUSH1 0x7 SLOAD PUSH1 0x8 SHR AND PUSH1 0x6 DUP2 LT ISZERO PUSH2 0xAD8 JUMPI PUSH1 0x2 DUP2 SUB PUSH2 0x1527 JUMPI PUSH1 0xE SLOAD PUSH1 0xFF DUP1 DUP3 AND SWAP2 PUSH1 0x8 SHR AND LT ISZERO PUSH2 0x14EB JUMPI PUSH1 0x3 EQ PUSH2 0x14DE JUMPI JUMPDEST PUSH1 0xC SLOAD PUSH2 0x11DB DUP2 TIMESTAMP PUSH2 0x1F5B JUMP JUMPDEST SWAP1 PUSH1 0x64 DUP3 MUL SWAP2 DUP1 DUP4 DIV PUSH1 0x64 EQ SWAP1 ISZERO OR ISZERO PUSH2 0x14C2 JUMPI SWAP1 PUSH2 0x11FF PUSH2 0x1205 SWAP3 PUSH1 0xD SLOAD PUSH2 0x1F5B JUMP JUMPDEST SWAP1 PUSH2 0x1F68 JUMP JUMPDEST PUSH1 0x11 SLOAD DUP1 ISZERO PUSH2 0x14D6 JUMPI PUSH1 0x0 NOT DUP2 ADD SWAP1 DUP2 GT PUSH2 0x14C2 JUMPI PUSH2 0x1225 PUSH1 0x1 SWAP2 PUSH2 0x1F88 JUMP JUMPDEST POP ADD SLOAD SWAP1 JUMPDEST PUSH1 0x64 DUP3 MUL SWAP2 DUP1 DUP4 DIV PUSH1 0x64 EQ SWAP1 ISZERO OR ISZERO PUSH2 0x14C2 JUMPI PUSH2 0x1254 SWAP1 PUSH2 0x124E PUSH1 0xF SLOAD DUP1 SWAP5 PUSH2 0x1F68 JUMP JUMPDEST SWAP1 PUSH2 0x1F5B JUMP JUMPDEST DUP2 DUP2 MUL SWAP2 DUP2 DUP4 DIV EQ SWAP1 ISZERO OR ISZERO PUSH2 0x14AE JUMPI PUSH1 0x64 SWAP1 DIV PUSH2 0x1274 DUP2 PUSH1 0x10 SLOAD PUSH2 0x1F5B JUMP JUMPDEST PUSH1 0x10 SSTORE PUSH1 0xE SLOAD PUSH1 0xFF DUP2 PUSH1 0x8 SHR AND PUSH1 0xFF DUP2 EQ PUSH2 0x577 JUMPI PUSH1 0x1 PUSH2 0xFF00 SWAP2 ADD PUSH1 0x8 SHL AND SWAP1 PUSH2 0xFF00 NOT AND OR PUSH1 0xE SSTORE CALLER DUP3 MSTORE PUSH1 0x4 PUSH1 0x20 MSTORE PUSH1 0x40 DUP3 KECCAK256 PUSH1 0x1 PUSH1 0xFF NOT DUP3 SLOAD AND OR SWAP1 SSTORE PUSH1 0x40 MLOAD PUSH2 0x12C1 DUP2 PUSH2 0x1E22 JUMP JUMPDEST CALLER DUP2 MSTORE DUP2 PUSH1 0x20 DUP3 ADD MSTORE PUSH1 0x11 SLOAD PUSH1 0x1 PUSH1 0x40 SHL DUP2 LT ISZERO PUSH2 0x149A JUMPI DUP1 PUSH1 0x1 PUSH2 0x12E9 SWAP3 ADD PUSH1 0x11 SSTORE PUSH2 0x1F88 JUMP JUMPDEST PUSH2 0x1486 JUMPI DUP2 MLOAD DUP2 SLOAD PUSH1 0x1 PUSH1 0x1 PUSH1 0xA0 SHL SUB NOT AND PUSH1 0x1 PUSH1 0x1 PUSH1 0xA0 SHL SUB SWAP2 SWAP1 SWAP2 AND OR DUP2 SSTORE PUSH1 0x20 SWAP1 SWAP2 ADD MLOAD PUSH1 0x1 SWAP1 SWAP2 ADD SSTORE DUP2 DUP1 DUP1 DUP1 DUP5 CALLER GAS CALL PUSH2 0x1326 PUSH2 0x1FD9 JUMP JUMPDEST POP ISZERO PUSH2 0x1448 JUMPI PUSH1 0xFF PUSH1 0xE SLOAD DUP2 DUP2 PUSH1 0x8 SHR AND DUP1 SWAP4 PUSH1 0x10 SLOAD PUSH1 0x40 MLOAD SWAP2 DUP3 MSTORE PUSH1 0x20 DUP3 ADD MSTORE PUSH32 0xBBDD894F5E6D754C18172761A1A461095C26DE58905E706A8C33657573D40672 PUSH1 0x40 CALLER SWAP3 LOG3 AND SUB PUSH2 0x1383 JUMPI PUSH2 0x137B PUSH2 0x2214 JUMP JUMPDEST PUSH2 0x832 PUSH2 0x2724 JUMP JUMPDEST PUSH1 0x7 SLOAD PUSH2 0x300 PUSH1 0xFF DUP3 PUSH1 0x8 SHR AND SWAP2 PUSH2 0xFF00 NOT AND OR PUSH1 0x7 SSTORE PUSH1 0x1 DUP1 PUSH1 0xA0 SHL SUB PUSH1 0x2 SLOAD AND DUP1 EXTCODESIZE ISZERO PUSH2 0x67E JUMPI PUSH1 0x40 MLOAD PUSH4 0xD8D6E8FF PUSH1 0xE0 SHL DUP2 MSTORE DUP4 DUP2 PUSH1 0x24 DUP2 DUP4 DUP1 SWAP7 PUSH1 0x3 PUSH1 0x4 DUP5 ADD MSTORE GAS CALL DUP1 ISZERO PUSH2 0x4BA JUMPI PUSH2 0x1433 JUMPI JUMPDEST POP POP TIMESTAMP PUSH1 0x12 SSTORE PUSH32 0xAE3BA0777E3D90978A607FCA3C27811130DEB71F173B067E83F1BCBD10173B4A PUSH1 0x20 PUSH1 0x40 MLOAD TIMESTAMP DUP2 MSTORE LOG1 PUSH1 0x6 DUP2 LT ISZERO PUSH2 0xAD8 JUMPI DUP2 PUSH2 0xAD8 JUMPI PUSH1 0x3 SWAP1 PUSH1 0x0 DUP1 MLOAD PUSH1 0x20 PUSH2 0x283E DUP4 CODECOPY DUP2 MLOAD SWAP2 MSTORE PUSH1 0x20 PUSH1 0x40 MLOAD TIMESTAMP DUP2 MSTORE LOG3 PUSH2 0x832 JUMP JUMPDEST DUP2 PUSH2 0x143D SWAP2 PUSH2 0x1E71 JUMP JUMPDEST PUSH2 0x4C5 JUMPI DUP2 CODESIZE PUSH2 0x13D5 JUMP JUMPDEST PUSH1 0x40 MLOAD PUSH3 0x461BCD PUSH1 0xE5 SHL DUP2 MSTORE PUSH1 0x20 PUSH1 0x4 DUP3 ADD MSTORE PUSH1 0x16 PUSH1 0x24 DUP3 ADD MSTORE PUSH22 0x14185E5BDD5D081D1C985B9CD9995C8819985A5B1959 PUSH1 0x52 SHL PUSH1 0x44 DUP3 ADD MSTORE PUSH1 0x64 SWAP1 REVERT JUMPDEST PUSH4 0x4E487B71 PUSH1 0xE0 SHL DUP5 MSTORE PUSH1 0x4 DUP5 SWAP1 MSTORE PUSH1 0x24 DUP5 REVERT JUMPDEST PUSH4 0x4E487B71 PUSH1 0xE0 SHL DUP5 MSTORE PUSH1 0x41 PUSH1 0x4 MSTORE PUSH1 0x24 DUP5 REVERT JUMPDEST PUSH4 0x4E487B71 PUSH1 0xE0 SHL DUP3 MSTORE PUSH1 0x11 PUSH1 0x4 MSTORE PUSH1 0x24 DUP3 REVERT JUMPDEST PUSH4 0x4E487B71 PUSH1 0xE0 SHL DUP4 MSTORE PUSH1 0x11 PUSH1 0x4 MSTORE PUSH1 0x24 DUP4 REVERT JUMPDEST POP DUP2 SWAP1 PUSH2 0x122A JUMP JUMPDEST PUSH2 0x14E6 PUSH2 0x20BD JUMP JUMPDEST PUSH2 0x11CE JUMP JUMPDEST PUSH1 0x40 MLOAD PUSH3 0x461BCD PUSH1 0xE5 SHL DUP2 MSTORE PUSH1 0x20 PUSH1 0x4 DUP3 ADD MSTORE PUSH1 0x14 PUSH1 0x24 DUP3 ADD MSTORE PUSH20 0x105B1B081C9BDD5B991CC818DBDB5C1B195D1959 PUSH1 0x62 SHL PUSH1 0x44 DUP3 ADD MSTORE PUSH1 0x64 SWAP1 REVERT JUMPDEST PUSH1 0x40 MLOAD PUSH3 0x461BCD PUSH1 0xE5 SHL DUP2 MSTORE PUSH1 0x20 PUSH1 0x4 DUP3 ADD MSTORE PUSH1 0x15 PUSH1 0x24 DUP3 ADD MSTORE PUSH21 0x4D697373696F6E206973206E6F7420416374697665 PUSH1 0x58 SHL PUSH1 0x44 DUP3 ADD MSTORE PUSH1 0x64 SWAP1 REVERT JUMPDEST PUSH1 0x40 MLOAD PUSH3 0x461BCD PUSH1 0xE5 SHL DUP2 MSTORE PUSH1 0x20 PUSH1 0x4 DUP3 ADD MSTORE PUSH1 0x11 PUSH1 0x24 DUP3 ADD MSTORE PUSH17 0x135A5CDCDA5BDB881A185CC8195B991959 PUSH1 0x7A SHL PUSH1 0x44 DUP3 ADD MSTORE PUSH1 0x64 SWAP1 REVERT JUMPDEST PUSH1 0x40 MLOAD PUSH3 0x461BCD PUSH1 0xE5 SHL DUP2 MSTORE PUSH1 0x20 PUSH1 0x4 DUP3 ADD MSTORE PUSH1 0x1B PUSH1 0x24 DUP3 ADD MSTORE PUSH32 0x4D697373696F6E20686173206E6F742073746172746564207965740000000000 PUSH1 0x44 DUP3 ADD MSTORE PUSH1 0x64 SWAP1 REVERT JUMPDEST PUSH1 0x40 MLOAD PUSH3 0x461BCD PUSH1 0xE5 SHL DUP2 MSTORE PUSH1 0x20 PUSH1 0x4 DUP3 ADD MSTORE PUSH1 0x17 PUSH1 0x24 DUP3 ADD MSTORE PUSH32 0x4E6F7420656E726F6C6C656420696E206D697373696F6E000000000000000000 PUSH1 0x44 DUP3 ADD MSTORE PUSH1 0x64 SWAP1 REVERT JUMPDEST PUSH1 0x40 MLOAD PUSH3 0x461BCD PUSH1 0xE5 SHL DUP2 MSTORE PUSH1 0x20 PUSH1 0x4 DUP3 ADD MSTORE PUSH1 0x1F PUSH1 0x24 DUP3 ADD MSTORE PUSH32 0x506C6179657220616C726561647920776F6E2074686973206D697373696F6E00 PUSH1 0x44 DUP3 ADD MSTORE PUSH1 0x64 SWAP1 REVERT JUMPDEST PUSH1 0x40 MLOAD PUSH3 0x461BCD PUSH1 0xE5 SHL DUP2 MSTORE PUSH1 0x20 PUSH1 0x4 DUP3 ADD MSTORE PUSH1 0x11 PUSH1 0x24 DUP3 ADD MSTORE PUSH17 0x135A5CDCDA5BDB881A5CC81C185D5CD959 PUSH1 0x7A SHL PUSH1 0x44 DUP3 ADD MSTORE PUSH1 0x64 SWAP1 REVERT JUMPDEST SWAP2 SWAP1 POP PUSH1 0xE SLOAD SWAP2 PUSH1 0x1 PUSH1 0xFF DUP5 PUSH1 0x8 SHR AND ADD PUSH1 0xFF DUP2 GT PUSH2 0x14C2 JUMPI SWAP2 SWAP3 PUSH2 0x16DD SWAP3 PUSH1 0xFF SWAP1 DUP2 AND SWAP2 AND SUB PUSH2 0x16E6 JUMPI PUSH2 0xFFFF PUSH1 0x3C JUMPDEST AND SWAP1 PUSH2 0x1F38 JUMP JUMPDEST TIMESTAMP LT ISZERO CODESIZE PUSH2 0x1157 JUMP JUMPDEST PUSH2 0xFFFF PUSH2 0x12C PUSH2 0x16D6 JUMP JUMPDEST POP CALLVALUE PUSH2 0x110 JUMPI DUP1 PUSH1 0x3 NOT CALLDATASIZE ADD SLT PUSH2 0x110 JUMPI PUSH2 0x170A PUSH2 0x27AD JUMP JUMPDEST DUP1 SLOAD PUSH1 0x1 PUSH1 0x1 PUSH1 0xA0 SHL SUB NOT DUP2 AND DUP3 SSTORE DUP2 SWAP1 PUSH1 0x1 PUSH1 0x1 PUSH1 0xA0 SHL SUB AND PUSH32 0x8BE0079C531659141344CD1FD0A4F28419497F9722A3DAAFE3B4186F6B6457E0 DUP3 DUP1 LOG3 DUP1 RETURN JUMPDEST POP CALLVALUE PUSH2 0x110 JUMPI DUP1 PUSH1 0x3 NOT CALLDATASIZE ADD SLT PUSH2 0x110 JUMPI PUSH1 0x20 PUSH1 0xFF PUSH1 0x14 SLOAD AND PUSH1 0x40 MLOAD SWAP1 ISZERO ISZERO DUP2 MSTORE RETURN JUMPDEST POP CALLVALUE PUSH2 0x110 JUMPI DUP1 PUSH1 0x3 NOT CALLDATASIZE ADD SLT PUSH2 0x110 JUMPI PUSH2 0x1787 PUSH2 0x209B JUMP JUMPDEST DUP1 SLOAD PUSH1 0x1 PUSH1 0x1 PUSH1 0xA0 SHL SUB AND CALLER EQ DUP1 ISZERO PUSH2 0x1A4D JUMPI JUMPDEST PUSH2 0x17A4 SWAP1 PUSH2 0x1EA0 JUMP JUMPDEST PUSH1 0xFF PUSH1 0x7 SLOAD PUSH1 0x8 SHR AND PUSH1 0x6 DUP2 LT ISZERO PUSH2 0xAD8 JUMPI PUSH1 0x4 DUP2 EQ SWAP1 DUP2 ISZERO PUSH2 0x1A42 JUMPI JUMPDEST POP ISZERO PUSH2 0x1A09 JUMPI SELFBALANCE DUP1 ISZERO PUSH2 0x17DE DUP2 ISZERO PUSH2 0x17D9 DUP2 PUSH2 0x26E1 JUMP JUMPDEST PUSH2 0x26E1 JUMP JUMPDEST PUSH1 0x19 DUP3 MUL SWAP1 DUP3 DUP3 DIV PUSH1 0x19 EQ OR ISZERO PUSH2 0x14C2 JUMPI PUSH1 0x64 PUSH2 0x17FD SWAP2 DIV DUP1 SWAP3 PUSH2 0x1F5B JUMP JUMPDEST PUSH1 0x2 SLOAD PUSH1 0x40 MLOAD PUSH4 0x8DA5CB5B PUSH1 0xE0 SHL DUP2 MSTORE DUP5 SWAP2 PUSH1 0x20 SWAP1 DUP3 SWAP1 PUSH1 0x4 SWAP1 DUP3 SWAP1 PUSH1 0x1 PUSH1 0x1 PUSH1 0xA0 SHL SUB AND GAS STATICCALL SWAP1 DUP2 ISZERO PUSH2 0x4BA JUMPI DUP3 SWAP2 DUP6 SWAP2 DUP4 SWAP2 PUSH2 0x19C1 JUMPI JUMPDEST POP DUP3 SWAP2 DUP3 SWAP2 PUSH1 0x1 PUSH1 0x1 PUSH1 0xA0 SHL SUB AND GAS CALL PUSH2 0x184E PUSH2 0x1FD9 JUMP JUMPDEST POP ISZERO PUSH2 0x1984 JUMPI DUP3 DUP1 DUP1 DUP1 DUP5 PUSH1 0x1 DUP1 PUSH1 0xA0 SHL SUB PUSH1 0x2 SLOAD AND GAS CALL PUSH2 0x186E PUSH2 0x1FD9 JUMP JUMPDEST POP ISZERO PUSH2 0x193F JUMPI PUSH1 0x1 DUP1 PUSH1 0xA0 SHL SUB PUSH1 0x2 SLOAD AND DUP4 PUSH1 0xFF PUSH1 0x7 SLOAD AND DUP3 EXTCODESIZE ISZERO PUSH2 0x4C5 JUMPI PUSH1 0x44 PUSH2 0x18B6 SWAP2 DUP4 PUSH1 0x40 MLOAD SWAP6 DUP7 SWAP5 DUP6 SWAP4 PUSH4 0x4E1E9D1 PUSH1 0xE5 SHL DUP6 MSTORE DUP10 PUSH1 0x4 DUP7 ADD MSTORE PUSH1 0x24 DUP6 ADD SWAP1 PUSH2 0x1E08 JUMP JUMPDEST GAS CALL DUP1 ISZERO PUSH2 0x1934 JUMPI PUSH2 0x18FB JUMPI JUMPDEST POP PUSH32 0xD66662C0DED9E58FD31D5E44944BCFD07FFC15E6927ECC1382E7941CB7BD24C4 SWAP2 PUSH1 0x40 SWAP2 DUP3 MLOAD SWAP2 DUP3 MSTORE PUSH1 0x20 DUP3 ADD MSTORE LOG1 PUSH1 0x1 DUP1 SSTORE DUP1 RETURN JUMPDEST SWAP2 DUP4 PUSH2 0x192B PUSH1 0x40 SWAP4 SWAP6 PUSH32 0xD66662C0DED9E58FD31D5E44944BCFD07FFC15E6927ECC1382E7941CB7BD24C4 SWAP6 PUSH2 0x1E71 JUMP JUMPDEST SWAP4 SWAP2 POP SWAP2 PUSH2 0x18C3 JUMP JUMPDEST PUSH1 0x40 MLOAD RETURNDATASIZE DUP7 DUP3 RETURNDATACOPY RETURNDATASIZE SWAP1 REVERT JUMPDEST PUSH1 0x40 MLOAD PUSH3 0x461BCD PUSH1 0xE5 SHL DUP2 MSTORE PUSH1 0x20 PUSH1 0x4 DUP3 ADD MSTORE PUSH1 0x17 PUSH1 0x24 DUP3 ADD MSTORE PUSH32 0x466163746F7279207472616E73666572206661696C6564000000000000000000 PUSH1 0x44 DUP3 ADD MSTORE PUSH1 0x64 SWAP1 REVERT JUMPDEST PUSH1 0x40 MLOAD PUSH3 0x461BCD PUSH1 0xE5 SHL DUP2 MSTORE PUSH1 0x20 PUSH1 0x4 DUP3 ADD MSTORE PUSH1 0x15 PUSH1 0x24 DUP3 ADD MSTORE PUSH21 0x13DDDB995C881D1C985B9CD9995C8819985A5B1959 PUSH1 0x5A SHL PUSH1 0x44 DUP3 ADD MSTORE PUSH1 0x64 SWAP1 REVERT JUMPDEST SWAP3 POP POP POP PUSH1 0x20 DUP2 RETURNDATASIZE PUSH1 0x20 GT PUSH2 0x1A01 JUMPI JUMPDEST DUP2 PUSH2 0x19DE PUSH1 0x20 SWAP4 DUP4 PUSH2 0x1E71 JUMP JUMPDEST DUP2 ADD SUB SLT PUSH2 0x4C5 JUMPI MLOAD PUSH1 0x1 PUSH1 0x1 PUSH1 0xA0 SHL SUB DUP2 AND DUP2 SUB PUSH2 0x4C5 JUMPI DUP2 SWAP1 DUP5 SWAP1 DUP3 PUSH2 0x1836 JUMP JUMPDEST RETURNDATASIZE SWAP2 POP PUSH2 0x19D1 JUMP JUMPDEST PUSH1 0x40 MLOAD PUSH3 0x461BCD PUSH1 0xE5 SHL DUP2 MSTORE PUSH1 0x20 PUSH1 0x4 DUP3 ADD MSTORE PUSH1 0x11 PUSH1 0x24 DUP3 ADD MSTORE PUSH17 0x135A5CDCDA5BDB881B9BDD08195B991959 PUSH1 0x7A SHL PUSH1 0x44 DUP3 ADD MSTORE PUSH1 0x64 SWAP1 REVERT JUMPDEST PUSH1 0x5 SWAP2 POP EQ CODESIZE PUSH2 0x17C2 JUMP JUMPDEST POP PUSH1 0x2 SLOAD PUSH1 0x40 MLOAD PUSH4 0xB9181611 PUSH1 0xE0 SHL DUP2 MSTORE CALLER PUSH1 0x4 DUP3 ADD MSTORE SWAP1 PUSH1 0x20 SWAP1 DUP3 SWAP1 PUSH1 0x24 SWAP1 DUP3 SWAP1 PUSH1 0x1 PUSH1 0x1 PUSH1 0xA0 SHL SUB AND GAS STATICCALL DUP1 ISZERO PUSH2 0x4BA JUMPI DUP3 SWAP1 PUSH2 0x1A8E JUMPI JUMPDEST SWAP1 POP PUSH2 0x179B JUMP JUMPDEST POP PUSH1 0x20 DUP2 RETURNDATASIZE PUSH1 0x20 GT PUSH2 0x1AC1 JUMPI JUMPDEST DUP2 PUSH2 0x1AA8 PUSH1 0x20 SWAP4 DUP4 PUSH2 0x1E71 JUMP JUMPDEST DUP2 ADD SUB SLT PUSH2 0x4C5 JUMPI PUSH2 0x1ABC PUSH2 0x17A4 SWAP2 PUSH2 0x1E93 JUMP JUMPDEST PUSH2 0x1A87 JUMP JUMPDEST RETURNDATASIZE SWAP2 POP PUSH2 0x1A9B JUMP JUMPDEST POP CALLVALUE PUSH2 0x110 JUMPI DUP1 PUSH1 0x3 NOT CALLDATASIZE ADD SLT PUSH2 0x110 JUMPI DUP1 SLOAD PUSH1 0x1 PUSH1 0x1 PUSH1 0xA0 SHL SUB AND CALLER EQ DUP1 ISZERO PUSH2 0x1BE4 JUMPI JUMPDEST PUSH2 0x1AF7 SWAP1 PUSH2 0x1EA0 JUMP JUMPDEST PUSH2 0x1AFF PUSH2 0x209B JUMP JUMPDEST PUSH1 0xD SLOAD TIMESTAMP GT ISZERO PUSH2 0x1BA7 JUMPI PUSH1 0xFF PUSH1 0x7 SLOAD PUSH1 0x8 SHR AND PUSH1 0x6 DUP2 LT ISZERO PUSH2 0xAD8 JUMPI PUSH1 0x2 DUP2 EQ SWAP1 DUP2 ISZERO PUSH2 0x1B9C JUMPI JUMPDEST POP ISZERO PUSH2 0x1B57 JUMPI PUSH1 0xE SLOAD PUSH1 0x8 SHR PUSH1 0xFF AND PUSH2 0x1B42 JUMPI PUSH2 0x82A PUSH2 0x2180 JUMP JUMPDEST PUSH2 0x1B4A PUSH2 0x2214 JUMP JUMPDEST PUSH2 0x1B52 PUSH2 0x2724 JUMP JUMPDEST PUSH2 0x832 JUMP JUMPDEST PUSH1 0x40 MLOAD PUSH3 0x461BCD PUSH1 0xE5 SHL DUP2 MSTORE PUSH1 0x20 PUSH1 0x4 DUP3 ADD MSTORE PUSH1 0x1B PUSH1 0x24 DUP3 ADD MSTORE PUSH32 0x4D697373696F6E2063616E6E6F742062652066696E616C697A65640000000000 PUSH1 0x44 DUP3 ADD MSTORE PUSH1 0x64 SWAP1 REVERT JUMPDEST PUSH1 0x3 SWAP2 POP EQ CODESIZE PUSH2 0x1B27 JUMP JUMPDEST PUSH1 0x40 MLOAD PUSH3 0x461BCD PUSH1 0xE5 SHL DUP2 MSTORE PUSH1 0x20 PUSH1 0x4 DUP3 ADD MSTORE PUSH1 0x15 PUSH1 0x24 DUP3 ADD MSTORE PUSH21 0x135A5CDCDA5BDB881B9BDD08195B991959081E595D PUSH1 0x5A SHL PUSH1 0x44 DUP3 ADD MSTORE PUSH1 0x64 SWAP1 REVERT JUMPDEST POP PUSH1 0x2 SLOAD PUSH1 0x40 MLOAD PUSH4 0xB9181611 PUSH1 0xE0 SHL DUP2 MSTORE CALLER PUSH1 0x4 DUP3 ADD MSTORE SWAP1 PUSH1 0x20 SWAP1 DUP3 SWAP1 PUSH1 0x24 SWAP1 DUP3 SWAP1 PUSH1 0x1 PUSH1 0x1 PUSH1 0xA0 SHL SUB AND GAS STATICCALL DUP1 ISZERO PUSH2 0x4BA JUMPI DUP3 SWAP1 PUSH2 0x1C25 JUMPI JUMPDEST SWAP1 POP PUSH2 0x1AEE JUMP JUMPDEST POP PUSH1 0x20 DUP2 RETURNDATASIZE PUSH1 0x20 GT PUSH2 0x1C58 JUMPI JUMPDEST DUP2 PUSH2 0x1C3F PUSH1 0x20 SWAP4 DUP4 PUSH2 0x1E71 JUMP JUMPDEST DUP2 ADD SUB SLT PUSH2 0x4C5 JUMPI PUSH2 0x1C53 PUSH2 0x1AF7 SWAP2 PUSH2 0x1E93 JUMP JUMPDEST PUSH2 0x1C1E JUMP JUMPDEST RETURNDATASIZE SWAP2 POP PUSH2 0x1C32 JUMP JUMPDEST POP CALLVALUE PUSH2 0x110 JUMPI PUSH1 0x20 CALLDATASIZE PUSH1 0x3 NOT ADD SLT PUSH2 0x110 JUMPI PUSH1 0x20 SWAP1 PUSH1 0xFF SWAP1 PUSH1 0x40 SWAP1 PUSH1 0x1 PUSH1 0x1 PUSH1 0xA0 SHL SUB PUSH2 0x1C8B PUSH2 0x1DB5 JUMP JUMPDEST AND DUP2 MSTORE PUSH1 0x3 DUP5 MSTORE KECCAK256 SLOAD AND PUSH1 0x40 MLOAD SWAP1 ISZERO ISZERO DUP2 MSTORE RETURN JUMPDEST POP CALLVALUE PUSH2 0x110 JUMPI DUP1 PUSH1 0x3 NOT CALLDATASIZE ADD SLT PUSH2 0x110 JUMPI PUSH2 0x1CB8 PUSH2 0x209B JUMP JUMPDEST DUP1 SLOAD PUSH1 0x1 PUSH1 0x1 PUSH1 0xA0 SHL SUB AND CALLER EQ DUP1 ISZERO PUSH2 0x1D39 JUMPI JUMPDEST PUSH2 0x1CD5 SWAP1 PUSH2 0x1EA0 JUMP JUMPDEST PUSH2 0x1CE3 PUSH1 0x9 SLOAD TIMESTAMP LT ISZERO PUSH2 0x1EEC JUMP JUMPDEST PUSH1 0x6 SLOAD PUSH1 0xB SLOAD PUSH1 0xFF AND GT ISZERO PUSH2 0x1CFA JUMPI PUSH2 0x82A PUSH2 0x2180 JUMP JUMPDEST PUSH2 0x1D02 PUSH2 0x20BD JUMP JUMPDEST PUSH32 0x413BCDCE36601DE9D10AF5354F226F61D5DDE1E304291E211CED6A6DEE6B2556 PUSH1 0x40 PUSH1 0x6 SLOAD DUP2 MLOAD SWAP1 TIMESTAMP DUP3 MSTORE PUSH1 0x20 DUP3 ADD MSTORE LOG1 PUSH2 0x832 JUMP JUMPDEST POP PUSH1 0x2 SLOAD PUSH1 0x40 MLOAD PUSH4 0xB9181611 PUSH1 0xE0 SHL DUP2 MSTORE CALLER PUSH1 0x4 DUP3 ADD MSTORE SWAP1 PUSH1 0x20 SWAP1 DUP3 SWAP1 PUSH1 0x24 SWAP1 DUP3 SWAP1 PUSH1 0x1 PUSH1 0x1 PUSH1 0xA0 SHL SUB AND GAS STATICCALL DUP1 ISZERO PUSH2 0x4BA JUMPI DUP3 SWAP1 PUSH2 0x1D7A JUMPI JUMPDEST SWAP1 POP PUSH2 0x1CCC JUMP JUMPDEST POP PUSH1 0x20 DUP2 RETURNDATASIZE PUSH1 0x20 GT PUSH2 0x1DAD JUMPI JUMPDEST DUP2 PUSH2 0x1D94 PUSH1 0x20 SWAP4 DUP4 PUSH2 0x1E71 JUMP JUMPDEST DUP2 ADD SUB SLT PUSH2 0x4C5 JUMPI PUSH2 0x1DA8 PUSH2 0x1CD5 SWAP2 PUSH2 0x1E93 JUMP JUMPDEST PUSH2 0x1D73 JUMP JUMPDEST RETURNDATASIZE SWAP2 POP PUSH2 0x1D87 JUMP JUMPDEST PUSH1 0x4 CALLDATALOAD SWAP1 PUSH1 0x1 PUSH1 0x1 PUSH1 0xA0 SHL SUB DUP3 AND DUP3 SUB PUSH2 0xAD3 JUMPI JUMP JUMPDEST SWAP1 PUSH1 0x20 DUP1 DUP4 MLOAD SWAP3 DUP4 DUP2 MSTORE ADD SWAP3 ADD SWAP1 PUSH1 0x0 JUMPDEST DUP2 DUP2 LT PUSH2 0x1DE9 JUMPI POP POP POP SWAP1 JUMP JUMPDEST DUP3 MLOAD PUSH1 0x1 PUSH1 0x1 PUSH1 0xA0 SHL SUB AND DUP5 MSTORE PUSH1 0x20 SWAP4 DUP5 ADD SWAP4 SWAP1 SWAP3 ADD SWAP2 PUSH1 0x1 ADD PUSH2 0x1DDC JUMP JUMPDEST SWAP1 PUSH1 0x7 DUP3 LT ISZERO PUSH2 0xB01 JUMPI MSTORE JUMP JUMPDEST SWAP1 PUSH1 0x6 DUP3 LT ISZERO PUSH2 0xB01 JUMPI MSTORE JUMP JUMPDEST PUSH1 0x40 DUP2 ADD SWAP1 DUP2 LT PUSH8 0xFFFFFFFFFFFFFFFF DUP3 GT OR PUSH2 0x1E3E JUMPI PUSH1 0x40 MSTORE JUMP JUMPDEST PUSH4 0x4E487B71 PUSH1 0xE0 SHL PUSH1 0x0 MSTORE PUSH1 0x41 PUSH1 0x4 MSTORE PUSH1 0x24 PUSH1 0x0 REVERT JUMPDEST PUSH2 0x220 DUP2 ADD SWAP1 DUP2 LT PUSH8 0xFFFFFFFFFFFFFFFF DUP3 GT OR PUSH2 0x1E3E JUMPI PUSH1 0x40 MSTORE JUMP JUMPDEST SWAP1 PUSH1 0x1F DUP1 NOT SWAP2 ADD AND DUP2 ADD SWAP1 DUP2 LT PUSH8 0xFFFFFFFFFFFFFFFF DUP3 GT OR PUSH2 0x1E3E JUMPI PUSH1 0x40 MSTORE JUMP JUMPDEST MLOAD SWAP1 DUP2 ISZERO ISZERO DUP3 SUB PUSH2 0xAD3 JUMPI JUMP JUMPDEST ISZERO PUSH2 0x1EA7 JUMPI JUMP JUMPDEST PUSH1 0x40 MLOAD PUSH3 0x461BCD PUSH1 0xE5 SHL DUP2 MSTORE PUSH1 0x20 PUSH1 0x4 DUP3 ADD MSTORE PUSH1 0x17 PUSH1 0x24 DUP3 ADD MSTORE PUSH32 0x4E6F74206F776E6572206F7220617574686F72697A6564000000000000000000 PUSH1 0x44 DUP3 ADD MSTORE PUSH1 0x64 SWAP1 REVERT JUMPDEST ISZERO PUSH2 0x1EF3 JUMPI JUMP JUMPDEST PUSH1 0x40 MLOAD PUSH3 0x461BCD PUSH1 0xE5 SHL DUP2 MSTORE PUSH1 0x20 PUSH1 0x4 DUP3 ADD MSTORE PUSH1 0x18 PUSH1 0x24 DUP3 ADD MSTORE PUSH32 0x456E726F6C6C6D656E74207374696C6C206F6E676F696E670000000000000000 PUSH1 0x44 DUP3 ADD MSTORE PUSH1 0x64 SWAP1 REVERT JUMPDEST SWAP2 SWAP1 DUP3 ADD DUP1 SWAP3 GT PUSH2 0x1F45 JUMPI JUMP JUMPDEST PUSH4 0x4E487B71 PUSH1 0xE0 SHL PUSH1 0x0 MSTORE PUSH1 0x11 PUSH1 0x4 MSTORE PUSH1 0x24 PUSH1 0x0 REVERT JUMPDEST SWAP2 SWAP1 DUP3 SUB SWAP2 DUP3 GT PUSH2 0x1F45 JUMPI JUMP JUMPDEST DUP2 ISZERO PUSH2 0x1F72 JUMPI DIV SWAP1 JUMP JUMPDEST PUSH4 0x4E487B71 PUSH1 0xE0 SHL PUSH1 0x0 MSTORE PUSH1 0x12 PUSH1 0x4 MSTORE PUSH1 0x24 PUSH1 0x0 REVERT JUMPDEST PUSH1 0x11 SLOAD DUP2 LT ISZERO PUSH2 0x1FA7 JUMPI PUSH1 0x11 PUSH1 0x0 MSTORE PUSH1 0x20 PUSH1 0x0 KECCAK256 SWAP1 PUSH1 0x1 SHL ADD SWAP1 PUSH1 0x0 SWAP1 JUMP JUMPDEST PUSH4 0x4E487B71 PUSH1 0xE0 SHL PUSH1 0x0 MSTORE PUSH1 0x32 PUSH1 0x4 MSTORE PUSH1 0x24 PUSH1 0x0 REVERT JUMPDEST PUSH8 0xFFFFFFFFFFFFFFFF DUP2 GT PUSH2 0x1E3E JUMPI PUSH1 0x1F ADD PUSH1 0x1F NOT AND PUSH1 0x20 ADD SWAP1 JUMP JUMPDEST RETURNDATASIZE ISZERO PUSH2 0x2004 JUMPI RETURNDATASIZE SWAP1 PUSH2 0x1FEA DUP3 PUSH2 0x1FBD JUMP JUMPDEST SWAP2 PUSH2 0x1FF8 PUSH1 0x40 MLOAD SWAP4 DUP5 PUSH2 0x1E71 JUMP JUMPDEST DUP3 MSTORE RETURNDATASIZE PUSH1 0x0 PUSH1 0x20 DUP5 ADD RETURNDATACOPY JUMP JUMPDEST PUSH1 0x60 SWAP1 JUMP JUMPDEST PUSH1 0x0 JUMPDEST DUP4 DUP2 LT PUSH2 0x201C JUMPI POP POP PUSH1 0x0 SWAP2 ADD MSTORE JUMP JUMPDEST DUP2 DUP2 ADD MLOAD DUP4 DUP3 ADD MSTORE PUSH1 0x20 ADD PUSH2 0x200C JUMP JUMPDEST PUSH1 0x6 SLOAD DUP2 LT ISZERO PUSH2 0x1FA7 JUMPI PUSH1 0x6 PUSH1 0x0 MSTORE PUSH1 0x20 PUSH1 0x0 KECCAK256 ADD SWAP1 PUSH1 0x0 SWAP1 JUMP JUMPDEST DUP1 SLOAD DUP3 LT ISZERO PUSH2 0x1FA7 JUMPI PUSH1 0x0 MSTORE PUSH1 0x20 PUSH1 0x0 KECCAK256 ADD SWAP1 PUSH1 0x0 SWAP1 JUMP JUMPDEST ISZERO PUSH2 0x2066 JUMPI JUMP JUMPDEST PUSH1 0x40 MLOAD PUSH3 0x461BCD PUSH1 0xE5 SHL DUP2 MSTORE PUSH1 0x20 PUSH1 0x4 DUP3 ADD MSTORE PUSH1 0xD PUSH1 0x24 DUP3 ADD MSTORE PUSH13 0x139BC8199D5B991CC81CD95B9D PUSH1 0x9A SHL PUSH1 0x44 DUP3 ADD MSTORE PUSH1 0x64 SWAP1 REVERT JUMPDEST PUSH1 0x2 PUSH1 0x1 SLOAD EQ PUSH2 0x20AC JUMPI PUSH1 0x2 PUSH1 0x1 SSTORE JUMP JUMPDEST PUSH4 0x3EE5AEB5 PUSH1 0xE0 SHL PUSH1 0x0 MSTORE PUSH1 0x4 PUSH1 0x0 REVERT JUMPDEST PUSH1 0x7 SLOAD PUSH2 0x200 PUSH1 0xFF DUP3 PUSH1 0x8 SHR AND SWAP2 PUSH2 0xFF00 NOT AND OR PUSH1 0x7 SSTORE PUSH1 0x1 DUP1 PUSH1 0xA0 SHL SUB PUSH1 0x2 SLOAD AND DUP1 EXTCODESIZE ISZERO PUSH2 0xAD3 JUMPI PUSH1 0x40 MLOAD PUSH4 0xD8D6E8FF PUSH1 0xE0 SHL DUP2 MSTORE PUSH1 0x2 PUSH1 0x4 DUP3 ADD MSTORE GAS DUP2 PUSH1 0x24 DUP2 PUSH1 0x0 DUP1 SWAP7 DUP2 SWAP6 CALL DUP1 ISZERO PUSH2 0x4BA JUMPI DUP3 SWAP1 PUSH2 0x2170 JUMPI JUMPDEST SWAP1 POP POP DUP1 PUSH1 0x12 SSTORE PUSH32 0x90819CD8DE9B72986080AB279AB70683338D97E13BBB542D0C4320EF2FF9557F PUSH1 0x20 PUSH1 0x40 MLOAD TIMESTAMP DUP2 MSTORE LOG1 PUSH1 0x6 DUP3 LT ISZERO PUSH2 0x491 JUMPI DUP1 PUSH2 0x491 JUMPI POP PUSH1 0x2 SWAP1 PUSH1 0x0 DUP1 MLOAD PUSH1 0x20 PUSH2 0x283E DUP4 CODECOPY DUP2 MLOAD SWAP2 MSTORE PUSH1 0x20 PUSH1 0x40 MLOAD TIMESTAMP DUP2 MSTORE LOG3 JUMP JUMPDEST PUSH2 0x2179 SWAP2 PUSH2 0x1E71 JUMP JUMPDEST CODESIZE DUP2 PUSH2 0x2113 JUMP JUMPDEST PUSH1 0x7 SLOAD PUSH2 0x500 PUSH1 0xFF DUP3 PUSH1 0x8 SHR AND SWAP2 PUSH2 0xFF00 NOT AND OR PUSH1 0x7 SSTORE PUSH1 0x1 DUP1 PUSH1 0xA0 SHL SUB PUSH1 0x2 SLOAD AND DUP1 EXTCODESIZE ISZERO PUSH2 0xAD3 JUMPI PUSH1 0x40 MLOAD PUSH4 0xD8D6E8FF PUSH1 0xE0 SHL DUP2 MSTORE PUSH1 0x5 PUSH1 0x4 DUP3 ADD MSTORE GAS DUP2 PUSH1 0x24 DUP2 PUSH1 0x0 DUP1 SWAP7 DUP2 SWAP6 CALL DUP1 ISZERO PUSH2 0x4BA JUMPI DUP3 SWAP1 PUSH2 0x2204 JUMPI JUMPDEST POP POP PUSH1 0x6 DUP3 LT ISZERO PUSH2 0x491 JUMPI DUP1 PUSH2 0x491 JUMPI POP PUSH1 0x5 SWAP1 PUSH1 0x0 DUP1 MLOAD PUSH1 0x20 PUSH2 0x283E DUP4 CODECOPY DUP2 MLOAD SWAP2 MSTORE PUSH1 0x20 PUSH1 0x40 MLOAD TIMESTAMP DUP2 MSTORE LOG3 JUMP JUMPDEST PUSH2 0x220D SWAP2 PUSH2 0x1E71 JUMP JUMPDEST CODESIZE DUP2 PUSH2 0x21D6 JUMP JUMPDEST PUSH1 0x7 SLOAD PUSH2 0x400 PUSH1 0xFF DUP3 PUSH1 0x8 SHR AND SWAP2 PUSH2 0xFF00 NOT AND OR PUSH1 0x7 SSTORE PUSH1 0x1 DUP1 PUSH1 0xA0 SHL SUB PUSH1 0x2 SLOAD AND DUP1 EXTCODESIZE ISZERO PUSH2 0xAD3 JUMPI PUSH1 0x40 MLOAD PUSH4 0xD8D6E8FF PUSH1 0xE0 SHL DUP2 MSTORE PUSH1 0x4 DUP1 DUP3 ADD MSTORE GAS DUP2 PUSH1 0x24 DUP2 PUSH1 0x0 DUP1 SWAP7 DUP2 SWAP6 CALL DUP1 ISZERO PUSH2 0x4BA JUMPI DUP3 SWAP1 PUSH2 0x2297 JUMPI JUMPDEST POP POP PUSH1 0x6 DUP3 LT ISZERO PUSH2 0x491 JUMPI DUP1 PUSH2 0x491 JUMPI POP PUSH1 0x4 SWAP1 PUSH1 0x0 DUP1 MLOAD PUSH1 0x20 PUSH2 0x283E DUP4 CODECOPY DUP2 MLOAD SWAP2 MSTORE PUSH1 0x20 PUSH1 0x40 MLOAD TIMESTAMP DUP2 MSTORE LOG3 JUMP JUMPDEST PUSH2 0x22A0 SWAP2 PUSH2 0x1E71 JUMP JUMPDEST CODESIZE DUP2 PUSH2 0x2269 JUMP JUMPDEST PUSH1 0x9 SLOAD SWAP1 PUSH2 0x22B9 PUSH1 0x0 SWAP3 TIMESTAMP LT ISZERO PUSH2 0x1EEC JUMP JUMPDEST PUSH1 0xFF PUSH1 0x7 SLOAD PUSH1 0x8 SHR AND PUSH1 0x6 DUP2 LT ISZERO PUSH2 0x10E7 JUMPI PUSH1 0x5 SUB PUSH2 0x269C JUMPI PUSH1 0x6 SLOAD ISZERO PUSH2 0x2660 JUMPI PUSH1 0x1 SWAP1 DUP3 JUMPDEST PUSH1 0x6 SLOAD DUP2 LT ISZERO PUSH2 0x242B JUMPI PUSH2 0x22F2 DUP2 PUSH2 0x202C JUMP JUMPDEST SWAP1 SLOAD PUSH1 0x3 SWAP2 SWAP1 SWAP2 SHL SHR PUSH1 0x1 PUSH1 0x1 PUSH1 0xA0 SHL SUB AND DUP1 DUP6 MSTORE PUSH1 0x5 PUSH1 0x20 MSTORE PUSH1 0x40 DUP6 KECCAK256 SLOAD PUSH1 0xFF AND ISZERO PUSH2 0x2323 JUMPI JUMPDEST POP PUSH1 0x1 ADD PUSH2 0x22DF JUMP JUMPDEST DUP5 DUP1 DUP1 DUP1 PUSH1 0xA SLOAD DUP6 GAS CALL PUSH2 0x2335 PUSH2 0x1FD9 JUMP JUMPDEST POP ISZERO PUSH2 0x23D6 JUMPI DUP1 DUP6 MSTORE PUSH1 0x5 PUSH1 0x20 MSTORE PUSH1 0x40 DUP6 KECCAK256 DUP1 SLOAD PUSH1 0xFF NOT AND PUSH1 0x1 OR SWAP1 SSTORE PUSH1 0x13 SLOAD PUSH1 0x1 PUSH1 0x40 SHL DUP2 LT ISZERO PUSH2 0x23C2 JUMPI SWAP1 PUSH2 0x2376 DUP3 PUSH1 0x1 DUP1 SWAP6 SWAP5 ADD PUSH1 0x13 SSTORE PUSH1 0x13 PUSH2 0x2047 JUMP JUMPDEST DUP2 SLOAD SWAP1 PUSH1 0x3 SHL SWAP1 DUP4 DUP3 SHL SWAP2 DUP7 DUP1 PUSH1 0xA0 SHL SUB SWAP1 SHL NOT AND OR SWAP1 SSTORE PUSH32 0x48D31F1C958CD44F1F83A52AE2DFAF61E88A1B82C07A6D5711A4ABEF60B6531E PUSH1 0x20 PUSH1 0xA SLOAD PUSH1 0x40 MLOAD SWAP1 DUP2 MSTORE LOG2 JUMPDEST SWAP1 PUSH2 0x231A JUMP JUMPDEST PUSH4 0x4E487B71 PUSH1 0xE0 SHL DUP7 MSTORE PUSH1 0x41 PUSH1 0x4 MSTORE PUSH1 0x24 DUP7 REVERT JUMPDEST SWAP1 SWAP3 POP PUSH1 0xA SLOAD DUP2 DUP6 MSTORE PUSH1 0x15 PUSH1 0x20 MSTORE PUSH2 0x23F3 PUSH1 0x40 DUP7 KECCAK256 SWAP2 DUP3 SLOAD PUSH2 0x1F38 JUMP JUMPDEST SWAP1 SSTORE PUSH32 0xAF73B0B217208B61BE286BBC37095BCE7EB8B9CCF617244C2F0F154E8E04E3FF PUSH1 0x20 PUSH1 0xA SLOAD PUSH1 0x40 MLOAD SWAP1 DUP2 MSTORE LOG2 PUSH1 0x1 DUP4 SWAP3 PUSH2 0x23BC JUMP JUMPDEST POP SWAP2 SWAP1 PUSH1 0xFF PUSH1 0x7 SLOAD PUSH1 0x8 SHR AND PUSH1 0x6 DUP2 LT ISZERO PUSH2 0x10E7 JUMPI PUSH1 0x4 DUP2 EQ SWAP1 DUP2 ISZERO PUSH2 0x2655 JUMPI JUMPDEST POP ISZERO PUSH2 0x1A09 JUMPI SELFBALANCE SWAP1 PUSH2 0x245F DUP3 ISZERO ISZERO PUSH2 0x26E1 JUMP JUMPDEST ISZERO PUSH2 0x25EB JUMPI SWAP1 JUMPDEST DUP2 ISZERO PUSH2 0x2472 DUP2 ISZERO PUSH2 0x26E1 JUMP JUMPDEST PUSH1 0x19 DUP4 MUL SWAP1 DUP4 DUP3 DIV PUSH1 0x19 EQ OR ISZERO PUSH2 0x14AE JUMPI PUSH1 0x64 PUSH2 0x2491 SWAP2 DIV DUP1 SWAP4 PUSH2 0x1F5B JUMP JUMPDEST PUSH1 0x2 SLOAD PUSH1 0x40 MLOAD PUSH4 0x8DA5CB5B PUSH1 0xE0 SHL DUP2 MSTORE SWAP2 SWAP3 SWAP2 SWAP1 PUSH1 0x20 SWAP1 DUP3 SWAP1 PUSH1 0x4 SWAP1 DUP3 SWAP1 PUSH1 0x1 PUSH1 0x1 PUSH1 0xA0 SHL SUB AND GAS STATICCALL SWAP1 DUP2 ISZERO PUSH2 0x4BA JUMPI DUP3 SWAP2 DUP6 SWAP2 DUP4 SWAP2 PUSH2 0x25A3 JUMPI JUMPDEST POP DUP3 SWAP2 DUP3 SWAP2 DUP3 SWAP2 SWAP1 PUSH1 0x1 PUSH1 0x1 PUSH1 0xA0 SHL SUB AND GAS CALL PUSH2 0x24E7 PUSH2 0x1FD9 JUMP JUMPDEST POP ISZERO PUSH2 0x1984 JUMPI DUP1 DUP1 DUP1 DUP1 DUP6 PUSH1 0x1 DUP1 PUSH1 0xA0 SHL SUB PUSH1 0x2 SLOAD AND GAS CALL PUSH2 0x2507 PUSH2 0x1FD9 JUMP JUMPDEST POP ISZERO PUSH2 0x193F JUMPI PUSH1 0x1 DUP1 PUSH1 0xA0 SHL SUB PUSH1 0x2 SLOAD AND PUSH1 0xFF PUSH1 0x7 SLOAD AND DUP2 EXTCODESIZE ISZERO PUSH2 0x67E JUMPI PUSH2 0x254F PUSH1 0x44 DUP5 SWAP3 DUP4 PUSH1 0x40 MLOAD SWAP6 DUP7 SWAP5 DUP6 SWAP4 PUSH4 0x4E1E9D1 PUSH1 0xE5 SHL DUP6 MSTORE DUP11 PUSH1 0x4 DUP7 ADD MSTORE PUSH1 0x24 DUP6 ADD SWAP1 PUSH2 0x1E08 JUMP JUMPDEST GAS CALL DUP1 ISZERO PUSH2 0x4BA JUMPI SWAP2 PUSH1 0x40 SWAP4 SWAP2 PUSH32 0xD66662C0DED9E58FD31D5E44944BCFD07FFC15E6927ECC1382E7941CB7BD24C4 SWAP6 SWAP4 PUSH2 0x2593 JUMPI JUMPDEST POP POP DUP3 MLOAD SWAP2 DUP3 MSTORE PUSH1 0x20 DUP3 ADD MSTORE LOG1 JUMP JUMPDEST DUP2 PUSH2 0x259D SWAP2 PUSH2 0x1E71 JUMP JUMPDEST CODESIZE PUSH2 0x2584 JUMP JUMPDEST SWAP3 POP POP POP PUSH1 0x20 DUP2 RETURNDATASIZE PUSH1 0x20 GT PUSH2 0x25E3 JUMPI JUMPDEST DUP2 PUSH2 0x25C0 PUSH1 0x20 SWAP4 DUP4 PUSH2 0x1E71 JUMP JUMPDEST DUP2 ADD SUB SLT PUSH2 0x4C5 JUMPI MLOAD PUSH1 0x1 PUSH1 0x1 PUSH1 0xA0 SHL SUB DUP2 AND DUP2 SUB PUSH2 0x4C5 JUMPI DUP2 SWAP1 DUP5 SWAP1 DUP3 PUSH2 0x24CC JUMP JUMPDEST RETURNDATASIZE SWAP2 POP PUSH2 0x25B3 JUMP JUMPDEST SWAP2 SWAP1 DUP1 DUP2 PUSH1 0x6 SLOAD JUMPDEST DUP1 DUP3 LT PUSH2 0x261C JUMPI POP POP DUP4 PUSH2 0x260E SWAP3 SWAP4 SWAP5 DUP3 GT PUSH2 0x2614 JUMPI PUSH2 0x1F5B JUMP JUMPDEST SWAP1 PUSH2 0x2466 JUMP JUMPDEST SWAP1 POP DUP1 PUSH2 0x1F5B JUMP JUMPDEST SWAP1 SWAP2 PUSH2 0x264D PUSH1 0x1 SWAP2 PUSH2 0x262D DUP6 PUSH2 0x202C JUMP JUMPDEST DUP5 DUP1 PUSH1 0xA0 SHL SUB SWAP2 SLOAD SWAP1 PUSH1 0x3 SHL SHR AND DUP7 MSTORE PUSH1 0x15 PUSH1 0x20 MSTORE PUSH1 0x40 DUP7 KECCAK256 SLOAD SWAP1 PUSH2 0x1F38 JUMP JUMPDEST SWAP3 ADD SWAP1 PUSH2 0x25F3 JUMP JUMPDEST PUSH1 0x5 SWAP2 POP EQ CODESIZE PUSH2 0x244C JUMP JUMPDEST PUSH1 0x40 MLOAD PUSH3 0x461BCD PUSH1 0xE5 SHL DUP2 MSTORE PUSH1 0x20 PUSH1 0x4 DUP3 ADD MSTORE PUSH1 0x14 PUSH1 0x24 DUP3 ADD MSTORE PUSH20 0x139BC81C1B185E595C9CC81D1BC81C99599D5B99 PUSH1 0x62 SHL PUSH1 0x44 DUP3 ADD MSTORE PUSH1 0x64 SWAP1 REVERT JUMPDEST PUSH1 0x40 MLOAD PUSH3 0x461BCD PUSH1 0xE5 SHL DUP2 MSTORE PUSH1 0x20 PUSH1 0x4 DUP3 ADD MSTORE PUSH1 0x1F PUSH1 0x24 DUP3 ADD MSTORE PUSH32 0x4D697373696F6E206973206E6F7420696E204661696C65642073746174757300 PUSH1 0x44 DUP3 ADD MSTORE PUSH1 0x64 SWAP1 REVERT JUMPDEST ISZERO PUSH2 0x26E8 JUMPI JUMP JUMPDEST PUSH1 0x40 MLOAD PUSH3 0x461BCD PUSH1 0xE5 SHL DUP2 MSTORE PUSH1 0x20 PUSH1 0x4 DUP3 ADD MSTORE PUSH1 0x14 PUSH1 0x24 DUP3 ADD MSTORE PUSH20 0x4E6F2066756E647320746F207769746864726177 PUSH1 0x60 SHL PUSH1 0x44 DUP3 ADD MSTORE PUSH1 0x64 SWAP1 REVERT JUMPDEST PUSH1 0x0 SWAP1 PUSH1 0xFF PUSH1 0x7 SLOAD PUSH1 0x8 SHR AND PUSH1 0x6 DUP2 LT ISZERO PUSH2 0x10E7 JUMPI PUSH1 0x4 DUP2 EQ SWAP1 DUP2 ISZERO PUSH2 0x27A2 JUMPI JUMPDEST POP ISZERO PUSH2 0x1A09 JUMPI SELFBALANCE SWAP2 PUSH2 0x2758 DUP4 ISZERO ISZERO PUSH2 0x26E1 JUMP JUMPDEST POP PUSH1 0x0 DUP1 DUP2 PUSH1 0x6 SLOAD JUMPDEST DUP1 DUP3 LT PUSH2 0x2789 JUMPI POP POP DUP4 PUSH2 0x277C SWAP3 SWAP4 SWAP5 DUP3 GT PUSH2 0x2614 JUMPI PUSH2 0x1F5B JUMP JUMPDEST SWAP1 DUP2 ISZERO PUSH2 0x2472 DUP2 ISZERO PUSH2 0x26E1 JUMP JUMPDEST SWAP1 SWAP2 PUSH2 0x279A PUSH1 0x1 SWAP2 PUSH2 0x262D DUP6 PUSH2 0x202C JUMP JUMPDEST SWAP3 ADD SWAP1 PUSH2 0x2761 JUMP JUMPDEST PUSH1 0x5 SWAP2 POP EQ CODESIZE PUSH2 0x2745 JUMP JUMPDEST PUSH1 0x0 SLOAD PUSH1 0x1 PUSH1 0x1 PUSH1 0xA0 SHL SUB AND CALLER SUB PUSH2 0x27C1 JUMPI JUMP JUMPDEST PUSH4 0x118CDAA7 PUSH1 0xE0 SHL PUSH1 0x0 MSTORE CALLER PUSH1 0x4 MSTORE PUSH1 0x24 PUSH1 0x0 REVERT JUMPDEST PUSH1 0x0 DUP1 SLOAD PUSH1 0x1 PUSH1 0x1 PUSH1 0xA0 SHL SUB SWAP3 DUP4 AND PUSH1 0x1 PUSH1 0x1 PUSH1 0xA0 SHL SUB NOT DUP3 AND DUP2 OR DUP4 SSTORE SWAP3 AND SWAP1 PUSH32 0x8BE0079C531659141344CD1FD0A4F28419497F9722A3DAAFE3B4186F6B6457E0 SWAP1 DUP1 LOG3 JUMP INVALID BALANCE EOFCREATE 0xC2 BYTE PUSH21 0x5E3968A04E9570E4425BC18FA8019C68028196B546 DATALOADN 0x669C KECCAK256 0xC PUSH9 0x39BA628632D48C45C7 CREATE2 PUSH3 0xC07DB2 EXP PREVRANDAO 0xCF PUSH9 0x423691D5D79B20F87B 0xA8 COINBASE CODESIZE 0xAE 0xDF LOG2 PUSH5 0x6970667358 0x22 SLT KECCAK256 MSTORE JUMP 0x27 0x4F 0xA8 DUP13 PUSH22 0x9194AA1573E80691188510FABC3B3D03719A7A29438 PUSH22 0xC19964736F6C634300081E0033000000000000000000 "},"methodIdentifiers":{"OWNERSHIP_PROPOSAL_WINDOW()":"d3050eba","addAuthorizedAddress(address)":"42f1181e","authorized(address)":"b9181611","canEnroll(address)":"9804a586","confirmOwnershipTransfer(address)":"3c213957","createMission(uint8,uint256,uint256,uint256,uint8,uint8,uint256,uint256,uint8)":"9b159539","getAllMissions()":"6d8a1390","getFundsByType(uint8)":"2e33b07f","getMissionData(address)":"20c5718f","getMissionsByStatus(uint8)":"1e59d584","getMissionsEnded()":"b6202913","getMissionsNotEnded()":"6805036d","isMission(address)":"aa1f0595","missionImplementation()":"bd487725","missionStatus(address)":"0814ab82","missions(uint256)":"2c8fe526","monthlyLimit()":"0a6005da","owner()":"8da5cb5b","ownershipProposals(address)":"fb4cdea7","proposeOwnershipTransfer(address)":"21040fc3","recordEnrollment(address)":"c17f9e59","registerMissionFunds(uint256,uint8)":"9c3d3a20","removeAuthorizedAddress(address)":"70712939","renounceOwnership()":"715018a6","reservedFunds(uint8)":"c416ad2a","setEnrollmentLimits(uint8,uint8)":"d41eca64","setMissionStatus(uint8)":"d8d6e8ff","transferOwnership(address)":"f2fde38b","weeklyLimit()":"861a68d6","withdrawFunds(uint256)":"155dd5ee"}}}}}