{"contracts/MissionFactory.sol":{"MissionFactory":{"abi":[{"inputs":[{"internalType":"address","name":"_impl","type":"address"}],"stateMutability":"nonpayable","type":"constructor"},{"inputs":[],"name":"FailedDeployment","type":"error"},{"inputs":[{"internalType":"uint256","name":"balance","type":"uint256"},{"internalType":"uint256","name":"needed","type":"uint256"}],"name":"InsufficientBalance","type":"error"},{"inputs":[{"internalType":"address","name":"owner","type":"address"}],"name":"OwnableInvalidOwner","type":"error"},{"inputs":[{"internalType":"address","name":"account","type":"address"}],"name":"OwnableUnauthorizedAccount","type":"error"},{"inputs":[],"name":"ReentrancyGuardReentrantCall","type":"error"},{"anonymous":false,"inputs":[{"indexed":true,"internalType":"address","name":"addr","type":"address"}],"name":"AuthorizedAddressAdded","type":"event"},{"anonymous":false,"inputs":[{"indexed":true,"internalType":"address","name":"addr","type":"address"}],"name":"AuthorizedAddressRemoved","type":"event"},{"anonymous":false,"inputs":[{"indexed":false,"internalType":"uint8","name":"newWeekly","type":"uint8"},{"indexed":false,"internalType":"uint8","name":"newMonthly","type":"uint8"}],"name":"EnrollmentLimitUpdated","type":"event"},{"anonymous":false,"inputs":[{"indexed":true,"internalType":"address","name":"user","type":"address"},{"indexed":false,"internalType":"uint256","name":"timestamp","type":"uint256"}],"name":"EnrollmentRecorded","type":"event"},{"anonymous":false,"inputs":[{"indexed":true,"internalType":"address","name":"sender","type":"address"},{"indexed":false,"internalType":"uint256","name":"amount","type":"uint256"}],"name":"FundsReceived","type":"event"},{"anonymous":false,"inputs":[{"indexed":true,"internalType":"address","name":"to","type":"address"},{"indexed":false,"internalType":"uint256","name":"amount","type":"uint256"}],"name":"FundsWithdrawn","type":"event"},{"anonymous":false,"inputs":[{"indexed":true,"internalType":"address","name":"mission","type":"address"},{"indexed":false,"internalType":"string","name":"name","type":"string"},{"indexed":false,"internalType":"enum MissionType","name":"missionType","type":"uint8"},{"indexed":false,"internalType":"uint256","name":"enrollmentStart","type":"uint256"},{"indexed":false,"internalType":"uint256","name":"enrollmentEnd","type":"uint256"},{"indexed":false,"internalType":"uint8","name":"minPlayers","type":"uint8"},{"indexed":false,"internalType":"uint8","name":"maxPlayers","type":"uint8"},{"indexed":false,"internalType":"uint256","name":"enrollmentAmount","type":"uint256"},{"indexed":false,"internalType":"uint256","name":"missionStart","type":"uint256"},{"indexed":false,"internalType":"uint256","name":"missionEnd","type":"uint256"},{"indexed":false,"internalType":"uint8","name":"missionRounds","type":"uint8"}],"name":"MissionCreated","type":"event"},{"anonymous":false,"inputs":[{"indexed":true,"internalType":"address","name":"mission","type":"address"},{"indexed":true,"internalType":"uint8","name":"finalStatus","type":"uint8"},{"indexed":false,"internalType":"uint256","name":"timestamp","type":"uint256"}],"name":"MissionFinalized","type":"event"},{"anonymous":false,"inputs":[{"indexed":false,"internalType":"uint256","name":"amount","type":"uint256"},{"indexed":true,"internalType":"enum MissionType","name":"missionType","type":"uint8"},{"indexed":true,"internalType":"address","name":"sender","type":"address"}],"name":"MissionFundsRegistered","type":"event"},{"anonymous":false,"inputs":[{"indexed":true,"internalType":"address","name":"mission","type":"address"},{"indexed":true,"internalType":"uint8","name":"fromStatus","type":"uint8"},{"indexed":true,"internalType":"uint8","name":"toStatus","type":"uint8"},{"indexed":false,"internalType":"uint256","name":"timestamp","type":"uint256"}],"name":"MissionStatusUpdated","type":"event"},{"anonymous":false,"inputs":[{"indexed":true,"internalType":"address","name":"confirmer","type":"address"},{"indexed":false,"internalType":"address","name":"newOwner","type":"address"},{"indexed":false,"internalType":"uint256","name":"timestamp","type":"uint256"}],"name":"OwnershipTransferConfirmed","type":"event"},{"anonymous":false,"inputs":[{"indexed":true,"internalType":"address","name":"proposer","type":"address"},{"indexed":false,"internalType":"address","name":"newOwner","type":"address"},{"indexed":false,"internalType":"uint256","name":"timestamp","type":"uint256"}],"name":"OwnershipTransferProposed","type":"event"},{"anonymous":false,"inputs":[{"indexed":true,"internalType":"address","name":"previousOwner","type":"address"},{"indexed":true,"internalType":"address","name":"newOwner","type":"address"}],"name":"OwnershipTransferred","type":"event"},{"stateMutability":"payable","type":"fallback"},{"inputs":[],"name":"OWNERSHIP_PROPOSAL_WINDOW","outputs":[{"internalType":"uint256","name":"","type":"uint256"}],"stateMutability":"view","type":"function"},{"inputs":[{"internalType":"address","name":"account","type":"address"}],"name":"addAuthorizedAddress","outputs":[],"stateMutability":"nonpayable","type":"function"},{"inputs":[{"internalType":"address","name":"","type":"address"}],"name":"authorized","outputs":[{"internalType":"bool","name":"","type":"bool"}],"stateMutability":"view","type":"function"},{"inputs":[{"internalType":"address","name":"user","type":"address"}],"name":"canEnroll","outputs":[{"internalType":"bool","name":"ok","type":"bool"},{"internalType":"enum Limit","name":"breach","type":"uint8"}],"stateMutability":"view","type":"function"},{"inputs":[],"name":"confirmOwnershipTransfer","outputs":[],"stateMutability":"nonpayable","type":"function"},{"inputs":[{"internalType":"enum MissionType","name":"_missionType","type":"uint8"},{"internalType":"uint256","name":"_enrollmentStart","type":"uint256"},{"internalType":"uint256","name":"_enrollmentEnd","type":"uint256"},{"internalType":"uint256","name":"_enrollmentAmount","type":"uint256"},{"internalType":"uint8","name":"_enrollmentMinPlayers","type":"uint8"},{"internalType":"uint8","name":"_enrollmentMaxPlayers","type":"uint8"},{"internalType":"uint256","name":"_missionStart","type":"uint256"},{"internalType":"uint256","name":"_missionEnd","type":"uint256"},{"internalType":"uint8","name":"_missionRounds","type":"uint8"},{"internalType":"string","name":"_missionName","type":"string"}],"name":"createMission","outputs":[{"internalType":"address","name":"","type":"address"},{"internalType":"string","name":"","type":"string"}],"stateMutability":"payable","type":"function"},{"inputs":[],"name":"getAllMissions","outputs":[{"internalType":"address[]","name":"","type":"address[]"},{"internalType":"enum Status[]","name":"","type":"uint8[]"},{"internalType":"string[]","name":"","type":"string[]"}],"stateMutability":"view","type":"function"},{"inputs":[],"name":"getFactorySummary","outputs":[{"internalType":"address","name":"ownerAddress","type":"address"},{"internalType":"address","name":"factoryAddress","type":"address"},{"internalType":"address","name":"implementation","type":"address"},{"internalType":"uint256","name":"totalMissions","type":"uint256"},{"internalType":"uint256","name":"weekly","type":"uint256"},{"internalType":"uint256","name":"monthly","type":"uint256"},{"internalType":"uint256","name":"missionFunds","type":"uint256"},{"internalType":"uint256","name":"ownerFunds","type":"uint256"},{"internalType":"uint256","name":"successes","type":"uint256"},{"internalType":"uint256","name":"failures","type":"uint256"},{"internalType":"uint256[]","name":"fundsPerTypeArray","type":"uint256[]"}],"stateMutability":"view","type":"function"},{"inputs":[{"internalType":"enum MissionType","name":"_type","type":"uint8"}],"name":"getFundsByType","outputs":[{"internalType":"uint256","name":"","type":"uint256"}],"stateMutability":"view","type":"function"},{"inputs":[{"internalType":"uint256","name":"n","type":"uint256"}],"name":"getLatestMissions","outputs":[{"internalType":"address[]","name":"","type":"address[]"},{"internalType":"uint8[]","name":"","type":"uint8[]"},{"internalType":"string[]","name":"","type":"string[]"}],"stateMutability":"view","type":"function"},{"inputs":[{"internalType":"address","name":"missionAddress","type":"address"}],"name":"getMissionData","outputs":[{"components":[{"internalType":"address[]","name":"players","type":"address[]"},{"internalType":"enum MissionType","name":"missionType","type":"uint8"},{"internalType":"uint256","name":"enrollmentStart","type":"uint256"},{"internalType":"uint256","name":"enrollmentEnd","type":"uint256"},{"internalType":"uint256","name":"enrollmentAmount","type":"uint256"},{"internalType":"uint8","name":"enrollmentMinPlayers","type":"uint8"},{"internalType":"uint8","name":"enrollmentMaxPlayers","type":"uint8"},{"internalType":"uint256","name":"missionStart","type":"uint256"},{"internalType":"uint256","name":"missionEnd","type":"uint256"},{"internalType":"uint8","name":"missionRounds","type":"uint8"},{"internalType":"uint8","name":"roundCount","type":"uint8"},{"internalType":"uint256","name":"croStart","type":"uint256"},{"internalType":"uint256","name":"croCurrent","type":"uint256"},{"components":[{"internalType":"address","name":"player","type":"address"},{"internalType":"uint256","name":"amountWon","type":"uint256"}],"internalType":"struct Mission.PlayersWon[]","name":"playersWon","type":"tuple[]"},{"internalType":"uint256","name":"pauseTimestamp","type":"uint256"},{"internalType":"address[]","name":"refundedPlayers","type":"address[]"},{"internalType":"string","name":"name","type":"string"}],"internalType":"struct Mission.MissionData","name":"","type":"tuple"}],"stateMutability":"view","type":"function"},{"inputs":[{"internalType":"enum Status","name":"s","type":"uint8"}],"name":"getMissionsByStatus","outputs":[{"internalType":"address[]","name":"","type":"address[]"},{"internalType":"uint8[]","name":"","type":"uint8[]"},{"internalType":"string[]","name":"","type":"string[]"}],"stateMutability":"view","type":"function"},{"inputs":[],"name":"getMissionsEnded","outputs":[{"internalType":"address[]","name":"","type":"address[]"},{"internalType":"uint8[]","name":"","type":"uint8[]"},{"internalType":"string[]","name":"","type":"string[]"}],"stateMutability":"view","type":"function"},{"inputs":[{"internalType":"uint256","name":"offset","type":"uint256"},{"internalType":"uint256","name":"limit","type":"uint256"}],"name":"getMissionsEndedPaged","outputs":[{"internalType":"address[]","name":"addrs","type":"address[]"},{"internalType":"uint8[]","name":"statuses","type":"uint8[]"},{"internalType":"string[]","name":"names","type":"string[]"}],"stateMutability":"view","type":"function"},{"inputs":[],"name":"getMissionsNotEnded","outputs":[{"internalType":"address[]","name":"","type":"address[]"},{"internalType":"uint8[]","name":"","type":"uint8[]"},{"internalType":"string[]","name":"","type":"string[]"}],"stateMutability":"view","type":"function"},{"inputs":[],"name":"getOwnershipProposal","outputs":[{"internalType":"address","name":"newOwner","type":"address"},{"internalType":"address","name":"proposer","type":"address"},{"internalType":"uint256","name":"timestamp","type":"uint256"},{"internalType":"uint256","name":"timeLeft","type":"uint256"}],"stateMutability":"view","type":"function"},{"inputs":[{"internalType":"address","name":"player","type":"address"}],"name":"getPlayerLimits","outputs":[{"internalType":"uint8","name":"weekUsed","type":"uint8"},{"internalType":"uint8","name":"weekMax","type":"uint8"},{"internalType":"uint8","name":"monthUsed","type":"uint8"},{"internalType":"uint8","name":"monthMax","type":"uint8"},{"internalType":"uint256","name":"secToWeek","type":"uint256"},{"internalType":"uint256","name":"secToMonth","type":"uint256"}],"stateMutability":"view","type":"function"},{"inputs":[{"internalType":"address","name":"player","type":"address"}],"name":"getPlayerParticipation","outputs":[{"internalType":"address[]","name":"","type":"address[]"},{"internalType":"enum Status[]","name":"","type":"uint8[]"},{"internalType":"string[]","name":"","type":"string[]"}],"stateMutability":"view","type":"function"},{"inputs":[],"name":"getTotalMissions","outputs":[{"internalType":"uint256","name":"","type":"uint256"}],"stateMutability":"view","type":"function"},{"inputs":[{"internalType":"address","name":"","type":"address"}],"name":"isMission","outputs":[{"internalType":"bool","name":"","type":"bool"}],"stateMutability":"view","type":"function"},{"inputs":[],"name":"missionImplementation","outputs":[{"internalType":"address","name":"","type":"address"}],"stateMutability":"view","type":"function"},{"inputs":[{"internalType":"address","name":"","type":"address"}],"name":"missionNames","outputs":[{"internalType":"string","name":"","type":"string"}],"stateMutability":"view","type":"function"},{"inputs":[{"internalType":"address","name":"","type":"address"}],"name":"missionStatus","outputs":[{"internalType":"enum Status","name":"","type":"uint8"}],"stateMutability":"view","type":"function"},{"inputs":[{"internalType":"enum MissionType","name":"","type":"uint8"}],"name":"missionTypeCounts","outputs":[{"internalType":"uint256","name":"","type":"uint256"}],"stateMutability":"view","type":"function"},{"inputs":[{"internalType":"uint256","name":"","type":"uint256"}],"name":"missions","outputs":[{"internalType":"address","name":"","type":"address"}],"stateMutability":"view","type":"function"},{"inputs":[],"name":"monthlyLimit","outputs":[{"internalType":"uint8","name":"","type":"uint8"}],"stateMutability":"view","type":"function"},{"inputs":[],"name":"owner","outputs":[{"internalType":"address","name":"","type":"address"}],"stateMutability":"view","type":"function"},{"inputs":[],"name":"proposalProposer","outputs":[{"internalType":"address","name":"","type":"address"}],"stateMutability":"view","type":"function"},{"inputs":[],"name":"proposalTimestamp","outputs":[{"internalType":"uint256","name":"","type":"uint256"}],"stateMutability":"view","type":"function"},{"inputs":[{"internalType":"address","name":"newOwner","type":"address"}],"name":"proposeOwnershipTransfer","outputs":[],"stateMutability":"nonpayable","type":"function"},{"inputs":[],"name":"proposedNewOwner","outputs":[{"internalType":"address","name":"","type":"address"}],"stateMutability":"view","type":"function"},{"inputs":[{"internalType":"address","name":"user","type":"address"}],"name":"recordEnrollment","outputs":[],"stateMutability":"nonpayable","type":"function"},{"inputs":[{"internalType":"enum MissionType","name":"missionType","type":"uint8"}],"name":"registerMissionFunds","outputs":[],"stateMutability":"payable","type":"function"},{"inputs":[{"internalType":"address","name":"account","type":"address"}],"name":"removeAuthorizedAddress","outputs":[],"stateMutability":"nonpayable","type":"function"},{"inputs":[],"name":"renounceOwnership","outputs":[],"stateMutability":"nonpayable","type":"function"},{"inputs":[{"internalType":"enum MissionType","name":"","type":"uint8"}],"name":"reservedFunds","outputs":[{"internalType":"uint256","name":"","type":"uint256"}],"stateMutability":"view","type":"function"},{"inputs":[],"name":"reservedFundsBreakdown","outputs":[{"internalType":"uint256[7]","name":"","type":"uint256[7]"}],"stateMutability":"view","type":"function"},{"inputs":[{"internalType":"address","name":"user","type":"address"}],"name":"secondsTillMonthlySlot","outputs":[{"internalType":"uint256","name":"","type":"uint256"}],"stateMutability":"view","type":"function"},{"inputs":[{"internalType":"address","name":"user","type":"address"}],"name":"secondsTillWeeklySlot","outputs":[{"internalType":"uint256","name":"","type":"uint256"}],"stateMutability":"view","type":"function"},{"inputs":[{"internalType":"uint8","name":"_weekly","type":"uint8"},{"internalType":"uint8","name":"_monthly","type":"uint8"}],"name":"setEnrollmentLimits","outputs":[],"stateMutability":"nonpayable","type":"function"},{"inputs":[{"internalType":"enum Status","name":"newStatus","type":"uint8"}],"name":"setMissionStatus","outputs":[],"stateMutability":"nonpayable","type":"function"},{"inputs":[],"name":"totalMissionFailures","outputs":[{"internalType":"uint256","name":"","type":"uint256"}],"stateMutability":"view","type":"function"},{"inputs":[],"name":"totalMissionFunds","outputs":[{"internalType":"uint256","name":"","type":"uint256"}],"stateMutability":"view","type":"function"},{"inputs":[],"name":"totalMissionSuccesses","outputs":[{"internalType":"uint256","name":"","type":"uint256"}],"stateMutability":"view","type":"function"},{"inputs":[],"name":"totalOwnerEarnedFunds","outputs":[{"internalType":"uint256","name":"","type":"uint256"}],"stateMutability":"view","type":"function"},{"inputs":[{"internalType":"address","name":"newOwner","type":"address"}],"name":"transferOwnership","outputs":[],"stateMutability":"nonpayable","type":"function"},{"inputs":[],"name":"weeklyLimit","outputs":[{"internalType":"uint8","name":"","type":"uint8"}],"stateMutability":"view","type":"function"},{"inputs":[{"internalType":"uint256","name":"amount","type":"uint256"}],"name":"withdrawFunds","outputs":[],"stateMutability":"nonpayable","type":"function"},{"stateMutability":"payable","type":"receive"}],"evm":{"bytecode":{"linkReferences":{},"object":"60a03461012557601f613f8038819003918201601f19168301916001600160401b0383118484101761012a5780849260209460405283398101031261012557516001600160a01b03811680820361012557331561010f5760008054336001600160a01b0319821681178355604051939290916001600160a01b0316907f8be0079c531659141344cd1fd0a4f28419497f9722a3daafe3b4186f6b6457e09080a360018055610a0461ffff196003541617600355156100e15750608052604051613e3f908161014182396080518181816104a001528181610c41015261137e0152f35b62461bcd60e51b8152602060048201526009602482015268696d706c207a65726f60b81b6044820152606490fd5b631e4fbdf760e01b600052600060045260246000fd5b600080fd5b634e487b7160e01b600052604160045260246000fdfe6080806040526004361015610011575b005b600090813560e01c90816304a6175214612cc3575080630814ab8214612c7c5780630a6005da14612c585780630fc8c4ed14612c2f578063155dd5ee14612ac75780631e59d5841461293557806320c5718f146126ad57806321040fc31461259d5780632c8fe526146125595780632d771f30146125305780632e33b07f146109cd5780633589cf7214612512578063370127621461243357806342f1181e14612342578063503c0b88146120d05780635c5bb6f2146120b257806363679723146120945780636805036d14611f345780636d8a139014611f095780637071293914611e1e578063715018a614611dc45780637200b82914611c5c57806372eecd21146112865780637e9eae501461117c57806383fbea511461115e578063861a68d61461113d5780638c09b7c3146110fd5780638da5cb5b146110d65780639804a5861461108c578063a9bea78914610f18578063aa1f059514610ed6578063b620291314610d04578063b6de7b4314610cb2578063b918161114610c70578063bd48772514610c2b578063c17f9e59146109f7578063c416ad2a146109cd578063c892fde3146109af578063cbf2080d14610818578063d3050eba146107fa578063d41eca641461074c578063d8d6e8ff146105af578063df4db46314610528578063e5047770146103fb578063eff0ab92146102ea578063f08e231e146102b7578063f225b56d146102815763f2fde38b0361000f573461027e57602036600319011261027e576004356001600160a01b03811680820361027c57610257613c28565b156102685761026590613c73565b80f35b631e4fbdf760e01b82526004829052602482fd5b825b80fd5b503461027e57604036600319011261027e576102b36102a4602435600435613a61565b60409391935193849384612de0565b0390f35b503461027e57602036600319011261027e5760043590600782101561027e5760206102e183613051565b54604051908152f35b503461027e57602036600319011261027e576004356001600160a01b038116908190036103f7578152600f6020526040812080548291825b828110610372575050508161033e57602091505b604051908152f35b62093a80820180921161035e575061035960209142906134b7565b610336565b634e487b7160e01b81526011600452602490fd5b61037c8183612e86565b90549060031b1c62093a8081018091116103e357421061039f575b600101610322565b841580156103ca575b1561039757935060016103bb8583612e86565b90549060031b1c949050610397565b50846103d68284612e86565b90549060031b1c106103a8565b634e487b7160e01b85526011600452602485fd5b5080fd5b503461027e578060031936011261027e576101009060405161041d8382612f73565b600781526020810191601f198401368437805b60078110156104575760019061044581613038565b546104508286613171565b5201610430565b5091909160018060a01b0381541660025493600354956004549060055490600654916007549360ff6040519b8c9b6101608d01998d528c6020309101528c604060018060a01b037f00000000000000000000000000000000000000000000000000000000000000001691015260608d015281811660808d015260081c1660a08b015260c08a015260e089015287015261012086015261016061014086015251809152610180840192915b81811061050f575050500390f35b8251845285945060209384019390920191600101610501565b503461027e578060031936011261027e5760e0908160405161054a8282612f73565b3690376040519061055b8383612f73565b82368337805b60078110156105845760019061057681613038565b548160051b85015201610561565b506040519190825b6007821061059957505050f35b602080600192855181520193019101909161058c565b503461027e57602036600319011261027e5760043560088110156103f757338252600c6020526105e560ff6040842054166139f6565b338252600d60205260ff60408320541690338352600d602052604083209160ff198354169260ff83168094179055839060068314918260001461072f5761062d600654613085565b6006555b600882101561071b576107075783906040514281527f0ea143fc1698242668979798ae4ab3fbbece2356edb72793bc92f1c4aca96ca960203392a48391600581149182156106fc575b508282156106d7575b505061068d578280f35b6106c3576040514281527f471602128a67197776b2e0caf0ffdabf9bb93efcca8b7cb74862aa9f63f2347f60203392a338808280f35b634e487b7160e01b82526021600452602482fd5b9091506106e8576007143882610683565b634e487b7160e01b84526021600452602484fd5b85935091503861067a565b634e487b7160e01b85526021600452602485fd5b634e487b7160e01b86526021600452602486fd5b50846007840361063157610744600754613085565b600755610631565b503461027e57604036600319011261027e5760043560ff81168091036103f75760243560ff8116918282036107f6577f321994b8855ae38e4fd6162f7a0bd7cde88be83aa3acc96e03c17b7f733b43e19260409260018060a01b03865416331480156107e1575b6107bc9061344f565b8261ff006003549260081b169161ffff1916171760035582519182526020820152a180f35b50338652600b6020528386205460ff166107b3565b8380fd5b503461027e578060031936011261027e576020604051620151808152f35b503461027e57602036600319011261027e576004356001600160a01b038116908190036103f7578152600f602052604081208190829083809181908054915b828110610904575050506003549480156000146108d2575080915b806108ac575060c09460ff8092945b8160405197168752818316602088015216604086015260081c166060840152608083015260a0820152f35b9062278d00820180921161035e575060c09460ff6108cc819342906134b7565b94610881565b62093a8081018091116108f0576108ea9042906134b7565b91610872565b634e487b7160e01b82526011600452602482fd5b61090e8183612e86565b90549060031b1c62278d00810180821161098a574210610932575b50600101610857565b9561093c90613085565b95851580156109a6575b61099e575b62093a80810180821161098a57421015610929579661096990613085565b9688158015610981575b156109295797506001610929565b50888110610973565b634e487b7160e01b86526011600452602486fd5b94508461094b565b50858110610946565b503461027e578060031936011261027e576020600654604051908152f35b503461027e57602036600319011261027e5760043590600782101561027e5760206102e183613038565b503461027e57602036600319011261027e576004356001600160a01b038116908190036103f757338252600d60205260ff6040832054166008811015610c1757600103610be15762278cff19420190428211610bcd57808352600f60205260408320805492845b84811080610bb4575b15610a7a57610a7590613085565b610a5e565b8383879280610b00575b50805490600160401b821015610aec5781610aa7916001610abf94018155612e86565b429082549060031b91821b91600019901b1916179055565b7f498f5e6dcf570483a1848853791046a7f10012193176d71f959f46eb7713d7446020604051428152a280f35b634e487b7160e01b84526041600452602484fd5b92805b610b0e8584546134b7565b811015610b5e5780610b58610b2e610b28886001956134aa565b86612e86565b90549060031b1c610b3f8387612e86565b90919082549060031b91821b91600019901b1916179055565b01610b03565b5092835b818110610b6f5750610a84565b82548015610ba0576001919060001901610b898186612e86565b8154906000199060031b1b19169055845501610b62565b634e487b7160e01b86526031600452602486fd5b5081610bc08285612e86565b90549060031b1c10610a67565b634e487b7160e01b83526011600452602483fd5b60405162461bcd60e51b815260206004820152600e60248201526d24b73b30b634b21031b0b63632b960911b6044820152606490fd5b634e487b7160e01b83526021600452602483fd5b503461027e578060031936011261027e576040517f00000000000000000000000000000000000000000000000000000000000000006001600160a01b03168152602090f35b503461027e57602036600319011261027e576004356001600160a01b038116908190036103f75760408260ff9260209452600b84522054166040519015158152f35b503461027e57602036600319011261027e576004356001600160a01b038116908190036103f757604082610cf0926102b39452601060205220612f94565b604051918291602083526020830190612d62565b503461027e578060031936011261027e576002548190825b818110610e6a5750610d2d826130c1565b90610d40610d3a846130c1565b93613127565b9084805b828210610d5e575050506102b39060405193849384612de0565b610d6782612e55565b905460039190911b1c6001600160a01b03168752600d602052604087205460ff16600881101580610e5657600682148015610e4a575b610dae575b50509060010190610d44565b610db784612e55565b905460039190911b1c6001600160a01b0316610dd38489613171565b52610e365781610e2f91610de96001948a613171565b52610df384612e55565b848060a01b0391549060031b1c1689526010602052610e1460408a20612f94565b610e1e8288613171565b52610e298187613171565b50613085565b9038610da2565b634e487b7160e01b88526021600452602488fd5b50508760078214610d9d565b634e487b7160e01b89526021600452602489fd5b610e7381612e55565b905460039190911b1c6001600160a01b03168452600d602052604084205460ff1660088110156107075760068114908115610ecb575b50610eb7575b600101610d1c565b91610ec3600191613085565b929050610eaf565b600791501438610ea9565b503461027e57602036600319011261027e576004356001600160a01b038116908190036103f75760408260ff9260209452600c84522054166040519015158152f35b50602036600319011261027e5760043560078110156103f757338252600c602052610f4960ff6040842054166139f6565b610f51613c51565b341561104857338252600d60205260ff6040832054166008811015610c17576006148015611026575b15610fea57610f8881613038565b610f933482546134aa565b9055610fa1346004546134aa565b600455610fb3600334046005546134aa565b600555604051903482527f606617fd09d9890413e3c46147b844d4562351f86e0f7a5c60849bbf0ef0281160203393a36001805580f35b60405162461bcd60e51b815260206004820152601460248201527321b0b63632b9103737ba10309036b4b9b9b4b7b760611b6044820152606490fd5b50338252600d60205260ff6040832054166008811015610c1757600714610f7a565b606460405162461bcd60e51b815260206004820152602060248201527f416d6f756e74206d7573742062652067726561746572207468616e207a65726f6044820152fd5b503461027e57602036600319011261027e576004356001600160a01b03811681036103f7576110ba90613877565b60405191151582526003811015610c1757604092506020820152f35b503461027e578060031936011261027e57546040516001600160a01b039091168152602090f35b503461027e578060031936011261027e576080611118613806565b604080516001600160a01b039586168152949093166020850152918301526060820152f35b503461027e578060031936011261027e57602060ff60035416604051908152f35b503461027e578060031936011261027e576020600754604051908152f35b503461027e57602036600319011261027e576004359060025480831161127e575b6111a6836130c1565b916111b0846130c1565b936111ba81613127565b926000198101908111835b8381106111dc57604051806102b3888b8b84612de0565b816103e3576111f36111ee82856134b7565b612e55565b905460039190911b1c6001600160a01b031680611210838a613171565b528552600d60205260ff604086205416600881101561071b5790600191611237828b613171565b5261124181612e55565b838060a01b0391549060031b1c168652601060205261126260408720612f94565b61126c8289613171565b526112778188613171565b50016111c5565b91508161119d565b5061014036600319011261027e576007600435101561027e5760843560ff811681036103f75760a4359160ff8316830361027e57610104359260ff841684036103f75761012435926001600160401b03841161027c573660238501121561027c578360040135936001600160401b0385116107f65736602486830101116107f65783546001600160a01b031633148015611c46575b6113249061344f565b61132c613c51565b600560ff871610611be75760ff861660ff831610611b7c5760ff821660ff841610611b12576044356024351015611ac15760443560c43510611a635760c43560e4351115611a1f57606435156119c6577f0000000000000000000000000000000000000000000000000000000000000000608881901c62ffffff16763d602d80600a3d3981f3363d3d373d3d3d363d7300000017855260781b6e5af43d82803e903d91602b57fd5bf3176020526001600160a01b036037600986f0169485156119b75784906113fc600435613051565b6114068154613085565b905580156117dd578080602461141d60209461306a565b9561142b6040519788612f73565b828752018386013783010152945b848452600c60205260408420600160ff19825416179055848452600d6020526040842060ff19815416905584845260106020526040842086516001600160401b0381116117c95761148a8254612f07565b601f8111611784575b50806020601f8211600114611720578791611715575b508160011b916000199060031b1c19161790555b83546001600160a01b0316853b1561171157604051906317a0f85760e21b825260048201523060248201526114f760448201600435612e48565b6024356064820152604435608482015260643560a482015260ff831660c482015260ff841660e482015260c43561010482015260e43561012482015260ff821661014482015261018061016482015284818061155761018482018b612d62565b0381348a5af18015611706576116f2575b50600254600160401b8110156116de57927f42cca9b632a0b2904340227071aa69155e66caf6d75f183968389dc593eb5f4c9260ff80936115b08760018b9901600255612e55565b81549060031b9089821b9160018060a01b03901b19161790556040519485946101408652816115e48d610140890190612d62565b956115f460208901600435612e48565b602435604089015260443560608901521660808701521660a085015260643560c085015260c43560e085015260e435610100850152166101208301520390a261163e600435613038565b5460021c801515806116d4575b611672575b5050600180556102b36040519283928352604060208401526040830190612d62565b61167d600435613038565b6116888282546134b7565b9055823b156103f757816004916040519283809263eb2bab7760e01b8252875af180156116c95715611650576116bf828092612f73565b61027e5780611650565b6040513d84823e3d90fd5b508047101561164b565b634e487b7160e01b85526041600452602485fd5b846116ff91959295612f73565b9238611568565b6040513d87823e3d90fd5b8480fd5b9050880151386114a9565b915082875281872087925b8a601f198416851061176d57506001935082601f19811610611754575b5050811b0190556114bd565b8a015160001960f88460031b161c191690553880611748565b81015182556020938401936001909201910161172b565b82875260208720601f830160051c810191602084106117bf575b601f0160051c01905b8181106117b45750611493565b8781556001016117a7565b909150819061179e565b634e487b7160e01b86526041600452602486fd5b5050506117eb600435613cba565b6117f6600435613051565b54848172184f03e93ff9f4daa797ed6e38ed64bf6a1f0160401b811015611994575b806d04ee2d6d415b85acef8100000000600a921015611979575b662386f26fc10000811015611965575b6305f5e100811015611954575b612710811015611945575b6064811015611937575b101561192f575b6001810191600a60216118966118808661306a565b9561188e6040519788612f73565b80875261306a565b602086019490601f19013686378501015b60001901916f181899199a1a9b1b9c1cb0b131b232b360811b8282061a8353049081156118d657600a906118a7565b50506119189260206003926119299460405196846118fd899651809287808a019101612d3f565b8501916201016960ed1b858401525180936023840190612d3f565b01010301601f198101835282612f73565b94611439565b60010161186b565b606460029104920191611864565b6127106004910492019161185a565b6305f5e1006008910492019161184f565b662386f26fc1000060109104920191611842565b6d04ee2d6d415b85acef810000000060209104920191611832565b506040905072184f03e93ff9f4daa797ed6e38ed64bf6a1f0160401b8204611818565b63b06ebf3d60e01b8552600485fd5b60405162461bcd60e51b815260206004820152602b60248201527f456e726f6c6c6d656e7420616d6f756e74206d7573742062652067726561746560448201526a72207468616e207a65726f60a81b6064820152608490fd5b606460405162461bcd60e51b815260206004820152602060248201527f4d697373696f6e207374617274206d757374206265206265666f726520656e646044820152fd5b60405162461bcd60e51b815260206004820152603060248201527f4d697373696f6e207374617274206d757374206265206f6e206f72206166746560448201526f1c88195b9c9bdb1b1b595b9d08195b9960821b6064820152608490fd5b60405162461bcd60e51b815260206004820152602360248201527f456e726f6c6c6d656e74207374617274206d757374206265206265666f726520604482015262195b9960ea1b6064820152608490fd5b608460405162461bcd60e51b815260206004820152604060248201527f4d6178696d756d20706c6179657273206d75737420626520677265617465722060448201527f7468616e206f7220657175616c20746f206d696e696d756d20706c61796572736064820152fd5b60405162461bcd60e51b815260206004820152603f60248201527f4d696e696d756d20706c6179657273206d75737420626520677265617465722060448201527f7468616e206f7220657175616c20746f206d697373696f6e20726f756e6473006064820152608490fd5b60405162461bcd60e51b815260206004820152603160248201527f4d697373696f6e20726f756e6473206d7573742062652067726561746572207460448201527068616e206f7220657175616c20746f203560781b6064820152608490fd5b50338452600b602052604084205460ff1661131b565b503461027e578060031936011261027e5780546001600160a01b031633148015611dae575b611c8a9061344f565b600a546001600160a01b03163314611d6a576008546201518081018091116108f0574211611d3257600954611cc7906001600160a01b0316613c73565b600954604080516001600160a01b03909216825242602083015233917fdd72dd33198968a9cdc9b1e5cbff344fb8d04d99f8c15c0a02416b04e857b4679190a26001600160601b0360a01b600954166009556001600160601b0360a01b600a5416600a558060085580f35b60405162461bcd60e51b815260206004820152601060248201526f141c9bdc1bdcd85b08195e1c1a5c995960821b6044820152606490fd5b606460405162461bcd60e51b815260206004820152602060248201527f43616e6e6f7420636f6e6669726d20796f7572206f776e2070726f706f73616c6044820152fd5b50338152600b602052604081205460ff16611c81565b503461027e578060031936011261027e57611ddd613c28565b80546001600160a01b03198116825581906001600160a01b03167f8be0079c531659141344cd1fd0a4f28419497f9722a3daafe3b4186f6b6457e08280a380f35b503461027e57602036600319011261027e576004356001600160a01b038116908190036103f75781546001600160a01b031633148015611ef3575b611e629061344f565b611e6d8115156134c4565b808252600b60205260ff60408320541615611ebd57808252600b60205260408220805460ff191690557f66d5f06f711af3c9feba3203fdb00b51345d514c68585d9d319c5ff5e6f775928280a280f35b60405162461bcd60e51b815260206004820152600e60248201526d139bdd08185d5d1a1bdc9a5e995960921b6044820152606490fd5b50338252600b602052604082205460ff16611e59565b503461027e578060031936011261027e576102b3611f25613533565b60409391935193849384612e9e565b503461027e578060031936011261027e576002548190825b8181106120275750611f5d826130c1565b90611f6a610d3a846130c1565b9084805b828210611f88575050506102b39060405193849384612de0565b611f9182612e55565b905460039190911b1c6001600160a01b03168752600d602052604087205460ff16600881101580610e565760068214158061201a575b611fd8575b50509060010190611f6e565b611fe184612e55565b905460039190911b1c6001600160a01b0316611ffd8489613171565b52610e36578161201391610de96001948a613171565b9038611fcc565b5050876007821415611fc7565b61203081612e55565b905460039190911b1c6001600160a01b03168452600d602052604084205460ff1660088110156107075760068114159081612088575b50612074575b600101611f4c565b91612080600191613085565b92905061206c565b60079150141538612066565b503461027e578060031936011261027e576020600454604051908152f35b503461027e578060031936011261027e576020600254604051908152f35b503461027e57602036600319011261027e576004356001600160a01b038116908190036103f757600254829080805b612294575061210d846130c1565b9261212061211a866130c1565b95613127565b928092805b61213957604051806102b3878a8a84612e9e565b6000198101818111610bcd5761214e90612e55565b9054604051629c95e160e41b81526004810186905260039290921b1c6001600160a01b031690602081602481855afa90811561225b578491612266575b506121a1575b5061219b90613502565b80612125565b806121af8689979497613171565b526040516368c6ba2160e01b8152602081600481855afa90811561225b57849161221f575b5091612218916121f061219b946121eb848d613171565b613527565b8452601060205261220360408520612f94565b61220d8289613171565b52610e298188613171565b9390612191565b90506020813d8211612253575b8161223960209383612f73565b810103126107f6575160088110156107f6576122186121d4565b3d915061222c565b6040513d86823e3d90fd5b612287915060203d811161228d575b61227f8183612f73565b81019061350f565b3861218b565b503d612275565b600019810181811161232e5760206122ad602492612e55565b9054604051629c95e160e41b8152600481018990529384929091839160031b1c6001600160a01b03165afa90811561225b578491612310575b506122fb575b6122f590613502565b806120ff565b936123086122f591613085565b9490506122ec565b612328915060203d811161228d5761227f8183612f73565b386122e6565b634e487b7160e01b84526011600452602484fd5b503461027e57602036600319011261027e576004356001600160a01b038116908190036103f75781546001600160a01b03163314801561241d575b6123869061344f565b6123918115156134c4565b808252600b60205260ff6040832054166123e357808252600b60205260408220805460ff191660011790557f10ac961f00d5e732ba4dcc2c6fb09bebea0eb9edd2a75c8109775ef288382e678280a280f35b60405162461bcd60e51b8152602060048201526012602482015271105b1c9958591e48185d5d1a1bdc9a5e995960721b6044820152606490fd5b50338252600b602052604082205460ff1661237d565b503461027e57602036600319011261027e576004356001600160a01b038116908190036103f7578152600f6020526040812080548291825b8281106124a157505050816124865760209150604051908152f35b62278d00820180921161035e575061035960209142906134b7565b6124ab8183612e86565b90549060031b1c62278d0081018091116103e35742106124ce575b60010161246b565b841580156124f9575b156124c657935060016124ea8583612e86565b90549060031b1c9490506124c6565b50846125058284612e86565b90549060031b1c106124d7565b503461027e578060031936011261027e576020600554604051908152f35b503461027e578060031936011261027e57600a546040516001600160a01b039091168152602090f35b503461027e57602036600319011261027e576004359060025482101561027e57602061258483612e55565b905460405160039290921b1c6001600160a01b03168152f35b503461027e57602036600319011261027e576004356001600160a01b03811680820361027c5782546001600160a01b031633148015612697575b6125e09061344f565b801561265e576001600160601b0360a01b6009541617600955336001600160601b0360a01b600a541617600a55426008557fc29bdbd554e41df97e5c40fc273a09677ac133c245f0064bdffef5cc72176e1960405180612658339442908360209093929193604081019460018060a01b031681520152565b0390a280f35b60405162461bcd60e51b815260206004820152601160248201527024b73b30b634b2103732bb9037bbb732b960791b6044820152606490fd5b50338352600b602052604083205460ff166125d7565b503461027e57602036600319011261027e576004356001600160a01b038116908190036103f75760606102006040516126e581612f41565b82815284602082015284604082015284838201528460808201528460a08201528460c08201528460e08201528461010082015284610120820152846101408201528461016082015284610180820152826101a0820152846101c0820152826101e0820152015280156128f0578160049160405192838092631f385f7960e21b82525afa9081156116c95782916128ce575b50906040519182916020835261279a82516102206020860152610240850190612d02565b906127ad60208401516040860190612e48565b6040830151606085015260608301516080850152608083015160a085015260ff60a08401511660c085015260ff60c08401511660e085015260e083015161010085015261010083015161012085015260ff6101208401511661014085015260ff610140840151166101608501526101608301516101808501526101808301516101a08501526101a083015191601f19858203016101c0860152602080845192838152019301915b8181106128a0575050509061020061288b6102b3936101c08401516101e08701526101e0840151601f198783030184880152612d02565b910151838203601f1901610220850152612d62565b825180516001600160a01b031685526020908101518186015287965060409094019390920191600101612854565b6128ea91503d8084833e6128e28183612f73565b810190613211565b38612776565b60405162461bcd60e51b815260206004820152601760248201527f496e76616c6964206d697373696f6e20616464726573730000000000000000006044820152606490fd5b503461027e57602036600319011261027e5760043590600882101591826103f757600254928293835b818110612a6c575061296f856130c1565b9361298261297c876130c1565b96613127565b938190825b84811061299e57604051806102b3898c8c84612de0565b6129a781612e55565b905460039190911b1c6001600160a01b03168452600d602052604084205460ff16866107075760088110156107075782146129e5575b600101612987565b9194506129f182612e55565b905460039190911b1c6001600160a01b0316612a0d8689613171565b526001612a648496612a1f818c613171565b60ff85169052612a2e85612e55565b848060a01b0391549060031b1c1686526010602052612a4f60408720612f94565b612a59828b613171565b52610e29818a613171565b9290506129dd565b612a7581612e55565b905460039190911b1c6001600160a01b03168552600d602052604085205460ff168361071b57600881101561071b578414612ab3575b60010161295e565b94612abf600191613085565b959050612aab565b503461027e57602036600319011261027e57600435612ae4613c28565b612aec613c51565b81546001600160a01b031690808215612bf25715612beb575b478111612baf578280808084865af13d15612baa573d612b248161306a565b90612b326040519283612f73565b81528460203d92013e5b15612b735760207feaff4b37086828766ad3268786972c0cd24259d4c87a80f9d3963a3c3d999b0d91604051908152a26001805580f35b60405162461bcd60e51b815260206004820152600f60248201526e151c985b9cd9995c8819985a5b1959608a1b6044820152606490fd5b612b3c565b60405162461bcd60e51b8152602060048201526014602482015273496e73756666696369656e742062616c616e636560601b6044820152606490fd5b5047612b05565b60405162461bcd60e51b815260206004820152601560248201527424b73b30b634b21036b0b730b3b2b91037bbb732b960591b6044820152606490fd5b503461027e578060031936011261027e576009546040516001600160a01b039091168152602090f35b503461027e578060031936011261027e57602060ff60035460081c16604051908152f35b503461027e57602036600319011261027e576004356001600160a01b038116908190036103f75760408260ff9260209452600d8452205416612cc16040518092612cdf565bf35b9050346103f757816003193601126103f7576020906008548152f35b906008821015612cec5752565b634e487b7160e01b600052602160045260246000fd5b906020808351928381520192019060005b818110612d205750505090565b82516001600160a01b0316845260209384019390920191600101612d13565b60005b838110612d525750506000910152565b8181015183820152602001612d42565b90602091612d7b81518092818552858086019101612d3f565b601f01601f1916010190565b9080602083519182815201916020808360051b8301019401926000915b838310612db357505050505090565b9091929394602080612dd1600193601f198682030187528951612d62565b97019301930191939290612da4565b939290612df590606086526060860190612d02565b9380850360208201526020808451968781520193016000955b808710612e2d575050612e2a9394506040818403910152612d87565b90565b909360208060019260ff885116815201950196019590612e0e565b906007821015612cec5752565b600254811015612e7057600260005260206000200190600090565b634e487b7160e01b600052603260045260246000fd5b8054821015612e705760005260206000200190600090565b939290612eb390606086526060860190612d02565b9380850360208201526020808451968781520193016000955b808710612ee8575050612e2a9394506040818403910152612d87565b909360208082612efb6001948951612cdf565b01950196019590612ecc565b90600182811c92168015612f37575b6020831014612f2157565b634e487b7160e01b600052602260045260246000fd5b91607f1691612f16565b61022081019081106001600160401b03821117612f5d57604052565b634e487b7160e01b600052604160045260246000fd5b90601f801991011681019081106001600160401b03821117612f5d57604052565b9060405191826000825492612fa884612f07565b80845293600181169081156130165750600114612fcf575b50612fcd92500383612f73565b565b90506000929192526020600020906000915b818310612ffa575050906020612fcd9282010138612fc0565b6020919350806001915483858901015201910190918492612fe1565b905060209250612fcd94915060ff191682840152151560051b82010138612fc0565b6007811015612cec57600052600e602052604060002090565b6007811015612cec576000526011602052604060002090565b6001600160401b038111612f5d57601f01601f191660200190565b60001981146130945760010190565b634e487b7160e01b600052601160045260246000fd5b6001600160401b038111612f5d5760051b60200190565b906130cb826130aa565b6130d86040519182612f73565b82815280926130e9601f19916130aa565b0190602036910137565b60405190613102602083612f73565b600080835282815b82811061311657505050565b80606060208093850101520161310a565b90613131826130aa565b61313e6040519182612f73565b828152809261314f601f19916130aa565b019060005b82811061316057505050565b806060602080938501015201613154565b8051821015612e705760209160051b010190565b51906001600160a01b038216820361319957565b600080fd5b9080601f830112156131995781516131b5816130aa565b926131c36040519485612f73565b81845260208085019260051b82010192831161319957602001905b8282106131eb5750505090565b602080916131f884613185565b8152019101906131de565b519060ff8216820361319957565b602081830312613199578051906001600160401b03821161319957019061022082820312613199576040519161324683612f41565b80516001600160401b038111613199578261326291830161319e565b8352602081015160078110156131995760208401526040810151604084015260608101516060840152608081015160808401526132a160a08201613203565b60a08401526132b260c08201613203565b60c084015260e081015160e08401526101008101516101008401526132da6101208201613203565b6101208401526132ed6101408201613203565b6101408401526101608101516101608401526101808101516101808401526101a08101516001600160401b03811161319957810182601f82011215613199578051613337816130aa565b916133456040519384612f73565b81835260208084019260061b8201019085821161319957602001915b818310613404575050506101a08401526101c08101516101c08401526101e08101516001600160401b038111613199578261339d91830161319e565b6101e0840152610200810151906001600160401b038211613199570181601f820112156131995780516133cf8161306a565b926133dd6040519485612f73565b81845260208284010111613199576133fb9160208085019101612d3f565b61020082015290565b604083870312613199576040519060408201908282106001600160401b03831117612f5d57604092602092845261343a86613185565b81528286015183820152815201920191613361565b1561345657565b60405162461bcd60e51b815260206004820152602660248201527f4e6f74206f776e6572206f72204d697373696f6e466163746f727920617574686044820152651bdc9a5e995960d21b6064820152608490fd5b9190820180921161309457565b9190820391821161309457565b156134cb57565b60405162461bcd60e51b815260206004820152600f60248201526e496e76616c6964206164647265737360881b6044820152606490fd5b8015613094576000190190565b90816020910312613199575180151581036131995790565b6008821015612cec5752565b60025480156137c657624f19ff1942014281116130945762278cff194201428111613094576000929182805b6136d8575b5061356e846130c1565b613577856130c1565b9561358186613127565b946000905b801515806136cf575b156136c45760001901906135a282612e55565b60018060a01b0391549060031b1c1680600052600d60205260ff60406000205416604051631f385f7960e21b8152600081600481865afa9081156136b8578c918a9160009161369f575b508960e082018181511080613678575b1561366d5750506101000151105b61365e5782916121eb8561362c9381966136266001998d613171565b52613171565b60005260106020526136416040600020612f94565b61364b828a613171565b526136568189613171565b500190613586565b50949998509295505050505050565b91509150511061360a565b5092505091506008831015612cec578c91898b9260068614806135fc5750600786146135fc565b6136b2913d8091833e6128e28183612f73565b386135ec565b6040513d6000823e3d90fd5b509196955092505050565b5087821061358f565b60009493941901926136e984612e55565b60018060a01b0391549060031b1c1680600052600d6020526004600060ff6040822054169260405192838092631f385f7960e21b82525afa9081156136b857859285916000936137ab575b5060e083019082825110908161377b575b50156137705750506101000151105b613769576137628491613085565b949361355f565b9392613564565b915091505110613754565b92505092506008811015612cec5785928160068793149081156137a0575b5038613745565b600791501438613799565b6137bf91933d8091833e6128e28183612f73565b9138613734565b506040516020916137d78383612f73565b600082526000368137604051926137ee8185612f73565b600084525060003681376138006130f3565b91929190565b60085480156138685762015180810191828211613094578242101561384d57600954600a546001600160a01b0390811694911691906138469042906134b7565b9193929190565b600954600a546001600160a01b039182169450169190600090565b50600090600090600090600090565b6001600160a01b03166000908152600f602052604081208054829182918291825b82811061395f575050506003549160ff8316119060ff82159360081c1611918215928280613958575b61394a5781613942575b50613936578161392e575b506139245762093a808101809111613094576138f39042906134b7565b9062278d0081018091116130945761390c9042906134b7565b111561391c576002905b60009190565b600190613916565b5050600090600290565b9050386138d6565b50505050600090600190565b9050386138cb565b505050505050600190600090565b50806138c1565b6139698183612e86565b90549060031b1c62278d00810180821161309457421061398d575b50600101613898565b9361399790613085565b93871580156139ed575b6139e5575b62093a8081018082116130945742101561398457946139c490613085565b94861580156139dc575b156139845795506001613984565b508681106139ce565b9650866139a6565b508781106139a1565b156139fd57565b60405162461bcd60e51b815260206004820152603660248201527f4d697373696f6e466163746f72793a2063616c6c6572206973206e6f742061206044820152751d985b1a59081b5a5cdcda5bdb8818dbdb9d1c9858dd60521b6064820152608490fd5b90916002549283831015613c1457613a7990836134aa565b92808411613c0c575b50600092825b818110613b8c5750613a99846130c1565b90613aa661211a866130c1565b936000905b828110613aba57505050929190565b613ac381612e55565b905460039190911b1c6001600160a01b03166000818152600d602052604090205460ff16600881101580612cec57600582148015613b7f575b818115613b6f575b50613b15575b505050600101613aab565b82613b2586899794959697613171565b52612cec576001928392613b39838c613171565b526000526010602052613b4f6040600020612f94565b613b59828a613171565b52613b648189613171565b500191903880613b0a565b9050612cec576007821481613b04565b5050600060068214613afc565b613b9581612e55565b60018060a01b0391549060031b1c16600052600d60205260ff6040600020541660088110159081612cec5760058114918215613bfe575b8215613bed575b5050613be2575b600101613a88565b600190940193613bda565b909150612cec576007143880613bd3565b506006811491506000613bcc565b925038613a82565b506040516020935091506137d78383612f73565b6000546001600160a01b03163303613c3c57565b63118cdaa760e01b6000523360045260246000fd5b600260015414613c62576002600155565b633ee5aeb560e01b60005260046000fd5b600080546001600160a01b039283166001600160a01b03198216811783559216907f8be0079c531659141344cd1fd0a4f28419497f9722a3daafe3b4186f6b6457e09080a3565b6007811015612cec5760018114613de457600060028214613db7575060038114613d9157600060048214613d6b575060058114613d4657600660009114613d205750604051613d0a604082612f73565b6006815265437573746f6d60d01b602082015290565b50604051613d2f604082612f73565b60078152664d6f6e74686c7960c81b602082015290565b50604051613d55604082612f73565b60068152655765656b6c7960d01b602082015290565b50506040805190613d7c9082612f73565b60058152644461696c7960d81b602082015290565b50604051613da0604082612f73565b600781526642694461696c7960c81b602082015290565b50506040805190613dc89082612f73565b600c81526b517561727465724461696c7960a01b602082015290565b50604051613df3604082612f73565b6006815265486f75726c7960d01b60208201529056fea264697066735822122053fd4160da206271b2fe99db31c74c641edc52911780fed66be5fa0429f2511b64736f6c634300081e0033","opcodes":"PUSH1 0xA0 CALLVALUE PUSH2 0x125 JUMPI PUSH1 0x1F PUSH2 0x3F80 CODESIZE DUP2 SWAP1 SUB SWAP2 DUP3 ADD PUSH1 0x1F NOT AND DUP4 ADD SWAP2 PUSH1 0x1 PUSH1 0x1 PUSH1 0x40 SHL SUB DUP4 GT DUP5 DUP5 LT OR PUSH2 0x12A JUMPI DUP1 DUP5 SWAP3 PUSH1 0x20 SWAP5 PUSH1 0x40 MSTORE DUP4 CODECOPY DUP2 ADD SUB SLT PUSH2 0x125 JUMPI MLOAD PUSH1 0x1 PUSH1 0x1 PUSH1 0xA0 SHL SUB DUP2 AND DUP1 DUP3 SUB PUSH2 0x125 JUMPI CALLER ISZERO PUSH2 0x10F JUMPI PUSH1 0x0 DUP1 SLOAD CALLER PUSH1 0x1 PUSH1 0x1 PUSH1 0xA0 SHL SUB NOT DUP3 AND DUP2 OR DUP4 SSTORE PUSH1 0x40 MLOAD SWAP4 SWAP3 SWAP1 SWAP2 PUSH1 0x1 PUSH1 0x1 PUSH1 0xA0 SHL SUB AND SWAP1 PUSH32 0x8BE0079C531659141344CD1FD0A4F28419497F9722A3DAAFE3B4186F6B6457E0 SWAP1 DUP1 LOG3 PUSH1 0x1 DUP1 SSTORE PUSH2 0xA04 PUSH2 0xFFFF NOT PUSH1 0x3 SLOAD AND OR PUSH1 0x3 SSTORE ISZERO PUSH2 0xE1 JUMPI POP PUSH1 0x80 MSTORE PUSH1 0x40 MLOAD PUSH2 0x3E3F SWAP1 DUP2 PUSH2 0x141 DUP3 CODECOPY PUSH1 0x80 MLOAD DUP2 DUP2 DUP2 PUSH2 0x4A0 ADD MSTORE DUP2 DUP2 PUSH2 0xC41 ADD MSTORE PUSH2 0x137E ADD MSTORE RETURN JUMPDEST PUSH3 0x461BCD PUSH1 0xE5 SHL DUP2 MSTORE PUSH1 0x20 PUSH1 0x4 DUP3 ADD MSTORE PUSH1 0x9 PUSH1 0x24 DUP3 ADD MSTORE PUSH9 0x696D706C207A65726F PUSH1 0xB8 SHL PUSH1 0x44 DUP3 ADD MSTORE PUSH1 0x64 SWAP1 REVERT JUMPDEST PUSH4 0x1E4FBDF7 PUSH1 0xE0 SHL PUSH1 0x0 MSTORE PUSH1 0x0 PUSH1 0x4 MSTORE PUSH1 0x24 PUSH1 0x0 REVERT JUMPDEST PUSH1 0x0 DUP1 REVERT JUMPDEST PUSH4 0x4E487B71 PUSH1 0xE0 SHL PUSH1 0x0 MSTORE PUSH1 0x41 PUSH1 0x4 MSTORE PUSH1 0x24 PUSH1 0x0 REVERT INVALID PUSH1 0x80 DUP1 PUSH1 0x40 MSTORE PUSH1 0x4 CALLDATASIZE LT ISZERO PUSH2 0x11 JUMPI JUMPDEST STOP JUMPDEST PUSH1 0x0 SWAP1 DUP2 CALLDATALOAD PUSH1 0xE0 SHR SWAP1 DUP2 PUSH4 0x4A61752 EQ PUSH2 0x2CC3 JUMPI POP DUP1 PUSH4 0x814AB82 EQ PUSH2 0x2C7C JUMPI DUP1 PUSH4 0xA6005DA EQ PUSH2 0x2C58 JUMPI DUP1 PUSH4 0xFC8C4ED EQ PUSH2 0x2C2F JUMPI DUP1 PUSH4 0x155DD5EE EQ PUSH2 0x2AC7 JUMPI DUP1 PUSH4 0x1E59D584 EQ PUSH2 0x2935 JUMPI DUP1 PUSH4 0x20C5718F EQ PUSH2 0x26AD JUMPI DUP1 PUSH4 0x21040FC3 EQ PUSH2 0x259D JUMPI DUP1 PUSH4 0x2C8FE526 EQ PUSH2 0x2559 JUMPI DUP1 PUSH4 0x2D771F30 EQ PUSH2 0x2530 JUMPI DUP1 PUSH4 0x2E33B07F EQ PUSH2 0x9CD JUMPI DUP1 PUSH4 0x3589CF72 EQ PUSH2 0x2512 JUMPI DUP1 PUSH4 0x37012762 EQ PUSH2 0x2433 JUMPI DUP1 PUSH4 0x42F1181E EQ PUSH2 0x2342 JUMPI DUP1 PUSH4 0x503C0B88 EQ PUSH2 0x20D0 JUMPI DUP1 PUSH4 0x5C5BB6F2 EQ PUSH2 0x20B2 JUMPI DUP1 PUSH4 0x63679723 EQ PUSH2 0x2094 JUMPI DUP1 PUSH4 0x6805036D EQ PUSH2 0x1F34 JUMPI DUP1 PUSH4 0x6D8A1390 EQ PUSH2 0x1F09 JUMPI DUP1 PUSH4 0x70712939 EQ PUSH2 0x1E1E JUMPI DUP1 PUSH4 0x715018A6 EQ PUSH2 0x1DC4 JUMPI DUP1 PUSH4 0x7200B829 EQ PUSH2 0x1C5C JUMPI DUP1 PUSH4 0x72EECD21 EQ PUSH2 0x1286 JUMPI DUP1 PUSH4 0x7E9EAE50 EQ PUSH2 0x117C JUMPI DUP1 PUSH4 0x83FBEA51 EQ PUSH2 0x115E JUMPI DUP1 PUSH4 0x861A68D6 EQ PUSH2 0x113D JUMPI DUP1 PUSH4 0x8C09B7C3 EQ PUSH2 0x10FD JUMPI DUP1 PUSH4 0x8DA5CB5B EQ PUSH2 0x10D6 JUMPI DUP1 PUSH4 0x9804A586 EQ PUSH2 0x108C JUMPI DUP1 PUSH4 0xA9BEA789 EQ PUSH2 0xF18 JUMPI DUP1 PUSH4 0xAA1F0595 EQ PUSH2 0xED6 JUMPI DUP1 PUSH4 0xB6202913 EQ PUSH2 0xD04 JUMPI DUP1 PUSH4 0xB6DE7B43 EQ PUSH2 0xCB2 JUMPI DUP1 PUSH4 0xB9181611 EQ PUSH2 0xC70 JUMPI DUP1 PUSH4 0xBD487725 EQ PUSH2 0xC2B JUMPI DUP1 PUSH4 0xC17F9E59 EQ PUSH2 0x9F7 JUMPI DUP1 PUSH4 0xC416AD2A EQ PUSH2 0x9CD JUMPI DUP1 PUSH4 0xC892FDE3 EQ PUSH2 0x9AF JUMPI DUP1 PUSH4 0xCBF2080D EQ PUSH2 0x818 JUMPI DUP1 PUSH4 0xD3050EBA EQ PUSH2 0x7FA JUMPI DUP1 PUSH4 0xD41ECA64 EQ PUSH2 0x74C JUMPI DUP1 PUSH4 0xD8D6E8FF EQ PUSH2 0x5AF JUMPI DUP1 PUSH4 0xDF4DB463 EQ PUSH2 0x528 JUMPI DUP1 PUSH4 0xE5047770 EQ PUSH2 0x3FB JUMPI DUP1 PUSH4 0xEFF0AB92 EQ PUSH2 0x2EA JUMPI DUP1 PUSH4 0xF08E231E EQ PUSH2 0x2B7 JUMPI DUP1 PUSH4 0xF225B56D EQ PUSH2 0x281 JUMPI PUSH4 0xF2FDE38B SUB PUSH2 0xF JUMPI CALLVALUE PUSH2 0x27E JUMPI PUSH1 0x20 CALLDATASIZE PUSH1 0x3 NOT ADD SLT PUSH2 0x27E JUMPI PUSH1 0x4 CALLDATALOAD PUSH1 0x1 PUSH1 0x1 PUSH1 0xA0 SHL SUB DUP2 AND DUP1 DUP3 SUB PUSH2 0x27C JUMPI PUSH2 0x257 PUSH2 0x3C28 JUMP JUMPDEST ISZERO PUSH2 0x268 JUMPI PUSH2 0x265 SWAP1 PUSH2 0x3C73 JUMP JUMPDEST DUP1 RETURN JUMPDEST PUSH4 0x1E4FBDF7 PUSH1 0xE0 SHL DUP3 MSTORE PUSH1 0x4 DUP3 SWAP1 MSTORE PUSH1 0x24 DUP3 REVERT JUMPDEST DUP3 JUMPDEST DUP1 REVERT JUMPDEST POP CALLVALUE PUSH2 0x27E JUMPI PUSH1 0x40 CALLDATASIZE PUSH1 0x3 NOT ADD SLT PUSH2 0x27E JUMPI PUSH2 0x2B3 PUSH2 0x2A4 PUSH1 0x24 CALLDATALOAD PUSH1 0x4 CALLDATALOAD PUSH2 0x3A61 JUMP JUMPDEST PUSH1 0x40 SWAP4 SWAP2 SWAP4 MLOAD SWAP4 DUP5 SWAP4 DUP5 PUSH2 0x2DE0 JUMP JUMPDEST SUB SWAP1 RETURN JUMPDEST POP CALLVALUE PUSH2 0x27E JUMPI PUSH1 0x20 CALLDATASIZE PUSH1 0x3 NOT ADD SLT PUSH2 0x27E JUMPI PUSH1 0x4 CALLDATALOAD SWAP1 PUSH1 0x7 DUP3 LT ISZERO PUSH2 0x27E JUMPI PUSH1 0x20 PUSH2 0x2E1 DUP4 PUSH2 0x3051 JUMP JUMPDEST SLOAD PUSH1 0x40 MLOAD SWAP1 DUP2 MSTORE RETURN JUMPDEST POP CALLVALUE PUSH2 0x27E JUMPI PUSH1 0x20 CALLDATASIZE PUSH1 0x3 NOT ADD SLT PUSH2 0x27E JUMPI PUSH1 0x4 CALLDATALOAD PUSH1 0x1 PUSH1 0x1 PUSH1 0xA0 SHL SUB DUP2 AND SWAP1 DUP2 SWAP1 SUB PUSH2 0x3F7 JUMPI DUP2 MSTORE PUSH1 0xF PUSH1 0x20 MSTORE PUSH1 0x40 DUP2 KECCAK256 DUP1 SLOAD DUP3 SWAP2 DUP3 JUMPDEST DUP3 DUP2 LT PUSH2 0x372 JUMPI POP POP POP DUP2 PUSH2 0x33E JUMPI PUSH1 0x20 SWAP2 POP JUMPDEST PUSH1 0x40 MLOAD SWAP1 DUP2 MSTORE RETURN JUMPDEST PUSH3 0x93A80 DUP3 ADD DUP1 SWAP3 GT PUSH2 0x35E JUMPI POP PUSH2 0x359 PUSH1 0x20 SWAP2 TIMESTAMP SWAP1 PUSH2 0x34B7 JUMP JUMPDEST PUSH2 0x336 JUMP JUMPDEST PUSH4 0x4E487B71 PUSH1 0xE0 SHL DUP2 MSTORE PUSH1 0x11 PUSH1 0x4 MSTORE PUSH1 0x24 SWAP1 REVERT JUMPDEST PUSH2 0x37C DUP2 DUP4 PUSH2 0x2E86 JUMP JUMPDEST SWAP1 SLOAD SWAP1 PUSH1 0x3 SHL SHR PUSH3 0x93A80 DUP2 ADD DUP1 SWAP2 GT PUSH2 0x3E3 JUMPI TIMESTAMP LT PUSH2 0x39F JUMPI JUMPDEST PUSH1 0x1 ADD PUSH2 0x322 JUMP JUMPDEST DUP5 ISZERO DUP1 ISZERO PUSH2 0x3CA JUMPI JUMPDEST ISZERO PUSH2 0x397 JUMPI SWAP4 POP PUSH1 0x1 PUSH2 0x3BB DUP6 DUP4 PUSH2 0x2E86 JUMP JUMPDEST SWAP1 SLOAD SWAP1 PUSH1 0x3 SHL SHR SWAP5 SWAP1 POP PUSH2 0x397 JUMP JUMPDEST POP DUP5 PUSH2 0x3D6 DUP3 DUP5 PUSH2 0x2E86 JUMP JUMPDEST SWAP1 SLOAD SWAP1 PUSH1 0x3 SHL SHR LT PUSH2 0x3A8 JUMP JUMPDEST PUSH4 0x4E487B71 PUSH1 0xE0 SHL DUP6 MSTORE PUSH1 0x11 PUSH1 0x4 MSTORE PUSH1 0x24 DUP6 REVERT JUMPDEST POP DUP1 REVERT JUMPDEST POP CALLVALUE PUSH2 0x27E JUMPI DUP1 PUSH1 0x3 NOT CALLDATASIZE ADD SLT PUSH2 0x27E JUMPI PUSH2 0x100 SWAP1 PUSH1 0x40 MLOAD PUSH2 0x41D DUP4 DUP3 PUSH2 0x2F73 JUMP JUMPDEST PUSH1 0x7 DUP2 MSTORE PUSH1 0x20 DUP2 ADD SWAP2 PUSH1 0x1F NOT DUP5 ADD CALLDATASIZE DUP5 CALLDATACOPY DUP1 JUMPDEST PUSH1 0x7 DUP2 LT ISZERO PUSH2 0x457 JUMPI PUSH1 0x1 SWAP1 PUSH2 0x445 DUP2 PUSH2 0x3038 JUMP JUMPDEST SLOAD PUSH2 0x450 DUP3 DUP7 PUSH2 0x3171 JUMP JUMPDEST MSTORE ADD PUSH2 0x430 JUMP JUMPDEST POP SWAP2 SWAP1 SWAP2 PUSH1 0x1 DUP1 PUSH1 0xA0 SHL SUB DUP2 SLOAD AND PUSH1 0x2 SLOAD SWAP4 PUSH1 0x3 SLOAD SWAP6 PUSH1 0x4 SLOAD SWAP1 PUSH1 0x5 SLOAD SWAP1 PUSH1 0x6 SLOAD SWAP2 PUSH1 0x7 SLOAD SWAP4 PUSH1 0xFF PUSH1 0x40 MLOAD SWAP12 DUP13 SWAP12 PUSH2 0x160 DUP14 ADD SWAP10 DUP14 MSTORE DUP13 PUSH1 0x20 ADDRESS SWAP2 ADD MSTORE DUP13 PUSH1 0x40 PUSH1 0x1 DUP1 PUSH1 0xA0 SHL SUB PUSH32 0x0 AND SWAP2 ADD MSTORE PUSH1 0x60 DUP14 ADD MSTORE DUP2 DUP2 AND PUSH1 0x80 DUP14 ADD MSTORE PUSH1 0x8 SHR AND PUSH1 0xA0 DUP12 ADD MSTORE PUSH1 0xC0 DUP11 ADD MSTORE PUSH1 0xE0 DUP10 ADD MSTORE DUP8 ADD MSTORE PUSH2 0x120 DUP7 ADD MSTORE PUSH2 0x160 PUSH2 0x140 DUP7 ADD MSTORE MLOAD DUP1 SWAP2 MSTORE PUSH2 0x180 DUP5 ADD SWAP3 SWAP2 JUMPDEST DUP2 DUP2 LT PUSH2 0x50F JUMPI POP POP POP SUB SWAP1 RETURN JUMPDEST DUP3 MLOAD DUP5 MSTORE DUP6 SWAP5 POP PUSH1 0x20 SWAP4 DUP5 ADD SWAP4 SWAP1 SWAP3 ADD SWAP2 PUSH1 0x1 ADD PUSH2 0x501 JUMP JUMPDEST POP CALLVALUE PUSH2 0x27E JUMPI DUP1 PUSH1 0x3 NOT CALLDATASIZE ADD SLT PUSH2 0x27E JUMPI PUSH1 0xE0 SWAP1 DUP2 PUSH1 0x40 MLOAD PUSH2 0x54A DUP3 DUP3 PUSH2 0x2F73 JUMP JUMPDEST CALLDATASIZE SWAP1 CALLDATACOPY PUSH1 0x40 MLOAD SWAP1 PUSH2 0x55B DUP4 DUP4 PUSH2 0x2F73 JUMP JUMPDEST DUP3 CALLDATASIZE DUP4 CALLDATACOPY DUP1 JUMPDEST PUSH1 0x7 DUP2 LT ISZERO PUSH2 0x584 JUMPI PUSH1 0x1 SWAP1 PUSH2 0x576 DUP2 PUSH2 0x3038 JUMP JUMPDEST SLOAD DUP2 PUSH1 0x5 SHL DUP6 ADD MSTORE ADD PUSH2 0x561 JUMP JUMPDEST POP PUSH1 0x40 MLOAD SWAP2 SWAP1 DUP3 JUMPDEST PUSH1 0x7 DUP3 LT PUSH2 0x599 JUMPI POP POP POP RETURN JUMPDEST PUSH1 0x20 DUP1 PUSH1 0x1 SWAP3 DUP6 MLOAD DUP2 MSTORE ADD SWAP4 ADD SWAP2 ADD SWAP1 SWAP2 PUSH2 0x58C JUMP JUMPDEST POP CALLVALUE PUSH2 0x27E JUMPI PUSH1 0x20 CALLDATASIZE PUSH1 0x3 NOT ADD SLT PUSH2 0x27E JUMPI PUSH1 0x4 CALLDATALOAD PUSH1 0x8 DUP2 LT ISZERO PUSH2 0x3F7 JUMPI CALLER DUP3 MSTORE PUSH1 0xC PUSH1 0x20 MSTORE PUSH2 0x5E5 PUSH1 0xFF PUSH1 0x40 DUP5 KECCAK256 SLOAD AND PUSH2 0x39F6 JUMP JUMPDEST CALLER DUP3 MSTORE PUSH1 0xD PUSH1 0x20 MSTORE PUSH1 0xFF PUSH1 0x40 DUP4 KECCAK256 SLOAD AND SWAP1 CALLER DUP4 MSTORE PUSH1 0xD PUSH1 0x20 MSTORE PUSH1 0x40 DUP4 KECCAK256 SWAP2 PUSH1 0xFF NOT DUP4 SLOAD AND SWAP3 PUSH1 0xFF DUP4 AND DUP1 SWAP5 OR SWAP1 SSTORE DUP4 SWAP1 PUSH1 0x6 DUP4 EQ SWAP2 DUP3 PUSH1 0x0 EQ PUSH2 0x72F JUMPI PUSH2 0x62D PUSH1 0x6 SLOAD PUSH2 0x3085 JUMP JUMPDEST PUSH1 0x6 SSTORE JUMPDEST PUSH1 0x8 DUP3 LT ISZERO PUSH2 0x71B JUMPI PUSH2 0x707 JUMPI DUP4 SWAP1 PUSH1 0x40 MLOAD TIMESTAMP DUP2 MSTORE PUSH32 0xEA143FC1698242668979798AE4AB3FBBECE2356EDB72793BC92F1C4ACA96CA9 PUSH1 0x20 CALLER SWAP3 LOG4 DUP4 SWAP2 PUSH1 0x5 DUP2 EQ SWAP2 DUP3 ISZERO PUSH2 0x6FC JUMPI JUMPDEST POP DUP3 DUP3 ISZERO PUSH2 0x6D7 JUMPI JUMPDEST POP POP PUSH2 0x68D JUMPI DUP3 DUP1 RETURN JUMPDEST PUSH2 0x6C3 JUMPI PUSH1 0x40 MLOAD TIMESTAMP DUP2 MSTORE PUSH32 0x471602128A67197776B2E0CAF0FFDABF9BB93EFCCA8B7CB74862AA9F63F2347F PUSH1 0x20 CALLER SWAP3 LOG3 CODESIZE DUP1 DUP3 DUP1 RETURN JUMPDEST PUSH4 0x4E487B71 PUSH1 0xE0 SHL DUP3 MSTORE PUSH1 0x21 PUSH1 0x4 MSTORE PUSH1 0x24 DUP3 REVERT JUMPDEST SWAP1 SWAP2 POP PUSH2 0x6E8 JUMPI PUSH1 0x7 EQ CODESIZE DUP3 PUSH2 0x683 JUMP JUMPDEST PUSH4 0x4E487B71 PUSH1 0xE0 SHL DUP5 MSTORE PUSH1 0x21 PUSH1 0x4 MSTORE PUSH1 0x24 DUP5 REVERT JUMPDEST DUP6 SWAP4 POP SWAP2 POP CODESIZE PUSH2 0x67A JUMP JUMPDEST PUSH4 0x4E487B71 PUSH1 0xE0 SHL DUP6 MSTORE PUSH1 0x21 PUSH1 0x4 MSTORE PUSH1 0x24 DUP6 REVERT JUMPDEST PUSH4 0x4E487B71 PUSH1 0xE0 SHL DUP7 MSTORE PUSH1 0x21 PUSH1 0x4 MSTORE PUSH1 0x24 DUP7 REVERT JUMPDEST POP DUP5 PUSH1 0x7 DUP5 SUB PUSH2 0x631 JUMPI PUSH2 0x744 PUSH1 0x7 SLOAD PUSH2 0x3085 JUMP JUMPDEST PUSH1 0x7 SSTORE PUSH2 0x631 JUMP JUMPDEST POP CALLVALUE PUSH2 0x27E JUMPI PUSH1 0x40 CALLDATASIZE PUSH1 0x3 NOT ADD SLT PUSH2 0x27E JUMPI PUSH1 0x4 CALLDATALOAD PUSH1 0xFF DUP2 AND DUP1 SWAP2 SUB PUSH2 0x3F7 JUMPI PUSH1 0x24 CALLDATALOAD PUSH1 0xFF DUP2 AND SWAP2 DUP3 DUP3 SUB PUSH2 0x7F6 JUMPI PUSH32 0x321994B8855AE38E4FD6162F7A0BD7CDE88BE83AA3ACC96E03C17B7F733B43E1 SWAP3 PUSH1 0x40 SWAP3 PUSH1 0x1 DUP1 PUSH1 0xA0 SHL SUB DUP7 SLOAD AND CALLER EQ DUP1 ISZERO PUSH2 0x7E1 JUMPI JUMPDEST PUSH2 0x7BC SWAP1 PUSH2 0x344F JUMP JUMPDEST DUP3 PUSH2 0xFF00 PUSH1 0x3 SLOAD SWAP3 PUSH1 0x8 SHL AND SWAP2 PUSH2 0xFFFF NOT AND OR OR PUSH1 0x3 SSTORE DUP3 MLOAD SWAP2 DUP3 MSTORE PUSH1 0x20 DUP3 ADD MSTORE LOG1 DUP1 RETURN JUMPDEST POP CALLER DUP7 MSTORE PUSH1 0xB PUSH1 0x20 MSTORE DUP4 DUP7 KECCAK256 SLOAD PUSH1 0xFF AND PUSH2 0x7B3 JUMP JUMPDEST DUP4 DUP1 REVERT JUMPDEST POP CALLVALUE PUSH2 0x27E JUMPI DUP1 PUSH1 0x3 NOT CALLDATASIZE ADD SLT PUSH2 0x27E JUMPI PUSH1 0x20 PUSH1 0x40 MLOAD PUSH3 0x15180 DUP2 MSTORE RETURN JUMPDEST POP CALLVALUE PUSH2 0x27E JUMPI PUSH1 0x20 CALLDATASIZE PUSH1 0x3 NOT ADD SLT PUSH2 0x27E JUMPI PUSH1 0x4 CALLDATALOAD PUSH1 0x1 PUSH1 0x1 PUSH1 0xA0 SHL SUB DUP2 AND SWAP1 DUP2 SWAP1 SUB PUSH2 0x3F7 JUMPI DUP2 MSTORE PUSH1 0xF PUSH1 0x20 MSTORE PUSH1 0x40 DUP2 KECCAK256 DUP2 SWAP1 DUP3 SWAP1 DUP4 DUP1 SWAP2 DUP2 SWAP1 DUP1 SLOAD SWAP2 JUMPDEST DUP3 DUP2 LT PUSH2 0x904 JUMPI POP POP POP PUSH1 0x3 SLOAD SWAP5 DUP1 ISZERO PUSH1 0x0 EQ PUSH2 0x8D2 JUMPI POP DUP1 SWAP2 JUMPDEST DUP1 PUSH2 0x8AC JUMPI POP PUSH1 0xC0 SWAP5 PUSH1 0xFF DUP1 SWAP3 SWAP5 JUMPDEST DUP2 PUSH1 0x40 MLOAD SWAP8 AND DUP8 MSTORE DUP2 DUP4 AND PUSH1 0x20 DUP9 ADD MSTORE AND PUSH1 0x40 DUP7 ADD MSTORE PUSH1 0x8 SHR AND PUSH1 0x60 DUP5 ADD MSTORE PUSH1 0x80 DUP4 ADD MSTORE PUSH1 0xA0 DUP3 ADD MSTORE RETURN JUMPDEST SWAP1 PUSH3 0x278D00 DUP3 ADD DUP1 SWAP3 GT PUSH2 0x35E JUMPI POP PUSH1 0xC0 SWAP5 PUSH1 0xFF PUSH2 0x8CC DUP2 SWAP4 TIMESTAMP SWAP1 PUSH2 0x34B7 JUMP JUMPDEST SWAP5 PUSH2 0x881 JUMP JUMPDEST PUSH3 0x93A80 DUP2 ADD DUP1 SWAP2 GT PUSH2 0x8F0 JUMPI PUSH2 0x8EA SWAP1 TIMESTAMP SWAP1 PUSH2 0x34B7 JUMP JUMPDEST SWAP2 PUSH2 0x872 JUMP JUMPDEST PUSH4 0x4E487B71 PUSH1 0xE0 SHL DUP3 MSTORE PUSH1 0x11 PUSH1 0x4 MSTORE PUSH1 0x24 DUP3 REVERT JUMPDEST PUSH2 0x90E DUP2 DUP4 PUSH2 0x2E86 JUMP JUMPDEST SWAP1 SLOAD SWAP1 PUSH1 0x3 SHL SHR PUSH3 0x278D00 DUP2 ADD DUP1 DUP3 GT PUSH2 0x98A JUMPI TIMESTAMP LT PUSH2 0x932 JUMPI JUMPDEST POP PUSH1 0x1 ADD PUSH2 0x857 JUMP JUMPDEST SWAP6 PUSH2 0x93C SWAP1 PUSH2 0x3085 JUMP JUMPDEST SWAP6 DUP6 ISZERO DUP1 ISZERO PUSH2 0x9A6 JUMPI JUMPDEST PUSH2 0x99E JUMPI JUMPDEST PUSH3 0x93A80 DUP2 ADD DUP1 DUP3 GT PUSH2 0x98A JUMPI TIMESTAMP LT ISZERO PUSH2 0x929 JUMPI SWAP7 PUSH2 0x969 SWAP1 PUSH2 0x3085 JUMP JUMPDEST SWAP7 DUP9 ISZERO DUP1 ISZERO PUSH2 0x981 JUMPI JUMPDEST ISZERO PUSH2 0x929 JUMPI SWAP8 POP PUSH1 0x1 PUSH2 0x929 JUMP JUMPDEST POP DUP9 DUP2 LT PUSH2 0x973 JUMP JUMPDEST PUSH4 0x4E487B71 PUSH1 0xE0 SHL DUP7 MSTORE PUSH1 0x11 PUSH1 0x4 MSTORE PUSH1 0x24 DUP7 REVERT JUMPDEST SWAP5 POP DUP5 PUSH2 0x94B JUMP JUMPDEST POP DUP6 DUP2 LT PUSH2 0x946 JUMP JUMPDEST POP CALLVALUE PUSH2 0x27E JUMPI DUP1 PUSH1 0x3 NOT CALLDATASIZE ADD SLT PUSH2 0x27E JUMPI PUSH1 0x20 PUSH1 0x6 SLOAD PUSH1 0x40 MLOAD SWAP1 DUP2 MSTORE RETURN JUMPDEST POP CALLVALUE PUSH2 0x27E JUMPI PUSH1 0x20 CALLDATASIZE PUSH1 0x3 NOT ADD SLT PUSH2 0x27E JUMPI PUSH1 0x4 CALLDATALOAD SWAP1 PUSH1 0x7 DUP3 LT ISZERO PUSH2 0x27E JUMPI PUSH1 0x20 PUSH2 0x2E1 DUP4 PUSH2 0x3038 JUMP JUMPDEST POP CALLVALUE PUSH2 0x27E JUMPI PUSH1 0x20 CALLDATASIZE PUSH1 0x3 NOT ADD SLT PUSH2 0x27E JUMPI PUSH1 0x4 CALLDATALOAD PUSH1 0x1 PUSH1 0x1 PUSH1 0xA0 SHL SUB DUP2 AND SWAP1 DUP2 SWAP1 SUB PUSH2 0x3F7 JUMPI CALLER DUP3 MSTORE PUSH1 0xD PUSH1 0x20 MSTORE PUSH1 0xFF PUSH1 0x40 DUP4 KECCAK256 SLOAD AND PUSH1 0x8 DUP2 LT ISZERO PUSH2 0xC17 JUMPI PUSH1 0x1 SUB PUSH2 0xBE1 JUMPI PUSH3 0x278CFF NOT TIMESTAMP ADD SWAP1 TIMESTAMP DUP3 GT PUSH2 0xBCD JUMPI DUP1 DUP4 MSTORE PUSH1 0xF PUSH1 0x20 MSTORE PUSH1 0x40 DUP4 KECCAK256 DUP1 SLOAD SWAP3 DUP5 JUMPDEST DUP5 DUP2 LT DUP1 PUSH2 0xBB4 JUMPI JUMPDEST ISZERO PUSH2 0xA7A JUMPI PUSH2 0xA75 SWAP1 PUSH2 0x3085 JUMP JUMPDEST PUSH2 0xA5E JUMP JUMPDEST DUP4 DUP4 DUP8 SWAP3 DUP1 PUSH2 0xB00 JUMPI JUMPDEST POP DUP1 SLOAD SWAP1 PUSH1 0x1 PUSH1 0x40 SHL DUP3 LT ISZERO PUSH2 0xAEC JUMPI DUP2 PUSH2 0xAA7 SWAP2 PUSH1 0x1 PUSH2 0xABF SWAP5 ADD DUP2 SSTORE PUSH2 0x2E86 JUMP JUMPDEST TIMESTAMP SWAP1 DUP3 SLOAD SWAP1 PUSH1 0x3 SHL SWAP2 DUP3 SHL SWAP2 PUSH1 0x0 NOT SWAP1 SHL NOT AND OR SWAP1 SSTORE JUMP JUMPDEST PUSH32 0x498F5E6DCF570483A1848853791046A7F10012193176D71F959F46EB7713D744 PUSH1 0x20 PUSH1 0x40 MLOAD TIMESTAMP DUP2 MSTORE LOG2 DUP1 RETURN JUMPDEST PUSH4 0x4E487B71 PUSH1 0xE0 SHL DUP5 MSTORE PUSH1 0x41 PUSH1 0x4 MSTORE PUSH1 0x24 DUP5 REVERT JUMPDEST SWAP3 DUP1 JUMPDEST PUSH2 0xB0E DUP6 DUP5 SLOAD PUSH2 0x34B7 JUMP JUMPDEST DUP2 LT ISZERO PUSH2 0xB5E JUMPI DUP1 PUSH2 0xB58 PUSH2 0xB2E PUSH2 0xB28 DUP9 PUSH1 0x1 SWAP6 PUSH2 0x34AA JUMP JUMPDEST DUP7 PUSH2 0x2E86 JUMP JUMPDEST SWAP1 SLOAD SWAP1 PUSH1 0x3 SHL SHR PUSH2 0xB3F DUP4 DUP8 PUSH2 0x2E86 JUMP JUMPDEST SWAP1 SWAP2 SWAP1 DUP3 SLOAD SWAP1 PUSH1 0x3 SHL SWAP2 DUP3 SHL SWAP2 PUSH1 0x0 NOT SWAP1 SHL NOT AND OR SWAP1 SSTORE JUMP JUMPDEST ADD PUSH2 0xB03 JUMP JUMPDEST POP SWAP3 DUP4 JUMPDEST DUP2 DUP2 LT PUSH2 0xB6F JUMPI POP PUSH2 0xA84 JUMP JUMPDEST DUP3 SLOAD DUP1 ISZERO PUSH2 0xBA0 JUMPI PUSH1 0x1 SWAP2 SWAP1 PUSH1 0x0 NOT ADD PUSH2 0xB89 DUP2 DUP7 PUSH2 0x2E86 JUMP JUMPDEST DUP2 SLOAD SWAP1 PUSH1 0x0 NOT SWAP1 PUSH1 0x3 SHL SHL NOT AND SWAP1 SSTORE DUP5 SSTORE ADD PUSH2 0xB62 JUMP JUMPDEST PUSH4 0x4E487B71 PUSH1 0xE0 SHL DUP7 MSTORE PUSH1 0x31 PUSH1 0x4 MSTORE PUSH1 0x24 DUP7 REVERT JUMPDEST POP DUP2 PUSH2 0xBC0 DUP3 DUP6 PUSH2 0x2E86 JUMP JUMPDEST SWAP1 SLOAD SWAP1 PUSH1 0x3 SHL SHR LT PUSH2 0xA67 JUMP JUMPDEST PUSH4 0x4E487B71 PUSH1 0xE0 SHL DUP4 MSTORE PUSH1 0x11 PUSH1 0x4 MSTORE PUSH1 0x24 DUP4 REVERT JUMPDEST PUSH1 0x40 MLOAD PUSH3 0x461BCD PUSH1 0xE5 SHL DUP2 MSTORE PUSH1 0x20 PUSH1 0x4 DUP3 ADD MSTORE PUSH1 0xE PUSH1 0x24 DUP3 ADD MSTORE PUSH14 0x24B73B30B634B21031B0B63632B9 PUSH1 0x91 SHL PUSH1 0x44 DUP3 ADD MSTORE PUSH1 0x64 SWAP1 REVERT JUMPDEST PUSH4 0x4E487B71 PUSH1 0xE0 SHL DUP4 MSTORE PUSH1 0x21 PUSH1 0x4 MSTORE PUSH1 0x24 DUP4 REVERT JUMPDEST POP CALLVALUE PUSH2 0x27E JUMPI DUP1 PUSH1 0x3 NOT CALLDATASIZE ADD SLT PUSH2 0x27E JUMPI PUSH1 0x40 MLOAD PUSH32 0x0 PUSH1 0x1 PUSH1 0x1 PUSH1 0xA0 SHL SUB AND DUP2 MSTORE PUSH1 0x20 SWAP1 RETURN JUMPDEST POP CALLVALUE PUSH2 0x27E JUMPI PUSH1 0x20 CALLDATASIZE PUSH1 0x3 NOT ADD SLT PUSH2 0x27E JUMPI PUSH1 0x4 CALLDATALOAD PUSH1 0x1 PUSH1 0x1 PUSH1 0xA0 SHL SUB DUP2 AND SWAP1 DUP2 SWAP1 SUB PUSH2 0x3F7 JUMPI PUSH1 0x40 DUP3 PUSH1 0xFF SWAP3 PUSH1 0x20 SWAP5 MSTORE PUSH1 0xB DUP5 MSTORE KECCAK256 SLOAD AND PUSH1 0x40 MLOAD SWAP1 ISZERO ISZERO DUP2 MSTORE RETURN JUMPDEST POP CALLVALUE PUSH2 0x27E JUMPI PUSH1 0x20 CALLDATASIZE PUSH1 0x3 NOT ADD SLT PUSH2 0x27E JUMPI PUSH1 0x4 CALLDATALOAD PUSH1 0x1 PUSH1 0x1 PUSH1 0xA0 SHL SUB DUP2 AND SWAP1 DUP2 SWAP1 SUB PUSH2 0x3F7 JUMPI PUSH1 0x40 DUP3 PUSH2 0xCF0 SWAP3 PUSH2 0x2B3 SWAP5 MSTORE PUSH1 0x10 PUSH1 0x20 MSTORE KECCAK256 PUSH2 0x2F94 JUMP JUMPDEST PUSH1 0x40 MLOAD SWAP2 DUP3 SWAP2 PUSH1 0x20 DUP4 MSTORE PUSH1 0x20 DUP4 ADD SWAP1 PUSH2 0x2D62 JUMP JUMPDEST POP CALLVALUE PUSH2 0x27E JUMPI DUP1 PUSH1 0x3 NOT CALLDATASIZE ADD SLT PUSH2 0x27E JUMPI PUSH1 0x2 SLOAD DUP2 SWAP1 DUP3 JUMPDEST DUP2 DUP2 LT PUSH2 0xE6A JUMPI POP PUSH2 0xD2D DUP3 PUSH2 0x30C1 JUMP JUMPDEST SWAP1 PUSH2 0xD40 PUSH2 0xD3A DUP5 PUSH2 0x30C1 JUMP JUMPDEST SWAP4 PUSH2 0x3127 JUMP JUMPDEST SWAP1 DUP5 DUP1 JUMPDEST DUP3 DUP3 LT PUSH2 0xD5E JUMPI POP POP POP PUSH2 0x2B3 SWAP1 PUSH1 0x40 MLOAD SWAP4 DUP5 SWAP4 DUP5 PUSH2 0x2DE0 JUMP JUMPDEST PUSH2 0xD67 DUP3 PUSH2 0x2E55 JUMP JUMPDEST SWAP1 SLOAD PUSH1 0x3 SWAP2 SWAP1 SWAP2 SHL SHR PUSH1 0x1 PUSH1 0x1 PUSH1 0xA0 SHL SUB AND DUP8 MSTORE PUSH1 0xD PUSH1 0x20 MSTORE PUSH1 0x40 DUP8 KECCAK256 SLOAD PUSH1 0xFF AND PUSH1 0x8 DUP2 LT ISZERO DUP1 PUSH2 0xE56 JUMPI PUSH1 0x6 DUP3 EQ DUP1 ISZERO PUSH2 0xE4A JUMPI JUMPDEST PUSH2 0xDAE JUMPI JUMPDEST POP POP SWAP1 PUSH1 0x1 ADD SWAP1 PUSH2 0xD44 JUMP JUMPDEST PUSH2 0xDB7 DUP5 PUSH2 0x2E55 JUMP JUMPDEST SWAP1 SLOAD PUSH1 0x3 SWAP2 SWAP1 SWAP2 SHL SHR PUSH1 0x1 PUSH1 0x1 PUSH1 0xA0 SHL SUB AND PUSH2 0xDD3 DUP5 DUP10 PUSH2 0x3171 JUMP JUMPDEST MSTORE PUSH2 0xE36 JUMPI DUP2 PUSH2 0xE2F SWAP2 PUSH2 0xDE9 PUSH1 0x1 SWAP5 DUP11 PUSH2 0x3171 JUMP JUMPDEST MSTORE PUSH2 0xDF3 DUP5 PUSH2 0x2E55 JUMP JUMPDEST DUP5 DUP1 PUSH1 0xA0 SHL SUB SWAP2 SLOAD SWAP1 PUSH1 0x3 SHL SHR AND DUP10 MSTORE PUSH1 0x10 PUSH1 0x20 MSTORE PUSH2 0xE14 PUSH1 0x40 DUP11 KECCAK256 PUSH2 0x2F94 JUMP JUMPDEST PUSH2 0xE1E DUP3 DUP9 PUSH2 0x3171 JUMP JUMPDEST MSTORE PUSH2 0xE29 DUP2 DUP8 PUSH2 0x3171 JUMP JUMPDEST POP PUSH2 0x3085 JUMP JUMPDEST SWAP1 CODESIZE PUSH2 0xDA2 JUMP JUMPDEST PUSH4 0x4E487B71 PUSH1 0xE0 SHL DUP9 MSTORE PUSH1 0x21 PUSH1 0x4 MSTORE PUSH1 0x24 DUP9 REVERT JUMPDEST POP POP DUP8 PUSH1 0x7 DUP3 EQ PUSH2 0xD9D JUMP JUMPDEST PUSH4 0x4E487B71 PUSH1 0xE0 SHL DUP10 MSTORE PUSH1 0x21 PUSH1 0x4 MSTORE PUSH1 0x24 DUP10 REVERT JUMPDEST PUSH2 0xE73 DUP2 PUSH2 0x2E55 JUMP JUMPDEST SWAP1 SLOAD PUSH1 0x3 SWAP2 SWAP1 SWAP2 SHL SHR PUSH1 0x1 PUSH1 0x1 PUSH1 0xA0 SHL SUB AND DUP5 MSTORE PUSH1 0xD PUSH1 0x20 MSTORE PUSH1 0x40 DUP5 KECCAK256 SLOAD PUSH1 0xFF AND PUSH1 0x8 DUP2 LT ISZERO PUSH2 0x707 JUMPI PUSH1 0x6 DUP2 EQ SWAP1 DUP2 ISZERO PUSH2 0xECB JUMPI JUMPDEST POP PUSH2 0xEB7 JUMPI JUMPDEST PUSH1 0x1 ADD PUSH2 0xD1C JUMP JUMPDEST SWAP2 PUSH2 0xEC3 PUSH1 0x1 SWAP2 PUSH2 0x3085 JUMP JUMPDEST SWAP3 SWAP1 POP PUSH2 0xEAF JUMP JUMPDEST PUSH1 0x7 SWAP2 POP EQ CODESIZE PUSH2 0xEA9 JUMP JUMPDEST POP CALLVALUE PUSH2 0x27E JUMPI PUSH1 0x20 CALLDATASIZE PUSH1 0x3 NOT ADD SLT PUSH2 0x27E JUMPI PUSH1 0x4 CALLDATALOAD PUSH1 0x1 PUSH1 0x1 PUSH1 0xA0 SHL SUB DUP2 AND SWAP1 DUP2 SWAP1 SUB PUSH2 0x3F7 JUMPI PUSH1 0x40 DUP3 PUSH1 0xFF SWAP3 PUSH1 0x20 SWAP5 MSTORE PUSH1 0xC DUP5 MSTORE KECCAK256 SLOAD AND PUSH1 0x40 MLOAD SWAP1 ISZERO ISZERO DUP2 MSTORE RETURN JUMPDEST POP PUSH1 0x20 CALLDATASIZE PUSH1 0x3 NOT ADD SLT PUSH2 0x27E JUMPI PUSH1 0x4 CALLDATALOAD PUSH1 0x7 DUP2 LT ISZERO PUSH2 0x3F7 JUMPI CALLER DUP3 MSTORE PUSH1 0xC PUSH1 0x20 MSTORE PUSH2 0xF49 PUSH1 0xFF PUSH1 0x40 DUP5 KECCAK256 SLOAD AND PUSH2 0x39F6 JUMP JUMPDEST PUSH2 0xF51 PUSH2 0x3C51 JUMP JUMPDEST CALLVALUE ISZERO PUSH2 0x1048 JUMPI CALLER DUP3 MSTORE PUSH1 0xD PUSH1 0x20 MSTORE PUSH1 0xFF PUSH1 0x40 DUP4 KECCAK256 SLOAD AND PUSH1 0x8 DUP2 LT ISZERO PUSH2 0xC17 JUMPI PUSH1 0x6 EQ DUP1 ISZERO PUSH2 0x1026 JUMPI JUMPDEST ISZERO PUSH2 0xFEA JUMPI PUSH2 0xF88 DUP2 PUSH2 0x3038 JUMP JUMPDEST PUSH2 0xF93 CALLVALUE DUP3 SLOAD PUSH2 0x34AA JUMP JUMPDEST SWAP1 SSTORE PUSH2 0xFA1 CALLVALUE PUSH1 0x4 SLOAD PUSH2 0x34AA JUMP JUMPDEST PUSH1 0x4 SSTORE PUSH2 0xFB3 PUSH1 0x3 CALLVALUE DIV PUSH1 0x5 SLOAD PUSH2 0x34AA JUMP JUMPDEST PUSH1 0x5 SSTORE PUSH1 0x40 MLOAD SWAP1 CALLVALUE DUP3 MSTORE PUSH32 0x606617FD09D9890413E3C46147B844D4562351F86E0F7A5C60849BBF0EF02811 PUSH1 0x20 CALLER SWAP4 LOG3 PUSH1 0x1 DUP1 SSTORE DUP1 RETURN JUMPDEST PUSH1 0x40 MLOAD PUSH3 0x461BCD PUSH1 0xE5 SHL DUP2 MSTORE PUSH1 0x20 PUSH1 0x4 DUP3 ADD MSTORE PUSH1 0x14 PUSH1 0x24 DUP3 ADD MSTORE PUSH20 0x21B0B63632B9103737BA10309036B4B9B9B4B7B7 PUSH1 0x61 SHL PUSH1 0x44 DUP3 ADD MSTORE PUSH1 0x64 SWAP1 REVERT JUMPDEST POP CALLER DUP3 MSTORE PUSH1 0xD PUSH1 0x20 MSTORE PUSH1 0xFF PUSH1 0x40 DUP4 KECCAK256 SLOAD AND PUSH1 0x8 DUP2 LT ISZERO PUSH2 0xC17 JUMPI PUSH1 0x7 EQ PUSH2 0xF7A JUMP JUMPDEST PUSH1 0x64 PUSH1 0x40 MLOAD PUSH3 0x461BCD PUSH1 0xE5 SHL DUP2 MSTORE PUSH1 0x20 PUSH1 0x4 DUP3 ADD MSTORE PUSH1 0x20 PUSH1 0x24 DUP3 ADD MSTORE PUSH32 0x416D6F756E74206D7573742062652067726561746572207468616E207A65726F PUSH1 0x44 DUP3 ADD MSTORE REVERT JUMPDEST POP CALLVALUE PUSH2 0x27E JUMPI PUSH1 0x20 CALLDATASIZE PUSH1 0x3 NOT ADD SLT PUSH2 0x27E JUMPI PUSH1 0x4 CALLDATALOAD PUSH1 0x1 PUSH1 0x1 PUSH1 0xA0 SHL SUB DUP2 AND DUP2 SUB PUSH2 0x3F7 JUMPI PUSH2 0x10BA SWAP1 PUSH2 0x3877 JUMP JUMPDEST PUSH1 0x40 MLOAD SWAP2 ISZERO ISZERO DUP3 MSTORE PUSH1 0x3 DUP2 LT ISZERO PUSH2 0xC17 JUMPI PUSH1 0x40 SWAP3 POP PUSH1 0x20 DUP3 ADD MSTORE RETURN JUMPDEST POP CALLVALUE PUSH2 0x27E JUMPI DUP1 PUSH1 0x3 NOT CALLDATASIZE ADD SLT PUSH2 0x27E JUMPI SLOAD PUSH1 0x40 MLOAD PUSH1 0x1 PUSH1 0x1 PUSH1 0xA0 SHL SUB SWAP1 SWAP2 AND DUP2 MSTORE PUSH1 0x20 SWAP1 RETURN JUMPDEST POP CALLVALUE PUSH2 0x27E JUMPI DUP1 PUSH1 0x3 NOT CALLDATASIZE ADD SLT PUSH2 0x27E JUMPI PUSH1 0x80 PUSH2 0x1118 PUSH2 0x3806 JUMP JUMPDEST PUSH1 0x40 DUP1 MLOAD PUSH1 0x1 PUSH1 0x1 PUSH1 0xA0 SHL SUB SWAP6 DUP7 AND DUP2 MSTORE SWAP5 SWAP1 SWAP4 AND PUSH1 0x20 DUP6 ADD MSTORE SWAP2 DUP4 ADD MSTORE PUSH1 0x60 DUP3 ADD MSTORE RETURN JUMPDEST POP CALLVALUE PUSH2 0x27E JUMPI DUP1 PUSH1 0x3 NOT CALLDATASIZE ADD SLT PUSH2 0x27E JUMPI PUSH1 0x20 PUSH1 0xFF PUSH1 0x3 SLOAD AND PUSH1 0x40 MLOAD SWAP1 DUP2 MSTORE RETURN JUMPDEST POP CALLVALUE PUSH2 0x27E JUMPI DUP1 PUSH1 0x3 NOT CALLDATASIZE ADD SLT PUSH2 0x27E JUMPI PUSH1 0x20 PUSH1 0x7 SLOAD PUSH1 0x40 MLOAD SWAP1 DUP2 MSTORE RETURN JUMPDEST POP CALLVALUE PUSH2 0x27E JUMPI PUSH1 0x20 CALLDATASIZE PUSH1 0x3 NOT ADD SLT PUSH2 0x27E JUMPI PUSH1 0x4 CALLDATALOAD SWAP1 PUSH1 0x2 SLOAD DUP1 DUP4 GT PUSH2 0x127E JUMPI JUMPDEST PUSH2 0x11A6 DUP4 PUSH2 0x30C1 JUMP JUMPDEST SWAP2 PUSH2 0x11B0 DUP5 PUSH2 0x30C1 JUMP JUMPDEST SWAP4 PUSH2 0x11BA DUP2 PUSH2 0x3127 JUMP JUMPDEST SWAP3 PUSH1 0x0 NOT DUP2 ADD SWAP1 DUP2 GT DUP4 JUMPDEST DUP4 DUP2 LT PUSH2 0x11DC JUMPI PUSH1 0x40 MLOAD DUP1 PUSH2 0x2B3 DUP9 DUP12 DUP12 DUP5 PUSH2 0x2DE0 JUMP JUMPDEST DUP2 PUSH2 0x3E3 JUMPI PUSH2 0x11F3 PUSH2 0x11EE DUP3 DUP6 PUSH2 0x34B7 JUMP JUMPDEST PUSH2 0x2E55 JUMP JUMPDEST SWAP1 SLOAD PUSH1 0x3 SWAP2 SWAP1 SWAP2 SHL SHR PUSH1 0x1 PUSH1 0x1 PUSH1 0xA0 SHL SUB AND DUP1 PUSH2 0x1210 DUP4 DUP11 PUSH2 0x3171 JUMP JUMPDEST MSTORE DUP6 MSTORE PUSH1 0xD PUSH1 0x20 MSTORE PUSH1 0xFF PUSH1 0x40 DUP7 KECCAK256 SLOAD AND PUSH1 0x8 DUP2 LT ISZERO PUSH2 0x71B JUMPI SWAP1 PUSH1 0x1 SWAP2 PUSH2 0x1237 DUP3 DUP12 PUSH2 0x3171 JUMP JUMPDEST MSTORE PUSH2 0x1241 DUP2 PUSH2 0x2E55 JUMP JUMPDEST DUP4 DUP1 PUSH1 0xA0 SHL SUB SWAP2 SLOAD SWAP1 PUSH1 0x3 SHL SHR AND DUP7 MSTORE PUSH1 0x10 PUSH1 0x20 MSTORE PUSH2 0x1262 PUSH1 0x40 DUP8 KECCAK256 PUSH2 0x2F94 JUMP JUMPDEST PUSH2 0x126C DUP3 DUP10 PUSH2 0x3171 JUMP JUMPDEST MSTORE PUSH2 0x1277 DUP2 DUP9 PUSH2 0x3171 JUMP JUMPDEST POP ADD PUSH2 0x11C5 JUMP JUMPDEST SWAP2 POP DUP2 PUSH2 0x119D JUMP JUMPDEST POP PUSH2 0x140 CALLDATASIZE PUSH1 0x3 NOT ADD SLT PUSH2 0x27E JUMPI PUSH1 0x7 PUSH1 0x4 CALLDATALOAD LT ISZERO PUSH2 0x27E JUMPI PUSH1 0x84 CALLDATALOAD PUSH1 0xFF DUP2 AND DUP2 SUB PUSH2 0x3F7 JUMPI PUSH1 0xA4 CALLDATALOAD SWAP2 PUSH1 0xFF DUP4 AND DUP4 SUB PUSH2 0x27E JUMPI PUSH2 0x104 CALLDATALOAD SWAP3 PUSH1 0xFF DUP5 AND DUP5 SUB PUSH2 0x3F7 JUMPI PUSH2 0x124 CALLDATALOAD SWAP3 PUSH1 0x1 PUSH1 0x1 PUSH1 0x40 SHL SUB DUP5 GT PUSH2 0x27C JUMPI CALLDATASIZE PUSH1 0x23 DUP6 ADD SLT ISZERO PUSH2 0x27C JUMPI DUP4 PUSH1 0x4 ADD CALLDATALOAD SWAP4 PUSH1 0x1 PUSH1 0x1 PUSH1 0x40 SHL SUB DUP6 GT PUSH2 0x7F6 JUMPI CALLDATASIZE PUSH1 0x24 DUP7 DUP4 ADD ADD GT PUSH2 0x7F6 JUMPI DUP4 SLOAD PUSH1 0x1 PUSH1 0x1 PUSH1 0xA0 SHL SUB AND CALLER EQ DUP1 ISZERO PUSH2 0x1C46 JUMPI JUMPDEST PUSH2 0x1324 SWAP1 PUSH2 0x344F JUMP JUMPDEST PUSH2 0x132C PUSH2 0x3C51 JUMP JUMPDEST PUSH1 0x5 PUSH1 0xFF DUP8 AND LT PUSH2 0x1BE7 JUMPI PUSH1 0xFF DUP7 AND PUSH1 0xFF DUP4 AND LT PUSH2 0x1B7C JUMPI PUSH1 0xFF DUP3 AND PUSH1 0xFF DUP5 AND LT PUSH2 0x1B12 JUMPI PUSH1 0x44 CALLDATALOAD PUSH1 0x24 CALLDATALOAD LT ISZERO PUSH2 0x1AC1 JUMPI PUSH1 0x44 CALLDATALOAD PUSH1 0xC4 CALLDATALOAD LT PUSH2 0x1A63 JUMPI PUSH1 0xC4 CALLDATALOAD PUSH1 0xE4 CALLDATALOAD GT ISZERO PUSH2 0x1A1F JUMPI PUSH1 0x64 CALLDATALOAD ISZERO PUSH2 0x19C6 JUMPI PUSH32 0x0 PUSH1 0x88 DUP2 SWAP1 SHR PUSH3 0xFFFFFF AND PUSH23 0x3D602D80600A3D3981F3363D3D373D3D3D363D73000000 OR DUP6 MSTORE PUSH1 0x78 SHL PUSH15 0x5AF43D82803E903D91602B57FD5BF3 OR PUSH1 0x20 MSTORE PUSH1 0x1 PUSH1 0x1 PUSH1 0xA0 SHL SUB PUSH1 0x37 PUSH1 0x9 DUP7 CREATE AND SWAP5 DUP6 ISZERO PUSH2 0x19B7 JUMPI DUP5 SWAP1 PUSH2 0x13FC PUSH1 0x4 CALLDATALOAD PUSH2 0x3051 JUMP JUMPDEST PUSH2 0x1406 DUP2 SLOAD PUSH2 0x3085 JUMP JUMPDEST SWAP1 SSTORE DUP1 ISZERO PUSH2 0x17DD JUMPI DUP1 DUP1 PUSH1 0x24 PUSH2 0x141D PUSH1 0x20 SWAP5 PUSH2 0x306A JUMP JUMPDEST SWAP6 PUSH2 0x142B PUSH1 0x40 MLOAD SWAP8 DUP9 PUSH2 0x2F73 JUMP JUMPDEST DUP3 DUP8 MSTORE ADD DUP4 DUP7 ADD CALLDATACOPY DUP4 ADD ADD MSTORE SWAP5 JUMPDEST DUP5 DUP5 MSTORE PUSH1 0xC PUSH1 0x20 MSTORE PUSH1 0x40 DUP5 KECCAK256 PUSH1 0x1 PUSH1 0xFF NOT DUP3 SLOAD AND OR SWAP1 SSTORE DUP5 DUP5 MSTORE PUSH1 0xD PUSH1 0x20 MSTORE PUSH1 0x40 DUP5 KECCAK256 PUSH1 0xFF NOT DUP2 SLOAD AND SWAP1 SSTORE DUP5 DUP5 MSTORE PUSH1 0x10 PUSH1 0x20 MSTORE PUSH1 0x40 DUP5 KECCAK256 DUP7 MLOAD PUSH1 0x1 PUSH1 0x1 PUSH1 0x40 SHL SUB DUP2 GT PUSH2 0x17C9 JUMPI PUSH2 0x148A DUP3 SLOAD PUSH2 0x2F07 JUMP JUMPDEST PUSH1 0x1F DUP2 GT PUSH2 0x1784 JUMPI JUMPDEST POP DUP1 PUSH1 0x20 PUSH1 0x1F DUP3 GT PUSH1 0x1 EQ PUSH2 0x1720 JUMPI DUP8 SWAP2 PUSH2 0x1715 JUMPI JUMPDEST POP DUP2 PUSH1 0x1 SHL SWAP2 PUSH1 0x0 NOT SWAP1 PUSH1 0x3 SHL SHR NOT AND OR SWAP1 SSTORE JUMPDEST DUP4 SLOAD PUSH1 0x1 PUSH1 0x1 PUSH1 0xA0 SHL SUB AND DUP6 EXTCODESIZE ISZERO PUSH2 0x1711 JUMPI PUSH1 0x40 MLOAD SWAP1 PUSH4 0x17A0F857 PUSH1 0xE2 SHL DUP3 MSTORE PUSH1 0x4 DUP3 ADD MSTORE ADDRESS PUSH1 0x24 DUP3 ADD MSTORE PUSH2 0x14F7 PUSH1 0x44 DUP3 ADD PUSH1 0x4 CALLDATALOAD PUSH2 0x2E48 JUMP JUMPDEST PUSH1 0x24 CALLDATALOAD PUSH1 0x64 DUP3 ADD MSTORE PUSH1 0x44 CALLDATALOAD PUSH1 0x84 DUP3 ADD MSTORE PUSH1 0x64 CALLDATALOAD PUSH1 0xA4 DUP3 ADD MSTORE PUSH1 0xFF DUP4 AND PUSH1 0xC4 DUP3 ADD MSTORE PUSH1 0xFF DUP5 AND PUSH1 0xE4 DUP3 ADD MSTORE PUSH1 0xC4 CALLDATALOAD PUSH2 0x104 DUP3 ADD MSTORE PUSH1 0xE4 CALLDATALOAD PUSH2 0x124 DUP3 ADD MSTORE PUSH1 0xFF DUP3 AND PUSH2 0x144 DUP3 ADD MSTORE PUSH2 0x180 PUSH2 0x164 DUP3 ADD MSTORE DUP5 DUP2 DUP1 PUSH2 0x1557 PUSH2 0x184 DUP3 ADD DUP12 PUSH2 0x2D62 JUMP JUMPDEST SUB DUP2 CALLVALUE DUP11 GAS CALL DUP1 ISZERO PUSH2 0x1706 JUMPI PUSH2 0x16F2 JUMPI JUMPDEST POP PUSH1 0x2 SLOAD PUSH1 0x1 PUSH1 0x40 SHL DUP2 LT ISZERO PUSH2 0x16DE JUMPI SWAP3 PUSH32 0x42CCA9B632A0B2904340227071AA69155E66CAF6D75F183968389DC593EB5F4C SWAP3 PUSH1 0xFF DUP1 SWAP4 PUSH2 0x15B0 DUP8 PUSH1 0x1 DUP12 SWAP10 ADD PUSH1 0x2 SSTORE PUSH2 0x2E55 JUMP JUMPDEST DUP2 SLOAD SWAP1 PUSH1 0x3 SHL SWAP1 DUP10 DUP3 SHL SWAP2 PUSH1 0x1 DUP1 PUSH1 0xA0 SHL SUB SWAP1 SHL NOT AND OR SWAP1 SSTORE PUSH1 0x40 MLOAD SWAP5 DUP6 SWAP5 PUSH2 0x140 DUP7 MSTORE DUP2 PUSH2 0x15E4 DUP14 PUSH2 0x140 DUP10 ADD SWAP1 PUSH2 0x2D62 JUMP JUMPDEST SWAP6 PUSH2 0x15F4 PUSH1 0x20 DUP10 ADD PUSH1 0x4 CALLDATALOAD PUSH2 0x2E48 JUMP JUMPDEST PUSH1 0x24 CALLDATALOAD PUSH1 0x40 DUP10 ADD MSTORE PUSH1 0x44 CALLDATALOAD PUSH1 0x60 DUP10 ADD MSTORE AND PUSH1 0x80 DUP8 ADD MSTORE AND PUSH1 0xA0 DUP6 ADD MSTORE PUSH1 0x64 CALLDATALOAD PUSH1 0xC0 DUP6 ADD MSTORE PUSH1 0xC4 CALLDATALOAD PUSH1 0xE0 DUP6 ADD MSTORE PUSH1 0xE4 CALLDATALOAD PUSH2 0x100 DUP6 ADD MSTORE AND PUSH2 0x120 DUP4 ADD MSTORE SUB SWAP1 LOG2 PUSH2 0x163E PUSH1 0x4 CALLDATALOAD PUSH2 0x3038 JUMP JUMPDEST SLOAD PUSH1 0x2 SHR DUP1 ISZERO ISZERO DUP1 PUSH2 0x16D4 JUMPI JUMPDEST PUSH2 0x1672 JUMPI JUMPDEST POP POP PUSH1 0x1 DUP1 SSTORE PUSH2 0x2B3 PUSH1 0x40 MLOAD SWAP3 DUP4 SWAP3 DUP4 MSTORE PUSH1 0x40 PUSH1 0x20 DUP5 ADD MSTORE PUSH1 0x40 DUP4 ADD SWAP1 PUSH2 0x2D62 JUMP JUMPDEST PUSH2 0x167D PUSH1 0x4 CALLDATALOAD PUSH2 0x3038 JUMP JUMPDEST PUSH2 0x1688 DUP3 DUP3 SLOAD PUSH2 0x34B7 JUMP JUMPDEST SWAP1 SSTORE DUP3 EXTCODESIZE ISZERO PUSH2 0x3F7 JUMPI DUP2 PUSH1 0x4 SWAP2 PUSH1 0x40 MLOAD SWAP3 DUP4 DUP1 SWAP3 PUSH4 0xEB2BAB77 PUSH1 0xE0 SHL DUP3 MSTORE DUP8 GAS CALL DUP1 ISZERO PUSH2 0x16C9 JUMPI ISZERO PUSH2 0x1650 JUMPI PUSH2 0x16BF DUP3 DUP1 SWAP3 PUSH2 0x2F73 JUMP JUMPDEST PUSH2 0x27E JUMPI DUP1 PUSH2 0x1650 JUMP JUMPDEST PUSH1 0x40 MLOAD RETURNDATASIZE DUP5 DUP3 RETURNDATACOPY RETURNDATASIZE SWAP1 REVERT JUMPDEST POP DUP1 SELFBALANCE LT ISZERO PUSH2 0x164B JUMP JUMPDEST PUSH4 0x4E487B71 PUSH1 0xE0 SHL DUP6 MSTORE PUSH1 0x41 PUSH1 0x4 MSTORE PUSH1 0x24 DUP6 REVERT JUMPDEST DUP5 PUSH2 0x16FF SWAP2 SWAP6 SWAP3 SWAP6 PUSH2 0x2F73 JUMP JUMPDEST SWAP3 CODESIZE PUSH2 0x1568 JUMP JUMPDEST PUSH1 0x40 MLOAD RETURNDATASIZE DUP8 DUP3 RETURNDATACOPY RETURNDATASIZE SWAP1 REVERT JUMPDEST DUP5 DUP1 REVERT JUMPDEST SWAP1 POP DUP9 ADD MLOAD CODESIZE PUSH2 0x14A9 JUMP JUMPDEST SWAP2 POP DUP3 DUP8 MSTORE DUP2 DUP8 KECCAK256 DUP8 SWAP3 JUMPDEST DUP11 PUSH1 0x1F NOT DUP5 AND DUP6 LT PUSH2 0x176D JUMPI POP PUSH1 0x1 SWAP4 POP DUP3 PUSH1 0x1F NOT DUP2 AND LT PUSH2 0x1754 JUMPI JUMPDEST POP POP DUP2 SHL ADD SWAP1 SSTORE PUSH2 0x14BD JUMP JUMPDEST DUP11 ADD MLOAD PUSH1 0x0 NOT PUSH1 0xF8 DUP5 PUSH1 0x3 SHL AND SHR NOT AND SWAP1 SSTORE CODESIZE DUP1 PUSH2 0x1748 JUMP JUMPDEST DUP2 ADD MLOAD DUP3 SSTORE PUSH1 0x20 SWAP4 DUP5 ADD SWAP4 PUSH1 0x1 SWAP1 SWAP3 ADD SWAP2 ADD PUSH2 0x172B JUMP JUMPDEST DUP3 DUP8 MSTORE PUSH1 0x20 DUP8 KECCAK256 PUSH1 0x1F DUP4 ADD PUSH1 0x5 SHR DUP2 ADD SWAP2 PUSH1 0x20 DUP5 LT PUSH2 0x17BF JUMPI JUMPDEST PUSH1 0x1F ADD PUSH1 0x5 SHR ADD SWAP1 JUMPDEST DUP2 DUP2 LT PUSH2 0x17B4 JUMPI POP PUSH2 0x1493 JUMP JUMPDEST DUP8 DUP2 SSTORE PUSH1 0x1 ADD PUSH2 0x17A7 JUMP JUMPDEST SWAP1 SWAP2 POP DUP2 SWAP1 PUSH2 0x179E JUMP JUMPDEST PUSH4 0x4E487B71 PUSH1 0xE0 SHL DUP7 MSTORE PUSH1 0x41 PUSH1 0x4 MSTORE PUSH1 0x24 DUP7 REVERT JUMPDEST POP POP POP PUSH2 0x17EB PUSH1 0x4 CALLDATALOAD PUSH2 0x3CBA JUMP JUMPDEST PUSH2 0x17F6 PUSH1 0x4 CALLDATALOAD PUSH2 0x3051 JUMP JUMPDEST SLOAD DUP5 DUP2 PUSH19 0x184F03E93FF9F4DAA797ED6E38ED64BF6A1F01 PUSH1 0x40 SHL DUP2 LT ISZERO PUSH2 0x1994 JUMPI JUMPDEST DUP1 PUSH14 0x4EE2D6D415B85ACEF8100000000 PUSH1 0xA SWAP3 LT ISZERO PUSH2 0x1979 JUMPI JUMPDEST PUSH7 0x2386F26FC10000 DUP2 LT ISZERO PUSH2 0x1965 JUMPI JUMPDEST PUSH4 0x5F5E100 DUP2 LT ISZERO PUSH2 0x1954 JUMPI JUMPDEST PUSH2 0x2710 DUP2 LT ISZERO PUSH2 0x1945 JUMPI JUMPDEST PUSH1 0x64 DUP2 LT ISZERO PUSH2 0x1937 JUMPI JUMPDEST LT ISZERO PUSH2 0x192F JUMPI JUMPDEST PUSH1 0x1 DUP2 ADD SWAP2 PUSH1 0xA PUSH1 0x21 PUSH2 0x1896 PUSH2 0x1880 DUP7 PUSH2 0x306A JUMP JUMPDEST SWAP6 PUSH2 0x188E PUSH1 0x40 MLOAD SWAP8 DUP9 PUSH2 0x2F73 JUMP JUMPDEST DUP1 DUP8 MSTORE PUSH2 0x306A JUMP JUMPDEST PUSH1 0x20 DUP7 ADD SWAP5 SWAP1 PUSH1 0x1F NOT ADD CALLDATASIZE DUP7 CALLDATACOPY DUP6 ADD ADD JUMPDEST PUSH1 0x0 NOT ADD SWAP2 PUSH16 0x181899199A1A9B1B9C1CB0B131B232B3 PUSH1 0x81 SHL DUP3 DUP3 MOD BYTE DUP4 MSTORE8 DIV SWAP1 DUP2 ISZERO PUSH2 0x18D6 JUMPI PUSH1 0xA SWAP1 PUSH2 0x18A7 JUMP JUMPDEST POP POP PUSH2 0x1918 SWAP3 PUSH1 0x20 PUSH1 0x3 SWAP3 PUSH2 0x1929 SWAP5 PUSH1 0x40 MLOAD SWAP7 DUP5 PUSH2 0x18FD DUP10 SWAP7 MLOAD DUP1 SWAP3 DUP8 DUP1 DUP11 ADD SWAP2 ADD PUSH2 0x2D3F JUMP JUMPDEST DUP6 ADD SWAP2 PUSH3 0x10169 PUSH1 0xED SHL DUP6 DUP5 ADD MSTORE MLOAD DUP1 SWAP4 PUSH1 0x23 DUP5 ADD SWAP1 PUSH2 0x2D3F JUMP JUMPDEST ADD ADD SUB ADD PUSH1 0x1F NOT DUP2 ADD DUP4 MSTORE DUP3 PUSH2 0x2F73 JUMP JUMPDEST SWAP5 PUSH2 0x1439 JUMP JUMPDEST PUSH1 0x1 ADD PUSH2 0x186B JUMP JUMPDEST PUSH1 0x64 PUSH1 0x2 SWAP2 DIV SWAP3 ADD SWAP2 PUSH2 0x1864 JUMP JUMPDEST PUSH2 0x2710 PUSH1 0x4 SWAP2 DIV SWAP3 ADD SWAP2 PUSH2 0x185A JUMP JUMPDEST PUSH4 0x5F5E100 PUSH1 0x8 SWAP2 DIV SWAP3 ADD SWAP2 PUSH2 0x184F JUMP JUMPDEST PUSH7 0x2386F26FC10000 PUSH1 0x10 SWAP2 DIV SWAP3 ADD SWAP2 PUSH2 0x1842 JUMP JUMPDEST PUSH14 0x4EE2D6D415B85ACEF8100000000 PUSH1 0x20 SWAP2 DIV SWAP3 ADD SWAP2 PUSH2 0x1832 JUMP JUMPDEST POP PUSH1 0x40 SWAP1 POP PUSH19 0x184F03E93FF9F4DAA797ED6E38ED64BF6A1F01 PUSH1 0x40 SHL DUP3 DIV PUSH2 0x1818 JUMP JUMPDEST PUSH4 0xB06EBF3D PUSH1 0xE0 SHL DUP6 MSTORE PUSH1 0x4 DUP6 REVERT JUMPDEST PUSH1 0x40 MLOAD PUSH3 0x461BCD PUSH1 0xE5 SHL DUP2 MSTORE PUSH1 0x20 PUSH1 0x4 DUP3 ADD MSTORE PUSH1 0x2B PUSH1 0x24 DUP3 ADD MSTORE PUSH32 0x456E726F6C6C6D656E7420616D6F756E74206D75737420626520677265617465 PUSH1 0x44 DUP3 ADD MSTORE PUSH11 0x72207468616E207A65726F PUSH1 0xA8 SHL PUSH1 0x64 DUP3 ADD MSTORE PUSH1 0x84 SWAP1 REVERT JUMPDEST PUSH1 0x64 PUSH1 0x40 MLOAD PUSH3 0x461BCD PUSH1 0xE5 SHL DUP2 MSTORE PUSH1 0x20 PUSH1 0x4 DUP3 ADD MSTORE PUSH1 0x20 PUSH1 0x24 DUP3 ADD MSTORE PUSH32 0x4D697373696F6E207374617274206D757374206265206265666F726520656E64 PUSH1 0x44 DUP3 ADD MSTORE REVERT JUMPDEST PUSH1 0x40 MLOAD PUSH3 0x461BCD PUSH1 0xE5 SHL DUP2 MSTORE PUSH1 0x20 PUSH1 0x4 DUP3 ADD MSTORE PUSH1 0x30 PUSH1 0x24 DUP3 ADD MSTORE PUSH32 0x4D697373696F6E207374617274206D757374206265206F6E206F722061667465 PUSH1 0x44 DUP3 ADD MSTORE PUSH16 0x1C88195B9C9BDB1B1B595B9D08195B99 PUSH1 0x82 SHL PUSH1 0x64 DUP3 ADD MSTORE PUSH1 0x84 SWAP1 REVERT JUMPDEST PUSH1 0x40 MLOAD PUSH3 0x461BCD PUSH1 0xE5 SHL DUP2 MSTORE PUSH1 0x20 PUSH1 0x4 DUP3 ADD MSTORE PUSH1 0x23 PUSH1 0x24 DUP3 ADD MSTORE PUSH32 0x456E726F6C6C6D656E74207374617274206D757374206265206265666F726520 PUSH1 0x44 DUP3 ADD MSTORE PUSH3 0x195B99 PUSH1 0xEA SHL PUSH1 0x64 DUP3 ADD MSTORE PUSH1 0x84 SWAP1 REVERT JUMPDEST PUSH1 0x84 PUSH1 0x40 MLOAD PUSH3 0x461BCD PUSH1 0xE5 SHL DUP2 MSTORE PUSH1 0x20 PUSH1 0x4 DUP3 ADD MSTORE PUSH1 0x40 PUSH1 0x24 DUP3 ADD MSTORE PUSH32 0x4D6178696D756D20706C6179657273206D757374206265206772656174657220 PUSH1 0x44 DUP3 ADD MSTORE PUSH32 0x7468616E206F7220657175616C20746F206D696E696D756D20706C6179657273 PUSH1 0x64 DUP3 ADD MSTORE REVERT JUMPDEST PUSH1 0x40 MLOAD PUSH3 0x461BCD PUSH1 0xE5 SHL DUP2 MSTORE PUSH1 0x20 PUSH1 0x4 DUP3 ADD MSTORE PUSH1 0x3F PUSH1 0x24 DUP3 ADD MSTORE PUSH32 0x4D696E696D756D20706C6179657273206D757374206265206772656174657220 PUSH1 0x44 DUP3 ADD MSTORE PUSH32 0x7468616E206F7220657175616C20746F206D697373696F6E20726F756E647300 PUSH1 0x64 DUP3 ADD MSTORE PUSH1 0x84 SWAP1 REVERT JUMPDEST PUSH1 0x40 MLOAD PUSH3 0x461BCD PUSH1 0xE5 SHL DUP2 MSTORE PUSH1 0x20 PUSH1 0x4 DUP3 ADD MSTORE PUSH1 0x31 PUSH1 0x24 DUP3 ADD MSTORE PUSH32 0x4D697373696F6E20726F756E6473206D75737420626520677265617465722074 PUSH1 0x44 DUP3 ADD MSTORE PUSH17 0x68616E206F7220657175616C20746F2035 PUSH1 0x78 SHL PUSH1 0x64 DUP3 ADD MSTORE PUSH1 0x84 SWAP1 REVERT JUMPDEST POP CALLER DUP5 MSTORE PUSH1 0xB PUSH1 0x20 MSTORE PUSH1 0x40 DUP5 KECCAK256 SLOAD PUSH1 0xFF AND PUSH2 0x131B JUMP JUMPDEST POP CALLVALUE PUSH2 0x27E JUMPI DUP1 PUSH1 0x3 NOT CALLDATASIZE ADD SLT PUSH2 0x27E JUMPI DUP1 SLOAD PUSH1 0x1 PUSH1 0x1 PUSH1 0xA0 SHL SUB AND CALLER EQ DUP1 ISZERO PUSH2 0x1DAE JUMPI JUMPDEST PUSH2 0x1C8A SWAP1 PUSH2 0x344F JUMP JUMPDEST PUSH1 0xA SLOAD PUSH1 0x1 PUSH1 0x1 PUSH1 0xA0 SHL SUB AND CALLER EQ PUSH2 0x1D6A JUMPI PUSH1 0x8 SLOAD PUSH3 0x15180 DUP2 ADD DUP1 SWAP2 GT PUSH2 0x8F0 JUMPI TIMESTAMP GT PUSH2 0x1D32 JUMPI PUSH1 0x9 SLOAD PUSH2 0x1CC7 SWAP1 PUSH1 0x1 PUSH1 0x1 PUSH1 0xA0 SHL SUB AND PUSH2 0x3C73 JUMP JUMPDEST PUSH1 0x9 SLOAD PUSH1 0x40 DUP1 MLOAD PUSH1 0x1 PUSH1 0x1 PUSH1 0xA0 SHL SUB SWAP1 SWAP3 AND DUP3 MSTORE TIMESTAMP PUSH1 0x20 DUP4 ADD MSTORE CALLER SWAP2 PUSH32 0xDD72DD33198968A9CDC9B1E5CBFF344FB8D04D99F8C15C0A02416B04E857B467 SWAP2 SWAP1 LOG2 PUSH1 0x1 PUSH1 0x1 PUSH1 0x60 SHL SUB PUSH1 0xA0 SHL PUSH1 0x9 SLOAD AND PUSH1 0x9 SSTORE PUSH1 0x1 PUSH1 0x1 PUSH1 0x60 SHL SUB PUSH1 0xA0 SHL PUSH1 0xA SLOAD AND PUSH1 0xA SSTORE DUP1 PUSH1 0x8 SSTORE DUP1 RETURN JUMPDEST PUSH1 0x40 MLOAD PUSH3 0x461BCD PUSH1 0xE5 SHL DUP2 MSTORE PUSH1 0x20 PUSH1 0x4 DUP3 ADD MSTORE PUSH1 0x10 PUSH1 0x24 DUP3 ADD MSTORE PUSH16 0x141C9BDC1BDCD85B08195E1C1A5C9959 PUSH1 0x82 SHL PUSH1 0x44 DUP3 ADD MSTORE PUSH1 0x64 SWAP1 REVERT JUMPDEST PUSH1 0x64 PUSH1 0x40 MLOAD PUSH3 0x461BCD PUSH1 0xE5 SHL DUP2 MSTORE PUSH1 0x20 PUSH1 0x4 DUP3 ADD MSTORE PUSH1 0x20 PUSH1 0x24 DUP3 ADD MSTORE PUSH32 0x43616E6E6F7420636F6E6669726D20796F7572206F776E2070726F706F73616C PUSH1 0x44 DUP3 ADD MSTORE REVERT JUMPDEST POP CALLER DUP2 MSTORE PUSH1 0xB PUSH1 0x20 MSTORE PUSH1 0x40 DUP2 KECCAK256 SLOAD PUSH1 0xFF AND PUSH2 0x1C81 JUMP JUMPDEST POP CALLVALUE PUSH2 0x27E JUMPI DUP1 PUSH1 0x3 NOT CALLDATASIZE ADD SLT PUSH2 0x27E JUMPI PUSH2 0x1DDD PUSH2 0x3C28 JUMP JUMPDEST DUP1 SLOAD PUSH1 0x1 PUSH1 0x1 PUSH1 0xA0 SHL SUB NOT DUP2 AND DUP3 SSTORE DUP2 SWAP1 PUSH1 0x1 PUSH1 0x1 PUSH1 0xA0 SHL SUB AND PUSH32 0x8BE0079C531659141344CD1FD0A4F28419497F9722A3DAAFE3B4186F6B6457E0 DUP3 DUP1 LOG3 DUP1 RETURN JUMPDEST POP CALLVALUE PUSH2 0x27E JUMPI PUSH1 0x20 CALLDATASIZE PUSH1 0x3 NOT ADD SLT PUSH2 0x27E JUMPI PUSH1 0x4 CALLDATALOAD PUSH1 0x1 PUSH1 0x1 PUSH1 0xA0 SHL SUB DUP2 AND SWAP1 DUP2 SWAP1 SUB PUSH2 0x3F7 JUMPI DUP2 SLOAD PUSH1 0x1 PUSH1 0x1 PUSH1 0xA0 SHL SUB AND CALLER EQ DUP1 ISZERO PUSH2 0x1EF3 JUMPI JUMPDEST PUSH2 0x1E62 SWAP1 PUSH2 0x344F JUMP JUMPDEST PUSH2 0x1E6D DUP2 ISZERO ISZERO PUSH2 0x34C4 JUMP JUMPDEST DUP1 DUP3 MSTORE PUSH1 0xB PUSH1 0x20 MSTORE PUSH1 0xFF PUSH1 0x40 DUP4 KECCAK256 SLOAD AND ISZERO PUSH2 0x1EBD JUMPI DUP1 DUP3 MSTORE PUSH1 0xB PUSH1 0x20 MSTORE PUSH1 0x40 DUP3 KECCAK256 DUP1 SLOAD PUSH1 0xFF NOT AND SWAP1 SSTORE PUSH32 0x66D5F06F711AF3C9FEBA3203FDB00B51345D514C68585D9D319C5FF5E6F77592 DUP3 DUP1 LOG2 DUP1 RETURN JUMPDEST PUSH1 0x40 MLOAD PUSH3 0x461BCD PUSH1 0xE5 SHL DUP2 MSTORE PUSH1 0x20 PUSH1 0x4 DUP3 ADD MSTORE PUSH1 0xE PUSH1 0x24 DUP3 ADD MSTORE PUSH14 0x139BDD08185D5D1A1BDC9A5E9959 PUSH1 0x92 SHL PUSH1 0x44 DUP3 ADD MSTORE PUSH1 0x64 SWAP1 REVERT JUMPDEST POP CALLER DUP3 MSTORE PUSH1 0xB PUSH1 0x20 MSTORE PUSH1 0x40 DUP3 KECCAK256 SLOAD PUSH1 0xFF AND PUSH2 0x1E59 JUMP JUMPDEST POP CALLVALUE PUSH2 0x27E JUMPI DUP1 PUSH1 0x3 NOT CALLDATASIZE ADD SLT PUSH2 0x27E JUMPI PUSH2 0x2B3 PUSH2 0x1F25 PUSH2 0x3533 JUMP JUMPDEST PUSH1 0x40 SWAP4 SWAP2 SWAP4 MLOAD SWAP4 DUP5 SWAP4 DUP5 PUSH2 0x2E9E JUMP JUMPDEST POP CALLVALUE PUSH2 0x27E JUMPI DUP1 PUSH1 0x3 NOT CALLDATASIZE ADD SLT PUSH2 0x27E JUMPI PUSH1 0x2 SLOAD DUP2 SWAP1 DUP3 JUMPDEST DUP2 DUP2 LT PUSH2 0x2027 JUMPI POP PUSH2 0x1F5D DUP3 PUSH2 0x30C1 JUMP JUMPDEST SWAP1 PUSH2 0x1F6A PUSH2 0xD3A DUP5 PUSH2 0x30C1 JUMP JUMPDEST SWAP1 DUP5 DUP1 JUMPDEST DUP3 DUP3 LT PUSH2 0x1F88 JUMPI POP POP POP PUSH2 0x2B3 SWAP1 PUSH1 0x40 MLOAD SWAP4 DUP5 SWAP4 DUP5 PUSH2 0x2DE0 JUMP JUMPDEST PUSH2 0x1F91 DUP3 PUSH2 0x2E55 JUMP JUMPDEST SWAP1 SLOAD PUSH1 0x3 SWAP2 SWAP1 SWAP2 SHL SHR PUSH1 0x1 PUSH1 0x1 PUSH1 0xA0 SHL SUB AND DUP8 MSTORE PUSH1 0xD PUSH1 0x20 MSTORE PUSH1 0x40 DUP8 KECCAK256 SLOAD PUSH1 0xFF AND PUSH1 0x8 DUP2 LT ISZERO DUP1 PUSH2 0xE56 JUMPI PUSH1 0x6 DUP3 EQ ISZERO DUP1 PUSH2 0x201A JUMPI JUMPDEST PUSH2 0x1FD8 JUMPI JUMPDEST POP POP SWAP1 PUSH1 0x1 ADD SWAP1 PUSH2 0x1F6E JUMP JUMPDEST PUSH2 0x1FE1 DUP5 PUSH2 0x2E55 JUMP JUMPDEST SWAP1 SLOAD PUSH1 0x3 SWAP2 SWAP1 SWAP2 SHL SHR PUSH1 0x1 PUSH1 0x1 PUSH1 0xA0 SHL SUB AND PUSH2 0x1FFD DUP5 DUP10 PUSH2 0x3171 JUMP JUMPDEST MSTORE PUSH2 0xE36 JUMPI DUP2 PUSH2 0x2013 SWAP2 PUSH2 0xDE9 PUSH1 0x1 SWAP5 DUP11 PUSH2 0x3171 JUMP JUMPDEST SWAP1 CODESIZE PUSH2 0x1FCC JUMP JUMPDEST POP POP DUP8 PUSH1 0x7 DUP3 EQ ISZERO PUSH2 0x1FC7 JUMP JUMPDEST PUSH2 0x2030 DUP2 PUSH2 0x2E55 JUMP JUMPDEST SWAP1 SLOAD PUSH1 0x3 SWAP2 SWAP1 SWAP2 SHL SHR PUSH1 0x1 PUSH1 0x1 PUSH1 0xA0 SHL SUB AND DUP5 MSTORE PUSH1 0xD PUSH1 0x20 MSTORE PUSH1 0x40 DUP5 KECCAK256 SLOAD PUSH1 0xFF AND PUSH1 0x8 DUP2 LT ISZERO PUSH2 0x707 JUMPI PUSH1 0x6 DUP2 EQ ISZERO SWAP1 DUP2 PUSH2 0x2088 JUMPI JUMPDEST POP PUSH2 0x2074 JUMPI JUMPDEST PUSH1 0x1 ADD PUSH2 0x1F4C JUMP JUMPDEST SWAP2 PUSH2 0x2080 PUSH1 0x1 SWAP2 PUSH2 0x3085 JUMP JUMPDEST SWAP3 SWAP1 POP PUSH2 0x206C JUMP JUMPDEST PUSH1 0x7 SWAP2 POP EQ ISZERO CODESIZE PUSH2 0x2066 JUMP JUMPDEST POP CALLVALUE PUSH2 0x27E JUMPI DUP1 PUSH1 0x3 NOT CALLDATASIZE ADD SLT PUSH2 0x27E JUMPI PUSH1 0x20 PUSH1 0x4 SLOAD PUSH1 0x40 MLOAD SWAP1 DUP2 MSTORE RETURN JUMPDEST POP CALLVALUE PUSH2 0x27E JUMPI DUP1 PUSH1 0x3 NOT CALLDATASIZE ADD SLT PUSH2 0x27E JUMPI PUSH1 0x20 PUSH1 0x2 SLOAD PUSH1 0x40 MLOAD SWAP1 DUP2 MSTORE RETURN JUMPDEST POP CALLVALUE PUSH2 0x27E JUMPI PUSH1 0x20 CALLDATASIZE PUSH1 0x3 NOT ADD SLT PUSH2 0x27E JUMPI PUSH1 0x4 CALLDATALOAD PUSH1 0x1 PUSH1 0x1 PUSH1 0xA0 SHL SUB DUP2 AND SWAP1 DUP2 SWAP1 SUB PUSH2 0x3F7 JUMPI PUSH1 0x2 SLOAD DUP3 SWAP1 DUP1 DUP1 JUMPDEST PUSH2 0x2294 JUMPI POP PUSH2 0x210D DUP5 PUSH2 0x30C1 JUMP JUMPDEST SWAP3 PUSH2 0x2120 PUSH2 0x211A DUP7 PUSH2 0x30C1 JUMP JUMPDEST SWAP6 PUSH2 0x3127 JUMP JUMPDEST SWAP3 DUP1 SWAP3 DUP1 JUMPDEST PUSH2 0x2139 JUMPI PUSH1 0x40 MLOAD DUP1 PUSH2 0x2B3 DUP8 DUP11 DUP11 DUP5 PUSH2 0x2E9E JUMP JUMPDEST PUSH1 0x0 NOT DUP2 ADD DUP2 DUP2 GT PUSH2 0xBCD JUMPI PUSH2 0x214E SWAP1 PUSH2 0x2E55 JUMP JUMPDEST SWAP1 SLOAD PUSH1 0x40 MLOAD PUSH3 0x9C95E1 PUSH1 0xE4 SHL DUP2 MSTORE PUSH1 0x4 DUP2 ADD DUP7 SWAP1 MSTORE PUSH1 0x3 SWAP3 SWAP1 SWAP3 SHL SHR PUSH1 0x1 PUSH1 0x1 PUSH1 0xA0 SHL SUB AND SWAP1 PUSH1 0x20 DUP2 PUSH1 0x24 DUP2 DUP6 GAS STATICCALL SWAP1 DUP2 ISZERO PUSH2 0x225B JUMPI DUP5 SWAP2 PUSH2 0x2266 JUMPI JUMPDEST POP PUSH2 0x21A1 JUMPI JUMPDEST POP PUSH2 0x219B SWAP1 PUSH2 0x3502 JUMP JUMPDEST DUP1 PUSH2 0x2125 JUMP JUMPDEST DUP1 PUSH2 0x21AF DUP7 DUP10 SWAP8 SWAP5 SWAP8 PUSH2 0x3171 JUMP JUMPDEST MSTORE PUSH1 0x40 MLOAD PUSH4 0x68C6BA21 PUSH1 0xE0 SHL DUP2 MSTORE PUSH1 0x20 DUP2 PUSH1 0x4 DUP2 DUP6 GAS STATICCALL SWAP1 DUP2 ISZERO PUSH2 0x225B JUMPI DUP5 SWAP2 PUSH2 0x221F JUMPI JUMPDEST POP SWAP2 PUSH2 0x2218 SWAP2 PUSH2 0x21F0 PUSH2 0x219B SWAP5 PUSH2 0x21EB DUP5 DUP14 PUSH2 0x3171 JUMP JUMPDEST PUSH2 0x3527 JUMP JUMPDEST DUP5 MSTORE PUSH1 0x10 PUSH1 0x20 MSTORE PUSH2 0x2203 PUSH1 0x40 DUP6 KECCAK256 PUSH2 0x2F94 JUMP JUMPDEST PUSH2 0x220D DUP3 DUP10 PUSH2 0x3171 JUMP JUMPDEST MSTORE PUSH2 0xE29 DUP2 DUP9 PUSH2 0x3171 JUMP JUMPDEST SWAP4 SWAP1 PUSH2 0x2191 JUMP JUMPDEST SWAP1 POP PUSH1 0x20 DUP2 RETURNDATASIZE DUP3 GT PUSH2 0x2253 JUMPI JUMPDEST DUP2 PUSH2 0x2239 PUSH1 0x20 SWAP4 DUP4 PUSH2 0x2F73 JUMP JUMPDEST DUP2 ADD SUB SLT PUSH2 0x7F6 JUMPI MLOAD PUSH1 0x8 DUP2 LT ISZERO PUSH2 0x7F6 JUMPI PUSH2 0x2218 PUSH2 0x21D4 JUMP JUMPDEST RETURNDATASIZE SWAP2 POP PUSH2 0x222C JUMP JUMPDEST PUSH1 0x40 MLOAD RETURNDATASIZE DUP7 DUP3 RETURNDATACOPY RETURNDATASIZE SWAP1 REVERT JUMPDEST PUSH2 0x2287 SWAP2 POP PUSH1 0x20 RETURNDATASIZE DUP2 GT PUSH2 0x228D JUMPI JUMPDEST PUSH2 0x227F DUP2 DUP4 PUSH2 0x2F73 JUMP JUMPDEST DUP2 ADD SWAP1 PUSH2 0x350F JUMP JUMPDEST CODESIZE PUSH2 0x218B JUMP JUMPDEST POP RETURNDATASIZE PUSH2 0x2275 JUMP JUMPDEST PUSH1 0x0 NOT DUP2 ADD DUP2 DUP2 GT PUSH2 0x232E JUMPI PUSH1 0x20 PUSH2 0x22AD PUSH1 0x24 SWAP3 PUSH2 0x2E55 JUMP JUMPDEST SWAP1 SLOAD PUSH1 0x40 MLOAD PUSH3 0x9C95E1 PUSH1 0xE4 SHL DUP2 MSTORE PUSH1 0x4 DUP2 ADD DUP10 SWAP1 MSTORE SWAP4 DUP5 SWAP3 SWAP1 SWAP2 DUP4 SWAP2 PUSH1 0x3 SHL SHR PUSH1 0x1 PUSH1 0x1 PUSH1 0xA0 SHL SUB AND GAS STATICCALL SWAP1 DUP2 ISZERO PUSH2 0x225B JUMPI DUP5 SWAP2 PUSH2 0x2310 JUMPI JUMPDEST POP PUSH2 0x22FB JUMPI JUMPDEST PUSH2 0x22F5 SWAP1 PUSH2 0x3502 JUMP JUMPDEST DUP1 PUSH2 0x20FF JUMP JUMPDEST SWAP4 PUSH2 0x2308 PUSH2 0x22F5 SWAP2 PUSH2 0x3085 JUMP JUMPDEST SWAP5 SWAP1 POP PUSH2 0x22EC JUMP JUMPDEST PUSH2 0x2328 SWAP2 POP PUSH1 0x20 RETURNDATASIZE DUP2 GT PUSH2 0x228D JUMPI PUSH2 0x227F DUP2 DUP4 PUSH2 0x2F73 JUMP JUMPDEST CODESIZE PUSH2 0x22E6 JUMP JUMPDEST PUSH4 0x4E487B71 PUSH1 0xE0 SHL DUP5 MSTORE PUSH1 0x11 PUSH1 0x4 MSTORE PUSH1 0x24 DUP5 REVERT JUMPDEST POP CALLVALUE PUSH2 0x27E JUMPI PUSH1 0x20 CALLDATASIZE PUSH1 0x3 NOT ADD SLT PUSH2 0x27E JUMPI PUSH1 0x4 CALLDATALOAD PUSH1 0x1 PUSH1 0x1 PUSH1 0xA0 SHL SUB DUP2 AND SWAP1 DUP2 SWAP1 SUB PUSH2 0x3F7 JUMPI DUP2 SLOAD PUSH1 0x1 PUSH1 0x1 PUSH1 0xA0 SHL SUB AND CALLER EQ DUP1 ISZERO PUSH2 0x241D JUMPI JUMPDEST PUSH2 0x2386 SWAP1 PUSH2 0x344F JUMP JUMPDEST PUSH2 0x2391 DUP2 ISZERO ISZERO PUSH2 0x34C4 JUMP JUMPDEST DUP1 DUP3 MSTORE PUSH1 0xB PUSH1 0x20 MSTORE PUSH1 0xFF PUSH1 0x40 DUP4 KECCAK256 SLOAD AND PUSH2 0x23E3 JUMPI DUP1 DUP3 MSTORE PUSH1 0xB PUSH1 0x20 MSTORE PUSH1 0x40 DUP3 KECCAK256 DUP1 SLOAD PUSH1 0xFF NOT AND PUSH1 0x1 OR SWAP1 SSTORE PUSH32 0x10AC961F00D5E732BA4DCC2C6FB09BEBEA0EB9EDD2A75C8109775EF288382E67 DUP3 DUP1 LOG2 DUP1 RETURN JUMPDEST PUSH1 0x40 MLOAD PUSH3 0x461BCD PUSH1 0xE5 SHL DUP2 MSTORE PUSH1 0x20 PUSH1 0x4 DUP3 ADD MSTORE PUSH1 0x12 PUSH1 0x24 DUP3 ADD MSTORE PUSH18 0x105B1C9958591E48185D5D1A1BDC9A5E9959 PUSH1 0x72 SHL PUSH1 0x44 DUP3 ADD MSTORE PUSH1 0x64 SWAP1 REVERT JUMPDEST POP CALLER DUP3 MSTORE PUSH1 0xB PUSH1 0x20 MSTORE PUSH1 0x40 DUP3 KECCAK256 SLOAD PUSH1 0xFF AND PUSH2 0x237D JUMP JUMPDEST POP CALLVALUE PUSH2 0x27E JUMPI PUSH1 0x20 CALLDATASIZE PUSH1 0x3 NOT ADD SLT PUSH2 0x27E JUMPI PUSH1 0x4 CALLDATALOAD PUSH1 0x1 PUSH1 0x1 PUSH1 0xA0 SHL SUB DUP2 AND SWAP1 DUP2 SWAP1 SUB PUSH2 0x3F7 JUMPI DUP2 MSTORE PUSH1 0xF PUSH1 0x20 MSTORE PUSH1 0x40 DUP2 KECCAK256 DUP1 SLOAD DUP3 SWAP2 DUP3 JUMPDEST DUP3 DUP2 LT PUSH2 0x24A1 JUMPI POP POP POP DUP2 PUSH2 0x2486 JUMPI PUSH1 0x20 SWAP2 POP PUSH1 0x40 MLOAD SWAP1 DUP2 MSTORE RETURN JUMPDEST PUSH3 0x278D00 DUP3 ADD DUP1 SWAP3 GT PUSH2 0x35E JUMPI POP PUSH2 0x359 PUSH1 0x20 SWAP2 TIMESTAMP SWAP1 PUSH2 0x34B7 JUMP JUMPDEST PUSH2 0x24AB DUP2 DUP4 PUSH2 0x2E86 JUMP JUMPDEST SWAP1 SLOAD SWAP1 PUSH1 0x3 SHL SHR PUSH3 0x278D00 DUP2 ADD DUP1 SWAP2 GT PUSH2 0x3E3 JUMPI TIMESTAMP LT PUSH2 0x24CE JUMPI JUMPDEST PUSH1 0x1 ADD PUSH2 0x246B JUMP JUMPDEST DUP5 ISZERO DUP1 ISZERO PUSH2 0x24F9 JUMPI JUMPDEST ISZERO PUSH2 0x24C6 JUMPI SWAP4 POP PUSH1 0x1 PUSH2 0x24EA DUP6 DUP4 PUSH2 0x2E86 JUMP JUMPDEST SWAP1 SLOAD SWAP1 PUSH1 0x3 SHL SHR SWAP5 SWAP1 POP PUSH2 0x24C6 JUMP JUMPDEST POP DUP5 PUSH2 0x2505 DUP3 DUP5 PUSH2 0x2E86 JUMP JUMPDEST SWAP1 SLOAD SWAP1 PUSH1 0x3 SHL SHR LT PUSH2 0x24D7 JUMP JUMPDEST POP CALLVALUE PUSH2 0x27E JUMPI DUP1 PUSH1 0x3 NOT CALLDATASIZE ADD SLT PUSH2 0x27E JUMPI PUSH1 0x20 PUSH1 0x5 SLOAD PUSH1 0x40 MLOAD SWAP1 DUP2 MSTORE RETURN JUMPDEST POP CALLVALUE PUSH2 0x27E JUMPI DUP1 PUSH1 0x3 NOT CALLDATASIZE ADD SLT PUSH2 0x27E JUMPI PUSH1 0xA SLOAD PUSH1 0x40 MLOAD PUSH1 0x1 PUSH1 0x1 PUSH1 0xA0 SHL SUB SWAP1 SWAP2 AND DUP2 MSTORE PUSH1 0x20 SWAP1 RETURN JUMPDEST POP CALLVALUE PUSH2 0x27E JUMPI PUSH1 0x20 CALLDATASIZE PUSH1 0x3 NOT ADD SLT PUSH2 0x27E JUMPI PUSH1 0x4 CALLDATALOAD SWAP1 PUSH1 0x2 SLOAD DUP3 LT ISZERO PUSH2 0x27E JUMPI PUSH1 0x20 PUSH2 0x2584 DUP4 PUSH2 0x2E55 JUMP JUMPDEST SWAP1 SLOAD PUSH1 0x40 MLOAD PUSH1 0x3 SWAP3 SWAP1 SWAP3 SHL SHR PUSH1 0x1 PUSH1 0x1 PUSH1 0xA0 SHL SUB AND DUP2 MSTORE RETURN JUMPDEST POP CALLVALUE PUSH2 0x27E JUMPI PUSH1 0x20 CALLDATASIZE PUSH1 0x3 NOT ADD SLT PUSH2 0x27E JUMPI PUSH1 0x4 CALLDATALOAD PUSH1 0x1 PUSH1 0x1 PUSH1 0xA0 SHL SUB DUP2 AND DUP1 DUP3 SUB PUSH2 0x27C JUMPI DUP3 SLOAD PUSH1 0x1 PUSH1 0x1 PUSH1 0xA0 SHL SUB AND CALLER EQ DUP1 ISZERO PUSH2 0x2697 JUMPI JUMPDEST PUSH2 0x25E0 SWAP1 PUSH2 0x344F JUMP JUMPDEST DUP1 ISZERO PUSH2 0x265E JUMPI PUSH1 0x1 PUSH1 0x1 PUSH1 0x60 SHL SUB PUSH1 0xA0 SHL PUSH1 0x9 SLOAD AND OR PUSH1 0x9 SSTORE CALLER PUSH1 0x1 PUSH1 0x1 PUSH1 0x60 SHL SUB PUSH1 0xA0 SHL PUSH1 0xA SLOAD AND OR PUSH1 0xA SSTORE TIMESTAMP PUSH1 0x8 SSTORE PUSH32 0xC29BDBD554E41DF97E5C40FC273A09677AC133C245F0064BDFFEF5CC72176E19 PUSH1 0x40 MLOAD DUP1 PUSH2 0x2658 CALLER SWAP5 TIMESTAMP SWAP1 DUP4 PUSH1 0x20 SWAP1 SWAP4 SWAP3 SWAP2 SWAP4 PUSH1 0x40 DUP2 ADD SWAP5 PUSH1 0x1 DUP1 PUSH1 0xA0 SHL SUB AND DUP2 MSTORE ADD MSTORE JUMP JUMPDEST SUB SWAP1 LOG2 DUP1 RETURN JUMPDEST PUSH1 0x40 MLOAD PUSH3 0x461BCD PUSH1 0xE5 SHL DUP2 MSTORE PUSH1 0x20 PUSH1 0x4 DUP3 ADD MSTORE PUSH1 0x11 PUSH1 0x24 DUP3 ADD MSTORE PUSH17 0x24B73B30B634B2103732BB9037BBB732B9 PUSH1 0x79 SHL PUSH1 0x44 DUP3 ADD MSTORE PUSH1 0x64 SWAP1 REVERT JUMPDEST POP CALLER DUP4 MSTORE PUSH1 0xB PUSH1 0x20 MSTORE PUSH1 0x40 DUP4 KECCAK256 SLOAD PUSH1 0xFF AND PUSH2 0x25D7 JUMP JUMPDEST POP CALLVALUE PUSH2 0x27E JUMPI PUSH1 0x20 CALLDATASIZE PUSH1 0x3 NOT ADD SLT PUSH2 0x27E JUMPI PUSH1 0x4 CALLDATALOAD PUSH1 0x1 PUSH1 0x1 PUSH1 0xA0 SHL SUB DUP2 AND SWAP1 DUP2 SWAP1 SUB PUSH2 0x3F7 JUMPI PUSH1 0x60 PUSH2 0x200 PUSH1 0x40 MLOAD PUSH2 0x26E5 DUP2 PUSH2 0x2F41 JUMP JUMPDEST DUP3 DUP2 MSTORE DUP5 PUSH1 0x20 DUP3 ADD MSTORE DUP5 PUSH1 0x40 DUP3 ADD MSTORE DUP5 DUP4 DUP3 ADD MSTORE DUP5 PUSH1 0x80 DUP3 ADD MSTORE DUP5 PUSH1 0xA0 DUP3 ADD MSTORE DUP5 PUSH1 0xC0 DUP3 ADD MSTORE DUP5 PUSH1 0xE0 DUP3 ADD MSTORE DUP5 PUSH2 0x100 DUP3 ADD MSTORE DUP5 PUSH2 0x120 DUP3 ADD MSTORE DUP5 PUSH2 0x140 DUP3 ADD MSTORE DUP5 PUSH2 0x160 DUP3 ADD MSTORE DUP5 PUSH2 0x180 DUP3 ADD MSTORE DUP3 PUSH2 0x1A0 DUP3 ADD MSTORE DUP5 PUSH2 0x1C0 DUP3 ADD MSTORE DUP3 PUSH2 0x1E0 DUP3 ADD MSTORE ADD MSTORE DUP1 ISZERO PUSH2 0x28F0 JUMPI DUP2 PUSH1 0x4 SWAP2 PUSH1 0x40 MLOAD SWAP3 DUP4 DUP1 SWAP3 PUSH4 0x1F385F79 PUSH1 0xE2 SHL DUP3 MSTORE GAS STATICCALL SWAP1 DUP2 ISZERO PUSH2 0x16C9 JUMPI DUP3 SWAP2 PUSH2 0x28CE JUMPI JUMPDEST POP SWAP1 PUSH1 0x40 MLOAD SWAP2 DUP3 SWAP2 PUSH1 0x20 DUP4 MSTORE PUSH2 0x279A DUP3 MLOAD PUSH2 0x220 PUSH1 0x20 DUP7 ADD MSTORE PUSH2 0x240 DUP6 ADD SWAP1 PUSH2 0x2D02 JUMP JUMPDEST SWAP1 PUSH2 0x27AD PUSH1 0x20 DUP5 ADD MLOAD PUSH1 0x40 DUP7 ADD SWAP1 PUSH2 0x2E48 JUMP JUMPDEST PUSH1 0x40 DUP4 ADD MLOAD PUSH1 0x60 DUP6 ADD MSTORE PUSH1 0x60 DUP4 ADD MLOAD PUSH1 0x80 DUP6 ADD MSTORE PUSH1 0x80 DUP4 ADD MLOAD PUSH1 0xA0 DUP6 ADD MSTORE PUSH1 0xFF PUSH1 0xA0 DUP5 ADD MLOAD AND PUSH1 0xC0 DUP6 ADD MSTORE PUSH1 0xFF PUSH1 0xC0 DUP5 ADD MLOAD AND PUSH1 0xE0 DUP6 ADD MSTORE PUSH1 0xE0 DUP4 ADD MLOAD PUSH2 0x100 DUP6 ADD MSTORE PUSH2 0x100 DUP4 ADD MLOAD PUSH2 0x120 DUP6 ADD MSTORE PUSH1 0xFF PUSH2 0x120 DUP5 ADD MLOAD AND PUSH2 0x140 DUP6 ADD MSTORE PUSH1 0xFF PUSH2 0x140 DUP5 ADD MLOAD AND PUSH2 0x160 DUP6 ADD MSTORE PUSH2 0x160 DUP4 ADD MLOAD PUSH2 0x180 DUP6 ADD MSTORE PUSH2 0x180 DUP4 ADD MLOAD PUSH2 0x1A0 DUP6 ADD MSTORE PUSH2 0x1A0 DUP4 ADD MLOAD SWAP2 PUSH1 0x1F NOT DUP6 DUP3 SUB ADD PUSH2 0x1C0 DUP7 ADD MSTORE PUSH1 0x20 DUP1 DUP5 MLOAD SWAP3 DUP4 DUP2 MSTORE ADD SWAP4 ADD SWAP2 JUMPDEST DUP2 DUP2 LT PUSH2 0x28A0 JUMPI POP POP POP SWAP1 PUSH2 0x200 PUSH2 0x288B PUSH2 0x2B3 SWAP4 PUSH2 0x1C0 DUP5 ADD MLOAD PUSH2 0x1E0 DUP8 ADD MSTORE PUSH2 0x1E0 DUP5 ADD MLOAD PUSH1 0x1F NOT DUP8 DUP4 SUB ADD DUP5 DUP9 ADD MSTORE PUSH2 0x2D02 JUMP JUMPDEST SWAP2 ADD MLOAD DUP4 DUP3 SUB PUSH1 0x1F NOT ADD PUSH2 0x220 DUP6 ADD MSTORE PUSH2 0x2D62 JUMP JUMPDEST DUP3 MLOAD DUP1 MLOAD PUSH1 0x1 PUSH1 0x1 PUSH1 0xA0 SHL SUB AND DUP6 MSTORE PUSH1 0x20 SWAP1 DUP2 ADD MLOAD DUP2 DUP7 ADD MSTORE DUP8 SWAP7 POP PUSH1 0x40 SWAP1 SWAP5 ADD SWAP4 SWAP1 SWAP3 ADD SWAP2 PUSH1 0x1 ADD PUSH2 0x2854 JUMP JUMPDEST PUSH2 0x28EA SWAP2 POP RETURNDATASIZE DUP1 DUP5 DUP4 RETURNDATACOPY PUSH2 0x28E2 DUP2 DUP4 PUSH2 0x2F73 JUMP JUMPDEST DUP2 ADD SWAP1 PUSH2 0x3211 JUMP JUMPDEST CODESIZE PUSH2 0x2776 JUMP JUMPDEST PUSH1 0x40 MLOAD PUSH3 0x461BCD PUSH1 0xE5 SHL DUP2 MSTORE PUSH1 0x20 PUSH1 0x4 DUP3 ADD MSTORE PUSH1 0x17 PUSH1 0x24 DUP3 ADD MSTORE PUSH32 0x496E76616C6964206D697373696F6E2061646472657373000000000000000000 PUSH1 0x44 DUP3 ADD MSTORE PUSH1 0x64 SWAP1 REVERT JUMPDEST POP CALLVALUE PUSH2 0x27E JUMPI PUSH1 0x20 CALLDATASIZE PUSH1 0x3 NOT ADD SLT PUSH2 0x27E JUMPI PUSH1 0x4 CALLDATALOAD SWAP1 PUSH1 0x8 DUP3 LT ISZERO SWAP2 DUP3 PUSH2 0x3F7 JUMPI PUSH1 0x2 SLOAD SWAP3 DUP3 SWAP4 DUP4 JUMPDEST DUP2 DUP2 LT PUSH2 0x2A6C JUMPI POP PUSH2 0x296F DUP6 PUSH2 0x30C1 JUMP JUMPDEST SWAP4 PUSH2 0x2982 PUSH2 0x297C DUP8 PUSH2 0x30C1 JUMP JUMPDEST SWAP7 PUSH2 0x3127 JUMP JUMPDEST SWAP4 DUP2 SWAP1 DUP3 JUMPDEST DUP5 DUP2 LT PUSH2 0x299E JUMPI PUSH1 0x40 MLOAD DUP1 PUSH2 0x2B3 DUP10 DUP13 DUP13 DUP5 PUSH2 0x2DE0 JUMP JUMPDEST PUSH2 0x29A7 DUP2 PUSH2 0x2E55 JUMP JUMPDEST SWAP1 SLOAD PUSH1 0x3 SWAP2 SWAP1 SWAP2 SHL SHR PUSH1 0x1 PUSH1 0x1 PUSH1 0xA0 SHL SUB AND DUP5 MSTORE PUSH1 0xD PUSH1 0x20 MSTORE PUSH1 0x40 DUP5 KECCAK256 SLOAD PUSH1 0xFF AND DUP7 PUSH2 0x707 JUMPI PUSH1 0x8 DUP2 LT ISZERO PUSH2 0x707 JUMPI DUP3 EQ PUSH2 0x29E5 JUMPI JUMPDEST PUSH1 0x1 ADD PUSH2 0x2987 JUMP JUMPDEST SWAP2 SWAP5 POP PUSH2 0x29F1 DUP3 PUSH2 0x2E55 JUMP JUMPDEST SWAP1 SLOAD PUSH1 0x3 SWAP2 SWAP1 SWAP2 SHL SHR PUSH1 0x1 PUSH1 0x1 PUSH1 0xA0 SHL SUB AND PUSH2 0x2A0D DUP7 DUP10 PUSH2 0x3171 JUMP JUMPDEST MSTORE PUSH1 0x1 PUSH2 0x2A64 DUP5 SWAP7 PUSH2 0x2A1F DUP2 DUP13 PUSH2 0x3171 JUMP JUMPDEST PUSH1 0xFF DUP6 AND SWAP1 MSTORE PUSH2 0x2A2E DUP6 PUSH2 0x2E55 JUMP JUMPDEST DUP5 DUP1 PUSH1 0xA0 SHL SUB SWAP2 SLOAD SWAP1 PUSH1 0x3 SHL SHR AND DUP7 MSTORE PUSH1 0x10 PUSH1 0x20 MSTORE PUSH2 0x2A4F PUSH1 0x40 DUP8 KECCAK256 PUSH2 0x2F94 JUMP JUMPDEST PUSH2 0x2A59 DUP3 DUP12 PUSH2 0x3171 JUMP JUMPDEST MSTORE PUSH2 0xE29 DUP2 DUP11 PUSH2 0x3171 JUMP JUMPDEST SWAP3 SWAP1 POP PUSH2 0x29DD JUMP JUMPDEST PUSH2 0x2A75 DUP2 PUSH2 0x2E55 JUMP JUMPDEST SWAP1 SLOAD PUSH1 0x3 SWAP2 SWAP1 SWAP2 SHL SHR PUSH1 0x1 PUSH1 0x1 PUSH1 0xA0 SHL SUB AND DUP6 MSTORE PUSH1 0xD PUSH1 0x20 MSTORE PUSH1 0x40 DUP6 KECCAK256 SLOAD PUSH1 0xFF AND DUP4 PUSH2 0x71B JUMPI PUSH1 0x8 DUP2 LT ISZERO PUSH2 0x71B JUMPI DUP5 EQ PUSH2 0x2AB3 JUMPI JUMPDEST PUSH1 0x1 ADD PUSH2 0x295E JUMP JUMPDEST SWAP5 PUSH2 0x2ABF PUSH1 0x1 SWAP2 PUSH2 0x3085 JUMP JUMPDEST SWAP6 SWAP1 POP PUSH2 0x2AAB JUMP JUMPDEST POP CALLVALUE PUSH2 0x27E JUMPI PUSH1 0x20 CALLDATASIZE PUSH1 0x3 NOT ADD SLT PUSH2 0x27E JUMPI PUSH1 0x4 CALLDATALOAD PUSH2 0x2AE4 PUSH2 0x3C28 JUMP JUMPDEST PUSH2 0x2AEC PUSH2 0x3C51 JUMP JUMPDEST DUP2 SLOAD PUSH1 0x1 PUSH1 0x1 PUSH1 0xA0 SHL SUB AND SWAP1 DUP1 DUP3 ISZERO PUSH2 0x2BF2 JUMPI ISZERO PUSH2 0x2BEB JUMPI JUMPDEST SELFBALANCE DUP2 GT PUSH2 0x2BAF JUMPI DUP3 DUP1 DUP1 DUP1 DUP5 DUP7 GAS CALL RETURNDATASIZE ISZERO PUSH2 0x2BAA JUMPI RETURNDATASIZE PUSH2 0x2B24 DUP2 PUSH2 0x306A JUMP JUMPDEST SWAP1 PUSH2 0x2B32 PUSH1 0x40 MLOAD SWAP3 DUP4 PUSH2 0x2F73 JUMP JUMPDEST DUP2 MSTORE DUP5 PUSH1 0x20 RETURNDATASIZE SWAP3 ADD RETURNDATACOPY JUMPDEST ISZERO PUSH2 0x2B73 JUMPI PUSH1 0x20 PUSH32 0xEAFF4B37086828766AD3268786972C0CD24259D4C87A80F9D3963A3C3D999B0D SWAP2 PUSH1 0x40 MLOAD SWAP1 DUP2 MSTORE LOG2 PUSH1 0x1 DUP1 SSTORE DUP1 RETURN JUMPDEST PUSH1 0x40 MLOAD PUSH3 0x461BCD PUSH1 0xE5 SHL DUP2 MSTORE PUSH1 0x20 PUSH1 0x4 DUP3 ADD MSTORE PUSH1 0xF PUSH1 0x24 DUP3 ADD MSTORE PUSH15 0x151C985B9CD9995C8819985A5B1959 PUSH1 0x8A SHL PUSH1 0x44 DUP3 ADD MSTORE PUSH1 0x64 SWAP1 REVERT JUMPDEST PUSH2 0x2B3C JUMP JUMPDEST PUSH1 0x40 MLOAD PUSH3 0x461BCD PUSH1 0xE5 SHL DUP2 MSTORE PUSH1 0x20 PUSH1 0x4 DUP3 ADD MSTORE PUSH1 0x14 PUSH1 0x24 DUP3 ADD MSTORE PUSH20 0x496E73756666696369656E742062616C616E6365 PUSH1 0x60 SHL PUSH1 0x44 DUP3 ADD MSTORE PUSH1 0x64 SWAP1 REVERT JUMPDEST POP SELFBALANCE PUSH2 0x2B05 JUMP JUMPDEST PUSH1 0x40 MLOAD PUSH3 0x461BCD PUSH1 0xE5 SHL DUP2 MSTORE PUSH1 0x20 PUSH1 0x4 DUP3 ADD MSTORE PUSH1 0x15 PUSH1 0x24 DUP3 ADD MSTORE PUSH21 0x24B73B30B634B21036B0B730B3B2B91037BBB732B9 PUSH1 0x59 SHL PUSH1 0x44 DUP3 ADD MSTORE PUSH1 0x64 SWAP1 REVERT JUMPDEST POP CALLVALUE PUSH2 0x27E JUMPI DUP1 PUSH1 0x3 NOT CALLDATASIZE ADD SLT PUSH2 0x27E JUMPI PUSH1 0x9 SLOAD PUSH1 0x40 MLOAD PUSH1 0x1 PUSH1 0x1 PUSH1 0xA0 SHL SUB SWAP1 SWAP2 AND DUP2 MSTORE PUSH1 0x20 SWAP1 RETURN JUMPDEST POP CALLVALUE PUSH2 0x27E JUMPI DUP1 PUSH1 0x3 NOT CALLDATASIZE ADD SLT PUSH2 0x27E JUMPI PUSH1 0x20 PUSH1 0xFF PUSH1 0x3 SLOAD PUSH1 0x8 SHR AND PUSH1 0x40 MLOAD SWAP1 DUP2 MSTORE RETURN JUMPDEST POP CALLVALUE PUSH2 0x27E JUMPI PUSH1 0x20 CALLDATASIZE PUSH1 0x3 NOT ADD SLT PUSH2 0x27E JUMPI PUSH1 0x4 CALLDATALOAD PUSH1 0x1 PUSH1 0x1 PUSH1 0xA0 SHL SUB DUP2 AND SWAP1 DUP2 SWAP1 SUB PUSH2 0x3F7 JUMPI PUSH1 0x40 DUP3 PUSH1 0xFF SWAP3 PUSH1 0x20 SWAP5 MSTORE PUSH1 0xD DUP5 MSTORE KECCAK256 SLOAD AND PUSH2 0x2CC1 PUSH1 0x40 MLOAD DUP1 SWAP3 PUSH2 0x2CDF JUMP JUMPDEST RETURN JUMPDEST SWAP1 POP CALLVALUE PUSH2 0x3F7 JUMPI DUP2 PUSH1 0x3 NOT CALLDATASIZE ADD SLT PUSH2 0x3F7 JUMPI PUSH1 0x20 SWAP1 PUSH1 0x8 SLOAD DUP2 MSTORE RETURN JUMPDEST SWAP1 PUSH1 0x8 DUP3 LT ISZERO PUSH2 0x2CEC JUMPI MSTORE JUMP JUMPDEST PUSH4 0x4E487B71 PUSH1 0xE0 SHL PUSH1 0x0 MSTORE PUSH1 0x21 PUSH1 0x4 MSTORE PUSH1 0x24 PUSH1 0x0 REVERT JUMPDEST SWAP1 PUSH1 0x20 DUP1 DUP4 MLOAD SWAP3 DUP4 DUP2 MSTORE ADD SWAP3 ADD SWAP1 PUSH1 0x0 JUMPDEST DUP2 DUP2 LT PUSH2 0x2D20 JUMPI POP POP POP SWAP1 JUMP JUMPDEST DUP3 MLOAD PUSH1 0x1 PUSH1 0x1 PUSH1 0xA0 SHL SUB AND DUP5 MSTORE PUSH1 0x20 SWAP4 DUP5 ADD SWAP4 SWAP1 SWAP3 ADD SWAP2 PUSH1 0x1 ADD PUSH2 0x2D13 JUMP JUMPDEST PUSH1 0x0 JUMPDEST DUP4 DUP2 LT PUSH2 0x2D52 JUMPI POP POP PUSH1 0x0 SWAP2 ADD MSTORE JUMP JUMPDEST DUP2 DUP2 ADD MLOAD DUP4 DUP3 ADD MSTORE PUSH1 0x20 ADD PUSH2 0x2D42 JUMP JUMPDEST SWAP1 PUSH1 0x20 SWAP2 PUSH2 0x2D7B DUP2 MLOAD DUP1 SWAP3 DUP2 DUP6 MSTORE DUP6 DUP1 DUP7 ADD SWAP2 ADD PUSH2 0x2D3F JUMP JUMPDEST PUSH1 0x1F ADD PUSH1 0x1F NOT AND ADD ADD SWAP1 JUMP JUMPDEST SWAP1 DUP1 PUSH1 0x20 DUP4 MLOAD SWAP2 DUP3 DUP2 MSTORE ADD SWAP2 PUSH1 0x20 DUP1 DUP4 PUSH1 0x5 SHL DUP4 ADD ADD SWAP5 ADD SWAP3 PUSH1 0x0 SWAP2 JUMPDEST DUP4 DUP4 LT PUSH2 0x2DB3 JUMPI POP POP POP POP POP SWAP1 JUMP JUMPDEST SWAP1 SWAP2 SWAP3 SWAP4 SWAP5 PUSH1 0x20 DUP1 PUSH2 0x2DD1 PUSH1 0x1 SWAP4 PUSH1 0x1F NOT DUP7 DUP3 SUB ADD DUP8 MSTORE DUP10 MLOAD PUSH2 0x2D62 JUMP JUMPDEST SWAP8 ADD SWAP4 ADD SWAP4 ADD SWAP2 SWAP4 SWAP3 SWAP1 PUSH2 0x2DA4 JUMP JUMPDEST SWAP4 SWAP3 SWAP1 PUSH2 0x2DF5 SWAP1 PUSH1 0x60 DUP7 MSTORE PUSH1 0x60 DUP7 ADD SWAP1 PUSH2 0x2D02 JUMP JUMPDEST SWAP4 DUP1 DUP6 SUB PUSH1 0x20 DUP3 ADD MSTORE PUSH1 0x20 DUP1 DUP5 MLOAD SWAP7 DUP8 DUP2 MSTORE ADD SWAP4 ADD PUSH1 0x0 SWAP6 JUMPDEST DUP1 DUP8 LT PUSH2 0x2E2D JUMPI POP POP PUSH2 0x2E2A SWAP4 SWAP5 POP PUSH1 0x40 DUP2 DUP5 SUB SWAP2 ADD MSTORE PUSH2 0x2D87 JUMP JUMPDEST SWAP1 JUMP JUMPDEST SWAP1 SWAP4 PUSH1 0x20 DUP1 PUSH1 0x1 SWAP3 PUSH1 0xFF DUP9 MLOAD AND DUP2 MSTORE ADD SWAP6 ADD SWAP7 ADD SWAP6 SWAP1 PUSH2 0x2E0E JUMP JUMPDEST SWAP1 PUSH1 0x7 DUP3 LT ISZERO PUSH2 0x2CEC JUMPI MSTORE JUMP JUMPDEST PUSH1 0x2 SLOAD DUP2 LT ISZERO PUSH2 0x2E70 JUMPI PUSH1 0x2 PUSH1 0x0 MSTORE PUSH1 0x20 PUSH1 0x0 KECCAK256 ADD SWAP1 PUSH1 0x0 SWAP1 JUMP JUMPDEST PUSH4 0x4E487B71 PUSH1 0xE0 SHL PUSH1 0x0 MSTORE PUSH1 0x32 PUSH1 0x4 MSTORE PUSH1 0x24 PUSH1 0x0 REVERT JUMPDEST DUP1 SLOAD DUP3 LT ISZERO PUSH2 0x2E70 JUMPI PUSH1 0x0 MSTORE PUSH1 0x20 PUSH1 0x0 KECCAK256 ADD SWAP1 PUSH1 0x0 SWAP1 JUMP JUMPDEST SWAP4 SWAP3 SWAP1 PUSH2 0x2EB3 SWAP1 PUSH1 0x60 DUP7 MSTORE PUSH1 0x60 DUP7 ADD SWAP1 PUSH2 0x2D02 JUMP JUMPDEST SWAP4 DUP1 DUP6 SUB PUSH1 0x20 DUP3 ADD MSTORE PUSH1 0x20 DUP1 DUP5 MLOAD SWAP7 DUP8 DUP2 MSTORE ADD SWAP4 ADD PUSH1 0x0 SWAP6 JUMPDEST DUP1 DUP8 LT PUSH2 0x2EE8 JUMPI POP POP PUSH2 0x2E2A SWAP4 SWAP5 POP PUSH1 0x40 DUP2 DUP5 SUB SWAP2 ADD MSTORE PUSH2 0x2D87 JUMP JUMPDEST SWAP1 SWAP4 PUSH1 0x20 DUP1 DUP3 PUSH2 0x2EFB PUSH1 0x1 SWAP5 DUP10 MLOAD PUSH2 0x2CDF JUMP JUMPDEST ADD SWAP6 ADD SWAP7 ADD SWAP6 SWAP1 PUSH2 0x2ECC JUMP JUMPDEST SWAP1 PUSH1 0x1 DUP3 DUP2 SHR SWAP3 AND DUP1 ISZERO PUSH2 0x2F37 JUMPI JUMPDEST PUSH1 0x20 DUP4 LT EQ PUSH2 0x2F21 JUMPI JUMP JUMPDEST PUSH4 0x4E487B71 PUSH1 0xE0 SHL PUSH1 0x0 MSTORE PUSH1 0x22 PUSH1 0x4 MSTORE PUSH1 0x24 PUSH1 0x0 REVERT JUMPDEST SWAP2 PUSH1 0x7F AND SWAP2 PUSH2 0x2F16 JUMP JUMPDEST PUSH2 0x220 DUP2 ADD SWAP1 DUP2 LT PUSH1 0x1 PUSH1 0x1 PUSH1 0x40 SHL SUB DUP3 GT OR PUSH2 0x2F5D JUMPI PUSH1 0x40 MSTORE JUMP JUMPDEST PUSH4 0x4E487B71 PUSH1 0xE0 SHL PUSH1 0x0 MSTORE PUSH1 0x41 PUSH1 0x4 MSTORE PUSH1 0x24 PUSH1 0x0 REVERT JUMPDEST SWAP1 PUSH1 0x1F DUP1 NOT SWAP2 ADD AND DUP2 ADD SWAP1 DUP2 LT PUSH1 0x1 PUSH1 0x1 PUSH1 0x40 SHL SUB DUP3 GT OR PUSH2 0x2F5D JUMPI PUSH1 0x40 MSTORE JUMP JUMPDEST SWAP1 PUSH1 0x40 MLOAD SWAP2 DUP3 PUSH1 0x0 DUP3 SLOAD SWAP3 PUSH2 0x2FA8 DUP5 PUSH2 0x2F07 JUMP JUMPDEST DUP1 DUP5 MSTORE SWAP4 PUSH1 0x1 DUP2 AND SWAP1 DUP2 ISZERO PUSH2 0x3016 JUMPI POP PUSH1 0x1 EQ PUSH2 0x2FCF JUMPI JUMPDEST POP PUSH2 0x2FCD SWAP3 POP SUB DUP4 PUSH2 0x2F73 JUMP JUMPDEST JUMP JUMPDEST SWAP1 POP PUSH1 0x0 SWAP3 SWAP2 SWAP3 MSTORE PUSH1 0x20 PUSH1 0x0 KECCAK256 SWAP1 PUSH1 0x0 SWAP2 JUMPDEST DUP2 DUP4 LT PUSH2 0x2FFA JUMPI POP POP SWAP1 PUSH1 0x20 PUSH2 0x2FCD SWAP3 DUP3 ADD ADD CODESIZE PUSH2 0x2FC0 JUMP JUMPDEST PUSH1 0x20 SWAP2 SWAP4 POP DUP1 PUSH1 0x1 SWAP2 SLOAD DUP4 DUP6 DUP10 ADD ADD MSTORE ADD SWAP2 ADD SWAP1 SWAP2 DUP5 SWAP3 PUSH2 0x2FE1 JUMP JUMPDEST SWAP1 POP PUSH1 0x20 SWAP3 POP PUSH2 0x2FCD SWAP5 SWAP2 POP PUSH1 0xFF NOT AND DUP3 DUP5 ADD MSTORE ISZERO ISZERO PUSH1 0x5 SHL DUP3 ADD ADD CODESIZE PUSH2 0x2FC0 JUMP JUMPDEST PUSH1 0x7 DUP2 LT ISZERO PUSH2 0x2CEC JUMPI PUSH1 0x0 MSTORE PUSH1 0xE PUSH1 0x20 MSTORE PUSH1 0x40 PUSH1 0x0 KECCAK256 SWAP1 JUMP JUMPDEST PUSH1 0x7 DUP2 LT ISZERO PUSH2 0x2CEC JUMPI PUSH1 0x0 MSTORE PUSH1 0x11 PUSH1 0x20 MSTORE PUSH1 0x40 PUSH1 0x0 KECCAK256 SWAP1 JUMP JUMPDEST PUSH1 0x1 PUSH1 0x1 PUSH1 0x40 SHL SUB DUP2 GT PUSH2 0x2F5D JUMPI PUSH1 0x1F ADD PUSH1 0x1F NOT AND PUSH1 0x20 ADD SWAP1 JUMP JUMPDEST PUSH1 0x0 NOT DUP2 EQ PUSH2 0x3094 JUMPI PUSH1 0x1 ADD SWAP1 JUMP JUMPDEST PUSH4 0x4E487B71 PUSH1 0xE0 SHL PUSH1 0x0 MSTORE PUSH1 0x11 PUSH1 0x4 MSTORE PUSH1 0x24 PUSH1 0x0 REVERT JUMPDEST PUSH1 0x1 PUSH1 0x1 PUSH1 0x40 SHL SUB DUP2 GT PUSH2 0x2F5D JUMPI PUSH1 0x5 SHL PUSH1 0x20 ADD SWAP1 JUMP JUMPDEST SWAP1 PUSH2 0x30CB DUP3 PUSH2 0x30AA JUMP JUMPDEST PUSH2 0x30D8 PUSH1 0x40 MLOAD SWAP2 DUP3 PUSH2 0x2F73 JUMP JUMPDEST DUP3 DUP2 MSTORE DUP1 SWAP3 PUSH2 0x30E9 PUSH1 0x1F NOT SWAP2 PUSH2 0x30AA JUMP JUMPDEST ADD SWAP1 PUSH1 0x20 CALLDATASIZE SWAP2 ADD CALLDATACOPY JUMP JUMPDEST PUSH1 0x40 MLOAD SWAP1 PUSH2 0x3102 PUSH1 0x20 DUP4 PUSH2 0x2F73 JUMP JUMPDEST PUSH1 0x0 DUP1 DUP4 MSTORE DUP3 DUP2 JUMPDEST DUP3 DUP2 LT PUSH2 0x3116 JUMPI POP POP POP JUMP JUMPDEST DUP1 PUSH1 0x60 PUSH1 0x20 DUP1 SWAP4 DUP6 ADD ADD MSTORE ADD PUSH2 0x310A JUMP JUMPDEST SWAP1 PUSH2 0x3131 DUP3 PUSH2 0x30AA JUMP JUMPDEST PUSH2 0x313E PUSH1 0x40 MLOAD SWAP2 DUP3 PUSH2 0x2F73 JUMP JUMPDEST DUP3 DUP2 MSTORE DUP1 SWAP3 PUSH2 0x314F PUSH1 0x1F NOT SWAP2 PUSH2 0x30AA JUMP JUMPDEST ADD SWAP1 PUSH1 0x0 JUMPDEST DUP3 DUP2 LT PUSH2 0x3160 JUMPI POP POP POP JUMP JUMPDEST DUP1 PUSH1 0x60 PUSH1 0x20 DUP1 SWAP4 DUP6 ADD ADD MSTORE ADD PUSH2 0x3154 JUMP JUMPDEST DUP1 MLOAD DUP3 LT ISZERO PUSH2 0x2E70 JUMPI PUSH1 0x20 SWAP2 PUSH1 0x5 SHL ADD ADD SWAP1 JUMP JUMPDEST MLOAD SWAP1 PUSH1 0x1 PUSH1 0x1 PUSH1 0xA0 SHL SUB DUP3 AND DUP3 SUB PUSH2 0x3199 JUMPI JUMP JUMPDEST PUSH1 0x0 DUP1 REVERT JUMPDEST SWAP1 DUP1 PUSH1 0x1F DUP4 ADD SLT ISZERO PUSH2 0x3199 JUMPI DUP2 MLOAD PUSH2 0x31B5 DUP2 PUSH2 0x30AA JUMP JUMPDEST SWAP3 PUSH2 0x31C3 PUSH1 0x40 MLOAD SWAP5 DUP6 PUSH2 0x2F73 JUMP JUMPDEST DUP2 DUP5 MSTORE PUSH1 0x20 DUP1 DUP6 ADD SWAP3 PUSH1 0x5 SHL DUP3 ADD ADD SWAP3 DUP4 GT PUSH2 0x3199 JUMPI PUSH1 0x20 ADD SWAP1 JUMPDEST DUP3 DUP3 LT PUSH2 0x31EB JUMPI POP POP POP SWAP1 JUMP JUMPDEST PUSH1 0x20 DUP1 SWAP2 PUSH2 0x31F8 DUP5 PUSH2 0x3185 JUMP JUMPDEST DUP2 MSTORE ADD SWAP2 ADD SWAP1 PUSH2 0x31DE JUMP JUMPDEST MLOAD SWAP1 PUSH1 0xFF DUP3 AND DUP3 SUB PUSH2 0x3199 JUMPI JUMP JUMPDEST PUSH1 0x20 DUP2 DUP4 SUB SLT PUSH2 0x3199 JUMPI DUP1 MLOAD SWAP1 PUSH1 0x1 PUSH1 0x1 PUSH1 0x40 SHL SUB DUP3 GT PUSH2 0x3199 JUMPI ADD SWAP1 PUSH2 0x220 DUP3 DUP3 SUB SLT PUSH2 0x3199 JUMPI PUSH1 0x40 MLOAD SWAP2 PUSH2 0x3246 DUP4 PUSH2 0x2F41 JUMP JUMPDEST DUP1 MLOAD PUSH1 0x1 PUSH1 0x1 PUSH1 0x40 SHL SUB DUP2 GT PUSH2 0x3199 JUMPI DUP3 PUSH2 0x3262 SWAP2 DUP4 ADD PUSH2 0x319E JUMP JUMPDEST DUP4 MSTORE PUSH1 0x20 DUP2 ADD MLOAD PUSH1 0x7 DUP2 LT ISZERO PUSH2 0x3199 JUMPI PUSH1 0x20 DUP5 ADD MSTORE PUSH1 0x40 DUP2 ADD MLOAD PUSH1 0x40 DUP5 ADD MSTORE PUSH1 0x60 DUP2 ADD MLOAD PUSH1 0x60 DUP5 ADD MSTORE PUSH1 0x80 DUP2 ADD MLOAD PUSH1 0x80 DUP5 ADD MSTORE PUSH2 0x32A1 PUSH1 0xA0 DUP3 ADD PUSH2 0x3203 JUMP JUMPDEST PUSH1 0xA0 DUP5 ADD MSTORE PUSH2 0x32B2 PUSH1 0xC0 DUP3 ADD PUSH2 0x3203 JUMP JUMPDEST PUSH1 0xC0 DUP5 ADD MSTORE PUSH1 0xE0 DUP2 ADD MLOAD PUSH1 0xE0 DUP5 ADD MSTORE PUSH2 0x100 DUP2 ADD MLOAD PUSH2 0x100 DUP5 ADD MSTORE PUSH2 0x32DA PUSH2 0x120 DUP3 ADD PUSH2 0x3203 JUMP JUMPDEST PUSH2 0x120 DUP5 ADD MSTORE PUSH2 0x32ED PUSH2 0x140 DUP3 ADD PUSH2 0x3203 JUMP JUMPDEST PUSH2 0x140 DUP5 ADD MSTORE PUSH2 0x160 DUP2 ADD MLOAD PUSH2 0x160 DUP5 ADD MSTORE PUSH2 0x180 DUP2 ADD MLOAD PUSH2 0x180 DUP5 ADD MSTORE PUSH2 0x1A0 DUP2 ADD MLOAD PUSH1 0x1 PUSH1 0x1 PUSH1 0x40 SHL SUB DUP2 GT PUSH2 0x3199 JUMPI DUP2 ADD DUP3 PUSH1 0x1F DUP3 ADD SLT ISZERO PUSH2 0x3199 JUMPI DUP1 MLOAD PUSH2 0x3337 DUP2 PUSH2 0x30AA JUMP JUMPDEST SWAP2 PUSH2 0x3345 PUSH1 0x40 MLOAD SWAP4 DUP5 PUSH2 0x2F73 JUMP JUMPDEST DUP2 DUP4 MSTORE PUSH1 0x20 DUP1 DUP5 ADD SWAP3 PUSH1 0x6 SHL DUP3 ADD ADD SWAP1 DUP6 DUP3 GT PUSH2 0x3199 JUMPI PUSH1 0x20 ADD SWAP2 JUMPDEST DUP2 DUP4 LT PUSH2 0x3404 JUMPI POP POP POP PUSH2 0x1A0 DUP5 ADD MSTORE PUSH2 0x1C0 DUP2 ADD MLOAD PUSH2 0x1C0 DUP5 ADD MSTORE PUSH2 0x1E0 DUP2 ADD MLOAD PUSH1 0x1 PUSH1 0x1 PUSH1 0x40 SHL SUB DUP2 GT PUSH2 0x3199 JUMPI DUP3 PUSH2 0x339D SWAP2 DUP4 ADD PUSH2 0x319E JUMP JUMPDEST PUSH2 0x1E0 DUP5 ADD MSTORE PUSH2 0x200 DUP2 ADD MLOAD SWAP1 PUSH1 0x1 PUSH1 0x1 PUSH1 0x40 SHL SUB DUP3 GT PUSH2 0x3199 JUMPI ADD DUP2 PUSH1 0x1F DUP3 ADD SLT ISZERO PUSH2 0x3199 JUMPI DUP1 MLOAD PUSH2 0x33CF DUP2 PUSH2 0x306A JUMP JUMPDEST SWAP3 PUSH2 0x33DD PUSH1 0x40 MLOAD SWAP5 DUP6 PUSH2 0x2F73 JUMP JUMPDEST DUP2 DUP5 MSTORE PUSH1 0x20 DUP3 DUP5 ADD ADD GT PUSH2 0x3199 JUMPI PUSH2 0x33FB SWAP2 PUSH1 0x20 DUP1 DUP6 ADD SWAP2 ADD PUSH2 0x2D3F JUMP JUMPDEST PUSH2 0x200 DUP3 ADD MSTORE SWAP1 JUMP JUMPDEST PUSH1 0x40 DUP4 DUP8 SUB SLT PUSH2 0x3199 JUMPI PUSH1 0x40 MLOAD SWAP1 PUSH1 0x40 DUP3 ADD SWAP1 DUP3 DUP3 LT PUSH1 0x1 PUSH1 0x1 PUSH1 0x40 SHL SUB DUP4 GT OR PUSH2 0x2F5D JUMPI PUSH1 0x40 SWAP3 PUSH1 0x20 SWAP3 DUP5 MSTORE PUSH2 0x343A DUP7 PUSH2 0x3185 JUMP JUMPDEST DUP2 MSTORE DUP3 DUP7 ADD MLOAD DUP4 DUP3 ADD MSTORE DUP2 MSTORE ADD SWAP3 ADD SWAP2 PUSH2 0x3361 JUMP JUMPDEST ISZERO PUSH2 0x3456 JUMPI JUMP JUMPDEST PUSH1 0x40 MLOAD PUSH3 0x461BCD PUSH1 0xE5 SHL DUP2 MSTORE PUSH1 0x20 PUSH1 0x4 DUP3 ADD MSTORE PUSH1 0x26 PUSH1 0x24 DUP3 ADD MSTORE PUSH32 0x4E6F74206F776E6572206F72204D697373696F6E466163746F72792061757468 PUSH1 0x44 DUP3 ADD MSTORE PUSH6 0x1BDC9A5E9959 PUSH1 0xD2 SHL PUSH1 0x64 DUP3 ADD MSTORE PUSH1 0x84 SWAP1 REVERT JUMPDEST SWAP2 SWAP1 DUP3 ADD DUP1 SWAP3 GT PUSH2 0x3094 JUMPI JUMP JUMPDEST SWAP2 SWAP1 DUP3 SUB SWAP2 DUP3 GT PUSH2 0x3094 JUMPI JUMP JUMPDEST ISZERO PUSH2 0x34CB JUMPI JUMP JUMPDEST PUSH1 0x40 MLOAD PUSH3 0x461BCD PUSH1 0xE5 SHL DUP2 MSTORE PUSH1 0x20 PUSH1 0x4 DUP3 ADD MSTORE PUSH1 0xF PUSH1 0x24 DUP3 ADD MSTORE PUSH15 0x496E76616C69642061646472657373 PUSH1 0x88 SHL PUSH1 0x44 DUP3 ADD MSTORE PUSH1 0x64 SWAP1 REVERT JUMPDEST DUP1 ISZERO PUSH2 0x3094 JUMPI PUSH1 0x0 NOT ADD SWAP1 JUMP JUMPDEST SWAP1 DUP2 PUSH1 0x20 SWAP2 SUB SLT PUSH2 0x3199 JUMPI MLOAD DUP1 ISZERO ISZERO DUP2 SUB PUSH2 0x3199 JUMPI SWAP1 JUMP JUMPDEST PUSH1 0x8 DUP3 LT ISZERO PUSH2 0x2CEC JUMPI MSTORE JUMP JUMPDEST PUSH1 0x2 SLOAD DUP1 ISZERO PUSH2 0x37C6 JUMPI PUSH3 0x4F19FF NOT TIMESTAMP ADD TIMESTAMP DUP2 GT PUSH2 0x3094 JUMPI PUSH3 0x278CFF NOT TIMESTAMP ADD TIMESTAMP DUP2 GT PUSH2 0x3094 JUMPI PUSH1 0x0 SWAP3 SWAP2 DUP3 DUP1 JUMPDEST PUSH2 0x36D8 JUMPI JUMPDEST POP PUSH2 0x356E DUP5 PUSH2 0x30C1 JUMP JUMPDEST PUSH2 0x3577 DUP6 PUSH2 0x30C1 JUMP JUMPDEST SWAP6 PUSH2 0x3581 DUP7 PUSH2 0x3127 JUMP JUMPDEST SWAP5 PUSH1 0x0 SWAP1 JUMPDEST DUP1 ISZERO ISZERO DUP1 PUSH2 0x36CF JUMPI JUMPDEST ISZERO PUSH2 0x36C4 JUMPI PUSH1 0x0 NOT ADD SWAP1 PUSH2 0x35A2 DUP3 PUSH2 0x2E55 JUMP JUMPDEST PUSH1 0x1 DUP1 PUSH1 0xA0 SHL SUB SWAP2 SLOAD SWAP1 PUSH1 0x3 SHL SHR AND DUP1 PUSH1 0x0 MSTORE PUSH1 0xD PUSH1 0x20 MSTORE PUSH1 0xFF PUSH1 0x40 PUSH1 0x0 KECCAK256 SLOAD AND PUSH1 0x40 MLOAD PUSH4 0x1F385F79 PUSH1 0xE2 SHL DUP2 MSTORE PUSH1 0x0 DUP2 PUSH1 0x4 DUP2 DUP7 GAS STATICCALL SWAP1 DUP2 ISZERO PUSH2 0x36B8 JUMPI DUP13 SWAP2 DUP11 SWAP2 PUSH1 0x0 SWAP2 PUSH2 0x369F JUMPI JUMPDEST POP DUP10 PUSH1 0xE0 DUP3 ADD DUP2 DUP2 MLOAD LT DUP1 PUSH2 0x3678 JUMPI JUMPDEST ISZERO PUSH2 0x366D JUMPI POP POP PUSH2 0x100 ADD MLOAD LT JUMPDEST PUSH2 0x365E JUMPI DUP3 SWAP2 PUSH2 0x21EB DUP6 PUSH2 0x362C SWAP4 DUP2 SWAP7 PUSH2 0x3626 PUSH1 0x1 SWAP10 DUP14 PUSH2 0x3171 JUMP JUMPDEST MSTORE PUSH2 0x3171 JUMP JUMPDEST PUSH1 0x0 MSTORE PUSH1 0x10 PUSH1 0x20 MSTORE PUSH2 0x3641 PUSH1 0x40 PUSH1 0x0 KECCAK256 PUSH2 0x2F94 JUMP JUMPDEST PUSH2 0x364B DUP3 DUP11 PUSH2 0x3171 JUMP JUMPDEST MSTORE PUSH2 0x3656 DUP2 DUP10 PUSH2 0x3171 JUMP JUMPDEST POP ADD SWAP1 PUSH2 0x3586 JUMP JUMPDEST POP SWAP5 SWAP10 SWAP9 POP SWAP3 SWAP6 POP POP POP POP POP POP JUMP JUMPDEST SWAP2 POP SWAP2 POP MLOAD LT PUSH2 0x360A JUMP JUMPDEST POP SWAP3 POP POP SWAP2 POP PUSH1 0x8 DUP4 LT ISZERO PUSH2 0x2CEC JUMPI DUP13 SWAP2 DUP10 DUP12 SWAP3 PUSH1 0x6 DUP7 EQ DUP1 PUSH2 0x35FC JUMPI POP PUSH1 0x7 DUP7 EQ PUSH2 0x35FC JUMP JUMPDEST PUSH2 0x36B2 SWAP2 RETURNDATASIZE DUP1 SWAP2 DUP4 RETURNDATACOPY PUSH2 0x28E2 DUP2 DUP4 PUSH2 0x2F73 JUMP JUMPDEST CODESIZE PUSH2 0x35EC JUMP JUMPDEST PUSH1 0x40 MLOAD RETURNDATASIZE PUSH1 0x0 DUP3 RETURNDATACOPY RETURNDATASIZE SWAP1 REVERT JUMPDEST POP SWAP2 SWAP7 SWAP6 POP SWAP3 POP POP POP JUMP JUMPDEST POP DUP8 DUP3 LT PUSH2 0x358F JUMP JUMPDEST PUSH1 0x0 SWAP5 SWAP4 SWAP5 NOT ADD SWAP3 PUSH2 0x36E9 DUP5 PUSH2 0x2E55 JUMP JUMPDEST PUSH1 0x1 DUP1 PUSH1 0xA0 SHL SUB SWAP2 SLOAD SWAP1 PUSH1 0x3 SHL SHR AND DUP1 PUSH1 0x0 MSTORE PUSH1 0xD PUSH1 0x20 MSTORE PUSH1 0x4 PUSH1 0x0 PUSH1 0xFF PUSH1 0x40 DUP3 KECCAK256 SLOAD AND SWAP3 PUSH1 0x40 MLOAD SWAP3 DUP4 DUP1 SWAP3 PUSH4 0x1F385F79 PUSH1 0xE2 SHL DUP3 MSTORE GAS STATICCALL SWAP1 DUP2 ISZERO PUSH2 0x36B8 JUMPI DUP6 SWAP3 DUP6 SWAP2 PUSH1 0x0 SWAP4 PUSH2 0x37AB JUMPI JUMPDEST POP PUSH1 0xE0 DUP4 ADD SWAP1 DUP3 DUP3 MLOAD LT SWAP1 DUP2 PUSH2 0x377B JUMPI JUMPDEST POP ISZERO PUSH2 0x3770 JUMPI POP POP PUSH2 0x100 ADD MLOAD LT JUMPDEST PUSH2 0x3769 JUMPI PUSH2 0x3762 DUP5 SWAP2 PUSH2 0x3085 JUMP JUMPDEST SWAP5 SWAP4 PUSH2 0x355F JUMP JUMPDEST SWAP4 SWAP3 PUSH2 0x3564 JUMP JUMPDEST SWAP2 POP SWAP2 POP MLOAD LT PUSH2 0x3754 JUMP JUMPDEST SWAP3 POP POP SWAP3 POP PUSH1 0x8 DUP2 LT ISZERO PUSH2 0x2CEC JUMPI DUP6 SWAP3 DUP2 PUSH1 0x6 DUP8 SWAP4 EQ SWAP1 DUP2 ISZERO PUSH2 0x37A0 JUMPI JUMPDEST POP CODESIZE PUSH2 0x3745 JUMP JUMPDEST PUSH1 0x7 SWAP2 POP EQ CODESIZE PUSH2 0x3799 JUMP JUMPDEST PUSH2 0x37BF SWAP2 SWAP4 RETURNDATASIZE DUP1 SWAP2 DUP4 RETURNDATACOPY PUSH2 0x28E2 DUP2 DUP4 PUSH2 0x2F73 JUMP JUMPDEST SWAP2 CODESIZE PUSH2 0x3734 JUMP JUMPDEST POP PUSH1 0x40 MLOAD PUSH1 0x20 SWAP2 PUSH2 0x37D7 DUP4 DUP4 PUSH2 0x2F73 JUMP JUMPDEST PUSH1 0x0 DUP3 MSTORE PUSH1 0x0 CALLDATASIZE DUP2 CALLDATACOPY PUSH1 0x40 MLOAD SWAP3 PUSH2 0x37EE DUP2 DUP6 PUSH2 0x2F73 JUMP JUMPDEST PUSH1 0x0 DUP5 MSTORE POP PUSH1 0x0 CALLDATASIZE DUP2 CALLDATACOPY PUSH2 0x3800 PUSH2 0x30F3 JUMP JUMPDEST SWAP2 SWAP3 SWAP2 SWAP1 JUMP JUMPDEST PUSH1 0x8 SLOAD DUP1 ISZERO PUSH2 0x3868 JUMPI PUSH3 0x15180 DUP2 ADD SWAP2 DUP3 DUP3 GT PUSH2 0x3094 JUMPI DUP3 TIMESTAMP LT ISZERO PUSH2 0x384D JUMPI PUSH1 0x9 SLOAD PUSH1 0xA SLOAD PUSH1 0x1 PUSH1 0x1 PUSH1 0xA0 SHL SUB SWAP1 DUP2 AND SWAP5 SWAP2 AND SWAP2 SWAP1 PUSH2 0x3846 SWAP1 TIMESTAMP SWAP1 PUSH2 0x34B7 JUMP JUMPDEST SWAP2 SWAP4 SWAP3 SWAP2 SWAP1 JUMP JUMPDEST PUSH1 0x9 SLOAD PUSH1 0xA SLOAD PUSH1 0x1 PUSH1 0x1 PUSH1 0xA0 SHL SUB SWAP2 DUP3 AND SWAP5 POP AND SWAP2 SWAP1 PUSH1 0x0 SWAP1 JUMP JUMPDEST POP PUSH1 0x0 SWAP1 PUSH1 0x0 SWAP1 PUSH1 0x0 SWAP1 PUSH1 0x0 SWAP1 JUMP JUMPDEST PUSH1 0x1 PUSH1 0x1 PUSH1 0xA0 SHL SUB AND PUSH1 0x0 SWAP1 DUP2 MSTORE PUSH1 0xF PUSH1 0x20 MSTORE PUSH1 0x40 DUP2 KECCAK256 DUP1 SLOAD DUP3 SWAP2 DUP3 SWAP2 DUP3 SWAP2 DUP3 JUMPDEST DUP3 DUP2 LT PUSH2 0x395F JUMPI POP POP POP PUSH1 0x3 SLOAD SWAP2 PUSH1 0xFF DUP4 AND GT SWAP1 PUSH1 0xFF DUP3 ISZERO SWAP4 PUSH1 0x8 SHR AND GT SWAP2 DUP3 ISZERO SWAP3 DUP3 DUP1 PUSH2 0x3958 JUMPI JUMPDEST PUSH2 0x394A JUMPI DUP2 PUSH2 0x3942 JUMPI JUMPDEST POP PUSH2 0x3936 JUMPI DUP2 PUSH2 0x392E JUMPI JUMPDEST POP PUSH2 0x3924 JUMPI PUSH3 0x93A80 DUP2 ADD DUP1 SWAP2 GT PUSH2 0x3094 JUMPI PUSH2 0x38F3 SWAP1 TIMESTAMP SWAP1 PUSH2 0x34B7 JUMP JUMPDEST SWAP1 PUSH3 0x278D00 DUP2 ADD DUP1 SWAP2 GT PUSH2 0x3094 JUMPI PUSH2 0x390C SWAP1 TIMESTAMP SWAP1 PUSH2 0x34B7 JUMP JUMPDEST GT ISZERO PUSH2 0x391C JUMPI PUSH1 0x2 SWAP1 JUMPDEST PUSH1 0x0 SWAP2 SWAP1 JUMP JUMPDEST PUSH1 0x1 SWAP1 PUSH2 0x3916 JUMP JUMPDEST POP POP PUSH1 0x0 SWAP1 PUSH1 0x2 SWAP1 JUMP JUMPDEST SWAP1 POP CODESIZE PUSH2 0x38D6 JUMP JUMPDEST POP POP POP POP PUSH1 0x0 SWAP1 PUSH1 0x1 SWAP1 JUMP JUMPDEST SWAP1 POP CODESIZE PUSH2 0x38CB JUMP JUMPDEST POP POP POP POP POP POP PUSH1 0x1 SWAP1 PUSH1 0x0 SWAP1 JUMP JUMPDEST POP DUP1 PUSH2 0x38C1 JUMP JUMPDEST PUSH2 0x3969 DUP2 DUP4 PUSH2 0x2E86 JUMP JUMPDEST SWAP1 SLOAD SWAP1 PUSH1 0x3 SHL SHR PUSH3 0x278D00 DUP2 ADD DUP1 DUP3 GT PUSH2 0x3094 JUMPI TIMESTAMP LT PUSH2 0x398D JUMPI JUMPDEST POP PUSH1 0x1 ADD PUSH2 0x3898 JUMP JUMPDEST SWAP4 PUSH2 0x3997 SWAP1 PUSH2 0x3085 JUMP JUMPDEST SWAP4 DUP8 ISZERO DUP1 ISZERO PUSH2 0x39ED JUMPI JUMPDEST PUSH2 0x39E5 JUMPI JUMPDEST PUSH3 0x93A80 DUP2 ADD DUP1 DUP3 GT PUSH2 0x3094 JUMPI TIMESTAMP LT ISZERO PUSH2 0x3984 JUMPI SWAP5 PUSH2 0x39C4 SWAP1 PUSH2 0x3085 JUMP JUMPDEST SWAP5 DUP7 ISZERO DUP1 ISZERO PUSH2 0x39DC JUMPI JUMPDEST ISZERO PUSH2 0x3984 JUMPI SWAP6 POP PUSH1 0x1 PUSH2 0x3984 JUMP JUMPDEST POP DUP7 DUP2 LT PUSH2 0x39CE JUMP JUMPDEST SWAP7 POP DUP7 PUSH2 0x39A6 JUMP JUMPDEST POP DUP8 DUP2 LT PUSH2 0x39A1 JUMP JUMPDEST ISZERO PUSH2 0x39FD JUMPI JUMP JUMPDEST PUSH1 0x40 MLOAD PUSH3 0x461BCD PUSH1 0xE5 SHL DUP2 MSTORE PUSH1 0x20 PUSH1 0x4 DUP3 ADD MSTORE PUSH1 0x36 PUSH1 0x24 DUP3 ADD MSTORE PUSH32 0x4D697373696F6E466163746F72793A2063616C6C6572206973206E6F74206120 PUSH1 0x44 DUP3 ADD MSTORE PUSH22 0x1D985B1A59081B5A5CDCDA5BDB8818DBDB9D1C9858DD PUSH1 0x52 SHL PUSH1 0x64 DUP3 ADD MSTORE PUSH1 0x84 SWAP1 REVERT JUMPDEST SWAP1 SWAP2 PUSH1 0x2 SLOAD SWAP3 DUP4 DUP4 LT ISZERO PUSH2 0x3C14 JUMPI PUSH2 0x3A79 SWAP1 DUP4 PUSH2 0x34AA JUMP JUMPDEST SWAP3 DUP1 DUP5 GT PUSH2 0x3C0C JUMPI JUMPDEST POP PUSH1 0x0 SWAP3 DUP3 JUMPDEST DUP2 DUP2 LT PUSH2 0x3B8C JUMPI POP PUSH2 0x3A99 DUP5 PUSH2 0x30C1 JUMP JUMPDEST SWAP1 PUSH2 0x3AA6 PUSH2 0x211A DUP7 PUSH2 0x30C1 JUMP JUMPDEST SWAP4 PUSH1 0x0 SWAP1 JUMPDEST DUP3 DUP2 LT PUSH2 0x3ABA JUMPI POP POP POP SWAP3 SWAP2 SWAP1 JUMP JUMPDEST PUSH2 0x3AC3 DUP2 PUSH2 0x2E55 JUMP JUMPDEST SWAP1 SLOAD PUSH1 0x3 SWAP2 SWAP1 SWAP2 SHL SHR PUSH1 0x1 PUSH1 0x1 PUSH1 0xA0 SHL SUB AND PUSH1 0x0 DUP2 DUP2 MSTORE PUSH1 0xD PUSH1 0x20 MSTORE PUSH1 0x40 SWAP1 KECCAK256 SLOAD PUSH1 0xFF AND PUSH1 0x8 DUP2 LT ISZERO DUP1 PUSH2 0x2CEC JUMPI PUSH1 0x5 DUP3 EQ DUP1 ISZERO PUSH2 0x3B7F JUMPI JUMPDEST DUP2 DUP2 ISZERO PUSH2 0x3B6F JUMPI JUMPDEST POP PUSH2 0x3B15 JUMPI JUMPDEST POP POP POP PUSH1 0x1 ADD PUSH2 0x3AAB JUMP JUMPDEST DUP3 PUSH2 0x3B25 DUP7 DUP10 SWAP8 SWAP5 SWAP6 SWAP7 SWAP8 PUSH2 0x3171 JUMP JUMPDEST MSTORE PUSH2 0x2CEC JUMPI PUSH1 0x1 SWAP3 DUP4 SWAP3 PUSH2 0x3B39 DUP4 DUP13 PUSH2 0x3171 JUMP JUMPDEST MSTORE PUSH1 0x0 MSTORE PUSH1 0x10 PUSH1 0x20 MSTORE PUSH2 0x3B4F PUSH1 0x40 PUSH1 0x0 KECCAK256 PUSH2 0x2F94 JUMP JUMPDEST PUSH2 0x3B59 DUP3 DUP11 PUSH2 0x3171 JUMP JUMPDEST MSTORE PUSH2 0x3B64 DUP2 DUP10 PUSH2 0x3171 JUMP JUMPDEST POP ADD SWAP2 SWAP1 CODESIZE DUP1 PUSH2 0x3B0A JUMP JUMPDEST SWAP1 POP PUSH2 0x2CEC JUMPI PUSH1 0x7 DUP3 EQ DUP2 PUSH2 0x3B04 JUMP JUMPDEST POP POP PUSH1 0x0 PUSH1 0x6 DUP3 EQ PUSH2 0x3AFC JUMP JUMPDEST PUSH2 0x3B95 DUP2 PUSH2 0x2E55 JUMP JUMPDEST PUSH1 0x1 DUP1 PUSH1 0xA0 SHL SUB SWAP2 SLOAD SWAP1 PUSH1 0x3 SHL SHR AND PUSH1 0x0 MSTORE PUSH1 0xD PUSH1 0x20 MSTORE PUSH1 0xFF PUSH1 0x40 PUSH1 0x0 KECCAK256 SLOAD AND PUSH1 0x8 DUP2 LT ISZERO SWAP1 DUP2 PUSH2 0x2CEC JUMPI PUSH1 0x5 DUP2 EQ SWAP2 DUP3 ISZERO PUSH2 0x3BFE JUMPI JUMPDEST DUP3 ISZERO PUSH2 0x3BED JUMPI JUMPDEST POP POP PUSH2 0x3BE2 JUMPI JUMPDEST PUSH1 0x1 ADD PUSH2 0x3A88 JUMP JUMPDEST PUSH1 0x1 SWAP1 SWAP5 ADD SWAP4 PUSH2 0x3BDA JUMP JUMPDEST SWAP1 SWAP2 POP PUSH2 0x2CEC JUMPI PUSH1 0x7 EQ CODESIZE DUP1 PUSH2 0x3BD3 JUMP JUMPDEST POP PUSH1 0x6 DUP2 EQ SWAP2 POP PUSH1 0x0 PUSH2 0x3BCC JUMP JUMPDEST SWAP3 POP CODESIZE PUSH2 0x3A82 JUMP JUMPDEST POP PUSH1 0x40 MLOAD PUSH1 0x20 SWAP4 POP SWAP2 POP PUSH2 0x37D7 DUP4 DUP4 PUSH2 0x2F73 JUMP JUMPDEST PUSH1 0x0 SLOAD PUSH1 0x1 PUSH1 0x1 PUSH1 0xA0 SHL SUB AND CALLER SUB PUSH2 0x3C3C JUMPI JUMP JUMPDEST PUSH4 0x118CDAA7 PUSH1 0xE0 SHL PUSH1 0x0 MSTORE CALLER PUSH1 0x4 MSTORE PUSH1 0x24 PUSH1 0x0 REVERT JUMPDEST PUSH1 0x2 PUSH1 0x1 SLOAD EQ PUSH2 0x3C62 JUMPI PUSH1 0x2 PUSH1 0x1 SSTORE JUMP JUMPDEST PUSH4 0x3EE5AEB5 PUSH1 0xE0 SHL PUSH1 0x0 MSTORE PUSH1 0x4 PUSH1 0x0 REVERT JUMPDEST PUSH1 0x0 DUP1 SLOAD PUSH1 0x1 PUSH1 0x1 PUSH1 0xA0 SHL SUB SWAP3 DUP4 AND PUSH1 0x1 PUSH1 0x1 PUSH1 0xA0 SHL SUB NOT DUP3 AND DUP2 OR DUP4 SSTORE SWAP3 AND SWAP1 PUSH32 0x8BE0079C531659141344CD1FD0A4F28419497F9722A3DAAFE3B4186F6B6457E0 SWAP1 DUP1 LOG3 JUMP JUMPDEST PUSH1 0x7 DUP2 LT ISZERO PUSH2 0x2CEC JUMPI PUSH1 0x1 DUP2 EQ PUSH2 0x3DE4 JUMPI PUSH1 0x0 PUSH1 0x2 DUP3 EQ PUSH2 0x3DB7 JUMPI POP PUSH1 0x3 DUP2 EQ PUSH2 0x3D91 JUMPI PUSH1 0x0 PUSH1 0x4 DUP3 EQ PUSH2 0x3D6B JUMPI POP PUSH1 0x5 DUP2 EQ PUSH2 0x3D46 JUMPI PUSH1 0x6 PUSH1 0x0 SWAP2 EQ PUSH2 0x3D20 JUMPI POP PUSH1 0x40 MLOAD PUSH2 0x3D0A PUSH1 0x40 DUP3 PUSH2 0x2F73 JUMP JUMPDEST PUSH1 0x6 DUP2 MSTORE PUSH6 0x437573746F6D PUSH1 0xD0 SHL PUSH1 0x20 DUP3 ADD MSTORE SWAP1 JUMP JUMPDEST POP PUSH1 0x40 MLOAD PUSH2 0x3D2F PUSH1 0x40 DUP3 PUSH2 0x2F73 JUMP JUMPDEST PUSH1 0x7 DUP2 MSTORE PUSH7 0x4D6F6E74686C79 PUSH1 0xC8 SHL PUSH1 0x20 DUP3 ADD MSTORE SWAP1 JUMP JUMPDEST POP PUSH1 0x40 MLOAD PUSH2 0x3D55 PUSH1 0x40 DUP3 PUSH2 0x2F73 JUMP JUMPDEST PUSH1 0x6 DUP2 MSTORE PUSH6 0x5765656B6C79 PUSH1 0xD0 SHL PUSH1 0x20 DUP3 ADD MSTORE SWAP1 JUMP JUMPDEST POP POP PUSH1 0x40 DUP1 MLOAD SWAP1 PUSH2 0x3D7C SWAP1 DUP3 PUSH2 0x2F73 JUMP JUMPDEST PUSH1 0x5 DUP2 MSTORE PUSH5 0x4461696C79 PUSH1 0xD8 SHL PUSH1 0x20 DUP3 ADD MSTORE SWAP1 JUMP JUMPDEST POP PUSH1 0x40 MLOAD PUSH2 0x3DA0 PUSH1 0x40 DUP3 PUSH2 0x2F73 JUMP JUMPDEST PUSH1 0x7 DUP2 MSTORE PUSH7 0x42694461696C79 PUSH1 0xC8 SHL PUSH1 0x20 DUP3 ADD MSTORE SWAP1 JUMP JUMPDEST POP POP PUSH1 0x40 DUP1 MLOAD SWAP1 PUSH2 0x3DC8 SWAP1 DUP3 PUSH2 0x2F73 JUMP JUMPDEST PUSH1 0xC DUP2 MSTORE PUSH12 0x517561727465724461696C79 PUSH1 0xA0 SHL PUSH1 0x20 DUP3 ADD MSTORE SWAP1 JUMP JUMPDEST POP PUSH1 0x40 MLOAD PUSH2 0x3DF3 PUSH1 0x40 DUP3 PUSH2 0x2F73 JUMP JUMPDEST PUSH1 0x6 DUP2 MSTORE PUSH6 0x486F75726C79 PUSH1 0xD0 SHL PUSH1 0x20 DUP3 ADD MSTORE SWAP1 JUMP INVALID LOG2 PUSH5 0x6970667358 0x22 SLT KECCAK256 MSTORE8 REVERT COINBASE PUSH1 0xDA KECCAK256 PUSH3 0x71B2FE SWAP10 0xDB BALANCE 0xC7 0x4C PUSH5 0x1EDC529117 DUP1 INVALID 0xD6 PUSH12 0xE5FA0429F2511B64736F6C63 NUMBER STOP ADDMOD 0x1E STOP CALLER "},"methodIdentifiers":{"OWNERSHIP_PROPOSAL_WINDOW()":"d3050eba","addAuthorizedAddress(address)":"42f1181e","authorized(address)":"b9181611","canEnroll(address)":"9804a586","confirmOwnershipTransfer()":"7200b829","createMission(uint8,uint256,uint256,uint256,uint8,uint8,uint256,uint256,uint8,string)":"72eecd21","getAllMissions()":"6d8a1390","getFactorySummary()":"e5047770","getFundsByType(uint8)":"2e33b07f","getLatestMissions(uint256)":"7e9eae50","getMissionData(address)":"20c5718f","getMissionsByStatus(uint8)":"1e59d584","getMissionsEnded()":"b6202913","getMissionsEndedPaged(uint256,uint256)":"f225b56d","getMissionsNotEnded()":"6805036d","getOwnershipProposal()":"8c09b7c3","getPlayerLimits(address)":"cbf2080d","getPlayerParticipation(address)":"503c0b88","getTotalMissions()":"5c5bb6f2","isMission(address)":"aa1f0595","missionImplementation()":"bd487725","missionNames(address)":"b6de7b43","missionStatus(address)":"0814ab82","missionTypeCounts(uint8)":"f08e231e","missions(uint256)":"2c8fe526","monthlyLimit()":"0a6005da","owner()":"8da5cb5b","proposalProposer()":"2d771f30","proposalTimestamp()":"04a61752","proposeOwnershipTransfer(address)":"21040fc3","proposedNewOwner()":"0fc8c4ed","recordEnrollment(address)":"c17f9e59","registerMissionFunds(uint8)":"a9bea789","removeAuthorizedAddress(address)":"70712939","renounceOwnership()":"715018a6","reservedFunds(uint8)":"c416ad2a","reservedFundsBreakdown()":"df4db463","secondsTillMonthlySlot(address)":"37012762","secondsTillWeeklySlot(address)":"eff0ab92","setEnrollmentLimits(uint8,uint8)":"d41eca64","setMissionStatus(uint8)":"d8d6e8ff","totalMissionFailures()":"83fbea51","totalMissionFunds()":"63679723","totalMissionSuccesses()":"c892fde3","totalOwnerEarnedFunds()":"3589cf72","transferOwnership(address)":"f2fde38b","weeklyLimit()":"861a68d6","withdrawFunds(uint256)":"155dd5ee"}}}}}