{"contracts/MissionFactory.sol":{"Mission":{"abi":[{"inputs":[],"stateMutability":"nonpayable","type":"constructor"},{"inputs":[],"name":"AllRoundsDone","type":"error"},{"inputs":[],"name":"AlreadyJoined","type":"error"},{"inputs":[],"name":"AlreadyWon","type":"error"},{"inputs":[],"name":"ContractsNotAllowed","type":"error"},{"inputs":[{"internalType":"uint256","name":"secondsLeft","type":"uint256"}],"name":"Cooldown","type":"error"},{"inputs":[{"internalType":"uint256","name":"nowTs","type":"uint256"},{"internalType":"uint256","name":"endTs","type":"uint256"}],"name":"EnrollmentClosed","type":"error"},{"inputs":[{"internalType":"uint256","name":"nowTs","type":"uint256"},{"internalType":"uint256","name":"startTs","type":"uint256"}],"name":"EnrollmentNotStarted","type":"error"},{"inputs":[{"internalType":"uint8","name":"maxPlayers","type":"uint8"}],"name":"MaxPlayers","type":"error"},{"inputs":[],"name":"MissionEnded","type":"error"},{"inputs":[{"internalType":"uint256","name":"secondsLeft","type":"uint256"}],"name":"MonthlyLimit","type":"error"},{"inputs":[{"internalType":"uint256","name":"nowTs","type":"uint256"},{"internalType":"uint256","name":"missionStart","type":"uint256"}],"name":"NotActive","type":"error"},{"inputs":[],"name":"NotJoined","type":"error"},{"inputs":[{"internalType":"address","name":"owner","type":"address"}],"name":"OwnableInvalidOwner","type":"error"},{"inputs":[{"internalType":"address","name":"account","type":"address"}],"name":"OwnableUnauthorizedAccount","type":"error"},{"inputs":[{"internalType":"address","name":"winner","type":"address"},{"internalType":"uint256","name":"amount","type":"uint256"},{"internalType":"bytes","name":"data","type":"bytes"}],"name":"PayoutFailed","type":"error"},{"inputs":[],"name":"ReentrancyGuardReentrantCall","type":"error"},{"inputs":[{"internalType":"uint256","name":"secondsLeft","type":"uint256"}],"name":"WeeklyLimit","type":"error"},{"inputs":[{"internalType":"uint256","name":"expected","type":"uint256"},{"internalType":"uint256","name":"sent","type":"uint256"}],"name":"WrongEntryFee","type":"error"},{"anonymous":false,"inputs":[{"indexed":false,"internalType":"uint256","name":"ownerAmount","type":"uint256"},{"indexed":false,"internalType":"uint256","name":"factoryAmount","type":"uint256"}],"name":"FundsWithdrawn","type":"event"},{"anonymous":false,"inputs":[{"indexed":true,"internalType":"address","name":"owner","type":"address"},{"indexed":true,"internalType":"enum MissionType","name":"missionType","type":"uint8"},{"indexed":false,"internalType":"uint256","name":"timestamp","type":"uint256"}],"name":"MissionInitialized","type":"event"},{"anonymous":false,"inputs":[{"indexed":true,"internalType":"uint256","name":"nrOfPlayers","type":"uint256"},{"indexed":true,"internalType":"uint256","name":"amount","type":"uint256"},{"indexed":false,"internalType":"address[]","name":"player","type":"address[]"},{"indexed":false,"internalType":"uint256","name":"timestamp","type":"uint256"}],"name":"MissionRefunded","type":"event"},{"anonymous":false,"inputs":[{"indexed":true,"internalType":"enum Status","name":"previousStatus","type":"uint8"},{"indexed":true,"internalType":"enum Status","name":"newStatus","type":"uint8"},{"indexed":false,"internalType":"uint256","name":"timestamp","type":"uint256"}],"name":"MissionStatusChanged","type":"event"},{"anonymous":false,"inputs":[{"indexed":true,"internalType":"address","name":"previousOwner","type":"address"},{"indexed":true,"internalType":"address","name":"newOwner","type":"address"}],"name":"OwnershipTransferred","type":"event"},{"anonymous":false,"inputs":[{"indexed":true,"internalType":"address","name":"player","type":"address"},{"indexed":false,"internalType":"uint256","name":"amount","type":"uint256"},{"indexed":false,"internalType":"uint256","name":"totalPlayers","type":"uint256"}],"name":"PlayerEnrolled","type":"event"},{"anonymous":false,"inputs":[{"indexed":true,"internalType":"address","name":"player","type":"address"},{"indexed":false,"internalType":"uint256","name":"amount","type":"uint256"}],"name":"PlayerRefunded","type":"event"},{"anonymous":false,"inputs":[{"indexed":false,"internalType":"uint256","name":"value","type":"uint256"},{"indexed":false,"internalType":"uint256","name":"croCurrent","type":"uint256"}],"name":"PotIncreased","type":"event"},{"anonymous":false,"inputs":[{"indexed":true,"internalType":"address","name":"player","type":"address"},{"indexed":false,"internalType":"uint256","name":"amount","type":"uint256"}],"name":"RefundFailed","type":"event"},{"anonymous":false,"inputs":[{"indexed":true,"internalType":"address","name":"player","type":"address"},{"indexed":true,"internalType":"uint8","name":"roundNumber","type":"uint8"},{"indexed":false,"internalType":"uint256","name":"payout","type":"uint256"},{"indexed":false,"internalType":"uint256","name":"croRemaining","type":"uint256"}],"name":"RoundCalled","type":"event"},{"inputs":[],"name":"callRound","outputs":[],"stateMutability":"nonpayable","type":"function"},{"inputs":[],"name":"checkMissionStartCondition","outputs":[],"stateMutability":"nonpayable","type":"function"},{"inputs":[],"name":"currentProgressPct","outputs":[{"internalType":"uint256","name":"","type":"uint256"}],"stateMutability":"view","type":"function"},{"inputs":[],"name":"enrollPlayer","outputs":[],"stateMutability":"payable","type":"function"},{"inputs":[{"internalType":"address","name":"","type":"address"}],"name":"enrolled","outputs":[{"internalType":"bool","name":"","type":"bool"}],"stateMutability":"view","type":"function"},{"inputs":[],"name":"factoryShare","outputs":[{"internalType":"uint256","name":"","type":"uint256"}],"stateMutability":"view","type":"function"},{"inputs":[{"internalType":"address","name":"","type":"address"}],"name":"failedRefundAmounts","outputs":[{"internalType":"uint256","name":"","type":"uint256"}],"stateMutability":"view","type":"function"},{"inputs":[],"name":"forceFinalizeMission","outputs":[],"stateMutability":"nonpayable","type":"function"},{"inputs":[],"name":"getFailedRefundPlayers","outputs":[{"internalType":"address[]","name":"","type":"address[]"}],"stateMutability":"view","type":"function"},{"inputs":[],"name":"getIndexerSnapshot","outputs":[{"internalType":"uint8","name":"status","type":"uint8"},{"internalType":"uint8","name":"roundCount","type":"uint8"},{"internalType":"uint256","name":"croCurrent","type":"uint256"},{"internalType":"uint32","name":"playersCount","type":"uint32"},{"internalType":"uint32","name":"winnersCount","type":"uint32"},{"internalType":"uint32","name":"refundedCount","type":"uint32"}],"stateMutability":"view","type":"function"},{"inputs":[],"name":"getMissionData","outputs":[{"components":[{"internalType":"address[]","name":"players","type":"address[]"},{"internalType":"enum MissionType","name":"missionType","type":"uint8"},{"internalType":"uint256","name":"enrollmentStart","type":"uint256"},{"internalType":"uint256","name":"enrollmentEnd","type":"uint256"},{"internalType":"uint256","name":"enrollmentAmount","type":"uint256"},{"internalType":"uint8","name":"enrollmentMinPlayers","type":"uint8"},{"internalType":"uint8","name":"enrollmentMaxPlayers","type":"uint8"},{"internalType":"uint256","name":"missionStart","type":"uint256"},{"internalType":"uint256","name":"missionEnd","type":"uint256"},{"internalType":"uint8","name":"missionRounds","type":"uint8"},{"internalType":"uint8","name":"roundCount","type":"uint8"},{"internalType":"uint256","name":"croStart","type":"uint256"},{"internalType":"uint256","name":"croCurrent","type":"uint256"},{"components":[{"internalType":"address","name":"player","type":"address"},{"internalType":"uint256","name":"amountWon","type":"uint256"}],"internalType":"struct Mission.PlayersWon[]","name":"playersWon","type":"tuple[]"},{"internalType":"uint256","name":"pauseTimestamp","type":"uint256"},{"internalType":"address[]","name":"refundedPlayers","type":"address[]"},{"internalType":"string","name":"name","type":"string"}],"internalType":"struct Mission.MissionData","name":"","type":"tuple"}],"stateMutability":"view","type":"function"},{"inputs":[],"name":"getPlayerCount","outputs":[{"internalType":"uint256","name":"","type":"uint256"}],"stateMutability":"view","type":"function"},{"inputs":[],"name":"getRealtimeStatus","outputs":[{"internalType":"enum Status","name":"","type":"uint8"}],"stateMutability":"view","type":"function"},{"inputs":[{"internalType":"uint256","name":"offset","type":"uint256"},{"internalType":"uint256","name":"limit","type":"uint256"}],"name":"getRefundedPlayersSlice","outputs":[{"internalType":"address[]","name":"slice","type":"address[]"}],"stateMutability":"view","type":"function"},{"inputs":[],"name":"getWinners","outputs":[{"components":[{"internalType":"address","name":"player","type":"address"},{"internalType":"uint256","name":"amountWon","type":"uint256"}],"internalType":"struct Mission.PlayersWon[]","name":"","type":"tuple[]"}],"stateMutability":"view","type":"function"},{"inputs":[{"internalType":"address","name":"","type":"address"}],"name":"hasWon","outputs":[{"internalType":"bool","name":"","type":"bool"}],"stateMutability":"view","type":"function"},{"inputs":[],"name":"increasePot","outputs":[],"stateMutability":"payable","type":"function"},{"inputs":[{"internalType":"address","name":"_owner","type":"address"},{"internalType":"address","name":"_missionFactory","type":"address"},{"internalType":"enum MissionType","name":"_missionType","type":"uint8"},{"internalType":"uint256","name":"_enrollmentStart","type":"uint256"},{"internalType":"uint256","name":"_enrollmentEnd","type":"uint256"},{"internalType":"uint256","name":"_enrollmentAmount","type":"uint256"},{"internalType":"uint8","name":"_enrollmentMinPlayers","type":"uint8"},{"internalType":"uint8","name":"_enrollmentMaxPlayers","type":"uint8"},{"internalType":"uint256","name":"_missionStart","type":"uint256"},{"internalType":"uint256","name":"_missionEnd","type":"uint256"},{"internalType":"uint8","name":"_missionRounds","type":"uint8"},{"internalType":"string","name":"_name","type":"string"}],"name":"initialize","outputs":[],"stateMutability":"payable","type":"function"},{"inputs":[],"name":"isArming","outputs":[{"internalType":"bool","name":"","type":"bool"}],"stateMutability":"view","type":"function"},{"inputs":[],"name":"isFinalized","outputs":[{"internalType":"bool","name":"","type":"bool"}],"stateMutability":"view","type":"function"},{"inputs":[{"internalType":"address","name":"addr","type":"address"}],"name":"isPlayer","outputs":[{"internalType":"bool","name":"","type":"bool"}],"stateMutability":"view","type":"function"},{"inputs":[],"name":"missionFactory","outputs":[{"internalType":"contract MissionFactory","name":"","type":"address"}],"stateMutability":"view","type":"function"},{"inputs":[],"name":"missionStartConditionChecked","outputs":[{"internalType":"bool","name":"","type":"bool"}],"stateMutability":"view","type":"function"},{"inputs":[],"name":"owner","outputs":[{"internalType":"address","name":"","type":"address"}],"stateMutability":"view","type":"function"},{"inputs":[],"name":"ownerShare","outputs":[{"internalType":"uint256","name":"","type":"uint256"}],"stateMutability":"view","type":"function"},{"inputs":[{"internalType":"address","name":"player","type":"address"}],"name":"pendingPayout","outputs":[{"internalType":"uint256","name":"","type":"uint256"}],"stateMutability":"view","type":"function"},{"inputs":[{"internalType":"address","name":"player","type":"address"}],"name":"playerState","outputs":[{"internalType":"bool","name":"joined","type":"bool"},{"internalType":"bool","name":"won","type":"bool"}],"stateMutability":"view","type":"function"},{"inputs":[],"name":"refundPlayers","outputs":[],"stateMutability":"nonpayable","type":"function"},{"inputs":[{"internalType":"address","name":"","type":"address"}],"name":"refunded","outputs":[{"internalType":"bool","name":"","type":"bool"}],"stateMutability":"view","type":"function"},{"inputs":[],"name":"remainingRounds","outputs":[{"internalType":"uint8","name":"","type":"uint8"}],"stateMutability":"view","type":"function"},{"inputs":[],"name":"renounceOwnership","outputs":[],"stateMutability":"nonpayable","type":"function"},{"inputs":[],"name":"secondsUntilNextRound","outputs":[{"internalType":"uint256","name":"","type":"uint256"}],"stateMutability":"view","type":"function"},{"inputs":[{"internalType":"address","name":"newOwner","type":"address"}],"name":"transferOwnership","outputs":[],"stateMutability":"nonpayable","type":"function"},{"inputs":[{"internalType":"address","name":"addr","type":"address"}],"name":"wasRefunded","outputs":[{"internalType":"bool","name":"","type":"bool"}],"stateMutability":"view","type":"function"},{"inputs":[],"name":"withdrawFunds","outputs":[],"stateMutability":"nonpayable","type":"function"}],"evm":{"bytecode":{"linkReferences":{},"object":"608080604052346083573315606d5760008054336001600160a01b0319821681178355916001600160a01b03909116907f8be0079c531659141344cd1fd0a4f28419497f9722a3daafe3b4186f6b6457e09080a36001805560ff19600954166009556133da90816100898239f35b631e4fbdf760e01b600052600060045260246000fd5b600080fdfe608080604052600436101561001357600080fd5b600090813560e01c9081623e16a514611f5c5750806309c95e1014611f1257806310eb0e0e14611ed35780631212484814611e0157806324600fc314611d47578063268b2b5114611d19578063293c221314611cf65780635407441f14611cdb57806357985d1014611c685780635e83e15c1461174257806368c6ba211461171a578063715018a6146116c05780637475a4cb146113155780637ce17de414610f075780637cf61b6914610e005780638d4e408314610db55780638da5cb5b14610d8e5780638f1c315114610d70578063987c543a146108d457806398bdae431461081a578063a52b2b88146107db578063a7e22a3e146107b5578063ad1ca6bf146106f4578063b2a4a5d2146106bb578063c033a4901461067c578063c2e522061461065e578063dd1121f61461062a578063df15c37e146104fa578063e6810a50146104d6578063eb2bab77146102c6578063f2fde38b14610275578063fa4cf5a11461024c578063faf9175d14610219578063fb84e12f146101f65763fcca0c84146101a157600080fd5b346101f35760203660031901126101f35760409060ff826001600160a01b036101c8611f78565b1692838152600360205282828220541693815260046020522054168251911515825215156020820152f35b80fd5b50346101f357806003193601126101f357602061021161283f565b604051908152f35b50346101f35760403660031901126101f35761024861023c6024356004356127a0565b60405191829182612075565b0390f35b50346101f357806003193601126101f3576002546040516001600160a01b039091168152602090f35b50346101f35760203660031901126101f35761028f611f78565b610297612e60565b6001600160a01b038116156102b2576102af90612e19565b80f35b631e4fbdf760e01b82526004829052602482fd5b50806003193601126101f35734156104a15760018060a01b0360025416803314908115610422575b50801561040f575b156103be576103036128a8565b60088110156103aa57600311156103655761032034601354612362565b6013557f7272b264c9ef2a1e8e9303944736f4977b14a5761227b7b9869fecaa60f89387604061035234601454612362565b806014558151903482526020820152a180f35b60405162461bcd60e51b815260206004820152601960248201527f4d697373696f6e207061737365642061637469766174696f6e000000000000006044820152606490fd5b634e487b7160e01b82526021600452602482fd5b60405162461bcd60e51b815260206004820152602360248201527f4f6e6c7920666163746f7279206f7220617574686f72697a65642063616e20666044820152621d5b9960ea1b6064820152608490fd5b5080546001600160a01b031633146102f6565b60405163b918161160e01b81523360048201529150602090829060249082905afa908115610496578291610458575b50386102ee565b90506020813d60201161048e575b8161047360209383612145565b8101031261048a5761048490612167565b38610451565b5080fd5b3d9150610466565b6040513d84823e3d90fd5b60405162461bcd60e51b815260206004820152600d60248201526c139bc8199d5b991cc81cd95b9d609a1b6044820152606490fd5b50346101f35760203660031901126101f35760206102116104f5611f78565b612692565b50346101f357806003193601126101f3576105136128a8565b60088110156103aa576006148015610610575b156105b157601554610537816123dd565b916105456040519384612145565b81835260158152600080516020613345833981519152602084015b83831061057d576040516020808252819061024890820188611feb565b60026020600192604051610590816120f6565b848060a01b0386541681528486015483820152815201920192019190610560565b60405162461bcd60e51b815260206004820152603160248201527f4d697373696f6e206973206e6f7420696e2053756363657373206f7220506172604482015270746c79537563636573732073746174757360781b6064820152608490fd5b506106196128a8565b60088110156103aa57600514610526565b50346101f357806003193601126101f357600d54421180610653575b6020906040519015158152f35b506010544210610646565b50346101f357806003193601126101f3576020600a54604051908152f35b50346101f35760203660031901126101f35760209060ff906040906001600160a01b036106a7611f78565b168152600584522054166040519015158152f35b50346101f35760203660031901126101f3576020906040906001600160a01b036106e3611f78565b168152600683522054604051908152f35b50346101f357806003193601126101f35761070d612886565b80546001600160a01b031633148015610739575b61072a90612174565b610732612578565b6001805580f35b5060025460405163b918161160e01b815233600482015290602090829060249082906001600160a01b03165afa801561049657829061077a575b9050610721565b506020813d6020116107ad575b8161079460209383612145565b8101031261048a576107a861072a91612167565b610773565b3d9150610787565b50346101f357806003193601126101f35760206107d061252d565b60ff60405191168152f35b50346101f35760203660031901126101f35760209060ff906040906001600160a01b03610806611f78565b168152600484522054166040519015158152f35b50346101f357806003193601126101f357610833612886565b80546001600160a01b031633148015610858575b61085090612174565b610732612e89565b5060025460405163b918161160e01b815233600482015290602090829060249082906001600160a01b03165afa8015610496578290610899575b9050610847565b506020813d6020116108cc575b816108b360209383612145565b8101031261048a576108c761085091612167565b610892565b3d91506108a6565b50806003193601126101f3576108e8612886565b333b610d6257600c54804210610d4c5750600d54804211610d365750600a5460ff600f5460081c1680911015610d245750600e54803403610d0e5750338152600360205260ff604082205416610d005760025460408051634c0252c360e11b81523360048201526001600160a01b0390921692919081602481865afa9081156104965782908392610cb2575b5015610baa5750600a54600160401b811015610b965780600161099c9201600a55600a612258565b81549060031b9033821b9160018060a01b03901b1916179055338152600360205260408120600160ff198254161790556109d834601354612362565b6013556109e734601454612362565b60145580600181610b89575b8015610b7c575b8015610b6f575b610b0c575b610af85760195460ff8160081c16906008821015610ae2576101009060016000936000805160206133658339815191526020604051428152a361ff0019161760195560025481906001600160a01b0316803b15610adf5781809160246040518095819363c17f9e5960e01b83523360048401525af18015610ad257610ac2575b600a546040519034825260208201527fbedd10d90b8962eb521114c7e2b49019403d371ffa1e46afbda7a3f1fde8f06f60403392a26001805580f35b610acb91612145565b8181610a86565b50604051903d90823e3d90fd5b50fd5b634e487b7160e01b600052602160045260246000fd5b634e487b7160e01b81526021600452602490fd5b506002546001600160a01b0316803b1561048a5760405163d8d6e8ff60e01b815260016004820152829182908290602490829084905af1908115610496578291610b58575b5050610a06565b81610b6291612145565b610b6d578083610b51565bfd5b50610af857806000610a01565b50610af8578060006109fa565b50610af8578060006109f3565b634e487b7160e01b82526041600452602482fd5b6024926003821015610c9f57602091600103610c32576040516377f855c960e11b815233600482015293849182905afa8015610ad2578190610bfa575b631b62787960e31b825260045260249150fd5b506020823d602011610c2a575b81610c1460209383612145565b81010312610c255760249151610be7565b600080fd5b3d9150610c07565b604051631b8093b160e11b815233600482015293849182905afa8015610ad2578190610c6c575b63147ce66f60e31b825260045260249150fd5b506020823d602011610c97575b81610c8660209383612145565b81010312610c255760249151610c59565b3d9150610c79565b5050634e487b7160e01b81526021600452fd5b9150506040813d604011610cf8575b81610cce60409383612145565b8101031261048a576020610ce182612167565b910151906003821015610cf45738610974565b8280fd5b3d9150610cc1565b621d934160e11b8152600490fd5b6354d7a6b360e01b825260045234602452604490fd5b63647bcfa160e01b8252600452602490fd5b63166450c960e31b825242600452602452604490fd5b634cd01efb60e11b825242600452602452604490fd5b628b531560e01b8152600490fd5b50346101f357806003193601126101f3576020600754604051908152f35b50346101f357806003193601126101f357546040516001600160a01b039091168152602090f35b50346101f357806003193601126101f357610dce6128a8565b906008821015610af85781600660209314918215610df3575b50506040519015158152f35b6007925050143880610de7565b50346101f357806003193601126101f357610e196128a8565b60088110156103aa576007610e2e91146121c0565b600a5481805b828110610ebf5750610e45906123f5565b9180805b838110610e5e57604051806102488782612075565b80610e6a60019261220c565b838060a01b0391549060031b1c16835260066020526040832054610e8f575b01610e49565b610e988161220c565b838060a01b0391549060031b1c16610eb9610eb28661250a565b9588612519565b52610e89565b610ec88161220c565b905460039190911b1c6001600160a01b0316845260066020526040842054610ef3575b600101610e34565b90610eff60019161250a565b919050610eeb565b50346101f357806003193601126101f3576060610200604051610f2981612128565b82815283602082015283604082015283838201528360808201528360a08201528360c08201528360e08201528361010082015283610120820152836101408201528361016082015283610180820152826101a0820152836101c0820152826101e08201520152604051610f9b81612128565b604051600a548082528160208101600a86526020862092865b8181106112f3575050610fc992500382612145565b815260ff600b541660078110156112df576020820152600c546040820152600d546060820152600e54608082015260ff600f5481811660a084015260081c1660c082015260105460e082015260115461010082015260ff60125481811661012084015260081c16610140820152601354610160820152601454610180820152601554611054816123dd565b906110626040519283612145565b8082526015845283600080516020613345833981519152602084015b8383106112ab57505050506101a08201526016546101c08201526040516017548082528160208101601786526020862092865b8181106112895750506110c692500382612145565b6101e0820152604051601854836110dc82612451565b8084529160018116908115611261575060011461121c575b505061110581610248940382612145565b610200820152604051918291602083526102006112076111e561113684516102206020890152610240880190611fa1565b61114860208601516040890190611fde565b6040850151606088015260608501516080880152608085015160a088015260ff60a08601511660c088015260ff60c08601511660e088015260e085015161010088015261010085015161012088015260ff6101208601511661014088015260ff610140860151166101608801526101608501516101808801526101808501516101a08801526101a0850151601f19888303016101c0890152611feb565b6101c08401516101e08701526101e0840151601f198783030184880152611fa1565b910151838203601f1901610220850152612034565b601881529093506000805160206133858339815191525b84821061124b575081016020019250611105816110f4565b6001816020925483858701015201910190611233565b610248965084925060209150926111059360ff191682840152151560051b82010194506110f4565b84546001600160a01b03168352600194850194869450602090930192016110b1565b600260206001926040516112be816120f6565b848060a01b038654168152848601548382015281520192019201919061107e565b634e487b7160e01b83526021600452602483fd5b84546001600160a01b0316835260019485019486945060209093019201610fb4565b50346101f357806003193601126101f35761132e612886565b6113366128a8565b60088110156103aa5760048114611664576003811061164b5760031061163c57338152600460205260ff60408220541661162d57338152600360205260ff6040822054161561161e5760125460ff8160081c169060ff811682101561160f576010546113a2814261236f565b906064820291808304606414901517156115f357906113c66113cc9260115461236f565b9061248b565b60155480156116075760001981019081116115f3576113ec6001916124ab565b500154905b6064820291808304606414901517156115f3576064916114216114269261141b601354809461248b565b9061236f565b612427565b04916114348360145461236f565b60145560ff81146115df57600161ff00910160081b169061ff00191617601255338252600460205260408220600160ff19825416179055604051611477816120f6565b338152816020820152601554600160401b8110156115cb5780600161149f92016015556124ab565b6115b757815181546001600160a01b0319166001600160a01b03919091161781556020909101516001909101558180808084335af16114dc6124ca565b9015611583575060ff601254818160081c16809360145460405191825260208201527fbbdd894f5e6d754c18172761a1a461095c26de58905e706a8c33657573d4067260403392a3160361153a576115326129ab565b610732612b3c565b5060004260165560195460ff8160081c169060088210156112df57826004610400936000805160206133658339815191526020604051428152a35061ff00191617601955610732565b906115b360405192839263d086db4360e01b84523360048501526024840152606060448401526064830190612034565b0390fd5b634e487b7160e01b84526004849052602484fd5b634e487b7160e01b84526041600452602484fd5b634e487b7160e01b84526011600452602484fd5b634e487b7160e01b85526011600452602485fd5b5083906113f1565b6321b94f7b60e21b8352600483fd5b63c394a43360e01b8152600490fd5b6302ab8f8960e11b8152600490fd5b630d6a05df60e41b8152600490fd5b6010546316f5e3b760e21b835242600452602452604482fd5b60248260125460ff8061167b818460081c1661233a565b92169116146000146116b5576116a3603c5b61169e61ffff429216601654612362565b61236f565b600162269d7960e21b03198252600452fd5b6116a361012c61168d565b50346101f357806003193601126101f3576116d9612e60565b80546001600160a01b03198116825581906001600160a01b03167f8be0079c531659141344cd1fd0a4f28419497f9722a3daafe3b4186f6b6457e08280a380f35b50346101f357806003193601126101f3576102486117366128a8565b60405191829182611f8e565b506101803660031901126101f357611758611f78565b6024356001600160a01b0381169190829003610cf457604435916007831015611c645760c4359060ff8216809203611c605760e43560ff81168103611c5c57610144359060ff8216809203611c5857610164359367ffffffffffffffff8511611c545736602386011215611c545784600401359367ffffffffffffffff8511611c50573660248688010111611c50576117ef612886565b60195460ff8116611c155760ff191660011760195561180d87612e19565b6bffffffffffffffffffffffff60a01b600254161760025560ff19600b541660ff881617600b55606435600c55608435600d5560a435600e5561ff00600f549260081b169161ffff19161717600f55610104356010556101243560115561ffff1960125416176012553460135534601455846016556020916040516118928482612145565b8681528636813780519067ffffffffffffffff8211611b7257600160401b8211611b72578490600a5483600a55808410611bc1575b5001600a8852875b828110611b86575050506040516118e68482612145565b8681528690600160401b8211611b7257849060155483601555808410611aee575b5001601588526000805160206133458339815191528589925b848410611ab0575050505050611937601854612451565b601f8111611a50575b508590601f83116001146119b8577fe9597995b7a2af444cc28b2b776b88b1253d701282a9bcf902d4f59750df7c579392918791836119aa575b50508160011b916000199060031b1c1916176018555b6040514281526001600160a01b0390931692a36001805580f35b60249250010135388061197a565b6018875260008051602061338583398151915291601f198416885b818110611a3657509160019391857fe9597995b7a2af444cc28b2b776b88b1253d701282a9bcf902d4f59750df7c5797969410611a19575b505050811b01601855611990565b0160240135600019600384901b60f8161c19169055388080611a0b565b9193866001819260248888010135815501950192016119d3565b611a949060188852601f840160051c6000805160206133858339815191520190858510611a9a575b601f0160051c600080516020613385833981519152019061243a565b38611940565b6000805160206133858339815191529150611a78565b8051805184546001600160a01b0319166001600160a01b03919091161784556020015160018481019190915591600291019201920191908690611920565b9091506001600160ff1b0381168103611b5e576001600160ff1b0383168303611b5e5790859160011b600080516020613345833981519152018360011b600080516020613345833981519152015b818110611b495750611907565b8a8155600181018b9055879350600201611b3c565b634e487b7160e01b89526011600452602489fd5b634e487b7160e01b88526041600452602488fd5b81516001600160a01b03167fc65a7bb8d6351c1cf70c95a316cc6a92839c986682d98bc35f958f4883f9d2a8820155908501906001016118cf565b611c0f907fc65a7bb8d6351c1cf70c95a316cc6a92839c986682d98bc35f958f4883f9d2a801847fc65a7bb8d6351c1cf70c95a316cc6a92839c986682d98bc35f958f4883f9d2a80161243a565b386118c7565b60405162461bcd60e51b8152602060048201526013602482015272105b1c9958591e481a5b9a5d1a585b1a5e9959606a1b6044820152606490fd5b8880fd5b8780fd5b8680fd5b8580fd5b8480fd5b8380fd5b50346101f357806003193601126101f357611c816128a8565b906008821015610af85760c08260ff60125460081c1660145463ffffffff600a541663ffffffff601554169163ffffffff601754169360ff60405196168652602086015260408501526060840152608083015260a0820152f35b50346101f357806003193601126101f357602061021161237c565b50346101f357806003193601126101f357602060ff600954166040519015158152f35b50346101f35760203660031901126101f3576020611d3d611d38611f78565b612270565b6040519015158152f35b50346101f357806003193601126101f357611d60612886565b80546001600160a01b031633148015611d85575b611d7d90612174565b610732612db7565b5060025460405163b918161160e01b815233600482015290602090829060249082906001600160a01b03165afa8015610496578290611dc6575b9050611d74565b506020813d602011611df9575b81611de060209383612145565b8101031261048a57611df4611d7d91612167565b611dbf565b3d9150611dd3565b50346101f357806003193601126101f35780546001600160a01b031633148015611e57575b611e2f90612174565b611e37612886565b611e3f6128a8565b60088110156103aa576005036101f3576115326129ab565b5060025460405163b918161160e01b815233600482015290602090829060249082906001600160a01b03165afa8015610496578290611e98575b9050611e26565b506020813d602011611ecb575b81611eb260209383612145565b8101031261048a57611ec6611e2f91612167565b611e91565b3d9150611ea5565b50346101f35760203660031901126101f35760209060ff906040906001600160a01b03611efe611f78565b168152600384522054166040519015158152f35b50346101f35760203660031901126101f35760209060ff906040906001600160a01b03611f3d611f78565b16611f498115156120b8565b8152600384522054166040519015158152f35b90503461048a578160031936011261048a576020906008548152f35b600435906001600160a01b0382168203610c2557565b919060208301926008821015610ae25752565b906020808351928381520192019060005b818110611fbf5750505090565b82516001600160a01b0316845260209384019390920191600101611fb2565b906007821015610ae25752565b906020808351928381520192019060005b8181106120095750505090565b825180516001600160a01b031685526020908101518186015260409094019390920191600101611ffc565b919082519283825260005b848110612060575050826000602080949584010152601f8019910116010190565b8060208092840101518282860101520161203f565b602060408183019282815284518094520192019060005b8181106120995750505090565b82516001600160a01b031684526020938401939092019160010161208c565b156120bf57565b60405162461bcd60e51b815260206004820152600f60248201526e496e76616c6964206164647265737360881b6044820152606490fd5b6040810190811067ffffffffffffffff82111761211257604052565b634e487b7160e01b600052604160045260246000fd5b610220810190811067ffffffffffffffff82111761211257604052565b90601f8019910116810190811067ffffffffffffffff82111761211257604052565b51908115158203610c2557565b1561217b57565b60405162461bcd60e51b815260206004820152601760248201527f4e6f74206f776e6572206f7220617574686f72697a65640000000000000000006044820152606490fd5b156121c757565b60405162461bcd60e51b815260206004820152601f60248201527f4d697373696f6e206973206e6f7420696e204661696c656420737461747573006044820152606490fd5b600a5481101561222757600a60005260206000200190600090565b634e487b7160e01b600052603260045260246000fd5b60175481101561222757601760005260206000200190600090565b80548210156122275760005260206000200190600090565b6122786128a8565b6008811015610ae257600761228d91146121c0565b6001600160a01b03166122a18115156120b8565b80600052600360205260ff60406000205416156122ff576017549060005b8281106122ce57505050600090565b816122d88261223d565b905460039190911b1c6001600160a01b0316146122f7576001016122bf565b505050600190565b60405162461bcd60e51b8152602060048201526013602482015272141b185e595c881b9bdd08195b9c9bdb1b1959606a1b6044820152606490fd5b60ff60019116019060ff821161234c57565b634e487b7160e01b600052601160045260246000fd5b9190820180921161234c57565b9190820391821161234c57565b6123846128a8565b6008811015610ae2576004036123d85760125460ff806123a8818460081c1661233a565b92169116146000146123cd576123ca603c61169e61ffff429216601654612362565b90565b6123ca61012c61168d565b600090565b67ffffffffffffffff81116121125760051b60200190565b906123ff826123dd565b61240c6040519182612145565b828152809261241d601f19916123dd565b0190602036910137565b8181029291811591840414171561234c57565b818110612445575050565b6000815560010161243a565b90600182811c92168015612481575b602083101461246b57565b634e487b7160e01b600052602260045260246000fd5b91607f1691612460565b8115612495570490565b634e487b7160e01b600052601260045260246000fd5b60155481101561222757601560005260206000209060011b0190600090565b3d15612505573d9067ffffffffffffffff821161211257604051916124f9601f8201601f191660200184612145565b82523d6000602084013e565b606090565b600019811461234c5760010190565b80518210156122275760209160051b010190565b6125356128a8565b6008811015610ae2576003811490811561256d575b5061255457600090565b60125460ff808260081c1691160360ff811161234c5790565b60049150143861254a565b600d54421180612687575b1561261c5760095460ff81166125d75760ff1916600117600955600a54156125c757600a5460ff600f5416116125b557565b6125bd612a58565b6125c5612e89565b565b6125cf612a58565b6125c5612db7565b60405162461bcd60e51b815260206004820152601f60248201527f416c726561647920636865636b656420737461727420636f6e646974696f6e006044820152606490fd5b60405162461bcd60e51b815260206004820152603860248201527f4d697373696f6e206e6f7420696e2061726d696e672077696e646f772e20436160448201527f6c6c20726566756e64506c617965727320696e737465616400000000000000006064820152608490fd5b506010544210612583565b61269a6128a8565b6008811015610ae25760038114159081612794575b5061278e576001600160a01b031660008181526003602052604090205460ff161561278e57600052600460205260ff604060002054166123d85760105480421061278e576011548042101561278757612708824261236f565b9060648202918083046064149015171561234c57612729926113c69161236f565b6015546000811561277f5750600019810190811161234c5761274c6001916124ab565b500154905b60648202918083046064149015171561234c5760649161142161277b9261141b601354809461248b565b0490565b905090612751565b5050600090565b50600090565b600491501415386126af565b91906017549081841015612821576127cc916127bd859283612362565b90808211612819575b5061236f565b6127d5816123f5565b9260005b8281106127e557505050565b806127fa6127f560019385612362565b61223d565b838060a01b0391549060031b1c166128128288612519565b52016127d9565b9050386127c6565b50509050604051612833602082612145565b60008152600036813790565b60105480421061278e576011548042101561287f5761285e824261236f565b9060648202918083046064149015171561234c576123ca926113c69161236f565b5050606490565b600260015414612897576002600155565b633ee5aeb560e01b60005260046000fd5b60ff60195460081c166008811015610ae2576006811480156129a1575b6123ca5750600c5442106123d857600d5442111561299c57600a5460ff600f541611612997576010544210612992576011544210156129685760125460ff808260081c1691168082101561296157601654908161292457505050600390565b60ff6129326129459461233a565b16036129565761ffff603c5b1690612362565b42101561295157600490565b600390565b61ffff61012c61293e565b5050600690565b60125460ff8160081c1690811561298b5760ff161161298657600690565b600590565b5050600790565b600290565b600790565b600190565b50600781146128c5565b6002546000906001600160a01b0316803b15610c255760405163d8d6e8ff60e01b815260066004820152906000908290602490829084905af18015612a4c57612a37575b5080610af8575060195460ff8160081c16906008821015610ae2576106009160066000916000805160206133658339815191526020604051428152a35061ff00191617601955565b612a449150600090612145565b6000386129ef565b6040513d6000823e3d90fd5b6002546000906001600160a01b0316803b15610c255760405163d8d6e8ff60e01b815260076004820152906000908290602490829084905af18015612a4c57612ae4575b5080610af8575060195460ff8160081c16906008821015610ae2576107009160076000916000805160206133658339815191526020604051428152a35061ff00191617601955565b612af19150600090612145565b600038612a9c565b15612b0057565b60405162461bcd60e51b81526020600482015260146024820152734e6f2066756e647320746f20776974686472617760601b6044820152606490fd5b600090612b476128a8565b60088110156112df576006148015612d9d575b1561048a574791612b6c831515612af9565b600a5415612d90575b5060008081600a545b808210612d5757505083612b999293948211612d4f5761236f565b8015612ba58115612af9565b60198202908282046019141715612d3b576064612bc49104809261236f565b600254604051638da5cb5b60e01b815291939190602090829060049082906001600160a01b03165afa90811561049657829184918391612cf3575b50829182918291906001600160a01b03165af1612c1a6124ca565b5015612cb65760018060a01b036002541660ff600b5416813b15610cf457612c5c6024849287604051958694859363a9bea78960e01b85526004850190611fde565b5af1801561049657612ca6575b50507fd66662c0ded9e58fd31d5e44944bcfd07ffc15e6927ecc1382e7941cb7bd24c460408051838152846020820152a160075560085547601455565b81612cb091612145565b38612c69565b60405162461bcd60e51b815260206004820152601560248201527413dddb995c881d1c985b9cd9995c8819985a5b1959605a1b6044820152606490fd5b925050506020813d602011612d33575b81612d1060209383612145565b8101031261048a57516001600160a01b038116810361048a578190839082612bff565b3d9150612d03565b634e487b7160e01b83526011600452602483fd5b90508061236f565b9091612d88600191612d688561220c565b848060a01b0391549060031b1c1686526006602052604086205490612362565b920190612b7e565b612d98612a58565b612b75565b50612da66128a8565b60088110156112df57600714612b5a565b612dbf6128a8565b60009060088110156103aa576006148015612dff575b156101f357478015612ba58115612deb81612af9565b600a54612af957612dfa612a58565b612af9565b50612e086128a8565b60088110156103aa57600714612dd5565b600080546001600160a01b039283166001600160a01b03198216811783559216907f8be0079c531659141344cd1fd0a4f28419497f9722a3daafe3b4186f6b6457e09080a3565b6000546001600160a01b03163303612e7457565b63118cdaa760e01b6000523360045260246000fd5b612e916128a8565b9060009160088110156112df576007036132ff57600a54156132c357600190825b600a54811015612ffe57612ec58161220c565b905460039190911b1c6001600160a01b03168085526005602052604085205460ff1615612ef6575b50600101612eb2565b84808080600e54855af1612f086124ca565b5015612fa957808552600560205260408520805460ff19166001179055601754600160401b811015612f955790612f49826001809594016017556017612258565b81549060031b9083821b91868060a01b03901b19161790557f48d31f1c958cd44f1f83a52ae2dfaf61e88a1b82c07a6d5711a4abef60b6531e6020600e54604051908152a25b90612eed565b634e487b7160e01b86526041600452602486fd5b909250600e548185526006602052612fc660408620918254612362565b90557faf73b0b217208b61be286bbc37095bce7eb8b9ccf617244c2f0f154e8e04e3ff6020600e54604051908152a260018392612f8f565b509190613009612a58565b476130a8575b50601754600e549160405190826040830160408452526060820190601781527fc624b66cc0138b8fabc209247f72d758e1cf3343756d543badbf24212bed8c15905b84811061308957505090807fbb93c7c839bddd97272c8e974d54d30adfa3aa55df63a52f02b7192efd361a24924260208301520390a3565b81546001600160a01b0316835260209092019160019182019101613051565b6130b06128a8565b60088110156112df5760061480156132a9575b1561048a5747906130d5821515612af9565b600a541561329c575b1561325b575b80156130f08115612af9565b60198202908282046019141715612d3b57606461310f9104809261236f565b600254604051638da5cb5b60e01b815291929190602090829060049082906001600160a01b03165afa90811561320857849183918391613213575b50829182918291906001600160a01b03165af16131656124ca565b5015612cb65760018060a01b036002541660ff600b5416813b15611c60576131a76024869286604051958694859363a9bea78960e01b85526004850190611fde565b5af18015613208576131f4575b507fd66662c0ded9e58fd31d5e44944bcfd07ffc15e6927ecc1382e7941cb7bd24c460408051838152846020820152a1600755600855476014553861300f565b8361320191949294612145565b91386131b4565b6040513d86823e3d90fd5b925050506020813d602011613253575b8161323060209383612145565b81010312611c6457516001600160a01b0381168103611c6457839082908261314a565b3d9150613223565b91908081600a545b8082106132835750508361327e9293948211612d4f5761236f565b6130e4565b9091613294600191612d688561220c565b920190613263565b6132a4612a58565b6130de565b506132b26128a8565b60088110156112df576007146130c3565b60405162461bcd60e51b8152602060048201526014602482015273139bc81c1b185e595c9cc81d1bc81c99599d5b9960621b6044820152606490fd5b60405162461bcd60e51b815260206004820152601c60248201527f4d697373696f6e206e6f7420696e204661696c656420737461747573000000006044820152606490fdfe55f448fdea98c4d29eb340757ef0a66cd03dbb9538908a6a81d96026b71ec47539ba628632d48c45c7f562c07db20a44cf68423691d5d79b20f87ba84138aedfb13d2d76d1f4b7be834882e410b3e3a8afaf69f83600ae24db354391d2378d2ea26469706673582212204239c0cfe4582f876c3f3c6b070a9df3c355cb71832046cd3ed8c34628b3b38364736f6c634300081e0033","opcodes":"PUSH1 0x80 DUP1 PUSH1 0x40 MSTORE CALLVALUE PUSH1 0x83 JUMPI CALLER ISZERO PUSH1 0x6D JUMPI PUSH1 0x0 DUP1 SLOAD CALLER PUSH1 0x1 PUSH1 0x1 PUSH1 0xA0 SHL SUB NOT DUP3 AND DUP2 OR DUP4 SSTORE SWAP2 PUSH1 0x1 PUSH1 0x1 PUSH1 0xA0 SHL SUB SWAP1 SWAP2 AND SWAP1 PUSH32 0x8BE0079C531659141344CD1FD0A4F28419497F9722A3DAAFE3B4186F6B6457E0 SWAP1 DUP1 LOG3 PUSH1 0x1 DUP1 SSTORE PUSH1 0xFF NOT PUSH1 0x9 SLOAD AND PUSH1 0x9 SSTORE PUSH2 0x33DA SWAP1 DUP2 PUSH2 0x89 DUP3 CODECOPY RETURN JUMPDEST PUSH4 0x1E4FBDF7 PUSH1 0xE0 SHL PUSH1 0x0 MSTORE PUSH1 0x0 PUSH1 0x4 MSTORE PUSH1 0x24 PUSH1 0x0 REVERT JUMPDEST PUSH1 0x0 DUP1 REVERT INVALID PUSH1 0x80 DUP1 PUSH1 0x40 MSTORE PUSH1 0x4 CALLDATASIZE LT ISZERO PUSH2 0x13 JUMPI PUSH1 0x0 DUP1 REVERT JUMPDEST PUSH1 0x0 SWAP1 DUP2 CALLDATALOAD PUSH1 0xE0 SHR SWAP1 DUP2 PUSH3 0x3E16A5 EQ PUSH2 0x1F5C JUMPI POP DUP1 PUSH4 0x9C95E10 EQ PUSH2 0x1F12 JUMPI DUP1 PUSH4 0x10EB0E0E EQ PUSH2 0x1ED3 JUMPI DUP1 PUSH4 0x12124848 EQ PUSH2 0x1E01 JUMPI DUP1 PUSH4 0x24600FC3 EQ PUSH2 0x1D47 JUMPI DUP1 PUSH4 0x268B2B51 EQ PUSH2 0x1D19 JUMPI DUP1 PUSH4 0x293C2213 EQ PUSH2 0x1CF6 JUMPI DUP1 PUSH4 0x5407441F EQ PUSH2 0x1CDB JUMPI DUP1 PUSH4 0x57985D10 EQ PUSH2 0x1C68 JUMPI DUP1 PUSH4 0x5E83E15C EQ PUSH2 0x1742 JUMPI DUP1 PUSH4 0x68C6BA21 EQ PUSH2 0x171A JUMPI DUP1 PUSH4 0x715018A6 EQ PUSH2 0x16C0 JUMPI DUP1 PUSH4 0x7475A4CB EQ PUSH2 0x1315 JUMPI DUP1 PUSH4 0x7CE17DE4 EQ PUSH2 0xF07 JUMPI DUP1 PUSH4 0x7CF61B69 EQ PUSH2 0xE00 JUMPI DUP1 PUSH4 0x8D4E4083 EQ PUSH2 0xDB5 JUMPI DUP1 PUSH4 0x8DA5CB5B EQ PUSH2 0xD8E JUMPI DUP1 PUSH4 0x8F1C3151 EQ PUSH2 0xD70 JUMPI DUP1 PUSH4 0x987C543A EQ PUSH2 0x8D4 JUMPI DUP1 PUSH4 0x98BDAE43 EQ PUSH2 0x81A JUMPI DUP1 PUSH4 0xA52B2B88 EQ PUSH2 0x7DB JUMPI DUP1 PUSH4 0xA7E22A3E EQ PUSH2 0x7B5 JUMPI DUP1 PUSH4 0xAD1CA6BF EQ PUSH2 0x6F4 JUMPI DUP1 PUSH4 0xB2A4A5D2 EQ PUSH2 0x6BB JUMPI DUP1 PUSH4 0xC033A490 EQ PUSH2 0x67C JUMPI DUP1 PUSH4 0xC2E52206 EQ PUSH2 0x65E JUMPI DUP1 PUSH4 0xDD1121F6 EQ PUSH2 0x62A JUMPI DUP1 PUSH4 0xDF15C37E EQ PUSH2 0x4FA JUMPI DUP1 PUSH4 0xE6810A50 EQ PUSH2 0x4D6 JUMPI DUP1 PUSH4 0xEB2BAB77 EQ PUSH2 0x2C6 JUMPI DUP1 PUSH4 0xF2FDE38B EQ PUSH2 0x275 JUMPI DUP1 PUSH4 0xFA4CF5A1 EQ PUSH2 0x24C JUMPI DUP1 PUSH4 0xFAF9175D EQ PUSH2 0x219 JUMPI DUP1 PUSH4 0xFB84E12F EQ PUSH2 0x1F6 JUMPI PUSH4 0xFCCA0C84 EQ PUSH2 0x1A1 JUMPI PUSH1 0x0 DUP1 REVERT JUMPDEST CALLVALUE PUSH2 0x1F3 JUMPI PUSH1 0x20 CALLDATASIZE PUSH1 0x3 NOT ADD SLT PUSH2 0x1F3 JUMPI PUSH1 0x40 SWAP1 PUSH1 0xFF DUP3 PUSH1 0x1 PUSH1 0x1 PUSH1 0xA0 SHL SUB PUSH2 0x1C8 PUSH2 0x1F78 JUMP JUMPDEST AND SWAP3 DUP4 DUP2 MSTORE PUSH1 0x3 PUSH1 0x20 MSTORE DUP3 DUP3 DUP3 KECCAK256 SLOAD AND SWAP4 DUP2 MSTORE PUSH1 0x4 PUSH1 0x20 MSTORE KECCAK256 SLOAD AND DUP3 MLOAD SWAP2 ISZERO ISZERO DUP3 MSTORE ISZERO ISZERO PUSH1 0x20 DUP3 ADD MSTORE RETURN JUMPDEST DUP1 REVERT JUMPDEST POP CALLVALUE PUSH2 0x1F3 JUMPI DUP1 PUSH1 0x3 NOT CALLDATASIZE ADD SLT PUSH2 0x1F3 JUMPI PUSH1 0x20 PUSH2 0x211 PUSH2 0x283F JUMP JUMPDEST PUSH1 0x40 MLOAD SWAP1 DUP2 MSTORE RETURN JUMPDEST POP CALLVALUE PUSH2 0x1F3 JUMPI PUSH1 0x40 CALLDATASIZE PUSH1 0x3 NOT ADD SLT PUSH2 0x1F3 JUMPI PUSH2 0x248 PUSH2 0x23C PUSH1 0x24 CALLDATALOAD PUSH1 0x4 CALLDATALOAD PUSH2 0x27A0 JUMP JUMPDEST PUSH1 0x40 MLOAD SWAP2 DUP3 SWAP2 DUP3 PUSH2 0x2075 JUMP JUMPDEST SUB SWAP1 RETURN JUMPDEST POP CALLVALUE PUSH2 0x1F3 JUMPI DUP1 PUSH1 0x3 NOT CALLDATASIZE ADD SLT PUSH2 0x1F3 JUMPI PUSH1 0x2 SLOAD PUSH1 0x40 MLOAD PUSH1 0x1 PUSH1 0x1 PUSH1 0xA0 SHL SUB SWAP1 SWAP2 AND DUP2 MSTORE PUSH1 0x20 SWAP1 RETURN JUMPDEST POP CALLVALUE PUSH2 0x1F3 JUMPI PUSH1 0x20 CALLDATASIZE PUSH1 0x3 NOT ADD SLT PUSH2 0x1F3 JUMPI PUSH2 0x28F PUSH2 0x1F78 JUMP JUMPDEST PUSH2 0x297 PUSH2 0x2E60 JUMP JUMPDEST PUSH1 0x1 PUSH1 0x1 PUSH1 0xA0 SHL SUB DUP2 AND ISZERO PUSH2 0x2B2 JUMPI PUSH2 0x2AF SWAP1 PUSH2 0x2E19 JUMP JUMPDEST DUP1 RETURN JUMPDEST PUSH4 0x1E4FBDF7 PUSH1 0xE0 SHL DUP3 MSTORE PUSH1 0x4 DUP3 SWAP1 MSTORE PUSH1 0x24 DUP3 REVERT JUMPDEST POP DUP1 PUSH1 0x3 NOT CALLDATASIZE ADD SLT PUSH2 0x1F3 JUMPI CALLVALUE ISZERO PUSH2 0x4A1 JUMPI PUSH1 0x1 DUP1 PUSH1 0xA0 SHL SUB PUSH1 0x2 SLOAD AND DUP1 CALLER EQ SWAP1 DUP2 ISZERO PUSH2 0x422 JUMPI JUMPDEST POP DUP1 ISZERO PUSH2 0x40F JUMPI JUMPDEST ISZERO PUSH2 0x3BE JUMPI PUSH2 0x303 PUSH2 0x28A8 JUMP JUMPDEST PUSH1 0x8 DUP2 LT ISZERO PUSH2 0x3AA JUMPI PUSH1 0x3 GT ISZERO PUSH2 0x365 JUMPI PUSH2 0x320 CALLVALUE PUSH1 0x13 SLOAD PUSH2 0x2362 JUMP JUMPDEST PUSH1 0x13 SSTORE PUSH32 0x7272B264C9EF2A1E8E9303944736F4977B14A5761227B7B9869FECAA60F89387 PUSH1 0x40 PUSH2 0x352 CALLVALUE PUSH1 0x14 SLOAD PUSH2 0x2362 JUMP JUMPDEST DUP1 PUSH1 0x14 SSTORE DUP2 MLOAD SWAP1 CALLVALUE DUP3 MSTORE PUSH1 0x20 DUP3 ADD MSTORE LOG1 DUP1 RETURN JUMPDEST PUSH1 0x40 MLOAD PUSH3 0x461BCD PUSH1 0xE5 SHL DUP2 MSTORE PUSH1 0x20 PUSH1 0x4 DUP3 ADD MSTORE PUSH1 0x19 PUSH1 0x24 DUP3 ADD MSTORE PUSH32 0x4D697373696F6E207061737365642061637469766174696F6E00000000000000 PUSH1 0x44 DUP3 ADD MSTORE PUSH1 0x64 SWAP1 REVERT JUMPDEST PUSH4 0x4E487B71 PUSH1 0xE0 SHL DUP3 MSTORE PUSH1 0x21 PUSH1 0x4 MSTORE PUSH1 0x24 DUP3 REVERT JUMPDEST PUSH1 0x40 MLOAD PUSH3 0x461BCD PUSH1 0xE5 SHL DUP2 MSTORE PUSH1 0x20 PUSH1 0x4 DUP3 ADD MSTORE PUSH1 0x23 PUSH1 0x24 DUP3 ADD MSTORE PUSH32 0x4F6E6C7920666163746F7279206F7220617574686F72697A65642063616E2066 PUSH1 0x44 DUP3 ADD MSTORE PUSH3 0x1D5B99 PUSH1 0xEA SHL PUSH1 0x64 DUP3 ADD MSTORE PUSH1 0x84 SWAP1 REVERT JUMPDEST POP DUP1 SLOAD PUSH1 0x1 PUSH1 0x1 PUSH1 0xA0 SHL SUB AND CALLER EQ PUSH2 0x2F6 JUMP JUMPDEST PUSH1 0x40 MLOAD PUSH4 0xB9181611 PUSH1 0xE0 SHL DUP2 MSTORE CALLER PUSH1 0x4 DUP3 ADD MSTORE SWAP2 POP PUSH1 0x20 SWAP1 DUP3 SWAP1 PUSH1 0x24 SWAP1 DUP3 SWAP1 GAS STATICCALL SWAP1 DUP2 ISZERO PUSH2 0x496 JUMPI DUP3 SWAP2 PUSH2 0x458 JUMPI JUMPDEST POP CODESIZE PUSH2 0x2EE JUMP JUMPDEST SWAP1 POP PUSH1 0x20 DUP2 RETURNDATASIZE PUSH1 0x20 GT PUSH2 0x48E JUMPI JUMPDEST DUP2 PUSH2 0x473 PUSH1 0x20 SWAP4 DUP4 PUSH2 0x2145 JUMP JUMPDEST DUP2 ADD SUB SLT PUSH2 0x48A JUMPI PUSH2 0x484 SWAP1 PUSH2 0x2167 JUMP JUMPDEST CODESIZE PUSH2 0x451 JUMP JUMPDEST POP DUP1 REVERT JUMPDEST RETURNDATASIZE SWAP2 POP PUSH2 0x466 JUMP JUMPDEST PUSH1 0x40 MLOAD RETURNDATASIZE DUP5 DUP3 RETURNDATACOPY RETURNDATASIZE SWAP1 REVERT JUMPDEST PUSH1 0x40 MLOAD PUSH3 0x461BCD PUSH1 0xE5 SHL DUP2 MSTORE PUSH1 0x20 PUSH1 0x4 DUP3 ADD MSTORE PUSH1 0xD PUSH1 0x24 DUP3 ADD MSTORE PUSH13 0x139BC8199D5B991CC81CD95B9D PUSH1 0x9A SHL PUSH1 0x44 DUP3 ADD MSTORE PUSH1 0x64 SWAP1 REVERT JUMPDEST POP CALLVALUE PUSH2 0x1F3 JUMPI PUSH1 0x20 CALLDATASIZE PUSH1 0x3 NOT ADD SLT PUSH2 0x1F3 JUMPI PUSH1 0x20 PUSH2 0x211 PUSH2 0x4F5 PUSH2 0x1F78 JUMP JUMPDEST PUSH2 0x2692 JUMP JUMPDEST POP CALLVALUE PUSH2 0x1F3 JUMPI DUP1 PUSH1 0x3 NOT CALLDATASIZE ADD SLT PUSH2 0x1F3 JUMPI PUSH2 0x513 PUSH2 0x28A8 JUMP JUMPDEST PUSH1 0x8 DUP2 LT ISZERO PUSH2 0x3AA JUMPI PUSH1 0x6 EQ DUP1 ISZERO PUSH2 0x610 JUMPI JUMPDEST ISZERO PUSH2 0x5B1 JUMPI PUSH1 0x15 SLOAD PUSH2 0x537 DUP2 PUSH2 0x23DD JUMP JUMPDEST SWAP2 PUSH2 0x545 PUSH1 0x40 MLOAD SWAP4 DUP5 PUSH2 0x2145 JUMP JUMPDEST DUP2 DUP4 MSTORE PUSH1 0x15 DUP2 MSTORE PUSH1 0x0 DUP1 MLOAD PUSH1 0x20 PUSH2 0x3345 DUP4 CODECOPY DUP2 MLOAD SWAP2 MSTORE PUSH1 0x20 DUP5 ADD JUMPDEST DUP4 DUP4 LT PUSH2 0x57D JUMPI PUSH1 0x40 MLOAD PUSH1 0x20 DUP1 DUP3 MSTORE DUP2 SWAP1 PUSH2 0x248 SWAP1 DUP3 ADD DUP9 PUSH2 0x1FEB JUMP JUMPDEST PUSH1 0x2 PUSH1 0x20 PUSH1 0x1 SWAP3 PUSH1 0x40 MLOAD PUSH2 0x590 DUP2 PUSH2 0x20F6 JUMP JUMPDEST DUP5 DUP1 PUSH1 0xA0 SHL SUB DUP7 SLOAD AND DUP2 MSTORE DUP5 DUP7 ADD SLOAD DUP4 DUP3 ADD MSTORE DUP2 MSTORE ADD SWAP3 ADD SWAP3 ADD SWAP2 SWAP1 PUSH2 0x560 JUMP JUMPDEST PUSH1 0x40 MLOAD PUSH3 0x461BCD PUSH1 0xE5 SHL DUP2 MSTORE PUSH1 0x20 PUSH1 0x4 DUP3 ADD MSTORE PUSH1 0x31 PUSH1 0x24 DUP3 ADD MSTORE PUSH32 0x4D697373696F6E206973206E6F7420696E2053756363657373206F7220506172 PUSH1 0x44 DUP3 ADD MSTORE PUSH17 0x746C795375636365737320737461747573 PUSH1 0x78 SHL PUSH1 0x64 DUP3 ADD MSTORE PUSH1 0x84 SWAP1 REVERT JUMPDEST POP PUSH2 0x619 PUSH2 0x28A8 JUMP JUMPDEST PUSH1 0x8 DUP2 LT ISZERO PUSH2 0x3AA JUMPI PUSH1 0x5 EQ PUSH2 0x526 JUMP JUMPDEST POP CALLVALUE PUSH2 0x1F3 JUMPI DUP1 PUSH1 0x3 NOT CALLDATASIZE ADD SLT PUSH2 0x1F3 JUMPI PUSH1 0xD SLOAD TIMESTAMP GT DUP1 PUSH2 0x653 JUMPI JUMPDEST PUSH1 0x20 SWAP1 PUSH1 0x40 MLOAD SWAP1 ISZERO ISZERO DUP2 MSTORE RETURN JUMPDEST POP PUSH1 0x10 SLOAD TIMESTAMP LT PUSH2 0x646 JUMP JUMPDEST POP CALLVALUE PUSH2 0x1F3 JUMPI DUP1 PUSH1 0x3 NOT CALLDATASIZE ADD SLT PUSH2 0x1F3 JUMPI PUSH1 0x20 PUSH1 0xA SLOAD PUSH1 0x40 MLOAD SWAP1 DUP2 MSTORE RETURN JUMPDEST POP CALLVALUE PUSH2 0x1F3 JUMPI PUSH1 0x20 CALLDATASIZE PUSH1 0x3 NOT ADD SLT PUSH2 0x1F3 JUMPI PUSH1 0x20 SWAP1 PUSH1 0xFF SWAP1 PUSH1 0x40 SWAP1 PUSH1 0x1 PUSH1 0x1 PUSH1 0xA0 SHL SUB PUSH2 0x6A7 PUSH2 0x1F78 JUMP JUMPDEST AND DUP2 MSTORE PUSH1 0x5 DUP5 MSTORE KECCAK256 SLOAD AND PUSH1 0x40 MLOAD SWAP1 ISZERO ISZERO DUP2 MSTORE RETURN JUMPDEST POP CALLVALUE PUSH2 0x1F3 JUMPI PUSH1 0x20 CALLDATASIZE PUSH1 0x3 NOT ADD SLT PUSH2 0x1F3 JUMPI PUSH1 0x20 SWAP1 PUSH1 0x40 SWAP1 PUSH1 0x1 PUSH1 0x1 PUSH1 0xA0 SHL SUB PUSH2 0x6E3 PUSH2 0x1F78 JUMP JUMPDEST AND DUP2 MSTORE PUSH1 0x6 DUP4 MSTORE KECCAK256 SLOAD PUSH1 0x40 MLOAD SWAP1 DUP2 MSTORE RETURN JUMPDEST POP CALLVALUE PUSH2 0x1F3 JUMPI DUP1 PUSH1 0x3 NOT CALLDATASIZE ADD SLT PUSH2 0x1F3 JUMPI PUSH2 0x70D PUSH2 0x2886 JUMP JUMPDEST DUP1 SLOAD PUSH1 0x1 PUSH1 0x1 PUSH1 0xA0 SHL SUB AND CALLER EQ DUP1 ISZERO PUSH2 0x739 JUMPI JUMPDEST PUSH2 0x72A SWAP1 PUSH2 0x2174 JUMP JUMPDEST PUSH2 0x732 PUSH2 0x2578 JUMP JUMPDEST PUSH1 0x1 DUP1 SSTORE DUP1 RETURN JUMPDEST POP PUSH1 0x2 SLOAD PUSH1 0x40 MLOAD PUSH4 0xB9181611 PUSH1 0xE0 SHL DUP2 MSTORE CALLER PUSH1 0x4 DUP3 ADD MSTORE SWAP1 PUSH1 0x20 SWAP1 DUP3 SWAP1 PUSH1 0x24 SWAP1 DUP3 SWAP1 PUSH1 0x1 PUSH1 0x1 PUSH1 0xA0 SHL SUB AND GAS STATICCALL DUP1 ISZERO PUSH2 0x496 JUMPI DUP3 SWAP1 PUSH2 0x77A JUMPI JUMPDEST SWAP1 POP PUSH2 0x721 JUMP JUMPDEST POP PUSH1 0x20 DUP2 RETURNDATASIZE PUSH1 0x20 GT PUSH2 0x7AD JUMPI JUMPDEST DUP2 PUSH2 0x794 PUSH1 0x20 SWAP4 DUP4 PUSH2 0x2145 JUMP JUMPDEST DUP2 ADD SUB SLT PUSH2 0x48A JUMPI PUSH2 0x7A8 PUSH2 0x72A SWAP2 PUSH2 0x2167 JUMP JUMPDEST PUSH2 0x773 JUMP JUMPDEST RETURNDATASIZE SWAP2 POP PUSH2 0x787 JUMP JUMPDEST POP CALLVALUE PUSH2 0x1F3 JUMPI DUP1 PUSH1 0x3 NOT CALLDATASIZE ADD SLT PUSH2 0x1F3 JUMPI PUSH1 0x20 PUSH2 0x7D0 PUSH2 0x252D JUMP JUMPDEST PUSH1 0xFF PUSH1 0x40 MLOAD SWAP2 AND DUP2 MSTORE RETURN JUMPDEST POP CALLVALUE PUSH2 0x1F3 JUMPI PUSH1 0x20 CALLDATASIZE PUSH1 0x3 NOT ADD SLT PUSH2 0x1F3 JUMPI PUSH1 0x20 SWAP1 PUSH1 0xFF SWAP1 PUSH1 0x40 SWAP1 PUSH1 0x1 PUSH1 0x1 PUSH1 0xA0 SHL SUB PUSH2 0x806 PUSH2 0x1F78 JUMP JUMPDEST AND DUP2 MSTORE PUSH1 0x4 DUP5 MSTORE KECCAK256 SLOAD AND PUSH1 0x40 MLOAD SWAP1 ISZERO ISZERO DUP2 MSTORE RETURN JUMPDEST POP CALLVALUE PUSH2 0x1F3 JUMPI DUP1 PUSH1 0x3 NOT CALLDATASIZE ADD SLT PUSH2 0x1F3 JUMPI PUSH2 0x833 PUSH2 0x2886 JUMP JUMPDEST DUP1 SLOAD PUSH1 0x1 PUSH1 0x1 PUSH1 0xA0 SHL SUB AND CALLER EQ DUP1 ISZERO PUSH2 0x858 JUMPI JUMPDEST PUSH2 0x850 SWAP1 PUSH2 0x2174 JUMP JUMPDEST PUSH2 0x732 PUSH2 0x2E89 JUMP JUMPDEST POP PUSH1 0x2 SLOAD PUSH1 0x40 MLOAD PUSH4 0xB9181611 PUSH1 0xE0 SHL DUP2 MSTORE CALLER PUSH1 0x4 DUP3 ADD MSTORE SWAP1 PUSH1 0x20 SWAP1 DUP3 SWAP1 PUSH1 0x24 SWAP1 DUP3 SWAP1 PUSH1 0x1 PUSH1 0x1 PUSH1 0xA0 SHL SUB AND GAS STATICCALL DUP1 ISZERO PUSH2 0x496 JUMPI DUP3 SWAP1 PUSH2 0x899 JUMPI JUMPDEST SWAP1 POP PUSH2 0x847 JUMP JUMPDEST POP PUSH1 0x20 DUP2 RETURNDATASIZE PUSH1 0x20 GT PUSH2 0x8CC JUMPI JUMPDEST DUP2 PUSH2 0x8B3 PUSH1 0x20 SWAP4 DUP4 PUSH2 0x2145 JUMP JUMPDEST DUP2 ADD SUB SLT PUSH2 0x48A JUMPI PUSH2 0x8C7 PUSH2 0x850 SWAP2 PUSH2 0x2167 JUMP JUMPDEST PUSH2 0x892 JUMP JUMPDEST RETURNDATASIZE SWAP2 POP PUSH2 0x8A6 JUMP JUMPDEST POP DUP1 PUSH1 0x3 NOT CALLDATASIZE ADD SLT PUSH2 0x1F3 JUMPI PUSH2 0x8E8 PUSH2 0x2886 JUMP JUMPDEST CALLER EXTCODESIZE PUSH2 0xD62 JUMPI PUSH1 0xC SLOAD DUP1 TIMESTAMP LT PUSH2 0xD4C JUMPI POP PUSH1 0xD SLOAD DUP1 TIMESTAMP GT PUSH2 0xD36 JUMPI POP PUSH1 0xA SLOAD PUSH1 0xFF PUSH1 0xF SLOAD PUSH1 0x8 SHR AND DUP1 SWAP2 LT ISZERO PUSH2 0xD24 JUMPI POP PUSH1 0xE SLOAD DUP1 CALLVALUE SUB PUSH2 0xD0E JUMPI POP CALLER DUP2 MSTORE PUSH1 0x3 PUSH1 0x20 MSTORE PUSH1 0xFF PUSH1 0x40 DUP3 KECCAK256 SLOAD AND PUSH2 0xD00 JUMPI PUSH1 0x2 SLOAD PUSH1 0x40 DUP1 MLOAD PUSH4 0x4C0252C3 PUSH1 0xE1 SHL DUP2 MSTORE CALLER PUSH1 0x4 DUP3 ADD MSTORE PUSH1 0x1 PUSH1 0x1 PUSH1 0xA0 SHL SUB SWAP1 SWAP3 AND SWAP3 SWAP2 SWAP1 DUP2 PUSH1 0x24 DUP2 DUP7 GAS STATICCALL SWAP1 DUP2 ISZERO PUSH2 0x496 JUMPI DUP3 SWAP1 DUP4 SWAP3 PUSH2 0xCB2 JUMPI JUMPDEST POP ISZERO PUSH2 0xBAA JUMPI POP PUSH1 0xA SLOAD PUSH1 0x1 PUSH1 0x40 SHL DUP2 LT ISZERO PUSH2 0xB96 JUMPI DUP1 PUSH1 0x1 PUSH2 0x99C SWAP3 ADD PUSH1 0xA SSTORE PUSH1 0xA PUSH2 0x2258 JUMP JUMPDEST DUP2 SLOAD SWAP1 PUSH1 0x3 SHL SWAP1 CALLER DUP3 SHL SWAP2 PUSH1 0x1 DUP1 PUSH1 0xA0 SHL SUB SWAP1 SHL NOT AND OR SWAP1 SSTORE CALLER DUP2 MSTORE PUSH1 0x3 PUSH1 0x20 MSTORE PUSH1 0x40 DUP2 KECCAK256 PUSH1 0x1 PUSH1 0xFF NOT DUP3 SLOAD AND OR SWAP1 SSTORE PUSH2 0x9D8 CALLVALUE PUSH1 0x13 SLOAD PUSH2 0x2362 JUMP JUMPDEST PUSH1 0x13 SSTORE PUSH2 0x9E7 CALLVALUE PUSH1 0x14 SLOAD PUSH2 0x2362 JUMP JUMPDEST PUSH1 0x14 SSTORE DUP1 PUSH1 0x1 DUP2 PUSH2 0xB89 JUMPI JUMPDEST DUP1 ISZERO PUSH2 0xB7C JUMPI JUMPDEST DUP1 ISZERO PUSH2 0xB6F JUMPI JUMPDEST PUSH2 0xB0C JUMPI JUMPDEST PUSH2 0xAF8 JUMPI PUSH1 0x19 SLOAD PUSH1 0xFF DUP2 PUSH1 0x8 SHR AND SWAP1 PUSH1 0x8 DUP3 LT ISZERO PUSH2 0xAE2 JUMPI PUSH2 0x100 SWAP1 PUSH1 0x1 PUSH1 0x0 SWAP4 PUSH1 0x0 DUP1 MLOAD PUSH1 0x20 PUSH2 0x3365 DUP4 CODECOPY DUP2 MLOAD SWAP2 MSTORE PUSH1 0x20 PUSH1 0x40 MLOAD TIMESTAMP DUP2 MSTORE LOG3 PUSH2 0xFF00 NOT AND OR PUSH1 0x19 SSTORE PUSH1 0x2 SLOAD DUP2 SWAP1 PUSH1 0x1 PUSH1 0x1 PUSH1 0xA0 SHL SUB AND DUP1 EXTCODESIZE ISZERO PUSH2 0xADF JUMPI DUP2 DUP1 SWAP2 PUSH1 0x24 PUSH1 0x40 MLOAD DUP1 SWAP6 DUP2 SWAP4 PUSH4 0xC17F9E59 PUSH1 0xE0 SHL DUP4 MSTORE CALLER PUSH1 0x4 DUP5 ADD MSTORE GAS CALL DUP1 ISZERO PUSH2 0xAD2 JUMPI PUSH2 0xAC2 JUMPI JUMPDEST PUSH1 0xA SLOAD PUSH1 0x40 MLOAD SWAP1 CALLVALUE DUP3 MSTORE PUSH1 0x20 DUP3 ADD MSTORE PUSH32 0xBEDD10D90B8962EB521114C7E2B49019403D371FFA1E46AFBDA7A3F1FDE8F06F PUSH1 0x40 CALLER SWAP3 LOG2 PUSH1 0x1 DUP1 SSTORE DUP1 RETURN JUMPDEST PUSH2 0xACB SWAP2 PUSH2 0x2145 JUMP JUMPDEST DUP2 DUP2 PUSH2 0xA86 JUMP JUMPDEST POP PUSH1 0x40 MLOAD SWAP1 RETURNDATASIZE SWAP1 DUP3 RETURNDATACOPY RETURNDATASIZE SWAP1 REVERT JUMPDEST POP REVERT JUMPDEST PUSH4 0x4E487B71 PUSH1 0xE0 SHL PUSH1 0x0 MSTORE PUSH1 0x21 PUSH1 0x4 MSTORE PUSH1 0x24 PUSH1 0x0 REVERT JUMPDEST PUSH4 0x4E487B71 PUSH1 0xE0 SHL DUP2 MSTORE PUSH1 0x21 PUSH1 0x4 MSTORE PUSH1 0x24 SWAP1 REVERT JUMPDEST POP PUSH1 0x2 SLOAD PUSH1 0x1 PUSH1 0x1 PUSH1 0xA0 SHL SUB AND DUP1 EXTCODESIZE ISZERO PUSH2 0x48A JUMPI PUSH1 0x40 MLOAD PUSH4 0xD8D6E8FF PUSH1 0xE0 SHL DUP2 MSTORE PUSH1 0x1 PUSH1 0x4 DUP3 ADD MSTORE DUP3 SWAP2 DUP3 SWAP1 DUP3 SWAP1 PUSH1 0x24 SWAP1 DUP3 SWAP1 DUP5 SWAP1 GAS CALL SWAP1 DUP2 ISZERO PUSH2 0x496 JUMPI DUP3 SWAP2 PUSH2 0xB58 JUMPI JUMPDEST POP POP PUSH2 0xA06 JUMP JUMPDEST DUP2 PUSH2 0xB62 SWAP2 PUSH2 0x2145 JUMP JUMPDEST PUSH2 0xB6D JUMPI DUP1 DUP4 PUSH2 0xB51 JUMP JUMPDEST REVERT JUMPDEST POP PUSH2 0xAF8 JUMPI DUP1 PUSH1 0x0 PUSH2 0xA01 JUMP JUMPDEST POP PUSH2 0xAF8 JUMPI DUP1 PUSH1 0x0 PUSH2 0x9FA JUMP JUMPDEST POP PUSH2 0xAF8 JUMPI DUP1 PUSH1 0x0 PUSH2 0x9F3 JUMP JUMPDEST PUSH4 0x4E487B71 PUSH1 0xE0 SHL DUP3 MSTORE PUSH1 0x41 PUSH1 0x4 MSTORE PUSH1 0x24 DUP3 REVERT JUMPDEST PUSH1 0x24 SWAP3 PUSH1 0x3 DUP3 LT ISZERO PUSH2 0xC9F JUMPI PUSH1 0x20 SWAP2 PUSH1 0x1 SUB PUSH2 0xC32 JUMPI PUSH1 0x40 MLOAD PUSH4 0x77F855C9 PUSH1 0xE1 SHL DUP2 MSTORE CALLER PUSH1 0x4 DUP3 ADD MSTORE SWAP4 DUP5 SWAP2 DUP3 SWAP1 GAS STATICCALL DUP1 ISZERO PUSH2 0xAD2 JUMPI DUP2 SWAP1 PUSH2 0xBFA JUMPI JUMPDEST PUSH4 0x1B627879 PUSH1 0xE3 SHL DUP3 MSTORE PUSH1 0x4 MSTORE PUSH1 0x24 SWAP2 POP REVERT JUMPDEST POP PUSH1 0x20 DUP3 RETURNDATASIZE PUSH1 0x20 GT PUSH2 0xC2A JUMPI JUMPDEST DUP2 PUSH2 0xC14 PUSH1 0x20 SWAP4 DUP4 PUSH2 0x2145 JUMP JUMPDEST DUP2 ADD SUB SLT PUSH2 0xC25 JUMPI PUSH1 0x24 SWAP2 MLOAD PUSH2 0xBE7 JUMP JUMPDEST PUSH1 0x0 DUP1 REVERT JUMPDEST RETURNDATASIZE SWAP2 POP PUSH2 0xC07 JUMP JUMPDEST PUSH1 0x40 MLOAD PUSH4 0x1B8093B1 PUSH1 0xE1 SHL DUP2 MSTORE CALLER PUSH1 0x4 DUP3 ADD MSTORE SWAP4 DUP5 SWAP2 DUP3 SWAP1 GAS STATICCALL DUP1 ISZERO PUSH2 0xAD2 JUMPI DUP2 SWAP1 PUSH2 0xC6C JUMPI JUMPDEST PUSH4 0x147CE66F PUSH1 0xE3 SHL DUP3 MSTORE PUSH1 0x4 MSTORE PUSH1 0x24 SWAP2 POP REVERT JUMPDEST POP PUSH1 0x20 DUP3 RETURNDATASIZE PUSH1 0x20 GT PUSH2 0xC97 JUMPI JUMPDEST DUP2 PUSH2 0xC86 PUSH1 0x20 SWAP4 DUP4 PUSH2 0x2145 JUMP JUMPDEST DUP2 ADD SUB SLT PUSH2 0xC25 JUMPI PUSH1 0x24 SWAP2 MLOAD PUSH2 0xC59 JUMP JUMPDEST RETURNDATASIZE SWAP2 POP PUSH2 0xC79 JUMP JUMPDEST POP POP PUSH4 0x4E487B71 PUSH1 0xE0 SHL DUP2 MSTORE PUSH1 0x21 PUSH1 0x4 MSTORE REVERT JUMPDEST SWAP2 POP POP PUSH1 0x40 DUP2 RETURNDATASIZE PUSH1 0x40 GT PUSH2 0xCF8 JUMPI JUMPDEST DUP2 PUSH2 0xCCE PUSH1 0x40 SWAP4 DUP4 PUSH2 0x2145 JUMP JUMPDEST DUP2 ADD SUB SLT PUSH2 0x48A JUMPI PUSH1 0x20 PUSH2 0xCE1 DUP3 PUSH2 0x2167 JUMP JUMPDEST SWAP2 ADD MLOAD SWAP1 PUSH1 0x3 DUP3 LT ISZERO PUSH2 0xCF4 JUMPI CODESIZE PUSH2 0x974 JUMP JUMPDEST DUP3 DUP1 REVERT JUMPDEST RETURNDATASIZE SWAP2 POP PUSH2 0xCC1 JUMP JUMPDEST PUSH3 0x1D9341 PUSH1 0xE1 SHL DUP2 MSTORE PUSH1 0x4 SWAP1 REVERT JUMPDEST PUSH4 0x54D7A6B3 PUSH1 0xE0 SHL DUP3 MSTORE PUSH1 0x4 MSTORE CALLVALUE PUSH1 0x24 MSTORE PUSH1 0x44 SWAP1 REVERT JUMPDEST PUSH4 0x647BCFA1 PUSH1 0xE0 SHL DUP3 MSTORE PUSH1 0x4 MSTORE PUSH1 0x24 SWAP1 REVERT JUMPDEST PUSH4 0x166450C9 PUSH1 0xE3 SHL DUP3 MSTORE TIMESTAMP PUSH1 0x4 MSTORE PUSH1 0x24 MSTORE PUSH1 0x44 SWAP1 REVERT JUMPDEST PUSH4 0x4CD01EFB PUSH1 0xE1 SHL DUP3 MSTORE TIMESTAMP PUSH1 0x4 MSTORE PUSH1 0x24 MSTORE PUSH1 0x44 SWAP1 REVERT JUMPDEST PUSH3 0x8B5315 PUSH1 0xE0 SHL DUP2 MSTORE PUSH1 0x4 SWAP1 REVERT JUMPDEST POP CALLVALUE PUSH2 0x1F3 JUMPI DUP1 PUSH1 0x3 NOT CALLDATASIZE ADD SLT PUSH2 0x1F3 JUMPI PUSH1 0x20 PUSH1 0x7 SLOAD PUSH1 0x40 MLOAD SWAP1 DUP2 MSTORE RETURN JUMPDEST POP CALLVALUE PUSH2 0x1F3 JUMPI DUP1 PUSH1 0x3 NOT CALLDATASIZE ADD SLT PUSH2 0x1F3 JUMPI SLOAD PUSH1 0x40 MLOAD PUSH1 0x1 PUSH1 0x1 PUSH1 0xA0 SHL SUB SWAP1 SWAP2 AND DUP2 MSTORE PUSH1 0x20 SWAP1 RETURN JUMPDEST POP CALLVALUE PUSH2 0x1F3 JUMPI DUP1 PUSH1 0x3 NOT CALLDATASIZE ADD SLT PUSH2 0x1F3 JUMPI PUSH2 0xDCE PUSH2 0x28A8 JUMP JUMPDEST SWAP1 PUSH1 0x8 DUP3 LT ISZERO PUSH2 0xAF8 JUMPI DUP2 PUSH1 0x6 PUSH1 0x20 SWAP4 EQ SWAP2 DUP3 ISZERO PUSH2 0xDF3 JUMPI JUMPDEST POP POP PUSH1 0x40 MLOAD SWAP1 ISZERO ISZERO DUP2 MSTORE RETURN JUMPDEST PUSH1 0x7 SWAP3 POP POP EQ CODESIZE DUP1 PUSH2 0xDE7 JUMP JUMPDEST POP CALLVALUE PUSH2 0x1F3 JUMPI DUP1 PUSH1 0x3 NOT CALLDATASIZE ADD SLT PUSH2 0x1F3 JUMPI PUSH2 0xE19 PUSH2 0x28A8 JUMP JUMPDEST PUSH1 0x8 DUP2 LT ISZERO PUSH2 0x3AA JUMPI PUSH1 0x7 PUSH2 0xE2E SWAP2 EQ PUSH2 0x21C0 JUMP JUMPDEST PUSH1 0xA SLOAD DUP2 DUP1 JUMPDEST DUP3 DUP2 LT PUSH2 0xEBF JUMPI POP PUSH2 0xE45 SWAP1 PUSH2 0x23F5 JUMP JUMPDEST SWAP2 DUP1 DUP1 JUMPDEST DUP4 DUP2 LT PUSH2 0xE5E JUMPI PUSH1 0x40 MLOAD DUP1 PUSH2 0x248 DUP8 DUP3 PUSH2 0x2075 JUMP JUMPDEST DUP1 PUSH2 0xE6A PUSH1 0x1 SWAP3 PUSH2 0x220C JUMP JUMPDEST DUP4 DUP1 PUSH1 0xA0 SHL SUB SWAP2 SLOAD SWAP1 PUSH1 0x3 SHL SHR AND DUP4 MSTORE PUSH1 0x6 PUSH1 0x20 MSTORE PUSH1 0x40 DUP4 KECCAK256 SLOAD PUSH2 0xE8F JUMPI JUMPDEST ADD PUSH2 0xE49 JUMP JUMPDEST PUSH2 0xE98 DUP2 PUSH2 0x220C JUMP JUMPDEST DUP4 DUP1 PUSH1 0xA0 SHL SUB SWAP2 SLOAD SWAP1 PUSH1 0x3 SHL SHR AND PUSH2 0xEB9 PUSH2 0xEB2 DUP7 PUSH2 0x250A JUMP JUMPDEST SWAP6 DUP9 PUSH2 0x2519 JUMP JUMPDEST MSTORE PUSH2 0xE89 JUMP JUMPDEST PUSH2 0xEC8 DUP2 PUSH2 0x220C JUMP JUMPDEST SWAP1 SLOAD PUSH1 0x3 SWAP2 SWAP1 SWAP2 SHL SHR PUSH1 0x1 PUSH1 0x1 PUSH1 0xA0 SHL SUB AND DUP5 MSTORE PUSH1 0x6 PUSH1 0x20 MSTORE PUSH1 0x40 DUP5 KECCAK256 SLOAD PUSH2 0xEF3 JUMPI JUMPDEST PUSH1 0x1 ADD PUSH2 0xE34 JUMP JUMPDEST SWAP1 PUSH2 0xEFF PUSH1 0x1 SWAP2 PUSH2 0x250A JUMP JUMPDEST SWAP2 SWAP1 POP PUSH2 0xEEB JUMP JUMPDEST POP CALLVALUE PUSH2 0x1F3 JUMPI DUP1 PUSH1 0x3 NOT CALLDATASIZE ADD SLT PUSH2 0x1F3 JUMPI PUSH1 0x60 PUSH2 0x200 PUSH1 0x40 MLOAD PUSH2 0xF29 DUP2 PUSH2 0x2128 JUMP JUMPDEST DUP3 DUP2 MSTORE DUP4 PUSH1 0x20 DUP3 ADD MSTORE DUP4 PUSH1 0x40 DUP3 ADD MSTORE DUP4 DUP4 DUP3 ADD MSTORE DUP4 PUSH1 0x80 DUP3 ADD MSTORE DUP4 PUSH1 0xA0 DUP3 ADD MSTORE DUP4 PUSH1 0xC0 DUP3 ADD MSTORE DUP4 PUSH1 0xE0 DUP3 ADD MSTORE DUP4 PUSH2 0x100 DUP3 ADD MSTORE DUP4 PUSH2 0x120 DUP3 ADD MSTORE DUP4 PUSH2 0x140 DUP3 ADD MSTORE DUP4 PUSH2 0x160 DUP3 ADD MSTORE DUP4 PUSH2 0x180 DUP3 ADD MSTORE DUP3 PUSH2 0x1A0 DUP3 ADD MSTORE DUP4 PUSH2 0x1C0 DUP3 ADD MSTORE DUP3 PUSH2 0x1E0 DUP3 ADD MSTORE ADD MSTORE PUSH1 0x40 MLOAD PUSH2 0xF9B DUP2 PUSH2 0x2128 JUMP JUMPDEST PUSH1 0x40 MLOAD PUSH1 0xA SLOAD DUP1 DUP3 MSTORE DUP2 PUSH1 0x20 DUP2 ADD PUSH1 0xA DUP7 MSTORE PUSH1 0x20 DUP7 KECCAK256 SWAP3 DUP7 JUMPDEST DUP2 DUP2 LT PUSH2 0x12F3 JUMPI POP POP PUSH2 0xFC9 SWAP3 POP SUB DUP3 PUSH2 0x2145 JUMP JUMPDEST DUP2 MSTORE PUSH1 0xFF PUSH1 0xB SLOAD AND PUSH1 0x7 DUP2 LT ISZERO PUSH2 0x12DF JUMPI PUSH1 0x20 DUP3 ADD MSTORE PUSH1 0xC SLOAD PUSH1 0x40 DUP3 ADD MSTORE PUSH1 0xD SLOAD PUSH1 0x60 DUP3 ADD MSTORE PUSH1 0xE SLOAD PUSH1 0x80 DUP3 ADD MSTORE PUSH1 0xFF PUSH1 0xF SLOAD DUP2 DUP2 AND PUSH1 0xA0 DUP5 ADD MSTORE PUSH1 0x8 SHR AND PUSH1 0xC0 DUP3 ADD MSTORE PUSH1 0x10 SLOAD PUSH1 0xE0 DUP3 ADD MSTORE PUSH1 0x11 SLOAD PUSH2 0x100 DUP3 ADD MSTORE PUSH1 0xFF PUSH1 0x12 SLOAD DUP2 DUP2 AND PUSH2 0x120 DUP5 ADD MSTORE PUSH1 0x8 SHR AND PUSH2 0x140 DUP3 ADD MSTORE PUSH1 0x13 SLOAD PUSH2 0x160 DUP3 ADD MSTORE PUSH1 0x14 SLOAD PUSH2 0x180 DUP3 ADD MSTORE PUSH1 0x15 SLOAD PUSH2 0x1054 DUP2 PUSH2 0x23DD JUMP JUMPDEST SWAP1 PUSH2 0x1062 PUSH1 0x40 MLOAD SWAP3 DUP4 PUSH2 0x2145 JUMP JUMPDEST DUP1 DUP3 MSTORE PUSH1 0x15 DUP5 MSTORE DUP4 PUSH1 0x0 DUP1 MLOAD PUSH1 0x20 PUSH2 0x3345 DUP4 CODECOPY DUP2 MLOAD SWAP2 MSTORE PUSH1 0x20 DUP5 ADD JUMPDEST DUP4 DUP4 LT PUSH2 0x12AB JUMPI POP POP POP POP PUSH2 0x1A0 DUP3 ADD MSTORE PUSH1 0x16 SLOAD PUSH2 0x1C0 DUP3 ADD MSTORE PUSH1 0x40 MLOAD PUSH1 0x17 SLOAD DUP1 DUP3 MSTORE DUP2 PUSH1 0x20 DUP2 ADD PUSH1 0x17 DUP7 MSTORE PUSH1 0x20 DUP7 KECCAK256 SWAP3 DUP7 JUMPDEST DUP2 DUP2 LT PUSH2 0x1289 JUMPI POP POP PUSH2 0x10C6 SWAP3 POP SUB DUP3 PUSH2 0x2145 JUMP JUMPDEST PUSH2 0x1E0 DUP3 ADD MSTORE PUSH1 0x40 MLOAD PUSH1 0x18 SLOAD DUP4 PUSH2 0x10DC DUP3 PUSH2 0x2451 JUMP JUMPDEST DUP1 DUP5 MSTORE SWAP2 PUSH1 0x1 DUP2 AND SWAP1 DUP2 ISZERO PUSH2 0x1261 JUMPI POP PUSH1 0x1 EQ PUSH2 0x121C JUMPI JUMPDEST POP POP PUSH2 0x1105 DUP2 PUSH2 0x248 SWAP5 SUB DUP3 PUSH2 0x2145 JUMP JUMPDEST PUSH2 0x200 DUP3 ADD MSTORE PUSH1 0x40 MLOAD SWAP2 DUP3 SWAP2 PUSH1 0x20 DUP4 MSTORE PUSH2 0x200 PUSH2 0x1207 PUSH2 0x11E5 PUSH2 0x1136 DUP5 MLOAD PUSH2 0x220 PUSH1 0x20 DUP10 ADD MSTORE PUSH2 0x240 DUP9 ADD SWAP1 PUSH2 0x1FA1 JUMP JUMPDEST PUSH2 0x1148 PUSH1 0x20 DUP7 ADD MLOAD PUSH1 0x40 DUP10 ADD SWAP1 PUSH2 0x1FDE JUMP JUMPDEST PUSH1 0x40 DUP6 ADD MLOAD PUSH1 0x60 DUP9 ADD MSTORE PUSH1 0x60 DUP6 ADD MLOAD PUSH1 0x80 DUP9 ADD MSTORE PUSH1 0x80 DUP6 ADD MLOAD PUSH1 0xA0 DUP9 ADD MSTORE PUSH1 0xFF PUSH1 0xA0 DUP7 ADD MLOAD AND PUSH1 0xC0 DUP9 ADD MSTORE PUSH1 0xFF PUSH1 0xC0 DUP7 ADD MLOAD AND PUSH1 0xE0 DUP9 ADD MSTORE PUSH1 0xE0 DUP6 ADD MLOAD PUSH2 0x100 DUP9 ADD MSTORE PUSH2 0x100 DUP6 ADD MLOAD PUSH2 0x120 DUP9 ADD MSTORE PUSH1 0xFF PUSH2 0x120 DUP7 ADD MLOAD AND PUSH2 0x140 DUP9 ADD MSTORE PUSH1 0xFF PUSH2 0x140 DUP7 ADD MLOAD AND PUSH2 0x160 DUP9 ADD MSTORE PUSH2 0x160 DUP6 ADD MLOAD PUSH2 0x180 DUP9 ADD MSTORE PUSH2 0x180 DUP6 ADD MLOAD PUSH2 0x1A0 DUP9 ADD MSTORE PUSH2 0x1A0 DUP6 ADD MLOAD PUSH1 0x1F NOT DUP9 DUP4 SUB ADD PUSH2 0x1C0 DUP10 ADD MSTORE PUSH2 0x1FEB JUMP JUMPDEST PUSH2 0x1C0 DUP5 ADD MLOAD PUSH2 0x1E0 DUP8 ADD MSTORE PUSH2 0x1E0 DUP5 ADD MLOAD PUSH1 0x1F NOT DUP8 DUP4 SUB ADD DUP5 DUP9 ADD MSTORE PUSH2 0x1FA1 JUMP JUMPDEST SWAP2 ADD MLOAD DUP4 DUP3 SUB PUSH1 0x1F NOT ADD PUSH2 0x220 DUP6 ADD MSTORE PUSH2 0x2034 JUMP JUMPDEST PUSH1 0x18 DUP2 MSTORE SWAP1 SWAP4 POP PUSH1 0x0 DUP1 MLOAD PUSH1 0x20 PUSH2 0x3385 DUP4 CODECOPY DUP2 MLOAD SWAP2 MSTORE JUMPDEST DUP5 DUP3 LT PUSH2 0x124B JUMPI POP DUP2 ADD PUSH1 0x20 ADD SWAP3 POP PUSH2 0x1105 DUP2 PUSH2 0x10F4 JUMP JUMPDEST PUSH1 0x1 DUP2 PUSH1 0x20 SWAP3 SLOAD DUP4 DUP6 DUP8 ADD ADD MSTORE ADD SWAP2 ADD SWAP1 PUSH2 0x1233 JUMP JUMPDEST PUSH2 0x248 SWAP7 POP DUP5 SWAP3 POP PUSH1 0x20 SWAP2 POP SWAP3 PUSH2 0x1105 SWAP4 PUSH1 0xFF NOT AND DUP3 DUP5 ADD MSTORE ISZERO ISZERO PUSH1 0x5 SHL DUP3 ADD ADD SWAP5 POP PUSH2 0x10F4 JUMP JUMPDEST DUP5 SLOAD PUSH1 0x1 PUSH1 0x1 PUSH1 0xA0 SHL SUB AND DUP4 MSTORE PUSH1 0x1 SWAP5 DUP6 ADD SWAP5 DUP7 SWAP5 POP PUSH1 0x20 SWAP1 SWAP4 ADD SWAP3 ADD PUSH2 0x10B1 JUMP JUMPDEST PUSH1 0x2 PUSH1 0x20 PUSH1 0x1 SWAP3 PUSH1 0x40 MLOAD PUSH2 0x12BE DUP2 PUSH2 0x20F6 JUMP JUMPDEST DUP5 DUP1 PUSH1 0xA0 SHL SUB DUP7 SLOAD AND DUP2 MSTORE DUP5 DUP7 ADD SLOAD DUP4 DUP3 ADD MSTORE DUP2 MSTORE ADD SWAP3 ADD SWAP3 ADD SWAP2 SWAP1 PUSH2 0x107E JUMP JUMPDEST PUSH4 0x4E487B71 PUSH1 0xE0 SHL DUP4 MSTORE PUSH1 0x21 PUSH1 0x4 MSTORE PUSH1 0x24 DUP4 REVERT JUMPDEST DUP5 SLOAD PUSH1 0x1 PUSH1 0x1 PUSH1 0xA0 SHL SUB AND DUP4 MSTORE PUSH1 0x1 SWAP5 DUP6 ADD SWAP5 DUP7 SWAP5 POP PUSH1 0x20 SWAP1 SWAP4 ADD SWAP3 ADD PUSH2 0xFB4 JUMP JUMPDEST POP CALLVALUE PUSH2 0x1F3 JUMPI DUP1 PUSH1 0x3 NOT CALLDATASIZE ADD SLT PUSH2 0x1F3 JUMPI PUSH2 0x132E PUSH2 0x2886 JUMP JUMPDEST PUSH2 0x1336 PUSH2 0x28A8 JUMP JUMPDEST PUSH1 0x8 DUP2 LT ISZERO PUSH2 0x3AA JUMPI PUSH1 0x4 DUP2 EQ PUSH2 0x1664 JUMPI PUSH1 0x3 DUP2 LT PUSH2 0x164B JUMPI PUSH1 0x3 LT PUSH2 0x163C JUMPI CALLER DUP2 MSTORE PUSH1 0x4 PUSH1 0x20 MSTORE PUSH1 0xFF PUSH1 0x40 DUP3 KECCAK256 SLOAD AND PUSH2 0x162D JUMPI CALLER DUP2 MSTORE PUSH1 0x3 PUSH1 0x20 MSTORE PUSH1 0xFF PUSH1 0x40 DUP3 KECCAK256 SLOAD AND ISZERO PUSH2 0x161E JUMPI PUSH1 0x12 SLOAD PUSH1 0xFF DUP2 PUSH1 0x8 SHR AND SWAP1 PUSH1 0xFF DUP2 AND DUP3 LT ISZERO PUSH2 0x160F JUMPI PUSH1 0x10 SLOAD PUSH2 0x13A2 DUP2 TIMESTAMP PUSH2 0x236F JUMP JUMPDEST SWAP1 PUSH1 0x64 DUP3 MUL SWAP2 DUP1 DUP4 DIV PUSH1 0x64 EQ SWAP1 ISZERO OR ISZERO PUSH2 0x15F3 JUMPI SWAP1 PUSH2 0x13C6 PUSH2 0x13CC SWAP3 PUSH1 0x11 SLOAD PUSH2 0x236F JUMP JUMPDEST SWAP1 PUSH2 0x248B JUMP JUMPDEST PUSH1 0x15 SLOAD DUP1 ISZERO PUSH2 0x1607 JUMPI PUSH1 0x0 NOT DUP2 ADD SWAP1 DUP2 GT PUSH2 0x15F3 JUMPI PUSH2 0x13EC PUSH1 0x1 SWAP2 PUSH2 0x24AB JUMP JUMPDEST POP ADD SLOAD SWAP1 JUMPDEST PUSH1 0x64 DUP3 MUL SWAP2 DUP1 DUP4 DIV PUSH1 0x64 EQ SWAP1 ISZERO OR ISZERO PUSH2 0x15F3 JUMPI PUSH1 0x64 SWAP2 PUSH2 0x1421 PUSH2 0x1426 SWAP3 PUSH2 0x141B PUSH1 0x13 SLOAD DUP1 SWAP5 PUSH2 0x248B JUMP JUMPDEST SWAP1 PUSH2 0x236F JUMP JUMPDEST PUSH2 0x2427 JUMP JUMPDEST DIV SWAP2 PUSH2 0x1434 DUP4 PUSH1 0x14 SLOAD PUSH2 0x236F JUMP JUMPDEST PUSH1 0x14 SSTORE PUSH1 0xFF DUP2 EQ PUSH2 0x15DF JUMPI PUSH1 0x1 PUSH2 0xFF00 SWAP2 ADD PUSH1 0x8 SHL AND SWAP1 PUSH2 0xFF00 NOT AND OR PUSH1 0x12 SSTORE CALLER DUP3 MSTORE PUSH1 0x4 PUSH1 0x20 MSTORE PUSH1 0x40 DUP3 KECCAK256 PUSH1 0x1 PUSH1 0xFF NOT DUP3 SLOAD AND OR SWAP1 SSTORE PUSH1 0x40 MLOAD PUSH2 0x1477 DUP2 PUSH2 0x20F6 JUMP JUMPDEST CALLER DUP2 MSTORE DUP2 PUSH1 0x20 DUP3 ADD MSTORE PUSH1 0x15 SLOAD PUSH1 0x1 PUSH1 0x40 SHL DUP2 LT ISZERO PUSH2 0x15CB JUMPI DUP1 PUSH1 0x1 PUSH2 0x149F SWAP3 ADD PUSH1 0x15 SSTORE PUSH2 0x24AB JUMP JUMPDEST PUSH2 0x15B7 JUMPI DUP2 MLOAD DUP2 SLOAD PUSH1 0x1 PUSH1 0x1 PUSH1 0xA0 SHL SUB NOT AND PUSH1 0x1 PUSH1 0x1 PUSH1 0xA0 SHL SUB SWAP2 SWAP1 SWAP2 AND OR DUP2 SSTORE PUSH1 0x20 SWAP1 SWAP2 ADD MLOAD PUSH1 0x1 SWAP1 SWAP2 ADD SSTORE DUP2 DUP1 DUP1 DUP1 DUP5 CALLER GAS CALL PUSH2 0x14DC PUSH2 0x24CA JUMP JUMPDEST SWAP1 ISZERO PUSH2 0x1583 JUMPI POP PUSH1 0xFF PUSH1 0x12 SLOAD DUP2 DUP2 PUSH1 0x8 SHR AND DUP1 SWAP4 PUSH1 0x14 SLOAD PUSH1 0x40 MLOAD SWAP2 DUP3 MSTORE PUSH1 0x20 DUP3 ADD MSTORE PUSH32 0xBBDD894F5E6D754C18172761A1A461095C26DE58905E706A8C33657573D40672 PUSH1 0x40 CALLER SWAP3 LOG3 AND SUB PUSH2 0x153A JUMPI PUSH2 0x1532 PUSH2 0x29AB JUMP JUMPDEST PUSH2 0x732 PUSH2 0x2B3C JUMP JUMPDEST POP PUSH1 0x0 TIMESTAMP PUSH1 0x16 SSTORE PUSH1 0x19 SLOAD PUSH1 0xFF DUP2 PUSH1 0x8 SHR AND SWAP1 PUSH1 0x8 DUP3 LT ISZERO PUSH2 0x12DF JUMPI DUP3 PUSH1 0x4 PUSH2 0x400 SWAP4 PUSH1 0x0 DUP1 MLOAD PUSH1 0x20 PUSH2 0x3365 DUP4 CODECOPY DUP2 MLOAD SWAP2 MSTORE PUSH1 0x20 PUSH1 0x40 MLOAD TIMESTAMP DUP2 MSTORE LOG3 POP PUSH2 0xFF00 NOT AND OR PUSH1 0x19 SSTORE PUSH2 0x732 JUMP JUMPDEST SWAP1 PUSH2 0x15B3 PUSH1 0x40 MLOAD SWAP3 DUP4 SWAP3 PUSH4 0xD086DB43 PUSH1 0xE0 SHL DUP5 MSTORE CALLER PUSH1 0x4 DUP6 ADD MSTORE PUSH1 0x24 DUP5 ADD MSTORE PUSH1 0x60 PUSH1 0x44 DUP5 ADD MSTORE PUSH1 0x64 DUP4 ADD SWAP1 PUSH2 0x2034 JUMP JUMPDEST SUB SWAP1 REVERT JUMPDEST PUSH4 0x4E487B71 PUSH1 0xE0 SHL DUP5 MSTORE PUSH1 0x4 DUP5 SWAP1 MSTORE PUSH1 0x24 DUP5 REVERT JUMPDEST PUSH4 0x4E487B71 PUSH1 0xE0 SHL DUP5 MSTORE PUSH1 0x41 PUSH1 0x4 MSTORE PUSH1 0x24 DUP5 REVERT JUMPDEST PUSH4 0x4E487B71 PUSH1 0xE0 SHL DUP5 MSTORE PUSH1 0x11 PUSH1 0x4 MSTORE PUSH1 0x24 DUP5 REVERT JUMPDEST PUSH4 0x4E487B71 PUSH1 0xE0 SHL DUP6 MSTORE PUSH1 0x11 PUSH1 0x4 MSTORE PUSH1 0x24 DUP6 REVERT JUMPDEST POP DUP4 SWAP1 PUSH2 0x13F1 JUMP JUMPDEST PUSH4 0x21B94F7B PUSH1 0xE2 SHL DUP4 MSTORE PUSH1 0x4 DUP4 REVERT JUMPDEST PUSH4 0xC394A433 PUSH1 0xE0 SHL DUP2 MSTORE PUSH1 0x4 SWAP1 REVERT JUMPDEST PUSH4 0x2AB8F89 PUSH1 0xE1 SHL DUP2 MSTORE PUSH1 0x4 SWAP1 REVERT JUMPDEST PUSH4 0xD6A05DF PUSH1 0xE4 SHL DUP2 MSTORE PUSH1 0x4 SWAP1 REVERT JUMPDEST PUSH1 0x10 SLOAD PUSH4 0x16F5E3B7 PUSH1 0xE2 SHL DUP4 MSTORE TIMESTAMP PUSH1 0x4 MSTORE PUSH1 0x24 MSTORE PUSH1 0x44 DUP3 REVERT JUMPDEST PUSH1 0x24 DUP3 PUSH1 0x12 SLOAD PUSH1 0xFF DUP1 PUSH2 0x167B DUP2 DUP5 PUSH1 0x8 SHR AND PUSH2 0x233A JUMP JUMPDEST SWAP3 AND SWAP2 AND EQ PUSH1 0x0 EQ PUSH2 0x16B5 JUMPI PUSH2 0x16A3 PUSH1 0x3C JUMPDEST PUSH2 0x169E PUSH2 0xFFFF TIMESTAMP SWAP3 AND PUSH1 0x16 SLOAD PUSH2 0x2362 JUMP JUMPDEST PUSH2 0x236F JUMP JUMPDEST PUSH1 0x1 PUSH3 0x269D79 PUSH1 0xE2 SHL SUB NOT DUP3 MSTORE PUSH1 0x4 MSTORE REVERT JUMPDEST PUSH2 0x16A3 PUSH2 0x12C PUSH2 0x168D JUMP JUMPDEST POP CALLVALUE PUSH2 0x1F3 JUMPI DUP1 PUSH1 0x3 NOT CALLDATASIZE ADD SLT PUSH2 0x1F3 JUMPI PUSH2 0x16D9 PUSH2 0x2E60 JUMP JUMPDEST DUP1 SLOAD PUSH1 0x1 PUSH1 0x1 PUSH1 0xA0 SHL SUB NOT DUP2 AND DUP3 SSTORE DUP2 SWAP1 PUSH1 0x1 PUSH1 0x1 PUSH1 0xA0 SHL SUB AND PUSH32 0x8BE0079C531659141344CD1FD0A4F28419497F9722A3DAAFE3B4186F6B6457E0 DUP3 DUP1 LOG3 DUP1 RETURN JUMPDEST POP CALLVALUE PUSH2 0x1F3 JUMPI DUP1 PUSH1 0x3 NOT CALLDATASIZE ADD SLT PUSH2 0x1F3 JUMPI PUSH2 0x248 PUSH2 0x1736 PUSH2 0x28A8 JUMP JUMPDEST PUSH1 0x40 MLOAD SWAP2 DUP3 SWAP2 DUP3 PUSH2 0x1F8E JUMP JUMPDEST POP PUSH2 0x180 CALLDATASIZE PUSH1 0x3 NOT ADD SLT PUSH2 0x1F3 JUMPI PUSH2 0x1758 PUSH2 0x1F78 JUMP JUMPDEST PUSH1 0x24 CALLDATALOAD PUSH1 0x1 PUSH1 0x1 PUSH1 0xA0 SHL SUB DUP2 AND SWAP2 SWAP1 DUP3 SWAP1 SUB PUSH2 0xCF4 JUMPI PUSH1 0x44 CALLDATALOAD SWAP2 PUSH1 0x7 DUP4 LT ISZERO PUSH2 0x1C64 JUMPI PUSH1 0xC4 CALLDATALOAD SWAP1 PUSH1 0xFF DUP3 AND DUP1 SWAP3 SUB PUSH2 0x1C60 JUMPI PUSH1 0xE4 CALLDATALOAD PUSH1 0xFF DUP2 AND DUP2 SUB PUSH2 0x1C5C JUMPI PUSH2 0x144 CALLDATALOAD SWAP1 PUSH1 0xFF DUP3 AND DUP1 SWAP3 SUB PUSH2 0x1C58 JUMPI PUSH2 0x164 CALLDATALOAD SWAP4 PUSH8 0xFFFFFFFFFFFFFFFF DUP6 GT PUSH2 0x1C54 JUMPI CALLDATASIZE PUSH1 0x23 DUP7 ADD SLT ISZERO PUSH2 0x1C54 JUMPI DUP5 PUSH1 0x4 ADD CALLDATALOAD SWAP4 PUSH8 0xFFFFFFFFFFFFFFFF DUP6 GT PUSH2 0x1C50 JUMPI CALLDATASIZE PUSH1 0x24 DUP7 DUP9 ADD ADD GT PUSH2 0x1C50 JUMPI PUSH2 0x17EF PUSH2 0x2886 JUMP JUMPDEST PUSH1 0x19 SLOAD PUSH1 0xFF DUP2 AND PUSH2 0x1C15 JUMPI PUSH1 0xFF NOT AND PUSH1 0x1 OR PUSH1 0x19 SSTORE PUSH2 0x180D DUP8 PUSH2 0x2E19 JUMP JUMPDEST PUSH12 0xFFFFFFFFFFFFFFFFFFFFFFFF PUSH1 0xA0 SHL PUSH1 0x2 SLOAD AND OR PUSH1 0x2 SSTORE PUSH1 0xFF NOT PUSH1 0xB SLOAD AND PUSH1 0xFF DUP9 AND OR PUSH1 0xB SSTORE PUSH1 0x64 CALLDATALOAD PUSH1 0xC SSTORE PUSH1 0x84 CALLDATALOAD PUSH1 0xD SSTORE PUSH1 0xA4 CALLDATALOAD PUSH1 0xE SSTORE PUSH2 0xFF00 PUSH1 0xF SLOAD SWAP3 PUSH1 0x8 SHL AND SWAP2 PUSH2 0xFFFF NOT AND OR OR PUSH1 0xF SSTORE PUSH2 0x104 CALLDATALOAD PUSH1 0x10 SSTORE PUSH2 0x124 CALLDATALOAD PUSH1 0x11 SSTORE PUSH2 0xFFFF NOT PUSH1 0x12 SLOAD AND OR PUSH1 0x12 SSTORE CALLVALUE PUSH1 0x13 SSTORE CALLVALUE PUSH1 0x14 SSTORE DUP5 PUSH1 0x16 SSTORE PUSH1 0x20 SWAP2 PUSH1 0x40 MLOAD PUSH2 0x1892 DUP5 DUP3 PUSH2 0x2145 JUMP JUMPDEST DUP7 DUP2 MSTORE DUP7 CALLDATASIZE DUP2 CALLDATACOPY DUP1 MLOAD SWAP1 PUSH8 0xFFFFFFFFFFFFFFFF DUP3 GT PUSH2 0x1B72 JUMPI PUSH1 0x1 PUSH1 0x40 SHL DUP3 GT PUSH2 0x1B72 JUMPI DUP5 SWAP1 PUSH1 0xA SLOAD DUP4 PUSH1 0xA SSTORE DUP1 DUP5 LT PUSH2 0x1BC1 JUMPI JUMPDEST POP ADD PUSH1 0xA DUP9 MSTORE DUP8 JUMPDEST DUP3 DUP2 LT PUSH2 0x1B86 JUMPI POP POP POP PUSH1 0x40 MLOAD PUSH2 0x18E6 DUP5 DUP3 PUSH2 0x2145 JUMP JUMPDEST DUP7 DUP2 MSTORE DUP7 SWAP1 PUSH1 0x1 PUSH1 0x40 SHL DUP3 GT PUSH2 0x1B72 JUMPI DUP5 SWAP1 PUSH1 0x15 SLOAD DUP4 PUSH1 0x15 SSTORE DUP1 DUP5 LT PUSH2 0x1AEE JUMPI JUMPDEST POP ADD PUSH1 0x15 DUP9 MSTORE PUSH1 0x0 DUP1 MLOAD PUSH1 0x20 PUSH2 0x3345 DUP4 CODECOPY DUP2 MLOAD SWAP2 MSTORE DUP6 DUP10 SWAP3 JUMPDEST DUP5 DUP5 LT PUSH2 0x1AB0 JUMPI POP POP POP POP POP PUSH2 0x1937 PUSH1 0x18 SLOAD PUSH2 0x2451 JUMP JUMPDEST PUSH1 0x1F DUP2 GT PUSH2 0x1A50 JUMPI JUMPDEST POP DUP6 SWAP1 PUSH1 0x1F DUP4 GT PUSH1 0x1 EQ PUSH2 0x19B8 JUMPI PUSH32 0xE9597995B7A2AF444CC28B2B776B88B1253D701282A9BCF902D4F59750DF7C57 SWAP4 SWAP3 SWAP2 DUP8 SWAP2 DUP4 PUSH2 0x19AA JUMPI JUMPDEST POP POP DUP2 PUSH1 0x1 SHL SWAP2 PUSH1 0x0 NOT SWAP1 PUSH1 0x3 SHL SHR NOT AND OR PUSH1 0x18 SSTORE JUMPDEST PUSH1 0x40 MLOAD TIMESTAMP DUP2 MSTORE PUSH1 0x1 PUSH1 0x1 PUSH1 0xA0 SHL SUB SWAP1 SWAP4 AND SWAP3 LOG3 PUSH1 0x1 DUP1 SSTORE DUP1 RETURN JUMPDEST PUSH1 0x24 SWAP3 POP ADD ADD CALLDATALOAD CODESIZE DUP1 PUSH2 0x197A JUMP JUMPDEST PUSH1 0x18 DUP8 MSTORE PUSH1 0x0 DUP1 MLOAD PUSH1 0x20 PUSH2 0x3385 DUP4 CODECOPY DUP2 MLOAD SWAP2 MSTORE SWAP2 PUSH1 0x1F NOT DUP5 AND DUP9 JUMPDEST DUP2 DUP2 LT PUSH2 0x1A36 JUMPI POP SWAP2 PUSH1 0x1 SWAP4 SWAP2 DUP6 PUSH32 0xE9597995B7A2AF444CC28B2B776B88B1253D701282A9BCF902D4F59750DF7C57 SWAP8 SWAP7 SWAP5 LT PUSH2 0x1A19 JUMPI JUMPDEST POP POP POP DUP2 SHL ADD PUSH1 0x18 SSTORE PUSH2 0x1990 JUMP JUMPDEST ADD PUSH1 0x24 ADD CALLDATALOAD PUSH1 0x0 NOT PUSH1 0x3 DUP5 SWAP1 SHL PUSH1 0xF8 AND SHR NOT AND SWAP1 SSTORE CODESIZE DUP1 DUP1 PUSH2 0x1A0B JUMP JUMPDEST SWAP2 SWAP4 DUP7 PUSH1 0x1 DUP2 SWAP3 PUSH1 0x24 DUP9 DUP9 ADD ADD CALLDATALOAD DUP2 SSTORE ADD SWAP6 ADD SWAP3 ADD PUSH2 0x19D3 JUMP JUMPDEST PUSH2 0x1A94 SWAP1 PUSH1 0x18 DUP9 MSTORE PUSH1 0x1F DUP5 ADD PUSH1 0x5 SHR PUSH1 0x0 DUP1 MLOAD PUSH1 0x20 PUSH2 0x3385 DUP4 CODECOPY DUP2 MLOAD SWAP2 MSTORE ADD SWAP1 DUP6 DUP6 LT PUSH2 0x1A9A JUMPI JUMPDEST PUSH1 0x1F ADD PUSH1 0x5 SHR PUSH1 0x0 DUP1 MLOAD PUSH1 0x20 PUSH2 0x3385 DUP4 CODECOPY DUP2 MLOAD SWAP2 MSTORE ADD SWAP1 PUSH2 0x243A JUMP JUMPDEST CODESIZE PUSH2 0x1940 JUMP JUMPDEST PUSH1 0x0 DUP1 MLOAD PUSH1 0x20 PUSH2 0x3385 DUP4 CODECOPY DUP2 MLOAD SWAP2 MSTORE SWAP2 POP PUSH2 0x1A78 JUMP JUMPDEST DUP1 MLOAD DUP1 MLOAD DUP5 SLOAD PUSH1 0x1 PUSH1 0x1 PUSH1 0xA0 SHL SUB NOT AND PUSH1 0x1 PUSH1 0x1 PUSH1 0xA0 SHL SUB SWAP2 SWAP1 SWAP2 AND OR DUP5 SSTORE PUSH1 0x20 ADD MLOAD PUSH1 0x1 DUP5 DUP2 ADD SWAP2 SWAP1 SWAP2 SSTORE SWAP2 PUSH1 0x2 SWAP2 ADD SWAP3 ADD SWAP3 ADD SWAP2 SWAP1 DUP7 SWAP1 PUSH2 0x1920 JUMP JUMPDEST SWAP1 SWAP2 POP PUSH1 0x1 PUSH1 0x1 PUSH1 0xFF SHL SUB DUP2 AND DUP2 SUB PUSH2 0x1B5E JUMPI PUSH1 0x1 PUSH1 0x1 PUSH1 0xFF SHL SUB DUP4 AND DUP4 SUB PUSH2 0x1B5E JUMPI SWAP1 DUP6 SWAP2 PUSH1 0x1 SHL PUSH1 0x0 DUP1 MLOAD PUSH1 0x20 PUSH2 0x3345 DUP4 CODECOPY DUP2 MLOAD SWAP2 MSTORE ADD DUP4 PUSH1 0x1 SHL PUSH1 0x0 DUP1 MLOAD PUSH1 0x20 PUSH2 0x3345 DUP4 CODECOPY DUP2 MLOAD SWAP2 MSTORE ADD JUMPDEST DUP2 DUP2 LT PUSH2 0x1B49 JUMPI POP PUSH2 0x1907 JUMP JUMPDEST DUP11 DUP2 SSTORE PUSH1 0x1 DUP2 ADD DUP12 SWAP1 SSTORE DUP8 SWAP4 POP PUSH1 0x2 ADD PUSH2 0x1B3C JUMP JUMPDEST PUSH4 0x4E487B71 PUSH1 0xE0 SHL DUP10 MSTORE PUSH1 0x11 PUSH1 0x4 MSTORE PUSH1 0x24 DUP10 REVERT JUMPDEST PUSH4 0x4E487B71 PUSH1 0xE0 SHL DUP9 MSTORE PUSH1 0x41 PUSH1 0x4 MSTORE PUSH1 0x24 DUP9 REVERT JUMPDEST DUP2 MLOAD PUSH1 0x1 PUSH1 0x1 PUSH1 0xA0 SHL SUB AND PUSH32 0xC65A7BB8D6351C1CF70C95A316CC6A92839C986682D98BC35F958F4883F9D2A8 DUP3 ADD SSTORE SWAP1 DUP6 ADD SWAP1 PUSH1 0x1 ADD PUSH2 0x18CF JUMP JUMPDEST PUSH2 0x1C0F SWAP1 PUSH32 0xC65A7BB8D6351C1CF70C95A316CC6A92839C986682D98BC35F958F4883F9D2A8 ADD DUP5 PUSH32 0xC65A7BB8D6351C1CF70C95A316CC6A92839C986682D98BC35F958F4883F9D2A8 ADD PUSH2 0x243A JUMP JUMPDEST CODESIZE PUSH2 0x18C7 JUMP JUMPDEST PUSH1 0x40 MLOAD PUSH3 0x461BCD PUSH1 0xE5 SHL DUP2 MSTORE PUSH1 0x20 PUSH1 0x4 DUP3 ADD MSTORE PUSH1 0x13 PUSH1 0x24 DUP3 ADD MSTORE PUSH19 0x105B1C9958591E481A5B9A5D1A585B1A5E9959 PUSH1 0x6A SHL PUSH1 0x44 DUP3 ADD MSTORE PUSH1 0x64 SWAP1 REVERT JUMPDEST DUP9 DUP1 REVERT JUMPDEST DUP8 DUP1 REVERT JUMPDEST DUP7 DUP1 REVERT JUMPDEST DUP6 DUP1 REVERT JUMPDEST DUP5 DUP1 REVERT JUMPDEST DUP4 DUP1 REVERT JUMPDEST POP CALLVALUE PUSH2 0x1F3 JUMPI DUP1 PUSH1 0x3 NOT CALLDATASIZE ADD SLT PUSH2 0x1F3 JUMPI PUSH2 0x1C81 PUSH2 0x28A8 JUMP JUMPDEST SWAP1 PUSH1 0x8 DUP3 LT ISZERO PUSH2 0xAF8 JUMPI PUSH1 0xC0 DUP3 PUSH1 0xFF PUSH1 0x12 SLOAD PUSH1 0x8 SHR AND PUSH1 0x14 SLOAD PUSH4 0xFFFFFFFF PUSH1 0xA SLOAD AND PUSH4 0xFFFFFFFF PUSH1 0x15 SLOAD AND SWAP2 PUSH4 0xFFFFFFFF PUSH1 0x17 SLOAD AND SWAP4 PUSH1 0xFF PUSH1 0x40 MLOAD SWAP7 AND DUP7 MSTORE PUSH1 0x20 DUP7 ADD MSTORE PUSH1 0x40 DUP6 ADD MSTORE PUSH1 0x60 DUP5 ADD MSTORE PUSH1 0x80 DUP4 ADD MSTORE PUSH1 0xA0 DUP3 ADD MSTORE RETURN JUMPDEST POP CALLVALUE PUSH2 0x1F3 JUMPI DUP1 PUSH1 0x3 NOT CALLDATASIZE ADD SLT PUSH2 0x1F3 JUMPI PUSH1 0x20 PUSH2 0x211 PUSH2 0x237C JUMP JUMPDEST POP CALLVALUE PUSH2 0x1F3 JUMPI DUP1 PUSH1 0x3 NOT CALLDATASIZE ADD SLT PUSH2 0x1F3 JUMPI PUSH1 0x20 PUSH1 0xFF PUSH1 0x9 SLOAD AND PUSH1 0x40 MLOAD SWAP1 ISZERO ISZERO DUP2 MSTORE RETURN JUMPDEST POP CALLVALUE PUSH2 0x1F3 JUMPI PUSH1 0x20 CALLDATASIZE PUSH1 0x3 NOT ADD SLT PUSH2 0x1F3 JUMPI PUSH1 0x20 PUSH2 0x1D3D PUSH2 0x1D38 PUSH2 0x1F78 JUMP JUMPDEST PUSH2 0x2270 JUMP JUMPDEST PUSH1 0x40 MLOAD SWAP1 ISZERO ISZERO DUP2 MSTORE RETURN JUMPDEST POP CALLVALUE PUSH2 0x1F3 JUMPI DUP1 PUSH1 0x3 NOT CALLDATASIZE ADD SLT PUSH2 0x1F3 JUMPI PUSH2 0x1D60 PUSH2 0x2886 JUMP JUMPDEST DUP1 SLOAD PUSH1 0x1 PUSH1 0x1 PUSH1 0xA0 SHL SUB AND CALLER EQ DUP1 ISZERO PUSH2 0x1D85 JUMPI JUMPDEST PUSH2 0x1D7D SWAP1 PUSH2 0x2174 JUMP JUMPDEST PUSH2 0x732 PUSH2 0x2DB7 JUMP JUMPDEST POP PUSH1 0x2 SLOAD PUSH1 0x40 MLOAD PUSH4 0xB9181611 PUSH1 0xE0 SHL DUP2 MSTORE CALLER PUSH1 0x4 DUP3 ADD MSTORE SWAP1 PUSH1 0x20 SWAP1 DUP3 SWAP1 PUSH1 0x24 SWAP1 DUP3 SWAP1 PUSH1 0x1 PUSH1 0x1 PUSH1 0xA0 SHL SUB AND GAS STATICCALL DUP1 ISZERO PUSH2 0x496 JUMPI DUP3 SWAP1 PUSH2 0x1DC6 JUMPI JUMPDEST SWAP1 POP PUSH2 0x1D74 JUMP JUMPDEST POP PUSH1 0x20 DUP2 RETURNDATASIZE PUSH1 0x20 GT PUSH2 0x1DF9 JUMPI JUMPDEST DUP2 PUSH2 0x1DE0 PUSH1 0x20 SWAP4 DUP4 PUSH2 0x2145 JUMP JUMPDEST DUP2 ADD SUB SLT PUSH2 0x48A JUMPI PUSH2 0x1DF4 PUSH2 0x1D7D SWAP2 PUSH2 0x2167 JUMP JUMPDEST PUSH2 0x1DBF JUMP JUMPDEST RETURNDATASIZE SWAP2 POP PUSH2 0x1DD3 JUMP JUMPDEST POP CALLVALUE PUSH2 0x1F3 JUMPI DUP1 PUSH1 0x3 NOT CALLDATASIZE ADD SLT PUSH2 0x1F3 JUMPI DUP1 SLOAD PUSH1 0x1 PUSH1 0x1 PUSH1 0xA0 SHL SUB AND CALLER EQ DUP1 ISZERO PUSH2 0x1E57 JUMPI JUMPDEST PUSH2 0x1E2F SWAP1 PUSH2 0x2174 JUMP JUMPDEST PUSH2 0x1E37 PUSH2 0x2886 JUMP JUMPDEST PUSH2 0x1E3F PUSH2 0x28A8 JUMP JUMPDEST PUSH1 0x8 DUP2 LT ISZERO PUSH2 0x3AA JUMPI PUSH1 0x5 SUB PUSH2 0x1F3 JUMPI PUSH2 0x1532 PUSH2 0x29AB JUMP JUMPDEST POP PUSH1 0x2 SLOAD PUSH1 0x40 MLOAD PUSH4 0xB9181611 PUSH1 0xE0 SHL DUP2 MSTORE CALLER PUSH1 0x4 DUP3 ADD MSTORE SWAP1 PUSH1 0x20 SWAP1 DUP3 SWAP1 PUSH1 0x24 SWAP1 DUP3 SWAP1 PUSH1 0x1 PUSH1 0x1 PUSH1 0xA0 SHL SUB AND GAS STATICCALL DUP1 ISZERO PUSH2 0x496 JUMPI DUP3 SWAP1 PUSH2 0x1E98 JUMPI JUMPDEST SWAP1 POP PUSH2 0x1E26 JUMP JUMPDEST POP PUSH1 0x20 DUP2 RETURNDATASIZE PUSH1 0x20 GT PUSH2 0x1ECB JUMPI JUMPDEST DUP2 PUSH2 0x1EB2 PUSH1 0x20 SWAP4 DUP4 PUSH2 0x2145 JUMP JUMPDEST DUP2 ADD SUB SLT PUSH2 0x48A JUMPI PUSH2 0x1EC6 PUSH2 0x1E2F SWAP2 PUSH2 0x2167 JUMP JUMPDEST PUSH2 0x1E91 JUMP JUMPDEST RETURNDATASIZE SWAP2 POP PUSH2 0x1EA5 JUMP JUMPDEST POP CALLVALUE PUSH2 0x1F3 JUMPI PUSH1 0x20 CALLDATASIZE PUSH1 0x3 NOT ADD SLT PUSH2 0x1F3 JUMPI PUSH1 0x20 SWAP1 PUSH1 0xFF SWAP1 PUSH1 0x40 SWAP1 PUSH1 0x1 PUSH1 0x1 PUSH1 0xA0 SHL SUB PUSH2 0x1EFE PUSH2 0x1F78 JUMP JUMPDEST AND DUP2 MSTORE PUSH1 0x3 DUP5 MSTORE KECCAK256 SLOAD AND PUSH1 0x40 MLOAD SWAP1 ISZERO ISZERO DUP2 MSTORE RETURN JUMPDEST POP CALLVALUE PUSH2 0x1F3 JUMPI PUSH1 0x20 CALLDATASIZE PUSH1 0x3 NOT ADD SLT PUSH2 0x1F3 JUMPI PUSH1 0x20 SWAP1 PUSH1 0xFF SWAP1 PUSH1 0x40 SWAP1 PUSH1 0x1 PUSH1 0x1 PUSH1 0xA0 SHL SUB PUSH2 0x1F3D PUSH2 0x1F78 JUMP JUMPDEST AND PUSH2 0x1F49 DUP2 ISZERO ISZERO PUSH2 0x20B8 JUMP JUMPDEST DUP2 MSTORE PUSH1 0x3 DUP5 MSTORE KECCAK256 SLOAD AND PUSH1 0x40 MLOAD SWAP1 ISZERO ISZERO DUP2 MSTORE RETURN JUMPDEST SWAP1 POP CALLVALUE PUSH2 0x48A JUMPI DUP2 PUSH1 0x3 NOT CALLDATASIZE ADD SLT PUSH2 0x48A JUMPI PUSH1 0x20 SWAP1 PUSH1 0x8 SLOAD DUP2 MSTORE RETURN JUMPDEST PUSH1 0x4 CALLDATALOAD SWAP1 PUSH1 0x1 PUSH1 0x1 PUSH1 0xA0 SHL SUB DUP3 AND DUP3 SUB PUSH2 0xC25 JUMPI JUMP JUMPDEST SWAP2 SWAP1 PUSH1 0x20 DUP4 ADD SWAP3 PUSH1 0x8 DUP3 LT ISZERO PUSH2 0xAE2 JUMPI MSTORE JUMP JUMPDEST SWAP1 PUSH1 0x20 DUP1 DUP4 MLOAD SWAP3 DUP4 DUP2 MSTORE ADD SWAP3 ADD SWAP1 PUSH1 0x0 JUMPDEST DUP2 DUP2 LT PUSH2 0x1FBF JUMPI POP POP POP SWAP1 JUMP JUMPDEST DUP3 MLOAD PUSH1 0x1 PUSH1 0x1 PUSH1 0xA0 SHL SUB AND DUP5 MSTORE PUSH1 0x20 SWAP4 DUP5 ADD SWAP4 SWAP1 SWAP3 ADD SWAP2 PUSH1 0x1 ADD PUSH2 0x1FB2 JUMP JUMPDEST SWAP1 PUSH1 0x7 DUP3 LT ISZERO PUSH2 0xAE2 JUMPI MSTORE JUMP JUMPDEST SWAP1 PUSH1 0x20 DUP1 DUP4 MLOAD SWAP3 DUP4 DUP2 MSTORE ADD SWAP3 ADD SWAP1 PUSH1 0x0 JUMPDEST DUP2 DUP2 LT PUSH2 0x2009 JUMPI POP POP POP SWAP1 JUMP JUMPDEST DUP3 MLOAD DUP1 MLOAD PUSH1 0x1 PUSH1 0x1 PUSH1 0xA0 SHL SUB AND DUP6 MSTORE PUSH1 0x20 SWAP1 DUP2 ADD MLOAD DUP2 DUP7 ADD MSTORE PUSH1 0x40 SWAP1 SWAP5 ADD SWAP4 SWAP1 SWAP3 ADD SWAP2 PUSH1 0x1 ADD PUSH2 0x1FFC JUMP JUMPDEST SWAP2 SWAP1 DUP3 MLOAD SWAP3 DUP4 DUP3 MSTORE PUSH1 0x0 JUMPDEST DUP5 DUP2 LT PUSH2 0x2060 JUMPI POP POP DUP3 PUSH1 0x0 PUSH1 0x20 DUP1 SWAP5 SWAP6 DUP5 ADD ADD MSTORE PUSH1 0x1F DUP1 NOT SWAP2 ADD AND ADD ADD SWAP1 JUMP JUMPDEST DUP1 PUSH1 0x20 DUP1 SWAP3 DUP5 ADD ADD MLOAD DUP3 DUP3 DUP7 ADD ADD MSTORE ADD PUSH2 0x203F JUMP JUMPDEST PUSH1 0x20 PUSH1 0x40 DUP2 DUP4 ADD SWAP3 DUP3 DUP2 MSTORE DUP5 MLOAD DUP1 SWAP5 MSTORE ADD SWAP3 ADD SWAP1 PUSH1 0x0 JUMPDEST DUP2 DUP2 LT PUSH2 0x2099 JUMPI POP POP POP SWAP1 JUMP JUMPDEST DUP3 MLOAD PUSH1 0x1 PUSH1 0x1 PUSH1 0xA0 SHL SUB AND DUP5 MSTORE PUSH1 0x20 SWAP4 DUP5 ADD SWAP4 SWAP1 SWAP3 ADD SWAP2 PUSH1 0x1 ADD PUSH2 0x208C JUMP JUMPDEST ISZERO PUSH2 0x20BF JUMPI JUMP JUMPDEST PUSH1 0x40 MLOAD PUSH3 0x461BCD PUSH1 0xE5 SHL DUP2 MSTORE PUSH1 0x20 PUSH1 0x4 DUP3 ADD MSTORE PUSH1 0xF PUSH1 0x24 DUP3 ADD MSTORE PUSH15 0x496E76616C69642061646472657373 PUSH1 0x88 SHL PUSH1 0x44 DUP3 ADD MSTORE PUSH1 0x64 SWAP1 REVERT JUMPDEST PUSH1 0x40 DUP2 ADD SWAP1 DUP2 LT PUSH8 0xFFFFFFFFFFFFFFFF DUP3 GT OR PUSH2 0x2112 JUMPI PUSH1 0x40 MSTORE JUMP JUMPDEST PUSH4 0x4E487B71 PUSH1 0xE0 SHL PUSH1 0x0 MSTORE PUSH1 0x41 PUSH1 0x4 MSTORE PUSH1 0x24 PUSH1 0x0 REVERT JUMPDEST PUSH2 0x220 DUP2 ADD SWAP1 DUP2 LT PUSH8 0xFFFFFFFFFFFFFFFF DUP3 GT OR PUSH2 0x2112 JUMPI PUSH1 0x40 MSTORE JUMP JUMPDEST SWAP1 PUSH1 0x1F DUP1 NOT SWAP2 ADD AND DUP2 ADD SWAP1 DUP2 LT PUSH8 0xFFFFFFFFFFFFFFFF DUP3 GT OR PUSH2 0x2112 JUMPI PUSH1 0x40 MSTORE JUMP JUMPDEST MLOAD SWAP1 DUP2 ISZERO ISZERO DUP3 SUB PUSH2 0xC25 JUMPI JUMP JUMPDEST ISZERO PUSH2 0x217B JUMPI JUMP JUMPDEST PUSH1 0x40 MLOAD PUSH3 0x461BCD PUSH1 0xE5 SHL DUP2 MSTORE PUSH1 0x20 PUSH1 0x4 DUP3 ADD MSTORE PUSH1 0x17 PUSH1 0x24 DUP3 ADD MSTORE PUSH32 0x4E6F74206F776E6572206F7220617574686F72697A6564000000000000000000 PUSH1 0x44 DUP3 ADD MSTORE PUSH1 0x64 SWAP1 REVERT JUMPDEST ISZERO PUSH2 0x21C7 JUMPI JUMP JUMPDEST PUSH1 0x40 MLOAD PUSH3 0x461BCD PUSH1 0xE5 SHL DUP2 MSTORE PUSH1 0x20 PUSH1 0x4 DUP3 ADD MSTORE PUSH1 0x1F PUSH1 0x24 DUP3 ADD MSTORE PUSH32 0x4D697373696F6E206973206E6F7420696E204661696C65642073746174757300 PUSH1 0x44 DUP3 ADD MSTORE PUSH1 0x64 SWAP1 REVERT JUMPDEST PUSH1 0xA SLOAD DUP2 LT ISZERO PUSH2 0x2227 JUMPI PUSH1 0xA PUSH1 0x0 MSTORE PUSH1 0x20 PUSH1 0x0 KECCAK256 ADD SWAP1 PUSH1 0x0 SWAP1 JUMP JUMPDEST PUSH4 0x4E487B71 PUSH1 0xE0 SHL PUSH1 0x0 MSTORE PUSH1 0x32 PUSH1 0x4 MSTORE PUSH1 0x24 PUSH1 0x0 REVERT JUMPDEST PUSH1 0x17 SLOAD DUP2 LT ISZERO PUSH2 0x2227 JUMPI PUSH1 0x17 PUSH1 0x0 MSTORE PUSH1 0x20 PUSH1 0x0 KECCAK256 ADD SWAP1 PUSH1 0x0 SWAP1 JUMP JUMPDEST DUP1 SLOAD DUP3 LT ISZERO PUSH2 0x2227 JUMPI PUSH1 0x0 MSTORE PUSH1 0x20 PUSH1 0x0 KECCAK256 ADD SWAP1 PUSH1 0x0 SWAP1 JUMP JUMPDEST PUSH2 0x2278 PUSH2 0x28A8 JUMP JUMPDEST PUSH1 0x8 DUP2 LT ISZERO PUSH2 0xAE2 JUMPI PUSH1 0x7 PUSH2 0x228D SWAP2 EQ PUSH2 0x21C0 JUMP JUMPDEST PUSH1 0x1 PUSH1 0x1 PUSH1 0xA0 SHL SUB AND PUSH2 0x22A1 DUP2 ISZERO ISZERO PUSH2 0x20B8 JUMP JUMPDEST DUP1 PUSH1 0x0 MSTORE PUSH1 0x3 PUSH1 0x20 MSTORE PUSH1 0xFF PUSH1 0x40 PUSH1 0x0 KECCAK256 SLOAD AND ISZERO PUSH2 0x22FF JUMPI PUSH1 0x17 SLOAD SWAP1 PUSH1 0x0 JUMPDEST DUP3 DUP2 LT PUSH2 0x22CE JUMPI POP POP POP PUSH1 0x0 SWAP1 JUMP JUMPDEST DUP2 PUSH2 0x22D8 DUP3 PUSH2 0x223D JUMP JUMPDEST SWAP1 SLOAD PUSH1 0x3 SWAP2 SWAP1 SWAP2 SHL SHR PUSH1 0x1 PUSH1 0x1 PUSH1 0xA0 SHL SUB AND EQ PUSH2 0x22F7 JUMPI PUSH1 0x1 ADD PUSH2 0x22BF JUMP JUMPDEST POP POP POP PUSH1 0x1 SWAP1 JUMP JUMPDEST PUSH1 0x40 MLOAD PUSH3 0x461BCD PUSH1 0xE5 SHL DUP2 MSTORE PUSH1 0x20 PUSH1 0x4 DUP3 ADD MSTORE PUSH1 0x13 PUSH1 0x24 DUP3 ADD MSTORE PUSH19 0x141B185E595C881B9BDD08195B9C9BDB1B1959 PUSH1 0x6A SHL PUSH1 0x44 DUP3 ADD MSTORE PUSH1 0x64 SWAP1 REVERT JUMPDEST PUSH1 0xFF PUSH1 0x1 SWAP2 AND ADD SWAP1 PUSH1 0xFF DUP3 GT PUSH2 0x234C JUMPI JUMP JUMPDEST PUSH4 0x4E487B71 PUSH1 0xE0 SHL PUSH1 0x0 MSTORE PUSH1 0x11 PUSH1 0x4 MSTORE PUSH1 0x24 PUSH1 0x0 REVERT JUMPDEST SWAP2 SWAP1 DUP3 ADD DUP1 SWAP3 GT PUSH2 0x234C JUMPI JUMP JUMPDEST SWAP2 SWAP1 DUP3 SUB SWAP2 DUP3 GT PUSH2 0x234C JUMPI JUMP JUMPDEST PUSH2 0x2384 PUSH2 0x28A8 JUMP JUMPDEST PUSH1 0x8 DUP2 LT ISZERO PUSH2 0xAE2 JUMPI PUSH1 0x4 SUB PUSH2 0x23D8 JUMPI PUSH1 0x12 SLOAD PUSH1 0xFF DUP1 PUSH2 0x23A8 DUP2 DUP5 PUSH1 0x8 SHR AND PUSH2 0x233A JUMP JUMPDEST SWAP3 AND SWAP2 AND EQ PUSH1 0x0 EQ PUSH2 0x23CD JUMPI PUSH2 0x23CA PUSH1 0x3C PUSH2 0x169E PUSH2 0xFFFF TIMESTAMP SWAP3 AND PUSH1 0x16 SLOAD PUSH2 0x2362 JUMP JUMPDEST SWAP1 JUMP JUMPDEST PUSH2 0x23CA PUSH2 0x12C PUSH2 0x168D JUMP JUMPDEST PUSH1 0x0 SWAP1 JUMP JUMPDEST PUSH8 0xFFFFFFFFFFFFFFFF DUP2 GT PUSH2 0x2112 JUMPI PUSH1 0x5 SHL PUSH1 0x20 ADD SWAP1 JUMP JUMPDEST SWAP1 PUSH2 0x23FF DUP3 PUSH2 0x23DD JUMP JUMPDEST PUSH2 0x240C PUSH1 0x40 MLOAD SWAP2 DUP3 PUSH2 0x2145 JUMP JUMPDEST DUP3 DUP2 MSTORE DUP1 SWAP3 PUSH2 0x241D PUSH1 0x1F NOT SWAP2 PUSH2 0x23DD JUMP JUMPDEST ADD SWAP1 PUSH1 0x20 CALLDATASIZE SWAP2 ADD CALLDATACOPY JUMP JUMPDEST DUP2 DUP2 MUL SWAP3 SWAP2 DUP2 ISZERO SWAP2 DUP5 DIV EQ OR ISZERO PUSH2 0x234C JUMPI JUMP JUMPDEST DUP2 DUP2 LT PUSH2 0x2445 JUMPI POP POP JUMP JUMPDEST PUSH1 0x0 DUP2 SSTORE PUSH1 0x1 ADD PUSH2 0x243A JUMP JUMPDEST SWAP1 PUSH1 0x1 DUP3 DUP2 SHR SWAP3 AND DUP1 ISZERO PUSH2 0x2481 JUMPI JUMPDEST PUSH1 0x20 DUP4 LT EQ PUSH2 0x246B JUMPI JUMP JUMPDEST PUSH4 0x4E487B71 PUSH1 0xE0 SHL PUSH1 0x0 MSTORE PUSH1 0x22 PUSH1 0x4 MSTORE PUSH1 0x24 PUSH1 0x0 REVERT JUMPDEST SWAP2 PUSH1 0x7F AND SWAP2 PUSH2 0x2460 JUMP JUMPDEST DUP2 ISZERO PUSH2 0x2495 JUMPI DIV SWAP1 JUMP JUMPDEST PUSH4 0x4E487B71 PUSH1 0xE0 SHL PUSH1 0x0 MSTORE PUSH1 0x12 PUSH1 0x4 MSTORE PUSH1 0x24 PUSH1 0x0 REVERT JUMPDEST PUSH1 0x15 SLOAD DUP2 LT ISZERO PUSH2 0x2227 JUMPI PUSH1 0x15 PUSH1 0x0 MSTORE PUSH1 0x20 PUSH1 0x0 KECCAK256 SWAP1 PUSH1 0x1 SHL ADD SWAP1 PUSH1 0x0 SWAP1 JUMP JUMPDEST RETURNDATASIZE ISZERO PUSH2 0x2505 JUMPI RETURNDATASIZE SWAP1 PUSH8 0xFFFFFFFFFFFFFFFF DUP3 GT PUSH2 0x2112 JUMPI PUSH1 0x40 MLOAD SWAP2 PUSH2 0x24F9 PUSH1 0x1F DUP3 ADD PUSH1 0x1F NOT AND PUSH1 0x20 ADD DUP5 PUSH2 0x2145 JUMP JUMPDEST DUP3 MSTORE RETURNDATASIZE PUSH1 0x0 PUSH1 0x20 DUP5 ADD RETURNDATACOPY JUMP JUMPDEST PUSH1 0x60 SWAP1 JUMP JUMPDEST PUSH1 0x0 NOT DUP2 EQ PUSH2 0x234C JUMPI PUSH1 0x1 ADD SWAP1 JUMP JUMPDEST DUP1 MLOAD DUP3 LT ISZERO PUSH2 0x2227 JUMPI PUSH1 0x20 SWAP2 PUSH1 0x5 SHL ADD ADD SWAP1 JUMP JUMPDEST PUSH2 0x2535 PUSH2 0x28A8 JUMP JUMPDEST PUSH1 0x8 DUP2 LT ISZERO PUSH2 0xAE2 JUMPI PUSH1 0x3 DUP2 EQ SWAP1 DUP2 ISZERO PUSH2 0x256D JUMPI JUMPDEST POP PUSH2 0x2554 JUMPI PUSH1 0x0 SWAP1 JUMP JUMPDEST PUSH1 0x12 SLOAD PUSH1 0xFF DUP1 DUP3 PUSH1 0x8 SHR AND SWAP2 AND SUB PUSH1 0xFF DUP2 GT PUSH2 0x234C JUMPI SWAP1 JUMP JUMPDEST PUSH1 0x4 SWAP2 POP EQ CODESIZE PUSH2 0x254A JUMP JUMPDEST PUSH1 0xD SLOAD TIMESTAMP GT DUP1 PUSH2 0x2687 JUMPI JUMPDEST ISZERO PUSH2 0x261C JUMPI PUSH1 0x9 SLOAD PUSH1 0xFF DUP2 AND PUSH2 0x25D7 JUMPI PUSH1 0xFF NOT AND PUSH1 0x1 OR PUSH1 0x9 SSTORE PUSH1 0xA SLOAD ISZERO PUSH2 0x25C7 JUMPI PUSH1 0xA SLOAD PUSH1 0xFF PUSH1 0xF SLOAD AND GT PUSH2 0x25B5 JUMPI JUMP JUMPDEST PUSH2 0x25BD PUSH2 0x2A58 JUMP JUMPDEST PUSH2 0x25C5 PUSH2 0x2E89 JUMP JUMPDEST JUMP JUMPDEST PUSH2 0x25CF PUSH2 0x2A58 JUMP JUMPDEST PUSH2 0x25C5 PUSH2 0x2DB7 JUMP JUMPDEST PUSH1 0x40 MLOAD PUSH3 0x461BCD PUSH1 0xE5 SHL DUP2 MSTORE PUSH1 0x20 PUSH1 0x4 DUP3 ADD MSTORE PUSH1 0x1F PUSH1 0x24 DUP3 ADD MSTORE PUSH32 0x416C726561647920636865636B656420737461727420636F6E646974696F6E00 PUSH1 0x44 DUP3 ADD MSTORE PUSH1 0x64 SWAP1 REVERT JUMPDEST PUSH1 0x40 MLOAD PUSH3 0x461BCD PUSH1 0xE5 SHL DUP2 MSTORE PUSH1 0x20 PUSH1 0x4 DUP3 ADD MSTORE PUSH1 0x38 PUSH1 0x24 DUP3 ADD MSTORE PUSH32 0x4D697373696F6E206E6F7420696E2061726D696E672077696E646F772E204361 PUSH1 0x44 DUP3 ADD MSTORE PUSH32 0x6C6C20726566756E64506C617965727320696E73746561640000000000000000 PUSH1 0x64 DUP3 ADD MSTORE PUSH1 0x84 SWAP1 REVERT JUMPDEST POP PUSH1 0x10 SLOAD TIMESTAMP LT PUSH2 0x2583 JUMP JUMPDEST PUSH2 0x269A PUSH2 0x28A8 JUMP JUMPDEST PUSH1 0x8 DUP2 LT ISZERO PUSH2 0xAE2 JUMPI PUSH1 0x3 DUP2 EQ ISZERO SWAP1 DUP2 PUSH2 0x2794 JUMPI JUMPDEST POP PUSH2 0x278E JUMPI PUSH1 0x1 PUSH1 0x1 PUSH1 0xA0 SHL SUB AND PUSH1 0x0 DUP2 DUP2 MSTORE PUSH1 0x3 PUSH1 0x20 MSTORE PUSH1 0x40 SWAP1 KECCAK256 SLOAD PUSH1 0xFF AND ISZERO PUSH2 0x278E JUMPI PUSH1 0x0 MSTORE PUSH1 0x4 PUSH1 0x20 MSTORE PUSH1 0xFF PUSH1 0x40 PUSH1 0x0 KECCAK256 SLOAD AND PUSH2 0x23D8 JUMPI PUSH1 0x10 SLOAD DUP1 TIMESTAMP LT PUSH2 0x278E JUMPI PUSH1 0x11 SLOAD DUP1 TIMESTAMP LT ISZERO PUSH2 0x2787 JUMPI PUSH2 0x2708 DUP3 TIMESTAMP PUSH2 0x236F JUMP JUMPDEST SWAP1 PUSH1 0x64 DUP3 MUL SWAP2 DUP1 DUP4 DIV PUSH1 0x64 EQ SWAP1 ISZERO OR ISZERO PUSH2 0x234C JUMPI PUSH2 0x2729 SWAP3 PUSH2 0x13C6 SWAP2 PUSH2 0x236F JUMP JUMPDEST PUSH1 0x15 SLOAD PUSH1 0x0 DUP2 ISZERO PUSH2 0x277F JUMPI POP PUSH1 0x0 NOT DUP2 ADD SWAP1 DUP2 GT PUSH2 0x234C JUMPI PUSH2 0x274C PUSH1 0x1 SWAP2 PUSH2 0x24AB JUMP JUMPDEST POP ADD SLOAD SWAP1 JUMPDEST PUSH1 0x64 DUP3 MUL SWAP2 DUP1 DUP4 DIV PUSH1 0x64 EQ SWAP1 ISZERO OR ISZERO PUSH2 0x234C JUMPI PUSH1 0x64 SWAP2 PUSH2 0x1421 PUSH2 0x277B SWAP3 PUSH2 0x141B PUSH1 0x13 SLOAD DUP1 SWAP5 PUSH2 0x248B JUMP JUMPDEST DIV SWAP1 JUMP JUMPDEST SWAP1 POP SWAP1 PUSH2 0x2751 JUMP JUMPDEST POP POP PUSH1 0x0 SWAP1 JUMP JUMPDEST POP PUSH1 0x0 SWAP1 JUMP JUMPDEST PUSH1 0x4 SWAP2 POP EQ ISZERO CODESIZE PUSH2 0x26AF JUMP JUMPDEST SWAP2 SWAP1 PUSH1 0x17 SLOAD SWAP1 DUP2 DUP5 LT ISZERO PUSH2 0x2821 JUMPI PUSH2 0x27CC SWAP2 PUSH2 0x27BD DUP6 SWAP3 DUP4 PUSH2 0x2362 JUMP JUMPDEST SWAP1 DUP1 DUP3 GT PUSH2 0x2819 JUMPI JUMPDEST POP PUSH2 0x236F JUMP JUMPDEST PUSH2 0x27D5 DUP2 PUSH2 0x23F5 JUMP JUMPDEST SWAP3 PUSH1 0x0 JUMPDEST DUP3 DUP2 LT PUSH2 0x27E5 JUMPI POP POP POP JUMP JUMPDEST DUP1 PUSH2 0x27FA PUSH2 0x27F5 PUSH1 0x1 SWAP4 DUP6 PUSH2 0x2362 JUMP JUMPDEST PUSH2 0x223D JUMP JUMPDEST DUP4 DUP1 PUSH1 0xA0 SHL SUB SWAP2 SLOAD SWAP1 PUSH1 0x3 SHL SHR AND PUSH2 0x2812 DUP3 DUP9 PUSH2 0x2519 JUMP JUMPDEST MSTORE ADD PUSH2 0x27D9 JUMP JUMPDEST SWAP1 POP CODESIZE PUSH2 0x27C6 JUMP JUMPDEST POP POP SWAP1 POP PUSH1 0x40 MLOAD PUSH2 0x2833 PUSH1 0x20 DUP3 PUSH2 0x2145 JUMP JUMPDEST PUSH1 0x0 DUP2 MSTORE PUSH1 0x0 CALLDATASIZE DUP2 CALLDATACOPY SWAP1 JUMP JUMPDEST PUSH1 0x10 SLOAD DUP1 TIMESTAMP LT PUSH2 0x278E JUMPI PUSH1 0x11 SLOAD DUP1 TIMESTAMP LT ISZERO PUSH2 0x287F JUMPI PUSH2 0x285E DUP3 TIMESTAMP PUSH2 0x236F JUMP JUMPDEST SWAP1 PUSH1 0x64 DUP3 MUL SWAP2 DUP1 DUP4 DIV PUSH1 0x64 EQ SWAP1 ISZERO OR ISZERO PUSH2 0x234C JUMPI PUSH2 0x23CA SWAP3 PUSH2 0x13C6 SWAP2 PUSH2 0x236F JUMP JUMPDEST POP POP PUSH1 0x64 SWAP1 JUMP JUMPDEST PUSH1 0x2 PUSH1 0x1 SLOAD EQ PUSH2 0x2897 JUMPI PUSH1 0x2 PUSH1 0x1 SSTORE JUMP JUMPDEST PUSH4 0x3EE5AEB5 PUSH1 0xE0 SHL PUSH1 0x0 MSTORE PUSH1 0x4 PUSH1 0x0 REVERT JUMPDEST PUSH1 0xFF PUSH1 0x19 SLOAD PUSH1 0x8 SHR AND PUSH1 0x8 DUP2 LT ISZERO PUSH2 0xAE2 JUMPI PUSH1 0x6 DUP2 EQ DUP1 ISZERO PUSH2 0x29A1 JUMPI JUMPDEST PUSH2 0x23CA JUMPI POP PUSH1 0xC SLOAD TIMESTAMP LT PUSH2 0x23D8 JUMPI PUSH1 0xD SLOAD TIMESTAMP GT ISZERO PUSH2 0x299C JUMPI PUSH1 0xA SLOAD PUSH1 0xFF PUSH1 0xF SLOAD AND GT PUSH2 0x2997 JUMPI PUSH1 0x10 SLOAD TIMESTAMP LT PUSH2 0x2992 JUMPI PUSH1 0x11 SLOAD TIMESTAMP LT ISZERO PUSH2 0x2968 JUMPI PUSH1 0x12 SLOAD PUSH1 0xFF DUP1 DUP3 PUSH1 0x8 SHR AND SWAP2 AND DUP1 DUP3 LT ISZERO PUSH2 0x2961 JUMPI PUSH1 0x16 SLOAD SWAP1 DUP2 PUSH2 0x2924 JUMPI POP POP POP PUSH1 0x3 SWAP1 JUMP JUMPDEST PUSH1 0xFF PUSH2 0x2932 PUSH2 0x2945 SWAP5 PUSH2 0x233A JUMP JUMPDEST AND SUB PUSH2 0x2956 JUMPI PUSH2 0xFFFF PUSH1 0x3C JUMPDEST AND SWAP1 PUSH2 0x2362 JUMP JUMPDEST TIMESTAMP LT ISZERO PUSH2 0x2951 JUMPI PUSH1 0x4 SWAP1 JUMP JUMPDEST PUSH1 0x3 SWAP1 JUMP JUMPDEST PUSH2 0xFFFF PUSH2 0x12C PUSH2 0x293E JUMP JUMPDEST POP POP PUSH1 0x6 SWAP1 JUMP JUMPDEST PUSH1 0x12 SLOAD PUSH1 0xFF DUP2 PUSH1 0x8 SHR AND SWAP1 DUP2 ISZERO PUSH2 0x298B JUMPI PUSH1 0xFF AND GT PUSH2 0x2986 JUMPI PUSH1 0x6 SWAP1 JUMP JUMPDEST PUSH1 0x5 SWAP1 JUMP JUMPDEST POP POP PUSH1 0x7 SWAP1 JUMP JUMPDEST PUSH1 0x2 SWAP1 JUMP JUMPDEST PUSH1 0x7 SWAP1 JUMP JUMPDEST PUSH1 0x1 SWAP1 JUMP JUMPDEST POP PUSH1 0x7 DUP2 EQ PUSH2 0x28C5 JUMP JUMPDEST PUSH1 0x2 SLOAD PUSH1 0x0 SWAP1 PUSH1 0x1 PUSH1 0x1 PUSH1 0xA0 SHL SUB AND DUP1 EXTCODESIZE ISZERO PUSH2 0xC25 JUMPI PUSH1 0x40 MLOAD PUSH4 0xD8D6E8FF PUSH1 0xE0 SHL DUP2 MSTORE PUSH1 0x6 PUSH1 0x4 DUP3 ADD MSTORE SWAP1 PUSH1 0x0 SWAP1 DUP3 SWAP1 PUSH1 0x24 SWAP1 DUP3 SWAP1 DUP5 SWAP1 GAS CALL DUP1 ISZERO PUSH2 0x2A4C JUMPI PUSH2 0x2A37 JUMPI JUMPDEST POP DUP1 PUSH2 0xAF8 JUMPI POP PUSH1 0x19 SLOAD PUSH1 0xFF DUP2 PUSH1 0x8 SHR AND SWAP1 PUSH1 0x8 DUP3 LT ISZERO PUSH2 0xAE2 JUMPI PUSH2 0x600 SWAP2 PUSH1 0x6 PUSH1 0x0 SWAP2 PUSH1 0x0 DUP1 MLOAD PUSH1 0x20 PUSH2 0x3365 DUP4 CODECOPY DUP2 MLOAD SWAP2 MSTORE PUSH1 0x20 PUSH1 0x40 MLOAD TIMESTAMP DUP2 MSTORE LOG3 POP PUSH2 0xFF00 NOT AND OR PUSH1 0x19 SSTORE JUMP JUMPDEST PUSH2 0x2A44 SWAP2 POP PUSH1 0x0 SWAP1 PUSH2 0x2145 JUMP JUMPDEST PUSH1 0x0 CODESIZE PUSH2 0x29EF JUMP JUMPDEST PUSH1 0x40 MLOAD RETURNDATASIZE PUSH1 0x0 DUP3 RETURNDATACOPY RETURNDATASIZE SWAP1 REVERT JUMPDEST PUSH1 0x2 SLOAD PUSH1 0x0 SWAP1 PUSH1 0x1 PUSH1 0x1 PUSH1 0xA0 SHL SUB AND DUP1 EXTCODESIZE ISZERO PUSH2 0xC25 JUMPI PUSH1 0x40 MLOAD PUSH4 0xD8D6E8FF PUSH1 0xE0 SHL DUP2 MSTORE PUSH1 0x7 PUSH1 0x4 DUP3 ADD MSTORE SWAP1 PUSH1 0x0 SWAP1 DUP3 SWAP1 PUSH1 0x24 SWAP1 DUP3 SWAP1 DUP5 SWAP1 GAS CALL DUP1 ISZERO PUSH2 0x2A4C JUMPI PUSH2 0x2AE4 JUMPI JUMPDEST POP DUP1 PUSH2 0xAF8 JUMPI POP PUSH1 0x19 SLOAD PUSH1 0xFF DUP2 PUSH1 0x8 SHR AND SWAP1 PUSH1 0x8 DUP3 LT ISZERO PUSH2 0xAE2 JUMPI PUSH2 0x700 SWAP2 PUSH1 0x7 PUSH1 0x0 SWAP2 PUSH1 0x0 DUP1 MLOAD PUSH1 0x20 PUSH2 0x3365 DUP4 CODECOPY DUP2 MLOAD SWAP2 MSTORE PUSH1 0x20 PUSH1 0x40 MLOAD TIMESTAMP DUP2 MSTORE LOG3 POP PUSH2 0xFF00 NOT AND OR PUSH1 0x19 SSTORE JUMP JUMPDEST PUSH2 0x2AF1 SWAP2 POP PUSH1 0x0 SWAP1 PUSH2 0x2145 JUMP JUMPDEST PUSH1 0x0 CODESIZE PUSH2 0x2A9C JUMP JUMPDEST ISZERO PUSH2 0x2B00 JUMPI JUMP JUMPDEST PUSH1 0x40 MLOAD PUSH3 0x461BCD PUSH1 0xE5 SHL DUP2 MSTORE PUSH1 0x20 PUSH1 0x4 DUP3 ADD MSTORE PUSH1 0x14 PUSH1 0x24 DUP3 ADD MSTORE PUSH20 0x4E6F2066756E647320746F207769746864726177 PUSH1 0x60 SHL PUSH1 0x44 DUP3 ADD MSTORE PUSH1 0x64 SWAP1 REVERT JUMPDEST PUSH1 0x0 SWAP1 PUSH2 0x2B47 PUSH2 0x28A8 JUMP JUMPDEST PUSH1 0x8 DUP2 LT ISZERO PUSH2 0x12DF JUMPI PUSH1 0x6 EQ DUP1 ISZERO PUSH2 0x2D9D JUMPI JUMPDEST ISZERO PUSH2 0x48A JUMPI SELFBALANCE SWAP2 PUSH2 0x2B6C DUP4 ISZERO ISZERO PUSH2 0x2AF9 JUMP JUMPDEST PUSH1 0xA SLOAD ISZERO PUSH2 0x2D90 JUMPI JUMPDEST POP PUSH1 0x0 DUP1 DUP2 PUSH1 0xA SLOAD JUMPDEST DUP1 DUP3 LT PUSH2 0x2D57 JUMPI POP POP DUP4 PUSH2 0x2B99 SWAP3 SWAP4 SWAP5 DUP3 GT PUSH2 0x2D4F JUMPI PUSH2 0x236F JUMP JUMPDEST DUP1 ISZERO PUSH2 0x2BA5 DUP2 ISZERO PUSH2 0x2AF9 JUMP JUMPDEST PUSH1 0x19 DUP3 MUL SWAP1 DUP3 DUP3 DIV PUSH1 0x19 EQ OR ISZERO PUSH2 0x2D3B JUMPI PUSH1 0x64 PUSH2 0x2BC4 SWAP2 DIV DUP1 SWAP3 PUSH2 0x236F JUMP JUMPDEST PUSH1 0x2 SLOAD PUSH1 0x40 MLOAD PUSH4 0x8DA5CB5B PUSH1 0xE0 SHL DUP2 MSTORE SWAP2 SWAP4 SWAP2 SWAP1 PUSH1 0x20 SWAP1 DUP3 SWAP1 PUSH1 0x4 SWAP1 DUP3 SWAP1 PUSH1 0x1 PUSH1 0x1 PUSH1 0xA0 SHL SUB AND GAS STATICCALL SWAP1 DUP2 ISZERO PUSH2 0x496 JUMPI DUP3 SWAP2 DUP5 SWAP2 DUP4 SWAP2 PUSH2 0x2CF3 JUMPI JUMPDEST POP DUP3 SWAP2 DUP3 SWAP2 DUP3 SWAP2 SWAP1 PUSH1 0x1 PUSH1 0x1 PUSH1 0xA0 SHL SUB AND GAS CALL PUSH2 0x2C1A PUSH2 0x24CA JUMP JUMPDEST POP ISZERO PUSH2 0x2CB6 JUMPI PUSH1 0x1 DUP1 PUSH1 0xA0 SHL SUB PUSH1 0x2 SLOAD AND PUSH1 0xFF PUSH1 0xB SLOAD AND DUP2 EXTCODESIZE ISZERO PUSH2 0xCF4 JUMPI PUSH2 0x2C5C PUSH1 0x24 DUP5 SWAP3 DUP8 PUSH1 0x40 MLOAD SWAP6 DUP7 SWAP5 DUP6 SWAP4 PUSH4 0xA9BEA789 PUSH1 0xE0 SHL DUP6 MSTORE PUSH1 0x4 DUP6 ADD SWAP1 PUSH2 0x1FDE JUMP JUMPDEST GAS CALL DUP1 ISZERO PUSH2 0x496 JUMPI PUSH2 0x2CA6 JUMPI JUMPDEST POP POP PUSH32 0xD66662C0DED9E58FD31D5E44944BCFD07FFC15E6927ECC1382E7941CB7BD24C4 PUSH1 0x40 DUP1 MLOAD DUP4 DUP2 MSTORE DUP5 PUSH1 0x20 DUP3 ADD MSTORE LOG1 PUSH1 0x7 SSTORE PUSH1 0x8 SSTORE SELFBALANCE PUSH1 0x14 SSTORE JUMP JUMPDEST DUP2 PUSH2 0x2CB0 SWAP2 PUSH2 0x2145 JUMP JUMPDEST CODESIZE PUSH2 0x2C69 JUMP JUMPDEST PUSH1 0x40 MLOAD PUSH3 0x461BCD PUSH1 0xE5 SHL DUP2 MSTORE PUSH1 0x20 PUSH1 0x4 DUP3 ADD MSTORE PUSH1 0x15 PUSH1 0x24 DUP3 ADD MSTORE PUSH21 0x13DDDB995C881D1C985B9CD9995C8819985A5B1959 PUSH1 0x5A SHL PUSH1 0x44 DUP3 ADD MSTORE PUSH1 0x64 SWAP1 REVERT JUMPDEST SWAP3 POP POP POP PUSH1 0x20 DUP2 RETURNDATASIZE PUSH1 0x20 GT PUSH2 0x2D33 JUMPI JUMPDEST DUP2 PUSH2 0x2D10 PUSH1 0x20 SWAP4 DUP4 PUSH2 0x2145 JUMP JUMPDEST DUP2 ADD SUB SLT PUSH2 0x48A JUMPI MLOAD PUSH1 0x1 PUSH1 0x1 PUSH1 0xA0 SHL SUB DUP2 AND DUP2 SUB PUSH2 0x48A JUMPI DUP2 SWAP1 DUP4 SWAP1 DUP3 PUSH2 0x2BFF JUMP JUMPDEST RETURNDATASIZE SWAP2 POP PUSH2 0x2D03 JUMP JUMPDEST PUSH4 0x4E487B71 PUSH1 0xE0 SHL DUP4 MSTORE PUSH1 0x11 PUSH1 0x4 MSTORE PUSH1 0x24 DUP4 REVERT JUMPDEST SWAP1 POP DUP1 PUSH2 0x236F JUMP JUMPDEST SWAP1 SWAP2 PUSH2 0x2D88 PUSH1 0x1 SWAP2 PUSH2 0x2D68 DUP6 PUSH2 0x220C JUMP JUMPDEST DUP5 DUP1 PUSH1 0xA0 SHL SUB SWAP2 SLOAD SWAP1 PUSH1 0x3 SHL SHR AND DUP7 MSTORE PUSH1 0x6 PUSH1 0x20 MSTORE PUSH1 0x40 DUP7 KECCAK256 SLOAD SWAP1 PUSH2 0x2362 JUMP JUMPDEST SWAP3 ADD SWAP1 PUSH2 0x2B7E JUMP JUMPDEST PUSH2 0x2D98 PUSH2 0x2A58 JUMP JUMPDEST PUSH2 0x2B75 JUMP JUMPDEST POP PUSH2 0x2DA6 PUSH2 0x28A8 JUMP JUMPDEST PUSH1 0x8 DUP2 LT ISZERO PUSH2 0x12DF JUMPI PUSH1 0x7 EQ PUSH2 0x2B5A JUMP JUMPDEST PUSH2 0x2DBF PUSH2 0x28A8 JUMP JUMPDEST PUSH1 0x0 SWAP1 PUSH1 0x8 DUP2 LT ISZERO PUSH2 0x3AA JUMPI PUSH1 0x6 EQ DUP1 ISZERO PUSH2 0x2DFF JUMPI JUMPDEST ISZERO PUSH2 0x1F3 JUMPI SELFBALANCE DUP1 ISZERO PUSH2 0x2BA5 DUP2 ISZERO PUSH2 0x2DEB DUP2 PUSH2 0x2AF9 JUMP JUMPDEST PUSH1 0xA SLOAD PUSH2 0x2AF9 JUMPI PUSH2 0x2DFA PUSH2 0x2A58 JUMP JUMPDEST PUSH2 0x2AF9 JUMP JUMPDEST POP PUSH2 0x2E08 PUSH2 0x28A8 JUMP JUMPDEST PUSH1 0x8 DUP2 LT ISZERO PUSH2 0x3AA JUMPI PUSH1 0x7 EQ PUSH2 0x2DD5 JUMP JUMPDEST PUSH1 0x0 DUP1 SLOAD PUSH1 0x1 PUSH1 0x1 PUSH1 0xA0 SHL SUB SWAP3 DUP4 AND PUSH1 0x1 PUSH1 0x1 PUSH1 0xA0 SHL SUB NOT DUP3 AND DUP2 OR DUP4 SSTORE SWAP3 AND SWAP1 PUSH32 0x8BE0079C531659141344CD1FD0A4F28419497F9722A3DAAFE3B4186F6B6457E0 SWAP1 DUP1 LOG3 JUMP JUMPDEST PUSH1 0x0 SLOAD PUSH1 0x1 PUSH1 0x1 PUSH1 0xA0 SHL SUB AND CALLER SUB PUSH2 0x2E74 JUMPI JUMP JUMPDEST PUSH4 0x118CDAA7 PUSH1 0xE0 SHL PUSH1 0x0 MSTORE CALLER PUSH1 0x4 MSTORE PUSH1 0x24 PUSH1 0x0 REVERT JUMPDEST PUSH2 0x2E91 PUSH2 0x28A8 JUMP JUMPDEST SWAP1 PUSH1 0x0 SWAP2 PUSH1 0x8 DUP2 LT ISZERO PUSH2 0x12DF JUMPI PUSH1 0x7 SUB PUSH2 0x32FF JUMPI PUSH1 0xA SLOAD ISZERO PUSH2 0x32C3 JUMPI PUSH1 0x1 SWAP1 DUP3 JUMPDEST PUSH1 0xA SLOAD DUP2 LT ISZERO PUSH2 0x2FFE JUMPI PUSH2 0x2EC5 DUP2 PUSH2 0x220C JUMP JUMPDEST SWAP1 SLOAD PUSH1 0x3 SWAP2 SWAP1 SWAP2 SHL SHR PUSH1 0x1 PUSH1 0x1 PUSH1 0xA0 SHL SUB AND DUP1 DUP6 MSTORE PUSH1 0x5 PUSH1 0x20 MSTORE PUSH1 0x40 DUP6 KECCAK256 SLOAD PUSH1 0xFF AND ISZERO PUSH2 0x2EF6 JUMPI JUMPDEST POP PUSH1 0x1 ADD PUSH2 0x2EB2 JUMP JUMPDEST DUP5 DUP1 DUP1 DUP1 PUSH1 0xE SLOAD DUP6 GAS CALL PUSH2 0x2F08 PUSH2 0x24CA JUMP JUMPDEST POP ISZERO PUSH2 0x2FA9 JUMPI DUP1 DUP6 MSTORE PUSH1 0x5 PUSH1 0x20 MSTORE PUSH1 0x40 DUP6 KECCAK256 DUP1 SLOAD PUSH1 0xFF NOT AND PUSH1 0x1 OR SWAP1 SSTORE PUSH1 0x17 SLOAD PUSH1 0x1 PUSH1 0x40 SHL DUP2 LT ISZERO PUSH2 0x2F95 JUMPI SWAP1 PUSH2 0x2F49 DUP3 PUSH1 0x1 DUP1 SWAP6 SWAP5 ADD PUSH1 0x17 SSTORE PUSH1 0x17 PUSH2 0x2258 JUMP JUMPDEST DUP2 SLOAD SWAP1 PUSH1 0x3 SHL SWAP1 DUP4 DUP3 SHL SWAP2 DUP7 DUP1 PUSH1 0xA0 SHL SUB SWAP1 SHL NOT AND OR SWAP1 SSTORE PUSH32 0x48D31F1C958CD44F1F83A52AE2DFAF61E88A1B82C07A6D5711A4ABEF60B6531E PUSH1 0x20 PUSH1 0xE SLOAD PUSH1 0x40 MLOAD SWAP1 DUP2 MSTORE LOG2 JUMPDEST SWAP1 PUSH2 0x2EED JUMP JUMPDEST PUSH4 0x4E487B71 PUSH1 0xE0 SHL DUP7 MSTORE PUSH1 0x41 PUSH1 0x4 MSTORE PUSH1 0x24 DUP7 REVERT JUMPDEST SWAP1 SWAP3 POP PUSH1 0xE SLOAD DUP2 DUP6 MSTORE PUSH1 0x6 PUSH1 0x20 MSTORE PUSH2 0x2FC6 PUSH1 0x40 DUP7 KECCAK256 SWAP2 DUP3 SLOAD PUSH2 0x2362 JUMP JUMPDEST SWAP1 SSTORE PUSH32 0xAF73B0B217208B61BE286BBC37095BCE7EB8B9CCF617244C2F0F154E8E04E3FF PUSH1 0x20 PUSH1 0xE SLOAD PUSH1 0x40 MLOAD SWAP1 DUP2 MSTORE LOG2 PUSH1 0x1 DUP4 SWAP3 PUSH2 0x2F8F JUMP JUMPDEST POP SWAP2 SWAP1 PUSH2 0x3009 PUSH2 0x2A58 JUMP JUMPDEST SELFBALANCE PUSH2 0x30A8 JUMPI JUMPDEST POP PUSH1 0x17 SLOAD PUSH1 0xE SLOAD SWAP2 PUSH1 0x40 MLOAD SWAP1 DUP3 PUSH1 0x40 DUP4 ADD PUSH1 0x40 DUP5 MSTORE MSTORE PUSH1 0x60 DUP3 ADD SWAP1 PUSH1 0x17 DUP2 MSTORE PUSH32 0xC624B66CC0138B8FABC209247F72D758E1CF3343756D543BADBF24212BED8C15 SWAP1 JUMPDEST DUP5 DUP2 LT PUSH2 0x3089 JUMPI POP POP SWAP1 DUP1 PUSH32 0xBB93C7C839BDDD97272C8E974D54D30ADFA3AA55DF63A52F02B7192EFD361A24 SWAP3 TIMESTAMP PUSH1 0x20 DUP4 ADD MSTORE SUB SWAP1 LOG3 JUMP JUMPDEST DUP2 SLOAD PUSH1 0x1 PUSH1 0x1 PUSH1 0xA0 SHL SUB AND DUP4 MSTORE PUSH1 0x20 SWAP1 SWAP3 ADD SWAP2 PUSH1 0x1 SWAP2 DUP3 ADD SWAP2 ADD PUSH2 0x3051 JUMP JUMPDEST PUSH2 0x30B0 PUSH2 0x28A8 JUMP JUMPDEST PUSH1 0x8 DUP2 LT ISZERO PUSH2 0x12DF JUMPI PUSH1 0x6 EQ DUP1 ISZERO PUSH2 0x32A9 JUMPI JUMPDEST ISZERO PUSH2 0x48A JUMPI SELFBALANCE SWAP1 PUSH2 0x30D5 DUP3 ISZERO ISZERO PUSH2 0x2AF9 JUMP JUMPDEST PUSH1 0xA SLOAD ISZERO PUSH2 0x329C JUMPI JUMPDEST ISZERO PUSH2 0x325B JUMPI JUMPDEST DUP1 ISZERO PUSH2 0x30F0 DUP2 ISZERO PUSH2 0x2AF9 JUMP JUMPDEST PUSH1 0x19 DUP3 MUL SWAP1 DUP3 DUP3 DIV PUSH1 0x19 EQ OR ISZERO PUSH2 0x2D3B JUMPI PUSH1 0x64 PUSH2 0x310F SWAP2 DIV DUP1 SWAP3 PUSH2 0x236F JUMP JUMPDEST PUSH1 0x2 SLOAD PUSH1 0x40 MLOAD PUSH4 0x8DA5CB5B PUSH1 0xE0 SHL DUP2 MSTORE SWAP2 SWAP3 SWAP2 SWAP1 PUSH1 0x20 SWAP1 DUP3 SWAP1 PUSH1 0x4 SWAP1 DUP3 SWAP1 PUSH1 0x1 PUSH1 0x1 PUSH1 0xA0 SHL SUB AND GAS STATICCALL SWAP1 DUP2 ISZERO PUSH2 0x3208 JUMPI DUP5 SWAP2 DUP4 SWAP2 DUP4 SWAP2 PUSH2 0x3213 JUMPI JUMPDEST POP DUP3 SWAP2 DUP3 SWAP2 DUP3 SWAP2 SWAP1 PUSH1 0x1 PUSH1 0x1 PUSH1 0xA0 SHL SUB AND GAS CALL PUSH2 0x3165 PUSH2 0x24CA JUMP JUMPDEST POP ISZERO PUSH2 0x2CB6 JUMPI PUSH1 0x1 DUP1 PUSH1 0xA0 SHL SUB PUSH1 0x2 SLOAD AND PUSH1 0xFF PUSH1 0xB SLOAD AND DUP2 EXTCODESIZE ISZERO PUSH2 0x1C60 JUMPI PUSH2 0x31A7 PUSH1 0x24 DUP7 SWAP3 DUP7 PUSH1 0x40 MLOAD SWAP6 DUP7 SWAP5 DUP6 SWAP4 PUSH4 0xA9BEA789 PUSH1 0xE0 SHL DUP6 MSTORE PUSH1 0x4 DUP6 ADD SWAP1 PUSH2 0x1FDE JUMP JUMPDEST GAS CALL DUP1 ISZERO PUSH2 0x3208 JUMPI PUSH2 0x31F4 JUMPI JUMPDEST POP PUSH32 0xD66662C0DED9E58FD31D5E44944BCFD07FFC15E6927ECC1382E7941CB7BD24C4 PUSH1 0x40 DUP1 MLOAD DUP4 DUP2 MSTORE DUP5 PUSH1 0x20 DUP3 ADD MSTORE LOG1 PUSH1 0x7 SSTORE PUSH1 0x8 SSTORE SELFBALANCE PUSH1 0x14 SSTORE CODESIZE PUSH2 0x300F JUMP JUMPDEST DUP4 PUSH2 0x3201 SWAP2 SWAP5 SWAP3 SWAP5 PUSH2 0x2145 JUMP JUMPDEST SWAP2 CODESIZE PUSH2 0x31B4 JUMP JUMPDEST PUSH1 0x40 MLOAD RETURNDATASIZE DUP7 DUP3 RETURNDATACOPY RETURNDATASIZE SWAP1 REVERT JUMPDEST SWAP3 POP POP POP PUSH1 0x20 DUP2 RETURNDATASIZE PUSH1 0x20 GT PUSH2 0x3253 JUMPI JUMPDEST DUP2 PUSH2 0x3230 PUSH1 0x20 SWAP4 DUP4 PUSH2 0x2145 JUMP JUMPDEST DUP2 ADD SUB SLT PUSH2 0x1C64 JUMPI MLOAD PUSH1 0x1 PUSH1 0x1 PUSH1 0xA0 SHL SUB DUP2 AND DUP2 SUB PUSH2 0x1C64 JUMPI DUP4 SWAP1 DUP3 SWAP1 DUP3 PUSH2 0x314A JUMP JUMPDEST RETURNDATASIZE SWAP2 POP PUSH2 0x3223 JUMP JUMPDEST SWAP2 SWAP1 DUP1 DUP2 PUSH1 0xA SLOAD JUMPDEST DUP1 DUP3 LT PUSH2 0x3283 JUMPI POP POP DUP4 PUSH2 0x327E SWAP3 SWAP4 SWAP5 DUP3 GT PUSH2 0x2D4F JUMPI PUSH2 0x236F JUMP JUMPDEST PUSH2 0x30E4 JUMP JUMPDEST SWAP1 SWAP2 PUSH2 0x3294 PUSH1 0x1 SWAP2 PUSH2 0x2D68 DUP6 PUSH2 0x220C JUMP JUMPDEST SWAP3 ADD SWAP1 PUSH2 0x3263 JUMP JUMPDEST PUSH2 0x32A4 PUSH2 0x2A58 JUMP JUMPDEST PUSH2 0x30DE JUMP JUMPDEST POP PUSH2 0x32B2 PUSH2 0x28A8 JUMP JUMPDEST PUSH1 0x8 DUP2 LT ISZERO PUSH2 0x12DF JUMPI PUSH1 0x7 EQ PUSH2 0x30C3 JUMP JUMPDEST PUSH1 0x40 MLOAD PUSH3 0x461BCD PUSH1 0xE5 SHL DUP2 MSTORE PUSH1 0x20 PUSH1 0x4 DUP3 ADD MSTORE PUSH1 0x14 PUSH1 0x24 DUP3 ADD MSTORE PUSH20 0x139BC81C1B185E595C9CC81D1BC81C99599D5B99 PUSH1 0x62 SHL PUSH1 0x44 DUP3 ADD MSTORE PUSH1 0x64 SWAP1 REVERT JUMPDEST PUSH1 0x40 MLOAD PUSH3 0x461BCD PUSH1 0xE5 SHL DUP2 MSTORE PUSH1 0x20 PUSH1 0x4 DUP3 ADD MSTORE PUSH1 0x1C PUSH1 0x24 DUP3 ADD MSTORE PUSH32 0x4D697373696F6E206E6F7420696E204661696C65642073746174757300000000 PUSH1 0x44 DUP3 ADD MSTORE PUSH1 0x64 SWAP1 REVERT INVALID SSTORE DELEGATECALL BASEFEE REVERT 0xEA SWAP9 0xC4 0xD2 SWAP15 0xB3 BLOCKHASH PUSH22 0x7EF0A66CD03DBB9538908A6A81D96026B71EC47539BA PUSH3 0x8632D4 DUP13 GASLIMIT 0xC7 CREATE2 PUSH3 0xC07DB2 EXP PREVRANDAO 0xCF PUSH9 0x423691D5D79B20F87B 0xA8 COINBASE CODESIZE 0xAE 0xDF 0xB1 RETURNDATASIZE 0x2D PUSH23 0xD1F4B7BE834882E410B3E3A8AFAF69F83600AE24DB3543 SWAP2 0xD2 CALLDATACOPY DUP14 0x2E LOG2 PUSH5 0x6970667358 0x22 SLT KECCAK256 TIMESTAMP CODECOPY 0xC0 0xCF RETF PC 0x2F DUP8 PUSH13 0x3F3C6B070A9DF3C355CB718320 CHAINID 0xCD RETURNDATACOPY 0xD8 0xC3 CHAINID 0x28 0xB3 0xB3 DUP4 PUSH5 0x736F6C6343 STOP ADDMOD 0x1E STOP CALLER "},"methodIdentifiers":{"callRound()":"7475a4cb","checkMissionStartCondition()":"ad1ca6bf","currentProgressPct()":"fb84e12f","enrollPlayer()":"987c543a","enrolled(address)":"10eb0e0e","factoryShare()":"003e16a5","failedRefundAmounts(address)":"b2a4a5d2","forceFinalizeMission()":"12124848","getFailedRefundPlayers()":"7cf61b69","getIndexerSnapshot()":"57985d10","getMissionData()":"7ce17de4","getPlayerCount()":"c2e52206","getRealtimeStatus()":"68c6ba21","getRefundedPlayersSlice(uint256,uint256)":"faf9175d","getWinners()":"df15c37e","hasWon(address)":"a52b2b88","increasePot()":"eb2bab77","initialize(address,address,uint8,uint256,uint256,uint256,uint8,uint8,uint256,uint256,uint8,string)":"5e83e15c","isArming()":"dd1121f6","isFinalized()":"8d4e4083","isPlayer(address)":"09c95e10","missionFactory()":"fa4cf5a1","missionStartConditionChecked()":"293c2213","owner()":"8da5cb5b","ownerShare()":"8f1c3151","pendingPayout(address)":"e6810a50","playerState(address)":"fcca0c84","refundPlayers()":"98bdae43","refunded(address)":"c033a490","remainingRounds()":"a7e22a3e","renounceOwnership()":"715018a6","secondsUntilNextRound()":"5407441f","transferOwnership(address)":"f2fde38b","wasRefunded(address)":"268b2b51","withdrawFunds()":"24600fc3"}}}}}