{"contracts/MissionFactory.sol":{"Mission":{"abi":[{"inputs":[],"stateMutability":"nonpayable","type":"constructor"},{"inputs":[],"name":"AllRoundsDone","type":"error"},{"inputs":[],"name":"AlreadyJoined","type":"error"},{"inputs":[],"name":"AlreadyWon","type":"error"},{"inputs":[{"internalType":"uint256","name":"secondsLeft","type":"uint256"}],"name":"Cooldown","type":"error"},{"inputs":[{"internalType":"uint256","name":"nowTs","type":"uint256"},{"internalType":"uint256","name":"endTs","type":"uint256"}],"name":"EnrollmentClosed","type":"error"},{"inputs":[{"internalType":"uint256","name":"nowTs","type":"uint256"},{"internalType":"uint256","name":"startTs","type":"uint256"}],"name":"EnrollmentNotStarted","type":"error"},{"inputs":[{"internalType":"uint8","name":"maxPlayers","type":"uint8"}],"name":"MaxPlayers","type":"error"},{"inputs":[{"internalType":"uint256","name":"secondsLeft","type":"uint256"}],"name":"MonthlyLimit","type":"error"},{"inputs":[{"internalType":"uint256","name":"nowTs","type":"uint256"},{"internalType":"uint256","name":"missionStart","type":"uint256"}],"name":"NotActive","type":"error"},{"inputs":[],"name":"NotJoined","type":"error"},{"inputs":[{"internalType":"address","name":"owner","type":"address"}],"name":"OwnableInvalidOwner","type":"error"},{"inputs":[{"internalType":"address","name":"account","type":"address"}],"name":"OwnableUnauthorizedAccount","type":"error"},{"inputs":[{"internalType":"address","name":"winner","type":"address"},{"internalType":"uint256","name":"amount","type":"uint256"},{"internalType":"bytes","name":"data","type":"bytes"}],"name":"PayoutFailed","type":"error"},{"inputs":[],"name":"ReentrancyGuardReentrantCall","type":"error"},{"inputs":[{"internalType":"uint256","name":"secondsLeft","type":"uint256"}],"name":"WeeklyLimit","type":"error"},{"inputs":[{"internalType":"uint256","name":"expected","type":"uint256"},{"internalType":"uint256","name":"sent","type":"uint256"}],"name":"WrongEntryFee","type":"error"},{"anonymous":false,"inputs":[{"indexed":false,"internalType":"uint256","name":"ownerAmount","type":"uint256"},{"indexed":false,"internalType":"uint256","name":"factoryAmount","type":"uint256"}],"name":"FundsWithdrawn","type":"event"},{"anonymous":false,"inputs":[{"indexed":true,"internalType":"address","name":"owner","type":"address"},{"indexed":true,"internalType":"enum MissionType","name":"missionType","type":"uint8"},{"indexed":false,"internalType":"uint256","name":"timestamp","type":"uint256"}],"name":"MissionInitialized","type":"event"},{"anonymous":false,"inputs":[{"indexed":true,"internalType":"uint256","name":"nrOfPlayers","type":"uint256"},{"indexed":true,"internalType":"uint256","name":"amount","type":"uint256"},{"indexed":true,"internalType":"address[]","name":"player","type":"address[]"},{"indexed":false,"internalType":"uint256","name":"timestamp","type":"uint256"}],"name":"MissionRefunded","type":"event"},{"anonymous":false,"inputs":[{"indexed":true,"internalType":"enum Status","name":"previousStatus","type":"uint8"},{"indexed":true,"internalType":"enum Status","name":"newStatus","type":"uint8"},{"indexed":false,"internalType":"uint256","name":"timestamp","type":"uint256"}],"name":"MissionStatusChanged","type":"event"},{"anonymous":false,"inputs":[{"indexed":true,"internalType":"address","name":"previousOwner","type":"address"},{"indexed":true,"internalType":"address","name":"newOwner","type":"address"}],"name":"OwnershipTransferred","type":"event"},{"anonymous":false,"inputs":[{"indexed":true,"internalType":"address","name":"player","type":"address"},{"indexed":false,"internalType":"uint256","name":"amount","type":"uint256"},{"indexed":false,"internalType":"uint256","name":"totalPlayers","type":"uint256"}],"name":"PlayerEnrolled","type":"event"},{"anonymous":false,"inputs":[{"indexed":true,"internalType":"address","name":"player","type":"address"},{"indexed":false,"internalType":"uint256","name":"amount","type":"uint256"}],"name":"PlayerRefunded","type":"event"},{"anonymous":false,"inputs":[{"indexed":false,"internalType":"uint256","name":"value","type":"uint256"},{"indexed":false,"internalType":"uint256","name":"ethCurrent","type":"uint256"}],"name":"PotIncreased","type":"event"},{"anonymous":false,"inputs":[{"indexed":true,"internalType":"address","name":"player","type":"address"},{"indexed":false,"internalType":"uint256","name":"amount","type":"uint256"}],"name":"RefundFailed","type":"event"},{"anonymous":false,"inputs":[{"indexed":true,"internalType":"address","name":"player","type":"address"},{"indexed":true,"internalType":"uint8","name":"roundNumber","type":"uint8"},{"indexed":false,"internalType":"uint256","name":"payout","type":"uint256"},{"indexed":false,"internalType":"uint256","name":"ethRemaining","type":"uint256"}],"name":"RoundCalled","type":"event"},{"inputs":[],"name":"callRound","outputs":[],"stateMutability":"nonpayable","type":"function"},{"inputs":[],"name":"checkMissionStartCondition","outputs":[],"stateMutability":"nonpayable","type":"function"},{"inputs":[],"name":"currentProgressPct","outputs":[{"internalType":"uint256","name":"","type":"uint256"}],"stateMutability":"view","type":"function"},{"inputs":[],"name":"enrollPlayer","outputs":[],"stateMutability":"payable","type":"function"},{"inputs":[{"internalType":"address","name":"","type":"address"}],"name":"enrolled","outputs":[{"internalType":"bool","name":"","type":"bool"}],"stateMutability":"view","type":"function"},{"inputs":[],"name":"factoryShare","outputs":[{"internalType":"uint256","name":"","type":"uint256"}],"stateMutability":"view","type":"function"},{"inputs":[{"internalType":"address","name":"","type":"address"}],"name":"failedRefundAmounts","outputs":[{"internalType":"uint256","name":"","type":"uint256"}],"stateMutability":"view","type":"function"},{"inputs":[],"name":"forceFinalizeMission","outputs":[],"stateMutability":"nonpayable","type":"function"},{"inputs":[],"name":"getFailedRefundPlayers","outputs":[{"internalType":"address[]","name":"","type":"address[]"}],"stateMutability":"view","type":"function"},{"inputs":[],"name":"getMissionData","outputs":[{"components":[{"internalType":"address[]","name":"players","type":"address[]"},{"internalType":"enum MissionType","name":"missionType","type":"uint8"},{"internalType":"uint256","name":"enrollmentStart","type":"uint256"},{"internalType":"uint256","name":"enrollmentEnd","type":"uint256"},{"internalType":"uint256","name":"enrollmentAmount","type":"uint256"},{"internalType":"uint8","name":"enrollmentMinPlayers","type":"uint8"},{"internalType":"uint8","name":"enrollmentMaxPlayers","type":"uint8"},{"internalType":"uint256","name":"missionStart","type":"uint256"},{"internalType":"uint256","name":"missionEnd","type":"uint256"},{"internalType":"uint8","name":"missionRounds","type":"uint8"},{"internalType":"uint8","name":"roundCount","type":"uint8"},{"internalType":"uint256","name":"ethStart","type":"uint256"},{"internalType":"uint256","name":"ethCurrent","type":"uint256"},{"components":[{"internalType":"address","name":"player","type":"address"},{"internalType":"uint256","name":"amountWon","type":"uint256"}],"internalType":"struct Mission.PlayersWon[]","name":"playersWon","type":"tuple[]"},{"internalType":"uint256","name":"pauseTimestamp","type":"uint256"},{"internalType":"address[]","name":"refundedPlayers","type":"address[]"}],"internalType":"struct Mission.MissionData","name":"","type":"tuple"}],"stateMutability":"view","type":"function"},{"inputs":[],"name":"getRealtimeStatus","outputs":[{"internalType":"enum Status","name":"","type":"uint8"}],"stateMutability":"view","type":"function"},{"inputs":[{"internalType":"address","name":"","type":"address"}],"name":"hasWon","outputs":[{"internalType":"bool","name":"","type":"bool"}],"stateMutability":"view","type":"function"},{"inputs":[],"name":"increasePot","outputs":[],"stateMutability":"payable","type":"function"},{"inputs":[{"internalType":"address","name":"_owner","type":"address"},{"internalType":"address","name":"_missionFactory","type":"address"},{"internalType":"enum MissionType","name":"_missionType","type":"uint8"},{"internalType":"uint256","name":"_enrollmentStart","type":"uint256"},{"internalType":"uint256","name":"_enrollmentEnd","type":"uint256"},{"internalType":"uint256","name":"_enrollmentAmount","type":"uint256"},{"internalType":"uint8","name":"_enrollmentMinPlayers","type":"uint8"},{"internalType":"uint8","name":"_enrollmentMaxPlayers","type":"uint8"},{"internalType":"uint256","name":"_missionStart","type":"uint256"},{"internalType":"uint256","name":"_missionEnd","type":"uint256"},{"internalType":"uint8","name":"_missionRounds","type":"uint8"}],"name":"initialize","outputs":[],"stateMutability":"payable","type":"function"},{"inputs":[],"name":"missionFactory","outputs":[{"internalType":"contract MissionFactory","name":"","type":"address"}],"stateMutability":"view","type":"function"},{"inputs":[],"name":"owner","outputs":[{"internalType":"address","name":"","type":"address"}],"stateMutability":"view","type":"function"},{"inputs":[],"name":"ownerShare","outputs":[{"internalType":"uint256","name":"","type":"uint256"}],"stateMutability":"view","type":"function"},{"inputs":[{"internalType":"address","name":"player","type":"address"}],"name":"pendingPayout","outputs":[{"internalType":"uint256","name":"","type":"uint256"}],"stateMutability":"view","type":"function"},{"inputs":[{"internalType":"address","name":"player","type":"address"}],"name":"playerState","outputs":[{"internalType":"bool","name":"joined","type":"bool"},{"internalType":"bool","name":"won","type":"bool"}],"stateMutability":"view","type":"function"},{"inputs":[],"name":"refundPlayers","outputs":[],"stateMutability":"nonpayable","type":"function"},{"inputs":[{"internalType":"address","name":"","type":"address"}],"name":"refunded","outputs":[{"internalType":"bool","name":"","type":"bool"}],"stateMutability":"view","type":"function"},{"inputs":[],"name":"remainingRounds","outputs":[{"internalType":"uint8","name":"","type":"uint8"}],"stateMutability":"view","type":"function"},{"inputs":[],"name":"renounceOwnership","outputs":[],"stateMutability":"nonpayable","type":"function"},{"inputs":[],"name":"secondsUntilNextRound","outputs":[{"internalType":"uint256","name":"","type":"uint256"}],"stateMutability":"view","type":"function"},{"inputs":[{"internalType":"address","name":"newOwner","type":"address"}],"name":"transferOwnership","outputs":[],"stateMutability":"nonpayable","type":"function"},{"inputs":[],"name":"withdrawFunds","outputs":[],"stateMutability":"nonpayable","type":"function"}],"evm":{"bytecode":{"linkReferences":{},"object":"60808060405234607957331560635760008054336001600160a01b0319821681178355916001600160a01b03909116907f8be0079c531659141344cd1fd0a4f28419497f9722a3daafe3b4186f6b6457e09080a360018055612caf908161007f8239f35b631e4fbdf760e01b600052600060045260246000fd5b600080fdfe608080604052600436101561001357600080fd5b600090813560e01c9081623e16a514611dbd5750806310eb0e0e14611d7e5780631212484814611c4d57806324600fc31461197f5780635407441f1461196457806368c6ba211461193c578063715018a6146118e25780637475a4cb146115155780637ce17de4146111935780637cf61b6914610fc45780638da5cb5b14610f9d5780638f1c315114610f7f578063987c543a14610afb57806398bdae4314610a41578063a52b2b8814610a02578063a7e22a3e146109dc578063ad1ca6bf14610879578063b2a4a5d214610840578063c033a49014610801578063c54168b31461045b578063e6810a5014610437578063eb2bab7714610230578063f2fde38b146101df578063fa4cf5a1146101b6578063fb84e12f146101935763fcca0c841461013e57600080fd5b346101905760203660031901126101905760409060ff826001600160a01b03610165611dd9565b1692838152600360205282828220541693815260046020522054168251911515825215156020820152f35b80fd5b503461019057806003193601126101905760206101ae612214565b604051908152f35b50346101905780600319360112610190576002546040516001600160a01b039091168152602090f35b5034610190576020366003190112610190576101f9611dd9565b610201612737565b6001600160a01b0381161561021c5761021990612760565b80f35b631e4fbdf760e01b82526004829052602482fd5b50806003193601126101905734156104025760018060a01b0360025416803314908115610383575b508015610370575b1561031f5761026d61227d565b600881101561030b57600410156102cf5761028a34601254611f3e565b6012557f7272b264c9ef2a1e8e9303944736f4977b14a5761227b7b9869fecaa60f8938760406102bc34601354611f3e565b806013558151903482526020820152a180f35b60405162461bcd60e51b81526020600482015260146024820152734d697373696f6e207374696c6c2061637469766560601b6044820152606490fd5b634e487b7160e01b82526021600452602482fd5b60405162461bcd60e51b815260206004820152602360248201527f4f6e6c7920666163746f7279206f7220617574686f72697a65642063616e20666044820152621d5b9960ea1b6064820152608490fd5b5080546001600160a01b03163314610260565b60405163b918161160e01b81523360048201529150602090829060249082905afa9081156103f75782916103b9575b5038610258565b90506020813d6020116103ef575b816103d460209383611e9b565b810103126103eb576103e590611ebd565b386103b2565b5080fd5b3d91506103c7565b6040513d84823e3d90fd5b60405162461bcd60e51b815260206004820152600d60248201526c139bc8199d5b991cc81cd95b9d609a1b6044820152606490fd5b50346101905760203660031901126101905760206101ae610456611dd9565b612106565b5061016036600319011261019057610471611dd9565b6024356001600160a01b03811691908290036107fd576044359160078310156107f95760c43560ff81168091036107f55760e4359060ff821682036107f157610144359260ff84168094036107ed576104c861225b565b60175460ff81166107b25760ff19166001176017556104e685612760565b6bffffffffffffffffffffffff60a01b600254161760025560ff19600a541660ff861617600a55606435600b55608435600c5560a435600d5561ff00600e549260081b169161ffff19161717600e5561010435600f556101243560105561ffff196011541617601155346012553460135582601555602060405161056a8282611e9b565b848152600036813780519067ffffffffffffffff821161070257600160401b821161070257829060095483600955808410610751575b500160098652855b828110610716575050506040516105bf8282611e9b565b8481528490600160401b82116107025782906014548360145580841061067e575b500160148652600080516020612c5a83398151915286915b8383106106415750506040514281526001600160a01b03909416937fe9597995b7a2af444cc28b2b776b88b1253d701282a9bcf902d4f59750df7c579392509050a36001805580f35b8051805183546001600160a01b0319166001600160a01b0391909116178355602001516001838101919091559060029086019201920191906105f8565b9091506001600160ff1b03811681036106ee576001600160ff1b03831683036106ee5790839160011b600080516020612c5a833981519152018360011b600080516020612c5a833981519152015b8181106106d957506105e0565b888155600181018990558593506002016106cc565b634e487b7160e01b87526011600452602487fd5b634e487b7160e01b86526041600452602486fd5b81516001600160a01b03167f6e1540171b6c0c960b71a7020d9f60077f6af931a8bbf590da0223dacf75c7af820155908301906001016105a8565b7f6e1540171b6c0c960b71a7020d9f60077f6af931a8bbf590da0223dacf75c7af01837f6e1540171b6c0c960b71a7020d9f60077f6af931a8bbf590da0223dacf75c7af015b8181106107a457506105a0565b888155859350600101610797565b60405162461bcd60e51b8152602060048201526013602482015272105b1c9958591e481a5b9a5d1a585b1a5e9959606a1b6044820152606490fd5b8680fd5b8580fd5b8480fd5b8380fd5b8280fd5b50346101905760203660031901126101905760209060ff906040906001600160a01b0361082c611dd9565b168152600584522054166040519015158152f35b5034610190576020366003190112610190576020906040906001600160a01b03610868611dd9565b168152600683522054604051908152f35b503461019057806003193601126101905761089261225b565b80546001600160a01b031633148015610960575b6108af90611eca565b600c54421180610955575b156108ea5760095460ff600e5416116108d5575b6001805580f35b6108dd61242d565b6108e56127a7565b6108ce565b60405162461bcd60e51b815260206004820152603860248201527f4d697373696f6e206e6f7420696e2061726d696e672077696e646f772e20436160448201527f6c6c20726566756e64506c617965727320696e737465616400000000000000006064820152608490fd5b50600f5442106108ba565b5060025460405163b918161160e01b815233600482015290602090829060249082906001600160a01b03165afa80156103f75782906109a1575b90506108a6565b506020813d6020116109d4575b816109bb60209383611e9b565b810103126103eb576109cf6108af91611ebd565b61099a565b3d91506109ae565b503461019057806003193601126101905760206109f76120bb565b60ff60405191168152f35b50346101905760203660031901126101905760209060ff906040906001600160a01b03610a2d611dd9565b168152600484522054166040519015158152f35b5034610190578060031936011261019057610a5a61225b565b80546001600160a01b031633148015610a7f575b610a7790611eca565b6108ce6127a7565b5060025460405163b918161160e01b815233600482015290602090829060249082906001600160a01b03165afa80156103f7578290610ac0575b9050610a6e565b506020813d602011610af3575b81610ada60209383611e9b565b810103126103eb57610aee610a7791611ebd565b610ab9565b3d9150610acd565b508060031936011261019057610b0f61225b565b600b54804210610f695750600c54804211610f53575060095460ff600e5460081c1680911015610f415750600d54803403610f2b5750338152600360205260ff604082205416610f1d5760025460408051634c0252c360e11b81523360048201526001600160a01b0390921692919081602481865afa9081156103f75782908392610ed3575b5015610dcb5750600954600160401b811015610db757806001610bbd92016009556009612094565b81549060031b9033821b9160018060a01b03901b1916179055338152600360205260408120600160ff19825416179055610bf934601254611f3e565b601255610c0834601354611f3e565b60135580600181610daa575b8015610d9d575b8015610d90575b610d2d575b610d195760175460ff8160081c16906008821015610d0357610100906001600093600080516020612c3a8339815191526020604051428152a361ff0019161760175560025481906001600160a01b0316803b15610d005781809160246040518095819363c17f9e5960e01b83523360048401525af18015610cf357610ce3575b6009546040519034825260208201527fbedd10d90b8962eb521114c7e2b49019403d371ffa1e46afbda7a3f1fde8f06f60403392a26001805580f35b610cec91611e9b565b8181610ca7565b50604051903d90823e3d90fd5b50fd5b634e487b7160e01b600052602160045260246000fd5b634e487b7160e01b81526021600452602490fd5b506002546001600160a01b0316803b156103eb5760405163d8d6e8ff60e01b815260016004820152829182908290602490829084905af19081156103f7578291610d79575b5050610c27565b81610d8391611e9b565b610d8e578083610d72565bfd5b50610d1957806000610c22565b50610d1957806000610c1b565b50610d1957806000610c14565b634e487b7160e01b82526041600452602482fd5b6024926003821015610ec057602091600103610e53576040516377f855c960e11b815233600482015293849182905afa8015610cf3578190610e1b575b631b62787960e31b825260045260249150fd5b506020823d602011610e4b575b81610e3560209383611e9b565b81010312610e465760249151610e08565b600080fd5b3d9150610e28565b604051631b8093b160e11b815233600482015293849182905afa8015610cf3578190610e8d575b63147ce66f60e31b825260045260249150fd5b506020823d602011610eb8575b81610ea760209383611e9b565b81010312610e465760249151610e7a565b3d9150610e9a565b5050634e487b7160e01b81526021600452fd5b9150506040813d604011610f15575b81610eef60409383611e9b565b810103126103eb576020610f0282611ebd565b9101519060038210156107fd5738610b95565b3d9150610ee2565b621d934160e11b8152600490fd5b6354d7a6b360e01b825260045234602452604490fd5b63647bcfa160e01b8252600452602490fd5b63166450c960e31b825242600452602452604490fd5b634cd01efb60e11b825242600452602452604490fd5b50346101905780600319360112610190576020600754604051908152f35b5034610190578060031936011261019057546040516001600160a01b039091168152602090f35b5034610190578060031936011261019057610fdd61227d565b600881101561030b5760070361114e5760095481805b828110611106575061101d61100782612061565b916110156040519384611e9b565b808352612061565b602082019290601f190136843783845b8281106110825750505090604051928392602084019060208552518091526040840192915b818110611060575050500390f35b82516001600160a01b0316845285945060209384019390920191600101611052565b61108b81612079565b905460039190911b1c6001600160a01b03168652600660205260408620546110b6575b60010161102d565b6110bf81612079565b905460039190911b1c6001600160a01b03166110da836120ac565b9285518110156110f25760051b8501602001526110ae565b634e487b7160e01b88526032600452602488fd5b61110f81612079565b905460039190911b1c6001600160a01b031684526006602052604084205461113a575b600101610ff3565b906111466001916120ac565b919050611132565b60405162461bcd60e51b815260206004820152601f60248201527f4d697373696f6e206973206e6f7420696e204661696c656420737461747573006044820152606490fd5b503461019057806003193601126101905760606101e06040516111b581611e7e565b82815283602082015283604082015283838201528360808201528360a08201528360c08201528360e08201528361010082015283610120820152836101408201528361016082015283610180820152826101a0820152836101c0820152015260405161122081611e7e565b6040516009548082528160208101600986526020862092865b8181106114f357505061124e92500382611e9b565b815260ff600a541660078110156114df576020820152600b546040820152600c546060820152600d54608082015260ff600e5481811660a084015260081c1660c0820152600f5460e082015260105461010082015260ff60115481811661012084015260081c166101408201526012546101608201526013546101808201526014546112d981612061565b906112e76040519283611e9b565b8082526014845283600080516020612c5a833981519152602084015b8383106114ab57505050506101a08201526015546101c08201526040516016548082528160208101601686526020862092865b81811061148957505061134b92500382611e9b565b6101e0820152604051906020825261137181516102006020850152610220840190611e02565b9261138460208301516040850190611e3f565b6040820151606084015260608201516080840152608082015160a084015260ff60a08301511660c084015260ff60c08301511660e084015260e082015161010084015261010082015161012084015260ff6101208301511661014084015260ff610140830151166101608401526101608201516101808401526101808201516101a08401526101a082015193601f19848203016101c0850152602080865192838152019501915b81811061145e57848061145a886101e0886101c0810151828601520151601f1984830301610200850152611e02565b0390f35b825180516001600160a01b03168752602090810151818801526040909601959092019160010161142b565b84546001600160a01b0316835260019485019486945060209093019201611336565b600260206001926040516114be81611e4c565b848060a01b0386541681528486015483820152815201920192019190611303565b634e487b7160e01b83526021600452602483fd5b84546001600160a01b0316835260019485019486945060209093019201611239565b503461019057806003193601126101905761152e61225b565b61153661227d565b600881101561030b5760048114611886576002190161186d57338152600460205260ff60408220541661185e57338152600360205260ff6040822054161561184f5760115460ff8160081c169060ff811682101561184057600f5461159b8142611f4b565b9060648202918083046064149015171561182457906115bf6115c592601054611f4b565b90611fcc565b6014548015611838576000198101908111611824576115e5600191611fec565b500154905b6064820291808304606414901517156118245760649161161a61161f926116146012548094611fcc565b90611f4b565b611fb9565b049161162d83601354611f4b565b60135560ff811461181057600161ff00910160081b169061ff00191617601155338252600460205260408220600160ff1982541617905560405161167081611e4c565b338152816020820152601454600160401b8110156117fc578060016116989201601455611fec565b6117e857815181546001600160a01b0319166001600160a01b03919091161781556020909101516001909101558180808084335af16116d5612021565b9015611781575060ff601154818160081c16809360135460405191825260208201527fbbdd894f5e6d754c18172761a1a461095c26de58905e706a8c33657573d4067260403392a316036117335761172b612380565b6108ce612511565b80610d19575060004260155560175460ff8160081c169060088210156114df5782600461040093600080516020612c3a8339815191526020604051428152a35061ff001916176017556108ce565b9060405192839163d086db4360e01b8352336004840152602483015260606044830152825192836064840152815b8481106117d057505091608492838284010152601f80199101168101030190fd5b602082820181015160848884010152869450016117af565b634e487b7160e01b84526004849052602484fd5b634e487b7160e01b84526041600452602484fd5b634e487b7160e01b84526011600452602484fd5b634e487b7160e01b85526011600452602485fd5b5083906115ea565b6321b94f7b60e21b8352600483fd5b63c394a43360e01b8152600490fd5b6302ab8f8960e11b8152600490fd5b600f546316f5e3b760e21b825242600452602452604490fd5b60248260115460ff8061189d818460081c16611f16565b92169116146000146118d7576118c5603c5b6118c061ffff429216601554611f3e565b611f4b565b600162269d7960e21b03198252600452fd5b6118c561012c6118af565b50346101905780600319360112610190576118fb612737565b80546001600160a01b03198116825581906001600160a01b03167f8be0079c531659141344cd1fd0a4f28419497f9722a3daafe3b4186f6b6457e08280a380f35b503461019057806003193601126101905761145a61195861227d565b60405191829182611def565b503461019057806003193601126101905760206101ae611f58565b503461019057806003193601126101905761199861225b565b80546001600160a01b031633148015611bd1575b6119b590611eca565b6119bd61227d565b600881101561030b576006148015611bb7575b15610190574780156119f381156119e6816124ce565b60095415611baa576124ce565b60198202908282046019141715611b96576064611a1291048092611f4b565b600254604051638da5cb5b60e01b81529192918491602090829060049082906001600160a01b03165afa9081156103f757829184918391611b4e575b50829182916001600160a01b03165af1611a66612021565b5015611b115760018060a01b03600254168360ff600a5416823b156103eb576024611aa89186604051958694859363a9bea78960e01b85526004850190611e3f565b5af18015611b0657611af2575b507fd66662c0ded9e58fd31d5e44944bcfd07ffc15e6927ecc1382e7941cb7bd24c460408051838152846020820152a16007556008556001805580f35b83611aff91949294611e9b565b9138611ab5565b6040513d86823e3d90fd5b60405162461bcd60e51b815260206004820152601560248201527413dddb995c881d1c985b9cd9995c8819985a5b1959605a1b6044820152606490fd5b925050506020813d602011611b8e575b81611b6b60209383611e9b565b810103126103eb57516001600160a01b03811681036103eb578190839082611a4e565b3d9150611b5e565b634e487b7160e01b83526011600452602483fd5b611bb261242d565b6124ce565b50611bc061227d565b600881101561030b576007146119d0565b5060025460405163b918161160e01b815233600482015290602090829060249082906001600160a01b03165afa80156103f7578290611c12575b90506119ac565b506020813d602011611c45575b81611c2c60209383611e9b565b810103126103eb57611c406119b591611ebd565b611c0b565b3d9150611c1f565b503461019057806003193601126101905780546001600160a01b031633148015611d02575b611c7b90611eca565b611c8361225b565b611c8b61227d565b600881101561030b576005148015611ce8575b15611cab5761172b612380565b60405162461bcd60e51b8152602060048201526015602482015274135a5cdcda5bdb881b9bdd08195b991959081e595d605a1b6044820152606490fd5b50611cf161227d565b600881101561030b57600614611c9e565b5060025460405163b918161160e01b815233600482015290602090829060249082906001600160a01b03165afa80156103f7578290611d43575b9050611c72565b506020813d602011611d76575b81611d5d60209383611e9b565b810103126103eb57611d71611c7b91611ebd565b611d3c565b3d9150611d50565b50346101905760203660031901126101905760209060ff906040906001600160a01b03611da9611dd9565b168152600384522054166040519015158152f35b9050346103eb57816003193601126103eb576020906008548152f35b600435906001600160a01b0382168203610e4657565b919060208301926008821015610d035752565b906020808351928381520192019060005b818110611e205750505090565b82516001600160a01b0316845260209384019390920191600101611e13565b906007821015610d035752565b6040810190811067ffffffffffffffff821117611e6857604052565b634e487b7160e01b600052604160045260246000fd5b610200810190811067ffffffffffffffff821117611e6857604052565b90601f8019910116810190811067ffffffffffffffff821117611e6857604052565b51908115158203610e4657565b15611ed157565b60405162461bcd60e51b815260206004820152601760248201527f4e6f74206f776e6572206f7220617574686f72697a65640000000000000000006044820152606490fd5b60ff60019116019060ff8211611f2857565b634e487b7160e01b600052601160045260246000fd5b91908201809211611f2857565b91908203918211611f2857565b611f6061227d565b6008811015610d0357600403611fb45760115460ff80611f84818460081c16611f16565b9216911614600014611fa957611fa6603c6118c061ffff429216601554611f3e565b90565b611fa661012c6118af565b600090565b81810292918115918404141715611f2857565b8115611fd6570490565b634e487b7160e01b600052601260045260246000fd5b60145481101561200b57601460005260206000209060011b0190600090565b634e487b7160e01b600052603260045260246000fd5b3d1561205c573d9067ffffffffffffffff8211611e685760405191612050601f8201601f191660200184611e9b565b82523d6000602084013e565b606090565b67ffffffffffffffff8111611e685760051b60200190565b60095481101561200b57600960005260206000200190600090565b805482101561200b5760005260206000200190600090565b6000198114611f285760010190565b6120c361227d565b6008811015610d0357600381149081156120fb575b506120e257600090565b60115460ff808260081c1691160360ff8111611f285790565b6004915014386120d8565b61210e61227d565b6008811015610d035760038114159081612208575b50612202576001600160a01b031660008181526003602052604090205460ff161561220257600052600460205260ff60406000205416611fb457600f5480421061220257601054804210156121fb5761217c8242611f4b565b90606482029180830460641490151715611f285761219d926115bf91611f4b565b601454600081156121f357506000198101908111611f28576121c0600191611fec565b500154905b606482029180830460641490151715611f285760649161161a6121ef926116146012548094611fcc565b0490565b9050906121c5565b5050600090565b50600090565b60049150141538612123565b600f548042106122025760105480421015612254576122338242611f4b565b90606482029180830460641490151715611f2857611fa6926115bf91611f4b565b5050606490565b60026001541461226c576002600155565b633ee5aeb560e01b60005260046000fd5b60ff60175460081c166008811015610d0357600681148015612376575b611fa65750600b544210611fb457600c544211156123715760095460ff600e54161161236c57600f5442106123675760105442101561233d5760115460ff808260081c169116808210156123365760155490816122f957505050600390565b60ff61230761231a94611f16565b160361232b5761ffff603c5b1690611f3e565b42101561232657600490565b600390565b61ffff61012c612313565b5050600690565b60115460ff8160081c169081156123605760ff161161235b57600690565b600590565b5050600790565b600290565b600790565b600190565b506007811461229a565b6002546000906001600160a01b0316803b15610e465760405163d8d6e8ff60e01b815260066004820152906000908290602490829084905af180156124215761240c575b5080610d19575060175460ff8160081c16906008821015610d0357610600916006600091600080516020612c3a8339815191526020604051428152a35061ff00191617601755565b6124199150600090611e9b565b6000386123c4565b6040513d6000823e3d90fd5b6002546000906001600160a01b0316803b15610e465760405163d8d6e8ff60e01b815260076004820152906000908290602490829084905af18015612421576124b9575b5080610d19575060175460ff8160081c16906008821015610d0357610700916007600091600080516020612c3a8339815191526020604051428152a35061ff00191617601755565b6124c69150600090611e9b565b600038612471565b156124d557565b60405162461bcd60e51b81526020600482015260146024820152734e6f2066756e647320746f20776974686472617760601b6044820152606490fd5b60009061251c61227d565b60088110156114df57600614801561271d575b156103eb5747916125418315156124ce565b60095415612710575b50600080816009545b8082106126d75750508361256e92939482116126cf57611f4b565b801561257a81156124ce565b60198202908282046019141715611b9657606461259991048092611f4b565b600254604051638da5cb5b60e01b815291939190602090829060049082906001600160a01b03165afa9081156103f757829184918391612687575b50829182918291906001600160a01b03165af16125ef612021565b5015611b115760018060a01b036002541660ff600a5416813b156107fd576126316024849287604051958694859363a9bea78960e01b85526004850190611e3f565b5af180156103f757612677575b50507fd66662c0ded9e58fd31d5e44944bcfd07ffc15e6927ecc1382e7941cb7bd24c460408051838152846020820152a1600755600855565b8161268191611e9b565b3861263e565b925050506020813d6020116126c7575b816126a460209383611e9b565b810103126103eb57516001600160a01b03811681036103eb5781908390826125d4565b3d9150612697565b905080611f4b565b90916127086001916126e885612079565b848060a01b0391549060031b1c1686526006602052604086205490611f3e565b920190612553565b61271861242d565b61254a565b5061272661227d565b60088110156114df5760071461252f565b6000546001600160a01b0316330361274b57565b63118cdaa760e01b6000523360045260246000fd5b600080546001600160a01b039283166001600160a01b03198216811783559216907f8be0079c531659141344cd1fd0a4f28419497f9722a3daafe3b4186f6b6457e09080a3565b6127af61227d565b9060009160088110156114df57600703612bf45760095415612bb857600190825b600954811015612908576127e381612079565b905460039190911b1c6001600160a01b03168085526005602052604085205460ff1615612814575b506001016127d0565b84808080600d54855af1612826612021565b50156128b357808552600560205260408520805460ff19166001179055601654600160401b8110156107025790612867826001809594016016556016612094565b81549060031b9083821b91868060a01b03901b19161790557f48d31f1c958cd44f1f83a52ae2dfaf61e88a1b82c07a6d5711a4abef60b6531e6020600d54604051908152a25b9061280b565b909250600d5481855260066020526128d060408620918254611f3e565b90557faf73b0b217208b61be286bbc37095bce7eb8b9ccf617244c2f0f154e8e04e3ff6020600d54604051908152a2600183926128ad565b50919061291361242d565b476129ac575b5060165490600d54906040518091829190601681527fd833147d7dc355ba459fc788f669e58cfaf9dc25ddcd0702e87d69c7b5124289905b86811061298a575050039020917fbb93c7c839bddd97272c8e974d54d30adfa3aa55df63a52f02b7192efd361a246020604051428152a4565b81546001600160a01b0316835284935060209092019160019182019101612951565b6129b461227d565b60088110156114df576006148015612b9e575b156103eb5747906129d98215156124ce565b60095415612b91575b15612b50575b80156129f481156124ce565b60198202908282046019141715611b96576064612a1391048092611f4b565b600254604051638da5cb5b60e01b815291929190602090829060049082906001600160a01b03165afa908115611b0657849183918391612b08575b50829182918291906001600160a01b03165af1612a69612021565b5015611b115760018060a01b036002541660ff600a5416813b156107f557612aab6024869286604051958694859363a9bea78960e01b85526004850190611e3f565b5af18015611b0657612af4575b507fd66662c0ded9e58fd31d5e44944bcfd07ffc15e6927ecc1382e7941cb7bd24c460408051838152846020820152a160075560085538612919565b83612b0191949294611e9b565b9138612ab8565b925050506020813d602011612b48575b81612b2560209383611e9b565b810103126107f957516001600160a01b03811681036107f9578390829082612a4e565b3d9150612b18565b919080816009545b808210612b7857505083612b7392939482116126cf57611f4b565b6129e8565b9091612b896001916126e885612079565b920190612b58565b612b9961242d565b6129e2565b50612ba761227d565b60088110156114df576007146129c7565b60405162461bcd60e51b8152602060048201526014602482015273139bc81c1b185e595c9cc81d1bc81c99599d5b9960621b6044820152606490fd5b60405162461bcd60e51b815260206004820152601c60248201527f4d697373696f6e206e6f7420696e204661696c656420737461747573000000006044820152606490fdfe39ba628632d48c45c7f562c07db20a44cf68423691d5d79b20f87ba84138aedfce6d7b5282bd9a3661ae061feed1dbda4e52ab073b1f9285be6e155d9c38d4eca2646970667358221220a357412d0603db5f507c37f0faecb075a57d8387cc725f62bd9a816970ae703864736f6c634300081e0033","opcodes":"PUSH1 0x80 DUP1 PUSH1 0x40 MSTORE CALLVALUE PUSH1 0x79 JUMPI CALLER ISZERO PUSH1 0x63 JUMPI PUSH1 0x0 DUP1 SLOAD CALLER PUSH1 0x1 PUSH1 0x1 PUSH1 0xA0 SHL SUB NOT DUP3 AND DUP2 OR DUP4 SSTORE SWAP2 PUSH1 0x1 PUSH1 0x1 PUSH1 0xA0 SHL SUB SWAP1 SWAP2 AND SWAP1 PUSH32 0x8BE0079C531659141344CD1FD0A4F28419497F9722A3DAAFE3B4186F6B6457E0 SWAP1 DUP1 LOG3 PUSH1 0x1 DUP1 SSTORE PUSH2 0x2CAF SWAP1 DUP2 PUSH2 0x7F DUP3 CODECOPY RETURN JUMPDEST PUSH4 0x1E4FBDF7 PUSH1 0xE0 SHL PUSH1 0x0 MSTORE PUSH1 0x0 PUSH1 0x4 MSTORE PUSH1 0x24 PUSH1 0x0 REVERT JUMPDEST PUSH1 0x0 DUP1 REVERT INVALID PUSH1 0x80 DUP1 PUSH1 0x40 MSTORE PUSH1 0x4 CALLDATASIZE LT ISZERO PUSH2 0x13 JUMPI PUSH1 0x0 DUP1 REVERT JUMPDEST PUSH1 0x0 SWAP1 DUP2 CALLDATALOAD PUSH1 0xE0 SHR SWAP1 DUP2 PUSH3 0x3E16A5 EQ PUSH2 0x1DBD JUMPI POP DUP1 PUSH4 0x10EB0E0E EQ PUSH2 0x1D7E JUMPI DUP1 PUSH4 0x12124848 EQ PUSH2 0x1C4D JUMPI DUP1 PUSH4 0x24600FC3 EQ PUSH2 0x197F JUMPI DUP1 PUSH4 0x5407441F EQ PUSH2 0x1964 JUMPI DUP1 PUSH4 0x68C6BA21 EQ PUSH2 0x193C JUMPI DUP1 PUSH4 0x715018A6 EQ PUSH2 0x18E2 JUMPI DUP1 PUSH4 0x7475A4CB EQ PUSH2 0x1515 JUMPI DUP1 PUSH4 0x7CE17DE4 EQ PUSH2 0x1193 JUMPI DUP1 PUSH4 0x7CF61B69 EQ PUSH2 0xFC4 JUMPI DUP1 PUSH4 0x8DA5CB5B EQ PUSH2 0xF9D JUMPI DUP1 PUSH4 0x8F1C3151 EQ PUSH2 0xF7F JUMPI DUP1 PUSH4 0x987C543A EQ PUSH2 0xAFB JUMPI DUP1 PUSH4 0x98BDAE43 EQ PUSH2 0xA41 JUMPI DUP1 PUSH4 0xA52B2B88 EQ PUSH2 0xA02 JUMPI DUP1 PUSH4 0xA7E22A3E EQ PUSH2 0x9DC JUMPI DUP1 PUSH4 0xAD1CA6BF EQ PUSH2 0x879 JUMPI DUP1 PUSH4 0xB2A4A5D2 EQ PUSH2 0x840 JUMPI DUP1 PUSH4 0xC033A490 EQ PUSH2 0x801 JUMPI DUP1 PUSH4 0xC54168B3 EQ PUSH2 0x45B JUMPI DUP1 PUSH4 0xE6810A50 EQ PUSH2 0x437 JUMPI DUP1 PUSH4 0xEB2BAB77 EQ PUSH2 0x230 JUMPI DUP1 PUSH4 0xF2FDE38B EQ PUSH2 0x1DF JUMPI DUP1 PUSH4 0xFA4CF5A1 EQ PUSH2 0x1B6 JUMPI DUP1 PUSH4 0xFB84E12F EQ PUSH2 0x193 JUMPI PUSH4 0xFCCA0C84 EQ PUSH2 0x13E JUMPI PUSH1 0x0 DUP1 REVERT JUMPDEST CALLVALUE PUSH2 0x190 JUMPI PUSH1 0x20 CALLDATASIZE PUSH1 0x3 NOT ADD SLT PUSH2 0x190 JUMPI PUSH1 0x40 SWAP1 PUSH1 0xFF DUP3 PUSH1 0x1 PUSH1 0x1 PUSH1 0xA0 SHL SUB PUSH2 0x165 PUSH2 0x1DD9 JUMP JUMPDEST AND SWAP3 DUP4 DUP2 MSTORE PUSH1 0x3 PUSH1 0x20 MSTORE DUP3 DUP3 DUP3 KECCAK256 SLOAD AND SWAP4 DUP2 MSTORE PUSH1 0x4 PUSH1 0x20 MSTORE KECCAK256 SLOAD AND DUP3 MLOAD SWAP2 ISZERO ISZERO DUP3 MSTORE ISZERO ISZERO PUSH1 0x20 DUP3 ADD MSTORE RETURN JUMPDEST DUP1 REVERT JUMPDEST POP CALLVALUE PUSH2 0x190 JUMPI DUP1 PUSH1 0x3 NOT CALLDATASIZE ADD SLT PUSH2 0x190 JUMPI PUSH1 0x20 PUSH2 0x1AE PUSH2 0x2214 JUMP JUMPDEST PUSH1 0x40 MLOAD SWAP1 DUP2 MSTORE RETURN JUMPDEST POP CALLVALUE PUSH2 0x190 JUMPI DUP1 PUSH1 0x3 NOT CALLDATASIZE ADD SLT PUSH2 0x190 JUMPI PUSH1 0x2 SLOAD PUSH1 0x40 MLOAD PUSH1 0x1 PUSH1 0x1 PUSH1 0xA0 SHL SUB SWAP1 SWAP2 AND DUP2 MSTORE PUSH1 0x20 SWAP1 RETURN JUMPDEST POP CALLVALUE PUSH2 0x190 JUMPI PUSH1 0x20 CALLDATASIZE PUSH1 0x3 NOT ADD SLT PUSH2 0x190 JUMPI PUSH2 0x1F9 PUSH2 0x1DD9 JUMP JUMPDEST PUSH2 0x201 PUSH2 0x2737 JUMP JUMPDEST PUSH1 0x1 PUSH1 0x1 PUSH1 0xA0 SHL SUB DUP2 AND ISZERO PUSH2 0x21C JUMPI PUSH2 0x219 SWAP1 PUSH2 0x2760 JUMP JUMPDEST DUP1 RETURN JUMPDEST PUSH4 0x1E4FBDF7 PUSH1 0xE0 SHL DUP3 MSTORE PUSH1 0x4 DUP3 SWAP1 MSTORE PUSH1 0x24 DUP3 REVERT JUMPDEST POP DUP1 PUSH1 0x3 NOT CALLDATASIZE ADD SLT PUSH2 0x190 JUMPI CALLVALUE ISZERO PUSH2 0x402 JUMPI PUSH1 0x1 DUP1 PUSH1 0xA0 SHL SUB PUSH1 0x2 SLOAD AND DUP1 CALLER EQ SWAP1 DUP2 ISZERO PUSH2 0x383 JUMPI JUMPDEST POP DUP1 ISZERO PUSH2 0x370 JUMPI JUMPDEST ISZERO PUSH2 0x31F JUMPI PUSH2 0x26D PUSH2 0x227D JUMP JUMPDEST PUSH1 0x8 DUP2 LT ISZERO PUSH2 0x30B JUMPI PUSH1 0x4 LT ISZERO PUSH2 0x2CF JUMPI PUSH2 0x28A CALLVALUE PUSH1 0x12 SLOAD PUSH2 0x1F3E JUMP JUMPDEST PUSH1 0x12 SSTORE PUSH32 0x7272B264C9EF2A1E8E9303944736F4977B14A5761227B7B9869FECAA60F89387 PUSH1 0x40 PUSH2 0x2BC CALLVALUE PUSH1 0x13 SLOAD PUSH2 0x1F3E JUMP JUMPDEST DUP1 PUSH1 0x13 SSTORE DUP2 MLOAD SWAP1 CALLVALUE DUP3 MSTORE PUSH1 0x20 DUP3 ADD MSTORE LOG1 DUP1 RETURN JUMPDEST PUSH1 0x40 MLOAD PUSH3 0x461BCD PUSH1 0xE5 SHL DUP2 MSTORE PUSH1 0x20 PUSH1 0x4 DUP3 ADD MSTORE PUSH1 0x14 PUSH1 0x24 DUP3 ADD MSTORE PUSH20 0x4D697373696F6E207374696C6C20616374697665 PUSH1 0x60 SHL PUSH1 0x44 DUP3 ADD MSTORE PUSH1 0x64 SWAP1 REVERT JUMPDEST PUSH4 0x4E487B71 PUSH1 0xE0 SHL DUP3 MSTORE PUSH1 0x21 PUSH1 0x4 MSTORE PUSH1 0x24 DUP3 REVERT JUMPDEST PUSH1 0x40 MLOAD PUSH3 0x461BCD PUSH1 0xE5 SHL DUP2 MSTORE PUSH1 0x20 PUSH1 0x4 DUP3 ADD MSTORE PUSH1 0x23 PUSH1 0x24 DUP3 ADD MSTORE PUSH32 0x4F6E6C7920666163746F7279206F7220617574686F72697A65642063616E2066 PUSH1 0x44 DUP3 ADD MSTORE PUSH3 0x1D5B99 PUSH1 0xEA SHL PUSH1 0x64 DUP3 ADD MSTORE PUSH1 0x84 SWAP1 REVERT JUMPDEST POP DUP1 SLOAD PUSH1 0x1 PUSH1 0x1 PUSH1 0xA0 SHL SUB AND CALLER EQ PUSH2 0x260 JUMP JUMPDEST PUSH1 0x40 MLOAD PUSH4 0xB9181611 PUSH1 0xE0 SHL DUP2 MSTORE CALLER PUSH1 0x4 DUP3 ADD MSTORE SWAP2 POP PUSH1 0x20 SWAP1 DUP3 SWAP1 PUSH1 0x24 SWAP1 DUP3 SWAP1 GAS STATICCALL SWAP1 DUP2 ISZERO PUSH2 0x3F7 JUMPI DUP3 SWAP2 PUSH2 0x3B9 JUMPI JUMPDEST POP CODESIZE PUSH2 0x258 JUMP JUMPDEST SWAP1 POP PUSH1 0x20 DUP2 RETURNDATASIZE PUSH1 0x20 GT PUSH2 0x3EF JUMPI JUMPDEST DUP2 PUSH2 0x3D4 PUSH1 0x20 SWAP4 DUP4 PUSH2 0x1E9B JUMP JUMPDEST DUP2 ADD SUB SLT PUSH2 0x3EB JUMPI PUSH2 0x3E5 SWAP1 PUSH2 0x1EBD JUMP JUMPDEST CODESIZE PUSH2 0x3B2 JUMP JUMPDEST POP DUP1 REVERT JUMPDEST RETURNDATASIZE SWAP2 POP PUSH2 0x3C7 JUMP JUMPDEST PUSH1 0x40 MLOAD RETURNDATASIZE DUP5 DUP3 RETURNDATACOPY RETURNDATASIZE SWAP1 REVERT JUMPDEST PUSH1 0x40 MLOAD PUSH3 0x461BCD PUSH1 0xE5 SHL DUP2 MSTORE PUSH1 0x20 PUSH1 0x4 DUP3 ADD MSTORE PUSH1 0xD PUSH1 0x24 DUP3 ADD MSTORE PUSH13 0x139BC8199D5B991CC81CD95B9D PUSH1 0x9A SHL PUSH1 0x44 DUP3 ADD MSTORE PUSH1 0x64 SWAP1 REVERT JUMPDEST POP CALLVALUE PUSH2 0x190 JUMPI PUSH1 0x20 CALLDATASIZE PUSH1 0x3 NOT ADD SLT PUSH2 0x190 JUMPI PUSH1 0x20 PUSH2 0x1AE PUSH2 0x456 PUSH2 0x1DD9 JUMP JUMPDEST PUSH2 0x2106 JUMP JUMPDEST POP PUSH2 0x160 CALLDATASIZE PUSH1 0x3 NOT ADD SLT PUSH2 0x190 JUMPI PUSH2 0x471 PUSH2 0x1DD9 JUMP JUMPDEST PUSH1 0x24 CALLDATALOAD PUSH1 0x1 PUSH1 0x1 PUSH1 0xA0 SHL SUB DUP2 AND SWAP2 SWAP1 DUP3 SWAP1 SUB PUSH2 0x7FD JUMPI PUSH1 0x44 CALLDATALOAD SWAP2 PUSH1 0x7 DUP4 LT ISZERO PUSH2 0x7F9 JUMPI PUSH1 0xC4 CALLDATALOAD PUSH1 0xFF DUP2 AND DUP1 SWAP2 SUB PUSH2 0x7F5 JUMPI PUSH1 0xE4 CALLDATALOAD SWAP1 PUSH1 0xFF DUP3 AND DUP3 SUB PUSH2 0x7F1 JUMPI PUSH2 0x144 CALLDATALOAD SWAP3 PUSH1 0xFF DUP5 AND DUP1 SWAP5 SUB PUSH2 0x7ED JUMPI PUSH2 0x4C8 PUSH2 0x225B JUMP JUMPDEST PUSH1 0x17 SLOAD PUSH1 0xFF DUP2 AND PUSH2 0x7B2 JUMPI PUSH1 0xFF NOT AND PUSH1 0x1 OR PUSH1 0x17 SSTORE PUSH2 0x4E6 DUP6 PUSH2 0x2760 JUMP JUMPDEST PUSH12 0xFFFFFFFFFFFFFFFFFFFFFFFF PUSH1 0xA0 SHL PUSH1 0x2 SLOAD AND OR PUSH1 0x2 SSTORE PUSH1 0xFF NOT PUSH1 0xA SLOAD AND PUSH1 0xFF DUP7 AND OR PUSH1 0xA SSTORE PUSH1 0x64 CALLDATALOAD PUSH1 0xB SSTORE PUSH1 0x84 CALLDATALOAD PUSH1 0xC SSTORE PUSH1 0xA4 CALLDATALOAD PUSH1 0xD SSTORE PUSH2 0xFF00 PUSH1 0xE SLOAD SWAP3 PUSH1 0x8 SHL AND SWAP2 PUSH2 0xFFFF NOT AND OR OR PUSH1 0xE SSTORE PUSH2 0x104 CALLDATALOAD PUSH1 0xF SSTORE PUSH2 0x124 CALLDATALOAD PUSH1 0x10 SSTORE PUSH2 0xFFFF NOT PUSH1 0x11 SLOAD AND OR PUSH1 0x11 SSTORE CALLVALUE PUSH1 0x12 SSTORE CALLVALUE PUSH1 0x13 SSTORE DUP3 PUSH1 0x15 SSTORE PUSH1 0x20 PUSH1 0x40 MLOAD PUSH2 0x56A DUP3 DUP3 PUSH2 0x1E9B JUMP JUMPDEST DUP5 DUP2 MSTORE PUSH1 0x0 CALLDATASIZE DUP2 CALLDATACOPY DUP1 MLOAD SWAP1 PUSH8 0xFFFFFFFFFFFFFFFF DUP3 GT PUSH2 0x702 JUMPI PUSH1 0x1 PUSH1 0x40 SHL DUP3 GT PUSH2 0x702 JUMPI DUP3 SWAP1 PUSH1 0x9 SLOAD DUP4 PUSH1 0x9 SSTORE DUP1 DUP5 LT PUSH2 0x751 JUMPI JUMPDEST POP ADD PUSH1 0x9 DUP7 MSTORE DUP6 JUMPDEST DUP3 DUP2 LT PUSH2 0x716 JUMPI POP POP POP PUSH1 0x40 MLOAD PUSH2 0x5BF DUP3 DUP3 PUSH2 0x1E9B JUMP JUMPDEST DUP5 DUP2 MSTORE DUP5 SWAP1 PUSH1 0x1 PUSH1 0x40 SHL DUP3 GT PUSH2 0x702 JUMPI DUP3 SWAP1 PUSH1 0x14 SLOAD DUP4 PUSH1 0x14 SSTORE DUP1 DUP5 LT PUSH2 0x67E JUMPI JUMPDEST POP ADD PUSH1 0x14 DUP7 MSTORE PUSH1 0x0 DUP1 MLOAD PUSH1 0x20 PUSH2 0x2C5A DUP4 CODECOPY DUP2 MLOAD SWAP2 MSTORE DUP7 SWAP2 JUMPDEST DUP4 DUP4 LT PUSH2 0x641 JUMPI POP POP PUSH1 0x40 MLOAD TIMESTAMP DUP2 MSTORE PUSH1 0x1 PUSH1 0x1 PUSH1 0xA0 SHL SUB SWAP1 SWAP5 AND SWAP4 PUSH32 0xE9597995B7A2AF444CC28B2B776B88B1253D701282A9BCF902D4F59750DF7C57 SWAP4 SWAP3 POP SWAP1 POP LOG3 PUSH1 0x1 DUP1 SSTORE DUP1 RETURN JUMPDEST DUP1 MLOAD DUP1 MLOAD DUP4 SLOAD PUSH1 0x1 PUSH1 0x1 PUSH1 0xA0 SHL SUB NOT AND PUSH1 0x1 PUSH1 0x1 PUSH1 0xA0 SHL SUB SWAP2 SWAP1 SWAP2 AND OR DUP4 SSTORE PUSH1 0x20 ADD MLOAD PUSH1 0x1 DUP4 DUP2 ADD SWAP2 SWAP1 SWAP2 SSTORE SWAP1 PUSH1 0x2 SWAP1 DUP7 ADD SWAP3 ADD SWAP3 ADD SWAP2 SWAP1 PUSH2 0x5F8 JUMP JUMPDEST SWAP1 SWAP2 POP PUSH1 0x1 PUSH1 0x1 PUSH1 0xFF SHL SUB DUP2 AND DUP2 SUB PUSH2 0x6EE JUMPI PUSH1 0x1 PUSH1 0x1 PUSH1 0xFF SHL SUB DUP4 AND DUP4 SUB PUSH2 0x6EE JUMPI SWAP1 DUP4 SWAP2 PUSH1 0x1 SHL PUSH1 0x0 DUP1 MLOAD PUSH1 0x20 PUSH2 0x2C5A DUP4 CODECOPY DUP2 MLOAD SWAP2 MSTORE ADD DUP4 PUSH1 0x1 SHL PUSH1 0x0 DUP1 MLOAD PUSH1 0x20 PUSH2 0x2C5A DUP4 CODECOPY DUP2 MLOAD SWAP2 MSTORE ADD JUMPDEST DUP2 DUP2 LT PUSH2 0x6D9 JUMPI POP PUSH2 0x5E0 JUMP JUMPDEST DUP9 DUP2 SSTORE PUSH1 0x1 DUP2 ADD DUP10 SWAP1 SSTORE DUP6 SWAP4 POP PUSH1 0x2 ADD PUSH2 0x6CC JUMP JUMPDEST PUSH4 0x4E487B71 PUSH1 0xE0 SHL DUP8 MSTORE PUSH1 0x11 PUSH1 0x4 MSTORE PUSH1 0x24 DUP8 REVERT JUMPDEST PUSH4 0x4E487B71 PUSH1 0xE0 SHL DUP7 MSTORE PUSH1 0x41 PUSH1 0x4 MSTORE PUSH1 0x24 DUP7 REVERT JUMPDEST DUP2 MLOAD PUSH1 0x1 PUSH1 0x1 PUSH1 0xA0 SHL SUB AND PUSH32 0x6E1540171B6C0C960B71A7020D9F60077F6AF931A8BBF590DA0223DACF75C7AF DUP3 ADD SSTORE SWAP1 DUP4 ADD SWAP1 PUSH1 0x1 ADD PUSH2 0x5A8 JUMP JUMPDEST PUSH32 0x6E1540171B6C0C960B71A7020D9F60077F6AF931A8BBF590DA0223DACF75C7AF ADD DUP4 PUSH32 0x6E1540171B6C0C960B71A7020D9F60077F6AF931A8BBF590DA0223DACF75C7AF ADD JUMPDEST DUP2 DUP2 LT PUSH2 0x7A4 JUMPI POP PUSH2 0x5A0 JUMP JUMPDEST DUP9 DUP2 SSTORE DUP6 SWAP4 POP PUSH1 0x1 ADD PUSH2 0x797 JUMP JUMPDEST PUSH1 0x40 MLOAD PUSH3 0x461BCD PUSH1 0xE5 SHL DUP2 MSTORE PUSH1 0x20 PUSH1 0x4 DUP3 ADD MSTORE PUSH1 0x13 PUSH1 0x24 DUP3 ADD MSTORE PUSH19 0x105B1C9958591E481A5B9A5D1A585B1A5E9959 PUSH1 0x6A SHL PUSH1 0x44 DUP3 ADD MSTORE PUSH1 0x64 SWAP1 REVERT JUMPDEST DUP7 DUP1 REVERT JUMPDEST DUP6 DUP1 REVERT JUMPDEST DUP5 DUP1 REVERT JUMPDEST DUP4 DUP1 REVERT JUMPDEST DUP3 DUP1 REVERT JUMPDEST POP CALLVALUE PUSH2 0x190 JUMPI PUSH1 0x20 CALLDATASIZE PUSH1 0x3 NOT ADD SLT PUSH2 0x190 JUMPI PUSH1 0x20 SWAP1 PUSH1 0xFF SWAP1 PUSH1 0x40 SWAP1 PUSH1 0x1 PUSH1 0x1 PUSH1 0xA0 SHL SUB PUSH2 0x82C PUSH2 0x1DD9 JUMP JUMPDEST AND DUP2 MSTORE PUSH1 0x5 DUP5 MSTORE KECCAK256 SLOAD AND PUSH1 0x40 MLOAD SWAP1 ISZERO ISZERO DUP2 MSTORE RETURN JUMPDEST POP CALLVALUE PUSH2 0x190 JUMPI PUSH1 0x20 CALLDATASIZE PUSH1 0x3 NOT ADD SLT PUSH2 0x190 JUMPI PUSH1 0x20 SWAP1 PUSH1 0x40 SWAP1 PUSH1 0x1 PUSH1 0x1 PUSH1 0xA0 SHL SUB PUSH2 0x868 PUSH2 0x1DD9 JUMP JUMPDEST AND DUP2 MSTORE PUSH1 0x6 DUP4 MSTORE KECCAK256 SLOAD PUSH1 0x40 MLOAD SWAP1 DUP2 MSTORE RETURN JUMPDEST POP CALLVALUE PUSH2 0x190 JUMPI DUP1 PUSH1 0x3 NOT CALLDATASIZE ADD SLT PUSH2 0x190 JUMPI PUSH2 0x892 PUSH2 0x225B JUMP JUMPDEST DUP1 SLOAD PUSH1 0x1 PUSH1 0x1 PUSH1 0xA0 SHL SUB AND CALLER EQ DUP1 ISZERO PUSH2 0x960 JUMPI JUMPDEST PUSH2 0x8AF SWAP1 PUSH2 0x1ECA JUMP JUMPDEST PUSH1 0xC SLOAD TIMESTAMP GT DUP1 PUSH2 0x955 JUMPI JUMPDEST ISZERO PUSH2 0x8EA JUMPI PUSH1 0x9 SLOAD PUSH1 0xFF PUSH1 0xE SLOAD AND GT PUSH2 0x8D5 JUMPI JUMPDEST PUSH1 0x1 DUP1 SSTORE DUP1 RETURN JUMPDEST PUSH2 0x8DD PUSH2 0x242D JUMP JUMPDEST PUSH2 0x8E5 PUSH2 0x27A7 JUMP JUMPDEST PUSH2 0x8CE JUMP JUMPDEST PUSH1 0x40 MLOAD PUSH3 0x461BCD PUSH1 0xE5 SHL DUP2 MSTORE PUSH1 0x20 PUSH1 0x4 DUP3 ADD MSTORE PUSH1 0x38 PUSH1 0x24 DUP3 ADD MSTORE PUSH32 0x4D697373696F6E206E6F7420696E2061726D696E672077696E646F772E204361 PUSH1 0x44 DUP3 ADD MSTORE PUSH32 0x6C6C20726566756E64506C617965727320696E73746561640000000000000000 PUSH1 0x64 DUP3 ADD MSTORE PUSH1 0x84 SWAP1 REVERT JUMPDEST POP PUSH1 0xF SLOAD TIMESTAMP LT PUSH2 0x8BA JUMP JUMPDEST POP PUSH1 0x2 SLOAD PUSH1 0x40 MLOAD PUSH4 0xB9181611 PUSH1 0xE0 SHL DUP2 MSTORE CALLER PUSH1 0x4 DUP3 ADD MSTORE SWAP1 PUSH1 0x20 SWAP1 DUP3 SWAP1 PUSH1 0x24 SWAP1 DUP3 SWAP1 PUSH1 0x1 PUSH1 0x1 PUSH1 0xA0 SHL SUB AND GAS STATICCALL DUP1 ISZERO PUSH2 0x3F7 JUMPI DUP3 SWAP1 PUSH2 0x9A1 JUMPI JUMPDEST SWAP1 POP PUSH2 0x8A6 JUMP JUMPDEST POP PUSH1 0x20 DUP2 RETURNDATASIZE PUSH1 0x20 GT PUSH2 0x9D4 JUMPI JUMPDEST DUP2 PUSH2 0x9BB PUSH1 0x20 SWAP4 DUP4 PUSH2 0x1E9B JUMP JUMPDEST DUP2 ADD SUB SLT PUSH2 0x3EB JUMPI PUSH2 0x9CF PUSH2 0x8AF SWAP2 PUSH2 0x1EBD JUMP JUMPDEST PUSH2 0x99A JUMP JUMPDEST RETURNDATASIZE SWAP2 POP PUSH2 0x9AE JUMP JUMPDEST POP CALLVALUE PUSH2 0x190 JUMPI DUP1 PUSH1 0x3 NOT CALLDATASIZE ADD SLT PUSH2 0x190 JUMPI PUSH1 0x20 PUSH2 0x9F7 PUSH2 0x20BB JUMP JUMPDEST PUSH1 0xFF PUSH1 0x40 MLOAD SWAP2 AND DUP2 MSTORE RETURN JUMPDEST POP CALLVALUE PUSH2 0x190 JUMPI PUSH1 0x20 CALLDATASIZE PUSH1 0x3 NOT ADD SLT PUSH2 0x190 JUMPI PUSH1 0x20 SWAP1 PUSH1 0xFF SWAP1 PUSH1 0x40 SWAP1 PUSH1 0x1 PUSH1 0x1 PUSH1 0xA0 SHL SUB PUSH2 0xA2D PUSH2 0x1DD9 JUMP JUMPDEST AND DUP2 MSTORE PUSH1 0x4 DUP5 MSTORE KECCAK256 SLOAD AND PUSH1 0x40 MLOAD SWAP1 ISZERO ISZERO DUP2 MSTORE RETURN JUMPDEST POP CALLVALUE PUSH2 0x190 JUMPI DUP1 PUSH1 0x3 NOT CALLDATASIZE ADD SLT PUSH2 0x190 JUMPI PUSH2 0xA5A PUSH2 0x225B JUMP JUMPDEST DUP1 SLOAD PUSH1 0x1 PUSH1 0x1 PUSH1 0xA0 SHL SUB AND CALLER EQ DUP1 ISZERO PUSH2 0xA7F JUMPI JUMPDEST PUSH2 0xA77 SWAP1 PUSH2 0x1ECA JUMP JUMPDEST PUSH2 0x8CE PUSH2 0x27A7 JUMP JUMPDEST POP PUSH1 0x2 SLOAD PUSH1 0x40 MLOAD PUSH4 0xB9181611 PUSH1 0xE0 SHL DUP2 MSTORE CALLER PUSH1 0x4 DUP3 ADD MSTORE SWAP1 PUSH1 0x20 SWAP1 DUP3 SWAP1 PUSH1 0x24 SWAP1 DUP3 SWAP1 PUSH1 0x1 PUSH1 0x1 PUSH1 0xA0 SHL SUB AND GAS STATICCALL DUP1 ISZERO PUSH2 0x3F7 JUMPI DUP3 SWAP1 PUSH2 0xAC0 JUMPI JUMPDEST SWAP1 POP PUSH2 0xA6E JUMP JUMPDEST POP PUSH1 0x20 DUP2 RETURNDATASIZE PUSH1 0x20 GT PUSH2 0xAF3 JUMPI JUMPDEST DUP2 PUSH2 0xADA PUSH1 0x20 SWAP4 DUP4 PUSH2 0x1E9B JUMP JUMPDEST DUP2 ADD SUB SLT PUSH2 0x3EB JUMPI PUSH2 0xAEE PUSH2 0xA77 SWAP2 PUSH2 0x1EBD JUMP JUMPDEST PUSH2 0xAB9 JUMP JUMPDEST RETURNDATASIZE SWAP2 POP PUSH2 0xACD JUMP JUMPDEST POP DUP1 PUSH1 0x3 NOT CALLDATASIZE ADD SLT PUSH2 0x190 JUMPI PUSH2 0xB0F PUSH2 0x225B JUMP JUMPDEST PUSH1 0xB SLOAD DUP1 TIMESTAMP LT PUSH2 0xF69 JUMPI POP PUSH1 0xC SLOAD DUP1 TIMESTAMP GT PUSH2 0xF53 JUMPI POP PUSH1 0x9 SLOAD PUSH1 0xFF PUSH1 0xE SLOAD PUSH1 0x8 SHR AND DUP1 SWAP2 LT ISZERO PUSH2 0xF41 JUMPI POP PUSH1 0xD SLOAD DUP1 CALLVALUE SUB PUSH2 0xF2B JUMPI POP CALLER DUP2 MSTORE PUSH1 0x3 PUSH1 0x20 MSTORE PUSH1 0xFF PUSH1 0x40 DUP3 KECCAK256 SLOAD AND PUSH2 0xF1D JUMPI PUSH1 0x2 SLOAD PUSH1 0x40 DUP1 MLOAD PUSH4 0x4C0252C3 PUSH1 0xE1 SHL DUP2 MSTORE CALLER PUSH1 0x4 DUP3 ADD MSTORE PUSH1 0x1 PUSH1 0x1 PUSH1 0xA0 SHL SUB SWAP1 SWAP3 AND SWAP3 SWAP2 SWAP1 DUP2 PUSH1 0x24 DUP2 DUP7 GAS STATICCALL SWAP1 DUP2 ISZERO PUSH2 0x3F7 JUMPI DUP3 SWAP1 DUP4 SWAP3 PUSH2 0xED3 JUMPI JUMPDEST POP ISZERO PUSH2 0xDCB JUMPI POP PUSH1 0x9 SLOAD PUSH1 0x1 PUSH1 0x40 SHL DUP2 LT ISZERO PUSH2 0xDB7 JUMPI DUP1 PUSH1 0x1 PUSH2 0xBBD SWAP3 ADD PUSH1 0x9 SSTORE PUSH1 0x9 PUSH2 0x2094 JUMP JUMPDEST DUP2 SLOAD SWAP1 PUSH1 0x3 SHL SWAP1 CALLER DUP3 SHL SWAP2 PUSH1 0x1 DUP1 PUSH1 0xA0 SHL SUB SWAP1 SHL NOT AND OR SWAP1 SSTORE CALLER DUP2 MSTORE PUSH1 0x3 PUSH1 0x20 MSTORE PUSH1 0x40 DUP2 KECCAK256 PUSH1 0x1 PUSH1 0xFF NOT DUP3 SLOAD AND OR SWAP1 SSTORE PUSH2 0xBF9 CALLVALUE PUSH1 0x12 SLOAD PUSH2 0x1F3E JUMP JUMPDEST PUSH1 0x12 SSTORE PUSH2 0xC08 CALLVALUE PUSH1 0x13 SLOAD PUSH2 0x1F3E JUMP JUMPDEST PUSH1 0x13 SSTORE DUP1 PUSH1 0x1 DUP2 PUSH2 0xDAA JUMPI JUMPDEST DUP1 ISZERO PUSH2 0xD9D JUMPI JUMPDEST DUP1 ISZERO PUSH2 0xD90 JUMPI JUMPDEST PUSH2 0xD2D JUMPI JUMPDEST PUSH2 0xD19 JUMPI PUSH1 0x17 SLOAD PUSH1 0xFF DUP2 PUSH1 0x8 SHR AND SWAP1 PUSH1 0x8 DUP3 LT ISZERO PUSH2 0xD03 JUMPI PUSH2 0x100 SWAP1 PUSH1 0x1 PUSH1 0x0 SWAP4 PUSH1 0x0 DUP1 MLOAD PUSH1 0x20 PUSH2 0x2C3A DUP4 CODECOPY DUP2 MLOAD SWAP2 MSTORE PUSH1 0x20 PUSH1 0x40 MLOAD TIMESTAMP DUP2 MSTORE LOG3 PUSH2 0xFF00 NOT AND OR PUSH1 0x17 SSTORE PUSH1 0x2 SLOAD DUP2 SWAP1 PUSH1 0x1 PUSH1 0x1 PUSH1 0xA0 SHL SUB AND DUP1 EXTCODESIZE ISZERO PUSH2 0xD00 JUMPI DUP2 DUP1 SWAP2 PUSH1 0x24 PUSH1 0x40 MLOAD DUP1 SWAP6 DUP2 SWAP4 PUSH4 0xC17F9E59 PUSH1 0xE0 SHL DUP4 MSTORE CALLER PUSH1 0x4 DUP5 ADD MSTORE GAS CALL DUP1 ISZERO PUSH2 0xCF3 JUMPI PUSH2 0xCE3 JUMPI JUMPDEST PUSH1 0x9 SLOAD PUSH1 0x40 MLOAD SWAP1 CALLVALUE DUP3 MSTORE PUSH1 0x20 DUP3 ADD MSTORE PUSH32 0xBEDD10D90B8962EB521114C7E2B49019403D371FFA1E46AFBDA7A3F1FDE8F06F PUSH1 0x40 CALLER SWAP3 LOG2 PUSH1 0x1 DUP1 SSTORE DUP1 RETURN JUMPDEST PUSH2 0xCEC SWAP2 PUSH2 0x1E9B JUMP JUMPDEST DUP2 DUP2 PUSH2 0xCA7 JUMP JUMPDEST POP PUSH1 0x40 MLOAD SWAP1 RETURNDATASIZE SWAP1 DUP3 RETURNDATACOPY RETURNDATASIZE SWAP1 REVERT JUMPDEST POP REVERT JUMPDEST PUSH4 0x4E487B71 PUSH1 0xE0 SHL PUSH1 0x0 MSTORE PUSH1 0x21 PUSH1 0x4 MSTORE PUSH1 0x24 PUSH1 0x0 REVERT JUMPDEST PUSH4 0x4E487B71 PUSH1 0xE0 SHL DUP2 MSTORE PUSH1 0x21 PUSH1 0x4 MSTORE PUSH1 0x24 SWAP1 REVERT JUMPDEST POP PUSH1 0x2 SLOAD PUSH1 0x1 PUSH1 0x1 PUSH1 0xA0 SHL SUB AND DUP1 EXTCODESIZE ISZERO PUSH2 0x3EB JUMPI PUSH1 0x40 MLOAD PUSH4 0xD8D6E8FF PUSH1 0xE0 SHL DUP2 MSTORE PUSH1 0x1 PUSH1 0x4 DUP3 ADD MSTORE DUP3 SWAP2 DUP3 SWAP1 DUP3 SWAP1 PUSH1 0x24 SWAP1 DUP3 SWAP1 DUP5 SWAP1 GAS CALL SWAP1 DUP2 ISZERO PUSH2 0x3F7 JUMPI DUP3 SWAP2 PUSH2 0xD79 JUMPI JUMPDEST POP POP PUSH2 0xC27 JUMP JUMPDEST DUP2 PUSH2 0xD83 SWAP2 PUSH2 0x1E9B JUMP JUMPDEST PUSH2 0xD8E JUMPI DUP1 DUP4 PUSH2 0xD72 JUMP JUMPDEST REVERT JUMPDEST POP PUSH2 0xD19 JUMPI DUP1 PUSH1 0x0 PUSH2 0xC22 JUMP JUMPDEST POP PUSH2 0xD19 JUMPI DUP1 PUSH1 0x0 PUSH2 0xC1B JUMP JUMPDEST POP PUSH2 0xD19 JUMPI DUP1 PUSH1 0x0 PUSH2 0xC14 JUMP JUMPDEST PUSH4 0x4E487B71 PUSH1 0xE0 SHL DUP3 MSTORE PUSH1 0x41 PUSH1 0x4 MSTORE PUSH1 0x24 DUP3 REVERT JUMPDEST PUSH1 0x24 SWAP3 PUSH1 0x3 DUP3 LT ISZERO PUSH2 0xEC0 JUMPI PUSH1 0x20 SWAP2 PUSH1 0x1 SUB PUSH2 0xE53 JUMPI PUSH1 0x40 MLOAD PUSH4 0x77F855C9 PUSH1 0xE1 SHL DUP2 MSTORE CALLER PUSH1 0x4 DUP3 ADD MSTORE SWAP4 DUP5 SWAP2 DUP3 SWAP1 GAS STATICCALL DUP1 ISZERO PUSH2 0xCF3 JUMPI DUP2 SWAP1 PUSH2 0xE1B JUMPI JUMPDEST PUSH4 0x1B627879 PUSH1 0xE3 SHL DUP3 MSTORE PUSH1 0x4 MSTORE PUSH1 0x24 SWAP2 POP REVERT JUMPDEST POP PUSH1 0x20 DUP3 RETURNDATASIZE PUSH1 0x20 GT PUSH2 0xE4B JUMPI JUMPDEST DUP2 PUSH2 0xE35 PUSH1 0x20 SWAP4 DUP4 PUSH2 0x1E9B JUMP JUMPDEST DUP2 ADD SUB SLT PUSH2 0xE46 JUMPI PUSH1 0x24 SWAP2 MLOAD PUSH2 0xE08 JUMP JUMPDEST PUSH1 0x0 DUP1 REVERT JUMPDEST RETURNDATASIZE SWAP2 POP PUSH2 0xE28 JUMP JUMPDEST PUSH1 0x40 MLOAD PUSH4 0x1B8093B1 PUSH1 0xE1 SHL DUP2 MSTORE CALLER PUSH1 0x4 DUP3 ADD MSTORE SWAP4 DUP5 SWAP2 DUP3 SWAP1 GAS STATICCALL DUP1 ISZERO PUSH2 0xCF3 JUMPI DUP2 SWAP1 PUSH2 0xE8D JUMPI JUMPDEST PUSH4 0x147CE66F PUSH1 0xE3 SHL DUP3 MSTORE PUSH1 0x4 MSTORE PUSH1 0x24 SWAP2 POP REVERT JUMPDEST POP PUSH1 0x20 DUP3 RETURNDATASIZE PUSH1 0x20 GT PUSH2 0xEB8 JUMPI JUMPDEST DUP2 PUSH2 0xEA7 PUSH1 0x20 SWAP4 DUP4 PUSH2 0x1E9B JUMP JUMPDEST DUP2 ADD SUB SLT PUSH2 0xE46 JUMPI PUSH1 0x24 SWAP2 MLOAD PUSH2 0xE7A JUMP JUMPDEST RETURNDATASIZE SWAP2 POP PUSH2 0xE9A JUMP JUMPDEST POP POP PUSH4 0x4E487B71 PUSH1 0xE0 SHL DUP2 MSTORE PUSH1 0x21 PUSH1 0x4 MSTORE REVERT JUMPDEST SWAP2 POP POP PUSH1 0x40 DUP2 RETURNDATASIZE PUSH1 0x40 GT PUSH2 0xF15 JUMPI JUMPDEST DUP2 PUSH2 0xEEF PUSH1 0x40 SWAP4 DUP4 PUSH2 0x1E9B JUMP JUMPDEST DUP2 ADD SUB SLT PUSH2 0x3EB JUMPI PUSH1 0x20 PUSH2 0xF02 DUP3 PUSH2 0x1EBD JUMP JUMPDEST SWAP2 ADD MLOAD SWAP1 PUSH1 0x3 DUP3 LT ISZERO PUSH2 0x7FD JUMPI CODESIZE PUSH2 0xB95 JUMP JUMPDEST RETURNDATASIZE SWAP2 POP PUSH2 0xEE2 JUMP JUMPDEST PUSH3 0x1D9341 PUSH1 0xE1 SHL DUP2 MSTORE PUSH1 0x4 SWAP1 REVERT JUMPDEST PUSH4 0x54D7A6B3 PUSH1 0xE0 SHL DUP3 MSTORE PUSH1 0x4 MSTORE CALLVALUE PUSH1 0x24 MSTORE PUSH1 0x44 SWAP1 REVERT JUMPDEST PUSH4 0x647BCFA1 PUSH1 0xE0 SHL DUP3 MSTORE PUSH1 0x4 MSTORE PUSH1 0x24 SWAP1 REVERT JUMPDEST PUSH4 0x166450C9 PUSH1 0xE3 SHL DUP3 MSTORE TIMESTAMP PUSH1 0x4 MSTORE PUSH1 0x24 MSTORE PUSH1 0x44 SWAP1 REVERT JUMPDEST PUSH4 0x4CD01EFB PUSH1 0xE1 SHL DUP3 MSTORE TIMESTAMP PUSH1 0x4 MSTORE PUSH1 0x24 MSTORE PUSH1 0x44 SWAP1 REVERT JUMPDEST POP CALLVALUE PUSH2 0x190 JUMPI DUP1 PUSH1 0x3 NOT CALLDATASIZE ADD SLT PUSH2 0x190 JUMPI PUSH1 0x20 PUSH1 0x7 SLOAD PUSH1 0x40 MLOAD SWAP1 DUP2 MSTORE RETURN JUMPDEST POP CALLVALUE PUSH2 0x190 JUMPI DUP1 PUSH1 0x3 NOT CALLDATASIZE ADD SLT PUSH2 0x190 JUMPI SLOAD PUSH1 0x40 MLOAD PUSH1 0x1 PUSH1 0x1 PUSH1 0xA0 SHL SUB SWAP1 SWAP2 AND DUP2 MSTORE PUSH1 0x20 SWAP1 RETURN JUMPDEST POP CALLVALUE PUSH2 0x190 JUMPI DUP1 PUSH1 0x3 NOT CALLDATASIZE ADD SLT PUSH2 0x190 JUMPI PUSH2 0xFDD PUSH2 0x227D JUMP JUMPDEST PUSH1 0x8 DUP2 LT ISZERO PUSH2 0x30B JUMPI PUSH1 0x7 SUB PUSH2 0x114E JUMPI PUSH1 0x9 SLOAD DUP2 DUP1 JUMPDEST DUP3 DUP2 LT PUSH2 0x1106 JUMPI POP PUSH2 0x101D PUSH2 0x1007 DUP3 PUSH2 0x2061 JUMP JUMPDEST SWAP2 PUSH2 0x1015 PUSH1 0x40 MLOAD SWAP4 DUP5 PUSH2 0x1E9B JUMP JUMPDEST DUP1 DUP4 MSTORE PUSH2 0x2061 JUMP JUMPDEST PUSH1 0x20 DUP3 ADD SWAP3 SWAP1 PUSH1 0x1F NOT ADD CALLDATASIZE DUP5 CALLDATACOPY DUP4 DUP5 JUMPDEST DUP3 DUP2 LT PUSH2 0x1082 JUMPI POP POP POP SWAP1 PUSH1 0x40 MLOAD SWAP3 DUP4 SWAP3 PUSH1 0x20 DUP5 ADD SWAP1 PUSH1 0x20 DUP6 MSTORE MLOAD DUP1 SWAP2 MSTORE PUSH1 0x40 DUP5 ADD SWAP3 SWAP2 JUMPDEST DUP2 DUP2 LT PUSH2 0x1060 JUMPI POP POP POP SUB SWAP1 RETURN JUMPDEST DUP3 MLOAD PUSH1 0x1 PUSH1 0x1 PUSH1 0xA0 SHL SUB AND DUP5 MSTORE DUP6 SWAP5 POP PUSH1 0x20 SWAP4 DUP5 ADD SWAP4 SWAP1 SWAP3 ADD SWAP2 PUSH1 0x1 ADD PUSH2 0x1052 JUMP JUMPDEST PUSH2 0x108B DUP2 PUSH2 0x2079 JUMP JUMPDEST SWAP1 SLOAD PUSH1 0x3 SWAP2 SWAP1 SWAP2 SHL SHR PUSH1 0x1 PUSH1 0x1 PUSH1 0xA0 SHL SUB AND DUP7 MSTORE PUSH1 0x6 PUSH1 0x20 MSTORE PUSH1 0x40 DUP7 KECCAK256 SLOAD PUSH2 0x10B6 JUMPI JUMPDEST PUSH1 0x1 ADD PUSH2 0x102D JUMP JUMPDEST PUSH2 0x10BF DUP2 PUSH2 0x2079 JUMP JUMPDEST SWAP1 SLOAD PUSH1 0x3 SWAP2 SWAP1 SWAP2 SHL SHR PUSH1 0x1 PUSH1 0x1 PUSH1 0xA0 SHL SUB AND PUSH2 0x10DA DUP4 PUSH2 0x20AC JUMP JUMPDEST SWAP3 DUP6 MLOAD DUP2 LT ISZERO PUSH2 0x10F2 JUMPI PUSH1 0x5 SHL DUP6 ADD PUSH1 0x20 ADD MSTORE PUSH2 0x10AE JUMP JUMPDEST PUSH4 0x4E487B71 PUSH1 0xE0 SHL DUP9 MSTORE PUSH1 0x32 PUSH1 0x4 MSTORE PUSH1 0x24 DUP9 REVERT JUMPDEST PUSH2 0x110F DUP2 PUSH2 0x2079 JUMP JUMPDEST SWAP1 SLOAD PUSH1 0x3 SWAP2 SWAP1 SWAP2 SHL SHR PUSH1 0x1 PUSH1 0x1 PUSH1 0xA0 SHL SUB AND DUP5 MSTORE PUSH1 0x6 PUSH1 0x20 MSTORE PUSH1 0x40 DUP5 KECCAK256 SLOAD PUSH2 0x113A JUMPI JUMPDEST PUSH1 0x1 ADD PUSH2 0xFF3 JUMP JUMPDEST SWAP1 PUSH2 0x1146 PUSH1 0x1 SWAP2 PUSH2 0x20AC JUMP JUMPDEST SWAP2 SWAP1 POP PUSH2 0x1132 JUMP JUMPDEST PUSH1 0x40 MLOAD PUSH3 0x461BCD PUSH1 0xE5 SHL DUP2 MSTORE PUSH1 0x20 PUSH1 0x4 DUP3 ADD MSTORE PUSH1 0x1F PUSH1 0x24 DUP3 ADD MSTORE PUSH32 0x4D697373696F6E206973206E6F7420696E204661696C65642073746174757300 PUSH1 0x44 DUP3 ADD MSTORE PUSH1 0x64 SWAP1 REVERT JUMPDEST POP CALLVALUE PUSH2 0x190 JUMPI DUP1 PUSH1 0x3 NOT CALLDATASIZE ADD SLT PUSH2 0x190 JUMPI PUSH1 0x60 PUSH2 0x1E0 PUSH1 0x40 MLOAD PUSH2 0x11B5 DUP2 PUSH2 0x1E7E JUMP JUMPDEST DUP3 DUP2 MSTORE DUP4 PUSH1 0x20 DUP3 ADD MSTORE DUP4 PUSH1 0x40 DUP3 ADD MSTORE DUP4 DUP4 DUP3 ADD MSTORE DUP4 PUSH1 0x80 DUP3 ADD MSTORE DUP4 PUSH1 0xA0 DUP3 ADD MSTORE DUP4 PUSH1 0xC0 DUP3 ADD MSTORE DUP4 PUSH1 0xE0 DUP3 ADD MSTORE DUP4 PUSH2 0x100 DUP3 ADD MSTORE DUP4 PUSH2 0x120 DUP3 ADD MSTORE DUP4 PUSH2 0x140 DUP3 ADD MSTORE DUP4 PUSH2 0x160 DUP3 ADD MSTORE DUP4 PUSH2 0x180 DUP3 ADD MSTORE DUP3 PUSH2 0x1A0 DUP3 ADD MSTORE DUP4 PUSH2 0x1C0 DUP3 ADD MSTORE ADD MSTORE PUSH1 0x40 MLOAD PUSH2 0x1220 DUP2 PUSH2 0x1E7E JUMP JUMPDEST PUSH1 0x40 MLOAD PUSH1 0x9 SLOAD DUP1 DUP3 MSTORE DUP2 PUSH1 0x20 DUP2 ADD PUSH1 0x9 DUP7 MSTORE PUSH1 0x20 DUP7 KECCAK256 SWAP3 DUP7 JUMPDEST DUP2 DUP2 LT PUSH2 0x14F3 JUMPI POP POP PUSH2 0x124E SWAP3 POP SUB DUP3 PUSH2 0x1E9B JUMP JUMPDEST DUP2 MSTORE PUSH1 0xFF PUSH1 0xA SLOAD AND PUSH1 0x7 DUP2 LT ISZERO PUSH2 0x14DF JUMPI PUSH1 0x20 DUP3 ADD MSTORE PUSH1 0xB SLOAD PUSH1 0x40 DUP3 ADD MSTORE PUSH1 0xC SLOAD PUSH1 0x60 DUP3 ADD MSTORE PUSH1 0xD SLOAD PUSH1 0x80 DUP3 ADD MSTORE PUSH1 0xFF PUSH1 0xE SLOAD DUP2 DUP2 AND PUSH1 0xA0 DUP5 ADD MSTORE PUSH1 0x8 SHR AND PUSH1 0xC0 DUP3 ADD MSTORE PUSH1 0xF SLOAD PUSH1 0xE0 DUP3 ADD MSTORE PUSH1 0x10 SLOAD PUSH2 0x100 DUP3 ADD MSTORE PUSH1 0xFF PUSH1 0x11 SLOAD DUP2 DUP2 AND PUSH2 0x120 DUP5 ADD MSTORE PUSH1 0x8 SHR AND PUSH2 0x140 DUP3 ADD MSTORE PUSH1 0x12 SLOAD PUSH2 0x160 DUP3 ADD MSTORE PUSH1 0x13 SLOAD PUSH2 0x180 DUP3 ADD MSTORE PUSH1 0x14 SLOAD PUSH2 0x12D9 DUP2 PUSH2 0x2061 JUMP JUMPDEST SWAP1 PUSH2 0x12E7 PUSH1 0x40 MLOAD SWAP3 DUP4 PUSH2 0x1E9B JUMP JUMPDEST DUP1 DUP3 MSTORE PUSH1 0x14 DUP5 MSTORE DUP4 PUSH1 0x0 DUP1 MLOAD PUSH1 0x20 PUSH2 0x2C5A DUP4 CODECOPY DUP2 MLOAD SWAP2 MSTORE PUSH1 0x20 DUP5 ADD JUMPDEST DUP4 DUP4 LT PUSH2 0x14AB JUMPI POP POP POP POP PUSH2 0x1A0 DUP3 ADD MSTORE PUSH1 0x15 SLOAD PUSH2 0x1C0 DUP3 ADD MSTORE PUSH1 0x40 MLOAD PUSH1 0x16 SLOAD DUP1 DUP3 MSTORE DUP2 PUSH1 0x20 DUP2 ADD PUSH1 0x16 DUP7 MSTORE PUSH1 0x20 DUP7 KECCAK256 SWAP3 DUP7 JUMPDEST DUP2 DUP2 LT PUSH2 0x1489 JUMPI POP POP PUSH2 0x134B SWAP3 POP SUB DUP3 PUSH2 0x1E9B JUMP JUMPDEST PUSH2 0x1E0 DUP3 ADD MSTORE PUSH1 0x40 MLOAD SWAP1 PUSH1 0x20 DUP3 MSTORE PUSH2 0x1371 DUP2 MLOAD PUSH2 0x200 PUSH1 0x20 DUP6 ADD MSTORE PUSH2 0x220 DUP5 ADD SWAP1 PUSH2 0x1E02 JUMP JUMPDEST SWAP3 PUSH2 0x1384 PUSH1 0x20 DUP4 ADD MLOAD PUSH1 0x40 DUP6 ADD SWAP1 PUSH2 0x1E3F JUMP JUMPDEST PUSH1 0x40 DUP3 ADD MLOAD PUSH1 0x60 DUP5 ADD MSTORE PUSH1 0x60 DUP3 ADD MLOAD PUSH1 0x80 DUP5 ADD MSTORE PUSH1 0x80 DUP3 ADD MLOAD PUSH1 0xA0 DUP5 ADD MSTORE PUSH1 0xFF PUSH1 0xA0 DUP4 ADD MLOAD AND PUSH1 0xC0 DUP5 ADD MSTORE PUSH1 0xFF PUSH1 0xC0 DUP4 ADD MLOAD AND PUSH1 0xE0 DUP5 ADD MSTORE PUSH1 0xE0 DUP3 ADD MLOAD PUSH2 0x100 DUP5 ADD MSTORE PUSH2 0x100 DUP3 ADD MLOAD PUSH2 0x120 DUP5 ADD MSTORE PUSH1 0xFF PUSH2 0x120 DUP4 ADD MLOAD AND PUSH2 0x140 DUP5 ADD MSTORE PUSH1 0xFF PUSH2 0x140 DUP4 ADD MLOAD AND PUSH2 0x160 DUP5 ADD MSTORE PUSH2 0x160 DUP3 ADD MLOAD PUSH2 0x180 DUP5 ADD MSTORE PUSH2 0x180 DUP3 ADD MLOAD PUSH2 0x1A0 DUP5 ADD MSTORE PUSH2 0x1A0 DUP3 ADD MLOAD SWAP4 PUSH1 0x1F NOT DUP5 DUP3 SUB ADD PUSH2 0x1C0 DUP6 ADD MSTORE PUSH1 0x20 DUP1 DUP7 MLOAD SWAP3 DUP4 DUP2 MSTORE ADD SWAP6 ADD SWAP2 JUMPDEST DUP2 DUP2 LT PUSH2 0x145E JUMPI DUP5 DUP1 PUSH2 0x145A DUP9 PUSH2 0x1E0 DUP9 PUSH2 0x1C0 DUP2 ADD MLOAD DUP3 DUP7 ADD MSTORE ADD MLOAD PUSH1 0x1F NOT DUP5 DUP4 SUB ADD PUSH2 0x200 DUP6 ADD MSTORE PUSH2 0x1E02 JUMP JUMPDEST SUB SWAP1 RETURN JUMPDEST DUP3 MLOAD DUP1 MLOAD PUSH1 0x1 PUSH1 0x1 PUSH1 0xA0 SHL SUB AND DUP8 MSTORE PUSH1 0x20 SWAP1 DUP2 ADD MLOAD DUP2 DUP9 ADD MSTORE PUSH1 0x40 SWAP1 SWAP7 ADD SWAP6 SWAP1 SWAP3 ADD SWAP2 PUSH1 0x1 ADD PUSH2 0x142B JUMP JUMPDEST DUP5 SLOAD PUSH1 0x1 PUSH1 0x1 PUSH1 0xA0 SHL SUB AND DUP4 MSTORE PUSH1 0x1 SWAP5 DUP6 ADD SWAP5 DUP7 SWAP5 POP PUSH1 0x20 SWAP1 SWAP4 ADD SWAP3 ADD PUSH2 0x1336 JUMP JUMPDEST PUSH1 0x2 PUSH1 0x20 PUSH1 0x1 SWAP3 PUSH1 0x40 MLOAD PUSH2 0x14BE DUP2 PUSH2 0x1E4C JUMP JUMPDEST DUP5 DUP1 PUSH1 0xA0 SHL SUB DUP7 SLOAD AND DUP2 MSTORE DUP5 DUP7 ADD SLOAD DUP4 DUP3 ADD MSTORE DUP2 MSTORE ADD SWAP3 ADD SWAP3 ADD SWAP2 SWAP1 PUSH2 0x1303 JUMP JUMPDEST PUSH4 0x4E487B71 PUSH1 0xE0 SHL DUP4 MSTORE PUSH1 0x21 PUSH1 0x4 MSTORE PUSH1 0x24 DUP4 REVERT JUMPDEST DUP5 SLOAD PUSH1 0x1 PUSH1 0x1 PUSH1 0xA0 SHL SUB AND DUP4 MSTORE PUSH1 0x1 SWAP5 DUP6 ADD SWAP5 DUP7 SWAP5 POP PUSH1 0x20 SWAP1 SWAP4 ADD SWAP3 ADD PUSH2 0x1239 JUMP JUMPDEST POP CALLVALUE PUSH2 0x190 JUMPI DUP1 PUSH1 0x3 NOT CALLDATASIZE ADD SLT PUSH2 0x190 JUMPI PUSH2 0x152E PUSH2 0x225B JUMP JUMPDEST PUSH2 0x1536 PUSH2 0x227D JUMP JUMPDEST PUSH1 0x8 DUP2 LT ISZERO PUSH2 0x30B JUMPI PUSH1 0x4 DUP2 EQ PUSH2 0x1886 JUMPI PUSH1 0x2 NOT ADD PUSH2 0x186D JUMPI CALLER DUP2 MSTORE PUSH1 0x4 PUSH1 0x20 MSTORE PUSH1 0xFF PUSH1 0x40 DUP3 KECCAK256 SLOAD AND PUSH2 0x185E JUMPI CALLER DUP2 MSTORE PUSH1 0x3 PUSH1 0x20 MSTORE PUSH1 0xFF PUSH1 0x40 DUP3 KECCAK256 SLOAD AND ISZERO PUSH2 0x184F JUMPI PUSH1 0x11 SLOAD PUSH1 0xFF DUP2 PUSH1 0x8 SHR AND SWAP1 PUSH1 0xFF DUP2 AND DUP3 LT ISZERO PUSH2 0x1840 JUMPI PUSH1 0xF SLOAD PUSH2 0x159B DUP2 TIMESTAMP PUSH2 0x1F4B JUMP JUMPDEST SWAP1 PUSH1 0x64 DUP3 MUL SWAP2 DUP1 DUP4 DIV PUSH1 0x64 EQ SWAP1 ISZERO OR ISZERO PUSH2 0x1824 JUMPI SWAP1 PUSH2 0x15BF PUSH2 0x15C5 SWAP3 PUSH1 0x10 SLOAD PUSH2 0x1F4B JUMP JUMPDEST SWAP1 PUSH2 0x1FCC JUMP JUMPDEST PUSH1 0x14 SLOAD DUP1 ISZERO PUSH2 0x1838 JUMPI PUSH1 0x0 NOT DUP2 ADD SWAP1 DUP2 GT PUSH2 0x1824 JUMPI PUSH2 0x15E5 PUSH1 0x1 SWAP2 PUSH2 0x1FEC JUMP JUMPDEST POP ADD SLOAD SWAP1 JUMPDEST PUSH1 0x64 DUP3 MUL SWAP2 DUP1 DUP4 DIV PUSH1 0x64 EQ SWAP1 ISZERO OR ISZERO PUSH2 0x1824 JUMPI PUSH1 0x64 SWAP2 PUSH2 0x161A PUSH2 0x161F SWAP3 PUSH2 0x1614 PUSH1 0x12 SLOAD DUP1 SWAP5 PUSH2 0x1FCC JUMP JUMPDEST SWAP1 PUSH2 0x1F4B JUMP JUMPDEST PUSH2 0x1FB9 JUMP JUMPDEST DIV SWAP2 PUSH2 0x162D DUP4 PUSH1 0x13 SLOAD PUSH2 0x1F4B JUMP JUMPDEST PUSH1 0x13 SSTORE PUSH1 0xFF DUP2 EQ PUSH2 0x1810 JUMPI PUSH1 0x1 PUSH2 0xFF00 SWAP2 ADD PUSH1 0x8 SHL AND SWAP1 PUSH2 0xFF00 NOT AND OR PUSH1 0x11 SSTORE CALLER DUP3 MSTORE PUSH1 0x4 PUSH1 0x20 MSTORE PUSH1 0x40 DUP3 KECCAK256 PUSH1 0x1 PUSH1 0xFF NOT DUP3 SLOAD AND OR SWAP1 SSTORE PUSH1 0x40 MLOAD PUSH2 0x1670 DUP2 PUSH2 0x1E4C JUMP JUMPDEST CALLER DUP2 MSTORE DUP2 PUSH1 0x20 DUP3 ADD MSTORE PUSH1 0x14 SLOAD PUSH1 0x1 PUSH1 0x40 SHL DUP2 LT ISZERO PUSH2 0x17FC JUMPI DUP1 PUSH1 0x1 PUSH2 0x1698 SWAP3 ADD PUSH1 0x14 SSTORE PUSH2 0x1FEC JUMP JUMPDEST PUSH2 0x17E8 JUMPI DUP2 MLOAD DUP2 SLOAD PUSH1 0x1 PUSH1 0x1 PUSH1 0xA0 SHL SUB NOT AND PUSH1 0x1 PUSH1 0x1 PUSH1 0xA0 SHL SUB SWAP2 SWAP1 SWAP2 AND OR DUP2 SSTORE PUSH1 0x20 SWAP1 SWAP2 ADD MLOAD PUSH1 0x1 SWAP1 SWAP2 ADD SSTORE DUP2 DUP1 DUP1 DUP1 DUP5 CALLER GAS CALL PUSH2 0x16D5 PUSH2 0x2021 JUMP JUMPDEST SWAP1 ISZERO PUSH2 0x1781 JUMPI POP PUSH1 0xFF PUSH1 0x11 SLOAD DUP2 DUP2 PUSH1 0x8 SHR AND DUP1 SWAP4 PUSH1 0x13 SLOAD PUSH1 0x40 MLOAD SWAP2 DUP3 MSTORE PUSH1 0x20 DUP3 ADD MSTORE PUSH32 0xBBDD894F5E6D754C18172761A1A461095C26DE58905E706A8C33657573D40672 PUSH1 0x40 CALLER SWAP3 LOG3 AND SUB PUSH2 0x1733 JUMPI PUSH2 0x172B PUSH2 0x2380 JUMP JUMPDEST PUSH2 0x8CE PUSH2 0x2511 JUMP JUMPDEST DUP1 PUSH2 0xD19 JUMPI POP PUSH1 0x0 TIMESTAMP PUSH1 0x15 SSTORE PUSH1 0x17 SLOAD PUSH1 0xFF DUP2 PUSH1 0x8 SHR AND SWAP1 PUSH1 0x8 DUP3 LT ISZERO PUSH2 0x14DF JUMPI DUP3 PUSH1 0x4 PUSH2 0x400 SWAP4 PUSH1 0x0 DUP1 MLOAD PUSH1 0x20 PUSH2 0x2C3A DUP4 CODECOPY DUP2 MLOAD SWAP2 MSTORE PUSH1 0x20 PUSH1 0x40 MLOAD TIMESTAMP DUP2 MSTORE LOG3 POP PUSH2 0xFF00 NOT AND OR PUSH1 0x17 SSTORE PUSH2 0x8CE JUMP JUMPDEST SWAP1 PUSH1 0x40 MLOAD SWAP3 DUP4 SWAP2 PUSH4 0xD086DB43 PUSH1 0xE0 SHL DUP4 MSTORE CALLER PUSH1 0x4 DUP5 ADD MSTORE PUSH1 0x24 DUP4 ADD MSTORE PUSH1 0x60 PUSH1 0x44 DUP4 ADD MSTORE DUP3 MLOAD SWAP3 DUP4 PUSH1 0x64 DUP5 ADD MSTORE DUP2 JUMPDEST DUP5 DUP2 LT PUSH2 0x17D0 JUMPI POP POP SWAP2 PUSH1 0x84 SWAP3 DUP4 DUP3 DUP5 ADD ADD MSTORE PUSH1 0x1F DUP1 NOT SWAP2 ADD AND DUP2 ADD SUB ADD SWAP1 REVERT JUMPDEST PUSH1 0x20 DUP3 DUP3 ADD DUP2 ADD MLOAD PUSH1 0x84 DUP9 DUP5 ADD ADD MSTORE DUP7 SWAP5 POP ADD PUSH2 0x17AF JUMP JUMPDEST PUSH4 0x4E487B71 PUSH1 0xE0 SHL DUP5 MSTORE PUSH1 0x4 DUP5 SWAP1 MSTORE PUSH1 0x24 DUP5 REVERT JUMPDEST PUSH4 0x4E487B71 PUSH1 0xE0 SHL DUP5 MSTORE PUSH1 0x41 PUSH1 0x4 MSTORE PUSH1 0x24 DUP5 REVERT JUMPDEST PUSH4 0x4E487B71 PUSH1 0xE0 SHL DUP5 MSTORE PUSH1 0x11 PUSH1 0x4 MSTORE PUSH1 0x24 DUP5 REVERT JUMPDEST PUSH4 0x4E487B71 PUSH1 0xE0 SHL DUP6 MSTORE PUSH1 0x11 PUSH1 0x4 MSTORE PUSH1 0x24 DUP6 REVERT JUMPDEST POP DUP4 SWAP1 PUSH2 0x15EA JUMP JUMPDEST PUSH4 0x21B94F7B PUSH1 0xE2 SHL DUP4 MSTORE PUSH1 0x4 DUP4 REVERT JUMPDEST PUSH4 0xC394A433 PUSH1 0xE0 SHL DUP2 MSTORE PUSH1 0x4 SWAP1 REVERT JUMPDEST PUSH4 0x2AB8F89 PUSH1 0xE1 SHL DUP2 MSTORE PUSH1 0x4 SWAP1 REVERT JUMPDEST PUSH1 0xF SLOAD PUSH4 0x16F5E3B7 PUSH1 0xE2 SHL DUP3 MSTORE TIMESTAMP PUSH1 0x4 MSTORE PUSH1 0x24 MSTORE PUSH1 0x44 SWAP1 REVERT JUMPDEST PUSH1 0x24 DUP3 PUSH1 0x11 SLOAD PUSH1 0xFF DUP1 PUSH2 0x189D DUP2 DUP5 PUSH1 0x8 SHR AND PUSH2 0x1F16 JUMP JUMPDEST SWAP3 AND SWAP2 AND EQ PUSH1 0x0 EQ PUSH2 0x18D7 JUMPI PUSH2 0x18C5 PUSH1 0x3C JUMPDEST PUSH2 0x18C0 PUSH2 0xFFFF TIMESTAMP SWAP3 AND PUSH1 0x15 SLOAD PUSH2 0x1F3E JUMP JUMPDEST PUSH2 0x1F4B JUMP JUMPDEST PUSH1 0x1 PUSH3 0x269D79 PUSH1 0xE2 SHL SUB NOT DUP3 MSTORE PUSH1 0x4 MSTORE REVERT JUMPDEST PUSH2 0x18C5 PUSH2 0x12C PUSH2 0x18AF JUMP JUMPDEST POP CALLVALUE PUSH2 0x190 JUMPI DUP1 PUSH1 0x3 NOT CALLDATASIZE ADD SLT PUSH2 0x190 JUMPI PUSH2 0x18FB PUSH2 0x2737 JUMP JUMPDEST DUP1 SLOAD PUSH1 0x1 PUSH1 0x1 PUSH1 0xA0 SHL SUB NOT DUP2 AND DUP3 SSTORE DUP2 SWAP1 PUSH1 0x1 PUSH1 0x1 PUSH1 0xA0 SHL SUB AND PUSH32 0x8BE0079C531659141344CD1FD0A4F28419497F9722A3DAAFE3B4186F6B6457E0 DUP3 DUP1 LOG3 DUP1 RETURN JUMPDEST POP CALLVALUE PUSH2 0x190 JUMPI DUP1 PUSH1 0x3 NOT CALLDATASIZE ADD SLT PUSH2 0x190 JUMPI PUSH2 0x145A PUSH2 0x1958 PUSH2 0x227D JUMP JUMPDEST PUSH1 0x40 MLOAD SWAP2 DUP3 SWAP2 DUP3 PUSH2 0x1DEF JUMP JUMPDEST POP CALLVALUE PUSH2 0x190 JUMPI DUP1 PUSH1 0x3 NOT CALLDATASIZE ADD SLT PUSH2 0x190 JUMPI PUSH1 0x20 PUSH2 0x1AE PUSH2 0x1F58 JUMP JUMPDEST POP CALLVALUE PUSH2 0x190 JUMPI DUP1 PUSH1 0x3 NOT CALLDATASIZE ADD SLT PUSH2 0x190 JUMPI PUSH2 0x1998 PUSH2 0x225B JUMP JUMPDEST DUP1 SLOAD PUSH1 0x1 PUSH1 0x1 PUSH1 0xA0 SHL SUB AND CALLER EQ DUP1 ISZERO PUSH2 0x1BD1 JUMPI JUMPDEST PUSH2 0x19B5 SWAP1 PUSH2 0x1ECA JUMP JUMPDEST PUSH2 0x19BD PUSH2 0x227D JUMP JUMPDEST PUSH1 0x8 DUP2 LT ISZERO PUSH2 0x30B JUMPI PUSH1 0x6 EQ DUP1 ISZERO PUSH2 0x1BB7 JUMPI JUMPDEST ISZERO PUSH2 0x190 JUMPI SELFBALANCE DUP1 ISZERO PUSH2 0x19F3 DUP2 ISZERO PUSH2 0x19E6 DUP2 PUSH2 0x24CE JUMP JUMPDEST PUSH1 0x9 SLOAD ISZERO PUSH2 0x1BAA JUMPI PUSH2 0x24CE JUMP JUMPDEST PUSH1 0x19 DUP3 MUL SWAP1 DUP3 DUP3 DIV PUSH1 0x19 EQ OR ISZERO PUSH2 0x1B96 JUMPI PUSH1 0x64 PUSH2 0x1A12 SWAP2 DIV DUP1 SWAP3 PUSH2 0x1F4B JUMP JUMPDEST PUSH1 0x2 SLOAD PUSH1 0x40 MLOAD PUSH4 0x8DA5CB5B PUSH1 0xE0 SHL DUP2 MSTORE SWAP2 SWAP3 SWAP2 DUP5 SWAP2 PUSH1 0x20 SWAP1 DUP3 SWAP1 PUSH1 0x4 SWAP1 DUP3 SWAP1 PUSH1 0x1 PUSH1 0x1 PUSH1 0xA0 SHL SUB AND GAS STATICCALL SWAP1 DUP2 ISZERO PUSH2 0x3F7 JUMPI DUP3 SWAP2 DUP5 SWAP2 DUP4 SWAP2 PUSH2 0x1B4E JUMPI JUMPDEST POP DUP3 SWAP2 DUP3 SWAP2 PUSH1 0x1 PUSH1 0x1 PUSH1 0xA0 SHL SUB AND GAS CALL PUSH2 0x1A66 PUSH2 0x2021 JUMP JUMPDEST POP ISZERO PUSH2 0x1B11 JUMPI PUSH1 0x1 DUP1 PUSH1 0xA0 SHL SUB PUSH1 0x2 SLOAD AND DUP4 PUSH1 0xFF PUSH1 0xA SLOAD AND DUP3 EXTCODESIZE ISZERO PUSH2 0x3EB JUMPI PUSH1 0x24 PUSH2 0x1AA8 SWAP2 DUP7 PUSH1 0x40 MLOAD SWAP6 DUP7 SWAP5 DUP6 SWAP4 PUSH4 0xA9BEA789 PUSH1 0xE0 SHL DUP6 MSTORE PUSH1 0x4 DUP6 ADD SWAP1 PUSH2 0x1E3F JUMP JUMPDEST GAS CALL DUP1 ISZERO PUSH2 0x1B06 JUMPI PUSH2 0x1AF2 JUMPI JUMPDEST POP PUSH32 0xD66662C0DED9E58FD31D5E44944BCFD07FFC15E6927ECC1382E7941CB7BD24C4 PUSH1 0x40 DUP1 MLOAD DUP4 DUP2 MSTORE DUP5 PUSH1 0x20 DUP3 ADD MSTORE LOG1 PUSH1 0x7 SSTORE PUSH1 0x8 SSTORE PUSH1 0x1 DUP1 SSTORE DUP1 RETURN JUMPDEST DUP4 PUSH2 0x1AFF SWAP2 SWAP5 SWAP3 SWAP5 PUSH2 0x1E9B JUMP JUMPDEST SWAP2 CODESIZE PUSH2 0x1AB5 JUMP JUMPDEST PUSH1 0x40 MLOAD RETURNDATASIZE DUP7 DUP3 RETURNDATACOPY RETURNDATASIZE SWAP1 REVERT JUMPDEST PUSH1 0x40 MLOAD PUSH3 0x461BCD PUSH1 0xE5 SHL DUP2 MSTORE PUSH1 0x20 PUSH1 0x4 DUP3 ADD MSTORE PUSH1 0x15 PUSH1 0x24 DUP3 ADD MSTORE PUSH21 0x13DDDB995C881D1C985B9CD9995C8819985A5B1959 PUSH1 0x5A SHL PUSH1 0x44 DUP3 ADD MSTORE PUSH1 0x64 SWAP1 REVERT JUMPDEST SWAP3 POP POP POP PUSH1 0x20 DUP2 RETURNDATASIZE PUSH1 0x20 GT PUSH2 0x1B8E JUMPI JUMPDEST DUP2 PUSH2 0x1B6B PUSH1 0x20 SWAP4 DUP4 PUSH2 0x1E9B JUMP JUMPDEST DUP2 ADD SUB SLT PUSH2 0x3EB JUMPI MLOAD PUSH1 0x1 PUSH1 0x1 PUSH1 0xA0 SHL SUB DUP2 AND DUP2 SUB PUSH2 0x3EB JUMPI DUP2 SWAP1 DUP4 SWAP1 DUP3 PUSH2 0x1A4E JUMP JUMPDEST RETURNDATASIZE SWAP2 POP PUSH2 0x1B5E JUMP JUMPDEST PUSH4 0x4E487B71 PUSH1 0xE0 SHL DUP4 MSTORE PUSH1 0x11 PUSH1 0x4 MSTORE PUSH1 0x24 DUP4 REVERT JUMPDEST PUSH2 0x1BB2 PUSH2 0x242D JUMP JUMPDEST PUSH2 0x24CE JUMP JUMPDEST POP PUSH2 0x1BC0 PUSH2 0x227D JUMP JUMPDEST PUSH1 0x8 DUP2 LT ISZERO PUSH2 0x30B JUMPI PUSH1 0x7 EQ PUSH2 0x19D0 JUMP JUMPDEST POP PUSH1 0x2 SLOAD PUSH1 0x40 MLOAD PUSH4 0xB9181611 PUSH1 0xE0 SHL DUP2 MSTORE CALLER PUSH1 0x4 DUP3 ADD MSTORE SWAP1 PUSH1 0x20 SWAP1 DUP3 SWAP1 PUSH1 0x24 SWAP1 DUP3 SWAP1 PUSH1 0x1 PUSH1 0x1 PUSH1 0xA0 SHL SUB AND GAS STATICCALL DUP1 ISZERO PUSH2 0x3F7 JUMPI DUP3 SWAP1 PUSH2 0x1C12 JUMPI JUMPDEST SWAP1 POP PUSH2 0x19AC JUMP JUMPDEST POP PUSH1 0x20 DUP2 RETURNDATASIZE PUSH1 0x20 GT PUSH2 0x1C45 JUMPI JUMPDEST DUP2 PUSH2 0x1C2C PUSH1 0x20 SWAP4 DUP4 PUSH2 0x1E9B JUMP JUMPDEST DUP2 ADD SUB SLT PUSH2 0x3EB JUMPI PUSH2 0x1C40 PUSH2 0x19B5 SWAP2 PUSH2 0x1EBD JUMP JUMPDEST PUSH2 0x1C0B JUMP JUMPDEST RETURNDATASIZE SWAP2 POP PUSH2 0x1C1F JUMP JUMPDEST POP CALLVALUE PUSH2 0x190 JUMPI DUP1 PUSH1 0x3 NOT CALLDATASIZE ADD SLT PUSH2 0x190 JUMPI DUP1 SLOAD PUSH1 0x1 PUSH1 0x1 PUSH1 0xA0 SHL SUB AND CALLER EQ DUP1 ISZERO PUSH2 0x1D02 JUMPI JUMPDEST PUSH2 0x1C7B SWAP1 PUSH2 0x1ECA JUMP JUMPDEST PUSH2 0x1C83 PUSH2 0x225B JUMP JUMPDEST PUSH2 0x1C8B PUSH2 0x227D JUMP JUMPDEST PUSH1 0x8 DUP2 LT ISZERO PUSH2 0x30B JUMPI PUSH1 0x5 EQ DUP1 ISZERO PUSH2 0x1CE8 JUMPI JUMPDEST ISZERO PUSH2 0x1CAB JUMPI PUSH2 0x172B PUSH2 0x2380 JUMP JUMPDEST PUSH1 0x40 MLOAD PUSH3 0x461BCD PUSH1 0xE5 SHL DUP2 MSTORE PUSH1 0x20 PUSH1 0x4 DUP3 ADD MSTORE PUSH1 0x15 PUSH1 0x24 DUP3 ADD MSTORE PUSH21 0x135A5CDCDA5BDB881B9BDD08195B991959081E595D PUSH1 0x5A SHL PUSH1 0x44 DUP3 ADD MSTORE PUSH1 0x64 SWAP1 REVERT JUMPDEST POP PUSH2 0x1CF1 PUSH2 0x227D JUMP JUMPDEST PUSH1 0x8 DUP2 LT ISZERO PUSH2 0x30B JUMPI PUSH1 0x6 EQ PUSH2 0x1C9E JUMP JUMPDEST POP PUSH1 0x2 SLOAD PUSH1 0x40 MLOAD PUSH4 0xB9181611 PUSH1 0xE0 SHL DUP2 MSTORE CALLER PUSH1 0x4 DUP3 ADD MSTORE SWAP1 PUSH1 0x20 SWAP1 DUP3 SWAP1 PUSH1 0x24 SWAP1 DUP3 SWAP1 PUSH1 0x1 PUSH1 0x1 PUSH1 0xA0 SHL SUB AND GAS STATICCALL DUP1 ISZERO PUSH2 0x3F7 JUMPI DUP3 SWAP1 PUSH2 0x1D43 JUMPI JUMPDEST SWAP1 POP PUSH2 0x1C72 JUMP JUMPDEST POP PUSH1 0x20 DUP2 RETURNDATASIZE PUSH1 0x20 GT PUSH2 0x1D76 JUMPI JUMPDEST DUP2 PUSH2 0x1D5D PUSH1 0x20 SWAP4 DUP4 PUSH2 0x1E9B JUMP JUMPDEST DUP2 ADD SUB SLT PUSH2 0x3EB JUMPI PUSH2 0x1D71 PUSH2 0x1C7B SWAP2 PUSH2 0x1EBD JUMP JUMPDEST PUSH2 0x1D3C JUMP JUMPDEST RETURNDATASIZE SWAP2 POP PUSH2 0x1D50 JUMP JUMPDEST POP CALLVALUE PUSH2 0x190 JUMPI PUSH1 0x20 CALLDATASIZE PUSH1 0x3 NOT ADD SLT PUSH2 0x190 JUMPI PUSH1 0x20 SWAP1 PUSH1 0xFF SWAP1 PUSH1 0x40 SWAP1 PUSH1 0x1 PUSH1 0x1 PUSH1 0xA0 SHL SUB PUSH2 0x1DA9 PUSH2 0x1DD9 JUMP JUMPDEST AND DUP2 MSTORE PUSH1 0x3 DUP5 MSTORE KECCAK256 SLOAD AND PUSH1 0x40 MLOAD SWAP1 ISZERO ISZERO DUP2 MSTORE RETURN JUMPDEST SWAP1 POP CALLVALUE PUSH2 0x3EB JUMPI DUP2 PUSH1 0x3 NOT CALLDATASIZE ADD SLT PUSH2 0x3EB JUMPI PUSH1 0x20 SWAP1 PUSH1 0x8 SLOAD DUP2 MSTORE RETURN JUMPDEST PUSH1 0x4 CALLDATALOAD SWAP1 PUSH1 0x1 PUSH1 0x1 PUSH1 0xA0 SHL SUB DUP3 AND DUP3 SUB PUSH2 0xE46 JUMPI JUMP JUMPDEST SWAP2 SWAP1 PUSH1 0x20 DUP4 ADD SWAP3 PUSH1 0x8 DUP3 LT ISZERO PUSH2 0xD03 JUMPI MSTORE JUMP JUMPDEST SWAP1 PUSH1 0x20 DUP1 DUP4 MLOAD SWAP3 DUP4 DUP2 MSTORE ADD SWAP3 ADD SWAP1 PUSH1 0x0 JUMPDEST DUP2 DUP2 LT PUSH2 0x1E20 JUMPI POP POP POP SWAP1 JUMP JUMPDEST DUP3 MLOAD PUSH1 0x1 PUSH1 0x1 PUSH1 0xA0 SHL SUB AND DUP5 MSTORE PUSH1 0x20 SWAP4 DUP5 ADD SWAP4 SWAP1 SWAP3 ADD SWAP2 PUSH1 0x1 ADD PUSH2 0x1E13 JUMP JUMPDEST SWAP1 PUSH1 0x7 DUP3 LT ISZERO PUSH2 0xD03 JUMPI MSTORE JUMP JUMPDEST PUSH1 0x40 DUP2 ADD SWAP1 DUP2 LT PUSH8 0xFFFFFFFFFFFFFFFF DUP3 GT OR PUSH2 0x1E68 JUMPI PUSH1 0x40 MSTORE JUMP JUMPDEST PUSH4 0x4E487B71 PUSH1 0xE0 SHL PUSH1 0x0 MSTORE PUSH1 0x41 PUSH1 0x4 MSTORE PUSH1 0x24 PUSH1 0x0 REVERT JUMPDEST PUSH2 0x200 DUP2 ADD SWAP1 DUP2 LT PUSH8 0xFFFFFFFFFFFFFFFF DUP3 GT OR PUSH2 0x1E68 JUMPI PUSH1 0x40 MSTORE JUMP JUMPDEST SWAP1 PUSH1 0x1F DUP1 NOT SWAP2 ADD AND DUP2 ADD SWAP1 DUP2 LT PUSH8 0xFFFFFFFFFFFFFFFF DUP3 GT OR PUSH2 0x1E68 JUMPI PUSH1 0x40 MSTORE JUMP JUMPDEST MLOAD SWAP1 DUP2 ISZERO ISZERO DUP3 SUB PUSH2 0xE46 JUMPI JUMP JUMPDEST ISZERO PUSH2 0x1ED1 JUMPI JUMP JUMPDEST PUSH1 0x40 MLOAD PUSH3 0x461BCD PUSH1 0xE5 SHL DUP2 MSTORE PUSH1 0x20 PUSH1 0x4 DUP3 ADD MSTORE PUSH1 0x17 PUSH1 0x24 DUP3 ADD MSTORE PUSH32 0x4E6F74206F776E6572206F7220617574686F72697A6564000000000000000000 PUSH1 0x44 DUP3 ADD MSTORE PUSH1 0x64 SWAP1 REVERT JUMPDEST PUSH1 0xFF PUSH1 0x1 SWAP2 AND ADD SWAP1 PUSH1 0xFF DUP3 GT PUSH2 0x1F28 JUMPI JUMP JUMPDEST PUSH4 0x4E487B71 PUSH1 0xE0 SHL PUSH1 0x0 MSTORE PUSH1 0x11 PUSH1 0x4 MSTORE PUSH1 0x24 PUSH1 0x0 REVERT JUMPDEST SWAP2 SWAP1 DUP3 ADD DUP1 SWAP3 GT PUSH2 0x1F28 JUMPI JUMP JUMPDEST SWAP2 SWAP1 DUP3 SUB SWAP2 DUP3 GT PUSH2 0x1F28 JUMPI JUMP JUMPDEST PUSH2 0x1F60 PUSH2 0x227D JUMP JUMPDEST PUSH1 0x8 DUP2 LT ISZERO PUSH2 0xD03 JUMPI PUSH1 0x4 SUB PUSH2 0x1FB4 JUMPI PUSH1 0x11 SLOAD PUSH1 0xFF DUP1 PUSH2 0x1F84 DUP2 DUP5 PUSH1 0x8 SHR AND PUSH2 0x1F16 JUMP JUMPDEST SWAP3 AND SWAP2 AND EQ PUSH1 0x0 EQ PUSH2 0x1FA9 JUMPI PUSH2 0x1FA6 PUSH1 0x3C PUSH2 0x18C0 PUSH2 0xFFFF TIMESTAMP SWAP3 AND PUSH1 0x15 SLOAD PUSH2 0x1F3E JUMP JUMPDEST SWAP1 JUMP JUMPDEST PUSH2 0x1FA6 PUSH2 0x12C PUSH2 0x18AF JUMP JUMPDEST PUSH1 0x0 SWAP1 JUMP JUMPDEST DUP2 DUP2 MUL SWAP3 SWAP2 DUP2 ISZERO SWAP2 DUP5 DIV EQ OR ISZERO PUSH2 0x1F28 JUMPI JUMP JUMPDEST DUP2 ISZERO PUSH2 0x1FD6 JUMPI DIV SWAP1 JUMP JUMPDEST PUSH4 0x4E487B71 PUSH1 0xE0 SHL PUSH1 0x0 MSTORE PUSH1 0x12 PUSH1 0x4 MSTORE PUSH1 0x24 PUSH1 0x0 REVERT JUMPDEST PUSH1 0x14 SLOAD DUP2 LT ISZERO PUSH2 0x200B JUMPI PUSH1 0x14 PUSH1 0x0 MSTORE PUSH1 0x20 PUSH1 0x0 KECCAK256 SWAP1 PUSH1 0x1 SHL ADD SWAP1 PUSH1 0x0 SWAP1 JUMP JUMPDEST PUSH4 0x4E487B71 PUSH1 0xE0 SHL PUSH1 0x0 MSTORE PUSH1 0x32 PUSH1 0x4 MSTORE PUSH1 0x24 PUSH1 0x0 REVERT JUMPDEST RETURNDATASIZE ISZERO PUSH2 0x205C JUMPI RETURNDATASIZE SWAP1 PUSH8 0xFFFFFFFFFFFFFFFF DUP3 GT PUSH2 0x1E68 JUMPI PUSH1 0x40 MLOAD SWAP2 PUSH2 0x2050 PUSH1 0x1F DUP3 ADD PUSH1 0x1F NOT AND PUSH1 0x20 ADD DUP5 PUSH2 0x1E9B JUMP JUMPDEST DUP3 MSTORE RETURNDATASIZE PUSH1 0x0 PUSH1 0x20 DUP5 ADD RETURNDATACOPY JUMP JUMPDEST PUSH1 0x60 SWAP1 JUMP JUMPDEST PUSH8 0xFFFFFFFFFFFFFFFF DUP2 GT PUSH2 0x1E68 JUMPI PUSH1 0x5 SHL PUSH1 0x20 ADD SWAP1 JUMP JUMPDEST PUSH1 0x9 SLOAD DUP2 LT ISZERO PUSH2 0x200B JUMPI PUSH1 0x9 PUSH1 0x0 MSTORE PUSH1 0x20 PUSH1 0x0 KECCAK256 ADD SWAP1 PUSH1 0x0 SWAP1 JUMP JUMPDEST DUP1 SLOAD DUP3 LT ISZERO PUSH2 0x200B JUMPI PUSH1 0x0 MSTORE PUSH1 0x20 PUSH1 0x0 KECCAK256 ADD SWAP1 PUSH1 0x0 SWAP1 JUMP JUMPDEST PUSH1 0x0 NOT DUP2 EQ PUSH2 0x1F28 JUMPI PUSH1 0x1 ADD SWAP1 JUMP JUMPDEST PUSH2 0x20C3 PUSH2 0x227D JUMP JUMPDEST PUSH1 0x8 DUP2 LT ISZERO PUSH2 0xD03 JUMPI PUSH1 0x3 DUP2 EQ SWAP1 DUP2 ISZERO PUSH2 0x20FB JUMPI JUMPDEST POP PUSH2 0x20E2 JUMPI PUSH1 0x0 SWAP1 JUMP JUMPDEST PUSH1 0x11 SLOAD PUSH1 0xFF DUP1 DUP3 PUSH1 0x8 SHR AND SWAP2 AND SUB PUSH1 0xFF DUP2 GT PUSH2 0x1F28 JUMPI SWAP1 JUMP JUMPDEST PUSH1 0x4 SWAP2 POP EQ CODESIZE PUSH2 0x20D8 JUMP JUMPDEST PUSH2 0x210E PUSH2 0x227D JUMP JUMPDEST PUSH1 0x8 DUP2 LT ISZERO PUSH2 0xD03 JUMPI PUSH1 0x3 DUP2 EQ ISZERO SWAP1 DUP2 PUSH2 0x2208 JUMPI JUMPDEST POP PUSH2 0x2202 JUMPI PUSH1 0x1 PUSH1 0x1 PUSH1 0xA0 SHL SUB AND PUSH1 0x0 DUP2 DUP2 MSTORE PUSH1 0x3 PUSH1 0x20 MSTORE PUSH1 0x40 SWAP1 KECCAK256 SLOAD PUSH1 0xFF AND ISZERO PUSH2 0x2202 JUMPI PUSH1 0x0 MSTORE PUSH1 0x4 PUSH1 0x20 MSTORE PUSH1 0xFF PUSH1 0x40 PUSH1 0x0 KECCAK256 SLOAD AND PUSH2 0x1FB4 JUMPI PUSH1 0xF SLOAD DUP1 TIMESTAMP LT PUSH2 0x2202 JUMPI PUSH1 0x10 SLOAD DUP1 TIMESTAMP LT ISZERO PUSH2 0x21FB JUMPI PUSH2 0x217C DUP3 TIMESTAMP PUSH2 0x1F4B JUMP JUMPDEST SWAP1 PUSH1 0x64 DUP3 MUL SWAP2 DUP1 DUP4 DIV PUSH1 0x64 EQ SWAP1 ISZERO OR ISZERO PUSH2 0x1F28 JUMPI PUSH2 0x219D SWAP3 PUSH2 0x15BF SWAP2 PUSH2 0x1F4B JUMP JUMPDEST PUSH1 0x14 SLOAD PUSH1 0x0 DUP2 ISZERO PUSH2 0x21F3 JUMPI POP PUSH1 0x0 NOT DUP2 ADD SWAP1 DUP2 GT PUSH2 0x1F28 JUMPI PUSH2 0x21C0 PUSH1 0x1 SWAP2 PUSH2 0x1FEC JUMP JUMPDEST POP ADD SLOAD SWAP1 JUMPDEST PUSH1 0x64 DUP3 MUL SWAP2 DUP1 DUP4 DIV PUSH1 0x64 EQ SWAP1 ISZERO OR ISZERO PUSH2 0x1F28 JUMPI PUSH1 0x64 SWAP2 PUSH2 0x161A PUSH2 0x21EF SWAP3 PUSH2 0x1614 PUSH1 0x12 SLOAD DUP1 SWAP5 PUSH2 0x1FCC JUMP JUMPDEST DIV SWAP1 JUMP JUMPDEST SWAP1 POP SWAP1 PUSH2 0x21C5 JUMP JUMPDEST POP POP PUSH1 0x0 SWAP1 JUMP JUMPDEST POP PUSH1 0x0 SWAP1 JUMP JUMPDEST PUSH1 0x4 SWAP2 POP EQ ISZERO CODESIZE PUSH2 0x2123 JUMP JUMPDEST PUSH1 0xF SLOAD DUP1 TIMESTAMP LT PUSH2 0x2202 JUMPI PUSH1 0x10 SLOAD DUP1 TIMESTAMP LT ISZERO PUSH2 0x2254 JUMPI PUSH2 0x2233 DUP3 TIMESTAMP PUSH2 0x1F4B JUMP JUMPDEST SWAP1 PUSH1 0x64 DUP3 MUL SWAP2 DUP1 DUP4 DIV PUSH1 0x64 EQ SWAP1 ISZERO OR ISZERO PUSH2 0x1F28 JUMPI PUSH2 0x1FA6 SWAP3 PUSH2 0x15BF SWAP2 PUSH2 0x1F4B JUMP JUMPDEST POP POP PUSH1 0x64 SWAP1 JUMP JUMPDEST PUSH1 0x2 PUSH1 0x1 SLOAD EQ PUSH2 0x226C JUMPI PUSH1 0x2 PUSH1 0x1 SSTORE JUMP JUMPDEST PUSH4 0x3EE5AEB5 PUSH1 0xE0 SHL PUSH1 0x0 MSTORE PUSH1 0x4 PUSH1 0x0 REVERT JUMPDEST PUSH1 0xFF PUSH1 0x17 SLOAD PUSH1 0x8 SHR AND PUSH1 0x8 DUP2 LT ISZERO PUSH2 0xD03 JUMPI PUSH1 0x6 DUP2 EQ DUP1 ISZERO PUSH2 0x2376 JUMPI JUMPDEST PUSH2 0x1FA6 JUMPI POP PUSH1 0xB SLOAD TIMESTAMP LT PUSH2 0x1FB4 JUMPI PUSH1 0xC SLOAD TIMESTAMP GT ISZERO PUSH2 0x2371 JUMPI PUSH1 0x9 SLOAD PUSH1 0xFF PUSH1 0xE SLOAD AND GT PUSH2 0x236C JUMPI PUSH1 0xF SLOAD TIMESTAMP LT PUSH2 0x2367 JUMPI PUSH1 0x10 SLOAD TIMESTAMP LT ISZERO PUSH2 0x233D JUMPI PUSH1 0x11 SLOAD PUSH1 0xFF DUP1 DUP3 PUSH1 0x8 SHR AND SWAP2 AND DUP1 DUP3 LT ISZERO PUSH2 0x2336 JUMPI PUSH1 0x15 SLOAD SWAP1 DUP2 PUSH2 0x22F9 JUMPI POP POP POP PUSH1 0x3 SWAP1 JUMP JUMPDEST PUSH1 0xFF PUSH2 0x2307 PUSH2 0x231A SWAP5 PUSH2 0x1F16 JUMP JUMPDEST AND SUB PUSH2 0x232B JUMPI PUSH2 0xFFFF PUSH1 0x3C JUMPDEST AND SWAP1 PUSH2 0x1F3E JUMP JUMPDEST TIMESTAMP LT ISZERO PUSH2 0x2326 JUMPI PUSH1 0x4 SWAP1 JUMP JUMPDEST PUSH1 0x3 SWAP1 JUMP JUMPDEST PUSH2 0xFFFF PUSH2 0x12C PUSH2 0x2313 JUMP JUMPDEST POP POP PUSH1 0x6 SWAP1 JUMP JUMPDEST PUSH1 0x11 SLOAD PUSH1 0xFF DUP2 PUSH1 0x8 SHR AND SWAP1 DUP2 ISZERO PUSH2 0x2360 JUMPI PUSH1 0xFF AND GT PUSH2 0x235B JUMPI PUSH1 0x6 SWAP1 JUMP JUMPDEST PUSH1 0x5 SWAP1 JUMP JUMPDEST POP POP PUSH1 0x7 SWAP1 JUMP JUMPDEST PUSH1 0x2 SWAP1 JUMP JUMPDEST PUSH1 0x7 SWAP1 JUMP JUMPDEST PUSH1 0x1 SWAP1 JUMP JUMPDEST POP PUSH1 0x7 DUP2 EQ PUSH2 0x229A JUMP JUMPDEST PUSH1 0x2 SLOAD PUSH1 0x0 SWAP1 PUSH1 0x1 PUSH1 0x1 PUSH1 0xA0 SHL SUB AND DUP1 EXTCODESIZE ISZERO PUSH2 0xE46 JUMPI PUSH1 0x40 MLOAD PUSH4 0xD8D6E8FF PUSH1 0xE0 SHL DUP2 MSTORE PUSH1 0x6 PUSH1 0x4 DUP3 ADD MSTORE SWAP1 PUSH1 0x0 SWAP1 DUP3 SWAP1 PUSH1 0x24 SWAP1 DUP3 SWAP1 DUP5 SWAP1 GAS CALL DUP1 ISZERO PUSH2 0x2421 JUMPI PUSH2 0x240C JUMPI JUMPDEST POP DUP1 PUSH2 0xD19 JUMPI POP PUSH1 0x17 SLOAD PUSH1 0xFF DUP2 PUSH1 0x8 SHR AND SWAP1 PUSH1 0x8 DUP3 LT ISZERO PUSH2 0xD03 JUMPI PUSH2 0x600 SWAP2 PUSH1 0x6 PUSH1 0x0 SWAP2 PUSH1 0x0 DUP1 MLOAD PUSH1 0x20 PUSH2 0x2C3A DUP4 CODECOPY DUP2 MLOAD SWAP2 MSTORE PUSH1 0x20 PUSH1 0x40 MLOAD TIMESTAMP DUP2 MSTORE LOG3 POP PUSH2 0xFF00 NOT AND OR PUSH1 0x17 SSTORE JUMP JUMPDEST PUSH2 0x2419 SWAP2 POP PUSH1 0x0 SWAP1 PUSH2 0x1E9B JUMP JUMPDEST PUSH1 0x0 CODESIZE PUSH2 0x23C4 JUMP JUMPDEST PUSH1 0x40 MLOAD RETURNDATASIZE PUSH1 0x0 DUP3 RETURNDATACOPY RETURNDATASIZE SWAP1 REVERT JUMPDEST PUSH1 0x2 SLOAD PUSH1 0x0 SWAP1 PUSH1 0x1 PUSH1 0x1 PUSH1 0xA0 SHL SUB AND DUP1 EXTCODESIZE ISZERO PUSH2 0xE46 JUMPI PUSH1 0x40 MLOAD PUSH4 0xD8D6E8FF PUSH1 0xE0 SHL DUP2 MSTORE PUSH1 0x7 PUSH1 0x4 DUP3 ADD MSTORE SWAP1 PUSH1 0x0 SWAP1 DUP3 SWAP1 PUSH1 0x24 SWAP1 DUP3 SWAP1 DUP5 SWAP1 GAS CALL DUP1 ISZERO PUSH2 0x2421 JUMPI PUSH2 0x24B9 JUMPI JUMPDEST POP DUP1 PUSH2 0xD19 JUMPI POP PUSH1 0x17 SLOAD PUSH1 0xFF DUP2 PUSH1 0x8 SHR AND SWAP1 PUSH1 0x8 DUP3 LT ISZERO PUSH2 0xD03 JUMPI PUSH2 0x700 SWAP2 PUSH1 0x7 PUSH1 0x0 SWAP2 PUSH1 0x0 DUP1 MLOAD PUSH1 0x20 PUSH2 0x2C3A DUP4 CODECOPY DUP2 MLOAD SWAP2 MSTORE PUSH1 0x20 PUSH1 0x40 MLOAD TIMESTAMP DUP2 MSTORE LOG3 POP PUSH2 0xFF00 NOT AND OR PUSH1 0x17 SSTORE JUMP JUMPDEST PUSH2 0x24C6 SWAP2 POP PUSH1 0x0 SWAP1 PUSH2 0x1E9B JUMP JUMPDEST PUSH1 0x0 CODESIZE PUSH2 0x2471 JUMP JUMPDEST ISZERO PUSH2 0x24D5 JUMPI JUMP JUMPDEST PUSH1 0x40 MLOAD PUSH3 0x461BCD PUSH1 0xE5 SHL DUP2 MSTORE PUSH1 0x20 PUSH1 0x4 DUP3 ADD MSTORE PUSH1 0x14 PUSH1 0x24 DUP3 ADD MSTORE PUSH20 0x4E6F2066756E647320746F207769746864726177 PUSH1 0x60 SHL PUSH1 0x44 DUP3 ADD MSTORE PUSH1 0x64 SWAP1 REVERT JUMPDEST PUSH1 0x0 SWAP1 PUSH2 0x251C PUSH2 0x227D JUMP JUMPDEST PUSH1 0x8 DUP2 LT ISZERO PUSH2 0x14DF JUMPI PUSH1 0x6 EQ DUP1 ISZERO PUSH2 0x271D JUMPI JUMPDEST ISZERO PUSH2 0x3EB JUMPI SELFBALANCE SWAP2 PUSH2 0x2541 DUP4 ISZERO ISZERO PUSH2 0x24CE JUMP JUMPDEST PUSH1 0x9 SLOAD ISZERO PUSH2 0x2710 JUMPI JUMPDEST POP PUSH1 0x0 DUP1 DUP2 PUSH1 0x9 SLOAD JUMPDEST DUP1 DUP3 LT PUSH2 0x26D7 JUMPI POP POP DUP4 PUSH2 0x256E SWAP3 SWAP4 SWAP5 DUP3 GT PUSH2 0x26CF JUMPI PUSH2 0x1F4B JUMP JUMPDEST DUP1 ISZERO PUSH2 0x257A DUP2 ISZERO PUSH2 0x24CE JUMP JUMPDEST PUSH1 0x19 DUP3 MUL SWAP1 DUP3 DUP3 DIV PUSH1 0x19 EQ OR ISZERO PUSH2 0x1B96 JUMPI PUSH1 0x64 PUSH2 0x2599 SWAP2 DIV DUP1 SWAP3 PUSH2 0x1F4B JUMP JUMPDEST PUSH1 0x2 SLOAD PUSH1 0x40 MLOAD PUSH4 0x8DA5CB5B PUSH1 0xE0 SHL DUP2 MSTORE SWAP2 SWAP4 SWAP2 SWAP1 PUSH1 0x20 SWAP1 DUP3 SWAP1 PUSH1 0x4 SWAP1 DUP3 SWAP1 PUSH1 0x1 PUSH1 0x1 PUSH1 0xA0 SHL SUB AND GAS STATICCALL SWAP1 DUP2 ISZERO PUSH2 0x3F7 JUMPI DUP3 SWAP2 DUP5 SWAP2 DUP4 SWAP2 PUSH2 0x2687 JUMPI JUMPDEST POP DUP3 SWAP2 DUP3 SWAP2 DUP3 SWAP2 SWAP1 PUSH1 0x1 PUSH1 0x1 PUSH1 0xA0 SHL SUB AND GAS CALL PUSH2 0x25EF PUSH2 0x2021 JUMP JUMPDEST POP ISZERO PUSH2 0x1B11 JUMPI PUSH1 0x1 DUP1 PUSH1 0xA0 SHL SUB PUSH1 0x2 SLOAD AND PUSH1 0xFF PUSH1 0xA SLOAD AND DUP2 EXTCODESIZE ISZERO PUSH2 0x7FD JUMPI PUSH2 0x2631 PUSH1 0x24 DUP5 SWAP3 DUP8 PUSH1 0x40 MLOAD SWAP6 DUP7 SWAP5 DUP6 SWAP4 PUSH4 0xA9BEA789 PUSH1 0xE0 SHL DUP6 MSTORE PUSH1 0x4 DUP6 ADD SWAP1 PUSH2 0x1E3F JUMP JUMPDEST GAS CALL DUP1 ISZERO PUSH2 0x3F7 JUMPI PUSH2 0x2677 JUMPI JUMPDEST POP POP PUSH32 0xD66662C0DED9E58FD31D5E44944BCFD07FFC15E6927ECC1382E7941CB7BD24C4 PUSH1 0x40 DUP1 MLOAD DUP4 DUP2 MSTORE DUP5 PUSH1 0x20 DUP3 ADD MSTORE LOG1 PUSH1 0x7 SSTORE PUSH1 0x8 SSTORE JUMP JUMPDEST DUP2 PUSH2 0x2681 SWAP2 PUSH2 0x1E9B JUMP JUMPDEST CODESIZE PUSH2 0x263E JUMP JUMPDEST SWAP3 POP POP POP PUSH1 0x20 DUP2 RETURNDATASIZE PUSH1 0x20 GT PUSH2 0x26C7 JUMPI JUMPDEST DUP2 PUSH2 0x26A4 PUSH1 0x20 SWAP4 DUP4 PUSH2 0x1E9B JUMP JUMPDEST DUP2 ADD SUB SLT PUSH2 0x3EB JUMPI MLOAD PUSH1 0x1 PUSH1 0x1 PUSH1 0xA0 SHL SUB DUP2 AND DUP2 SUB PUSH2 0x3EB JUMPI DUP2 SWAP1 DUP4 SWAP1 DUP3 PUSH2 0x25D4 JUMP JUMPDEST RETURNDATASIZE SWAP2 POP PUSH2 0x2697 JUMP JUMPDEST SWAP1 POP DUP1 PUSH2 0x1F4B JUMP JUMPDEST SWAP1 SWAP2 PUSH2 0x2708 PUSH1 0x1 SWAP2 PUSH2 0x26E8 DUP6 PUSH2 0x2079 JUMP JUMPDEST DUP5 DUP1 PUSH1 0xA0 SHL SUB SWAP2 SLOAD SWAP1 PUSH1 0x3 SHL SHR AND DUP7 MSTORE PUSH1 0x6 PUSH1 0x20 MSTORE PUSH1 0x40 DUP7 KECCAK256 SLOAD SWAP1 PUSH2 0x1F3E JUMP JUMPDEST SWAP3 ADD SWAP1 PUSH2 0x2553 JUMP JUMPDEST PUSH2 0x2718 PUSH2 0x242D JUMP JUMPDEST PUSH2 0x254A JUMP JUMPDEST POP PUSH2 0x2726 PUSH2 0x227D JUMP JUMPDEST PUSH1 0x8 DUP2 LT ISZERO PUSH2 0x14DF JUMPI PUSH1 0x7 EQ PUSH2 0x252F JUMP JUMPDEST PUSH1 0x0 SLOAD PUSH1 0x1 PUSH1 0x1 PUSH1 0xA0 SHL SUB AND CALLER SUB PUSH2 0x274B JUMPI JUMP JUMPDEST PUSH4 0x118CDAA7 PUSH1 0xE0 SHL PUSH1 0x0 MSTORE CALLER PUSH1 0x4 MSTORE PUSH1 0x24 PUSH1 0x0 REVERT JUMPDEST PUSH1 0x0 DUP1 SLOAD PUSH1 0x1 PUSH1 0x1 PUSH1 0xA0 SHL SUB SWAP3 DUP4 AND PUSH1 0x1 PUSH1 0x1 PUSH1 0xA0 SHL SUB NOT DUP3 AND DUP2 OR DUP4 SSTORE SWAP3 AND SWAP1 PUSH32 0x8BE0079C531659141344CD1FD0A4F28419497F9722A3DAAFE3B4186F6B6457E0 SWAP1 DUP1 LOG3 JUMP JUMPDEST PUSH2 0x27AF PUSH2 0x227D JUMP JUMPDEST SWAP1 PUSH1 0x0 SWAP2 PUSH1 0x8 DUP2 LT ISZERO PUSH2 0x14DF JUMPI PUSH1 0x7 SUB PUSH2 0x2BF4 JUMPI PUSH1 0x9 SLOAD ISZERO PUSH2 0x2BB8 JUMPI PUSH1 0x1 SWAP1 DUP3 JUMPDEST PUSH1 0x9 SLOAD DUP2 LT ISZERO PUSH2 0x2908 JUMPI PUSH2 0x27E3 DUP2 PUSH2 0x2079 JUMP JUMPDEST SWAP1 SLOAD PUSH1 0x3 SWAP2 SWAP1 SWAP2 SHL SHR PUSH1 0x1 PUSH1 0x1 PUSH1 0xA0 SHL SUB AND DUP1 DUP6 MSTORE PUSH1 0x5 PUSH1 0x20 MSTORE PUSH1 0x40 DUP6 KECCAK256 SLOAD PUSH1 0xFF AND ISZERO PUSH2 0x2814 JUMPI JUMPDEST POP PUSH1 0x1 ADD PUSH2 0x27D0 JUMP JUMPDEST DUP5 DUP1 DUP1 DUP1 PUSH1 0xD SLOAD DUP6 GAS CALL PUSH2 0x2826 PUSH2 0x2021 JUMP JUMPDEST POP ISZERO PUSH2 0x28B3 JUMPI DUP1 DUP6 MSTORE PUSH1 0x5 PUSH1 0x20 MSTORE PUSH1 0x40 DUP6 KECCAK256 DUP1 SLOAD PUSH1 0xFF NOT AND PUSH1 0x1 OR SWAP1 SSTORE PUSH1 0x16 SLOAD PUSH1 0x1 PUSH1 0x40 SHL DUP2 LT ISZERO PUSH2 0x702 JUMPI SWAP1 PUSH2 0x2867 DUP3 PUSH1 0x1 DUP1 SWAP6 SWAP5 ADD PUSH1 0x16 SSTORE PUSH1 0x16 PUSH2 0x2094 JUMP JUMPDEST DUP2 SLOAD SWAP1 PUSH1 0x3 SHL SWAP1 DUP4 DUP3 SHL SWAP2 DUP7 DUP1 PUSH1 0xA0 SHL SUB SWAP1 SHL NOT AND OR SWAP1 SSTORE PUSH32 0x48D31F1C958CD44F1F83A52AE2DFAF61E88A1B82C07A6D5711A4ABEF60B6531E PUSH1 0x20 PUSH1 0xD SLOAD PUSH1 0x40 MLOAD SWAP1 DUP2 MSTORE LOG2 JUMPDEST SWAP1 PUSH2 0x280B JUMP JUMPDEST SWAP1 SWAP3 POP PUSH1 0xD SLOAD DUP2 DUP6 MSTORE PUSH1 0x6 PUSH1 0x20 MSTORE PUSH2 0x28D0 PUSH1 0x40 DUP7 KECCAK256 SWAP2 DUP3 SLOAD PUSH2 0x1F3E JUMP JUMPDEST SWAP1 SSTORE PUSH32 0xAF73B0B217208B61BE286BBC37095BCE7EB8B9CCF617244C2F0F154E8E04E3FF PUSH1 0x20 PUSH1 0xD SLOAD PUSH1 0x40 MLOAD SWAP1 DUP2 MSTORE LOG2 PUSH1 0x1 DUP4 SWAP3 PUSH2 0x28AD JUMP JUMPDEST POP SWAP2 SWAP1 PUSH2 0x2913 PUSH2 0x242D JUMP JUMPDEST SELFBALANCE PUSH2 0x29AC JUMPI JUMPDEST POP PUSH1 0x16 SLOAD SWAP1 PUSH1 0xD SLOAD SWAP1 PUSH1 0x40 MLOAD DUP1 SWAP2 DUP3 SWAP2 SWAP1 PUSH1 0x16 DUP2 MSTORE PUSH32 0xD833147D7DC355BA459FC788F669E58CFAF9DC25DDCD0702E87D69C7B5124289 SWAP1 JUMPDEST DUP7 DUP2 LT PUSH2 0x298A JUMPI POP POP SUB SWAP1 KECCAK256 SWAP2 PUSH32 0xBB93C7C839BDDD97272C8E974D54D30ADFA3AA55DF63A52F02B7192EFD361A24 PUSH1 0x20 PUSH1 0x40 MLOAD TIMESTAMP DUP2 MSTORE LOG4 JUMP JUMPDEST DUP2 SLOAD PUSH1 0x1 PUSH1 0x1 PUSH1 0xA0 SHL SUB AND DUP4 MSTORE DUP5 SWAP4 POP PUSH1 0x20 SWAP1 SWAP3 ADD SWAP2 PUSH1 0x1 SWAP2 DUP3 ADD SWAP2 ADD PUSH2 0x2951 JUMP JUMPDEST PUSH2 0x29B4 PUSH2 0x227D JUMP JUMPDEST PUSH1 0x8 DUP2 LT ISZERO PUSH2 0x14DF JUMPI PUSH1 0x6 EQ DUP1 ISZERO PUSH2 0x2B9E JUMPI JUMPDEST ISZERO PUSH2 0x3EB JUMPI SELFBALANCE SWAP1 PUSH2 0x29D9 DUP3 ISZERO ISZERO PUSH2 0x24CE JUMP JUMPDEST PUSH1 0x9 SLOAD ISZERO PUSH2 0x2B91 JUMPI JUMPDEST ISZERO PUSH2 0x2B50 JUMPI JUMPDEST DUP1 ISZERO PUSH2 0x29F4 DUP2 ISZERO PUSH2 0x24CE JUMP JUMPDEST PUSH1 0x19 DUP3 MUL SWAP1 DUP3 DUP3 DIV PUSH1 0x19 EQ OR ISZERO PUSH2 0x1B96 JUMPI PUSH1 0x64 PUSH2 0x2A13 SWAP2 DIV DUP1 SWAP3 PUSH2 0x1F4B JUMP JUMPDEST PUSH1 0x2 SLOAD PUSH1 0x40 MLOAD PUSH4 0x8DA5CB5B PUSH1 0xE0 SHL DUP2 MSTORE SWAP2 SWAP3 SWAP2 SWAP1 PUSH1 0x20 SWAP1 DUP3 SWAP1 PUSH1 0x4 SWAP1 DUP3 SWAP1 PUSH1 0x1 PUSH1 0x1 PUSH1 0xA0 SHL SUB AND GAS STATICCALL SWAP1 DUP2 ISZERO PUSH2 0x1B06 JUMPI DUP5 SWAP2 DUP4 SWAP2 DUP4 SWAP2 PUSH2 0x2B08 JUMPI JUMPDEST POP DUP3 SWAP2 DUP3 SWAP2 DUP3 SWAP2 SWAP1 PUSH1 0x1 PUSH1 0x1 PUSH1 0xA0 SHL SUB AND GAS CALL PUSH2 0x2A69 PUSH2 0x2021 JUMP JUMPDEST POP ISZERO PUSH2 0x1B11 JUMPI PUSH1 0x1 DUP1 PUSH1 0xA0 SHL SUB PUSH1 0x2 SLOAD AND PUSH1 0xFF PUSH1 0xA SLOAD AND DUP2 EXTCODESIZE ISZERO PUSH2 0x7F5 JUMPI PUSH2 0x2AAB PUSH1 0x24 DUP7 SWAP3 DUP7 PUSH1 0x40 MLOAD SWAP6 DUP7 SWAP5 DUP6 SWAP4 PUSH4 0xA9BEA789 PUSH1 0xE0 SHL DUP6 MSTORE PUSH1 0x4 DUP6 ADD SWAP1 PUSH2 0x1E3F JUMP JUMPDEST GAS CALL DUP1 ISZERO PUSH2 0x1B06 JUMPI PUSH2 0x2AF4 JUMPI JUMPDEST POP PUSH32 0xD66662C0DED9E58FD31D5E44944BCFD07FFC15E6927ECC1382E7941CB7BD24C4 PUSH1 0x40 DUP1 MLOAD DUP4 DUP2 MSTORE DUP5 PUSH1 0x20 DUP3 ADD MSTORE LOG1 PUSH1 0x7 SSTORE PUSH1 0x8 SSTORE CODESIZE PUSH2 0x2919 JUMP JUMPDEST DUP4 PUSH2 0x2B01 SWAP2 SWAP5 SWAP3 SWAP5 PUSH2 0x1E9B JUMP JUMPDEST SWAP2 CODESIZE PUSH2 0x2AB8 JUMP JUMPDEST SWAP3 POP POP POP PUSH1 0x20 DUP2 RETURNDATASIZE PUSH1 0x20 GT PUSH2 0x2B48 JUMPI JUMPDEST DUP2 PUSH2 0x2B25 PUSH1 0x20 SWAP4 DUP4 PUSH2 0x1E9B JUMP JUMPDEST DUP2 ADD SUB SLT PUSH2 0x7F9 JUMPI MLOAD PUSH1 0x1 PUSH1 0x1 PUSH1 0xA0 SHL SUB DUP2 AND DUP2 SUB PUSH2 0x7F9 JUMPI DUP4 SWAP1 DUP3 SWAP1 DUP3 PUSH2 0x2A4E JUMP JUMPDEST RETURNDATASIZE SWAP2 POP PUSH2 0x2B18 JUMP JUMPDEST SWAP2 SWAP1 DUP1 DUP2 PUSH1 0x9 SLOAD JUMPDEST DUP1 DUP3 LT PUSH2 0x2B78 JUMPI POP POP DUP4 PUSH2 0x2B73 SWAP3 SWAP4 SWAP5 DUP3 GT PUSH2 0x26CF JUMPI PUSH2 0x1F4B JUMP JUMPDEST PUSH2 0x29E8 JUMP JUMPDEST SWAP1 SWAP2 PUSH2 0x2B89 PUSH1 0x1 SWAP2 PUSH2 0x26E8 DUP6 PUSH2 0x2079 JUMP JUMPDEST SWAP3 ADD SWAP1 PUSH2 0x2B58 JUMP JUMPDEST PUSH2 0x2B99 PUSH2 0x242D JUMP JUMPDEST PUSH2 0x29E2 JUMP JUMPDEST POP PUSH2 0x2BA7 PUSH2 0x227D JUMP JUMPDEST PUSH1 0x8 DUP2 LT ISZERO PUSH2 0x14DF JUMPI PUSH1 0x7 EQ PUSH2 0x29C7 JUMP JUMPDEST PUSH1 0x40 MLOAD PUSH3 0x461BCD PUSH1 0xE5 SHL DUP2 MSTORE PUSH1 0x20 PUSH1 0x4 DUP3 ADD MSTORE PUSH1 0x14 PUSH1 0x24 DUP3 ADD MSTORE PUSH20 0x139BC81C1B185E595C9CC81D1BC81C99599D5B99 PUSH1 0x62 SHL PUSH1 0x44 DUP3 ADD MSTORE PUSH1 0x64 SWAP1 REVERT JUMPDEST PUSH1 0x40 MLOAD PUSH3 0x461BCD PUSH1 0xE5 SHL DUP2 MSTORE PUSH1 0x20 PUSH1 0x4 DUP3 ADD MSTORE PUSH1 0x1C PUSH1 0x24 DUP3 ADD MSTORE PUSH32 0x4D697373696F6E206E6F7420696E204661696C65642073746174757300000000 PUSH1 0x44 DUP3 ADD MSTORE PUSH1 0x64 SWAP1 REVERT INVALID CODECOPY 0xBA PUSH3 0x8632D4 DUP13 GASLIMIT 0xC7 CREATE2 PUSH3 0xC07DB2 EXP PREVRANDAO 0xCF PUSH9 0x423691D5D79B20F87B 0xA8 COINBASE CODESIZE 0xAE 0xDF 0xCE PUSH14 0x7B5282BD9A3661AE061FEED1DBDA 0x4E MSTORE 0xAB SMOD EXTCODESIZE 0x1F SWAP3 DUP6 0xBE PUSH15 0x155D9C38D4ECA26469706673582212 KECCAK256 LOG3 JUMPI COINBASE 0x2D MOD SUB 0xDB PUSH0 POP PUSH29 0x37F0FAECB075A57D8387CC725F62BD9A816970AE703864736F6C634300 ADDMOD 0x1E STOP CALLER "},"methodIdentifiers":{"callRound()":"7475a4cb","checkMissionStartCondition()":"ad1ca6bf","currentProgressPct()":"fb84e12f","enrollPlayer()":"987c543a","enrolled(address)":"10eb0e0e","factoryShare()":"003e16a5","failedRefundAmounts(address)":"b2a4a5d2","forceFinalizeMission()":"12124848","getFailedRefundPlayers()":"7cf61b69","getMissionData()":"7ce17de4","getRealtimeStatus()":"68c6ba21","hasWon(address)":"a52b2b88","increasePot()":"eb2bab77","initialize(address,address,uint8,uint256,uint256,uint256,uint8,uint8,uint256,uint256,uint8)":"c54168b3","missionFactory()":"fa4cf5a1","owner()":"8da5cb5b","ownerShare()":"8f1c3151","pendingPayout(address)":"e6810a50","playerState(address)":"fcca0c84","refundPlayers()":"98bdae43","refunded(address)":"c033a490","remainingRounds()":"a7e22a3e","renounceOwnership()":"715018a6","secondsUntilNextRound()":"5407441f","transferOwnership(address)":"f2fde38b","withdrawFunds()":"24600fc3"}}}}}