{"contracts/MissionFactory.sol":{"MissionFactory":{"abi":[{"inputs":[{"internalType":"address","name":"_impl","type":"address"}],"stateMutability":"nonpayable","type":"constructor"},{"inputs":[],"name":"FailedDeployment","type":"error"},{"inputs":[{"internalType":"uint256","name":"balance","type":"uint256"},{"internalType":"uint256","name":"needed","type":"uint256"}],"name":"InsufficientBalance","type":"error"},{"inputs":[{"internalType":"address","name":"owner","type":"address"}],"name":"OwnableInvalidOwner","type":"error"},{"inputs":[{"internalType":"address","name":"account","type":"address"}],"name":"OwnableUnauthorizedAccount","type":"error"},{"inputs":[],"name":"ReentrancyGuardReentrantCall","type":"error"},{"anonymous":false,"inputs":[{"indexed":true,"internalType":"address","name":"addr","type":"address"}],"name":"AuthorizedAddressAdded","type":"event"},{"anonymous":false,"inputs":[{"indexed":true,"internalType":"address","name":"addr","type":"address"}],"name":"AuthorizedAddressRemoved","type":"event"},{"anonymous":false,"inputs":[{"indexed":false,"internalType":"uint8","name":"newWeekly","type":"uint8"},{"indexed":false,"internalType":"uint8","name":"newMonthly","type":"uint8"}],"name":"EnrollmentLimitUpdated","type":"event"},{"anonymous":false,"inputs":[{"indexed":true,"internalType":"address","name":"user","type":"address"},{"indexed":false,"internalType":"uint256","name":"timestamp","type":"uint256"}],"name":"EnrollmentRecorded","type":"event"},{"anonymous":false,"inputs":[{"indexed":true,"internalType":"address","name":"sender","type":"address"},{"indexed":false,"internalType":"uint256","name":"amount","type":"uint256"}],"name":"FundsReceived","type":"event"},{"anonymous":false,"inputs":[{"indexed":true,"internalType":"address","name":"to","type":"address"},{"indexed":false,"internalType":"uint256","name":"amount","type":"uint256"}],"name":"FundsWithdrawn","type":"event"},{"anonymous":false,"inputs":[{"indexed":true,"internalType":"address","name":"missionAddress","type":"address"},{"indexed":true,"internalType":"enum MissionType","name":"missionType","type":"uint8"}],"name":"MissionCreated","type":"event"},{"anonymous":false,"inputs":[{"indexed":false,"internalType":"uint256","name":"amount","type":"uint256"},{"indexed":true,"internalType":"enum MissionType","name":"missionType","type":"uint8"},{"indexed":true,"internalType":"address","name":"sender","type":"address"}],"name":"MissionFundsRegistered","type":"event"},{"anonymous":false,"inputs":[{"indexed":true,"internalType":"address","name":"confirmer","type":"address"},{"indexed":false,"internalType":"address","name":"newOwner","type":"address"},{"indexed":false,"internalType":"uint256","name":"timestamp","type":"uint256"}],"name":"OwnershipTransferConfirmed","type":"event"},{"anonymous":false,"inputs":[{"indexed":true,"internalType":"address","name":"proposer","type":"address"},{"indexed":false,"internalType":"address","name":"newOwner","type":"address"},{"indexed":false,"internalType":"uint256","name":"timestamp","type":"uint256"}],"name":"OwnershipTransferProposed","type":"event"},{"anonymous":false,"inputs":[{"indexed":true,"internalType":"address","name":"previousOwner","type":"address"},{"indexed":true,"internalType":"address","name":"newOwner","type":"address"}],"name":"OwnershipTransferred","type":"event"},{"stateMutability":"payable","type":"fallback"},{"inputs":[],"name":"OWNERSHIP_PROPOSAL_WINDOW","outputs":[{"internalType":"uint256","name":"","type":"uint256"}],"stateMutability":"view","type":"function"},{"inputs":[{"internalType":"address","name":"account","type":"address"}],"name":"addAuthorizedAddress","outputs":[],"stateMutability":"nonpayable","type":"function"},{"inputs":[{"internalType":"address","name":"","type":"address"}],"name":"authorized","outputs":[{"internalType":"bool","name":"","type":"bool"}],"stateMutability":"view","type":"function"},{"inputs":[{"internalType":"address","name":"user","type":"address"}],"name":"canEnroll","outputs":[{"internalType":"bool","name":"ok","type":"bool"},{"internalType":"enum Limit","name":"breach","type":"uint8"}],"stateMutability":"view","type":"function"},{"inputs":[{"internalType":"address","name":"newOwner","type":"address"}],"name":"confirmOwnershipTransfer","outputs":[],"stateMutability":"nonpayable","type":"function"},{"inputs":[{"internalType":"enum MissionType","name":"_missionType","type":"uint8"},{"internalType":"uint256","name":"_enrollmentStart","type":"uint256"},{"internalType":"uint256","name":"_enrollmentEnd","type":"uint256"},{"internalType":"uint256","name":"_enrollmentAmount","type":"uint256"},{"internalType":"uint8","name":"_enrollmentMinPlayers","type":"uint8"},{"internalType":"uint8","name":"_enrollmentMaxPlayers","type":"uint8"},{"internalType":"uint256","name":"_missionStart","type":"uint256"},{"internalType":"uint256","name":"_missionEnd","type":"uint256"},{"internalType":"uint8","name":"_missionRounds","type":"uint8"}],"name":"createMission","outputs":[{"internalType":"address","name":"","type":"address"}],"stateMutability":"payable","type":"function"},{"inputs":[],"name":"getAllMissions","outputs":[{"internalType":"address[]","name":"","type":"address[]"},{"internalType":"enum Status[]","name":"","type":"uint8[]"}],"stateMutability":"view","type":"function"},{"inputs":[{"internalType":"enum MissionType","name":"_type","type":"uint8"}],"name":"getFundsByType","outputs":[{"internalType":"uint256","name":"","type":"uint256"}],"stateMutability":"view","type":"function"},{"inputs":[{"internalType":"uint256","name":"n","type":"uint256"}],"name":"getLatestMissions","outputs":[{"internalType":"address[]","name":"","type":"address[]"}],"stateMutability":"view","type":"function"},{"inputs":[{"internalType":"address","name":"missionAddress","type":"address"}],"name":"getMissionData","outputs":[{"components":[{"internalType":"address[]","name":"players","type":"address[]"},{"internalType":"enum MissionType","name":"missionType","type":"uint8"},{"internalType":"uint256","name":"enrollmentStart","type":"uint256"},{"internalType":"uint256","name":"enrollmentEnd","type":"uint256"},{"internalType":"uint256","name":"enrollmentAmount","type":"uint256"},{"internalType":"uint8","name":"enrollmentMinPlayers","type":"uint8"},{"internalType":"uint8","name":"enrollmentMaxPlayers","type":"uint8"},{"internalType":"uint256","name":"missionStart","type":"uint256"},{"internalType":"uint256","name":"missionEnd","type":"uint256"},{"internalType":"uint8","name":"missionRounds","type":"uint8"},{"internalType":"uint8","name":"roundCount","type":"uint8"},{"internalType":"uint256","name":"ethStart","type":"uint256"},{"internalType":"uint256","name":"ethCurrent","type":"uint256"},{"components":[{"internalType":"address","name":"player","type":"address"},{"internalType":"uint256","name":"amountWon","type":"uint256"}],"internalType":"struct Mission.PlayersWon[]","name":"playersWon","type":"tuple[]"},{"internalType":"uint256","name":"pauseTimestamp","type":"uint256"},{"internalType":"address[]","name":"refundedPlayers","type":"address[]"}],"internalType":"struct Mission.MissionData","name":"","type":"tuple"}],"stateMutability":"view","type":"function"},{"inputs":[{"internalType":"enum Status","name":"s","type":"uint8"}],"name":"getMissionsByStatus","outputs":[{"internalType":"address[]","name":"","type":"address[]"}],"stateMutability":"view","type":"function"},{"inputs":[],"name":"getMissionsEnded","outputs":[{"internalType":"address[]","name":"","type":"address[]"}],"stateMutability":"view","type":"function"},{"inputs":[],"name":"getMissionsNotEnded","outputs":[{"internalType":"address[]","name":"","type":"address[]"}],"stateMutability":"view","type":"function"},{"inputs":[{"internalType":"address","name":"player","type":"address"}],"name":"getPlayerLimits","outputs":[{"internalType":"uint8","name":"weekUsed","type":"uint8"},{"internalType":"uint8","name":"weekMax","type":"uint8"},{"internalType":"uint8","name":"monthUsed","type":"uint8"},{"internalType":"uint8","name":"monthMax","type":"uint8"},{"internalType":"uint256","name":"secToWeek","type":"uint256"},{"internalType":"uint256","name":"secToMonth","type":"uint256"}],"stateMutability":"view","type":"function"},{"inputs":[],"name":"getTotalMissions","outputs":[{"internalType":"uint256","name":"","type":"uint256"}],"stateMutability":"view","type":"function"},{"inputs":[{"internalType":"address","name":"","type":"address"}],"name":"isMission","outputs":[{"internalType":"bool","name":"","type":"bool"}],"stateMutability":"view","type":"function"},{"inputs":[],"name":"missionImplementation","outputs":[{"internalType":"address","name":"","type":"address"}],"stateMutability":"view","type":"function"},{"inputs":[{"internalType":"address","name":"","type":"address"}],"name":"missionStatus","outputs":[{"internalType":"enum Status","name":"","type":"uint8"}],"stateMutability":"view","type":"function"},{"inputs":[{"internalType":"uint256","name":"","type":"uint256"}],"name":"missions","outputs":[{"internalType":"address","name":"","type":"address"}],"stateMutability":"view","type":"function"},{"inputs":[],"name":"monthlyLimit","outputs":[{"internalType":"uint8","name":"","type":"uint8"}],"stateMutability":"view","type":"function"},{"inputs":[],"name":"owner","outputs":[{"internalType":"address","name":"","type":"address"}],"stateMutability":"view","type":"function"},{"inputs":[{"internalType":"address","name":"","type":"address"}],"name":"ownershipProposals","outputs":[{"internalType":"address","name":"proposer","type":"address"},{"internalType":"uint256","name":"timestamp","type":"uint256"}],"stateMutability":"view","type":"function"},{"inputs":[{"internalType":"address","name":"newOwner","type":"address"}],"name":"proposeOwnershipTransfer","outputs":[],"stateMutability":"nonpayable","type":"function"},{"inputs":[{"internalType":"address","name":"user","type":"address"}],"name":"recordEnrollment","outputs":[],"stateMutability":"nonpayable","type":"function"},{"inputs":[{"internalType":"enum MissionType","name":"missionType","type":"uint8"}],"name":"registerMissionFunds","outputs":[],"stateMutability":"payable","type":"function"},{"inputs":[{"internalType":"address","name":"account","type":"address"}],"name":"removeAuthorizedAddress","outputs":[],"stateMutability":"nonpayable","type":"function"},{"inputs":[],"name":"renounceOwnership","outputs":[],"stateMutability":"nonpayable","type":"function"},{"inputs":[{"internalType":"enum MissionType","name":"","type":"uint8"}],"name":"reservedFunds","outputs":[{"internalType":"uint256","name":"","type":"uint256"}],"stateMutability":"view","type":"function"},{"inputs":[],"name":"reservedFundsBreakdown","outputs":[{"internalType":"uint256[7]","name":"","type":"uint256[7]"}],"stateMutability":"view","type":"function"},{"inputs":[{"internalType":"address","name":"user","type":"address"}],"name":"secondsTillMonthlySlot","outputs":[{"internalType":"uint256","name":"","type":"uint256"}],"stateMutability":"view","type":"function"},{"inputs":[{"internalType":"address","name":"user","type":"address"}],"name":"secondsTillWeeklySlot","outputs":[{"internalType":"uint256","name":"","type":"uint256"}],"stateMutability":"view","type":"function"},{"inputs":[{"internalType":"uint8","name":"_weekly","type":"uint8"},{"internalType":"uint8","name":"_monthly","type":"uint8"}],"name":"setEnrollmentLimits","outputs":[],"stateMutability":"nonpayable","type":"function"},{"inputs":[{"internalType":"enum Status","name":"newStatus","type":"uint8"}],"name":"setMissionStatus","outputs":[],"stateMutability":"nonpayable","type":"function"},{"inputs":[],"name":"totalMissionFailures","outputs":[{"internalType":"uint256","name":"","type":"uint256"}],"stateMutability":"view","type":"function"},{"inputs":[],"name":"totalMissionFunds","outputs":[{"internalType":"uint256","name":"","type":"uint256"}],"stateMutability":"view","type":"function"},{"inputs":[],"name":"totalMissionSuccesses","outputs":[{"internalType":"uint256","name":"","type":"uint256"}],"stateMutability":"view","type":"function"},{"inputs":[],"name":"totalOwnerEarnedFunds","outputs":[{"internalType":"uint256","name":"","type":"uint256"}],"stateMutability":"view","type":"function"},{"inputs":[{"internalType":"address","name":"newOwner","type":"address"}],"name":"transferOwnership","outputs":[],"stateMutability":"nonpayable","type":"function"},{"inputs":[],"name":"weeklyLimit","outputs":[{"internalType":"uint8","name":"","type":"uint8"}],"stateMutability":"view","type":"function"},{"inputs":[{"internalType":"uint256","name":"amount","type":"uint256"}],"name":"withdrawFunds","outputs":[],"stateMutability":"nonpayable","type":"function"},{"stateMutability":"payable","type":"receive"}],"evm":{"bytecode":{"linkReferences":{},"object":"60a03461011e57601f612f2a38819003918201601f19168301916001600160401b038311848410176101235780849260209460405283398101031261011e57516001600160a01b03811680820361011e5733156101085760008054336001600160a01b0319821681178355604051939290916001600160a01b0316907f8be0079c531659141344cd1fd0a4f28419497f9722a3daafe3b4186f6b6457e09080a360018055610a0461ffff196003541617600355156100da5750608052604051612df0908161013a82396080518181816109a40152610f450152f35b62461bcd60e51b8152602060048201526009602482015268696d706c207a65726f60b81b6044820152606490fd5b631e4fbdf760e01b600052600060045260246000fd5b600080fd5b634e487b7160e01b600052604160045260246000fdfe6080806040526004361015610011575b005b600090813560e01c9081630814ab8214612395575080630a6005da14612371578063155dd5ee146121bb5780631e59d5841461207a57806320c5718f14611e1957806321040fc314611cf15780632c8fe52614611cad5780632e33b07f146107275780633589cf7214611c8f5780633701276214611bb05780633c2139571461199d57806342f1181e146118ac5780635c5bb6f21461188e57806363679723146118705780636805036d146116bf5780636d8a139014611645578063707129391461155a578063715018a6146115005780637e9eae501461146d57806383fbea511461144f578063861a68d61461142e5780638da5cb5b146114075780639804a586146113bd5780639b15953914610ea1578063a9bea78914610d2d578063aa1f059514610ceb578063b620291314610a15578063b9181611146109d3578063bd4877251461098e578063c17f9e591461075a578063c416ad2a14610727578063c892fde314610709578063cbf2080d14610572578063d3050eba14610554578063d41eca64146104a6578063d8d6e8ff1461041f578063df4db46314610398578063eff0ab921461028b578063f2fde38b146102345763fb4cdea70361000f5734610231576020366003190112610231576004356001600160a01b0381169081900361022f578152600b6020908152604091829020805460019091015483516001600160a01b0390921682529181019190915290819081015b0390f35b505b80fd5b5034610231576020366003190112610231576004356001600160a01b03811680820361028757610262612d4a565b156102735761027090612d73565b80f35b631e4fbdf760e01b82526004829052602482fd5b8280fd5b5034610231576020366003190112610231576004356001600160a01b0381169081900361022f578152600d6020526040812080548291825b82811061031357505050816102df57602091505b604051908152f35b62093a8082018092116102ff57506102fa602091429061285e565b6102d7565b634e487b7160e01b81526011600452602490fd5b61031d8183612477565b90549060031b1c62093a808101809111610384574210610340575b6001016102c3565b8415801561036b575b15610338579350600161035c8583612477565b90549060031b1c949050610338565b50846103778284612477565b90549060031b1c10610349565b634e487b7160e01b85526011600452602485fd5b503461023157806003193601126102315760e090816040516103ba8282612552565b369037604051906103cb8383612552565b82368337805b60078110156103f4576001906103e68161248f565b548160051b850152016103d1565b506040519190825b6007821061040957505050f35b60208060019285518152019301910190916103fc565b503461023157602036600319011261023157600435600881101561022f57338252600960205261045560ff604084205416612cbd565b338252600a6020526040822060ff1981541660ff83161790556006811460001461048b5750610485600654612574565b60065580f35b6007146104955780f35b6104a0600754612574565b60075580f35b50346102315760403660031901126102315760043560ff811680910361022f5760243560ff811691828203610550577f321994b8855ae38e4fd6162f7a0bd7cde88be83aa3acc96e03c17b7f733b43e19260409260018060a01b038654163314801561053b575b610516906124a8565b8261ff006003549260081b169161ffff1916171760035582519182526020820152a180f35b5033865260086020528386205460ff1661050d565b8380fd5b50346102315780600319360112610231576020604051620151808152f35b5034610231576020366003190112610231576004356001600160a01b0381169081900361022f578152600d602052604081208190829083809181908054915b82811061065e5750505060035494801560001461062c575080915b80610606575060c09460ff8092945b8160405197168752818316602088015216604086015260081c166060840152608083015260a0820152f35b9062278d0082018092116102ff575060c09460ff6106268193429061285e565b946105db565b62093a80810180911161064a5761064490429061285e565b916105cc565b634e487b7160e01b82526011600452602482fd5b6106688183612477565b90549060031b1c62278d0081018082116106e457421061068c575b506001016105b1565b9561069690612574565b9585158015610700575b6106f8575b62093a8081018082116106e45742101561068357966106c390612574565b96881580156106db575b156106835797506001610683565b508881106106cd565b634e487b7160e01b86526011600452602486fd5b9450846106a5565b508581106106a0565b50346102315780600319360112610231576020600654604051908152f35b5034610231576020366003190112610231576004359060078210156102315760206107518361248f565b54604051908152f35b5034610231576020366003190112610231576004356001600160a01b0381169081900361022f57338252600a60205260ff604083205416600881101561097a576001036109445762278cff1942019042821161093057808352600d60205260408320805492845b84811080610917575b156107dd576107d890612574565b6107c1565b8383879280610863575b50805490600160401b82101561084f578161080a91600161082294018155612477565b429082549060031b91821b91600019901b1916179055565b7f498f5e6dcf570483a1848853791046a7f10012193176d71f959f46eb7713d7446020604051428152a280f35b634e487b7160e01b84526041600452602484fd5b92805b61087185845461285e565b8110156108c157806108bb61089161088b88600195612851565b86612477565b90549060031b1c6108a28387612477565b90919082549060031b91821b91600019901b1916179055565b01610866565b5092835b8181106108d257506107e7565b825480156109035760019190600019016108ec8186612477565b8154906000199060031b1b191690558455016108c5565b634e487b7160e01b86526031600452602486fd5b50816109238285612477565b90549060031b1c106107ca565b634e487b7160e01b83526011600452602483fd5b60405162461bcd60e51b815260206004820152600e60248201526d24b73b30b634b21031b0b63632b960911b6044820152606490fd5b634e487b7160e01b83526021600452602483fd5b50346102315780600319360112610231576040517f00000000000000000000000000000000000000000000000000000000000000006001600160a01b03168152602090f35b5034610231576020366003190112610231576004356001600160a01b0381169081900361022f5760408260ff9260209452600884522054166040519015158152f35b503461023157806003193601126102315762278cff19420142811161064a5760025482835b828110610bc25750610a4b906125b1565b918390845b838110610a6d576040516020808252819061022b908201886123fc565b610a7681612446565b905460039190911b1c6001600160a01b03168652600a602052604086205460ff166008811015610bae57600614908115610b70575b81610aef575b600191610abf575b01610a50565b610ac881612446565b838060a01b0391549060031b1c16610ae9610ae286612574565b95886125e3565b52610ab9565b6004915086610afd82612446565b9054604051631f385f7960e21b81529485929091839160031b1c6001600160a01b03165afa8015610b655761010084916001948a91610b43575b50015110159150610ab1565b610b5f91503d808c833e610b578183612552565b810190612683565b38610b37565b6040513d89823e3d90fd5b9050610b7b81612446565b905460039190911b1c6001600160a01b03168652600a602052604086205460ff166008811015610bae5760071490610aab565b634e487b7160e01b87526021600452602487fd5b610bcb81612446565b905460039190911b1c6001600160a01b03168552600a602052604085205460ff166008811015610cd7576006148015610c9b575b80610c26575b610c12575b600101610a3a565b90610c1e600191612574565b919050610c0a565b50600485610c3383612446565b9054604051631f385f7960e21b81529384929091839160031b1c6001600160a01b03165afa908115610c90578591610100918891610c76575b5001511015610c05565b610c8a91503d808a833e610b578183612552565b38610c6c565b6040513d88823e3d90fd5b50610ca581612446565b905460039190911b1c6001600160a01b03168552600a602052604085205460ff166008811015610cd757600714610bff565b634e487b7160e01b86526021600452602486fd5b5034610231576020366003190112610231576004356001600160a01b0381169081900361022f5760408260ff9260209452600984522054166040519015158152f35b50602036600319011261023157600435600781101561022f573382526009602052610d5e60ff604084205416612cbd565b610d66612d28565b3415610e5d57338252600a60205260ff604083205416600881101561097a576006148015610e3b575b15610dff57610d9d8161248f565b610da8348254612851565b9055610db634600454612851565b600455610dc860033404600554612851565b600555604051903482527f606617fd09d9890413e3c46147b844d4562351f86e0f7a5c60849bbf0ef0281160203393a36001805580f35b60405162461bcd60e51b815260206004820152601460248201527321b0b63632b9103737ba10309036b4b9b9b4b7b760611b6044820152606490fd5b50338252600a60205260ff604083205416600881101561097a57600714610d8f565b606460405162461bcd60e51b815260206004820152602060248201527f416d6f756e74206d7573742062652067726561746572207468616e207a65726f6044820152fd5b5061012036600319011261023157600435600781101561022f57602435906044359160643560843560ff81168091036113b95760a43560ff81168091036113b55760c4359060e43592610104359460ff86168096036113b15789546001600160a01b03163314801561139b575b610f17906124a8565b6005861061133c578582106112d157888710156112805788841061122257838511156111de578015611185577f0000000000000000000000000000000000000000000000000000000000000000608881901c62ffffff16763d602d80600a3d3981f3363d3d373d3d3d363d73000000178b5260781b6e5af43d82803e903d91602b57fd5bf3176020526001600160a01b03603760098cf01698891561117657898b52600960205260408b20600160ff19825416179055898b52600a60205260408b2060ff19815416905560018060a01b038b5416978a3b15611172576040519863c54168b360e01b8a5260048a01523060248a015261101960448a018b612439565b6064890152608488015260a487015260c486015260e485015261010484015261012483015261014482015283816101648134875af1801561116757611153575b50600254600160401b81101561084f578060016110799201600255612446565b81546001600160a01b0360039290921b91821b19169084901b17905580827f0ac1ac89285bf936f515aafcf6808b3e062e77fd57f52c8892d20fc9409b8b538580a36110c48161248f565b5460021c9081151580611149575b6110e2575b602083604051908152f35b6110eb9061248f565b6110f682825461285e565b905582823b156102315760405163eb2bab7760e01b81529182906004908290865af1801561113e57611129575b806110d7565b611134838092612552565b61022f5781611123565b6040513d85823e3d90fd5b50814710156110d2565b8361116091949294612552565b9138611059565b6040513d86823e3d90fd5b8b80fd5b63b06ebf3d60e01b8b5260048bfd5b60405162461bcd60e51b815260206004820152602b60248201527f456e726f6c6c6d656e7420616d6f756e74206d7573742062652067726561746560448201526a72207468616e207a65726f60a81b6064820152608490fd5b606460405162461bcd60e51b815260206004820152602060248201527f4d697373696f6e207374617274206d757374206265206265666f726520656e646044820152fd5b60405162461bcd60e51b815260206004820152603060248201527f4d697373696f6e207374617274206d757374206265206f6e206f72206166746560448201526f1c88195b9c9bdb1b1b595b9d08195b9960821b6064820152608490fd5b60405162461bcd60e51b815260206004820152602360248201527f456e726f6c6c6d656e74207374617274206d757374206265206265666f726520604482015262195b9960ea1b6064820152608490fd5b60405162461bcd60e51b815260206004820152603f60248201527f4d696e696d756d20706c6179657273206d75737420626520677265617465722060448201527f7468616e206f7220657175616c20746f206d697373696f6e20726f756e6473006064820152608490fd5b60405162461bcd60e51b815260206004820152603160248201527f4d697373696f6e20726f756e6473206d7573742062652067726561746572207460448201527068616e206f7220657175616c20746f203560781b6064820152608490fd5b50338a52600860205260408a205460ff16610f0e565b8980fd5b8680fd5b8580fd5b5034610231576020366003190112610231576004356001600160a01b038116810361022f576113eb90612b3e565b6040519115158252600381101561097a57604092506020820152f35b5034610231578060031936011261023157546040516001600160a01b039091168152602090f35b5034610231578060031936011261023157602060ff60035416604051908152f35b50346102315780600319360112610231576020600754604051908152f35b503461023157602036600319011261023157600254906004358281116114f9575b611497816125b1565b91806000198501948511905b8381106114c0576040516020808252819061022b908201886123fc565b8161093057806114da6114d56001938961285e565b612446565b838060a01b0391549060031b1c166114f282886125e3565b52016114a3565b508161148e565b5034610231578060031936011261023157611519612d4a565b80546001600160a01b03198116825581906001600160a01b03167f8be0079c531659141344cd1fd0a4f28419497f9722a3daafe3b4186f6b6457e08280a380f35b5034610231576020366003190112610231576004356001600160a01b0381169081900361022f5781546001600160a01b03163314801561162f575b61159e906124a8565b6115a981151561286b565b808252600860205260ff604083205416156115f957808252600860205260408220805460ff191690557f66d5f06f711af3c9feba3203fdb00b51345d514c68585d9d319c5ff5e6f775928280a280f35b60405162461bcd60e51b815260206004820152600e60248201526d139bdd08185d5d1a1bdc9a5e995960921b6044820152606490fd5b503382526008602052604082205460ff16611595565b5034610231578060031936011261023157611678906116626128a9565b90916040519384936040855260408501906123fc565b8381036020850152602080845192838152019301915b81811061169c575050500390f35b91935091602080826116b160019488516123d9565b01940191019184939261168e565b503461023157806003193601126102315760025481825b8281106117c157506116e7906125b1565b9082835b828110611708576040516020808252819061022b908201876123fc565b61171181612446565b905460039190911b1c6001600160a01b03168552600a602052604085205460ff166008811015610cd7576006141580611784575b90600191611754575b016116eb565b61175d81612446565b838060a01b0391549060031b1c1661177e61177785612574565b94876125e3565b5261174e565b5061178e81612446565b905460039190911b1c6001600160a01b03168552600a602052604085205460ff166008811015610cd75760071415611745565b6117ca81612446565b905460039190911b1c6001600160a01b03168452600a602052604084205460ff16600881101561185c57600614158061181f575b61180b575b6001016116d6565b90611817600191612574565b919050611803565b5061182981612446565b905460039190911b1c6001600160a01b03168452600a602052604084205460ff16600881101561185c57600714156117fe565b634e487b7160e01b85526021600452602485fd5b50346102315780600319360112610231576020600454604051908152f35b50346102315780600319360112610231576020600254604051908152f35b5034610231576020366003190112610231576004356001600160a01b0381169081900361022f5781546001600160a01b031633148015611987575b6118f0906124a8565b6118fb81151561286b565b808252600860205260ff60408320541661194d57808252600860205260408220805460ff191660011790557f10ac961f00d5e732ba4dcc2c6fb09bebea0eb9edd2a75c8109775ef288382e678280a280f35b60405162461bcd60e51b8152602060048201526012602482015271105b1c9958591e48185d5d1a1bdc9a5e995960721b6044820152606490fd5b503382526008602052604082205460ff166118e7565b5034610231576020366003190112610231576004356001600160a01b0381168082036102875782546001600160a01b031633148015611b9a575b6119e0906124a8565b808352600b602052604083206040516119f881612536565b81546001600160a01b0316808252600190920154602082019081529115611b5557516001600160a01b03163314611b115751620151808101809111611afd574211611ac557611a45612d4a565b8015611ab157611a5482612d73565b8252600b6020908152604080842084815560010184905580516001600160a01b039093168352429183019190915233917fdd72dd33198968a9cdc9b1e5cbff344fb8d04d99f8c15c0a02416b04e857b46791819081015b0390a280f35b631e4fbdf760e01b83526004839052602483fd5b60405162461bcd60e51b815260206004820152601060248201526f141c9bdc1bdcd85b08195e1c1a5c995960821b6044820152606490fd5b634e487b7160e01b84526011600452602484fd5b606460405162461bcd60e51b815260206004820152602060248201527f43616e6e6f7420636f6e6669726d20796f7572206f776e2070726f706f73616c6044820152fd5b60405162461bcd60e51b815260206004820152601a60248201527f4e6f2070726f706f73616c20666f722074686973206f776e65720000000000006044820152606490fd5b503383526008602052604083205460ff166119d7565b5034610231576020366003190112610231576004356001600160a01b0381169081900361022f578152600d6020526040812080548291825b828110611c1e5750505081611c035760209150604051908152f35b62278d0082018092116102ff57506102fa602091429061285e565b611c288183612477565b90549060031b1c62278d008101809111610384574210611c4b575b600101611be8565b84158015611c76575b15611c435793506001611c678583612477565b90549060031b1c949050611c43565b5084611c828284612477565b90549060031b1c10611c54565b50346102315780600319360112610231576020600554604051908152f35b50346102315760203660031901126102315760043590600254821015610231576020611cd883612446565b905460405160039290921b1c6001600160a01b03168152f35b5034610231576020366003190112610231576004356001600160a01b0381168082036102875782546001600160a01b031633148015611e03575b611d34906124a8565b8015611dca57600160405191611d4983612536565b33835260208301904282528552600b6020526040852092828060a01b039051166bffffffffffffffffffffffff60a01b845416178355519101557fc29bdbd554e41df97e5c40fc273a09677ac133c245f0064bdffef5cc72176e1960405180611aab339442908360209093929193604081019460018060a01b031681520152565b60405162461bcd60e51b815260206004820152601160248201527024b73b30b634b2103732bb9037bbb732b960791b6044820152606490fd5b503383526008602052604083205460ff16611d2b565b5034610231576020366003190112610231576004356001600160a01b0381169081900361022f5760606101e0604051611e5181612503565b82815284602082015284604082015284838201528460808201528460a08201528460c08201528460e08201528461010082015284610120820152846101408201528461016082015284610180820152826101a0820152846101c082015201528015612035578160049160405192838092631f385f7960e21b82525afa90811561202a578291612010575b506040519060208252611efc815161020060208501526102208401906123fc565b92611f0f60208301516040850190612439565b6040820151606084015260608201516080840152608082015160a084015260ff60a08301511660c084015260ff60c08301511660e084015260e082015161010084015261010082015161012084015260ff6101208301511661014084015260ff610140830151166101608401526101608201516101808401526101808201516101a08401526101a082015193601f19848203016101c0850152602080865192838152019501915b818110611fe557848061022b886101e0886101c0810151828601520151601f19848303016102008501526123fc565b825180516001600160a01b031687526020908101518188015260409096019590920191600101611fb6565b61202491503d8084833e610b578183612552565b38611edb565b6040513d84823e3d90fd5b60405162461bcd60e51b815260206004820152601760248201527f496e76616c6964206d697373696f6e20616464726573730000000000000000006044820152606490fd5b503461023157602036600319011261023157600435600881101580610287576002549083845b83811061216057506120b1906125b1565b928491855b8481106120d3576040516020808252819061022b908201896123fc565b6120dc81612446565b905460039190911b1c6001600160a01b03168752600a602052604087205460ff168261214c57600881101561214c5790836001921461211c575b016120b6565b61212581612446565b838060a01b0391549060031b1c1661214661213f87612574565b96896125e3565b52612116565b634e487b7160e01b88526021600452602488fd5b61216981612446565b905460039190911b1c6001600160a01b03168652600a602052604086205460ff1683610bae576008811015610bae5785146121a7575b6001016120a0565b906121b3600191612574565b91905061219f565b50346102315760203660031901126102315760043560018060a01b038254163314801561235b575b6121ec906124a8565b6121f4612d28565b81546001600160a01b03169080821561231e5715612317575b4781116122db578280808084865af13d156122d6573d67ffffffffffffffff81116122c2576040519061224a601f8201601f191660200183612552565b81528460203d92013e5b1561228b5760207feaff4b37086828766ad3268786972c0cd24259d4c87a80f9d3963a3c3d999b0d91604051908152a26001805580f35b60405162461bcd60e51b815260206004820152600f60248201526e151c985b9cd9995c8819985a5b1959608a1b6044820152606490fd5b634e487b7160e01b85526041600452602485fd5b612254565b60405162461bcd60e51b8152602060048201526014602482015273496e73756666696369656e742062616c616e636560601b6044820152606490fd5b504761220d565b60405162461bcd60e51b815260206004820152601560248201527424b73b30b634b21036b0b730b3b2b91037bbb732b960591b6044820152606490fd5b503382526008602052604082205460ff166121e3565b5034610231578060031936011261023157602060ff60035460081c16604051908152f35b90503461022f57602036600319011261022f576004356001600160a01b03811690819003610287578160ff6040856123d79460209752600a87522054166123d9565bf35b9060088210156123e65752565b634e487b7160e01b600052602160045260246000fd5b906020808351928381520192019060005b81811061241a5750505090565b82516001600160a01b031684526020938401939092019160010161240d565b9060078210156123e65752565b60025481101561246157600260005260206000200190600090565b634e487b7160e01b600052603260045260246000fd5b80548210156124615760005260206000200190600090565b60078110156123e657600052600c602052604060002090565b156124af57565b60405162461bcd60e51b815260206004820152602660248201527f4e6f74206f776e6572206f72204d697373696f6e466163746f727920617574686044820152651bdc9a5e995960d21b6064820152608490fd5b610200810190811067ffffffffffffffff82111761252057604052565b634e487b7160e01b600052604160045260246000fd5b6040810190811067ffffffffffffffff82111761252057604052565b90601f8019910116810190811067ffffffffffffffff82111761252057604052565b60001981146125835760010190565b634e487b7160e01b600052601160045260246000fd5b67ffffffffffffffff81116125205760051b60200190565b906125bb82612599565b6125c86040519182612552565b82815280926125d9601f1991612599565b0190602036910137565b80518210156124615760209160051b010190565b51906001600160a01b038216820361260b57565b600080fd5b9080601f8301121561260b57815161262781612599565b926126356040519485612552565b81845260208085019260051b82010192831161260b57602001905b82821061265d5750505090565b6020809161266a846125f7565b815201910190612650565b519060ff8216820361260b57565b60208183031261260b5780519067ffffffffffffffff821161260b57016102008183031261260b57604051916126b883612503565b815167ffffffffffffffff811161260b57816126d5918401612610565b83526020820151600781101561260b57602084015260408201516040840152606082015160608401526080820151608084015261271460a08301612675565b60a084015261272560c08301612675565b60c084015260e082015160e084015261010082015161010084015261274d6101208301612675565b6101208401526127606101408301612675565b6101408401526101608201516101608401526101808201516101808401526101a082015167ffffffffffffffff811161260b57820181601f8201121561260b5780516127ab81612599565b916127b96040519384612552565b81835260208084019260061b8201019084821161260b57602001915b818310612819575050506101a08401526101c08201516101c08401526101e082015167ffffffffffffffff811161260b576128109201612610565b6101e082015290565b60408386031261260b576020604091825161283381612536565b61283c866125f7565b815282860151838201528152019201916127d5565b9190820180921161258357565b9190820391821161258357565b1561287257565b60405162461bcd60e51b815260206004820152600f60248201526e496e76616c6964206164647265737360881b6044820152606490fd5b6002548015612b0857624f19ff194201914283116125835762278cff194201428111612583576000929182805b612a1a575b506128e5846125b1565b906128ef856125b1565b936000905b80151580612a11575b15612a0657600019019061291082612446565b60018060a01b0391549060031b1c169081600052600a60205260ff6040600020541691604051631f385f7960e21b8152600081600481855afa80156129fa5788916000916129e1575b508b60e0820181815110806129be575b156129b35750506101000151105b6129a55761298582876125e3565b5261299081886125e3565b9160088110156123e6576001925201906128f4565b505050509350919350509190565b915091505110612977565b5092505060088510156123e6578b89926006871480612969575060078714612969565b6129f4913d8091833e610b578183612552565b38612959565b6040513d6000823e3d90fd5b509195509293505050565b508682106128fd565b6000949394190192612a2b84612446565b60018060a01b0391549060031b1c1680600052600a6020526004600060ff6040822054169260405192838092631f385f7960e21b82525afa9081156129fa5785928991600093612aed575b5060e0830190828251109081612abd575b5015612ab25750506101000151105b612aab57612aa48491612574565b94936128d6565b93926128db565b915091505110612a96565b925050925060088110156123e65785928160068b9314908115612ae2575b5038612a87565b600791501438612adb565b612b0191933d8091833e610b578183612552565b9138612a76565b50602090604051612b198382612552565b60008152600036813760405192612b308185612552565b600084525060003681379190565b6001600160a01b03166000908152600d602052604081208054829182918291825b828110612c26575050506003549160ff8316119060ff82159360081c1611918215928280612c1f575b612c115781612c09575b50612bfd5781612bf5575b50612beb5762093a80810180911161258357612bba90429061285e565b9062278d00810180911161258357612bd390429061285e565b1115612be3576002905b60009190565b600190612bdd565b5050600090600290565b905038612b9d565b50505050600090600190565b905038612b92565b505050505050600190600090565b5080612b88565b612c308183612477565b90549060031b1c62278d008101808211612583574210612c54575b50600101612b5f565b93612c5e90612574565b9387158015612cb4575b612cac575b62093a80810180821161258357421015612c4b5794612c8b90612574565b9486158015612ca3575b15612c4b5795506001612c4b565b50868110612c95565b965086612c6d565b50878110612c68565b15612cc457565b60405162461bcd60e51b815260206004820152603660248201527f4d697373696f6e466163746f72793a2063616c6c6572206973206e6f742061206044820152751d985b1a59081b5a5cdcda5bdb8818dbdb9d1c9858dd60521b6064820152608490fd5b600260015414612d39576002600155565b633ee5aeb560e01b60005260046000fd5b6000546001600160a01b03163303612d5e57565b63118cdaa760e01b6000523360045260246000fd5b600080546001600160a01b039283166001600160a01b03198216811783559216907f8be0079c531659141344cd1fd0a4f28419497f9722a3daafe3b4186f6b6457e09080a356fea264697066735822122035c5845d253779169c40d48d7a7840b38e3a530edf9ef4f7e78f7dcf6f2a9b0d64736f6c634300081e0033","opcodes":"PUSH1 0xA0 CALLVALUE PUSH2 0x11E JUMPI PUSH1 0x1F PUSH2 0x2F2A CODESIZE DUP2 SWAP1 SUB SWAP2 DUP3 ADD PUSH1 0x1F NOT AND DUP4 ADD SWAP2 PUSH1 0x1 PUSH1 0x1 PUSH1 0x40 SHL SUB DUP4 GT DUP5 DUP5 LT OR PUSH2 0x123 JUMPI DUP1 DUP5 SWAP3 PUSH1 0x20 SWAP5 PUSH1 0x40 MSTORE DUP4 CODECOPY DUP2 ADD SUB SLT PUSH2 0x11E JUMPI MLOAD PUSH1 0x1 PUSH1 0x1 PUSH1 0xA0 SHL SUB DUP2 AND DUP1 DUP3 SUB PUSH2 0x11E JUMPI CALLER ISZERO PUSH2 0x108 JUMPI PUSH1 0x0 DUP1 SLOAD CALLER PUSH1 0x1 PUSH1 0x1 PUSH1 0xA0 SHL SUB NOT DUP3 AND DUP2 OR DUP4 SSTORE PUSH1 0x40 MLOAD SWAP4 SWAP3 SWAP1 SWAP2 PUSH1 0x1 PUSH1 0x1 PUSH1 0xA0 SHL SUB AND SWAP1 PUSH32 0x8BE0079C531659141344CD1FD0A4F28419497F9722A3DAAFE3B4186F6B6457E0 SWAP1 DUP1 LOG3 PUSH1 0x1 DUP1 SSTORE PUSH2 0xA04 PUSH2 0xFFFF NOT PUSH1 0x3 SLOAD AND OR PUSH1 0x3 SSTORE ISZERO PUSH2 0xDA JUMPI POP PUSH1 0x80 MSTORE PUSH1 0x40 MLOAD PUSH2 0x2DF0 SWAP1 DUP2 PUSH2 0x13A DUP3 CODECOPY PUSH1 0x80 MLOAD DUP2 DUP2 DUP2 PUSH2 0x9A4 ADD MSTORE PUSH2 0xF45 ADD MSTORE RETURN JUMPDEST PUSH3 0x461BCD PUSH1 0xE5 SHL DUP2 MSTORE PUSH1 0x20 PUSH1 0x4 DUP3 ADD MSTORE PUSH1 0x9 PUSH1 0x24 DUP3 ADD MSTORE PUSH9 0x696D706C207A65726F PUSH1 0xB8 SHL PUSH1 0x44 DUP3 ADD MSTORE PUSH1 0x64 SWAP1 REVERT JUMPDEST PUSH4 0x1E4FBDF7 PUSH1 0xE0 SHL PUSH1 0x0 MSTORE PUSH1 0x0 PUSH1 0x4 MSTORE PUSH1 0x24 PUSH1 0x0 REVERT JUMPDEST PUSH1 0x0 DUP1 REVERT JUMPDEST PUSH4 0x4E487B71 PUSH1 0xE0 SHL PUSH1 0x0 MSTORE PUSH1 0x41 PUSH1 0x4 MSTORE PUSH1 0x24 PUSH1 0x0 REVERT INVALID PUSH1 0x80 DUP1 PUSH1 0x40 MSTORE PUSH1 0x4 CALLDATASIZE LT ISZERO PUSH2 0x11 JUMPI JUMPDEST STOP JUMPDEST PUSH1 0x0 SWAP1 DUP2 CALLDATALOAD PUSH1 0xE0 SHR SWAP1 DUP2 PUSH4 0x814AB82 EQ PUSH2 0x2395 JUMPI POP DUP1 PUSH4 0xA6005DA EQ PUSH2 0x2371 JUMPI DUP1 PUSH4 0x155DD5EE EQ PUSH2 0x21BB JUMPI DUP1 PUSH4 0x1E59D584 EQ PUSH2 0x207A JUMPI DUP1 PUSH4 0x20C5718F EQ PUSH2 0x1E19 JUMPI DUP1 PUSH4 0x21040FC3 EQ PUSH2 0x1CF1 JUMPI DUP1 PUSH4 0x2C8FE526 EQ PUSH2 0x1CAD JUMPI DUP1 PUSH4 0x2E33B07F EQ PUSH2 0x727 JUMPI DUP1 PUSH4 0x3589CF72 EQ PUSH2 0x1C8F JUMPI DUP1 PUSH4 0x37012762 EQ PUSH2 0x1BB0 JUMPI DUP1 PUSH4 0x3C213957 EQ PUSH2 0x199D JUMPI DUP1 PUSH4 0x42F1181E EQ PUSH2 0x18AC JUMPI DUP1 PUSH4 0x5C5BB6F2 EQ PUSH2 0x188E JUMPI DUP1 PUSH4 0x63679723 EQ PUSH2 0x1870 JUMPI DUP1 PUSH4 0x6805036D EQ PUSH2 0x16BF JUMPI DUP1 PUSH4 0x6D8A1390 EQ PUSH2 0x1645 JUMPI DUP1 PUSH4 0x70712939 EQ PUSH2 0x155A JUMPI DUP1 PUSH4 0x715018A6 EQ PUSH2 0x1500 JUMPI DUP1 PUSH4 0x7E9EAE50 EQ PUSH2 0x146D JUMPI DUP1 PUSH4 0x83FBEA51 EQ PUSH2 0x144F JUMPI DUP1 PUSH4 0x861A68D6 EQ PUSH2 0x142E JUMPI DUP1 PUSH4 0x8DA5CB5B EQ PUSH2 0x1407 JUMPI DUP1 PUSH4 0x9804A586 EQ PUSH2 0x13BD JUMPI DUP1 PUSH4 0x9B159539 EQ PUSH2 0xEA1 JUMPI DUP1 PUSH4 0xA9BEA789 EQ PUSH2 0xD2D JUMPI DUP1 PUSH4 0xAA1F0595 EQ PUSH2 0xCEB JUMPI DUP1 PUSH4 0xB6202913 EQ PUSH2 0xA15 JUMPI DUP1 PUSH4 0xB9181611 EQ PUSH2 0x9D3 JUMPI DUP1 PUSH4 0xBD487725 EQ PUSH2 0x98E JUMPI DUP1 PUSH4 0xC17F9E59 EQ PUSH2 0x75A JUMPI DUP1 PUSH4 0xC416AD2A EQ PUSH2 0x727 JUMPI DUP1 PUSH4 0xC892FDE3 EQ PUSH2 0x709 JUMPI DUP1 PUSH4 0xCBF2080D EQ PUSH2 0x572 JUMPI DUP1 PUSH4 0xD3050EBA EQ PUSH2 0x554 JUMPI DUP1 PUSH4 0xD41ECA64 EQ PUSH2 0x4A6 JUMPI DUP1 PUSH4 0xD8D6E8FF EQ PUSH2 0x41F JUMPI DUP1 PUSH4 0xDF4DB463 EQ PUSH2 0x398 JUMPI DUP1 PUSH4 0xEFF0AB92 EQ PUSH2 0x28B JUMPI DUP1 PUSH4 0xF2FDE38B EQ PUSH2 0x234 JUMPI PUSH4 0xFB4CDEA7 SUB PUSH2 0xF JUMPI CALLVALUE PUSH2 0x231 JUMPI PUSH1 0x20 CALLDATASIZE PUSH1 0x3 NOT ADD SLT PUSH2 0x231 JUMPI PUSH1 0x4 CALLDATALOAD PUSH1 0x1 PUSH1 0x1 PUSH1 0xA0 SHL SUB DUP2 AND SWAP1 DUP2 SWAP1 SUB PUSH2 0x22F JUMPI DUP2 MSTORE PUSH1 0xB PUSH1 0x20 SWAP1 DUP2 MSTORE PUSH1 0x40 SWAP2 DUP3 SWAP1 KECCAK256 DUP1 SLOAD PUSH1 0x1 SWAP1 SWAP2 ADD SLOAD DUP4 MLOAD PUSH1 0x1 PUSH1 0x1 PUSH1 0xA0 SHL SUB SWAP1 SWAP3 AND DUP3 MSTORE SWAP2 DUP2 ADD SWAP2 SWAP1 SWAP2 MSTORE SWAP1 DUP2 SWAP1 DUP2 ADD JUMPDEST SUB SWAP1 RETURN JUMPDEST POP JUMPDEST DUP1 REVERT JUMPDEST POP CALLVALUE PUSH2 0x231 JUMPI PUSH1 0x20 CALLDATASIZE PUSH1 0x3 NOT ADD SLT PUSH2 0x231 JUMPI PUSH1 0x4 CALLDATALOAD PUSH1 0x1 PUSH1 0x1 PUSH1 0xA0 SHL SUB DUP2 AND DUP1 DUP3 SUB PUSH2 0x287 JUMPI PUSH2 0x262 PUSH2 0x2D4A JUMP JUMPDEST ISZERO PUSH2 0x273 JUMPI PUSH2 0x270 SWAP1 PUSH2 0x2D73 JUMP JUMPDEST DUP1 RETURN JUMPDEST PUSH4 0x1E4FBDF7 PUSH1 0xE0 SHL DUP3 MSTORE PUSH1 0x4 DUP3 SWAP1 MSTORE PUSH1 0x24 DUP3 REVERT JUMPDEST DUP3 DUP1 REVERT JUMPDEST POP CALLVALUE PUSH2 0x231 JUMPI PUSH1 0x20 CALLDATASIZE PUSH1 0x3 NOT ADD SLT PUSH2 0x231 JUMPI PUSH1 0x4 CALLDATALOAD PUSH1 0x1 PUSH1 0x1 PUSH1 0xA0 SHL SUB DUP2 AND SWAP1 DUP2 SWAP1 SUB PUSH2 0x22F JUMPI DUP2 MSTORE PUSH1 0xD PUSH1 0x20 MSTORE PUSH1 0x40 DUP2 KECCAK256 DUP1 SLOAD DUP3 SWAP2 DUP3 JUMPDEST DUP3 DUP2 LT PUSH2 0x313 JUMPI POP POP POP DUP2 PUSH2 0x2DF JUMPI PUSH1 0x20 SWAP2 POP JUMPDEST PUSH1 0x40 MLOAD SWAP1 DUP2 MSTORE RETURN JUMPDEST PUSH3 0x93A80 DUP3 ADD DUP1 SWAP3 GT PUSH2 0x2FF JUMPI POP PUSH2 0x2FA PUSH1 0x20 SWAP2 TIMESTAMP SWAP1 PUSH2 0x285E JUMP JUMPDEST PUSH2 0x2D7 JUMP JUMPDEST PUSH4 0x4E487B71 PUSH1 0xE0 SHL DUP2 MSTORE PUSH1 0x11 PUSH1 0x4 MSTORE PUSH1 0x24 SWAP1 REVERT JUMPDEST PUSH2 0x31D DUP2 DUP4 PUSH2 0x2477 JUMP JUMPDEST SWAP1 SLOAD SWAP1 PUSH1 0x3 SHL SHR PUSH3 0x93A80 DUP2 ADD DUP1 SWAP2 GT PUSH2 0x384 JUMPI TIMESTAMP LT PUSH2 0x340 JUMPI JUMPDEST PUSH1 0x1 ADD PUSH2 0x2C3 JUMP JUMPDEST DUP5 ISZERO DUP1 ISZERO PUSH2 0x36B JUMPI JUMPDEST ISZERO PUSH2 0x338 JUMPI SWAP4 POP PUSH1 0x1 PUSH2 0x35C DUP6 DUP4 PUSH2 0x2477 JUMP JUMPDEST SWAP1 SLOAD SWAP1 PUSH1 0x3 SHL SHR SWAP5 SWAP1 POP PUSH2 0x338 JUMP JUMPDEST POP DUP5 PUSH2 0x377 DUP3 DUP5 PUSH2 0x2477 JUMP JUMPDEST SWAP1 SLOAD SWAP1 PUSH1 0x3 SHL SHR LT PUSH2 0x349 JUMP JUMPDEST PUSH4 0x4E487B71 PUSH1 0xE0 SHL DUP6 MSTORE PUSH1 0x11 PUSH1 0x4 MSTORE PUSH1 0x24 DUP6 REVERT JUMPDEST POP CALLVALUE PUSH2 0x231 JUMPI DUP1 PUSH1 0x3 NOT CALLDATASIZE ADD SLT PUSH2 0x231 JUMPI PUSH1 0xE0 SWAP1 DUP2 PUSH1 0x40 MLOAD PUSH2 0x3BA DUP3 DUP3 PUSH2 0x2552 JUMP JUMPDEST CALLDATASIZE SWAP1 CALLDATACOPY PUSH1 0x40 MLOAD SWAP1 PUSH2 0x3CB DUP4 DUP4 PUSH2 0x2552 JUMP JUMPDEST DUP3 CALLDATASIZE DUP4 CALLDATACOPY DUP1 JUMPDEST PUSH1 0x7 DUP2 LT ISZERO PUSH2 0x3F4 JUMPI PUSH1 0x1 SWAP1 PUSH2 0x3E6 DUP2 PUSH2 0x248F JUMP JUMPDEST SLOAD DUP2 PUSH1 0x5 SHL DUP6 ADD MSTORE ADD PUSH2 0x3D1 JUMP JUMPDEST POP PUSH1 0x40 MLOAD SWAP2 SWAP1 DUP3 JUMPDEST PUSH1 0x7 DUP3 LT PUSH2 0x409 JUMPI POP POP POP RETURN JUMPDEST PUSH1 0x20 DUP1 PUSH1 0x1 SWAP3 DUP6 MLOAD DUP2 MSTORE ADD SWAP4 ADD SWAP2 ADD SWAP1 SWAP2 PUSH2 0x3FC JUMP JUMPDEST POP CALLVALUE PUSH2 0x231 JUMPI PUSH1 0x20 CALLDATASIZE PUSH1 0x3 NOT ADD SLT PUSH2 0x231 JUMPI PUSH1 0x4 CALLDATALOAD PUSH1 0x8 DUP2 LT ISZERO PUSH2 0x22F JUMPI CALLER DUP3 MSTORE PUSH1 0x9 PUSH1 0x20 MSTORE PUSH2 0x455 PUSH1 0xFF PUSH1 0x40 DUP5 KECCAK256 SLOAD AND PUSH2 0x2CBD JUMP JUMPDEST CALLER DUP3 MSTORE PUSH1 0xA PUSH1 0x20 MSTORE PUSH1 0x40 DUP3 KECCAK256 PUSH1 0xFF NOT DUP2 SLOAD AND PUSH1 0xFF DUP4 AND OR SWAP1 SSTORE PUSH1 0x6 DUP2 EQ PUSH1 0x0 EQ PUSH2 0x48B JUMPI POP PUSH2 0x485 PUSH1 0x6 SLOAD PUSH2 0x2574 JUMP JUMPDEST PUSH1 0x6 SSTORE DUP1 RETURN JUMPDEST PUSH1 0x7 EQ PUSH2 0x495 JUMPI DUP1 RETURN JUMPDEST PUSH2 0x4A0 PUSH1 0x7 SLOAD PUSH2 0x2574 JUMP JUMPDEST PUSH1 0x7 SSTORE DUP1 RETURN JUMPDEST POP CALLVALUE PUSH2 0x231 JUMPI PUSH1 0x40 CALLDATASIZE PUSH1 0x3 NOT ADD SLT PUSH2 0x231 JUMPI PUSH1 0x4 CALLDATALOAD PUSH1 0xFF DUP2 AND DUP1 SWAP2 SUB PUSH2 0x22F JUMPI PUSH1 0x24 CALLDATALOAD PUSH1 0xFF DUP2 AND SWAP2 DUP3 DUP3 SUB PUSH2 0x550 JUMPI PUSH32 0x321994B8855AE38E4FD6162F7A0BD7CDE88BE83AA3ACC96E03C17B7F733B43E1 SWAP3 PUSH1 0x40 SWAP3 PUSH1 0x1 DUP1 PUSH1 0xA0 SHL SUB DUP7 SLOAD AND CALLER EQ DUP1 ISZERO PUSH2 0x53B JUMPI JUMPDEST PUSH2 0x516 SWAP1 PUSH2 0x24A8 JUMP JUMPDEST DUP3 PUSH2 0xFF00 PUSH1 0x3 SLOAD SWAP3 PUSH1 0x8 SHL AND SWAP2 PUSH2 0xFFFF NOT AND OR OR PUSH1 0x3 SSTORE DUP3 MLOAD SWAP2 DUP3 MSTORE PUSH1 0x20 DUP3 ADD MSTORE LOG1 DUP1 RETURN JUMPDEST POP CALLER DUP7 MSTORE PUSH1 0x8 PUSH1 0x20 MSTORE DUP4 DUP7 KECCAK256 SLOAD PUSH1 0xFF AND PUSH2 0x50D JUMP JUMPDEST DUP4 DUP1 REVERT JUMPDEST POP CALLVALUE PUSH2 0x231 JUMPI DUP1 PUSH1 0x3 NOT CALLDATASIZE ADD SLT PUSH2 0x231 JUMPI PUSH1 0x20 PUSH1 0x40 MLOAD PUSH3 0x15180 DUP2 MSTORE RETURN JUMPDEST POP CALLVALUE PUSH2 0x231 JUMPI PUSH1 0x20 CALLDATASIZE PUSH1 0x3 NOT ADD SLT PUSH2 0x231 JUMPI PUSH1 0x4 CALLDATALOAD PUSH1 0x1 PUSH1 0x1 PUSH1 0xA0 SHL SUB DUP2 AND SWAP1 DUP2 SWAP1 SUB PUSH2 0x22F JUMPI DUP2 MSTORE PUSH1 0xD PUSH1 0x20 MSTORE PUSH1 0x40 DUP2 KECCAK256 DUP2 SWAP1 DUP3 SWAP1 DUP4 DUP1 SWAP2 DUP2 SWAP1 DUP1 SLOAD SWAP2 JUMPDEST DUP3 DUP2 LT PUSH2 0x65E JUMPI POP POP POP PUSH1 0x3 SLOAD SWAP5 DUP1 ISZERO PUSH1 0x0 EQ PUSH2 0x62C JUMPI POP DUP1 SWAP2 JUMPDEST DUP1 PUSH2 0x606 JUMPI POP PUSH1 0xC0 SWAP5 PUSH1 0xFF DUP1 SWAP3 SWAP5 JUMPDEST DUP2 PUSH1 0x40 MLOAD SWAP8 AND DUP8 MSTORE DUP2 DUP4 AND PUSH1 0x20 DUP9 ADD MSTORE AND PUSH1 0x40 DUP7 ADD MSTORE PUSH1 0x8 SHR AND PUSH1 0x60 DUP5 ADD MSTORE PUSH1 0x80 DUP4 ADD MSTORE PUSH1 0xA0 DUP3 ADD MSTORE RETURN JUMPDEST SWAP1 PUSH3 0x278D00 DUP3 ADD DUP1 SWAP3 GT PUSH2 0x2FF JUMPI POP PUSH1 0xC0 SWAP5 PUSH1 0xFF PUSH2 0x626 DUP2 SWAP4 TIMESTAMP SWAP1 PUSH2 0x285E JUMP JUMPDEST SWAP5 PUSH2 0x5DB JUMP JUMPDEST PUSH3 0x93A80 DUP2 ADD DUP1 SWAP2 GT PUSH2 0x64A JUMPI PUSH2 0x644 SWAP1 TIMESTAMP SWAP1 PUSH2 0x285E JUMP JUMPDEST SWAP2 PUSH2 0x5CC JUMP JUMPDEST PUSH4 0x4E487B71 PUSH1 0xE0 SHL DUP3 MSTORE PUSH1 0x11 PUSH1 0x4 MSTORE PUSH1 0x24 DUP3 REVERT JUMPDEST PUSH2 0x668 DUP2 DUP4 PUSH2 0x2477 JUMP JUMPDEST SWAP1 SLOAD SWAP1 PUSH1 0x3 SHL SHR PUSH3 0x278D00 DUP2 ADD DUP1 DUP3 GT PUSH2 0x6E4 JUMPI TIMESTAMP LT PUSH2 0x68C JUMPI JUMPDEST POP PUSH1 0x1 ADD PUSH2 0x5B1 JUMP JUMPDEST SWAP6 PUSH2 0x696 SWAP1 PUSH2 0x2574 JUMP JUMPDEST SWAP6 DUP6 ISZERO DUP1 ISZERO PUSH2 0x700 JUMPI JUMPDEST PUSH2 0x6F8 JUMPI JUMPDEST PUSH3 0x93A80 DUP2 ADD DUP1 DUP3 GT PUSH2 0x6E4 JUMPI TIMESTAMP LT ISZERO PUSH2 0x683 JUMPI SWAP7 PUSH2 0x6C3 SWAP1 PUSH2 0x2574 JUMP JUMPDEST SWAP7 DUP9 ISZERO DUP1 ISZERO PUSH2 0x6DB JUMPI JUMPDEST ISZERO PUSH2 0x683 JUMPI SWAP8 POP PUSH1 0x1 PUSH2 0x683 JUMP JUMPDEST POP DUP9 DUP2 LT PUSH2 0x6CD JUMP JUMPDEST PUSH4 0x4E487B71 PUSH1 0xE0 SHL DUP7 MSTORE PUSH1 0x11 PUSH1 0x4 MSTORE PUSH1 0x24 DUP7 REVERT JUMPDEST SWAP5 POP DUP5 PUSH2 0x6A5 JUMP JUMPDEST POP DUP6 DUP2 LT PUSH2 0x6A0 JUMP JUMPDEST POP CALLVALUE PUSH2 0x231 JUMPI DUP1 PUSH1 0x3 NOT CALLDATASIZE ADD SLT PUSH2 0x231 JUMPI PUSH1 0x20 PUSH1 0x6 SLOAD PUSH1 0x40 MLOAD SWAP1 DUP2 MSTORE RETURN JUMPDEST POP CALLVALUE PUSH2 0x231 JUMPI PUSH1 0x20 CALLDATASIZE PUSH1 0x3 NOT ADD SLT PUSH2 0x231 JUMPI PUSH1 0x4 CALLDATALOAD SWAP1 PUSH1 0x7 DUP3 LT ISZERO PUSH2 0x231 JUMPI PUSH1 0x20 PUSH2 0x751 DUP4 PUSH2 0x248F JUMP JUMPDEST SLOAD PUSH1 0x40 MLOAD SWAP1 DUP2 MSTORE RETURN JUMPDEST POP CALLVALUE PUSH2 0x231 JUMPI PUSH1 0x20 CALLDATASIZE PUSH1 0x3 NOT ADD SLT PUSH2 0x231 JUMPI PUSH1 0x4 CALLDATALOAD PUSH1 0x1 PUSH1 0x1 PUSH1 0xA0 SHL SUB DUP2 AND SWAP1 DUP2 SWAP1 SUB PUSH2 0x22F JUMPI CALLER DUP3 MSTORE PUSH1 0xA PUSH1 0x20 MSTORE PUSH1 0xFF PUSH1 0x40 DUP4 KECCAK256 SLOAD AND PUSH1 0x8 DUP2 LT ISZERO PUSH2 0x97A JUMPI PUSH1 0x1 SUB PUSH2 0x944 JUMPI PUSH3 0x278CFF NOT TIMESTAMP ADD SWAP1 TIMESTAMP DUP3 GT PUSH2 0x930 JUMPI DUP1 DUP4 MSTORE PUSH1 0xD PUSH1 0x20 MSTORE PUSH1 0x40 DUP4 KECCAK256 DUP1 SLOAD SWAP3 DUP5 JUMPDEST DUP5 DUP2 LT DUP1 PUSH2 0x917 JUMPI JUMPDEST ISZERO PUSH2 0x7DD JUMPI PUSH2 0x7D8 SWAP1 PUSH2 0x2574 JUMP JUMPDEST PUSH2 0x7C1 JUMP JUMPDEST DUP4 DUP4 DUP8 SWAP3 DUP1 PUSH2 0x863 JUMPI JUMPDEST POP DUP1 SLOAD SWAP1 PUSH1 0x1 PUSH1 0x40 SHL DUP3 LT ISZERO PUSH2 0x84F JUMPI DUP2 PUSH2 0x80A SWAP2 PUSH1 0x1 PUSH2 0x822 SWAP5 ADD DUP2 SSTORE PUSH2 0x2477 JUMP JUMPDEST TIMESTAMP SWAP1 DUP3 SLOAD SWAP1 PUSH1 0x3 SHL SWAP2 DUP3 SHL SWAP2 PUSH1 0x0 NOT SWAP1 SHL NOT AND OR SWAP1 SSTORE JUMP JUMPDEST PUSH32 0x498F5E6DCF570483A1848853791046A7F10012193176D71F959F46EB7713D744 PUSH1 0x20 PUSH1 0x40 MLOAD TIMESTAMP DUP2 MSTORE LOG2 DUP1 RETURN JUMPDEST PUSH4 0x4E487B71 PUSH1 0xE0 SHL DUP5 MSTORE PUSH1 0x41 PUSH1 0x4 MSTORE PUSH1 0x24 DUP5 REVERT JUMPDEST SWAP3 DUP1 JUMPDEST PUSH2 0x871 DUP6 DUP5 SLOAD PUSH2 0x285E JUMP JUMPDEST DUP2 LT ISZERO PUSH2 0x8C1 JUMPI DUP1 PUSH2 0x8BB PUSH2 0x891 PUSH2 0x88B DUP9 PUSH1 0x1 SWAP6 PUSH2 0x2851 JUMP JUMPDEST DUP7 PUSH2 0x2477 JUMP JUMPDEST SWAP1 SLOAD SWAP1 PUSH1 0x3 SHL SHR PUSH2 0x8A2 DUP4 DUP8 PUSH2 0x2477 JUMP JUMPDEST SWAP1 SWAP2 SWAP1 DUP3 SLOAD SWAP1 PUSH1 0x3 SHL SWAP2 DUP3 SHL SWAP2 PUSH1 0x0 NOT SWAP1 SHL NOT AND OR SWAP1 SSTORE JUMP JUMPDEST ADD PUSH2 0x866 JUMP JUMPDEST POP SWAP3 DUP4 JUMPDEST DUP2 DUP2 LT PUSH2 0x8D2 JUMPI POP PUSH2 0x7E7 JUMP JUMPDEST DUP3 SLOAD DUP1 ISZERO PUSH2 0x903 JUMPI PUSH1 0x1 SWAP2 SWAP1 PUSH1 0x0 NOT ADD PUSH2 0x8EC DUP2 DUP7 PUSH2 0x2477 JUMP JUMPDEST DUP2 SLOAD SWAP1 PUSH1 0x0 NOT SWAP1 PUSH1 0x3 SHL SHL NOT AND SWAP1 SSTORE DUP5 SSTORE ADD PUSH2 0x8C5 JUMP JUMPDEST PUSH4 0x4E487B71 PUSH1 0xE0 SHL DUP7 MSTORE PUSH1 0x31 PUSH1 0x4 MSTORE PUSH1 0x24 DUP7 REVERT JUMPDEST POP DUP2 PUSH2 0x923 DUP3 DUP6 PUSH2 0x2477 JUMP JUMPDEST SWAP1 SLOAD SWAP1 PUSH1 0x3 SHL SHR LT PUSH2 0x7CA JUMP JUMPDEST PUSH4 0x4E487B71 PUSH1 0xE0 SHL DUP4 MSTORE PUSH1 0x11 PUSH1 0x4 MSTORE PUSH1 0x24 DUP4 REVERT JUMPDEST PUSH1 0x40 MLOAD PUSH3 0x461BCD PUSH1 0xE5 SHL DUP2 MSTORE PUSH1 0x20 PUSH1 0x4 DUP3 ADD MSTORE PUSH1 0xE PUSH1 0x24 DUP3 ADD MSTORE PUSH14 0x24B73B30B634B21031B0B63632B9 PUSH1 0x91 SHL PUSH1 0x44 DUP3 ADD MSTORE PUSH1 0x64 SWAP1 REVERT JUMPDEST PUSH4 0x4E487B71 PUSH1 0xE0 SHL DUP4 MSTORE PUSH1 0x21 PUSH1 0x4 MSTORE PUSH1 0x24 DUP4 REVERT JUMPDEST POP CALLVALUE PUSH2 0x231 JUMPI DUP1 PUSH1 0x3 NOT CALLDATASIZE ADD SLT PUSH2 0x231 JUMPI PUSH1 0x40 MLOAD PUSH32 0x0 PUSH1 0x1 PUSH1 0x1 PUSH1 0xA0 SHL SUB AND DUP2 MSTORE PUSH1 0x20 SWAP1 RETURN JUMPDEST POP CALLVALUE PUSH2 0x231 JUMPI PUSH1 0x20 CALLDATASIZE PUSH1 0x3 NOT ADD SLT PUSH2 0x231 JUMPI PUSH1 0x4 CALLDATALOAD PUSH1 0x1 PUSH1 0x1 PUSH1 0xA0 SHL SUB DUP2 AND SWAP1 DUP2 SWAP1 SUB PUSH2 0x22F JUMPI PUSH1 0x40 DUP3 PUSH1 0xFF SWAP3 PUSH1 0x20 SWAP5 MSTORE PUSH1 0x8 DUP5 MSTORE KECCAK256 SLOAD AND PUSH1 0x40 MLOAD SWAP1 ISZERO ISZERO DUP2 MSTORE RETURN JUMPDEST POP CALLVALUE PUSH2 0x231 JUMPI DUP1 PUSH1 0x3 NOT CALLDATASIZE ADD SLT PUSH2 0x231 JUMPI PUSH3 0x278CFF NOT TIMESTAMP ADD TIMESTAMP DUP2 GT PUSH2 0x64A JUMPI PUSH1 0x2 SLOAD DUP3 DUP4 JUMPDEST DUP3 DUP2 LT PUSH2 0xBC2 JUMPI POP PUSH2 0xA4B SWAP1 PUSH2 0x25B1 JUMP JUMPDEST SWAP2 DUP4 SWAP1 DUP5 JUMPDEST DUP4 DUP2 LT PUSH2 0xA6D JUMPI PUSH1 0x40 MLOAD PUSH1 0x20 DUP1 DUP3 MSTORE DUP2 SWAP1 PUSH2 0x22B SWAP1 DUP3 ADD DUP9 PUSH2 0x23FC JUMP JUMPDEST PUSH2 0xA76 DUP2 PUSH2 0x2446 JUMP JUMPDEST SWAP1 SLOAD PUSH1 0x3 SWAP2 SWAP1 SWAP2 SHL SHR PUSH1 0x1 PUSH1 0x1 PUSH1 0xA0 SHL SUB AND DUP7 MSTORE PUSH1 0xA PUSH1 0x20 MSTORE PUSH1 0x40 DUP7 KECCAK256 SLOAD PUSH1 0xFF AND PUSH1 0x8 DUP2 LT ISZERO PUSH2 0xBAE JUMPI PUSH1 0x6 EQ SWAP1 DUP2 ISZERO PUSH2 0xB70 JUMPI JUMPDEST DUP2 PUSH2 0xAEF JUMPI JUMPDEST PUSH1 0x1 SWAP2 PUSH2 0xABF JUMPI JUMPDEST ADD PUSH2 0xA50 JUMP JUMPDEST PUSH2 0xAC8 DUP2 PUSH2 0x2446 JUMP JUMPDEST DUP4 DUP1 PUSH1 0xA0 SHL SUB SWAP2 SLOAD SWAP1 PUSH1 0x3 SHL SHR AND PUSH2 0xAE9 PUSH2 0xAE2 DUP7 PUSH2 0x2574 JUMP JUMPDEST SWAP6 DUP9 PUSH2 0x25E3 JUMP JUMPDEST MSTORE PUSH2 0xAB9 JUMP JUMPDEST PUSH1 0x4 SWAP2 POP DUP7 PUSH2 0xAFD DUP3 PUSH2 0x2446 JUMP JUMPDEST SWAP1 SLOAD PUSH1 0x40 MLOAD PUSH4 0x1F385F79 PUSH1 0xE2 SHL DUP2 MSTORE SWAP5 DUP6 SWAP3 SWAP1 SWAP2 DUP4 SWAP2 PUSH1 0x3 SHL SHR PUSH1 0x1 PUSH1 0x1 PUSH1 0xA0 SHL SUB AND GAS STATICCALL DUP1 ISZERO PUSH2 0xB65 JUMPI PUSH2 0x100 DUP5 SWAP2 PUSH1 0x1 SWAP5 DUP11 SWAP2 PUSH2 0xB43 JUMPI JUMPDEST POP ADD MLOAD LT ISZERO SWAP2 POP PUSH2 0xAB1 JUMP JUMPDEST PUSH2 0xB5F SWAP2 POP RETURNDATASIZE DUP1 DUP13 DUP4 RETURNDATACOPY PUSH2 0xB57 DUP2 DUP4 PUSH2 0x2552 JUMP JUMPDEST DUP2 ADD SWAP1 PUSH2 0x2683 JUMP JUMPDEST CODESIZE PUSH2 0xB37 JUMP JUMPDEST PUSH1 0x40 MLOAD RETURNDATASIZE DUP10 DUP3 RETURNDATACOPY RETURNDATASIZE SWAP1 REVERT JUMPDEST SWAP1 POP PUSH2 0xB7B DUP2 PUSH2 0x2446 JUMP JUMPDEST SWAP1 SLOAD PUSH1 0x3 SWAP2 SWAP1 SWAP2 SHL SHR PUSH1 0x1 PUSH1 0x1 PUSH1 0xA0 SHL SUB AND DUP7 MSTORE PUSH1 0xA PUSH1 0x20 MSTORE PUSH1 0x40 DUP7 KECCAK256 SLOAD PUSH1 0xFF AND PUSH1 0x8 DUP2 LT ISZERO PUSH2 0xBAE JUMPI PUSH1 0x7 EQ SWAP1 PUSH2 0xAAB JUMP JUMPDEST PUSH4 0x4E487B71 PUSH1 0xE0 SHL DUP8 MSTORE PUSH1 0x21 PUSH1 0x4 MSTORE PUSH1 0x24 DUP8 REVERT JUMPDEST PUSH2 0xBCB DUP2 PUSH2 0x2446 JUMP JUMPDEST SWAP1 SLOAD PUSH1 0x3 SWAP2 SWAP1 SWAP2 SHL SHR PUSH1 0x1 PUSH1 0x1 PUSH1 0xA0 SHL SUB AND DUP6 MSTORE PUSH1 0xA PUSH1 0x20 MSTORE PUSH1 0x40 DUP6 KECCAK256 SLOAD PUSH1 0xFF AND PUSH1 0x8 DUP2 LT ISZERO PUSH2 0xCD7 JUMPI PUSH1 0x6 EQ DUP1 ISZERO PUSH2 0xC9B JUMPI JUMPDEST DUP1 PUSH2 0xC26 JUMPI JUMPDEST PUSH2 0xC12 JUMPI JUMPDEST PUSH1 0x1 ADD PUSH2 0xA3A JUMP JUMPDEST SWAP1 PUSH2 0xC1E PUSH1 0x1 SWAP2 PUSH2 0x2574 JUMP JUMPDEST SWAP2 SWAP1 POP PUSH2 0xC0A JUMP JUMPDEST POP PUSH1 0x4 DUP6 PUSH2 0xC33 DUP4 PUSH2 0x2446 JUMP JUMPDEST SWAP1 SLOAD PUSH1 0x40 MLOAD PUSH4 0x1F385F79 PUSH1 0xE2 SHL DUP2 MSTORE SWAP4 DUP5 SWAP3 SWAP1 SWAP2 DUP4 SWAP2 PUSH1 0x3 SHL SHR PUSH1 0x1 PUSH1 0x1 PUSH1 0xA0 SHL SUB AND GAS STATICCALL SWAP1 DUP2 ISZERO PUSH2 0xC90 JUMPI DUP6 SWAP2 PUSH2 0x100 SWAP2 DUP9 SWAP2 PUSH2 0xC76 JUMPI JUMPDEST POP ADD MLOAD LT ISZERO PUSH2 0xC05 JUMP JUMPDEST PUSH2 0xC8A SWAP2 POP RETURNDATASIZE DUP1 DUP11 DUP4 RETURNDATACOPY PUSH2 0xB57 DUP2 DUP4 PUSH2 0x2552 JUMP JUMPDEST CODESIZE PUSH2 0xC6C JUMP JUMPDEST PUSH1 0x40 MLOAD RETURNDATASIZE DUP9 DUP3 RETURNDATACOPY RETURNDATASIZE SWAP1 REVERT JUMPDEST POP PUSH2 0xCA5 DUP2 PUSH2 0x2446 JUMP JUMPDEST SWAP1 SLOAD PUSH1 0x3 SWAP2 SWAP1 SWAP2 SHL SHR PUSH1 0x1 PUSH1 0x1 PUSH1 0xA0 SHL SUB AND DUP6 MSTORE PUSH1 0xA PUSH1 0x20 MSTORE PUSH1 0x40 DUP6 KECCAK256 SLOAD PUSH1 0xFF AND PUSH1 0x8 DUP2 LT ISZERO PUSH2 0xCD7 JUMPI PUSH1 0x7 EQ PUSH2 0xBFF JUMP JUMPDEST PUSH4 0x4E487B71 PUSH1 0xE0 SHL DUP7 MSTORE PUSH1 0x21 PUSH1 0x4 MSTORE PUSH1 0x24 DUP7 REVERT JUMPDEST POP CALLVALUE PUSH2 0x231 JUMPI PUSH1 0x20 CALLDATASIZE PUSH1 0x3 NOT ADD SLT PUSH2 0x231 JUMPI PUSH1 0x4 CALLDATALOAD PUSH1 0x1 PUSH1 0x1 PUSH1 0xA0 SHL SUB DUP2 AND SWAP1 DUP2 SWAP1 SUB PUSH2 0x22F JUMPI PUSH1 0x40 DUP3 PUSH1 0xFF SWAP3 PUSH1 0x20 SWAP5 MSTORE PUSH1 0x9 DUP5 MSTORE KECCAK256 SLOAD AND PUSH1 0x40 MLOAD SWAP1 ISZERO ISZERO DUP2 MSTORE RETURN JUMPDEST POP PUSH1 0x20 CALLDATASIZE PUSH1 0x3 NOT ADD SLT PUSH2 0x231 JUMPI PUSH1 0x4 CALLDATALOAD PUSH1 0x7 DUP2 LT ISZERO PUSH2 0x22F JUMPI CALLER DUP3 MSTORE PUSH1 0x9 PUSH1 0x20 MSTORE PUSH2 0xD5E PUSH1 0xFF PUSH1 0x40 DUP5 KECCAK256 SLOAD AND PUSH2 0x2CBD JUMP JUMPDEST PUSH2 0xD66 PUSH2 0x2D28 JUMP JUMPDEST CALLVALUE ISZERO PUSH2 0xE5D JUMPI CALLER DUP3 MSTORE PUSH1 0xA PUSH1 0x20 MSTORE PUSH1 0xFF PUSH1 0x40 DUP4 KECCAK256 SLOAD AND PUSH1 0x8 DUP2 LT ISZERO PUSH2 0x97A JUMPI PUSH1 0x6 EQ DUP1 ISZERO PUSH2 0xE3B JUMPI JUMPDEST ISZERO PUSH2 0xDFF JUMPI PUSH2 0xD9D DUP2 PUSH2 0x248F JUMP JUMPDEST PUSH2 0xDA8 CALLVALUE DUP3 SLOAD PUSH2 0x2851 JUMP JUMPDEST SWAP1 SSTORE PUSH2 0xDB6 CALLVALUE PUSH1 0x4 SLOAD PUSH2 0x2851 JUMP JUMPDEST PUSH1 0x4 SSTORE PUSH2 0xDC8 PUSH1 0x3 CALLVALUE DIV PUSH1 0x5 SLOAD PUSH2 0x2851 JUMP JUMPDEST PUSH1 0x5 SSTORE PUSH1 0x40 MLOAD SWAP1 CALLVALUE DUP3 MSTORE PUSH32 0x606617FD09D9890413E3C46147B844D4562351F86E0F7A5C60849BBF0EF02811 PUSH1 0x20 CALLER SWAP4 LOG3 PUSH1 0x1 DUP1 SSTORE DUP1 RETURN JUMPDEST PUSH1 0x40 MLOAD PUSH3 0x461BCD PUSH1 0xE5 SHL DUP2 MSTORE PUSH1 0x20 PUSH1 0x4 DUP3 ADD MSTORE PUSH1 0x14 PUSH1 0x24 DUP3 ADD MSTORE PUSH20 0x21B0B63632B9103737BA10309036B4B9B9B4B7B7 PUSH1 0x61 SHL PUSH1 0x44 DUP3 ADD MSTORE PUSH1 0x64 SWAP1 REVERT JUMPDEST POP CALLER DUP3 MSTORE PUSH1 0xA PUSH1 0x20 MSTORE PUSH1 0xFF PUSH1 0x40 DUP4 KECCAK256 SLOAD AND PUSH1 0x8 DUP2 LT ISZERO PUSH2 0x97A JUMPI PUSH1 0x7 EQ PUSH2 0xD8F JUMP JUMPDEST PUSH1 0x64 PUSH1 0x40 MLOAD PUSH3 0x461BCD PUSH1 0xE5 SHL DUP2 MSTORE PUSH1 0x20 PUSH1 0x4 DUP3 ADD MSTORE PUSH1 0x20 PUSH1 0x24 DUP3 ADD MSTORE PUSH32 0x416D6F756E74206D7573742062652067726561746572207468616E207A65726F PUSH1 0x44 DUP3 ADD MSTORE REVERT JUMPDEST POP PUSH2 0x120 CALLDATASIZE PUSH1 0x3 NOT ADD SLT PUSH2 0x231 JUMPI PUSH1 0x4 CALLDATALOAD PUSH1 0x7 DUP2 LT ISZERO PUSH2 0x22F JUMPI PUSH1 0x24 CALLDATALOAD SWAP1 PUSH1 0x44 CALLDATALOAD SWAP2 PUSH1 0x64 CALLDATALOAD PUSH1 0x84 CALLDATALOAD PUSH1 0xFF DUP2 AND DUP1 SWAP2 SUB PUSH2 0x13B9 JUMPI PUSH1 0xA4 CALLDATALOAD PUSH1 0xFF DUP2 AND DUP1 SWAP2 SUB PUSH2 0x13B5 JUMPI PUSH1 0xC4 CALLDATALOAD SWAP1 PUSH1 0xE4 CALLDATALOAD SWAP3 PUSH2 0x104 CALLDATALOAD SWAP5 PUSH1 0xFF DUP7 AND DUP1 SWAP7 SUB PUSH2 0x13B1 JUMPI DUP10 SLOAD PUSH1 0x1 PUSH1 0x1 PUSH1 0xA0 SHL SUB AND CALLER EQ DUP1 ISZERO PUSH2 0x139B JUMPI JUMPDEST PUSH2 0xF17 SWAP1 PUSH2 0x24A8 JUMP JUMPDEST PUSH1 0x5 DUP7 LT PUSH2 0x133C JUMPI DUP6 DUP3 LT PUSH2 0x12D1 JUMPI DUP9 DUP8 LT ISZERO PUSH2 0x1280 JUMPI DUP9 DUP5 LT PUSH2 0x1222 JUMPI DUP4 DUP6 GT ISZERO PUSH2 0x11DE JUMPI DUP1 ISZERO PUSH2 0x1185 JUMPI PUSH32 0x0 PUSH1 0x88 DUP2 SWAP1 SHR PUSH3 0xFFFFFF AND PUSH23 0x3D602D80600A3D3981F3363D3D373D3D3D363D73000000 OR DUP12 MSTORE PUSH1 0x78 SHL PUSH15 0x5AF43D82803E903D91602B57FD5BF3 OR PUSH1 0x20 MSTORE PUSH1 0x1 PUSH1 0x1 PUSH1 0xA0 SHL SUB PUSH1 0x37 PUSH1 0x9 DUP13 CREATE AND SWAP9 DUP10 ISZERO PUSH2 0x1176 JUMPI DUP10 DUP12 MSTORE PUSH1 0x9 PUSH1 0x20 MSTORE PUSH1 0x40 DUP12 KECCAK256 PUSH1 0x1 PUSH1 0xFF NOT DUP3 SLOAD AND OR SWAP1 SSTORE DUP10 DUP12 MSTORE PUSH1 0xA PUSH1 0x20 MSTORE PUSH1 0x40 DUP12 KECCAK256 PUSH1 0xFF NOT DUP2 SLOAD AND SWAP1 SSTORE PUSH1 0x1 DUP1 PUSH1 0xA0 SHL SUB DUP12 SLOAD AND SWAP8 DUP11 EXTCODESIZE ISZERO PUSH2 0x1172 JUMPI PUSH1 0x40 MLOAD SWAP9 PUSH4 0xC54168B3 PUSH1 0xE0 SHL DUP11 MSTORE PUSH1 0x4 DUP11 ADD MSTORE ADDRESS PUSH1 0x24 DUP11 ADD MSTORE PUSH2 0x1019 PUSH1 0x44 DUP11 ADD DUP12 PUSH2 0x2439 JUMP JUMPDEST PUSH1 0x64 DUP10 ADD MSTORE PUSH1 0x84 DUP9 ADD MSTORE PUSH1 0xA4 DUP8 ADD MSTORE PUSH1 0xC4 DUP7 ADD MSTORE PUSH1 0xE4 DUP6 ADD MSTORE PUSH2 0x104 DUP5 ADD MSTORE PUSH2 0x124 DUP4 ADD MSTORE PUSH2 0x144 DUP3 ADD MSTORE DUP4 DUP2 PUSH2 0x164 DUP2 CALLVALUE DUP8 GAS CALL DUP1 ISZERO PUSH2 0x1167 JUMPI PUSH2 0x1153 JUMPI JUMPDEST POP PUSH1 0x2 SLOAD PUSH1 0x1 PUSH1 0x40 SHL DUP2 LT ISZERO PUSH2 0x84F JUMPI DUP1 PUSH1 0x1 PUSH2 0x1079 SWAP3 ADD PUSH1 0x2 SSTORE PUSH2 0x2446 JUMP JUMPDEST DUP2 SLOAD PUSH1 0x1 PUSH1 0x1 PUSH1 0xA0 SHL SUB PUSH1 0x3 SWAP3 SWAP1 SWAP3 SHL SWAP2 DUP3 SHL NOT AND SWAP1 DUP5 SWAP1 SHL OR SWAP1 SSTORE DUP1 DUP3 PUSH32 0xAC1AC89285BF936F515AAFCF6808B3E062E77FD57F52C8892D20FC9409B8B53 DUP6 DUP1 LOG3 PUSH2 0x10C4 DUP2 PUSH2 0x248F JUMP JUMPDEST SLOAD PUSH1 0x2 SHR SWAP1 DUP2 ISZERO ISZERO DUP1 PUSH2 0x1149 JUMPI JUMPDEST PUSH2 0x10E2 JUMPI JUMPDEST PUSH1 0x20 DUP4 PUSH1 0x40 MLOAD SWAP1 DUP2 MSTORE RETURN JUMPDEST PUSH2 0x10EB SWAP1 PUSH2 0x248F JUMP JUMPDEST PUSH2 0x10F6 DUP3 DUP3 SLOAD PUSH2 0x285E JUMP JUMPDEST SWAP1 SSTORE DUP3 DUP3 EXTCODESIZE ISZERO PUSH2 0x231 JUMPI PUSH1 0x40 MLOAD PUSH4 0xEB2BAB77 PUSH1 0xE0 SHL DUP2 MSTORE SWAP2 DUP3 SWAP1 PUSH1 0x4 SWAP1 DUP3 SWAP1 DUP7 GAS CALL DUP1 ISZERO PUSH2 0x113E JUMPI PUSH2 0x1129 JUMPI JUMPDEST DUP1 PUSH2 0x10D7 JUMP JUMPDEST PUSH2 0x1134 DUP4 DUP1 SWAP3 PUSH2 0x2552 JUMP JUMPDEST PUSH2 0x22F JUMPI DUP2 PUSH2 0x1123 JUMP JUMPDEST PUSH1 0x40 MLOAD RETURNDATASIZE DUP6 DUP3 RETURNDATACOPY RETURNDATASIZE SWAP1 REVERT JUMPDEST POP DUP2 SELFBALANCE LT ISZERO PUSH2 0x10D2 JUMP JUMPDEST DUP4 PUSH2 0x1160 SWAP2 SWAP5 SWAP3 SWAP5 PUSH2 0x2552 JUMP JUMPDEST SWAP2 CODESIZE PUSH2 0x1059 JUMP JUMPDEST PUSH1 0x40 MLOAD RETURNDATASIZE DUP7 DUP3 RETURNDATACOPY RETURNDATASIZE SWAP1 REVERT JUMPDEST DUP12 DUP1 REVERT JUMPDEST PUSH4 0xB06EBF3D PUSH1 0xE0 SHL DUP12 MSTORE PUSH1 0x4 DUP12 REVERT JUMPDEST PUSH1 0x40 MLOAD PUSH3 0x461BCD PUSH1 0xE5 SHL DUP2 MSTORE PUSH1 0x20 PUSH1 0x4 DUP3 ADD MSTORE PUSH1 0x2B PUSH1 0x24 DUP3 ADD MSTORE PUSH32 0x456E726F6C6C6D656E7420616D6F756E74206D75737420626520677265617465 PUSH1 0x44 DUP3 ADD MSTORE PUSH11 0x72207468616E207A65726F PUSH1 0xA8 SHL PUSH1 0x64 DUP3 ADD MSTORE PUSH1 0x84 SWAP1 REVERT JUMPDEST PUSH1 0x64 PUSH1 0x40 MLOAD PUSH3 0x461BCD PUSH1 0xE5 SHL DUP2 MSTORE PUSH1 0x20 PUSH1 0x4 DUP3 ADD MSTORE PUSH1 0x20 PUSH1 0x24 DUP3 ADD MSTORE PUSH32 0x4D697373696F6E207374617274206D757374206265206265666F726520656E64 PUSH1 0x44 DUP3 ADD MSTORE REVERT JUMPDEST PUSH1 0x40 MLOAD PUSH3 0x461BCD PUSH1 0xE5 SHL DUP2 MSTORE PUSH1 0x20 PUSH1 0x4 DUP3 ADD MSTORE PUSH1 0x30 PUSH1 0x24 DUP3 ADD MSTORE PUSH32 0x4D697373696F6E207374617274206D757374206265206F6E206F722061667465 PUSH1 0x44 DUP3 ADD MSTORE PUSH16 0x1C88195B9C9BDB1B1B595B9D08195B99 PUSH1 0x82 SHL PUSH1 0x64 DUP3 ADD MSTORE PUSH1 0x84 SWAP1 REVERT JUMPDEST PUSH1 0x40 MLOAD PUSH3 0x461BCD PUSH1 0xE5 SHL DUP2 MSTORE PUSH1 0x20 PUSH1 0x4 DUP3 ADD MSTORE PUSH1 0x23 PUSH1 0x24 DUP3 ADD MSTORE PUSH32 0x456E726F6C6C6D656E74207374617274206D757374206265206265666F726520 PUSH1 0x44 DUP3 ADD MSTORE PUSH3 0x195B99 PUSH1 0xEA SHL PUSH1 0x64 DUP3 ADD MSTORE PUSH1 0x84 SWAP1 REVERT JUMPDEST PUSH1 0x40 MLOAD PUSH3 0x461BCD PUSH1 0xE5 SHL DUP2 MSTORE PUSH1 0x20 PUSH1 0x4 DUP3 ADD MSTORE PUSH1 0x3F PUSH1 0x24 DUP3 ADD MSTORE PUSH32 0x4D696E696D756D20706C6179657273206D757374206265206772656174657220 PUSH1 0x44 DUP3 ADD MSTORE PUSH32 0x7468616E206F7220657175616C20746F206D697373696F6E20726F756E647300 PUSH1 0x64 DUP3 ADD MSTORE PUSH1 0x84 SWAP1 REVERT JUMPDEST PUSH1 0x40 MLOAD PUSH3 0x461BCD PUSH1 0xE5 SHL DUP2 MSTORE PUSH1 0x20 PUSH1 0x4 DUP3 ADD MSTORE PUSH1 0x31 PUSH1 0x24 DUP3 ADD MSTORE PUSH32 0x4D697373696F6E20726F756E6473206D75737420626520677265617465722074 PUSH1 0x44 DUP3 ADD MSTORE PUSH17 0x68616E206F7220657175616C20746F2035 PUSH1 0x78 SHL PUSH1 0x64 DUP3 ADD MSTORE PUSH1 0x84 SWAP1 REVERT JUMPDEST POP CALLER DUP11 MSTORE PUSH1 0x8 PUSH1 0x20 MSTORE PUSH1 0x40 DUP11 KECCAK256 SLOAD PUSH1 0xFF AND PUSH2 0xF0E JUMP JUMPDEST DUP10 DUP1 REVERT JUMPDEST DUP7 DUP1 REVERT JUMPDEST DUP6 DUP1 REVERT JUMPDEST POP CALLVALUE PUSH2 0x231 JUMPI PUSH1 0x20 CALLDATASIZE PUSH1 0x3 NOT ADD SLT PUSH2 0x231 JUMPI PUSH1 0x4 CALLDATALOAD PUSH1 0x1 PUSH1 0x1 PUSH1 0xA0 SHL SUB DUP2 AND DUP2 SUB PUSH2 0x22F JUMPI PUSH2 0x13EB SWAP1 PUSH2 0x2B3E JUMP JUMPDEST PUSH1 0x40 MLOAD SWAP2 ISZERO ISZERO DUP3 MSTORE PUSH1 0x3 DUP2 LT ISZERO PUSH2 0x97A JUMPI PUSH1 0x40 SWAP3 POP PUSH1 0x20 DUP3 ADD MSTORE RETURN JUMPDEST POP CALLVALUE PUSH2 0x231 JUMPI DUP1 PUSH1 0x3 NOT CALLDATASIZE ADD SLT PUSH2 0x231 JUMPI SLOAD PUSH1 0x40 MLOAD PUSH1 0x1 PUSH1 0x1 PUSH1 0xA0 SHL SUB SWAP1 SWAP2 AND DUP2 MSTORE PUSH1 0x20 SWAP1 RETURN JUMPDEST POP CALLVALUE PUSH2 0x231 JUMPI DUP1 PUSH1 0x3 NOT CALLDATASIZE ADD SLT PUSH2 0x231 JUMPI PUSH1 0x20 PUSH1 0xFF PUSH1 0x3 SLOAD AND PUSH1 0x40 MLOAD SWAP1 DUP2 MSTORE RETURN JUMPDEST POP CALLVALUE PUSH2 0x231 JUMPI DUP1 PUSH1 0x3 NOT CALLDATASIZE ADD SLT PUSH2 0x231 JUMPI PUSH1 0x20 PUSH1 0x7 SLOAD PUSH1 0x40 MLOAD SWAP1 DUP2 MSTORE RETURN JUMPDEST POP CALLVALUE PUSH2 0x231 JUMPI PUSH1 0x20 CALLDATASIZE PUSH1 0x3 NOT ADD SLT PUSH2 0x231 JUMPI PUSH1 0x2 SLOAD SWAP1 PUSH1 0x4 CALLDATALOAD DUP3 DUP2 GT PUSH2 0x14F9 JUMPI JUMPDEST PUSH2 0x1497 DUP2 PUSH2 0x25B1 JUMP JUMPDEST SWAP2 DUP1 PUSH1 0x0 NOT DUP6 ADD SWAP5 DUP6 GT SWAP1 JUMPDEST DUP4 DUP2 LT PUSH2 0x14C0 JUMPI PUSH1 0x40 MLOAD PUSH1 0x20 DUP1 DUP3 MSTORE DUP2 SWAP1 PUSH2 0x22B SWAP1 DUP3 ADD DUP9 PUSH2 0x23FC JUMP JUMPDEST DUP2 PUSH2 0x930 JUMPI DUP1 PUSH2 0x14DA PUSH2 0x14D5 PUSH1 0x1 SWAP4 DUP10 PUSH2 0x285E JUMP JUMPDEST PUSH2 0x2446 JUMP JUMPDEST DUP4 DUP1 PUSH1 0xA0 SHL SUB SWAP2 SLOAD SWAP1 PUSH1 0x3 SHL SHR AND PUSH2 0x14F2 DUP3 DUP9 PUSH2 0x25E3 JUMP JUMPDEST MSTORE ADD PUSH2 0x14A3 JUMP JUMPDEST POP DUP2 PUSH2 0x148E JUMP JUMPDEST POP CALLVALUE PUSH2 0x231 JUMPI DUP1 PUSH1 0x3 NOT CALLDATASIZE ADD SLT PUSH2 0x231 JUMPI PUSH2 0x1519 PUSH2 0x2D4A JUMP JUMPDEST DUP1 SLOAD PUSH1 0x1 PUSH1 0x1 PUSH1 0xA0 SHL SUB NOT DUP2 AND DUP3 SSTORE DUP2 SWAP1 PUSH1 0x1 PUSH1 0x1 PUSH1 0xA0 SHL SUB AND PUSH32 0x8BE0079C531659141344CD1FD0A4F28419497F9722A3DAAFE3B4186F6B6457E0 DUP3 DUP1 LOG3 DUP1 RETURN JUMPDEST POP CALLVALUE PUSH2 0x231 JUMPI PUSH1 0x20 CALLDATASIZE PUSH1 0x3 NOT ADD SLT PUSH2 0x231 JUMPI PUSH1 0x4 CALLDATALOAD PUSH1 0x1 PUSH1 0x1 PUSH1 0xA0 SHL SUB DUP2 AND SWAP1 DUP2 SWAP1 SUB PUSH2 0x22F JUMPI DUP2 SLOAD PUSH1 0x1 PUSH1 0x1 PUSH1 0xA0 SHL SUB AND CALLER EQ DUP1 ISZERO PUSH2 0x162F JUMPI JUMPDEST PUSH2 0x159E SWAP1 PUSH2 0x24A8 JUMP JUMPDEST PUSH2 0x15A9 DUP2 ISZERO ISZERO PUSH2 0x286B JUMP JUMPDEST DUP1 DUP3 MSTORE PUSH1 0x8 PUSH1 0x20 MSTORE PUSH1 0xFF PUSH1 0x40 DUP4 KECCAK256 SLOAD AND ISZERO PUSH2 0x15F9 JUMPI DUP1 DUP3 MSTORE PUSH1 0x8 PUSH1 0x20 MSTORE PUSH1 0x40 DUP3 KECCAK256 DUP1 SLOAD PUSH1 0xFF NOT AND SWAP1 SSTORE PUSH32 0x66D5F06F711AF3C9FEBA3203FDB00B51345D514C68585D9D319C5FF5E6F77592 DUP3 DUP1 LOG2 DUP1 RETURN JUMPDEST PUSH1 0x40 MLOAD PUSH3 0x461BCD PUSH1 0xE5 SHL DUP2 MSTORE PUSH1 0x20 PUSH1 0x4 DUP3 ADD MSTORE PUSH1 0xE PUSH1 0x24 DUP3 ADD MSTORE PUSH14 0x139BDD08185D5D1A1BDC9A5E9959 PUSH1 0x92 SHL PUSH1 0x44 DUP3 ADD MSTORE PUSH1 0x64 SWAP1 REVERT JUMPDEST POP CALLER DUP3 MSTORE PUSH1 0x8 PUSH1 0x20 MSTORE PUSH1 0x40 DUP3 KECCAK256 SLOAD PUSH1 0xFF AND PUSH2 0x1595 JUMP JUMPDEST POP CALLVALUE PUSH2 0x231 JUMPI DUP1 PUSH1 0x3 NOT CALLDATASIZE ADD SLT PUSH2 0x231 JUMPI PUSH2 0x1678 SWAP1 PUSH2 0x1662 PUSH2 0x28A9 JUMP JUMPDEST SWAP1 SWAP2 PUSH1 0x40 MLOAD SWAP4 DUP5 SWAP4 PUSH1 0x40 DUP6 MSTORE PUSH1 0x40 DUP6 ADD SWAP1 PUSH2 0x23FC JUMP JUMPDEST DUP4 DUP2 SUB PUSH1 0x20 DUP6 ADD MSTORE PUSH1 0x20 DUP1 DUP5 MLOAD SWAP3 DUP4 DUP2 MSTORE ADD SWAP4 ADD SWAP2 JUMPDEST DUP2 DUP2 LT PUSH2 0x169C JUMPI POP POP POP SUB SWAP1 RETURN JUMPDEST SWAP2 SWAP4 POP SWAP2 PUSH1 0x20 DUP1 DUP3 PUSH2 0x16B1 PUSH1 0x1 SWAP5 DUP9 MLOAD PUSH2 0x23D9 JUMP JUMPDEST ADD SWAP5 ADD SWAP2 ADD SWAP2 DUP5 SWAP4 SWAP3 PUSH2 0x168E JUMP JUMPDEST POP CALLVALUE PUSH2 0x231 JUMPI DUP1 PUSH1 0x3 NOT CALLDATASIZE ADD SLT PUSH2 0x231 JUMPI PUSH1 0x2 SLOAD DUP2 DUP3 JUMPDEST DUP3 DUP2 LT PUSH2 0x17C1 JUMPI POP PUSH2 0x16E7 SWAP1 PUSH2 0x25B1 JUMP JUMPDEST SWAP1 DUP3 DUP4 JUMPDEST DUP3 DUP2 LT PUSH2 0x1708 JUMPI PUSH1 0x40 MLOAD PUSH1 0x20 DUP1 DUP3 MSTORE DUP2 SWAP1 PUSH2 0x22B SWAP1 DUP3 ADD DUP8 PUSH2 0x23FC JUMP JUMPDEST PUSH2 0x1711 DUP2 PUSH2 0x2446 JUMP JUMPDEST SWAP1 SLOAD PUSH1 0x3 SWAP2 SWAP1 SWAP2 SHL SHR PUSH1 0x1 PUSH1 0x1 PUSH1 0xA0 SHL SUB AND DUP6 MSTORE PUSH1 0xA PUSH1 0x20 MSTORE PUSH1 0x40 DUP6 KECCAK256 SLOAD PUSH1 0xFF AND PUSH1 0x8 DUP2 LT ISZERO PUSH2 0xCD7 JUMPI PUSH1 0x6 EQ ISZERO DUP1 PUSH2 0x1784 JUMPI JUMPDEST SWAP1 PUSH1 0x1 SWAP2 PUSH2 0x1754 JUMPI JUMPDEST ADD PUSH2 0x16EB JUMP JUMPDEST PUSH2 0x175D DUP2 PUSH2 0x2446 JUMP JUMPDEST DUP4 DUP1 PUSH1 0xA0 SHL SUB SWAP2 SLOAD SWAP1 PUSH1 0x3 SHL SHR AND PUSH2 0x177E PUSH2 0x1777 DUP6 PUSH2 0x2574 JUMP JUMPDEST SWAP5 DUP8 PUSH2 0x25E3 JUMP JUMPDEST MSTORE PUSH2 0x174E JUMP JUMPDEST POP PUSH2 0x178E DUP2 PUSH2 0x2446 JUMP JUMPDEST SWAP1 SLOAD PUSH1 0x3 SWAP2 SWAP1 SWAP2 SHL SHR PUSH1 0x1 PUSH1 0x1 PUSH1 0xA0 SHL SUB AND DUP6 MSTORE PUSH1 0xA PUSH1 0x20 MSTORE PUSH1 0x40 DUP6 KECCAK256 SLOAD PUSH1 0xFF AND PUSH1 0x8 DUP2 LT ISZERO PUSH2 0xCD7 JUMPI PUSH1 0x7 EQ ISZERO PUSH2 0x1745 JUMP JUMPDEST PUSH2 0x17CA DUP2 PUSH2 0x2446 JUMP JUMPDEST SWAP1 SLOAD PUSH1 0x3 SWAP2 SWAP1 SWAP2 SHL SHR PUSH1 0x1 PUSH1 0x1 PUSH1 0xA0 SHL SUB AND DUP5 MSTORE PUSH1 0xA PUSH1 0x20 MSTORE PUSH1 0x40 DUP5 KECCAK256 SLOAD PUSH1 0xFF AND PUSH1 0x8 DUP2 LT ISZERO PUSH2 0x185C JUMPI PUSH1 0x6 EQ ISZERO DUP1 PUSH2 0x181F JUMPI JUMPDEST PUSH2 0x180B JUMPI JUMPDEST PUSH1 0x1 ADD PUSH2 0x16D6 JUMP JUMPDEST SWAP1 PUSH2 0x1817 PUSH1 0x1 SWAP2 PUSH2 0x2574 JUMP JUMPDEST SWAP2 SWAP1 POP PUSH2 0x1803 JUMP JUMPDEST POP PUSH2 0x1829 DUP2 PUSH2 0x2446 JUMP JUMPDEST SWAP1 SLOAD PUSH1 0x3 SWAP2 SWAP1 SWAP2 SHL SHR PUSH1 0x1 PUSH1 0x1 PUSH1 0xA0 SHL SUB AND DUP5 MSTORE PUSH1 0xA PUSH1 0x20 MSTORE PUSH1 0x40 DUP5 KECCAK256 SLOAD PUSH1 0xFF AND PUSH1 0x8 DUP2 LT ISZERO PUSH2 0x185C JUMPI PUSH1 0x7 EQ ISZERO PUSH2 0x17FE JUMP JUMPDEST PUSH4 0x4E487B71 PUSH1 0xE0 SHL DUP6 MSTORE PUSH1 0x21 PUSH1 0x4 MSTORE PUSH1 0x24 DUP6 REVERT JUMPDEST POP CALLVALUE PUSH2 0x231 JUMPI DUP1 PUSH1 0x3 NOT CALLDATASIZE ADD SLT PUSH2 0x231 JUMPI PUSH1 0x20 PUSH1 0x4 SLOAD PUSH1 0x40 MLOAD SWAP1 DUP2 MSTORE RETURN JUMPDEST POP CALLVALUE PUSH2 0x231 JUMPI DUP1 PUSH1 0x3 NOT CALLDATASIZE ADD SLT PUSH2 0x231 JUMPI PUSH1 0x20 PUSH1 0x2 SLOAD PUSH1 0x40 MLOAD SWAP1 DUP2 MSTORE RETURN JUMPDEST POP CALLVALUE PUSH2 0x231 JUMPI PUSH1 0x20 CALLDATASIZE PUSH1 0x3 NOT ADD SLT PUSH2 0x231 JUMPI PUSH1 0x4 CALLDATALOAD PUSH1 0x1 PUSH1 0x1 PUSH1 0xA0 SHL SUB DUP2 AND SWAP1 DUP2 SWAP1 SUB PUSH2 0x22F JUMPI DUP2 SLOAD PUSH1 0x1 PUSH1 0x1 PUSH1 0xA0 SHL SUB AND CALLER EQ DUP1 ISZERO PUSH2 0x1987 JUMPI JUMPDEST PUSH2 0x18F0 SWAP1 PUSH2 0x24A8 JUMP JUMPDEST PUSH2 0x18FB DUP2 ISZERO ISZERO PUSH2 0x286B JUMP JUMPDEST DUP1 DUP3 MSTORE PUSH1 0x8 PUSH1 0x20 MSTORE PUSH1 0xFF PUSH1 0x40 DUP4 KECCAK256 SLOAD AND PUSH2 0x194D JUMPI DUP1 DUP3 MSTORE PUSH1 0x8 PUSH1 0x20 MSTORE PUSH1 0x40 DUP3 KECCAK256 DUP1 SLOAD PUSH1 0xFF NOT AND PUSH1 0x1 OR SWAP1 SSTORE PUSH32 0x10AC961F00D5E732BA4DCC2C6FB09BEBEA0EB9EDD2A75C8109775EF288382E67 DUP3 DUP1 LOG2 DUP1 RETURN JUMPDEST PUSH1 0x40 MLOAD PUSH3 0x461BCD PUSH1 0xE5 SHL DUP2 MSTORE PUSH1 0x20 PUSH1 0x4 DUP3 ADD MSTORE PUSH1 0x12 PUSH1 0x24 DUP3 ADD MSTORE PUSH18 0x105B1C9958591E48185D5D1A1BDC9A5E9959 PUSH1 0x72 SHL PUSH1 0x44 DUP3 ADD MSTORE PUSH1 0x64 SWAP1 REVERT JUMPDEST POP CALLER DUP3 MSTORE PUSH1 0x8 PUSH1 0x20 MSTORE PUSH1 0x40 DUP3 KECCAK256 SLOAD PUSH1 0xFF AND PUSH2 0x18E7 JUMP JUMPDEST POP CALLVALUE PUSH2 0x231 JUMPI PUSH1 0x20 CALLDATASIZE PUSH1 0x3 NOT ADD SLT PUSH2 0x231 JUMPI PUSH1 0x4 CALLDATALOAD PUSH1 0x1 PUSH1 0x1 PUSH1 0xA0 SHL SUB DUP2 AND DUP1 DUP3 SUB PUSH2 0x287 JUMPI DUP3 SLOAD PUSH1 0x1 PUSH1 0x1 PUSH1 0xA0 SHL SUB AND CALLER EQ DUP1 ISZERO PUSH2 0x1B9A JUMPI JUMPDEST PUSH2 0x19E0 SWAP1 PUSH2 0x24A8 JUMP JUMPDEST DUP1 DUP4 MSTORE PUSH1 0xB PUSH1 0x20 MSTORE PUSH1 0x40 DUP4 KECCAK256 PUSH1 0x40 MLOAD PUSH2 0x19F8 DUP2 PUSH2 0x2536 JUMP JUMPDEST DUP2 SLOAD PUSH1 0x1 PUSH1 0x1 PUSH1 0xA0 SHL SUB AND DUP1 DUP3 MSTORE PUSH1 0x1 SWAP1 SWAP3 ADD SLOAD PUSH1 0x20 DUP3 ADD SWAP1 DUP2 MSTORE SWAP2 ISZERO PUSH2 0x1B55 JUMPI MLOAD PUSH1 0x1 PUSH1 0x1 PUSH1 0xA0 SHL SUB AND CALLER EQ PUSH2 0x1B11 JUMPI MLOAD PUSH3 0x15180 DUP2 ADD DUP1 SWAP2 GT PUSH2 0x1AFD JUMPI TIMESTAMP GT PUSH2 0x1AC5 JUMPI PUSH2 0x1A45 PUSH2 0x2D4A JUMP JUMPDEST DUP1 ISZERO PUSH2 0x1AB1 JUMPI PUSH2 0x1A54 DUP3 PUSH2 0x2D73 JUMP JUMPDEST DUP3 MSTORE PUSH1 0xB PUSH1 0x20 SWAP1 DUP2 MSTORE PUSH1 0x40 DUP1 DUP5 KECCAK256 DUP5 DUP2 SSTORE PUSH1 0x1 ADD DUP5 SWAP1 SSTORE DUP1 MLOAD PUSH1 0x1 PUSH1 0x1 PUSH1 0xA0 SHL SUB SWAP1 SWAP4 AND DUP4 MSTORE TIMESTAMP SWAP2 DUP4 ADD SWAP2 SWAP1 SWAP2 MSTORE CALLER SWAP2 PUSH32 0xDD72DD33198968A9CDC9B1E5CBFF344FB8D04D99F8C15C0A02416B04E857B467 SWAP2 DUP2 SWAP1 DUP2 ADD JUMPDEST SUB SWAP1 LOG2 DUP1 RETURN JUMPDEST PUSH4 0x1E4FBDF7 PUSH1 0xE0 SHL DUP4 MSTORE PUSH1 0x4 DUP4 SWAP1 MSTORE PUSH1 0x24 DUP4 REVERT JUMPDEST PUSH1 0x40 MLOAD PUSH3 0x461BCD PUSH1 0xE5 SHL DUP2 MSTORE PUSH1 0x20 PUSH1 0x4 DUP3 ADD MSTORE PUSH1 0x10 PUSH1 0x24 DUP3 ADD MSTORE PUSH16 0x141C9BDC1BDCD85B08195E1C1A5C9959 PUSH1 0x82 SHL PUSH1 0x44 DUP3 ADD MSTORE PUSH1 0x64 SWAP1 REVERT JUMPDEST PUSH4 0x4E487B71 PUSH1 0xE0 SHL DUP5 MSTORE PUSH1 0x11 PUSH1 0x4 MSTORE PUSH1 0x24 DUP5 REVERT JUMPDEST PUSH1 0x64 PUSH1 0x40 MLOAD PUSH3 0x461BCD PUSH1 0xE5 SHL DUP2 MSTORE PUSH1 0x20 PUSH1 0x4 DUP3 ADD MSTORE PUSH1 0x20 PUSH1 0x24 DUP3 ADD MSTORE PUSH32 0x43616E6E6F7420636F6E6669726D20796F7572206F776E2070726F706F73616C PUSH1 0x44 DUP3 ADD MSTORE REVERT JUMPDEST PUSH1 0x40 MLOAD PUSH3 0x461BCD PUSH1 0xE5 SHL DUP2 MSTORE PUSH1 0x20 PUSH1 0x4 DUP3 ADD MSTORE PUSH1 0x1A PUSH1 0x24 DUP3 ADD MSTORE PUSH32 0x4E6F2070726F706F73616C20666F722074686973206F776E6572000000000000 PUSH1 0x44 DUP3 ADD MSTORE PUSH1 0x64 SWAP1 REVERT JUMPDEST POP CALLER DUP4 MSTORE PUSH1 0x8 PUSH1 0x20 MSTORE PUSH1 0x40 DUP4 KECCAK256 SLOAD PUSH1 0xFF AND PUSH2 0x19D7 JUMP JUMPDEST POP CALLVALUE PUSH2 0x231 JUMPI PUSH1 0x20 CALLDATASIZE PUSH1 0x3 NOT ADD SLT PUSH2 0x231 JUMPI PUSH1 0x4 CALLDATALOAD PUSH1 0x1 PUSH1 0x1 PUSH1 0xA0 SHL SUB DUP2 AND SWAP1 DUP2 SWAP1 SUB PUSH2 0x22F JUMPI DUP2 MSTORE PUSH1 0xD PUSH1 0x20 MSTORE PUSH1 0x40 DUP2 KECCAK256 DUP1 SLOAD DUP3 SWAP2 DUP3 JUMPDEST DUP3 DUP2 LT PUSH2 0x1C1E JUMPI POP POP POP DUP2 PUSH2 0x1C03 JUMPI PUSH1 0x20 SWAP2 POP PUSH1 0x40 MLOAD SWAP1 DUP2 MSTORE RETURN JUMPDEST PUSH3 0x278D00 DUP3 ADD DUP1 SWAP3 GT PUSH2 0x2FF JUMPI POP PUSH2 0x2FA PUSH1 0x20 SWAP2 TIMESTAMP SWAP1 PUSH2 0x285E JUMP JUMPDEST PUSH2 0x1C28 DUP2 DUP4 PUSH2 0x2477 JUMP JUMPDEST SWAP1 SLOAD SWAP1 PUSH1 0x3 SHL SHR PUSH3 0x278D00 DUP2 ADD DUP1 SWAP2 GT PUSH2 0x384 JUMPI TIMESTAMP LT PUSH2 0x1C4B JUMPI JUMPDEST PUSH1 0x1 ADD PUSH2 0x1BE8 JUMP JUMPDEST DUP5 ISZERO DUP1 ISZERO PUSH2 0x1C76 JUMPI JUMPDEST ISZERO PUSH2 0x1C43 JUMPI SWAP4 POP PUSH1 0x1 PUSH2 0x1C67 DUP6 DUP4 PUSH2 0x2477 JUMP JUMPDEST SWAP1 SLOAD SWAP1 PUSH1 0x3 SHL SHR SWAP5 SWAP1 POP PUSH2 0x1C43 JUMP JUMPDEST POP DUP5 PUSH2 0x1C82 DUP3 DUP5 PUSH2 0x2477 JUMP JUMPDEST SWAP1 SLOAD SWAP1 PUSH1 0x3 SHL SHR LT PUSH2 0x1C54 JUMP JUMPDEST POP CALLVALUE PUSH2 0x231 JUMPI DUP1 PUSH1 0x3 NOT CALLDATASIZE ADD SLT PUSH2 0x231 JUMPI PUSH1 0x20 PUSH1 0x5 SLOAD PUSH1 0x40 MLOAD SWAP1 DUP2 MSTORE RETURN JUMPDEST POP CALLVALUE PUSH2 0x231 JUMPI PUSH1 0x20 CALLDATASIZE PUSH1 0x3 NOT ADD SLT PUSH2 0x231 JUMPI PUSH1 0x4 CALLDATALOAD SWAP1 PUSH1 0x2 SLOAD DUP3 LT ISZERO PUSH2 0x231 JUMPI PUSH1 0x20 PUSH2 0x1CD8 DUP4 PUSH2 0x2446 JUMP JUMPDEST SWAP1 SLOAD PUSH1 0x40 MLOAD PUSH1 0x3 SWAP3 SWAP1 SWAP3 SHL SHR PUSH1 0x1 PUSH1 0x1 PUSH1 0xA0 SHL SUB AND DUP2 MSTORE RETURN JUMPDEST POP CALLVALUE PUSH2 0x231 JUMPI PUSH1 0x20 CALLDATASIZE PUSH1 0x3 NOT ADD SLT PUSH2 0x231 JUMPI PUSH1 0x4 CALLDATALOAD PUSH1 0x1 PUSH1 0x1 PUSH1 0xA0 SHL SUB DUP2 AND DUP1 DUP3 SUB PUSH2 0x287 JUMPI DUP3 SLOAD PUSH1 0x1 PUSH1 0x1 PUSH1 0xA0 SHL SUB AND CALLER EQ DUP1 ISZERO PUSH2 0x1E03 JUMPI JUMPDEST PUSH2 0x1D34 SWAP1 PUSH2 0x24A8 JUMP JUMPDEST DUP1 ISZERO PUSH2 0x1DCA JUMPI PUSH1 0x1 PUSH1 0x40 MLOAD SWAP2 PUSH2 0x1D49 DUP4 PUSH2 0x2536 JUMP JUMPDEST CALLER DUP4 MSTORE PUSH1 0x20 DUP4 ADD SWAP1 TIMESTAMP DUP3 MSTORE DUP6 MSTORE PUSH1 0xB PUSH1 0x20 MSTORE PUSH1 0x40 DUP6 KECCAK256 SWAP3 DUP3 DUP1 PUSH1 0xA0 SHL SUB SWAP1 MLOAD AND PUSH12 0xFFFFFFFFFFFFFFFFFFFFFFFF PUSH1 0xA0 SHL DUP5 SLOAD AND OR DUP4 SSTORE MLOAD SWAP2 ADD SSTORE PUSH32 0xC29BDBD554E41DF97E5C40FC273A09677AC133C245F0064BDFFEF5CC72176E19 PUSH1 0x40 MLOAD DUP1 PUSH2 0x1AAB CALLER SWAP5 TIMESTAMP SWAP1 DUP4 PUSH1 0x20 SWAP1 SWAP4 SWAP3 SWAP2 SWAP4 PUSH1 0x40 DUP2 ADD SWAP5 PUSH1 0x1 DUP1 PUSH1 0xA0 SHL SUB AND DUP2 MSTORE ADD MSTORE JUMP JUMPDEST PUSH1 0x40 MLOAD PUSH3 0x461BCD PUSH1 0xE5 SHL DUP2 MSTORE PUSH1 0x20 PUSH1 0x4 DUP3 ADD MSTORE PUSH1 0x11 PUSH1 0x24 DUP3 ADD MSTORE PUSH17 0x24B73B30B634B2103732BB9037BBB732B9 PUSH1 0x79 SHL PUSH1 0x44 DUP3 ADD MSTORE PUSH1 0x64 SWAP1 REVERT JUMPDEST POP CALLER DUP4 MSTORE PUSH1 0x8 PUSH1 0x20 MSTORE PUSH1 0x40 DUP4 KECCAK256 SLOAD PUSH1 0xFF AND PUSH2 0x1D2B JUMP JUMPDEST POP CALLVALUE PUSH2 0x231 JUMPI PUSH1 0x20 CALLDATASIZE PUSH1 0x3 NOT ADD SLT PUSH2 0x231 JUMPI PUSH1 0x4 CALLDATALOAD PUSH1 0x1 PUSH1 0x1 PUSH1 0xA0 SHL SUB DUP2 AND SWAP1 DUP2 SWAP1 SUB PUSH2 0x22F JUMPI PUSH1 0x60 PUSH2 0x1E0 PUSH1 0x40 MLOAD PUSH2 0x1E51 DUP2 PUSH2 0x2503 JUMP JUMPDEST DUP3 DUP2 MSTORE DUP5 PUSH1 0x20 DUP3 ADD MSTORE DUP5 PUSH1 0x40 DUP3 ADD MSTORE DUP5 DUP4 DUP3 ADD MSTORE DUP5 PUSH1 0x80 DUP3 ADD MSTORE DUP5 PUSH1 0xA0 DUP3 ADD MSTORE DUP5 PUSH1 0xC0 DUP3 ADD MSTORE DUP5 PUSH1 0xE0 DUP3 ADD MSTORE DUP5 PUSH2 0x100 DUP3 ADD MSTORE DUP5 PUSH2 0x120 DUP3 ADD MSTORE DUP5 PUSH2 0x140 DUP3 ADD MSTORE DUP5 PUSH2 0x160 DUP3 ADD MSTORE DUP5 PUSH2 0x180 DUP3 ADD MSTORE DUP3 PUSH2 0x1A0 DUP3 ADD MSTORE DUP5 PUSH2 0x1C0 DUP3 ADD MSTORE ADD MSTORE DUP1 ISZERO PUSH2 0x2035 JUMPI DUP2 PUSH1 0x4 SWAP2 PUSH1 0x40 MLOAD SWAP3 DUP4 DUP1 SWAP3 PUSH4 0x1F385F79 PUSH1 0xE2 SHL DUP3 MSTORE GAS STATICCALL SWAP1 DUP2 ISZERO PUSH2 0x202A JUMPI DUP3 SWAP2 PUSH2 0x2010 JUMPI JUMPDEST POP PUSH1 0x40 MLOAD SWAP1 PUSH1 0x20 DUP3 MSTORE PUSH2 0x1EFC DUP2 MLOAD PUSH2 0x200 PUSH1 0x20 DUP6 ADD MSTORE PUSH2 0x220 DUP5 ADD SWAP1 PUSH2 0x23FC JUMP JUMPDEST SWAP3 PUSH2 0x1F0F PUSH1 0x20 DUP4 ADD MLOAD PUSH1 0x40 DUP6 ADD SWAP1 PUSH2 0x2439 JUMP JUMPDEST PUSH1 0x40 DUP3 ADD MLOAD PUSH1 0x60 DUP5 ADD MSTORE PUSH1 0x60 DUP3 ADD MLOAD PUSH1 0x80 DUP5 ADD MSTORE PUSH1 0x80 DUP3 ADD MLOAD PUSH1 0xA0 DUP5 ADD MSTORE PUSH1 0xFF PUSH1 0xA0 DUP4 ADD MLOAD AND PUSH1 0xC0 DUP5 ADD MSTORE PUSH1 0xFF PUSH1 0xC0 DUP4 ADD MLOAD AND PUSH1 0xE0 DUP5 ADD MSTORE PUSH1 0xE0 DUP3 ADD MLOAD PUSH2 0x100 DUP5 ADD MSTORE PUSH2 0x100 DUP3 ADD MLOAD PUSH2 0x120 DUP5 ADD MSTORE PUSH1 0xFF PUSH2 0x120 DUP4 ADD MLOAD AND PUSH2 0x140 DUP5 ADD MSTORE PUSH1 0xFF PUSH2 0x140 DUP4 ADD MLOAD AND PUSH2 0x160 DUP5 ADD MSTORE PUSH2 0x160 DUP3 ADD MLOAD PUSH2 0x180 DUP5 ADD MSTORE PUSH2 0x180 DUP3 ADD MLOAD PUSH2 0x1A0 DUP5 ADD MSTORE PUSH2 0x1A0 DUP3 ADD MLOAD SWAP4 PUSH1 0x1F NOT DUP5 DUP3 SUB ADD PUSH2 0x1C0 DUP6 ADD MSTORE PUSH1 0x20 DUP1 DUP7 MLOAD SWAP3 DUP4 DUP2 MSTORE ADD SWAP6 ADD SWAP2 JUMPDEST DUP2 DUP2 LT PUSH2 0x1FE5 JUMPI DUP5 DUP1 PUSH2 0x22B DUP9 PUSH2 0x1E0 DUP9 PUSH2 0x1C0 DUP2 ADD MLOAD DUP3 DUP7 ADD MSTORE ADD MLOAD PUSH1 0x1F NOT DUP5 DUP4 SUB ADD PUSH2 0x200 DUP6 ADD MSTORE PUSH2 0x23FC JUMP JUMPDEST DUP3 MLOAD DUP1 MLOAD PUSH1 0x1 PUSH1 0x1 PUSH1 0xA0 SHL SUB AND DUP8 MSTORE PUSH1 0x20 SWAP1 DUP2 ADD MLOAD DUP2 DUP9 ADD MSTORE PUSH1 0x40 SWAP1 SWAP7 ADD SWAP6 SWAP1 SWAP3 ADD SWAP2 PUSH1 0x1 ADD PUSH2 0x1FB6 JUMP JUMPDEST PUSH2 0x2024 SWAP2 POP RETURNDATASIZE DUP1 DUP5 DUP4 RETURNDATACOPY PUSH2 0xB57 DUP2 DUP4 PUSH2 0x2552 JUMP JUMPDEST CODESIZE PUSH2 0x1EDB JUMP JUMPDEST PUSH1 0x40 MLOAD RETURNDATASIZE DUP5 DUP3 RETURNDATACOPY RETURNDATASIZE SWAP1 REVERT JUMPDEST PUSH1 0x40 MLOAD PUSH3 0x461BCD PUSH1 0xE5 SHL DUP2 MSTORE PUSH1 0x20 PUSH1 0x4 DUP3 ADD MSTORE PUSH1 0x17 PUSH1 0x24 DUP3 ADD MSTORE PUSH32 0x496E76616C6964206D697373696F6E2061646472657373000000000000000000 PUSH1 0x44 DUP3 ADD MSTORE PUSH1 0x64 SWAP1 REVERT JUMPDEST POP CALLVALUE PUSH2 0x231 JUMPI PUSH1 0x20 CALLDATASIZE PUSH1 0x3 NOT ADD SLT PUSH2 0x231 JUMPI PUSH1 0x4 CALLDATALOAD PUSH1 0x8 DUP2 LT ISZERO DUP1 PUSH2 0x287 JUMPI PUSH1 0x2 SLOAD SWAP1 DUP4 DUP5 JUMPDEST DUP4 DUP2 LT PUSH2 0x2160 JUMPI POP PUSH2 0x20B1 SWAP1 PUSH2 0x25B1 JUMP JUMPDEST SWAP3 DUP5 SWAP2 DUP6 JUMPDEST DUP5 DUP2 LT PUSH2 0x20D3 JUMPI PUSH1 0x40 MLOAD PUSH1 0x20 DUP1 DUP3 MSTORE DUP2 SWAP1 PUSH2 0x22B SWAP1 DUP3 ADD DUP10 PUSH2 0x23FC JUMP JUMPDEST PUSH2 0x20DC DUP2 PUSH2 0x2446 JUMP JUMPDEST SWAP1 SLOAD PUSH1 0x3 SWAP2 SWAP1 SWAP2 SHL SHR PUSH1 0x1 PUSH1 0x1 PUSH1 0xA0 SHL SUB AND DUP8 MSTORE PUSH1 0xA PUSH1 0x20 MSTORE PUSH1 0x40 DUP8 KECCAK256 SLOAD PUSH1 0xFF AND DUP3 PUSH2 0x214C JUMPI PUSH1 0x8 DUP2 LT ISZERO PUSH2 0x214C JUMPI SWAP1 DUP4 PUSH1 0x1 SWAP3 EQ PUSH2 0x211C JUMPI JUMPDEST ADD PUSH2 0x20B6 JUMP JUMPDEST PUSH2 0x2125 DUP2 PUSH2 0x2446 JUMP JUMPDEST DUP4 DUP1 PUSH1 0xA0 SHL SUB SWAP2 SLOAD SWAP1 PUSH1 0x3 SHL SHR AND PUSH2 0x2146 PUSH2 0x213F DUP8 PUSH2 0x2574 JUMP JUMPDEST SWAP7 DUP10 PUSH2 0x25E3 JUMP JUMPDEST MSTORE PUSH2 0x2116 JUMP JUMPDEST PUSH4 0x4E487B71 PUSH1 0xE0 SHL DUP9 MSTORE PUSH1 0x21 PUSH1 0x4 MSTORE PUSH1 0x24 DUP9 REVERT JUMPDEST PUSH2 0x2169 DUP2 PUSH2 0x2446 JUMP JUMPDEST SWAP1 SLOAD PUSH1 0x3 SWAP2 SWAP1 SWAP2 SHL SHR PUSH1 0x1 PUSH1 0x1 PUSH1 0xA0 SHL SUB AND DUP7 MSTORE PUSH1 0xA PUSH1 0x20 MSTORE PUSH1 0x40 DUP7 KECCAK256 SLOAD PUSH1 0xFF AND DUP4 PUSH2 0xBAE JUMPI PUSH1 0x8 DUP2 LT ISZERO PUSH2 0xBAE JUMPI DUP6 EQ PUSH2 0x21A7 JUMPI JUMPDEST PUSH1 0x1 ADD PUSH2 0x20A0 JUMP JUMPDEST SWAP1 PUSH2 0x21B3 PUSH1 0x1 SWAP2 PUSH2 0x2574 JUMP JUMPDEST SWAP2 SWAP1 POP PUSH2 0x219F JUMP JUMPDEST POP CALLVALUE PUSH2 0x231 JUMPI PUSH1 0x20 CALLDATASIZE PUSH1 0x3 NOT ADD SLT PUSH2 0x231 JUMPI PUSH1 0x4 CALLDATALOAD PUSH1 0x1 DUP1 PUSH1 0xA0 SHL SUB DUP3 SLOAD AND CALLER EQ DUP1 ISZERO PUSH2 0x235B JUMPI JUMPDEST PUSH2 0x21EC SWAP1 PUSH2 0x24A8 JUMP JUMPDEST PUSH2 0x21F4 PUSH2 0x2D28 JUMP JUMPDEST DUP2 SLOAD PUSH1 0x1 PUSH1 0x1 PUSH1 0xA0 SHL SUB AND SWAP1 DUP1 DUP3 ISZERO PUSH2 0x231E JUMPI ISZERO PUSH2 0x2317 JUMPI JUMPDEST SELFBALANCE DUP2 GT PUSH2 0x22DB JUMPI DUP3 DUP1 DUP1 DUP1 DUP5 DUP7 GAS CALL RETURNDATASIZE ISZERO PUSH2 0x22D6 JUMPI RETURNDATASIZE PUSH8 0xFFFFFFFFFFFFFFFF DUP2 GT PUSH2 0x22C2 JUMPI PUSH1 0x40 MLOAD SWAP1 PUSH2 0x224A PUSH1 0x1F DUP3 ADD PUSH1 0x1F NOT AND PUSH1 0x20 ADD DUP4 PUSH2 0x2552 JUMP JUMPDEST DUP2 MSTORE DUP5 PUSH1 0x20 RETURNDATASIZE SWAP3 ADD RETURNDATACOPY JUMPDEST ISZERO PUSH2 0x228B JUMPI PUSH1 0x20 PUSH32 0xEAFF4B37086828766AD3268786972C0CD24259D4C87A80F9D3963A3C3D999B0D SWAP2 PUSH1 0x40 MLOAD SWAP1 DUP2 MSTORE LOG2 PUSH1 0x1 DUP1 SSTORE DUP1 RETURN JUMPDEST PUSH1 0x40 MLOAD PUSH3 0x461BCD PUSH1 0xE5 SHL DUP2 MSTORE PUSH1 0x20 PUSH1 0x4 DUP3 ADD MSTORE PUSH1 0xF PUSH1 0x24 DUP3 ADD MSTORE PUSH15 0x151C985B9CD9995C8819985A5B1959 PUSH1 0x8A SHL PUSH1 0x44 DUP3 ADD MSTORE PUSH1 0x64 SWAP1 REVERT JUMPDEST PUSH4 0x4E487B71 PUSH1 0xE0 SHL DUP6 MSTORE PUSH1 0x41 PUSH1 0x4 MSTORE PUSH1 0x24 DUP6 REVERT JUMPDEST PUSH2 0x2254 JUMP JUMPDEST PUSH1 0x40 MLOAD PUSH3 0x461BCD PUSH1 0xE5 SHL DUP2 MSTORE PUSH1 0x20 PUSH1 0x4 DUP3 ADD MSTORE PUSH1 0x14 PUSH1 0x24 DUP3 ADD MSTORE PUSH20 0x496E73756666696369656E742062616C616E6365 PUSH1 0x60 SHL PUSH1 0x44 DUP3 ADD MSTORE PUSH1 0x64 SWAP1 REVERT JUMPDEST POP SELFBALANCE PUSH2 0x220D JUMP JUMPDEST PUSH1 0x40 MLOAD PUSH3 0x461BCD PUSH1 0xE5 SHL DUP2 MSTORE PUSH1 0x20 PUSH1 0x4 DUP3 ADD MSTORE PUSH1 0x15 PUSH1 0x24 DUP3 ADD MSTORE PUSH21 0x24B73B30B634B21036B0B730B3B2B91037BBB732B9 PUSH1 0x59 SHL PUSH1 0x44 DUP3 ADD MSTORE PUSH1 0x64 SWAP1 REVERT JUMPDEST POP CALLER DUP3 MSTORE PUSH1 0x8 PUSH1 0x20 MSTORE PUSH1 0x40 DUP3 KECCAK256 SLOAD PUSH1 0xFF AND PUSH2 0x21E3 JUMP JUMPDEST POP CALLVALUE PUSH2 0x231 JUMPI DUP1 PUSH1 0x3 NOT CALLDATASIZE ADD SLT PUSH2 0x231 JUMPI PUSH1 0x20 PUSH1 0xFF PUSH1 0x3 SLOAD PUSH1 0x8 SHR AND PUSH1 0x40 MLOAD SWAP1 DUP2 MSTORE RETURN JUMPDEST SWAP1 POP CALLVALUE PUSH2 0x22F JUMPI PUSH1 0x20 CALLDATASIZE PUSH1 0x3 NOT ADD SLT PUSH2 0x22F JUMPI PUSH1 0x4 CALLDATALOAD PUSH1 0x1 PUSH1 0x1 PUSH1 0xA0 SHL SUB DUP2 AND SWAP1 DUP2 SWAP1 SUB PUSH2 0x287 JUMPI DUP2 PUSH1 0xFF PUSH1 0x40 DUP6 PUSH2 0x23D7 SWAP5 PUSH1 0x20 SWAP8 MSTORE PUSH1 0xA DUP8 MSTORE KECCAK256 SLOAD AND PUSH2 0x23D9 JUMP JUMPDEST RETURN JUMPDEST SWAP1 PUSH1 0x8 DUP3 LT ISZERO PUSH2 0x23E6 JUMPI MSTORE JUMP JUMPDEST PUSH4 0x4E487B71 PUSH1 0xE0 SHL PUSH1 0x0 MSTORE PUSH1 0x21 PUSH1 0x4 MSTORE PUSH1 0x24 PUSH1 0x0 REVERT JUMPDEST SWAP1 PUSH1 0x20 DUP1 DUP4 MLOAD SWAP3 DUP4 DUP2 MSTORE ADD SWAP3 ADD SWAP1 PUSH1 0x0 JUMPDEST DUP2 DUP2 LT PUSH2 0x241A JUMPI POP POP POP SWAP1 JUMP JUMPDEST DUP3 MLOAD PUSH1 0x1 PUSH1 0x1 PUSH1 0xA0 SHL SUB AND DUP5 MSTORE PUSH1 0x20 SWAP4 DUP5 ADD SWAP4 SWAP1 SWAP3 ADD SWAP2 PUSH1 0x1 ADD PUSH2 0x240D JUMP JUMPDEST SWAP1 PUSH1 0x7 DUP3 LT ISZERO PUSH2 0x23E6 JUMPI MSTORE JUMP JUMPDEST PUSH1 0x2 SLOAD DUP2 LT ISZERO PUSH2 0x2461 JUMPI PUSH1 0x2 PUSH1 0x0 MSTORE PUSH1 0x20 PUSH1 0x0 KECCAK256 ADD SWAP1 PUSH1 0x0 SWAP1 JUMP JUMPDEST PUSH4 0x4E487B71 PUSH1 0xE0 SHL PUSH1 0x0 MSTORE PUSH1 0x32 PUSH1 0x4 MSTORE PUSH1 0x24 PUSH1 0x0 REVERT JUMPDEST DUP1 SLOAD DUP3 LT ISZERO PUSH2 0x2461 JUMPI PUSH1 0x0 MSTORE PUSH1 0x20 PUSH1 0x0 KECCAK256 ADD SWAP1 PUSH1 0x0 SWAP1 JUMP JUMPDEST PUSH1 0x7 DUP2 LT ISZERO PUSH2 0x23E6 JUMPI PUSH1 0x0 MSTORE PUSH1 0xC PUSH1 0x20 MSTORE PUSH1 0x40 PUSH1 0x0 KECCAK256 SWAP1 JUMP JUMPDEST ISZERO PUSH2 0x24AF JUMPI JUMP JUMPDEST PUSH1 0x40 MLOAD PUSH3 0x461BCD PUSH1 0xE5 SHL DUP2 MSTORE PUSH1 0x20 PUSH1 0x4 DUP3 ADD MSTORE PUSH1 0x26 PUSH1 0x24 DUP3 ADD MSTORE PUSH32 0x4E6F74206F776E6572206F72204D697373696F6E466163746F72792061757468 PUSH1 0x44 DUP3 ADD MSTORE PUSH6 0x1BDC9A5E9959 PUSH1 0xD2 SHL PUSH1 0x64 DUP3 ADD MSTORE PUSH1 0x84 SWAP1 REVERT JUMPDEST PUSH2 0x200 DUP2 ADD SWAP1 DUP2 LT PUSH8 0xFFFFFFFFFFFFFFFF DUP3 GT OR PUSH2 0x2520 JUMPI PUSH1 0x40 MSTORE JUMP JUMPDEST PUSH4 0x4E487B71 PUSH1 0xE0 SHL PUSH1 0x0 MSTORE PUSH1 0x41 PUSH1 0x4 MSTORE PUSH1 0x24 PUSH1 0x0 REVERT JUMPDEST PUSH1 0x40 DUP2 ADD SWAP1 DUP2 LT PUSH8 0xFFFFFFFFFFFFFFFF DUP3 GT OR PUSH2 0x2520 JUMPI PUSH1 0x40 MSTORE JUMP JUMPDEST SWAP1 PUSH1 0x1F DUP1 NOT SWAP2 ADD AND DUP2 ADD SWAP1 DUP2 LT PUSH8 0xFFFFFFFFFFFFFFFF DUP3 GT OR PUSH2 0x2520 JUMPI PUSH1 0x40 MSTORE JUMP JUMPDEST PUSH1 0x0 NOT DUP2 EQ PUSH2 0x2583 JUMPI PUSH1 0x1 ADD SWAP1 JUMP JUMPDEST PUSH4 0x4E487B71 PUSH1 0xE0 SHL PUSH1 0x0 MSTORE PUSH1 0x11 PUSH1 0x4 MSTORE PUSH1 0x24 PUSH1 0x0 REVERT JUMPDEST PUSH8 0xFFFFFFFFFFFFFFFF DUP2 GT PUSH2 0x2520 JUMPI PUSH1 0x5 SHL PUSH1 0x20 ADD SWAP1 JUMP JUMPDEST SWAP1 PUSH2 0x25BB DUP3 PUSH2 0x2599 JUMP JUMPDEST PUSH2 0x25C8 PUSH1 0x40 MLOAD SWAP2 DUP3 PUSH2 0x2552 JUMP JUMPDEST DUP3 DUP2 MSTORE DUP1 SWAP3 PUSH2 0x25D9 PUSH1 0x1F NOT SWAP2 PUSH2 0x2599 JUMP JUMPDEST ADD SWAP1 PUSH1 0x20 CALLDATASIZE SWAP2 ADD CALLDATACOPY JUMP JUMPDEST DUP1 MLOAD DUP3 LT ISZERO PUSH2 0x2461 JUMPI PUSH1 0x20 SWAP2 PUSH1 0x5 SHL ADD ADD SWAP1 JUMP JUMPDEST MLOAD SWAP1 PUSH1 0x1 PUSH1 0x1 PUSH1 0xA0 SHL SUB DUP3 AND DUP3 SUB PUSH2 0x260B JUMPI JUMP JUMPDEST PUSH1 0x0 DUP1 REVERT JUMPDEST SWAP1 DUP1 PUSH1 0x1F DUP4 ADD SLT ISZERO PUSH2 0x260B JUMPI DUP2 MLOAD PUSH2 0x2627 DUP2 PUSH2 0x2599 JUMP JUMPDEST SWAP3 PUSH2 0x2635 PUSH1 0x40 MLOAD SWAP5 DUP6 PUSH2 0x2552 JUMP JUMPDEST DUP2 DUP5 MSTORE PUSH1 0x20 DUP1 DUP6 ADD SWAP3 PUSH1 0x5 SHL DUP3 ADD ADD SWAP3 DUP4 GT PUSH2 0x260B JUMPI PUSH1 0x20 ADD SWAP1 JUMPDEST DUP3 DUP3 LT PUSH2 0x265D JUMPI POP POP POP SWAP1 JUMP JUMPDEST PUSH1 0x20 DUP1 SWAP2 PUSH2 0x266A DUP5 PUSH2 0x25F7 JUMP JUMPDEST DUP2 MSTORE ADD SWAP2 ADD SWAP1 PUSH2 0x2650 JUMP JUMPDEST MLOAD SWAP1 PUSH1 0xFF DUP3 AND DUP3 SUB PUSH2 0x260B JUMPI JUMP JUMPDEST PUSH1 0x20 DUP2 DUP4 SUB SLT PUSH2 0x260B JUMPI DUP1 MLOAD SWAP1 PUSH8 0xFFFFFFFFFFFFFFFF DUP3 GT PUSH2 0x260B JUMPI ADD PUSH2 0x200 DUP2 DUP4 SUB SLT PUSH2 0x260B JUMPI PUSH1 0x40 MLOAD SWAP2 PUSH2 0x26B8 DUP4 PUSH2 0x2503 JUMP JUMPDEST DUP2 MLOAD PUSH8 0xFFFFFFFFFFFFFFFF DUP2 GT PUSH2 0x260B JUMPI DUP2 PUSH2 0x26D5 SWAP2 DUP5 ADD PUSH2 0x2610 JUMP JUMPDEST DUP4 MSTORE PUSH1 0x20 DUP3 ADD MLOAD PUSH1 0x7 DUP2 LT ISZERO PUSH2 0x260B JUMPI PUSH1 0x20 DUP5 ADD MSTORE PUSH1 0x40 DUP3 ADD MLOAD PUSH1 0x40 DUP5 ADD MSTORE PUSH1 0x60 DUP3 ADD MLOAD PUSH1 0x60 DUP5 ADD MSTORE PUSH1 0x80 DUP3 ADD MLOAD PUSH1 0x80 DUP5 ADD MSTORE PUSH2 0x2714 PUSH1 0xA0 DUP4 ADD PUSH2 0x2675 JUMP JUMPDEST PUSH1 0xA0 DUP5 ADD MSTORE PUSH2 0x2725 PUSH1 0xC0 DUP4 ADD PUSH2 0x2675 JUMP JUMPDEST PUSH1 0xC0 DUP5 ADD MSTORE PUSH1 0xE0 DUP3 ADD MLOAD PUSH1 0xE0 DUP5 ADD MSTORE PUSH2 0x100 DUP3 ADD MLOAD PUSH2 0x100 DUP5 ADD MSTORE PUSH2 0x274D PUSH2 0x120 DUP4 ADD PUSH2 0x2675 JUMP JUMPDEST PUSH2 0x120 DUP5 ADD MSTORE PUSH2 0x2760 PUSH2 0x140 DUP4 ADD PUSH2 0x2675 JUMP JUMPDEST PUSH2 0x140 DUP5 ADD MSTORE PUSH2 0x160 DUP3 ADD MLOAD PUSH2 0x160 DUP5 ADD MSTORE PUSH2 0x180 DUP3 ADD MLOAD PUSH2 0x180 DUP5 ADD MSTORE PUSH2 0x1A0 DUP3 ADD MLOAD PUSH8 0xFFFFFFFFFFFFFFFF DUP2 GT PUSH2 0x260B JUMPI DUP3 ADD DUP2 PUSH1 0x1F DUP3 ADD SLT ISZERO PUSH2 0x260B JUMPI DUP1 MLOAD PUSH2 0x27AB DUP2 PUSH2 0x2599 JUMP JUMPDEST SWAP2 PUSH2 0x27B9 PUSH1 0x40 MLOAD SWAP4 DUP5 PUSH2 0x2552 JUMP JUMPDEST DUP2 DUP4 MSTORE PUSH1 0x20 DUP1 DUP5 ADD SWAP3 PUSH1 0x6 SHL DUP3 ADD ADD SWAP1 DUP5 DUP3 GT PUSH2 0x260B JUMPI PUSH1 0x20 ADD SWAP2 JUMPDEST DUP2 DUP4 LT PUSH2 0x2819 JUMPI POP POP POP PUSH2 0x1A0 DUP5 ADD MSTORE PUSH2 0x1C0 DUP3 ADD MLOAD PUSH2 0x1C0 DUP5 ADD MSTORE PUSH2 0x1E0 DUP3 ADD MLOAD PUSH8 0xFFFFFFFFFFFFFFFF DUP2 GT PUSH2 0x260B JUMPI PUSH2 0x2810 SWAP3 ADD PUSH2 0x2610 JUMP JUMPDEST PUSH2 0x1E0 DUP3 ADD MSTORE SWAP1 JUMP JUMPDEST PUSH1 0x40 DUP4 DUP7 SUB SLT PUSH2 0x260B JUMPI PUSH1 0x20 PUSH1 0x40 SWAP2 DUP3 MLOAD PUSH2 0x2833 DUP2 PUSH2 0x2536 JUMP JUMPDEST PUSH2 0x283C DUP7 PUSH2 0x25F7 JUMP JUMPDEST DUP2 MSTORE DUP3 DUP7 ADD MLOAD DUP4 DUP3 ADD MSTORE DUP2 MSTORE ADD SWAP3 ADD SWAP2 PUSH2 0x27D5 JUMP JUMPDEST SWAP2 SWAP1 DUP3 ADD DUP1 SWAP3 GT PUSH2 0x2583 JUMPI JUMP JUMPDEST SWAP2 SWAP1 DUP3 SUB SWAP2 DUP3 GT PUSH2 0x2583 JUMPI JUMP JUMPDEST ISZERO PUSH2 0x2872 JUMPI JUMP JUMPDEST PUSH1 0x40 MLOAD PUSH3 0x461BCD PUSH1 0xE5 SHL DUP2 MSTORE PUSH1 0x20 PUSH1 0x4 DUP3 ADD MSTORE PUSH1 0xF PUSH1 0x24 DUP3 ADD MSTORE PUSH15 0x496E76616C69642061646472657373 PUSH1 0x88 SHL PUSH1 0x44 DUP3 ADD MSTORE PUSH1 0x64 SWAP1 REVERT JUMPDEST PUSH1 0x2 SLOAD DUP1 ISZERO PUSH2 0x2B08 JUMPI PUSH3 0x4F19FF NOT TIMESTAMP ADD SWAP2 TIMESTAMP DUP4 GT PUSH2 0x2583 JUMPI PUSH3 0x278CFF NOT TIMESTAMP ADD TIMESTAMP DUP2 GT PUSH2 0x2583 JUMPI PUSH1 0x0 SWAP3 SWAP2 DUP3 DUP1 JUMPDEST PUSH2 0x2A1A JUMPI JUMPDEST POP PUSH2 0x28E5 DUP5 PUSH2 0x25B1 JUMP JUMPDEST SWAP1 PUSH2 0x28EF DUP6 PUSH2 0x25B1 JUMP JUMPDEST SWAP4 PUSH1 0x0 SWAP1 JUMPDEST DUP1 ISZERO ISZERO DUP1 PUSH2 0x2A11 JUMPI JUMPDEST ISZERO PUSH2 0x2A06 JUMPI PUSH1 0x0 NOT ADD SWAP1 PUSH2 0x2910 DUP3 PUSH2 0x2446 JUMP JUMPDEST PUSH1 0x1 DUP1 PUSH1 0xA0 SHL SUB SWAP2 SLOAD SWAP1 PUSH1 0x3 SHL SHR AND SWAP1 DUP2 PUSH1 0x0 MSTORE PUSH1 0xA PUSH1 0x20 MSTORE PUSH1 0xFF PUSH1 0x40 PUSH1 0x0 KECCAK256 SLOAD AND SWAP2 PUSH1 0x40 MLOAD PUSH4 0x1F385F79 PUSH1 0xE2 SHL DUP2 MSTORE PUSH1 0x0 DUP2 PUSH1 0x4 DUP2 DUP6 GAS STATICCALL DUP1 ISZERO PUSH2 0x29FA JUMPI DUP9 SWAP2 PUSH1 0x0 SWAP2 PUSH2 0x29E1 JUMPI JUMPDEST POP DUP12 PUSH1 0xE0 DUP3 ADD DUP2 DUP2 MLOAD LT DUP1 PUSH2 0x29BE JUMPI JUMPDEST ISZERO PUSH2 0x29B3 JUMPI POP POP PUSH2 0x100 ADD MLOAD LT JUMPDEST PUSH2 0x29A5 JUMPI PUSH2 0x2985 DUP3 DUP8 PUSH2 0x25E3 JUMP JUMPDEST MSTORE PUSH2 0x2990 DUP2 DUP9 PUSH2 0x25E3 JUMP JUMPDEST SWAP2 PUSH1 0x8 DUP2 LT ISZERO PUSH2 0x23E6 JUMPI PUSH1 0x1 SWAP3 MSTORE ADD SWAP1 PUSH2 0x28F4 JUMP JUMPDEST POP POP POP POP SWAP4 POP SWAP2 SWAP4 POP POP SWAP2 SWAP1 JUMP JUMPDEST SWAP2 POP SWAP2 POP MLOAD LT PUSH2 0x2977 JUMP JUMPDEST POP SWAP3 POP POP PUSH1 0x8 DUP6 LT ISZERO PUSH2 0x23E6 JUMPI DUP12 DUP10 SWAP3 PUSH1 0x6 DUP8 EQ DUP1 PUSH2 0x2969 JUMPI POP PUSH1 0x7 DUP8 EQ PUSH2 0x2969 JUMP JUMPDEST PUSH2 0x29F4 SWAP2 RETURNDATASIZE DUP1 SWAP2 DUP4 RETURNDATACOPY PUSH2 0xB57 DUP2 DUP4 PUSH2 0x2552 JUMP JUMPDEST CODESIZE PUSH2 0x2959 JUMP JUMPDEST PUSH1 0x40 MLOAD RETURNDATASIZE PUSH1 0x0 DUP3 RETURNDATACOPY RETURNDATASIZE SWAP1 REVERT JUMPDEST POP SWAP2 SWAP6 POP SWAP3 SWAP4 POP POP POP JUMP JUMPDEST POP DUP7 DUP3 LT PUSH2 0x28FD JUMP JUMPDEST PUSH1 0x0 SWAP5 SWAP4 SWAP5 NOT ADD SWAP3 PUSH2 0x2A2B DUP5 PUSH2 0x2446 JUMP JUMPDEST PUSH1 0x1 DUP1 PUSH1 0xA0 SHL SUB SWAP2 SLOAD SWAP1 PUSH1 0x3 SHL SHR AND DUP1 PUSH1 0x0 MSTORE PUSH1 0xA PUSH1 0x20 MSTORE PUSH1 0x4 PUSH1 0x0 PUSH1 0xFF PUSH1 0x40 DUP3 KECCAK256 SLOAD AND SWAP3 PUSH1 0x40 MLOAD SWAP3 DUP4 DUP1 SWAP3 PUSH4 0x1F385F79 PUSH1 0xE2 SHL DUP3 MSTORE GAS STATICCALL SWAP1 DUP2 ISZERO PUSH2 0x29FA JUMPI DUP6 SWAP3 DUP10 SWAP2 PUSH1 0x0 SWAP4 PUSH2 0x2AED JUMPI JUMPDEST POP PUSH1 0xE0 DUP4 ADD SWAP1 DUP3 DUP3 MLOAD LT SWAP1 DUP2 PUSH2 0x2ABD JUMPI JUMPDEST POP ISZERO PUSH2 0x2AB2 JUMPI POP POP PUSH2 0x100 ADD MLOAD LT JUMPDEST PUSH2 0x2AAB JUMPI PUSH2 0x2AA4 DUP5 SWAP2 PUSH2 0x2574 JUMP JUMPDEST SWAP5 SWAP4 PUSH2 0x28D6 JUMP JUMPDEST SWAP4 SWAP3 PUSH2 0x28DB JUMP JUMPDEST SWAP2 POP SWAP2 POP MLOAD LT PUSH2 0x2A96 JUMP JUMPDEST SWAP3 POP POP SWAP3 POP PUSH1 0x8 DUP2 LT ISZERO PUSH2 0x23E6 JUMPI DUP6 SWAP3 DUP2 PUSH1 0x6 DUP12 SWAP4 EQ SWAP1 DUP2 ISZERO PUSH2 0x2AE2 JUMPI JUMPDEST POP CODESIZE PUSH2 0x2A87 JUMP JUMPDEST PUSH1 0x7 SWAP2 POP EQ CODESIZE PUSH2 0x2ADB JUMP JUMPDEST PUSH2 0x2B01 SWAP2 SWAP4 RETURNDATASIZE DUP1 SWAP2 DUP4 RETURNDATACOPY PUSH2 0xB57 DUP2 DUP4 PUSH2 0x2552 JUMP JUMPDEST SWAP2 CODESIZE PUSH2 0x2A76 JUMP JUMPDEST POP PUSH1 0x20 SWAP1 PUSH1 0x40 MLOAD PUSH2 0x2B19 DUP4 DUP3 PUSH2 0x2552 JUMP JUMPDEST PUSH1 0x0 DUP2 MSTORE PUSH1 0x0 CALLDATASIZE DUP2 CALLDATACOPY PUSH1 0x40 MLOAD SWAP3 PUSH2 0x2B30 DUP2 DUP6 PUSH2 0x2552 JUMP JUMPDEST PUSH1 0x0 DUP5 MSTORE POP PUSH1 0x0 CALLDATASIZE DUP2 CALLDATACOPY SWAP2 SWAP1 JUMP JUMPDEST PUSH1 0x1 PUSH1 0x1 PUSH1 0xA0 SHL SUB AND PUSH1 0x0 SWAP1 DUP2 MSTORE PUSH1 0xD PUSH1 0x20 MSTORE PUSH1 0x40 DUP2 KECCAK256 DUP1 SLOAD DUP3 SWAP2 DUP3 SWAP2 DUP3 SWAP2 DUP3 JUMPDEST DUP3 DUP2 LT PUSH2 0x2C26 JUMPI POP POP POP PUSH1 0x3 SLOAD SWAP2 PUSH1 0xFF DUP4 AND GT SWAP1 PUSH1 0xFF DUP3 ISZERO SWAP4 PUSH1 0x8 SHR AND GT SWAP2 DUP3 ISZERO SWAP3 DUP3 DUP1 PUSH2 0x2C1F JUMPI JUMPDEST PUSH2 0x2C11 JUMPI DUP2 PUSH2 0x2C09 JUMPI JUMPDEST POP PUSH2 0x2BFD JUMPI DUP2 PUSH2 0x2BF5 JUMPI JUMPDEST POP PUSH2 0x2BEB JUMPI PUSH3 0x93A80 DUP2 ADD DUP1 SWAP2 GT PUSH2 0x2583 JUMPI PUSH2 0x2BBA SWAP1 TIMESTAMP SWAP1 PUSH2 0x285E JUMP JUMPDEST SWAP1 PUSH3 0x278D00 DUP2 ADD DUP1 SWAP2 GT PUSH2 0x2583 JUMPI PUSH2 0x2BD3 SWAP1 TIMESTAMP SWAP1 PUSH2 0x285E JUMP JUMPDEST GT ISZERO PUSH2 0x2BE3 JUMPI PUSH1 0x2 SWAP1 JUMPDEST PUSH1 0x0 SWAP2 SWAP1 JUMP JUMPDEST PUSH1 0x1 SWAP1 PUSH2 0x2BDD JUMP JUMPDEST POP POP PUSH1 0x0 SWAP1 PUSH1 0x2 SWAP1 JUMP JUMPDEST SWAP1 POP CODESIZE PUSH2 0x2B9D JUMP JUMPDEST POP POP POP POP PUSH1 0x0 SWAP1 PUSH1 0x1 SWAP1 JUMP JUMPDEST SWAP1 POP CODESIZE PUSH2 0x2B92 JUMP JUMPDEST POP POP POP POP POP POP PUSH1 0x1 SWAP1 PUSH1 0x0 SWAP1 JUMP JUMPDEST POP DUP1 PUSH2 0x2B88 JUMP JUMPDEST PUSH2 0x2C30 DUP2 DUP4 PUSH2 0x2477 JUMP JUMPDEST SWAP1 SLOAD SWAP1 PUSH1 0x3 SHL SHR PUSH3 0x278D00 DUP2 ADD DUP1 DUP3 GT PUSH2 0x2583 JUMPI TIMESTAMP LT PUSH2 0x2C54 JUMPI JUMPDEST POP PUSH1 0x1 ADD PUSH2 0x2B5F JUMP JUMPDEST SWAP4 PUSH2 0x2C5E SWAP1 PUSH2 0x2574 JUMP JUMPDEST SWAP4 DUP8 ISZERO DUP1 ISZERO PUSH2 0x2CB4 JUMPI JUMPDEST PUSH2 0x2CAC JUMPI JUMPDEST PUSH3 0x93A80 DUP2 ADD DUP1 DUP3 GT PUSH2 0x2583 JUMPI TIMESTAMP LT ISZERO PUSH2 0x2C4B JUMPI SWAP5 PUSH2 0x2C8B SWAP1 PUSH2 0x2574 JUMP JUMPDEST SWAP5 DUP7 ISZERO DUP1 ISZERO PUSH2 0x2CA3 JUMPI JUMPDEST ISZERO PUSH2 0x2C4B JUMPI SWAP6 POP PUSH1 0x1 PUSH2 0x2C4B JUMP JUMPDEST POP DUP7 DUP2 LT PUSH2 0x2C95 JUMP JUMPDEST SWAP7 POP DUP7 PUSH2 0x2C6D JUMP JUMPDEST POP DUP8 DUP2 LT PUSH2 0x2C68 JUMP JUMPDEST ISZERO PUSH2 0x2CC4 JUMPI JUMP JUMPDEST PUSH1 0x40 MLOAD PUSH3 0x461BCD PUSH1 0xE5 SHL DUP2 MSTORE PUSH1 0x20 PUSH1 0x4 DUP3 ADD MSTORE PUSH1 0x36 PUSH1 0x24 DUP3 ADD MSTORE PUSH32 0x4D697373696F6E466163746F72793A2063616C6C6572206973206E6F74206120 PUSH1 0x44 DUP3 ADD MSTORE PUSH22 0x1D985B1A59081B5A5CDCDA5BDB8818DBDB9D1C9858DD PUSH1 0x52 SHL PUSH1 0x64 DUP3 ADD MSTORE PUSH1 0x84 SWAP1 REVERT JUMPDEST PUSH1 0x2 PUSH1 0x1 SLOAD EQ PUSH2 0x2D39 JUMPI PUSH1 0x2 PUSH1 0x1 SSTORE JUMP JUMPDEST PUSH4 0x3EE5AEB5 PUSH1 0xE0 SHL PUSH1 0x0 MSTORE PUSH1 0x4 PUSH1 0x0 REVERT JUMPDEST PUSH1 0x0 SLOAD PUSH1 0x1 PUSH1 0x1 PUSH1 0xA0 SHL SUB AND CALLER SUB PUSH2 0x2D5E JUMPI JUMP JUMPDEST PUSH4 0x118CDAA7 PUSH1 0xE0 SHL PUSH1 0x0 MSTORE CALLER PUSH1 0x4 MSTORE PUSH1 0x24 PUSH1 0x0 REVERT JUMPDEST PUSH1 0x0 DUP1 SLOAD PUSH1 0x1 PUSH1 0x1 PUSH1 0xA0 SHL SUB SWAP3 DUP4 AND PUSH1 0x1 PUSH1 0x1 PUSH1 0xA0 SHL SUB NOT DUP3 AND DUP2 OR DUP4 SSTORE SWAP3 AND SWAP1 PUSH32 0x8BE0079C531659141344CD1FD0A4F28419497F9722A3DAAFE3B4186F6B6457E0 SWAP1 DUP1 LOG3 JUMP INVALID LOG2 PUSH5 0x6970667358 0x22 SLT KECCAK256 CALLDATALOAD 0xC5 DUP5 TSTORE 0x25 CALLDATACOPY PUSH26 0x169C40D48D7A7840B38E3A530EDF9EF4F7E78F7DCF6F2A9B0D64 PUSH20 0x6F6C634300081E00330000000000000000000000 "},"methodIdentifiers":{"OWNERSHIP_PROPOSAL_WINDOW()":"d3050eba","addAuthorizedAddress(address)":"42f1181e","authorized(address)":"b9181611","canEnroll(address)":"9804a586","confirmOwnershipTransfer(address)":"3c213957","createMission(uint8,uint256,uint256,uint256,uint8,uint8,uint256,uint256,uint8)":"9b159539","getAllMissions()":"6d8a1390","getFundsByType(uint8)":"2e33b07f","getLatestMissions(uint256)":"7e9eae50","getMissionData(address)":"20c5718f","getMissionsByStatus(uint8)":"1e59d584","getMissionsEnded()":"b6202913","getMissionsNotEnded()":"6805036d","getPlayerLimits(address)":"cbf2080d","getTotalMissions()":"5c5bb6f2","isMission(address)":"aa1f0595","missionImplementation()":"bd487725","missionStatus(address)":"0814ab82","missions(uint256)":"2c8fe526","monthlyLimit()":"0a6005da","owner()":"8da5cb5b","ownershipProposals(address)":"fb4cdea7","proposeOwnershipTransfer(address)":"21040fc3","recordEnrollment(address)":"c17f9e59","registerMissionFunds(uint8)":"a9bea789","removeAuthorizedAddress(address)":"70712939","renounceOwnership()":"715018a6","reservedFunds(uint8)":"c416ad2a","reservedFundsBreakdown()":"df4db463","secondsTillMonthlySlot(address)":"37012762","secondsTillWeeklySlot(address)":"eff0ab92","setEnrollmentLimits(uint8,uint8)":"d41eca64","setMissionStatus(uint8)":"d8d6e8ff","totalMissionFailures()":"83fbea51","totalMissionFunds()":"63679723","totalMissionSuccesses()":"c892fde3","totalOwnerEarnedFunds()":"3589cf72","transferOwnership(address)":"f2fde38b","weeklyLimit()":"861a68d6","withdrawFunds(uint256)":"155dd5ee"}}}}}