{"contracts/MissionFactory.sol":{"MissionFactory":{"abi":[{"inputs":[{"internalType":"address","name":"_impl","type":"address"}],"stateMutability":"nonpayable","type":"constructor"},{"inputs":[],"name":"FailedDeployment","type":"error"},{"inputs":[{"internalType":"uint256","name":"balance","type":"uint256"},{"internalType":"uint256","name":"needed","type":"uint256"}],"name":"InsufficientBalance","type":"error"},{"inputs":[{"internalType":"address","name":"owner","type":"address"}],"name":"OwnableInvalidOwner","type":"error"},{"inputs":[{"internalType":"address","name":"account","type":"address"}],"name":"OwnableUnauthorizedAccount","type":"error"},{"inputs":[],"name":"ReentrancyGuardReentrantCall","type":"error"},{"anonymous":false,"inputs":[{"indexed":true,"internalType":"address","name":"addr","type":"address"}],"name":"AuthorizedAddressAdded","type":"event"},{"anonymous":false,"inputs":[{"indexed":true,"internalType":"address","name":"addr","type":"address"}],"name":"AuthorizedAddressRemoved","type":"event"},{"anonymous":false,"inputs":[{"indexed":false,"internalType":"uint8","name":"newWeekly","type":"uint8"},{"indexed":false,"internalType":"uint8","name":"newMonthly","type":"uint8"}],"name":"EnrollmentLimitUpdated","type":"event"},{"anonymous":false,"inputs":[{"indexed":true,"internalType":"address","name":"user","type":"address"},{"indexed":false,"internalType":"uint256","name":"timestamp","type":"uint256"}],"name":"EnrollmentRecorded","type":"event"},{"anonymous":false,"inputs":[{"indexed":true,"internalType":"address","name":"sender","type":"address"},{"indexed":false,"internalType":"uint256","name":"amount","type":"uint256"}],"name":"FundsReceived","type":"event"},{"anonymous":false,"inputs":[{"indexed":true,"internalType":"address","name":"to","type":"address"},{"indexed":false,"internalType":"uint256","name":"amount","type":"uint256"}],"name":"FundsWithdrawn","type":"event"},{"anonymous":false,"inputs":[{"indexed":true,"internalType":"address","name":"missionAddress","type":"address"},{"indexed":true,"internalType":"enum MissionType","name":"missionType","type":"uint8"}],"name":"MissionCreated","type":"event"},{"anonymous":false,"inputs":[{"indexed":false,"internalType":"uint256","name":"amount","type":"uint256"},{"indexed":true,"internalType":"enum MissionType","name":"missionType","type":"uint8"},{"indexed":true,"internalType":"address","name":"sender","type":"address"}],"name":"MissionFundsRegistered","type":"event"},{"anonymous":false,"inputs":[{"indexed":true,"internalType":"address","name":"confirmer","type":"address"},{"indexed":false,"internalType":"address","name":"newOwner","type":"address"},{"indexed":false,"internalType":"uint256","name":"timestamp","type":"uint256"}],"name":"OwnershipTransferConfirmed","type":"event"},{"anonymous":false,"inputs":[{"indexed":true,"internalType":"address","name":"proposer","type":"address"},{"indexed":false,"internalType":"address","name":"newOwner","type":"address"},{"indexed":false,"internalType":"uint256","name":"timestamp","type":"uint256"}],"name":"OwnershipTransferProposed","type":"event"},{"anonymous":false,"inputs":[{"indexed":true,"internalType":"address","name":"previousOwner","type":"address"},{"indexed":true,"internalType":"address","name":"newOwner","type":"address"}],"name":"OwnershipTransferred","type":"event"},{"stateMutability":"payable","type":"fallback"},{"inputs":[],"name":"OWNERSHIP_PROPOSAL_WINDOW","outputs":[{"internalType":"uint256","name":"","type":"uint256"}],"stateMutability":"view","type":"function"},{"inputs":[{"internalType":"address","name":"account","type":"address"}],"name":"addAuthorizedAddress","outputs":[],"stateMutability":"nonpayable","type":"function"},{"inputs":[{"internalType":"address","name":"","type":"address"}],"name":"authorized","outputs":[{"internalType":"bool","name":"","type":"bool"}],"stateMutability":"view","type":"function"},{"inputs":[{"internalType":"address","name":"user","type":"address"}],"name":"canEnroll","outputs":[{"internalType":"bool","name":"ok","type":"bool"},{"internalType":"enum Limit","name":"breach","type":"uint8"}],"stateMutability":"view","type":"function"},{"inputs":[{"internalType":"address","name":"newOwner","type":"address"}],"name":"confirmOwnershipTransfer","outputs":[],"stateMutability":"nonpayable","type":"function"},{"inputs":[{"internalType":"enum MissionType","name":"_missionType","type":"uint8"},{"internalType":"uint256","name":"_enrollmentStart","type":"uint256"},{"internalType":"uint256","name":"_enrollmentEnd","type":"uint256"},{"internalType":"uint256","name":"_enrollmentAmount","type":"uint256"},{"internalType":"uint8","name":"_enrollmentMinPlayers","type":"uint8"},{"internalType":"uint8","name":"_enrollmentMaxPlayers","type":"uint8"},{"internalType":"uint256","name":"_missionStart","type":"uint256"},{"internalType":"uint256","name":"_missionEnd","type":"uint256"},{"internalType":"uint8","name":"_missionRounds","type":"uint8"}],"name":"createMission","outputs":[{"internalType":"address","name":"","type":"address"}],"stateMutability":"payable","type":"function"},{"inputs":[],"name":"getAllMissions","outputs":[{"internalType":"address[]","name":"","type":"address[]"},{"internalType":"enum Status[]","name":"","type":"uint8[]"}],"stateMutability":"view","type":"function"},{"inputs":[{"internalType":"enum MissionType","name":"_type","type":"uint8"}],"name":"getFundsByType","outputs":[{"internalType":"uint256","name":"","type":"uint256"}],"stateMutability":"view","type":"function"},{"inputs":[{"internalType":"uint256","name":"n","type":"uint256"}],"name":"getLatestMissions","outputs":[{"internalType":"address[]","name":"","type":"address[]"},{"internalType":"uint8[]","name":"","type":"uint8[]"}],"stateMutability":"view","type":"function"},{"inputs":[{"internalType":"address","name":"missionAddress","type":"address"}],"name":"getMissionData","outputs":[{"components":[{"internalType":"address[]","name":"players","type":"address[]"},{"internalType":"enum MissionType","name":"missionType","type":"uint8"},{"internalType":"uint256","name":"enrollmentStart","type":"uint256"},{"internalType":"uint256","name":"enrollmentEnd","type":"uint256"},{"internalType":"uint256","name":"enrollmentAmount","type":"uint256"},{"internalType":"uint8","name":"enrollmentMinPlayers","type":"uint8"},{"internalType":"uint8","name":"enrollmentMaxPlayers","type":"uint8"},{"internalType":"uint256","name":"missionStart","type":"uint256"},{"internalType":"uint256","name":"missionEnd","type":"uint256"},{"internalType":"uint8","name":"missionRounds","type":"uint8"},{"internalType":"uint8","name":"roundCount","type":"uint8"},{"internalType":"uint256","name":"ethStart","type":"uint256"},{"internalType":"uint256","name":"ethCurrent","type":"uint256"},{"components":[{"internalType":"address","name":"player","type":"address"},{"internalType":"uint256","name":"amountWon","type":"uint256"}],"internalType":"struct Mission.PlayersWon[]","name":"playersWon","type":"tuple[]"},{"internalType":"uint256","name":"pauseTimestamp","type":"uint256"},{"internalType":"address[]","name":"refundedPlayers","type":"address[]"}],"internalType":"struct Mission.MissionData","name":"","type":"tuple"}],"stateMutability":"view","type":"function"},{"inputs":[{"internalType":"enum Status","name":"s","type":"uint8"}],"name":"getMissionsByStatus","outputs":[{"internalType":"address[]","name":"","type":"address[]"},{"internalType":"uint8[]","name":"","type":"uint8[]"}],"stateMutability":"view","type":"function"},{"inputs":[],"name":"getMissionsEnded","outputs":[{"internalType":"address[]","name":"","type":"address[]"},{"internalType":"uint8[]","name":"","type":"uint8[]"}],"stateMutability":"view","type":"function"},{"inputs":[],"name":"getMissionsNotEnded","outputs":[{"internalType":"address[]","name":"","type":"address[]"},{"internalType":"uint8[]","name":"","type":"uint8[]"}],"stateMutability":"view","type":"function"},{"inputs":[{"internalType":"address","name":"player","type":"address"}],"name":"getPlayerLimits","outputs":[{"internalType":"uint8","name":"weekUsed","type":"uint8"},{"internalType":"uint8","name":"weekMax","type":"uint8"},{"internalType":"uint8","name":"monthUsed","type":"uint8"},{"internalType":"uint8","name":"monthMax","type":"uint8"},{"internalType":"uint256","name":"secToWeek","type":"uint256"},{"internalType":"uint256","name":"secToMonth","type":"uint256"}],"stateMutability":"view","type":"function"},{"inputs":[],"name":"getTotalMissions","outputs":[{"internalType":"uint256","name":"","type":"uint256"}],"stateMutability":"view","type":"function"},{"inputs":[{"internalType":"address","name":"","type":"address"}],"name":"isMission","outputs":[{"internalType":"bool","name":"","type":"bool"}],"stateMutability":"view","type":"function"},{"inputs":[],"name":"missionImplementation","outputs":[{"internalType":"address","name":"","type":"address"}],"stateMutability":"view","type":"function"},{"inputs":[{"internalType":"address","name":"","type":"address"}],"name":"missionStatus","outputs":[{"internalType":"enum Status","name":"","type":"uint8"}],"stateMutability":"view","type":"function"},{"inputs":[{"internalType":"uint256","name":"","type":"uint256"}],"name":"missions","outputs":[{"internalType":"address","name":"","type":"address"}],"stateMutability":"view","type":"function"},{"inputs":[],"name":"monthlyLimit","outputs":[{"internalType":"uint8","name":"","type":"uint8"}],"stateMutability":"view","type":"function"},{"inputs":[],"name":"owner","outputs":[{"internalType":"address","name":"","type":"address"}],"stateMutability":"view","type":"function"},{"inputs":[{"internalType":"address","name":"","type":"address"}],"name":"ownershipProposals","outputs":[{"internalType":"address","name":"proposer","type":"address"},{"internalType":"uint256","name":"timestamp","type":"uint256"}],"stateMutability":"view","type":"function"},{"inputs":[{"internalType":"address","name":"newOwner","type":"address"}],"name":"proposeOwnershipTransfer","outputs":[],"stateMutability":"nonpayable","type":"function"},{"inputs":[{"internalType":"address","name":"user","type":"address"}],"name":"recordEnrollment","outputs":[],"stateMutability":"nonpayable","type":"function"},{"inputs":[{"internalType":"enum MissionType","name":"missionType","type":"uint8"}],"name":"registerMissionFunds","outputs":[],"stateMutability":"payable","type":"function"},{"inputs":[{"internalType":"address","name":"account","type":"address"}],"name":"removeAuthorizedAddress","outputs":[],"stateMutability":"nonpayable","type":"function"},{"inputs":[],"name":"renounceOwnership","outputs":[],"stateMutability":"nonpayable","type":"function"},{"inputs":[{"internalType":"enum MissionType","name":"","type":"uint8"}],"name":"reservedFunds","outputs":[{"internalType":"uint256","name":"","type":"uint256"}],"stateMutability":"view","type":"function"},{"inputs":[],"name":"reservedFundsBreakdown","outputs":[{"internalType":"uint256[7]","name":"","type":"uint256[7]"}],"stateMutability":"view","type":"function"},{"inputs":[{"internalType":"address","name":"user","type":"address"}],"name":"secondsTillMonthlySlot","outputs":[{"internalType":"uint256","name":"","type":"uint256"}],"stateMutability":"view","type":"function"},{"inputs":[{"internalType":"address","name":"user","type":"address"}],"name":"secondsTillWeeklySlot","outputs":[{"internalType":"uint256","name":"","type":"uint256"}],"stateMutability":"view","type":"function"},{"inputs":[{"internalType":"uint8","name":"_weekly","type":"uint8"},{"internalType":"uint8","name":"_monthly","type":"uint8"}],"name":"setEnrollmentLimits","outputs":[],"stateMutability":"nonpayable","type":"function"},{"inputs":[{"internalType":"enum Status","name":"newStatus","type":"uint8"}],"name":"setMissionStatus","outputs":[],"stateMutability":"nonpayable","type":"function"},{"inputs":[],"name":"totalMissionFailures","outputs":[{"internalType":"uint256","name":"","type":"uint256"}],"stateMutability":"view","type":"function"},{"inputs":[],"name":"totalMissionFunds","outputs":[{"internalType":"uint256","name":"","type":"uint256"}],"stateMutability":"view","type":"function"},{"inputs":[],"name":"totalMissionSuccesses","outputs":[{"internalType":"uint256","name":"","type":"uint256"}],"stateMutability":"view","type":"function"},{"inputs":[],"name":"totalOwnerEarnedFunds","outputs":[{"internalType":"uint256","name":"","type":"uint256"}],"stateMutability":"view","type":"function"},{"inputs":[{"internalType":"address","name":"newOwner","type":"address"}],"name":"transferOwnership","outputs":[],"stateMutability":"nonpayable","type":"function"},{"inputs":[],"name":"weeklyLimit","outputs":[{"internalType":"uint8","name":"","type":"uint8"}],"stateMutability":"view","type":"function"},{"inputs":[{"internalType":"uint256","name":"amount","type":"uint256"}],"name":"withdrawFunds","outputs":[],"stateMutability":"nonpayable","type":"function"},{"stateMutability":"payable","type":"receive"}],"evm":{"bytecode":{"linkReferences":{},"object":"60a03461011e57601f612e1f38819003918201601f19168301916001600160401b038311848410176101235780849260209460405283398101031261011e57516001600160a01b03811680820361011e5733156101085760008054336001600160a01b0319821681178355604051939290916001600160a01b0316907f8be0079c531659141344cd1fd0a4f28419497f9722a3daafe3b4186f6b6457e09080a360018055610a0461ffff196003541617600355156100da5750608052604051612ce5908161013a82396080518181816109a40152610de00152f35b62461bcd60e51b8152602060048201526009602482015268696d706c207a65726f60b81b6044820152606490fd5b631e4fbdf760e01b600052600060045260246000fd5b600080fd5b634e487b7160e01b600052604160045260246000fdfe6080806040526004361015610011575b005b600090813560e01c9081630814ab8214612238575080630a6005da14612214578063155dd5ee1461205e5780631e59d58414611efe57806320c5718f14611c9557806321040fc314611b6d5780632c8fe52614611b295780632e33b07f146107275780633589cf7214611b0b5780633701276214611a2c5780633c2139571461182d57806342f1181e1461173c5780635c5bb6f21461171e57806363679723146117005780636805036d146115ad5780636d8a1390146115335780637071293914611448578063715018a6146113ee5780637e9eae501461130857806383fbea51146112ea578063861a68d6146112c95780638da5cb5b146112a25780639804a586146112585780639b15953914610d3c578063a9bea78914610bc8578063aa1f059514610b86578063b620291314610a15578063b9181611146109d3578063bd4877251461098e578063c17f9e591461075a578063c416ad2a14610727578063c892fde314610709578063cbf2080d14610572578063d3050eba14610554578063d41eca64146104a6578063d8d6e8ff1461041f578063df4db46314610398578063eff0ab921461028b578063f2fde38b146102345763fb4cdea70361000f5734610231576020366003190112610231576004356001600160a01b0381169081900361022f578152600b6020908152604091829020805460019091015483516001600160a01b0390921682529181019190915290819081015b0390f35b505b80fd5b5034610231576020366003190112610231576004356001600160a01b03811680820361028757610262612c3f565b156102735761027090612c68565b80f35b631e4fbdf760e01b82526004829052602482fd5b8280fd5b5034610231576020366003190112610231576004356001600160a01b0381169081900361022f578152600d6020526040812080548291825b82811061031357505050816102df57602091505b604051908152f35b62093a8082018092116102ff57506102fa6020914290612753565b6102d7565b634e487b7160e01b81526011600452602490fd5b61031d818361236c565b90549060031b1c62093a808101809111610384574210610340575b6001016102c3565b8415801561036b575b15610338579350600161035c858361236c565b90549060031b1c949050610338565b5084610377828461236c565b90549060031b1c10610349565b634e487b7160e01b85526011600452602485fd5b503461023157806003193601126102315760e090816040516103ba8282612447565b369037604051906103cb8383612447565b82368337805b60078110156103f4576001906103e681612384565b548160051b850152016103d1565b506040519190825b6007821061040957505050f35b60208060019285518152019301910190916103fc565b503461023157602036600319011261023157600435600881101561022f57338252600960205261045560ff604084205416612bb2565b338252600a6020526040822060ff1981541660ff83161790556006811460001461048b5750610485600654612469565b60065580f35b6007146104955780f35b6104a0600754612469565b60075580f35b50346102315760403660031901126102315760043560ff811680910361022f5760243560ff811691828203610550577f321994b8855ae38e4fd6162f7a0bd7cde88be83aa3acc96e03c17b7f733b43e19260409260018060a01b038654163314801561053b575b6105169061239d565b8261ff006003549260081b169161ffff1916171760035582519182526020820152a180f35b5033865260086020528386205460ff1661050d565b8380fd5b50346102315780600319360112610231576020604051620151808152f35b5034610231576020366003190112610231576004356001600160a01b0381169081900361022f578152600d602052604081208190829083809181908054915b82811061065e5750505060035494801560001461062c575080915b80610606575060c09460ff8092945b8160405197168752818316602088015216604086015260081c166060840152608083015260a0820152f35b9062278d0082018092116102ff575060c09460ff61062681934290612753565b946105db565b62093a80810180911161064a57610644904290612753565b916105cc565b634e487b7160e01b82526011600452602482fd5b610668818361236c565b90549060031b1c62278d0081018082116106e457421061068c575b506001016105b1565b9561069690612469565b9585158015610700575b6106f8575b62093a8081018082116106e45742101561068357966106c390612469565b96881580156106db575b156106835797506001610683565b508881106106cd565b634e487b7160e01b86526011600452602486fd5b9450846106a5565b508581106106a0565b50346102315780600319360112610231576020600654604051908152f35b50346102315760203660031901126102315760043590600782101561023157602061075183612384565b54604051908152f35b5034610231576020366003190112610231576004356001600160a01b0381169081900361022f57338252600a60205260ff604083205416600881101561097a576001036109445762278cff1942019042821161093057808352600d60205260408320805492845b84811080610917575b156107dd576107d890612469565b6107c1565b8383879280610863575b50805490600160401b82101561084f578161080a9160016108229401815561236c565b429082549060031b91821b91600019901b1916179055565b7f498f5e6dcf570483a1848853791046a7f10012193176d71f959f46eb7713d7446020604051428152a280f35b634e487b7160e01b84526041600452602484fd5b92805b610871858454612753565b8110156108c157806108bb61089161088b88600195612746565b8661236c565b90549060031b1c6108a2838761236c565b90919082549060031b91821b91600019901b1916179055565b01610866565b5092835b8181106108d257506107e7565b825480156109035760019190600019016108ec818661236c565b8154906000199060031b1b191690558455016108c5565b634e487b7160e01b86526031600452602486fd5b5081610923828561236c565b90549060031b1c106107ca565b634e487b7160e01b83526011600452602483fd5b60405162461bcd60e51b815260206004820152600e60248201526d24b73b30b634b21031b0b63632b960911b6044820152606490fd5b634e487b7160e01b83526021600452602483fd5b50346102315780600319360112610231576040517f00000000000000000000000000000000000000000000000000000000000000006001600160a01b03168152602090f35b5034610231576020366003190112610231576004356001600160a01b0381169081900361022f5760408260ff9260209452600884522054166040519015158152f35b50346102315780600319360112610231576002549080805b838110610b1a5750610a47610a41836124a6565b926124a6565b9281805b828110610a61576040518061022b8888836122dc565b610a6a8161233b565b905460039190911b1c6001600160a01b03168252600a602052604082205460ff16600881101580610b0657600682148015610afa575b610aaf575b5050600101610a4b565b610aba83969361233b565b905460039190911b1c6001600160a01b0316610ad684896124d8565b5261097a5781610af291610aec6001948a6124d8565b52612469565b939038610aa5565b50508260078214610aa0565b634e487b7160e01b84526021600452602484fd5b610b238161233b565b905460039190911b1c6001600160a01b03168252600a602052604082205460ff16600881101561097a5760068114908115610b7b575b50610b67575b600101610a2d565b91610b73600191612469565b929050610b5f565b600791501438610b59565b5034610231576020366003190112610231576004356001600160a01b0381169081900361022f5760408260ff9260209452600984522054166040519015158152f35b50602036600319011261023157600435600781101561022f573382526009602052610bf960ff604084205416612bb2565b610c01612c1d565b3415610cf857338252600a60205260ff604083205416600881101561097a576006148015610cd6575b15610c9a57610c3881612384565b610c43348254612746565b9055610c5134600454612746565b600455610c6360033404600554612746565b600555604051903482527f606617fd09d9890413e3c46147b844d4562351f86e0f7a5c60849bbf0ef0281160203393a36001805580f35b60405162461bcd60e51b815260206004820152601460248201527321b0b63632b9103737ba10309036b4b9b9b4b7b760611b6044820152606490fd5b50338252600a60205260ff604083205416600881101561097a57600714610c2a565b606460405162461bcd60e51b815260206004820152602060248201527f416d6f756e74206d7573742062652067726561746572207468616e207a65726f6044820152fd5b5061012036600319011261023157600435600781101561022f57602435906044359160643560843560ff81168091036112545760a43560ff81168091036112505760c4359060e43592610104359460ff861680960361124c5789546001600160a01b031633148015611236575b610db29061239d565b600586106111d75785821061116c578887101561111b578884106110bd5783851115611079578015611020577f0000000000000000000000000000000000000000000000000000000000000000608881901c62ffffff16763d602d80600a3d3981f3363d3d373d3d3d363d73000000178b5260781b6e5af43d82803e903d91602b57fd5bf3176020526001600160a01b03603760098cf01698891561101157898b52600960205260408b20600160ff19825416179055898b52600a60205260408b2060ff19815416905560018060a01b038b5416978a3b1561100d576040519863c54168b360e01b8a5260048a01523060248a0152610eb460448a018b61232e565b6064890152608488015260a487015260c486015260e485015261010484015261012483015261014482015283816101648134875af1801561100257610fee575b50600254600160401b81101561084f57806001610f14920160025561233b565b81546001600160a01b0360039290921b91821b19169084901b17905580827f0ac1ac89285bf936f515aafcf6808b3e062e77fd57f52c8892d20fc9409b8b538580a3610f5f81612384565b5460021c9081151580610fe4575b610f7d575b602083604051908152f35b610f8690612384565b610f91828254612753565b905582823b156102315760405163eb2bab7760e01b81529182906004908290865af18015610fd957610fc4575b80610f72565b610fcf838092612447565b61022f5781610fbe565b6040513d85823e3d90fd5b5081471015610f6d565b83610ffb91949294612447565b9138610ef4565b6040513d86823e3d90fd5b8b80fd5b63b06ebf3d60e01b8b5260048bfd5b60405162461bcd60e51b815260206004820152602b60248201527f456e726f6c6c6d656e7420616d6f756e74206d7573742062652067726561746560448201526a72207468616e207a65726f60a81b6064820152608490fd5b606460405162461bcd60e51b815260206004820152602060248201527f4d697373696f6e207374617274206d757374206265206265666f726520656e646044820152fd5b60405162461bcd60e51b815260206004820152603060248201527f4d697373696f6e207374617274206d757374206265206f6e206f72206166746560448201526f1c88195b9c9bdb1b1b595b9d08195b9960821b6064820152608490fd5b60405162461bcd60e51b815260206004820152602360248201527f456e726f6c6c6d656e74207374617274206d757374206265206265666f726520604482015262195b9960ea1b6064820152608490fd5b60405162461bcd60e51b815260206004820152603f60248201527f4d696e696d756d20706c6179657273206d75737420626520677265617465722060448201527f7468616e206f7220657175616c20746f206d697373696f6e20726f756e6473006064820152608490fd5b60405162461bcd60e51b815260206004820152603160248201527f4d697373696f6e20726f756e6473206d7573742062652067726561746572207460448201527068616e206f7220657175616c20746f203560781b6064820152608490fd5b50338a52600860205260408a205460ff16610da9565b8980fd5b8680fd5b8580fd5b5034610231576020366003190112610231576004356001600160a01b038116810361022f5761128690612a33565b6040519115158252600381101561097a57604092506020820152f35b5034610231578060031936011261023157546040516001600160a01b039091168152602090f35b5034610231578060031936011261023157602060ff60035416604051908152f35b50346102315780600319360112610231576020600754604051908152f35b503461023157602036600319011261023157600254906004358281116113e7575b611332816124a6565b9161133c826124a6565b936000198101908111825b84811061135d576040518061022b8989836122dc565b816113d35761137461136f8285612753565b61233b565b905460039190911b1c6001600160a01b03168061139183896124d8565b528452600a60205260ff60408520541660088110156113bf57906001916113b8828a6124d8565b5201611347565b634e487b7160e01b85526021600452602485fd5b634e487b7160e01b84526011600452602484fd5b5081611329565b5034610231578060031936011261023157611407612c3f565b80546001600160a01b03198116825581906001600160a01b03167f8be0079c531659141344cd1fd0a4f28419497f9722a3daafe3b4186f6b6457e08280a380f35b5034610231576020366003190112610231576004356001600160a01b0381169081900361022f5781546001600160a01b03163314801561151d575b61148c9061239d565b611497811515612760565b808252600860205260ff604083205416156114e757808252600860205260408220805460ff191690557f66d5f06f711af3c9feba3203fdb00b51345d514c68585d9d319c5ff5e6f775928280a280f35b60405162461bcd60e51b815260206004820152600e60248201526d139bdd08185d5d1a1bdc9a5e995960921b6044820152606490fd5b503382526008602052604082205460ff16611483565b50346102315780600319360112610231576115669061155061279e565b909160405193849360408552604085019061229f565b8381036020850152602080845192838152019301915b81811061158a575050500390f35b919350916020808261159f600194885161227c565b01940191019184939261157c565b50346102315780600319360112610231576002549080805b83811061169357506115d9610a41836124a6565b9281805b8281106115f3576040518061022b8888836122dc565b6115fc8161233b565b905460039190911b1c6001600160a01b03168252600a602052604082205460ff16600881101580610b0657600682141580611686575b611641575b50506001016115dd565b61164c83969361233b565b905460039190911b1c6001600160a01b031661166884896124d8565b5261097a578161167e91610aec6001948a6124d8565b939038611637565b5050826007821415611632565b61169c8161233b565b905460039190911b1c6001600160a01b03168252600a602052604082205460ff16600881101561097a57600681141590816116f4575b506116e0575b6001016115c5565b916116ec600191612469565b9290506116d8565b600791501415386116d2565b50346102315780600319360112610231576020600454604051908152f35b50346102315780600319360112610231576020600254604051908152f35b5034610231576020366003190112610231576004356001600160a01b0381169081900361022f5781546001600160a01b031633148015611817575b6117809061239d565b61178b811515612760565b808252600860205260ff6040832054166117dd57808252600860205260408220805460ff191660011790557f10ac961f00d5e732ba4dcc2c6fb09bebea0eb9edd2a75c8109775ef288382e678280a280f35b60405162461bcd60e51b8152602060048201526012602482015271105b1c9958591e48185d5d1a1bdc9a5e995960721b6044820152606490fd5b503382526008602052604082205460ff16611777565b5034610231576020366003190112610231576004356001600160a01b0381168082036102875782546001600160a01b031633148015611a16575b6118709061239d565b808352600b602052604083206040516118888161242b565b81546001600160a01b03168082526001909201546020820190815291156119d157516001600160a01b0316331461198d57516201518081018091116113d3574211611955576118d5612c3f565b8015611941576118e482612c68565b8252600b6020908152604080842084815560010184905580516001600160a01b039093168352429183019190915233917fdd72dd33198968a9cdc9b1e5cbff344fb8d04d99f8c15c0a02416b04e857b46791819081015b0390a280f35b631e4fbdf760e01b83526004839052602483fd5b60405162461bcd60e51b815260206004820152601060248201526f141c9bdc1bdcd85b08195e1c1a5c995960821b6044820152606490fd5b606460405162461bcd60e51b815260206004820152602060248201527f43616e6e6f7420636f6e6669726d20796f7572206f776e2070726f706f73616c6044820152fd5b60405162461bcd60e51b815260206004820152601a60248201527f4e6f2070726f706f73616c20666f722074686973206f776e65720000000000006044820152606490fd5b503383526008602052604083205460ff16611867565b5034610231576020366003190112610231576004356001600160a01b0381169081900361022f578152600d6020526040812080548291825b828110611a9a5750505081611a7f5760209150604051908152f35b62278d0082018092116102ff57506102fa6020914290612753565b611aa4818361236c565b90549060031b1c62278d008101809111610384574210611ac7575b600101611a64565b84158015611af2575b15611abf5793506001611ae3858361236c565b90549060031b1c949050611abf565b5084611afe828461236c565b90549060031b1c10611ad0565b50346102315780600319360112610231576020600554604051908152f35b50346102315760203660031901126102315760043590600254821015610231576020611b548361233b565b905460405160039290921b1c6001600160a01b03168152f35b5034610231576020366003190112610231576004356001600160a01b0381168082036102875782546001600160a01b031633148015611c7f575b611bb09061239d565b8015611c4657600160405191611bc58361242b565b33835260208301904282528552600b6020526040852092828060a01b039051166bffffffffffffffffffffffff60a01b845416178355519101557fc29bdbd554e41df97e5c40fc273a09677ac133c245f0064bdffef5cc72176e196040518061193b339442908360209093929193604081019460018060a01b031681520152565b60405162461bcd60e51b815260206004820152601160248201527024b73b30b634b2103732bb9037bbb732b960791b6044820152606490fd5b503383526008602052604083205460ff16611ba7565b5034610231576020366003190112610231576004356001600160a01b0381169081900361022f5760606101e0604051611ccd816123f8565b82815284602082015284604082015284838201528460808201528460a08201528460c08201528460e08201528461010082015284610120820152846101408201528461016082015284610180820152826101a0820152846101c082015201528015611eb9578160049160405192838092631f385f7960e21b82525afa908115611eae578291611e8c575b506040519060208252611d788151610200602085015261022084019061229f565b92611d8b6020830151604085019061232e565b6040820151606084015260608201516080840152608082015160a084015260ff60a08301511660c084015260ff60c08301511660e084015260e082015161010084015261010082015161012084015260ff6101208301511661014084015260ff610140830151166101608401526101608201516101808401526101808201516101a08401526101a082015193601f19848203016101c0850152602080865192838152019501915b818110611e6157848061022b886101e0886101c0810151828601520151601f198483030161020085015261229f565b825180516001600160a01b031687526020908101518188015260409096019590920191600101611e32565b611ea891503d8084833e611ea08183612447565b810190612578565b38611d57565b6040513d84823e3d90fd5b60405162461bcd60e51b815260206004820152601760248201527f496e76616c6964206d697373696f6e20616464726573730000000000000000006044820152606490fd5b5034610231576020366003190112610231576004359060088210159081610231576002548192825b8281106120035750611f40611f3a856124a6565b946124a6565b948391845b848110611f5b576040518061022b8a8a836122dc565b611f648161233b565b905460039190911b1c6001600160a01b03168652600a602052604086205460ff1682611fef576008811015611fef578314611fa2575b600101611f45565b929050611fae8361233b565b905460039190911b1c6001600160a01b0316611fca82886124d8565b526001611fe78692611fdc818b6124d8565b60ff86169052612469565b939050611f9a565b634e487b7160e01b87526021600452602487fd5b61200c8161233b565b905460039190911b1c6001600160a01b03168452600a602052604084205460ff16826113bf5760088110156113bf57861461204a575b600101611f26565b93612056600191612469565b949050612042565b50346102315760203660031901126102315760043560018060a01b03825416331480156121fe575b61208f9061239d565b612097612c1d565b81546001600160a01b0316908082156121c157156121ba575b47811161217e578280808084865af13d15612179573d67ffffffffffffffff811161216557604051906120ed601f8201601f191660200183612447565b81528460203d92013e5b1561212e5760207feaff4b37086828766ad3268786972c0cd24259d4c87a80f9d3963a3c3d999b0d91604051908152a26001805580f35b60405162461bcd60e51b815260206004820152600f60248201526e151c985b9cd9995c8819985a5b1959608a1b6044820152606490fd5b634e487b7160e01b85526041600452602485fd5b6120f7565b60405162461bcd60e51b8152602060048201526014602482015273496e73756666696369656e742062616c616e636560601b6044820152606490fd5b50476120b0565b60405162461bcd60e51b815260206004820152601560248201527424b73b30b634b21036b0b730b3b2b91037bbb732b960591b6044820152606490fd5b503382526008602052604082205460ff16612086565b5034610231578060031936011261023157602060ff60035460081c16604051908152f35b90503461022f57602036600319011261022f576004356001600160a01b03811690819003610287578160ff60408561227a9460209752600a875220541661227c565bf35b9060088210156122895752565b634e487b7160e01b600052602160045260246000fd5b906020808351928381520192019060005b8181106122bd5750505090565b82516001600160a01b03168452602093840193909201916001016122b0565b906122ef9060408352604083019061229f565b9060208183039101526020808351928381520192019060005b8181106123155750505090565b825160ff16845260209384019390920191600101612308565b9060078210156122895752565b60025481101561235657600260005260206000200190600090565b634e487b7160e01b600052603260045260246000fd5b80548210156123565760005260206000200190600090565b600781101561228957600052600c602052604060002090565b156123a457565b60405162461bcd60e51b815260206004820152602660248201527f4e6f74206f776e6572206f72204d697373696f6e466163746f727920617574686044820152651bdc9a5e995960d21b6064820152608490fd5b610200810190811067ffffffffffffffff82111761241557604052565b634e487b7160e01b600052604160045260246000fd5b6040810190811067ffffffffffffffff82111761241557604052565b90601f8019910116810190811067ffffffffffffffff82111761241557604052565b60001981146124785760010190565b634e487b7160e01b600052601160045260246000fd5b67ffffffffffffffff81116124155760051b60200190565b906124b08261248e565b6124bd6040519182612447565b82815280926124ce601f199161248e565b0190602036910137565b80518210156123565760209160051b010190565b51906001600160a01b038216820361250057565b600080fd5b9080601f8301121561250057815161251c8161248e565b9261252a6040519485612447565b81845260208085019260051b82010192831161250057602001905b8282106125525750505090565b6020809161255f846124ec565b815201910190612545565b519060ff8216820361250057565b6020818303126125005780519067ffffffffffffffff821161250057016102008183031261250057604051916125ad836123f8565b815167ffffffffffffffff811161250057816125ca918401612505565b83526020820151600781101561250057602084015260408201516040840152606082015160608401526080820151608084015261260960a0830161256a565b60a084015261261a60c0830161256a565b60c084015260e082015160e0840152610100820151610100840152612642610120830161256a565b610120840152612655610140830161256a565b6101408401526101608201516101608401526101808201516101808401526101a082015167ffffffffffffffff811161250057820181601f820112156125005780516126a08161248e565b916126ae6040519384612447565b81835260208084019260061b8201019084821161250057602001915b81831061270e575050506101a08401526101c08201516101c08401526101e082015167ffffffffffffffff8111612500576127059201612505565b6101e082015290565b60408386031261250057602060409182516127288161242b565b612731866124ec565b815282860151838201528152019201916126ca565b9190820180921161247857565b9190820391821161247857565b1561276757565b60405162461bcd60e51b815260206004820152600f60248201526e496e76616c6964206164647265737360881b6044820152606490fd5b60025480156129fd57624f19ff194201914283116124785762278cff194201428111612478576000929182805b61290f575b506127da846124a6565b906127e4856124a6565b936000905b80151580612906575b156128fb5760001901906128058261233b565b60018060a01b0391549060031b1c169081600052600a60205260ff6040600020541691604051631f385f7960e21b8152600081600481855afa80156128ef5788916000916128d6575b508b60e0820181815110806128b3575b156128a85750506101000151105b61289a5761287a82876124d8565b5261288581886124d8565b916008811015612289576001925201906127e9565b505050509350919350509190565b91509150511061286c565b509250506008851015612289578b8992600687148061285e57506007871461285e565b6128e9913d8091833e611ea08183612447565b3861284e565b6040513d6000823e3d90fd5b509195509293505050565b508682106127f2565b60009493941901926129208461233b565b60018060a01b0391549060031b1c1680600052600a6020526004600060ff6040822054169260405192838092631f385f7960e21b82525afa9081156128ef57859289916000936129e2575b5060e08301908282511090816129b2575b50156129a75750506101000151105b6129a0576129998491612469565b94936127cb565b93926127d0565b91509150511061298b565b925050925060088110156122895785928160068b93149081156129d7575b503861297c565b6007915014386129d0565b6129f691933d8091833e611ea08183612447565b913861296b565b50602090604051612a0e8382612447565b60008152600036813760405192612a258185612447565b600084525060003681379190565b6001600160a01b03166000908152600d602052604081208054829182918291825b828110612b1b575050506003549160ff8316119060ff82159360081c1611918215928280612b14575b612b065781612afe575b50612af25781612aea575b50612ae05762093a80810180911161247857612aaf904290612753565b9062278d00810180911161247857612ac8904290612753565b1115612ad8576002905b60009190565b600190612ad2565b5050600090600290565b905038612a92565b50505050600090600190565b905038612a87565b505050505050600190600090565b5080612a7d565b612b25818361236c565b90549060031b1c62278d008101808211612478574210612b49575b50600101612a54565b93612b5390612469565b9387158015612ba9575b612ba1575b62093a80810180821161247857421015612b405794612b8090612469565b9486158015612b98575b15612b405795506001612b40565b50868110612b8a565b965086612b62565b50878110612b5d565b15612bb957565b60405162461bcd60e51b815260206004820152603660248201527f4d697373696f6e466163746f72793a2063616c6c6572206973206e6f742061206044820152751d985b1a59081b5a5cdcda5bdb8818dbdb9d1c9858dd60521b6064820152608490fd5b600260015414612c2e576002600155565b633ee5aeb560e01b60005260046000fd5b6000546001600160a01b03163303612c5357565b63118cdaa760e01b6000523360045260246000fd5b600080546001600160a01b039283166001600160a01b03198216811783559216907f8be0079c531659141344cd1fd0a4f28419497f9722a3daafe3b4186f6b6457e09080a356fea26469706673582212209dbcdfeb6217bdae24ed5ae9675ad9d3831f8fea8bfa5522b6e94625d41622bf64736f6c634300081e0033","opcodes":"PUSH1 0xA0 CALLVALUE PUSH2 0x11E JUMPI PUSH1 0x1F PUSH2 0x2E1F CODESIZE DUP2 SWAP1 SUB SWAP2 DUP3 ADD PUSH1 0x1F NOT AND DUP4 ADD SWAP2 PUSH1 0x1 PUSH1 0x1 PUSH1 0x40 SHL SUB DUP4 GT DUP5 DUP5 LT OR PUSH2 0x123 JUMPI DUP1 DUP5 SWAP3 PUSH1 0x20 SWAP5 PUSH1 0x40 MSTORE DUP4 CODECOPY DUP2 ADD SUB SLT PUSH2 0x11E JUMPI MLOAD PUSH1 0x1 PUSH1 0x1 PUSH1 0xA0 SHL SUB DUP2 AND DUP1 DUP3 SUB PUSH2 0x11E JUMPI CALLER ISZERO PUSH2 0x108 JUMPI PUSH1 0x0 DUP1 SLOAD CALLER PUSH1 0x1 PUSH1 0x1 PUSH1 0xA0 SHL SUB NOT DUP3 AND DUP2 OR DUP4 SSTORE PUSH1 0x40 MLOAD SWAP4 SWAP3 SWAP1 SWAP2 PUSH1 0x1 PUSH1 0x1 PUSH1 0xA0 SHL SUB AND SWAP1 PUSH32 0x8BE0079C531659141344CD1FD0A4F28419497F9722A3DAAFE3B4186F6B6457E0 SWAP1 DUP1 LOG3 PUSH1 0x1 DUP1 SSTORE PUSH2 0xA04 PUSH2 0xFFFF NOT PUSH1 0x3 SLOAD AND OR PUSH1 0x3 SSTORE ISZERO PUSH2 0xDA JUMPI POP PUSH1 0x80 MSTORE PUSH1 0x40 MLOAD PUSH2 0x2CE5 SWAP1 DUP2 PUSH2 0x13A DUP3 CODECOPY PUSH1 0x80 MLOAD DUP2 DUP2 DUP2 PUSH2 0x9A4 ADD MSTORE PUSH2 0xDE0 ADD MSTORE RETURN JUMPDEST PUSH3 0x461BCD PUSH1 0xE5 SHL DUP2 MSTORE PUSH1 0x20 PUSH1 0x4 DUP3 ADD MSTORE PUSH1 0x9 PUSH1 0x24 DUP3 ADD MSTORE PUSH9 0x696D706C207A65726F PUSH1 0xB8 SHL PUSH1 0x44 DUP3 ADD MSTORE PUSH1 0x64 SWAP1 REVERT JUMPDEST PUSH4 0x1E4FBDF7 PUSH1 0xE0 SHL PUSH1 0x0 MSTORE PUSH1 0x0 PUSH1 0x4 MSTORE PUSH1 0x24 PUSH1 0x0 REVERT JUMPDEST PUSH1 0x0 DUP1 REVERT JUMPDEST PUSH4 0x4E487B71 PUSH1 0xE0 SHL PUSH1 0x0 MSTORE PUSH1 0x41 PUSH1 0x4 MSTORE PUSH1 0x24 PUSH1 0x0 REVERT INVALID PUSH1 0x80 DUP1 PUSH1 0x40 MSTORE PUSH1 0x4 CALLDATASIZE LT ISZERO PUSH2 0x11 JUMPI JUMPDEST STOP JUMPDEST PUSH1 0x0 SWAP1 DUP2 CALLDATALOAD PUSH1 0xE0 SHR SWAP1 DUP2 PUSH4 0x814AB82 EQ PUSH2 0x2238 JUMPI POP DUP1 PUSH4 0xA6005DA EQ PUSH2 0x2214 JUMPI DUP1 PUSH4 0x155DD5EE EQ PUSH2 0x205E JUMPI DUP1 PUSH4 0x1E59D584 EQ PUSH2 0x1EFE JUMPI DUP1 PUSH4 0x20C5718F EQ PUSH2 0x1C95 JUMPI DUP1 PUSH4 0x21040FC3 EQ PUSH2 0x1B6D JUMPI DUP1 PUSH4 0x2C8FE526 EQ PUSH2 0x1B29 JUMPI DUP1 PUSH4 0x2E33B07F EQ PUSH2 0x727 JUMPI DUP1 PUSH4 0x3589CF72 EQ PUSH2 0x1B0B JUMPI DUP1 PUSH4 0x37012762 EQ PUSH2 0x1A2C JUMPI DUP1 PUSH4 0x3C213957 EQ PUSH2 0x182D JUMPI DUP1 PUSH4 0x42F1181E EQ PUSH2 0x173C JUMPI DUP1 PUSH4 0x5C5BB6F2 EQ PUSH2 0x171E JUMPI DUP1 PUSH4 0x63679723 EQ PUSH2 0x1700 JUMPI DUP1 PUSH4 0x6805036D EQ PUSH2 0x15AD JUMPI DUP1 PUSH4 0x6D8A1390 EQ PUSH2 0x1533 JUMPI DUP1 PUSH4 0x70712939 EQ PUSH2 0x1448 JUMPI DUP1 PUSH4 0x715018A6 EQ PUSH2 0x13EE JUMPI DUP1 PUSH4 0x7E9EAE50 EQ PUSH2 0x1308 JUMPI DUP1 PUSH4 0x83FBEA51 EQ PUSH2 0x12EA JUMPI DUP1 PUSH4 0x861A68D6 EQ PUSH2 0x12C9 JUMPI DUP1 PUSH4 0x8DA5CB5B EQ PUSH2 0x12A2 JUMPI DUP1 PUSH4 0x9804A586 EQ PUSH2 0x1258 JUMPI DUP1 PUSH4 0x9B159539 EQ PUSH2 0xD3C JUMPI DUP1 PUSH4 0xA9BEA789 EQ PUSH2 0xBC8 JUMPI DUP1 PUSH4 0xAA1F0595 EQ PUSH2 0xB86 JUMPI DUP1 PUSH4 0xB6202913 EQ PUSH2 0xA15 JUMPI DUP1 PUSH4 0xB9181611 EQ PUSH2 0x9D3 JUMPI DUP1 PUSH4 0xBD487725 EQ PUSH2 0x98E JUMPI DUP1 PUSH4 0xC17F9E59 EQ PUSH2 0x75A JUMPI DUP1 PUSH4 0xC416AD2A EQ PUSH2 0x727 JUMPI DUP1 PUSH4 0xC892FDE3 EQ PUSH2 0x709 JUMPI DUP1 PUSH4 0xCBF2080D EQ PUSH2 0x572 JUMPI DUP1 PUSH4 0xD3050EBA EQ PUSH2 0x554 JUMPI DUP1 PUSH4 0xD41ECA64 EQ PUSH2 0x4A6 JUMPI DUP1 PUSH4 0xD8D6E8FF EQ PUSH2 0x41F JUMPI DUP1 PUSH4 0xDF4DB463 EQ PUSH2 0x398 JUMPI DUP1 PUSH4 0xEFF0AB92 EQ PUSH2 0x28B JUMPI DUP1 PUSH4 0xF2FDE38B EQ PUSH2 0x234 JUMPI PUSH4 0xFB4CDEA7 SUB PUSH2 0xF JUMPI CALLVALUE PUSH2 0x231 JUMPI PUSH1 0x20 CALLDATASIZE PUSH1 0x3 NOT ADD SLT PUSH2 0x231 JUMPI PUSH1 0x4 CALLDATALOAD PUSH1 0x1 PUSH1 0x1 PUSH1 0xA0 SHL SUB DUP2 AND SWAP1 DUP2 SWAP1 SUB PUSH2 0x22F JUMPI DUP2 MSTORE PUSH1 0xB PUSH1 0x20 SWAP1 DUP2 MSTORE PUSH1 0x40 SWAP2 DUP3 SWAP1 KECCAK256 DUP1 SLOAD PUSH1 0x1 SWAP1 SWAP2 ADD SLOAD DUP4 MLOAD PUSH1 0x1 PUSH1 0x1 PUSH1 0xA0 SHL SUB SWAP1 SWAP3 AND DUP3 MSTORE SWAP2 DUP2 ADD SWAP2 SWAP1 SWAP2 MSTORE SWAP1 DUP2 SWAP1 DUP2 ADD JUMPDEST SUB SWAP1 RETURN JUMPDEST POP JUMPDEST DUP1 REVERT JUMPDEST POP CALLVALUE PUSH2 0x231 JUMPI PUSH1 0x20 CALLDATASIZE PUSH1 0x3 NOT ADD SLT PUSH2 0x231 JUMPI PUSH1 0x4 CALLDATALOAD PUSH1 0x1 PUSH1 0x1 PUSH1 0xA0 SHL SUB DUP2 AND DUP1 DUP3 SUB PUSH2 0x287 JUMPI PUSH2 0x262 PUSH2 0x2C3F JUMP JUMPDEST ISZERO PUSH2 0x273 JUMPI PUSH2 0x270 SWAP1 PUSH2 0x2C68 JUMP JUMPDEST DUP1 RETURN JUMPDEST PUSH4 0x1E4FBDF7 PUSH1 0xE0 SHL DUP3 MSTORE PUSH1 0x4 DUP3 SWAP1 MSTORE PUSH1 0x24 DUP3 REVERT JUMPDEST DUP3 DUP1 REVERT JUMPDEST POP CALLVALUE PUSH2 0x231 JUMPI PUSH1 0x20 CALLDATASIZE PUSH1 0x3 NOT ADD SLT PUSH2 0x231 JUMPI PUSH1 0x4 CALLDATALOAD PUSH1 0x1 PUSH1 0x1 PUSH1 0xA0 SHL SUB DUP2 AND SWAP1 DUP2 SWAP1 SUB PUSH2 0x22F JUMPI DUP2 MSTORE PUSH1 0xD PUSH1 0x20 MSTORE PUSH1 0x40 DUP2 KECCAK256 DUP1 SLOAD DUP3 SWAP2 DUP3 JUMPDEST DUP3 DUP2 LT PUSH2 0x313 JUMPI POP POP POP DUP2 PUSH2 0x2DF JUMPI PUSH1 0x20 SWAP2 POP JUMPDEST PUSH1 0x40 MLOAD SWAP1 DUP2 MSTORE RETURN JUMPDEST PUSH3 0x93A80 DUP3 ADD DUP1 SWAP3 GT PUSH2 0x2FF JUMPI POP PUSH2 0x2FA PUSH1 0x20 SWAP2 TIMESTAMP SWAP1 PUSH2 0x2753 JUMP JUMPDEST PUSH2 0x2D7 JUMP JUMPDEST PUSH4 0x4E487B71 PUSH1 0xE0 SHL DUP2 MSTORE PUSH1 0x11 PUSH1 0x4 MSTORE PUSH1 0x24 SWAP1 REVERT JUMPDEST PUSH2 0x31D DUP2 DUP4 PUSH2 0x236C JUMP JUMPDEST SWAP1 SLOAD SWAP1 PUSH1 0x3 SHL SHR PUSH3 0x93A80 DUP2 ADD DUP1 SWAP2 GT PUSH2 0x384 JUMPI TIMESTAMP LT PUSH2 0x340 JUMPI JUMPDEST PUSH1 0x1 ADD PUSH2 0x2C3 JUMP JUMPDEST DUP5 ISZERO DUP1 ISZERO PUSH2 0x36B JUMPI JUMPDEST ISZERO PUSH2 0x338 JUMPI SWAP4 POP PUSH1 0x1 PUSH2 0x35C DUP6 DUP4 PUSH2 0x236C JUMP JUMPDEST SWAP1 SLOAD SWAP1 PUSH1 0x3 SHL SHR SWAP5 SWAP1 POP PUSH2 0x338 JUMP JUMPDEST POP DUP5 PUSH2 0x377 DUP3 DUP5 PUSH2 0x236C JUMP JUMPDEST SWAP1 SLOAD SWAP1 PUSH1 0x3 SHL SHR LT PUSH2 0x349 JUMP JUMPDEST PUSH4 0x4E487B71 PUSH1 0xE0 SHL DUP6 MSTORE PUSH1 0x11 PUSH1 0x4 MSTORE PUSH1 0x24 DUP6 REVERT JUMPDEST POP CALLVALUE PUSH2 0x231 JUMPI DUP1 PUSH1 0x3 NOT CALLDATASIZE ADD SLT PUSH2 0x231 JUMPI PUSH1 0xE0 SWAP1 DUP2 PUSH1 0x40 MLOAD PUSH2 0x3BA DUP3 DUP3 PUSH2 0x2447 JUMP JUMPDEST CALLDATASIZE SWAP1 CALLDATACOPY PUSH1 0x40 MLOAD SWAP1 PUSH2 0x3CB DUP4 DUP4 PUSH2 0x2447 JUMP JUMPDEST DUP3 CALLDATASIZE DUP4 CALLDATACOPY DUP1 JUMPDEST PUSH1 0x7 DUP2 LT ISZERO PUSH2 0x3F4 JUMPI PUSH1 0x1 SWAP1 PUSH2 0x3E6 DUP2 PUSH2 0x2384 JUMP JUMPDEST SLOAD DUP2 PUSH1 0x5 SHL DUP6 ADD MSTORE ADD PUSH2 0x3D1 JUMP JUMPDEST POP PUSH1 0x40 MLOAD SWAP2 SWAP1 DUP3 JUMPDEST PUSH1 0x7 DUP3 LT PUSH2 0x409 JUMPI POP POP POP RETURN JUMPDEST PUSH1 0x20 DUP1 PUSH1 0x1 SWAP3 DUP6 MLOAD DUP2 MSTORE ADD SWAP4 ADD SWAP2 ADD SWAP1 SWAP2 PUSH2 0x3FC JUMP JUMPDEST POP CALLVALUE PUSH2 0x231 JUMPI PUSH1 0x20 CALLDATASIZE PUSH1 0x3 NOT ADD SLT PUSH2 0x231 JUMPI PUSH1 0x4 CALLDATALOAD PUSH1 0x8 DUP2 LT ISZERO PUSH2 0x22F JUMPI CALLER DUP3 MSTORE PUSH1 0x9 PUSH1 0x20 MSTORE PUSH2 0x455 PUSH1 0xFF PUSH1 0x40 DUP5 KECCAK256 SLOAD AND PUSH2 0x2BB2 JUMP JUMPDEST CALLER DUP3 MSTORE PUSH1 0xA PUSH1 0x20 MSTORE PUSH1 0x40 DUP3 KECCAK256 PUSH1 0xFF NOT DUP2 SLOAD AND PUSH1 0xFF DUP4 AND OR SWAP1 SSTORE PUSH1 0x6 DUP2 EQ PUSH1 0x0 EQ PUSH2 0x48B JUMPI POP PUSH2 0x485 PUSH1 0x6 SLOAD PUSH2 0x2469 JUMP JUMPDEST PUSH1 0x6 SSTORE DUP1 RETURN JUMPDEST PUSH1 0x7 EQ PUSH2 0x495 JUMPI DUP1 RETURN JUMPDEST PUSH2 0x4A0 PUSH1 0x7 SLOAD PUSH2 0x2469 JUMP JUMPDEST PUSH1 0x7 SSTORE DUP1 RETURN JUMPDEST POP CALLVALUE PUSH2 0x231 JUMPI PUSH1 0x40 CALLDATASIZE PUSH1 0x3 NOT ADD SLT PUSH2 0x231 JUMPI PUSH1 0x4 CALLDATALOAD PUSH1 0xFF DUP2 AND DUP1 SWAP2 SUB PUSH2 0x22F JUMPI PUSH1 0x24 CALLDATALOAD PUSH1 0xFF DUP2 AND SWAP2 DUP3 DUP3 SUB PUSH2 0x550 JUMPI PUSH32 0x321994B8855AE38E4FD6162F7A0BD7CDE88BE83AA3ACC96E03C17B7F733B43E1 SWAP3 PUSH1 0x40 SWAP3 PUSH1 0x1 DUP1 PUSH1 0xA0 SHL SUB DUP7 SLOAD AND CALLER EQ DUP1 ISZERO PUSH2 0x53B JUMPI JUMPDEST PUSH2 0x516 SWAP1 PUSH2 0x239D JUMP JUMPDEST DUP3 PUSH2 0xFF00 PUSH1 0x3 SLOAD SWAP3 PUSH1 0x8 SHL AND SWAP2 PUSH2 0xFFFF NOT AND OR OR PUSH1 0x3 SSTORE DUP3 MLOAD SWAP2 DUP3 MSTORE PUSH1 0x20 DUP3 ADD MSTORE LOG1 DUP1 RETURN JUMPDEST POP CALLER DUP7 MSTORE PUSH1 0x8 PUSH1 0x20 MSTORE DUP4 DUP7 KECCAK256 SLOAD PUSH1 0xFF AND PUSH2 0x50D JUMP JUMPDEST DUP4 DUP1 REVERT JUMPDEST POP CALLVALUE PUSH2 0x231 JUMPI DUP1 PUSH1 0x3 NOT CALLDATASIZE ADD SLT PUSH2 0x231 JUMPI PUSH1 0x20 PUSH1 0x40 MLOAD PUSH3 0x15180 DUP2 MSTORE RETURN JUMPDEST POP CALLVALUE PUSH2 0x231 JUMPI PUSH1 0x20 CALLDATASIZE PUSH1 0x3 NOT ADD SLT PUSH2 0x231 JUMPI PUSH1 0x4 CALLDATALOAD PUSH1 0x1 PUSH1 0x1 PUSH1 0xA0 SHL SUB DUP2 AND SWAP1 DUP2 SWAP1 SUB PUSH2 0x22F JUMPI DUP2 MSTORE PUSH1 0xD PUSH1 0x20 MSTORE PUSH1 0x40 DUP2 KECCAK256 DUP2 SWAP1 DUP3 SWAP1 DUP4 DUP1 SWAP2 DUP2 SWAP1 DUP1 SLOAD SWAP2 JUMPDEST DUP3 DUP2 LT PUSH2 0x65E JUMPI POP POP POP PUSH1 0x3 SLOAD SWAP5 DUP1 ISZERO PUSH1 0x0 EQ PUSH2 0x62C JUMPI POP DUP1 SWAP2 JUMPDEST DUP1 PUSH2 0x606 JUMPI POP PUSH1 0xC0 SWAP5 PUSH1 0xFF DUP1 SWAP3 SWAP5 JUMPDEST DUP2 PUSH1 0x40 MLOAD SWAP8 AND DUP8 MSTORE DUP2 DUP4 AND PUSH1 0x20 DUP9 ADD MSTORE AND PUSH1 0x40 DUP7 ADD MSTORE PUSH1 0x8 SHR AND PUSH1 0x60 DUP5 ADD MSTORE PUSH1 0x80 DUP4 ADD MSTORE PUSH1 0xA0 DUP3 ADD MSTORE RETURN JUMPDEST SWAP1 PUSH3 0x278D00 DUP3 ADD DUP1 SWAP3 GT PUSH2 0x2FF JUMPI POP PUSH1 0xC0 SWAP5 PUSH1 0xFF PUSH2 0x626 DUP2 SWAP4 TIMESTAMP SWAP1 PUSH2 0x2753 JUMP JUMPDEST SWAP5 PUSH2 0x5DB JUMP JUMPDEST PUSH3 0x93A80 DUP2 ADD DUP1 SWAP2 GT PUSH2 0x64A JUMPI PUSH2 0x644 SWAP1 TIMESTAMP SWAP1 PUSH2 0x2753 JUMP JUMPDEST SWAP2 PUSH2 0x5CC JUMP JUMPDEST PUSH4 0x4E487B71 PUSH1 0xE0 SHL DUP3 MSTORE PUSH1 0x11 PUSH1 0x4 MSTORE PUSH1 0x24 DUP3 REVERT JUMPDEST PUSH2 0x668 DUP2 DUP4 PUSH2 0x236C JUMP JUMPDEST SWAP1 SLOAD SWAP1 PUSH1 0x3 SHL SHR PUSH3 0x278D00 DUP2 ADD DUP1 DUP3 GT PUSH2 0x6E4 JUMPI TIMESTAMP LT PUSH2 0x68C JUMPI JUMPDEST POP PUSH1 0x1 ADD PUSH2 0x5B1 JUMP JUMPDEST SWAP6 PUSH2 0x696 SWAP1 PUSH2 0x2469 JUMP JUMPDEST SWAP6 DUP6 ISZERO DUP1 ISZERO PUSH2 0x700 JUMPI JUMPDEST PUSH2 0x6F8 JUMPI JUMPDEST PUSH3 0x93A80 DUP2 ADD DUP1 DUP3 GT PUSH2 0x6E4 JUMPI TIMESTAMP LT ISZERO PUSH2 0x683 JUMPI SWAP7 PUSH2 0x6C3 SWAP1 PUSH2 0x2469 JUMP JUMPDEST SWAP7 DUP9 ISZERO DUP1 ISZERO PUSH2 0x6DB JUMPI JUMPDEST ISZERO PUSH2 0x683 JUMPI SWAP8 POP PUSH1 0x1 PUSH2 0x683 JUMP JUMPDEST POP DUP9 DUP2 LT PUSH2 0x6CD JUMP JUMPDEST PUSH4 0x4E487B71 PUSH1 0xE0 SHL DUP7 MSTORE PUSH1 0x11 PUSH1 0x4 MSTORE PUSH1 0x24 DUP7 REVERT JUMPDEST SWAP5 POP DUP5 PUSH2 0x6A5 JUMP JUMPDEST POP DUP6 DUP2 LT PUSH2 0x6A0 JUMP JUMPDEST POP CALLVALUE PUSH2 0x231 JUMPI DUP1 PUSH1 0x3 NOT CALLDATASIZE ADD SLT PUSH2 0x231 JUMPI PUSH1 0x20 PUSH1 0x6 SLOAD PUSH1 0x40 MLOAD SWAP1 DUP2 MSTORE RETURN JUMPDEST POP CALLVALUE PUSH2 0x231 JUMPI PUSH1 0x20 CALLDATASIZE PUSH1 0x3 NOT ADD SLT PUSH2 0x231 JUMPI PUSH1 0x4 CALLDATALOAD SWAP1 PUSH1 0x7 DUP3 LT ISZERO PUSH2 0x231 JUMPI PUSH1 0x20 PUSH2 0x751 DUP4 PUSH2 0x2384 JUMP JUMPDEST SLOAD PUSH1 0x40 MLOAD SWAP1 DUP2 MSTORE RETURN JUMPDEST POP CALLVALUE PUSH2 0x231 JUMPI PUSH1 0x20 CALLDATASIZE PUSH1 0x3 NOT ADD SLT PUSH2 0x231 JUMPI PUSH1 0x4 CALLDATALOAD PUSH1 0x1 PUSH1 0x1 PUSH1 0xA0 SHL SUB DUP2 AND SWAP1 DUP2 SWAP1 SUB PUSH2 0x22F JUMPI CALLER DUP3 MSTORE PUSH1 0xA PUSH1 0x20 MSTORE PUSH1 0xFF PUSH1 0x40 DUP4 KECCAK256 SLOAD AND PUSH1 0x8 DUP2 LT ISZERO PUSH2 0x97A JUMPI PUSH1 0x1 SUB PUSH2 0x944 JUMPI PUSH3 0x278CFF NOT TIMESTAMP ADD SWAP1 TIMESTAMP DUP3 GT PUSH2 0x930 JUMPI DUP1 DUP4 MSTORE PUSH1 0xD PUSH1 0x20 MSTORE PUSH1 0x40 DUP4 KECCAK256 DUP1 SLOAD SWAP3 DUP5 JUMPDEST DUP5 DUP2 LT DUP1 PUSH2 0x917 JUMPI JUMPDEST ISZERO PUSH2 0x7DD JUMPI PUSH2 0x7D8 SWAP1 PUSH2 0x2469 JUMP JUMPDEST PUSH2 0x7C1 JUMP JUMPDEST DUP4 DUP4 DUP8 SWAP3 DUP1 PUSH2 0x863 JUMPI JUMPDEST POP DUP1 SLOAD SWAP1 PUSH1 0x1 PUSH1 0x40 SHL DUP3 LT ISZERO PUSH2 0x84F JUMPI DUP2 PUSH2 0x80A SWAP2 PUSH1 0x1 PUSH2 0x822 SWAP5 ADD DUP2 SSTORE PUSH2 0x236C JUMP JUMPDEST TIMESTAMP SWAP1 DUP3 SLOAD SWAP1 PUSH1 0x3 SHL SWAP2 DUP3 SHL SWAP2 PUSH1 0x0 NOT SWAP1 SHL NOT AND OR SWAP1 SSTORE JUMP JUMPDEST PUSH32 0x498F5E6DCF570483A1848853791046A7F10012193176D71F959F46EB7713D744 PUSH1 0x20 PUSH1 0x40 MLOAD TIMESTAMP DUP2 MSTORE LOG2 DUP1 RETURN JUMPDEST PUSH4 0x4E487B71 PUSH1 0xE0 SHL DUP5 MSTORE PUSH1 0x41 PUSH1 0x4 MSTORE PUSH1 0x24 DUP5 REVERT JUMPDEST SWAP3 DUP1 JUMPDEST PUSH2 0x871 DUP6 DUP5 SLOAD PUSH2 0x2753 JUMP JUMPDEST DUP2 LT ISZERO PUSH2 0x8C1 JUMPI DUP1 PUSH2 0x8BB PUSH2 0x891 PUSH2 0x88B DUP9 PUSH1 0x1 SWAP6 PUSH2 0x2746 JUMP JUMPDEST DUP7 PUSH2 0x236C JUMP JUMPDEST SWAP1 SLOAD SWAP1 PUSH1 0x3 SHL SHR PUSH2 0x8A2 DUP4 DUP8 PUSH2 0x236C JUMP JUMPDEST SWAP1 SWAP2 SWAP1 DUP3 SLOAD SWAP1 PUSH1 0x3 SHL SWAP2 DUP3 SHL SWAP2 PUSH1 0x0 NOT SWAP1 SHL NOT AND OR SWAP1 SSTORE JUMP JUMPDEST ADD PUSH2 0x866 JUMP JUMPDEST POP SWAP3 DUP4 JUMPDEST DUP2 DUP2 LT PUSH2 0x8D2 JUMPI POP PUSH2 0x7E7 JUMP JUMPDEST DUP3 SLOAD DUP1 ISZERO PUSH2 0x903 JUMPI PUSH1 0x1 SWAP2 SWAP1 PUSH1 0x0 NOT ADD PUSH2 0x8EC DUP2 DUP7 PUSH2 0x236C JUMP JUMPDEST DUP2 SLOAD SWAP1 PUSH1 0x0 NOT SWAP1 PUSH1 0x3 SHL SHL NOT AND SWAP1 SSTORE DUP5 SSTORE ADD PUSH2 0x8C5 JUMP JUMPDEST PUSH4 0x4E487B71 PUSH1 0xE0 SHL DUP7 MSTORE PUSH1 0x31 PUSH1 0x4 MSTORE PUSH1 0x24 DUP7 REVERT JUMPDEST POP DUP2 PUSH2 0x923 DUP3 DUP6 PUSH2 0x236C JUMP JUMPDEST SWAP1 SLOAD SWAP1 PUSH1 0x3 SHL SHR LT PUSH2 0x7CA JUMP JUMPDEST PUSH4 0x4E487B71 PUSH1 0xE0 SHL DUP4 MSTORE PUSH1 0x11 PUSH1 0x4 MSTORE PUSH1 0x24 DUP4 REVERT JUMPDEST PUSH1 0x40 MLOAD PUSH3 0x461BCD PUSH1 0xE5 SHL DUP2 MSTORE PUSH1 0x20 PUSH1 0x4 DUP3 ADD MSTORE PUSH1 0xE PUSH1 0x24 DUP3 ADD MSTORE PUSH14 0x24B73B30B634B21031B0B63632B9 PUSH1 0x91 SHL PUSH1 0x44 DUP3 ADD MSTORE PUSH1 0x64 SWAP1 REVERT JUMPDEST PUSH4 0x4E487B71 PUSH1 0xE0 SHL DUP4 MSTORE PUSH1 0x21 PUSH1 0x4 MSTORE PUSH1 0x24 DUP4 REVERT JUMPDEST POP CALLVALUE PUSH2 0x231 JUMPI DUP1 PUSH1 0x3 NOT CALLDATASIZE ADD SLT PUSH2 0x231 JUMPI PUSH1 0x40 MLOAD PUSH32 0x0 PUSH1 0x1 PUSH1 0x1 PUSH1 0xA0 SHL SUB AND DUP2 MSTORE PUSH1 0x20 SWAP1 RETURN JUMPDEST POP CALLVALUE PUSH2 0x231 JUMPI PUSH1 0x20 CALLDATASIZE PUSH1 0x3 NOT ADD SLT PUSH2 0x231 JUMPI PUSH1 0x4 CALLDATALOAD PUSH1 0x1 PUSH1 0x1 PUSH1 0xA0 SHL SUB DUP2 AND SWAP1 DUP2 SWAP1 SUB PUSH2 0x22F JUMPI PUSH1 0x40 DUP3 PUSH1 0xFF SWAP3 PUSH1 0x20 SWAP5 MSTORE PUSH1 0x8 DUP5 MSTORE KECCAK256 SLOAD AND PUSH1 0x40 MLOAD SWAP1 ISZERO ISZERO DUP2 MSTORE RETURN JUMPDEST POP CALLVALUE PUSH2 0x231 JUMPI DUP1 PUSH1 0x3 NOT CALLDATASIZE ADD SLT PUSH2 0x231 JUMPI PUSH1 0x2 SLOAD SWAP1 DUP1 DUP1 JUMPDEST DUP4 DUP2 LT PUSH2 0xB1A JUMPI POP PUSH2 0xA47 PUSH2 0xA41 DUP4 PUSH2 0x24A6 JUMP JUMPDEST SWAP3 PUSH2 0x24A6 JUMP JUMPDEST SWAP3 DUP2 DUP1 JUMPDEST DUP3 DUP2 LT PUSH2 0xA61 JUMPI PUSH1 0x40 MLOAD DUP1 PUSH2 0x22B DUP9 DUP9 DUP4 PUSH2 0x22DC JUMP JUMPDEST PUSH2 0xA6A DUP2 PUSH2 0x233B JUMP JUMPDEST SWAP1 SLOAD PUSH1 0x3 SWAP2 SWAP1 SWAP2 SHL SHR PUSH1 0x1 PUSH1 0x1 PUSH1 0xA0 SHL SUB AND DUP3 MSTORE PUSH1 0xA PUSH1 0x20 MSTORE PUSH1 0x40 DUP3 KECCAK256 SLOAD PUSH1 0xFF AND PUSH1 0x8 DUP2 LT ISZERO DUP1 PUSH2 0xB06 JUMPI PUSH1 0x6 DUP3 EQ DUP1 ISZERO PUSH2 0xAFA JUMPI JUMPDEST PUSH2 0xAAF JUMPI JUMPDEST POP POP PUSH1 0x1 ADD PUSH2 0xA4B JUMP JUMPDEST PUSH2 0xABA DUP4 SWAP7 SWAP4 PUSH2 0x233B JUMP JUMPDEST SWAP1 SLOAD PUSH1 0x3 SWAP2 SWAP1 SWAP2 SHL SHR PUSH1 0x1 PUSH1 0x1 PUSH1 0xA0 SHL SUB AND PUSH2 0xAD6 DUP5 DUP10 PUSH2 0x24D8 JUMP JUMPDEST MSTORE PUSH2 0x97A JUMPI DUP2 PUSH2 0xAF2 SWAP2 PUSH2 0xAEC PUSH1 0x1 SWAP5 DUP11 PUSH2 0x24D8 JUMP JUMPDEST MSTORE PUSH2 0x2469 JUMP JUMPDEST SWAP4 SWAP1 CODESIZE PUSH2 0xAA5 JUMP JUMPDEST POP POP DUP3 PUSH1 0x7 DUP3 EQ PUSH2 0xAA0 JUMP JUMPDEST PUSH4 0x4E487B71 PUSH1 0xE0 SHL DUP5 MSTORE PUSH1 0x21 PUSH1 0x4 MSTORE PUSH1 0x24 DUP5 REVERT JUMPDEST PUSH2 0xB23 DUP2 PUSH2 0x233B JUMP JUMPDEST SWAP1 SLOAD PUSH1 0x3 SWAP2 SWAP1 SWAP2 SHL SHR PUSH1 0x1 PUSH1 0x1 PUSH1 0xA0 SHL SUB AND DUP3 MSTORE PUSH1 0xA PUSH1 0x20 MSTORE PUSH1 0x40 DUP3 KECCAK256 SLOAD PUSH1 0xFF AND PUSH1 0x8 DUP2 LT ISZERO PUSH2 0x97A JUMPI PUSH1 0x6 DUP2 EQ SWAP1 DUP2 ISZERO PUSH2 0xB7B JUMPI JUMPDEST POP PUSH2 0xB67 JUMPI JUMPDEST PUSH1 0x1 ADD PUSH2 0xA2D JUMP JUMPDEST SWAP2 PUSH2 0xB73 PUSH1 0x1 SWAP2 PUSH2 0x2469 JUMP JUMPDEST SWAP3 SWAP1 POP PUSH2 0xB5F JUMP JUMPDEST PUSH1 0x7 SWAP2 POP EQ CODESIZE PUSH2 0xB59 JUMP JUMPDEST POP CALLVALUE PUSH2 0x231 JUMPI PUSH1 0x20 CALLDATASIZE PUSH1 0x3 NOT ADD SLT PUSH2 0x231 JUMPI PUSH1 0x4 CALLDATALOAD PUSH1 0x1 PUSH1 0x1 PUSH1 0xA0 SHL SUB DUP2 AND SWAP1 DUP2 SWAP1 SUB PUSH2 0x22F JUMPI PUSH1 0x40 DUP3 PUSH1 0xFF SWAP3 PUSH1 0x20 SWAP5 MSTORE PUSH1 0x9 DUP5 MSTORE KECCAK256 SLOAD AND PUSH1 0x40 MLOAD SWAP1 ISZERO ISZERO DUP2 MSTORE RETURN JUMPDEST POP PUSH1 0x20 CALLDATASIZE PUSH1 0x3 NOT ADD SLT PUSH2 0x231 JUMPI PUSH1 0x4 CALLDATALOAD PUSH1 0x7 DUP2 LT ISZERO PUSH2 0x22F JUMPI CALLER DUP3 MSTORE PUSH1 0x9 PUSH1 0x20 MSTORE PUSH2 0xBF9 PUSH1 0xFF PUSH1 0x40 DUP5 KECCAK256 SLOAD AND PUSH2 0x2BB2 JUMP JUMPDEST PUSH2 0xC01 PUSH2 0x2C1D JUMP JUMPDEST CALLVALUE ISZERO PUSH2 0xCF8 JUMPI CALLER DUP3 MSTORE PUSH1 0xA PUSH1 0x20 MSTORE PUSH1 0xFF PUSH1 0x40 DUP4 KECCAK256 SLOAD AND PUSH1 0x8 DUP2 LT ISZERO PUSH2 0x97A JUMPI PUSH1 0x6 EQ DUP1 ISZERO PUSH2 0xCD6 JUMPI JUMPDEST ISZERO PUSH2 0xC9A JUMPI PUSH2 0xC38 DUP2 PUSH2 0x2384 JUMP JUMPDEST PUSH2 0xC43 CALLVALUE DUP3 SLOAD PUSH2 0x2746 JUMP JUMPDEST SWAP1 SSTORE PUSH2 0xC51 CALLVALUE PUSH1 0x4 SLOAD PUSH2 0x2746 JUMP JUMPDEST PUSH1 0x4 SSTORE PUSH2 0xC63 PUSH1 0x3 CALLVALUE DIV PUSH1 0x5 SLOAD PUSH2 0x2746 JUMP JUMPDEST PUSH1 0x5 SSTORE PUSH1 0x40 MLOAD SWAP1 CALLVALUE DUP3 MSTORE PUSH32 0x606617FD09D9890413E3C46147B844D4562351F86E0F7A5C60849BBF0EF02811 PUSH1 0x20 CALLER SWAP4 LOG3 PUSH1 0x1 DUP1 SSTORE DUP1 RETURN JUMPDEST PUSH1 0x40 MLOAD PUSH3 0x461BCD PUSH1 0xE5 SHL DUP2 MSTORE PUSH1 0x20 PUSH1 0x4 DUP3 ADD MSTORE PUSH1 0x14 PUSH1 0x24 DUP3 ADD MSTORE PUSH20 0x21B0B63632B9103737BA10309036B4B9B9B4B7B7 PUSH1 0x61 SHL PUSH1 0x44 DUP3 ADD MSTORE PUSH1 0x64 SWAP1 REVERT JUMPDEST POP CALLER DUP3 MSTORE PUSH1 0xA PUSH1 0x20 MSTORE PUSH1 0xFF PUSH1 0x40 DUP4 KECCAK256 SLOAD AND PUSH1 0x8 DUP2 LT ISZERO PUSH2 0x97A JUMPI PUSH1 0x7 EQ PUSH2 0xC2A JUMP JUMPDEST PUSH1 0x64 PUSH1 0x40 MLOAD PUSH3 0x461BCD PUSH1 0xE5 SHL DUP2 MSTORE PUSH1 0x20 PUSH1 0x4 DUP3 ADD MSTORE PUSH1 0x20 PUSH1 0x24 DUP3 ADD MSTORE PUSH32 0x416D6F756E74206D7573742062652067726561746572207468616E207A65726F PUSH1 0x44 DUP3 ADD MSTORE REVERT JUMPDEST POP PUSH2 0x120 CALLDATASIZE PUSH1 0x3 NOT ADD SLT PUSH2 0x231 JUMPI PUSH1 0x4 CALLDATALOAD PUSH1 0x7 DUP2 LT ISZERO PUSH2 0x22F JUMPI PUSH1 0x24 CALLDATALOAD SWAP1 PUSH1 0x44 CALLDATALOAD SWAP2 PUSH1 0x64 CALLDATALOAD PUSH1 0x84 CALLDATALOAD PUSH1 0xFF DUP2 AND DUP1 SWAP2 SUB PUSH2 0x1254 JUMPI PUSH1 0xA4 CALLDATALOAD PUSH1 0xFF DUP2 AND DUP1 SWAP2 SUB PUSH2 0x1250 JUMPI PUSH1 0xC4 CALLDATALOAD SWAP1 PUSH1 0xE4 CALLDATALOAD SWAP3 PUSH2 0x104 CALLDATALOAD SWAP5 PUSH1 0xFF DUP7 AND DUP1 SWAP7 SUB PUSH2 0x124C JUMPI DUP10 SLOAD PUSH1 0x1 PUSH1 0x1 PUSH1 0xA0 SHL SUB AND CALLER EQ DUP1 ISZERO PUSH2 0x1236 JUMPI JUMPDEST PUSH2 0xDB2 SWAP1 PUSH2 0x239D JUMP JUMPDEST PUSH1 0x5 DUP7 LT PUSH2 0x11D7 JUMPI DUP6 DUP3 LT PUSH2 0x116C JUMPI DUP9 DUP8 LT ISZERO PUSH2 0x111B JUMPI DUP9 DUP5 LT PUSH2 0x10BD JUMPI DUP4 DUP6 GT ISZERO PUSH2 0x1079 JUMPI DUP1 ISZERO PUSH2 0x1020 JUMPI PUSH32 0x0 PUSH1 0x88 DUP2 SWAP1 SHR PUSH3 0xFFFFFF AND PUSH23 0x3D602D80600A3D3981F3363D3D373D3D3D363D73000000 OR DUP12 MSTORE PUSH1 0x78 SHL PUSH15 0x5AF43D82803E903D91602B57FD5BF3 OR PUSH1 0x20 MSTORE PUSH1 0x1 PUSH1 0x1 PUSH1 0xA0 SHL SUB PUSH1 0x37 PUSH1 0x9 DUP13 CREATE AND SWAP9 DUP10 ISZERO PUSH2 0x1011 JUMPI DUP10 DUP12 MSTORE PUSH1 0x9 PUSH1 0x20 MSTORE PUSH1 0x40 DUP12 KECCAK256 PUSH1 0x1 PUSH1 0xFF NOT DUP3 SLOAD AND OR SWAP1 SSTORE DUP10 DUP12 MSTORE PUSH1 0xA PUSH1 0x20 MSTORE PUSH1 0x40 DUP12 KECCAK256 PUSH1 0xFF NOT DUP2 SLOAD AND SWAP1 SSTORE PUSH1 0x1 DUP1 PUSH1 0xA0 SHL SUB DUP12 SLOAD AND SWAP8 DUP11 EXTCODESIZE ISZERO PUSH2 0x100D JUMPI PUSH1 0x40 MLOAD SWAP9 PUSH4 0xC54168B3 PUSH1 0xE0 SHL DUP11 MSTORE PUSH1 0x4 DUP11 ADD MSTORE ADDRESS PUSH1 0x24 DUP11 ADD MSTORE PUSH2 0xEB4 PUSH1 0x44 DUP11 ADD DUP12 PUSH2 0x232E JUMP JUMPDEST PUSH1 0x64 DUP10 ADD MSTORE PUSH1 0x84 DUP9 ADD MSTORE PUSH1 0xA4 DUP8 ADD MSTORE PUSH1 0xC4 DUP7 ADD MSTORE PUSH1 0xE4 DUP6 ADD MSTORE PUSH2 0x104 DUP5 ADD MSTORE PUSH2 0x124 DUP4 ADD MSTORE PUSH2 0x144 DUP3 ADD MSTORE DUP4 DUP2 PUSH2 0x164 DUP2 CALLVALUE DUP8 GAS CALL DUP1 ISZERO PUSH2 0x1002 JUMPI PUSH2 0xFEE JUMPI JUMPDEST POP PUSH1 0x2 SLOAD PUSH1 0x1 PUSH1 0x40 SHL DUP2 LT ISZERO PUSH2 0x84F JUMPI DUP1 PUSH1 0x1 PUSH2 0xF14 SWAP3 ADD PUSH1 0x2 SSTORE PUSH2 0x233B JUMP JUMPDEST DUP2 SLOAD PUSH1 0x1 PUSH1 0x1 PUSH1 0xA0 SHL SUB PUSH1 0x3 SWAP3 SWAP1 SWAP3 SHL SWAP2 DUP3 SHL NOT AND SWAP1 DUP5 SWAP1 SHL OR SWAP1 SSTORE DUP1 DUP3 PUSH32 0xAC1AC89285BF936F515AAFCF6808B3E062E77FD57F52C8892D20FC9409B8B53 DUP6 DUP1 LOG3 PUSH2 0xF5F DUP2 PUSH2 0x2384 JUMP JUMPDEST SLOAD PUSH1 0x2 SHR SWAP1 DUP2 ISZERO ISZERO DUP1 PUSH2 0xFE4 JUMPI JUMPDEST PUSH2 0xF7D JUMPI JUMPDEST PUSH1 0x20 DUP4 PUSH1 0x40 MLOAD SWAP1 DUP2 MSTORE RETURN JUMPDEST PUSH2 0xF86 SWAP1 PUSH2 0x2384 JUMP JUMPDEST PUSH2 0xF91 DUP3 DUP3 SLOAD PUSH2 0x2753 JUMP JUMPDEST SWAP1 SSTORE DUP3 DUP3 EXTCODESIZE ISZERO PUSH2 0x231 JUMPI PUSH1 0x40 MLOAD PUSH4 0xEB2BAB77 PUSH1 0xE0 SHL DUP2 MSTORE SWAP2 DUP3 SWAP1 PUSH1 0x4 SWAP1 DUP3 SWAP1 DUP7 GAS CALL DUP1 ISZERO PUSH2 0xFD9 JUMPI PUSH2 0xFC4 JUMPI JUMPDEST DUP1 PUSH2 0xF72 JUMP JUMPDEST PUSH2 0xFCF DUP4 DUP1 SWAP3 PUSH2 0x2447 JUMP JUMPDEST PUSH2 0x22F JUMPI DUP2 PUSH2 0xFBE JUMP JUMPDEST PUSH1 0x40 MLOAD RETURNDATASIZE DUP6 DUP3 RETURNDATACOPY RETURNDATASIZE SWAP1 REVERT JUMPDEST POP DUP2 SELFBALANCE LT ISZERO PUSH2 0xF6D JUMP JUMPDEST DUP4 PUSH2 0xFFB SWAP2 SWAP5 SWAP3 SWAP5 PUSH2 0x2447 JUMP JUMPDEST SWAP2 CODESIZE PUSH2 0xEF4 JUMP JUMPDEST PUSH1 0x40 MLOAD RETURNDATASIZE DUP7 DUP3 RETURNDATACOPY RETURNDATASIZE SWAP1 REVERT JUMPDEST DUP12 DUP1 REVERT JUMPDEST PUSH4 0xB06EBF3D PUSH1 0xE0 SHL DUP12 MSTORE PUSH1 0x4 DUP12 REVERT JUMPDEST PUSH1 0x40 MLOAD PUSH3 0x461BCD PUSH1 0xE5 SHL DUP2 MSTORE PUSH1 0x20 PUSH1 0x4 DUP3 ADD MSTORE PUSH1 0x2B PUSH1 0x24 DUP3 ADD MSTORE PUSH32 0x456E726F6C6C6D656E7420616D6F756E74206D75737420626520677265617465 PUSH1 0x44 DUP3 ADD MSTORE PUSH11 0x72207468616E207A65726F PUSH1 0xA8 SHL PUSH1 0x64 DUP3 ADD MSTORE PUSH1 0x84 SWAP1 REVERT JUMPDEST PUSH1 0x64 PUSH1 0x40 MLOAD PUSH3 0x461BCD PUSH1 0xE5 SHL DUP2 MSTORE PUSH1 0x20 PUSH1 0x4 DUP3 ADD MSTORE PUSH1 0x20 PUSH1 0x24 DUP3 ADD MSTORE PUSH32 0x4D697373696F6E207374617274206D757374206265206265666F726520656E64 PUSH1 0x44 DUP3 ADD MSTORE REVERT JUMPDEST PUSH1 0x40 MLOAD PUSH3 0x461BCD PUSH1 0xE5 SHL DUP2 MSTORE PUSH1 0x20 PUSH1 0x4 DUP3 ADD MSTORE PUSH1 0x30 PUSH1 0x24 DUP3 ADD MSTORE PUSH32 0x4D697373696F6E207374617274206D757374206265206F6E206F722061667465 PUSH1 0x44 DUP3 ADD MSTORE PUSH16 0x1C88195B9C9BDB1B1B595B9D08195B99 PUSH1 0x82 SHL PUSH1 0x64 DUP3 ADD MSTORE PUSH1 0x84 SWAP1 REVERT JUMPDEST PUSH1 0x40 MLOAD PUSH3 0x461BCD PUSH1 0xE5 SHL DUP2 MSTORE PUSH1 0x20 PUSH1 0x4 DUP3 ADD MSTORE PUSH1 0x23 PUSH1 0x24 DUP3 ADD MSTORE PUSH32 0x456E726F6C6C6D656E74207374617274206D757374206265206265666F726520 PUSH1 0x44 DUP3 ADD MSTORE PUSH3 0x195B99 PUSH1 0xEA SHL PUSH1 0x64 DUP3 ADD MSTORE PUSH1 0x84 SWAP1 REVERT JUMPDEST PUSH1 0x40 MLOAD PUSH3 0x461BCD PUSH1 0xE5 SHL DUP2 MSTORE PUSH1 0x20 PUSH1 0x4 DUP3 ADD MSTORE PUSH1 0x3F PUSH1 0x24 DUP3 ADD MSTORE PUSH32 0x4D696E696D756D20706C6179657273206D757374206265206772656174657220 PUSH1 0x44 DUP3 ADD MSTORE PUSH32 0x7468616E206F7220657175616C20746F206D697373696F6E20726F756E647300 PUSH1 0x64 DUP3 ADD MSTORE PUSH1 0x84 SWAP1 REVERT JUMPDEST PUSH1 0x40 MLOAD PUSH3 0x461BCD PUSH1 0xE5 SHL DUP2 MSTORE PUSH1 0x20 PUSH1 0x4 DUP3 ADD MSTORE PUSH1 0x31 PUSH1 0x24 DUP3 ADD MSTORE PUSH32 0x4D697373696F6E20726F756E6473206D75737420626520677265617465722074 PUSH1 0x44 DUP3 ADD MSTORE PUSH17 0x68616E206F7220657175616C20746F2035 PUSH1 0x78 SHL PUSH1 0x64 DUP3 ADD MSTORE PUSH1 0x84 SWAP1 REVERT JUMPDEST POP CALLER DUP11 MSTORE PUSH1 0x8 PUSH1 0x20 MSTORE PUSH1 0x40 DUP11 KECCAK256 SLOAD PUSH1 0xFF AND PUSH2 0xDA9 JUMP JUMPDEST DUP10 DUP1 REVERT JUMPDEST DUP7 DUP1 REVERT JUMPDEST DUP6 DUP1 REVERT JUMPDEST POP CALLVALUE PUSH2 0x231 JUMPI PUSH1 0x20 CALLDATASIZE PUSH1 0x3 NOT ADD SLT PUSH2 0x231 JUMPI PUSH1 0x4 CALLDATALOAD PUSH1 0x1 PUSH1 0x1 PUSH1 0xA0 SHL SUB DUP2 AND DUP2 SUB PUSH2 0x22F JUMPI PUSH2 0x1286 SWAP1 PUSH2 0x2A33 JUMP JUMPDEST PUSH1 0x40 MLOAD SWAP2 ISZERO ISZERO DUP3 MSTORE PUSH1 0x3 DUP2 LT ISZERO PUSH2 0x97A JUMPI PUSH1 0x40 SWAP3 POP PUSH1 0x20 DUP3 ADD MSTORE RETURN JUMPDEST POP CALLVALUE PUSH2 0x231 JUMPI DUP1 PUSH1 0x3 NOT CALLDATASIZE ADD SLT PUSH2 0x231 JUMPI SLOAD PUSH1 0x40 MLOAD PUSH1 0x1 PUSH1 0x1 PUSH1 0xA0 SHL SUB SWAP1 SWAP2 AND DUP2 MSTORE PUSH1 0x20 SWAP1 RETURN JUMPDEST POP CALLVALUE PUSH2 0x231 JUMPI DUP1 PUSH1 0x3 NOT CALLDATASIZE ADD SLT PUSH2 0x231 JUMPI PUSH1 0x20 PUSH1 0xFF PUSH1 0x3 SLOAD AND PUSH1 0x40 MLOAD SWAP1 DUP2 MSTORE RETURN JUMPDEST POP CALLVALUE PUSH2 0x231 JUMPI DUP1 PUSH1 0x3 NOT CALLDATASIZE ADD SLT PUSH2 0x231 JUMPI PUSH1 0x20 PUSH1 0x7 SLOAD PUSH1 0x40 MLOAD SWAP1 DUP2 MSTORE RETURN JUMPDEST POP CALLVALUE PUSH2 0x231 JUMPI PUSH1 0x20 CALLDATASIZE PUSH1 0x3 NOT ADD SLT PUSH2 0x231 JUMPI PUSH1 0x2 SLOAD SWAP1 PUSH1 0x4 CALLDATALOAD DUP3 DUP2 GT PUSH2 0x13E7 JUMPI JUMPDEST PUSH2 0x1332 DUP2 PUSH2 0x24A6 JUMP JUMPDEST SWAP2 PUSH2 0x133C DUP3 PUSH2 0x24A6 JUMP JUMPDEST SWAP4 PUSH1 0x0 NOT DUP2 ADD SWAP1 DUP2 GT DUP3 JUMPDEST DUP5 DUP2 LT PUSH2 0x135D JUMPI PUSH1 0x40 MLOAD DUP1 PUSH2 0x22B DUP10 DUP10 DUP4 PUSH2 0x22DC JUMP JUMPDEST DUP2 PUSH2 0x13D3 JUMPI PUSH2 0x1374 PUSH2 0x136F DUP3 DUP6 PUSH2 0x2753 JUMP JUMPDEST PUSH2 0x233B JUMP JUMPDEST SWAP1 SLOAD PUSH1 0x3 SWAP2 SWAP1 SWAP2 SHL SHR PUSH1 0x1 PUSH1 0x1 PUSH1 0xA0 SHL SUB AND DUP1 PUSH2 0x1391 DUP4 DUP10 PUSH2 0x24D8 JUMP JUMPDEST MSTORE DUP5 MSTORE PUSH1 0xA PUSH1 0x20 MSTORE PUSH1 0xFF PUSH1 0x40 DUP6 KECCAK256 SLOAD AND PUSH1 0x8 DUP2 LT ISZERO PUSH2 0x13BF JUMPI SWAP1 PUSH1 0x1 SWAP2 PUSH2 0x13B8 DUP3 DUP11 PUSH2 0x24D8 JUMP JUMPDEST MSTORE ADD PUSH2 0x1347 JUMP JUMPDEST PUSH4 0x4E487B71 PUSH1 0xE0 SHL DUP6 MSTORE PUSH1 0x21 PUSH1 0x4 MSTORE PUSH1 0x24 DUP6 REVERT JUMPDEST PUSH4 0x4E487B71 PUSH1 0xE0 SHL DUP5 MSTORE PUSH1 0x11 PUSH1 0x4 MSTORE PUSH1 0x24 DUP5 REVERT JUMPDEST POP DUP2 PUSH2 0x1329 JUMP JUMPDEST POP CALLVALUE PUSH2 0x231 JUMPI DUP1 PUSH1 0x3 NOT CALLDATASIZE ADD SLT PUSH2 0x231 JUMPI PUSH2 0x1407 PUSH2 0x2C3F JUMP JUMPDEST DUP1 SLOAD PUSH1 0x1 PUSH1 0x1 PUSH1 0xA0 SHL SUB NOT DUP2 AND DUP3 SSTORE DUP2 SWAP1 PUSH1 0x1 PUSH1 0x1 PUSH1 0xA0 SHL SUB AND PUSH32 0x8BE0079C531659141344CD1FD0A4F28419497F9722A3DAAFE3B4186F6B6457E0 DUP3 DUP1 LOG3 DUP1 RETURN JUMPDEST POP CALLVALUE PUSH2 0x231 JUMPI PUSH1 0x20 CALLDATASIZE PUSH1 0x3 NOT ADD SLT PUSH2 0x231 JUMPI PUSH1 0x4 CALLDATALOAD PUSH1 0x1 PUSH1 0x1 PUSH1 0xA0 SHL SUB DUP2 AND SWAP1 DUP2 SWAP1 SUB PUSH2 0x22F JUMPI DUP2 SLOAD PUSH1 0x1 PUSH1 0x1 PUSH1 0xA0 SHL SUB AND CALLER EQ DUP1 ISZERO PUSH2 0x151D JUMPI JUMPDEST PUSH2 0x148C SWAP1 PUSH2 0x239D JUMP JUMPDEST PUSH2 0x1497 DUP2 ISZERO ISZERO PUSH2 0x2760 JUMP JUMPDEST DUP1 DUP3 MSTORE PUSH1 0x8 PUSH1 0x20 MSTORE PUSH1 0xFF PUSH1 0x40 DUP4 KECCAK256 SLOAD AND ISZERO PUSH2 0x14E7 JUMPI DUP1 DUP3 MSTORE PUSH1 0x8 PUSH1 0x20 MSTORE PUSH1 0x40 DUP3 KECCAK256 DUP1 SLOAD PUSH1 0xFF NOT AND SWAP1 SSTORE PUSH32 0x66D5F06F711AF3C9FEBA3203FDB00B51345D514C68585D9D319C5FF5E6F77592 DUP3 DUP1 LOG2 DUP1 RETURN JUMPDEST PUSH1 0x40 MLOAD PUSH3 0x461BCD PUSH1 0xE5 SHL DUP2 MSTORE PUSH1 0x20 PUSH1 0x4 DUP3 ADD MSTORE PUSH1 0xE PUSH1 0x24 DUP3 ADD MSTORE PUSH14 0x139BDD08185D5D1A1BDC9A5E9959 PUSH1 0x92 SHL PUSH1 0x44 DUP3 ADD MSTORE PUSH1 0x64 SWAP1 REVERT JUMPDEST POP CALLER DUP3 MSTORE PUSH1 0x8 PUSH1 0x20 MSTORE PUSH1 0x40 DUP3 KECCAK256 SLOAD PUSH1 0xFF AND PUSH2 0x1483 JUMP JUMPDEST POP CALLVALUE PUSH2 0x231 JUMPI DUP1 PUSH1 0x3 NOT CALLDATASIZE ADD SLT PUSH2 0x231 JUMPI PUSH2 0x1566 SWAP1 PUSH2 0x1550 PUSH2 0x279E JUMP JUMPDEST SWAP1 SWAP2 PUSH1 0x40 MLOAD SWAP4 DUP5 SWAP4 PUSH1 0x40 DUP6 MSTORE PUSH1 0x40 DUP6 ADD SWAP1 PUSH2 0x229F JUMP JUMPDEST DUP4 DUP2 SUB PUSH1 0x20 DUP6 ADD MSTORE PUSH1 0x20 DUP1 DUP5 MLOAD SWAP3 DUP4 DUP2 MSTORE ADD SWAP4 ADD SWAP2 JUMPDEST DUP2 DUP2 LT PUSH2 0x158A JUMPI POP POP POP SUB SWAP1 RETURN JUMPDEST SWAP2 SWAP4 POP SWAP2 PUSH1 0x20 DUP1 DUP3 PUSH2 0x159F PUSH1 0x1 SWAP5 DUP9 MLOAD PUSH2 0x227C JUMP JUMPDEST ADD SWAP5 ADD SWAP2 ADD SWAP2 DUP5 SWAP4 SWAP3 PUSH2 0x157C JUMP JUMPDEST POP CALLVALUE PUSH2 0x231 JUMPI DUP1 PUSH1 0x3 NOT CALLDATASIZE ADD SLT PUSH2 0x231 JUMPI PUSH1 0x2 SLOAD SWAP1 DUP1 DUP1 JUMPDEST DUP4 DUP2 LT PUSH2 0x1693 JUMPI POP PUSH2 0x15D9 PUSH2 0xA41 DUP4 PUSH2 0x24A6 JUMP JUMPDEST SWAP3 DUP2 DUP1 JUMPDEST DUP3 DUP2 LT PUSH2 0x15F3 JUMPI PUSH1 0x40 MLOAD DUP1 PUSH2 0x22B DUP9 DUP9 DUP4 PUSH2 0x22DC JUMP JUMPDEST PUSH2 0x15FC DUP2 PUSH2 0x233B JUMP JUMPDEST SWAP1 SLOAD PUSH1 0x3 SWAP2 SWAP1 SWAP2 SHL SHR PUSH1 0x1 PUSH1 0x1 PUSH1 0xA0 SHL SUB AND DUP3 MSTORE PUSH1 0xA PUSH1 0x20 MSTORE PUSH1 0x40 DUP3 KECCAK256 SLOAD PUSH1 0xFF AND PUSH1 0x8 DUP2 LT ISZERO DUP1 PUSH2 0xB06 JUMPI PUSH1 0x6 DUP3 EQ ISZERO DUP1 PUSH2 0x1686 JUMPI JUMPDEST PUSH2 0x1641 JUMPI JUMPDEST POP POP PUSH1 0x1 ADD PUSH2 0x15DD JUMP JUMPDEST PUSH2 0x164C DUP4 SWAP7 SWAP4 PUSH2 0x233B JUMP JUMPDEST SWAP1 SLOAD PUSH1 0x3 SWAP2 SWAP1 SWAP2 SHL SHR PUSH1 0x1 PUSH1 0x1 PUSH1 0xA0 SHL SUB AND PUSH2 0x1668 DUP5 DUP10 PUSH2 0x24D8 JUMP JUMPDEST MSTORE PUSH2 0x97A JUMPI DUP2 PUSH2 0x167E SWAP2 PUSH2 0xAEC PUSH1 0x1 SWAP5 DUP11 PUSH2 0x24D8 JUMP JUMPDEST SWAP4 SWAP1 CODESIZE PUSH2 0x1637 JUMP JUMPDEST POP POP DUP3 PUSH1 0x7 DUP3 EQ ISZERO PUSH2 0x1632 JUMP JUMPDEST PUSH2 0x169C DUP2 PUSH2 0x233B JUMP JUMPDEST SWAP1 SLOAD PUSH1 0x3 SWAP2 SWAP1 SWAP2 SHL SHR PUSH1 0x1 PUSH1 0x1 PUSH1 0xA0 SHL SUB AND DUP3 MSTORE PUSH1 0xA PUSH1 0x20 MSTORE PUSH1 0x40 DUP3 KECCAK256 SLOAD PUSH1 0xFF AND PUSH1 0x8 DUP2 LT ISZERO PUSH2 0x97A JUMPI PUSH1 0x6 DUP2 EQ ISZERO SWAP1 DUP2 PUSH2 0x16F4 JUMPI JUMPDEST POP PUSH2 0x16E0 JUMPI JUMPDEST PUSH1 0x1 ADD PUSH2 0x15C5 JUMP JUMPDEST SWAP2 PUSH2 0x16EC PUSH1 0x1 SWAP2 PUSH2 0x2469 JUMP JUMPDEST SWAP3 SWAP1 POP PUSH2 0x16D8 JUMP JUMPDEST PUSH1 0x7 SWAP2 POP EQ ISZERO CODESIZE PUSH2 0x16D2 JUMP JUMPDEST POP CALLVALUE PUSH2 0x231 JUMPI DUP1 PUSH1 0x3 NOT CALLDATASIZE ADD SLT PUSH2 0x231 JUMPI PUSH1 0x20 PUSH1 0x4 SLOAD PUSH1 0x40 MLOAD SWAP1 DUP2 MSTORE RETURN JUMPDEST POP CALLVALUE PUSH2 0x231 JUMPI DUP1 PUSH1 0x3 NOT CALLDATASIZE ADD SLT PUSH2 0x231 JUMPI PUSH1 0x20 PUSH1 0x2 SLOAD PUSH1 0x40 MLOAD SWAP1 DUP2 MSTORE RETURN JUMPDEST POP CALLVALUE PUSH2 0x231 JUMPI PUSH1 0x20 CALLDATASIZE PUSH1 0x3 NOT ADD SLT PUSH2 0x231 JUMPI PUSH1 0x4 CALLDATALOAD PUSH1 0x1 PUSH1 0x1 PUSH1 0xA0 SHL SUB DUP2 AND SWAP1 DUP2 SWAP1 SUB PUSH2 0x22F JUMPI DUP2 SLOAD PUSH1 0x1 PUSH1 0x1 PUSH1 0xA0 SHL SUB AND CALLER EQ DUP1 ISZERO PUSH2 0x1817 JUMPI JUMPDEST PUSH2 0x1780 SWAP1 PUSH2 0x239D JUMP JUMPDEST PUSH2 0x178B DUP2 ISZERO ISZERO PUSH2 0x2760 JUMP JUMPDEST DUP1 DUP3 MSTORE PUSH1 0x8 PUSH1 0x20 MSTORE PUSH1 0xFF PUSH1 0x40 DUP4 KECCAK256 SLOAD AND PUSH2 0x17DD JUMPI DUP1 DUP3 MSTORE PUSH1 0x8 PUSH1 0x20 MSTORE PUSH1 0x40 DUP3 KECCAK256 DUP1 SLOAD PUSH1 0xFF NOT AND PUSH1 0x1 OR SWAP1 SSTORE PUSH32 0x10AC961F00D5E732BA4DCC2C6FB09BEBEA0EB9EDD2A75C8109775EF288382E67 DUP3 DUP1 LOG2 DUP1 RETURN JUMPDEST PUSH1 0x40 MLOAD PUSH3 0x461BCD PUSH1 0xE5 SHL DUP2 MSTORE PUSH1 0x20 PUSH1 0x4 DUP3 ADD MSTORE PUSH1 0x12 PUSH1 0x24 DUP3 ADD MSTORE PUSH18 0x105B1C9958591E48185D5D1A1BDC9A5E9959 PUSH1 0x72 SHL PUSH1 0x44 DUP3 ADD MSTORE PUSH1 0x64 SWAP1 REVERT JUMPDEST POP CALLER DUP3 MSTORE PUSH1 0x8 PUSH1 0x20 MSTORE PUSH1 0x40 DUP3 KECCAK256 SLOAD PUSH1 0xFF AND PUSH2 0x1777 JUMP JUMPDEST POP CALLVALUE PUSH2 0x231 JUMPI PUSH1 0x20 CALLDATASIZE PUSH1 0x3 NOT ADD SLT PUSH2 0x231 JUMPI PUSH1 0x4 CALLDATALOAD PUSH1 0x1 PUSH1 0x1 PUSH1 0xA0 SHL SUB DUP2 AND DUP1 DUP3 SUB PUSH2 0x287 JUMPI DUP3 SLOAD PUSH1 0x1 PUSH1 0x1 PUSH1 0xA0 SHL SUB AND CALLER EQ DUP1 ISZERO PUSH2 0x1A16 JUMPI JUMPDEST PUSH2 0x1870 SWAP1 PUSH2 0x239D JUMP JUMPDEST DUP1 DUP4 MSTORE PUSH1 0xB PUSH1 0x20 MSTORE PUSH1 0x40 DUP4 KECCAK256 PUSH1 0x40 MLOAD PUSH2 0x1888 DUP2 PUSH2 0x242B JUMP JUMPDEST DUP2 SLOAD PUSH1 0x1 PUSH1 0x1 PUSH1 0xA0 SHL SUB AND DUP1 DUP3 MSTORE PUSH1 0x1 SWAP1 SWAP3 ADD SLOAD PUSH1 0x20 DUP3 ADD SWAP1 DUP2 MSTORE SWAP2 ISZERO PUSH2 0x19D1 JUMPI MLOAD PUSH1 0x1 PUSH1 0x1 PUSH1 0xA0 SHL SUB AND CALLER EQ PUSH2 0x198D JUMPI MLOAD PUSH3 0x15180 DUP2 ADD DUP1 SWAP2 GT PUSH2 0x13D3 JUMPI TIMESTAMP GT PUSH2 0x1955 JUMPI PUSH2 0x18D5 PUSH2 0x2C3F JUMP JUMPDEST DUP1 ISZERO PUSH2 0x1941 JUMPI PUSH2 0x18E4 DUP3 PUSH2 0x2C68 JUMP JUMPDEST DUP3 MSTORE PUSH1 0xB PUSH1 0x20 SWAP1 DUP2 MSTORE PUSH1 0x40 DUP1 DUP5 KECCAK256 DUP5 DUP2 SSTORE PUSH1 0x1 ADD DUP5 SWAP1 SSTORE DUP1 MLOAD PUSH1 0x1 PUSH1 0x1 PUSH1 0xA0 SHL SUB SWAP1 SWAP4 AND DUP4 MSTORE TIMESTAMP SWAP2 DUP4 ADD SWAP2 SWAP1 SWAP2 MSTORE CALLER SWAP2 PUSH32 0xDD72DD33198968A9CDC9B1E5CBFF344FB8D04D99F8C15C0A02416B04E857B467 SWAP2 DUP2 SWAP1 DUP2 ADD JUMPDEST SUB SWAP1 LOG2 DUP1 RETURN JUMPDEST PUSH4 0x1E4FBDF7 PUSH1 0xE0 SHL DUP4 MSTORE PUSH1 0x4 DUP4 SWAP1 MSTORE PUSH1 0x24 DUP4 REVERT JUMPDEST PUSH1 0x40 MLOAD PUSH3 0x461BCD PUSH1 0xE5 SHL DUP2 MSTORE PUSH1 0x20 PUSH1 0x4 DUP3 ADD MSTORE PUSH1 0x10 PUSH1 0x24 DUP3 ADD MSTORE PUSH16 0x141C9BDC1BDCD85B08195E1C1A5C9959 PUSH1 0x82 SHL PUSH1 0x44 DUP3 ADD MSTORE PUSH1 0x64 SWAP1 REVERT JUMPDEST PUSH1 0x64 PUSH1 0x40 MLOAD PUSH3 0x461BCD PUSH1 0xE5 SHL DUP2 MSTORE PUSH1 0x20 PUSH1 0x4 DUP3 ADD MSTORE PUSH1 0x20 PUSH1 0x24 DUP3 ADD MSTORE PUSH32 0x43616E6E6F7420636F6E6669726D20796F7572206F776E2070726F706F73616C PUSH1 0x44 DUP3 ADD MSTORE REVERT JUMPDEST PUSH1 0x40 MLOAD PUSH3 0x461BCD PUSH1 0xE5 SHL DUP2 MSTORE PUSH1 0x20 PUSH1 0x4 DUP3 ADD MSTORE PUSH1 0x1A PUSH1 0x24 DUP3 ADD MSTORE PUSH32 0x4E6F2070726F706F73616C20666F722074686973206F776E6572000000000000 PUSH1 0x44 DUP3 ADD MSTORE PUSH1 0x64 SWAP1 REVERT JUMPDEST POP CALLER DUP4 MSTORE PUSH1 0x8 PUSH1 0x20 MSTORE PUSH1 0x40 DUP4 KECCAK256 SLOAD PUSH1 0xFF AND PUSH2 0x1867 JUMP JUMPDEST POP CALLVALUE PUSH2 0x231 JUMPI PUSH1 0x20 CALLDATASIZE PUSH1 0x3 NOT ADD SLT PUSH2 0x231 JUMPI PUSH1 0x4 CALLDATALOAD PUSH1 0x1 PUSH1 0x1 PUSH1 0xA0 SHL SUB DUP2 AND SWAP1 DUP2 SWAP1 SUB PUSH2 0x22F JUMPI DUP2 MSTORE PUSH1 0xD PUSH1 0x20 MSTORE PUSH1 0x40 DUP2 KECCAK256 DUP1 SLOAD DUP3 SWAP2 DUP3 JUMPDEST DUP3 DUP2 LT PUSH2 0x1A9A JUMPI POP POP POP DUP2 PUSH2 0x1A7F JUMPI PUSH1 0x20 SWAP2 POP PUSH1 0x40 MLOAD SWAP1 DUP2 MSTORE RETURN JUMPDEST PUSH3 0x278D00 DUP3 ADD DUP1 SWAP3 GT PUSH2 0x2FF JUMPI POP PUSH2 0x2FA PUSH1 0x20 SWAP2 TIMESTAMP SWAP1 PUSH2 0x2753 JUMP JUMPDEST PUSH2 0x1AA4 DUP2 DUP4 PUSH2 0x236C JUMP JUMPDEST SWAP1 SLOAD SWAP1 PUSH1 0x3 SHL SHR PUSH3 0x278D00 DUP2 ADD DUP1 SWAP2 GT PUSH2 0x384 JUMPI TIMESTAMP LT PUSH2 0x1AC7 JUMPI JUMPDEST PUSH1 0x1 ADD PUSH2 0x1A64 JUMP JUMPDEST DUP5 ISZERO DUP1 ISZERO PUSH2 0x1AF2 JUMPI JUMPDEST ISZERO PUSH2 0x1ABF JUMPI SWAP4 POP PUSH1 0x1 PUSH2 0x1AE3 DUP6 DUP4 PUSH2 0x236C JUMP JUMPDEST SWAP1 SLOAD SWAP1 PUSH1 0x3 SHL SHR SWAP5 SWAP1 POP PUSH2 0x1ABF JUMP JUMPDEST POP DUP5 PUSH2 0x1AFE DUP3 DUP5 PUSH2 0x236C JUMP JUMPDEST SWAP1 SLOAD SWAP1 PUSH1 0x3 SHL SHR LT PUSH2 0x1AD0 JUMP JUMPDEST POP CALLVALUE PUSH2 0x231 JUMPI DUP1 PUSH1 0x3 NOT CALLDATASIZE ADD SLT PUSH2 0x231 JUMPI PUSH1 0x20 PUSH1 0x5 SLOAD PUSH1 0x40 MLOAD SWAP1 DUP2 MSTORE RETURN JUMPDEST POP CALLVALUE PUSH2 0x231 JUMPI PUSH1 0x20 CALLDATASIZE PUSH1 0x3 NOT ADD SLT PUSH2 0x231 JUMPI PUSH1 0x4 CALLDATALOAD SWAP1 PUSH1 0x2 SLOAD DUP3 LT ISZERO PUSH2 0x231 JUMPI PUSH1 0x20 PUSH2 0x1B54 DUP4 PUSH2 0x233B JUMP JUMPDEST SWAP1 SLOAD PUSH1 0x40 MLOAD PUSH1 0x3 SWAP3 SWAP1 SWAP3 SHL SHR PUSH1 0x1 PUSH1 0x1 PUSH1 0xA0 SHL SUB AND DUP2 MSTORE RETURN JUMPDEST POP CALLVALUE PUSH2 0x231 JUMPI PUSH1 0x20 CALLDATASIZE PUSH1 0x3 NOT ADD SLT PUSH2 0x231 JUMPI PUSH1 0x4 CALLDATALOAD PUSH1 0x1 PUSH1 0x1 PUSH1 0xA0 SHL SUB DUP2 AND DUP1 DUP3 SUB PUSH2 0x287 JUMPI DUP3 SLOAD PUSH1 0x1 PUSH1 0x1 PUSH1 0xA0 SHL SUB AND CALLER EQ DUP1 ISZERO PUSH2 0x1C7F JUMPI JUMPDEST PUSH2 0x1BB0 SWAP1 PUSH2 0x239D JUMP JUMPDEST DUP1 ISZERO PUSH2 0x1C46 JUMPI PUSH1 0x1 PUSH1 0x40 MLOAD SWAP2 PUSH2 0x1BC5 DUP4 PUSH2 0x242B JUMP JUMPDEST CALLER DUP4 MSTORE PUSH1 0x20 DUP4 ADD SWAP1 TIMESTAMP DUP3 MSTORE DUP6 MSTORE PUSH1 0xB PUSH1 0x20 MSTORE PUSH1 0x40 DUP6 KECCAK256 SWAP3 DUP3 DUP1 PUSH1 0xA0 SHL SUB SWAP1 MLOAD AND PUSH12 0xFFFFFFFFFFFFFFFFFFFFFFFF PUSH1 0xA0 SHL DUP5 SLOAD AND OR DUP4 SSTORE MLOAD SWAP2 ADD SSTORE PUSH32 0xC29BDBD554E41DF97E5C40FC273A09677AC133C245F0064BDFFEF5CC72176E19 PUSH1 0x40 MLOAD DUP1 PUSH2 0x193B CALLER SWAP5 TIMESTAMP SWAP1 DUP4 PUSH1 0x20 SWAP1 SWAP4 SWAP3 SWAP2 SWAP4 PUSH1 0x40 DUP2 ADD SWAP5 PUSH1 0x1 DUP1 PUSH1 0xA0 SHL SUB AND DUP2 MSTORE ADD MSTORE JUMP JUMPDEST PUSH1 0x40 MLOAD PUSH3 0x461BCD PUSH1 0xE5 SHL DUP2 MSTORE PUSH1 0x20 PUSH1 0x4 DUP3 ADD MSTORE PUSH1 0x11 PUSH1 0x24 DUP3 ADD MSTORE PUSH17 0x24B73B30B634B2103732BB9037BBB732B9 PUSH1 0x79 SHL PUSH1 0x44 DUP3 ADD MSTORE PUSH1 0x64 SWAP1 REVERT JUMPDEST POP CALLER DUP4 MSTORE PUSH1 0x8 PUSH1 0x20 MSTORE PUSH1 0x40 DUP4 KECCAK256 SLOAD PUSH1 0xFF AND PUSH2 0x1BA7 JUMP JUMPDEST POP CALLVALUE PUSH2 0x231 JUMPI PUSH1 0x20 CALLDATASIZE PUSH1 0x3 NOT ADD SLT PUSH2 0x231 JUMPI PUSH1 0x4 CALLDATALOAD PUSH1 0x1 PUSH1 0x1 PUSH1 0xA0 SHL SUB DUP2 AND SWAP1 DUP2 SWAP1 SUB PUSH2 0x22F JUMPI PUSH1 0x60 PUSH2 0x1E0 PUSH1 0x40 MLOAD PUSH2 0x1CCD DUP2 PUSH2 0x23F8 JUMP JUMPDEST DUP3 DUP2 MSTORE DUP5 PUSH1 0x20 DUP3 ADD MSTORE DUP5 PUSH1 0x40 DUP3 ADD MSTORE DUP5 DUP4 DUP3 ADD MSTORE DUP5 PUSH1 0x80 DUP3 ADD MSTORE DUP5 PUSH1 0xA0 DUP3 ADD MSTORE DUP5 PUSH1 0xC0 DUP3 ADD MSTORE DUP5 PUSH1 0xE0 DUP3 ADD MSTORE DUP5 PUSH2 0x100 DUP3 ADD MSTORE DUP5 PUSH2 0x120 DUP3 ADD MSTORE DUP5 PUSH2 0x140 DUP3 ADD MSTORE DUP5 PUSH2 0x160 DUP3 ADD MSTORE DUP5 PUSH2 0x180 DUP3 ADD MSTORE DUP3 PUSH2 0x1A0 DUP3 ADD MSTORE DUP5 PUSH2 0x1C0 DUP3 ADD MSTORE ADD MSTORE DUP1 ISZERO PUSH2 0x1EB9 JUMPI DUP2 PUSH1 0x4 SWAP2 PUSH1 0x40 MLOAD SWAP3 DUP4 DUP1 SWAP3 PUSH4 0x1F385F79 PUSH1 0xE2 SHL DUP3 MSTORE GAS STATICCALL SWAP1 DUP2 ISZERO PUSH2 0x1EAE JUMPI DUP3 SWAP2 PUSH2 0x1E8C JUMPI JUMPDEST POP PUSH1 0x40 MLOAD SWAP1 PUSH1 0x20 DUP3 MSTORE PUSH2 0x1D78 DUP2 MLOAD PUSH2 0x200 PUSH1 0x20 DUP6 ADD MSTORE PUSH2 0x220 DUP5 ADD SWAP1 PUSH2 0x229F JUMP JUMPDEST SWAP3 PUSH2 0x1D8B PUSH1 0x20 DUP4 ADD MLOAD PUSH1 0x40 DUP6 ADD SWAP1 PUSH2 0x232E JUMP JUMPDEST PUSH1 0x40 DUP3 ADD MLOAD PUSH1 0x60 DUP5 ADD MSTORE PUSH1 0x60 DUP3 ADD MLOAD PUSH1 0x80 DUP5 ADD MSTORE PUSH1 0x80 DUP3 ADD MLOAD PUSH1 0xA0 DUP5 ADD MSTORE PUSH1 0xFF PUSH1 0xA0 DUP4 ADD MLOAD AND PUSH1 0xC0 DUP5 ADD MSTORE PUSH1 0xFF PUSH1 0xC0 DUP4 ADD MLOAD AND PUSH1 0xE0 DUP5 ADD MSTORE PUSH1 0xE0 DUP3 ADD MLOAD PUSH2 0x100 DUP5 ADD MSTORE PUSH2 0x100 DUP3 ADD MLOAD PUSH2 0x120 DUP5 ADD MSTORE PUSH1 0xFF PUSH2 0x120 DUP4 ADD MLOAD AND PUSH2 0x140 DUP5 ADD MSTORE PUSH1 0xFF PUSH2 0x140 DUP4 ADD MLOAD AND PUSH2 0x160 DUP5 ADD MSTORE PUSH2 0x160 DUP3 ADD MLOAD PUSH2 0x180 DUP5 ADD MSTORE PUSH2 0x180 DUP3 ADD MLOAD PUSH2 0x1A0 DUP5 ADD MSTORE PUSH2 0x1A0 DUP3 ADD MLOAD SWAP4 PUSH1 0x1F NOT DUP5 DUP3 SUB ADD PUSH2 0x1C0 DUP6 ADD MSTORE PUSH1 0x20 DUP1 DUP7 MLOAD SWAP3 DUP4 DUP2 MSTORE ADD SWAP6 ADD SWAP2 JUMPDEST DUP2 DUP2 LT PUSH2 0x1E61 JUMPI DUP5 DUP1 PUSH2 0x22B DUP9 PUSH2 0x1E0 DUP9 PUSH2 0x1C0 DUP2 ADD MLOAD DUP3 DUP7 ADD MSTORE ADD MLOAD PUSH1 0x1F NOT DUP5 DUP4 SUB ADD PUSH2 0x200 DUP6 ADD MSTORE PUSH2 0x229F JUMP JUMPDEST DUP3 MLOAD DUP1 MLOAD PUSH1 0x1 PUSH1 0x1 PUSH1 0xA0 SHL SUB AND DUP8 MSTORE PUSH1 0x20 SWAP1 DUP2 ADD MLOAD DUP2 DUP9 ADD MSTORE PUSH1 0x40 SWAP1 SWAP7 ADD SWAP6 SWAP1 SWAP3 ADD SWAP2 PUSH1 0x1 ADD PUSH2 0x1E32 JUMP JUMPDEST PUSH2 0x1EA8 SWAP2 POP RETURNDATASIZE DUP1 DUP5 DUP4 RETURNDATACOPY PUSH2 0x1EA0 DUP2 DUP4 PUSH2 0x2447 JUMP JUMPDEST DUP2 ADD SWAP1 PUSH2 0x2578 JUMP JUMPDEST CODESIZE PUSH2 0x1D57 JUMP JUMPDEST PUSH1 0x40 MLOAD RETURNDATASIZE DUP5 DUP3 RETURNDATACOPY RETURNDATASIZE SWAP1 REVERT JUMPDEST PUSH1 0x40 MLOAD PUSH3 0x461BCD PUSH1 0xE5 SHL DUP2 MSTORE PUSH1 0x20 PUSH1 0x4 DUP3 ADD MSTORE PUSH1 0x17 PUSH1 0x24 DUP3 ADD MSTORE PUSH32 0x496E76616C6964206D697373696F6E2061646472657373000000000000000000 PUSH1 0x44 DUP3 ADD MSTORE PUSH1 0x64 SWAP1 REVERT JUMPDEST POP CALLVALUE PUSH2 0x231 JUMPI PUSH1 0x20 CALLDATASIZE PUSH1 0x3 NOT ADD SLT PUSH2 0x231 JUMPI PUSH1 0x4 CALLDATALOAD SWAP1 PUSH1 0x8 DUP3 LT ISZERO SWAP1 DUP2 PUSH2 0x231 JUMPI PUSH1 0x2 SLOAD DUP2 SWAP3 DUP3 JUMPDEST DUP3 DUP2 LT PUSH2 0x2003 JUMPI POP PUSH2 0x1F40 PUSH2 0x1F3A DUP6 PUSH2 0x24A6 JUMP JUMPDEST SWAP5 PUSH2 0x24A6 JUMP JUMPDEST SWAP5 DUP4 SWAP2 DUP5 JUMPDEST DUP5 DUP2 LT PUSH2 0x1F5B JUMPI PUSH1 0x40 MLOAD DUP1 PUSH2 0x22B DUP11 DUP11 DUP4 PUSH2 0x22DC JUMP JUMPDEST PUSH2 0x1F64 DUP2 PUSH2 0x233B JUMP JUMPDEST SWAP1 SLOAD PUSH1 0x3 SWAP2 SWAP1 SWAP2 SHL SHR PUSH1 0x1 PUSH1 0x1 PUSH1 0xA0 SHL SUB AND DUP7 MSTORE PUSH1 0xA PUSH1 0x20 MSTORE PUSH1 0x40 DUP7 KECCAK256 SLOAD PUSH1 0xFF AND DUP3 PUSH2 0x1FEF JUMPI PUSH1 0x8 DUP2 LT ISZERO PUSH2 0x1FEF JUMPI DUP4 EQ PUSH2 0x1FA2 JUMPI JUMPDEST PUSH1 0x1 ADD PUSH2 0x1F45 JUMP JUMPDEST SWAP3 SWAP1 POP PUSH2 0x1FAE DUP4 PUSH2 0x233B JUMP JUMPDEST SWAP1 SLOAD PUSH1 0x3 SWAP2 SWAP1 SWAP2 SHL SHR PUSH1 0x1 PUSH1 0x1 PUSH1 0xA0 SHL SUB AND PUSH2 0x1FCA DUP3 DUP9 PUSH2 0x24D8 JUMP JUMPDEST MSTORE PUSH1 0x1 PUSH2 0x1FE7 DUP7 SWAP3 PUSH2 0x1FDC DUP2 DUP12 PUSH2 0x24D8 JUMP JUMPDEST PUSH1 0xFF DUP7 AND SWAP1 MSTORE PUSH2 0x2469 JUMP JUMPDEST SWAP4 SWAP1 POP PUSH2 0x1F9A JUMP JUMPDEST PUSH4 0x4E487B71 PUSH1 0xE0 SHL DUP8 MSTORE PUSH1 0x21 PUSH1 0x4 MSTORE PUSH1 0x24 DUP8 REVERT JUMPDEST PUSH2 0x200C DUP2 PUSH2 0x233B JUMP JUMPDEST SWAP1 SLOAD PUSH1 0x3 SWAP2 SWAP1 SWAP2 SHL SHR PUSH1 0x1 PUSH1 0x1 PUSH1 0xA0 SHL SUB AND DUP5 MSTORE PUSH1 0xA PUSH1 0x20 MSTORE PUSH1 0x40 DUP5 KECCAK256 SLOAD PUSH1 0xFF AND DUP3 PUSH2 0x13BF JUMPI PUSH1 0x8 DUP2 LT ISZERO PUSH2 0x13BF JUMPI DUP7 EQ PUSH2 0x204A JUMPI JUMPDEST PUSH1 0x1 ADD PUSH2 0x1F26 JUMP JUMPDEST SWAP4 PUSH2 0x2056 PUSH1 0x1 SWAP2 PUSH2 0x2469 JUMP JUMPDEST SWAP5 SWAP1 POP PUSH2 0x2042 JUMP JUMPDEST POP CALLVALUE PUSH2 0x231 JUMPI PUSH1 0x20 CALLDATASIZE PUSH1 0x3 NOT ADD SLT PUSH2 0x231 JUMPI PUSH1 0x4 CALLDATALOAD PUSH1 0x1 DUP1 PUSH1 0xA0 SHL SUB DUP3 SLOAD AND CALLER EQ DUP1 ISZERO PUSH2 0x21FE JUMPI JUMPDEST PUSH2 0x208F SWAP1 PUSH2 0x239D JUMP JUMPDEST PUSH2 0x2097 PUSH2 0x2C1D JUMP JUMPDEST DUP2 SLOAD PUSH1 0x1 PUSH1 0x1 PUSH1 0xA0 SHL SUB AND SWAP1 DUP1 DUP3 ISZERO PUSH2 0x21C1 JUMPI ISZERO PUSH2 0x21BA JUMPI JUMPDEST SELFBALANCE DUP2 GT PUSH2 0x217E JUMPI DUP3 DUP1 DUP1 DUP1 DUP5 DUP7 GAS CALL RETURNDATASIZE ISZERO PUSH2 0x2179 JUMPI RETURNDATASIZE PUSH8 0xFFFFFFFFFFFFFFFF DUP2 GT PUSH2 0x2165 JUMPI PUSH1 0x40 MLOAD SWAP1 PUSH2 0x20ED PUSH1 0x1F DUP3 ADD PUSH1 0x1F NOT AND PUSH1 0x20 ADD DUP4 PUSH2 0x2447 JUMP JUMPDEST DUP2 MSTORE DUP5 PUSH1 0x20 RETURNDATASIZE SWAP3 ADD RETURNDATACOPY JUMPDEST ISZERO PUSH2 0x212E JUMPI PUSH1 0x20 PUSH32 0xEAFF4B37086828766AD3268786972C0CD24259D4C87A80F9D3963A3C3D999B0D SWAP2 PUSH1 0x40 MLOAD SWAP1 DUP2 MSTORE LOG2 PUSH1 0x1 DUP1 SSTORE DUP1 RETURN JUMPDEST PUSH1 0x40 MLOAD PUSH3 0x461BCD PUSH1 0xE5 SHL DUP2 MSTORE PUSH1 0x20 PUSH1 0x4 DUP3 ADD MSTORE PUSH1 0xF PUSH1 0x24 DUP3 ADD MSTORE PUSH15 0x151C985B9CD9995C8819985A5B1959 PUSH1 0x8A SHL PUSH1 0x44 DUP3 ADD MSTORE PUSH1 0x64 SWAP1 REVERT JUMPDEST PUSH4 0x4E487B71 PUSH1 0xE0 SHL DUP6 MSTORE PUSH1 0x41 PUSH1 0x4 MSTORE PUSH1 0x24 DUP6 REVERT JUMPDEST PUSH2 0x20F7 JUMP JUMPDEST PUSH1 0x40 MLOAD PUSH3 0x461BCD PUSH1 0xE5 SHL DUP2 MSTORE PUSH1 0x20 PUSH1 0x4 DUP3 ADD MSTORE PUSH1 0x14 PUSH1 0x24 DUP3 ADD MSTORE PUSH20 0x496E73756666696369656E742062616C616E6365 PUSH1 0x60 SHL PUSH1 0x44 DUP3 ADD MSTORE PUSH1 0x64 SWAP1 REVERT JUMPDEST POP SELFBALANCE PUSH2 0x20B0 JUMP JUMPDEST PUSH1 0x40 MLOAD PUSH3 0x461BCD PUSH1 0xE5 SHL DUP2 MSTORE PUSH1 0x20 PUSH1 0x4 DUP3 ADD MSTORE PUSH1 0x15 PUSH1 0x24 DUP3 ADD MSTORE PUSH21 0x24B73B30B634B21036B0B730B3B2B91037BBB732B9 PUSH1 0x59 SHL PUSH1 0x44 DUP3 ADD MSTORE PUSH1 0x64 SWAP1 REVERT JUMPDEST POP CALLER DUP3 MSTORE PUSH1 0x8 PUSH1 0x20 MSTORE PUSH1 0x40 DUP3 KECCAK256 SLOAD PUSH1 0xFF AND PUSH2 0x2086 JUMP JUMPDEST POP CALLVALUE PUSH2 0x231 JUMPI DUP1 PUSH1 0x3 NOT CALLDATASIZE ADD SLT PUSH2 0x231 JUMPI PUSH1 0x20 PUSH1 0xFF PUSH1 0x3 SLOAD PUSH1 0x8 SHR AND PUSH1 0x40 MLOAD SWAP1 DUP2 MSTORE RETURN JUMPDEST SWAP1 POP CALLVALUE PUSH2 0x22F JUMPI PUSH1 0x20 CALLDATASIZE PUSH1 0x3 NOT ADD SLT PUSH2 0x22F JUMPI PUSH1 0x4 CALLDATALOAD PUSH1 0x1 PUSH1 0x1 PUSH1 0xA0 SHL SUB DUP2 AND SWAP1 DUP2 SWAP1 SUB PUSH2 0x287 JUMPI DUP2 PUSH1 0xFF PUSH1 0x40 DUP6 PUSH2 0x227A SWAP5 PUSH1 0x20 SWAP8 MSTORE PUSH1 0xA DUP8 MSTORE KECCAK256 SLOAD AND PUSH2 0x227C JUMP JUMPDEST RETURN JUMPDEST SWAP1 PUSH1 0x8 DUP3 LT ISZERO PUSH2 0x2289 JUMPI MSTORE JUMP JUMPDEST PUSH4 0x4E487B71 PUSH1 0xE0 SHL PUSH1 0x0 MSTORE PUSH1 0x21 PUSH1 0x4 MSTORE PUSH1 0x24 PUSH1 0x0 REVERT JUMPDEST SWAP1 PUSH1 0x20 DUP1 DUP4 MLOAD SWAP3 DUP4 DUP2 MSTORE ADD SWAP3 ADD SWAP1 PUSH1 0x0 JUMPDEST DUP2 DUP2 LT PUSH2 0x22BD JUMPI POP POP POP SWAP1 JUMP JUMPDEST DUP3 MLOAD PUSH1 0x1 PUSH1 0x1 PUSH1 0xA0 SHL SUB AND DUP5 MSTORE PUSH1 0x20 SWAP4 DUP5 ADD SWAP4 SWAP1 SWAP3 ADD SWAP2 PUSH1 0x1 ADD PUSH2 0x22B0 JUMP JUMPDEST SWAP1 PUSH2 0x22EF SWAP1 PUSH1 0x40 DUP4 MSTORE PUSH1 0x40 DUP4 ADD SWAP1 PUSH2 0x229F JUMP JUMPDEST SWAP1 PUSH1 0x20 DUP2 DUP4 SUB SWAP2 ADD MSTORE PUSH1 0x20 DUP1 DUP4 MLOAD SWAP3 DUP4 DUP2 MSTORE ADD SWAP3 ADD SWAP1 PUSH1 0x0 JUMPDEST DUP2 DUP2 LT PUSH2 0x2315 JUMPI POP POP POP SWAP1 JUMP JUMPDEST DUP3 MLOAD PUSH1 0xFF AND DUP5 MSTORE PUSH1 0x20 SWAP4 DUP5 ADD SWAP4 SWAP1 SWAP3 ADD SWAP2 PUSH1 0x1 ADD PUSH2 0x2308 JUMP JUMPDEST SWAP1 PUSH1 0x7 DUP3 LT ISZERO PUSH2 0x2289 JUMPI MSTORE JUMP JUMPDEST PUSH1 0x2 SLOAD DUP2 LT ISZERO PUSH2 0x2356 JUMPI PUSH1 0x2 PUSH1 0x0 MSTORE PUSH1 0x20 PUSH1 0x0 KECCAK256 ADD SWAP1 PUSH1 0x0 SWAP1 JUMP JUMPDEST PUSH4 0x4E487B71 PUSH1 0xE0 SHL PUSH1 0x0 MSTORE PUSH1 0x32 PUSH1 0x4 MSTORE PUSH1 0x24 PUSH1 0x0 REVERT JUMPDEST DUP1 SLOAD DUP3 LT ISZERO PUSH2 0x2356 JUMPI PUSH1 0x0 MSTORE PUSH1 0x20 PUSH1 0x0 KECCAK256 ADD SWAP1 PUSH1 0x0 SWAP1 JUMP JUMPDEST PUSH1 0x7 DUP2 LT ISZERO PUSH2 0x2289 JUMPI PUSH1 0x0 MSTORE PUSH1 0xC PUSH1 0x20 MSTORE PUSH1 0x40 PUSH1 0x0 KECCAK256 SWAP1 JUMP JUMPDEST ISZERO PUSH2 0x23A4 JUMPI JUMP JUMPDEST PUSH1 0x40 MLOAD PUSH3 0x461BCD PUSH1 0xE5 SHL DUP2 MSTORE PUSH1 0x20 PUSH1 0x4 DUP3 ADD MSTORE PUSH1 0x26 PUSH1 0x24 DUP3 ADD MSTORE PUSH32 0x4E6F74206F776E6572206F72204D697373696F6E466163746F72792061757468 PUSH1 0x44 DUP3 ADD MSTORE PUSH6 0x1BDC9A5E9959 PUSH1 0xD2 SHL PUSH1 0x64 DUP3 ADD MSTORE PUSH1 0x84 SWAP1 REVERT JUMPDEST PUSH2 0x200 DUP2 ADD SWAP1 DUP2 LT PUSH8 0xFFFFFFFFFFFFFFFF DUP3 GT OR PUSH2 0x2415 JUMPI PUSH1 0x40 MSTORE JUMP JUMPDEST PUSH4 0x4E487B71 PUSH1 0xE0 SHL PUSH1 0x0 MSTORE PUSH1 0x41 PUSH1 0x4 MSTORE PUSH1 0x24 PUSH1 0x0 REVERT JUMPDEST PUSH1 0x40 DUP2 ADD SWAP1 DUP2 LT PUSH8 0xFFFFFFFFFFFFFFFF DUP3 GT OR PUSH2 0x2415 JUMPI PUSH1 0x40 MSTORE JUMP JUMPDEST SWAP1 PUSH1 0x1F DUP1 NOT SWAP2 ADD AND DUP2 ADD SWAP1 DUP2 LT PUSH8 0xFFFFFFFFFFFFFFFF DUP3 GT OR PUSH2 0x2415 JUMPI PUSH1 0x40 MSTORE JUMP JUMPDEST PUSH1 0x0 NOT DUP2 EQ PUSH2 0x2478 JUMPI PUSH1 0x1 ADD SWAP1 JUMP JUMPDEST PUSH4 0x4E487B71 PUSH1 0xE0 SHL PUSH1 0x0 MSTORE PUSH1 0x11 PUSH1 0x4 MSTORE PUSH1 0x24 PUSH1 0x0 REVERT JUMPDEST PUSH8 0xFFFFFFFFFFFFFFFF DUP2 GT PUSH2 0x2415 JUMPI PUSH1 0x5 SHL PUSH1 0x20 ADD SWAP1 JUMP JUMPDEST SWAP1 PUSH2 0x24B0 DUP3 PUSH2 0x248E JUMP JUMPDEST PUSH2 0x24BD PUSH1 0x40 MLOAD SWAP2 DUP3 PUSH2 0x2447 JUMP JUMPDEST DUP3 DUP2 MSTORE DUP1 SWAP3 PUSH2 0x24CE PUSH1 0x1F NOT SWAP2 PUSH2 0x248E JUMP JUMPDEST ADD SWAP1 PUSH1 0x20 CALLDATASIZE SWAP2 ADD CALLDATACOPY JUMP JUMPDEST DUP1 MLOAD DUP3 LT ISZERO PUSH2 0x2356 JUMPI PUSH1 0x20 SWAP2 PUSH1 0x5 SHL ADD ADD SWAP1 JUMP JUMPDEST MLOAD SWAP1 PUSH1 0x1 PUSH1 0x1 PUSH1 0xA0 SHL SUB DUP3 AND DUP3 SUB PUSH2 0x2500 JUMPI JUMP JUMPDEST PUSH1 0x0 DUP1 REVERT JUMPDEST SWAP1 DUP1 PUSH1 0x1F DUP4 ADD SLT ISZERO PUSH2 0x2500 JUMPI DUP2 MLOAD PUSH2 0x251C DUP2 PUSH2 0x248E JUMP JUMPDEST SWAP3 PUSH2 0x252A PUSH1 0x40 MLOAD SWAP5 DUP6 PUSH2 0x2447 JUMP JUMPDEST DUP2 DUP5 MSTORE PUSH1 0x20 DUP1 DUP6 ADD SWAP3 PUSH1 0x5 SHL DUP3 ADD ADD SWAP3 DUP4 GT PUSH2 0x2500 JUMPI PUSH1 0x20 ADD SWAP1 JUMPDEST DUP3 DUP3 LT PUSH2 0x2552 JUMPI POP POP POP SWAP1 JUMP JUMPDEST PUSH1 0x20 DUP1 SWAP2 PUSH2 0x255F DUP5 PUSH2 0x24EC JUMP JUMPDEST DUP2 MSTORE ADD SWAP2 ADD SWAP1 PUSH2 0x2545 JUMP JUMPDEST MLOAD SWAP1 PUSH1 0xFF DUP3 AND DUP3 SUB PUSH2 0x2500 JUMPI JUMP JUMPDEST PUSH1 0x20 DUP2 DUP4 SUB SLT PUSH2 0x2500 JUMPI DUP1 MLOAD SWAP1 PUSH8 0xFFFFFFFFFFFFFFFF DUP3 GT PUSH2 0x2500 JUMPI ADD PUSH2 0x200 DUP2 DUP4 SUB SLT PUSH2 0x2500 JUMPI PUSH1 0x40 MLOAD SWAP2 PUSH2 0x25AD DUP4 PUSH2 0x23F8 JUMP JUMPDEST DUP2 MLOAD PUSH8 0xFFFFFFFFFFFFFFFF DUP2 GT PUSH2 0x2500 JUMPI DUP2 PUSH2 0x25CA SWAP2 DUP5 ADD PUSH2 0x2505 JUMP JUMPDEST DUP4 MSTORE PUSH1 0x20 DUP3 ADD MLOAD PUSH1 0x7 DUP2 LT ISZERO PUSH2 0x2500 JUMPI PUSH1 0x20 DUP5 ADD MSTORE PUSH1 0x40 DUP3 ADD MLOAD PUSH1 0x40 DUP5 ADD MSTORE PUSH1 0x60 DUP3 ADD MLOAD PUSH1 0x60 DUP5 ADD MSTORE PUSH1 0x80 DUP3 ADD MLOAD PUSH1 0x80 DUP5 ADD MSTORE PUSH2 0x2609 PUSH1 0xA0 DUP4 ADD PUSH2 0x256A JUMP JUMPDEST PUSH1 0xA0 DUP5 ADD MSTORE PUSH2 0x261A PUSH1 0xC0 DUP4 ADD PUSH2 0x256A JUMP JUMPDEST PUSH1 0xC0 DUP5 ADD MSTORE PUSH1 0xE0 DUP3 ADD MLOAD PUSH1 0xE0 DUP5 ADD MSTORE PUSH2 0x100 DUP3 ADD MLOAD PUSH2 0x100 DUP5 ADD MSTORE PUSH2 0x2642 PUSH2 0x120 DUP4 ADD PUSH2 0x256A JUMP JUMPDEST PUSH2 0x120 DUP5 ADD MSTORE PUSH2 0x2655 PUSH2 0x140 DUP4 ADD PUSH2 0x256A JUMP JUMPDEST PUSH2 0x140 DUP5 ADD MSTORE PUSH2 0x160 DUP3 ADD MLOAD PUSH2 0x160 DUP5 ADD MSTORE PUSH2 0x180 DUP3 ADD MLOAD PUSH2 0x180 DUP5 ADD MSTORE PUSH2 0x1A0 DUP3 ADD MLOAD PUSH8 0xFFFFFFFFFFFFFFFF DUP2 GT PUSH2 0x2500 JUMPI DUP3 ADD DUP2 PUSH1 0x1F DUP3 ADD SLT ISZERO PUSH2 0x2500 JUMPI DUP1 MLOAD PUSH2 0x26A0 DUP2 PUSH2 0x248E JUMP JUMPDEST SWAP2 PUSH2 0x26AE PUSH1 0x40 MLOAD SWAP4 DUP5 PUSH2 0x2447 JUMP JUMPDEST DUP2 DUP4 MSTORE PUSH1 0x20 DUP1 DUP5 ADD SWAP3 PUSH1 0x6 SHL DUP3 ADD ADD SWAP1 DUP5 DUP3 GT PUSH2 0x2500 JUMPI PUSH1 0x20 ADD SWAP2 JUMPDEST DUP2 DUP4 LT PUSH2 0x270E JUMPI POP POP POP PUSH2 0x1A0 DUP5 ADD MSTORE PUSH2 0x1C0 DUP3 ADD MLOAD PUSH2 0x1C0 DUP5 ADD MSTORE PUSH2 0x1E0 DUP3 ADD MLOAD PUSH8 0xFFFFFFFFFFFFFFFF DUP2 GT PUSH2 0x2500 JUMPI PUSH2 0x2705 SWAP3 ADD PUSH2 0x2505 JUMP JUMPDEST PUSH2 0x1E0 DUP3 ADD MSTORE SWAP1 JUMP JUMPDEST PUSH1 0x40 DUP4 DUP7 SUB SLT PUSH2 0x2500 JUMPI PUSH1 0x20 PUSH1 0x40 SWAP2 DUP3 MLOAD PUSH2 0x2728 DUP2 PUSH2 0x242B JUMP JUMPDEST PUSH2 0x2731 DUP7 PUSH2 0x24EC JUMP JUMPDEST DUP2 MSTORE DUP3 DUP7 ADD MLOAD DUP4 DUP3 ADD MSTORE DUP2 MSTORE ADD SWAP3 ADD SWAP2 PUSH2 0x26CA JUMP JUMPDEST SWAP2 SWAP1 DUP3 ADD DUP1 SWAP3 GT PUSH2 0x2478 JUMPI JUMP JUMPDEST SWAP2 SWAP1 DUP3 SUB SWAP2 DUP3 GT PUSH2 0x2478 JUMPI JUMP JUMPDEST ISZERO PUSH2 0x2767 JUMPI JUMP JUMPDEST PUSH1 0x40 MLOAD PUSH3 0x461BCD PUSH1 0xE5 SHL DUP2 MSTORE PUSH1 0x20 PUSH1 0x4 DUP3 ADD MSTORE PUSH1 0xF PUSH1 0x24 DUP3 ADD MSTORE PUSH15 0x496E76616C69642061646472657373 PUSH1 0x88 SHL PUSH1 0x44 DUP3 ADD MSTORE PUSH1 0x64 SWAP1 REVERT JUMPDEST PUSH1 0x2 SLOAD DUP1 ISZERO PUSH2 0x29FD JUMPI PUSH3 0x4F19FF NOT TIMESTAMP ADD SWAP2 TIMESTAMP DUP4 GT PUSH2 0x2478 JUMPI PUSH3 0x278CFF NOT TIMESTAMP ADD TIMESTAMP DUP2 GT PUSH2 0x2478 JUMPI PUSH1 0x0 SWAP3 SWAP2 DUP3 DUP1 JUMPDEST PUSH2 0x290F JUMPI JUMPDEST POP PUSH2 0x27DA DUP5 PUSH2 0x24A6 JUMP JUMPDEST SWAP1 PUSH2 0x27E4 DUP6 PUSH2 0x24A6 JUMP JUMPDEST SWAP4 PUSH1 0x0 SWAP1 JUMPDEST DUP1 ISZERO ISZERO DUP1 PUSH2 0x2906 JUMPI JUMPDEST ISZERO PUSH2 0x28FB JUMPI PUSH1 0x0 NOT ADD SWAP1 PUSH2 0x2805 DUP3 PUSH2 0x233B JUMP JUMPDEST PUSH1 0x1 DUP1 PUSH1 0xA0 SHL SUB SWAP2 SLOAD SWAP1 PUSH1 0x3 SHL SHR AND SWAP1 DUP2 PUSH1 0x0 MSTORE PUSH1 0xA PUSH1 0x20 MSTORE PUSH1 0xFF PUSH1 0x40 PUSH1 0x0 KECCAK256 SLOAD AND SWAP2 PUSH1 0x40 MLOAD PUSH4 0x1F385F79 PUSH1 0xE2 SHL DUP2 MSTORE PUSH1 0x0 DUP2 PUSH1 0x4 DUP2 DUP6 GAS STATICCALL DUP1 ISZERO PUSH2 0x28EF JUMPI DUP9 SWAP2 PUSH1 0x0 SWAP2 PUSH2 0x28D6 JUMPI JUMPDEST POP DUP12 PUSH1 0xE0 DUP3 ADD DUP2 DUP2 MLOAD LT DUP1 PUSH2 0x28B3 JUMPI JUMPDEST ISZERO PUSH2 0x28A8 JUMPI POP POP PUSH2 0x100 ADD MLOAD LT JUMPDEST PUSH2 0x289A JUMPI PUSH2 0x287A DUP3 DUP8 PUSH2 0x24D8 JUMP JUMPDEST MSTORE PUSH2 0x2885 DUP2 DUP9 PUSH2 0x24D8 JUMP JUMPDEST SWAP2 PUSH1 0x8 DUP2 LT ISZERO PUSH2 0x2289 JUMPI PUSH1 0x1 SWAP3 MSTORE ADD SWAP1 PUSH2 0x27E9 JUMP JUMPDEST POP POP POP POP SWAP4 POP SWAP2 SWAP4 POP POP SWAP2 SWAP1 JUMP JUMPDEST SWAP2 POP SWAP2 POP MLOAD LT PUSH2 0x286C JUMP JUMPDEST POP SWAP3 POP POP PUSH1 0x8 DUP6 LT ISZERO PUSH2 0x2289 JUMPI DUP12 DUP10 SWAP3 PUSH1 0x6 DUP8 EQ DUP1 PUSH2 0x285E JUMPI POP PUSH1 0x7 DUP8 EQ PUSH2 0x285E JUMP JUMPDEST PUSH2 0x28E9 SWAP2 RETURNDATASIZE DUP1 SWAP2 DUP4 RETURNDATACOPY PUSH2 0x1EA0 DUP2 DUP4 PUSH2 0x2447 JUMP JUMPDEST CODESIZE PUSH2 0x284E JUMP JUMPDEST PUSH1 0x40 MLOAD RETURNDATASIZE PUSH1 0x0 DUP3 RETURNDATACOPY RETURNDATASIZE SWAP1 REVERT JUMPDEST POP SWAP2 SWAP6 POP SWAP3 SWAP4 POP POP POP JUMP JUMPDEST POP DUP7 DUP3 LT PUSH2 0x27F2 JUMP JUMPDEST PUSH1 0x0 SWAP5 SWAP4 SWAP5 NOT ADD SWAP3 PUSH2 0x2920 DUP5 PUSH2 0x233B JUMP JUMPDEST PUSH1 0x1 DUP1 PUSH1 0xA0 SHL SUB SWAP2 SLOAD SWAP1 PUSH1 0x3 SHL SHR AND DUP1 PUSH1 0x0 MSTORE PUSH1 0xA PUSH1 0x20 MSTORE PUSH1 0x4 PUSH1 0x0 PUSH1 0xFF PUSH1 0x40 DUP3 KECCAK256 SLOAD AND SWAP3 PUSH1 0x40 MLOAD SWAP3 DUP4 DUP1 SWAP3 PUSH4 0x1F385F79 PUSH1 0xE2 SHL DUP3 MSTORE GAS STATICCALL SWAP1 DUP2 ISZERO PUSH2 0x28EF JUMPI DUP6 SWAP3 DUP10 SWAP2 PUSH1 0x0 SWAP4 PUSH2 0x29E2 JUMPI JUMPDEST POP PUSH1 0xE0 DUP4 ADD SWAP1 DUP3 DUP3 MLOAD LT SWAP1 DUP2 PUSH2 0x29B2 JUMPI JUMPDEST POP ISZERO PUSH2 0x29A7 JUMPI POP POP PUSH2 0x100 ADD MLOAD LT JUMPDEST PUSH2 0x29A0 JUMPI PUSH2 0x2999 DUP5 SWAP2 PUSH2 0x2469 JUMP JUMPDEST SWAP5 SWAP4 PUSH2 0x27CB JUMP JUMPDEST SWAP4 SWAP3 PUSH2 0x27D0 JUMP JUMPDEST SWAP2 POP SWAP2 POP MLOAD LT PUSH2 0x298B JUMP JUMPDEST SWAP3 POP POP SWAP3 POP PUSH1 0x8 DUP2 LT ISZERO PUSH2 0x2289 JUMPI DUP6 SWAP3 DUP2 PUSH1 0x6 DUP12 SWAP4 EQ SWAP1 DUP2 ISZERO PUSH2 0x29D7 JUMPI JUMPDEST POP CODESIZE PUSH2 0x297C JUMP JUMPDEST PUSH1 0x7 SWAP2 POP EQ CODESIZE PUSH2 0x29D0 JUMP JUMPDEST PUSH2 0x29F6 SWAP2 SWAP4 RETURNDATASIZE DUP1 SWAP2 DUP4 RETURNDATACOPY PUSH2 0x1EA0 DUP2 DUP4 PUSH2 0x2447 JUMP JUMPDEST SWAP2 CODESIZE PUSH2 0x296B JUMP JUMPDEST POP PUSH1 0x20 SWAP1 PUSH1 0x40 MLOAD PUSH2 0x2A0E DUP4 DUP3 PUSH2 0x2447 JUMP JUMPDEST PUSH1 0x0 DUP2 MSTORE PUSH1 0x0 CALLDATASIZE DUP2 CALLDATACOPY PUSH1 0x40 MLOAD SWAP3 PUSH2 0x2A25 DUP2 DUP6 PUSH2 0x2447 JUMP JUMPDEST PUSH1 0x0 DUP5 MSTORE POP PUSH1 0x0 CALLDATASIZE DUP2 CALLDATACOPY SWAP2 SWAP1 JUMP JUMPDEST PUSH1 0x1 PUSH1 0x1 PUSH1 0xA0 SHL SUB AND PUSH1 0x0 SWAP1 DUP2 MSTORE PUSH1 0xD PUSH1 0x20 MSTORE PUSH1 0x40 DUP2 KECCAK256 DUP1 SLOAD DUP3 SWAP2 DUP3 SWAP2 DUP3 SWAP2 DUP3 JUMPDEST DUP3 DUP2 LT PUSH2 0x2B1B JUMPI POP POP POP PUSH1 0x3 SLOAD SWAP2 PUSH1 0xFF DUP4 AND GT SWAP1 PUSH1 0xFF DUP3 ISZERO SWAP4 PUSH1 0x8 SHR AND GT SWAP2 DUP3 ISZERO SWAP3 DUP3 DUP1 PUSH2 0x2B14 JUMPI JUMPDEST PUSH2 0x2B06 JUMPI DUP2 PUSH2 0x2AFE JUMPI JUMPDEST POP PUSH2 0x2AF2 JUMPI DUP2 PUSH2 0x2AEA JUMPI JUMPDEST POP PUSH2 0x2AE0 JUMPI PUSH3 0x93A80 DUP2 ADD DUP1 SWAP2 GT PUSH2 0x2478 JUMPI PUSH2 0x2AAF SWAP1 TIMESTAMP SWAP1 PUSH2 0x2753 JUMP JUMPDEST SWAP1 PUSH3 0x278D00 DUP2 ADD DUP1 SWAP2 GT PUSH2 0x2478 JUMPI PUSH2 0x2AC8 SWAP1 TIMESTAMP SWAP1 PUSH2 0x2753 JUMP JUMPDEST GT ISZERO PUSH2 0x2AD8 JUMPI PUSH1 0x2 SWAP1 JUMPDEST PUSH1 0x0 SWAP2 SWAP1 JUMP JUMPDEST PUSH1 0x1 SWAP1 PUSH2 0x2AD2 JUMP JUMPDEST POP POP PUSH1 0x0 SWAP1 PUSH1 0x2 SWAP1 JUMP JUMPDEST SWAP1 POP CODESIZE PUSH2 0x2A92 JUMP JUMPDEST POP POP POP POP PUSH1 0x0 SWAP1 PUSH1 0x1 SWAP1 JUMP JUMPDEST SWAP1 POP CODESIZE PUSH2 0x2A87 JUMP JUMPDEST POP POP POP POP POP POP PUSH1 0x1 SWAP1 PUSH1 0x0 SWAP1 JUMP JUMPDEST POP DUP1 PUSH2 0x2A7D JUMP JUMPDEST PUSH2 0x2B25 DUP2 DUP4 PUSH2 0x236C JUMP JUMPDEST SWAP1 SLOAD SWAP1 PUSH1 0x3 SHL SHR PUSH3 0x278D00 DUP2 ADD DUP1 DUP3 GT PUSH2 0x2478 JUMPI TIMESTAMP LT PUSH2 0x2B49 JUMPI JUMPDEST POP PUSH1 0x1 ADD PUSH2 0x2A54 JUMP JUMPDEST SWAP4 PUSH2 0x2B53 SWAP1 PUSH2 0x2469 JUMP JUMPDEST SWAP4 DUP8 ISZERO DUP1 ISZERO PUSH2 0x2BA9 JUMPI JUMPDEST PUSH2 0x2BA1 JUMPI JUMPDEST PUSH3 0x93A80 DUP2 ADD DUP1 DUP3 GT PUSH2 0x2478 JUMPI TIMESTAMP LT ISZERO PUSH2 0x2B40 JUMPI SWAP5 PUSH2 0x2B80 SWAP1 PUSH2 0x2469 JUMP JUMPDEST SWAP5 DUP7 ISZERO DUP1 ISZERO PUSH2 0x2B98 JUMPI JUMPDEST ISZERO PUSH2 0x2B40 JUMPI SWAP6 POP PUSH1 0x1 PUSH2 0x2B40 JUMP JUMPDEST POP DUP7 DUP2 LT PUSH2 0x2B8A JUMP JUMPDEST SWAP7 POP DUP7 PUSH2 0x2B62 JUMP JUMPDEST POP DUP8 DUP2 LT PUSH2 0x2B5D JUMP JUMPDEST ISZERO PUSH2 0x2BB9 JUMPI JUMP JUMPDEST PUSH1 0x40 MLOAD PUSH3 0x461BCD PUSH1 0xE5 SHL DUP2 MSTORE PUSH1 0x20 PUSH1 0x4 DUP3 ADD MSTORE PUSH1 0x36 PUSH1 0x24 DUP3 ADD MSTORE PUSH32 0x4D697373696F6E466163746F72793A2063616C6C6572206973206E6F74206120 PUSH1 0x44 DUP3 ADD MSTORE PUSH22 0x1D985B1A59081B5A5CDCDA5BDB8818DBDB9D1C9858DD PUSH1 0x52 SHL PUSH1 0x64 DUP3 ADD MSTORE PUSH1 0x84 SWAP1 REVERT JUMPDEST PUSH1 0x2 PUSH1 0x1 SLOAD EQ PUSH2 0x2C2E JUMPI PUSH1 0x2 PUSH1 0x1 SSTORE JUMP JUMPDEST PUSH4 0x3EE5AEB5 PUSH1 0xE0 SHL PUSH1 0x0 MSTORE PUSH1 0x4 PUSH1 0x0 REVERT JUMPDEST PUSH1 0x0 SLOAD PUSH1 0x1 PUSH1 0x1 PUSH1 0xA0 SHL SUB AND CALLER SUB PUSH2 0x2C53 JUMPI JUMP JUMPDEST PUSH4 0x118CDAA7 PUSH1 0xE0 SHL PUSH1 0x0 MSTORE CALLER PUSH1 0x4 MSTORE PUSH1 0x24 PUSH1 0x0 REVERT JUMPDEST PUSH1 0x0 DUP1 SLOAD PUSH1 0x1 PUSH1 0x1 PUSH1 0xA0 SHL SUB SWAP3 DUP4 AND PUSH1 0x1 PUSH1 0x1 PUSH1 0xA0 SHL SUB NOT DUP3 AND DUP2 OR DUP4 SSTORE SWAP3 AND SWAP1 PUSH32 0x8BE0079C531659141344CD1FD0A4F28419497F9722A3DAAFE3B4186F6B6457E0 SWAP1 DUP1 LOG3 JUMP INVALID LOG2 PUSH5 0x6970667358 0x22 SLT KECCAK256 SWAP14 0xBC 0xDF 0xEB PUSH3 0x17BDAE 0x24 0xED GAS 0xE9 PUSH8 0x5AD9D3831F8FEA8B STATICCALL SSTORE 0x22 0xB6 0xE9 CHAINID 0x25 0xD4 AND 0x22 0xBF PUSH5 0x736F6C6343 STOP ADDMOD 0x1E STOP CALLER "},"methodIdentifiers":{"OWNERSHIP_PROPOSAL_WINDOW()":"d3050eba","addAuthorizedAddress(address)":"42f1181e","authorized(address)":"b9181611","canEnroll(address)":"9804a586","confirmOwnershipTransfer(address)":"3c213957","createMission(uint8,uint256,uint256,uint256,uint8,uint8,uint256,uint256,uint8)":"9b159539","getAllMissions()":"6d8a1390","getFundsByType(uint8)":"2e33b07f","getLatestMissions(uint256)":"7e9eae50","getMissionData(address)":"20c5718f","getMissionsByStatus(uint8)":"1e59d584","getMissionsEnded()":"b6202913","getMissionsNotEnded()":"6805036d","getPlayerLimits(address)":"cbf2080d","getTotalMissions()":"5c5bb6f2","isMission(address)":"aa1f0595","missionImplementation()":"bd487725","missionStatus(address)":"0814ab82","missions(uint256)":"2c8fe526","monthlyLimit()":"0a6005da","owner()":"8da5cb5b","ownershipProposals(address)":"fb4cdea7","proposeOwnershipTransfer(address)":"21040fc3","recordEnrollment(address)":"c17f9e59","registerMissionFunds(uint8)":"a9bea789","removeAuthorizedAddress(address)":"70712939","renounceOwnership()":"715018a6","reservedFunds(uint8)":"c416ad2a","reservedFundsBreakdown()":"df4db463","secondsTillMonthlySlot(address)":"37012762","secondsTillWeeklySlot(address)":"eff0ab92","setEnrollmentLimits(uint8,uint8)":"d41eca64","setMissionStatus(uint8)":"d8d6e8ff","totalMissionFailures()":"83fbea51","totalMissionFunds()":"63679723","totalMissionSuccesses()":"c892fde3","totalOwnerEarnedFunds()":"3589cf72","transferOwnership(address)":"f2fde38b","weeklyLimit()":"861a68d6","withdrawFunds(uint256)":"155dd5ee"}}}}}