{"contracts/MissionFactory.sol":{"MissionFactory":{"abi":[{"inputs":[],"stateMutability":"nonpayable","type":"constructor"},{"inputs":[],"name":"FailedDeployment","type":"error"},{"inputs":[{"internalType":"uint256","name":"balance","type":"uint256"},{"internalType":"uint256","name":"needed","type":"uint256"}],"name":"InsufficientBalance","type":"error"},{"inputs":[{"internalType":"address","name":"owner","type":"address"}],"name":"OwnableInvalidOwner","type":"error"},{"inputs":[{"internalType":"address","name":"account","type":"address"}],"name":"OwnableUnauthorizedAccount","type":"error"},{"inputs":[],"name":"ReentrancyGuardReentrantCall","type":"error"},{"anonymous":false,"inputs":[{"indexed":true,"internalType":"address","name":"addr","type":"address"}],"name":"AuthorizedAddressAdded","type":"event"},{"anonymous":false,"inputs":[{"indexed":true,"internalType":"address","name":"addr","type":"address"}],"name":"AuthorizedAddressRemoved","type":"event"},{"anonymous":false,"inputs":[{"indexed":false,"internalType":"uint8","name":"newWeekly","type":"uint8"},{"indexed":false,"internalType":"uint8","name":"newMonthly","type":"uint8"}],"name":"EnrollmentLimitUpdated","type":"event"},{"anonymous":false,"inputs":[{"indexed":true,"internalType":"address","name":"user","type":"address"},{"indexed":false,"internalType":"uint256","name":"timestamp","type":"uint256"}],"name":"EnrollmentRecorded","type":"event"},{"anonymous":false,"inputs":[{"indexed":true,"internalType":"address","name":"sender","type":"address"},{"indexed":false,"internalType":"uint256","name":"amount","type":"uint256"}],"name":"FundsReceived","type":"event"},{"anonymous":false,"inputs":[{"indexed":true,"internalType":"address","name":"to","type":"address"},{"indexed":false,"internalType":"uint256","name":"amount","type":"uint256"}],"name":"FundsWithdrawn","type":"event"},{"anonymous":false,"inputs":[{"indexed":true,"internalType":"address","name":"missionAddress","type":"address"},{"indexed":true,"internalType":"enum MissionType","name":"missionType","type":"uint8"}],"name":"MissionCreated","type":"event"},{"anonymous":false,"inputs":[{"indexed":false,"internalType":"uint256","name":"amount","type":"uint256"},{"indexed":true,"internalType":"enum MissionType","name":"missionType","type":"uint8"},{"indexed":true,"internalType":"address","name":"sender","type":"address"}],"name":"MissionFundsRegistered","type":"event"},{"anonymous":false,"inputs":[{"indexed":true,"internalType":"address","name":"confirmer","type":"address"},{"indexed":false,"internalType":"address","name":"newOwner","type":"address"},{"indexed":false,"internalType":"uint256","name":"timestamp","type":"uint256"}],"name":"OwnershipTransferConfirmed","type":"event"},{"anonymous":false,"inputs":[{"indexed":true,"internalType":"address","name":"proposer","type":"address"},{"indexed":false,"internalType":"address","name":"newOwner","type":"address"},{"indexed":false,"internalType":"uint256","name":"timestamp","type":"uint256"}],"name":"OwnershipTransferProposed","type":"event"},{"anonymous":false,"inputs":[{"indexed":true,"internalType":"address","name":"previousOwner","type":"address"},{"indexed":true,"internalType":"address","name":"newOwner","type":"address"}],"name":"OwnershipTransferred","type":"event"},{"stateMutability":"payable","type":"fallback"},{"inputs":[],"name":"OWNERSHIP_PROPOSAL_WINDOW","outputs":[{"internalType":"uint256","name":"","type":"uint256"}],"stateMutability":"view","type":"function"},{"inputs":[{"internalType":"address","name":"account","type":"address"}],"name":"addAuthorizedAddress","outputs":[],"stateMutability":"nonpayable","type":"function"},{"inputs":[{"internalType":"address","name":"","type":"address"}],"name":"authorized","outputs":[{"internalType":"bool","name":"","type":"bool"}],"stateMutability":"view","type":"function"},{"inputs":[{"internalType":"address","name":"user","type":"address"}],"name":"canEnroll","outputs":[{"internalType":"bool","name":"ok","type":"bool"},{"internalType":"enum Limit","name":"breach","type":"uint8"}],"stateMutability":"view","type":"function"},{"inputs":[{"internalType":"address","name":"newOwner","type":"address"}],"name":"confirmOwnershipTransfer","outputs":[],"stateMutability":"nonpayable","type":"function"},{"inputs":[{"internalType":"enum MissionType","name":"_missionType","type":"uint8"},{"internalType":"uint256","name":"_enrollmentStart","type":"uint256"},{"internalType":"uint256","name":"_enrollmentEnd","type":"uint256"},{"internalType":"uint256","name":"_enrollmentAmount","type":"uint256"},{"internalType":"uint8","name":"_enrollmentMinPlayers","type":"uint8"},{"internalType":"uint8","name":"_enrollmentMaxPlayers","type":"uint8"},{"internalType":"uint256","name":"_missionStart","type":"uint256"},{"internalType":"uint256","name":"_missionEnd","type":"uint256"},{"internalType":"uint8","name":"_missionRounds","type":"uint8"}],"name":"createMission","outputs":[{"internalType":"address","name":"","type":"address"}],"stateMutability":"payable","type":"function"},{"inputs":[],"name":"getAllMissions","outputs":[{"internalType":"address[]","name":"","type":"address[]"},{"internalType":"enum Status[]","name":"","type":"uint8[]"}],"stateMutability":"view","type":"function"},{"inputs":[{"internalType":"enum MissionType","name":"_type","type":"uint8"}],"name":"getFundsByType","outputs":[{"internalType":"uint256","name":"","type":"uint256"}],"stateMutability":"view","type":"function"},{"inputs":[{"internalType":"uint256","name":"n","type":"uint256"}],"name":"getLatestMissions","outputs":[{"internalType":"address[]","name":"","type":"address[]"}],"stateMutability":"view","type":"function"},{"inputs":[{"internalType":"address","name":"missionAddress","type":"address"}],"name":"getMissionData","outputs":[{"components":[{"internalType":"address[]","name":"players","type":"address[]"},{"internalType":"enum MissionType","name":"missionType","type":"uint8"},{"internalType":"uint256","name":"enrollmentStart","type":"uint256"},{"internalType":"uint256","name":"enrollmentEnd","type":"uint256"},{"internalType":"uint256","name":"enrollmentAmount","type":"uint256"},{"internalType":"uint8","name":"enrollmentMinPlayers","type":"uint8"},{"internalType":"uint8","name":"enrollmentMaxPlayers","type":"uint8"},{"internalType":"uint256","name":"missionStart","type":"uint256"},{"internalType":"uint256","name":"missionEnd","type":"uint256"},{"internalType":"uint8","name":"missionRounds","type":"uint8"},{"internalType":"uint8","name":"roundCount","type":"uint8"},{"internalType":"uint256","name":"ethStart","type":"uint256"},{"internalType":"uint256","name":"ethCurrent","type":"uint256"},{"components":[{"internalType":"address","name":"player","type":"address"},{"internalType":"uint256","name":"amountWon","type":"uint256"}],"internalType":"struct Mission.PlayersWon[]","name":"playersWon","type":"tuple[]"},{"internalType":"uint256","name":"pauseTimestamp","type":"uint256"},{"internalType":"address[]","name":"refundedPlayers","type":"address[]"}],"internalType":"struct Mission.MissionData","name":"","type":"tuple"}],"stateMutability":"view","type":"function"},{"inputs":[{"internalType":"enum Status","name":"s","type":"uint8"}],"name":"getMissionsByStatus","outputs":[{"internalType":"address[]","name":"","type":"address[]"}],"stateMutability":"view","type":"function"},{"inputs":[],"name":"getMissionsEnded","outputs":[{"internalType":"address[]","name":"","type":"address[]"}],"stateMutability":"view","type":"function"},{"inputs":[],"name":"getMissionsNotEnded","outputs":[{"internalType":"address[]","name":"","type":"address[]"}],"stateMutability":"view","type":"function"},{"inputs":[{"internalType":"address","name":"player","type":"address"}],"name":"getPlayerLimits","outputs":[{"internalType":"uint8","name":"weekUsed","type":"uint8"},{"internalType":"uint8","name":"weekMax","type":"uint8"},{"internalType":"uint8","name":"monthUsed","type":"uint8"},{"internalType":"uint8","name":"monthMax","type":"uint8"},{"internalType":"uint256","name":"secToWeek","type":"uint256"},{"internalType":"uint256","name":"secToMonth","type":"uint256"}],"stateMutability":"view","type":"function"},{"inputs":[{"internalType":"address","name":"","type":"address"}],"name":"isMission","outputs":[{"internalType":"bool","name":"","type":"bool"}],"stateMutability":"view","type":"function"},{"inputs":[],"name":"missionImplementation","outputs":[{"internalType":"address","name":"","type":"address"}],"stateMutability":"view","type":"function"},{"inputs":[{"internalType":"address","name":"","type":"address"}],"name":"missionStatus","outputs":[{"internalType":"enum Status","name":"","type":"uint8"}],"stateMutability":"view","type":"function"},{"inputs":[{"internalType":"uint256","name":"","type":"uint256"}],"name":"missions","outputs":[{"internalType":"address","name":"","type":"address"}],"stateMutability":"view","type":"function"},{"inputs":[],"name":"monthlyLimit","outputs":[{"internalType":"uint8","name":"","type":"uint8"}],"stateMutability":"view","type":"function"},{"inputs":[],"name":"owner","outputs":[{"internalType":"address","name":"","type":"address"}],"stateMutability":"view","type":"function"},{"inputs":[{"internalType":"address","name":"","type":"address"}],"name":"ownershipProposals","outputs":[{"internalType":"address","name":"proposer","type":"address"},{"internalType":"uint256","name":"timestamp","type":"uint256"}],"stateMutability":"view","type":"function"},{"inputs":[{"internalType":"address","name":"newOwner","type":"address"}],"name":"proposeOwnershipTransfer","outputs":[],"stateMutability":"nonpayable","type":"function"},{"inputs":[{"internalType":"address","name":"user","type":"address"}],"name":"recordEnrollment","outputs":[],"stateMutability":"nonpayable","type":"function"},{"inputs":[{"internalType":"uint256","name":"amount","type":"uint256"},{"internalType":"enum MissionType","name":"missionType","type":"uint8"}],"name":"registerMissionFunds","outputs":[],"stateMutability":"nonpayable","type":"function"},{"inputs":[{"internalType":"address","name":"account","type":"address"}],"name":"removeAuthorizedAddress","outputs":[],"stateMutability":"nonpayable","type":"function"},{"inputs":[],"name":"renounceOwnership","outputs":[],"stateMutability":"nonpayable","type":"function"},{"inputs":[{"internalType":"enum MissionType","name":"","type":"uint8"}],"name":"reservedFunds","outputs":[{"internalType":"uint256","name":"","type":"uint256"}],"stateMutability":"view","type":"function"},{"inputs":[],"name":"reservedFundsBreakdown","outputs":[{"internalType":"uint256[7]","name":"","type":"uint256[7]"}],"stateMutability":"view","type":"function"},{"inputs":[{"internalType":"address","name":"user","type":"address"}],"name":"secondsTillMonthlySlot","outputs":[{"internalType":"uint256","name":"","type":"uint256"}],"stateMutability":"view","type":"function"},{"inputs":[{"internalType":"address","name":"user","type":"address"}],"name":"secondsTillWeeklySlot","outputs":[{"internalType":"uint256","name":"","type":"uint256"}],"stateMutability":"view","type":"function"},{"inputs":[{"internalType":"uint8","name":"_weekly","type":"uint8"},{"internalType":"uint8","name":"_monthly","type":"uint8"}],"name":"setEnrollmentLimits","outputs":[],"stateMutability":"nonpayable","type":"function"},{"inputs":[{"internalType":"enum Status","name":"newStatus","type":"uint8"}],"name":"setMissionStatus","outputs":[],"stateMutability":"nonpayable","type":"function"},{"inputs":[{"internalType":"address","name":"newOwner","type":"address"}],"name":"transferOwnership","outputs":[],"stateMutability":"nonpayable","type":"function"},{"inputs":[],"name":"weeklyLimit","outputs":[{"internalType":"uint8","name":"","type":"uint8"}],"stateMutability":"view","type":"function"},{"inputs":[{"internalType":"uint256","name":"amount","type":"uint256"}],"name":"withdrawFunds","outputs":[],"stateMutability":"nonpayable","type":"function"},{"stateMutability":"payable","type":"receive"}],"evm":{"bytecode":{"linkReferences":{},"object":"60808060405234610159576000903315610145578154336001600160a01b0319821681178455906001600160a01b03167f8be0079c531659141344cd1fd0a4f28419497f9722a3daafe3b4186f6b6457e08480a360018055600a805461ffff1916610a04179055612bc0818101906001600160401b0382118383101761013157908291612e1e8339039082f08015610124576001600160a01b031690813b156101215760405163f2fde38b60e01b815260048101829052818160248183875af18015610116576100eb575b600780546001600160a01b03191684179055604051612cbf908161015f8239f35b6001600160401b03811161010257604052386100ca565b634e487b7160e01b82526041600452602482fd5b6040513d84823e3d90fd5b80fd5b50604051903d90823e3d90fd5b634e487b7160e01b84526041600452602484fd5b631e4fbdf760e01b82526004829052602482fd5b600080fdfe6080806040526004361015610011575b005b600090813560e01c9081630814ab82146122f1575080630a6005da146122cd578063155dd5ee1461210b5780631e59d58414611fca57806320c5718f14611d6957806321040fc314611c415780632c8fe52614611bfd5780632e33b07f146106fe5780633701276214611b1e5780633c2139571461190b57806342f1181e1461181a5780636805036d146116695780636d8a1390146115ef5780637071293914611504578063715018a6146114aa5780637e9eae5014611417578063861a68d6146113f65780638da5cb5b146113cf5780639804a586146113855780639b15953914610e755780639c3d3a2014610ce8578063aa1f059514610ca6578063b6202913146109d0578063b91816111461098e578063bd48772514610965578063c17f9e5914610731578063c416ad2a146106fe578063cbf2080d14610567578063d3050eba14610549578063d41eca641461049b578063d8d6e8ff146103e8578063df4db46314610361578063eff0ab9214610254578063f2fde38b146101fd5763fb4cdea70361000f57346101fa5760203660031901126101fa576004356001600160a01b038116908190036101f857815260086020908152604091829020805460019091015483516001600160a01b0390921682529181019190915290819081015b0390f35b505b80fd5b50346101fa5760203660031901126101fa576004356001600160a01b0381168082036102505761022b612c19565b1561023c5761023990612c42565b80f35b631e4fbdf760e01b82526004829052602482fd5b8280fd5b50346101fa5760203660031901126101fa576004356001600160a01b038116908190036101f857815260096020526040812080548291825b8281106102dc57505050816102a857602091505b604051908152f35b62093a8082018092116102c857506102c360209142906127ba565b6102a0565b634e487b7160e01b81526011600452602490fd5b6102e681836123d3565b90549060031b1c62093a80810180911161034d574210610309575b60010161028c565b84158015610334575b15610301579350600161032585836123d3565b90549060031b1c949050610301565b508461034082846123d3565b90549060031b1c10610312565b634e487b7160e01b85526011600452602485fd5b50346101fa57806003193601126101fa5760e0908160405161038382826124ae565b3690376040519061039483836124ae565b82368337805b60078110156103bd576001906103af816123eb565b548160051b8501520161039a565b506040519190825b600782106103d257505050f35b60208060019285518152019301910190916103c5565b50346101fa5760203660031901126101fa5760043560088110156101f857338252600560205260ff60408320541615610437573382526004602052604082209060ff8019835416911617905580f35b60405162461bcd60e51b815260206004820152603660248201527f4d697373696f6e466163746f72793a2063616c6c6572206973206e6f742061206044820152751d985b1a59081b5a5cdcda5bdb8818dbdb9d1c9858dd60521b6064820152608490fd5b50346101fa5760403660031901126101fa5760043560ff81168091036101f85760243560ff811691828203610545577f321994b8855ae38e4fd6162f7a0bd7cde88be83aa3acc96e03c17b7f733b43e19260409260018060a01b0386541633148015610530575b61050b90612404565b8261ff00600a549260081b169161ffff19161717600a5582519182526020820152a180f35b5033865260026020528386205460ff16610502565b8380fd5b50346101fa57806003193601126101fa576020604051620151808152f35b50346101fa5760203660031901126101fa576004356001600160a01b038116908190036101f85781526009602052604081208190829083809181908054915b82811061065357505050600a54948015600014610621575080915b806105fb575060c09460ff8092945b8160405197168752818316602088015216604086015260081c166060840152608083015260a0820152f35b9062278d0082018092116102c8575060c09460ff61061b819342906127ba565b946105d0565b62093a80810180911161063f576106399042906127ba565b916105c1565b634e487b7160e01b82526011600452602482fd5b61065d81836123d3565b90549060031b1c62278d0081018082116106d9574210610681575b506001016105a6565b9561068b906124d0565b95851580156106f5575b6106ed575b62093a8081018082116106d95742101561067857966106b8906124d0565b96881580156106d0575b156106785797506001610678565b508881106106c2565b634e487b7160e01b86526011600452602486fd5b94508461069a565b50858110610695565b50346101fa5760203660031901126101fa576004359060078210156101fa576020610728836123eb565b54604051908152f35b50346101fa5760203660031901126101fa576004356001600160a01b038116908190036101f857338252600460205260ff60408320541660088110156109515760010361091b5762278cff1942019042821161090757808352600960205260408320805492845b848110806108ee575b156107b4576107af906124d0565b610798565b838387928061083a575b50805490600160401b82101561082657816107e19160016107f9940181556123d3565b429082549060031b91821b91600019901b1916179055565b7f498f5e6dcf570483a1848853791046a7f10012193176d71f959f46eb7713d7446020604051428152a280f35b634e487b7160e01b84526041600452602484fd5b92805b6108488584546127ba565b8110156108985780610892610868610862886001956127ad565b866123d3565b90549060031b1c61087983876123d3565b90919082549060031b91821b91600019901b1916179055565b0161083d565b5092835b8181106108a957506107be565b825480156108da5760019190600019016108c381866123d3565b8154906000199060031b1b1916905584550161089c565b634e487b7160e01b86526031600452602486fd5b50816108fa82856123d3565b90549060031b1c106107a1565b634e487b7160e01b83526011600452602483fd5b60405162461bcd60e51b815260206004820152600e60248201526d24b73b30b634b21031b0b63632b960911b6044820152606490fd5b634e487b7160e01b83526021600452602483fd5b50346101fa57806003193601126101fa576007546040516001600160a01b039091168152602090f35b50346101fa5760203660031901126101fa576004356001600160a01b038116908190036101f85760408260ff9260209452600284522054166040519015158152f35b50346101fa57806003193601126101fa5762278cff19420142811161063f5760065482835b828110610b7d5750610a069061250d565b918390845b838110610a2857604051602080825281906101f490820188612358565b610a31816123a2565b905460039190911b1c6001600160a01b031686526004602052604086205460ff166008811015610b6957600614908115610b2b575b81610aaa575b600191610a7a575b01610a0b565b610a83816123a2565b838060a01b0391549060031b1c16610aa4610a9d866124d0565b958861253f565b52610a74565b6004915086610ab8826123a2565b9054604051631f385f7960e21b81529485929091839160031b1c6001600160a01b03165afa8015610b205761010084916001948a91610afe575b50015110159150610a6c565b610b1a91503d808c833e610b1281836124ae565b8101906125df565b38610af2565b6040513d89823e3d90fd5b9050610b36816123a2565b905460039190911b1c6001600160a01b031686526004602052604086205460ff166008811015610b695760071490610a66565b634e487b7160e01b87526021600452602487fd5b610b86816123a2565b905460039190911b1c6001600160a01b031685526004602052604085205460ff166008811015610c92576006148015610c56575b80610be1575b610bcd575b6001016109f5565b90610bd96001916124d0565b919050610bc5565b50600485610bee836123a2565b9054604051631f385f7960e21b81529384929091839160031b1c6001600160a01b03165afa908115610c4b578591610100918891610c31575b5001511015610bc0565b610c4591503d808a833e610b1281836124ae565b38610c27565b6040513d88823e3d90fd5b50610c60816123a2565b905460039190911b1c6001600160a01b031685526004602052604085205460ff166008811015610c9257600714610bba565b634e487b7160e01b86526021600452602486fd5b50346101fa5760203660031901126101fa576004356001600160a01b038116908190036101f85760408260ff9260209452600584522054166040519015158152f35b50346101fa5760403660031901126101fa576004356024356007811015610250578115610e3157338352600460205260ff6040842054166008811015610e1d576006148015610dfb575b83546001600160a01b031633148015610de5575b8115610ddd575b5015610d9857610d5c816123eb565b610d678382546127ad565b90556040519182527f606617fd09d9890413e3c46147b844d4562351f86e0f7a5c60849bbf0ef0281160203393a380f35b60405162461bcd60e51b815260206004820152601d60248201527f43616c6c6572206e6f742061206d697373696f6e206f722061646d696e0000006044820152606490fd5b905038610d4d565b50338452600260205260ff604085205416610d46565b50338352600460205260ff6040842054166008811015610e1d57600714610d32565b634e487b7160e01b84526021600452602484fd5b606460405162461bcd60e51b815260206004820152602060248201527f416d6f756e74206d7573742062652067726561746572207468616e207a65726f6044820152fd5b506101203660031901126101fa5760043560078110156101f857602435906044359160643560843560ff81168091036113815760a43560ff811680910361137d5760c4359060e43592610104359460ff86168096036113795789546001600160a01b031633148015611363575b610eeb90612404565b60058610611304578582106112995788871015611248578884106111ea57838511156111a657801561114d57600754608881901c62ffffff16763d602d80600a3d3981f3363d3d373d3d3d363d73000000178b5260781b6effffffffffffffffffffffffffffff19166e5af43d82803e903d91602b57fd5bf3176020526001600160a01b03603760098cf01698891561113e57898b52600560205260408b20600160ff19825416179055898b52600460205260408b2060ff19815416905560018060a01b038b5416978a3b1561113a576040519863c54168b360e01b8a5260048a01523060248a0152610fe160448a018b612395565b6064890152608488015260a487015260c486015260e485015261010484015261012483015261014482015283816101648134875af1801561112f5761111b575b50600654600160401b8110156108265780600161104192016006556123a2565b81546001600160a01b0360039290921b91821b19169084901b17905580827f0ac1ac89285bf936f515aafcf6808b3e062e77fd57f52c8892d20fc9409b8b538580a361108c816123eb565b5460021c9081151580611111575b6110aa575b602083604051908152f35b6110b3906123eb565b6110be8282546127ba565b905582823b156101fa5760405163eb2bab7760e01b81529182906004908290865af18015611106576110f1575b8061109f565b6110fc8380926124ae565b6101f857816110eb565b6040513d85823e3d90fd5b508147101561109a565b83611128919492946124ae565b9138611021565b6040513d86823e3d90fd5b8b80fd5b63b06ebf3d60e01b8b5260048bfd5b60405162461bcd60e51b815260206004820152602b60248201527f456e726f6c6c6d656e7420616d6f756e74206d7573742062652067726561746560448201526a72207468616e207a65726f60a81b6064820152608490fd5b606460405162461bcd60e51b815260206004820152602060248201527f4d697373696f6e207374617274206d757374206265206265666f726520656e646044820152fd5b60405162461bcd60e51b815260206004820152603060248201527f4d697373696f6e207374617274206d757374206265206f6e206f72206166746560448201526f1c88195b9c9bdb1b1b595b9d08195b9960821b6064820152608490fd5b60405162461bcd60e51b815260206004820152602360248201527f456e726f6c6c6d656e74207374617274206d757374206265206265666f726520604482015262195b9960ea1b6064820152608490fd5b60405162461bcd60e51b815260206004820152603f60248201527f4d696e696d756d20706c6179657273206d75737420626520677265617465722060448201527f7468616e206f7220657175616c20746f206d697373696f6e20726f756e6473006064820152608490fd5b60405162461bcd60e51b815260206004820152603160248201527f4d697373696f6e20726f756e6473206d7573742062652067726561746572207460448201527068616e206f7220657175616c20746f203560781b6064820152608490fd5b50338a52600260205260408a205460ff16610ee2565b8980fd5b8680fd5b8580fd5b50346101fa5760203660031901126101fa576004356001600160a01b03811681036101f8576113b390612a9a565b6040519115158252600381101561095157604092506020820152f35b50346101fa57806003193601126101fa57546040516001600160a01b039091168152602090f35b50346101fa57806003193601126101fa57602060ff600a5416604051908152f35b50346101fa5760203660031901126101fa57600654906004358281116114a3575b6114418161250d565b91806000198501948511905b83811061146a57604051602080825281906101f490820188612358565b81610907578061148461147f600193896127ba565b6123a2565b838060a01b0391549060031b1c1661149c828861253f565b520161144d565b5081611438565b50346101fa57806003193601126101fa576114c3612c19565b80546001600160a01b03198116825581906001600160a01b03167f8be0079c531659141344cd1fd0a4f28419497f9722a3daafe3b4186f6b6457e08280a380f35b50346101fa5760203660031901126101fa576004356001600160a01b038116908190036101f85781546001600160a01b0316331480156115d9575b61154890612404565b6115538115156127c7565b808252600260205260ff604083205416156115a357808252600260205260408220805460ff191690557f66d5f06f711af3c9feba3203fdb00b51345d514c68585d9d319c5ff5e6f775928280a280f35b60405162461bcd60e51b815260206004820152600e60248201526d139bdd08185d5d1a1bdc9a5e995960921b6044820152606490fd5b503382526002602052604082205460ff1661153f565b50346101fa57806003193601126101fa576116229061160c612805565b9091604051938493604085526040850190612358565b8381036020850152602080845192838152019301915b818110611646575050500390f35b919350916020808261165b6001948851612335565b019401910191849392611638565b50346101fa57806003193601126101fa5760065481825b82811061176b57506116919061250d565b9082835b8281106116b257604051602080825281906101f490820187612358565b6116bb816123a2565b905460039190911b1c6001600160a01b031685526004602052604085205460ff166008811015610c9257600614158061172e575b906001916116fe575b01611695565b611707816123a2565b838060a01b0391549060031b1c16611728611721856124d0565b948761253f565b526116f8565b50611738816123a2565b905460039190911b1c6001600160a01b031685526004602052604085205460ff166008811015610c9257600714156116ef565b611774816123a2565b905460039190911b1c6001600160a01b031684526004602052604084205460ff1660088110156118065760061415806117c9575b6117b5575b600101611680565b906117c16001916124d0565b9190506117ad565b506117d3816123a2565b905460039190911b1c6001600160a01b031684526004602052604084205460ff16600881101561180657600714156117a8565b634e487b7160e01b85526021600452602485fd5b50346101fa5760203660031901126101fa576004356001600160a01b038116908190036101f85781546001600160a01b0316331480156118f5575b61185e90612404565b6118698115156127c7565b808252600260205260ff6040832054166118bb57808252600260205260408220805460ff191660011790557f10ac961f00d5e732ba4dcc2c6fb09bebea0eb9edd2a75c8109775ef288382e678280a280f35b60405162461bcd60e51b8152602060048201526012602482015271105b1c9958591e48185d5d1a1bdc9a5e995960721b6044820152606490fd5b503382526002602052604082205460ff16611855565b50346101fa5760203660031901126101fa576004356001600160a01b0381168082036102505782546001600160a01b031633148015611b08575b61194e90612404565b80835260086020526040832060405161196681612492565b81546001600160a01b0316808252600190920154602082019081529115611ac357516001600160a01b03163314611a7f5751620151808101809111611a6b574211611a33576119b3612c19565b8015611a1f576119c282612c42565b825260086020908152604080842084815560010184905580516001600160a01b039093168352429183019190915233917fdd72dd33198968a9cdc9b1e5cbff344fb8d04d99f8c15c0a02416b04e857b46791819081015b0390a280f35b631e4fbdf760e01b83526004839052602483fd5b60405162461bcd60e51b815260206004820152601060248201526f141c9bdc1bdcd85b08195e1c1a5c995960821b6044820152606490fd5b634e487b7160e01b84526011600452602484fd5b606460405162461bcd60e51b815260206004820152602060248201527f43616e6e6f7420636f6e6669726d20796f7572206f776e2070726f706f73616c6044820152fd5b60405162461bcd60e51b815260206004820152601a60248201527f4e6f2070726f706f73616c20666f722074686973206f776e65720000000000006044820152606490fd5b503383526002602052604083205460ff16611945565b50346101fa5760203660031901126101fa576004356001600160a01b038116908190036101f857815260096020526040812080548291825b828110611b8c5750505081611b715760209150604051908152f35b62278d0082018092116102c857506102c360209142906127ba565b611b9681836123d3565b90549060031b1c62278d00810180911161034d574210611bb9575b600101611b56565b84158015611be4575b15611bb15793506001611bd585836123d3565b90549060031b1c949050611bb1565b5084611bf082846123d3565b90549060031b1c10611bc2565b50346101fa5760203660031901126101fa57600435906006548210156101fa576020611c28836123a2565b905460405160039290921b1c6001600160a01b03168152f35b50346101fa5760203660031901126101fa576004356001600160a01b0381168082036102505782546001600160a01b031633148015611d53575b611c8490612404565b8015611d1a57600160405191611c9983612492565b3383526020830190428252855260086020526040852092828060a01b039051166bffffffffffffffffffffffff60a01b845416178355519101557fc29bdbd554e41df97e5c40fc273a09677ac133c245f0064bdffef5cc72176e1960405180611a19339442908360209093929193604081019460018060a01b031681520152565b60405162461bcd60e51b815260206004820152601160248201527024b73b30b634b2103732bb9037bbb732b960791b6044820152606490fd5b503383526002602052604083205460ff16611c7b565b50346101fa5760203660031901126101fa576004356001600160a01b038116908190036101f85760606101e0604051611da18161245f565b82815284602082015284604082015284838201528460808201528460a08201528460c08201528460e08201528461010082015284610120820152846101408201528461016082015284610180820152826101a0820152846101c082015201528015611f85578160049160405192838092631f385f7960e21b82525afa908115611f7a578291611f60575b506040519060208252611e4c81516102006020850152610220840190612358565b92611e5f60208301516040850190612395565b6040820151606084015260608201516080840152608082015160a084015260ff60a08301511660c084015260ff60c08301511660e084015260e082015161010084015261010082015161012084015260ff6101208301511661014084015260ff610140830151166101608401526101608201516101808401526101808201516101a08401526101a082015193601f19848203016101c0850152602080865192838152019501915b818110611f355784806101f4886101e0886101c0810151828601520151601f1984830301610200850152612358565b825180516001600160a01b031687526020908101518188015260409096019590920191600101611f06565b611f7491503d8084833e610b1281836124ae565b38611e2b565b6040513d84823e3d90fd5b60405162461bcd60e51b815260206004820152601760248201527f496e76616c6964206d697373696f6e20616464726573730000000000000000006044820152606490fd5b50346101fa5760203660031901126101fa57600435600881101580610250576006549083845b8381106120b057506120019061250d565b928491855b84811061202357604051602080825281906101f490820189612358565b61202c816123a2565b905460039190911b1c6001600160a01b031687526004602052604087205460ff168261209c57600881101561209c5790836001921461206c575b01612006565b612075816123a2565b838060a01b0391549060031b1c1661209661208f876124d0565b968961253f565b52612066565b634e487b7160e01b88526021600452602488fd5b6120b9816123a2565b905460039190911b1c6001600160a01b031686526004602052604086205460ff1683610b69576008811015610b695785146120f7575b600101611ff0565b906121036001916124d0565b9190506120ef565b50346101fa5760203660031901126101fa5780546001600160a01b031660043533821480156122b7575b61213e90612404565b6002600154146122a857600260015580821561226b5715612264575b478111612228578280808084865af13d15612223573d67ffffffffffffffff811161220f5760405190612197601f8201601f1916602001836124ae565b81528460203d92013e5b156121d85760207feaff4b37086828766ad3268786972c0cd24259d4c87a80f9d3963a3c3d999b0d91604051908152a26001805580f35b60405162461bcd60e51b815260206004820152600f60248201526e151c985b9cd9995c8819985a5b1959608a1b6044820152606490fd5b634e487b7160e01b85526041600452602485fd5b6121a1565b60405162461bcd60e51b8152602060048201526014602482015273496e73756666696369656e742062616c616e636560601b6044820152606490fd5b504761215a565b60405162461bcd60e51b815260206004820152601560248201527424b73b30b634b21036b0b730b3b2b91037bbb732b960591b6044820152606490fd5b633ee5aeb560e01b8352600483fd5b503383526002602052604083205460ff16612135565b50346101fa57806003193601126101fa57602060ff600a5460081c16604051908152f35b9050346101f85760203660031901126101f8576004356001600160a01b03811690819003610250578160ff604085612333946020975260048752205416612335565bf35b9060088210156123425752565b634e487b7160e01b600052602160045260246000fd5b906020808351928381520192019060005b8181106123765750505090565b82516001600160a01b0316845260209384019390920191600101612369565b9060078210156123425752565b6006548110156123bd57600660005260206000200190600090565b634e487b7160e01b600052603260045260246000fd5b80548210156123bd5760005260206000200190600090565b6007811015612342576000526003602052604060002090565b1561240b57565b60405162461bcd60e51b815260206004820152602660248201527f4e6f74206f776e6572206f72204d697373696f6e466163746f727920617574686044820152651bdc9a5e995960d21b6064820152608490fd5b610200810190811067ffffffffffffffff82111761247c57604052565b634e487b7160e01b600052604160045260246000fd5b6040810190811067ffffffffffffffff82111761247c57604052565b90601f8019910116810190811067ffffffffffffffff82111761247c57604052565b60001981146124df5760010190565b634e487b7160e01b600052601160045260246000fd5b67ffffffffffffffff811161247c5760051b60200190565b90612517826124f5565b61252460405191826124ae565b8281528092612535601f19916124f5565b0190602036910137565b80518210156123bd5760209160051b010190565b51906001600160a01b038216820361256757565b600080fd5b9080601f83011215612567578151612583816124f5565b9261259160405194856124ae565b81845260208085019260051b82010192831161256757602001905b8282106125b95750505090565b602080916125c684612553565b8152019101906125ac565b519060ff8216820361256757565b6020818303126125675780519067ffffffffffffffff821161256757016102008183031261256757604051916126148361245f565b815167ffffffffffffffff8111612567578161263191840161256c565b83526020820151600781101561256757602084015260408201516040840152606082015160608401526080820151608084015261267060a083016125d1565b60a084015261268160c083016125d1565b60c084015260e082015160e08401526101008201516101008401526126a961012083016125d1565b6101208401526126bc61014083016125d1565b6101408401526101608201516101608401526101808201516101808401526101a082015167ffffffffffffffff811161256757820181601f82011215612567578051612707816124f5565b9161271560405193846124ae565b81835260208084019260061b8201019084821161256757602001915b818310612775575050506101a08401526101c08201516101c08401526101e082015167ffffffffffffffff81116125675761276c920161256c565b6101e082015290565b604083860312612567576020604091825161278f81612492565b61279886612553565b81528286015183820152815201920191612731565b919082018092116124df57565b919082039182116124df57565b156127ce57565b60405162461bcd60e51b815260206004820152600f60248201526e496e76616c6964206164647265737360881b6044820152606490fd5b6006548015612a6457624f19ff194201914283116124df5762278cff1942014281116124df576000929182805b612976575b506128418461250d565b9061284b8561250d565b936000905b8015158061296d575b1561296257600019019061286c826123a2565b60018060a01b0391549060031b1c169081600052600460205260ff6040600020541691604051631f385f7960e21b8152600081600481855afa801561295657889160009161293d575b508b60e08201818151108061291a575b1561290f5750506101000151105b612901576128e1828761253f565b526128ec818861253f565b91600881101561234257600192520190612850565b505050509350919350509190565b9150915051106128d3565b509250506008851015612342578b899260068714806128c55750600787146128c5565b612950913d8091833e610b1281836124ae565b386128b5565b6040513d6000823e3d90fd5b509195509293505050565b50868210612859565b6000949394190192612987846123a2565b60018060a01b0391549060031b1c168060005260046020526004600060ff6040822054169260405192838092631f385f7960e21b82525afa9081156129565785928991600093612a49575b5060e0830190828251109081612a19575b5015612a0e5750506101000151105b612a0757612a0084916124d0565b9493612832565b9392612837565b9150915051106129f2565b925050925060088110156123425785928160068b9314908115612a3e575b50386129e3565b600791501438612a37565b612a5d91933d8091833e610b1281836124ae565b91386129d2565b50602090604051612a7583826124ae565b60008152600036813760405192612a8c81856124ae565b600084525060003681379190565b6001600160a01b031660009081526009602052604081208054829182918291825b828110612b8257505050600a549160ff8316119060ff82159360081c1611918215928280612b7b575b612b6d5781612b65575b50612b595781612b51575b50612b475762093a8081018091116124df57612b169042906127ba565b9062278d0081018091116124df57612b2f9042906127ba565b1115612b3f576002905b60009190565b600190612b39565b5050600090600290565b905038612af9565b50505050600090600190565b905038612aee565b505050505050600190600090565b5080612ae4565b612b8c81836123d3565b90549060031b1c62278d0081018082116124df574210612bb0575b50600101612abb565b93612bba906124d0565b9387158015612c10575b612c08575b62093a8081018082116124df57421015612ba75794612be7906124d0565b9486158015612bff575b15612ba75795506001612ba7565b50868110612bf1565b965086612bc9565b50878110612bc4565b6000546001600160a01b03163303612c2d57565b63118cdaa760e01b6000523360045260246000fd5b600080546001600160a01b039283166001600160a01b03198216811783559216907f8be0079c531659141344cd1fd0a4f28419497f9722a3daafe3b4186f6b6457e09080a356fea26469706673582212205f03fef8dc8a12173545b180754e1280239eb444355d6b74131b3f8454ae7e5364736f6c634300081e003360808060405234607957331560635760008054336001600160a01b0319821681178355916001600160a01b03909116907f8be0079c531659141344cd1fd0a4f28419497f9722a3daafe3b4186f6b6457e09080a360018055612b41908161007f8239f35b631e4fbdf760e01b600052600060045260246000fd5b600080fdfe6080806040526004361015610011575b005b600090813560e01c90816310eb0e0e14611dd5575080631212484814611ca457806324600fc31461194e5780635407441f1461193357806368c6ba211461190b578063715018a6146118b15780637475a4cb146114e45780637ce17de4146111625780637cf61b6914610f935780638da5cb5b14610f6c578063987c543a14610ae857806398bdae4314610a2e578063a52b2b88146109ef578063a7e22a3e146109c9578063ad1ca6bf14610857578063b2a4a5d21461081e578063b9713b7714610780578063c033a49014610741578063c54168b31461039b578063e6810a5014610377578063eb2bab771461021f578063f2fde38b146101ce578063fa4cf5a1146101a5578063fb84e12f146101825763fcca0c840361000f573461017f57602036600319011261017f5760409060ff826001600160a01b03610154611e11565b1692838152600360205282828220541693815260046020522054168251911515825215156020820152f35b80fd5b503461017f578060031936011261017f57602061019d61224c565b604051908152f35b503461017f578060031936011261017f576002546040516001600160a01b039091168152602090f35b503461017f57602036600319011261017f576101e8611e11565b6101f06127a8565b6001600160a01b0381161561020b57610208906127d1565b80f35b631e4fbdf760e01b82526004829052602482fd5b508060031936011261017f573415610342576002546001600160a01b031633036103055761024b6122b5565b60088110156102f1576002106102ac5761026734600f54611f76565b600f557f7272b264c9ef2a1e8e9303944736f4977b14a5761227b7b9869fecaa60f89387604061029934601054611f76565b806010558151903482526020820152a180f35b60405162461bcd60e51b815260206004820152601c60248201527f4d697373696f6e207061737365642061726d696e6720737461747573000000006044820152606490fd5b634e487b7160e01b82526021600452602482fd5b60405162461bcd60e51b815260206004820152601560248201527413db9b1e48199858dd1bdc9e4818d85b88199d5b99605a1b6044820152606490fd5b60405162461bcd60e51b815260206004820152600d60248201526c139bc8199d5b991cc81cd95b9d609a1b6044820152606490fd5b503461017f57602036600319011261017f57602061019d610396611e11565b61213e565b5061016036600319011261017f576103b1611e11565b6024356001600160a01b038116919082900361073d576044359160078310156107395760c43560ff81168091036107355760e4359060ff8216820361073157610144359260ff841680940361072d57610408612293565b60155460ff81166106f25760ff1916600117601555610426856127d1565b6bffffffffffffffffffffffff60a01b600254161760025560ff196007541660ff86161760075560643560085560843560095560a435600a5561ff00600b549260081b169161ffff19161717600b5561010435600c5561012435600d5561ffff19600e541617600e5534600f55346010558260125560206040516104aa8282611ed3565b848152600036813780519067ffffffffffffffff821161064257600160401b821161064257829060065483600655808410610691575b500160068652855b828110610656575050506040516104ff8282611ed3565b8481528490600160401b8211610642578290601154836011558084106105be575b500160118652600080516020612acc83398151915286915b8383106105815750506040514281526001600160a01b03909416937fe9597995b7a2af444cc28b2b776b88b1253d701282a9bcf902d4f59750df7c579392509050a36001805580f35b8051805183546001600160a01b0319166001600160a01b039190911617835560200151600183810191909155906002908601920192019190610538565b9091506001600160ff1b038116810361062e576001600160ff1b038316830361062e5790839160011b600080516020612acc833981519152018360011b600080516020612acc833981519152015b8181106106195750610520565b8881556001810189905585935060020161060c565b634e487b7160e01b87526011600452602487fd5b634e487b7160e01b86526041600452602486fd5b81516001600160a01b03167ff652222313e28459528d920b65115c16c04f3efc82aaedc97be59f3f377c0d3f820155908301906001016104e8565b7ff652222313e28459528d920b65115c16c04f3efc82aaedc97be59f3f377c0d3f01837ff652222313e28459528d920b65115c16c04f3efc82aaedc97be59f3f377c0d3f015b8181106106e457506104e0565b8881558593506001016106d7565b60405162461bcd60e51b8152602060048201526013602482015272105b1c9958591e481a5b9a5d1a585b1a5e9959606a1b6044820152606490fd5b8680fd5b8580fd5b8480fd5b8380fd5b8280fd5b503461017f57602036600319011261017f5760209060ff906040906001600160a01b0361076c611e11565b168152600584522054166040519015158152f35b503461017f578060031936011261017f576101a060ff60075416600854600954600a5460ff600b54600c54600d549083600e5493600f5496601054986012549a6107cd604051809e611e77565b60208d015260408c015260608b015281811660808b015260081c1660a089015260c088015260e087015281811661010087015260081c16610120850152610140840152610160830152610180820152f35b503461017f57602036600319011261017f576020906040906001600160a01b03610846611e11565b168152601483522054604051908152f35b503461017f578060031936011261017f57610870612293565b80546001600160a01b03163314801561093e575b61088d90611f02565b600954421180610933575b156108c85760065460ff600b5416116108b3575b6001805580f35b6108bb612465565b6108c3612818565b6108ac565b60405162461bcd60e51b815260206004820152603860248201527f4d697373696f6e206e6f7420696e2061726d696e672077696e646f772e20436160448201527f6c6c20726566756e64506c617965727320696e737465616400000000000000006064820152608490fd5b50600c544210610898565b5060025460405163b918161160e01b815233600482015290602090829060249082906001600160a01b03165afa80156109be57829061097f575b9050610884565b506020813d6020116109b6575b8161099960209383611ed3565b810103126109b2576109ad61088d91611ef5565b610978565b5080fd5b3d915061098c565b6040513d84823e3d90fd5b503461017f578060031936011261017f5760206109e46120f3565b60ff60405191168152f35b503461017f57602036600319011261017f5760209060ff906040906001600160a01b03610a1a611e11565b168152600484522054166040519015158152f35b503461017f578060031936011261017f57610a47612293565b80546001600160a01b031633148015610a6c575b610a6490611f02565b6108ac612818565b5060025460405163b918161160e01b815233600482015290602090829060249082906001600160a01b03165afa80156109be578290610aad575b9050610a5b565b506020813d602011610ae0575b81610ac760209383611ed3565b810103126109b257610adb610a6491611ef5565b610aa6565b3d9150610aba565b508060031936011261017f57610afc612293565b600854804210610f565750600954804211610f40575060065460ff600b5460081c1680911015610f2e5750600a54803403610f185750338152600360205260ff604082205416610f0a5760025460408051634c0252c360e11b81523360048201526001600160a01b0390921692919081602481865afa9081156109be5782908392610ec0575b5015610db85750600654600160401b811015610da457806001610baa920160065560066120cc565b81549060031b9033821b9160018060a01b03901b1916179055338152600360205260408120600160ff19825416179055610be634600f54611f76565b600f55610bf534601054611f76565b60105580600181610d97575b8015610d8a575b8015610d7d575b610d1a575b610d065760155460ff8160081c16906008821015610cf057610100906001600093600080516020612aec8339815191526020604051428152a361ff0019161760155560025481906001600160a01b0316803b15610ced5781809160246040518095819363c17f9e5960e01b83523360048401525af18015610ce057610cd0575b6006546040519034825260208201527fbedd10d90b8962eb521114c7e2b49019403d371ffa1e46afbda7a3f1fde8f06f60403392a26001805580f35b610cd991611ed3565b8181610c94565b50604051903d90823e3d90fd5b50fd5b634e487b7160e01b600052602160045260246000fd5b634e487b7160e01b81526021600452602490fd5b506002546001600160a01b0316803b156109b25760405163d8d6e8ff60e01b815260016004820152829182908290602490829084905af19081156109be578291610d66575b5050610c14565b81610d7091611ed3565b610d7b578083610d5f565bfd5b50610d0657806000610c0f565b50610d0657806000610c08565b50610d0657806000610c01565b634e487b7160e01b82526041600452602482fd5b6024926003821015610ead57602091600103610e40576040516377f855c960e11b815233600482015293849182905afa8015610ce0578190610e08575b631b62787960e31b825260045260249150fd5b506020823d602011610e38575b81610e2260209383611ed3565b81010312610e335760249151610df5565b600080fd5b3d9150610e15565b604051631b8093b160e11b815233600482015293849182905afa8015610ce0578190610e7a575b63147ce66f60e31b825260045260249150fd5b506020823d602011610ea5575b81610e9460209383611ed3565b81010312610e335760249151610e67565b3d9150610e87565b5050634e487b7160e01b81526021600452fd5b9150506040813d604011610f02575b81610edc60409383611ed3565b810103126109b2576020610eef82611ef5565b91015190600382101561073d5738610b82565b3d9150610ecf565b621d934160e11b8152600490fd5b6354d7a6b360e01b825260045234602452604490fd5b63647bcfa160e01b8252600452602490fd5b63166450c960e31b825242600452602452604490fd5b634cd01efb60e11b825242600452602452604490fd5b503461017f578060031936011261017f57546040516001600160a01b039091168152602090f35b503461017f578060031936011261017f57610fac6122b5565b60088110156102f15760070361111d5760065481805b8281106110d55750610fec610fd682612099565b91610fe46040519384611ed3565b808352612099565b602082019290601f190136843783845b8281106110515750505090604051928392602084019060208552518091526040840192915b81811061102f575050500390f35b82516001600160a01b0316845285945060209384019390920191600101611021565b61105a816120b1565b905460039190911b1c6001600160a01b0316865260146020526040862054611085575b600101610ffc565b61108e816120b1565b905460039190911b1c6001600160a01b03166110a9836120e4565b9285518110156110c15760051b85016020015261107d565b634e487b7160e01b88526032600452602488fd5b6110de816120b1565b905460039190911b1c6001600160a01b0316845260146020526040842054611109575b600101610fc2565b906111156001916120e4565b919050611101565b60405162461bcd60e51b815260206004820152601f60248201527f4d697373696f6e206973206e6f7420696e204661696c656420737461747573006044820152606490fd5b503461017f578060031936011261017f5760606101e060405161118481611eb6565b82815283602082015283604082015283838201528360808201528360a08201528360c08201528360e08201528361010082015283610120820152836101408201528361016082015283610180820152826101a0820152836101c082015201526040516111ef81611eb6565b6040516006548082528160208101600686526020862092865b8181106114c257505061121d92500382611ed3565b815260ff6007541660078110156114ae57602082015260085460408201526009546060820152600a54608082015260ff600b5481811660a084015260081c1660c0820152600c5460e0820152600d5461010082015260ff600e5481811661012084015260081c16610140820152600f546101608201526010546101808201526011546112a881612099565b906112b66040519283611ed3565b8082526011845283600080516020612acc833981519152602084015b83831061147a57505050506101a08201526012546101c08201526040516013548082528160208101601386526020862092865b81811061145857505061131a92500382611ed3565b6101e0820152604051906020825261134081516102006020850152610220840190611e3a565b9261135360208301516040850190611e77565b6040820151606084015260608201516080840152608082015160a084015260ff60a08301511660c084015260ff60c08301511660e084015260e082015161010084015261010082015161012084015260ff6101208301511661014084015260ff610140830151166101608401526101608201516101808401526101808201516101a08401526101a082015193601f19848203016101c0850152602080865192838152019501915b81811061142d578480611429886101e0886101c0810151828601520151601f1984830301610200850152611e3a565b0390f35b825180516001600160a01b0316875260209081015181880152604090960195909201916001016113fa565b84546001600160a01b0316835260019485019486945060209093019201611305565b6002602060019260405161148d81611e84565b848060a01b03865416815284860154838201528152019201920191906112d2565b634e487b7160e01b83526021600452602483fd5b84546001600160a01b0316835260019485019486945060209093019201611208565b503461017f578060031936011261017f576114fd612293565b6115056122b5565b60088110156102f15760048114611855576002190161183c57338152600460205260ff60408220541661182d57338152600360205260ff6040822054161561181e57600e5460ff8160081c169060ff811682101561180f57600c5461156a8142611f83565b906064820291808304606414901517156117f3579061158e61159492600d54611f83565b90612004565b60115480156118075760001981019081116117f3576115b4600191612024565b500154905b6064820291808304606414901517156117f3576064916115e96115ee926115e3600f548094612004565b90611f83565b611ff1565b04916115fc83601054611f83565b60105560ff81146117df57600161ff00910160081b169061ff00191617600e55338252600460205260408220600160ff1982541617905560405161163f81611e84565b338152816020820152601154600160401b8110156117cb578060016116679201601155612024565b6117b757815181546001600160a01b0319166001600160a01b03919091161781556020909101516001909101558180808084335af16116a4612059565b9015611750575060ff600e54818160081c16809360105460405191825260208201527fbbdd894f5e6d754c18172761a1a461095c26de58905e706a8c33657573d4067260403392a31603611702576116fa6123b8565b6108ac612549565b80610d06575060004260125560155460ff8160081c169060088210156114ae5782600461040093600080516020612aec8339815191526020604051428152a35061ff001916176015556108ac565b9060405192839163d086db4360e01b8352336004840152602483015260606044830152825192836064840152815b84811061179f57505091608492838284010152601f80199101168101030190fd5b6020828201810151608488840101528694500161177e565b634e487b7160e01b84526004849052602484fd5b634e487b7160e01b84526041600452602484fd5b634e487b7160e01b84526011600452602484fd5b634e487b7160e01b85526011600452602485fd5b5083906115b9565b6321b94f7b60e21b8352600483fd5b63c394a43360e01b8152600490fd5b6302ab8f8960e11b8152600490fd5b600c546316f5e3b760e21b825242600452602452604490fd5b602482600e5460ff8061186c818460081c16611f4e565b92169116146000146118a657611894603c5b61188f61ffff429216601254611f76565b611f83565b600162269d7960e21b03198252600452fd5b61189461012c61187e565b503461017f578060031936011261017f576118ca6127a8565b80546001600160a01b03198116825581906001600160a01b03167f8be0079c531659141344cd1fd0a4f28419497f9722a3daafe3b4186f6b6457e08280a380f35b503461017f578060031936011261017f576114296119276122b5565b60405191829182611e27565b503461017f578060031936011261017f57602061019d611f90565b503461017f578060031936011261017f57611967612293565b80546001600160a01b031633148015611c28575b61198490611f02565b61198c6122b5565b60088110156102f1576006148015611c0e575b1561017f574780156119c281156119b581612506565b60065415611c0157612506565b60198202908282046019141715611bed5760646119e191048092611f83565b600254604051638da5cb5b60e01b81528491602090829060049082906001600160a01b03165afa9081156109be57829185918391611ba5575b50829182916001600160a01b03165af1611a32612059565b5015611b6857828080808460018060a01b03600254165af1611a52612059565b5015611b235760018060a01b03600254168360ff60075416823b156109b2576044611a9a918360405195869485936304e1e9d160e51b85528960048601526024850190611e77565b5af18015611b1857611adf575b507fd66662c0ded9e58fd31d5e44944bcfd07ffc15e6927ecc1382e7941cb7bd24c49160409182519182526020820152a16001805580f35b9183611b0f604093957fd66662c0ded9e58fd31d5e44944bcfd07ffc15e6927ecc1382e7941cb7bd24c495611ed3565b93915091611aa7565b6040513d86823e3d90fd5b60405162461bcd60e51b815260206004820152601760248201527f466163746f7279207472616e73666572206661696c65640000000000000000006044820152606490fd5b60405162461bcd60e51b815260206004820152601560248201527413dddb995c881d1c985b9cd9995c8819985a5b1959605a1b6044820152606490fd5b925050506020813d602011611be5575b81611bc260209383611ed3565b810103126109b257516001600160a01b03811681036109b2578190849082611a1a565b3d9150611bb5565b634e487b7160e01b83526011600452602483fd5b611c09612465565b612506565b50611c176122b5565b60088110156102f15760071461199f565b5060025460405163b918161160e01b815233600482015290602090829060249082906001600160a01b03165afa80156109be578290611c69575b905061197b565b506020813d602011611c9c575b81611c8360209383611ed3565b810103126109b257611c9761198491611ef5565b611c62565b3d9150611c76565b503461017f578060031936011261017f5780546001600160a01b031633148015611d59575b611cd290611f02565b611cda612293565b611ce26122b5565b60088110156102f1576005148015611d3f575b15611d02576116fa6123b8565b60405162461bcd60e51b8152602060048201526015602482015274135a5cdcda5bdb881b9bdd08195b991959081e595d605a1b6044820152606490fd5b50611d486122b5565b60088110156102f157600614611cf5565b5060025460405163b918161160e01b815233600482015290602090829060249082906001600160a01b03165afa80156109be578290611d9a575b9050611cc9565b506020813d602011611dcd575b81611db460209383611ed3565b810103126109b257611dc8611cd291611ef5565b611d93565b3d9150611da7565b9050346109b25760203660031901126109b25760209160ff906040906001600160a01b03611e01611e11565b1681526003855220541615158152f35b600435906001600160a01b0382168203610e3357565b919060208301926008821015610cf05752565b906020808351928381520192019060005b818110611e585750505090565b82516001600160a01b0316845260209384019390920191600101611e4b565b906007821015610cf05752565b6040810190811067ffffffffffffffff821117611ea057604052565b634e487b7160e01b600052604160045260246000fd5b610200810190811067ffffffffffffffff821117611ea057604052565b90601f8019910116810190811067ffffffffffffffff821117611ea057604052565b51908115158203610e3357565b15611f0957565b60405162461bcd60e51b815260206004820152601760248201527f4e6f74206f776e6572206f7220617574686f72697a65640000000000000000006044820152606490fd5b60ff60019116019060ff8211611f6057565b634e487b7160e01b600052601160045260246000fd5b91908201809211611f6057565b91908203918211611f6057565b611f986122b5565b6008811015610cf057600403611fec57600e5460ff80611fbc818460081c16611f4e565b9216911614600014611fe157611fde603c61188f61ffff429216601254611f76565b90565b611fde61012c61187e565b600090565b81810292918115918404141715611f6057565b811561200e570490565b634e487b7160e01b600052601260045260246000fd5b60115481101561204357601160005260206000209060011b0190600090565b634e487b7160e01b600052603260045260246000fd5b3d15612094573d9067ffffffffffffffff8211611ea05760405191612088601f8201601f191660200184611ed3565b82523d6000602084013e565b606090565b67ffffffffffffffff8111611ea05760051b60200190565b60065481101561204357600660005260206000200190600090565b80548210156120435760005260206000200190600090565b6000198114611f605760010190565b6120fb6122b5565b6008811015610cf05760038114908115612133575b5061211a57600090565b600e5460ff808260081c1691160360ff8111611f605790565b600491501438612110565b6121466122b5565b6008811015610cf05760038114159081612240575b5061223a576001600160a01b031660008181526003602052604090205460ff161561223a57600052600460205260ff60406000205416611fec57600c5480421061223a57600d5480421015612233576121b48242611f83565b90606482029180830460641490151715611f60576121d59261158e91611f83565b6011546000811561222b57506000198101908111611f60576121f8600191612024565b500154905b606482029180830460641490151715611f60576064916115e9612227926115e3600f548094612004565b0490565b9050906121fd565b5050600090565b50600090565b6004915014153861215b565b600c5480421061223a57600d548042101561228c5761226b8242611f83565b90606482029180830460641490151715611f6057611fde9261158e91611f83565b5050606490565b6002600154146122a4576002600155565b633ee5aeb560e01b60005260046000fd5b60ff60155460081c166008811015610cf0576006811480156123ae575b611fde57506008544210611fec576009544211156123a95760065460ff600b5416116123a457600c54421061239f57600d5442101561237557600e5460ff808260081c1691168082101561236e57601254908161233157505050600390565b60ff61233f61235294611f4e565b16036123635761ffff603c5b1690611f76565b42101561235e57600490565b600390565b61ffff61012c61234b565b5050600690565b600e5460ff8160081c169081156123985760ff161161239357600690565b600590565b5050600790565b600290565b600790565b600190565b50600781146122d2565b6002546000906001600160a01b0316803b15610e335760405163d8d6e8ff60e01b815260066004820152906000908290602490829084905af1801561245957612444575b5080610d06575060155460ff8160081c16906008821015610cf057610600916006600091600080516020612aec8339815191526020604051428152a35061ff00191617601555565b6124519150600090611ed3565b6000386123fc565b6040513d6000823e3d90fd5b6002546000906001600160a01b0316803b15610e335760405163d8d6e8ff60e01b815260076004820152906000908290602490829084905af18015612459576124f1575b5080610d06575060155460ff8160081c16906008821015610cf057610700916007600091600080516020612aec8339815191526020604051428152a35061ff00191617601555565b6124fe9150600090611ed3565b6000386124a9565b1561250d57565b60405162461bcd60e51b81526020600482015260146024820152734e6f2066756e647320746f20776974686472617760601b6044820152606490fd5b6000906125546122b5565b60088110156114ae57600614801561278e575b156109b2574791612579831515612506565b60065415612781575b50600080816006545b808210612748575050836125a6929394821161274057611f83565b9081156125b38115612506565b6019830290838204601914171561272c5760646125d291048093611f83565b600254604051638da5cb5b60e01b815291929190602090829060049082906001600160a01b03165afa9081156109be578291859183916126e4575b50829182918291906001600160a01b03165af1612628612059565b5015611b6857808080808560018060a01b03600254165af1612648612059565b5015611b235760018060a01b036002541660ff60075416813b1561073d57612690604484928360405195869485936304e1e9d160e51b85528a60048601526024850190611e77565b5af180156109be5791604093917fd66662c0ded9e58fd31d5e44944bcfd07ffc15e6927ecc1382e7941cb7bd24c495936126d4575b505082519182526020820152a1565b816126de91611ed3565b386126c5565b925050506020813d602011612724575b8161270160209383611ed3565b810103126109b257516001600160a01b03811681036109b257819084908261260d565b3d91506126f4565b634e487b7160e01b82526011600452602482fd5b905080611f83565b9091612779600191612759856120b1565b848060a01b0391549060031b1c1686526014602052604086205490611f76565b92019061258b565b612789612465565b612582565b506127976122b5565b60088110156114ae57600714612567565b6000546001600160a01b031633036127bc57565b63118cdaa760e01b6000523360045260246000fd5b600080546001600160a01b039283166001600160a01b03198216811783559216907f8be0079c531659141344cd1fd0a4f28419497f9722a3daafe3b4186f6b6457e09080a3565b6128206122b5565b9060009160088110156114ae57600703612a865760065415612a4a57600190825b60065481101561297957612854816120b1565b905460039190911b1c6001600160a01b03168085526005602052604085205460ff1615612885575b50600101612841565b84808080600a54855af1612897612059565b501561292457808552600560205260408520805460ff19166001179055601354600160401b81101561064257906128d88260018095940160135560136120cc565b81549060031b9083821b91868060a01b03901b19161790557f48d31f1c958cd44f1f83a52ae2dfaf61e88a1b82c07a6d5711a4abef60b6531e6020600a54604051908152a25b9061287c565b909250600a54818552601460205261294160408620918254611f76565b90557faf73b0b217208b61be286bbc37095bce7eb8b9ccf617244c2f0f154e8e04e3ff6020600a54604051908152a26001839261291e565b50919060065460ff600b541611612a3d575b6129936122b5565b60088110156114ae576006148015612a23575b156109b25747906129b8821515612506565b60065415612a16575b156129d457905b81156125b38115612506565b919080816006545b8082106129fd575050836129f7929394821161274057611f83565b906129c8565b9091612a0e600191612759856120b1565b9201906129dc565b612a1e612465565b6129c1565b50612a2c6122b5565b60088110156114ae576007146129a6565b612a45612465565b61298b565b60405162461bcd60e51b8152602060048201526014602482015273139bc81c1b185e595c9cc81d1bc81c99599d5b9960621b6044820152606490fd5b60405162461bcd60e51b815260206004820152601c60248201527f4d697373696f6e206e6f7420696e204661696c656420737461747573000000006044820152606490fdfe31ecc21a745e3968a04e9570e4425bc18fa8019c68028196b546d1669c200c6839ba628632d48c45c7f562c07db20a44cf68423691d5d79b20f87ba84138aedfa26469706673582212203ff463e1a0cae235e72b37df235f1ee89a2182ae64f798d27578f3fe54ba74e564736f6c634300081e0033","opcodes":"PUSH1 0x80 DUP1 PUSH1 0x40 MSTORE CALLVALUE PUSH2 0x159 JUMPI PUSH1 0x0 SWAP1 CALLER ISZERO PUSH2 0x145 JUMPI DUP2 SLOAD CALLER PUSH1 0x1 PUSH1 0x1 PUSH1 0xA0 SHL SUB NOT DUP3 AND DUP2 OR DUP5 SSTORE SWAP1 PUSH1 0x1 PUSH1 0x1 PUSH1 0xA0 SHL SUB AND PUSH32 0x8BE0079C531659141344CD1FD0A4F28419497F9722A3DAAFE3B4186F6B6457E0 DUP5 DUP1 LOG3 PUSH1 0x1 DUP1 SSTORE PUSH1 0xA DUP1 SLOAD PUSH2 0xFFFF NOT AND PUSH2 0xA04 OR SWAP1 SSTORE PUSH2 0x2BC0 DUP2 DUP2 ADD SWAP1 PUSH1 0x1 PUSH1 0x1 PUSH1 0x40 SHL SUB DUP3 GT DUP4 DUP4 LT OR PUSH2 0x131 JUMPI SWAP1 DUP3 SWAP2 PUSH2 0x2E1E DUP4 CODECOPY SUB SWAP1 DUP3 CREATE DUP1 ISZERO PUSH2 0x124 JUMPI PUSH1 0x1 PUSH1 0x1 PUSH1 0xA0 SHL SUB AND SWAP1 DUP2 EXTCODESIZE ISZERO PUSH2 0x121 JUMPI PUSH1 0x40 MLOAD PUSH4 0xF2FDE38B PUSH1 0xE0 SHL DUP2 MSTORE PUSH1 0x4 DUP2 ADD DUP3 SWAP1 MSTORE DUP2 DUP2 PUSH1 0x24 DUP2 DUP4 DUP8 GAS CALL DUP1 ISZERO PUSH2 0x116 JUMPI PUSH2 0xEB JUMPI JUMPDEST PUSH1 0x7 DUP1 SLOAD PUSH1 0x1 PUSH1 0x1 PUSH1 0xA0 SHL SUB NOT AND DUP5 OR SWAP1 SSTORE PUSH1 0x40 MLOAD PUSH2 0x2CBF SWAP1 DUP2 PUSH2 0x15F DUP3 CODECOPY RETURN JUMPDEST PUSH1 0x1 PUSH1 0x1 PUSH1 0x40 SHL SUB DUP2 GT PUSH2 0x102 JUMPI PUSH1 0x40 MSTORE CODESIZE PUSH2 0xCA JUMP JUMPDEST PUSH4 0x4E487B71 PUSH1 0xE0 SHL DUP3 MSTORE PUSH1 0x41 PUSH1 0x4 MSTORE PUSH1 0x24 DUP3 REVERT JUMPDEST PUSH1 0x40 MLOAD RETURNDATASIZE DUP5 DUP3 RETURNDATACOPY RETURNDATASIZE SWAP1 REVERT JUMPDEST DUP1 REVERT JUMPDEST POP PUSH1 0x40 MLOAD SWAP1 RETURNDATASIZE SWAP1 DUP3 RETURNDATACOPY RETURNDATASIZE SWAP1 REVERT JUMPDEST PUSH4 0x4E487B71 PUSH1 0xE0 SHL DUP5 MSTORE PUSH1 0x41 PUSH1 0x4 MSTORE PUSH1 0x24 DUP5 REVERT JUMPDEST PUSH4 0x1E4FBDF7 PUSH1 0xE0 SHL DUP3 MSTORE PUSH1 0x4 DUP3 SWAP1 MSTORE PUSH1 0x24 DUP3 REVERT JUMPDEST PUSH1 0x0 DUP1 REVERT INVALID PUSH1 0x80 DUP1 PUSH1 0x40 MSTORE PUSH1 0x4 CALLDATASIZE LT ISZERO PUSH2 0x11 JUMPI JUMPDEST STOP JUMPDEST PUSH1 0x0 SWAP1 DUP2 CALLDATALOAD PUSH1 0xE0 SHR SWAP1 DUP2 PUSH4 0x814AB82 EQ PUSH2 0x22F1 JUMPI POP DUP1 PUSH4 0xA6005DA EQ PUSH2 0x22CD JUMPI DUP1 PUSH4 0x155DD5EE EQ PUSH2 0x210B JUMPI DUP1 PUSH4 0x1E59D584 EQ PUSH2 0x1FCA JUMPI DUP1 PUSH4 0x20C5718F EQ PUSH2 0x1D69 JUMPI DUP1 PUSH4 0x21040FC3 EQ PUSH2 0x1C41 JUMPI DUP1 PUSH4 0x2C8FE526 EQ PUSH2 0x1BFD JUMPI DUP1 PUSH4 0x2E33B07F EQ PUSH2 0x6FE JUMPI DUP1 PUSH4 0x37012762 EQ PUSH2 0x1B1E JUMPI DUP1 PUSH4 0x3C213957 EQ PUSH2 0x190B JUMPI DUP1 PUSH4 0x42F1181E EQ PUSH2 0x181A JUMPI DUP1 PUSH4 0x6805036D EQ PUSH2 0x1669 JUMPI DUP1 PUSH4 0x6D8A1390 EQ PUSH2 0x15EF JUMPI DUP1 PUSH4 0x70712939 EQ PUSH2 0x1504 JUMPI DUP1 PUSH4 0x715018A6 EQ PUSH2 0x14AA JUMPI DUP1 PUSH4 0x7E9EAE50 EQ PUSH2 0x1417 JUMPI DUP1 PUSH4 0x861A68D6 EQ PUSH2 0x13F6 JUMPI DUP1 PUSH4 0x8DA5CB5B EQ PUSH2 0x13CF JUMPI DUP1 PUSH4 0x9804A586 EQ PUSH2 0x1385 JUMPI DUP1 PUSH4 0x9B159539 EQ PUSH2 0xE75 JUMPI DUP1 PUSH4 0x9C3D3A20 EQ PUSH2 0xCE8 JUMPI DUP1 PUSH4 0xAA1F0595 EQ PUSH2 0xCA6 JUMPI DUP1 PUSH4 0xB6202913 EQ PUSH2 0x9D0 JUMPI DUP1 PUSH4 0xB9181611 EQ PUSH2 0x98E JUMPI DUP1 PUSH4 0xBD487725 EQ PUSH2 0x965 JUMPI DUP1 PUSH4 0xC17F9E59 EQ PUSH2 0x731 JUMPI DUP1 PUSH4 0xC416AD2A EQ PUSH2 0x6FE JUMPI DUP1 PUSH4 0xCBF2080D EQ PUSH2 0x567 JUMPI DUP1 PUSH4 0xD3050EBA EQ PUSH2 0x549 JUMPI DUP1 PUSH4 0xD41ECA64 EQ PUSH2 0x49B JUMPI DUP1 PUSH4 0xD8D6E8FF EQ PUSH2 0x3E8 JUMPI DUP1 PUSH4 0xDF4DB463 EQ PUSH2 0x361 JUMPI DUP1 PUSH4 0xEFF0AB92 EQ PUSH2 0x254 JUMPI DUP1 PUSH4 0xF2FDE38B EQ PUSH2 0x1FD JUMPI PUSH4 0xFB4CDEA7 SUB PUSH2 0xF JUMPI CALLVALUE PUSH2 0x1FA JUMPI PUSH1 0x20 CALLDATASIZE PUSH1 0x3 NOT ADD SLT PUSH2 0x1FA JUMPI PUSH1 0x4 CALLDATALOAD PUSH1 0x1 PUSH1 0x1 PUSH1 0xA0 SHL SUB DUP2 AND SWAP1 DUP2 SWAP1 SUB PUSH2 0x1F8 JUMPI DUP2 MSTORE PUSH1 0x8 PUSH1 0x20 SWAP1 DUP2 MSTORE PUSH1 0x40 SWAP2 DUP3 SWAP1 KECCAK256 DUP1 SLOAD PUSH1 0x1 SWAP1 SWAP2 ADD SLOAD DUP4 MLOAD PUSH1 0x1 PUSH1 0x1 PUSH1 0xA0 SHL SUB SWAP1 SWAP3 AND DUP3 MSTORE SWAP2 DUP2 ADD SWAP2 SWAP1 SWAP2 MSTORE SWAP1 DUP2 SWAP1 DUP2 ADD JUMPDEST SUB SWAP1 RETURN JUMPDEST POP JUMPDEST DUP1 REVERT JUMPDEST POP CALLVALUE PUSH2 0x1FA JUMPI PUSH1 0x20 CALLDATASIZE PUSH1 0x3 NOT ADD SLT PUSH2 0x1FA JUMPI PUSH1 0x4 CALLDATALOAD PUSH1 0x1 PUSH1 0x1 PUSH1 0xA0 SHL SUB DUP2 AND DUP1 DUP3 SUB PUSH2 0x250 JUMPI PUSH2 0x22B PUSH2 0x2C19 JUMP JUMPDEST ISZERO PUSH2 0x23C JUMPI PUSH2 0x239 SWAP1 PUSH2 0x2C42 JUMP JUMPDEST DUP1 RETURN JUMPDEST PUSH4 0x1E4FBDF7 PUSH1 0xE0 SHL DUP3 MSTORE PUSH1 0x4 DUP3 SWAP1 MSTORE PUSH1 0x24 DUP3 REVERT JUMPDEST DUP3 DUP1 REVERT JUMPDEST POP CALLVALUE PUSH2 0x1FA JUMPI PUSH1 0x20 CALLDATASIZE PUSH1 0x3 NOT ADD SLT PUSH2 0x1FA JUMPI PUSH1 0x4 CALLDATALOAD PUSH1 0x1 PUSH1 0x1 PUSH1 0xA0 SHL SUB DUP2 AND SWAP1 DUP2 SWAP1 SUB PUSH2 0x1F8 JUMPI DUP2 MSTORE PUSH1 0x9 PUSH1 0x20 MSTORE PUSH1 0x40 DUP2 KECCAK256 DUP1 SLOAD DUP3 SWAP2 DUP3 JUMPDEST DUP3 DUP2 LT PUSH2 0x2DC JUMPI POP POP POP DUP2 PUSH2 0x2A8 JUMPI PUSH1 0x20 SWAP2 POP JUMPDEST PUSH1 0x40 MLOAD SWAP1 DUP2 MSTORE RETURN JUMPDEST PUSH3 0x93A80 DUP3 ADD DUP1 SWAP3 GT PUSH2 0x2C8 JUMPI POP PUSH2 0x2C3 PUSH1 0x20 SWAP2 TIMESTAMP SWAP1 PUSH2 0x27BA JUMP JUMPDEST PUSH2 0x2A0 JUMP JUMPDEST PUSH4 0x4E487B71 PUSH1 0xE0 SHL DUP2 MSTORE PUSH1 0x11 PUSH1 0x4 MSTORE PUSH1 0x24 SWAP1 REVERT JUMPDEST PUSH2 0x2E6 DUP2 DUP4 PUSH2 0x23D3 JUMP JUMPDEST SWAP1 SLOAD SWAP1 PUSH1 0x3 SHL SHR PUSH3 0x93A80 DUP2 ADD DUP1 SWAP2 GT PUSH2 0x34D JUMPI TIMESTAMP LT PUSH2 0x309 JUMPI JUMPDEST PUSH1 0x1 ADD PUSH2 0x28C JUMP JUMPDEST DUP5 ISZERO DUP1 ISZERO PUSH2 0x334 JUMPI JUMPDEST ISZERO PUSH2 0x301 JUMPI SWAP4 POP PUSH1 0x1 PUSH2 0x325 DUP6 DUP4 PUSH2 0x23D3 JUMP JUMPDEST SWAP1 SLOAD SWAP1 PUSH1 0x3 SHL SHR SWAP5 SWAP1 POP PUSH2 0x301 JUMP JUMPDEST POP DUP5 PUSH2 0x340 DUP3 DUP5 PUSH2 0x23D3 JUMP JUMPDEST SWAP1 SLOAD SWAP1 PUSH1 0x3 SHL SHR LT PUSH2 0x312 JUMP JUMPDEST PUSH4 0x4E487B71 PUSH1 0xE0 SHL DUP6 MSTORE PUSH1 0x11 PUSH1 0x4 MSTORE PUSH1 0x24 DUP6 REVERT JUMPDEST POP CALLVALUE PUSH2 0x1FA JUMPI DUP1 PUSH1 0x3 NOT CALLDATASIZE ADD SLT PUSH2 0x1FA JUMPI PUSH1 0xE0 SWAP1 DUP2 PUSH1 0x40 MLOAD PUSH2 0x383 DUP3 DUP3 PUSH2 0x24AE JUMP JUMPDEST CALLDATASIZE SWAP1 CALLDATACOPY PUSH1 0x40 MLOAD SWAP1 PUSH2 0x394 DUP4 DUP4 PUSH2 0x24AE JUMP JUMPDEST DUP3 CALLDATASIZE DUP4 CALLDATACOPY DUP1 JUMPDEST PUSH1 0x7 DUP2 LT ISZERO PUSH2 0x3BD JUMPI PUSH1 0x1 SWAP1 PUSH2 0x3AF DUP2 PUSH2 0x23EB JUMP JUMPDEST SLOAD DUP2 PUSH1 0x5 SHL DUP6 ADD MSTORE ADD PUSH2 0x39A JUMP JUMPDEST POP PUSH1 0x40 MLOAD SWAP2 SWAP1 DUP3 JUMPDEST PUSH1 0x7 DUP3 LT PUSH2 0x3D2 JUMPI POP POP POP RETURN JUMPDEST PUSH1 0x20 DUP1 PUSH1 0x1 SWAP3 DUP6 MLOAD DUP2 MSTORE ADD SWAP4 ADD SWAP2 ADD SWAP1 SWAP2 PUSH2 0x3C5 JUMP JUMPDEST POP CALLVALUE PUSH2 0x1FA JUMPI PUSH1 0x20 CALLDATASIZE PUSH1 0x3 NOT ADD SLT PUSH2 0x1FA JUMPI PUSH1 0x4 CALLDATALOAD PUSH1 0x8 DUP2 LT ISZERO PUSH2 0x1F8 JUMPI CALLER DUP3 MSTORE PUSH1 0x5 PUSH1 0x20 MSTORE PUSH1 0xFF PUSH1 0x40 DUP4 KECCAK256 SLOAD AND ISZERO PUSH2 0x437 JUMPI CALLER DUP3 MSTORE PUSH1 0x4 PUSH1 0x20 MSTORE PUSH1 0x40 DUP3 KECCAK256 SWAP1 PUSH1 0xFF DUP1 NOT DUP4 SLOAD AND SWAP2 AND OR SWAP1 SSTORE DUP1 RETURN JUMPDEST PUSH1 0x40 MLOAD PUSH3 0x461BCD PUSH1 0xE5 SHL DUP2 MSTORE PUSH1 0x20 PUSH1 0x4 DUP3 ADD MSTORE PUSH1 0x36 PUSH1 0x24 DUP3 ADD MSTORE PUSH32 0x4D697373696F6E466163746F72793A2063616C6C6572206973206E6F74206120 PUSH1 0x44 DUP3 ADD MSTORE PUSH22 0x1D985B1A59081B5A5CDCDA5BDB8818DBDB9D1C9858DD PUSH1 0x52 SHL PUSH1 0x64 DUP3 ADD MSTORE PUSH1 0x84 SWAP1 REVERT JUMPDEST POP CALLVALUE PUSH2 0x1FA JUMPI PUSH1 0x40 CALLDATASIZE PUSH1 0x3 NOT ADD SLT PUSH2 0x1FA JUMPI PUSH1 0x4 CALLDATALOAD PUSH1 0xFF DUP2 AND DUP1 SWAP2 SUB PUSH2 0x1F8 JUMPI PUSH1 0x24 CALLDATALOAD PUSH1 0xFF DUP2 AND SWAP2 DUP3 DUP3 SUB PUSH2 0x545 JUMPI PUSH32 0x321994B8855AE38E4FD6162F7A0BD7CDE88BE83AA3ACC96E03C17B7F733B43E1 SWAP3 PUSH1 0x40 SWAP3 PUSH1 0x1 DUP1 PUSH1 0xA0 SHL SUB DUP7 SLOAD AND CALLER EQ DUP1 ISZERO PUSH2 0x530 JUMPI JUMPDEST PUSH2 0x50B SWAP1 PUSH2 0x2404 JUMP JUMPDEST DUP3 PUSH2 0xFF00 PUSH1 0xA SLOAD SWAP3 PUSH1 0x8 SHL AND SWAP2 PUSH2 0xFFFF NOT AND OR OR PUSH1 0xA SSTORE DUP3 MLOAD SWAP2 DUP3 MSTORE PUSH1 0x20 DUP3 ADD MSTORE LOG1 DUP1 RETURN JUMPDEST POP CALLER DUP7 MSTORE PUSH1 0x2 PUSH1 0x20 MSTORE DUP4 DUP7 KECCAK256 SLOAD PUSH1 0xFF AND PUSH2 0x502 JUMP JUMPDEST DUP4 DUP1 REVERT JUMPDEST POP CALLVALUE PUSH2 0x1FA JUMPI DUP1 PUSH1 0x3 NOT CALLDATASIZE ADD SLT PUSH2 0x1FA JUMPI PUSH1 0x20 PUSH1 0x40 MLOAD PUSH3 0x15180 DUP2 MSTORE RETURN JUMPDEST POP CALLVALUE PUSH2 0x1FA JUMPI PUSH1 0x20 CALLDATASIZE PUSH1 0x3 NOT ADD SLT PUSH2 0x1FA JUMPI PUSH1 0x4 CALLDATALOAD PUSH1 0x1 PUSH1 0x1 PUSH1 0xA0 SHL SUB DUP2 AND SWAP1 DUP2 SWAP1 SUB PUSH2 0x1F8 JUMPI DUP2 MSTORE PUSH1 0x9 PUSH1 0x20 MSTORE PUSH1 0x40 DUP2 KECCAK256 DUP2 SWAP1 DUP3 SWAP1 DUP4 DUP1 SWAP2 DUP2 SWAP1 DUP1 SLOAD SWAP2 JUMPDEST DUP3 DUP2 LT PUSH2 0x653 JUMPI POP POP POP PUSH1 0xA SLOAD SWAP5 DUP1 ISZERO PUSH1 0x0 EQ PUSH2 0x621 JUMPI POP DUP1 SWAP2 JUMPDEST DUP1 PUSH2 0x5FB JUMPI POP PUSH1 0xC0 SWAP5 PUSH1 0xFF DUP1 SWAP3 SWAP5 JUMPDEST DUP2 PUSH1 0x40 MLOAD SWAP8 AND DUP8 MSTORE DUP2 DUP4 AND PUSH1 0x20 DUP9 ADD MSTORE AND PUSH1 0x40 DUP7 ADD MSTORE PUSH1 0x8 SHR AND PUSH1 0x60 DUP5 ADD MSTORE PUSH1 0x80 DUP4 ADD MSTORE PUSH1 0xA0 DUP3 ADD MSTORE RETURN JUMPDEST SWAP1 PUSH3 0x278D00 DUP3 ADD DUP1 SWAP3 GT PUSH2 0x2C8 JUMPI POP PUSH1 0xC0 SWAP5 PUSH1 0xFF PUSH2 0x61B DUP2 SWAP4 TIMESTAMP SWAP1 PUSH2 0x27BA JUMP JUMPDEST SWAP5 PUSH2 0x5D0 JUMP JUMPDEST PUSH3 0x93A80 DUP2 ADD DUP1 SWAP2 GT PUSH2 0x63F JUMPI PUSH2 0x639 SWAP1 TIMESTAMP SWAP1 PUSH2 0x27BA JUMP JUMPDEST SWAP2 PUSH2 0x5C1 JUMP JUMPDEST PUSH4 0x4E487B71 PUSH1 0xE0 SHL DUP3 MSTORE PUSH1 0x11 PUSH1 0x4 MSTORE PUSH1 0x24 DUP3 REVERT JUMPDEST PUSH2 0x65D DUP2 DUP4 PUSH2 0x23D3 JUMP JUMPDEST SWAP1 SLOAD SWAP1 PUSH1 0x3 SHL SHR PUSH3 0x278D00 DUP2 ADD DUP1 DUP3 GT PUSH2 0x6D9 JUMPI TIMESTAMP LT PUSH2 0x681 JUMPI JUMPDEST POP PUSH1 0x1 ADD PUSH2 0x5A6 JUMP JUMPDEST SWAP6 PUSH2 0x68B SWAP1 PUSH2 0x24D0 JUMP JUMPDEST SWAP6 DUP6 ISZERO DUP1 ISZERO PUSH2 0x6F5 JUMPI JUMPDEST PUSH2 0x6ED JUMPI JUMPDEST PUSH3 0x93A80 DUP2 ADD DUP1 DUP3 GT PUSH2 0x6D9 JUMPI TIMESTAMP LT ISZERO PUSH2 0x678 JUMPI SWAP7 PUSH2 0x6B8 SWAP1 PUSH2 0x24D0 JUMP JUMPDEST SWAP7 DUP9 ISZERO DUP1 ISZERO PUSH2 0x6D0 JUMPI JUMPDEST ISZERO PUSH2 0x678 JUMPI SWAP8 POP PUSH1 0x1 PUSH2 0x678 JUMP JUMPDEST POP DUP9 DUP2 LT PUSH2 0x6C2 JUMP JUMPDEST PUSH4 0x4E487B71 PUSH1 0xE0 SHL DUP7 MSTORE PUSH1 0x11 PUSH1 0x4 MSTORE PUSH1 0x24 DUP7 REVERT JUMPDEST SWAP5 POP DUP5 PUSH2 0x69A JUMP JUMPDEST POP DUP6 DUP2 LT PUSH2 0x695 JUMP JUMPDEST POP CALLVALUE PUSH2 0x1FA JUMPI PUSH1 0x20 CALLDATASIZE PUSH1 0x3 NOT ADD SLT PUSH2 0x1FA JUMPI PUSH1 0x4 CALLDATALOAD SWAP1 PUSH1 0x7 DUP3 LT ISZERO PUSH2 0x1FA JUMPI PUSH1 0x20 PUSH2 0x728 DUP4 PUSH2 0x23EB JUMP JUMPDEST SLOAD PUSH1 0x40 MLOAD SWAP1 DUP2 MSTORE RETURN JUMPDEST POP CALLVALUE PUSH2 0x1FA JUMPI PUSH1 0x20 CALLDATASIZE PUSH1 0x3 NOT ADD SLT PUSH2 0x1FA JUMPI PUSH1 0x4 CALLDATALOAD PUSH1 0x1 PUSH1 0x1 PUSH1 0xA0 SHL SUB DUP2 AND SWAP1 DUP2 SWAP1 SUB PUSH2 0x1F8 JUMPI CALLER DUP3 MSTORE PUSH1 0x4 PUSH1 0x20 MSTORE PUSH1 0xFF PUSH1 0x40 DUP4 KECCAK256 SLOAD AND PUSH1 0x8 DUP2 LT ISZERO PUSH2 0x951 JUMPI PUSH1 0x1 SUB PUSH2 0x91B JUMPI PUSH3 0x278CFF NOT TIMESTAMP ADD SWAP1 TIMESTAMP DUP3 GT PUSH2 0x907 JUMPI DUP1 DUP4 MSTORE PUSH1 0x9 PUSH1 0x20 MSTORE PUSH1 0x40 DUP4 KECCAK256 DUP1 SLOAD SWAP3 DUP5 JUMPDEST DUP5 DUP2 LT DUP1 PUSH2 0x8EE JUMPI JUMPDEST ISZERO PUSH2 0x7B4 JUMPI PUSH2 0x7AF SWAP1 PUSH2 0x24D0 JUMP JUMPDEST PUSH2 0x798 JUMP JUMPDEST DUP4 DUP4 DUP8 SWAP3 DUP1 PUSH2 0x83A JUMPI JUMPDEST POP DUP1 SLOAD SWAP1 PUSH1 0x1 PUSH1 0x40 SHL DUP3 LT ISZERO PUSH2 0x826 JUMPI DUP2 PUSH2 0x7E1 SWAP2 PUSH1 0x1 PUSH2 0x7F9 SWAP5 ADD DUP2 SSTORE PUSH2 0x23D3 JUMP JUMPDEST TIMESTAMP SWAP1 DUP3 SLOAD SWAP1 PUSH1 0x3 SHL SWAP2 DUP3 SHL SWAP2 PUSH1 0x0 NOT SWAP1 SHL NOT AND OR SWAP1 SSTORE JUMP JUMPDEST PUSH32 0x498F5E6DCF570483A1848853791046A7F10012193176D71F959F46EB7713D744 PUSH1 0x20 PUSH1 0x40 MLOAD TIMESTAMP DUP2 MSTORE LOG2 DUP1 RETURN JUMPDEST PUSH4 0x4E487B71 PUSH1 0xE0 SHL DUP5 MSTORE PUSH1 0x41 PUSH1 0x4 MSTORE PUSH1 0x24 DUP5 REVERT JUMPDEST SWAP3 DUP1 JUMPDEST PUSH2 0x848 DUP6 DUP5 SLOAD PUSH2 0x27BA JUMP JUMPDEST DUP2 LT ISZERO PUSH2 0x898 JUMPI DUP1 PUSH2 0x892 PUSH2 0x868 PUSH2 0x862 DUP9 PUSH1 0x1 SWAP6 PUSH2 0x27AD JUMP JUMPDEST DUP7 PUSH2 0x23D3 JUMP JUMPDEST SWAP1 SLOAD SWAP1 PUSH1 0x3 SHL SHR PUSH2 0x879 DUP4 DUP8 PUSH2 0x23D3 JUMP JUMPDEST SWAP1 SWAP2 SWAP1 DUP3 SLOAD SWAP1 PUSH1 0x3 SHL SWAP2 DUP3 SHL SWAP2 PUSH1 0x0 NOT SWAP1 SHL NOT AND OR SWAP1 SSTORE JUMP JUMPDEST ADD PUSH2 0x83D JUMP JUMPDEST POP SWAP3 DUP4 JUMPDEST DUP2 DUP2 LT PUSH2 0x8A9 JUMPI POP PUSH2 0x7BE JUMP JUMPDEST DUP3 SLOAD DUP1 ISZERO PUSH2 0x8DA JUMPI PUSH1 0x1 SWAP2 SWAP1 PUSH1 0x0 NOT ADD PUSH2 0x8C3 DUP2 DUP7 PUSH2 0x23D3 JUMP JUMPDEST DUP2 SLOAD SWAP1 PUSH1 0x0 NOT SWAP1 PUSH1 0x3 SHL SHL NOT AND SWAP1 SSTORE DUP5 SSTORE ADD PUSH2 0x89C JUMP JUMPDEST PUSH4 0x4E487B71 PUSH1 0xE0 SHL DUP7 MSTORE PUSH1 0x31 PUSH1 0x4 MSTORE PUSH1 0x24 DUP7 REVERT JUMPDEST POP DUP2 PUSH2 0x8FA DUP3 DUP6 PUSH2 0x23D3 JUMP JUMPDEST SWAP1 SLOAD SWAP1 PUSH1 0x3 SHL SHR LT PUSH2 0x7A1 JUMP JUMPDEST PUSH4 0x4E487B71 PUSH1 0xE0 SHL DUP4 MSTORE PUSH1 0x11 PUSH1 0x4 MSTORE PUSH1 0x24 DUP4 REVERT JUMPDEST PUSH1 0x40 MLOAD PUSH3 0x461BCD PUSH1 0xE5 SHL DUP2 MSTORE PUSH1 0x20 PUSH1 0x4 DUP3 ADD MSTORE PUSH1 0xE PUSH1 0x24 DUP3 ADD MSTORE PUSH14 0x24B73B30B634B21031B0B63632B9 PUSH1 0x91 SHL PUSH1 0x44 DUP3 ADD MSTORE PUSH1 0x64 SWAP1 REVERT JUMPDEST PUSH4 0x4E487B71 PUSH1 0xE0 SHL DUP4 MSTORE PUSH1 0x21 PUSH1 0x4 MSTORE PUSH1 0x24 DUP4 REVERT JUMPDEST POP CALLVALUE PUSH2 0x1FA JUMPI DUP1 PUSH1 0x3 NOT CALLDATASIZE ADD SLT PUSH2 0x1FA JUMPI PUSH1 0x7 SLOAD PUSH1 0x40 MLOAD PUSH1 0x1 PUSH1 0x1 PUSH1 0xA0 SHL SUB SWAP1 SWAP2 AND DUP2 MSTORE PUSH1 0x20 SWAP1 RETURN JUMPDEST POP CALLVALUE PUSH2 0x1FA JUMPI PUSH1 0x20 CALLDATASIZE PUSH1 0x3 NOT ADD SLT PUSH2 0x1FA JUMPI PUSH1 0x4 CALLDATALOAD PUSH1 0x1 PUSH1 0x1 PUSH1 0xA0 SHL SUB DUP2 AND SWAP1 DUP2 SWAP1 SUB PUSH2 0x1F8 JUMPI PUSH1 0x40 DUP3 PUSH1 0xFF SWAP3 PUSH1 0x20 SWAP5 MSTORE PUSH1 0x2 DUP5 MSTORE KECCAK256 SLOAD AND PUSH1 0x40 MLOAD SWAP1 ISZERO ISZERO DUP2 MSTORE RETURN JUMPDEST POP CALLVALUE PUSH2 0x1FA JUMPI DUP1 PUSH1 0x3 NOT CALLDATASIZE ADD SLT PUSH2 0x1FA JUMPI PUSH3 0x278CFF NOT TIMESTAMP ADD TIMESTAMP DUP2 GT PUSH2 0x63F JUMPI PUSH1 0x6 SLOAD DUP3 DUP4 JUMPDEST DUP3 DUP2 LT PUSH2 0xB7D JUMPI POP PUSH2 0xA06 SWAP1 PUSH2 0x250D JUMP JUMPDEST SWAP2 DUP4 SWAP1 DUP5 JUMPDEST DUP4 DUP2 LT PUSH2 0xA28 JUMPI PUSH1 0x40 MLOAD PUSH1 0x20 DUP1 DUP3 MSTORE DUP2 SWAP1 PUSH2 0x1F4 SWAP1 DUP3 ADD DUP9 PUSH2 0x2358 JUMP JUMPDEST PUSH2 0xA31 DUP2 PUSH2 0x23A2 JUMP JUMPDEST SWAP1 SLOAD PUSH1 0x3 SWAP2 SWAP1 SWAP2 SHL SHR PUSH1 0x1 PUSH1 0x1 PUSH1 0xA0 SHL SUB AND DUP7 MSTORE PUSH1 0x4 PUSH1 0x20 MSTORE PUSH1 0x40 DUP7 KECCAK256 SLOAD PUSH1 0xFF AND PUSH1 0x8 DUP2 LT ISZERO PUSH2 0xB69 JUMPI PUSH1 0x6 EQ SWAP1 DUP2 ISZERO PUSH2 0xB2B JUMPI JUMPDEST DUP2 PUSH2 0xAAA JUMPI JUMPDEST PUSH1 0x1 SWAP2 PUSH2 0xA7A JUMPI JUMPDEST ADD PUSH2 0xA0B JUMP JUMPDEST PUSH2 0xA83 DUP2 PUSH2 0x23A2 JUMP JUMPDEST DUP4 DUP1 PUSH1 0xA0 SHL SUB SWAP2 SLOAD SWAP1 PUSH1 0x3 SHL SHR AND PUSH2 0xAA4 PUSH2 0xA9D DUP7 PUSH2 0x24D0 JUMP JUMPDEST SWAP6 DUP9 PUSH2 0x253F JUMP JUMPDEST MSTORE PUSH2 0xA74 JUMP JUMPDEST PUSH1 0x4 SWAP2 POP DUP7 PUSH2 0xAB8 DUP3 PUSH2 0x23A2 JUMP JUMPDEST SWAP1 SLOAD PUSH1 0x40 MLOAD PUSH4 0x1F385F79 PUSH1 0xE2 SHL DUP2 MSTORE SWAP5 DUP6 SWAP3 SWAP1 SWAP2 DUP4 SWAP2 PUSH1 0x3 SHL SHR PUSH1 0x1 PUSH1 0x1 PUSH1 0xA0 SHL SUB AND GAS STATICCALL DUP1 ISZERO PUSH2 0xB20 JUMPI PUSH2 0x100 DUP5 SWAP2 PUSH1 0x1 SWAP5 DUP11 SWAP2 PUSH2 0xAFE JUMPI JUMPDEST POP ADD MLOAD LT ISZERO SWAP2 POP PUSH2 0xA6C JUMP JUMPDEST PUSH2 0xB1A SWAP2 POP RETURNDATASIZE DUP1 DUP13 DUP4 RETURNDATACOPY PUSH2 0xB12 DUP2 DUP4 PUSH2 0x24AE JUMP JUMPDEST DUP2 ADD SWAP1 PUSH2 0x25DF JUMP JUMPDEST CODESIZE PUSH2 0xAF2 JUMP JUMPDEST PUSH1 0x40 MLOAD RETURNDATASIZE DUP10 DUP3 RETURNDATACOPY RETURNDATASIZE SWAP1 REVERT JUMPDEST SWAP1 POP PUSH2 0xB36 DUP2 PUSH2 0x23A2 JUMP JUMPDEST SWAP1 SLOAD PUSH1 0x3 SWAP2 SWAP1 SWAP2 SHL SHR PUSH1 0x1 PUSH1 0x1 PUSH1 0xA0 SHL SUB AND DUP7 MSTORE PUSH1 0x4 PUSH1 0x20 MSTORE PUSH1 0x40 DUP7 KECCAK256 SLOAD PUSH1 0xFF AND PUSH1 0x8 DUP2 LT ISZERO PUSH2 0xB69 JUMPI PUSH1 0x7 EQ SWAP1 PUSH2 0xA66 JUMP JUMPDEST PUSH4 0x4E487B71 PUSH1 0xE0 SHL DUP8 MSTORE PUSH1 0x21 PUSH1 0x4 MSTORE PUSH1 0x24 DUP8 REVERT JUMPDEST PUSH2 0xB86 DUP2 PUSH2 0x23A2 JUMP JUMPDEST SWAP1 SLOAD PUSH1 0x3 SWAP2 SWAP1 SWAP2 SHL SHR PUSH1 0x1 PUSH1 0x1 PUSH1 0xA0 SHL SUB AND DUP6 MSTORE PUSH1 0x4 PUSH1 0x20 MSTORE PUSH1 0x40 DUP6 KECCAK256 SLOAD PUSH1 0xFF AND PUSH1 0x8 DUP2 LT ISZERO PUSH2 0xC92 JUMPI PUSH1 0x6 EQ DUP1 ISZERO PUSH2 0xC56 JUMPI JUMPDEST DUP1 PUSH2 0xBE1 JUMPI JUMPDEST PUSH2 0xBCD JUMPI JUMPDEST PUSH1 0x1 ADD PUSH2 0x9F5 JUMP JUMPDEST SWAP1 PUSH2 0xBD9 PUSH1 0x1 SWAP2 PUSH2 0x24D0 JUMP JUMPDEST SWAP2 SWAP1 POP PUSH2 0xBC5 JUMP JUMPDEST POP PUSH1 0x4 DUP6 PUSH2 0xBEE DUP4 PUSH2 0x23A2 JUMP JUMPDEST SWAP1 SLOAD PUSH1 0x40 MLOAD PUSH4 0x1F385F79 PUSH1 0xE2 SHL DUP2 MSTORE SWAP4 DUP5 SWAP3 SWAP1 SWAP2 DUP4 SWAP2 PUSH1 0x3 SHL SHR PUSH1 0x1 PUSH1 0x1 PUSH1 0xA0 SHL SUB AND GAS STATICCALL SWAP1 DUP2 ISZERO PUSH2 0xC4B JUMPI DUP6 SWAP2 PUSH2 0x100 SWAP2 DUP9 SWAP2 PUSH2 0xC31 JUMPI JUMPDEST POP ADD MLOAD LT ISZERO PUSH2 0xBC0 JUMP JUMPDEST PUSH2 0xC45 SWAP2 POP RETURNDATASIZE DUP1 DUP11 DUP4 RETURNDATACOPY PUSH2 0xB12 DUP2 DUP4 PUSH2 0x24AE JUMP JUMPDEST CODESIZE PUSH2 0xC27 JUMP JUMPDEST PUSH1 0x40 MLOAD RETURNDATASIZE DUP9 DUP3 RETURNDATACOPY RETURNDATASIZE SWAP1 REVERT JUMPDEST POP PUSH2 0xC60 DUP2 PUSH2 0x23A2 JUMP JUMPDEST SWAP1 SLOAD PUSH1 0x3 SWAP2 SWAP1 SWAP2 SHL SHR PUSH1 0x1 PUSH1 0x1 PUSH1 0xA0 SHL SUB AND DUP6 MSTORE PUSH1 0x4 PUSH1 0x20 MSTORE PUSH1 0x40 DUP6 KECCAK256 SLOAD PUSH1 0xFF AND PUSH1 0x8 DUP2 LT ISZERO PUSH2 0xC92 JUMPI PUSH1 0x7 EQ PUSH2 0xBBA JUMP JUMPDEST PUSH4 0x4E487B71 PUSH1 0xE0 SHL DUP7 MSTORE PUSH1 0x21 PUSH1 0x4 MSTORE PUSH1 0x24 DUP7 REVERT JUMPDEST POP CALLVALUE PUSH2 0x1FA JUMPI PUSH1 0x20 CALLDATASIZE PUSH1 0x3 NOT ADD SLT PUSH2 0x1FA JUMPI PUSH1 0x4 CALLDATALOAD PUSH1 0x1 PUSH1 0x1 PUSH1 0xA0 SHL SUB DUP2 AND SWAP1 DUP2 SWAP1 SUB PUSH2 0x1F8 JUMPI PUSH1 0x40 DUP3 PUSH1 0xFF SWAP3 PUSH1 0x20 SWAP5 MSTORE PUSH1 0x5 DUP5 MSTORE KECCAK256 SLOAD AND PUSH1 0x40 MLOAD SWAP1 ISZERO ISZERO DUP2 MSTORE RETURN JUMPDEST POP CALLVALUE PUSH2 0x1FA JUMPI PUSH1 0x40 CALLDATASIZE PUSH1 0x3 NOT ADD SLT PUSH2 0x1FA JUMPI PUSH1 0x4 CALLDATALOAD PUSH1 0x24 CALLDATALOAD PUSH1 0x7 DUP2 LT ISZERO PUSH2 0x250 JUMPI DUP2 ISZERO PUSH2 0xE31 JUMPI CALLER DUP4 MSTORE PUSH1 0x4 PUSH1 0x20 MSTORE PUSH1 0xFF PUSH1 0x40 DUP5 KECCAK256 SLOAD AND PUSH1 0x8 DUP2 LT ISZERO PUSH2 0xE1D JUMPI PUSH1 0x6 EQ DUP1 ISZERO PUSH2 0xDFB JUMPI JUMPDEST DUP4 SLOAD PUSH1 0x1 PUSH1 0x1 PUSH1 0xA0 SHL SUB AND CALLER EQ DUP1 ISZERO PUSH2 0xDE5 JUMPI JUMPDEST DUP2 ISZERO PUSH2 0xDDD JUMPI JUMPDEST POP ISZERO PUSH2 0xD98 JUMPI PUSH2 0xD5C DUP2 PUSH2 0x23EB JUMP JUMPDEST PUSH2 0xD67 DUP4 DUP3 SLOAD PUSH2 0x27AD JUMP JUMPDEST SWAP1 SSTORE PUSH1 0x40 MLOAD SWAP2 DUP3 MSTORE PUSH32 0x606617FD09D9890413E3C46147B844D4562351F86E0F7A5C60849BBF0EF02811 PUSH1 0x20 CALLER SWAP4 LOG3 DUP1 RETURN JUMPDEST PUSH1 0x40 MLOAD PUSH3 0x461BCD PUSH1 0xE5 SHL DUP2 MSTORE PUSH1 0x20 PUSH1 0x4 DUP3 ADD MSTORE PUSH1 0x1D PUSH1 0x24 DUP3 ADD MSTORE PUSH32 0x43616C6C6572206E6F742061206D697373696F6E206F722061646D696E000000 PUSH1 0x44 DUP3 ADD MSTORE PUSH1 0x64 SWAP1 REVERT JUMPDEST SWAP1 POP CODESIZE PUSH2 0xD4D JUMP JUMPDEST POP CALLER DUP5 MSTORE PUSH1 0x2 PUSH1 0x20 MSTORE PUSH1 0xFF PUSH1 0x40 DUP6 KECCAK256 SLOAD AND PUSH2 0xD46 JUMP JUMPDEST POP CALLER DUP4 MSTORE PUSH1 0x4 PUSH1 0x20 MSTORE PUSH1 0xFF PUSH1 0x40 DUP5 KECCAK256 SLOAD AND PUSH1 0x8 DUP2 LT ISZERO PUSH2 0xE1D JUMPI PUSH1 0x7 EQ PUSH2 0xD32 JUMP JUMPDEST PUSH4 0x4E487B71 PUSH1 0xE0 SHL DUP5 MSTORE PUSH1 0x21 PUSH1 0x4 MSTORE PUSH1 0x24 DUP5 REVERT JUMPDEST PUSH1 0x64 PUSH1 0x40 MLOAD PUSH3 0x461BCD PUSH1 0xE5 SHL DUP2 MSTORE PUSH1 0x20 PUSH1 0x4 DUP3 ADD MSTORE PUSH1 0x20 PUSH1 0x24 DUP3 ADD MSTORE PUSH32 0x416D6F756E74206D7573742062652067726561746572207468616E207A65726F PUSH1 0x44 DUP3 ADD MSTORE REVERT JUMPDEST POP PUSH2 0x120 CALLDATASIZE PUSH1 0x3 NOT ADD SLT PUSH2 0x1FA JUMPI PUSH1 0x4 CALLDATALOAD PUSH1 0x7 DUP2 LT ISZERO PUSH2 0x1F8 JUMPI PUSH1 0x24 CALLDATALOAD SWAP1 PUSH1 0x44 CALLDATALOAD SWAP2 PUSH1 0x64 CALLDATALOAD PUSH1 0x84 CALLDATALOAD PUSH1 0xFF DUP2 AND DUP1 SWAP2 SUB PUSH2 0x1381 JUMPI PUSH1 0xA4 CALLDATALOAD PUSH1 0xFF DUP2 AND DUP1 SWAP2 SUB PUSH2 0x137D JUMPI PUSH1 0xC4 CALLDATALOAD SWAP1 PUSH1 0xE4 CALLDATALOAD SWAP3 PUSH2 0x104 CALLDATALOAD SWAP5 PUSH1 0xFF DUP7 AND DUP1 SWAP7 SUB PUSH2 0x1379 JUMPI DUP10 SLOAD PUSH1 0x1 PUSH1 0x1 PUSH1 0xA0 SHL SUB AND CALLER EQ DUP1 ISZERO PUSH2 0x1363 JUMPI JUMPDEST PUSH2 0xEEB SWAP1 PUSH2 0x2404 JUMP JUMPDEST PUSH1 0x5 DUP7 LT PUSH2 0x1304 JUMPI DUP6 DUP3 LT PUSH2 0x1299 JUMPI DUP9 DUP8 LT ISZERO PUSH2 0x1248 JUMPI DUP9 DUP5 LT PUSH2 0x11EA JUMPI DUP4 DUP6 GT ISZERO PUSH2 0x11A6 JUMPI DUP1 ISZERO PUSH2 0x114D JUMPI PUSH1 0x7 SLOAD PUSH1 0x88 DUP2 SWAP1 SHR PUSH3 0xFFFFFF AND PUSH23 0x3D602D80600A3D3981F3363D3D373D3D3D363D73000000 OR DUP12 MSTORE PUSH1 0x78 SHL PUSH15 0xFFFFFFFFFFFFFFFFFFFFFFFFFFFFFF NOT AND PUSH15 0x5AF43D82803E903D91602B57FD5BF3 OR PUSH1 0x20 MSTORE PUSH1 0x1 PUSH1 0x1 PUSH1 0xA0 SHL SUB PUSH1 0x37 PUSH1 0x9 DUP13 CREATE AND SWAP9 DUP10 ISZERO PUSH2 0x113E JUMPI DUP10 DUP12 MSTORE PUSH1 0x5 PUSH1 0x20 MSTORE PUSH1 0x40 DUP12 KECCAK256 PUSH1 0x1 PUSH1 0xFF NOT DUP3 SLOAD AND OR SWAP1 SSTORE DUP10 DUP12 MSTORE PUSH1 0x4 PUSH1 0x20 MSTORE PUSH1 0x40 DUP12 KECCAK256 PUSH1 0xFF NOT DUP2 SLOAD AND SWAP1 SSTORE PUSH1 0x1 DUP1 PUSH1 0xA0 SHL SUB DUP12 SLOAD AND SWAP8 DUP11 EXTCODESIZE ISZERO PUSH2 0x113A JUMPI PUSH1 0x40 MLOAD SWAP9 PUSH4 0xC54168B3 PUSH1 0xE0 SHL DUP11 MSTORE PUSH1 0x4 DUP11 ADD MSTORE ADDRESS PUSH1 0x24 DUP11 ADD MSTORE PUSH2 0xFE1 PUSH1 0x44 DUP11 ADD DUP12 PUSH2 0x2395 JUMP JUMPDEST PUSH1 0x64 DUP10 ADD MSTORE PUSH1 0x84 DUP9 ADD MSTORE PUSH1 0xA4 DUP8 ADD MSTORE PUSH1 0xC4 DUP7 ADD MSTORE PUSH1 0xE4 DUP6 ADD MSTORE PUSH2 0x104 DUP5 ADD MSTORE PUSH2 0x124 DUP4 ADD MSTORE PUSH2 0x144 DUP3 ADD MSTORE DUP4 DUP2 PUSH2 0x164 DUP2 CALLVALUE DUP8 GAS CALL DUP1 ISZERO PUSH2 0x112F JUMPI PUSH2 0x111B JUMPI JUMPDEST POP PUSH1 0x6 SLOAD PUSH1 0x1 PUSH1 0x40 SHL DUP2 LT ISZERO PUSH2 0x826 JUMPI DUP1 PUSH1 0x1 PUSH2 0x1041 SWAP3 ADD PUSH1 0x6 SSTORE PUSH2 0x23A2 JUMP JUMPDEST DUP2 SLOAD PUSH1 0x1 PUSH1 0x1 PUSH1 0xA0 SHL SUB PUSH1 0x3 SWAP3 SWAP1 SWAP3 SHL SWAP2 DUP3 SHL NOT AND SWAP1 DUP5 SWAP1 SHL OR SWAP1 SSTORE DUP1 DUP3 PUSH32 0xAC1AC89285BF936F515AAFCF6808B3E062E77FD57F52C8892D20FC9409B8B53 DUP6 DUP1 LOG3 PUSH2 0x108C DUP2 PUSH2 0x23EB JUMP JUMPDEST SLOAD PUSH1 0x2 SHR SWAP1 DUP2 ISZERO ISZERO DUP1 PUSH2 0x1111 JUMPI JUMPDEST PUSH2 0x10AA JUMPI JUMPDEST PUSH1 0x20 DUP4 PUSH1 0x40 MLOAD SWAP1 DUP2 MSTORE RETURN JUMPDEST PUSH2 0x10B3 SWAP1 PUSH2 0x23EB JUMP JUMPDEST PUSH2 0x10BE DUP3 DUP3 SLOAD PUSH2 0x27BA JUMP JUMPDEST SWAP1 SSTORE DUP3 DUP3 EXTCODESIZE ISZERO PUSH2 0x1FA JUMPI PUSH1 0x40 MLOAD PUSH4 0xEB2BAB77 PUSH1 0xE0 SHL DUP2 MSTORE SWAP2 DUP3 SWAP1 PUSH1 0x4 SWAP1 DUP3 SWAP1 DUP7 GAS CALL DUP1 ISZERO PUSH2 0x1106 JUMPI PUSH2 0x10F1 JUMPI JUMPDEST DUP1 PUSH2 0x109F JUMP JUMPDEST PUSH2 0x10FC DUP4 DUP1 SWAP3 PUSH2 0x24AE JUMP JUMPDEST PUSH2 0x1F8 JUMPI DUP2 PUSH2 0x10EB JUMP JUMPDEST PUSH1 0x40 MLOAD RETURNDATASIZE DUP6 DUP3 RETURNDATACOPY RETURNDATASIZE SWAP1 REVERT JUMPDEST POP DUP2 SELFBALANCE LT ISZERO PUSH2 0x109A JUMP JUMPDEST DUP4 PUSH2 0x1128 SWAP2 SWAP5 SWAP3 SWAP5 PUSH2 0x24AE JUMP JUMPDEST SWAP2 CODESIZE PUSH2 0x1021 JUMP JUMPDEST PUSH1 0x40 MLOAD RETURNDATASIZE DUP7 DUP3 RETURNDATACOPY RETURNDATASIZE SWAP1 REVERT JUMPDEST DUP12 DUP1 REVERT JUMPDEST PUSH4 0xB06EBF3D PUSH1 0xE0 SHL DUP12 MSTORE PUSH1 0x4 DUP12 REVERT JUMPDEST PUSH1 0x40 MLOAD PUSH3 0x461BCD PUSH1 0xE5 SHL DUP2 MSTORE PUSH1 0x20 PUSH1 0x4 DUP3 ADD MSTORE PUSH1 0x2B PUSH1 0x24 DUP3 ADD MSTORE PUSH32 0x456E726F6C6C6D656E7420616D6F756E74206D75737420626520677265617465 PUSH1 0x44 DUP3 ADD MSTORE PUSH11 0x72207468616E207A65726F PUSH1 0xA8 SHL PUSH1 0x64 DUP3 ADD MSTORE PUSH1 0x84 SWAP1 REVERT JUMPDEST PUSH1 0x64 PUSH1 0x40 MLOAD PUSH3 0x461BCD PUSH1 0xE5 SHL DUP2 MSTORE PUSH1 0x20 PUSH1 0x4 DUP3 ADD MSTORE PUSH1 0x20 PUSH1 0x24 DUP3 ADD MSTORE PUSH32 0x4D697373696F6E207374617274206D757374206265206265666F726520656E64 PUSH1 0x44 DUP3 ADD MSTORE REVERT JUMPDEST PUSH1 0x40 MLOAD PUSH3 0x461BCD PUSH1 0xE5 SHL DUP2 MSTORE PUSH1 0x20 PUSH1 0x4 DUP3 ADD MSTORE PUSH1 0x30 PUSH1 0x24 DUP3 ADD MSTORE PUSH32 0x4D697373696F6E207374617274206D757374206265206F6E206F722061667465 PUSH1 0x44 DUP3 ADD MSTORE PUSH16 0x1C88195B9C9BDB1B1B595B9D08195B99 PUSH1 0x82 SHL PUSH1 0x64 DUP3 ADD MSTORE PUSH1 0x84 SWAP1 REVERT JUMPDEST PUSH1 0x40 MLOAD PUSH3 0x461BCD PUSH1 0xE5 SHL DUP2 MSTORE PUSH1 0x20 PUSH1 0x4 DUP3 ADD MSTORE PUSH1 0x23 PUSH1 0x24 DUP3 ADD MSTORE PUSH32 0x456E726F6C6C6D656E74207374617274206D757374206265206265666F726520 PUSH1 0x44 DUP3 ADD MSTORE PUSH3 0x195B99 PUSH1 0xEA SHL PUSH1 0x64 DUP3 ADD MSTORE PUSH1 0x84 SWAP1 REVERT JUMPDEST PUSH1 0x40 MLOAD PUSH3 0x461BCD PUSH1 0xE5 SHL DUP2 MSTORE PUSH1 0x20 PUSH1 0x4 DUP3 ADD MSTORE PUSH1 0x3F PUSH1 0x24 DUP3 ADD MSTORE PUSH32 0x4D696E696D756D20706C6179657273206D757374206265206772656174657220 PUSH1 0x44 DUP3 ADD MSTORE PUSH32 0x7468616E206F7220657175616C20746F206D697373696F6E20726F756E647300 PUSH1 0x64 DUP3 ADD MSTORE PUSH1 0x84 SWAP1 REVERT JUMPDEST PUSH1 0x40 MLOAD PUSH3 0x461BCD PUSH1 0xE5 SHL DUP2 MSTORE PUSH1 0x20 PUSH1 0x4 DUP3 ADD MSTORE PUSH1 0x31 PUSH1 0x24 DUP3 ADD MSTORE PUSH32 0x4D697373696F6E20726F756E6473206D75737420626520677265617465722074 PUSH1 0x44 DUP3 ADD MSTORE PUSH17 0x68616E206F7220657175616C20746F2035 PUSH1 0x78 SHL PUSH1 0x64 DUP3 ADD MSTORE PUSH1 0x84 SWAP1 REVERT JUMPDEST POP CALLER DUP11 MSTORE PUSH1 0x2 PUSH1 0x20 MSTORE PUSH1 0x40 DUP11 KECCAK256 SLOAD PUSH1 0xFF AND PUSH2 0xEE2 JUMP JUMPDEST DUP10 DUP1 REVERT JUMPDEST DUP7 DUP1 REVERT JUMPDEST DUP6 DUP1 REVERT JUMPDEST POP CALLVALUE PUSH2 0x1FA JUMPI PUSH1 0x20 CALLDATASIZE PUSH1 0x3 NOT ADD SLT PUSH2 0x1FA JUMPI PUSH1 0x4 CALLDATALOAD PUSH1 0x1 PUSH1 0x1 PUSH1 0xA0 SHL SUB DUP2 AND DUP2 SUB PUSH2 0x1F8 JUMPI PUSH2 0x13B3 SWAP1 PUSH2 0x2A9A JUMP JUMPDEST PUSH1 0x40 MLOAD SWAP2 ISZERO ISZERO DUP3 MSTORE PUSH1 0x3 DUP2 LT ISZERO PUSH2 0x951 JUMPI PUSH1 0x40 SWAP3 POP PUSH1 0x20 DUP3 ADD MSTORE RETURN JUMPDEST POP CALLVALUE PUSH2 0x1FA JUMPI DUP1 PUSH1 0x3 NOT CALLDATASIZE ADD SLT PUSH2 0x1FA JUMPI SLOAD PUSH1 0x40 MLOAD PUSH1 0x1 PUSH1 0x1 PUSH1 0xA0 SHL SUB SWAP1 SWAP2 AND DUP2 MSTORE PUSH1 0x20 SWAP1 RETURN JUMPDEST POP CALLVALUE PUSH2 0x1FA JUMPI DUP1 PUSH1 0x3 NOT CALLDATASIZE ADD SLT PUSH2 0x1FA JUMPI PUSH1 0x20 PUSH1 0xFF PUSH1 0xA SLOAD AND PUSH1 0x40 MLOAD SWAP1 DUP2 MSTORE RETURN JUMPDEST POP CALLVALUE PUSH2 0x1FA JUMPI PUSH1 0x20 CALLDATASIZE PUSH1 0x3 NOT ADD SLT PUSH2 0x1FA JUMPI PUSH1 0x6 SLOAD SWAP1 PUSH1 0x4 CALLDATALOAD DUP3 DUP2 GT PUSH2 0x14A3 JUMPI JUMPDEST PUSH2 0x1441 DUP2 PUSH2 0x250D JUMP JUMPDEST SWAP2 DUP1 PUSH1 0x0 NOT DUP6 ADD SWAP5 DUP6 GT SWAP1 JUMPDEST DUP4 DUP2 LT PUSH2 0x146A JUMPI PUSH1 0x40 MLOAD PUSH1 0x20 DUP1 DUP3 MSTORE DUP2 SWAP1 PUSH2 0x1F4 SWAP1 DUP3 ADD DUP9 PUSH2 0x2358 JUMP JUMPDEST DUP2 PUSH2 0x907 JUMPI DUP1 PUSH2 0x1484 PUSH2 0x147F PUSH1 0x1 SWAP4 DUP10 PUSH2 0x27BA JUMP JUMPDEST PUSH2 0x23A2 JUMP JUMPDEST DUP4 DUP1 PUSH1 0xA0 SHL SUB SWAP2 SLOAD SWAP1 PUSH1 0x3 SHL SHR AND PUSH2 0x149C DUP3 DUP9 PUSH2 0x253F JUMP JUMPDEST MSTORE ADD PUSH2 0x144D JUMP JUMPDEST POP DUP2 PUSH2 0x1438 JUMP JUMPDEST POP CALLVALUE PUSH2 0x1FA JUMPI DUP1 PUSH1 0x3 NOT CALLDATASIZE ADD SLT PUSH2 0x1FA JUMPI PUSH2 0x14C3 PUSH2 0x2C19 JUMP JUMPDEST DUP1 SLOAD PUSH1 0x1 PUSH1 0x1 PUSH1 0xA0 SHL SUB NOT DUP2 AND DUP3 SSTORE DUP2 SWAP1 PUSH1 0x1 PUSH1 0x1 PUSH1 0xA0 SHL SUB AND PUSH32 0x8BE0079C531659141344CD1FD0A4F28419497F9722A3DAAFE3B4186F6B6457E0 DUP3 DUP1 LOG3 DUP1 RETURN JUMPDEST POP CALLVALUE PUSH2 0x1FA JUMPI PUSH1 0x20 CALLDATASIZE PUSH1 0x3 NOT ADD SLT PUSH2 0x1FA JUMPI PUSH1 0x4 CALLDATALOAD PUSH1 0x1 PUSH1 0x1 PUSH1 0xA0 SHL SUB DUP2 AND SWAP1 DUP2 SWAP1 SUB PUSH2 0x1F8 JUMPI DUP2 SLOAD PUSH1 0x1 PUSH1 0x1 PUSH1 0xA0 SHL SUB AND CALLER EQ DUP1 ISZERO PUSH2 0x15D9 JUMPI JUMPDEST PUSH2 0x1548 SWAP1 PUSH2 0x2404 JUMP JUMPDEST PUSH2 0x1553 DUP2 ISZERO ISZERO PUSH2 0x27C7 JUMP JUMPDEST DUP1 DUP3 MSTORE PUSH1 0x2 PUSH1 0x20 MSTORE PUSH1 0xFF PUSH1 0x40 DUP4 KECCAK256 SLOAD AND ISZERO PUSH2 0x15A3 JUMPI DUP1 DUP3 MSTORE PUSH1 0x2 PUSH1 0x20 MSTORE PUSH1 0x40 DUP3 KECCAK256 DUP1 SLOAD PUSH1 0xFF NOT AND SWAP1 SSTORE PUSH32 0x66D5F06F711AF3C9FEBA3203FDB00B51345D514C68585D9D319C5FF5E6F77592 DUP3 DUP1 LOG2 DUP1 RETURN JUMPDEST PUSH1 0x40 MLOAD PUSH3 0x461BCD PUSH1 0xE5 SHL DUP2 MSTORE PUSH1 0x20 PUSH1 0x4 DUP3 ADD MSTORE PUSH1 0xE PUSH1 0x24 DUP3 ADD MSTORE PUSH14 0x139BDD08185D5D1A1BDC9A5E9959 PUSH1 0x92 SHL PUSH1 0x44 DUP3 ADD MSTORE PUSH1 0x64 SWAP1 REVERT JUMPDEST POP CALLER DUP3 MSTORE PUSH1 0x2 PUSH1 0x20 MSTORE PUSH1 0x40 DUP3 KECCAK256 SLOAD PUSH1 0xFF AND PUSH2 0x153F JUMP JUMPDEST POP CALLVALUE PUSH2 0x1FA JUMPI DUP1 PUSH1 0x3 NOT CALLDATASIZE ADD SLT PUSH2 0x1FA JUMPI PUSH2 0x1622 SWAP1 PUSH2 0x160C PUSH2 0x2805 JUMP JUMPDEST SWAP1 SWAP2 PUSH1 0x40 MLOAD SWAP4 DUP5 SWAP4 PUSH1 0x40 DUP6 MSTORE PUSH1 0x40 DUP6 ADD SWAP1 PUSH2 0x2358 JUMP JUMPDEST DUP4 DUP2 SUB PUSH1 0x20 DUP6 ADD MSTORE PUSH1 0x20 DUP1 DUP5 MLOAD SWAP3 DUP4 DUP2 MSTORE ADD SWAP4 ADD SWAP2 JUMPDEST DUP2 DUP2 LT PUSH2 0x1646 JUMPI POP POP POP SUB SWAP1 RETURN JUMPDEST SWAP2 SWAP4 POP SWAP2 PUSH1 0x20 DUP1 DUP3 PUSH2 0x165B PUSH1 0x1 SWAP5 DUP9 MLOAD PUSH2 0x2335 JUMP JUMPDEST ADD SWAP5 ADD SWAP2 ADD SWAP2 DUP5 SWAP4 SWAP3 PUSH2 0x1638 JUMP JUMPDEST POP CALLVALUE PUSH2 0x1FA JUMPI DUP1 PUSH1 0x3 NOT CALLDATASIZE ADD SLT PUSH2 0x1FA JUMPI PUSH1 0x6 SLOAD DUP2 DUP3 JUMPDEST DUP3 DUP2 LT PUSH2 0x176B JUMPI POP PUSH2 0x1691 SWAP1 PUSH2 0x250D JUMP JUMPDEST SWAP1 DUP3 DUP4 JUMPDEST DUP3 DUP2 LT PUSH2 0x16B2 JUMPI PUSH1 0x40 MLOAD PUSH1 0x20 DUP1 DUP3 MSTORE DUP2 SWAP1 PUSH2 0x1F4 SWAP1 DUP3 ADD DUP8 PUSH2 0x2358 JUMP JUMPDEST PUSH2 0x16BB DUP2 PUSH2 0x23A2 JUMP JUMPDEST SWAP1 SLOAD PUSH1 0x3 SWAP2 SWAP1 SWAP2 SHL SHR PUSH1 0x1 PUSH1 0x1 PUSH1 0xA0 SHL SUB AND DUP6 MSTORE PUSH1 0x4 PUSH1 0x20 MSTORE PUSH1 0x40 DUP6 KECCAK256 SLOAD PUSH1 0xFF AND PUSH1 0x8 DUP2 LT ISZERO PUSH2 0xC92 JUMPI PUSH1 0x6 EQ ISZERO DUP1 PUSH2 0x172E JUMPI JUMPDEST SWAP1 PUSH1 0x1 SWAP2 PUSH2 0x16FE JUMPI JUMPDEST ADD PUSH2 0x1695 JUMP JUMPDEST PUSH2 0x1707 DUP2 PUSH2 0x23A2 JUMP JUMPDEST DUP4 DUP1 PUSH1 0xA0 SHL SUB SWAP2 SLOAD SWAP1 PUSH1 0x3 SHL SHR AND PUSH2 0x1728 PUSH2 0x1721 DUP6 PUSH2 0x24D0 JUMP JUMPDEST SWAP5 DUP8 PUSH2 0x253F JUMP JUMPDEST MSTORE PUSH2 0x16F8 JUMP JUMPDEST POP PUSH2 0x1738 DUP2 PUSH2 0x23A2 JUMP JUMPDEST SWAP1 SLOAD PUSH1 0x3 SWAP2 SWAP1 SWAP2 SHL SHR PUSH1 0x1 PUSH1 0x1 PUSH1 0xA0 SHL SUB AND DUP6 MSTORE PUSH1 0x4 PUSH1 0x20 MSTORE PUSH1 0x40 DUP6 KECCAK256 SLOAD PUSH1 0xFF AND PUSH1 0x8 DUP2 LT ISZERO PUSH2 0xC92 JUMPI PUSH1 0x7 EQ ISZERO PUSH2 0x16EF JUMP JUMPDEST PUSH2 0x1774 DUP2 PUSH2 0x23A2 JUMP JUMPDEST SWAP1 SLOAD PUSH1 0x3 SWAP2 SWAP1 SWAP2 SHL SHR PUSH1 0x1 PUSH1 0x1 PUSH1 0xA0 SHL SUB AND DUP5 MSTORE PUSH1 0x4 PUSH1 0x20 MSTORE PUSH1 0x40 DUP5 KECCAK256 SLOAD PUSH1 0xFF AND PUSH1 0x8 DUP2 LT ISZERO PUSH2 0x1806 JUMPI PUSH1 0x6 EQ ISZERO DUP1 PUSH2 0x17C9 JUMPI JUMPDEST PUSH2 0x17B5 JUMPI JUMPDEST PUSH1 0x1 ADD PUSH2 0x1680 JUMP JUMPDEST SWAP1 PUSH2 0x17C1 PUSH1 0x1 SWAP2 PUSH2 0x24D0 JUMP JUMPDEST SWAP2 SWAP1 POP PUSH2 0x17AD JUMP JUMPDEST POP PUSH2 0x17D3 DUP2 PUSH2 0x23A2 JUMP JUMPDEST SWAP1 SLOAD PUSH1 0x3 SWAP2 SWAP1 SWAP2 SHL SHR PUSH1 0x1 PUSH1 0x1 PUSH1 0xA0 SHL SUB AND DUP5 MSTORE PUSH1 0x4 PUSH1 0x20 MSTORE PUSH1 0x40 DUP5 KECCAK256 SLOAD PUSH1 0xFF AND PUSH1 0x8 DUP2 LT ISZERO PUSH2 0x1806 JUMPI PUSH1 0x7 EQ ISZERO PUSH2 0x17A8 JUMP JUMPDEST PUSH4 0x4E487B71 PUSH1 0xE0 SHL DUP6 MSTORE PUSH1 0x21 PUSH1 0x4 MSTORE PUSH1 0x24 DUP6 REVERT JUMPDEST POP CALLVALUE PUSH2 0x1FA JUMPI PUSH1 0x20 CALLDATASIZE PUSH1 0x3 NOT ADD SLT PUSH2 0x1FA JUMPI PUSH1 0x4 CALLDATALOAD PUSH1 0x1 PUSH1 0x1 PUSH1 0xA0 SHL SUB DUP2 AND SWAP1 DUP2 SWAP1 SUB PUSH2 0x1F8 JUMPI DUP2 SLOAD PUSH1 0x1 PUSH1 0x1 PUSH1 0xA0 SHL SUB AND CALLER EQ DUP1 ISZERO PUSH2 0x18F5 JUMPI JUMPDEST PUSH2 0x185E SWAP1 PUSH2 0x2404 JUMP JUMPDEST PUSH2 0x1869 DUP2 ISZERO ISZERO PUSH2 0x27C7 JUMP JUMPDEST DUP1 DUP3 MSTORE PUSH1 0x2 PUSH1 0x20 MSTORE PUSH1 0xFF PUSH1 0x40 DUP4 KECCAK256 SLOAD AND PUSH2 0x18BB JUMPI DUP1 DUP3 MSTORE PUSH1 0x2 PUSH1 0x20 MSTORE PUSH1 0x40 DUP3 KECCAK256 DUP1 SLOAD PUSH1 0xFF NOT AND PUSH1 0x1 OR SWAP1 SSTORE PUSH32 0x10AC961F00D5E732BA4DCC2C6FB09BEBEA0EB9EDD2A75C8109775EF288382E67 DUP3 DUP1 LOG2 DUP1 RETURN JUMPDEST PUSH1 0x40 MLOAD PUSH3 0x461BCD PUSH1 0xE5 SHL DUP2 MSTORE PUSH1 0x20 PUSH1 0x4 DUP3 ADD MSTORE PUSH1 0x12 PUSH1 0x24 DUP3 ADD MSTORE PUSH18 0x105B1C9958591E48185D5D1A1BDC9A5E9959 PUSH1 0x72 SHL PUSH1 0x44 DUP3 ADD MSTORE PUSH1 0x64 SWAP1 REVERT JUMPDEST POP CALLER DUP3 MSTORE PUSH1 0x2 PUSH1 0x20 MSTORE PUSH1 0x40 DUP3 KECCAK256 SLOAD PUSH1 0xFF AND PUSH2 0x1855 JUMP JUMPDEST POP CALLVALUE PUSH2 0x1FA JUMPI PUSH1 0x20 CALLDATASIZE PUSH1 0x3 NOT ADD SLT PUSH2 0x1FA JUMPI PUSH1 0x4 CALLDATALOAD PUSH1 0x1 PUSH1 0x1 PUSH1 0xA0 SHL SUB DUP2 AND DUP1 DUP3 SUB PUSH2 0x250 JUMPI DUP3 SLOAD PUSH1 0x1 PUSH1 0x1 PUSH1 0xA0 SHL SUB AND CALLER EQ DUP1 ISZERO PUSH2 0x1B08 JUMPI JUMPDEST PUSH2 0x194E SWAP1 PUSH2 0x2404 JUMP JUMPDEST DUP1 DUP4 MSTORE PUSH1 0x8 PUSH1 0x20 MSTORE PUSH1 0x40 DUP4 KECCAK256 PUSH1 0x40 MLOAD PUSH2 0x1966 DUP2 PUSH2 0x2492 JUMP JUMPDEST DUP2 SLOAD PUSH1 0x1 PUSH1 0x1 PUSH1 0xA0 SHL SUB AND DUP1 DUP3 MSTORE PUSH1 0x1 SWAP1 SWAP3 ADD SLOAD PUSH1 0x20 DUP3 ADD SWAP1 DUP2 MSTORE SWAP2 ISZERO PUSH2 0x1AC3 JUMPI MLOAD PUSH1 0x1 PUSH1 0x1 PUSH1 0xA0 SHL SUB AND CALLER EQ PUSH2 0x1A7F JUMPI MLOAD PUSH3 0x15180 DUP2 ADD DUP1 SWAP2 GT PUSH2 0x1A6B JUMPI TIMESTAMP GT PUSH2 0x1A33 JUMPI PUSH2 0x19B3 PUSH2 0x2C19 JUMP JUMPDEST DUP1 ISZERO PUSH2 0x1A1F JUMPI PUSH2 0x19C2 DUP3 PUSH2 0x2C42 JUMP JUMPDEST DUP3 MSTORE PUSH1 0x8 PUSH1 0x20 SWAP1 DUP2 MSTORE PUSH1 0x40 DUP1 DUP5 KECCAK256 DUP5 DUP2 SSTORE PUSH1 0x1 ADD DUP5 SWAP1 SSTORE DUP1 MLOAD PUSH1 0x1 PUSH1 0x1 PUSH1 0xA0 SHL SUB SWAP1 SWAP4 AND DUP4 MSTORE TIMESTAMP SWAP2 DUP4 ADD SWAP2 SWAP1 SWAP2 MSTORE CALLER SWAP2 PUSH32 0xDD72DD33198968A9CDC9B1E5CBFF344FB8D04D99F8C15C0A02416B04E857B467 SWAP2 DUP2 SWAP1 DUP2 ADD JUMPDEST SUB SWAP1 LOG2 DUP1 RETURN JUMPDEST PUSH4 0x1E4FBDF7 PUSH1 0xE0 SHL DUP4 MSTORE PUSH1 0x4 DUP4 SWAP1 MSTORE PUSH1 0x24 DUP4 REVERT JUMPDEST PUSH1 0x40 MLOAD PUSH3 0x461BCD PUSH1 0xE5 SHL DUP2 MSTORE PUSH1 0x20 PUSH1 0x4 DUP3 ADD MSTORE PUSH1 0x10 PUSH1 0x24 DUP3 ADD MSTORE PUSH16 0x141C9BDC1BDCD85B08195E1C1A5C9959 PUSH1 0x82 SHL PUSH1 0x44 DUP3 ADD MSTORE PUSH1 0x64 SWAP1 REVERT JUMPDEST PUSH4 0x4E487B71 PUSH1 0xE0 SHL DUP5 MSTORE PUSH1 0x11 PUSH1 0x4 MSTORE PUSH1 0x24 DUP5 REVERT JUMPDEST PUSH1 0x64 PUSH1 0x40 MLOAD PUSH3 0x461BCD PUSH1 0xE5 SHL DUP2 MSTORE PUSH1 0x20 PUSH1 0x4 DUP3 ADD MSTORE PUSH1 0x20 PUSH1 0x24 DUP3 ADD MSTORE PUSH32 0x43616E6E6F7420636F6E6669726D20796F7572206F776E2070726F706F73616C PUSH1 0x44 DUP3 ADD MSTORE REVERT JUMPDEST PUSH1 0x40 MLOAD PUSH3 0x461BCD PUSH1 0xE5 SHL DUP2 MSTORE PUSH1 0x20 PUSH1 0x4 DUP3 ADD MSTORE PUSH1 0x1A PUSH1 0x24 DUP3 ADD MSTORE PUSH32 0x4E6F2070726F706F73616C20666F722074686973206F776E6572000000000000 PUSH1 0x44 DUP3 ADD MSTORE PUSH1 0x64 SWAP1 REVERT JUMPDEST POP CALLER DUP4 MSTORE PUSH1 0x2 PUSH1 0x20 MSTORE PUSH1 0x40 DUP4 KECCAK256 SLOAD PUSH1 0xFF AND PUSH2 0x1945 JUMP JUMPDEST POP CALLVALUE PUSH2 0x1FA JUMPI PUSH1 0x20 CALLDATASIZE PUSH1 0x3 NOT ADD SLT PUSH2 0x1FA JUMPI PUSH1 0x4 CALLDATALOAD PUSH1 0x1 PUSH1 0x1 PUSH1 0xA0 SHL SUB DUP2 AND SWAP1 DUP2 SWAP1 SUB PUSH2 0x1F8 JUMPI DUP2 MSTORE PUSH1 0x9 PUSH1 0x20 MSTORE PUSH1 0x40 DUP2 KECCAK256 DUP1 SLOAD DUP3 SWAP2 DUP3 JUMPDEST DUP3 DUP2 LT PUSH2 0x1B8C JUMPI POP POP POP DUP2 PUSH2 0x1B71 JUMPI PUSH1 0x20 SWAP2 POP PUSH1 0x40 MLOAD SWAP1 DUP2 MSTORE RETURN JUMPDEST PUSH3 0x278D00 DUP3 ADD DUP1 SWAP3 GT PUSH2 0x2C8 JUMPI POP PUSH2 0x2C3 PUSH1 0x20 SWAP2 TIMESTAMP SWAP1 PUSH2 0x27BA JUMP JUMPDEST PUSH2 0x1B96 DUP2 DUP4 PUSH2 0x23D3 JUMP JUMPDEST SWAP1 SLOAD SWAP1 PUSH1 0x3 SHL SHR PUSH3 0x278D00 DUP2 ADD DUP1 SWAP2 GT PUSH2 0x34D JUMPI TIMESTAMP LT PUSH2 0x1BB9 JUMPI JUMPDEST PUSH1 0x1 ADD PUSH2 0x1B56 JUMP JUMPDEST DUP5 ISZERO DUP1 ISZERO PUSH2 0x1BE4 JUMPI JUMPDEST ISZERO PUSH2 0x1BB1 JUMPI SWAP4 POP PUSH1 0x1 PUSH2 0x1BD5 DUP6 DUP4 PUSH2 0x23D3 JUMP JUMPDEST SWAP1 SLOAD SWAP1 PUSH1 0x3 SHL SHR SWAP5 SWAP1 POP PUSH2 0x1BB1 JUMP JUMPDEST POP DUP5 PUSH2 0x1BF0 DUP3 DUP5 PUSH2 0x23D3 JUMP JUMPDEST SWAP1 SLOAD SWAP1 PUSH1 0x3 SHL SHR LT PUSH2 0x1BC2 JUMP JUMPDEST POP CALLVALUE PUSH2 0x1FA JUMPI PUSH1 0x20 CALLDATASIZE PUSH1 0x3 NOT ADD SLT PUSH2 0x1FA JUMPI PUSH1 0x4 CALLDATALOAD SWAP1 PUSH1 0x6 SLOAD DUP3 LT ISZERO PUSH2 0x1FA JUMPI PUSH1 0x20 PUSH2 0x1C28 DUP4 PUSH2 0x23A2 JUMP JUMPDEST SWAP1 SLOAD PUSH1 0x40 MLOAD PUSH1 0x3 SWAP3 SWAP1 SWAP3 SHL SHR PUSH1 0x1 PUSH1 0x1 PUSH1 0xA0 SHL SUB AND DUP2 MSTORE RETURN JUMPDEST POP CALLVALUE PUSH2 0x1FA JUMPI PUSH1 0x20 CALLDATASIZE PUSH1 0x3 NOT ADD SLT PUSH2 0x1FA JUMPI PUSH1 0x4 CALLDATALOAD PUSH1 0x1 PUSH1 0x1 PUSH1 0xA0 SHL SUB DUP2 AND DUP1 DUP3 SUB PUSH2 0x250 JUMPI DUP3 SLOAD PUSH1 0x1 PUSH1 0x1 PUSH1 0xA0 SHL SUB AND CALLER EQ DUP1 ISZERO PUSH2 0x1D53 JUMPI JUMPDEST PUSH2 0x1C84 SWAP1 PUSH2 0x2404 JUMP JUMPDEST DUP1 ISZERO PUSH2 0x1D1A JUMPI PUSH1 0x1 PUSH1 0x40 MLOAD SWAP2 PUSH2 0x1C99 DUP4 PUSH2 0x2492 JUMP JUMPDEST CALLER DUP4 MSTORE PUSH1 0x20 DUP4 ADD SWAP1 TIMESTAMP DUP3 MSTORE DUP6 MSTORE PUSH1 0x8 PUSH1 0x20 MSTORE PUSH1 0x40 DUP6 KECCAK256 SWAP3 DUP3 DUP1 PUSH1 0xA0 SHL SUB SWAP1 MLOAD AND PUSH12 0xFFFFFFFFFFFFFFFFFFFFFFFF PUSH1 0xA0 SHL DUP5 SLOAD AND OR DUP4 SSTORE MLOAD SWAP2 ADD SSTORE PUSH32 0xC29BDBD554E41DF97E5C40FC273A09677AC133C245F0064BDFFEF5CC72176E19 PUSH1 0x40 MLOAD DUP1 PUSH2 0x1A19 CALLER SWAP5 TIMESTAMP SWAP1 DUP4 PUSH1 0x20 SWAP1 SWAP4 SWAP3 SWAP2 SWAP4 PUSH1 0x40 DUP2 ADD SWAP5 PUSH1 0x1 DUP1 PUSH1 0xA0 SHL SUB AND DUP2 MSTORE ADD MSTORE JUMP JUMPDEST PUSH1 0x40 MLOAD PUSH3 0x461BCD PUSH1 0xE5 SHL DUP2 MSTORE PUSH1 0x20 PUSH1 0x4 DUP3 ADD MSTORE PUSH1 0x11 PUSH1 0x24 DUP3 ADD MSTORE PUSH17 0x24B73B30B634B2103732BB9037BBB732B9 PUSH1 0x79 SHL PUSH1 0x44 DUP3 ADD MSTORE PUSH1 0x64 SWAP1 REVERT JUMPDEST POP CALLER DUP4 MSTORE PUSH1 0x2 PUSH1 0x20 MSTORE PUSH1 0x40 DUP4 KECCAK256 SLOAD PUSH1 0xFF AND PUSH2 0x1C7B JUMP JUMPDEST POP CALLVALUE PUSH2 0x1FA JUMPI PUSH1 0x20 CALLDATASIZE PUSH1 0x3 NOT ADD SLT PUSH2 0x1FA JUMPI PUSH1 0x4 CALLDATALOAD PUSH1 0x1 PUSH1 0x1 PUSH1 0xA0 SHL SUB DUP2 AND SWAP1 DUP2 SWAP1 SUB PUSH2 0x1F8 JUMPI PUSH1 0x60 PUSH2 0x1E0 PUSH1 0x40 MLOAD PUSH2 0x1DA1 DUP2 PUSH2 0x245F JUMP JUMPDEST DUP3 DUP2 MSTORE DUP5 PUSH1 0x20 DUP3 ADD MSTORE DUP5 PUSH1 0x40 DUP3 ADD MSTORE DUP5 DUP4 DUP3 ADD MSTORE DUP5 PUSH1 0x80 DUP3 ADD MSTORE DUP5 PUSH1 0xA0 DUP3 ADD MSTORE DUP5 PUSH1 0xC0 DUP3 ADD MSTORE DUP5 PUSH1 0xE0 DUP3 ADD MSTORE DUP5 PUSH2 0x100 DUP3 ADD MSTORE DUP5 PUSH2 0x120 DUP3 ADD MSTORE DUP5 PUSH2 0x140 DUP3 ADD MSTORE DUP5 PUSH2 0x160 DUP3 ADD MSTORE DUP5 PUSH2 0x180 DUP3 ADD MSTORE DUP3 PUSH2 0x1A0 DUP3 ADD MSTORE DUP5 PUSH2 0x1C0 DUP3 ADD MSTORE ADD MSTORE DUP1 ISZERO PUSH2 0x1F85 JUMPI DUP2 PUSH1 0x4 SWAP2 PUSH1 0x40 MLOAD SWAP3 DUP4 DUP1 SWAP3 PUSH4 0x1F385F79 PUSH1 0xE2 SHL DUP3 MSTORE GAS STATICCALL SWAP1 DUP2 ISZERO PUSH2 0x1F7A JUMPI DUP3 SWAP2 PUSH2 0x1F60 JUMPI JUMPDEST POP PUSH1 0x40 MLOAD SWAP1 PUSH1 0x20 DUP3 MSTORE PUSH2 0x1E4C DUP2 MLOAD PUSH2 0x200 PUSH1 0x20 DUP6 ADD MSTORE PUSH2 0x220 DUP5 ADD SWAP1 PUSH2 0x2358 JUMP JUMPDEST SWAP3 PUSH2 0x1E5F PUSH1 0x20 DUP4 ADD MLOAD PUSH1 0x40 DUP6 ADD SWAP1 PUSH2 0x2395 JUMP JUMPDEST PUSH1 0x40 DUP3 ADD MLOAD PUSH1 0x60 DUP5 ADD MSTORE PUSH1 0x60 DUP3 ADD MLOAD PUSH1 0x80 DUP5 ADD MSTORE PUSH1 0x80 DUP3 ADD MLOAD PUSH1 0xA0 DUP5 ADD MSTORE PUSH1 0xFF PUSH1 0xA0 DUP4 ADD MLOAD AND PUSH1 0xC0 DUP5 ADD MSTORE PUSH1 0xFF PUSH1 0xC0 DUP4 ADD MLOAD AND PUSH1 0xE0 DUP5 ADD MSTORE PUSH1 0xE0 DUP3 ADD MLOAD PUSH2 0x100 DUP5 ADD MSTORE PUSH2 0x100 DUP3 ADD MLOAD PUSH2 0x120 DUP5 ADD MSTORE PUSH1 0xFF PUSH2 0x120 DUP4 ADD MLOAD AND PUSH2 0x140 DUP5 ADD MSTORE PUSH1 0xFF PUSH2 0x140 DUP4 ADD MLOAD AND PUSH2 0x160 DUP5 ADD MSTORE PUSH2 0x160 DUP3 ADD MLOAD PUSH2 0x180 DUP5 ADD MSTORE PUSH2 0x180 DUP3 ADD MLOAD PUSH2 0x1A0 DUP5 ADD MSTORE PUSH2 0x1A0 DUP3 ADD MLOAD SWAP4 PUSH1 0x1F NOT DUP5 DUP3 SUB ADD PUSH2 0x1C0 DUP6 ADD MSTORE PUSH1 0x20 DUP1 DUP7 MLOAD SWAP3 DUP4 DUP2 MSTORE ADD SWAP6 ADD SWAP2 JUMPDEST DUP2 DUP2 LT PUSH2 0x1F35 JUMPI DUP5 DUP1 PUSH2 0x1F4 DUP9 PUSH2 0x1E0 DUP9 PUSH2 0x1C0 DUP2 ADD MLOAD DUP3 DUP7 ADD MSTORE ADD MLOAD PUSH1 0x1F NOT DUP5 DUP4 SUB ADD PUSH2 0x200 DUP6 ADD MSTORE PUSH2 0x2358 JUMP JUMPDEST DUP3 MLOAD DUP1 MLOAD PUSH1 0x1 PUSH1 0x1 PUSH1 0xA0 SHL SUB AND DUP8 MSTORE PUSH1 0x20 SWAP1 DUP2 ADD MLOAD DUP2 DUP9 ADD MSTORE PUSH1 0x40 SWAP1 SWAP7 ADD SWAP6 SWAP1 SWAP3 ADD SWAP2 PUSH1 0x1 ADD PUSH2 0x1F06 JUMP JUMPDEST PUSH2 0x1F74 SWAP2 POP RETURNDATASIZE DUP1 DUP5 DUP4 RETURNDATACOPY PUSH2 0xB12 DUP2 DUP4 PUSH2 0x24AE JUMP JUMPDEST CODESIZE PUSH2 0x1E2B JUMP JUMPDEST PUSH1 0x40 MLOAD RETURNDATASIZE DUP5 DUP3 RETURNDATACOPY RETURNDATASIZE SWAP1 REVERT JUMPDEST PUSH1 0x40 MLOAD PUSH3 0x461BCD PUSH1 0xE5 SHL DUP2 MSTORE PUSH1 0x20 PUSH1 0x4 DUP3 ADD MSTORE PUSH1 0x17 PUSH1 0x24 DUP3 ADD MSTORE PUSH32 0x496E76616C6964206D697373696F6E2061646472657373000000000000000000 PUSH1 0x44 DUP3 ADD MSTORE PUSH1 0x64 SWAP1 REVERT JUMPDEST POP CALLVALUE PUSH2 0x1FA JUMPI PUSH1 0x20 CALLDATASIZE PUSH1 0x3 NOT ADD SLT PUSH2 0x1FA JUMPI PUSH1 0x4 CALLDATALOAD PUSH1 0x8 DUP2 LT ISZERO DUP1 PUSH2 0x250 JUMPI PUSH1 0x6 SLOAD SWAP1 DUP4 DUP5 JUMPDEST DUP4 DUP2 LT PUSH2 0x20B0 JUMPI POP PUSH2 0x2001 SWAP1 PUSH2 0x250D JUMP JUMPDEST SWAP3 DUP5 SWAP2 DUP6 JUMPDEST DUP5 DUP2 LT PUSH2 0x2023 JUMPI PUSH1 0x40 MLOAD PUSH1 0x20 DUP1 DUP3 MSTORE DUP2 SWAP1 PUSH2 0x1F4 SWAP1 DUP3 ADD DUP10 PUSH2 0x2358 JUMP JUMPDEST PUSH2 0x202C DUP2 PUSH2 0x23A2 JUMP JUMPDEST SWAP1 SLOAD PUSH1 0x3 SWAP2 SWAP1 SWAP2 SHL SHR PUSH1 0x1 PUSH1 0x1 PUSH1 0xA0 SHL SUB AND DUP8 MSTORE PUSH1 0x4 PUSH1 0x20 MSTORE PUSH1 0x40 DUP8 KECCAK256 SLOAD PUSH1 0xFF AND DUP3 PUSH2 0x209C JUMPI PUSH1 0x8 DUP2 LT ISZERO PUSH2 0x209C JUMPI SWAP1 DUP4 PUSH1 0x1 SWAP3 EQ PUSH2 0x206C JUMPI JUMPDEST ADD PUSH2 0x2006 JUMP JUMPDEST PUSH2 0x2075 DUP2 PUSH2 0x23A2 JUMP JUMPDEST DUP4 DUP1 PUSH1 0xA0 SHL SUB SWAP2 SLOAD SWAP1 PUSH1 0x3 SHL SHR AND PUSH2 0x2096 PUSH2 0x208F DUP8 PUSH2 0x24D0 JUMP JUMPDEST SWAP7 DUP10 PUSH2 0x253F JUMP JUMPDEST MSTORE PUSH2 0x2066 JUMP JUMPDEST PUSH4 0x4E487B71 PUSH1 0xE0 SHL DUP9 MSTORE PUSH1 0x21 PUSH1 0x4 MSTORE PUSH1 0x24 DUP9 REVERT JUMPDEST PUSH2 0x20B9 DUP2 PUSH2 0x23A2 JUMP JUMPDEST SWAP1 SLOAD PUSH1 0x3 SWAP2 SWAP1 SWAP2 SHL SHR PUSH1 0x1 PUSH1 0x1 PUSH1 0xA0 SHL SUB AND DUP7 MSTORE PUSH1 0x4 PUSH1 0x20 MSTORE PUSH1 0x40 DUP7 KECCAK256 SLOAD PUSH1 0xFF AND DUP4 PUSH2 0xB69 JUMPI PUSH1 0x8 DUP2 LT ISZERO PUSH2 0xB69 JUMPI DUP6 EQ PUSH2 0x20F7 JUMPI JUMPDEST PUSH1 0x1 ADD PUSH2 0x1FF0 JUMP JUMPDEST SWAP1 PUSH2 0x2103 PUSH1 0x1 SWAP2 PUSH2 0x24D0 JUMP JUMPDEST SWAP2 SWAP1 POP PUSH2 0x20EF JUMP JUMPDEST POP CALLVALUE PUSH2 0x1FA JUMPI PUSH1 0x20 CALLDATASIZE PUSH1 0x3 NOT ADD SLT PUSH2 0x1FA JUMPI DUP1 SLOAD PUSH1 0x1 PUSH1 0x1 PUSH1 0xA0 SHL SUB AND PUSH1 0x4 CALLDATALOAD CALLER DUP3 EQ DUP1 ISZERO PUSH2 0x22B7 JUMPI JUMPDEST PUSH2 0x213E SWAP1 PUSH2 0x2404 JUMP JUMPDEST PUSH1 0x2 PUSH1 0x1 SLOAD EQ PUSH2 0x22A8 JUMPI PUSH1 0x2 PUSH1 0x1 SSTORE DUP1 DUP3 ISZERO PUSH2 0x226B JUMPI ISZERO PUSH2 0x2264 JUMPI JUMPDEST SELFBALANCE DUP2 GT PUSH2 0x2228 JUMPI DUP3 DUP1 DUP1 DUP1 DUP5 DUP7 GAS CALL RETURNDATASIZE ISZERO PUSH2 0x2223 JUMPI RETURNDATASIZE PUSH8 0xFFFFFFFFFFFFFFFF DUP2 GT PUSH2 0x220F JUMPI PUSH1 0x40 MLOAD SWAP1 PUSH2 0x2197 PUSH1 0x1F DUP3 ADD PUSH1 0x1F NOT AND PUSH1 0x20 ADD DUP4 PUSH2 0x24AE JUMP JUMPDEST DUP2 MSTORE DUP5 PUSH1 0x20 RETURNDATASIZE SWAP3 ADD RETURNDATACOPY JUMPDEST ISZERO PUSH2 0x21D8 JUMPI PUSH1 0x20 PUSH32 0xEAFF4B37086828766AD3268786972C0CD24259D4C87A80F9D3963A3C3D999B0D SWAP2 PUSH1 0x40 MLOAD SWAP1 DUP2 MSTORE LOG2 PUSH1 0x1 DUP1 SSTORE DUP1 RETURN JUMPDEST PUSH1 0x40 MLOAD PUSH3 0x461BCD PUSH1 0xE5 SHL DUP2 MSTORE PUSH1 0x20 PUSH1 0x4 DUP3 ADD MSTORE PUSH1 0xF PUSH1 0x24 DUP3 ADD MSTORE PUSH15 0x151C985B9CD9995C8819985A5B1959 PUSH1 0x8A SHL PUSH1 0x44 DUP3 ADD MSTORE PUSH1 0x64 SWAP1 REVERT JUMPDEST PUSH4 0x4E487B71 PUSH1 0xE0 SHL DUP6 MSTORE PUSH1 0x41 PUSH1 0x4 MSTORE PUSH1 0x24 DUP6 REVERT JUMPDEST PUSH2 0x21A1 JUMP JUMPDEST PUSH1 0x40 MLOAD PUSH3 0x461BCD PUSH1 0xE5 SHL DUP2 MSTORE PUSH1 0x20 PUSH1 0x4 DUP3 ADD MSTORE PUSH1 0x14 PUSH1 0x24 DUP3 ADD MSTORE PUSH20 0x496E73756666696369656E742062616C616E6365 PUSH1 0x60 SHL PUSH1 0x44 DUP3 ADD MSTORE PUSH1 0x64 SWAP1 REVERT JUMPDEST POP SELFBALANCE PUSH2 0x215A JUMP JUMPDEST PUSH1 0x40 MLOAD PUSH3 0x461BCD PUSH1 0xE5 SHL DUP2 MSTORE PUSH1 0x20 PUSH1 0x4 DUP3 ADD MSTORE PUSH1 0x15 PUSH1 0x24 DUP3 ADD MSTORE PUSH21 0x24B73B30B634B21036B0B730B3B2B91037BBB732B9 PUSH1 0x59 SHL PUSH1 0x44 DUP3 ADD MSTORE PUSH1 0x64 SWAP1 REVERT JUMPDEST PUSH4 0x3EE5AEB5 PUSH1 0xE0 SHL DUP4 MSTORE PUSH1 0x4 DUP4 REVERT JUMPDEST POP CALLER DUP4 MSTORE PUSH1 0x2 PUSH1 0x20 MSTORE PUSH1 0x40 DUP4 KECCAK256 SLOAD PUSH1 0xFF AND PUSH2 0x2135 JUMP JUMPDEST POP CALLVALUE PUSH2 0x1FA JUMPI DUP1 PUSH1 0x3 NOT CALLDATASIZE ADD SLT PUSH2 0x1FA JUMPI PUSH1 0x20 PUSH1 0xFF PUSH1 0xA SLOAD PUSH1 0x8 SHR AND PUSH1 0x40 MLOAD SWAP1 DUP2 MSTORE RETURN JUMPDEST SWAP1 POP CALLVALUE PUSH2 0x1F8 JUMPI PUSH1 0x20 CALLDATASIZE PUSH1 0x3 NOT ADD SLT PUSH2 0x1F8 JUMPI PUSH1 0x4 CALLDATALOAD PUSH1 0x1 PUSH1 0x1 PUSH1 0xA0 SHL SUB DUP2 AND SWAP1 DUP2 SWAP1 SUB PUSH2 0x250 JUMPI DUP2 PUSH1 0xFF PUSH1 0x40 DUP6 PUSH2 0x2333 SWAP5 PUSH1 0x20 SWAP8 MSTORE PUSH1 0x4 DUP8 MSTORE KECCAK256 SLOAD AND PUSH2 0x2335 JUMP JUMPDEST RETURN JUMPDEST SWAP1 PUSH1 0x8 DUP3 LT ISZERO PUSH2 0x2342 JUMPI MSTORE JUMP JUMPDEST PUSH4 0x4E487B71 PUSH1 0xE0 SHL PUSH1 0x0 MSTORE PUSH1 0x21 PUSH1 0x4 MSTORE PUSH1 0x24 PUSH1 0x0 REVERT JUMPDEST SWAP1 PUSH1 0x20 DUP1 DUP4 MLOAD SWAP3 DUP4 DUP2 MSTORE ADD SWAP3 ADD SWAP1 PUSH1 0x0 JUMPDEST DUP2 DUP2 LT PUSH2 0x2376 JUMPI POP POP POP SWAP1 JUMP JUMPDEST DUP3 MLOAD PUSH1 0x1 PUSH1 0x1 PUSH1 0xA0 SHL SUB AND DUP5 MSTORE PUSH1 0x20 SWAP4 DUP5 ADD SWAP4 SWAP1 SWAP3 ADD SWAP2 PUSH1 0x1 ADD PUSH2 0x2369 JUMP JUMPDEST SWAP1 PUSH1 0x7 DUP3 LT ISZERO PUSH2 0x2342 JUMPI MSTORE JUMP JUMPDEST PUSH1 0x6 SLOAD DUP2 LT ISZERO PUSH2 0x23BD JUMPI PUSH1 0x6 PUSH1 0x0 MSTORE PUSH1 0x20 PUSH1 0x0 KECCAK256 ADD SWAP1 PUSH1 0x0 SWAP1 JUMP JUMPDEST PUSH4 0x4E487B71 PUSH1 0xE0 SHL PUSH1 0x0 MSTORE PUSH1 0x32 PUSH1 0x4 MSTORE PUSH1 0x24 PUSH1 0x0 REVERT JUMPDEST DUP1 SLOAD DUP3 LT ISZERO PUSH2 0x23BD JUMPI PUSH1 0x0 MSTORE PUSH1 0x20 PUSH1 0x0 KECCAK256 ADD SWAP1 PUSH1 0x0 SWAP1 JUMP JUMPDEST PUSH1 0x7 DUP2 LT ISZERO PUSH2 0x2342 JUMPI PUSH1 0x0 MSTORE PUSH1 0x3 PUSH1 0x20 MSTORE PUSH1 0x40 PUSH1 0x0 KECCAK256 SWAP1 JUMP JUMPDEST ISZERO PUSH2 0x240B JUMPI JUMP JUMPDEST PUSH1 0x40 MLOAD PUSH3 0x461BCD PUSH1 0xE5 SHL DUP2 MSTORE PUSH1 0x20 PUSH1 0x4 DUP3 ADD MSTORE PUSH1 0x26 PUSH1 0x24 DUP3 ADD MSTORE PUSH32 0x4E6F74206F776E6572206F72204D697373696F6E466163746F72792061757468 PUSH1 0x44 DUP3 ADD MSTORE PUSH6 0x1BDC9A5E9959 PUSH1 0xD2 SHL PUSH1 0x64 DUP3 ADD MSTORE PUSH1 0x84 SWAP1 REVERT JUMPDEST PUSH2 0x200 DUP2 ADD SWAP1 DUP2 LT PUSH8 0xFFFFFFFFFFFFFFFF DUP3 GT OR PUSH2 0x247C JUMPI PUSH1 0x40 MSTORE JUMP JUMPDEST PUSH4 0x4E487B71 PUSH1 0xE0 SHL PUSH1 0x0 MSTORE PUSH1 0x41 PUSH1 0x4 MSTORE PUSH1 0x24 PUSH1 0x0 REVERT JUMPDEST PUSH1 0x40 DUP2 ADD SWAP1 DUP2 LT PUSH8 0xFFFFFFFFFFFFFFFF DUP3 GT OR PUSH2 0x247C JUMPI PUSH1 0x40 MSTORE JUMP JUMPDEST SWAP1 PUSH1 0x1F DUP1 NOT SWAP2 ADD AND DUP2 ADD SWAP1 DUP2 LT PUSH8 0xFFFFFFFFFFFFFFFF DUP3 GT OR PUSH2 0x247C JUMPI PUSH1 0x40 MSTORE JUMP JUMPDEST PUSH1 0x0 NOT DUP2 EQ PUSH2 0x24DF JUMPI PUSH1 0x1 ADD SWAP1 JUMP JUMPDEST PUSH4 0x4E487B71 PUSH1 0xE0 SHL PUSH1 0x0 MSTORE PUSH1 0x11 PUSH1 0x4 MSTORE PUSH1 0x24 PUSH1 0x0 REVERT JUMPDEST PUSH8 0xFFFFFFFFFFFFFFFF DUP2 GT PUSH2 0x247C JUMPI PUSH1 0x5 SHL PUSH1 0x20 ADD SWAP1 JUMP JUMPDEST SWAP1 PUSH2 0x2517 DUP3 PUSH2 0x24F5 JUMP JUMPDEST PUSH2 0x2524 PUSH1 0x40 MLOAD SWAP2 DUP3 PUSH2 0x24AE JUMP JUMPDEST DUP3 DUP2 MSTORE DUP1 SWAP3 PUSH2 0x2535 PUSH1 0x1F NOT SWAP2 PUSH2 0x24F5 JUMP JUMPDEST ADD SWAP1 PUSH1 0x20 CALLDATASIZE SWAP2 ADD CALLDATACOPY JUMP JUMPDEST DUP1 MLOAD DUP3 LT ISZERO PUSH2 0x23BD JUMPI PUSH1 0x20 SWAP2 PUSH1 0x5 SHL ADD ADD SWAP1 JUMP JUMPDEST MLOAD SWAP1 PUSH1 0x1 PUSH1 0x1 PUSH1 0xA0 SHL SUB DUP3 AND DUP3 SUB PUSH2 0x2567 JUMPI JUMP JUMPDEST PUSH1 0x0 DUP1 REVERT JUMPDEST SWAP1 DUP1 PUSH1 0x1F DUP4 ADD SLT ISZERO PUSH2 0x2567 JUMPI DUP2 MLOAD PUSH2 0x2583 DUP2 PUSH2 0x24F5 JUMP JUMPDEST SWAP3 PUSH2 0x2591 PUSH1 0x40 MLOAD SWAP5 DUP6 PUSH2 0x24AE JUMP JUMPDEST DUP2 DUP5 MSTORE PUSH1 0x20 DUP1 DUP6 ADD SWAP3 PUSH1 0x5 SHL DUP3 ADD ADD SWAP3 DUP4 GT PUSH2 0x2567 JUMPI PUSH1 0x20 ADD SWAP1 JUMPDEST DUP3 DUP3 LT PUSH2 0x25B9 JUMPI POP POP POP SWAP1 JUMP JUMPDEST PUSH1 0x20 DUP1 SWAP2 PUSH2 0x25C6 DUP5 PUSH2 0x2553 JUMP JUMPDEST DUP2 MSTORE ADD SWAP2 ADD SWAP1 PUSH2 0x25AC JUMP JUMPDEST MLOAD SWAP1 PUSH1 0xFF DUP3 AND DUP3 SUB PUSH2 0x2567 JUMPI JUMP JUMPDEST PUSH1 0x20 DUP2 DUP4 SUB SLT PUSH2 0x2567 JUMPI DUP1 MLOAD SWAP1 PUSH8 0xFFFFFFFFFFFFFFFF DUP3 GT PUSH2 0x2567 JUMPI ADD PUSH2 0x200 DUP2 DUP4 SUB SLT PUSH2 0x2567 JUMPI PUSH1 0x40 MLOAD SWAP2 PUSH2 0x2614 DUP4 PUSH2 0x245F JUMP JUMPDEST DUP2 MLOAD PUSH8 0xFFFFFFFFFFFFFFFF DUP2 GT PUSH2 0x2567 JUMPI DUP2 PUSH2 0x2631 SWAP2 DUP5 ADD PUSH2 0x256C JUMP JUMPDEST DUP4 MSTORE PUSH1 0x20 DUP3 ADD MLOAD PUSH1 0x7 DUP2 LT ISZERO PUSH2 0x2567 JUMPI PUSH1 0x20 DUP5 ADD MSTORE PUSH1 0x40 DUP3 ADD MLOAD PUSH1 0x40 DUP5 ADD MSTORE PUSH1 0x60 DUP3 ADD MLOAD PUSH1 0x60 DUP5 ADD MSTORE PUSH1 0x80 DUP3 ADD MLOAD PUSH1 0x80 DUP5 ADD MSTORE PUSH2 0x2670 PUSH1 0xA0 DUP4 ADD PUSH2 0x25D1 JUMP JUMPDEST PUSH1 0xA0 DUP5 ADD MSTORE PUSH2 0x2681 PUSH1 0xC0 DUP4 ADD PUSH2 0x25D1 JUMP JUMPDEST PUSH1 0xC0 DUP5 ADD MSTORE PUSH1 0xE0 DUP3 ADD MLOAD PUSH1 0xE0 DUP5 ADD MSTORE PUSH2 0x100 DUP3 ADD MLOAD PUSH2 0x100 DUP5 ADD MSTORE PUSH2 0x26A9 PUSH2 0x120 DUP4 ADD PUSH2 0x25D1 JUMP JUMPDEST PUSH2 0x120 DUP5 ADD MSTORE PUSH2 0x26BC PUSH2 0x140 DUP4 ADD PUSH2 0x25D1 JUMP JUMPDEST PUSH2 0x140 DUP5 ADD MSTORE PUSH2 0x160 DUP3 ADD MLOAD PUSH2 0x160 DUP5 ADD MSTORE PUSH2 0x180 DUP3 ADD MLOAD PUSH2 0x180 DUP5 ADD MSTORE PUSH2 0x1A0 DUP3 ADD MLOAD PUSH8 0xFFFFFFFFFFFFFFFF DUP2 GT PUSH2 0x2567 JUMPI DUP3 ADD DUP2 PUSH1 0x1F DUP3 ADD SLT ISZERO PUSH2 0x2567 JUMPI DUP1 MLOAD PUSH2 0x2707 DUP2 PUSH2 0x24F5 JUMP JUMPDEST SWAP2 PUSH2 0x2715 PUSH1 0x40 MLOAD SWAP4 DUP5 PUSH2 0x24AE JUMP JUMPDEST DUP2 DUP4 MSTORE PUSH1 0x20 DUP1 DUP5 ADD SWAP3 PUSH1 0x6 SHL DUP3 ADD ADD SWAP1 DUP5 DUP3 GT PUSH2 0x2567 JUMPI PUSH1 0x20 ADD SWAP2 JUMPDEST DUP2 DUP4 LT PUSH2 0x2775 JUMPI POP POP POP PUSH2 0x1A0 DUP5 ADD MSTORE PUSH2 0x1C0 DUP3 ADD MLOAD PUSH2 0x1C0 DUP5 ADD MSTORE PUSH2 0x1E0 DUP3 ADD MLOAD PUSH8 0xFFFFFFFFFFFFFFFF DUP2 GT PUSH2 0x2567 JUMPI PUSH2 0x276C SWAP3 ADD PUSH2 0x256C JUMP JUMPDEST PUSH2 0x1E0 DUP3 ADD MSTORE SWAP1 JUMP JUMPDEST PUSH1 0x40 DUP4 DUP7 SUB SLT PUSH2 0x2567 JUMPI PUSH1 0x20 PUSH1 0x40 SWAP2 DUP3 MLOAD PUSH2 0x278F DUP2 PUSH2 0x2492 JUMP JUMPDEST PUSH2 0x2798 DUP7 PUSH2 0x2553 JUMP JUMPDEST DUP2 MSTORE DUP3 DUP7 ADD MLOAD DUP4 DUP3 ADD MSTORE DUP2 MSTORE ADD SWAP3 ADD SWAP2 PUSH2 0x2731 JUMP JUMPDEST SWAP2 SWAP1 DUP3 ADD DUP1 SWAP3 GT PUSH2 0x24DF JUMPI JUMP JUMPDEST SWAP2 SWAP1 DUP3 SUB SWAP2 DUP3 GT PUSH2 0x24DF JUMPI JUMP JUMPDEST ISZERO PUSH2 0x27CE JUMPI JUMP JUMPDEST PUSH1 0x40 MLOAD PUSH3 0x461BCD PUSH1 0xE5 SHL DUP2 MSTORE PUSH1 0x20 PUSH1 0x4 DUP3 ADD MSTORE PUSH1 0xF PUSH1 0x24 DUP3 ADD MSTORE PUSH15 0x496E76616C69642061646472657373 PUSH1 0x88 SHL PUSH1 0x44 DUP3 ADD MSTORE PUSH1 0x64 SWAP1 REVERT JUMPDEST PUSH1 0x6 SLOAD DUP1 ISZERO PUSH2 0x2A64 JUMPI PUSH3 0x4F19FF NOT TIMESTAMP ADD SWAP2 TIMESTAMP DUP4 GT PUSH2 0x24DF JUMPI PUSH3 0x278CFF NOT TIMESTAMP ADD TIMESTAMP DUP2 GT PUSH2 0x24DF JUMPI PUSH1 0x0 SWAP3 SWAP2 DUP3 DUP1 JUMPDEST PUSH2 0x2976 JUMPI JUMPDEST POP PUSH2 0x2841 DUP5 PUSH2 0x250D JUMP JUMPDEST SWAP1 PUSH2 0x284B DUP6 PUSH2 0x250D JUMP JUMPDEST SWAP4 PUSH1 0x0 SWAP1 JUMPDEST DUP1 ISZERO ISZERO DUP1 PUSH2 0x296D JUMPI JUMPDEST ISZERO PUSH2 0x2962 JUMPI PUSH1 0x0 NOT ADD SWAP1 PUSH2 0x286C DUP3 PUSH2 0x23A2 JUMP JUMPDEST PUSH1 0x1 DUP1 PUSH1 0xA0 SHL SUB SWAP2 SLOAD SWAP1 PUSH1 0x3 SHL SHR AND SWAP1 DUP2 PUSH1 0x0 MSTORE PUSH1 0x4 PUSH1 0x20 MSTORE PUSH1 0xFF PUSH1 0x40 PUSH1 0x0 KECCAK256 SLOAD AND SWAP2 PUSH1 0x40 MLOAD PUSH4 0x1F385F79 PUSH1 0xE2 SHL DUP2 MSTORE PUSH1 0x0 DUP2 PUSH1 0x4 DUP2 DUP6 GAS STATICCALL DUP1 ISZERO PUSH2 0x2956 JUMPI DUP9 SWAP2 PUSH1 0x0 SWAP2 PUSH2 0x293D JUMPI JUMPDEST POP DUP12 PUSH1 0xE0 DUP3 ADD DUP2 DUP2 MLOAD LT DUP1 PUSH2 0x291A JUMPI JUMPDEST ISZERO PUSH2 0x290F JUMPI POP POP PUSH2 0x100 ADD MLOAD LT JUMPDEST PUSH2 0x2901 JUMPI PUSH2 0x28E1 DUP3 DUP8 PUSH2 0x253F JUMP JUMPDEST MSTORE PUSH2 0x28EC DUP2 DUP9 PUSH2 0x253F JUMP JUMPDEST SWAP2 PUSH1 0x8 DUP2 LT ISZERO PUSH2 0x2342 JUMPI PUSH1 0x1 SWAP3 MSTORE ADD SWAP1 PUSH2 0x2850 JUMP JUMPDEST POP POP POP POP SWAP4 POP SWAP2 SWAP4 POP POP SWAP2 SWAP1 JUMP JUMPDEST SWAP2 POP SWAP2 POP MLOAD LT PUSH2 0x28D3 JUMP JUMPDEST POP SWAP3 POP POP PUSH1 0x8 DUP6 LT ISZERO PUSH2 0x2342 JUMPI DUP12 DUP10 SWAP3 PUSH1 0x6 DUP8 EQ DUP1 PUSH2 0x28C5 JUMPI POP PUSH1 0x7 DUP8 EQ PUSH2 0x28C5 JUMP JUMPDEST PUSH2 0x2950 SWAP2 RETURNDATASIZE DUP1 SWAP2 DUP4 RETURNDATACOPY PUSH2 0xB12 DUP2 DUP4 PUSH2 0x24AE JUMP JUMPDEST CODESIZE PUSH2 0x28B5 JUMP JUMPDEST PUSH1 0x40 MLOAD RETURNDATASIZE PUSH1 0x0 DUP3 RETURNDATACOPY RETURNDATASIZE SWAP1 REVERT JUMPDEST POP SWAP2 SWAP6 POP SWAP3 SWAP4 POP POP POP JUMP JUMPDEST POP DUP7 DUP3 LT PUSH2 0x2859 JUMP JUMPDEST PUSH1 0x0 SWAP5 SWAP4 SWAP5 NOT ADD SWAP3 PUSH2 0x2987 DUP5 PUSH2 0x23A2 JUMP JUMPDEST PUSH1 0x1 DUP1 PUSH1 0xA0 SHL SUB SWAP2 SLOAD SWAP1 PUSH1 0x3 SHL SHR AND DUP1 PUSH1 0x0 MSTORE PUSH1 0x4 PUSH1 0x20 MSTORE PUSH1 0x4 PUSH1 0x0 PUSH1 0xFF PUSH1 0x40 DUP3 KECCAK256 SLOAD AND SWAP3 PUSH1 0x40 MLOAD SWAP3 DUP4 DUP1 SWAP3 PUSH4 0x1F385F79 PUSH1 0xE2 SHL DUP3 MSTORE GAS STATICCALL SWAP1 DUP2 ISZERO PUSH2 0x2956 JUMPI DUP6 SWAP3 DUP10 SWAP2 PUSH1 0x0 SWAP4 PUSH2 0x2A49 JUMPI JUMPDEST POP PUSH1 0xE0 DUP4 ADD SWAP1 DUP3 DUP3 MLOAD LT SWAP1 DUP2 PUSH2 0x2A19 JUMPI JUMPDEST POP ISZERO PUSH2 0x2A0E JUMPI POP POP PUSH2 0x100 ADD MLOAD LT JUMPDEST PUSH2 0x2A07 JUMPI PUSH2 0x2A00 DUP5 SWAP2 PUSH2 0x24D0 JUMP JUMPDEST SWAP5 SWAP4 PUSH2 0x2832 JUMP JUMPDEST SWAP4 SWAP3 PUSH2 0x2837 JUMP JUMPDEST SWAP2 POP SWAP2 POP MLOAD LT PUSH2 0x29F2 JUMP JUMPDEST SWAP3 POP POP SWAP3 POP PUSH1 0x8 DUP2 LT ISZERO PUSH2 0x2342 JUMPI DUP6 SWAP3 DUP2 PUSH1 0x6 DUP12 SWAP4 EQ SWAP1 DUP2 ISZERO PUSH2 0x2A3E JUMPI JUMPDEST POP CODESIZE PUSH2 0x29E3 JUMP JUMPDEST PUSH1 0x7 SWAP2 POP EQ CODESIZE PUSH2 0x2A37 JUMP JUMPDEST PUSH2 0x2A5D SWAP2 SWAP4 RETURNDATASIZE DUP1 SWAP2 DUP4 RETURNDATACOPY PUSH2 0xB12 DUP2 DUP4 PUSH2 0x24AE JUMP JUMPDEST SWAP2 CODESIZE PUSH2 0x29D2 JUMP JUMPDEST POP PUSH1 0x20 SWAP1 PUSH1 0x40 MLOAD PUSH2 0x2A75 DUP4 DUP3 PUSH2 0x24AE JUMP JUMPDEST PUSH1 0x0 DUP2 MSTORE PUSH1 0x0 CALLDATASIZE DUP2 CALLDATACOPY PUSH1 0x40 MLOAD SWAP3 PUSH2 0x2A8C DUP2 DUP6 PUSH2 0x24AE JUMP JUMPDEST PUSH1 0x0 DUP5 MSTORE POP PUSH1 0x0 CALLDATASIZE DUP2 CALLDATACOPY SWAP2 SWAP1 JUMP JUMPDEST PUSH1 0x1 PUSH1 0x1 PUSH1 0xA0 SHL SUB AND PUSH1 0x0 SWAP1 DUP2 MSTORE PUSH1 0x9 PUSH1 0x20 MSTORE PUSH1 0x40 DUP2 KECCAK256 DUP1 SLOAD DUP3 SWAP2 DUP3 SWAP2 DUP3 SWAP2 DUP3 JUMPDEST DUP3 DUP2 LT PUSH2 0x2B82 JUMPI POP POP POP PUSH1 0xA SLOAD SWAP2 PUSH1 0xFF DUP4 AND GT SWAP1 PUSH1 0xFF DUP3 ISZERO SWAP4 PUSH1 0x8 SHR AND GT SWAP2 DUP3 ISZERO SWAP3 DUP3 DUP1 PUSH2 0x2B7B JUMPI JUMPDEST PUSH2 0x2B6D JUMPI DUP2 PUSH2 0x2B65 JUMPI JUMPDEST POP PUSH2 0x2B59 JUMPI DUP2 PUSH2 0x2B51 JUMPI JUMPDEST POP PUSH2 0x2B47 JUMPI PUSH3 0x93A80 DUP2 ADD DUP1 SWAP2 GT PUSH2 0x24DF JUMPI PUSH2 0x2B16 SWAP1 TIMESTAMP SWAP1 PUSH2 0x27BA JUMP JUMPDEST SWAP1 PUSH3 0x278D00 DUP2 ADD DUP1 SWAP2 GT PUSH2 0x24DF JUMPI PUSH2 0x2B2F SWAP1 TIMESTAMP SWAP1 PUSH2 0x27BA JUMP JUMPDEST GT ISZERO PUSH2 0x2B3F JUMPI PUSH1 0x2 SWAP1 JUMPDEST PUSH1 0x0 SWAP2 SWAP1 JUMP JUMPDEST PUSH1 0x1 SWAP1 PUSH2 0x2B39 JUMP JUMPDEST POP POP PUSH1 0x0 SWAP1 PUSH1 0x2 SWAP1 JUMP JUMPDEST SWAP1 POP CODESIZE PUSH2 0x2AF9 JUMP JUMPDEST POP POP POP POP PUSH1 0x0 SWAP1 PUSH1 0x1 SWAP1 JUMP JUMPDEST SWAP1 POP CODESIZE PUSH2 0x2AEE JUMP JUMPDEST POP POP POP POP POP POP PUSH1 0x1 SWAP1 PUSH1 0x0 SWAP1 JUMP JUMPDEST POP DUP1 PUSH2 0x2AE4 JUMP JUMPDEST PUSH2 0x2B8C DUP2 DUP4 PUSH2 0x23D3 JUMP JUMPDEST SWAP1 SLOAD SWAP1 PUSH1 0x3 SHL SHR PUSH3 0x278D00 DUP2 ADD DUP1 DUP3 GT PUSH2 0x24DF JUMPI TIMESTAMP LT PUSH2 0x2BB0 JUMPI JUMPDEST POP PUSH1 0x1 ADD PUSH2 0x2ABB JUMP JUMPDEST SWAP4 PUSH2 0x2BBA SWAP1 PUSH2 0x24D0 JUMP JUMPDEST SWAP4 DUP8 ISZERO DUP1 ISZERO PUSH2 0x2C10 JUMPI JUMPDEST PUSH2 0x2C08 JUMPI JUMPDEST PUSH3 0x93A80 DUP2 ADD DUP1 DUP3 GT PUSH2 0x24DF JUMPI TIMESTAMP LT ISZERO PUSH2 0x2BA7 JUMPI SWAP5 PUSH2 0x2BE7 SWAP1 PUSH2 0x24D0 JUMP JUMPDEST SWAP5 DUP7 ISZERO DUP1 ISZERO PUSH2 0x2BFF JUMPI JUMPDEST ISZERO PUSH2 0x2BA7 JUMPI SWAP6 POP PUSH1 0x1 PUSH2 0x2BA7 JUMP JUMPDEST POP DUP7 DUP2 LT PUSH2 0x2BF1 JUMP JUMPDEST SWAP7 POP DUP7 PUSH2 0x2BC9 JUMP JUMPDEST POP DUP8 DUP2 LT PUSH2 0x2BC4 JUMP JUMPDEST PUSH1 0x0 SLOAD PUSH1 0x1 PUSH1 0x1 PUSH1 0xA0 SHL SUB AND CALLER SUB PUSH2 0x2C2D JUMPI JUMP JUMPDEST PUSH4 0x118CDAA7 PUSH1 0xE0 SHL PUSH1 0x0 MSTORE CALLER PUSH1 0x4 MSTORE PUSH1 0x24 PUSH1 0x0 REVERT JUMPDEST PUSH1 0x0 DUP1 SLOAD PUSH1 0x1 PUSH1 0x1 PUSH1 0xA0 SHL SUB SWAP3 DUP4 AND PUSH1 0x1 PUSH1 0x1 PUSH1 0xA0 SHL SUB NOT DUP3 AND DUP2 OR DUP4 SSTORE SWAP3 AND SWAP1 PUSH32 0x8BE0079C531659141344CD1FD0A4F28419497F9722A3DAAFE3B4186F6B6457E0 SWAP1 DUP1 LOG3 JUMP INVALID LOG2 PUSH5 0x6970667358 0x22 SLT KECCAK256 PUSH0 SUB INVALID EXTCALL 0xDC DUP11 SLT OR CALLDATALOAD GASLIMIT 0xB1 DUP1 PUSH22 0x4E1280239EB444355D6B74131B3F8454AE7E5364736F PUSH13 0x634300081E0033608080604052 CALLVALUE PUSH1 0x79 JUMPI CALLER ISZERO PUSH1 0x63 JUMPI PUSH1 0x0 DUP1 SLOAD CALLER PUSH1 0x1 PUSH1 0x1 PUSH1 0xA0 SHL SUB NOT DUP3 AND DUP2 OR DUP4 SSTORE SWAP2 PUSH1 0x1 PUSH1 0x1 PUSH1 0xA0 SHL SUB SWAP1 SWAP2 AND SWAP1 PUSH32 0x8BE0079C531659141344CD1FD0A4F28419497F9722A3DAAFE3B4186F6B6457E0 SWAP1 DUP1 LOG3 PUSH1 0x1 DUP1 SSTORE PUSH2 0x2B41 SWAP1 DUP2 PUSH2 0x7F DUP3 CODECOPY RETURN JUMPDEST PUSH4 0x1E4FBDF7 PUSH1 0xE0 SHL PUSH1 0x0 MSTORE PUSH1 0x0 PUSH1 0x4 MSTORE PUSH1 0x24 PUSH1 0x0 REVERT JUMPDEST PUSH1 0x0 DUP1 REVERT INVALID PUSH1 0x80 DUP1 PUSH1 0x40 MSTORE PUSH1 0x4 CALLDATASIZE LT ISZERO PUSH2 0x11 JUMPI JUMPDEST STOP JUMPDEST PUSH1 0x0 SWAP1 DUP2 CALLDATALOAD PUSH1 0xE0 SHR SWAP1 DUP2 PUSH4 0x10EB0E0E EQ PUSH2 0x1DD5 JUMPI POP DUP1 PUSH4 0x12124848 EQ PUSH2 0x1CA4 JUMPI DUP1 PUSH4 0x24600FC3 EQ PUSH2 0x194E JUMPI DUP1 PUSH4 0x5407441F EQ PUSH2 0x1933 JUMPI DUP1 PUSH4 0x68C6BA21 EQ PUSH2 0x190B JUMPI DUP1 PUSH4 0x715018A6 EQ PUSH2 0x18B1 JUMPI DUP1 PUSH4 0x7475A4CB EQ PUSH2 0x14E4 JUMPI DUP1 PUSH4 0x7CE17DE4 EQ PUSH2 0x1162 JUMPI DUP1 PUSH4 0x7CF61B69 EQ PUSH2 0xF93 JUMPI DUP1 PUSH4 0x8DA5CB5B EQ PUSH2 0xF6C JUMPI DUP1 PUSH4 0x987C543A EQ PUSH2 0xAE8 JUMPI DUP1 PUSH4 0x98BDAE43 EQ PUSH2 0xA2E JUMPI DUP1 PUSH4 0xA52B2B88 EQ PUSH2 0x9EF JUMPI DUP1 PUSH4 0xA7E22A3E EQ PUSH2 0x9C9 JUMPI DUP1 PUSH4 0xAD1CA6BF EQ PUSH2 0x857 JUMPI DUP1 PUSH4 0xB2A4A5D2 EQ PUSH2 0x81E JUMPI DUP1 PUSH4 0xB9713B77 EQ PUSH2 0x780 JUMPI DUP1 PUSH4 0xC033A490 EQ PUSH2 0x741 JUMPI DUP1 PUSH4 0xC54168B3 EQ PUSH2 0x39B JUMPI DUP1 PUSH4 0xE6810A50 EQ PUSH2 0x377 JUMPI DUP1 PUSH4 0xEB2BAB77 EQ PUSH2 0x21F JUMPI DUP1 PUSH4 0xF2FDE38B EQ PUSH2 0x1CE JUMPI DUP1 PUSH4 0xFA4CF5A1 EQ PUSH2 0x1A5 JUMPI DUP1 PUSH4 0xFB84E12F EQ PUSH2 0x182 JUMPI PUSH4 0xFCCA0C84 SUB PUSH2 0xF JUMPI CALLVALUE PUSH2 0x17F JUMPI PUSH1 0x20 CALLDATASIZE PUSH1 0x3 NOT ADD SLT PUSH2 0x17F JUMPI PUSH1 0x40 SWAP1 PUSH1 0xFF DUP3 PUSH1 0x1 PUSH1 0x1 PUSH1 0xA0 SHL SUB PUSH2 0x154 PUSH2 0x1E11 JUMP JUMPDEST AND SWAP3 DUP4 DUP2 MSTORE PUSH1 0x3 PUSH1 0x20 MSTORE DUP3 DUP3 DUP3 KECCAK256 SLOAD AND SWAP4 DUP2 MSTORE PUSH1 0x4 PUSH1 0x20 MSTORE KECCAK256 SLOAD AND DUP3 MLOAD SWAP2 ISZERO ISZERO DUP3 MSTORE ISZERO ISZERO PUSH1 0x20 DUP3 ADD MSTORE RETURN JUMPDEST DUP1 REVERT JUMPDEST POP CALLVALUE PUSH2 0x17F JUMPI DUP1 PUSH1 0x3 NOT CALLDATASIZE ADD SLT PUSH2 0x17F JUMPI PUSH1 0x20 PUSH2 0x19D PUSH2 0x224C JUMP JUMPDEST PUSH1 0x40 MLOAD SWAP1 DUP2 MSTORE RETURN JUMPDEST POP CALLVALUE PUSH2 0x17F JUMPI DUP1 PUSH1 0x3 NOT CALLDATASIZE ADD SLT PUSH2 0x17F JUMPI PUSH1 0x2 SLOAD PUSH1 0x40 MLOAD PUSH1 0x1 PUSH1 0x1 PUSH1 0xA0 SHL SUB SWAP1 SWAP2 AND DUP2 MSTORE PUSH1 0x20 SWAP1 RETURN JUMPDEST POP CALLVALUE PUSH2 0x17F JUMPI PUSH1 0x20 CALLDATASIZE PUSH1 0x3 NOT ADD SLT PUSH2 0x17F JUMPI PUSH2 0x1E8 PUSH2 0x1E11 JUMP JUMPDEST PUSH2 0x1F0 PUSH2 0x27A8 JUMP JUMPDEST PUSH1 0x1 PUSH1 0x1 PUSH1 0xA0 SHL SUB DUP2 AND ISZERO PUSH2 0x20B JUMPI PUSH2 0x208 SWAP1 PUSH2 0x27D1 JUMP JUMPDEST DUP1 RETURN JUMPDEST PUSH4 0x1E4FBDF7 PUSH1 0xE0 SHL DUP3 MSTORE PUSH1 0x4 DUP3 SWAP1 MSTORE PUSH1 0x24 DUP3 REVERT JUMPDEST POP DUP1 PUSH1 0x3 NOT CALLDATASIZE ADD SLT PUSH2 0x17F JUMPI CALLVALUE ISZERO PUSH2 0x342 JUMPI PUSH1 0x2 SLOAD PUSH1 0x1 PUSH1 0x1 PUSH1 0xA0 SHL SUB AND CALLER SUB PUSH2 0x305 JUMPI PUSH2 0x24B PUSH2 0x22B5 JUMP JUMPDEST PUSH1 0x8 DUP2 LT ISZERO PUSH2 0x2F1 JUMPI PUSH1 0x2 LT PUSH2 0x2AC JUMPI PUSH2 0x267 CALLVALUE PUSH1 0xF SLOAD PUSH2 0x1F76 JUMP JUMPDEST PUSH1 0xF SSTORE PUSH32 0x7272B264C9EF2A1E8E9303944736F4977B14A5761227B7B9869FECAA60F89387 PUSH1 0x40 PUSH2 0x299 CALLVALUE PUSH1 0x10 SLOAD PUSH2 0x1F76 JUMP JUMPDEST DUP1 PUSH1 0x10 SSTORE DUP2 MLOAD SWAP1 CALLVALUE DUP3 MSTORE PUSH1 0x20 DUP3 ADD MSTORE LOG1 DUP1 RETURN JUMPDEST PUSH1 0x40 MLOAD PUSH3 0x461BCD PUSH1 0xE5 SHL DUP2 MSTORE PUSH1 0x20 PUSH1 0x4 DUP3 ADD MSTORE PUSH1 0x1C PUSH1 0x24 DUP3 ADD MSTORE PUSH32 0x4D697373696F6E207061737365642061726D696E672073746174757300000000 PUSH1 0x44 DUP3 ADD MSTORE PUSH1 0x64 SWAP1 REVERT JUMPDEST PUSH4 0x4E487B71 PUSH1 0xE0 SHL DUP3 MSTORE PUSH1 0x21 PUSH1 0x4 MSTORE PUSH1 0x24 DUP3 REVERT JUMPDEST PUSH1 0x40 MLOAD PUSH3 0x461BCD PUSH1 0xE5 SHL DUP2 MSTORE PUSH1 0x20 PUSH1 0x4 DUP3 ADD MSTORE PUSH1 0x15 PUSH1 0x24 DUP3 ADD MSTORE PUSH21 0x13DB9B1E48199858DD1BDC9E4818D85B88199D5B99 PUSH1 0x5A SHL PUSH1 0x44 DUP3 ADD MSTORE PUSH1 0x64 SWAP1 REVERT JUMPDEST PUSH1 0x40 MLOAD PUSH3 0x461BCD PUSH1 0xE5 SHL DUP2 MSTORE PUSH1 0x20 PUSH1 0x4 DUP3 ADD MSTORE PUSH1 0xD PUSH1 0x24 DUP3 ADD MSTORE PUSH13 0x139BC8199D5B991CC81CD95B9D PUSH1 0x9A SHL PUSH1 0x44 DUP3 ADD MSTORE PUSH1 0x64 SWAP1 REVERT JUMPDEST POP CALLVALUE PUSH2 0x17F JUMPI PUSH1 0x20 CALLDATASIZE PUSH1 0x3 NOT ADD SLT PUSH2 0x17F JUMPI PUSH1 0x20 PUSH2 0x19D PUSH2 0x396 PUSH2 0x1E11 JUMP JUMPDEST PUSH2 0x213E JUMP JUMPDEST POP PUSH2 0x160 CALLDATASIZE PUSH1 0x3 NOT ADD SLT PUSH2 0x17F JUMPI PUSH2 0x3B1 PUSH2 0x1E11 JUMP JUMPDEST PUSH1 0x24 CALLDATALOAD PUSH1 0x1 PUSH1 0x1 PUSH1 0xA0 SHL SUB DUP2 AND SWAP2 SWAP1 DUP3 SWAP1 SUB PUSH2 0x73D JUMPI PUSH1 0x44 CALLDATALOAD SWAP2 PUSH1 0x7 DUP4 LT ISZERO PUSH2 0x739 JUMPI PUSH1 0xC4 CALLDATALOAD PUSH1 0xFF DUP2 AND DUP1 SWAP2 SUB PUSH2 0x735 JUMPI PUSH1 0xE4 CALLDATALOAD SWAP1 PUSH1 0xFF DUP3 AND DUP3 SUB PUSH2 0x731 JUMPI PUSH2 0x144 CALLDATALOAD SWAP3 PUSH1 0xFF DUP5 AND DUP1 SWAP5 SUB PUSH2 0x72D JUMPI PUSH2 0x408 PUSH2 0x2293 JUMP JUMPDEST PUSH1 0x15 SLOAD PUSH1 0xFF DUP2 AND PUSH2 0x6F2 JUMPI PUSH1 0xFF NOT AND PUSH1 0x1 OR PUSH1 0x15 SSTORE PUSH2 0x426 DUP6 PUSH2 0x27D1 JUMP JUMPDEST PUSH12 0xFFFFFFFFFFFFFFFFFFFFFFFF PUSH1 0xA0 SHL PUSH1 0x2 SLOAD AND OR PUSH1 0x2 SSTORE PUSH1 0xFF NOT PUSH1 0x7 SLOAD AND PUSH1 0xFF DUP7 AND OR PUSH1 0x7 SSTORE PUSH1 0x64 CALLDATALOAD PUSH1 0x8 SSTORE PUSH1 0x84 CALLDATALOAD PUSH1 0x9 SSTORE PUSH1 0xA4 CALLDATALOAD PUSH1 0xA SSTORE PUSH2 0xFF00 PUSH1 0xB SLOAD SWAP3 PUSH1 0x8 SHL AND SWAP2 PUSH2 0xFFFF NOT AND OR OR PUSH1 0xB SSTORE PUSH2 0x104 CALLDATALOAD PUSH1 0xC SSTORE PUSH2 0x124 CALLDATALOAD PUSH1 0xD SSTORE PUSH2 0xFFFF NOT PUSH1 0xE SLOAD AND OR PUSH1 0xE SSTORE CALLVALUE PUSH1 0xF SSTORE CALLVALUE PUSH1 0x10 SSTORE DUP3 PUSH1 0x12 SSTORE PUSH1 0x20 PUSH1 0x40 MLOAD PUSH2 0x4AA DUP3 DUP3 PUSH2 0x1ED3 JUMP JUMPDEST DUP5 DUP2 MSTORE PUSH1 0x0 CALLDATASIZE DUP2 CALLDATACOPY DUP1 MLOAD SWAP1 PUSH8 0xFFFFFFFFFFFFFFFF DUP3 GT PUSH2 0x642 JUMPI PUSH1 0x1 PUSH1 0x40 SHL DUP3 GT PUSH2 0x642 JUMPI DUP3 SWAP1 PUSH1 0x6 SLOAD DUP4 PUSH1 0x6 SSTORE DUP1 DUP5 LT PUSH2 0x691 JUMPI JUMPDEST POP ADD PUSH1 0x6 DUP7 MSTORE DUP6 JUMPDEST DUP3 DUP2 LT PUSH2 0x656 JUMPI POP POP POP PUSH1 0x40 MLOAD PUSH2 0x4FF DUP3 DUP3 PUSH2 0x1ED3 JUMP JUMPDEST DUP5 DUP2 MSTORE DUP5 SWAP1 PUSH1 0x1 PUSH1 0x40 SHL DUP3 GT PUSH2 0x642 JUMPI DUP3 SWAP1 PUSH1 0x11 SLOAD DUP4 PUSH1 0x11 SSTORE DUP1 DUP5 LT PUSH2 0x5BE JUMPI JUMPDEST POP ADD PUSH1 0x11 DUP7 MSTORE PUSH1 0x0 DUP1 MLOAD PUSH1 0x20 PUSH2 0x2ACC DUP4 CODECOPY DUP2 MLOAD SWAP2 MSTORE DUP7 SWAP2 JUMPDEST DUP4 DUP4 LT PUSH2 0x581 JUMPI POP POP PUSH1 0x40 MLOAD TIMESTAMP DUP2 MSTORE PUSH1 0x1 PUSH1 0x1 PUSH1 0xA0 SHL SUB SWAP1 SWAP5 AND SWAP4 PUSH32 0xE9597995B7A2AF444CC28B2B776B88B1253D701282A9BCF902D4F59750DF7C57 SWAP4 SWAP3 POP SWAP1 POP LOG3 PUSH1 0x1 DUP1 SSTORE DUP1 RETURN JUMPDEST DUP1 MLOAD DUP1 MLOAD DUP4 SLOAD PUSH1 0x1 PUSH1 0x1 PUSH1 0xA0 SHL SUB NOT AND PUSH1 0x1 PUSH1 0x1 PUSH1 0xA0 SHL SUB SWAP2 SWAP1 SWAP2 AND OR DUP4 SSTORE PUSH1 0x20 ADD MLOAD PUSH1 0x1 DUP4 DUP2 ADD SWAP2 SWAP1 SWAP2 SSTORE SWAP1 PUSH1 0x2 SWAP1 DUP7 ADD SWAP3 ADD SWAP3 ADD SWAP2 SWAP1 PUSH2 0x538 JUMP JUMPDEST SWAP1 SWAP2 POP PUSH1 0x1 PUSH1 0x1 PUSH1 0xFF SHL SUB DUP2 AND DUP2 SUB PUSH2 0x62E JUMPI PUSH1 0x1 PUSH1 0x1 PUSH1 0xFF SHL SUB DUP4 AND DUP4 SUB PUSH2 0x62E JUMPI SWAP1 DUP4 SWAP2 PUSH1 0x1 SHL PUSH1 0x0 DUP1 MLOAD PUSH1 0x20 PUSH2 0x2ACC DUP4 CODECOPY DUP2 MLOAD SWAP2 MSTORE ADD DUP4 PUSH1 0x1 SHL PUSH1 0x0 DUP1 MLOAD PUSH1 0x20 PUSH2 0x2ACC DUP4 CODECOPY DUP2 MLOAD SWAP2 MSTORE ADD JUMPDEST DUP2 DUP2 LT PUSH2 0x619 JUMPI POP PUSH2 0x520 JUMP JUMPDEST DUP9 DUP2 SSTORE PUSH1 0x1 DUP2 ADD DUP10 SWAP1 SSTORE DUP6 SWAP4 POP PUSH1 0x2 ADD PUSH2 0x60C JUMP JUMPDEST PUSH4 0x4E487B71 PUSH1 0xE0 SHL DUP8 MSTORE PUSH1 0x11 PUSH1 0x4 MSTORE PUSH1 0x24 DUP8 REVERT JUMPDEST PUSH4 0x4E487B71 PUSH1 0xE0 SHL DUP7 MSTORE PUSH1 0x41 PUSH1 0x4 MSTORE PUSH1 0x24 DUP7 REVERT JUMPDEST DUP2 MLOAD PUSH1 0x1 PUSH1 0x1 PUSH1 0xA0 SHL SUB AND PUSH32 0xF652222313E28459528D920B65115C16C04F3EFC82AAEDC97BE59F3F377C0D3F DUP3 ADD SSTORE SWAP1 DUP4 ADD SWAP1 PUSH1 0x1 ADD PUSH2 0x4E8 JUMP JUMPDEST PUSH32 0xF652222313E28459528D920B65115C16C04F3EFC82AAEDC97BE59F3F377C0D3F ADD DUP4 PUSH32 0xF652222313E28459528D920B65115C16C04F3EFC82AAEDC97BE59F3F377C0D3F ADD JUMPDEST DUP2 DUP2 LT PUSH2 0x6E4 JUMPI POP PUSH2 0x4E0 JUMP JUMPDEST DUP9 DUP2 SSTORE DUP6 SWAP4 POP PUSH1 0x1 ADD PUSH2 0x6D7 JUMP JUMPDEST PUSH1 0x40 MLOAD PUSH3 0x461BCD PUSH1 0xE5 SHL DUP2 MSTORE PUSH1 0x20 PUSH1 0x4 DUP3 ADD MSTORE PUSH1 0x13 PUSH1 0x24 DUP3 ADD MSTORE PUSH19 0x105B1C9958591E481A5B9A5D1A585B1A5E9959 PUSH1 0x6A SHL PUSH1 0x44 DUP3 ADD MSTORE PUSH1 0x64 SWAP1 REVERT JUMPDEST DUP7 DUP1 REVERT JUMPDEST DUP6 DUP1 REVERT JUMPDEST DUP5 DUP1 REVERT JUMPDEST DUP4 DUP1 REVERT JUMPDEST DUP3 DUP1 REVERT JUMPDEST POP CALLVALUE PUSH2 0x17F JUMPI PUSH1 0x20 CALLDATASIZE PUSH1 0x3 NOT ADD SLT PUSH2 0x17F JUMPI PUSH1 0x20 SWAP1 PUSH1 0xFF SWAP1 PUSH1 0x40 SWAP1 PUSH1 0x1 PUSH1 0x1 PUSH1 0xA0 SHL SUB PUSH2 0x76C PUSH2 0x1E11 JUMP JUMPDEST AND DUP2 MSTORE PUSH1 0x5 DUP5 MSTORE KECCAK256 SLOAD AND PUSH1 0x40 MLOAD SWAP1 ISZERO ISZERO DUP2 MSTORE RETURN JUMPDEST POP CALLVALUE PUSH2 0x17F JUMPI DUP1 PUSH1 0x3 NOT CALLDATASIZE ADD SLT PUSH2 0x17F JUMPI PUSH2 0x1A0 PUSH1 0xFF PUSH1 0x7 SLOAD AND PUSH1 0x8 SLOAD PUSH1 0x9 SLOAD PUSH1 0xA SLOAD PUSH1 0xFF PUSH1 0xB SLOAD PUSH1 0xC SLOAD PUSH1 0xD SLOAD SWAP1 DUP4 PUSH1 0xE SLOAD SWAP4 PUSH1 0xF SLOAD SWAP7 PUSH1 0x10 SLOAD SWAP9 PUSH1 0x12 SLOAD SWAP11 PUSH2 0x7CD PUSH1 0x40 MLOAD DUP1 SWAP15 PUSH2 0x1E77 JUMP JUMPDEST PUSH1 0x20 DUP14 ADD MSTORE PUSH1 0x40 DUP13 ADD MSTORE PUSH1 0x60 DUP12 ADD MSTORE DUP2 DUP2 AND PUSH1 0x80 DUP12 ADD MSTORE PUSH1 0x8 SHR AND PUSH1 0xA0 DUP10 ADD MSTORE PUSH1 0xC0 DUP9 ADD MSTORE PUSH1 0xE0 DUP8 ADD MSTORE DUP2 DUP2 AND PUSH2 0x100 DUP8 ADD MSTORE PUSH1 0x8 SHR AND PUSH2 0x120 DUP6 ADD MSTORE PUSH2 0x140 DUP5 ADD MSTORE PUSH2 0x160 DUP4 ADD MSTORE PUSH2 0x180 DUP3 ADD MSTORE RETURN JUMPDEST POP CALLVALUE PUSH2 0x17F JUMPI PUSH1 0x20 CALLDATASIZE PUSH1 0x3 NOT ADD SLT PUSH2 0x17F JUMPI PUSH1 0x20 SWAP1 PUSH1 0x40 SWAP1 PUSH1 0x1 PUSH1 0x1 PUSH1 0xA0 SHL SUB PUSH2 0x846 PUSH2 0x1E11 JUMP JUMPDEST AND DUP2 MSTORE PUSH1 0x14 DUP4 MSTORE KECCAK256 SLOAD PUSH1 0x40 MLOAD SWAP1 DUP2 MSTORE RETURN JUMPDEST POP CALLVALUE PUSH2 0x17F JUMPI DUP1 PUSH1 0x3 NOT CALLDATASIZE ADD SLT PUSH2 0x17F JUMPI PUSH2 0x870 PUSH2 0x2293 JUMP JUMPDEST DUP1 SLOAD PUSH1 0x1 PUSH1 0x1 PUSH1 0xA0 SHL SUB AND CALLER EQ DUP1 ISZERO PUSH2 0x93E JUMPI JUMPDEST PUSH2 0x88D SWAP1 PUSH2 0x1F02 JUMP JUMPDEST PUSH1 0x9 SLOAD TIMESTAMP GT DUP1 PUSH2 0x933 JUMPI JUMPDEST ISZERO PUSH2 0x8C8 JUMPI PUSH1 0x6 SLOAD PUSH1 0xFF PUSH1 0xB SLOAD AND GT PUSH2 0x8B3 JUMPI JUMPDEST PUSH1 0x1 DUP1 SSTORE DUP1 RETURN JUMPDEST PUSH2 0x8BB PUSH2 0x2465 JUMP JUMPDEST PUSH2 0x8C3 PUSH2 0x2818 JUMP JUMPDEST PUSH2 0x8AC JUMP JUMPDEST PUSH1 0x40 MLOAD PUSH3 0x461BCD PUSH1 0xE5 SHL DUP2 MSTORE PUSH1 0x20 PUSH1 0x4 DUP3 ADD MSTORE PUSH1 0x38 PUSH1 0x24 DUP3 ADD MSTORE PUSH32 0x4D697373696F6E206E6F7420696E2061726D696E672077696E646F772E204361 PUSH1 0x44 DUP3 ADD MSTORE PUSH32 0x6C6C20726566756E64506C617965727320696E73746561640000000000000000 PUSH1 0x64 DUP3 ADD MSTORE PUSH1 0x84 SWAP1 REVERT JUMPDEST POP PUSH1 0xC SLOAD TIMESTAMP LT PUSH2 0x898 JUMP JUMPDEST POP PUSH1 0x2 SLOAD PUSH1 0x40 MLOAD PUSH4 0xB9181611 PUSH1 0xE0 SHL DUP2 MSTORE CALLER PUSH1 0x4 DUP3 ADD MSTORE SWAP1 PUSH1 0x20 SWAP1 DUP3 SWAP1 PUSH1 0x24 SWAP1 DUP3 SWAP1 PUSH1 0x1 PUSH1 0x1 PUSH1 0xA0 SHL SUB AND GAS STATICCALL DUP1 ISZERO PUSH2 0x9BE JUMPI DUP3 SWAP1 PUSH2 0x97F JUMPI JUMPDEST SWAP1 POP PUSH2 0x884 JUMP JUMPDEST POP PUSH1 0x20 DUP2 RETURNDATASIZE PUSH1 0x20 GT PUSH2 0x9B6 JUMPI JUMPDEST DUP2 PUSH2 0x999 PUSH1 0x20 SWAP4 DUP4 PUSH2 0x1ED3 JUMP JUMPDEST DUP2 ADD SUB SLT PUSH2 0x9B2 JUMPI PUSH2 0x9AD PUSH2 0x88D SWAP2 PUSH2 0x1EF5 JUMP JUMPDEST PUSH2 0x978 JUMP JUMPDEST POP DUP1 REVERT JUMPDEST RETURNDATASIZE SWAP2 POP PUSH2 0x98C JUMP JUMPDEST PUSH1 0x40 MLOAD RETURNDATASIZE DUP5 DUP3 RETURNDATACOPY RETURNDATASIZE SWAP1 REVERT JUMPDEST POP CALLVALUE PUSH2 0x17F JUMPI DUP1 PUSH1 0x3 NOT CALLDATASIZE ADD SLT PUSH2 0x17F JUMPI PUSH1 0x20 PUSH2 0x9E4 PUSH2 0x20F3 JUMP JUMPDEST PUSH1 0xFF PUSH1 0x40 MLOAD SWAP2 AND DUP2 MSTORE RETURN JUMPDEST POP CALLVALUE PUSH2 0x17F JUMPI PUSH1 0x20 CALLDATASIZE PUSH1 0x3 NOT ADD SLT PUSH2 0x17F JUMPI PUSH1 0x20 SWAP1 PUSH1 0xFF SWAP1 PUSH1 0x40 SWAP1 PUSH1 0x1 PUSH1 0x1 PUSH1 0xA0 SHL SUB PUSH2 0xA1A PUSH2 0x1E11 JUMP JUMPDEST AND DUP2 MSTORE PUSH1 0x4 DUP5 MSTORE KECCAK256 SLOAD AND PUSH1 0x40 MLOAD SWAP1 ISZERO ISZERO DUP2 MSTORE RETURN JUMPDEST POP CALLVALUE PUSH2 0x17F JUMPI DUP1 PUSH1 0x3 NOT CALLDATASIZE ADD SLT PUSH2 0x17F JUMPI PUSH2 0xA47 PUSH2 0x2293 JUMP JUMPDEST DUP1 SLOAD PUSH1 0x1 PUSH1 0x1 PUSH1 0xA0 SHL SUB AND CALLER EQ DUP1 ISZERO PUSH2 0xA6C JUMPI JUMPDEST PUSH2 0xA64 SWAP1 PUSH2 0x1F02 JUMP JUMPDEST PUSH2 0x8AC PUSH2 0x2818 JUMP JUMPDEST POP PUSH1 0x2 SLOAD PUSH1 0x40 MLOAD PUSH4 0xB9181611 PUSH1 0xE0 SHL DUP2 MSTORE CALLER PUSH1 0x4 DUP3 ADD MSTORE SWAP1 PUSH1 0x20 SWAP1 DUP3 SWAP1 PUSH1 0x24 SWAP1 DUP3 SWAP1 PUSH1 0x1 PUSH1 0x1 PUSH1 0xA0 SHL SUB AND GAS STATICCALL DUP1 ISZERO PUSH2 0x9BE JUMPI DUP3 SWAP1 PUSH2 0xAAD JUMPI JUMPDEST SWAP1 POP PUSH2 0xA5B JUMP JUMPDEST POP PUSH1 0x20 DUP2 RETURNDATASIZE PUSH1 0x20 GT PUSH2 0xAE0 JUMPI JUMPDEST DUP2 PUSH2 0xAC7 PUSH1 0x20 SWAP4 DUP4 PUSH2 0x1ED3 JUMP JUMPDEST DUP2 ADD SUB SLT PUSH2 0x9B2 JUMPI PUSH2 0xADB PUSH2 0xA64 SWAP2 PUSH2 0x1EF5 JUMP JUMPDEST PUSH2 0xAA6 JUMP JUMPDEST RETURNDATASIZE SWAP2 POP PUSH2 0xABA JUMP JUMPDEST POP DUP1 PUSH1 0x3 NOT CALLDATASIZE ADD SLT PUSH2 0x17F JUMPI PUSH2 0xAFC PUSH2 0x2293 JUMP JUMPDEST PUSH1 0x8 SLOAD DUP1 TIMESTAMP LT PUSH2 0xF56 JUMPI POP PUSH1 0x9 SLOAD DUP1 TIMESTAMP GT PUSH2 0xF40 JUMPI POP PUSH1 0x6 SLOAD PUSH1 0xFF PUSH1 0xB SLOAD PUSH1 0x8 SHR AND DUP1 SWAP2 LT ISZERO PUSH2 0xF2E JUMPI POP PUSH1 0xA SLOAD DUP1 CALLVALUE SUB PUSH2 0xF18 JUMPI POP CALLER DUP2 MSTORE PUSH1 0x3 PUSH1 0x20 MSTORE PUSH1 0xFF PUSH1 0x40 DUP3 KECCAK256 SLOAD AND PUSH2 0xF0A JUMPI PUSH1 0x2 SLOAD PUSH1 0x40 DUP1 MLOAD PUSH4 0x4C0252C3 PUSH1 0xE1 SHL DUP2 MSTORE CALLER PUSH1 0x4 DUP3 ADD MSTORE PUSH1 0x1 PUSH1 0x1 PUSH1 0xA0 SHL SUB SWAP1 SWAP3 AND SWAP3 SWAP2 SWAP1 DUP2 PUSH1 0x24 DUP2 DUP7 GAS STATICCALL SWAP1 DUP2 ISZERO PUSH2 0x9BE JUMPI DUP3 SWAP1 DUP4 SWAP3 PUSH2 0xEC0 JUMPI JUMPDEST POP ISZERO PUSH2 0xDB8 JUMPI POP PUSH1 0x6 SLOAD PUSH1 0x1 PUSH1 0x40 SHL DUP2 LT ISZERO PUSH2 0xDA4 JUMPI DUP1 PUSH1 0x1 PUSH2 0xBAA SWAP3 ADD PUSH1 0x6 SSTORE PUSH1 0x6 PUSH2 0x20CC JUMP JUMPDEST DUP2 SLOAD SWAP1 PUSH1 0x3 SHL SWAP1 CALLER DUP3 SHL SWAP2 PUSH1 0x1 DUP1 PUSH1 0xA0 SHL SUB SWAP1 SHL NOT AND OR SWAP1 SSTORE CALLER DUP2 MSTORE PUSH1 0x3 PUSH1 0x20 MSTORE PUSH1 0x40 DUP2 KECCAK256 PUSH1 0x1 PUSH1 0xFF NOT DUP3 SLOAD AND OR SWAP1 SSTORE PUSH2 0xBE6 CALLVALUE PUSH1 0xF SLOAD PUSH2 0x1F76 JUMP JUMPDEST PUSH1 0xF SSTORE PUSH2 0xBF5 CALLVALUE PUSH1 0x10 SLOAD PUSH2 0x1F76 JUMP JUMPDEST PUSH1 0x10 SSTORE DUP1 PUSH1 0x1 DUP2 PUSH2 0xD97 JUMPI JUMPDEST DUP1 ISZERO PUSH2 0xD8A JUMPI JUMPDEST DUP1 ISZERO PUSH2 0xD7D JUMPI JUMPDEST PUSH2 0xD1A JUMPI JUMPDEST PUSH2 0xD06 JUMPI PUSH1 0x15 SLOAD PUSH1 0xFF DUP2 PUSH1 0x8 SHR AND SWAP1 PUSH1 0x8 DUP3 LT ISZERO PUSH2 0xCF0 JUMPI PUSH2 0x100 SWAP1 PUSH1 0x1 PUSH1 0x0 SWAP4 PUSH1 0x0 DUP1 MLOAD PUSH1 0x20 PUSH2 0x2AEC DUP4 CODECOPY DUP2 MLOAD SWAP2 MSTORE PUSH1 0x20 PUSH1 0x40 MLOAD TIMESTAMP DUP2 MSTORE LOG3 PUSH2 0xFF00 NOT AND OR PUSH1 0x15 SSTORE PUSH1 0x2 SLOAD DUP2 SWAP1 PUSH1 0x1 PUSH1 0x1 PUSH1 0xA0 SHL SUB AND DUP1 EXTCODESIZE ISZERO PUSH2 0xCED JUMPI DUP2 DUP1 SWAP2 PUSH1 0x24 PUSH1 0x40 MLOAD DUP1 SWAP6 DUP2 SWAP4 PUSH4 0xC17F9E59 PUSH1 0xE0 SHL DUP4 MSTORE CALLER PUSH1 0x4 DUP5 ADD MSTORE GAS CALL DUP1 ISZERO PUSH2 0xCE0 JUMPI PUSH2 0xCD0 JUMPI JUMPDEST PUSH1 0x6 SLOAD PUSH1 0x40 MLOAD SWAP1 CALLVALUE DUP3 MSTORE PUSH1 0x20 DUP3 ADD MSTORE PUSH32 0xBEDD10D90B8962EB521114C7E2B49019403D371FFA1E46AFBDA7A3F1FDE8F06F PUSH1 0x40 CALLER SWAP3 LOG2 PUSH1 0x1 DUP1 SSTORE DUP1 RETURN JUMPDEST PUSH2 0xCD9 SWAP2 PUSH2 0x1ED3 JUMP JUMPDEST DUP2 DUP2 PUSH2 0xC94 JUMP JUMPDEST POP PUSH1 0x40 MLOAD SWAP1 RETURNDATASIZE SWAP1 DUP3 RETURNDATACOPY RETURNDATASIZE SWAP1 REVERT JUMPDEST POP REVERT JUMPDEST PUSH4 0x4E487B71 PUSH1 0xE0 SHL PUSH1 0x0 MSTORE PUSH1 0x21 PUSH1 0x4 MSTORE PUSH1 0x24 PUSH1 0x0 REVERT JUMPDEST PUSH4 0x4E487B71 PUSH1 0xE0 SHL DUP2 MSTORE PUSH1 0x21 PUSH1 0x4 MSTORE PUSH1 0x24 SWAP1 REVERT JUMPDEST POP PUSH1 0x2 SLOAD PUSH1 0x1 PUSH1 0x1 PUSH1 0xA0 SHL SUB AND DUP1 EXTCODESIZE ISZERO PUSH2 0x9B2 JUMPI PUSH1 0x40 MLOAD PUSH4 0xD8D6E8FF PUSH1 0xE0 SHL DUP2 MSTORE PUSH1 0x1 PUSH1 0x4 DUP3 ADD MSTORE DUP3 SWAP2 DUP3 SWAP1 DUP3 SWAP1 PUSH1 0x24 SWAP1 DUP3 SWAP1 DUP5 SWAP1 GAS CALL SWAP1 DUP2 ISZERO PUSH2 0x9BE JUMPI DUP3 SWAP2 PUSH2 0xD66 JUMPI JUMPDEST POP POP PUSH2 0xC14 JUMP JUMPDEST DUP2 PUSH2 0xD70 SWAP2 PUSH2 0x1ED3 JUMP JUMPDEST PUSH2 0xD7B JUMPI DUP1 DUP4 PUSH2 0xD5F JUMP JUMPDEST REVERT JUMPDEST POP PUSH2 0xD06 JUMPI DUP1 PUSH1 0x0 PUSH2 0xC0F JUMP JUMPDEST POP PUSH2 0xD06 JUMPI DUP1 PUSH1 0x0 PUSH2 0xC08 JUMP JUMPDEST POP PUSH2 0xD06 JUMPI DUP1 PUSH1 0x0 PUSH2 0xC01 JUMP JUMPDEST PUSH4 0x4E487B71 PUSH1 0xE0 SHL DUP3 MSTORE PUSH1 0x41 PUSH1 0x4 MSTORE PUSH1 0x24 DUP3 REVERT JUMPDEST PUSH1 0x24 SWAP3 PUSH1 0x3 DUP3 LT ISZERO PUSH2 0xEAD JUMPI PUSH1 0x20 SWAP2 PUSH1 0x1 SUB PUSH2 0xE40 JUMPI PUSH1 0x40 MLOAD PUSH4 0x77F855C9 PUSH1 0xE1 SHL DUP2 MSTORE CALLER PUSH1 0x4 DUP3 ADD MSTORE SWAP4 DUP5 SWAP2 DUP3 SWAP1 GAS STATICCALL DUP1 ISZERO PUSH2 0xCE0 JUMPI DUP2 SWAP1 PUSH2 0xE08 JUMPI JUMPDEST PUSH4 0x1B627879 PUSH1 0xE3 SHL DUP3 MSTORE PUSH1 0x4 MSTORE PUSH1 0x24 SWAP2 POP REVERT JUMPDEST POP PUSH1 0x20 DUP3 RETURNDATASIZE PUSH1 0x20 GT PUSH2 0xE38 JUMPI JUMPDEST DUP2 PUSH2 0xE22 PUSH1 0x20 SWAP4 DUP4 PUSH2 0x1ED3 JUMP JUMPDEST DUP2 ADD SUB SLT PUSH2 0xE33 JUMPI PUSH1 0x24 SWAP2 MLOAD PUSH2 0xDF5 JUMP JUMPDEST PUSH1 0x0 DUP1 REVERT JUMPDEST RETURNDATASIZE SWAP2 POP PUSH2 0xE15 JUMP JUMPDEST PUSH1 0x40 MLOAD PUSH4 0x1B8093B1 PUSH1 0xE1 SHL DUP2 MSTORE CALLER PUSH1 0x4 DUP3 ADD MSTORE SWAP4 DUP5 SWAP2 DUP3 SWAP1 GAS STATICCALL DUP1 ISZERO PUSH2 0xCE0 JUMPI DUP2 SWAP1 PUSH2 0xE7A JUMPI JUMPDEST PUSH4 0x147CE66F PUSH1 0xE3 SHL DUP3 MSTORE PUSH1 0x4 MSTORE PUSH1 0x24 SWAP2 POP REVERT JUMPDEST POP PUSH1 0x20 DUP3 RETURNDATASIZE PUSH1 0x20 GT PUSH2 0xEA5 JUMPI JUMPDEST DUP2 PUSH2 0xE94 PUSH1 0x20 SWAP4 DUP4 PUSH2 0x1ED3 JUMP JUMPDEST DUP2 ADD SUB SLT PUSH2 0xE33 JUMPI PUSH1 0x24 SWAP2 MLOAD PUSH2 0xE67 JUMP JUMPDEST RETURNDATASIZE SWAP2 POP PUSH2 0xE87 JUMP JUMPDEST POP POP PUSH4 0x4E487B71 PUSH1 0xE0 SHL DUP2 MSTORE PUSH1 0x21 PUSH1 0x4 MSTORE REVERT JUMPDEST SWAP2 POP POP PUSH1 0x40 DUP2 RETURNDATASIZE PUSH1 0x40 GT PUSH2 0xF02 JUMPI JUMPDEST DUP2 PUSH2 0xEDC PUSH1 0x40 SWAP4 DUP4 PUSH2 0x1ED3 JUMP JUMPDEST DUP2 ADD SUB SLT PUSH2 0x9B2 JUMPI PUSH1 0x20 PUSH2 0xEEF DUP3 PUSH2 0x1EF5 JUMP JUMPDEST SWAP2 ADD MLOAD SWAP1 PUSH1 0x3 DUP3 LT ISZERO PUSH2 0x73D JUMPI CODESIZE PUSH2 0xB82 JUMP JUMPDEST RETURNDATASIZE SWAP2 POP PUSH2 0xECF JUMP JUMPDEST PUSH3 0x1D9341 PUSH1 0xE1 SHL DUP2 MSTORE PUSH1 0x4 SWAP1 REVERT JUMPDEST PUSH4 0x54D7A6B3 PUSH1 0xE0 SHL DUP3 MSTORE PUSH1 0x4 MSTORE CALLVALUE PUSH1 0x24 MSTORE PUSH1 0x44 SWAP1 REVERT JUMPDEST PUSH4 0x647BCFA1 PUSH1 0xE0 SHL DUP3 MSTORE PUSH1 0x4 MSTORE PUSH1 0x24 SWAP1 REVERT JUMPDEST PUSH4 0x166450C9 PUSH1 0xE3 SHL DUP3 MSTORE TIMESTAMP PUSH1 0x4 MSTORE PUSH1 0x24 MSTORE PUSH1 0x44 SWAP1 REVERT JUMPDEST PUSH4 0x4CD01EFB PUSH1 0xE1 SHL DUP3 MSTORE TIMESTAMP PUSH1 0x4 MSTORE PUSH1 0x24 MSTORE PUSH1 0x44 SWAP1 REVERT JUMPDEST POP CALLVALUE PUSH2 0x17F JUMPI DUP1 PUSH1 0x3 NOT CALLDATASIZE ADD SLT PUSH2 0x17F JUMPI SLOAD PUSH1 0x40 MLOAD PUSH1 0x1 PUSH1 0x1 PUSH1 0xA0 SHL SUB SWAP1 SWAP2 AND DUP2 MSTORE PUSH1 0x20 SWAP1 RETURN JUMPDEST POP CALLVALUE PUSH2 0x17F JUMPI DUP1 PUSH1 0x3 NOT CALLDATASIZE ADD SLT PUSH2 0x17F JUMPI PUSH2 0xFAC PUSH2 0x22B5 JUMP JUMPDEST PUSH1 0x8 DUP2 LT ISZERO PUSH2 0x2F1 JUMPI PUSH1 0x7 SUB PUSH2 0x111D JUMPI PUSH1 0x6 SLOAD DUP2 DUP1 JUMPDEST DUP3 DUP2 LT PUSH2 0x10D5 JUMPI POP PUSH2 0xFEC PUSH2 0xFD6 DUP3 PUSH2 0x2099 JUMP JUMPDEST SWAP2 PUSH2 0xFE4 PUSH1 0x40 MLOAD SWAP4 DUP5 PUSH2 0x1ED3 JUMP JUMPDEST DUP1 DUP4 MSTORE PUSH2 0x2099 JUMP JUMPDEST PUSH1 0x20 DUP3 ADD SWAP3 SWAP1 PUSH1 0x1F NOT ADD CALLDATASIZE DUP5 CALLDATACOPY DUP4 DUP5 JUMPDEST DUP3 DUP2 LT PUSH2 0x1051 JUMPI POP POP POP SWAP1 PUSH1 0x40 MLOAD SWAP3 DUP4 SWAP3 PUSH1 0x20 DUP5 ADD SWAP1 PUSH1 0x20 DUP6 MSTORE MLOAD DUP1 SWAP2 MSTORE PUSH1 0x40 DUP5 ADD SWAP3 SWAP2 JUMPDEST DUP2 DUP2 LT PUSH2 0x102F JUMPI POP POP POP SUB SWAP1 RETURN JUMPDEST DUP3 MLOAD PUSH1 0x1 PUSH1 0x1 PUSH1 0xA0 SHL SUB AND DUP5 MSTORE DUP6 SWAP5 POP PUSH1 0x20 SWAP4 DUP5 ADD SWAP4 SWAP1 SWAP3 ADD SWAP2 PUSH1 0x1 ADD PUSH2 0x1021 JUMP JUMPDEST PUSH2 0x105A DUP2 PUSH2 0x20B1 JUMP JUMPDEST SWAP1 SLOAD PUSH1 0x3 SWAP2 SWAP1 SWAP2 SHL SHR PUSH1 0x1 PUSH1 0x1 PUSH1 0xA0 SHL SUB AND DUP7 MSTORE PUSH1 0x14 PUSH1 0x20 MSTORE PUSH1 0x40 DUP7 KECCAK256 SLOAD PUSH2 0x1085 JUMPI JUMPDEST PUSH1 0x1 ADD PUSH2 0xFFC JUMP JUMPDEST PUSH2 0x108E DUP2 PUSH2 0x20B1 JUMP JUMPDEST SWAP1 SLOAD PUSH1 0x3 SWAP2 SWAP1 SWAP2 SHL SHR PUSH1 0x1 PUSH1 0x1 PUSH1 0xA0 SHL SUB AND PUSH2 0x10A9 DUP4 PUSH2 0x20E4 JUMP JUMPDEST SWAP3 DUP6 MLOAD DUP2 LT ISZERO PUSH2 0x10C1 JUMPI PUSH1 0x5 SHL DUP6 ADD PUSH1 0x20 ADD MSTORE PUSH2 0x107D JUMP JUMPDEST PUSH4 0x4E487B71 PUSH1 0xE0 SHL DUP9 MSTORE PUSH1 0x32 PUSH1 0x4 MSTORE PUSH1 0x24 DUP9 REVERT JUMPDEST PUSH2 0x10DE DUP2 PUSH2 0x20B1 JUMP JUMPDEST SWAP1 SLOAD PUSH1 0x3 SWAP2 SWAP1 SWAP2 SHL SHR PUSH1 0x1 PUSH1 0x1 PUSH1 0xA0 SHL SUB AND DUP5 MSTORE PUSH1 0x14 PUSH1 0x20 MSTORE PUSH1 0x40 DUP5 KECCAK256 SLOAD PUSH2 0x1109 JUMPI JUMPDEST PUSH1 0x1 ADD PUSH2 0xFC2 JUMP JUMPDEST SWAP1 PUSH2 0x1115 PUSH1 0x1 SWAP2 PUSH2 0x20E4 JUMP JUMPDEST SWAP2 SWAP1 POP PUSH2 0x1101 JUMP JUMPDEST PUSH1 0x40 MLOAD PUSH3 0x461BCD PUSH1 0xE5 SHL DUP2 MSTORE PUSH1 0x20 PUSH1 0x4 DUP3 ADD MSTORE PUSH1 0x1F PUSH1 0x24 DUP3 ADD MSTORE PUSH32 0x4D697373696F6E206973206E6F7420696E204661696C65642073746174757300 PUSH1 0x44 DUP3 ADD MSTORE PUSH1 0x64 SWAP1 REVERT JUMPDEST POP CALLVALUE PUSH2 0x17F JUMPI DUP1 PUSH1 0x3 NOT CALLDATASIZE ADD SLT PUSH2 0x17F JUMPI PUSH1 0x60 PUSH2 0x1E0 PUSH1 0x40 MLOAD PUSH2 0x1184 DUP2 PUSH2 0x1EB6 JUMP JUMPDEST DUP3 DUP2 MSTORE DUP4 PUSH1 0x20 DUP3 ADD MSTORE DUP4 PUSH1 0x40 DUP3 ADD MSTORE DUP4 DUP4 DUP3 ADD MSTORE DUP4 PUSH1 0x80 DUP3 ADD MSTORE DUP4 PUSH1 0xA0 DUP3 ADD MSTORE DUP4 PUSH1 0xC0 DUP3 ADD MSTORE DUP4 PUSH1 0xE0 DUP3 ADD MSTORE DUP4 PUSH2 0x100 DUP3 ADD MSTORE DUP4 PUSH2 0x120 DUP3 ADD MSTORE DUP4 PUSH2 0x140 DUP3 ADD MSTORE DUP4 PUSH2 0x160 DUP3 ADD MSTORE DUP4 PUSH2 0x180 DUP3 ADD MSTORE DUP3 PUSH2 0x1A0 DUP3 ADD MSTORE DUP4 PUSH2 0x1C0 DUP3 ADD MSTORE ADD MSTORE PUSH1 0x40 MLOAD PUSH2 0x11EF DUP2 PUSH2 0x1EB6 JUMP JUMPDEST PUSH1 0x40 MLOAD PUSH1 0x6 SLOAD DUP1 DUP3 MSTORE DUP2 PUSH1 0x20 DUP2 ADD PUSH1 0x6 DUP7 MSTORE PUSH1 0x20 DUP7 KECCAK256 SWAP3 DUP7 JUMPDEST DUP2 DUP2 LT PUSH2 0x14C2 JUMPI POP POP PUSH2 0x121D SWAP3 POP SUB DUP3 PUSH2 0x1ED3 JUMP JUMPDEST DUP2 MSTORE PUSH1 0xFF PUSH1 0x7 SLOAD AND PUSH1 0x7 DUP2 LT ISZERO PUSH2 0x14AE JUMPI PUSH1 0x20 DUP3 ADD MSTORE PUSH1 0x8 SLOAD PUSH1 0x40 DUP3 ADD MSTORE PUSH1 0x9 SLOAD PUSH1 0x60 DUP3 ADD MSTORE PUSH1 0xA SLOAD PUSH1 0x80 DUP3 ADD MSTORE PUSH1 0xFF PUSH1 0xB SLOAD DUP2 DUP2 AND PUSH1 0xA0 DUP5 ADD MSTORE PUSH1 0x8 SHR AND PUSH1 0xC0 DUP3 ADD MSTORE PUSH1 0xC SLOAD PUSH1 0xE0 DUP3 ADD MSTORE PUSH1 0xD SLOAD PUSH2 0x100 DUP3 ADD MSTORE PUSH1 0xFF PUSH1 0xE SLOAD DUP2 DUP2 AND PUSH2 0x120 DUP5 ADD MSTORE PUSH1 0x8 SHR AND PUSH2 0x140 DUP3 ADD MSTORE PUSH1 0xF SLOAD PUSH2 0x160 DUP3 ADD MSTORE PUSH1 0x10 SLOAD PUSH2 0x180 DUP3 ADD MSTORE PUSH1 0x11 SLOAD PUSH2 0x12A8 DUP2 PUSH2 0x2099 JUMP JUMPDEST SWAP1 PUSH2 0x12B6 PUSH1 0x40 MLOAD SWAP3 DUP4 PUSH2 0x1ED3 JUMP JUMPDEST DUP1 DUP3 MSTORE PUSH1 0x11 DUP5 MSTORE DUP4 PUSH1 0x0 DUP1 MLOAD PUSH1 0x20 PUSH2 0x2ACC DUP4 CODECOPY DUP2 MLOAD SWAP2 MSTORE PUSH1 0x20 DUP5 ADD JUMPDEST DUP4 DUP4 LT PUSH2 0x147A JUMPI POP POP POP POP PUSH2 0x1A0 DUP3 ADD MSTORE PUSH1 0x12 SLOAD PUSH2 0x1C0 DUP3 ADD MSTORE PUSH1 0x40 MLOAD PUSH1 0x13 SLOAD DUP1 DUP3 MSTORE DUP2 PUSH1 0x20 DUP2 ADD PUSH1 0x13 DUP7 MSTORE PUSH1 0x20 DUP7 KECCAK256 SWAP3 DUP7 JUMPDEST DUP2 DUP2 LT PUSH2 0x1458 JUMPI POP POP PUSH2 0x131A SWAP3 POP SUB DUP3 PUSH2 0x1ED3 JUMP JUMPDEST PUSH2 0x1E0 DUP3 ADD MSTORE PUSH1 0x40 MLOAD SWAP1 PUSH1 0x20 DUP3 MSTORE PUSH2 0x1340 DUP2 MLOAD PUSH2 0x200 PUSH1 0x20 DUP6 ADD MSTORE PUSH2 0x220 DUP5 ADD SWAP1 PUSH2 0x1E3A JUMP JUMPDEST SWAP3 PUSH2 0x1353 PUSH1 0x20 DUP4 ADD MLOAD PUSH1 0x40 DUP6 ADD SWAP1 PUSH2 0x1E77 JUMP JUMPDEST PUSH1 0x40 DUP3 ADD MLOAD PUSH1 0x60 DUP5 ADD MSTORE PUSH1 0x60 DUP3 ADD MLOAD PUSH1 0x80 DUP5 ADD MSTORE PUSH1 0x80 DUP3 ADD MLOAD PUSH1 0xA0 DUP5 ADD MSTORE PUSH1 0xFF PUSH1 0xA0 DUP4 ADD MLOAD AND PUSH1 0xC0 DUP5 ADD MSTORE PUSH1 0xFF PUSH1 0xC0 DUP4 ADD MLOAD AND PUSH1 0xE0 DUP5 ADD MSTORE PUSH1 0xE0 DUP3 ADD MLOAD PUSH2 0x100 DUP5 ADD MSTORE PUSH2 0x100 DUP3 ADD MLOAD PUSH2 0x120 DUP5 ADD MSTORE PUSH1 0xFF PUSH2 0x120 DUP4 ADD MLOAD AND PUSH2 0x140 DUP5 ADD MSTORE PUSH1 0xFF PUSH2 0x140 DUP4 ADD MLOAD AND PUSH2 0x160 DUP5 ADD MSTORE PUSH2 0x160 DUP3 ADD MLOAD PUSH2 0x180 DUP5 ADD MSTORE PUSH2 0x180 DUP3 ADD MLOAD PUSH2 0x1A0 DUP5 ADD MSTORE PUSH2 0x1A0 DUP3 ADD MLOAD SWAP4 PUSH1 0x1F NOT DUP5 DUP3 SUB ADD PUSH2 0x1C0 DUP6 ADD MSTORE PUSH1 0x20 DUP1 DUP7 MLOAD SWAP3 DUP4 DUP2 MSTORE ADD SWAP6 ADD SWAP2 JUMPDEST DUP2 DUP2 LT PUSH2 0x142D JUMPI DUP5 DUP1 PUSH2 0x1429 DUP9 PUSH2 0x1E0 DUP9 PUSH2 0x1C0 DUP2 ADD MLOAD DUP3 DUP7 ADD MSTORE ADD MLOAD PUSH1 0x1F NOT DUP5 DUP4 SUB ADD PUSH2 0x200 DUP6 ADD MSTORE PUSH2 0x1E3A JUMP JUMPDEST SUB SWAP1 RETURN JUMPDEST DUP3 MLOAD DUP1 MLOAD PUSH1 0x1 PUSH1 0x1 PUSH1 0xA0 SHL SUB AND DUP8 MSTORE PUSH1 0x20 SWAP1 DUP2 ADD MLOAD DUP2 DUP9 ADD MSTORE PUSH1 0x40 SWAP1 SWAP7 ADD SWAP6 SWAP1 SWAP3 ADD SWAP2 PUSH1 0x1 ADD PUSH2 0x13FA JUMP JUMPDEST DUP5 SLOAD PUSH1 0x1 PUSH1 0x1 PUSH1 0xA0 SHL SUB AND DUP4 MSTORE PUSH1 0x1 SWAP5 DUP6 ADD SWAP5 DUP7 SWAP5 POP PUSH1 0x20 SWAP1 SWAP4 ADD SWAP3 ADD PUSH2 0x1305 JUMP JUMPDEST PUSH1 0x2 PUSH1 0x20 PUSH1 0x1 SWAP3 PUSH1 0x40 MLOAD PUSH2 0x148D DUP2 PUSH2 0x1E84 JUMP JUMPDEST DUP5 DUP1 PUSH1 0xA0 SHL SUB DUP7 SLOAD AND DUP2 MSTORE DUP5 DUP7 ADD SLOAD DUP4 DUP3 ADD MSTORE DUP2 MSTORE ADD SWAP3 ADD SWAP3 ADD SWAP2 SWAP1 PUSH2 0x12D2 JUMP JUMPDEST PUSH4 0x4E487B71 PUSH1 0xE0 SHL DUP4 MSTORE PUSH1 0x21 PUSH1 0x4 MSTORE PUSH1 0x24 DUP4 REVERT JUMPDEST DUP5 SLOAD PUSH1 0x1 PUSH1 0x1 PUSH1 0xA0 SHL SUB AND DUP4 MSTORE PUSH1 0x1 SWAP5 DUP6 ADD SWAP5 DUP7 SWAP5 POP PUSH1 0x20 SWAP1 SWAP4 ADD SWAP3 ADD PUSH2 0x1208 JUMP JUMPDEST POP CALLVALUE PUSH2 0x17F JUMPI DUP1 PUSH1 0x3 NOT CALLDATASIZE ADD SLT PUSH2 0x17F JUMPI PUSH2 0x14FD PUSH2 0x2293 JUMP JUMPDEST PUSH2 0x1505 PUSH2 0x22B5 JUMP JUMPDEST PUSH1 0x8 DUP2 LT ISZERO PUSH2 0x2F1 JUMPI PUSH1 0x4 DUP2 EQ PUSH2 0x1855 JUMPI PUSH1 0x2 NOT ADD PUSH2 0x183C JUMPI CALLER DUP2 MSTORE PUSH1 0x4 PUSH1 0x20 MSTORE PUSH1 0xFF PUSH1 0x40 DUP3 KECCAK256 SLOAD AND PUSH2 0x182D JUMPI CALLER DUP2 MSTORE PUSH1 0x3 PUSH1 0x20 MSTORE PUSH1 0xFF PUSH1 0x40 DUP3 KECCAK256 SLOAD AND ISZERO PUSH2 0x181E JUMPI PUSH1 0xE SLOAD PUSH1 0xFF DUP2 PUSH1 0x8 SHR AND SWAP1 PUSH1 0xFF DUP2 AND DUP3 LT ISZERO PUSH2 0x180F JUMPI PUSH1 0xC SLOAD PUSH2 0x156A DUP2 TIMESTAMP PUSH2 0x1F83 JUMP JUMPDEST SWAP1 PUSH1 0x64 DUP3 MUL SWAP2 DUP1 DUP4 DIV PUSH1 0x64 EQ SWAP1 ISZERO OR ISZERO PUSH2 0x17F3 JUMPI SWAP1 PUSH2 0x158E PUSH2 0x1594 SWAP3 PUSH1 0xD SLOAD PUSH2 0x1F83 JUMP JUMPDEST SWAP1 PUSH2 0x2004 JUMP JUMPDEST PUSH1 0x11 SLOAD DUP1 ISZERO PUSH2 0x1807 JUMPI PUSH1 0x0 NOT DUP2 ADD SWAP1 DUP2 GT PUSH2 0x17F3 JUMPI PUSH2 0x15B4 PUSH1 0x1 SWAP2 PUSH2 0x2024 JUMP JUMPDEST POP ADD SLOAD SWAP1 JUMPDEST PUSH1 0x64 DUP3 MUL SWAP2 DUP1 DUP4 DIV PUSH1 0x64 EQ SWAP1 ISZERO OR ISZERO PUSH2 0x17F3 JUMPI PUSH1 0x64 SWAP2 PUSH2 0x15E9 PUSH2 0x15EE SWAP3 PUSH2 0x15E3 PUSH1 0xF SLOAD DUP1 SWAP5 PUSH2 0x2004 JUMP JUMPDEST SWAP1 PUSH2 0x1F83 JUMP JUMPDEST PUSH2 0x1FF1 JUMP JUMPDEST DIV SWAP2 PUSH2 0x15FC DUP4 PUSH1 0x10 SLOAD PUSH2 0x1F83 JUMP JUMPDEST PUSH1 0x10 SSTORE PUSH1 0xFF DUP2 EQ PUSH2 0x17DF JUMPI PUSH1 0x1 PUSH2 0xFF00 SWAP2 ADD PUSH1 0x8 SHL AND SWAP1 PUSH2 0xFF00 NOT AND OR PUSH1 0xE SSTORE CALLER DUP3 MSTORE PUSH1 0x4 PUSH1 0x20 MSTORE PUSH1 0x40 DUP3 KECCAK256 PUSH1 0x1 PUSH1 0xFF NOT DUP3 SLOAD AND OR SWAP1 SSTORE PUSH1 0x40 MLOAD PUSH2 0x163F DUP2 PUSH2 0x1E84 JUMP JUMPDEST CALLER DUP2 MSTORE DUP2 PUSH1 0x20 DUP3 ADD MSTORE PUSH1 0x11 SLOAD PUSH1 0x1 PUSH1 0x40 SHL DUP2 LT ISZERO PUSH2 0x17CB JUMPI DUP1 PUSH1 0x1 PUSH2 0x1667 SWAP3 ADD PUSH1 0x11 SSTORE PUSH2 0x2024 JUMP JUMPDEST PUSH2 0x17B7 JUMPI DUP2 MLOAD DUP2 SLOAD PUSH1 0x1 PUSH1 0x1 PUSH1 0xA0 SHL SUB NOT AND PUSH1 0x1 PUSH1 0x1 PUSH1 0xA0 SHL SUB SWAP2 SWAP1 SWAP2 AND OR DUP2 SSTORE PUSH1 0x20 SWAP1 SWAP2 ADD MLOAD PUSH1 0x1 SWAP1 SWAP2 ADD SSTORE DUP2 DUP1 DUP1 DUP1 DUP5 CALLER GAS CALL PUSH2 0x16A4 PUSH2 0x2059 JUMP JUMPDEST SWAP1 ISZERO PUSH2 0x1750 JUMPI POP PUSH1 0xFF PUSH1 0xE SLOAD DUP2 DUP2 PUSH1 0x8 SHR AND DUP1 SWAP4 PUSH1 0x10 SLOAD PUSH1 0x40 MLOAD SWAP2 DUP3 MSTORE PUSH1 0x20 DUP3 ADD MSTORE PUSH32 0xBBDD894F5E6D754C18172761A1A461095C26DE58905E706A8C33657573D40672 PUSH1 0x40 CALLER SWAP3 LOG3 AND SUB PUSH2 0x1702 JUMPI PUSH2 0x16FA PUSH2 0x23B8 JUMP JUMPDEST PUSH2 0x8AC PUSH2 0x2549 JUMP JUMPDEST DUP1 PUSH2 0xD06 JUMPI POP PUSH1 0x0 TIMESTAMP PUSH1 0x12 SSTORE PUSH1 0x15 SLOAD PUSH1 0xFF DUP2 PUSH1 0x8 SHR AND SWAP1 PUSH1 0x8 DUP3 LT ISZERO PUSH2 0x14AE JUMPI DUP3 PUSH1 0x4 PUSH2 0x400 SWAP4 PUSH1 0x0 DUP1 MLOAD PUSH1 0x20 PUSH2 0x2AEC DUP4 CODECOPY DUP2 MLOAD SWAP2 MSTORE PUSH1 0x20 PUSH1 0x40 MLOAD TIMESTAMP DUP2 MSTORE LOG3 POP PUSH2 0xFF00 NOT AND OR PUSH1 0x15 SSTORE PUSH2 0x8AC JUMP JUMPDEST SWAP1 PUSH1 0x40 MLOAD SWAP3 DUP4 SWAP2 PUSH4 0xD086DB43 PUSH1 0xE0 SHL DUP4 MSTORE CALLER PUSH1 0x4 DUP5 ADD MSTORE PUSH1 0x24 DUP4 ADD MSTORE PUSH1 0x60 PUSH1 0x44 DUP4 ADD MSTORE DUP3 MLOAD SWAP3 DUP4 PUSH1 0x64 DUP5 ADD MSTORE DUP2 JUMPDEST DUP5 DUP2 LT PUSH2 0x179F JUMPI POP POP SWAP2 PUSH1 0x84 SWAP3 DUP4 DUP3 DUP5 ADD ADD MSTORE PUSH1 0x1F DUP1 NOT SWAP2 ADD AND DUP2 ADD SUB ADD SWAP1 REVERT JUMPDEST PUSH1 0x20 DUP3 DUP3 ADD DUP2 ADD MLOAD PUSH1 0x84 DUP9 DUP5 ADD ADD MSTORE DUP7 SWAP5 POP ADD PUSH2 0x177E JUMP JUMPDEST PUSH4 0x4E487B71 PUSH1 0xE0 SHL DUP5 MSTORE PUSH1 0x4 DUP5 SWAP1 MSTORE PUSH1 0x24 DUP5 REVERT JUMPDEST PUSH4 0x4E487B71 PUSH1 0xE0 SHL DUP5 MSTORE PUSH1 0x41 PUSH1 0x4 MSTORE PUSH1 0x24 DUP5 REVERT JUMPDEST PUSH4 0x4E487B71 PUSH1 0xE0 SHL DUP5 MSTORE PUSH1 0x11 PUSH1 0x4 MSTORE PUSH1 0x24 DUP5 REVERT JUMPDEST PUSH4 0x4E487B71 PUSH1 0xE0 SHL DUP6 MSTORE PUSH1 0x11 PUSH1 0x4 MSTORE PUSH1 0x24 DUP6 REVERT JUMPDEST POP DUP4 SWAP1 PUSH2 0x15B9 JUMP JUMPDEST PUSH4 0x21B94F7B PUSH1 0xE2 SHL DUP4 MSTORE PUSH1 0x4 DUP4 REVERT JUMPDEST PUSH4 0xC394A433 PUSH1 0xE0 SHL DUP2 MSTORE PUSH1 0x4 SWAP1 REVERT JUMPDEST PUSH4 0x2AB8F89 PUSH1 0xE1 SHL DUP2 MSTORE PUSH1 0x4 SWAP1 REVERT JUMPDEST PUSH1 0xC SLOAD PUSH4 0x16F5E3B7 PUSH1 0xE2 SHL DUP3 MSTORE TIMESTAMP PUSH1 0x4 MSTORE PUSH1 0x24 MSTORE PUSH1 0x44 SWAP1 REVERT JUMPDEST PUSH1 0x24 DUP3 PUSH1 0xE SLOAD PUSH1 0xFF DUP1 PUSH2 0x186C DUP2 DUP5 PUSH1 0x8 SHR AND PUSH2 0x1F4E JUMP JUMPDEST SWAP3 AND SWAP2 AND EQ PUSH1 0x0 EQ PUSH2 0x18A6 JUMPI PUSH2 0x1894 PUSH1 0x3C JUMPDEST PUSH2 0x188F PUSH2 0xFFFF TIMESTAMP SWAP3 AND PUSH1 0x12 SLOAD PUSH2 0x1F76 JUMP JUMPDEST PUSH2 0x1F83 JUMP JUMPDEST PUSH1 0x1 PUSH3 0x269D79 PUSH1 0xE2 SHL SUB NOT DUP3 MSTORE PUSH1 0x4 MSTORE REVERT JUMPDEST PUSH2 0x1894 PUSH2 0x12C PUSH2 0x187E JUMP JUMPDEST POP CALLVALUE PUSH2 0x17F JUMPI DUP1 PUSH1 0x3 NOT CALLDATASIZE ADD SLT PUSH2 0x17F JUMPI PUSH2 0x18CA PUSH2 0x27A8 JUMP JUMPDEST DUP1 SLOAD PUSH1 0x1 PUSH1 0x1 PUSH1 0xA0 SHL SUB NOT DUP2 AND DUP3 SSTORE DUP2 SWAP1 PUSH1 0x1 PUSH1 0x1 PUSH1 0xA0 SHL SUB AND PUSH32 0x8BE0079C531659141344CD1FD0A4F28419497F9722A3DAAFE3B4186F6B6457E0 DUP3 DUP1 LOG3 DUP1 RETURN JUMPDEST POP CALLVALUE PUSH2 0x17F JUMPI DUP1 PUSH1 0x3 NOT CALLDATASIZE ADD SLT PUSH2 0x17F JUMPI PUSH2 0x1429 PUSH2 0x1927 PUSH2 0x22B5 JUMP JUMPDEST PUSH1 0x40 MLOAD SWAP2 DUP3 SWAP2 DUP3 PUSH2 0x1E27 JUMP JUMPDEST POP CALLVALUE PUSH2 0x17F JUMPI DUP1 PUSH1 0x3 NOT CALLDATASIZE ADD SLT PUSH2 0x17F JUMPI PUSH1 0x20 PUSH2 0x19D PUSH2 0x1F90 JUMP JUMPDEST POP CALLVALUE PUSH2 0x17F JUMPI DUP1 PUSH1 0x3 NOT CALLDATASIZE ADD SLT PUSH2 0x17F JUMPI PUSH2 0x1967 PUSH2 0x2293 JUMP JUMPDEST DUP1 SLOAD PUSH1 0x1 PUSH1 0x1 PUSH1 0xA0 SHL SUB AND CALLER EQ DUP1 ISZERO PUSH2 0x1C28 JUMPI JUMPDEST PUSH2 0x1984 SWAP1 PUSH2 0x1F02 JUMP JUMPDEST PUSH2 0x198C PUSH2 0x22B5 JUMP JUMPDEST PUSH1 0x8 DUP2 LT ISZERO PUSH2 0x2F1 JUMPI PUSH1 0x6 EQ DUP1 ISZERO PUSH2 0x1C0E JUMPI JUMPDEST ISZERO PUSH2 0x17F JUMPI SELFBALANCE DUP1 ISZERO PUSH2 0x19C2 DUP2 ISZERO PUSH2 0x19B5 DUP2 PUSH2 0x2506 JUMP JUMPDEST PUSH1 0x6 SLOAD ISZERO PUSH2 0x1C01 JUMPI PUSH2 0x2506 JUMP JUMPDEST PUSH1 0x19 DUP3 MUL SWAP1 DUP3 DUP3 DIV PUSH1 0x19 EQ OR ISZERO PUSH2 0x1BED JUMPI PUSH1 0x64 PUSH2 0x19E1 SWAP2 DIV DUP1 SWAP3 PUSH2 0x1F83 JUMP JUMPDEST PUSH1 0x2 SLOAD PUSH1 0x40 MLOAD PUSH4 0x8DA5CB5B PUSH1 0xE0 SHL DUP2 MSTORE DUP5 SWAP2 PUSH1 0x20 SWAP1 DUP3 SWAP1 PUSH1 0x4 SWAP1 DUP3 SWAP1 PUSH1 0x1 PUSH1 0x1 PUSH1 0xA0 SHL SUB AND GAS STATICCALL SWAP1 DUP2 ISZERO PUSH2 0x9BE JUMPI DUP3 SWAP2 DUP6 SWAP2 DUP4 SWAP2 PUSH2 0x1BA5 JUMPI JUMPDEST POP DUP3 SWAP2 DUP3 SWAP2 PUSH1 0x1 PUSH1 0x1 PUSH1 0xA0 SHL SUB AND GAS CALL PUSH2 0x1A32 PUSH2 0x2059 JUMP JUMPDEST POP ISZERO PUSH2 0x1B68 JUMPI DUP3 DUP1 DUP1 DUP1 DUP5 PUSH1 0x1 DUP1 PUSH1 0xA0 SHL SUB PUSH1 0x2 SLOAD AND GAS CALL PUSH2 0x1A52 PUSH2 0x2059 JUMP JUMPDEST POP ISZERO PUSH2 0x1B23 JUMPI PUSH1 0x1 DUP1 PUSH1 0xA0 SHL SUB PUSH1 0x2 SLOAD AND DUP4 PUSH1 0xFF PUSH1 0x7 SLOAD AND DUP3 EXTCODESIZE ISZERO PUSH2 0x9B2 JUMPI PUSH1 0x44 PUSH2 0x1A9A SWAP2 DUP4 PUSH1 0x40 MLOAD SWAP6 DUP7 SWAP5 DUP6 SWAP4 PUSH4 0x4E1E9D1 PUSH1 0xE5 SHL DUP6 MSTORE DUP10 PUSH1 0x4 DUP7 ADD MSTORE PUSH1 0x24 DUP6 ADD SWAP1 PUSH2 0x1E77 JUMP JUMPDEST GAS CALL DUP1 ISZERO PUSH2 0x1B18 JUMPI PUSH2 0x1ADF JUMPI JUMPDEST POP PUSH32 0xD66662C0DED9E58FD31D5E44944BCFD07FFC15E6927ECC1382E7941CB7BD24C4 SWAP2 PUSH1 0x40 SWAP2 DUP3 MLOAD SWAP2 DUP3 MSTORE PUSH1 0x20 DUP3 ADD MSTORE LOG1 PUSH1 0x1 DUP1 SSTORE DUP1 RETURN JUMPDEST SWAP2 DUP4 PUSH2 0x1B0F PUSH1 0x40 SWAP4 SWAP6 PUSH32 0xD66662C0DED9E58FD31D5E44944BCFD07FFC15E6927ECC1382E7941CB7BD24C4 SWAP6 PUSH2 0x1ED3 JUMP JUMPDEST SWAP4 SWAP2 POP SWAP2 PUSH2 0x1AA7 JUMP JUMPDEST PUSH1 0x40 MLOAD RETURNDATASIZE DUP7 DUP3 RETURNDATACOPY RETURNDATASIZE SWAP1 REVERT JUMPDEST PUSH1 0x40 MLOAD PUSH3 0x461BCD PUSH1 0xE5 SHL DUP2 MSTORE PUSH1 0x20 PUSH1 0x4 DUP3 ADD MSTORE PUSH1 0x17 PUSH1 0x24 DUP3 ADD MSTORE PUSH32 0x466163746F7279207472616E73666572206661696C6564000000000000000000 PUSH1 0x44 DUP3 ADD MSTORE PUSH1 0x64 SWAP1 REVERT JUMPDEST PUSH1 0x40 MLOAD PUSH3 0x461BCD PUSH1 0xE5 SHL DUP2 MSTORE PUSH1 0x20 PUSH1 0x4 DUP3 ADD MSTORE PUSH1 0x15 PUSH1 0x24 DUP3 ADD MSTORE PUSH21 0x13DDDB995C881D1C985B9CD9995C8819985A5B1959 PUSH1 0x5A SHL PUSH1 0x44 DUP3 ADD MSTORE PUSH1 0x64 SWAP1 REVERT JUMPDEST SWAP3 POP POP POP PUSH1 0x20 DUP2 RETURNDATASIZE PUSH1 0x20 GT PUSH2 0x1BE5 JUMPI JUMPDEST DUP2 PUSH2 0x1BC2 PUSH1 0x20 SWAP4 DUP4 PUSH2 0x1ED3 JUMP JUMPDEST DUP2 ADD SUB SLT PUSH2 0x9B2 JUMPI MLOAD PUSH1 0x1 PUSH1 0x1 PUSH1 0xA0 SHL SUB DUP2 AND DUP2 SUB PUSH2 0x9B2 JUMPI DUP2 SWAP1 DUP5 SWAP1 DUP3 PUSH2 0x1A1A JUMP JUMPDEST RETURNDATASIZE SWAP2 POP PUSH2 0x1BB5 JUMP JUMPDEST PUSH4 0x4E487B71 PUSH1 0xE0 SHL DUP4 MSTORE PUSH1 0x11 PUSH1 0x4 MSTORE PUSH1 0x24 DUP4 REVERT JUMPDEST PUSH2 0x1C09 PUSH2 0x2465 JUMP JUMPDEST PUSH2 0x2506 JUMP JUMPDEST POP PUSH2 0x1C17 PUSH2 0x22B5 JUMP JUMPDEST PUSH1 0x8 DUP2 LT ISZERO PUSH2 0x2F1 JUMPI PUSH1 0x7 EQ PUSH2 0x199F JUMP JUMPDEST POP PUSH1 0x2 SLOAD PUSH1 0x40 MLOAD PUSH4 0xB9181611 PUSH1 0xE0 SHL DUP2 MSTORE CALLER PUSH1 0x4 DUP3 ADD MSTORE SWAP1 PUSH1 0x20 SWAP1 DUP3 SWAP1 PUSH1 0x24 SWAP1 DUP3 SWAP1 PUSH1 0x1 PUSH1 0x1 PUSH1 0xA0 SHL SUB AND GAS STATICCALL DUP1 ISZERO PUSH2 0x9BE JUMPI DUP3 SWAP1 PUSH2 0x1C69 JUMPI JUMPDEST SWAP1 POP PUSH2 0x197B JUMP JUMPDEST POP PUSH1 0x20 DUP2 RETURNDATASIZE PUSH1 0x20 GT PUSH2 0x1C9C JUMPI JUMPDEST DUP2 PUSH2 0x1C83 PUSH1 0x20 SWAP4 DUP4 PUSH2 0x1ED3 JUMP JUMPDEST DUP2 ADD SUB SLT PUSH2 0x9B2 JUMPI PUSH2 0x1C97 PUSH2 0x1984 SWAP2 PUSH2 0x1EF5 JUMP JUMPDEST PUSH2 0x1C62 JUMP JUMPDEST RETURNDATASIZE SWAP2 POP PUSH2 0x1C76 JUMP JUMPDEST POP CALLVALUE PUSH2 0x17F JUMPI DUP1 PUSH1 0x3 NOT CALLDATASIZE ADD SLT PUSH2 0x17F JUMPI DUP1 SLOAD PUSH1 0x1 PUSH1 0x1 PUSH1 0xA0 SHL SUB AND CALLER EQ DUP1 ISZERO PUSH2 0x1D59 JUMPI JUMPDEST PUSH2 0x1CD2 SWAP1 PUSH2 0x1F02 JUMP JUMPDEST PUSH2 0x1CDA PUSH2 0x2293 JUMP JUMPDEST PUSH2 0x1CE2 PUSH2 0x22B5 JUMP JUMPDEST PUSH1 0x8 DUP2 LT ISZERO PUSH2 0x2F1 JUMPI PUSH1 0x5 EQ DUP1 ISZERO PUSH2 0x1D3F JUMPI JUMPDEST ISZERO PUSH2 0x1D02 JUMPI PUSH2 0x16FA PUSH2 0x23B8 JUMP JUMPDEST PUSH1 0x40 MLOAD PUSH3 0x461BCD PUSH1 0xE5 SHL DUP2 MSTORE PUSH1 0x20 PUSH1 0x4 DUP3 ADD MSTORE PUSH1 0x15 PUSH1 0x24 DUP3 ADD MSTORE PUSH21 0x135A5CDCDA5BDB881B9BDD08195B991959081E595D PUSH1 0x5A SHL PUSH1 0x44 DUP3 ADD MSTORE PUSH1 0x64 SWAP1 REVERT JUMPDEST POP PUSH2 0x1D48 PUSH2 0x22B5 JUMP JUMPDEST PUSH1 0x8 DUP2 LT ISZERO PUSH2 0x2F1 JUMPI PUSH1 0x6 EQ PUSH2 0x1CF5 JUMP JUMPDEST POP PUSH1 0x2 SLOAD PUSH1 0x40 MLOAD PUSH4 0xB9181611 PUSH1 0xE0 SHL DUP2 MSTORE CALLER PUSH1 0x4 DUP3 ADD MSTORE SWAP1 PUSH1 0x20 SWAP1 DUP3 SWAP1 PUSH1 0x24 SWAP1 DUP3 SWAP1 PUSH1 0x1 PUSH1 0x1 PUSH1 0xA0 SHL SUB AND GAS STATICCALL DUP1 ISZERO PUSH2 0x9BE JUMPI DUP3 SWAP1 PUSH2 0x1D9A JUMPI JUMPDEST SWAP1 POP PUSH2 0x1CC9 JUMP JUMPDEST POP PUSH1 0x20 DUP2 RETURNDATASIZE PUSH1 0x20 GT PUSH2 0x1DCD JUMPI JUMPDEST DUP2 PUSH2 0x1DB4 PUSH1 0x20 SWAP4 DUP4 PUSH2 0x1ED3 JUMP JUMPDEST DUP2 ADD SUB SLT PUSH2 0x9B2 JUMPI PUSH2 0x1DC8 PUSH2 0x1CD2 SWAP2 PUSH2 0x1EF5 JUMP JUMPDEST PUSH2 0x1D93 JUMP JUMPDEST RETURNDATASIZE SWAP2 POP PUSH2 0x1DA7 JUMP JUMPDEST SWAP1 POP CALLVALUE PUSH2 0x9B2 JUMPI PUSH1 0x20 CALLDATASIZE PUSH1 0x3 NOT ADD SLT PUSH2 0x9B2 JUMPI PUSH1 0x20 SWAP2 PUSH1 0xFF SWAP1 PUSH1 0x40 SWAP1 PUSH1 0x1 PUSH1 0x1 PUSH1 0xA0 SHL SUB PUSH2 0x1E01 PUSH2 0x1E11 JUMP JUMPDEST AND DUP2 MSTORE PUSH1 0x3 DUP6 MSTORE KECCAK256 SLOAD AND ISZERO ISZERO DUP2 MSTORE RETURN JUMPDEST PUSH1 0x4 CALLDATALOAD SWAP1 PUSH1 0x1 PUSH1 0x1 PUSH1 0xA0 SHL SUB DUP3 AND DUP3 SUB PUSH2 0xE33 JUMPI JUMP JUMPDEST SWAP2 SWAP1 PUSH1 0x20 DUP4 ADD SWAP3 PUSH1 0x8 DUP3 LT ISZERO PUSH2 0xCF0 JUMPI MSTORE JUMP JUMPDEST SWAP1 PUSH1 0x20 DUP1 DUP4 MLOAD SWAP3 DUP4 DUP2 MSTORE ADD SWAP3 ADD SWAP1 PUSH1 0x0 JUMPDEST DUP2 DUP2 LT PUSH2 0x1E58 JUMPI POP POP POP SWAP1 JUMP JUMPDEST DUP3 MLOAD PUSH1 0x1 PUSH1 0x1 PUSH1 0xA0 SHL SUB AND DUP5 MSTORE PUSH1 0x20 SWAP4 DUP5 ADD SWAP4 SWAP1 SWAP3 ADD SWAP2 PUSH1 0x1 ADD PUSH2 0x1E4B JUMP JUMPDEST SWAP1 PUSH1 0x7 DUP3 LT ISZERO PUSH2 0xCF0 JUMPI MSTORE JUMP JUMPDEST PUSH1 0x40 DUP2 ADD SWAP1 DUP2 LT PUSH8 0xFFFFFFFFFFFFFFFF DUP3 GT OR PUSH2 0x1EA0 JUMPI PUSH1 0x40 MSTORE JUMP JUMPDEST PUSH4 0x4E487B71 PUSH1 0xE0 SHL PUSH1 0x0 MSTORE PUSH1 0x41 PUSH1 0x4 MSTORE PUSH1 0x24 PUSH1 0x0 REVERT JUMPDEST PUSH2 0x200 DUP2 ADD SWAP1 DUP2 LT PUSH8 0xFFFFFFFFFFFFFFFF DUP3 GT OR PUSH2 0x1EA0 JUMPI PUSH1 0x40 MSTORE JUMP JUMPDEST SWAP1 PUSH1 0x1F DUP1 NOT SWAP2 ADD AND DUP2 ADD SWAP1 DUP2 LT PUSH8 0xFFFFFFFFFFFFFFFF DUP3 GT OR PUSH2 0x1EA0 JUMPI PUSH1 0x40 MSTORE JUMP JUMPDEST MLOAD SWAP1 DUP2 ISZERO ISZERO DUP3 SUB PUSH2 0xE33 JUMPI JUMP JUMPDEST ISZERO PUSH2 0x1F09 JUMPI JUMP JUMPDEST PUSH1 0x40 MLOAD PUSH3 0x461BCD PUSH1 0xE5 SHL DUP2 MSTORE PUSH1 0x20 PUSH1 0x4 DUP3 ADD MSTORE PUSH1 0x17 PUSH1 0x24 DUP3 ADD MSTORE PUSH32 0x4E6F74206F776E6572206F7220617574686F72697A6564000000000000000000 PUSH1 0x44 DUP3 ADD MSTORE PUSH1 0x64 SWAP1 REVERT JUMPDEST PUSH1 0xFF PUSH1 0x1 SWAP2 AND ADD SWAP1 PUSH1 0xFF DUP3 GT PUSH2 0x1F60 JUMPI JUMP JUMPDEST PUSH4 0x4E487B71 PUSH1 0xE0 SHL PUSH1 0x0 MSTORE PUSH1 0x11 PUSH1 0x4 MSTORE PUSH1 0x24 PUSH1 0x0 REVERT JUMPDEST SWAP2 SWAP1 DUP3 ADD DUP1 SWAP3 GT PUSH2 0x1F60 JUMPI JUMP JUMPDEST SWAP2 SWAP1 DUP3 SUB SWAP2 DUP3 GT PUSH2 0x1F60 JUMPI JUMP JUMPDEST PUSH2 0x1F98 PUSH2 0x22B5 JUMP JUMPDEST PUSH1 0x8 DUP2 LT ISZERO PUSH2 0xCF0 JUMPI PUSH1 0x4 SUB PUSH2 0x1FEC JUMPI PUSH1 0xE SLOAD PUSH1 0xFF DUP1 PUSH2 0x1FBC DUP2 DUP5 PUSH1 0x8 SHR AND PUSH2 0x1F4E JUMP JUMPDEST SWAP3 AND SWAP2 AND EQ PUSH1 0x0 EQ PUSH2 0x1FE1 JUMPI PUSH2 0x1FDE PUSH1 0x3C PUSH2 0x188F PUSH2 0xFFFF TIMESTAMP SWAP3 AND PUSH1 0x12 SLOAD PUSH2 0x1F76 JUMP JUMPDEST SWAP1 JUMP JUMPDEST PUSH2 0x1FDE PUSH2 0x12C PUSH2 0x187E JUMP JUMPDEST PUSH1 0x0 SWAP1 JUMP JUMPDEST DUP2 DUP2 MUL SWAP3 SWAP2 DUP2 ISZERO SWAP2 DUP5 DIV EQ OR ISZERO PUSH2 0x1F60 JUMPI JUMP JUMPDEST DUP2 ISZERO PUSH2 0x200E JUMPI DIV SWAP1 JUMP JUMPDEST PUSH4 0x4E487B71 PUSH1 0xE0 SHL PUSH1 0x0 MSTORE PUSH1 0x12 PUSH1 0x4 MSTORE PUSH1 0x24 PUSH1 0x0 REVERT JUMPDEST PUSH1 0x11 SLOAD DUP2 LT ISZERO PUSH2 0x2043 JUMPI PUSH1 0x11 PUSH1 0x0 MSTORE PUSH1 0x20 PUSH1 0x0 KECCAK256 SWAP1 PUSH1 0x1 SHL ADD SWAP1 PUSH1 0x0 SWAP1 JUMP JUMPDEST PUSH4 0x4E487B71 PUSH1 0xE0 SHL PUSH1 0x0 MSTORE PUSH1 0x32 PUSH1 0x4 MSTORE PUSH1 0x24 PUSH1 0x0 REVERT JUMPDEST RETURNDATASIZE ISZERO PUSH2 0x2094 JUMPI RETURNDATASIZE SWAP1 PUSH8 0xFFFFFFFFFFFFFFFF DUP3 GT PUSH2 0x1EA0 JUMPI PUSH1 0x40 MLOAD SWAP2 PUSH2 0x2088 PUSH1 0x1F DUP3 ADD PUSH1 0x1F NOT AND PUSH1 0x20 ADD DUP5 PUSH2 0x1ED3 JUMP JUMPDEST DUP3 MSTORE RETURNDATASIZE PUSH1 0x0 PUSH1 0x20 DUP5 ADD RETURNDATACOPY JUMP JUMPDEST PUSH1 0x60 SWAP1 JUMP JUMPDEST PUSH8 0xFFFFFFFFFFFFFFFF DUP2 GT PUSH2 0x1EA0 JUMPI PUSH1 0x5 SHL PUSH1 0x20 ADD SWAP1 JUMP JUMPDEST PUSH1 0x6 SLOAD DUP2 LT ISZERO PUSH2 0x2043 JUMPI PUSH1 0x6 PUSH1 0x0 MSTORE PUSH1 0x20 PUSH1 0x0 KECCAK256 ADD SWAP1 PUSH1 0x0 SWAP1 JUMP JUMPDEST DUP1 SLOAD DUP3 LT ISZERO PUSH2 0x2043 JUMPI PUSH1 0x0 MSTORE PUSH1 0x20 PUSH1 0x0 KECCAK256 ADD SWAP1 PUSH1 0x0 SWAP1 JUMP JUMPDEST PUSH1 0x0 NOT DUP2 EQ PUSH2 0x1F60 JUMPI PUSH1 0x1 ADD SWAP1 JUMP JUMPDEST PUSH2 0x20FB PUSH2 0x22B5 JUMP JUMPDEST PUSH1 0x8 DUP2 LT ISZERO PUSH2 0xCF0 JUMPI PUSH1 0x3 DUP2 EQ SWAP1 DUP2 ISZERO PUSH2 0x2133 JUMPI JUMPDEST POP PUSH2 0x211A JUMPI PUSH1 0x0 SWAP1 JUMP JUMPDEST PUSH1 0xE SLOAD PUSH1 0xFF DUP1 DUP3 PUSH1 0x8 SHR AND SWAP2 AND SUB PUSH1 0xFF DUP2 GT PUSH2 0x1F60 JUMPI SWAP1 JUMP JUMPDEST PUSH1 0x4 SWAP2 POP EQ CODESIZE PUSH2 0x2110 JUMP JUMPDEST PUSH2 0x2146 PUSH2 0x22B5 JUMP JUMPDEST PUSH1 0x8 DUP2 LT ISZERO PUSH2 0xCF0 JUMPI PUSH1 0x3 DUP2 EQ ISZERO SWAP1 DUP2 PUSH2 0x2240 JUMPI JUMPDEST POP PUSH2 0x223A JUMPI PUSH1 0x1 PUSH1 0x1 PUSH1 0xA0 SHL SUB AND PUSH1 0x0 DUP2 DUP2 MSTORE PUSH1 0x3 PUSH1 0x20 MSTORE PUSH1 0x40 SWAP1 KECCAK256 SLOAD PUSH1 0xFF AND ISZERO PUSH2 0x223A JUMPI PUSH1 0x0 MSTORE PUSH1 0x4 PUSH1 0x20 MSTORE PUSH1 0xFF PUSH1 0x40 PUSH1 0x0 KECCAK256 SLOAD AND PUSH2 0x1FEC JUMPI PUSH1 0xC SLOAD DUP1 TIMESTAMP LT PUSH2 0x223A JUMPI PUSH1 0xD SLOAD DUP1 TIMESTAMP LT ISZERO PUSH2 0x2233 JUMPI PUSH2 0x21B4 DUP3 TIMESTAMP PUSH2 0x1F83 JUMP JUMPDEST SWAP1 PUSH1 0x64 DUP3 MUL SWAP2 DUP1 DUP4 DIV PUSH1 0x64 EQ SWAP1 ISZERO OR ISZERO PUSH2 0x1F60 JUMPI PUSH2 0x21D5 SWAP3 PUSH2 0x158E SWAP2 PUSH2 0x1F83 JUMP JUMPDEST PUSH1 0x11 SLOAD PUSH1 0x0 DUP2 ISZERO PUSH2 0x222B JUMPI POP PUSH1 0x0 NOT DUP2 ADD SWAP1 DUP2 GT PUSH2 0x1F60 JUMPI PUSH2 0x21F8 PUSH1 0x1 SWAP2 PUSH2 0x2024 JUMP JUMPDEST POP ADD SLOAD SWAP1 JUMPDEST PUSH1 0x64 DUP3 MUL SWAP2 DUP1 DUP4 DIV PUSH1 0x64 EQ SWAP1 ISZERO OR ISZERO PUSH2 0x1F60 JUMPI PUSH1 0x64 SWAP2 PUSH2 0x15E9 PUSH2 0x2227 SWAP3 PUSH2 0x15E3 PUSH1 0xF SLOAD DUP1 SWAP5 PUSH2 0x2004 JUMP JUMPDEST DIV SWAP1 JUMP JUMPDEST SWAP1 POP SWAP1 PUSH2 0x21FD JUMP JUMPDEST POP POP PUSH1 0x0 SWAP1 JUMP JUMPDEST POP PUSH1 0x0 SWAP1 JUMP JUMPDEST PUSH1 0x4 SWAP2 POP EQ ISZERO CODESIZE PUSH2 0x215B JUMP JUMPDEST PUSH1 0xC SLOAD DUP1 TIMESTAMP LT PUSH2 0x223A JUMPI PUSH1 0xD SLOAD DUP1 TIMESTAMP LT ISZERO PUSH2 0x228C JUMPI PUSH2 0x226B DUP3 TIMESTAMP PUSH2 0x1F83 JUMP JUMPDEST SWAP1 PUSH1 0x64 DUP3 MUL SWAP2 DUP1 DUP4 DIV PUSH1 0x64 EQ SWAP1 ISZERO OR ISZERO PUSH2 0x1F60 JUMPI PUSH2 0x1FDE SWAP3 PUSH2 0x158E SWAP2 PUSH2 0x1F83 JUMP JUMPDEST POP POP PUSH1 0x64 SWAP1 JUMP JUMPDEST PUSH1 0x2 PUSH1 0x1 SLOAD EQ PUSH2 0x22A4 JUMPI PUSH1 0x2 PUSH1 0x1 SSTORE JUMP JUMPDEST PUSH4 0x3EE5AEB5 PUSH1 0xE0 SHL PUSH1 0x0 MSTORE PUSH1 0x4 PUSH1 0x0 REVERT JUMPDEST PUSH1 0xFF PUSH1 0x15 SLOAD PUSH1 0x8 SHR AND PUSH1 0x8 DUP2 LT ISZERO PUSH2 0xCF0 JUMPI PUSH1 0x6 DUP2 EQ DUP1 ISZERO PUSH2 0x23AE JUMPI JUMPDEST PUSH2 0x1FDE JUMPI POP PUSH1 0x8 SLOAD TIMESTAMP LT PUSH2 0x1FEC JUMPI PUSH1 0x9 SLOAD TIMESTAMP GT ISZERO PUSH2 0x23A9 JUMPI PUSH1 0x6 SLOAD PUSH1 0xFF PUSH1 0xB SLOAD AND GT PUSH2 0x23A4 JUMPI PUSH1 0xC SLOAD TIMESTAMP LT PUSH2 0x239F JUMPI PUSH1 0xD SLOAD TIMESTAMP LT ISZERO PUSH2 0x2375 JUMPI PUSH1 0xE SLOAD PUSH1 0xFF DUP1 DUP3 PUSH1 0x8 SHR AND SWAP2 AND DUP1 DUP3 LT ISZERO PUSH2 0x236E JUMPI PUSH1 0x12 SLOAD SWAP1 DUP2 PUSH2 0x2331 JUMPI POP POP POP PUSH1 0x3 SWAP1 JUMP JUMPDEST PUSH1 0xFF PUSH2 0x233F PUSH2 0x2352 SWAP5 PUSH2 0x1F4E JUMP JUMPDEST AND SUB PUSH2 0x2363 JUMPI PUSH2 0xFFFF PUSH1 0x3C JUMPDEST AND SWAP1 PUSH2 0x1F76 JUMP JUMPDEST TIMESTAMP LT ISZERO PUSH2 0x235E JUMPI PUSH1 0x4 SWAP1 JUMP JUMPDEST PUSH1 0x3 SWAP1 JUMP JUMPDEST PUSH2 0xFFFF PUSH2 0x12C PUSH2 0x234B JUMP JUMPDEST POP POP PUSH1 0x6 SWAP1 JUMP JUMPDEST PUSH1 0xE SLOAD PUSH1 0xFF DUP2 PUSH1 0x8 SHR AND SWAP1 DUP2 ISZERO PUSH2 0x2398 JUMPI PUSH1 0xFF AND GT PUSH2 0x2393 JUMPI PUSH1 0x6 SWAP1 JUMP JUMPDEST PUSH1 0x5 SWAP1 JUMP JUMPDEST POP POP PUSH1 0x7 SWAP1 JUMP JUMPDEST PUSH1 0x2 SWAP1 JUMP JUMPDEST PUSH1 0x7 SWAP1 JUMP JUMPDEST PUSH1 0x1 SWAP1 JUMP JUMPDEST POP PUSH1 0x7 DUP2 EQ PUSH2 0x22D2 JUMP JUMPDEST PUSH1 0x2 SLOAD PUSH1 0x0 SWAP1 PUSH1 0x1 PUSH1 0x1 PUSH1 0xA0 SHL SUB AND DUP1 EXTCODESIZE ISZERO PUSH2 0xE33 JUMPI PUSH1 0x40 MLOAD PUSH4 0xD8D6E8FF PUSH1 0xE0 SHL DUP2 MSTORE PUSH1 0x6 PUSH1 0x4 DUP3 ADD MSTORE SWAP1 PUSH1 0x0 SWAP1 DUP3 SWAP1 PUSH1 0x24 SWAP1 DUP3 SWAP1 DUP5 SWAP1 GAS CALL DUP1 ISZERO PUSH2 0x2459 JUMPI PUSH2 0x2444 JUMPI JUMPDEST POP DUP1 PUSH2 0xD06 JUMPI POP PUSH1 0x15 SLOAD PUSH1 0xFF DUP2 PUSH1 0x8 SHR AND SWAP1 PUSH1 0x8 DUP3 LT ISZERO PUSH2 0xCF0 JUMPI PUSH2 0x600 SWAP2 PUSH1 0x6 PUSH1 0x0 SWAP2 PUSH1 0x0 DUP1 MLOAD PUSH1 0x20 PUSH2 0x2AEC DUP4 CODECOPY DUP2 MLOAD SWAP2 MSTORE PUSH1 0x20 PUSH1 0x40 MLOAD TIMESTAMP DUP2 MSTORE LOG3 POP PUSH2 0xFF00 NOT AND OR PUSH1 0x15 SSTORE JUMP JUMPDEST PUSH2 0x2451 SWAP2 POP PUSH1 0x0 SWAP1 PUSH2 0x1ED3 JUMP JUMPDEST PUSH1 0x0 CODESIZE PUSH2 0x23FC JUMP JUMPDEST PUSH1 0x40 MLOAD RETURNDATASIZE PUSH1 0x0 DUP3 RETURNDATACOPY RETURNDATASIZE SWAP1 REVERT JUMPDEST PUSH1 0x2 SLOAD PUSH1 0x0 SWAP1 PUSH1 0x1 PUSH1 0x1 PUSH1 0xA0 SHL SUB AND DUP1 EXTCODESIZE ISZERO PUSH2 0xE33 JUMPI PUSH1 0x40 MLOAD PUSH4 0xD8D6E8FF PUSH1 0xE0 SHL DUP2 MSTORE PUSH1 0x7 PUSH1 0x4 DUP3 ADD MSTORE SWAP1 PUSH1 0x0 SWAP1 DUP3 SWAP1 PUSH1 0x24 SWAP1 DUP3 SWAP1 DUP5 SWAP1 GAS CALL DUP1 ISZERO PUSH2 0x2459 JUMPI PUSH2 0x24F1 JUMPI JUMPDEST POP DUP1 PUSH2 0xD06 JUMPI POP PUSH1 0x15 SLOAD PUSH1 0xFF DUP2 PUSH1 0x8 SHR AND SWAP1 PUSH1 0x8 DUP3 LT ISZERO PUSH2 0xCF0 JUMPI PUSH2 0x700 SWAP2 PUSH1 0x7 PUSH1 0x0 SWAP2 PUSH1 0x0 DUP1 MLOAD PUSH1 0x20 PUSH2 0x2AEC DUP4 CODECOPY DUP2 MLOAD SWAP2 MSTORE PUSH1 0x20 PUSH1 0x40 MLOAD TIMESTAMP DUP2 MSTORE LOG3 POP PUSH2 0xFF00 NOT AND OR PUSH1 0x15 SSTORE JUMP JUMPDEST PUSH2 0x24FE SWAP2 POP PUSH1 0x0 SWAP1 PUSH2 0x1ED3 JUMP JUMPDEST PUSH1 0x0 CODESIZE PUSH2 0x24A9 JUMP JUMPDEST ISZERO PUSH2 0x250D JUMPI JUMP JUMPDEST PUSH1 0x40 MLOAD PUSH3 0x461BCD PUSH1 0xE5 SHL DUP2 MSTORE PUSH1 0x20 PUSH1 0x4 DUP3 ADD MSTORE PUSH1 0x14 PUSH1 0x24 DUP3 ADD MSTORE PUSH20 0x4E6F2066756E647320746F207769746864726177 PUSH1 0x60 SHL PUSH1 0x44 DUP3 ADD MSTORE PUSH1 0x64 SWAP1 REVERT JUMPDEST PUSH1 0x0 SWAP1 PUSH2 0x2554 PUSH2 0x22B5 JUMP JUMPDEST PUSH1 0x8 DUP2 LT ISZERO PUSH2 0x14AE JUMPI PUSH1 0x6 EQ DUP1 ISZERO PUSH2 0x278E JUMPI JUMPDEST ISZERO PUSH2 0x9B2 JUMPI SELFBALANCE SWAP2 PUSH2 0x2579 DUP4 ISZERO ISZERO PUSH2 0x2506 JUMP JUMPDEST PUSH1 0x6 SLOAD ISZERO PUSH2 0x2781 JUMPI JUMPDEST POP PUSH1 0x0 DUP1 DUP2 PUSH1 0x6 SLOAD JUMPDEST DUP1 DUP3 LT PUSH2 0x2748 JUMPI POP POP DUP4 PUSH2 0x25A6 SWAP3 SWAP4 SWAP5 DUP3 GT PUSH2 0x2740 JUMPI PUSH2 0x1F83 JUMP JUMPDEST SWAP1 DUP2 ISZERO PUSH2 0x25B3 DUP2 ISZERO PUSH2 0x2506 JUMP JUMPDEST PUSH1 0x19 DUP4 MUL SWAP1 DUP4 DUP3 DIV PUSH1 0x19 EQ OR ISZERO PUSH2 0x272C JUMPI PUSH1 0x64 PUSH2 0x25D2 SWAP2 DIV DUP1 SWAP4 PUSH2 0x1F83 JUMP JUMPDEST PUSH1 0x2 SLOAD PUSH1 0x40 MLOAD PUSH4 0x8DA5CB5B PUSH1 0xE0 SHL DUP2 MSTORE SWAP2 SWAP3 SWAP2 SWAP1 PUSH1 0x20 SWAP1 DUP3 SWAP1 PUSH1 0x4 SWAP1 DUP3 SWAP1 PUSH1 0x1 PUSH1 0x1 PUSH1 0xA0 SHL SUB AND GAS STATICCALL SWAP1 DUP2 ISZERO PUSH2 0x9BE JUMPI DUP3 SWAP2 DUP6 SWAP2 DUP4 SWAP2 PUSH2 0x26E4 JUMPI JUMPDEST POP DUP3 SWAP2 DUP3 SWAP2 DUP3 SWAP2 SWAP1 PUSH1 0x1 PUSH1 0x1 PUSH1 0xA0 SHL SUB AND GAS CALL PUSH2 0x2628 PUSH2 0x2059 JUMP JUMPDEST POP ISZERO PUSH2 0x1B68 JUMPI DUP1 DUP1 DUP1 DUP1 DUP6 PUSH1 0x1 DUP1 PUSH1 0xA0 SHL SUB PUSH1 0x2 SLOAD AND GAS CALL PUSH2 0x2648 PUSH2 0x2059 JUMP JUMPDEST POP ISZERO PUSH2 0x1B23 JUMPI PUSH1 0x1 DUP1 PUSH1 0xA0 SHL SUB PUSH1 0x2 SLOAD AND PUSH1 0xFF PUSH1 0x7 SLOAD AND DUP2 EXTCODESIZE ISZERO PUSH2 0x73D JUMPI PUSH2 0x2690 PUSH1 0x44 DUP5 SWAP3 DUP4 PUSH1 0x40 MLOAD SWAP6 DUP7 SWAP5 DUP6 SWAP4 PUSH4 0x4E1E9D1 PUSH1 0xE5 SHL DUP6 MSTORE DUP11 PUSH1 0x4 DUP7 ADD MSTORE PUSH1 0x24 DUP6 ADD SWAP1 PUSH2 0x1E77 JUMP JUMPDEST GAS CALL DUP1 ISZERO PUSH2 0x9BE JUMPI SWAP2 PUSH1 0x40 SWAP4 SWAP2 PUSH32 0xD66662C0DED9E58FD31D5E44944BCFD07FFC15E6927ECC1382E7941CB7BD24C4 SWAP6 SWAP4 PUSH2 0x26D4 JUMPI JUMPDEST POP POP DUP3 MLOAD SWAP2 DUP3 MSTORE PUSH1 0x20 DUP3 ADD MSTORE LOG1 JUMP JUMPDEST DUP2 PUSH2 0x26DE SWAP2 PUSH2 0x1ED3 JUMP JUMPDEST CODESIZE PUSH2 0x26C5 JUMP JUMPDEST SWAP3 POP POP POP PUSH1 0x20 DUP2 RETURNDATASIZE PUSH1 0x20 GT PUSH2 0x2724 JUMPI JUMPDEST DUP2 PUSH2 0x2701 PUSH1 0x20 SWAP4 DUP4 PUSH2 0x1ED3 JUMP JUMPDEST DUP2 ADD SUB SLT PUSH2 0x9B2 JUMPI MLOAD PUSH1 0x1 PUSH1 0x1 PUSH1 0xA0 SHL SUB DUP2 AND DUP2 SUB PUSH2 0x9B2 JUMPI DUP2 SWAP1 DUP5 SWAP1 DUP3 PUSH2 0x260D JUMP JUMPDEST RETURNDATASIZE SWAP2 POP PUSH2 0x26F4 JUMP JUMPDEST PUSH4 0x4E487B71 PUSH1 0xE0 SHL DUP3 MSTORE PUSH1 0x11 PUSH1 0x4 MSTORE PUSH1 0x24 DUP3 REVERT JUMPDEST SWAP1 POP DUP1 PUSH2 0x1F83 JUMP JUMPDEST SWAP1 SWAP2 PUSH2 0x2779 PUSH1 0x1 SWAP2 PUSH2 0x2759 DUP6 PUSH2 0x20B1 JUMP JUMPDEST DUP5 DUP1 PUSH1 0xA0 SHL SUB SWAP2 SLOAD SWAP1 PUSH1 0x3 SHL SHR AND DUP7 MSTORE PUSH1 0x14 PUSH1 0x20 MSTORE PUSH1 0x40 DUP7 KECCAK256 SLOAD SWAP1 PUSH2 0x1F76 JUMP JUMPDEST SWAP3 ADD SWAP1 PUSH2 0x258B JUMP JUMPDEST PUSH2 0x2789 PUSH2 0x2465 JUMP JUMPDEST PUSH2 0x2582 JUMP JUMPDEST POP PUSH2 0x2797 PUSH2 0x22B5 JUMP JUMPDEST PUSH1 0x8 DUP2 LT ISZERO PUSH2 0x14AE JUMPI PUSH1 0x7 EQ PUSH2 0x2567 JUMP JUMPDEST PUSH1 0x0 SLOAD PUSH1 0x1 PUSH1 0x1 PUSH1 0xA0 SHL SUB AND CALLER SUB PUSH2 0x27BC JUMPI JUMP JUMPDEST PUSH4 0x118CDAA7 PUSH1 0xE0 SHL PUSH1 0x0 MSTORE CALLER PUSH1 0x4 MSTORE PUSH1 0x24 PUSH1 0x0 REVERT JUMPDEST PUSH1 0x0 DUP1 SLOAD PUSH1 0x1 PUSH1 0x1 PUSH1 0xA0 SHL SUB SWAP3 DUP4 AND PUSH1 0x1 PUSH1 0x1 PUSH1 0xA0 SHL SUB NOT DUP3 AND DUP2 OR DUP4 SSTORE SWAP3 AND SWAP1 PUSH32 0x8BE0079C531659141344CD1FD0A4F28419497F9722A3DAAFE3B4186F6B6457E0 SWAP1 DUP1 LOG3 JUMP JUMPDEST PUSH2 0x2820 PUSH2 0x22B5 JUMP JUMPDEST SWAP1 PUSH1 0x0 SWAP2 PUSH1 0x8 DUP2 LT ISZERO PUSH2 0x14AE JUMPI PUSH1 0x7 SUB PUSH2 0x2A86 JUMPI PUSH1 0x6 SLOAD ISZERO PUSH2 0x2A4A JUMPI PUSH1 0x1 SWAP1 DUP3 JUMPDEST PUSH1 0x6 SLOAD DUP2 LT ISZERO PUSH2 0x2979 JUMPI PUSH2 0x2854 DUP2 PUSH2 0x20B1 JUMP JUMPDEST SWAP1 SLOAD PUSH1 0x3 SWAP2 SWAP1 SWAP2 SHL SHR PUSH1 0x1 PUSH1 0x1 PUSH1 0xA0 SHL SUB AND DUP1 DUP6 MSTORE PUSH1 0x5 PUSH1 0x20 MSTORE PUSH1 0x40 DUP6 KECCAK256 SLOAD PUSH1 0xFF AND ISZERO PUSH2 0x2885 JUMPI JUMPDEST POP PUSH1 0x1 ADD PUSH2 0x2841 JUMP JUMPDEST DUP5 DUP1 DUP1 DUP1 PUSH1 0xA SLOAD DUP6 GAS CALL PUSH2 0x2897 PUSH2 0x2059 JUMP JUMPDEST POP ISZERO PUSH2 0x2924 JUMPI DUP1 DUP6 MSTORE PUSH1 0x5 PUSH1 0x20 MSTORE PUSH1 0x40 DUP6 KECCAK256 DUP1 SLOAD PUSH1 0xFF NOT AND PUSH1 0x1 OR SWAP1 SSTORE PUSH1 0x13 SLOAD PUSH1 0x1 PUSH1 0x40 SHL DUP2 LT ISZERO PUSH2 0x642 JUMPI SWAP1 PUSH2 0x28D8 DUP3 PUSH1 0x1 DUP1 SWAP6 SWAP5 ADD PUSH1 0x13 SSTORE PUSH1 0x13 PUSH2 0x20CC JUMP JUMPDEST DUP2 SLOAD SWAP1 PUSH1 0x3 SHL SWAP1 DUP4 DUP3 SHL SWAP2 DUP7 DUP1 PUSH1 0xA0 SHL SUB SWAP1 SHL NOT AND OR SWAP1 SSTORE PUSH32 0x48D31F1C958CD44F1F83A52AE2DFAF61E88A1B82C07A6D5711A4ABEF60B6531E PUSH1 0x20 PUSH1 0xA SLOAD PUSH1 0x40 MLOAD SWAP1 DUP2 MSTORE LOG2 JUMPDEST SWAP1 PUSH2 0x287C JUMP JUMPDEST SWAP1 SWAP3 POP PUSH1 0xA SLOAD DUP2 DUP6 MSTORE PUSH1 0x14 PUSH1 0x20 MSTORE PUSH2 0x2941 PUSH1 0x40 DUP7 KECCAK256 SWAP2 DUP3 SLOAD PUSH2 0x1F76 JUMP JUMPDEST SWAP1 SSTORE PUSH32 0xAF73B0B217208B61BE286BBC37095BCE7EB8B9CCF617244C2F0F154E8E04E3FF PUSH1 0x20 PUSH1 0xA SLOAD PUSH1 0x40 MLOAD SWAP1 DUP2 MSTORE LOG2 PUSH1 0x1 DUP4 SWAP3 PUSH2 0x291E JUMP JUMPDEST POP SWAP2 SWAP1 PUSH1 0x6 SLOAD PUSH1 0xFF PUSH1 0xB SLOAD AND GT PUSH2 0x2A3D JUMPI JUMPDEST PUSH2 0x2993 PUSH2 0x22B5 JUMP JUMPDEST PUSH1 0x8 DUP2 LT ISZERO PUSH2 0x14AE JUMPI PUSH1 0x6 EQ DUP1 ISZERO PUSH2 0x2A23 JUMPI JUMPDEST ISZERO PUSH2 0x9B2 JUMPI SELFBALANCE SWAP1 PUSH2 0x29B8 DUP3 ISZERO ISZERO PUSH2 0x2506 JUMP JUMPDEST PUSH1 0x6 SLOAD ISZERO PUSH2 0x2A16 JUMPI JUMPDEST ISZERO PUSH2 0x29D4 JUMPI SWAP1 JUMPDEST DUP2 ISZERO PUSH2 0x25B3 DUP2 ISZERO PUSH2 0x2506 JUMP JUMPDEST SWAP2 SWAP1 DUP1 DUP2 PUSH1 0x6 SLOAD JUMPDEST DUP1 DUP3 LT PUSH2 0x29FD JUMPI POP POP DUP4 PUSH2 0x29F7 SWAP3 SWAP4 SWAP5 DUP3 GT PUSH2 0x2740 JUMPI PUSH2 0x1F83 JUMP JUMPDEST SWAP1 PUSH2 0x29C8 JUMP JUMPDEST SWAP1 SWAP2 PUSH2 0x2A0E PUSH1 0x1 SWAP2 PUSH2 0x2759 DUP6 PUSH2 0x20B1 JUMP JUMPDEST SWAP3 ADD SWAP1 PUSH2 0x29DC JUMP JUMPDEST PUSH2 0x2A1E PUSH2 0x2465 JUMP JUMPDEST PUSH2 0x29C1 JUMP JUMPDEST POP PUSH2 0x2A2C PUSH2 0x22B5 JUMP JUMPDEST PUSH1 0x8 DUP2 LT ISZERO PUSH2 0x14AE JUMPI PUSH1 0x7 EQ PUSH2 0x29A6 JUMP JUMPDEST PUSH2 0x2A45 PUSH2 0x2465 JUMP JUMPDEST PUSH2 0x298B JUMP JUMPDEST PUSH1 0x40 MLOAD PUSH3 0x461BCD PUSH1 0xE5 SHL DUP2 MSTORE PUSH1 0x20 PUSH1 0x4 DUP3 ADD MSTORE PUSH1 0x14 PUSH1 0x24 DUP3 ADD MSTORE PUSH20 0x139BC81C1B185E595C9CC81D1BC81C99599D5B99 PUSH1 0x62 SHL PUSH1 0x44 DUP3 ADD MSTORE PUSH1 0x64 SWAP1 REVERT JUMPDEST PUSH1 0x40 MLOAD PUSH3 0x461BCD PUSH1 0xE5 SHL DUP2 MSTORE PUSH1 0x20 PUSH1 0x4 DUP3 ADD MSTORE PUSH1 0x1C PUSH1 0x24 DUP3 ADD MSTORE PUSH32 0x4D697373696F6E206E6F7420696E204661696C65642073746174757300000000 PUSH1 0x44 DUP3 ADD MSTORE PUSH1 0x64 SWAP1 REVERT INVALID BALANCE EOFCREATE 0xC2 BYTE PUSH21 0x5E3968A04E9570E4425BC18FA8019C68028196B546 DATALOADN 0x669C KECCAK256 0xC PUSH9 0x39BA628632D48C45C7 CREATE2 PUSH3 0xC07DB2 EXP PREVRANDAO 0xCF PUSH9 0x423691D5D79B20F87B 0xA8 COINBASE CODESIZE 0xAE 0xDF LOG2 PUSH5 0x6970667358 0x22 SLT KECCAK256 EXTCODEHASH DELEGATECALL PUSH4 0xE1A0CAE2 CALLDATALOAD SWAPN 0x2B CALLDATACOPY 0xDF 0x23 PUSH0 0x1E 0xE8 SWAP11 0x21 DUP3 0xAE PUSH5 0xF798D27578 RETURN INVALID SLOAD 0xBA PUSH21 0xE564736F6C634300081E0033000000000000000000 "},"methodIdentifiers":{"OWNERSHIP_PROPOSAL_WINDOW()":"d3050eba","addAuthorizedAddress(address)":"42f1181e","authorized(address)":"b9181611","canEnroll(address)":"9804a586","confirmOwnershipTransfer(address)":"3c213957","createMission(uint8,uint256,uint256,uint256,uint8,uint8,uint256,uint256,uint8)":"9b159539","getAllMissions()":"6d8a1390","getFundsByType(uint8)":"2e33b07f","getLatestMissions(uint256)":"7e9eae50","getMissionData(address)":"20c5718f","getMissionsByStatus(uint8)":"1e59d584","getMissionsEnded()":"b6202913","getMissionsNotEnded()":"6805036d","getPlayerLimits(address)":"cbf2080d","isMission(address)":"aa1f0595","missionImplementation()":"bd487725","missionStatus(address)":"0814ab82","missions(uint256)":"2c8fe526","monthlyLimit()":"0a6005da","owner()":"8da5cb5b","ownershipProposals(address)":"fb4cdea7","proposeOwnershipTransfer(address)":"21040fc3","recordEnrollment(address)":"c17f9e59","registerMissionFunds(uint256,uint8)":"9c3d3a20","removeAuthorizedAddress(address)":"70712939","renounceOwnership()":"715018a6","reservedFunds(uint8)":"c416ad2a","reservedFundsBreakdown()":"df4db463","secondsTillMonthlySlot(address)":"37012762","secondsTillWeeklySlot(address)":"eff0ab92","setEnrollmentLimits(uint8,uint8)":"d41eca64","setMissionStatus(uint8)":"d8d6e8ff","transferOwnership(address)":"f2fde38b","weeklyLimit()":"861a68d6","withdrawFunds(uint256)":"155dd5ee"}}}}}