{"contracts/MissionFactory.sol":{"MissionFactory":{"abi":[{"inputs":[{"internalType":"address","name":"_impl","type":"address"}],"stateMutability":"nonpayable","type":"constructor"},{"inputs":[],"name":"FailedDeployment","type":"error"},{"inputs":[{"internalType":"uint256","name":"balance","type":"uint256"},{"internalType":"uint256","name":"needed","type":"uint256"}],"name":"InsufficientBalance","type":"error"},{"inputs":[{"internalType":"address","name":"owner","type":"address"}],"name":"OwnableInvalidOwner","type":"error"},{"inputs":[{"internalType":"address","name":"account","type":"address"}],"name":"OwnableUnauthorizedAccount","type":"error"},{"inputs":[],"name":"ReentrancyGuardReentrantCall","type":"error"},{"anonymous":false,"inputs":[{"indexed":true,"internalType":"address","name":"addr","type":"address"}],"name":"AuthorizedAddressAdded","type":"event"},{"anonymous":false,"inputs":[{"indexed":true,"internalType":"address","name":"addr","type":"address"}],"name":"AuthorizedAddressRemoved","type":"event"},{"anonymous":false,"inputs":[{"indexed":false,"internalType":"uint8","name":"newWeekly","type":"uint8"},{"indexed":false,"internalType":"uint8","name":"newMonthly","type":"uint8"}],"name":"EnrollmentLimitUpdated","type":"event"},{"anonymous":false,"inputs":[{"indexed":true,"internalType":"address","name":"user","type":"address"},{"indexed":false,"internalType":"uint256","name":"timestamp","type":"uint256"}],"name":"EnrollmentRecorded","type":"event"},{"anonymous":false,"inputs":[{"indexed":true,"internalType":"address","name":"sender","type":"address"},{"indexed":false,"internalType":"uint256","name":"amount","type":"uint256"}],"name":"FundsReceived","type":"event"},{"anonymous":false,"inputs":[{"indexed":true,"internalType":"address","name":"to","type":"address"},{"indexed":false,"internalType":"uint256","name":"amount","type":"uint256"}],"name":"FundsWithdrawn","type":"event"},{"anonymous":false,"inputs":[{"indexed":true,"internalType":"address","name":"missionAddress","type":"address"},{"indexed":true,"internalType":"enum MissionType","name":"missionType","type":"uint8"}],"name":"MissionCreated","type":"event"},{"anonymous":false,"inputs":[{"indexed":false,"internalType":"uint256","name":"amount","type":"uint256"},{"indexed":true,"internalType":"enum MissionType","name":"missionType","type":"uint8"},{"indexed":true,"internalType":"address","name":"sender","type":"address"}],"name":"MissionFundsRegistered","type":"event"},{"anonymous":false,"inputs":[{"indexed":true,"internalType":"address","name":"confirmer","type":"address"},{"indexed":false,"internalType":"address","name":"newOwner","type":"address"},{"indexed":false,"internalType":"uint256","name":"timestamp","type":"uint256"}],"name":"OwnershipTransferConfirmed","type":"event"},{"anonymous":false,"inputs":[{"indexed":true,"internalType":"address","name":"proposer","type":"address"},{"indexed":false,"internalType":"address","name":"newOwner","type":"address"},{"indexed":false,"internalType":"uint256","name":"timestamp","type":"uint256"}],"name":"OwnershipTransferProposed","type":"event"},{"anonymous":false,"inputs":[{"indexed":true,"internalType":"address","name":"previousOwner","type":"address"},{"indexed":true,"internalType":"address","name":"newOwner","type":"address"}],"name":"OwnershipTransferred","type":"event"},{"stateMutability":"payable","type":"fallback"},{"inputs":[],"name":"OWNERSHIP_PROPOSAL_WINDOW","outputs":[{"internalType":"uint256","name":"","type":"uint256"}],"stateMutability":"view","type":"function"},{"inputs":[{"internalType":"address","name":"account","type":"address"}],"name":"addAuthorizedAddress","outputs":[],"stateMutability":"nonpayable","type":"function"},{"inputs":[{"internalType":"address","name":"","type":"address"}],"name":"authorized","outputs":[{"internalType":"bool","name":"","type":"bool"}],"stateMutability":"view","type":"function"},{"inputs":[{"internalType":"address","name":"user","type":"address"}],"name":"canEnroll","outputs":[{"internalType":"bool","name":"ok","type":"bool"},{"internalType":"enum Limit","name":"breach","type":"uint8"}],"stateMutability":"view","type":"function"},{"inputs":[],"name":"confirmOwnershipTransfer","outputs":[],"stateMutability":"nonpayable","type":"function"},{"inputs":[{"internalType":"enum MissionType","name":"_missionType","type":"uint8"},{"internalType":"uint256","name":"_enrollmentStart","type":"uint256"},{"internalType":"uint256","name":"_enrollmentEnd","type":"uint256"},{"internalType":"uint256","name":"_enrollmentAmount","type":"uint256"},{"internalType":"uint8","name":"_enrollmentMinPlayers","type":"uint8"},{"internalType":"uint8","name":"_enrollmentMaxPlayers","type":"uint8"},{"internalType":"uint256","name":"_missionStart","type":"uint256"},{"internalType":"uint256","name":"_missionEnd","type":"uint256"},{"internalType":"uint8","name":"_missionRounds","type":"uint8"},{"internalType":"string","name":"_missionName","type":"string"}],"name":"createMission","outputs":[{"internalType":"address","name":"","type":"address"},{"internalType":"string","name":"","type":"string"}],"stateMutability":"payable","type":"function"},{"inputs":[],"name":"getAllMissions","outputs":[{"internalType":"address[]","name":"","type":"address[]"},{"internalType":"enum Status[]","name":"","type":"uint8[]"},{"internalType":"string[]","name":"","type":"string[]"}],"stateMutability":"view","type":"function"},{"inputs":[],"name":"getFactorySummary","outputs":[{"internalType":"address","name":"ownerAddress","type":"address"},{"internalType":"address","name":"factoryAddress","type":"address"},{"internalType":"address","name":"implementation","type":"address"},{"internalType":"uint256","name":"totalMissions","type":"uint256"},{"internalType":"uint256","name":"weekly","type":"uint256"},{"internalType":"uint256","name":"monthly","type":"uint256"},{"internalType":"uint256","name":"missionFunds","type":"uint256"},{"internalType":"uint256","name":"ownerFunds","type":"uint256"},{"internalType":"uint256","name":"successes","type":"uint256"},{"internalType":"uint256","name":"failures","type":"uint256"},{"internalType":"uint256[]","name":"fundsPerTypeArray","type":"uint256[]"}],"stateMutability":"view","type":"function"},{"inputs":[{"internalType":"enum MissionType","name":"_type","type":"uint8"}],"name":"getFundsByType","outputs":[{"internalType":"uint256","name":"","type":"uint256"}],"stateMutability":"view","type":"function"},{"inputs":[{"internalType":"uint256","name":"n","type":"uint256"}],"name":"getLatestMissions","outputs":[{"internalType":"address[]","name":"","type":"address[]"},{"internalType":"uint8[]","name":"","type":"uint8[]"},{"internalType":"string[]","name":"","type":"string[]"}],"stateMutability":"view","type":"function"},{"inputs":[{"internalType":"address","name":"missionAddress","type":"address"}],"name":"getMissionData","outputs":[{"components":[{"internalType":"address[]","name":"players","type":"address[]"},{"internalType":"enum MissionType","name":"missionType","type":"uint8"},{"internalType":"uint256","name":"enrollmentStart","type":"uint256"},{"internalType":"uint256","name":"enrollmentEnd","type":"uint256"},{"internalType":"uint256","name":"enrollmentAmount","type":"uint256"},{"internalType":"uint8","name":"enrollmentMinPlayers","type":"uint8"},{"internalType":"uint8","name":"enrollmentMaxPlayers","type":"uint8"},{"internalType":"uint256","name":"missionStart","type":"uint256"},{"internalType":"uint256","name":"missionEnd","type":"uint256"},{"internalType":"uint8","name":"missionRounds","type":"uint8"},{"internalType":"uint8","name":"roundCount","type":"uint8"},{"internalType":"uint256","name":"croStart","type":"uint256"},{"internalType":"uint256","name":"croCurrent","type":"uint256"},{"components":[{"internalType":"address","name":"player","type":"address"},{"internalType":"uint256","name":"amountWon","type":"uint256"}],"internalType":"struct Mission.PlayersWon[]","name":"playersWon","type":"tuple[]"},{"internalType":"uint256","name":"pauseTimestamp","type":"uint256"},{"internalType":"address[]","name":"refundedPlayers","type":"address[]"},{"internalType":"string","name":"name","type":"string"}],"internalType":"struct Mission.MissionData","name":"","type":"tuple"}],"stateMutability":"view","type":"function"},{"inputs":[{"internalType":"enum Status","name":"s","type":"uint8"}],"name":"getMissionsByStatus","outputs":[{"internalType":"address[]","name":"","type":"address[]"},{"internalType":"uint8[]","name":"","type":"uint8[]"},{"internalType":"string[]","name":"","type":"string[]"}],"stateMutability":"view","type":"function"},{"inputs":[],"name":"getMissionsEnded","outputs":[{"internalType":"address[]","name":"","type":"address[]"},{"internalType":"uint8[]","name":"","type":"uint8[]"},{"internalType":"string[]","name":"","type":"string[]"}],"stateMutability":"view","type":"function"},{"inputs":[],"name":"getMissionsNotEnded","outputs":[{"internalType":"address[]","name":"","type":"address[]"},{"internalType":"uint8[]","name":"","type":"uint8[]"},{"internalType":"string[]","name":"","type":"string[]"}],"stateMutability":"view","type":"function"},{"inputs":[],"name":"getOwnershipProposal","outputs":[{"internalType":"address","name":"newOwner","type":"address"},{"internalType":"address","name":"proposer","type":"address"},{"internalType":"uint256","name":"timestamp","type":"uint256"},{"internalType":"uint256","name":"timeLeft","type":"uint256"}],"stateMutability":"view","type":"function"},{"inputs":[{"internalType":"address","name":"player","type":"address"}],"name":"getPlayerLimits","outputs":[{"internalType":"uint8","name":"weekUsed","type":"uint8"},{"internalType":"uint8","name":"weekMax","type":"uint8"},{"internalType":"uint8","name":"monthUsed","type":"uint8"},{"internalType":"uint8","name":"monthMax","type":"uint8"},{"internalType":"uint256","name":"secToWeek","type":"uint256"},{"internalType":"uint256","name":"secToMonth","type":"uint256"}],"stateMutability":"view","type":"function"},{"inputs":[{"internalType":"address","name":"player","type":"address"}],"name":"getPlayerParticipation","outputs":[{"internalType":"address[]","name":"","type":"address[]"},{"internalType":"enum Status[]","name":"","type":"uint8[]"},{"internalType":"string[]","name":"","type":"string[]"}],"stateMutability":"view","type":"function"},{"inputs":[],"name":"getTotalMissions","outputs":[{"internalType":"uint256","name":"","type":"uint256"}],"stateMutability":"view","type":"function"},{"inputs":[{"internalType":"address","name":"","type":"address"}],"name":"isMission","outputs":[{"internalType":"bool","name":"","type":"bool"}],"stateMutability":"view","type":"function"},{"inputs":[],"name":"missionImplementation","outputs":[{"internalType":"address","name":"","type":"address"}],"stateMutability":"view","type":"function"},{"inputs":[{"internalType":"address","name":"","type":"address"}],"name":"missionNames","outputs":[{"internalType":"string","name":"","type":"string"}],"stateMutability":"view","type":"function"},{"inputs":[{"internalType":"address","name":"","type":"address"}],"name":"missionStatus","outputs":[{"internalType":"enum Status","name":"","type":"uint8"}],"stateMutability":"view","type":"function"},{"inputs":[{"internalType":"enum MissionType","name":"","type":"uint8"}],"name":"missionTypeCounts","outputs":[{"internalType":"uint256","name":"","type":"uint256"}],"stateMutability":"view","type":"function"},{"inputs":[{"internalType":"uint256","name":"","type":"uint256"}],"name":"missions","outputs":[{"internalType":"address","name":"","type":"address"}],"stateMutability":"view","type":"function"},{"inputs":[],"name":"monthlyLimit","outputs":[{"internalType":"uint8","name":"","type":"uint8"}],"stateMutability":"view","type":"function"},{"inputs":[],"name":"owner","outputs":[{"internalType":"address","name":"","type":"address"}],"stateMutability":"view","type":"function"},{"inputs":[],"name":"proposalProposer","outputs":[{"internalType":"address","name":"","type":"address"}],"stateMutability":"view","type":"function"},{"inputs":[],"name":"proposalTimestamp","outputs":[{"internalType":"uint256","name":"","type":"uint256"}],"stateMutability":"view","type":"function"},{"inputs":[{"internalType":"address","name":"newOwner","type":"address"}],"name":"proposeOwnershipTransfer","outputs":[],"stateMutability":"nonpayable","type":"function"},{"inputs":[],"name":"proposedNewOwner","outputs":[{"internalType":"address","name":"","type":"address"}],"stateMutability":"view","type":"function"},{"inputs":[{"internalType":"address","name":"user","type":"address"}],"name":"recordEnrollment","outputs":[],"stateMutability":"nonpayable","type":"function"},{"inputs":[{"internalType":"enum MissionType","name":"missionType","type":"uint8"}],"name":"registerMissionFunds","outputs":[],"stateMutability":"payable","type":"function"},{"inputs":[{"internalType":"address","name":"account","type":"address"}],"name":"removeAuthorizedAddress","outputs":[],"stateMutability":"nonpayable","type":"function"},{"inputs":[],"name":"renounceOwnership","outputs":[],"stateMutability":"nonpayable","type":"function"},{"inputs":[{"internalType":"enum MissionType","name":"","type":"uint8"}],"name":"reservedFunds","outputs":[{"internalType":"uint256","name":"","type":"uint256"}],"stateMutability":"view","type":"function"},{"inputs":[],"name":"reservedFundsBreakdown","outputs":[{"internalType":"uint256[7]","name":"","type":"uint256[7]"}],"stateMutability":"view","type":"function"},{"inputs":[{"internalType":"address","name":"user","type":"address"}],"name":"secondsTillMonthlySlot","outputs":[{"internalType":"uint256","name":"","type":"uint256"}],"stateMutability":"view","type":"function"},{"inputs":[{"internalType":"address","name":"user","type":"address"}],"name":"secondsTillWeeklySlot","outputs":[{"internalType":"uint256","name":"","type":"uint256"}],"stateMutability":"view","type":"function"},{"inputs":[{"internalType":"uint8","name":"_weekly","type":"uint8"},{"internalType":"uint8","name":"_monthly","type":"uint8"}],"name":"setEnrollmentLimits","outputs":[],"stateMutability":"nonpayable","type":"function"},{"inputs":[{"internalType":"enum Status","name":"newStatus","type":"uint8"}],"name":"setMissionStatus","outputs":[],"stateMutability":"nonpayable","type":"function"},{"inputs":[],"name":"totalMissionFailures","outputs":[{"internalType":"uint256","name":"","type":"uint256"}],"stateMutability":"view","type":"function"},{"inputs":[],"name":"totalMissionFunds","outputs":[{"internalType":"uint256","name":"","type":"uint256"}],"stateMutability":"view","type":"function"},{"inputs":[],"name":"totalMissionSuccesses","outputs":[{"internalType":"uint256","name":"","type":"uint256"}],"stateMutability":"view","type":"function"},{"inputs":[],"name":"totalOwnerEarnedFunds","outputs":[{"internalType":"uint256","name":"","type":"uint256"}],"stateMutability":"view","type":"function"},{"inputs":[{"internalType":"address","name":"newOwner","type":"address"}],"name":"transferOwnership","outputs":[],"stateMutability":"nonpayable","type":"function"},{"inputs":[],"name":"weeklyLimit","outputs":[{"internalType":"uint8","name":"","type":"uint8"}],"stateMutability":"view","type":"function"},{"inputs":[{"internalType":"uint256","name":"amount","type":"uint256"}],"name":"withdrawFunds","outputs":[],"stateMutability":"nonpayable","type":"function"},{"stateMutability":"payable","type":"receive"}],"evm":{"bytecode":{"linkReferences":{},"object":"60a03461012557601f613c0f38819003918201601f19168301916001600160401b0383118484101761012a5780849260209460405283398101031261012557516001600160a01b03811680820361012557331561010f5760008054336001600160a01b0319821681178355604051939290916001600160a01b0316907f8be0079c531659141344cd1fd0a4f28419497f9722a3daafe3b4186f6b6457e09080a360018055610a0461ffff196003541617600355156100e15750608052604051613ace9081610141823960805181818161045f01528181610aea01526112530152f35b62461bcd60e51b8152602060048201526009602482015268696d706c207a65726f60b81b6044820152606490fd5b631e4fbdf760e01b600052600060045260246000fd5b600080fd5b634e487b7160e01b600052604160045260246000fdfe6080806040526004361015610011575b005b600090813560e01c90816304a6175214612b24575080630814ab8214612add5780630a6005da14612ab95780630fc8c4ed14612a90578063155dd5ee146129285780631e59d5841461279657806320c5718f1461250e57806321040fc3146123fe5780632c8fe526146123ba5780632d771f30146123915780632e33b07f146108765780633589cf7214612373578063370127621461229457806342f1181e146121a3578063503c0b8814611f315780635c5bb6f214611f135780636367972314611ef55780636805036d14611d955780636d8a139014611d6a5780637071293914611c7f578063715018a614611c255780637200b82914611abd57806372eecd211461115b5780637e9eae501461103d57806383fbea511461101f578063861a68d614610ffe5780638c09b7c314610fbe5780638da5cb5b14610f975780639804a58614610f4d578063a9bea78914610dd9578063aa1f059514610d97578063b620291314610bb1578063b6de7b4314610b5b578063b918161114610b19578063bd48772514610ad4578063c17f9e59146108a0578063c416ad2a14610876578063c892fde314610858578063cbf2080d146106c1578063d3050eba146106a3578063d41eca64146105f5578063d8d6e8ff1461056e578063df4db463146104e7578063e5047770146103ba578063eff0ab92146102a9578063f08e231e146102765763f2fde38b0361000f5734610273576020366003190112610273576004356001600160a01b0381168082036102715761024c6138b7565b1561025d5761025a90613902565b80f35b631e4fbdf760e01b82526004829052602482fd5b825b80fd5b5034610273576020366003190112610273576004359060078210156102735760206102a083612eb2565b54604051908152f35b5034610273576020366003190112610273576004356001600160a01b038116908190036103b6578152600f6020526040812080548291825b82811061033157505050816102fd57602091505b604051908152f35b62093a80820180921161031d575061031860209142906132e4565b6102f5565b634e487b7160e01b81526011600452602490fd5b61033b8183612ce7565b90549060031b1c62093a8081018091116103a257421061035e575b6001016102e1565b84158015610389575b15610356579350600161037a8583612ce7565b90549060031b1c949050610356565b50846103958284612ce7565b90549060031b1c10610367565b634e487b7160e01b85526011600452602485fd5b5080fd5b5034610273578060031936011261027357610100906040516103dc8382612dd4565b600781526020810191601f198401368437805b60078110156104165760019061040481612e99565b5461040f8286612f9e565b52016103ef565b5091909160018060a01b0381541660025493600354956004549060055490600654916007549360ff6040519b8c9b6101608d01998d528c6020309101528c604060018060a01b037f00000000000000000000000000000000000000000000000000000000000000001691015260608d015281811660808d015260081c1660a08b015260c08a015260e089015287015261012086015261016061014086015251809152610180840192915b8181106104ce575050500390f35b82518452859450602093840193909201916001016104c0565b503461027357806003193601126102735760e090816040516105098282612dd4565b3690376040519061051a8383612dd4565b82368337805b60078110156105435760019061053581612e99565b548160051b85015201610520565b506040519190825b6007821061055857505050f35b602080600192855181520193019101909161054b565b50346102735760203660031901126102735760043560088110156103b657338252600c6020526105a460ff60408420541661384c565b338252600d6020526040822060ff1981541660ff8316179055600681146000146105da57506105d4600654612ee6565b60065580f35b6007146105e45780f35b6105ef600754612ee6565b60075580f35b50346102735760403660031901126102735760043560ff81168091036103b65760243560ff81169182820361069f577f321994b8855ae38e4fd6162f7a0bd7cde88be83aa3acc96e03c17b7f733b43e19260409260018060a01b038654163314801561068a575b6106659061327c565b8261ff006003549260081b169161ffff1916171760035582519182526020820152a180f35b50338652600b6020528386205460ff1661065c565b8380fd5b50346102735780600319360112610273576020604051620151808152f35b5034610273576020366003190112610273576004356001600160a01b038116908190036103b6578152600f602052604081208190829083809181908054915b8281106107ad5750505060035494801560001461077b575080915b80610755575060c09460ff8092945b8160405197168752818316602088015216604086015260081c166060840152608083015260a0820152f35b9062278d00820180921161031d575060c09460ff610775819342906132e4565b9461072a565b62093a808101809111610799576107939042906132e4565b9161071b565b634e487b7160e01b82526011600452602482fd5b6107b78183612ce7565b90549060031b1c62278d0081018082116108335742106107db575b50600101610700565b956107e590612ee6565b958515801561084f575b610847575b62093a808101808211610833574210156107d2579661081290612ee6565b968815801561082a575b156107d257975060016107d2565b5088811061081c565b634e487b7160e01b86526011600452602486fd5b9450846107f4565b508581106107ef565b50346102735780600319360112610273576020600654604051908152f35b5034610273576020366003190112610273576004359060078210156102735760206102a083612e99565b5034610273576020366003190112610273576004356001600160a01b038116908190036103b657338252600d60205260ff6040832054166008811015610ac057600103610a8a5762278cff19420190428211610a7657808352600f60205260408320805492845b84811080610a5d575b156109235761091e90612ee6565b610907565b83838792806109a9575b50805490600160401b821015610995578161095091600161096894018155612ce7565b429082549060031b91821b91600019901b1916179055565b7f498f5e6dcf570483a1848853791046a7f10012193176d71f959f46eb7713d7446020604051428152a280f35b634e487b7160e01b84526041600452602484fd5b92805b6109b78584546132e4565b811015610a075780610a016109d76109d1886001956132d7565b86612ce7565b90549060031b1c6109e88387612ce7565b90919082549060031b91821b91600019901b1916179055565b016109ac565b5092835b818110610a18575061092d565b82548015610a49576001919060001901610a328186612ce7565b8154906000199060031b1b19169055845501610a0b565b634e487b7160e01b86526031600452602486fd5b5081610a698285612ce7565b90549060031b1c10610910565b634e487b7160e01b83526011600452602483fd5b60405162461bcd60e51b815260206004820152600e60248201526d24b73b30b634b21031b0b63632b960911b6044820152606490fd5b634e487b7160e01b83526021600452602483fd5b50346102735780600319360112610273576040517f00000000000000000000000000000000000000000000000000000000000000006001600160a01b03168152602090f35b5034610273576020366003190112610273576004356001600160a01b038116908190036103b65760408260ff9260209452600b84522054166040519015158152f35b5034610273576020366003190112610273576004356001600160a01b038116908190036103b657604082610b9992610bad9452601060205220612df5565b604051918291602083526020830190612bc3565b0390f35b50346102735780600319360112610273576002548190825b818110610d175750610bda82612f22565b90610bed610be784612f22565b93612f54565b9084805b828210610c0b57505050610bad9060405193849384612c41565b610c1482612cb6565b905460039190911b1c6001600160a01b03168752600d602052604087205460ff16600881101580610d0357600682148015610cf7575b610c5b575b50509060010190610bf1565b610c6484612cb6565b905460039190911b1c6001600160a01b0316610c808489612f9e565b52610ce35781610cdc91610c966001948a612f9e565b52610ca084612cb6565b848060a01b0391549060031b1c1689526010602052610cc160408a20612df5565b610ccb8288612f9e565b52610cd68187612f9e565b50612ee6565b9038610c4f565b634e487b7160e01b88526021600452602488fd5b50508760078214610c4a565b634e487b7160e01b89526021600452602489fd5b610d2081612cb6565b905460039190911b1c6001600160a01b03168452600d602052604084205460ff166008811015610d835760068114908115610d78575b50610d64575b600101610bc9565b91610d70600191612ee6565b929050610d5c565b600791501438610d56565b634e487b7160e01b85526021600452602485fd5b5034610273576020366003190112610273576004356001600160a01b038116908190036103b65760408260ff9260209452600c84522054166040519015158152f35b5060203660031901126102735760043560078110156103b657338252600c602052610e0a60ff60408420541661384c565b610e126138e0565b3415610f0957338252600d60205260ff6040832054166008811015610ac0576006148015610ee7575b15610eab57610e4981612e99565b610e543482546132d7565b9055610e62346004546132d7565b600455610e74600334046005546132d7565b600555604051903482527f606617fd09d9890413e3c46147b844d4562351f86e0f7a5c60849bbf0ef0281160203393a36001805580f35b60405162461bcd60e51b815260206004820152601460248201527321b0b63632b9103737ba10309036b4b9b9b4b7b760611b6044820152606490fd5b50338252600d60205260ff6040832054166008811015610ac057600714610e3b565b606460405162461bcd60e51b815260206004820152602060248201527f416d6f756e74206d7573742062652067726561746572207468616e207a65726f6044820152fd5b5034610273576020366003190112610273576004356001600160a01b03811681036103b657610f7b906136cd565b60405191151582526003811015610ac057604092506020820152f35b5034610273578060031936011261027357546040516001600160a01b039091168152602090f35b50346102735780600319360112610273576080610fd961365c565b604080516001600160a01b039586168152949093166020850152918301526060820152f35b5034610273578060031936011261027357602060ff60035416604051908152f35b50346102735780600319360112610273576020600754604051908152f35b50346102735760203660031901126102735760043590600254808311611153575b61106783612f22565b9161107184612f22565b9361107b81612f54565b926000198101908111835b83811061109d5760405180610bad888b8b84612c41565b816103a2576110b46110af82856132e4565b612cb6565b905460039190911b1c6001600160a01b0316806110d1838a612f9e565b528552600d60205260ff604086205416600881101561113f57906001916110f8828b612f9e565b5261110281612cb6565b838060a01b0391549060031b1c168652601060205261112360408720612df5565b61112d8289612f9e565b526111388188612f9e565b5001611086565b634e487b7160e01b86526021600452602486fd5b91508161105e565b5061014036600319011261027357600760043510156102735760843560ff811681036103b65760a4359160ff8316830361027357610104359160ff831683036103b65761012435926001600160401b0384116102715736602385011215610271578360040135936001600160401b03851161069f57366024868301011161069f5783546001600160a01b031633148015611aa7575b6111f99061327c565b6112016138e0565b600560ff831610611a485760ff821660ff8416106119dd5760ff831660ff8716106119735760443560243510156119225760443560c435106118c45760c43560e43511156118805760643515611827577f0000000000000000000000000000000000000000000000000000000000000000608881901c62ffffff16763d602d80600a3d3981f3363d3d373d3d3d363d7300000017855260781b6e5af43d82803e903d91602b57fd5bf3176020526001600160a01b036037600986f0169485156118185784906112d1600435612eb2565b6112db8154612ee6565b9055801561163e57808060246112f2602094612ecb565b956113006040519788612dd4565b828752018386013783010152945b848452600c60205260408420600160ff19825416179055848452600d6020526040842060ff19815416905584845260106020526040842086516001600160401b03811161162a5761135f8254612d68565b601f81116115e5575b50806020601f8211600114611581578791611576575b508160011b916000199060031b1c19161790555b83546001600160a01b031692853b156115725760ff9291838092604051966317a0f85760e21b885260048801523060248801526113d460448801600435612ca9565b6024356064880152604435608488015260643560a48801521660c48601521660e484015260c43561010484015260e4356101248401521661014482015261018061016482015281818061142b610184820188612bc3565b038134875af18015611539578290611562575b5050600254600160401b81101561154e5780600161145f9201600255612cb6565b81546001600160a01b0360039290921b91821b19169084901b179055600435827f0ac1ac89285bf936f515aafcf6808b3e062e77fd57f52c8892d20fc9409b8b538380a36114ae600435612e99565b5460021c80151580611544575b6114e2575b505060018055610bad6040519283928352604060208401526040830190612bc3565b6114ed600435612e99565b6114f88282546132e4565b9055823b156103b657816004916040519283809263eb2bab7760e01b8252875af1801561153957156114c05761152f828092612dd4565b61027357806114c0565b6040513d84823e3d90fd5b50804710156114bb565b634e487b7160e01b82526041600452602482fd5b61156b91612dd4565b388161143e565b8480fd5b90508801513861137e565b915082875281872087925b8a601f19841685106115ce57506001935082601f198116106115b5575b5050811b019055611392565b8a015160001960f88460031b161c1916905538806115a9565b81015182556020938401936001909201910161158c565b82875260208720601f830160051c81019160208410611620575b601f0160051c01905b8181106116155750611368565b878155600101611608565b90915081906115ff565b634e487b7160e01b86526041600452602486fd5b50505061164c600435613949565b611657600435612eb2565b54848172184f03e93ff9f4daa797ed6e38ed64bf6a1f0160401b8110156117f5575b806d04ee2d6d415b85acef8100000000600a9210156117da575b662386f26fc100008110156117c6575b6305f5e1008110156117b5575b6127108110156117a6575b6064811015611798575b1015611790575b6001810191600a60216116f76116e186612ecb565b956116ef6040519788612dd4565b808752612ecb565b602086019490601f19013686378501015b60001901916f181899199a1a9b1b9c1cb0b131b232b360811b8282061a83530490811561173757600a90611708565b505061177992602060039261178a94604051968461175e899651809287808a019101612ba0565b8501916201016960ed1b858401525180936023840190612ba0565b01010301601f198101835282612dd4565b9461130e565b6001016116cc565b6064600291049201916116c5565b612710600491049201916116bb565b6305f5e100600891049201916116b0565b662386f26fc10000601091049201916116a3565b6d04ee2d6d415b85acef810000000060209104920191611693565b506040905072184f03e93ff9f4daa797ed6e38ed64bf6a1f0160401b8204611679565b63b06ebf3d60e01b8552600485fd5b60405162461bcd60e51b815260206004820152602b60248201527f456e726f6c6c6d656e7420616d6f756e74206d7573742062652067726561746560448201526a72207468616e207a65726f60a81b6064820152608490fd5b606460405162461bcd60e51b815260206004820152602060248201527f4d697373696f6e207374617274206d757374206265206265666f726520656e646044820152fd5b60405162461bcd60e51b815260206004820152603060248201527f4d697373696f6e207374617274206d757374206265206f6e206f72206166746560448201526f1c88195b9c9bdb1b1b595b9d08195b9960821b6064820152608490fd5b60405162461bcd60e51b815260206004820152602360248201527f456e726f6c6c6d656e74207374617274206d757374206265206265666f726520604482015262195b9960ea1b6064820152608490fd5b608460405162461bcd60e51b815260206004820152604060248201527f4d6178696d756d20706c6179657273206d75737420626520677265617465722060448201527f7468616e206f7220657175616c20746f206d696e696d756d20706c61796572736064820152fd5b60405162461bcd60e51b815260206004820152603f60248201527f4d696e696d756d20706c6179657273206d75737420626520677265617465722060448201527f7468616e206f7220657175616c20746f206d697373696f6e20726f756e6473006064820152608490fd5b60405162461bcd60e51b815260206004820152603160248201527f4d697373696f6e20726f756e6473206d7573742062652067726561746572207460448201527068616e206f7220657175616c20746f203560781b6064820152608490fd5b50338452600b602052604084205460ff166111f0565b503461027357806003193601126102735780546001600160a01b031633148015611c0f575b611aeb9061327c565b600a546001600160a01b03163314611bcb57600854620151808101809111610799574211611b9357600954611b28906001600160a01b0316613902565b600954604080516001600160a01b03909216825242602083015233917fdd72dd33198968a9cdc9b1e5cbff344fb8d04d99f8c15c0a02416b04e857b4679190a26001600160601b0360a01b600954166009556001600160601b0360a01b600a5416600a558060085580f35b60405162461bcd60e51b815260206004820152601060248201526f141c9bdc1bdcd85b08195e1c1a5c995960821b6044820152606490fd5b606460405162461bcd60e51b815260206004820152602060248201527f43616e6e6f7420636f6e6669726d20796f7572206f776e2070726f706f73616c6044820152fd5b50338152600b602052604081205460ff16611ae2565b5034610273578060031936011261027357611c3e6138b7565b80546001600160a01b03198116825581906001600160a01b03167f8be0079c531659141344cd1fd0a4f28419497f9722a3daafe3b4186f6b6457e08280a380f35b5034610273576020366003190112610273576004356001600160a01b038116908190036103b65781546001600160a01b031633148015611d54575b611cc39061327c565b611cce8115156132f1565b808252600b60205260ff60408320541615611d1e57808252600b60205260408220805460ff191690557f66d5f06f711af3c9feba3203fdb00b51345d514c68585d9d319c5ff5e6f775928280a280f35b60405162461bcd60e51b815260206004820152600e60248201526d139bdd08185d5d1a1bdc9a5e995960921b6044820152606490fd5b50338252600b602052604082205460ff16611cba565b5034610273578060031936011261027357610bad611d86613360565b60409391935193849384612cff565b50346102735780600319360112610273576002548190825b818110611e885750611dbe82612f22565b90611dcb610be784612f22565b9084805b828210611de957505050610bad9060405193849384612c41565b611df282612cb6565b905460039190911b1c6001600160a01b03168752600d602052604087205460ff16600881101580610d0357600682141580611e7b575b611e39575b50509060010190611dcf565b611e4284612cb6565b905460039190911b1c6001600160a01b0316611e5e8489612f9e565b52610ce35781611e7491610c966001948a612f9e565b9038611e2d565b5050876007821415611e28565b611e9181612cb6565b905460039190911b1c6001600160a01b03168452600d602052604084205460ff166008811015610d835760068114159081611ee9575b50611ed5575b600101611dad565b91611ee1600191612ee6565b929050611ecd565b60079150141538611ec7565b50346102735780600319360112610273576020600454604051908152f35b50346102735780600319360112610273576020600254604051908152f35b5034610273576020366003190112610273576004356001600160a01b038116908190036103b657600254829080805b6120f55750611f6e84612f22565b92611f81611f7b86612f22565b95612f54565b928092805b611f9a5760405180610bad878a8a84612cff565b6000198101818111610a7657611faf90612cb6565b9054604051629c95e160e41b81526004810186905260039290921b1c6001600160a01b031690602081602481855afa9081156120bc5784916120c7575b50612002575b50611ffc9061332f565b80611f86565b806120108689979497612f9e565b526040516368c6ba2160e01b8152602081600481855afa9081156120bc578491612080575b509161207991612051611ffc9461204c848d612f9e565b613354565b8452601060205261206460408520612df5565b61206e8289612f9e565b52610cd68188612f9e565b9390611ff2565b90506020813d82116120b4575b8161209a60209383612dd4565b8101031261069f5751600881101561069f57612079612035565b3d915061208d565b6040513d86823e3d90fd5b6120e8915060203d81116120ee575b6120e08183612dd4565b81019061333c565b38611fec565b503d6120d6565b600019810181811161218f57602061210e602492612cb6565b9054604051629c95e160e41b8152600481018990529384929091839160031b1c6001600160a01b03165afa9081156120bc578491612171575b5061215c575b6121569061332f565b80611f60565b9361216961215691612ee6565b94905061214d565b612189915060203d81116120ee576120e08183612dd4565b38612147565b634e487b7160e01b84526011600452602484fd5b5034610273576020366003190112610273576004356001600160a01b038116908190036103b65781546001600160a01b03163314801561227e575b6121e79061327c565b6121f28115156132f1565b808252600b60205260ff60408320541661224457808252600b60205260408220805460ff191660011790557f10ac961f00d5e732ba4dcc2c6fb09bebea0eb9edd2a75c8109775ef288382e678280a280f35b60405162461bcd60e51b8152602060048201526012602482015271105b1c9958591e48185d5d1a1bdc9a5e995960721b6044820152606490fd5b50338252600b602052604082205460ff166121de565b5034610273576020366003190112610273576004356001600160a01b038116908190036103b6578152600f6020526040812080548291825b82811061230257505050816122e75760209150604051908152f35b62278d00820180921161031d575061031860209142906132e4565b61230c8183612ce7565b90549060031b1c62278d0081018091116103a257421061232f575b6001016122cc565b8415801561235a575b15612327579350600161234b8583612ce7565b90549060031b1c949050612327565b50846123668284612ce7565b90549060031b1c10612338565b50346102735780600319360112610273576020600554604051908152f35b5034610273578060031936011261027357600a546040516001600160a01b039091168152602090f35b503461027357602036600319011261027357600435906002548210156102735760206123e583612cb6565b905460405160039290921b1c6001600160a01b03168152f35b5034610273576020366003190112610273576004356001600160a01b0381168082036102715782546001600160a01b0316331480156124f8575b6124419061327c565b80156124bf576001600160601b0360a01b6009541617600955336001600160601b0360a01b600a541617600a55426008557fc29bdbd554e41df97e5c40fc273a09677ac133c245f0064bdffef5cc72176e19604051806124b9339442908360209093929193604081019460018060a01b031681520152565b0390a280f35b60405162461bcd60e51b815260206004820152601160248201527024b73b30b634b2103732bb9037bbb732b960791b6044820152606490fd5b50338352600b602052604083205460ff16612438565b5034610273576020366003190112610273576004356001600160a01b038116908190036103b657606061020060405161254681612da2565b82815284602082015284604082015284838201528460808201528460a08201528460c08201528460e08201528461010082015284610120820152846101408201528461016082015284610180820152826101a0820152846101c0820152826101e082015201528015612751578160049160405192838092631f385f7960e21b82525afa90811561153957829161272f575b5090604051918291602083526125fb82516102206020860152610240850190612b63565b9061260e60208401516040860190612ca9565b6040830151606085015260608301516080850152608083015160a085015260ff60a08401511660c085015260ff60c08401511660e085015260e083015161010085015261010083015161012085015260ff6101208401511661014085015260ff610140840151166101608501526101608301516101808501526101808301516101a08501526101a083015191601f19858203016101c0860152602080845192838152019301915b81811061270157505050906102006126ec610bad936101c08401516101e08701526101e0840151601f198783030184880152612b63565b910151838203601f1901610220850152612bc3565b825180516001600160a01b0316855260209081015181860152879650604090940193909201916001016126b5565b61274b91503d8084833e6127438183612dd4565b81019061303e565b386125d7565b60405162461bcd60e51b815260206004820152601760248201527f496e76616c6964206d697373696f6e20616464726573730000000000000000006044820152606490fd5b50346102735760203660031901126102735760043590600882101591826103b657600254928293835b8181106128cd57506127d085612f22565b936127e36127dd87612f22565b96612f54565b938190825b8481106127ff5760405180610bad898c8c84612c41565b61280881612cb6565b905460039190911b1c6001600160a01b03168452600d602052604084205460ff1686610d83576008811015610d83578214612846575b6001016127e8565b91945061285282612cb6565b905460039190911b1c6001600160a01b031661286e8689612f9e565b5260016128c58496612880818c612f9e565b60ff8516905261288f85612cb6565b848060a01b0391549060031b1c16865260106020526128b060408720612df5565b6128ba828b612f9e565b52610cd6818a612f9e565b92905061283e565b6128d681612cb6565b905460039190911b1c6001600160a01b03168552600d602052604085205460ff168361113f57600881101561113f578414612914575b6001016127bf565b94612920600191612ee6565b95905061290c565b5034610273576020366003190112610273576004356129456138b7565b61294d6138e0565b81546001600160a01b031690808215612a535715612a4c575b478111612a10578280808084865af13d15612a0b573d61298581612ecb565b906129936040519283612dd4565b81528460203d92013e5b156129d45760207feaff4b37086828766ad3268786972c0cd24259d4c87a80f9d3963a3c3d999b0d91604051908152a26001805580f35b60405162461bcd60e51b815260206004820152600f60248201526e151c985b9cd9995c8819985a5b1959608a1b6044820152606490fd5b61299d565b60405162461bcd60e51b8152602060048201526014602482015273496e73756666696369656e742062616c616e636560601b6044820152606490fd5b5047612966565b60405162461bcd60e51b815260206004820152601560248201527424b73b30b634b21036b0b730b3b2b91037bbb732b960591b6044820152606490fd5b50346102735780600319360112610273576009546040516001600160a01b039091168152602090f35b5034610273578060031936011261027357602060ff60035460081c16604051908152f35b5034610273576020366003190112610273576004356001600160a01b038116908190036103b65760408260ff9260209452600d8452205416612b226040518092612b40565bf35b9050346103b657816003193601126103b6576020906008548152f35b906008821015612b4d5752565b634e487b7160e01b600052602160045260246000fd5b906020808351928381520192019060005b818110612b815750505090565b82516001600160a01b0316845260209384019390920191600101612b74565b60005b838110612bb35750506000910152565b8181015183820152602001612ba3565b90602091612bdc81518092818552858086019101612ba0565b601f01601f1916010190565b9080602083519182815201916020808360051b8301019401926000915b838310612c1457505050505090565b9091929394602080612c32600193601f198682030187528951612bc3565b97019301930191939290612c05565b939290612c5690606086526060860190612b63565b9380850360208201526020808451968781520193016000955b808710612c8e575050612c8b9394506040818403910152612be8565b90565b909360208060019260ff885116815201950196019590612c6f565b906007821015612b4d5752565b600254811015612cd157600260005260206000200190600090565b634e487b7160e01b600052603260045260246000fd5b8054821015612cd15760005260206000200190600090565b939290612d1490606086526060860190612b63565b9380850360208201526020808451968781520193016000955b808710612d49575050612c8b9394506040818403910152612be8565b909360208082612d5c6001948951612b40565b01950196019590612d2d565b90600182811c92168015612d98575b6020831014612d8257565b634e487b7160e01b600052602260045260246000fd5b91607f1691612d77565b61022081019081106001600160401b03821117612dbe57604052565b634e487b7160e01b600052604160045260246000fd5b90601f801991011681019081106001600160401b03821117612dbe57604052565b9060405191826000825492612e0984612d68565b8084529360018116908115612e775750600114612e30575b50612e2e92500383612dd4565b565b90506000929192526020600020906000915b818310612e5b575050906020612e2e9282010138612e21565b6020919350806001915483858901015201910190918492612e42565b905060209250612e2e94915060ff191682840152151560051b82010138612e21565b6007811015612b4d57600052600e602052604060002090565b6007811015612b4d576000526011602052604060002090565b6001600160401b038111612dbe57601f01601f191660200190565b6000198114612ef55760010190565b634e487b7160e01b600052601160045260246000fd5b6001600160401b038111612dbe5760051b60200190565b90612f2c82612f0b565b612f396040519182612dd4565b8281528092612f4a601f1991612f0b565b0190602036910137565b90612f5e82612f0b565b612f6b6040519182612dd4565b8281528092612f7c601f1991612f0b565b019060005b828110612f8d57505050565b806060602080938501015201612f81565b8051821015612cd15760209160051b010190565b51906001600160a01b0382168203612fc657565b600080fd5b9080601f83011215612fc6578151612fe281612f0b565b92612ff06040519485612dd4565b81845260208085019260051b820101928311612fc657602001905b8282106130185750505090565b6020809161302584612fb2565b81520191019061300b565b519060ff82168203612fc657565b602081830312612fc6578051906001600160401b038211612fc657019061022082820312612fc6576040519161307383612da2565b80516001600160401b038111612fc6578261308f918301612fcb565b835260208101516007811015612fc65760208401526040810151604084015260608101516060840152608081015160808401526130ce60a08201613030565b60a08401526130df60c08201613030565b60c084015260e081015160e08401526101008101516101008401526131076101208201613030565b61012084015261311a6101408201613030565b6101408401526101608101516101608401526101808101516101808401526101a08101516001600160401b038111612fc657810182601f82011215612fc657805161316481612f0b565b916131726040519384612dd4565b81835260208084019260061b82010190858211612fc657602001915b818310613231575050506101a08401526101c08101516101c08401526101e08101516001600160401b038111612fc657826131ca918301612fcb565b6101e0840152610200810151906001600160401b038211612fc6570181601f82011215612fc65780516131fc81612ecb565b9261320a6040519485612dd4565b81845260208284010111612fc6576132289160208085019101612ba0565b61020082015290565b604083870312612fc6576040519060408201908282106001600160401b03831117612dbe57604092602092845261326786612fb2565b8152828601518382015281520192019161318e565b1561328357565b60405162461bcd60e51b815260206004820152602660248201527f4e6f74206f776e6572206f72204d697373696f6e466163746f727920617574686044820152651bdc9a5e995960d21b6064820152608490fd5b91908201809211612ef557565b91908203918211612ef557565b156132f857565b60405162461bcd60e51b815260206004820152600f60248201526e496e76616c6964206164647265737360881b6044820152606490fd5b8015612ef5576000190190565b90816020910312612fc657518015158103612fc65790565b6008821015612b4d5752565b60025480156135f357624f19ff194201428111612ef55762278cff194201428111612ef5576000929182805b613505575b5061339b84612f22565b6133a485612f22565b956133ae86612f54565b946000905b801515806134fc575b156134f15760001901906133cf82612cb6565b60018060a01b0391549060031b1c1680600052600d60205260ff60406000205416604051631f385f7960e21b8152600081600481865afa9081156134e5578c918a916000916134cc575b508960e0820181815110806134a5575b1561349a5750506101000151105b61348b57829161204c856134599381966134536001998d612f9e565b52612f9e565b600052601060205261346e6040600020612df5565b613478828a612f9e565b526134838189612f9e565b5001906133b3565b50949998509295505050505050565b915091505110613437565b5092505091506008831015612b4d578c91898b926006861480613429575060078614613429565b6134df913d8091833e6127438183612dd4565b38613419565b6040513d6000823e3d90fd5b509196955092505050565b508782106133bc565b600094939419019261351684612cb6565b60018060a01b0391549060031b1c1680600052600d6020526004600060ff6040822054169260405192838092631f385f7960e21b82525afa9081156134e557859285916000936135d8575b5060e08301908282511090816135a8575b501561359d5750506101000151105b6135965761358f8491612ee6565b949361338c565b9392613391565b915091505110613581565b92505092506008811015612b4d5785928160068793149081156135cd575b5038613572565b6007915014386135c6565b6135ec91933d8091833e6127438183612dd4565b9138613561565b506020604051916136048284612dd4565b6000835260003681376040519261361b8385612dd4565b6000845260003681376040519260006136348286612dd4565b8452601f19810160005b81811061364d57505050929190565b6060868201840152820161363e565b60085480156136be5762015180810191828211612ef557824210156136a357600954600a546001600160a01b03908116949116919061369c9042906132e4565b9193929190565b600954600a546001600160a01b039182169450169190600090565b50600090600090600090600090565b6001600160a01b03166000908152600f602052604081208054829182918291825b8281106137b5575050506003549160ff8316119060ff82159360081c16119182159282806137ae575b6137a05781613798575b5061378c5781613784575b5061377a5762093a808101809111612ef5576137499042906132e4565b9062278d008101809111612ef5576137629042906132e4565b1115613772576002905b60009190565b60019061376c565b5050600090600290565b90503861372c565b50505050600090600190565b905038613721565b505050505050600190600090565b5080613717565b6137bf8183612ce7565b90549060031b1c62278d008101808211612ef55742106137e3575b506001016136ee565b936137ed90612ee6565b9387158015613843575b61383b575b62093a808101808211612ef5574210156137da579461381a90612ee6565b9486158015613832575b156137da57955060016137da565b50868110613824565b9650866137fc565b508781106137f7565b1561385357565b60405162461bcd60e51b815260206004820152603660248201527f4d697373696f6e466163746f72793a2063616c6c6572206973206e6f742061206044820152751d985b1a59081b5a5cdcda5bdb8818dbdb9d1c9858dd60521b6064820152608490fd5b6000546001600160a01b031633036138cb57565b63118cdaa760e01b6000523360045260246000fd5b6002600154146138f1576002600155565b633ee5aeb560e01b60005260046000fd5b600080546001600160a01b039283166001600160a01b03198216811783559216907f8be0079c531659141344cd1fd0a4f28419497f9722a3daafe3b4186f6b6457e09080a3565b6007811015612b4d5760018114613a7357600060028214613a46575060038114613a20576000600482146139fa5750600581146139d5576006600091146139af5750604051613999604082612dd4565b6006815265437573746f6d60d01b602082015290565b506040516139be604082612dd4565b60078152664d6f6e74686c7960c81b602082015290565b506040516139e4604082612dd4565b60068152655765656b6c7960d01b602082015290565b50506040805190613a0b9082612dd4565b60058152644461696c7960d81b602082015290565b50604051613a2f604082612dd4565b600781526642694461696c7960c81b602082015290565b50506040805190613a579082612dd4565b600c81526b517561727465724461696c7960a01b602082015290565b50604051613a82604082612dd4565b6006815265486f75726c7960d01b60208201529056fea2646970667358221220ffb580fc005c8ea7b3f3148b4f5e4b6b3c1694ce5ea774f49e3d5cdc171a97c564736f6c634300081e0033","opcodes":"PUSH1 0xA0 CALLVALUE PUSH2 0x125 JUMPI PUSH1 0x1F PUSH2 0x3C0F CODESIZE DUP2 SWAP1 SUB SWAP2 DUP3 ADD PUSH1 0x1F NOT AND DUP4 ADD SWAP2 PUSH1 0x1 PUSH1 0x1 PUSH1 0x40 SHL SUB DUP4 GT DUP5 DUP5 LT OR PUSH2 0x12A JUMPI DUP1 DUP5 SWAP3 PUSH1 0x20 SWAP5 PUSH1 0x40 MSTORE DUP4 CODECOPY DUP2 ADD SUB SLT PUSH2 0x125 JUMPI MLOAD PUSH1 0x1 PUSH1 0x1 PUSH1 0xA0 SHL SUB DUP2 AND DUP1 DUP3 SUB PUSH2 0x125 JUMPI CALLER ISZERO PUSH2 0x10F JUMPI PUSH1 0x0 DUP1 SLOAD CALLER PUSH1 0x1 PUSH1 0x1 PUSH1 0xA0 SHL SUB NOT DUP3 AND DUP2 OR DUP4 SSTORE PUSH1 0x40 MLOAD SWAP4 SWAP3 SWAP1 SWAP2 PUSH1 0x1 PUSH1 0x1 PUSH1 0xA0 SHL SUB AND SWAP1 PUSH32 0x8BE0079C531659141344CD1FD0A4F28419497F9722A3DAAFE3B4186F6B6457E0 SWAP1 DUP1 LOG3 PUSH1 0x1 DUP1 SSTORE PUSH2 0xA04 PUSH2 0xFFFF NOT PUSH1 0x3 SLOAD AND OR PUSH1 0x3 SSTORE ISZERO PUSH2 0xE1 JUMPI POP PUSH1 0x80 MSTORE PUSH1 0x40 MLOAD PUSH2 0x3ACE SWAP1 DUP2 PUSH2 0x141 DUP3 CODECOPY PUSH1 0x80 MLOAD DUP2 DUP2 DUP2 PUSH2 0x45F ADD MSTORE DUP2 DUP2 PUSH2 0xAEA ADD MSTORE PUSH2 0x1253 ADD MSTORE RETURN JUMPDEST PUSH3 0x461BCD PUSH1 0xE5 SHL DUP2 MSTORE PUSH1 0x20 PUSH1 0x4 DUP3 ADD MSTORE PUSH1 0x9 PUSH1 0x24 DUP3 ADD MSTORE PUSH9 0x696D706C207A65726F PUSH1 0xB8 SHL PUSH1 0x44 DUP3 ADD MSTORE PUSH1 0x64 SWAP1 REVERT JUMPDEST PUSH4 0x1E4FBDF7 PUSH1 0xE0 SHL PUSH1 0x0 MSTORE PUSH1 0x0 PUSH1 0x4 MSTORE PUSH1 0x24 PUSH1 0x0 REVERT JUMPDEST PUSH1 0x0 DUP1 REVERT JUMPDEST PUSH4 0x4E487B71 PUSH1 0xE0 SHL PUSH1 0x0 MSTORE PUSH1 0x41 PUSH1 0x4 MSTORE PUSH1 0x24 PUSH1 0x0 REVERT INVALID PUSH1 0x80 DUP1 PUSH1 0x40 MSTORE PUSH1 0x4 CALLDATASIZE LT ISZERO PUSH2 0x11 JUMPI JUMPDEST STOP JUMPDEST PUSH1 0x0 SWAP1 DUP2 CALLDATALOAD PUSH1 0xE0 SHR SWAP1 DUP2 PUSH4 0x4A61752 EQ PUSH2 0x2B24 JUMPI POP DUP1 PUSH4 0x814AB82 EQ PUSH2 0x2ADD JUMPI DUP1 PUSH4 0xA6005DA EQ PUSH2 0x2AB9 JUMPI DUP1 PUSH4 0xFC8C4ED EQ PUSH2 0x2A90 JUMPI DUP1 PUSH4 0x155DD5EE EQ PUSH2 0x2928 JUMPI DUP1 PUSH4 0x1E59D584 EQ PUSH2 0x2796 JUMPI DUP1 PUSH4 0x20C5718F EQ PUSH2 0x250E JUMPI DUP1 PUSH4 0x21040FC3 EQ PUSH2 0x23FE JUMPI DUP1 PUSH4 0x2C8FE526 EQ PUSH2 0x23BA JUMPI DUP1 PUSH4 0x2D771F30 EQ PUSH2 0x2391 JUMPI DUP1 PUSH4 0x2E33B07F EQ PUSH2 0x876 JUMPI DUP1 PUSH4 0x3589CF72 EQ PUSH2 0x2373 JUMPI DUP1 PUSH4 0x37012762 EQ PUSH2 0x2294 JUMPI DUP1 PUSH4 0x42F1181E EQ PUSH2 0x21A3 JUMPI DUP1 PUSH4 0x503C0B88 EQ PUSH2 0x1F31 JUMPI DUP1 PUSH4 0x5C5BB6F2 EQ PUSH2 0x1F13 JUMPI DUP1 PUSH4 0x63679723 EQ PUSH2 0x1EF5 JUMPI DUP1 PUSH4 0x6805036D EQ PUSH2 0x1D95 JUMPI DUP1 PUSH4 0x6D8A1390 EQ PUSH2 0x1D6A JUMPI DUP1 PUSH4 0x70712939 EQ PUSH2 0x1C7F JUMPI DUP1 PUSH4 0x715018A6 EQ PUSH2 0x1C25 JUMPI DUP1 PUSH4 0x7200B829 EQ PUSH2 0x1ABD JUMPI DUP1 PUSH4 0x72EECD21 EQ PUSH2 0x115B JUMPI DUP1 PUSH4 0x7E9EAE50 EQ PUSH2 0x103D JUMPI DUP1 PUSH4 0x83FBEA51 EQ PUSH2 0x101F JUMPI DUP1 PUSH4 0x861A68D6 EQ PUSH2 0xFFE JUMPI DUP1 PUSH4 0x8C09B7C3 EQ PUSH2 0xFBE JUMPI DUP1 PUSH4 0x8DA5CB5B EQ PUSH2 0xF97 JUMPI DUP1 PUSH4 0x9804A586 EQ PUSH2 0xF4D JUMPI DUP1 PUSH4 0xA9BEA789 EQ PUSH2 0xDD9 JUMPI DUP1 PUSH4 0xAA1F0595 EQ PUSH2 0xD97 JUMPI DUP1 PUSH4 0xB6202913 EQ PUSH2 0xBB1 JUMPI DUP1 PUSH4 0xB6DE7B43 EQ PUSH2 0xB5B JUMPI DUP1 PUSH4 0xB9181611 EQ PUSH2 0xB19 JUMPI DUP1 PUSH4 0xBD487725 EQ PUSH2 0xAD4 JUMPI DUP1 PUSH4 0xC17F9E59 EQ PUSH2 0x8A0 JUMPI DUP1 PUSH4 0xC416AD2A EQ PUSH2 0x876 JUMPI DUP1 PUSH4 0xC892FDE3 EQ PUSH2 0x858 JUMPI DUP1 PUSH4 0xCBF2080D EQ PUSH2 0x6C1 JUMPI DUP1 PUSH4 0xD3050EBA EQ PUSH2 0x6A3 JUMPI DUP1 PUSH4 0xD41ECA64 EQ PUSH2 0x5F5 JUMPI DUP1 PUSH4 0xD8D6E8FF EQ PUSH2 0x56E JUMPI DUP1 PUSH4 0xDF4DB463 EQ PUSH2 0x4E7 JUMPI DUP1 PUSH4 0xE5047770 EQ PUSH2 0x3BA JUMPI DUP1 PUSH4 0xEFF0AB92 EQ PUSH2 0x2A9 JUMPI DUP1 PUSH4 0xF08E231E EQ PUSH2 0x276 JUMPI PUSH4 0xF2FDE38B SUB PUSH2 0xF JUMPI CALLVALUE PUSH2 0x273 JUMPI PUSH1 0x20 CALLDATASIZE PUSH1 0x3 NOT ADD SLT PUSH2 0x273 JUMPI PUSH1 0x4 CALLDATALOAD PUSH1 0x1 PUSH1 0x1 PUSH1 0xA0 SHL SUB DUP2 AND DUP1 DUP3 SUB PUSH2 0x271 JUMPI PUSH2 0x24C PUSH2 0x38B7 JUMP JUMPDEST ISZERO PUSH2 0x25D JUMPI PUSH2 0x25A SWAP1 PUSH2 0x3902 JUMP JUMPDEST DUP1 RETURN JUMPDEST PUSH4 0x1E4FBDF7 PUSH1 0xE0 SHL DUP3 MSTORE PUSH1 0x4 DUP3 SWAP1 MSTORE PUSH1 0x24 DUP3 REVERT JUMPDEST DUP3 JUMPDEST DUP1 REVERT JUMPDEST POP CALLVALUE PUSH2 0x273 JUMPI PUSH1 0x20 CALLDATASIZE PUSH1 0x3 NOT ADD SLT PUSH2 0x273 JUMPI PUSH1 0x4 CALLDATALOAD SWAP1 PUSH1 0x7 DUP3 LT ISZERO PUSH2 0x273 JUMPI PUSH1 0x20 PUSH2 0x2A0 DUP4 PUSH2 0x2EB2 JUMP JUMPDEST SLOAD PUSH1 0x40 MLOAD SWAP1 DUP2 MSTORE RETURN JUMPDEST POP CALLVALUE PUSH2 0x273 JUMPI PUSH1 0x20 CALLDATASIZE PUSH1 0x3 NOT ADD SLT PUSH2 0x273 JUMPI PUSH1 0x4 CALLDATALOAD PUSH1 0x1 PUSH1 0x1 PUSH1 0xA0 SHL SUB DUP2 AND SWAP1 DUP2 SWAP1 SUB PUSH2 0x3B6 JUMPI DUP2 MSTORE PUSH1 0xF PUSH1 0x20 MSTORE PUSH1 0x40 DUP2 KECCAK256 DUP1 SLOAD DUP3 SWAP2 DUP3 JUMPDEST DUP3 DUP2 LT PUSH2 0x331 JUMPI POP POP POP DUP2 PUSH2 0x2FD JUMPI PUSH1 0x20 SWAP2 POP JUMPDEST PUSH1 0x40 MLOAD SWAP1 DUP2 MSTORE RETURN JUMPDEST PUSH3 0x93A80 DUP3 ADD DUP1 SWAP3 GT PUSH2 0x31D JUMPI POP PUSH2 0x318 PUSH1 0x20 SWAP2 TIMESTAMP SWAP1 PUSH2 0x32E4 JUMP JUMPDEST PUSH2 0x2F5 JUMP JUMPDEST PUSH4 0x4E487B71 PUSH1 0xE0 SHL DUP2 MSTORE PUSH1 0x11 PUSH1 0x4 MSTORE PUSH1 0x24 SWAP1 REVERT JUMPDEST PUSH2 0x33B DUP2 DUP4 PUSH2 0x2CE7 JUMP JUMPDEST SWAP1 SLOAD SWAP1 PUSH1 0x3 SHL SHR PUSH3 0x93A80 DUP2 ADD DUP1 SWAP2 GT PUSH2 0x3A2 JUMPI TIMESTAMP LT PUSH2 0x35E JUMPI JUMPDEST PUSH1 0x1 ADD PUSH2 0x2E1 JUMP JUMPDEST DUP5 ISZERO DUP1 ISZERO PUSH2 0x389 JUMPI JUMPDEST ISZERO PUSH2 0x356 JUMPI SWAP4 POP PUSH1 0x1 PUSH2 0x37A DUP6 DUP4 PUSH2 0x2CE7 JUMP JUMPDEST SWAP1 SLOAD SWAP1 PUSH1 0x3 SHL SHR SWAP5 SWAP1 POP PUSH2 0x356 JUMP JUMPDEST POP DUP5 PUSH2 0x395 DUP3 DUP5 PUSH2 0x2CE7 JUMP JUMPDEST SWAP1 SLOAD SWAP1 PUSH1 0x3 SHL SHR LT PUSH2 0x367 JUMP JUMPDEST PUSH4 0x4E487B71 PUSH1 0xE0 SHL DUP6 MSTORE PUSH1 0x11 PUSH1 0x4 MSTORE PUSH1 0x24 DUP6 REVERT JUMPDEST POP DUP1 REVERT JUMPDEST POP CALLVALUE PUSH2 0x273 JUMPI DUP1 PUSH1 0x3 NOT CALLDATASIZE ADD SLT PUSH2 0x273 JUMPI PUSH2 0x100 SWAP1 PUSH1 0x40 MLOAD PUSH2 0x3DC DUP4 DUP3 PUSH2 0x2DD4 JUMP JUMPDEST PUSH1 0x7 DUP2 MSTORE PUSH1 0x20 DUP2 ADD SWAP2 PUSH1 0x1F NOT DUP5 ADD CALLDATASIZE DUP5 CALLDATACOPY DUP1 JUMPDEST PUSH1 0x7 DUP2 LT ISZERO PUSH2 0x416 JUMPI PUSH1 0x1 SWAP1 PUSH2 0x404 DUP2 PUSH2 0x2E99 JUMP JUMPDEST SLOAD PUSH2 0x40F DUP3 DUP7 PUSH2 0x2F9E JUMP JUMPDEST MSTORE ADD PUSH2 0x3EF JUMP JUMPDEST POP SWAP2 SWAP1 SWAP2 PUSH1 0x1 DUP1 PUSH1 0xA0 SHL SUB DUP2 SLOAD AND PUSH1 0x2 SLOAD SWAP4 PUSH1 0x3 SLOAD SWAP6 PUSH1 0x4 SLOAD SWAP1 PUSH1 0x5 SLOAD SWAP1 PUSH1 0x6 SLOAD SWAP2 PUSH1 0x7 SLOAD SWAP4 PUSH1 0xFF PUSH1 0x40 MLOAD SWAP12 DUP13 SWAP12 PUSH2 0x160 DUP14 ADD SWAP10 DUP14 MSTORE DUP13 PUSH1 0x20 ADDRESS SWAP2 ADD MSTORE DUP13 PUSH1 0x40 PUSH1 0x1 DUP1 PUSH1 0xA0 SHL SUB PUSH32 0x0 AND SWAP2 ADD MSTORE PUSH1 0x60 DUP14 ADD MSTORE DUP2 DUP2 AND PUSH1 0x80 DUP14 ADD MSTORE PUSH1 0x8 SHR AND PUSH1 0xA0 DUP12 ADD MSTORE PUSH1 0xC0 DUP11 ADD MSTORE PUSH1 0xE0 DUP10 ADD MSTORE DUP8 ADD MSTORE PUSH2 0x120 DUP7 ADD MSTORE PUSH2 0x160 PUSH2 0x140 DUP7 ADD MSTORE MLOAD DUP1 SWAP2 MSTORE PUSH2 0x180 DUP5 ADD SWAP3 SWAP2 JUMPDEST DUP2 DUP2 LT PUSH2 0x4CE JUMPI POP POP POP SUB SWAP1 RETURN JUMPDEST DUP3 MLOAD DUP5 MSTORE DUP6 SWAP5 POP PUSH1 0x20 SWAP4 DUP5 ADD SWAP4 SWAP1 SWAP3 ADD SWAP2 PUSH1 0x1 ADD PUSH2 0x4C0 JUMP JUMPDEST POP CALLVALUE PUSH2 0x273 JUMPI DUP1 PUSH1 0x3 NOT CALLDATASIZE ADD SLT PUSH2 0x273 JUMPI PUSH1 0xE0 SWAP1 DUP2 PUSH1 0x40 MLOAD PUSH2 0x509 DUP3 DUP3 PUSH2 0x2DD4 JUMP JUMPDEST CALLDATASIZE SWAP1 CALLDATACOPY PUSH1 0x40 MLOAD SWAP1 PUSH2 0x51A DUP4 DUP4 PUSH2 0x2DD4 JUMP JUMPDEST DUP3 CALLDATASIZE DUP4 CALLDATACOPY DUP1 JUMPDEST PUSH1 0x7 DUP2 LT ISZERO PUSH2 0x543 JUMPI PUSH1 0x1 SWAP1 PUSH2 0x535 DUP2 PUSH2 0x2E99 JUMP JUMPDEST SLOAD DUP2 PUSH1 0x5 SHL DUP6 ADD MSTORE ADD PUSH2 0x520 JUMP JUMPDEST POP PUSH1 0x40 MLOAD SWAP2 SWAP1 DUP3 JUMPDEST PUSH1 0x7 DUP3 LT PUSH2 0x558 JUMPI POP POP POP RETURN JUMPDEST PUSH1 0x20 DUP1 PUSH1 0x1 SWAP3 DUP6 MLOAD DUP2 MSTORE ADD SWAP4 ADD SWAP2 ADD SWAP1 SWAP2 PUSH2 0x54B JUMP JUMPDEST POP CALLVALUE PUSH2 0x273 JUMPI PUSH1 0x20 CALLDATASIZE PUSH1 0x3 NOT ADD SLT PUSH2 0x273 JUMPI PUSH1 0x4 CALLDATALOAD PUSH1 0x8 DUP2 LT ISZERO PUSH2 0x3B6 JUMPI CALLER DUP3 MSTORE PUSH1 0xC PUSH1 0x20 MSTORE PUSH2 0x5A4 PUSH1 0xFF PUSH1 0x40 DUP5 KECCAK256 SLOAD AND PUSH2 0x384C JUMP JUMPDEST CALLER DUP3 MSTORE PUSH1 0xD PUSH1 0x20 MSTORE PUSH1 0x40 DUP3 KECCAK256 PUSH1 0xFF NOT DUP2 SLOAD AND PUSH1 0xFF DUP4 AND OR SWAP1 SSTORE PUSH1 0x6 DUP2 EQ PUSH1 0x0 EQ PUSH2 0x5DA JUMPI POP PUSH2 0x5D4 PUSH1 0x6 SLOAD PUSH2 0x2EE6 JUMP JUMPDEST PUSH1 0x6 SSTORE DUP1 RETURN JUMPDEST PUSH1 0x7 EQ PUSH2 0x5E4 JUMPI DUP1 RETURN JUMPDEST PUSH2 0x5EF PUSH1 0x7 SLOAD PUSH2 0x2EE6 JUMP JUMPDEST PUSH1 0x7 SSTORE DUP1 RETURN JUMPDEST POP CALLVALUE PUSH2 0x273 JUMPI PUSH1 0x40 CALLDATASIZE PUSH1 0x3 NOT ADD SLT PUSH2 0x273 JUMPI PUSH1 0x4 CALLDATALOAD PUSH1 0xFF DUP2 AND DUP1 SWAP2 SUB PUSH2 0x3B6 JUMPI PUSH1 0x24 CALLDATALOAD PUSH1 0xFF DUP2 AND SWAP2 DUP3 DUP3 SUB PUSH2 0x69F JUMPI PUSH32 0x321994B8855AE38E4FD6162F7A0BD7CDE88BE83AA3ACC96E03C17B7F733B43E1 SWAP3 PUSH1 0x40 SWAP3 PUSH1 0x1 DUP1 PUSH1 0xA0 SHL SUB DUP7 SLOAD AND CALLER EQ DUP1 ISZERO PUSH2 0x68A JUMPI JUMPDEST PUSH2 0x665 SWAP1 PUSH2 0x327C JUMP JUMPDEST DUP3 PUSH2 0xFF00 PUSH1 0x3 SLOAD SWAP3 PUSH1 0x8 SHL AND SWAP2 PUSH2 0xFFFF NOT AND OR OR PUSH1 0x3 SSTORE DUP3 MLOAD SWAP2 DUP3 MSTORE PUSH1 0x20 DUP3 ADD MSTORE LOG1 DUP1 RETURN JUMPDEST POP CALLER DUP7 MSTORE PUSH1 0xB PUSH1 0x20 MSTORE DUP4 DUP7 KECCAK256 SLOAD PUSH1 0xFF AND PUSH2 0x65C JUMP JUMPDEST DUP4 DUP1 REVERT JUMPDEST POP CALLVALUE PUSH2 0x273 JUMPI DUP1 PUSH1 0x3 NOT CALLDATASIZE ADD SLT PUSH2 0x273 JUMPI PUSH1 0x20 PUSH1 0x40 MLOAD PUSH3 0x15180 DUP2 MSTORE RETURN JUMPDEST POP CALLVALUE PUSH2 0x273 JUMPI PUSH1 0x20 CALLDATASIZE PUSH1 0x3 NOT ADD SLT PUSH2 0x273 JUMPI PUSH1 0x4 CALLDATALOAD PUSH1 0x1 PUSH1 0x1 PUSH1 0xA0 SHL SUB DUP2 AND SWAP1 DUP2 SWAP1 SUB PUSH2 0x3B6 JUMPI DUP2 MSTORE PUSH1 0xF PUSH1 0x20 MSTORE PUSH1 0x40 DUP2 KECCAK256 DUP2 SWAP1 DUP3 SWAP1 DUP4 DUP1 SWAP2 DUP2 SWAP1 DUP1 SLOAD SWAP2 JUMPDEST DUP3 DUP2 LT PUSH2 0x7AD JUMPI POP POP POP PUSH1 0x3 SLOAD SWAP5 DUP1 ISZERO PUSH1 0x0 EQ PUSH2 0x77B JUMPI POP DUP1 SWAP2 JUMPDEST DUP1 PUSH2 0x755 JUMPI POP PUSH1 0xC0 SWAP5 PUSH1 0xFF DUP1 SWAP3 SWAP5 JUMPDEST DUP2 PUSH1 0x40 MLOAD SWAP8 AND DUP8 MSTORE DUP2 DUP4 AND PUSH1 0x20 DUP9 ADD MSTORE AND PUSH1 0x40 DUP7 ADD MSTORE PUSH1 0x8 SHR AND PUSH1 0x60 DUP5 ADD MSTORE PUSH1 0x80 DUP4 ADD MSTORE PUSH1 0xA0 DUP3 ADD MSTORE RETURN JUMPDEST SWAP1 PUSH3 0x278D00 DUP3 ADD DUP1 SWAP3 GT PUSH2 0x31D JUMPI POP PUSH1 0xC0 SWAP5 PUSH1 0xFF PUSH2 0x775 DUP2 SWAP4 TIMESTAMP SWAP1 PUSH2 0x32E4 JUMP JUMPDEST SWAP5 PUSH2 0x72A JUMP JUMPDEST PUSH3 0x93A80 DUP2 ADD DUP1 SWAP2 GT PUSH2 0x799 JUMPI PUSH2 0x793 SWAP1 TIMESTAMP SWAP1 PUSH2 0x32E4 JUMP JUMPDEST SWAP2 PUSH2 0x71B JUMP JUMPDEST PUSH4 0x4E487B71 PUSH1 0xE0 SHL DUP3 MSTORE PUSH1 0x11 PUSH1 0x4 MSTORE PUSH1 0x24 DUP3 REVERT JUMPDEST PUSH2 0x7B7 DUP2 DUP4 PUSH2 0x2CE7 JUMP JUMPDEST SWAP1 SLOAD SWAP1 PUSH1 0x3 SHL SHR PUSH3 0x278D00 DUP2 ADD DUP1 DUP3 GT PUSH2 0x833 JUMPI TIMESTAMP LT PUSH2 0x7DB JUMPI JUMPDEST POP PUSH1 0x1 ADD PUSH2 0x700 JUMP JUMPDEST SWAP6 PUSH2 0x7E5 SWAP1 PUSH2 0x2EE6 JUMP JUMPDEST SWAP6 DUP6 ISZERO DUP1 ISZERO PUSH2 0x84F JUMPI JUMPDEST PUSH2 0x847 JUMPI JUMPDEST PUSH3 0x93A80 DUP2 ADD DUP1 DUP3 GT PUSH2 0x833 JUMPI TIMESTAMP LT ISZERO PUSH2 0x7D2 JUMPI SWAP7 PUSH2 0x812 SWAP1 PUSH2 0x2EE6 JUMP JUMPDEST SWAP7 DUP9 ISZERO DUP1 ISZERO PUSH2 0x82A JUMPI JUMPDEST ISZERO PUSH2 0x7D2 JUMPI SWAP8 POP PUSH1 0x1 PUSH2 0x7D2 JUMP JUMPDEST POP DUP9 DUP2 LT PUSH2 0x81C JUMP JUMPDEST PUSH4 0x4E487B71 PUSH1 0xE0 SHL DUP7 MSTORE PUSH1 0x11 PUSH1 0x4 MSTORE PUSH1 0x24 DUP7 REVERT JUMPDEST SWAP5 POP DUP5 PUSH2 0x7F4 JUMP JUMPDEST POP DUP6 DUP2 LT PUSH2 0x7EF JUMP JUMPDEST POP CALLVALUE PUSH2 0x273 JUMPI DUP1 PUSH1 0x3 NOT CALLDATASIZE ADD SLT PUSH2 0x273 JUMPI PUSH1 0x20 PUSH1 0x6 SLOAD PUSH1 0x40 MLOAD SWAP1 DUP2 MSTORE RETURN JUMPDEST POP CALLVALUE PUSH2 0x273 JUMPI PUSH1 0x20 CALLDATASIZE PUSH1 0x3 NOT ADD SLT PUSH2 0x273 JUMPI PUSH1 0x4 CALLDATALOAD SWAP1 PUSH1 0x7 DUP3 LT ISZERO PUSH2 0x273 JUMPI PUSH1 0x20 PUSH2 0x2A0 DUP4 PUSH2 0x2E99 JUMP JUMPDEST POP CALLVALUE PUSH2 0x273 JUMPI PUSH1 0x20 CALLDATASIZE PUSH1 0x3 NOT ADD SLT PUSH2 0x273 JUMPI PUSH1 0x4 CALLDATALOAD PUSH1 0x1 PUSH1 0x1 PUSH1 0xA0 SHL SUB DUP2 AND SWAP1 DUP2 SWAP1 SUB PUSH2 0x3B6 JUMPI CALLER DUP3 MSTORE PUSH1 0xD PUSH1 0x20 MSTORE PUSH1 0xFF PUSH1 0x40 DUP4 KECCAK256 SLOAD AND PUSH1 0x8 DUP2 LT ISZERO PUSH2 0xAC0 JUMPI PUSH1 0x1 SUB PUSH2 0xA8A JUMPI PUSH3 0x278CFF NOT TIMESTAMP ADD SWAP1 TIMESTAMP DUP3 GT PUSH2 0xA76 JUMPI DUP1 DUP4 MSTORE PUSH1 0xF PUSH1 0x20 MSTORE PUSH1 0x40 DUP4 KECCAK256 DUP1 SLOAD SWAP3 DUP5 JUMPDEST DUP5 DUP2 LT DUP1 PUSH2 0xA5D JUMPI JUMPDEST ISZERO PUSH2 0x923 JUMPI PUSH2 0x91E SWAP1 PUSH2 0x2EE6 JUMP JUMPDEST PUSH2 0x907 JUMP JUMPDEST DUP4 DUP4 DUP8 SWAP3 DUP1 PUSH2 0x9A9 JUMPI JUMPDEST POP DUP1 SLOAD SWAP1 PUSH1 0x1 PUSH1 0x40 SHL DUP3 LT ISZERO PUSH2 0x995 JUMPI DUP2 PUSH2 0x950 SWAP2 PUSH1 0x1 PUSH2 0x968 SWAP5 ADD DUP2 SSTORE PUSH2 0x2CE7 JUMP JUMPDEST TIMESTAMP SWAP1 DUP3 SLOAD SWAP1 PUSH1 0x3 SHL SWAP2 DUP3 SHL SWAP2 PUSH1 0x0 NOT SWAP1 SHL NOT AND OR SWAP1 SSTORE JUMP JUMPDEST PUSH32 0x498F5E6DCF570483A1848853791046A7F10012193176D71F959F46EB7713D744 PUSH1 0x20 PUSH1 0x40 MLOAD TIMESTAMP DUP2 MSTORE LOG2 DUP1 RETURN JUMPDEST PUSH4 0x4E487B71 PUSH1 0xE0 SHL DUP5 MSTORE PUSH1 0x41 PUSH1 0x4 MSTORE PUSH1 0x24 DUP5 REVERT JUMPDEST SWAP3 DUP1 JUMPDEST PUSH2 0x9B7 DUP6 DUP5 SLOAD PUSH2 0x32E4 JUMP JUMPDEST DUP2 LT ISZERO PUSH2 0xA07 JUMPI DUP1 PUSH2 0xA01 PUSH2 0x9D7 PUSH2 0x9D1 DUP9 PUSH1 0x1 SWAP6 PUSH2 0x32D7 JUMP JUMPDEST DUP7 PUSH2 0x2CE7 JUMP JUMPDEST SWAP1 SLOAD SWAP1 PUSH1 0x3 SHL SHR PUSH2 0x9E8 DUP4 DUP8 PUSH2 0x2CE7 JUMP JUMPDEST SWAP1 SWAP2 SWAP1 DUP3 SLOAD SWAP1 PUSH1 0x3 SHL SWAP2 DUP3 SHL SWAP2 PUSH1 0x0 NOT SWAP1 SHL NOT AND OR SWAP1 SSTORE JUMP JUMPDEST ADD PUSH2 0x9AC JUMP JUMPDEST POP SWAP3 DUP4 JUMPDEST DUP2 DUP2 LT PUSH2 0xA18 JUMPI POP PUSH2 0x92D JUMP JUMPDEST DUP3 SLOAD DUP1 ISZERO PUSH2 0xA49 JUMPI PUSH1 0x1 SWAP2 SWAP1 PUSH1 0x0 NOT ADD PUSH2 0xA32 DUP2 DUP7 PUSH2 0x2CE7 JUMP JUMPDEST DUP2 SLOAD SWAP1 PUSH1 0x0 NOT SWAP1 PUSH1 0x3 SHL SHL NOT AND SWAP1 SSTORE DUP5 SSTORE ADD PUSH2 0xA0B JUMP JUMPDEST PUSH4 0x4E487B71 PUSH1 0xE0 SHL DUP7 MSTORE PUSH1 0x31 PUSH1 0x4 MSTORE PUSH1 0x24 DUP7 REVERT JUMPDEST POP DUP2 PUSH2 0xA69 DUP3 DUP6 PUSH2 0x2CE7 JUMP JUMPDEST SWAP1 SLOAD SWAP1 PUSH1 0x3 SHL SHR LT PUSH2 0x910 JUMP JUMPDEST PUSH4 0x4E487B71 PUSH1 0xE0 SHL DUP4 MSTORE PUSH1 0x11 PUSH1 0x4 MSTORE PUSH1 0x24 DUP4 REVERT JUMPDEST PUSH1 0x40 MLOAD PUSH3 0x461BCD PUSH1 0xE5 SHL DUP2 MSTORE PUSH1 0x20 PUSH1 0x4 DUP3 ADD MSTORE PUSH1 0xE PUSH1 0x24 DUP3 ADD MSTORE PUSH14 0x24B73B30B634B21031B0B63632B9 PUSH1 0x91 SHL PUSH1 0x44 DUP3 ADD MSTORE PUSH1 0x64 SWAP1 REVERT JUMPDEST PUSH4 0x4E487B71 PUSH1 0xE0 SHL DUP4 MSTORE PUSH1 0x21 PUSH1 0x4 MSTORE PUSH1 0x24 DUP4 REVERT JUMPDEST POP CALLVALUE PUSH2 0x273 JUMPI DUP1 PUSH1 0x3 NOT CALLDATASIZE ADD SLT PUSH2 0x273 JUMPI PUSH1 0x40 MLOAD PUSH32 0x0 PUSH1 0x1 PUSH1 0x1 PUSH1 0xA0 SHL SUB AND DUP2 MSTORE PUSH1 0x20 SWAP1 RETURN JUMPDEST POP CALLVALUE PUSH2 0x273 JUMPI PUSH1 0x20 CALLDATASIZE PUSH1 0x3 NOT ADD SLT PUSH2 0x273 JUMPI PUSH1 0x4 CALLDATALOAD PUSH1 0x1 PUSH1 0x1 PUSH1 0xA0 SHL SUB DUP2 AND SWAP1 DUP2 SWAP1 SUB PUSH2 0x3B6 JUMPI PUSH1 0x40 DUP3 PUSH1 0xFF SWAP3 PUSH1 0x20 SWAP5 MSTORE PUSH1 0xB DUP5 MSTORE KECCAK256 SLOAD AND PUSH1 0x40 MLOAD SWAP1 ISZERO ISZERO DUP2 MSTORE RETURN JUMPDEST POP CALLVALUE PUSH2 0x273 JUMPI PUSH1 0x20 CALLDATASIZE PUSH1 0x3 NOT ADD SLT PUSH2 0x273 JUMPI PUSH1 0x4 CALLDATALOAD PUSH1 0x1 PUSH1 0x1 PUSH1 0xA0 SHL SUB DUP2 AND SWAP1 DUP2 SWAP1 SUB PUSH2 0x3B6 JUMPI PUSH1 0x40 DUP3 PUSH2 0xB99 SWAP3 PUSH2 0xBAD SWAP5 MSTORE PUSH1 0x10 PUSH1 0x20 MSTORE KECCAK256 PUSH2 0x2DF5 JUMP JUMPDEST PUSH1 0x40 MLOAD SWAP2 DUP3 SWAP2 PUSH1 0x20 DUP4 MSTORE PUSH1 0x20 DUP4 ADD SWAP1 PUSH2 0x2BC3 JUMP JUMPDEST SUB SWAP1 RETURN JUMPDEST POP CALLVALUE PUSH2 0x273 JUMPI DUP1 PUSH1 0x3 NOT CALLDATASIZE ADD SLT PUSH2 0x273 JUMPI PUSH1 0x2 SLOAD DUP2 SWAP1 DUP3 JUMPDEST DUP2 DUP2 LT PUSH2 0xD17 JUMPI POP PUSH2 0xBDA DUP3 PUSH2 0x2F22 JUMP JUMPDEST SWAP1 PUSH2 0xBED PUSH2 0xBE7 DUP5 PUSH2 0x2F22 JUMP JUMPDEST SWAP4 PUSH2 0x2F54 JUMP JUMPDEST SWAP1 DUP5 DUP1 JUMPDEST DUP3 DUP3 LT PUSH2 0xC0B JUMPI POP POP POP PUSH2 0xBAD SWAP1 PUSH1 0x40 MLOAD SWAP4 DUP5 SWAP4 DUP5 PUSH2 0x2C41 JUMP JUMPDEST PUSH2 0xC14 DUP3 PUSH2 0x2CB6 JUMP JUMPDEST SWAP1 SLOAD PUSH1 0x3 SWAP2 SWAP1 SWAP2 SHL SHR PUSH1 0x1 PUSH1 0x1 PUSH1 0xA0 SHL SUB AND DUP8 MSTORE PUSH1 0xD PUSH1 0x20 MSTORE PUSH1 0x40 DUP8 KECCAK256 SLOAD PUSH1 0xFF AND PUSH1 0x8 DUP2 LT ISZERO DUP1 PUSH2 0xD03 JUMPI PUSH1 0x6 DUP3 EQ DUP1 ISZERO PUSH2 0xCF7 JUMPI JUMPDEST PUSH2 0xC5B JUMPI JUMPDEST POP POP SWAP1 PUSH1 0x1 ADD SWAP1 PUSH2 0xBF1 JUMP JUMPDEST PUSH2 0xC64 DUP5 PUSH2 0x2CB6 JUMP JUMPDEST SWAP1 SLOAD PUSH1 0x3 SWAP2 SWAP1 SWAP2 SHL SHR PUSH1 0x1 PUSH1 0x1 PUSH1 0xA0 SHL SUB AND PUSH2 0xC80 DUP5 DUP10 PUSH2 0x2F9E JUMP JUMPDEST MSTORE PUSH2 0xCE3 JUMPI DUP2 PUSH2 0xCDC SWAP2 PUSH2 0xC96 PUSH1 0x1 SWAP5 DUP11 PUSH2 0x2F9E JUMP JUMPDEST MSTORE PUSH2 0xCA0 DUP5 PUSH2 0x2CB6 JUMP JUMPDEST DUP5 DUP1 PUSH1 0xA0 SHL SUB SWAP2 SLOAD SWAP1 PUSH1 0x3 SHL SHR AND DUP10 MSTORE PUSH1 0x10 PUSH1 0x20 MSTORE PUSH2 0xCC1 PUSH1 0x40 DUP11 KECCAK256 PUSH2 0x2DF5 JUMP JUMPDEST PUSH2 0xCCB DUP3 DUP9 PUSH2 0x2F9E JUMP JUMPDEST MSTORE PUSH2 0xCD6 DUP2 DUP8 PUSH2 0x2F9E JUMP JUMPDEST POP PUSH2 0x2EE6 JUMP JUMPDEST SWAP1 CODESIZE PUSH2 0xC4F JUMP JUMPDEST PUSH4 0x4E487B71 PUSH1 0xE0 SHL DUP9 MSTORE PUSH1 0x21 PUSH1 0x4 MSTORE PUSH1 0x24 DUP9 REVERT JUMPDEST POP POP DUP8 PUSH1 0x7 DUP3 EQ PUSH2 0xC4A JUMP JUMPDEST PUSH4 0x4E487B71 PUSH1 0xE0 SHL DUP10 MSTORE PUSH1 0x21 PUSH1 0x4 MSTORE PUSH1 0x24 DUP10 REVERT JUMPDEST PUSH2 0xD20 DUP2 PUSH2 0x2CB6 JUMP JUMPDEST SWAP1 SLOAD PUSH1 0x3 SWAP2 SWAP1 SWAP2 SHL SHR PUSH1 0x1 PUSH1 0x1 PUSH1 0xA0 SHL SUB AND DUP5 MSTORE PUSH1 0xD PUSH1 0x20 MSTORE PUSH1 0x40 DUP5 KECCAK256 SLOAD PUSH1 0xFF AND PUSH1 0x8 DUP2 LT ISZERO PUSH2 0xD83 JUMPI PUSH1 0x6 DUP2 EQ SWAP1 DUP2 ISZERO PUSH2 0xD78 JUMPI JUMPDEST POP PUSH2 0xD64 JUMPI JUMPDEST PUSH1 0x1 ADD PUSH2 0xBC9 JUMP JUMPDEST SWAP2 PUSH2 0xD70 PUSH1 0x1 SWAP2 PUSH2 0x2EE6 JUMP JUMPDEST SWAP3 SWAP1 POP PUSH2 0xD5C JUMP JUMPDEST PUSH1 0x7 SWAP2 POP EQ CODESIZE PUSH2 0xD56 JUMP JUMPDEST PUSH4 0x4E487B71 PUSH1 0xE0 SHL DUP6 MSTORE PUSH1 0x21 PUSH1 0x4 MSTORE PUSH1 0x24 DUP6 REVERT JUMPDEST POP CALLVALUE PUSH2 0x273 JUMPI PUSH1 0x20 CALLDATASIZE PUSH1 0x3 NOT ADD SLT PUSH2 0x273 JUMPI PUSH1 0x4 CALLDATALOAD PUSH1 0x1 PUSH1 0x1 PUSH1 0xA0 SHL SUB DUP2 AND SWAP1 DUP2 SWAP1 SUB PUSH2 0x3B6 JUMPI PUSH1 0x40 DUP3 PUSH1 0xFF SWAP3 PUSH1 0x20 SWAP5 MSTORE PUSH1 0xC DUP5 MSTORE KECCAK256 SLOAD AND PUSH1 0x40 MLOAD SWAP1 ISZERO ISZERO DUP2 MSTORE RETURN JUMPDEST POP PUSH1 0x20 CALLDATASIZE PUSH1 0x3 NOT ADD SLT PUSH2 0x273 JUMPI PUSH1 0x4 CALLDATALOAD PUSH1 0x7 DUP2 LT ISZERO PUSH2 0x3B6 JUMPI CALLER DUP3 MSTORE PUSH1 0xC PUSH1 0x20 MSTORE PUSH2 0xE0A PUSH1 0xFF PUSH1 0x40 DUP5 KECCAK256 SLOAD AND PUSH2 0x384C JUMP JUMPDEST PUSH2 0xE12 PUSH2 0x38E0 JUMP JUMPDEST CALLVALUE ISZERO PUSH2 0xF09 JUMPI CALLER DUP3 MSTORE PUSH1 0xD PUSH1 0x20 MSTORE PUSH1 0xFF PUSH1 0x40 DUP4 KECCAK256 SLOAD AND PUSH1 0x8 DUP2 LT ISZERO PUSH2 0xAC0 JUMPI PUSH1 0x6 EQ DUP1 ISZERO PUSH2 0xEE7 JUMPI JUMPDEST ISZERO PUSH2 0xEAB JUMPI PUSH2 0xE49 DUP2 PUSH2 0x2E99 JUMP JUMPDEST PUSH2 0xE54 CALLVALUE DUP3 SLOAD PUSH2 0x32D7 JUMP JUMPDEST SWAP1 SSTORE PUSH2 0xE62 CALLVALUE PUSH1 0x4 SLOAD PUSH2 0x32D7 JUMP JUMPDEST PUSH1 0x4 SSTORE PUSH2 0xE74 PUSH1 0x3 CALLVALUE DIV PUSH1 0x5 SLOAD PUSH2 0x32D7 JUMP JUMPDEST PUSH1 0x5 SSTORE PUSH1 0x40 MLOAD SWAP1 CALLVALUE DUP3 MSTORE PUSH32 0x606617FD09D9890413E3C46147B844D4562351F86E0F7A5C60849BBF0EF02811 PUSH1 0x20 CALLER SWAP4 LOG3 PUSH1 0x1 DUP1 SSTORE DUP1 RETURN JUMPDEST PUSH1 0x40 MLOAD PUSH3 0x461BCD PUSH1 0xE5 SHL DUP2 MSTORE PUSH1 0x20 PUSH1 0x4 DUP3 ADD MSTORE PUSH1 0x14 PUSH1 0x24 DUP3 ADD MSTORE PUSH20 0x21B0B63632B9103737BA10309036B4B9B9B4B7B7 PUSH1 0x61 SHL PUSH1 0x44 DUP3 ADD MSTORE PUSH1 0x64 SWAP1 REVERT JUMPDEST POP CALLER DUP3 MSTORE PUSH1 0xD PUSH1 0x20 MSTORE PUSH1 0xFF PUSH1 0x40 DUP4 KECCAK256 SLOAD AND PUSH1 0x8 DUP2 LT ISZERO PUSH2 0xAC0 JUMPI PUSH1 0x7 EQ PUSH2 0xE3B JUMP JUMPDEST PUSH1 0x64 PUSH1 0x40 MLOAD PUSH3 0x461BCD PUSH1 0xE5 SHL DUP2 MSTORE PUSH1 0x20 PUSH1 0x4 DUP3 ADD MSTORE PUSH1 0x20 PUSH1 0x24 DUP3 ADD MSTORE PUSH32 0x416D6F756E74206D7573742062652067726561746572207468616E207A65726F PUSH1 0x44 DUP3 ADD MSTORE REVERT JUMPDEST POP CALLVALUE PUSH2 0x273 JUMPI PUSH1 0x20 CALLDATASIZE PUSH1 0x3 NOT ADD SLT PUSH2 0x273 JUMPI PUSH1 0x4 CALLDATALOAD PUSH1 0x1 PUSH1 0x1 PUSH1 0xA0 SHL SUB DUP2 AND DUP2 SUB PUSH2 0x3B6 JUMPI PUSH2 0xF7B SWAP1 PUSH2 0x36CD JUMP JUMPDEST PUSH1 0x40 MLOAD SWAP2 ISZERO ISZERO DUP3 MSTORE PUSH1 0x3 DUP2 LT ISZERO PUSH2 0xAC0 JUMPI PUSH1 0x40 SWAP3 POP PUSH1 0x20 DUP3 ADD MSTORE RETURN JUMPDEST POP CALLVALUE PUSH2 0x273 JUMPI DUP1 PUSH1 0x3 NOT CALLDATASIZE ADD SLT PUSH2 0x273 JUMPI SLOAD PUSH1 0x40 MLOAD PUSH1 0x1 PUSH1 0x1 PUSH1 0xA0 SHL SUB SWAP1 SWAP2 AND DUP2 MSTORE PUSH1 0x20 SWAP1 RETURN JUMPDEST POP CALLVALUE PUSH2 0x273 JUMPI DUP1 PUSH1 0x3 NOT CALLDATASIZE ADD SLT PUSH2 0x273 JUMPI PUSH1 0x80 PUSH2 0xFD9 PUSH2 0x365C JUMP JUMPDEST PUSH1 0x40 DUP1 MLOAD PUSH1 0x1 PUSH1 0x1 PUSH1 0xA0 SHL SUB SWAP6 DUP7 AND DUP2 MSTORE SWAP5 SWAP1 SWAP4 AND PUSH1 0x20 DUP6 ADD MSTORE SWAP2 DUP4 ADD MSTORE PUSH1 0x60 DUP3 ADD MSTORE RETURN JUMPDEST POP CALLVALUE PUSH2 0x273 JUMPI DUP1 PUSH1 0x3 NOT CALLDATASIZE ADD SLT PUSH2 0x273 JUMPI PUSH1 0x20 PUSH1 0xFF PUSH1 0x3 SLOAD AND PUSH1 0x40 MLOAD SWAP1 DUP2 MSTORE RETURN JUMPDEST POP CALLVALUE PUSH2 0x273 JUMPI DUP1 PUSH1 0x3 NOT CALLDATASIZE ADD SLT PUSH2 0x273 JUMPI PUSH1 0x20 PUSH1 0x7 SLOAD PUSH1 0x40 MLOAD SWAP1 DUP2 MSTORE RETURN JUMPDEST POP CALLVALUE PUSH2 0x273 JUMPI PUSH1 0x20 CALLDATASIZE PUSH1 0x3 NOT ADD SLT PUSH2 0x273 JUMPI PUSH1 0x4 CALLDATALOAD SWAP1 PUSH1 0x2 SLOAD DUP1 DUP4 GT PUSH2 0x1153 JUMPI JUMPDEST PUSH2 0x1067 DUP4 PUSH2 0x2F22 JUMP JUMPDEST SWAP2 PUSH2 0x1071 DUP5 PUSH2 0x2F22 JUMP JUMPDEST SWAP4 PUSH2 0x107B DUP2 PUSH2 0x2F54 JUMP JUMPDEST SWAP3 PUSH1 0x0 NOT DUP2 ADD SWAP1 DUP2 GT DUP4 JUMPDEST DUP4 DUP2 LT PUSH2 0x109D JUMPI PUSH1 0x40 MLOAD DUP1 PUSH2 0xBAD DUP9 DUP12 DUP12 DUP5 PUSH2 0x2C41 JUMP JUMPDEST DUP2 PUSH2 0x3A2 JUMPI PUSH2 0x10B4 PUSH2 0x10AF DUP3 DUP6 PUSH2 0x32E4 JUMP JUMPDEST PUSH2 0x2CB6 JUMP JUMPDEST SWAP1 SLOAD PUSH1 0x3 SWAP2 SWAP1 SWAP2 SHL SHR PUSH1 0x1 PUSH1 0x1 PUSH1 0xA0 SHL SUB AND DUP1 PUSH2 0x10D1 DUP4 DUP11 PUSH2 0x2F9E JUMP JUMPDEST MSTORE DUP6 MSTORE PUSH1 0xD PUSH1 0x20 MSTORE PUSH1 0xFF PUSH1 0x40 DUP7 KECCAK256 SLOAD AND PUSH1 0x8 DUP2 LT ISZERO PUSH2 0x113F JUMPI SWAP1 PUSH1 0x1 SWAP2 PUSH2 0x10F8 DUP3 DUP12 PUSH2 0x2F9E JUMP JUMPDEST MSTORE PUSH2 0x1102 DUP2 PUSH2 0x2CB6 JUMP JUMPDEST DUP4 DUP1 PUSH1 0xA0 SHL SUB SWAP2 SLOAD SWAP1 PUSH1 0x3 SHL SHR AND DUP7 MSTORE PUSH1 0x10 PUSH1 0x20 MSTORE PUSH2 0x1123 PUSH1 0x40 DUP8 KECCAK256 PUSH2 0x2DF5 JUMP JUMPDEST PUSH2 0x112D DUP3 DUP10 PUSH2 0x2F9E JUMP JUMPDEST MSTORE PUSH2 0x1138 DUP2 DUP9 PUSH2 0x2F9E JUMP JUMPDEST POP ADD PUSH2 0x1086 JUMP JUMPDEST PUSH4 0x4E487B71 PUSH1 0xE0 SHL DUP7 MSTORE PUSH1 0x21 PUSH1 0x4 MSTORE PUSH1 0x24 DUP7 REVERT JUMPDEST SWAP2 POP DUP2 PUSH2 0x105E JUMP JUMPDEST POP PUSH2 0x140 CALLDATASIZE PUSH1 0x3 NOT ADD SLT PUSH2 0x273 JUMPI PUSH1 0x7 PUSH1 0x4 CALLDATALOAD LT ISZERO PUSH2 0x273 JUMPI PUSH1 0x84 CALLDATALOAD PUSH1 0xFF DUP2 AND DUP2 SUB PUSH2 0x3B6 JUMPI PUSH1 0xA4 CALLDATALOAD SWAP2 PUSH1 0xFF DUP4 AND DUP4 SUB PUSH2 0x273 JUMPI PUSH2 0x104 CALLDATALOAD SWAP2 PUSH1 0xFF DUP4 AND DUP4 SUB PUSH2 0x3B6 JUMPI PUSH2 0x124 CALLDATALOAD SWAP3 PUSH1 0x1 PUSH1 0x1 PUSH1 0x40 SHL SUB DUP5 GT PUSH2 0x271 JUMPI CALLDATASIZE PUSH1 0x23 DUP6 ADD SLT ISZERO PUSH2 0x271 JUMPI DUP4 PUSH1 0x4 ADD CALLDATALOAD SWAP4 PUSH1 0x1 PUSH1 0x1 PUSH1 0x40 SHL SUB DUP6 GT PUSH2 0x69F JUMPI CALLDATASIZE PUSH1 0x24 DUP7 DUP4 ADD ADD GT PUSH2 0x69F JUMPI DUP4 SLOAD PUSH1 0x1 PUSH1 0x1 PUSH1 0xA0 SHL SUB AND CALLER EQ DUP1 ISZERO PUSH2 0x1AA7 JUMPI JUMPDEST PUSH2 0x11F9 SWAP1 PUSH2 0x327C JUMP JUMPDEST PUSH2 0x1201 PUSH2 0x38E0 JUMP JUMPDEST PUSH1 0x5 PUSH1 0xFF DUP4 AND LT PUSH2 0x1A48 JUMPI PUSH1 0xFF DUP3 AND PUSH1 0xFF DUP5 AND LT PUSH2 0x19DD JUMPI PUSH1 0xFF DUP4 AND PUSH1 0xFF DUP8 AND LT PUSH2 0x1973 JUMPI PUSH1 0x44 CALLDATALOAD PUSH1 0x24 CALLDATALOAD LT ISZERO PUSH2 0x1922 JUMPI PUSH1 0x44 CALLDATALOAD PUSH1 0xC4 CALLDATALOAD LT PUSH2 0x18C4 JUMPI PUSH1 0xC4 CALLDATALOAD PUSH1 0xE4 CALLDATALOAD GT ISZERO PUSH2 0x1880 JUMPI PUSH1 0x64 CALLDATALOAD ISZERO PUSH2 0x1827 JUMPI PUSH32 0x0 PUSH1 0x88 DUP2 SWAP1 SHR PUSH3 0xFFFFFF AND PUSH23 0x3D602D80600A3D3981F3363D3D373D3D3D363D73000000 OR DUP6 MSTORE PUSH1 0x78 SHL PUSH15 0x5AF43D82803E903D91602B57FD5BF3 OR PUSH1 0x20 MSTORE PUSH1 0x1 PUSH1 0x1 PUSH1 0xA0 SHL SUB PUSH1 0x37 PUSH1 0x9 DUP7 CREATE AND SWAP5 DUP6 ISZERO PUSH2 0x1818 JUMPI DUP5 SWAP1 PUSH2 0x12D1 PUSH1 0x4 CALLDATALOAD PUSH2 0x2EB2 JUMP JUMPDEST PUSH2 0x12DB DUP2 SLOAD PUSH2 0x2EE6 JUMP JUMPDEST SWAP1 SSTORE DUP1 ISZERO PUSH2 0x163E JUMPI DUP1 DUP1 PUSH1 0x24 PUSH2 0x12F2 PUSH1 0x20 SWAP5 PUSH2 0x2ECB JUMP JUMPDEST SWAP6 PUSH2 0x1300 PUSH1 0x40 MLOAD SWAP8 DUP9 PUSH2 0x2DD4 JUMP JUMPDEST DUP3 DUP8 MSTORE ADD DUP4 DUP7 ADD CALLDATACOPY DUP4 ADD ADD MSTORE SWAP5 JUMPDEST DUP5 DUP5 MSTORE PUSH1 0xC PUSH1 0x20 MSTORE PUSH1 0x40 DUP5 KECCAK256 PUSH1 0x1 PUSH1 0xFF NOT DUP3 SLOAD AND OR SWAP1 SSTORE DUP5 DUP5 MSTORE PUSH1 0xD PUSH1 0x20 MSTORE PUSH1 0x40 DUP5 KECCAK256 PUSH1 0xFF NOT DUP2 SLOAD AND SWAP1 SSTORE DUP5 DUP5 MSTORE PUSH1 0x10 PUSH1 0x20 MSTORE PUSH1 0x40 DUP5 KECCAK256 DUP7 MLOAD PUSH1 0x1 PUSH1 0x1 PUSH1 0x40 SHL SUB DUP2 GT PUSH2 0x162A JUMPI PUSH2 0x135F DUP3 SLOAD PUSH2 0x2D68 JUMP JUMPDEST PUSH1 0x1F DUP2 GT PUSH2 0x15E5 JUMPI JUMPDEST POP DUP1 PUSH1 0x20 PUSH1 0x1F DUP3 GT PUSH1 0x1 EQ PUSH2 0x1581 JUMPI DUP8 SWAP2 PUSH2 0x1576 JUMPI JUMPDEST POP DUP2 PUSH1 0x1 SHL SWAP2 PUSH1 0x0 NOT SWAP1 PUSH1 0x3 SHL SHR NOT AND OR SWAP1 SSTORE JUMPDEST DUP4 SLOAD PUSH1 0x1 PUSH1 0x1 PUSH1 0xA0 SHL SUB AND SWAP3 DUP6 EXTCODESIZE ISZERO PUSH2 0x1572 JUMPI PUSH1 0xFF SWAP3 SWAP2 DUP4 DUP1 SWAP3 PUSH1 0x40 MLOAD SWAP7 PUSH4 0x17A0F857 PUSH1 0xE2 SHL DUP9 MSTORE PUSH1 0x4 DUP9 ADD MSTORE ADDRESS PUSH1 0x24 DUP9 ADD MSTORE PUSH2 0x13D4 PUSH1 0x44 DUP9 ADD PUSH1 0x4 CALLDATALOAD PUSH2 0x2CA9 JUMP JUMPDEST PUSH1 0x24 CALLDATALOAD PUSH1 0x64 DUP9 ADD MSTORE PUSH1 0x44 CALLDATALOAD PUSH1 0x84 DUP9 ADD MSTORE PUSH1 0x64 CALLDATALOAD PUSH1 0xA4 DUP9 ADD MSTORE AND PUSH1 0xC4 DUP7 ADD MSTORE AND PUSH1 0xE4 DUP5 ADD MSTORE PUSH1 0xC4 CALLDATALOAD PUSH2 0x104 DUP5 ADD MSTORE PUSH1 0xE4 CALLDATALOAD PUSH2 0x124 DUP5 ADD MSTORE AND PUSH2 0x144 DUP3 ADD MSTORE PUSH2 0x180 PUSH2 0x164 DUP3 ADD MSTORE DUP2 DUP2 DUP1 PUSH2 0x142B PUSH2 0x184 DUP3 ADD DUP9 PUSH2 0x2BC3 JUMP JUMPDEST SUB DUP2 CALLVALUE DUP8 GAS CALL DUP1 ISZERO PUSH2 0x1539 JUMPI DUP3 SWAP1 PUSH2 0x1562 JUMPI JUMPDEST POP POP PUSH1 0x2 SLOAD PUSH1 0x1 PUSH1 0x40 SHL DUP2 LT ISZERO PUSH2 0x154E JUMPI DUP1 PUSH1 0x1 PUSH2 0x145F SWAP3 ADD PUSH1 0x2 SSTORE PUSH2 0x2CB6 JUMP JUMPDEST DUP2 SLOAD PUSH1 0x1 PUSH1 0x1 PUSH1 0xA0 SHL SUB PUSH1 0x3 SWAP3 SWAP1 SWAP3 SHL SWAP2 DUP3 SHL NOT AND SWAP1 DUP5 SWAP1 SHL OR SWAP1 SSTORE PUSH1 0x4 CALLDATALOAD DUP3 PUSH32 0xAC1AC89285BF936F515AAFCF6808B3E062E77FD57F52C8892D20FC9409B8B53 DUP4 DUP1 LOG3 PUSH2 0x14AE PUSH1 0x4 CALLDATALOAD PUSH2 0x2E99 JUMP JUMPDEST SLOAD PUSH1 0x2 SHR DUP1 ISZERO ISZERO DUP1 PUSH2 0x1544 JUMPI JUMPDEST PUSH2 0x14E2 JUMPI JUMPDEST POP POP PUSH1 0x1 DUP1 SSTORE PUSH2 0xBAD PUSH1 0x40 MLOAD SWAP3 DUP4 SWAP3 DUP4 MSTORE PUSH1 0x40 PUSH1 0x20 DUP5 ADD MSTORE PUSH1 0x40 DUP4 ADD SWAP1 PUSH2 0x2BC3 JUMP JUMPDEST PUSH2 0x14ED PUSH1 0x4 CALLDATALOAD PUSH2 0x2E99 JUMP JUMPDEST PUSH2 0x14F8 DUP3 DUP3 SLOAD PUSH2 0x32E4 JUMP JUMPDEST SWAP1 SSTORE DUP3 EXTCODESIZE ISZERO PUSH2 0x3B6 JUMPI DUP2 PUSH1 0x4 SWAP2 PUSH1 0x40 MLOAD SWAP3 DUP4 DUP1 SWAP3 PUSH4 0xEB2BAB77 PUSH1 0xE0 SHL DUP3 MSTORE DUP8 GAS CALL DUP1 ISZERO PUSH2 0x1539 JUMPI ISZERO PUSH2 0x14C0 JUMPI PUSH2 0x152F DUP3 DUP1 SWAP3 PUSH2 0x2DD4 JUMP JUMPDEST PUSH2 0x273 JUMPI DUP1 PUSH2 0x14C0 JUMP JUMPDEST PUSH1 0x40 MLOAD RETURNDATASIZE DUP5 DUP3 RETURNDATACOPY RETURNDATASIZE SWAP1 REVERT JUMPDEST POP DUP1 SELFBALANCE LT ISZERO PUSH2 0x14BB JUMP JUMPDEST PUSH4 0x4E487B71 PUSH1 0xE0 SHL DUP3 MSTORE PUSH1 0x41 PUSH1 0x4 MSTORE PUSH1 0x24 DUP3 REVERT JUMPDEST PUSH2 0x156B SWAP2 PUSH2 0x2DD4 JUMP JUMPDEST CODESIZE DUP2 PUSH2 0x143E JUMP JUMPDEST DUP5 DUP1 REVERT JUMPDEST SWAP1 POP DUP9 ADD MLOAD CODESIZE PUSH2 0x137E JUMP JUMPDEST SWAP2 POP DUP3 DUP8 MSTORE DUP2 DUP8 KECCAK256 DUP8 SWAP3 JUMPDEST DUP11 PUSH1 0x1F NOT DUP5 AND DUP6 LT PUSH2 0x15CE JUMPI POP PUSH1 0x1 SWAP4 POP DUP3 PUSH1 0x1F NOT DUP2 AND LT PUSH2 0x15B5 JUMPI JUMPDEST POP POP DUP2 SHL ADD SWAP1 SSTORE PUSH2 0x1392 JUMP JUMPDEST DUP11 ADD MLOAD PUSH1 0x0 NOT PUSH1 0xF8 DUP5 PUSH1 0x3 SHL AND SHR NOT AND SWAP1 SSTORE CODESIZE DUP1 PUSH2 0x15A9 JUMP JUMPDEST DUP2 ADD MLOAD DUP3 SSTORE PUSH1 0x20 SWAP4 DUP5 ADD SWAP4 PUSH1 0x1 SWAP1 SWAP3 ADD SWAP2 ADD PUSH2 0x158C JUMP JUMPDEST DUP3 DUP8 MSTORE PUSH1 0x20 DUP8 KECCAK256 PUSH1 0x1F DUP4 ADD PUSH1 0x5 SHR DUP2 ADD SWAP2 PUSH1 0x20 DUP5 LT PUSH2 0x1620 JUMPI JUMPDEST PUSH1 0x1F ADD PUSH1 0x5 SHR ADD SWAP1 JUMPDEST DUP2 DUP2 LT PUSH2 0x1615 JUMPI POP PUSH2 0x1368 JUMP JUMPDEST DUP8 DUP2 SSTORE PUSH1 0x1 ADD PUSH2 0x1608 JUMP JUMPDEST SWAP1 SWAP2 POP DUP2 SWAP1 PUSH2 0x15FF JUMP JUMPDEST PUSH4 0x4E487B71 PUSH1 0xE0 SHL DUP7 MSTORE PUSH1 0x41 PUSH1 0x4 MSTORE PUSH1 0x24 DUP7 REVERT JUMPDEST POP POP POP PUSH2 0x164C PUSH1 0x4 CALLDATALOAD PUSH2 0x3949 JUMP JUMPDEST PUSH2 0x1657 PUSH1 0x4 CALLDATALOAD PUSH2 0x2EB2 JUMP JUMPDEST SLOAD DUP5 DUP2 PUSH19 0x184F03E93FF9F4DAA797ED6E38ED64BF6A1F01 PUSH1 0x40 SHL DUP2 LT ISZERO PUSH2 0x17F5 JUMPI JUMPDEST DUP1 PUSH14 0x4EE2D6D415B85ACEF8100000000 PUSH1 0xA SWAP3 LT ISZERO PUSH2 0x17DA JUMPI JUMPDEST PUSH7 0x2386F26FC10000 DUP2 LT ISZERO PUSH2 0x17C6 JUMPI JUMPDEST PUSH4 0x5F5E100 DUP2 LT ISZERO PUSH2 0x17B5 JUMPI JUMPDEST PUSH2 0x2710 DUP2 LT ISZERO PUSH2 0x17A6 JUMPI JUMPDEST PUSH1 0x64 DUP2 LT ISZERO PUSH2 0x1798 JUMPI JUMPDEST LT ISZERO PUSH2 0x1790 JUMPI JUMPDEST PUSH1 0x1 DUP2 ADD SWAP2 PUSH1 0xA PUSH1 0x21 PUSH2 0x16F7 PUSH2 0x16E1 DUP7 PUSH2 0x2ECB JUMP JUMPDEST SWAP6 PUSH2 0x16EF PUSH1 0x40 MLOAD SWAP8 DUP9 PUSH2 0x2DD4 JUMP JUMPDEST DUP1 DUP8 MSTORE PUSH2 0x2ECB JUMP JUMPDEST PUSH1 0x20 DUP7 ADD SWAP5 SWAP1 PUSH1 0x1F NOT ADD CALLDATASIZE DUP7 CALLDATACOPY DUP6 ADD ADD JUMPDEST PUSH1 0x0 NOT ADD SWAP2 PUSH16 0x181899199A1A9B1B9C1CB0B131B232B3 PUSH1 0x81 SHL DUP3 DUP3 MOD BYTE DUP4 MSTORE8 DIV SWAP1 DUP2 ISZERO PUSH2 0x1737 JUMPI PUSH1 0xA SWAP1 PUSH2 0x1708 JUMP JUMPDEST POP POP PUSH2 0x1779 SWAP3 PUSH1 0x20 PUSH1 0x3 SWAP3 PUSH2 0x178A SWAP5 PUSH1 0x40 MLOAD SWAP7 DUP5 PUSH2 0x175E DUP10 SWAP7 MLOAD DUP1 SWAP3 DUP8 DUP1 DUP11 ADD SWAP2 ADD PUSH2 0x2BA0 JUMP JUMPDEST DUP6 ADD SWAP2 PUSH3 0x10169 PUSH1 0xED SHL DUP6 DUP5 ADD MSTORE MLOAD DUP1 SWAP4 PUSH1 0x23 DUP5 ADD SWAP1 PUSH2 0x2BA0 JUMP JUMPDEST ADD ADD SUB ADD PUSH1 0x1F NOT DUP2 ADD DUP4 MSTORE DUP3 PUSH2 0x2DD4 JUMP JUMPDEST SWAP5 PUSH2 0x130E JUMP JUMPDEST PUSH1 0x1 ADD PUSH2 0x16CC JUMP JUMPDEST PUSH1 0x64 PUSH1 0x2 SWAP2 DIV SWAP3 ADD SWAP2 PUSH2 0x16C5 JUMP JUMPDEST PUSH2 0x2710 PUSH1 0x4 SWAP2 DIV SWAP3 ADD SWAP2 PUSH2 0x16BB JUMP JUMPDEST PUSH4 0x5F5E100 PUSH1 0x8 SWAP2 DIV SWAP3 ADD SWAP2 PUSH2 0x16B0 JUMP JUMPDEST PUSH7 0x2386F26FC10000 PUSH1 0x10 SWAP2 DIV SWAP3 ADD SWAP2 PUSH2 0x16A3 JUMP JUMPDEST PUSH14 0x4EE2D6D415B85ACEF8100000000 PUSH1 0x20 SWAP2 DIV SWAP3 ADD SWAP2 PUSH2 0x1693 JUMP JUMPDEST POP PUSH1 0x40 SWAP1 POP PUSH19 0x184F03E93FF9F4DAA797ED6E38ED64BF6A1F01 PUSH1 0x40 SHL DUP3 DIV PUSH2 0x1679 JUMP JUMPDEST PUSH4 0xB06EBF3D PUSH1 0xE0 SHL DUP6 MSTORE PUSH1 0x4 DUP6 REVERT JUMPDEST PUSH1 0x40 MLOAD PUSH3 0x461BCD PUSH1 0xE5 SHL DUP2 MSTORE PUSH1 0x20 PUSH1 0x4 DUP3 ADD MSTORE PUSH1 0x2B PUSH1 0x24 DUP3 ADD MSTORE PUSH32 0x456E726F6C6C6D656E7420616D6F756E74206D75737420626520677265617465 PUSH1 0x44 DUP3 ADD MSTORE PUSH11 0x72207468616E207A65726F PUSH1 0xA8 SHL PUSH1 0x64 DUP3 ADD MSTORE PUSH1 0x84 SWAP1 REVERT JUMPDEST PUSH1 0x64 PUSH1 0x40 MLOAD PUSH3 0x461BCD PUSH1 0xE5 SHL DUP2 MSTORE PUSH1 0x20 PUSH1 0x4 DUP3 ADD MSTORE PUSH1 0x20 PUSH1 0x24 DUP3 ADD MSTORE PUSH32 0x4D697373696F6E207374617274206D757374206265206265666F726520656E64 PUSH1 0x44 DUP3 ADD MSTORE REVERT JUMPDEST PUSH1 0x40 MLOAD PUSH3 0x461BCD PUSH1 0xE5 SHL DUP2 MSTORE PUSH1 0x20 PUSH1 0x4 DUP3 ADD MSTORE PUSH1 0x30 PUSH1 0x24 DUP3 ADD MSTORE PUSH32 0x4D697373696F6E207374617274206D757374206265206F6E206F722061667465 PUSH1 0x44 DUP3 ADD MSTORE PUSH16 0x1C88195B9C9BDB1B1B595B9D08195B99 PUSH1 0x82 SHL PUSH1 0x64 DUP3 ADD MSTORE PUSH1 0x84 SWAP1 REVERT JUMPDEST PUSH1 0x40 MLOAD PUSH3 0x461BCD PUSH1 0xE5 SHL DUP2 MSTORE PUSH1 0x20 PUSH1 0x4 DUP3 ADD MSTORE PUSH1 0x23 PUSH1 0x24 DUP3 ADD MSTORE PUSH32 0x456E726F6C6C6D656E74207374617274206D757374206265206265666F726520 PUSH1 0x44 DUP3 ADD MSTORE PUSH3 0x195B99 PUSH1 0xEA SHL PUSH1 0x64 DUP3 ADD MSTORE PUSH1 0x84 SWAP1 REVERT JUMPDEST PUSH1 0x84 PUSH1 0x40 MLOAD PUSH3 0x461BCD PUSH1 0xE5 SHL DUP2 MSTORE PUSH1 0x20 PUSH1 0x4 DUP3 ADD MSTORE PUSH1 0x40 PUSH1 0x24 DUP3 ADD MSTORE PUSH32 0x4D6178696D756D20706C6179657273206D757374206265206772656174657220 PUSH1 0x44 DUP3 ADD MSTORE PUSH32 0x7468616E206F7220657175616C20746F206D696E696D756D20706C6179657273 PUSH1 0x64 DUP3 ADD MSTORE REVERT JUMPDEST PUSH1 0x40 MLOAD PUSH3 0x461BCD PUSH1 0xE5 SHL DUP2 MSTORE PUSH1 0x20 PUSH1 0x4 DUP3 ADD MSTORE PUSH1 0x3F PUSH1 0x24 DUP3 ADD MSTORE PUSH32 0x4D696E696D756D20706C6179657273206D757374206265206772656174657220 PUSH1 0x44 DUP3 ADD MSTORE PUSH32 0x7468616E206F7220657175616C20746F206D697373696F6E20726F756E647300 PUSH1 0x64 DUP3 ADD MSTORE PUSH1 0x84 SWAP1 REVERT JUMPDEST PUSH1 0x40 MLOAD PUSH3 0x461BCD PUSH1 0xE5 SHL DUP2 MSTORE PUSH1 0x20 PUSH1 0x4 DUP3 ADD MSTORE PUSH1 0x31 PUSH1 0x24 DUP3 ADD MSTORE PUSH32 0x4D697373696F6E20726F756E6473206D75737420626520677265617465722074 PUSH1 0x44 DUP3 ADD MSTORE PUSH17 0x68616E206F7220657175616C20746F2035 PUSH1 0x78 SHL PUSH1 0x64 DUP3 ADD MSTORE PUSH1 0x84 SWAP1 REVERT JUMPDEST POP CALLER DUP5 MSTORE PUSH1 0xB PUSH1 0x20 MSTORE PUSH1 0x40 DUP5 KECCAK256 SLOAD PUSH1 0xFF AND PUSH2 0x11F0 JUMP JUMPDEST POP CALLVALUE PUSH2 0x273 JUMPI DUP1 PUSH1 0x3 NOT CALLDATASIZE ADD SLT PUSH2 0x273 JUMPI DUP1 SLOAD PUSH1 0x1 PUSH1 0x1 PUSH1 0xA0 SHL SUB AND CALLER EQ DUP1 ISZERO PUSH2 0x1C0F JUMPI JUMPDEST PUSH2 0x1AEB SWAP1 PUSH2 0x327C JUMP JUMPDEST PUSH1 0xA SLOAD PUSH1 0x1 PUSH1 0x1 PUSH1 0xA0 SHL SUB AND CALLER EQ PUSH2 0x1BCB JUMPI PUSH1 0x8 SLOAD PUSH3 0x15180 DUP2 ADD DUP1 SWAP2 GT PUSH2 0x799 JUMPI TIMESTAMP GT PUSH2 0x1B93 JUMPI PUSH1 0x9 SLOAD PUSH2 0x1B28 SWAP1 PUSH1 0x1 PUSH1 0x1 PUSH1 0xA0 SHL SUB AND PUSH2 0x3902 JUMP JUMPDEST PUSH1 0x9 SLOAD PUSH1 0x40 DUP1 MLOAD PUSH1 0x1 PUSH1 0x1 PUSH1 0xA0 SHL SUB SWAP1 SWAP3 AND DUP3 MSTORE TIMESTAMP PUSH1 0x20 DUP4 ADD MSTORE CALLER SWAP2 PUSH32 0xDD72DD33198968A9CDC9B1E5CBFF344FB8D04D99F8C15C0A02416B04E857B467 SWAP2 SWAP1 LOG2 PUSH1 0x1 PUSH1 0x1 PUSH1 0x60 SHL SUB PUSH1 0xA0 SHL PUSH1 0x9 SLOAD AND PUSH1 0x9 SSTORE PUSH1 0x1 PUSH1 0x1 PUSH1 0x60 SHL SUB PUSH1 0xA0 SHL PUSH1 0xA SLOAD AND PUSH1 0xA SSTORE DUP1 PUSH1 0x8 SSTORE DUP1 RETURN JUMPDEST PUSH1 0x40 MLOAD PUSH3 0x461BCD PUSH1 0xE5 SHL DUP2 MSTORE PUSH1 0x20 PUSH1 0x4 DUP3 ADD MSTORE PUSH1 0x10 PUSH1 0x24 DUP3 ADD MSTORE PUSH16 0x141C9BDC1BDCD85B08195E1C1A5C9959 PUSH1 0x82 SHL PUSH1 0x44 DUP3 ADD MSTORE PUSH1 0x64 SWAP1 REVERT JUMPDEST PUSH1 0x64 PUSH1 0x40 MLOAD PUSH3 0x461BCD PUSH1 0xE5 SHL DUP2 MSTORE PUSH1 0x20 PUSH1 0x4 DUP3 ADD MSTORE PUSH1 0x20 PUSH1 0x24 DUP3 ADD MSTORE PUSH32 0x43616E6E6F7420636F6E6669726D20796F7572206F776E2070726F706F73616C PUSH1 0x44 DUP3 ADD MSTORE REVERT JUMPDEST POP CALLER DUP2 MSTORE PUSH1 0xB PUSH1 0x20 MSTORE PUSH1 0x40 DUP2 KECCAK256 SLOAD PUSH1 0xFF AND PUSH2 0x1AE2 JUMP JUMPDEST POP CALLVALUE PUSH2 0x273 JUMPI DUP1 PUSH1 0x3 NOT CALLDATASIZE ADD SLT PUSH2 0x273 JUMPI PUSH2 0x1C3E PUSH2 0x38B7 JUMP JUMPDEST DUP1 SLOAD PUSH1 0x1 PUSH1 0x1 PUSH1 0xA0 SHL SUB NOT DUP2 AND DUP3 SSTORE DUP2 SWAP1 PUSH1 0x1 PUSH1 0x1 PUSH1 0xA0 SHL SUB AND PUSH32 0x8BE0079C531659141344CD1FD0A4F28419497F9722A3DAAFE3B4186F6B6457E0 DUP3 DUP1 LOG3 DUP1 RETURN JUMPDEST POP CALLVALUE PUSH2 0x273 JUMPI PUSH1 0x20 CALLDATASIZE PUSH1 0x3 NOT ADD SLT PUSH2 0x273 JUMPI PUSH1 0x4 CALLDATALOAD PUSH1 0x1 PUSH1 0x1 PUSH1 0xA0 SHL SUB DUP2 AND SWAP1 DUP2 SWAP1 SUB PUSH2 0x3B6 JUMPI DUP2 SLOAD PUSH1 0x1 PUSH1 0x1 PUSH1 0xA0 SHL SUB AND CALLER EQ DUP1 ISZERO PUSH2 0x1D54 JUMPI JUMPDEST PUSH2 0x1CC3 SWAP1 PUSH2 0x327C JUMP JUMPDEST PUSH2 0x1CCE DUP2 ISZERO ISZERO PUSH2 0x32F1 JUMP JUMPDEST DUP1 DUP3 MSTORE PUSH1 0xB PUSH1 0x20 MSTORE PUSH1 0xFF PUSH1 0x40 DUP4 KECCAK256 SLOAD AND ISZERO PUSH2 0x1D1E JUMPI DUP1 DUP3 MSTORE PUSH1 0xB PUSH1 0x20 MSTORE PUSH1 0x40 DUP3 KECCAK256 DUP1 SLOAD PUSH1 0xFF NOT AND SWAP1 SSTORE PUSH32 0x66D5F06F711AF3C9FEBA3203FDB00B51345D514C68585D9D319C5FF5E6F77592 DUP3 DUP1 LOG2 DUP1 RETURN JUMPDEST PUSH1 0x40 MLOAD PUSH3 0x461BCD PUSH1 0xE5 SHL DUP2 MSTORE PUSH1 0x20 PUSH1 0x4 DUP3 ADD MSTORE PUSH1 0xE PUSH1 0x24 DUP3 ADD MSTORE PUSH14 0x139BDD08185D5D1A1BDC9A5E9959 PUSH1 0x92 SHL PUSH1 0x44 DUP3 ADD MSTORE PUSH1 0x64 SWAP1 REVERT JUMPDEST POP CALLER DUP3 MSTORE PUSH1 0xB PUSH1 0x20 MSTORE PUSH1 0x40 DUP3 KECCAK256 SLOAD PUSH1 0xFF AND PUSH2 0x1CBA JUMP JUMPDEST POP CALLVALUE PUSH2 0x273 JUMPI DUP1 PUSH1 0x3 NOT CALLDATASIZE ADD SLT PUSH2 0x273 JUMPI PUSH2 0xBAD PUSH2 0x1D86 PUSH2 0x3360 JUMP JUMPDEST PUSH1 0x40 SWAP4 SWAP2 SWAP4 MLOAD SWAP4 DUP5 SWAP4 DUP5 PUSH2 0x2CFF JUMP JUMPDEST POP CALLVALUE PUSH2 0x273 JUMPI DUP1 PUSH1 0x3 NOT CALLDATASIZE ADD SLT PUSH2 0x273 JUMPI PUSH1 0x2 SLOAD DUP2 SWAP1 DUP3 JUMPDEST DUP2 DUP2 LT PUSH2 0x1E88 JUMPI POP PUSH2 0x1DBE DUP3 PUSH2 0x2F22 JUMP JUMPDEST SWAP1 PUSH2 0x1DCB PUSH2 0xBE7 DUP5 PUSH2 0x2F22 JUMP JUMPDEST SWAP1 DUP5 DUP1 JUMPDEST DUP3 DUP3 LT PUSH2 0x1DE9 JUMPI POP POP POP PUSH2 0xBAD SWAP1 PUSH1 0x40 MLOAD SWAP4 DUP5 SWAP4 DUP5 PUSH2 0x2C41 JUMP JUMPDEST PUSH2 0x1DF2 DUP3 PUSH2 0x2CB6 JUMP JUMPDEST SWAP1 SLOAD PUSH1 0x3 SWAP2 SWAP1 SWAP2 SHL SHR PUSH1 0x1 PUSH1 0x1 PUSH1 0xA0 SHL SUB AND DUP8 MSTORE PUSH1 0xD PUSH1 0x20 MSTORE PUSH1 0x40 DUP8 KECCAK256 SLOAD PUSH1 0xFF AND PUSH1 0x8 DUP2 LT ISZERO DUP1 PUSH2 0xD03 JUMPI PUSH1 0x6 DUP3 EQ ISZERO DUP1 PUSH2 0x1E7B JUMPI JUMPDEST PUSH2 0x1E39 JUMPI JUMPDEST POP POP SWAP1 PUSH1 0x1 ADD SWAP1 PUSH2 0x1DCF JUMP JUMPDEST PUSH2 0x1E42 DUP5 PUSH2 0x2CB6 JUMP JUMPDEST SWAP1 SLOAD PUSH1 0x3 SWAP2 SWAP1 SWAP2 SHL SHR PUSH1 0x1 PUSH1 0x1 PUSH1 0xA0 SHL SUB AND PUSH2 0x1E5E DUP5 DUP10 PUSH2 0x2F9E JUMP JUMPDEST MSTORE PUSH2 0xCE3 JUMPI DUP2 PUSH2 0x1E74 SWAP2 PUSH2 0xC96 PUSH1 0x1 SWAP5 DUP11 PUSH2 0x2F9E JUMP JUMPDEST SWAP1 CODESIZE PUSH2 0x1E2D JUMP JUMPDEST POP POP DUP8 PUSH1 0x7 DUP3 EQ ISZERO PUSH2 0x1E28 JUMP JUMPDEST PUSH2 0x1E91 DUP2 PUSH2 0x2CB6 JUMP JUMPDEST SWAP1 SLOAD PUSH1 0x3 SWAP2 SWAP1 SWAP2 SHL SHR PUSH1 0x1 PUSH1 0x1 PUSH1 0xA0 SHL SUB AND DUP5 MSTORE PUSH1 0xD PUSH1 0x20 MSTORE PUSH1 0x40 DUP5 KECCAK256 SLOAD PUSH1 0xFF AND PUSH1 0x8 DUP2 LT ISZERO PUSH2 0xD83 JUMPI PUSH1 0x6 DUP2 EQ ISZERO SWAP1 DUP2 PUSH2 0x1EE9 JUMPI JUMPDEST POP PUSH2 0x1ED5 JUMPI JUMPDEST PUSH1 0x1 ADD PUSH2 0x1DAD JUMP JUMPDEST SWAP2 PUSH2 0x1EE1 PUSH1 0x1 SWAP2 PUSH2 0x2EE6 JUMP JUMPDEST SWAP3 SWAP1 POP PUSH2 0x1ECD JUMP JUMPDEST PUSH1 0x7 SWAP2 POP EQ ISZERO CODESIZE PUSH2 0x1EC7 JUMP JUMPDEST POP CALLVALUE PUSH2 0x273 JUMPI DUP1 PUSH1 0x3 NOT CALLDATASIZE ADD SLT PUSH2 0x273 JUMPI PUSH1 0x20 PUSH1 0x4 SLOAD PUSH1 0x40 MLOAD SWAP1 DUP2 MSTORE RETURN JUMPDEST POP CALLVALUE PUSH2 0x273 JUMPI DUP1 PUSH1 0x3 NOT CALLDATASIZE ADD SLT PUSH2 0x273 JUMPI PUSH1 0x20 PUSH1 0x2 SLOAD PUSH1 0x40 MLOAD SWAP1 DUP2 MSTORE RETURN JUMPDEST POP CALLVALUE PUSH2 0x273 JUMPI PUSH1 0x20 CALLDATASIZE PUSH1 0x3 NOT ADD SLT PUSH2 0x273 JUMPI PUSH1 0x4 CALLDATALOAD PUSH1 0x1 PUSH1 0x1 PUSH1 0xA0 SHL SUB DUP2 AND SWAP1 DUP2 SWAP1 SUB PUSH2 0x3B6 JUMPI PUSH1 0x2 SLOAD DUP3 SWAP1 DUP1 DUP1 JUMPDEST PUSH2 0x20F5 JUMPI POP PUSH2 0x1F6E DUP5 PUSH2 0x2F22 JUMP JUMPDEST SWAP3 PUSH2 0x1F81 PUSH2 0x1F7B DUP7 PUSH2 0x2F22 JUMP JUMPDEST SWAP6 PUSH2 0x2F54 JUMP JUMPDEST SWAP3 DUP1 SWAP3 DUP1 JUMPDEST PUSH2 0x1F9A JUMPI PUSH1 0x40 MLOAD DUP1 PUSH2 0xBAD DUP8 DUP11 DUP11 DUP5 PUSH2 0x2CFF JUMP JUMPDEST PUSH1 0x0 NOT DUP2 ADD DUP2 DUP2 GT PUSH2 0xA76 JUMPI PUSH2 0x1FAF SWAP1 PUSH2 0x2CB6 JUMP JUMPDEST SWAP1 SLOAD PUSH1 0x40 MLOAD PUSH3 0x9C95E1 PUSH1 0xE4 SHL DUP2 MSTORE PUSH1 0x4 DUP2 ADD DUP7 SWAP1 MSTORE PUSH1 0x3 SWAP3 SWAP1 SWAP3 SHL SHR PUSH1 0x1 PUSH1 0x1 PUSH1 0xA0 SHL SUB AND SWAP1 PUSH1 0x20 DUP2 PUSH1 0x24 DUP2 DUP6 GAS STATICCALL SWAP1 DUP2 ISZERO PUSH2 0x20BC JUMPI DUP5 SWAP2 PUSH2 0x20C7 JUMPI JUMPDEST POP PUSH2 0x2002 JUMPI JUMPDEST POP PUSH2 0x1FFC SWAP1 PUSH2 0x332F JUMP JUMPDEST DUP1 PUSH2 0x1F86 JUMP JUMPDEST DUP1 PUSH2 0x2010 DUP7 DUP10 SWAP8 SWAP5 SWAP8 PUSH2 0x2F9E JUMP JUMPDEST MSTORE PUSH1 0x40 MLOAD PUSH4 0x68C6BA21 PUSH1 0xE0 SHL DUP2 MSTORE PUSH1 0x20 DUP2 PUSH1 0x4 DUP2 DUP6 GAS STATICCALL SWAP1 DUP2 ISZERO PUSH2 0x20BC JUMPI DUP5 SWAP2 PUSH2 0x2080 JUMPI JUMPDEST POP SWAP2 PUSH2 0x2079 SWAP2 PUSH2 0x2051 PUSH2 0x1FFC SWAP5 PUSH2 0x204C DUP5 DUP14 PUSH2 0x2F9E JUMP JUMPDEST PUSH2 0x3354 JUMP JUMPDEST DUP5 MSTORE PUSH1 0x10 PUSH1 0x20 MSTORE PUSH2 0x2064 PUSH1 0x40 DUP6 KECCAK256 PUSH2 0x2DF5 JUMP JUMPDEST PUSH2 0x206E DUP3 DUP10 PUSH2 0x2F9E JUMP JUMPDEST MSTORE PUSH2 0xCD6 DUP2 DUP9 PUSH2 0x2F9E JUMP JUMPDEST SWAP4 SWAP1 PUSH2 0x1FF2 JUMP JUMPDEST SWAP1 POP PUSH1 0x20 DUP2 RETURNDATASIZE DUP3 GT PUSH2 0x20B4 JUMPI JUMPDEST DUP2 PUSH2 0x209A PUSH1 0x20 SWAP4 DUP4 PUSH2 0x2DD4 JUMP JUMPDEST DUP2 ADD SUB SLT PUSH2 0x69F JUMPI MLOAD PUSH1 0x8 DUP2 LT ISZERO PUSH2 0x69F JUMPI PUSH2 0x2079 PUSH2 0x2035 JUMP JUMPDEST RETURNDATASIZE SWAP2 POP PUSH2 0x208D JUMP JUMPDEST PUSH1 0x40 MLOAD RETURNDATASIZE DUP7 DUP3 RETURNDATACOPY RETURNDATASIZE SWAP1 REVERT JUMPDEST PUSH2 0x20E8 SWAP2 POP PUSH1 0x20 RETURNDATASIZE DUP2 GT PUSH2 0x20EE JUMPI JUMPDEST PUSH2 0x20E0 DUP2 DUP4 PUSH2 0x2DD4 JUMP JUMPDEST DUP2 ADD SWAP1 PUSH2 0x333C JUMP JUMPDEST CODESIZE PUSH2 0x1FEC JUMP JUMPDEST POP RETURNDATASIZE PUSH2 0x20D6 JUMP JUMPDEST PUSH1 0x0 NOT DUP2 ADD DUP2 DUP2 GT PUSH2 0x218F JUMPI PUSH1 0x20 PUSH2 0x210E PUSH1 0x24 SWAP3 PUSH2 0x2CB6 JUMP JUMPDEST SWAP1 SLOAD PUSH1 0x40 MLOAD PUSH3 0x9C95E1 PUSH1 0xE4 SHL DUP2 MSTORE PUSH1 0x4 DUP2 ADD DUP10 SWAP1 MSTORE SWAP4 DUP5 SWAP3 SWAP1 SWAP2 DUP4 SWAP2 PUSH1 0x3 SHL SHR PUSH1 0x1 PUSH1 0x1 PUSH1 0xA0 SHL SUB AND GAS STATICCALL SWAP1 DUP2 ISZERO PUSH2 0x20BC JUMPI DUP5 SWAP2 PUSH2 0x2171 JUMPI JUMPDEST POP PUSH2 0x215C JUMPI JUMPDEST PUSH2 0x2156 SWAP1 PUSH2 0x332F JUMP JUMPDEST DUP1 PUSH2 0x1F60 JUMP JUMPDEST SWAP4 PUSH2 0x2169 PUSH2 0x2156 SWAP2 PUSH2 0x2EE6 JUMP JUMPDEST SWAP5 SWAP1 POP PUSH2 0x214D JUMP JUMPDEST PUSH2 0x2189 SWAP2 POP PUSH1 0x20 RETURNDATASIZE DUP2 GT PUSH2 0x20EE JUMPI PUSH2 0x20E0 DUP2 DUP4 PUSH2 0x2DD4 JUMP JUMPDEST CODESIZE PUSH2 0x2147 JUMP JUMPDEST PUSH4 0x4E487B71 PUSH1 0xE0 SHL DUP5 MSTORE PUSH1 0x11 PUSH1 0x4 MSTORE PUSH1 0x24 DUP5 REVERT JUMPDEST POP CALLVALUE PUSH2 0x273 JUMPI PUSH1 0x20 CALLDATASIZE PUSH1 0x3 NOT ADD SLT PUSH2 0x273 JUMPI PUSH1 0x4 CALLDATALOAD PUSH1 0x1 PUSH1 0x1 PUSH1 0xA0 SHL SUB DUP2 AND SWAP1 DUP2 SWAP1 SUB PUSH2 0x3B6 JUMPI DUP2 SLOAD PUSH1 0x1 PUSH1 0x1 PUSH1 0xA0 SHL SUB AND CALLER EQ DUP1 ISZERO PUSH2 0x227E JUMPI JUMPDEST PUSH2 0x21E7 SWAP1 PUSH2 0x327C JUMP JUMPDEST PUSH2 0x21F2 DUP2 ISZERO ISZERO PUSH2 0x32F1 JUMP JUMPDEST DUP1 DUP3 MSTORE PUSH1 0xB PUSH1 0x20 MSTORE PUSH1 0xFF PUSH1 0x40 DUP4 KECCAK256 SLOAD AND PUSH2 0x2244 JUMPI DUP1 DUP3 MSTORE PUSH1 0xB PUSH1 0x20 MSTORE PUSH1 0x40 DUP3 KECCAK256 DUP1 SLOAD PUSH1 0xFF NOT AND PUSH1 0x1 OR SWAP1 SSTORE PUSH32 0x10AC961F00D5E732BA4DCC2C6FB09BEBEA0EB9EDD2A75C8109775EF288382E67 DUP3 DUP1 LOG2 DUP1 RETURN JUMPDEST PUSH1 0x40 MLOAD PUSH3 0x461BCD PUSH1 0xE5 SHL DUP2 MSTORE PUSH1 0x20 PUSH1 0x4 DUP3 ADD MSTORE PUSH1 0x12 PUSH1 0x24 DUP3 ADD MSTORE PUSH18 0x105B1C9958591E48185D5D1A1BDC9A5E9959 PUSH1 0x72 SHL PUSH1 0x44 DUP3 ADD MSTORE PUSH1 0x64 SWAP1 REVERT JUMPDEST POP CALLER DUP3 MSTORE PUSH1 0xB PUSH1 0x20 MSTORE PUSH1 0x40 DUP3 KECCAK256 SLOAD PUSH1 0xFF AND PUSH2 0x21DE JUMP JUMPDEST POP CALLVALUE PUSH2 0x273 JUMPI PUSH1 0x20 CALLDATASIZE PUSH1 0x3 NOT ADD SLT PUSH2 0x273 JUMPI PUSH1 0x4 CALLDATALOAD PUSH1 0x1 PUSH1 0x1 PUSH1 0xA0 SHL SUB DUP2 AND SWAP1 DUP2 SWAP1 SUB PUSH2 0x3B6 JUMPI DUP2 MSTORE PUSH1 0xF PUSH1 0x20 MSTORE PUSH1 0x40 DUP2 KECCAK256 DUP1 SLOAD DUP3 SWAP2 DUP3 JUMPDEST DUP3 DUP2 LT PUSH2 0x2302 JUMPI POP POP POP DUP2 PUSH2 0x22E7 JUMPI PUSH1 0x20 SWAP2 POP PUSH1 0x40 MLOAD SWAP1 DUP2 MSTORE RETURN JUMPDEST PUSH3 0x278D00 DUP3 ADD DUP1 SWAP3 GT PUSH2 0x31D JUMPI POP PUSH2 0x318 PUSH1 0x20 SWAP2 TIMESTAMP SWAP1 PUSH2 0x32E4 JUMP JUMPDEST PUSH2 0x230C DUP2 DUP4 PUSH2 0x2CE7 JUMP JUMPDEST SWAP1 SLOAD SWAP1 PUSH1 0x3 SHL SHR PUSH3 0x278D00 DUP2 ADD DUP1 SWAP2 GT PUSH2 0x3A2 JUMPI TIMESTAMP LT PUSH2 0x232F JUMPI JUMPDEST PUSH1 0x1 ADD PUSH2 0x22CC JUMP JUMPDEST DUP5 ISZERO DUP1 ISZERO PUSH2 0x235A JUMPI JUMPDEST ISZERO PUSH2 0x2327 JUMPI SWAP4 POP PUSH1 0x1 PUSH2 0x234B DUP6 DUP4 PUSH2 0x2CE7 JUMP JUMPDEST SWAP1 SLOAD SWAP1 PUSH1 0x3 SHL SHR SWAP5 SWAP1 POP PUSH2 0x2327 JUMP JUMPDEST POP DUP5 PUSH2 0x2366 DUP3 DUP5 PUSH2 0x2CE7 JUMP JUMPDEST SWAP1 SLOAD SWAP1 PUSH1 0x3 SHL SHR LT PUSH2 0x2338 JUMP JUMPDEST POP CALLVALUE PUSH2 0x273 JUMPI DUP1 PUSH1 0x3 NOT CALLDATASIZE ADD SLT PUSH2 0x273 JUMPI PUSH1 0x20 PUSH1 0x5 SLOAD PUSH1 0x40 MLOAD SWAP1 DUP2 MSTORE RETURN JUMPDEST POP CALLVALUE PUSH2 0x273 JUMPI DUP1 PUSH1 0x3 NOT CALLDATASIZE ADD SLT PUSH2 0x273 JUMPI PUSH1 0xA SLOAD PUSH1 0x40 MLOAD PUSH1 0x1 PUSH1 0x1 PUSH1 0xA0 SHL SUB SWAP1 SWAP2 AND DUP2 MSTORE PUSH1 0x20 SWAP1 RETURN JUMPDEST POP CALLVALUE PUSH2 0x273 JUMPI PUSH1 0x20 CALLDATASIZE PUSH1 0x3 NOT ADD SLT PUSH2 0x273 JUMPI PUSH1 0x4 CALLDATALOAD SWAP1 PUSH1 0x2 SLOAD DUP3 LT ISZERO PUSH2 0x273 JUMPI PUSH1 0x20 PUSH2 0x23E5 DUP4 PUSH2 0x2CB6 JUMP JUMPDEST SWAP1 SLOAD PUSH1 0x40 MLOAD PUSH1 0x3 SWAP3 SWAP1 SWAP3 SHL SHR PUSH1 0x1 PUSH1 0x1 PUSH1 0xA0 SHL SUB AND DUP2 MSTORE RETURN JUMPDEST POP CALLVALUE PUSH2 0x273 JUMPI PUSH1 0x20 CALLDATASIZE PUSH1 0x3 NOT ADD SLT PUSH2 0x273 JUMPI PUSH1 0x4 CALLDATALOAD PUSH1 0x1 PUSH1 0x1 PUSH1 0xA0 SHL SUB DUP2 AND DUP1 DUP3 SUB PUSH2 0x271 JUMPI DUP3 SLOAD PUSH1 0x1 PUSH1 0x1 PUSH1 0xA0 SHL SUB AND CALLER EQ DUP1 ISZERO PUSH2 0x24F8 JUMPI JUMPDEST PUSH2 0x2441 SWAP1 PUSH2 0x327C JUMP JUMPDEST DUP1 ISZERO PUSH2 0x24BF JUMPI PUSH1 0x1 PUSH1 0x1 PUSH1 0x60 SHL SUB PUSH1 0xA0 SHL PUSH1 0x9 SLOAD AND OR PUSH1 0x9 SSTORE CALLER PUSH1 0x1 PUSH1 0x1 PUSH1 0x60 SHL SUB PUSH1 0xA0 SHL PUSH1 0xA SLOAD AND OR PUSH1 0xA SSTORE TIMESTAMP PUSH1 0x8 SSTORE PUSH32 0xC29BDBD554E41DF97E5C40FC273A09677AC133C245F0064BDFFEF5CC72176E19 PUSH1 0x40 MLOAD DUP1 PUSH2 0x24B9 CALLER SWAP5 TIMESTAMP SWAP1 DUP4 PUSH1 0x20 SWAP1 SWAP4 SWAP3 SWAP2 SWAP4 PUSH1 0x40 DUP2 ADD SWAP5 PUSH1 0x1 DUP1 PUSH1 0xA0 SHL SUB AND DUP2 MSTORE ADD MSTORE JUMP JUMPDEST SUB SWAP1 LOG2 DUP1 RETURN JUMPDEST PUSH1 0x40 MLOAD PUSH3 0x461BCD PUSH1 0xE5 SHL DUP2 MSTORE PUSH1 0x20 PUSH1 0x4 DUP3 ADD MSTORE PUSH1 0x11 PUSH1 0x24 DUP3 ADD MSTORE PUSH17 0x24B73B30B634B2103732BB9037BBB732B9 PUSH1 0x79 SHL PUSH1 0x44 DUP3 ADD MSTORE PUSH1 0x64 SWAP1 REVERT JUMPDEST POP CALLER DUP4 MSTORE PUSH1 0xB PUSH1 0x20 MSTORE PUSH1 0x40 DUP4 KECCAK256 SLOAD PUSH1 0xFF AND PUSH2 0x2438 JUMP JUMPDEST POP CALLVALUE PUSH2 0x273 JUMPI PUSH1 0x20 CALLDATASIZE PUSH1 0x3 NOT ADD SLT PUSH2 0x273 JUMPI PUSH1 0x4 CALLDATALOAD PUSH1 0x1 PUSH1 0x1 PUSH1 0xA0 SHL SUB DUP2 AND SWAP1 DUP2 SWAP1 SUB PUSH2 0x3B6 JUMPI PUSH1 0x60 PUSH2 0x200 PUSH1 0x40 MLOAD PUSH2 0x2546 DUP2 PUSH2 0x2DA2 JUMP JUMPDEST DUP3 DUP2 MSTORE DUP5 PUSH1 0x20 DUP3 ADD MSTORE DUP5 PUSH1 0x40 DUP3 ADD MSTORE DUP5 DUP4 DUP3 ADD MSTORE DUP5 PUSH1 0x80 DUP3 ADD MSTORE DUP5 PUSH1 0xA0 DUP3 ADD MSTORE DUP5 PUSH1 0xC0 DUP3 ADD MSTORE DUP5 PUSH1 0xE0 DUP3 ADD MSTORE DUP5 PUSH2 0x100 DUP3 ADD MSTORE DUP5 PUSH2 0x120 DUP3 ADD MSTORE DUP5 PUSH2 0x140 DUP3 ADD MSTORE DUP5 PUSH2 0x160 DUP3 ADD MSTORE DUP5 PUSH2 0x180 DUP3 ADD MSTORE DUP3 PUSH2 0x1A0 DUP3 ADD MSTORE DUP5 PUSH2 0x1C0 DUP3 ADD MSTORE DUP3 PUSH2 0x1E0 DUP3 ADD MSTORE ADD MSTORE DUP1 ISZERO PUSH2 0x2751 JUMPI DUP2 PUSH1 0x4 SWAP2 PUSH1 0x40 MLOAD SWAP3 DUP4 DUP1 SWAP3 PUSH4 0x1F385F79 PUSH1 0xE2 SHL DUP3 MSTORE GAS STATICCALL SWAP1 DUP2 ISZERO PUSH2 0x1539 JUMPI DUP3 SWAP2 PUSH2 0x272F JUMPI JUMPDEST POP SWAP1 PUSH1 0x40 MLOAD SWAP2 DUP3 SWAP2 PUSH1 0x20 DUP4 MSTORE PUSH2 0x25FB DUP3 MLOAD PUSH2 0x220 PUSH1 0x20 DUP7 ADD MSTORE PUSH2 0x240 DUP6 ADD SWAP1 PUSH2 0x2B63 JUMP JUMPDEST SWAP1 PUSH2 0x260E PUSH1 0x20 DUP5 ADD MLOAD PUSH1 0x40 DUP7 ADD SWAP1 PUSH2 0x2CA9 JUMP JUMPDEST PUSH1 0x40 DUP4 ADD MLOAD PUSH1 0x60 DUP6 ADD MSTORE PUSH1 0x60 DUP4 ADD MLOAD PUSH1 0x80 DUP6 ADD MSTORE PUSH1 0x80 DUP4 ADD MLOAD PUSH1 0xA0 DUP6 ADD MSTORE PUSH1 0xFF PUSH1 0xA0 DUP5 ADD MLOAD AND PUSH1 0xC0 DUP6 ADD MSTORE PUSH1 0xFF PUSH1 0xC0 DUP5 ADD MLOAD AND PUSH1 0xE0 DUP6 ADD MSTORE PUSH1 0xE0 DUP4 ADD MLOAD PUSH2 0x100 DUP6 ADD MSTORE PUSH2 0x100 DUP4 ADD MLOAD PUSH2 0x120 DUP6 ADD MSTORE PUSH1 0xFF PUSH2 0x120 DUP5 ADD MLOAD AND PUSH2 0x140 DUP6 ADD MSTORE PUSH1 0xFF PUSH2 0x140 DUP5 ADD MLOAD AND PUSH2 0x160 DUP6 ADD MSTORE PUSH2 0x160 DUP4 ADD MLOAD PUSH2 0x180 DUP6 ADD MSTORE PUSH2 0x180 DUP4 ADD MLOAD PUSH2 0x1A0 DUP6 ADD MSTORE PUSH2 0x1A0 DUP4 ADD MLOAD SWAP2 PUSH1 0x1F NOT DUP6 DUP3 SUB ADD PUSH2 0x1C0 DUP7 ADD MSTORE PUSH1 0x20 DUP1 DUP5 MLOAD SWAP3 DUP4 DUP2 MSTORE ADD SWAP4 ADD SWAP2 JUMPDEST DUP2 DUP2 LT PUSH2 0x2701 JUMPI POP POP POP SWAP1 PUSH2 0x200 PUSH2 0x26EC PUSH2 0xBAD SWAP4 PUSH2 0x1C0 DUP5 ADD MLOAD PUSH2 0x1E0 DUP8 ADD MSTORE PUSH2 0x1E0 DUP5 ADD MLOAD PUSH1 0x1F NOT DUP8 DUP4 SUB ADD DUP5 DUP9 ADD MSTORE PUSH2 0x2B63 JUMP JUMPDEST SWAP2 ADD MLOAD DUP4 DUP3 SUB PUSH1 0x1F NOT ADD PUSH2 0x220 DUP6 ADD MSTORE PUSH2 0x2BC3 JUMP JUMPDEST DUP3 MLOAD DUP1 MLOAD PUSH1 0x1 PUSH1 0x1 PUSH1 0xA0 SHL SUB AND DUP6 MSTORE PUSH1 0x20 SWAP1 DUP2 ADD MLOAD DUP2 DUP7 ADD MSTORE DUP8 SWAP7 POP PUSH1 0x40 SWAP1 SWAP5 ADD SWAP4 SWAP1 SWAP3 ADD SWAP2 PUSH1 0x1 ADD PUSH2 0x26B5 JUMP JUMPDEST PUSH2 0x274B SWAP2 POP RETURNDATASIZE DUP1 DUP5 DUP4 RETURNDATACOPY PUSH2 0x2743 DUP2 DUP4 PUSH2 0x2DD4 JUMP JUMPDEST DUP2 ADD SWAP1 PUSH2 0x303E JUMP JUMPDEST CODESIZE PUSH2 0x25D7 JUMP JUMPDEST PUSH1 0x40 MLOAD PUSH3 0x461BCD PUSH1 0xE5 SHL DUP2 MSTORE PUSH1 0x20 PUSH1 0x4 DUP3 ADD MSTORE PUSH1 0x17 PUSH1 0x24 DUP3 ADD MSTORE PUSH32 0x496E76616C6964206D697373696F6E2061646472657373000000000000000000 PUSH1 0x44 DUP3 ADD MSTORE PUSH1 0x64 SWAP1 REVERT JUMPDEST POP CALLVALUE PUSH2 0x273 JUMPI PUSH1 0x20 CALLDATASIZE PUSH1 0x3 NOT ADD SLT PUSH2 0x273 JUMPI PUSH1 0x4 CALLDATALOAD SWAP1 PUSH1 0x8 DUP3 LT ISZERO SWAP2 DUP3 PUSH2 0x3B6 JUMPI PUSH1 0x2 SLOAD SWAP3 DUP3 SWAP4 DUP4 JUMPDEST DUP2 DUP2 LT PUSH2 0x28CD JUMPI POP PUSH2 0x27D0 DUP6 PUSH2 0x2F22 JUMP JUMPDEST SWAP4 PUSH2 0x27E3 PUSH2 0x27DD DUP8 PUSH2 0x2F22 JUMP JUMPDEST SWAP7 PUSH2 0x2F54 JUMP JUMPDEST SWAP4 DUP2 SWAP1 DUP3 JUMPDEST DUP5 DUP2 LT PUSH2 0x27FF JUMPI PUSH1 0x40 MLOAD DUP1 PUSH2 0xBAD DUP10 DUP13 DUP13 DUP5 PUSH2 0x2C41 JUMP JUMPDEST PUSH2 0x2808 DUP2 PUSH2 0x2CB6 JUMP JUMPDEST SWAP1 SLOAD PUSH1 0x3 SWAP2 SWAP1 SWAP2 SHL SHR PUSH1 0x1 PUSH1 0x1 PUSH1 0xA0 SHL SUB AND DUP5 MSTORE PUSH1 0xD PUSH1 0x20 MSTORE PUSH1 0x40 DUP5 KECCAK256 SLOAD PUSH1 0xFF AND DUP7 PUSH2 0xD83 JUMPI PUSH1 0x8 DUP2 LT ISZERO PUSH2 0xD83 JUMPI DUP3 EQ PUSH2 0x2846 JUMPI JUMPDEST PUSH1 0x1 ADD PUSH2 0x27E8 JUMP JUMPDEST SWAP2 SWAP5 POP PUSH2 0x2852 DUP3 PUSH2 0x2CB6 JUMP JUMPDEST SWAP1 SLOAD PUSH1 0x3 SWAP2 SWAP1 SWAP2 SHL SHR PUSH1 0x1 PUSH1 0x1 PUSH1 0xA0 SHL SUB AND PUSH2 0x286E DUP7 DUP10 PUSH2 0x2F9E JUMP JUMPDEST MSTORE PUSH1 0x1 PUSH2 0x28C5 DUP5 SWAP7 PUSH2 0x2880 DUP2 DUP13 PUSH2 0x2F9E JUMP JUMPDEST PUSH1 0xFF DUP6 AND SWAP1 MSTORE PUSH2 0x288F DUP6 PUSH2 0x2CB6 JUMP JUMPDEST DUP5 DUP1 PUSH1 0xA0 SHL SUB SWAP2 SLOAD SWAP1 PUSH1 0x3 SHL SHR AND DUP7 MSTORE PUSH1 0x10 PUSH1 0x20 MSTORE PUSH2 0x28B0 PUSH1 0x40 DUP8 KECCAK256 PUSH2 0x2DF5 JUMP JUMPDEST PUSH2 0x28BA DUP3 DUP12 PUSH2 0x2F9E JUMP JUMPDEST MSTORE PUSH2 0xCD6 DUP2 DUP11 PUSH2 0x2F9E JUMP JUMPDEST SWAP3 SWAP1 POP PUSH2 0x283E JUMP JUMPDEST PUSH2 0x28D6 DUP2 PUSH2 0x2CB6 JUMP JUMPDEST SWAP1 SLOAD PUSH1 0x3 SWAP2 SWAP1 SWAP2 SHL SHR PUSH1 0x1 PUSH1 0x1 PUSH1 0xA0 SHL SUB AND DUP6 MSTORE PUSH1 0xD PUSH1 0x20 MSTORE PUSH1 0x40 DUP6 KECCAK256 SLOAD PUSH1 0xFF AND DUP4 PUSH2 0x113F JUMPI PUSH1 0x8 DUP2 LT ISZERO PUSH2 0x113F JUMPI DUP5 EQ PUSH2 0x2914 JUMPI JUMPDEST PUSH1 0x1 ADD PUSH2 0x27BF JUMP JUMPDEST SWAP5 PUSH2 0x2920 PUSH1 0x1 SWAP2 PUSH2 0x2EE6 JUMP JUMPDEST SWAP6 SWAP1 POP PUSH2 0x290C JUMP JUMPDEST POP CALLVALUE PUSH2 0x273 JUMPI PUSH1 0x20 CALLDATASIZE PUSH1 0x3 NOT ADD SLT PUSH2 0x273 JUMPI PUSH1 0x4 CALLDATALOAD PUSH2 0x2945 PUSH2 0x38B7 JUMP JUMPDEST PUSH2 0x294D PUSH2 0x38E0 JUMP JUMPDEST DUP2 SLOAD PUSH1 0x1 PUSH1 0x1 PUSH1 0xA0 SHL SUB AND SWAP1 DUP1 DUP3 ISZERO PUSH2 0x2A53 JUMPI ISZERO PUSH2 0x2A4C JUMPI JUMPDEST SELFBALANCE DUP2 GT PUSH2 0x2A10 JUMPI DUP3 DUP1 DUP1 DUP1 DUP5 DUP7 GAS CALL RETURNDATASIZE ISZERO PUSH2 0x2A0B JUMPI RETURNDATASIZE PUSH2 0x2985 DUP2 PUSH2 0x2ECB JUMP JUMPDEST SWAP1 PUSH2 0x2993 PUSH1 0x40 MLOAD SWAP3 DUP4 PUSH2 0x2DD4 JUMP JUMPDEST DUP2 MSTORE DUP5 PUSH1 0x20 RETURNDATASIZE SWAP3 ADD RETURNDATACOPY JUMPDEST ISZERO PUSH2 0x29D4 JUMPI PUSH1 0x20 PUSH32 0xEAFF4B37086828766AD3268786972C0CD24259D4C87A80F9D3963A3C3D999B0D SWAP2 PUSH1 0x40 MLOAD SWAP1 DUP2 MSTORE LOG2 PUSH1 0x1 DUP1 SSTORE DUP1 RETURN JUMPDEST PUSH1 0x40 MLOAD PUSH3 0x461BCD PUSH1 0xE5 SHL DUP2 MSTORE PUSH1 0x20 PUSH1 0x4 DUP3 ADD MSTORE PUSH1 0xF PUSH1 0x24 DUP3 ADD MSTORE PUSH15 0x151C985B9CD9995C8819985A5B1959 PUSH1 0x8A SHL PUSH1 0x44 DUP3 ADD MSTORE PUSH1 0x64 SWAP1 REVERT JUMPDEST PUSH2 0x299D JUMP JUMPDEST PUSH1 0x40 MLOAD PUSH3 0x461BCD PUSH1 0xE5 SHL DUP2 MSTORE PUSH1 0x20 PUSH1 0x4 DUP3 ADD MSTORE PUSH1 0x14 PUSH1 0x24 DUP3 ADD MSTORE PUSH20 0x496E73756666696369656E742062616C616E6365 PUSH1 0x60 SHL PUSH1 0x44 DUP3 ADD MSTORE PUSH1 0x64 SWAP1 REVERT JUMPDEST POP SELFBALANCE PUSH2 0x2966 JUMP JUMPDEST PUSH1 0x40 MLOAD PUSH3 0x461BCD PUSH1 0xE5 SHL DUP2 MSTORE PUSH1 0x20 PUSH1 0x4 DUP3 ADD MSTORE PUSH1 0x15 PUSH1 0x24 DUP3 ADD MSTORE PUSH21 0x24B73B30B634B21036B0B730B3B2B91037BBB732B9 PUSH1 0x59 SHL PUSH1 0x44 DUP3 ADD MSTORE PUSH1 0x64 SWAP1 REVERT JUMPDEST POP CALLVALUE PUSH2 0x273 JUMPI DUP1 PUSH1 0x3 NOT CALLDATASIZE ADD SLT PUSH2 0x273 JUMPI PUSH1 0x9 SLOAD PUSH1 0x40 MLOAD PUSH1 0x1 PUSH1 0x1 PUSH1 0xA0 SHL SUB SWAP1 SWAP2 AND DUP2 MSTORE PUSH1 0x20 SWAP1 RETURN JUMPDEST POP CALLVALUE PUSH2 0x273 JUMPI DUP1 PUSH1 0x3 NOT CALLDATASIZE ADD SLT PUSH2 0x273 JUMPI PUSH1 0x20 PUSH1 0xFF PUSH1 0x3 SLOAD PUSH1 0x8 SHR AND PUSH1 0x40 MLOAD SWAP1 DUP2 MSTORE RETURN JUMPDEST POP CALLVALUE PUSH2 0x273 JUMPI PUSH1 0x20 CALLDATASIZE PUSH1 0x3 NOT ADD SLT PUSH2 0x273 JUMPI PUSH1 0x4 CALLDATALOAD PUSH1 0x1 PUSH1 0x1 PUSH1 0xA0 SHL SUB DUP2 AND SWAP1 DUP2 SWAP1 SUB PUSH2 0x3B6 JUMPI PUSH1 0x40 DUP3 PUSH1 0xFF SWAP3 PUSH1 0x20 SWAP5 MSTORE PUSH1 0xD DUP5 MSTORE KECCAK256 SLOAD AND PUSH2 0x2B22 PUSH1 0x40 MLOAD DUP1 SWAP3 PUSH2 0x2B40 JUMP JUMPDEST RETURN JUMPDEST SWAP1 POP CALLVALUE PUSH2 0x3B6 JUMPI DUP2 PUSH1 0x3 NOT CALLDATASIZE ADD SLT PUSH2 0x3B6 JUMPI PUSH1 0x20 SWAP1 PUSH1 0x8 SLOAD DUP2 MSTORE RETURN JUMPDEST SWAP1 PUSH1 0x8 DUP3 LT ISZERO PUSH2 0x2B4D JUMPI MSTORE JUMP JUMPDEST PUSH4 0x4E487B71 PUSH1 0xE0 SHL PUSH1 0x0 MSTORE PUSH1 0x21 PUSH1 0x4 MSTORE PUSH1 0x24 PUSH1 0x0 REVERT JUMPDEST SWAP1 PUSH1 0x20 DUP1 DUP4 MLOAD SWAP3 DUP4 DUP2 MSTORE ADD SWAP3 ADD SWAP1 PUSH1 0x0 JUMPDEST DUP2 DUP2 LT PUSH2 0x2B81 JUMPI POP POP POP SWAP1 JUMP JUMPDEST DUP3 MLOAD PUSH1 0x1 PUSH1 0x1 PUSH1 0xA0 SHL SUB AND DUP5 MSTORE PUSH1 0x20 SWAP4 DUP5 ADD SWAP4 SWAP1 SWAP3 ADD SWAP2 PUSH1 0x1 ADD PUSH2 0x2B74 JUMP JUMPDEST PUSH1 0x0 JUMPDEST DUP4 DUP2 LT PUSH2 0x2BB3 JUMPI POP POP PUSH1 0x0 SWAP2 ADD MSTORE JUMP JUMPDEST DUP2 DUP2 ADD MLOAD DUP4 DUP3 ADD MSTORE PUSH1 0x20 ADD PUSH2 0x2BA3 JUMP JUMPDEST SWAP1 PUSH1 0x20 SWAP2 PUSH2 0x2BDC DUP2 MLOAD DUP1 SWAP3 DUP2 DUP6 MSTORE DUP6 DUP1 DUP7 ADD SWAP2 ADD PUSH2 0x2BA0 JUMP JUMPDEST PUSH1 0x1F ADD PUSH1 0x1F NOT AND ADD ADD SWAP1 JUMP JUMPDEST SWAP1 DUP1 PUSH1 0x20 DUP4 MLOAD SWAP2 DUP3 DUP2 MSTORE ADD SWAP2 PUSH1 0x20 DUP1 DUP4 PUSH1 0x5 SHL DUP4 ADD ADD SWAP5 ADD SWAP3 PUSH1 0x0 SWAP2 JUMPDEST DUP4 DUP4 LT PUSH2 0x2C14 JUMPI POP POP POP POP POP SWAP1 JUMP JUMPDEST SWAP1 SWAP2 SWAP3 SWAP4 SWAP5 PUSH1 0x20 DUP1 PUSH2 0x2C32 PUSH1 0x1 SWAP4 PUSH1 0x1F NOT DUP7 DUP3 SUB ADD DUP8 MSTORE DUP10 MLOAD PUSH2 0x2BC3 JUMP JUMPDEST SWAP8 ADD SWAP4 ADD SWAP4 ADD SWAP2 SWAP4 SWAP3 SWAP1 PUSH2 0x2C05 JUMP JUMPDEST SWAP4 SWAP3 SWAP1 PUSH2 0x2C56 SWAP1 PUSH1 0x60 DUP7 MSTORE PUSH1 0x60 DUP7 ADD SWAP1 PUSH2 0x2B63 JUMP JUMPDEST SWAP4 DUP1 DUP6 SUB PUSH1 0x20 DUP3 ADD MSTORE PUSH1 0x20 DUP1 DUP5 MLOAD SWAP7 DUP8 DUP2 MSTORE ADD SWAP4 ADD PUSH1 0x0 SWAP6 JUMPDEST DUP1 DUP8 LT PUSH2 0x2C8E JUMPI POP POP PUSH2 0x2C8B SWAP4 SWAP5 POP PUSH1 0x40 DUP2 DUP5 SUB SWAP2 ADD MSTORE PUSH2 0x2BE8 JUMP JUMPDEST SWAP1 JUMP JUMPDEST SWAP1 SWAP4 PUSH1 0x20 DUP1 PUSH1 0x1 SWAP3 PUSH1 0xFF DUP9 MLOAD AND DUP2 MSTORE ADD SWAP6 ADD SWAP7 ADD SWAP6 SWAP1 PUSH2 0x2C6F JUMP JUMPDEST SWAP1 PUSH1 0x7 DUP3 LT ISZERO PUSH2 0x2B4D JUMPI MSTORE JUMP JUMPDEST PUSH1 0x2 SLOAD DUP2 LT ISZERO PUSH2 0x2CD1 JUMPI PUSH1 0x2 PUSH1 0x0 MSTORE PUSH1 0x20 PUSH1 0x0 KECCAK256 ADD SWAP1 PUSH1 0x0 SWAP1 JUMP JUMPDEST PUSH4 0x4E487B71 PUSH1 0xE0 SHL PUSH1 0x0 MSTORE PUSH1 0x32 PUSH1 0x4 MSTORE PUSH1 0x24 PUSH1 0x0 REVERT JUMPDEST DUP1 SLOAD DUP3 LT ISZERO PUSH2 0x2CD1 JUMPI PUSH1 0x0 MSTORE PUSH1 0x20 PUSH1 0x0 KECCAK256 ADD SWAP1 PUSH1 0x0 SWAP1 JUMP JUMPDEST SWAP4 SWAP3 SWAP1 PUSH2 0x2D14 SWAP1 PUSH1 0x60 DUP7 MSTORE PUSH1 0x60 DUP7 ADD SWAP1 PUSH2 0x2B63 JUMP JUMPDEST SWAP4 DUP1 DUP6 SUB PUSH1 0x20 DUP3 ADD MSTORE PUSH1 0x20 DUP1 DUP5 MLOAD SWAP7 DUP8 DUP2 MSTORE ADD SWAP4 ADD PUSH1 0x0 SWAP6 JUMPDEST DUP1 DUP8 LT PUSH2 0x2D49 JUMPI POP POP PUSH2 0x2C8B SWAP4 SWAP5 POP PUSH1 0x40 DUP2 DUP5 SUB SWAP2 ADD MSTORE PUSH2 0x2BE8 JUMP JUMPDEST SWAP1 SWAP4 PUSH1 0x20 DUP1 DUP3 PUSH2 0x2D5C PUSH1 0x1 SWAP5 DUP10 MLOAD PUSH2 0x2B40 JUMP JUMPDEST ADD SWAP6 ADD SWAP7 ADD SWAP6 SWAP1 PUSH2 0x2D2D JUMP JUMPDEST SWAP1 PUSH1 0x1 DUP3 DUP2 SHR SWAP3 AND DUP1 ISZERO PUSH2 0x2D98 JUMPI JUMPDEST PUSH1 0x20 DUP4 LT EQ PUSH2 0x2D82 JUMPI JUMP JUMPDEST PUSH4 0x4E487B71 PUSH1 0xE0 SHL PUSH1 0x0 MSTORE PUSH1 0x22 PUSH1 0x4 MSTORE PUSH1 0x24 PUSH1 0x0 REVERT JUMPDEST SWAP2 PUSH1 0x7F AND SWAP2 PUSH2 0x2D77 JUMP JUMPDEST PUSH2 0x220 DUP2 ADD SWAP1 DUP2 LT PUSH1 0x1 PUSH1 0x1 PUSH1 0x40 SHL SUB DUP3 GT OR PUSH2 0x2DBE JUMPI PUSH1 0x40 MSTORE JUMP JUMPDEST PUSH4 0x4E487B71 PUSH1 0xE0 SHL PUSH1 0x0 MSTORE PUSH1 0x41 PUSH1 0x4 MSTORE PUSH1 0x24 PUSH1 0x0 REVERT JUMPDEST SWAP1 PUSH1 0x1F DUP1 NOT SWAP2 ADD AND DUP2 ADD SWAP1 DUP2 LT PUSH1 0x1 PUSH1 0x1 PUSH1 0x40 SHL SUB DUP3 GT OR PUSH2 0x2DBE JUMPI PUSH1 0x40 MSTORE JUMP JUMPDEST SWAP1 PUSH1 0x40 MLOAD SWAP2 DUP3 PUSH1 0x0 DUP3 SLOAD SWAP3 PUSH2 0x2E09 DUP5 PUSH2 0x2D68 JUMP JUMPDEST DUP1 DUP5 MSTORE SWAP4 PUSH1 0x1 DUP2 AND SWAP1 DUP2 ISZERO PUSH2 0x2E77 JUMPI POP PUSH1 0x1 EQ PUSH2 0x2E30 JUMPI JUMPDEST POP PUSH2 0x2E2E SWAP3 POP SUB DUP4 PUSH2 0x2DD4 JUMP JUMPDEST JUMP JUMPDEST SWAP1 POP PUSH1 0x0 SWAP3 SWAP2 SWAP3 MSTORE PUSH1 0x20 PUSH1 0x0 KECCAK256 SWAP1 PUSH1 0x0 SWAP2 JUMPDEST DUP2 DUP4 LT PUSH2 0x2E5B JUMPI POP POP SWAP1 PUSH1 0x20 PUSH2 0x2E2E SWAP3 DUP3 ADD ADD CODESIZE PUSH2 0x2E21 JUMP JUMPDEST PUSH1 0x20 SWAP2 SWAP4 POP DUP1 PUSH1 0x1 SWAP2 SLOAD DUP4 DUP6 DUP10 ADD ADD MSTORE ADD SWAP2 ADD SWAP1 SWAP2 DUP5 SWAP3 PUSH2 0x2E42 JUMP JUMPDEST SWAP1 POP PUSH1 0x20 SWAP3 POP PUSH2 0x2E2E SWAP5 SWAP2 POP PUSH1 0xFF NOT AND DUP3 DUP5 ADD MSTORE ISZERO ISZERO PUSH1 0x5 SHL DUP3 ADD ADD CODESIZE PUSH2 0x2E21 JUMP JUMPDEST PUSH1 0x7 DUP2 LT ISZERO PUSH2 0x2B4D JUMPI PUSH1 0x0 MSTORE PUSH1 0xE PUSH1 0x20 MSTORE PUSH1 0x40 PUSH1 0x0 KECCAK256 SWAP1 JUMP JUMPDEST PUSH1 0x7 DUP2 LT ISZERO PUSH2 0x2B4D JUMPI PUSH1 0x0 MSTORE PUSH1 0x11 PUSH1 0x20 MSTORE PUSH1 0x40 PUSH1 0x0 KECCAK256 SWAP1 JUMP JUMPDEST PUSH1 0x1 PUSH1 0x1 PUSH1 0x40 SHL SUB DUP2 GT PUSH2 0x2DBE JUMPI PUSH1 0x1F ADD PUSH1 0x1F NOT AND PUSH1 0x20 ADD SWAP1 JUMP JUMPDEST PUSH1 0x0 NOT DUP2 EQ PUSH2 0x2EF5 JUMPI PUSH1 0x1 ADD SWAP1 JUMP JUMPDEST PUSH4 0x4E487B71 PUSH1 0xE0 SHL PUSH1 0x0 MSTORE PUSH1 0x11 PUSH1 0x4 MSTORE PUSH1 0x24 PUSH1 0x0 REVERT JUMPDEST PUSH1 0x1 PUSH1 0x1 PUSH1 0x40 SHL SUB DUP2 GT PUSH2 0x2DBE JUMPI PUSH1 0x5 SHL PUSH1 0x20 ADD SWAP1 JUMP JUMPDEST SWAP1 PUSH2 0x2F2C DUP3 PUSH2 0x2F0B JUMP JUMPDEST PUSH2 0x2F39 PUSH1 0x40 MLOAD SWAP2 DUP3 PUSH2 0x2DD4 JUMP JUMPDEST DUP3 DUP2 MSTORE DUP1 SWAP3 PUSH2 0x2F4A PUSH1 0x1F NOT SWAP2 PUSH2 0x2F0B JUMP JUMPDEST ADD SWAP1 PUSH1 0x20 CALLDATASIZE SWAP2 ADD CALLDATACOPY JUMP JUMPDEST SWAP1 PUSH2 0x2F5E DUP3 PUSH2 0x2F0B JUMP JUMPDEST PUSH2 0x2F6B PUSH1 0x40 MLOAD SWAP2 DUP3 PUSH2 0x2DD4 JUMP JUMPDEST DUP3 DUP2 MSTORE DUP1 SWAP3 PUSH2 0x2F7C PUSH1 0x1F NOT SWAP2 PUSH2 0x2F0B JUMP JUMPDEST ADD SWAP1 PUSH1 0x0 JUMPDEST DUP3 DUP2 LT PUSH2 0x2F8D JUMPI POP POP POP JUMP JUMPDEST DUP1 PUSH1 0x60 PUSH1 0x20 DUP1 SWAP4 DUP6 ADD ADD MSTORE ADD PUSH2 0x2F81 JUMP JUMPDEST DUP1 MLOAD DUP3 LT ISZERO PUSH2 0x2CD1 JUMPI PUSH1 0x20 SWAP2 PUSH1 0x5 SHL ADD ADD SWAP1 JUMP JUMPDEST MLOAD SWAP1 PUSH1 0x1 PUSH1 0x1 PUSH1 0xA0 SHL SUB DUP3 AND DUP3 SUB PUSH2 0x2FC6 JUMPI JUMP JUMPDEST PUSH1 0x0 DUP1 REVERT JUMPDEST SWAP1 DUP1 PUSH1 0x1F DUP4 ADD SLT ISZERO PUSH2 0x2FC6 JUMPI DUP2 MLOAD PUSH2 0x2FE2 DUP2 PUSH2 0x2F0B JUMP JUMPDEST SWAP3 PUSH2 0x2FF0 PUSH1 0x40 MLOAD SWAP5 DUP6 PUSH2 0x2DD4 JUMP JUMPDEST DUP2 DUP5 MSTORE PUSH1 0x20 DUP1 DUP6 ADD SWAP3 PUSH1 0x5 SHL DUP3 ADD ADD SWAP3 DUP4 GT PUSH2 0x2FC6 JUMPI PUSH1 0x20 ADD SWAP1 JUMPDEST DUP3 DUP3 LT PUSH2 0x3018 JUMPI POP POP POP SWAP1 JUMP JUMPDEST PUSH1 0x20 DUP1 SWAP2 PUSH2 0x3025 DUP5 PUSH2 0x2FB2 JUMP JUMPDEST DUP2 MSTORE ADD SWAP2 ADD SWAP1 PUSH2 0x300B JUMP JUMPDEST MLOAD SWAP1 PUSH1 0xFF DUP3 AND DUP3 SUB PUSH2 0x2FC6 JUMPI JUMP JUMPDEST PUSH1 0x20 DUP2 DUP4 SUB SLT PUSH2 0x2FC6 JUMPI DUP1 MLOAD SWAP1 PUSH1 0x1 PUSH1 0x1 PUSH1 0x40 SHL SUB DUP3 GT PUSH2 0x2FC6 JUMPI ADD SWAP1 PUSH2 0x220 DUP3 DUP3 SUB SLT PUSH2 0x2FC6 JUMPI PUSH1 0x40 MLOAD SWAP2 PUSH2 0x3073 DUP4 PUSH2 0x2DA2 JUMP JUMPDEST DUP1 MLOAD PUSH1 0x1 PUSH1 0x1 PUSH1 0x40 SHL SUB DUP2 GT PUSH2 0x2FC6 JUMPI DUP3 PUSH2 0x308F SWAP2 DUP4 ADD PUSH2 0x2FCB JUMP JUMPDEST DUP4 MSTORE PUSH1 0x20 DUP2 ADD MLOAD PUSH1 0x7 DUP2 LT ISZERO PUSH2 0x2FC6 JUMPI PUSH1 0x20 DUP5 ADD MSTORE PUSH1 0x40 DUP2 ADD MLOAD PUSH1 0x40 DUP5 ADD MSTORE PUSH1 0x60 DUP2 ADD MLOAD PUSH1 0x60 DUP5 ADD MSTORE PUSH1 0x80 DUP2 ADD MLOAD PUSH1 0x80 DUP5 ADD MSTORE PUSH2 0x30CE PUSH1 0xA0 DUP3 ADD PUSH2 0x3030 JUMP JUMPDEST PUSH1 0xA0 DUP5 ADD MSTORE PUSH2 0x30DF PUSH1 0xC0 DUP3 ADD PUSH2 0x3030 JUMP JUMPDEST PUSH1 0xC0 DUP5 ADD MSTORE PUSH1 0xE0 DUP2 ADD MLOAD PUSH1 0xE0 DUP5 ADD MSTORE PUSH2 0x100 DUP2 ADD MLOAD PUSH2 0x100 DUP5 ADD MSTORE PUSH2 0x3107 PUSH2 0x120 DUP3 ADD PUSH2 0x3030 JUMP JUMPDEST PUSH2 0x120 DUP5 ADD MSTORE PUSH2 0x311A PUSH2 0x140 DUP3 ADD PUSH2 0x3030 JUMP JUMPDEST PUSH2 0x140 DUP5 ADD MSTORE PUSH2 0x160 DUP2 ADD MLOAD PUSH2 0x160 DUP5 ADD MSTORE PUSH2 0x180 DUP2 ADD MLOAD PUSH2 0x180 DUP5 ADD MSTORE PUSH2 0x1A0 DUP2 ADD MLOAD PUSH1 0x1 PUSH1 0x1 PUSH1 0x40 SHL SUB DUP2 GT PUSH2 0x2FC6 JUMPI DUP2 ADD DUP3 PUSH1 0x1F DUP3 ADD SLT ISZERO PUSH2 0x2FC6 JUMPI DUP1 MLOAD PUSH2 0x3164 DUP2 PUSH2 0x2F0B JUMP JUMPDEST SWAP2 PUSH2 0x3172 PUSH1 0x40 MLOAD SWAP4 DUP5 PUSH2 0x2DD4 JUMP JUMPDEST DUP2 DUP4 MSTORE PUSH1 0x20 DUP1 DUP5 ADD SWAP3 PUSH1 0x6 SHL DUP3 ADD ADD SWAP1 DUP6 DUP3 GT PUSH2 0x2FC6 JUMPI PUSH1 0x20 ADD SWAP2 JUMPDEST DUP2 DUP4 LT PUSH2 0x3231 JUMPI POP POP POP PUSH2 0x1A0 DUP5 ADD MSTORE PUSH2 0x1C0 DUP2 ADD MLOAD PUSH2 0x1C0 DUP5 ADD MSTORE PUSH2 0x1E0 DUP2 ADD MLOAD PUSH1 0x1 PUSH1 0x1 PUSH1 0x40 SHL SUB DUP2 GT PUSH2 0x2FC6 JUMPI DUP3 PUSH2 0x31CA SWAP2 DUP4 ADD PUSH2 0x2FCB JUMP JUMPDEST PUSH2 0x1E0 DUP5 ADD MSTORE PUSH2 0x200 DUP2 ADD MLOAD SWAP1 PUSH1 0x1 PUSH1 0x1 PUSH1 0x40 SHL SUB DUP3 GT PUSH2 0x2FC6 JUMPI ADD DUP2 PUSH1 0x1F DUP3 ADD SLT ISZERO PUSH2 0x2FC6 JUMPI DUP1 MLOAD PUSH2 0x31FC DUP2 PUSH2 0x2ECB JUMP JUMPDEST SWAP3 PUSH2 0x320A PUSH1 0x40 MLOAD SWAP5 DUP6 PUSH2 0x2DD4 JUMP JUMPDEST DUP2 DUP5 MSTORE PUSH1 0x20 DUP3 DUP5 ADD ADD GT PUSH2 0x2FC6 JUMPI PUSH2 0x3228 SWAP2 PUSH1 0x20 DUP1 DUP6 ADD SWAP2 ADD PUSH2 0x2BA0 JUMP JUMPDEST PUSH2 0x200 DUP3 ADD MSTORE SWAP1 JUMP JUMPDEST PUSH1 0x40 DUP4 DUP8 SUB SLT PUSH2 0x2FC6 JUMPI PUSH1 0x40 MLOAD SWAP1 PUSH1 0x40 DUP3 ADD SWAP1 DUP3 DUP3 LT PUSH1 0x1 PUSH1 0x1 PUSH1 0x40 SHL SUB DUP4 GT OR PUSH2 0x2DBE JUMPI PUSH1 0x40 SWAP3 PUSH1 0x20 SWAP3 DUP5 MSTORE PUSH2 0x3267 DUP7 PUSH2 0x2FB2 JUMP JUMPDEST DUP2 MSTORE DUP3 DUP7 ADD MLOAD DUP4 DUP3 ADD MSTORE DUP2 MSTORE ADD SWAP3 ADD SWAP2 PUSH2 0x318E JUMP JUMPDEST ISZERO PUSH2 0x3283 JUMPI JUMP JUMPDEST PUSH1 0x40 MLOAD PUSH3 0x461BCD PUSH1 0xE5 SHL DUP2 MSTORE PUSH1 0x20 PUSH1 0x4 DUP3 ADD MSTORE PUSH1 0x26 PUSH1 0x24 DUP3 ADD MSTORE PUSH32 0x4E6F74206F776E6572206F72204D697373696F6E466163746F72792061757468 PUSH1 0x44 DUP3 ADD MSTORE PUSH6 0x1BDC9A5E9959 PUSH1 0xD2 SHL PUSH1 0x64 DUP3 ADD MSTORE PUSH1 0x84 SWAP1 REVERT JUMPDEST SWAP2 SWAP1 DUP3 ADD DUP1 SWAP3 GT PUSH2 0x2EF5 JUMPI JUMP JUMPDEST SWAP2 SWAP1 DUP3 SUB SWAP2 DUP3 GT PUSH2 0x2EF5 JUMPI JUMP JUMPDEST ISZERO PUSH2 0x32F8 JUMPI JUMP JUMPDEST PUSH1 0x40 MLOAD PUSH3 0x461BCD PUSH1 0xE5 SHL DUP2 MSTORE PUSH1 0x20 PUSH1 0x4 DUP3 ADD MSTORE PUSH1 0xF PUSH1 0x24 DUP3 ADD MSTORE PUSH15 0x496E76616C69642061646472657373 PUSH1 0x88 SHL PUSH1 0x44 DUP3 ADD MSTORE PUSH1 0x64 SWAP1 REVERT JUMPDEST DUP1 ISZERO PUSH2 0x2EF5 JUMPI PUSH1 0x0 NOT ADD SWAP1 JUMP JUMPDEST SWAP1 DUP2 PUSH1 0x20 SWAP2 SUB SLT PUSH2 0x2FC6 JUMPI MLOAD DUP1 ISZERO ISZERO DUP2 SUB PUSH2 0x2FC6 JUMPI SWAP1 JUMP JUMPDEST PUSH1 0x8 DUP3 LT ISZERO PUSH2 0x2B4D JUMPI MSTORE JUMP JUMPDEST PUSH1 0x2 SLOAD DUP1 ISZERO PUSH2 0x35F3 JUMPI PUSH3 0x4F19FF NOT TIMESTAMP ADD TIMESTAMP DUP2 GT PUSH2 0x2EF5 JUMPI PUSH3 0x278CFF NOT TIMESTAMP ADD TIMESTAMP DUP2 GT PUSH2 0x2EF5 JUMPI PUSH1 0x0 SWAP3 SWAP2 DUP3 DUP1 JUMPDEST PUSH2 0x3505 JUMPI JUMPDEST POP PUSH2 0x339B DUP5 PUSH2 0x2F22 JUMP JUMPDEST PUSH2 0x33A4 DUP6 PUSH2 0x2F22 JUMP JUMPDEST SWAP6 PUSH2 0x33AE DUP7 PUSH2 0x2F54 JUMP JUMPDEST SWAP5 PUSH1 0x0 SWAP1 JUMPDEST DUP1 ISZERO ISZERO DUP1 PUSH2 0x34FC JUMPI JUMPDEST ISZERO PUSH2 0x34F1 JUMPI PUSH1 0x0 NOT ADD SWAP1 PUSH2 0x33CF DUP3 PUSH2 0x2CB6 JUMP JUMPDEST PUSH1 0x1 DUP1 PUSH1 0xA0 SHL SUB SWAP2 SLOAD SWAP1 PUSH1 0x3 SHL SHR AND DUP1 PUSH1 0x0 MSTORE PUSH1 0xD PUSH1 0x20 MSTORE PUSH1 0xFF PUSH1 0x40 PUSH1 0x0 KECCAK256 SLOAD AND PUSH1 0x40 MLOAD PUSH4 0x1F385F79 PUSH1 0xE2 SHL DUP2 MSTORE PUSH1 0x0 DUP2 PUSH1 0x4 DUP2 DUP7 GAS STATICCALL SWAP1 DUP2 ISZERO PUSH2 0x34E5 JUMPI DUP13 SWAP2 DUP11 SWAP2 PUSH1 0x0 SWAP2 PUSH2 0x34CC JUMPI JUMPDEST POP DUP10 PUSH1 0xE0 DUP3 ADD DUP2 DUP2 MLOAD LT DUP1 PUSH2 0x34A5 JUMPI JUMPDEST ISZERO PUSH2 0x349A JUMPI POP POP PUSH2 0x100 ADD MLOAD LT JUMPDEST PUSH2 0x348B JUMPI DUP3 SWAP2 PUSH2 0x204C DUP6 PUSH2 0x3459 SWAP4 DUP2 SWAP7 PUSH2 0x3453 PUSH1 0x1 SWAP10 DUP14 PUSH2 0x2F9E JUMP JUMPDEST MSTORE PUSH2 0x2F9E JUMP JUMPDEST PUSH1 0x0 MSTORE PUSH1 0x10 PUSH1 0x20 MSTORE PUSH2 0x346E PUSH1 0x40 PUSH1 0x0 KECCAK256 PUSH2 0x2DF5 JUMP JUMPDEST PUSH2 0x3478 DUP3 DUP11 PUSH2 0x2F9E JUMP JUMPDEST MSTORE PUSH2 0x3483 DUP2 DUP10 PUSH2 0x2F9E JUMP JUMPDEST POP ADD SWAP1 PUSH2 0x33B3 JUMP JUMPDEST POP SWAP5 SWAP10 SWAP9 POP SWAP3 SWAP6 POP POP POP POP POP POP JUMP JUMPDEST SWAP2 POP SWAP2 POP MLOAD LT PUSH2 0x3437 JUMP JUMPDEST POP SWAP3 POP POP SWAP2 POP PUSH1 0x8 DUP4 LT ISZERO PUSH2 0x2B4D JUMPI DUP13 SWAP2 DUP10 DUP12 SWAP3 PUSH1 0x6 DUP7 EQ DUP1 PUSH2 0x3429 JUMPI POP PUSH1 0x7 DUP7 EQ PUSH2 0x3429 JUMP JUMPDEST PUSH2 0x34DF SWAP2 RETURNDATASIZE DUP1 SWAP2 DUP4 RETURNDATACOPY PUSH2 0x2743 DUP2 DUP4 PUSH2 0x2DD4 JUMP JUMPDEST CODESIZE PUSH2 0x3419 JUMP JUMPDEST PUSH1 0x40 MLOAD RETURNDATASIZE PUSH1 0x0 DUP3 RETURNDATACOPY RETURNDATASIZE SWAP1 REVERT JUMPDEST POP SWAP2 SWAP7 SWAP6 POP SWAP3 POP POP POP JUMP JUMPDEST POP DUP8 DUP3 LT PUSH2 0x33BC JUMP JUMPDEST PUSH1 0x0 SWAP5 SWAP4 SWAP5 NOT ADD SWAP3 PUSH2 0x3516 DUP5 PUSH2 0x2CB6 JUMP JUMPDEST PUSH1 0x1 DUP1 PUSH1 0xA0 SHL SUB SWAP2 SLOAD SWAP1 PUSH1 0x3 SHL SHR AND DUP1 PUSH1 0x0 MSTORE PUSH1 0xD PUSH1 0x20 MSTORE PUSH1 0x4 PUSH1 0x0 PUSH1 0xFF PUSH1 0x40 DUP3 KECCAK256 SLOAD AND SWAP3 PUSH1 0x40 MLOAD SWAP3 DUP4 DUP1 SWAP3 PUSH4 0x1F385F79 PUSH1 0xE2 SHL DUP3 MSTORE GAS STATICCALL SWAP1 DUP2 ISZERO PUSH2 0x34E5 JUMPI DUP6 SWAP3 DUP6 SWAP2 PUSH1 0x0 SWAP4 PUSH2 0x35D8 JUMPI JUMPDEST POP PUSH1 0xE0 DUP4 ADD SWAP1 DUP3 DUP3 MLOAD LT SWAP1 DUP2 PUSH2 0x35A8 JUMPI JUMPDEST POP ISZERO PUSH2 0x359D JUMPI POP POP PUSH2 0x100 ADD MLOAD LT JUMPDEST PUSH2 0x3596 JUMPI PUSH2 0x358F DUP5 SWAP2 PUSH2 0x2EE6 JUMP JUMPDEST SWAP5 SWAP4 PUSH2 0x338C JUMP JUMPDEST SWAP4 SWAP3 PUSH2 0x3391 JUMP JUMPDEST SWAP2 POP SWAP2 POP MLOAD LT PUSH2 0x3581 JUMP JUMPDEST SWAP3 POP POP SWAP3 POP PUSH1 0x8 DUP2 LT ISZERO PUSH2 0x2B4D JUMPI DUP6 SWAP3 DUP2 PUSH1 0x6 DUP8 SWAP4 EQ SWAP1 DUP2 ISZERO PUSH2 0x35CD JUMPI JUMPDEST POP CODESIZE PUSH2 0x3572 JUMP JUMPDEST PUSH1 0x7 SWAP2 POP EQ CODESIZE PUSH2 0x35C6 JUMP JUMPDEST PUSH2 0x35EC SWAP2 SWAP4 RETURNDATASIZE DUP1 SWAP2 DUP4 RETURNDATACOPY PUSH2 0x2743 DUP2 DUP4 PUSH2 0x2DD4 JUMP JUMPDEST SWAP2 CODESIZE PUSH2 0x3561 JUMP JUMPDEST POP PUSH1 0x20 PUSH1 0x40 MLOAD SWAP2 PUSH2 0x3604 DUP3 DUP5 PUSH2 0x2DD4 JUMP JUMPDEST PUSH1 0x0 DUP4 MSTORE PUSH1 0x0 CALLDATASIZE DUP2 CALLDATACOPY PUSH1 0x40 MLOAD SWAP3 PUSH2 0x361B DUP4 DUP6 PUSH2 0x2DD4 JUMP JUMPDEST PUSH1 0x0 DUP5 MSTORE PUSH1 0x0 CALLDATASIZE DUP2 CALLDATACOPY PUSH1 0x40 MLOAD SWAP3 PUSH1 0x0 PUSH2 0x3634 DUP3 DUP7 PUSH2 0x2DD4 JUMP JUMPDEST DUP5 MSTORE PUSH1 0x1F NOT DUP2 ADD PUSH1 0x0 JUMPDEST DUP2 DUP2 LT PUSH2 0x364D JUMPI POP POP POP SWAP3 SWAP2 SWAP1 JUMP JUMPDEST PUSH1 0x60 DUP7 DUP3 ADD DUP5 ADD MSTORE DUP3 ADD PUSH2 0x363E JUMP JUMPDEST PUSH1 0x8 SLOAD DUP1 ISZERO PUSH2 0x36BE JUMPI PUSH3 0x15180 DUP2 ADD SWAP2 DUP3 DUP3 GT PUSH2 0x2EF5 JUMPI DUP3 TIMESTAMP LT ISZERO PUSH2 0x36A3 JUMPI PUSH1 0x9 SLOAD PUSH1 0xA SLOAD PUSH1 0x1 PUSH1 0x1 PUSH1 0xA0 SHL SUB SWAP1 DUP2 AND SWAP5 SWAP2 AND SWAP2 SWAP1 PUSH2 0x369C SWAP1 TIMESTAMP SWAP1 PUSH2 0x32E4 JUMP JUMPDEST SWAP2 SWAP4 SWAP3 SWAP2 SWAP1 JUMP JUMPDEST PUSH1 0x9 SLOAD PUSH1 0xA SLOAD PUSH1 0x1 PUSH1 0x1 PUSH1 0xA0 SHL SUB SWAP2 DUP3 AND SWAP5 POP AND SWAP2 SWAP1 PUSH1 0x0 SWAP1 JUMP JUMPDEST POP PUSH1 0x0 SWAP1 PUSH1 0x0 SWAP1 PUSH1 0x0 SWAP1 PUSH1 0x0 SWAP1 JUMP JUMPDEST PUSH1 0x1 PUSH1 0x1 PUSH1 0xA0 SHL SUB AND PUSH1 0x0 SWAP1 DUP2 MSTORE PUSH1 0xF PUSH1 0x20 MSTORE PUSH1 0x40 DUP2 KECCAK256 DUP1 SLOAD DUP3 SWAP2 DUP3 SWAP2 DUP3 SWAP2 DUP3 JUMPDEST DUP3 DUP2 LT PUSH2 0x37B5 JUMPI POP POP POP PUSH1 0x3 SLOAD SWAP2 PUSH1 0xFF DUP4 AND GT SWAP1 PUSH1 0xFF DUP3 ISZERO SWAP4 PUSH1 0x8 SHR AND GT SWAP2 DUP3 ISZERO SWAP3 DUP3 DUP1 PUSH2 0x37AE JUMPI JUMPDEST PUSH2 0x37A0 JUMPI DUP2 PUSH2 0x3798 JUMPI JUMPDEST POP PUSH2 0x378C JUMPI DUP2 PUSH2 0x3784 JUMPI JUMPDEST POP PUSH2 0x377A JUMPI PUSH3 0x93A80 DUP2 ADD DUP1 SWAP2 GT PUSH2 0x2EF5 JUMPI PUSH2 0x3749 SWAP1 TIMESTAMP SWAP1 PUSH2 0x32E4 JUMP JUMPDEST SWAP1 PUSH3 0x278D00 DUP2 ADD DUP1 SWAP2 GT PUSH2 0x2EF5 JUMPI PUSH2 0x3762 SWAP1 TIMESTAMP SWAP1 PUSH2 0x32E4 JUMP JUMPDEST GT ISZERO PUSH2 0x3772 JUMPI PUSH1 0x2 SWAP1 JUMPDEST PUSH1 0x0 SWAP2 SWAP1 JUMP JUMPDEST PUSH1 0x1 SWAP1 PUSH2 0x376C JUMP JUMPDEST POP POP PUSH1 0x0 SWAP1 PUSH1 0x2 SWAP1 JUMP JUMPDEST SWAP1 POP CODESIZE PUSH2 0x372C JUMP JUMPDEST POP POP POP POP PUSH1 0x0 SWAP1 PUSH1 0x1 SWAP1 JUMP JUMPDEST SWAP1 POP CODESIZE PUSH2 0x3721 JUMP JUMPDEST POP POP POP POP POP POP PUSH1 0x1 SWAP1 PUSH1 0x0 SWAP1 JUMP JUMPDEST POP DUP1 PUSH2 0x3717 JUMP JUMPDEST PUSH2 0x37BF DUP2 DUP4 PUSH2 0x2CE7 JUMP JUMPDEST SWAP1 SLOAD SWAP1 PUSH1 0x3 SHL SHR PUSH3 0x278D00 DUP2 ADD DUP1 DUP3 GT PUSH2 0x2EF5 JUMPI TIMESTAMP LT PUSH2 0x37E3 JUMPI JUMPDEST POP PUSH1 0x1 ADD PUSH2 0x36EE JUMP JUMPDEST SWAP4 PUSH2 0x37ED SWAP1 PUSH2 0x2EE6 JUMP JUMPDEST SWAP4 DUP8 ISZERO DUP1 ISZERO PUSH2 0x3843 JUMPI JUMPDEST PUSH2 0x383B JUMPI JUMPDEST PUSH3 0x93A80 DUP2 ADD DUP1 DUP3 GT PUSH2 0x2EF5 JUMPI TIMESTAMP LT ISZERO PUSH2 0x37DA JUMPI SWAP5 PUSH2 0x381A SWAP1 PUSH2 0x2EE6 JUMP JUMPDEST SWAP5 DUP7 ISZERO DUP1 ISZERO PUSH2 0x3832 JUMPI JUMPDEST ISZERO PUSH2 0x37DA JUMPI SWAP6 POP PUSH1 0x1 PUSH2 0x37DA JUMP JUMPDEST POP DUP7 DUP2 LT PUSH2 0x3824 JUMP JUMPDEST SWAP7 POP DUP7 PUSH2 0x37FC JUMP JUMPDEST POP DUP8 DUP2 LT PUSH2 0x37F7 JUMP JUMPDEST ISZERO PUSH2 0x3853 JUMPI JUMP JUMPDEST PUSH1 0x40 MLOAD PUSH3 0x461BCD PUSH1 0xE5 SHL DUP2 MSTORE PUSH1 0x20 PUSH1 0x4 DUP3 ADD MSTORE PUSH1 0x36 PUSH1 0x24 DUP3 ADD MSTORE PUSH32 0x4D697373696F6E466163746F72793A2063616C6C6572206973206E6F74206120 PUSH1 0x44 DUP3 ADD MSTORE PUSH22 0x1D985B1A59081B5A5CDCDA5BDB8818DBDB9D1C9858DD PUSH1 0x52 SHL PUSH1 0x64 DUP3 ADD MSTORE PUSH1 0x84 SWAP1 REVERT JUMPDEST PUSH1 0x0 SLOAD PUSH1 0x1 PUSH1 0x1 PUSH1 0xA0 SHL SUB AND CALLER SUB PUSH2 0x38CB JUMPI JUMP JUMPDEST PUSH4 0x118CDAA7 PUSH1 0xE0 SHL PUSH1 0x0 MSTORE CALLER PUSH1 0x4 MSTORE PUSH1 0x24 PUSH1 0x0 REVERT JUMPDEST PUSH1 0x2 PUSH1 0x1 SLOAD EQ PUSH2 0x38F1 JUMPI PUSH1 0x2 PUSH1 0x1 SSTORE JUMP JUMPDEST PUSH4 0x3EE5AEB5 PUSH1 0xE0 SHL PUSH1 0x0 MSTORE PUSH1 0x4 PUSH1 0x0 REVERT JUMPDEST PUSH1 0x0 DUP1 SLOAD PUSH1 0x1 PUSH1 0x1 PUSH1 0xA0 SHL SUB SWAP3 DUP4 AND PUSH1 0x1 PUSH1 0x1 PUSH1 0xA0 SHL SUB NOT DUP3 AND DUP2 OR DUP4 SSTORE SWAP3 AND SWAP1 PUSH32 0x8BE0079C531659141344CD1FD0A4F28419497F9722A3DAAFE3B4186F6B6457E0 SWAP1 DUP1 LOG3 JUMP JUMPDEST PUSH1 0x7 DUP2 LT ISZERO PUSH2 0x2B4D JUMPI PUSH1 0x1 DUP2 EQ PUSH2 0x3A73 JUMPI PUSH1 0x0 PUSH1 0x2 DUP3 EQ PUSH2 0x3A46 JUMPI POP PUSH1 0x3 DUP2 EQ PUSH2 0x3A20 JUMPI PUSH1 0x0 PUSH1 0x4 DUP3 EQ PUSH2 0x39FA JUMPI POP PUSH1 0x5 DUP2 EQ PUSH2 0x39D5 JUMPI PUSH1 0x6 PUSH1 0x0 SWAP2 EQ PUSH2 0x39AF JUMPI POP PUSH1 0x40 MLOAD PUSH2 0x3999 PUSH1 0x40 DUP3 PUSH2 0x2DD4 JUMP JUMPDEST PUSH1 0x6 DUP2 MSTORE PUSH6 0x437573746F6D PUSH1 0xD0 SHL PUSH1 0x20 DUP3 ADD MSTORE SWAP1 JUMP JUMPDEST POP PUSH1 0x40 MLOAD PUSH2 0x39BE PUSH1 0x40 DUP3 PUSH2 0x2DD4 JUMP JUMPDEST PUSH1 0x7 DUP2 MSTORE PUSH7 0x4D6F6E74686C79 PUSH1 0xC8 SHL PUSH1 0x20 DUP3 ADD MSTORE SWAP1 JUMP JUMPDEST POP PUSH1 0x40 MLOAD PUSH2 0x39E4 PUSH1 0x40 DUP3 PUSH2 0x2DD4 JUMP JUMPDEST PUSH1 0x6 DUP2 MSTORE PUSH6 0x5765656B6C79 PUSH1 0xD0 SHL PUSH1 0x20 DUP3 ADD MSTORE SWAP1 JUMP JUMPDEST POP POP PUSH1 0x40 DUP1 MLOAD SWAP1 PUSH2 0x3A0B SWAP1 DUP3 PUSH2 0x2DD4 JUMP JUMPDEST PUSH1 0x5 DUP2 MSTORE PUSH5 0x4461696C79 PUSH1 0xD8 SHL PUSH1 0x20 DUP3 ADD MSTORE SWAP1 JUMP JUMPDEST POP PUSH1 0x40 MLOAD PUSH2 0x3A2F PUSH1 0x40 DUP3 PUSH2 0x2DD4 JUMP JUMPDEST PUSH1 0x7 DUP2 MSTORE PUSH7 0x42694461696C79 PUSH1 0xC8 SHL PUSH1 0x20 DUP3 ADD MSTORE SWAP1 JUMP JUMPDEST POP POP PUSH1 0x40 DUP1 MLOAD SWAP1 PUSH2 0x3A57 SWAP1 DUP3 PUSH2 0x2DD4 JUMP JUMPDEST PUSH1 0xC DUP2 MSTORE PUSH12 0x517561727465724461696C79 PUSH1 0xA0 SHL PUSH1 0x20 DUP3 ADD MSTORE SWAP1 JUMP JUMPDEST POP PUSH1 0x40 MLOAD PUSH2 0x3A82 PUSH1 0x40 DUP3 PUSH2 0x2DD4 JUMP JUMPDEST PUSH1 0x6 DUP2 MSTORE PUSH6 0x486F75726C79 PUSH1 0xD0 SHL PUSH1 0x20 DUP3 ADD MSTORE SWAP1 JUMP INVALID LOG2 PUSH5 0x6970667358 0x22 SLT KECCAK256 SELFDESTRUCT 0xB5 DUP1 0xFC STOP TLOAD DUP15 0xA7 0xB3 RETURN EQ DUP12 0x4F MCOPY 0x4B PUSH12 0x3C1694CE5EA774F49E3D5CDC OR BYTE SWAP8 0xC5 PUSH5 0x736F6C6343 STOP ADDMOD 0x1E STOP CALLER "},"methodIdentifiers":{"OWNERSHIP_PROPOSAL_WINDOW()":"d3050eba","addAuthorizedAddress(address)":"42f1181e","authorized(address)":"b9181611","canEnroll(address)":"9804a586","confirmOwnershipTransfer()":"7200b829","createMission(uint8,uint256,uint256,uint256,uint8,uint8,uint256,uint256,uint8,string)":"72eecd21","getAllMissions()":"6d8a1390","getFactorySummary()":"e5047770","getFundsByType(uint8)":"2e33b07f","getLatestMissions(uint256)":"7e9eae50","getMissionData(address)":"20c5718f","getMissionsByStatus(uint8)":"1e59d584","getMissionsEnded()":"b6202913","getMissionsNotEnded()":"6805036d","getOwnershipProposal()":"8c09b7c3","getPlayerLimits(address)":"cbf2080d","getPlayerParticipation(address)":"503c0b88","getTotalMissions()":"5c5bb6f2","isMission(address)":"aa1f0595","missionImplementation()":"bd487725","missionNames(address)":"b6de7b43","missionStatus(address)":"0814ab82","missionTypeCounts(uint8)":"f08e231e","missions(uint256)":"2c8fe526","monthlyLimit()":"0a6005da","owner()":"8da5cb5b","proposalProposer()":"2d771f30","proposalTimestamp()":"04a61752","proposeOwnershipTransfer(address)":"21040fc3","proposedNewOwner()":"0fc8c4ed","recordEnrollment(address)":"c17f9e59","registerMissionFunds(uint8)":"a9bea789","removeAuthorizedAddress(address)":"70712939","renounceOwnership()":"715018a6","reservedFunds(uint8)":"c416ad2a","reservedFundsBreakdown()":"df4db463","secondsTillMonthlySlot(address)":"37012762","secondsTillWeeklySlot(address)":"eff0ab92","setEnrollmentLimits(uint8,uint8)":"d41eca64","setMissionStatus(uint8)":"d8d6e8ff","totalMissionFailures()":"83fbea51","totalMissionFunds()":"63679723","totalMissionSuccesses()":"c892fde3","totalOwnerEarnedFunds()":"3589cf72","transferOwnership(address)":"f2fde38b","weeklyLimit()":"861a68d6","withdrawFunds(uint256)":"155dd5ee"}}}}}