{"contracts/MissionFactory.sol":{"MissionFactory":{"abi":[{"inputs":[{"internalType":"address","name":"_impl","type":"address"}],"stateMutability":"nonpayable","type":"constructor"},{"inputs":[],"name":"FailedDeployment","type":"error"},{"inputs":[{"internalType":"uint256","name":"balance","type":"uint256"},{"internalType":"uint256","name":"needed","type":"uint256"}],"name":"InsufficientBalance","type":"error"},{"inputs":[{"internalType":"address","name":"owner","type":"address"}],"name":"OwnableInvalidOwner","type":"error"},{"inputs":[{"internalType":"address","name":"account","type":"address"}],"name":"OwnableUnauthorizedAccount","type":"error"},{"inputs":[],"name":"ReentrancyGuardReentrantCall","type":"error"},{"anonymous":false,"inputs":[{"indexed":true,"internalType":"address","name":"addr","type":"address"}],"name":"AuthorizedAddressAdded","type":"event"},{"anonymous":false,"inputs":[{"indexed":true,"internalType":"address","name":"addr","type":"address"}],"name":"AuthorizedAddressRemoved","type":"event"},{"anonymous":false,"inputs":[{"indexed":false,"internalType":"uint8","name":"newWeekly","type":"uint8"},{"indexed":false,"internalType":"uint8","name":"newMonthly","type":"uint8"}],"name":"EnrollmentLimitUpdated","type":"event"},{"anonymous":false,"inputs":[{"indexed":true,"internalType":"address","name":"user","type":"address"},{"indexed":false,"internalType":"uint256","name":"timestamp","type":"uint256"}],"name":"EnrollmentRecorded","type":"event"},{"anonymous":false,"inputs":[{"indexed":true,"internalType":"address","name":"sender","type":"address"},{"indexed":false,"internalType":"uint256","name":"amount","type":"uint256"}],"name":"FundsReceived","type":"event"},{"anonymous":false,"inputs":[{"indexed":true,"internalType":"address","name":"to","type":"address"},{"indexed":false,"internalType":"uint256","name":"amount","type":"uint256"}],"name":"FundsWithdrawn","type":"event"},{"anonymous":false,"inputs":[{"indexed":true,"internalType":"address","name":"missionAddress","type":"address"},{"indexed":true,"internalType":"enum MissionType","name":"missionType","type":"uint8"}],"name":"MissionCreated","type":"event"},{"anonymous":false,"inputs":[{"indexed":false,"internalType":"uint256","name":"amount","type":"uint256"},{"indexed":true,"internalType":"enum MissionType","name":"missionType","type":"uint8"},{"indexed":true,"internalType":"address","name":"sender","type":"address"}],"name":"MissionFundsRegistered","type":"event"},{"anonymous":false,"inputs":[{"indexed":true,"internalType":"address","name":"confirmer","type":"address"},{"indexed":false,"internalType":"address","name":"newOwner","type":"address"},{"indexed":false,"internalType":"uint256","name":"timestamp","type":"uint256"}],"name":"OwnershipTransferConfirmed","type":"event"},{"anonymous":false,"inputs":[{"indexed":true,"internalType":"address","name":"proposer","type":"address"},{"indexed":false,"internalType":"address","name":"newOwner","type":"address"},{"indexed":false,"internalType":"uint256","name":"timestamp","type":"uint256"}],"name":"OwnershipTransferProposed","type":"event"},{"anonymous":false,"inputs":[{"indexed":true,"internalType":"address","name":"previousOwner","type":"address"},{"indexed":true,"internalType":"address","name":"newOwner","type":"address"}],"name":"OwnershipTransferred","type":"event"},{"stateMutability":"payable","type":"fallback"},{"inputs":[],"name":"OWNERSHIP_PROPOSAL_WINDOW","outputs":[{"internalType":"uint256","name":"","type":"uint256"}],"stateMutability":"view","type":"function"},{"inputs":[{"internalType":"address","name":"account","type":"address"}],"name":"addAuthorizedAddress","outputs":[],"stateMutability":"nonpayable","type":"function"},{"inputs":[{"internalType":"address","name":"","type":"address"}],"name":"authorized","outputs":[{"internalType":"bool","name":"","type":"bool"}],"stateMutability":"view","type":"function"},{"inputs":[{"internalType":"address","name":"user","type":"address"}],"name":"canEnroll","outputs":[{"internalType":"bool","name":"ok","type":"bool"},{"internalType":"enum Limit","name":"breach","type":"uint8"}],"stateMutability":"view","type":"function"},{"inputs":[],"name":"confirmOwnershipTransfer","outputs":[],"stateMutability":"nonpayable","type":"function"},{"inputs":[{"internalType":"enum MissionType","name":"_missionType","type":"uint8"},{"internalType":"uint256","name":"_enrollmentStart","type":"uint256"},{"internalType":"uint256","name":"_enrollmentEnd","type":"uint256"},{"internalType":"uint256","name":"_enrollmentAmount","type":"uint256"},{"internalType":"uint8","name":"_enrollmentMinPlayers","type":"uint8"},{"internalType":"uint8","name":"_enrollmentMaxPlayers","type":"uint8"},{"internalType":"uint256","name":"_missionStart","type":"uint256"},{"internalType":"uint256","name":"_missionEnd","type":"uint256"},{"internalType":"uint8","name":"_missionRounds","type":"uint8"},{"internalType":"string","name":"_missionName","type":"string"}],"name":"createMission","outputs":[{"internalType":"address","name":"","type":"address"},{"internalType":"string","name":"","type":"string"}],"stateMutability":"payable","type":"function"},{"inputs":[],"name":"getAllMissions","outputs":[{"internalType":"address[]","name":"","type":"address[]"},{"internalType":"enum Status[]","name":"","type":"uint8[]"},{"internalType":"string[]","name":"","type":"string[]"}],"stateMutability":"view","type":"function"},{"inputs":[],"name":"getFactorySummary","outputs":[{"internalType":"address","name":"ownerAddress","type":"address"},{"internalType":"address","name":"factoryAddress","type":"address"},{"internalType":"address","name":"implementation","type":"address"},{"internalType":"uint256","name":"totalMissions","type":"uint256"},{"internalType":"uint256","name":"weekly","type":"uint256"},{"internalType":"uint256","name":"monthly","type":"uint256"},{"internalType":"uint256","name":"missionFunds","type":"uint256"},{"internalType":"uint256","name":"ownerFunds","type":"uint256"},{"internalType":"uint256","name":"successes","type":"uint256"},{"internalType":"uint256","name":"failures","type":"uint256"},{"internalType":"uint256[6]","name":"fundsPerTypeArray","type":"uint256[6]"}],"stateMutability":"view","type":"function"},{"inputs":[{"internalType":"enum MissionType","name":"_type","type":"uint8"}],"name":"getFundsByType","outputs":[{"internalType":"uint256","name":"","type":"uint256"}],"stateMutability":"view","type":"function"},{"inputs":[{"internalType":"uint256","name":"n","type":"uint256"}],"name":"getLatestMissions","outputs":[{"internalType":"address[]","name":"","type":"address[]"},{"internalType":"uint8[]","name":"","type":"uint8[]"},{"internalType":"string[]","name":"","type":"string[]"}],"stateMutability":"view","type":"function"},{"inputs":[{"internalType":"address","name":"missionAddress","type":"address"}],"name":"getMissionData","outputs":[{"components":[{"internalType":"address[]","name":"players","type":"address[]"},{"internalType":"enum MissionType","name":"missionType","type":"uint8"},{"internalType":"uint256","name":"enrollmentStart","type":"uint256"},{"internalType":"uint256","name":"enrollmentEnd","type":"uint256"},{"internalType":"uint256","name":"enrollmentAmount","type":"uint256"},{"internalType":"uint8","name":"enrollmentMinPlayers","type":"uint8"},{"internalType":"uint8","name":"enrollmentMaxPlayers","type":"uint8"},{"internalType":"uint256","name":"missionStart","type":"uint256"},{"internalType":"uint256","name":"missionEnd","type":"uint256"},{"internalType":"uint8","name":"missionRounds","type":"uint8"},{"internalType":"uint8","name":"roundCount","type":"uint8"},{"internalType":"uint256","name":"croStart","type":"uint256"},{"internalType":"uint256","name":"croCurrent","type":"uint256"},{"components":[{"internalType":"address","name":"player","type":"address"},{"internalType":"uint256","name":"amountWon","type":"uint256"}],"internalType":"struct Mission.PlayersWon[]","name":"playersWon","type":"tuple[]"},{"internalType":"uint256","name":"pauseTimestamp","type":"uint256"},{"internalType":"address[]","name":"refundedPlayers","type":"address[]"},{"internalType":"string","name":"name","type":"string"}],"internalType":"struct Mission.MissionData","name":"","type":"tuple"}],"stateMutability":"view","type":"function"},{"inputs":[{"internalType":"enum Status","name":"s","type":"uint8"}],"name":"getMissionsByStatus","outputs":[{"internalType":"address[]","name":"","type":"address[]"},{"internalType":"uint8[]","name":"","type":"uint8[]"},{"internalType":"string[]","name":"","type":"string[]"}],"stateMutability":"view","type":"function"},{"inputs":[],"name":"getMissionsEnded","outputs":[{"internalType":"address[]","name":"","type":"address[]"},{"internalType":"uint8[]","name":"","type":"uint8[]"},{"internalType":"string[]","name":"","type":"string[]"}],"stateMutability":"view","type":"function"},{"inputs":[],"name":"getMissionsNotEnded","outputs":[{"internalType":"address[]","name":"","type":"address[]"},{"internalType":"uint8[]","name":"","type":"uint8[]"},{"internalType":"string[]","name":"","type":"string[]"}],"stateMutability":"view","type":"function"},{"inputs":[],"name":"getOwnershipProposal","outputs":[{"internalType":"address","name":"newOwner","type":"address"},{"internalType":"address","name":"proposer","type":"address"},{"internalType":"uint256","name":"timestamp","type":"uint256"},{"internalType":"uint256","name":"timeLeft","type":"uint256"}],"stateMutability":"view","type":"function"},{"inputs":[{"internalType":"address","name":"player","type":"address"}],"name":"getPlayerLimits","outputs":[{"internalType":"uint8","name":"weekUsed","type":"uint8"},{"internalType":"uint8","name":"weekMax","type":"uint8"},{"internalType":"uint8","name":"monthUsed","type":"uint8"},{"internalType":"uint8","name":"monthMax","type":"uint8"},{"internalType":"uint256","name":"secToWeek","type":"uint256"},{"internalType":"uint256","name":"secToMonth","type":"uint256"}],"stateMutability":"view","type":"function"},{"inputs":[{"internalType":"address","name":"player","type":"address"}],"name":"getPlayerParticipation","outputs":[{"internalType":"address[]","name":"","type":"address[]"},{"internalType":"enum Status[]","name":"","type":"uint8[]"},{"internalType":"string[]","name":"","type":"string[]"}],"stateMutability":"view","type":"function"},{"inputs":[],"name":"getTotalMissions","outputs":[{"internalType":"uint256","name":"","type":"uint256"}],"stateMutability":"view","type":"function"},{"inputs":[{"internalType":"address","name":"","type":"address"}],"name":"isMission","outputs":[{"internalType":"bool","name":"","type":"bool"}],"stateMutability":"view","type":"function"},{"inputs":[],"name":"missionImplementation","outputs":[{"internalType":"address","name":"","type":"address"}],"stateMutability":"view","type":"function"},{"inputs":[{"internalType":"address","name":"","type":"address"}],"name":"missionNames","outputs":[{"internalType":"string","name":"","type":"string"}],"stateMutability":"view","type":"function"},{"inputs":[{"internalType":"address","name":"","type":"address"}],"name":"missionStatus","outputs":[{"internalType":"enum Status","name":"","type":"uint8"}],"stateMutability":"view","type":"function"},{"inputs":[{"internalType":"enum MissionType","name":"","type":"uint8"}],"name":"missionTypeCounts","outputs":[{"internalType":"uint256","name":"","type":"uint256"}],"stateMutability":"view","type":"function"},{"inputs":[{"internalType":"uint256","name":"","type":"uint256"}],"name":"missions","outputs":[{"internalType":"address","name":"","type":"address"}],"stateMutability":"view","type":"function"},{"inputs":[],"name":"monthlyLimit","outputs":[{"internalType":"uint8","name":"","type":"uint8"}],"stateMutability":"view","type":"function"},{"inputs":[],"name":"owner","outputs":[{"internalType":"address","name":"","type":"address"}],"stateMutability":"view","type":"function"},{"inputs":[],"name":"proposalProposer","outputs":[{"internalType":"address","name":"","type":"address"}],"stateMutability":"view","type":"function"},{"inputs":[],"name":"proposalTimestamp","outputs":[{"internalType":"uint256","name":"","type":"uint256"}],"stateMutability":"view","type":"function"},{"inputs":[{"internalType":"address","name":"newOwner","type":"address"}],"name":"proposeOwnershipTransfer","outputs":[],"stateMutability":"nonpayable","type":"function"},{"inputs":[],"name":"proposedNewOwner","outputs":[{"internalType":"address","name":"","type":"address"}],"stateMutability":"view","type":"function"},{"inputs":[{"internalType":"address","name":"user","type":"address"}],"name":"recordEnrollment","outputs":[],"stateMutability":"nonpayable","type":"function"},{"inputs":[{"internalType":"enum MissionType","name":"missionType","type":"uint8"}],"name":"registerMissionFunds","outputs":[],"stateMutability":"payable","type":"function"},{"inputs":[{"internalType":"address","name":"account","type":"address"}],"name":"removeAuthorizedAddress","outputs":[],"stateMutability":"nonpayable","type":"function"},{"inputs":[],"name":"renounceOwnership","outputs":[],"stateMutability":"nonpayable","type":"function"},{"inputs":[{"internalType":"enum MissionType","name":"","type":"uint8"}],"name":"reservedFunds","outputs":[{"internalType":"uint256","name":"","type":"uint256"}],"stateMutability":"view","type":"function"},{"inputs":[],"name":"reservedFundsBreakdown","outputs":[{"internalType":"uint256[7]","name":"","type":"uint256[7]"}],"stateMutability":"view","type":"function"},{"inputs":[{"internalType":"address","name":"user","type":"address"}],"name":"secondsTillMonthlySlot","outputs":[{"internalType":"uint256","name":"","type":"uint256"}],"stateMutability":"view","type":"function"},{"inputs":[{"internalType":"address","name":"user","type":"address"}],"name":"secondsTillWeeklySlot","outputs":[{"internalType":"uint256","name":"","type":"uint256"}],"stateMutability":"view","type":"function"},{"inputs":[{"internalType":"uint8","name":"_weekly","type":"uint8"},{"internalType":"uint8","name":"_monthly","type":"uint8"}],"name":"setEnrollmentLimits","outputs":[],"stateMutability":"nonpayable","type":"function"},{"inputs":[{"internalType":"enum Status","name":"newStatus","type":"uint8"}],"name":"setMissionStatus","outputs":[],"stateMutability":"nonpayable","type":"function"},{"inputs":[],"name":"totalMissionFailures","outputs":[{"internalType":"uint256","name":"","type":"uint256"}],"stateMutability":"view","type":"function"},{"inputs":[],"name":"totalMissionFunds","outputs":[{"internalType":"uint256","name":"","type":"uint256"}],"stateMutability":"view","type":"function"},{"inputs":[],"name":"totalMissionSuccesses","outputs":[{"internalType":"uint256","name":"","type":"uint256"}],"stateMutability":"view","type":"function"},{"inputs":[],"name":"totalOwnerEarnedFunds","outputs":[{"internalType":"uint256","name":"","type":"uint256"}],"stateMutability":"view","type":"function"},{"inputs":[{"internalType":"address","name":"newOwner","type":"address"}],"name":"transferOwnership","outputs":[],"stateMutability":"nonpayable","type":"function"},{"inputs":[],"name":"weeklyLimit","outputs":[{"internalType":"uint8","name":"","type":"uint8"}],"stateMutability":"view","type":"function"},{"inputs":[{"internalType":"uint256","name":"amount","type":"uint256"}],"name":"withdrawFunds","outputs":[],"stateMutability":"nonpayable","type":"function"},{"stateMutability":"payable","type":"receive"}],"evm":{"bytecode":{"linkReferences":{},"object":"60a03461012557601f613c1138819003918201601f19168301916001600160401b0383118484101761012a5780849260209460405283398101031261012557516001600160a01b03811680820361012557331561010f5760008054336001600160a01b0319821681178355604051939290916001600160a01b0316907f8be0079c531659141344cd1fd0a4f28419497f9722a3daafe3b4186f6b6457e09080a360018055610a0461ffff196003541617600355156100e15750608052604051613ad09081610141823960805181818161046d01528181610aec01526112550152f35b62461bcd60e51b8152602060048201526009602482015268696d706c207a65726f60b81b6044820152606490fd5b631e4fbdf760e01b600052600060045260246000fd5b600080fd5b634e487b7160e01b600052604160045260246000fdfe6080806040526004361015610011575b005b600090813560e01c90816304a6175214612b26575080630814ab8214612adf5780630a6005da14612abb5780630fc8c4ed14612a92578063155dd5ee1461292a5780631e59d5841461279857806320c5718f1461251057806321040fc3146124005780632c8fe526146123bc5780632d771f30146123935780632e33b07f146108785780633589cf7214612375578063370127621461229657806342f1181e146121a5578063503c0b8814611f335780635c5bb6f214611f155780636367972314611ef75780636805036d14611d975780636d8a139014611d6c5780637071293914611c81578063715018a614611c275780637200b82914611abf57806372eecd211461115d5780637e9eae501461103f57806383fbea5114611021578063861a68d6146110005780638c09b7c314610fc05780638da5cb5b14610f995780639804a58614610f4f578063a9bea78914610ddb578063aa1f059514610d99578063b620291314610bb3578063b6de7b4314610b5d578063b918161114610b1b578063bd48772514610ad6578063c17f9e59146108a2578063c416ad2a14610878578063c892fde31461085a578063cbf2080d146106c3578063d3050eba146106a5578063d41eca64146105f7578063d8d6e8ff14610570578063df4db463146104e9578063e5047770146103ba578063eff0ab92146102a9578063f08e231e146102765763f2fde38b0361000f5734610273576020366003190112610273576004356001600160a01b0381168082036102715761024c6138b9565b1561025d5761025a90613904565b80f35b631e4fbdf760e01b82526004829052602482fd5b825b80fd5b5034610273576020366003190112610273576004359060078210156102735760206102a083612eb4565b54604051908152f35b5034610273576020366003190112610273576004356001600160a01b038116908190036103b6578152600f6020526040812080548291825b82811061033157505050816102fd57602091505b604051908152f35b62093a80820180921161031d575061031860209142906132e6565b6102f5565b634e487b7160e01b81526011600452602490fd5b61033b8183612ce9565b90549060031b1c62093a8081018091116103a257421061035e575b6001016102e1565b84158015610389575b15610356579350600161037a8583612ce9565b90549060031b1c949050610356565b50846103958284612ce9565b90549060031b1c10610367565b634e487b7160e01b85526011600452602485fd5b5080fd5b503461027357806003193601126102735760c0806040516103db8282612dd6565b3690376040516103eb8282612dd6565b81368237825b60078110156104315761040381612e9b565b54600682101561041d57600582901b8301526001016103f1565b634e487b7160e01b85526032600452602485fd5b50829060018060a01b038254169260025490600354906004546005549160ff60065494600754966040519a8b523060208c015260018060a01b037f00000000000000000000000000000000000000000000000000000000000000001660408c015260608b015281811660808b015260081c1660a089015287015260e086015261010085015261012084015261014083019091905b600682106104d35761020084f35b60208060019285518152019301910190916104c5565b503461027357806003193601126102735760e0908160405161050b8282612dd6565b3690376040519061051c8383612dd6565b82368337805b60078110156105455760019061053781612e9b565b548160051b85015201610522565b506040519190825b6007821061055a57505050f35b602080600192855181520193019101909161054d565b50346102735760203660031901126102735760043560088110156103b657338252600c6020526105a660ff60408420541661384e565b338252600d6020526040822060ff1981541660ff8316179055600681146000146105dc57506105d6600654612ee8565b60065580f35b6007146105e65780f35b6105f1600754612ee8565b60075580f35b50346102735760403660031901126102735760043560ff81168091036103b65760243560ff8116918282036106a1577f321994b8855ae38e4fd6162f7a0bd7cde88be83aa3acc96e03c17b7f733b43e19260409260018060a01b038654163314801561068c575b6106679061327e565b8261ff006003549260081b169161ffff1916171760035582519182526020820152a180f35b50338652600b6020528386205460ff1661065e565b8380fd5b50346102735780600319360112610273576020604051620151808152f35b5034610273576020366003190112610273576004356001600160a01b038116908190036103b6578152600f602052604081208190829083809181908054915b8281106107af5750505060035494801560001461077d575080915b80610757575060c09460ff8092945b8160405197168752818316602088015216604086015260081c166060840152608083015260a0820152f35b9062278d00820180921161031d575060c09460ff610777819342906132e6565b9461072c565b62093a80810180911161079b576107959042906132e6565b9161071d565b634e487b7160e01b82526011600452602482fd5b6107b98183612ce9565b90549060031b1c62278d0081018082116108355742106107dd575b50600101610702565b956107e790612ee8565b9585158015610851575b610849575b62093a808101808211610835574210156107d4579661081490612ee8565b968815801561082c575b156107d457975060016107d4565b5088811061081e565b634e487b7160e01b86526011600452602486fd5b9450846107f6565b508581106107f1565b50346102735780600319360112610273576020600654604051908152f35b5034610273576020366003190112610273576004359060078210156102735760206102a083612e9b565b5034610273576020366003190112610273576004356001600160a01b038116908190036103b657338252600d60205260ff6040832054166008811015610ac257600103610a8c5762278cff19420190428211610a7857808352600f60205260408320805492845b84811080610a5f575b156109255761092090612ee8565b610909565b83838792806109ab575b50805490600160401b821015610997578161095291600161096a94018155612ce9565b429082549060031b91821b91600019901b1916179055565b7f498f5e6dcf570483a1848853791046a7f10012193176d71f959f46eb7713d7446020604051428152a280f35b634e487b7160e01b84526041600452602484fd5b92805b6109b98584546132e6565b811015610a095780610a036109d96109d3886001956132d9565b86612ce9565b90549060031b1c6109ea8387612ce9565b90919082549060031b91821b91600019901b1916179055565b016109ae565b5092835b818110610a1a575061092f565b82548015610a4b576001919060001901610a348186612ce9565b8154906000199060031b1b19169055845501610a0d565b634e487b7160e01b86526031600452602486fd5b5081610a6b8285612ce9565b90549060031b1c10610912565b634e487b7160e01b83526011600452602483fd5b60405162461bcd60e51b815260206004820152600e60248201526d24b73b30b634b21031b0b63632b960911b6044820152606490fd5b634e487b7160e01b83526021600452602483fd5b50346102735780600319360112610273576040517f00000000000000000000000000000000000000000000000000000000000000006001600160a01b03168152602090f35b5034610273576020366003190112610273576004356001600160a01b038116908190036103b65760408260ff9260209452600b84522054166040519015158152f35b5034610273576020366003190112610273576004356001600160a01b038116908190036103b657604082610b9b92610baf9452601060205220612df7565b604051918291602083526020830190612bc5565b0390f35b50346102735780600319360112610273576002548190825b818110610d195750610bdc82612f24565b90610bef610be984612f24565b93612f56565b9084805b828210610c0d57505050610baf9060405193849384612c43565b610c1682612cb8565b905460039190911b1c6001600160a01b03168752600d602052604087205460ff16600881101580610d0557600682148015610cf9575b610c5d575b50509060010190610bf3565b610c6684612cb8565b905460039190911b1c6001600160a01b0316610c828489612fa0565b52610ce55781610cde91610c986001948a612fa0565b52610ca284612cb8565b848060a01b0391549060031b1c1689526010602052610cc360408a20612df7565b610ccd8288612fa0565b52610cd88187612fa0565b50612ee8565b9038610c51565b634e487b7160e01b88526021600452602488fd5b50508760078214610c4c565b634e487b7160e01b89526021600452602489fd5b610d2281612cb8565b905460039190911b1c6001600160a01b03168452600d602052604084205460ff166008811015610d855760068114908115610d7a575b50610d66575b600101610bcb565b91610d72600191612ee8565b929050610d5e565b600791501438610d58565b634e487b7160e01b85526021600452602485fd5b5034610273576020366003190112610273576004356001600160a01b038116908190036103b65760408260ff9260209452600c84522054166040519015158152f35b5060203660031901126102735760043560078110156103b657338252600c602052610e0c60ff60408420541661384e565b610e146138e2565b3415610f0b57338252600d60205260ff6040832054166008811015610ac2576006148015610ee9575b15610ead57610e4b81612e9b565b610e563482546132d9565b9055610e64346004546132d9565b600455610e76600334046005546132d9565b600555604051903482527f606617fd09d9890413e3c46147b844d4562351f86e0f7a5c60849bbf0ef0281160203393a36001805580f35b60405162461bcd60e51b815260206004820152601460248201527321b0b63632b9103737ba10309036b4b9b9b4b7b760611b6044820152606490fd5b50338252600d60205260ff6040832054166008811015610ac257600714610e3d565b606460405162461bcd60e51b815260206004820152602060248201527f416d6f756e74206d7573742062652067726561746572207468616e207a65726f6044820152fd5b5034610273576020366003190112610273576004356001600160a01b03811681036103b657610f7d906136cf565b60405191151582526003811015610ac257604092506020820152f35b5034610273578060031936011261027357546040516001600160a01b039091168152602090f35b50346102735780600319360112610273576080610fdb61365e565b604080516001600160a01b039586168152949093166020850152918301526060820152f35b5034610273578060031936011261027357602060ff60035416604051908152f35b50346102735780600319360112610273576020600754604051908152f35b50346102735760203660031901126102735760043590600254808311611155575b61106983612f24565b9161107384612f24565b9361107d81612f56565b926000198101908111835b83811061109f5760405180610baf888b8b84612c43565b816103a2576110b66110b182856132e6565b612cb8565b905460039190911b1c6001600160a01b0316806110d3838a612fa0565b528552600d60205260ff604086205416600881101561114157906001916110fa828b612fa0565b5261110481612cb8565b838060a01b0391549060031b1c168652601060205261112560408720612df7565b61112f8289612fa0565b5261113a8188612fa0565b5001611088565b634e487b7160e01b86526021600452602486fd5b915081611060565b5061014036600319011261027357600760043510156102735760843560ff811681036103b65760a4359160ff8316830361027357610104359160ff831683036103b65761012435926001600160401b0384116102715736602385011215610271578360040135936001600160401b0385116106a15736602486830101116106a15783546001600160a01b031633148015611aa9575b6111fb9061327e565b6112036138e2565b600560ff831610611a4a5760ff821660ff8416106119df5760ff831660ff8716106119755760443560243510156119245760443560c435106118c65760c43560e43511156118825760643515611829577f0000000000000000000000000000000000000000000000000000000000000000608881901c62ffffff16763d602d80600a3d3981f3363d3d373d3d3d363d7300000017855260781b6e5af43d82803e903d91602b57fd5bf3176020526001600160a01b036037600986f01694851561181a5784906112d3600435612eb4565b6112dd8154612ee8565b9055801561164057808060246112f4602094612ecd565b956113026040519788612dd6565b828752018386013783010152945b848452600c60205260408420600160ff19825416179055848452600d6020526040842060ff19815416905584845260106020526040842086516001600160401b03811161162c576113618254612d6a565b601f81116115e7575b50806020601f8211600114611583578791611578575b508160011b916000199060031b1c19161790555b83546001600160a01b031692853b156115745760ff9291838092604051966317a0f85760e21b885260048801523060248801526113d660448801600435612cab565b6024356064880152604435608488015260643560a48801521660c48601521660e484015260c43561010484015260e4356101248401521661014482015261018061016482015281818061142d610184820188612bc5565b038134875af1801561153b578290611564575b5050600254600160401b811015611550578060016114619201600255612cb8565b81546001600160a01b0360039290921b91821b19169084901b179055600435827f0ac1ac89285bf936f515aafcf6808b3e062e77fd57f52c8892d20fc9409b8b538380a36114b0600435612e9b565b5460021c80151580611546575b6114e4575b505060018055610baf6040519283928352604060208401526040830190612bc5565b6114ef600435612e9b565b6114fa8282546132e6565b9055823b156103b657816004916040519283809263eb2bab7760e01b8252875af1801561153b57156114c257611531828092612dd6565b61027357806114c2565b6040513d84823e3d90fd5b50804710156114bd565b634e487b7160e01b82526041600452602482fd5b61156d91612dd6565b3881611440565b8480fd5b905088015138611380565b915082875281872087925b8a601f19841685106115d057506001935082601f198116106115b7575b5050811b019055611394565b8a015160001960f88460031b161c1916905538806115ab565b81015182556020938401936001909201910161158e565b82875260208720601f830160051c81019160208410611622575b601f0160051c01905b818110611617575061136a565b87815560010161160a565b9091508190611601565b634e487b7160e01b86526041600452602486fd5b50505061164e60043561394b565b611659600435612eb4565b54848172184f03e93ff9f4daa797ed6e38ed64bf6a1f0160401b8110156117f7575b806d04ee2d6d415b85acef8100000000600a9210156117dc575b662386f26fc100008110156117c8575b6305f5e1008110156117b7575b6127108110156117a8575b606481101561179a575b1015611792575b6001810191600a60216116f96116e386612ecd565b956116f16040519788612dd6565b808752612ecd565b602086019490601f19013686378501015b60001901916f181899199a1a9b1b9c1cb0b131b232b360811b8282061a83530490811561173957600a9061170a565b505061177b92602060039261178c946040519684611760899651809287808a019101612ba2565b8501916201016960ed1b858401525180936023840190612ba2565b01010301601f198101835282612dd6565b94611310565b6001016116ce565b6064600291049201916116c7565b612710600491049201916116bd565b6305f5e100600891049201916116b2565b662386f26fc10000601091049201916116a5565b6d04ee2d6d415b85acef810000000060209104920191611695565b506040905072184f03e93ff9f4daa797ed6e38ed64bf6a1f0160401b820461167b565b63b06ebf3d60e01b8552600485fd5b60405162461bcd60e51b815260206004820152602b60248201527f456e726f6c6c6d656e7420616d6f756e74206d7573742062652067726561746560448201526a72207468616e207a65726f60a81b6064820152608490fd5b606460405162461bcd60e51b815260206004820152602060248201527f4d697373696f6e207374617274206d757374206265206265666f726520656e646044820152fd5b60405162461bcd60e51b815260206004820152603060248201527f4d697373696f6e207374617274206d757374206265206f6e206f72206166746560448201526f1c88195b9c9bdb1b1b595b9d08195b9960821b6064820152608490fd5b60405162461bcd60e51b815260206004820152602360248201527f456e726f6c6c6d656e74207374617274206d757374206265206265666f726520604482015262195b9960ea1b6064820152608490fd5b608460405162461bcd60e51b815260206004820152604060248201527f4d6178696d756d20706c6179657273206d75737420626520677265617465722060448201527f7468616e206f7220657175616c20746f206d696e696d756d20706c61796572736064820152fd5b60405162461bcd60e51b815260206004820152603f60248201527f4d696e696d756d20706c6179657273206d75737420626520677265617465722060448201527f7468616e206f7220657175616c20746f206d697373696f6e20726f756e6473006064820152608490fd5b60405162461bcd60e51b815260206004820152603160248201527f4d697373696f6e20726f756e6473206d7573742062652067726561746572207460448201527068616e206f7220657175616c20746f203560781b6064820152608490fd5b50338452600b602052604084205460ff166111f2565b503461027357806003193601126102735780546001600160a01b031633148015611c11575b611aed9061327e565b600a546001600160a01b03163314611bcd5760085462015180810180911161079b574211611b9557600954611b2a906001600160a01b0316613904565b600954604080516001600160a01b03909216825242602083015233917fdd72dd33198968a9cdc9b1e5cbff344fb8d04d99f8c15c0a02416b04e857b4679190a26001600160601b0360a01b600954166009556001600160601b0360a01b600a5416600a558060085580f35b60405162461bcd60e51b815260206004820152601060248201526f141c9bdc1bdcd85b08195e1c1a5c995960821b6044820152606490fd5b606460405162461bcd60e51b815260206004820152602060248201527f43616e6e6f7420636f6e6669726d20796f7572206f776e2070726f706f73616c6044820152fd5b50338152600b602052604081205460ff16611ae4565b5034610273578060031936011261027357611c406138b9565b80546001600160a01b03198116825581906001600160a01b03167f8be0079c531659141344cd1fd0a4f28419497f9722a3daafe3b4186f6b6457e08280a380f35b5034610273576020366003190112610273576004356001600160a01b038116908190036103b65781546001600160a01b031633148015611d56575b611cc59061327e565b611cd08115156132f3565b808252600b60205260ff60408320541615611d2057808252600b60205260408220805460ff191690557f66d5f06f711af3c9feba3203fdb00b51345d514c68585d9d319c5ff5e6f775928280a280f35b60405162461bcd60e51b815260206004820152600e60248201526d139bdd08185d5d1a1bdc9a5e995960921b6044820152606490fd5b50338252600b602052604082205460ff16611cbc565b5034610273578060031936011261027357610baf611d88613362565b60409391935193849384612d01565b50346102735780600319360112610273576002548190825b818110611e8a5750611dc082612f24565b90611dcd610be984612f24565b9084805b828210611deb57505050610baf9060405193849384612c43565b611df482612cb8565b905460039190911b1c6001600160a01b03168752600d602052604087205460ff16600881101580610d0557600682141580611e7d575b611e3b575b50509060010190611dd1565b611e4484612cb8565b905460039190911b1c6001600160a01b0316611e608489612fa0565b52610ce55781611e7691610c986001948a612fa0565b9038611e2f565b5050876007821415611e2a565b611e9381612cb8565b905460039190911b1c6001600160a01b03168452600d602052604084205460ff166008811015610d855760068114159081611eeb575b50611ed7575b600101611daf565b91611ee3600191612ee8565b929050611ecf565b60079150141538611ec9565b50346102735780600319360112610273576020600454604051908152f35b50346102735780600319360112610273576020600254604051908152f35b5034610273576020366003190112610273576004356001600160a01b038116908190036103b657600254829080805b6120f75750611f7084612f24565b92611f83611f7d86612f24565b95612f56565b928092805b611f9c5760405180610baf878a8a84612d01565b6000198101818111610a7857611fb190612cb8565b9054604051629c95e160e41b81526004810186905260039290921b1c6001600160a01b031690602081602481855afa9081156120be5784916120c9575b50612004575b50611ffe90613331565b80611f88565b806120128689979497612fa0565b526040516368c6ba2160e01b8152602081600481855afa9081156120be578491612082575b509161207b91612053611ffe9461204e848d612fa0565b613356565b8452601060205261206660408520612df7565b6120708289612fa0565b52610cd88188612fa0565b9390611ff4565b90506020813d82116120b6575b8161209c60209383612dd6565b810103126106a1575160088110156106a15761207b612037565b3d915061208f565b6040513d86823e3d90fd5b6120ea915060203d81116120f0575b6120e28183612dd6565b81019061333e565b38611fee565b503d6120d8565b6000198101818111612191576020612110602492612cb8565b9054604051629c95e160e41b8152600481018990529384929091839160031b1c6001600160a01b03165afa9081156120be578491612173575b5061215e575b61215890613331565b80611f62565b9361216b61215891612ee8565b94905061214f565b61218b915060203d81116120f0576120e28183612dd6565b38612149565b634e487b7160e01b84526011600452602484fd5b5034610273576020366003190112610273576004356001600160a01b038116908190036103b65781546001600160a01b031633148015612280575b6121e99061327e565b6121f48115156132f3565b808252600b60205260ff60408320541661224657808252600b60205260408220805460ff191660011790557f10ac961f00d5e732ba4dcc2c6fb09bebea0eb9edd2a75c8109775ef288382e678280a280f35b60405162461bcd60e51b8152602060048201526012602482015271105b1c9958591e48185d5d1a1bdc9a5e995960721b6044820152606490fd5b50338252600b602052604082205460ff166121e0565b5034610273576020366003190112610273576004356001600160a01b038116908190036103b6578152600f6020526040812080548291825b82811061230457505050816122e95760209150604051908152f35b62278d00820180921161031d575061031860209142906132e6565b61230e8183612ce9565b90549060031b1c62278d0081018091116103a2574210612331575b6001016122ce565b8415801561235c575b15612329579350600161234d8583612ce9565b90549060031b1c949050612329565b50846123688284612ce9565b90549060031b1c1061233a565b50346102735780600319360112610273576020600554604051908152f35b5034610273578060031936011261027357600a546040516001600160a01b039091168152602090f35b503461027357602036600319011261027357600435906002548210156102735760206123e783612cb8565b905460405160039290921b1c6001600160a01b03168152f35b5034610273576020366003190112610273576004356001600160a01b0381168082036102715782546001600160a01b0316331480156124fa575b6124439061327e565b80156124c1576001600160601b0360a01b6009541617600955336001600160601b0360a01b600a541617600a55426008557fc29bdbd554e41df97e5c40fc273a09677ac133c245f0064bdffef5cc72176e19604051806124bb339442908360209093929193604081019460018060a01b031681520152565b0390a280f35b60405162461bcd60e51b815260206004820152601160248201527024b73b30b634b2103732bb9037bbb732b960791b6044820152606490fd5b50338352600b602052604083205460ff1661243a565b5034610273576020366003190112610273576004356001600160a01b038116908190036103b657606061020060405161254881612da4565b82815284602082015284604082015284838201528460808201528460a08201528460c08201528460e08201528461010082015284610120820152846101408201528461016082015284610180820152826101a0820152846101c0820152826101e082015201528015612753578160049160405192838092631f385f7960e21b82525afa90811561153b578291612731575b5090604051918291602083526125fd82516102206020860152610240850190612b65565b9061261060208401516040860190612cab565b6040830151606085015260608301516080850152608083015160a085015260ff60a08401511660c085015260ff60c08401511660e085015260e083015161010085015261010083015161012085015260ff6101208401511661014085015260ff610140840151166101608501526101608301516101808501526101808301516101a08501526101a083015191601f19858203016101c0860152602080845192838152019301915b81811061270357505050906102006126ee610baf936101c08401516101e08701526101e0840151601f198783030184880152612b65565b910151838203601f1901610220850152612bc5565b825180516001600160a01b0316855260209081015181860152879650604090940193909201916001016126b7565b61274d91503d8084833e6127458183612dd6565b810190613040565b386125d9565b60405162461bcd60e51b815260206004820152601760248201527f496e76616c6964206d697373696f6e20616464726573730000000000000000006044820152606490fd5b50346102735760203660031901126102735760043590600882101591826103b657600254928293835b8181106128cf57506127d285612f24565b936127e56127df87612f24565b96612f56565b938190825b8481106128015760405180610baf898c8c84612c43565b61280a81612cb8565b905460039190911b1c6001600160a01b03168452600d602052604084205460ff1686610d85576008811015610d85578214612848575b6001016127ea565b91945061285482612cb8565b905460039190911b1c6001600160a01b03166128708689612fa0565b5260016128c78496612882818c612fa0565b60ff8516905261289185612cb8565b848060a01b0391549060031b1c16865260106020526128b260408720612df7565b6128bc828b612fa0565b52610cd8818a612fa0565b929050612840565b6128d881612cb8565b905460039190911b1c6001600160a01b03168552600d602052604085205460ff1683611141576008811015611141578414612916575b6001016127c1565b94612922600191612ee8565b95905061290e565b5034610273576020366003190112610273576004356129476138b9565b61294f6138e2565b81546001600160a01b031690808215612a555715612a4e575b478111612a12578280808084865af13d15612a0d573d61298781612ecd565b906129956040519283612dd6565b81528460203d92013e5b156129d65760207feaff4b37086828766ad3268786972c0cd24259d4c87a80f9d3963a3c3d999b0d91604051908152a26001805580f35b60405162461bcd60e51b815260206004820152600f60248201526e151c985b9cd9995c8819985a5b1959608a1b6044820152606490fd5b61299f565b60405162461bcd60e51b8152602060048201526014602482015273496e73756666696369656e742062616c616e636560601b6044820152606490fd5b5047612968565b60405162461bcd60e51b815260206004820152601560248201527424b73b30b634b21036b0b730b3b2b91037bbb732b960591b6044820152606490fd5b50346102735780600319360112610273576009546040516001600160a01b039091168152602090f35b5034610273578060031936011261027357602060ff60035460081c16604051908152f35b5034610273576020366003190112610273576004356001600160a01b038116908190036103b65760408260ff9260209452600d8452205416612b246040518092612b42565bf35b9050346103b657816003193601126103b6576020906008548152f35b906008821015612b4f5752565b634e487b7160e01b600052602160045260246000fd5b906020808351928381520192019060005b818110612b835750505090565b82516001600160a01b0316845260209384019390920191600101612b76565b60005b838110612bb55750506000910152565b8181015183820152602001612ba5565b90602091612bde81518092818552858086019101612ba2565b601f01601f1916010190565b9080602083519182815201916020808360051b8301019401926000915b838310612c1657505050505090565b9091929394602080612c34600193601f198682030187528951612bc5565b97019301930191939290612c07565b939290612c5890606086526060860190612b65565b9380850360208201526020808451968781520193016000955b808710612c90575050612c8d9394506040818403910152612bea565b90565b909360208060019260ff885116815201950196019590612c71565b906007821015612b4f5752565b600254811015612cd357600260005260206000200190600090565b634e487b7160e01b600052603260045260246000fd5b8054821015612cd35760005260206000200190600090565b939290612d1690606086526060860190612b65565b9380850360208201526020808451968781520193016000955b808710612d4b575050612c8d9394506040818403910152612bea565b909360208082612d5e6001948951612b42565b01950196019590612d2f565b90600182811c92168015612d9a575b6020831014612d8457565b634e487b7160e01b600052602260045260246000fd5b91607f1691612d79565b61022081019081106001600160401b03821117612dc057604052565b634e487b7160e01b600052604160045260246000fd5b90601f801991011681019081106001600160401b03821117612dc057604052565b9060405191826000825492612e0b84612d6a565b8084529360018116908115612e795750600114612e32575b50612e3092500383612dd6565b565b90506000929192526020600020906000915b818310612e5d575050906020612e309282010138612e23565b6020919350806001915483858901015201910190918492612e44565b905060209250612e3094915060ff191682840152151560051b82010138612e23565b6007811015612b4f57600052600e602052604060002090565b6007811015612b4f576000526011602052604060002090565b6001600160401b038111612dc057601f01601f191660200190565b6000198114612ef75760010190565b634e487b7160e01b600052601160045260246000fd5b6001600160401b038111612dc05760051b60200190565b90612f2e82612f0d565b612f3b6040519182612dd6565b8281528092612f4c601f1991612f0d565b0190602036910137565b90612f6082612f0d565b612f6d6040519182612dd6565b8281528092612f7e601f1991612f0d565b019060005b828110612f8f57505050565b806060602080938501015201612f83565b8051821015612cd35760209160051b010190565b51906001600160a01b0382168203612fc857565b600080fd5b9080601f83011215612fc8578151612fe481612f0d565b92612ff26040519485612dd6565b81845260208085019260051b820101928311612fc857602001905b82821061301a5750505090565b6020809161302784612fb4565b81520191019061300d565b519060ff82168203612fc857565b602081830312612fc8578051906001600160401b038211612fc857019061022082820312612fc8576040519161307583612da4565b80516001600160401b038111612fc85782613091918301612fcd565b835260208101516007811015612fc85760208401526040810151604084015260608101516060840152608081015160808401526130d060a08201613032565b60a08401526130e160c08201613032565b60c084015260e081015160e08401526101008101516101008401526131096101208201613032565b61012084015261311c6101408201613032565b6101408401526101608101516101608401526101808101516101808401526101a08101516001600160401b038111612fc857810182601f82011215612fc857805161316681612f0d565b916131746040519384612dd6565b81835260208084019260061b82010190858211612fc857602001915b818310613233575050506101a08401526101c08101516101c08401526101e08101516001600160401b038111612fc857826131cc918301612fcd565b6101e0840152610200810151906001600160401b038211612fc8570181601f82011215612fc85780516131fe81612ecd565b9261320c6040519485612dd6565b81845260208284010111612fc85761322a9160208085019101612ba2565b61020082015290565b604083870312612fc8576040519060408201908282106001600160401b03831117612dc057604092602092845261326986612fb4565b81528286015183820152815201920191613190565b1561328557565b60405162461bcd60e51b815260206004820152602660248201527f4e6f74206f776e6572206f72204d697373696f6e466163746f727920617574686044820152651bdc9a5e995960d21b6064820152608490fd5b91908201809211612ef757565b91908203918211612ef757565b156132fa57565b60405162461bcd60e51b815260206004820152600f60248201526e496e76616c6964206164647265737360881b6044820152606490fd5b8015612ef7576000190190565b90816020910312612fc857518015158103612fc85790565b6008821015612b4f5752565b60025480156135f557624f19ff194201428111612ef75762278cff194201428111612ef7576000929182805b613507575b5061339d84612f24565b6133a685612f24565b956133b086612f56565b946000905b801515806134fe575b156134f35760001901906133d182612cb8565b60018060a01b0391549060031b1c1680600052600d60205260ff60406000205416604051631f385f7960e21b8152600081600481865afa9081156134e7578c918a916000916134ce575b508960e0820181815110806134a7575b1561349c5750506101000151105b61348d57829161204e8561345b9381966134556001998d612fa0565b52612fa0565b60005260106020526134706040600020612df7565b61347a828a612fa0565b526134858189612fa0565b5001906133b5565b50949998509295505050505050565b915091505110613439565b5092505091506008831015612b4f578c91898b92600686148061342b57506007861461342b565b6134e1913d8091833e6127458183612dd6565b3861341b565b6040513d6000823e3d90fd5b509196955092505050565b508782106133be565b600094939419019261351884612cb8565b60018060a01b0391549060031b1c1680600052600d6020526004600060ff6040822054169260405192838092631f385f7960e21b82525afa9081156134e757859285916000936135da575b5060e08301908282511090816135aa575b501561359f5750506101000151105b613598576135918491612ee8565b949361338e565b9392613393565b915091505110613583565b92505092506008811015612b4f5785928160068793149081156135cf575b5038613574565b6007915014386135c8565b6135ee91933d8091833e6127458183612dd6565b9138613563565b506020604051916136068284612dd6565b6000835260003681376040519261361d8385612dd6565b6000845260003681376040519260006136368286612dd6565b8452601f19810160005b81811061364f57505050929190565b60608682018401528201613640565b60085480156136c05762015180810191828211612ef757824210156136a557600954600a546001600160a01b03908116949116919061369e9042906132e6565b9193929190565b600954600a546001600160a01b039182169450169190600090565b50600090600090600090600090565b6001600160a01b03166000908152600f602052604081208054829182918291825b8281106137b7575050506003549160ff8316119060ff82159360081c16119182159282806137b0575b6137a2578161379a575b5061378e5781613786575b5061377c5762093a808101809111612ef75761374b9042906132e6565b9062278d008101809111612ef7576137649042906132e6565b1115613774576002905b60009190565b60019061376e565b5050600090600290565b90503861372e565b50505050600090600190565b905038613723565b505050505050600190600090565b5080613719565b6137c18183612ce9565b90549060031b1c62278d008101808211612ef75742106137e5575b506001016136f0565b936137ef90612ee8565b9387158015613845575b61383d575b62093a808101808211612ef7574210156137dc579461381c90612ee8565b9486158015613834575b156137dc57955060016137dc565b50868110613826565b9650866137fe565b508781106137f9565b1561385557565b60405162461bcd60e51b815260206004820152603660248201527f4d697373696f6e466163746f72793a2063616c6c6572206973206e6f742061206044820152751d985b1a59081b5a5cdcda5bdb8818dbdb9d1c9858dd60521b6064820152608490fd5b6000546001600160a01b031633036138cd57565b63118cdaa760e01b6000523360045260246000fd5b6002600154146138f3576002600155565b633ee5aeb560e01b60005260046000fd5b600080546001600160a01b039283166001600160a01b03198216811783559216907f8be0079c531659141344cd1fd0a4f28419497f9722a3daafe3b4186f6b6457e09080a3565b6007811015612b4f5760018114613a7557600060028214613a48575060038114613a22576000600482146139fc5750600581146139d7576006600091146139b1575060405161399b604082612dd6565b6006815265437573746f6d60d01b602082015290565b506040516139c0604082612dd6565b60078152664d6f6e74686c7960c81b602082015290565b506040516139e6604082612dd6565b60068152655765656b6c7960d01b602082015290565b50506040805190613a0d9082612dd6565b60058152644461696c7960d81b602082015290565b50604051613a31604082612dd6565b600781526642694461696c7960c81b602082015290565b50506040805190613a599082612dd6565b600c81526b517561727465724461696c7960a01b602082015290565b50604051613a84604082612dd6565b6006815265486f75726c7960d01b60208201529056fea26469706673582212205a0ae663dc12b3c84aae8ea77ef5a1fe4d1025bcc6b449c914ef53d91ebc582564736f6c634300081e0033","opcodes":"PUSH1 0xA0 CALLVALUE PUSH2 0x125 JUMPI PUSH1 0x1F PUSH2 0x3C11 CODESIZE DUP2 SWAP1 SUB SWAP2 DUP3 ADD PUSH1 0x1F NOT AND DUP4 ADD SWAP2 PUSH1 0x1 PUSH1 0x1 PUSH1 0x40 SHL SUB DUP4 GT DUP5 DUP5 LT OR PUSH2 0x12A JUMPI DUP1 DUP5 SWAP3 PUSH1 0x20 SWAP5 PUSH1 0x40 MSTORE DUP4 CODECOPY DUP2 ADD SUB SLT PUSH2 0x125 JUMPI MLOAD PUSH1 0x1 PUSH1 0x1 PUSH1 0xA0 SHL SUB DUP2 AND DUP1 DUP3 SUB PUSH2 0x125 JUMPI CALLER ISZERO PUSH2 0x10F JUMPI PUSH1 0x0 DUP1 SLOAD CALLER PUSH1 0x1 PUSH1 0x1 PUSH1 0xA0 SHL SUB NOT DUP3 AND DUP2 OR DUP4 SSTORE PUSH1 0x40 MLOAD SWAP4 SWAP3 SWAP1 SWAP2 PUSH1 0x1 PUSH1 0x1 PUSH1 0xA0 SHL SUB AND SWAP1 PUSH32 0x8BE0079C531659141344CD1FD0A4F28419497F9722A3DAAFE3B4186F6B6457E0 SWAP1 DUP1 LOG3 PUSH1 0x1 DUP1 SSTORE PUSH2 0xA04 PUSH2 0xFFFF NOT PUSH1 0x3 SLOAD AND OR PUSH1 0x3 SSTORE ISZERO PUSH2 0xE1 JUMPI POP PUSH1 0x80 MSTORE PUSH1 0x40 MLOAD PUSH2 0x3AD0 SWAP1 DUP2 PUSH2 0x141 DUP3 CODECOPY PUSH1 0x80 MLOAD DUP2 DUP2 DUP2 PUSH2 0x46D ADD MSTORE DUP2 DUP2 PUSH2 0xAEC ADD MSTORE PUSH2 0x1255 ADD MSTORE RETURN JUMPDEST PUSH3 0x461BCD PUSH1 0xE5 SHL DUP2 MSTORE PUSH1 0x20 PUSH1 0x4 DUP3 ADD MSTORE PUSH1 0x9 PUSH1 0x24 DUP3 ADD MSTORE PUSH9 0x696D706C207A65726F PUSH1 0xB8 SHL PUSH1 0x44 DUP3 ADD MSTORE PUSH1 0x64 SWAP1 REVERT JUMPDEST PUSH4 0x1E4FBDF7 PUSH1 0xE0 SHL PUSH1 0x0 MSTORE PUSH1 0x0 PUSH1 0x4 MSTORE PUSH1 0x24 PUSH1 0x0 REVERT JUMPDEST PUSH1 0x0 DUP1 REVERT JUMPDEST PUSH4 0x4E487B71 PUSH1 0xE0 SHL PUSH1 0x0 MSTORE PUSH1 0x41 PUSH1 0x4 MSTORE PUSH1 0x24 PUSH1 0x0 REVERT INVALID PUSH1 0x80 DUP1 PUSH1 0x40 MSTORE PUSH1 0x4 CALLDATASIZE LT ISZERO PUSH2 0x11 JUMPI JUMPDEST STOP JUMPDEST PUSH1 0x0 SWAP1 DUP2 CALLDATALOAD PUSH1 0xE0 SHR SWAP1 DUP2 PUSH4 0x4A61752 EQ PUSH2 0x2B26 JUMPI POP DUP1 PUSH4 0x814AB82 EQ PUSH2 0x2ADF JUMPI DUP1 PUSH4 0xA6005DA EQ PUSH2 0x2ABB JUMPI DUP1 PUSH4 0xFC8C4ED EQ PUSH2 0x2A92 JUMPI DUP1 PUSH4 0x155DD5EE EQ PUSH2 0x292A JUMPI DUP1 PUSH4 0x1E59D584 EQ PUSH2 0x2798 JUMPI DUP1 PUSH4 0x20C5718F EQ PUSH2 0x2510 JUMPI DUP1 PUSH4 0x21040FC3 EQ PUSH2 0x2400 JUMPI DUP1 PUSH4 0x2C8FE526 EQ PUSH2 0x23BC JUMPI DUP1 PUSH4 0x2D771F30 EQ PUSH2 0x2393 JUMPI DUP1 PUSH4 0x2E33B07F EQ PUSH2 0x878 JUMPI DUP1 PUSH4 0x3589CF72 EQ PUSH2 0x2375 JUMPI DUP1 PUSH4 0x37012762 EQ PUSH2 0x2296 JUMPI DUP1 PUSH4 0x42F1181E EQ PUSH2 0x21A5 JUMPI DUP1 PUSH4 0x503C0B88 EQ PUSH2 0x1F33 JUMPI DUP1 PUSH4 0x5C5BB6F2 EQ PUSH2 0x1F15 JUMPI DUP1 PUSH4 0x63679723 EQ PUSH2 0x1EF7 JUMPI DUP1 PUSH4 0x6805036D EQ PUSH2 0x1D97 JUMPI DUP1 PUSH4 0x6D8A1390 EQ PUSH2 0x1D6C JUMPI DUP1 PUSH4 0x70712939 EQ PUSH2 0x1C81 JUMPI DUP1 PUSH4 0x715018A6 EQ PUSH2 0x1C27 JUMPI DUP1 PUSH4 0x7200B829 EQ PUSH2 0x1ABF JUMPI DUP1 PUSH4 0x72EECD21 EQ PUSH2 0x115D JUMPI DUP1 PUSH4 0x7E9EAE50 EQ PUSH2 0x103F JUMPI DUP1 PUSH4 0x83FBEA51 EQ PUSH2 0x1021 JUMPI DUP1 PUSH4 0x861A68D6 EQ PUSH2 0x1000 JUMPI DUP1 PUSH4 0x8C09B7C3 EQ PUSH2 0xFC0 JUMPI DUP1 PUSH4 0x8DA5CB5B EQ PUSH2 0xF99 JUMPI DUP1 PUSH4 0x9804A586 EQ PUSH2 0xF4F JUMPI DUP1 PUSH4 0xA9BEA789 EQ PUSH2 0xDDB JUMPI DUP1 PUSH4 0xAA1F0595 EQ PUSH2 0xD99 JUMPI DUP1 PUSH4 0xB6202913 EQ PUSH2 0xBB3 JUMPI DUP1 PUSH4 0xB6DE7B43 EQ PUSH2 0xB5D JUMPI DUP1 PUSH4 0xB9181611 EQ PUSH2 0xB1B JUMPI DUP1 PUSH4 0xBD487725 EQ PUSH2 0xAD6 JUMPI DUP1 PUSH4 0xC17F9E59 EQ PUSH2 0x8A2 JUMPI DUP1 PUSH4 0xC416AD2A EQ PUSH2 0x878 JUMPI DUP1 PUSH4 0xC892FDE3 EQ PUSH2 0x85A JUMPI DUP1 PUSH4 0xCBF2080D EQ PUSH2 0x6C3 JUMPI DUP1 PUSH4 0xD3050EBA EQ PUSH2 0x6A5 JUMPI DUP1 PUSH4 0xD41ECA64 EQ PUSH2 0x5F7 JUMPI DUP1 PUSH4 0xD8D6E8FF EQ PUSH2 0x570 JUMPI DUP1 PUSH4 0xDF4DB463 EQ PUSH2 0x4E9 JUMPI DUP1 PUSH4 0xE5047770 EQ PUSH2 0x3BA JUMPI DUP1 PUSH4 0xEFF0AB92 EQ PUSH2 0x2A9 JUMPI DUP1 PUSH4 0xF08E231E EQ PUSH2 0x276 JUMPI PUSH4 0xF2FDE38B SUB PUSH2 0xF JUMPI CALLVALUE PUSH2 0x273 JUMPI PUSH1 0x20 CALLDATASIZE PUSH1 0x3 NOT ADD SLT PUSH2 0x273 JUMPI PUSH1 0x4 CALLDATALOAD PUSH1 0x1 PUSH1 0x1 PUSH1 0xA0 SHL SUB DUP2 AND DUP1 DUP3 SUB PUSH2 0x271 JUMPI PUSH2 0x24C PUSH2 0x38B9 JUMP JUMPDEST ISZERO PUSH2 0x25D JUMPI PUSH2 0x25A SWAP1 PUSH2 0x3904 JUMP JUMPDEST DUP1 RETURN JUMPDEST PUSH4 0x1E4FBDF7 PUSH1 0xE0 SHL DUP3 MSTORE PUSH1 0x4 DUP3 SWAP1 MSTORE PUSH1 0x24 DUP3 REVERT JUMPDEST DUP3 JUMPDEST DUP1 REVERT JUMPDEST POP CALLVALUE PUSH2 0x273 JUMPI PUSH1 0x20 CALLDATASIZE PUSH1 0x3 NOT ADD SLT PUSH2 0x273 JUMPI PUSH1 0x4 CALLDATALOAD SWAP1 PUSH1 0x7 DUP3 LT ISZERO PUSH2 0x273 JUMPI PUSH1 0x20 PUSH2 0x2A0 DUP4 PUSH2 0x2EB4 JUMP JUMPDEST SLOAD PUSH1 0x40 MLOAD SWAP1 DUP2 MSTORE RETURN JUMPDEST POP CALLVALUE PUSH2 0x273 JUMPI PUSH1 0x20 CALLDATASIZE PUSH1 0x3 NOT ADD SLT PUSH2 0x273 JUMPI PUSH1 0x4 CALLDATALOAD PUSH1 0x1 PUSH1 0x1 PUSH1 0xA0 SHL SUB DUP2 AND SWAP1 DUP2 SWAP1 SUB PUSH2 0x3B6 JUMPI DUP2 MSTORE PUSH1 0xF PUSH1 0x20 MSTORE PUSH1 0x40 DUP2 KECCAK256 DUP1 SLOAD DUP3 SWAP2 DUP3 JUMPDEST DUP3 DUP2 LT PUSH2 0x331 JUMPI POP POP POP DUP2 PUSH2 0x2FD JUMPI PUSH1 0x20 SWAP2 POP JUMPDEST PUSH1 0x40 MLOAD SWAP1 DUP2 MSTORE RETURN JUMPDEST PUSH3 0x93A80 DUP3 ADD DUP1 SWAP3 GT PUSH2 0x31D JUMPI POP PUSH2 0x318 PUSH1 0x20 SWAP2 TIMESTAMP SWAP1 PUSH2 0x32E6 JUMP JUMPDEST PUSH2 0x2F5 JUMP JUMPDEST PUSH4 0x4E487B71 PUSH1 0xE0 SHL DUP2 MSTORE PUSH1 0x11 PUSH1 0x4 MSTORE PUSH1 0x24 SWAP1 REVERT JUMPDEST PUSH2 0x33B DUP2 DUP4 PUSH2 0x2CE9 JUMP JUMPDEST SWAP1 SLOAD SWAP1 PUSH1 0x3 SHL SHR PUSH3 0x93A80 DUP2 ADD DUP1 SWAP2 GT PUSH2 0x3A2 JUMPI TIMESTAMP LT PUSH2 0x35E JUMPI JUMPDEST PUSH1 0x1 ADD PUSH2 0x2E1 JUMP JUMPDEST DUP5 ISZERO DUP1 ISZERO PUSH2 0x389 JUMPI JUMPDEST ISZERO PUSH2 0x356 JUMPI SWAP4 POP PUSH1 0x1 PUSH2 0x37A DUP6 DUP4 PUSH2 0x2CE9 JUMP JUMPDEST SWAP1 SLOAD SWAP1 PUSH1 0x3 SHL SHR SWAP5 SWAP1 POP PUSH2 0x356 JUMP JUMPDEST POP DUP5 PUSH2 0x395 DUP3 DUP5 PUSH2 0x2CE9 JUMP JUMPDEST SWAP1 SLOAD SWAP1 PUSH1 0x3 SHL SHR LT PUSH2 0x367 JUMP JUMPDEST PUSH4 0x4E487B71 PUSH1 0xE0 SHL DUP6 MSTORE PUSH1 0x11 PUSH1 0x4 MSTORE PUSH1 0x24 DUP6 REVERT JUMPDEST POP DUP1 REVERT JUMPDEST POP CALLVALUE PUSH2 0x273 JUMPI DUP1 PUSH1 0x3 NOT CALLDATASIZE ADD SLT PUSH2 0x273 JUMPI PUSH1 0xC0 DUP1 PUSH1 0x40 MLOAD PUSH2 0x3DB DUP3 DUP3 PUSH2 0x2DD6 JUMP JUMPDEST CALLDATASIZE SWAP1 CALLDATACOPY PUSH1 0x40 MLOAD PUSH2 0x3EB DUP3 DUP3 PUSH2 0x2DD6 JUMP JUMPDEST DUP2 CALLDATASIZE DUP3 CALLDATACOPY DUP3 JUMPDEST PUSH1 0x7 DUP2 LT ISZERO PUSH2 0x431 JUMPI PUSH2 0x403 DUP2 PUSH2 0x2E9B JUMP JUMPDEST SLOAD PUSH1 0x6 DUP3 LT ISZERO PUSH2 0x41D JUMPI PUSH1 0x5 DUP3 SWAP1 SHL DUP4 ADD MSTORE PUSH1 0x1 ADD PUSH2 0x3F1 JUMP JUMPDEST PUSH4 0x4E487B71 PUSH1 0xE0 SHL DUP6 MSTORE PUSH1 0x32 PUSH1 0x4 MSTORE PUSH1 0x24 DUP6 REVERT JUMPDEST POP DUP3 SWAP1 PUSH1 0x1 DUP1 PUSH1 0xA0 SHL SUB DUP3 SLOAD AND SWAP3 PUSH1 0x2 SLOAD SWAP1 PUSH1 0x3 SLOAD SWAP1 PUSH1 0x4 SLOAD PUSH1 0x5 SLOAD SWAP2 PUSH1 0xFF PUSH1 0x6 SLOAD SWAP5 PUSH1 0x7 SLOAD SWAP7 PUSH1 0x40 MLOAD SWAP11 DUP12 MSTORE ADDRESS PUSH1 0x20 DUP13 ADD MSTORE PUSH1 0x1 DUP1 PUSH1 0xA0 SHL SUB PUSH32 0x0 AND PUSH1 0x40 DUP13 ADD MSTORE PUSH1 0x60 DUP12 ADD MSTORE DUP2 DUP2 AND PUSH1 0x80 DUP12 ADD MSTORE PUSH1 0x8 SHR AND PUSH1 0xA0 DUP10 ADD MSTORE DUP8 ADD MSTORE PUSH1 0xE0 DUP7 ADD MSTORE PUSH2 0x100 DUP6 ADD MSTORE PUSH2 0x120 DUP5 ADD MSTORE PUSH2 0x140 DUP4 ADD SWAP1 SWAP2 SWAP1 JUMPDEST PUSH1 0x6 DUP3 LT PUSH2 0x4D3 JUMPI PUSH2 0x200 DUP5 RETURN JUMPDEST PUSH1 0x20 DUP1 PUSH1 0x1 SWAP3 DUP6 MLOAD DUP2 MSTORE ADD SWAP4 ADD SWAP2 ADD SWAP1 SWAP2 PUSH2 0x4C5 JUMP JUMPDEST POP CALLVALUE PUSH2 0x273 JUMPI DUP1 PUSH1 0x3 NOT CALLDATASIZE ADD SLT PUSH2 0x273 JUMPI PUSH1 0xE0 SWAP1 DUP2 PUSH1 0x40 MLOAD PUSH2 0x50B DUP3 DUP3 PUSH2 0x2DD6 JUMP JUMPDEST CALLDATASIZE SWAP1 CALLDATACOPY PUSH1 0x40 MLOAD SWAP1 PUSH2 0x51C DUP4 DUP4 PUSH2 0x2DD6 JUMP JUMPDEST DUP3 CALLDATASIZE DUP4 CALLDATACOPY DUP1 JUMPDEST PUSH1 0x7 DUP2 LT ISZERO PUSH2 0x545 JUMPI PUSH1 0x1 SWAP1 PUSH2 0x537 DUP2 PUSH2 0x2E9B JUMP JUMPDEST SLOAD DUP2 PUSH1 0x5 SHL DUP6 ADD MSTORE ADD PUSH2 0x522 JUMP JUMPDEST POP PUSH1 0x40 MLOAD SWAP2 SWAP1 DUP3 JUMPDEST PUSH1 0x7 DUP3 LT PUSH2 0x55A JUMPI POP POP POP RETURN JUMPDEST PUSH1 0x20 DUP1 PUSH1 0x1 SWAP3 DUP6 MLOAD DUP2 MSTORE ADD SWAP4 ADD SWAP2 ADD SWAP1 SWAP2 PUSH2 0x54D JUMP JUMPDEST POP CALLVALUE PUSH2 0x273 JUMPI PUSH1 0x20 CALLDATASIZE PUSH1 0x3 NOT ADD SLT PUSH2 0x273 JUMPI PUSH1 0x4 CALLDATALOAD PUSH1 0x8 DUP2 LT ISZERO PUSH2 0x3B6 JUMPI CALLER DUP3 MSTORE PUSH1 0xC PUSH1 0x20 MSTORE PUSH2 0x5A6 PUSH1 0xFF PUSH1 0x40 DUP5 KECCAK256 SLOAD AND PUSH2 0x384E JUMP JUMPDEST CALLER DUP3 MSTORE PUSH1 0xD PUSH1 0x20 MSTORE PUSH1 0x40 DUP3 KECCAK256 PUSH1 0xFF NOT DUP2 SLOAD AND PUSH1 0xFF DUP4 AND OR SWAP1 SSTORE PUSH1 0x6 DUP2 EQ PUSH1 0x0 EQ PUSH2 0x5DC JUMPI POP PUSH2 0x5D6 PUSH1 0x6 SLOAD PUSH2 0x2EE8 JUMP JUMPDEST PUSH1 0x6 SSTORE DUP1 RETURN JUMPDEST PUSH1 0x7 EQ PUSH2 0x5E6 JUMPI DUP1 RETURN JUMPDEST PUSH2 0x5F1 PUSH1 0x7 SLOAD PUSH2 0x2EE8 JUMP JUMPDEST PUSH1 0x7 SSTORE DUP1 RETURN JUMPDEST POP CALLVALUE PUSH2 0x273 JUMPI PUSH1 0x40 CALLDATASIZE PUSH1 0x3 NOT ADD SLT PUSH2 0x273 JUMPI PUSH1 0x4 CALLDATALOAD PUSH1 0xFF DUP2 AND DUP1 SWAP2 SUB PUSH2 0x3B6 JUMPI PUSH1 0x24 CALLDATALOAD PUSH1 0xFF DUP2 AND SWAP2 DUP3 DUP3 SUB PUSH2 0x6A1 JUMPI PUSH32 0x321994B8855AE38E4FD6162F7A0BD7CDE88BE83AA3ACC96E03C17B7F733B43E1 SWAP3 PUSH1 0x40 SWAP3 PUSH1 0x1 DUP1 PUSH1 0xA0 SHL SUB DUP7 SLOAD AND CALLER EQ DUP1 ISZERO PUSH2 0x68C JUMPI JUMPDEST PUSH2 0x667 SWAP1 PUSH2 0x327E JUMP JUMPDEST DUP3 PUSH2 0xFF00 PUSH1 0x3 SLOAD SWAP3 PUSH1 0x8 SHL AND SWAP2 PUSH2 0xFFFF NOT AND OR OR PUSH1 0x3 SSTORE DUP3 MLOAD SWAP2 DUP3 MSTORE PUSH1 0x20 DUP3 ADD MSTORE LOG1 DUP1 RETURN JUMPDEST POP CALLER DUP7 MSTORE PUSH1 0xB PUSH1 0x20 MSTORE DUP4 DUP7 KECCAK256 SLOAD PUSH1 0xFF AND PUSH2 0x65E JUMP JUMPDEST DUP4 DUP1 REVERT JUMPDEST POP CALLVALUE PUSH2 0x273 JUMPI DUP1 PUSH1 0x3 NOT CALLDATASIZE ADD SLT PUSH2 0x273 JUMPI PUSH1 0x20 PUSH1 0x40 MLOAD PUSH3 0x15180 DUP2 MSTORE RETURN JUMPDEST POP CALLVALUE PUSH2 0x273 JUMPI PUSH1 0x20 CALLDATASIZE PUSH1 0x3 NOT ADD SLT PUSH2 0x273 JUMPI PUSH1 0x4 CALLDATALOAD PUSH1 0x1 PUSH1 0x1 PUSH1 0xA0 SHL SUB DUP2 AND SWAP1 DUP2 SWAP1 SUB PUSH2 0x3B6 JUMPI DUP2 MSTORE PUSH1 0xF PUSH1 0x20 MSTORE PUSH1 0x40 DUP2 KECCAK256 DUP2 SWAP1 DUP3 SWAP1 DUP4 DUP1 SWAP2 DUP2 SWAP1 DUP1 SLOAD SWAP2 JUMPDEST DUP3 DUP2 LT PUSH2 0x7AF JUMPI POP POP POP PUSH1 0x3 SLOAD SWAP5 DUP1 ISZERO PUSH1 0x0 EQ PUSH2 0x77D JUMPI POP DUP1 SWAP2 JUMPDEST DUP1 PUSH2 0x757 JUMPI POP PUSH1 0xC0 SWAP5 PUSH1 0xFF DUP1 SWAP3 SWAP5 JUMPDEST DUP2 PUSH1 0x40 MLOAD SWAP8 AND DUP8 MSTORE DUP2 DUP4 AND PUSH1 0x20 DUP9 ADD MSTORE AND PUSH1 0x40 DUP7 ADD MSTORE PUSH1 0x8 SHR AND PUSH1 0x60 DUP5 ADD MSTORE PUSH1 0x80 DUP4 ADD MSTORE PUSH1 0xA0 DUP3 ADD MSTORE RETURN JUMPDEST SWAP1 PUSH3 0x278D00 DUP3 ADD DUP1 SWAP3 GT PUSH2 0x31D JUMPI POP PUSH1 0xC0 SWAP5 PUSH1 0xFF PUSH2 0x777 DUP2 SWAP4 TIMESTAMP SWAP1 PUSH2 0x32E6 JUMP JUMPDEST SWAP5 PUSH2 0x72C JUMP JUMPDEST PUSH3 0x93A80 DUP2 ADD DUP1 SWAP2 GT PUSH2 0x79B JUMPI PUSH2 0x795 SWAP1 TIMESTAMP SWAP1 PUSH2 0x32E6 JUMP JUMPDEST SWAP2 PUSH2 0x71D JUMP JUMPDEST PUSH4 0x4E487B71 PUSH1 0xE0 SHL DUP3 MSTORE PUSH1 0x11 PUSH1 0x4 MSTORE PUSH1 0x24 DUP3 REVERT JUMPDEST PUSH2 0x7B9 DUP2 DUP4 PUSH2 0x2CE9 JUMP JUMPDEST SWAP1 SLOAD SWAP1 PUSH1 0x3 SHL SHR PUSH3 0x278D00 DUP2 ADD DUP1 DUP3 GT PUSH2 0x835 JUMPI TIMESTAMP LT PUSH2 0x7DD JUMPI JUMPDEST POP PUSH1 0x1 ADD PUSH2 0x702 JUMP JUMPDEST SWAP6 PUSH2 0x7E7 SWAP1 PUSH2 0x2EE8 JUMP JUMPDEST SWAP6 DUP6 ISZERO DUP1 ISZERO PUSH2 0x851 JUMPI JUMPDEST PUSH2 0x849 JUMPI JUMPDEST PUSH3 0x93A80 DUP2 ADD DUP1 DUP3 GT PUSH2 0x835 JUMPI TIMESTAMP LT ISZERO PUSH2 0x7D4 JUMPI SWAP7 PUSH2 0x814 SWAP1 PUSH2 0x2EE8 JUMP JUMPDEST SWAP7 DUP9 ISZERO DUP1 ISZERO PUSH2 0x82C JUMPI JUMPDEST ISZERO PUSH2 0x7D4 JUMPI SWAP8 POP PUSH1 0x1 PUSH2 0x7D4 JUMP JUMPDEST POP DUP9 DUP2 LT PUSH2 0x81E JUMP JUMPDEST PUSH4 0x4E487B71 PUSH1 0xE0 SHL DUP7 MSTORE PUSH1 0x11 PUSH1 0x4 MSTORE PUSH1 0x24 DUP7 REVERT JUMPDEST SWAP5 POP DUP5 PUSH2 0x7F6 JUMP JUMPDEST POP DUP6 DUP2 LT PUSH2 0x7F1 JUMP JUMPDEST POP CALLVALUE PUSH2 0x273 JUMPI DUP1 PUSH1 0x3 NOT CALLDATASIZE ADD SLT PUSH2 0x273 JUMPI PUSH1 0x20 PUSH1 0x6 SLOAD PUSH1 0x40 MLOAD SWAP1 DUP2 MSTORE RETURN JUMPDEST POP CALLVALUE PUSH2 0x273 JUMPI PUSH1 0x20 CALLDATASIZE PUSH1 0x3 NOT ADD SLT PUSH2 0x273 JUMPI PUSH1 0x4 CALLDATALOAD SWAP1 PUSH1 0x7 DUP3 LT ISZERO PUSH2 0x273 JUMPI PUSH1 0x20 PUSH2 0x2A0 DUP4 PUSH2 0x2E9B JUMP JUMPDEST POP CALLVALUE PUSH2 0x273 JUMPI PUSH1 0x20 CALLDATASIZE PUSH1 0x3 NOT ADD SLT PUSH2 0x273 JUMPI PUSH1 0x4 CALLDATALOAD PUSH1 0x1 PUSH1 0x1 PUSH1 0xA0 SHL SUB DUP2 AND SWAP1 DUP2 SWAP1 SUB PUSH2 0x3B6 JUMPI CALLER DUP3 MSTORE PUSH1 0xD PUSH1 0x20 MSTORE PUSH1 0xFF PUSH1 0x40 DUP4 KECCAK256 SLOAD AND PUSH1 0x8 DUP2 LT ISZERO PUSH2 0xAC2 JUMPI PUSH1 0x1 SUB PUSH2 0xA8C JUMPI PUSH3 0x278CFF NOT TIMESTAMP ADD SWAP1 TIMESTAMP DUP3 GT PUSH2 0xA78 JUMPI DUP1 DUP4 MSTORE PUSH1 0xF PUSH1 0x20 MSTORE PUSH1 0x40 DUP4 KECCAK256 DUP1 SLOAD SWAP3 DUP5 JUMPDEST DUP5 DUP2 LT DUP1 PUSH2 0xA5F JUMPI JUMPDEST ISZERO PUSH2 0x925 JUMPI PUSH2 0x920 SWAP1 PUSH2 0x2EE8 JUMP JUMPDEST PUSH2 0x909 JUMP JUMPDEST DUP4 DUP4 DUP8 SWAP3 DUP1 PUSH2 0x9AB JUMPI JUMPDEST POP DUP1 SLOAD SWAP1 PUSH1 0x1 PUSH1 0x40 SHL DUP3 LT ISZERO PUSH2 0x997 JUMPI DUP2 PUSH2 0x952 SWAP2 PUSH1 0x1 PUSH2 0x96A SWAP5 ADD DUP2 SSTORE PUSH2 0x2CE9 JUMP JUMPDEST TIMESTAMP SWAP1 DUP3 SLOAD SWAP1 PUSH1 0x3 SHL SWAP2 DUP3 SHL SWAP2 PUSH1 0x0 NOT SWAP1 SHL NOT AND OR SWAP1 SSTORE JUMP JUMPDEST PUSH32 0x498F5E6DCF570483A1848853791046A7F10012193176D71F959F46EB7713D744 PUSH1 0x20 PUSH1 0x40 MLOAD TIMESTAMP DUP2 MSTORE LOG2 DUP1 RETURN JUMPDEST PUSH4 0x4E487B71 PUSH1 0xE0 SHL DUP5 MSTORE PUSH1 0x41 PUSH1 0x4 MSTORE PUSH1 0x24 DUP5 REVERT JUMPDEST SWAP3 DUP1 JUMPDEST PUSH2 0x9B9 DUP6 DUP5 SLOAD PUSH2 0x32E6 JUMP JUMPDEST DUP2 LT ISZERO PUSH2 0xA09 JUMPI DUP1 PUSH2 0xA03 PUSH2 0x9D9 PUSH2 0x9D3 DUP9 PUSH1 0x1 SWAP6 PUSH2 0x32D9 JUMP JUMPDEST DUP7 PUSH2 0x2CE9 JUMP JUMPDEST SWAP1 SLOAD SWAP1 PUSH1 0x3 SHL SHR PUSH2 0x9EA DUP4 DUP8 PUSH2 0x2CE9 JUMP JUMPDEST SWAP1 SWAP2 SWAP1 DUP3 SLOAD SWAP1 PUSH1 0x3 SHL SWAP2 DUP3 SHL SWAP2 PUSH1 0x0 NOT SWAP1 SHL NOT AND OR SWAP1 SSTORE JUMP JUMPDEST ADD PUSH2 0x9AE JUMP JUMPDEST POP SWAP3 DUP4 JUMPDEST DUP2 DUP2 LT PUSH2 0xA1A JUMPI POP PUSH2 0x92F JUMP JUMPDEST DUP3 SLOAD DUP1 ISZERO PUSH2 0xA4B JUMPI PUSH1 0x1 SWAP2 SWAP1 PUSH1 0x0 NOT ADD PUSH2 0xA34 DUP2 DUP7 PUSH2 0x2CE9 JUMP JUMPDEST DUP2 SLOAD SWAP1 PUSH1 0x0 NOT SWAP1 PUSH1 0x3 SHL SHL NOT AND SWAP1 SSTORE DUP5 SSTORE ADD PUSH2 0xA0D JUMP JUMPDEST PUSH4 0x4E487B71 PUSH1 0xE0 SHL DUP7 MSTORE PUSH1 0x31 PUSH1 0x4 MSTORE PUSH1 0x24 DUP7 REVERT JUMPDEST POP DUP2 PUSH2 0xA6B DUP3 DUP6 PUSH2 0x2CE9 JUMP JUMPDEST SWAP1 SLOAD SWAP1 PUSH1 0x3 SHL SHR LT PUSH2 0x912 JUMP JUMPDEST PUSH4 0x4E487B71 PUSH1 0xE0 SHL DUP4 MSTORE PUSH1 0x11 PUSH1 0x4 MSTORE PUSH1 0x24 DUP4 REVERT JUMPDEST PUSH1 0x40 MLOAD PUSH3 0x461BCD PUSH1 0xE5 SHL DUP2 MSTORE PUSH1 0x20 PUSH1 0x4 DUP3 ADD MSTORE PUSH1 0xE PUSH1 0x24 DUP3 ADD MSTORE PUSH14 0x24B73B30B634B21031B0B63632B9 PUSH1 0x91 SHL PUSH1 0x44 DUP3 ADD MSTORE PUSH1 0x64 SWAP1 REVERT JUMPDEST PUSH4 0x4E487B71 PUSH1 0xE0 SHL DUP4 MSTORE PUSH1 0x21 PUSH1 0x4 MSTORE PUSH1 0x24 DUP4 REVERT JUMPDEST POP CALLVALUE PUSH2 0x273 JUMPI DUP1 PUSH1 0x3 NOT CALLDATASIZE ADD SLT PUSH2 0x273 JUMPI PUSH1 0x40 MLOAD PUSH32 0x0 PUSH1 0x1 PUSH1 0x1 PUSH1 0xA0 SHL SUB AND DUP2 MSTORE PUSH1 0x20 SWAP1 RETURN JUMPDEST POP CALLVALUE PUSH2 0x273 JUMPI PUSH1 0x20 CALLDATASIZE PUSH1 0x3 NOT ADD SLT PUSH2 0x273 JUMPI PUSH1 0x4 CALLDATALOAD PUSH1 0x1 PUSH1 0x1 PUSH1 0xA0 SHL SUB DUP2 AND SWAP1 DUP2 SWAP1 SUB PUSH2 0x3B6 JUMPI PUSH1 0x40 DUP3 PUSH1 0xFF SWAP3 PUSH1 0x20 SWAP5 MSTORE PUSH1 0xB DUP5 MSTORE KECCAK256 SLOAD AND PUSH1 0x40 MLOAD SWAP1 ISZERO ISZERO DUP2 MSTORE RETURN JUMPDEST POP CALLVALUE PUSH2 0x273 JUMPI PUSH1 0x20 CALLDATASIZE PUSH1 0x3 NOT ADD SLT PUSH2 0x273 JUMPI PUSH1 0x4 CALLDATALOAD PUSH1 0x1 PUSH1 0x1 PUSH1 0xA0 SHL SUB DUP2 AND SWAP1 DUP2 SWAP1 SUB PUSH2 0x3B6 JUMPI PUSH1 0x40 DUP3 PUSH2 0xB9B SWAP3 PUSH2 0xBAF SWAP5 MSTORE PUSH1 0x10 PUSH1 0x20 MSTORE KECCAK256 PUSH2 0x2DF7 JUMP JUMPDEST PUSH1 0x40 MLOAD SWAP2 DUP3 SWAP2 PUSH1 0x20 DUP4 MSTORE PUSH1 0x20 DUP4 ADD SWAP1 PUSH2 0x2BC5 JUMP JUMPDEST SUB SWAP1 RETURN JUMPDEST POP CALLVALUE PUSH2 0x273 JUMPI DUP1 PUSH1 0x3 NOT CALLDATASIZE ADD SLT PUSH2 0x273 JUMPI PUSH1 0x2 SLOAD DUP2 SWAP1 DUP3 JUMPDEST DUP2 DUP2 LT PUSH2 0xD19 JUMPI POP PUSH2 0xBDC DUP3 PUSH2 0x2F24 JUMP JUMPDEST SWAP1 PUSH2 0xBEF PUSH2 0xBE9 DUP5 PUSH2 0x2F24 JUMP JUMPDEST SWAP4 PUSH2 0x2F56 JUMP JUMPDEST SWAP1 DUP5 DUP1 JUMPDEST DUP3 DUP3 LT PUSH2 0xC0D JUMPI POP POP POP PUSH2 0xBAF SWAP1 PUSH1 0x40 MLOAD SWAP4 DUP5 SWAP4 DUP5 PUSH2 0x2C43 JUMP JUMPDEST PUSH2 0xC16 DUP3 PUSH2 0x2CB8 JUMP JUMPDEST SWAP1 SLOAD PUSH1 0x3 SWAP2 SWAP1 SWAP2 SHL SHR PUSH1 0x1 PUSH1 0x1 PUSH1 0xA0 SHL SUB AND DUP8 MSTORE PUSH1 0xD PUSH1 0x20 MSTORE PUSH1 0x40 DUP8 KECCAK256 SLOAD PUSH1 0xFF AND PUSH1 0x8 DUP2 LT ISZERO DUP1 PUSH2 0xD05 JUMPI PUSH1 0x6 DUP3 EQ DUP1 ISZERO PUSH2 0xCF9 JUMPI JUMPDEST PUSH2 0xC5D JUMPI JUMPDEST POP POP SWAP1 PUSH1 0x1 ADD SWAP1 PUSH2 0xBF3 JUMP JUMPDEST PUSH2 0xC66 DUP5 PUSH2 0x2CB8 JUMP JUMPDEST SWAP1 SLOAD PUSH1 0x3 SWAP2 SWAP1 SWAP2 SHL SHR PUSH1 0x1 PUSH1 0x1 PUSH1 0xA0 SHL SUB AND PUSH2 0xC82 DUP5 DUP10 PUSH2 0x2FA0 JUMP JUMPDEST MSTORE PUSH2 0xCE5 JUMPI DUP2 PUSH2 0xCDE SWAP2 PUSH2 0xC98 PUSH1 0x1 SWAP5 DUP11 PUSH2 0x2FA0 JUMP JUMPDEST MSTORE PUSH2 0xCA2 DUP5 PUSH2 0x2CB8 JUMP JUMPDEST DUP5 DUP1 PUSH1 0xA0 SHL SUB SWAP2 SLOAD SWAP1 PUSH1 0x3 SHL SHR AND DUP10 MSTORE PUSH1 0x10 PUSH1 0x20 MSTORE PUSH2 0xCC3 PUSH1 0x40 DUP11 KECCAK256 PUSH2 0x2DF7 JUMP JUMPDEST PUSH2 0xCCD DUP3 DUP9 PUSH2 0x2FA0 JUMP JUMPDEST MSTORE PUSH2 0xCD8 DUP2 DUP8 PUSH2 0x2FA0 JUMP JUMPDEST POP PUSH2 0x2EE8 JUMP JUMPDEST SWAP1 CODESIZE PUSH2 0xC51 JUMP JUMPDEST PUSH4 0x4E487B71 PUSH1 0xE0 SHL DUP9 MSTORE PUSH1 0x21 PUSH1 0x4 MSTORE PUSH1 0x24 DUP9 REVERT JUMPDEST POP POP DUP8 PUSH1 0x7 DUP3 EQ PUSH2 0xC4C JUMP JUMPDEST PUSH4 0x4E487B71 PUSH1 0xE0 SHL DUP10 MSTORE PUSH1 0x21 PUSH1 0x4 MSTORE PUSH1 0x24 DUP10 REVERT JUMPDEST PUSH2 0xD22 DUP2 PUSH2 0x2CB8 JUMP JUMPDEST SWAP1 SLOAD PUSH1 0x3 SWAP2 SWAP1 SWAP2 SHL SHR PUSH1 0x1 PUSH1 0x1 PUSH1 0xA0 SHL SUB AND DUP5 MSTORE PUSH1 0xD PUSH1 0x20 MSTORE PUSH1 0x40 DUP5 KECCAK256 SLOAD PUSH1 0xFF AND PUSH1 0x8 DUP2 LT ISZERO PUSH2 0xD85 JUMPI PUSH1 0x6 DUP2 EQ SWAP1 DUP2 ISZERO PUSH2 0xD7A JUMPI JUMPDEST POP PUSH2 0xD66 JUMPI JUMPDEST PUSH1 0x1 ADD PUSH2 0xBCB JUMP JUMPDEST SWAP2 PUSH2 0xD72 PUSH1 0x1 SWAP2 PUSH2 0x2EE8 JUMP JUMPDEST SWAP3 SWAP1 POP PUSH2 0xD5E JUMP JUMPDEST PUSH1 0x7 SWAP2 POP EQ CODESIZE PUSH2 0xD58 JUMP JUMPDEST PUSH4 0x4E487B71 PUSH1 0xE0 SHL DUP6 MSTORE PUSH1 0x21 PUSH1 0x4 MSTORE PUSH1 0x24 DUP6 REVERT JUMPDEST POP CALLVALUE PUSH2 0x273 JUMPI PUSH1 0x20 CALLDATASIZE PUSH1 0x3 NOT ADD SLT PUSH2 0x273 JUMPI PUSH1 0x4 CALLDATALOAD PUSH1 0x1 PUSH1 0x1 PUSH1 0xA0 SHL SUB DUP2 AND SWAP1 DUP2 SWAP1 SUB PUSH2 0x3B6 JUMPI PUSH1 0x40 DUP3 PUSH1 0xFF SWAP3 PUSH1 0x20 SWAP5 MSTORE PUSH1 0xC DUP5 MSTORE KECCAK256 SLOAD AND PUSH1 0x40 MLOAD SWAP1 ISZERO ISZERO DUP2 MSTORE RETURN JUMPDEST POP PUSH1 0x20 CALLDATASIZE PUSH1 0x3 NOT ADD SLT PUSH2 0x273 JUMPI PUSH1 0x4 CALLDATALOAD PUSH1 0x7 DUP2 LT ISZERO PUSH2 0x3B6 JUMPI CALLER DUP3 MSTORE PUSH1 0xC PUSH1 0x20 MSTORE PUSH2 0xE0C PUSH1 0xFF PUSH1 0x40 DUP5 KECCAK256 SLOAD AND PUSH2 0x384E JUMP JUMPDEST PUSH2 0xE14 PUSH2 0x38E2 JUMP JUMPDEST CALLVALUE ISZERO PUSH2 0xF0B JUMPI CALLER DUP3 MSTORE PUSH1 0xD PUSH1 0x20 MSTORE PUSH1 0xFF PUSH1 0x40 DUP4 KECCAK256 SLOAD AND PUSH1 0x8 DUP2 LT ISZERO PUSH2 0xAC2 JUMPI PUSH1 0x6 EQ DUP1 ISZERO PUSH2 0xEE9 JUMPI JUMPDEST ISZERO PUSH2 0xEAD JUMPI PUSH2 0xE4B DUP2 PUSH2 0x2E9B JUMP JUMPDEST PUSH2 0xE56 CALLVALUE DUP3 SLOAD PUSH2 0x32D9 JUMP JUMPDEST SWAP1 SSTORE PUSH2 0xE64 CALLVALUE PUSH1 0x4 SLOAD PUSH2 0x32D9 JUMP JUMPDEST PUSH1 0x4 SSTORE PUSH2 0xE76 PUSH1 0x3 CALLVALUE DIV PUSH1 0x5 SLOAD PUSH2 0x32D9 JUMP JUMPDEST PUSH1 0x5 SSTORE PUSH1 0x40 MLOAD SWAP1 CALLVALUE DUP3 MSTORE PUSH32 0x606617FD09D9890413E3C46147B844D4562351F86E0F7A5C60849BBF0EF02811 PUSH1 0x20 CALLER SWAP4 LOG3 PUSH1 0x1 DUP1 SSTORE DUP1 RETURN JUMPDEST PUSH1 0x40 MLOAD PUSH3 0x461BCD PUSH1 0xE5 SHL DUP2 MSTORE PUSH1 0x20 PUSH1 0x4 DUP3 ADD MSTORE PUSH1 0x14 PUSH1 0x24 DUP3 ADD MSTORE PUSH20 0x21B0B63632B9103737BA10309036B4B9B9B4B7B7 PUSH1 0x61 SHL PUSH1 0x44 DUP3 ADD MSTORE PUSH1 0x64 SWAP1 REVERT JUMPDEST POP CALLER DUP3 MSTORE PUSH1 0xD PUSH1 0x20 MSTORE PUSH1 0xFF PUSH1 0x40 DUP4 KECCAK256 SLOAD AND PUSH1 0x8 DUP2 LT ISZERO PUSH2 0xAC2 JUMPI PUSH1 0x7 EQ PUSH2 0xE3D JUMP JUMPDEST PUSH1 0x64 PUSH1 0x40 MLOAD PUSH3 0x461BCD PUSH1 0xE5 SHL DUP2 MSTORE PUSH1 0x20 PUSH1 0x4 DUP3 ADD MSTORE PUSH1 0x20 PUSH1 0x24 DUP3 ADD MSTORE PUSH32 0x416D6F756E74206D7573742062652067726561746572207468616E207A65726F PUSH1 0x44 DUP3 ADD MSTORE REVERT JUMPDEST POP CALLVALUE PUSH2 0x273 JUMPI PUSH1 0x20 CALLDATASIZE PUSH1 0x3 NOT ADD SLT PUSH2 0x273 JUMPI PUSH1 0x4 CALLDATALOAD PUSH1 0x1 PUSH1 0x1 PUSH1 0xA0 SHL SUB DUP2 AND DUP2 SUB PUSH2 0x3B6 JUMPI PUSH2 0xF7D SWAP1 PUSH2 0x36CF JUMP JUMPDEST PUSH1 0x40 MLOAD SWAP2 ISZERO ISZERO DUP3 MSTORE PUSH1 0x3 DUP2 LT ISZERO PUSH2 0xAC2 JUMPI PUSH1 0x40 SWAP3 POP PUSH1 0x20 DUP3 ADD MSTORE RETURN JUMPDEST POP CALLVALUE PUSH2 0x273 JUMPI DUP1 PUSH1 0x3 NOT CALLDATASIZE ADD SLT PUSH2 0x273 JUMPI SLOAD PUSH1 0x40 MLOAD PUSH1 0x1 PUSH1 0x1 PUSH1 0xA0 SHL SUB SWAP1 SWAP2 AND DUP2 MSTORE PUSH1 0x20 SWAP1 RETURN JUMPDEST POP CALLVALUE PUSH2 0x273 JUMPI DUP1 PUSH1 0x3 NOT CALLDATASIZE ADD SLT PUSH2 0x273 JUMPI PUSH1 0x80 PUSH2 0xFDB PUSH2 0x365E JUMP JUMPDEST PUSH1 0x40 DUP1 MLOAD PUSH1 0x1 PUSH1 0x1 PUSH1 0xA0 SHL SUB SWAP6 DUP7 AND DUP2 MSTORE SWAP5 SWAP1 SWAP4 AND PUSH1 0x20 DUP6 ADD MSTORE SWAP2 DUP4 ADD MSTORE PUSH1 0x60 DUP3 ADD MSTORE RETURN JUMPDEST POP CALLVALUE PUSH2 0x273 JUMPI DUP1 PUSH1 0x3 NOT CALLDATASIZE ADD SLT PUSH2 0x273 JUMPI PUSH1 0x20 PUSH1 0xFF PUSH1 0x3 SLOAD AND PUSH1 0x40 MLOAD SWAP1 DUP2 MSTORE RETURN JUMPDEST POP CALLVALUE PUSH2 0x273 JUMPI DUP1 PUSH1 0x3 NOT CALLDATASIZE ADD SLT PUSH2 0x273 JUMPI PUSH1 0x20 PUSH1 0x7 SLOAD PUSH1 0x40 MLOAD SWAP1 DUP2 MSTORE RETURN JUMPDEST POP CALLVALUE PUSH2 0x273 JUMPI PUSH1 0x20 CALLDATASIZE PUSH1 0x3 NOT ADD SLT PUSH2 0x273 JUMPI PUSH1 0x4 CALLDATALOAD SWAP1 PUSH1 0x2 SLOAD DUP1 DUP4 GT PUSH2 0x1155 JUMPI JUMPDEST PUSH2 0x1069 DUP4 PUSH2 0x2F24 JUMP JUMPDEST SWAP2 PUSH2 0x1073 DUP5 PUSH2 0x2F24 JUMP JUMPDEST SWAP4 PUSH2 0x107D DUP2 PUSH2 0x2F56 JUMP JUMPDEST SWAP3 PUSH1 0x0 NOT DUP2 ADD SWAP1 DUP2 GT DUP4 JUMPDEST DUP4 DUP2 LT PUSH2 0x109F JUMPI PUSH1 0x40 MLOAD DUP1 PUSH2 0xBAF DUP9 DUP12 DUP12 DUP5 PUSH2 0x2C43 JUMP JUMPDEST DUP2 PUSH2 0x3A2 JUMPI PUSH2 0x10B6 PUSH2 0x10B1 DUP3 DUP6 PUSH2 0x32E6 JUMP JUMPDEST PUSH2 0x2CB8 JUMP JUMPDEST SWAP1 SLOAD PUSH1 0x3 SWAP2 SWAP1 SWAP2 SHL SHR PUSH1 0x1 PUSH1 0x1 PUSH1 0xA0 SHL SUB AND DUP1 PUSH2 0x10D3 DUP4 DUP11 PUSH2 0x2FA0 JUMP JUMPDEST MSTORE DUP6 MSTORE PUSH1 0xD PUSH1 0x20 MSTORE PUSH1 0xFF PUSH1 0x40 DUP7 KECCAK256 SLOAD AND PUSH1 0x8 DUP2 LT ISZERO PUSH2 0x1141 JUMPI SWAP1 PUSH1 0x1 SWAP2 PUSH2 0x10FA DUP3 DUP12 PUSH2 0x2FA0 JUMP JUMPDEST MSTORE PUSH2 0x1104 DUP2 PUSH2 0x2CB8 JUMP JUMPDEST DUP4 DUP1 PUSH1 0xA0 SHL SUB SWAP2 SLOAD SWAP1 PUSH1 0x3 SHL SHR AND DUP7 MSTORE PUSH1 0x10 PUSH1 0x20 MSTORE PUSH2 0x1125 PUSH1 0x40 DUP8 KECCAK256 PUSH2 0x2DF7 JUMP JUMPDEST PUSH2 0x112F DUP3 DUP10 PUSH2 0x2FA0 JUMP JUMPDEST MSTORE PUSH2 0x113A DUP2 DUP9 PUSH2 0x2FA0 JUMP JUMPDEST POP ADD PUSH2 0x1088 JUMP JUMPDEST PUSH4 0x4E487B71 PUSH1 0xE0 SHL DUP7 MSTORE PUSH1 0x21 PUSH1 0x4 MSTORE PUSH1 0x24 DUP7 REVERT JUMPDEST SWAP2 POP DUP2 PUSH2 0x1060 JUMP JUMPDEST POP PUSH2 0x140 CALLDATASIZE PUSH1 0x3 NOT ADD SLT PUSH2 0x273 JUMPI PUSH1 0x7 PUSH1 0x4 CALLDATALOAD LT ISZERO PUSH2 0x273 JUMPI PUSH1 0x84 CALLDATALOAD PUSH1 0xFF DUP2 AND DUP2 SUB PUSH2 0x3B6 JUMPI PUSH1 0xA4 CALLDATALOAD SWAP2 PUSH1 0xFF DUP4 AND DUP4 SUB PUSH2 0x273 JUMPI PUSH2 0x104 CALLDATALOAD SWAP2 PUSH1 0xFF DUP4 AND DUP4 SUB PUSH2 0x3B6 JUMPI PUSH2 0x124 CALLDATALOAD SWAP3 PUSH1 0x1 PUSH1 0x1 PUSH1 0x40 SHL SUB DUP5 GT PUSH2 0x271 JUMPI CALLDATASIZE PUSH1 0x23 DUP6 ADD SLT ISZERO PUSH2 0x271 JUMPI DUP4 PUSH1 0x4 ADD CALLDATALOAD SWAP4 PUSH1 0x1 PUSH1 0x1 PUSH1 0x40 SHL SUB DUP6 GT PUSH2 0x6A1 JUMPI CALLDATASIZE PUSH1 0x24 DUP7 DUP4 ADD ADD GT PUSH2 0x6A1 JUMPI DUP4 SLOAD PUSH1 0x1 PUSH1 0x1 PUSH1 0xA0 SHL SUB AND CALLER EQ DUP1 ISZERO PUSH2 0x1AA9 JUMPI JUMPDEST PUSH2 0x11FB SWAP1 PUSH2 0x327E JUMP JUMPDEST PUSH2 0x1203 PUSH2 0x38E2 JUMP JUMPDEST PUSH1 0x5 PUSH1 0xFF DUP4 AND LT PUSH2 0x1A4A JUMPI PUSH1 0xFF DUP3 AND PUSH1 0xFF DUP5 AND LT PUSH2 0x19DF JUMPI PUSH1 0xFF DUP4 AND PUSH1 0xFF DUP8 AND LT PUSH2 0x1975 JUMPI PUSH1 0x44 CALLDATALOAD PUSH1 0x24 CALLDATALOAD LT ISZERO PUSH2 0x1924 JUMPI PUSH1 0x44 CALLDATALOAD PUSH1 0xC4 CALLDATALOAD LT PUSH2 0x18C6 JUMPI PUSH1 0xC4 CALLDATALOAD PUSH1 0xE4 CALLDATALOAD GT ISZERO PUSH2 0x1882 JUMPI PUSH1 0x64 CALLDATALOAD ISZERO PUSH2 0x1829 JUMPI PUSH32 0x0 PUSH1 0x88 DUP2 SWAP1 SHR PUSH3 0xFFFFFF AND PUSH23 0x3D602D80600A3D3981F3363D3D373D3D3D363D73000000 OR DUP6 MSTORE PUSH1 0x78 SHL PUSH15 0x5AF43D82803E903D91602B57FD5BF3 OR PUSH1 0x20 MSTORE PUSH1 0x1 PUSH1 0x1 PUSH1 0xA0 SHL SUB PUSH1 0x37 PUSH1 0x9 DUP7 CREATE AND SWAP5 DUP6 ISZERO PUSH2 0x181A JUMPI DUP5 SWAP1 PUSH2 0x12D3 PUSH1 0x4 CALLDATALOAD PUSH2 0x2EB4 JUMP JUMPDEST PUSH2 0x12DD DUP2 SLOAD PUSH2 0x2EE8 JUMP JUMPDEST SWAP1 SSTORE DUP1 ISZERO PUSH2 0x1640 JUMPI DUP1 DUP1 PUSH1 0x24 PUSH2 0x12F4 PUSH1 0x20 SWAP5 PUSH2 0x2ECD JUMP JUMPDEST SWAP6 PUSH2 0x1302 PUSH1 0x40 MLOAD SWAP8 DUP9 PUSH2 0x2DD6 JUMP JUMPDEST DUP3 DUP8 MSTORE ADD DUP4 DUP7 ADD CALLDATACOPY DUP4 ADD ADD MSTORE SWAP5 JUMPDEST DUP5 DUP5 MSTORE PUSH1 0xC PUSH1 0x20 MSTORE PUSH1 0x40 DUP5 KECCAK256 PUSH1 0x1 PUSH1 0xFF NOT DUP3 SLOAD AND OR SWAP1 SSTORE DUP5 DUP5 MSTORE PUSH1 0xD PUSH1 0x20 MSTORE PUSH1 0x40 DUP5 KECCAK256 PUSH1 0xFF NOT DUP2 SLOAD AND SWAP1 SSTORE DUP5 DUP5 MSTORE PUSH1 0x10 PUSH1 0x20 MSTORE PUSH1 0x40 DUP5 KECCAK256 DUP7 MLOAD PUSH1 0x1 PUSH1 0x1 PUSH1 0x40 SHL SUB DUP2 GT PUSH2 0x162C JUMPI PUSH2 0x1361 DUP3 SLOAD PUSH2 0x2D6A JUMP JUMPDEST PUSH1 0x1F DUP2 GT PUSH2 0x15E7 JUMPI JUMPDEST POP DUP1 PUSH1 0x20 PUSH1 0x1F DUP3 GT PUSH1 0x1 EQ PUSH2 0x1583 JUMPI DUP8 SWAP2 PUSH2 0x1578 JUMPI JUMPDEST POP DUP2 PUSH1 0x1 SHL SWAP2 PUSH1 0x0 NOT SWAP1 PUSH1 0x3 SHL SHR NOT AND OR SWAP1 SSTORE JUMPDEST DUP4 SLOAD PUSH1 0x1 PUSH1 0x1 PUSH1 0xA0 SHL SUB AND SWAP3 DUP6 EXTCODESIZE ISZERO PUSH2 0x1574 JUMPI PUSH1 0xFF SWAP3 SWAP2 DUP4 DUP1 SWAP3 PUSH1 0x40 MLOAD SWAP7 PUSH4 0x17A0F857 PUSH1 0xE2 SHL DUP9 MSTORE PUSH1 0x4 DUP9 ADD MSTORE ADDRESS PUSH1 0x24 DUP9 ADD MSTORE PUSH2 0x13D6 PUSH1 0x44 DUP9 ADD PUSH1 0x4 CALLDATALOAD PUSH2 0x2CAB JUMP JUMPDEST PUSH1 0x24 CALLDATALOAD PUSH1 0x64 DUP9 ADD MSTORE PUSH1 0x44 CALLDATALOAD PUSH1 0x84 DUP9 ADD MSTORE PUSH1 0x64 CALLDATALOAD PUSH1 0xA4 DUP9 ADD MSTORE AND PUSH1 0xC4 DUP7 ADD MSTORE AND PUSH1 0xE4 DUP5 ADD MSTORE PUSH1 0xC4 CALLDATALOAD PUSH2 0x104 DUP5 ADD MSTORE PUSH1 0xE4 CALLDATALOAD PUSH2 0x124 DUP5 ADD MSTORE AND PUSH2 0x144 DUP3 ADD MSTORE PUSH2 0x180 PUSH2 0x164 DUP3 ADD MSTORE DUP2 DUP2 DUP1 PUSH2 0x142D PUSH2 0x184 DUP3 ADD DUP9 PUSH2 0x2BC5 JUMP JUMPDEST SUB DUP2 CALLVALUE DUP8 GAS CALL DUP1 ISZERO PUSH2 0x153B JUMPI DUP3 SWAP1 PUSH2 0x1564 JUMPI JUMPDEST POP POP PUSH1 0x2 SLOAD PUSH1 0x1 PUSH1 0x40 SHL DUP2 LT ISZERO PUSH2 0x1550 JUMPI DUP1 PUSH1 0x1 PUSH2 0x1461 SWAP3 ADD PUSH1 0x2 SSTORE PUSH2 0x2CB8 JUMP JUMPDEST DUP2 SLOAD PUSH1 0x1 PUSH1 0x1 PUSH1 0xA0 SHL SUB PUSH1 0x3 SWAP3 SWAP1 SWAP3 SHL SWAP2 DUP3 SHL NOT AND SWAP1 DUP5 SWAP1 SHL OR SWAP1 SSTORE PUSH1 0x4 CALLDATALOAD DUP3 PUSH32 0xAC1AC89285BF936F515AAFCF6808B3E062E77FD57F52C8892D20FC9409B8B53 DUP4 DUP1 LOG3 PUSH2 0x14B0 PUSH1 0x4 CALLDATALOAD PUSH2 0x2E9B JUMP JUMPDEST SLOAD PUSH1 0x2 SHR DUP1 ISZERO ISZERO DUP1 PUSH2 0x1546 JUMPI JUMPDEST PUSH2 0x14E4 JUMPI JUMPDEST POP POP PUSH1 0x1 DUP1 SSTORE PUSH2 0xBAF PUSH1 0x40 MLOAD SWAP3 DUP4 SWAP3 DUP4 MSTORE PUSH1 0x40 PUSH1 0x20 DUP5 ADD MSTORE PUSH1 0x40 DUP4 ADD SWAP1 PUSH2 0x2BC5 JUMP JUMPDEST PUSH2 0x14EF PUSH1 0x4 CALLDATALOAD PUSH2 0x2E9B JUMP JUMPDEST PUSH2 0x14FA DUP3 DUP3 SLOAD PUSH2 0x32E6 JUMP JUMPDEST SWAP1 SSTORE DUP3 EXTCODESIZE ISZERO PUSH2 0x3B6 JUMPI DUP2 PUSH1 0x4 SWAP2 PUSH1 0x40 MLOAD SWAP3 DUP4 DUP1 SWAP3 PUSH4 0xEB2BAB77 PUSH1 0xE0 SHL DUP3 MSTORE DUP8 GAS CALL DUP1 ISZERO PUSH2 0x153B JUMPI ISZERO PUSH2 0x14C2 JUMPI PUSH2 0x1531 DUP3 DUP1 SWAP3 PUSH2 0x2DD6 JUMP JUMPDEST PUSH2 0x273 JUMPI DUP1 PUSH2 0x14C2 JUMP JUMPDEST PUSH1 0x40 MLOAD RETURNDATASIZE DUP5 DUP3 RETURNDATACOPY RETURNDATASIZE SWAP1 REVERT JUMPDEST POP DUP1 SELFBALANCE LT ISZERO PUSH2 0x14BD JUMP JUMPDEST PUSH4 0x4E487B71 PUSH1 0xE0 SHL DUP3 MSTORE PUSH1 0x41 PUSH1 0x4 MSTORE PUSH1 0x24 DUP3 REVERT JUMPDEST PUSH2 0x156D SWAP2 PUSH2 0x2DD6 JUMP JUMPDEST CODESIZE DUP2 PUSH2 0x1440 JUMP JUMPDEST DUP5 DUP1 REVERT JUMPDEST SWAP1 POP DUP9 ADD MLOAD CODESIZE PUSH2 0x1380 JUMP JUMPDEST SWAP2 POP DUP3 DUP8 MSTORE DUP2 DUP8 KECCAK256 DUP8 SWAP3 JUMPDEST DUP11 PUSH1 0x1F NOT DUP5 AND DUP6 LT PUSH2 0x15D0 JUMPI POP PUSH1 0x1 SWAP4 POP DUP3 PUSH1 0x1F NOT DUP2 AND LT PUSH2 0x15B7 JUMPI JUMPDEST POP POP DUP2 SHL ADD SWAP1 SSTORE PUSH2 0x1394 JUMP JUMPDEST DUP11 ADD MLOAD PUSH1 0x0 NOT PUSH1 0xF8 DUP5 PUSH1 0x3 SHL AND SHR NOT AND SWAP1 SSTORE CODESIZE DUP1 PUSH2 0x15AB JUMP JUMPDEST DUP2 ADD MLOAD DUP3 SSTORE PUSH1 0x20 SWAP4 DUP5 ADD SWAP4 PUSH1 0x1 SWAP1 SWAP3 ADD SWAP2 ADD PUSH2 0x158E JUMP JUMPDEST DUP3 DUP8 MSTORE PUSH1 0x20 DUP8 KECCAK256 PUSH1 0x1F DUP4 ADD PUSH1 0x5 SHR DUP2 ADD SWAP2 PUSH1 0x20 DUP5 LT PUSH2 0x1622 JUMPI JUMPDEST PUSH1 0x1F ADD PUSH1 0x5 SHR ADD SWAP1 JUMPDEST DUP2 DUP2 LT PUSH2 0x1617 JUMPI POP PUSH2 0x136A JUMP JUMPDEST DUP8 DUP2 SSTORE PUSH1 0x1 ADD PUSH2 0x160A JUMP JUMPDEST SWAP1 SWAP2 POP DUP2 SWAP1 PUSH2 0x1601 JUMP JUMPDEST PUSH4 0x4E487B71 PUSH1 0xE0 SHL DUP7 MSTORE PUSH1 0x41 PUSH1 0x4 MSTORE PUSH1 0x24 DUP7 REVERT JUMPDEST POP POP POP PUSH2 0x164E PUSH1 0x4 CALLDATALOAD PUSH2 0x394B JUMP JUMPDEST PUSH2 0x1659 PUSH1 0x4 CALLDATALOAD PUSH2 0x2EB4 JUMP JUMPDEST SLOAD DUP5 DUP2 PUSH19 0x184F03E93FF9F4DAA797ED6E38ED64BF6A1F01 PUSH1 0x40 SHL DUP2 LT ISZERO PUSH2 0x17F7 JUMPI JUMPDEST DUP1 PUSH14 0x4EE2D6D415B85ACEF8100000000 PUSH1 0xA SWAP3 LT ISZERO PUSH2 0x17DC JUMPI JUMPDEST PUSH7 0x2386F26FC10000 DUP2 LT ISZERO PUSH2 0x17C8 JUMPI JUMPDEST PUSH4 0x5F5E100 DUP2 LT ISZERO PUSH2 0x17B7 JUMPI JUMPDEST PUSH2 0x2710 DUP2 LT ISZERO PUSH2 0x17A8 JUMPI JUMPDEST PUSH1 0x64 DUP2 LT ISZERO PUSH2 0x179A JUMPI JUMPDEST LT ISZERO PUSH2 0x1792 JUMPI JUMPDEST PUSH1 0x1 DUP2 ADD SWAP2 PUSH1 0xA PUSH1 0x21 PUSH2 0x16F9 PUSH2 0x16E3 DUP7 PUSH2 0x2ECD JUMP JUMPDEST SWAP6 PUSH2 0x16F1 PUSH1 0x40 MLOAD SWAP8 DUP9 PUSH2 0x2DD6 JUMP JUMPDEST DUP1 DUP8 MSTORE PUSH2 0x2ECD JUMP JUMPDEST PUSH1 0x20 DUP7 ADD SWAP5 SWAP1 PUSH1 0x1F NOT ADD CALLDATASIZE DUP7 CALLDATACOPY DUP6 ADD ADD JUMPDEST PUSH1 0x0 NOT ADD SWAP2 PUSH16 0x181899199A1A9B1B9C1CB0B131B232B3 PUSH1 0x81 SHL DUP3 DUP3 MOD BYTE DUP4 MSTORE8 DIV SWAP1 DUP2 ISZERO PUSH2 0x1739 JUMPI PUSH1 0xA SWAP1 PUSH2 0x170A JUMP JUMPDEST POP POP PUSH2 0x177B SWAP3 PUSH1 0x20 PUSH1 0x3 SWAP3 PUSH2 0x178C SWAP5 PUSH1 0x40 MLOAD SWAP7 DUP5 PUSH2 0x1760 DUP10 SWAP7 MLOAD DUP1 SWAP3 DUP8 DUP1 DUP11 ADD SWAP2 ADD PUSH2 0x2BA2 JUMP JUMPDEST DUP6 ADD SWAP2 PUSH3 0x10169 PUSH1 0xED SHL DUP6 DUP5 ADD MSTORE MLOAD DUP1 SWAP4 PUSH1 0x23 DUP5 ADD SWAP1 PUSH2 0x2BA2 JUMP JUMPDEST ADD ADD SUB ADD PUSH1 0x1F NOT DUP2 ADD DUP4 MSTORE DUP3 PUSH2 0x2DD6 JUMP JUMPDEST SWAP5 PUSH2 0x1310 JUMP JUMPDEST PUSH1 0x1 ADD PUSH2 0x16CE JUMP JUMPDEST PUSH1 0x64 PUSH1 0x2 SWAP2 DIV SWAP3 ADD SWAP2 PUSH2 0x16C7 JUMP JUMPDEST PUSH2 0x2710 PUSH1 0x4 SWAP2 DIV SWAP3 ADD SWAP2 PUSH2 0x16BD JUMP JUMPDEST PUSH4 0x5F5E100 PUSH1 0x8 SWAP2 DIV SWAP3 ADD SWAP2 PUSH2 0x16B2 JUMP JUMPDEST PUSH7 0x2386F26FC10000 PUSH1 0x10 SWAP2 DIV SWAP3 ADD SWAP2 PUSH2 0x16A5 JUMP JUMPDEST PUSH14 0x4EE2D6D415B85ACEF8100000000 PUSH1 0x20 SWAP2 DIV SWAP3 ADD SWAP2 PUSH2 0x1695 JUMP JUMPDEST POP PUSH1 0x40 SWAP1 POP PUSH19 0x184F03E93FF9F4DAA797ED6E38ED64BF6A1F01 PUSH1 0x40 SHL DUP3 DIV PUSH2 0x167B JUMP JUMPDEST PUSH4 0xB06EBF3D PUSH1 0xE0 SHL DUP6 MSTORE PUSH1 0x4 DUP6 REVERT JUMPDEST PUSH1 0x40 MLOAD PUSH3 0x461BCD PUSH1 0xE5 SHL DUP2 MSTORE PUSH1 0x20 PUSH1 0x4 DUP3 ADD MSTORE PUSH1 0x2B PUSH1 0x24 DUP3 ADD MSTORE PUSH32 0x456E726F6C6C6D656E7420616D6F756E74206D75737420626520677265617465 PUSH1 0x44 DUP3 ADD MSTORE PUSH11 0x72207468616E207A65726F PUSH1 0xA8 SHL PUSH1 0x64 DUP3 ADD MSTORE PUSH1 0x84 SWAP1 REVERT JUMPDEST PUSH1 0x64 PUSH1 0x40 MLOAD PUSH3 0x461BCD PUSH1 0xE5 SHL DUP2 MSTORE PUSH1 0x20 PUSH1 0x4 DUP3 ADD MSTORE PUSH1 0x20 PUSH1 0x24 DUP3 ADD MSTORE PUSH32 0x4D697373696F6E207374617274206D757374206265206265666F726520656E64 PUSH1 0x44 DUP3 ADD MSTORE REVERT JUMPDEST PUSH1 0x40 MLOAD PUSH3 0x461BCD PUSH1 0xE5 SHL DUP2 MSTORE PUSH1 0x20 PUSH1 0x4 DUP3 ADD MSTORE PUSH1 0x30 PUSH1 0x24 DUP3 ADD MSTORE PUSH32 0x4D697373696F6E207374617274206D757374206265206F6E206F722061667465 PUSH1 0x44 DUP3 ADD MSTORE PUSH16 0x1C88195B9C9BDB1B1B595B9D08195B99 PUSH1 0x82 SHL PUSH1 0x64 DUP3 ADD MSTORE PUSH1 0x84 SWAP1 REVERT JUMPDEST PUSH1 0x40 MLOAD PUSH3 0x461BCD PUSH1 0xE5 SHL DUP2 MSTORE PUSH1 0x20 PUSH1 0x4 DUP3 ADD MSTORE PUSH1 0x23 PUSH1 0x24 DUP3 ADD MSTORE PUSH32 0x456E726F6C6C6D656E74207374617274206D757374206265206265666F726520 PUSH1 0x44 DUP3 ADD MSTORE PUSH3 0x195B99 PUSH1 0xEA SHL PUSH1 0x64 DUP3 ADD MSTORE PUSH1 0x84 SWAP1 REVERT JUMPDEST PUSH1 0x84 PUSH1 0x40 MLOAD PUSH3 0x461BCD PUSH1 0xE5 SHL DUP2 MSTORE PUSH1 0x20 PUSH1 0x4 DUP3 ADD MSTORE PUSH1 0x40 PUSH1 0x24 DUP3 ADD MSTORE PUSH32 0x4D6178696D756D20706C6179657273206D757374206265206772656174657220 PUSH1 0x44 DUP3 ADD MSTORE PUSH32 0x7468616E206F7220657175616C20746F206D696E696D756D20706C6179657273 PUSH1 0x64 DUP3 ADD MSTORE REVERT JUMPDEST PUSH1 0x40 MLOAD PUSH3 0x461BCD PUSH1 0xE5 SHL DUP2 MSTORE PUSH1 0x20 PUSH1 0x4 DUP3 ADD MSTORE PUSH1 0x3F PUSH1 0x24 DUP3 ADD MSTORE PUSH32 0x4D696E696D756D20706C6179657273206D757374206265206772656174657220 PUSH1 0x44 DUP3 ADD MSTORE PUSH32 0x7468616E206F7220657175616C20746F206D697373696F6E20726F756E647300 PUSH1 0x64 DUP3 ADD MSTORE PUSH1 0x84 SWAP1 REVERT JUMPDEST PUSH1 0x40 MLOAD PUSH3 0x461BCD PUSH1 0xE5 SHL DUP2 MSTORE PUSH1 0x20 PUSH1 0x4 DUP3 ADD MSTORE PUSH1 0x31 PUSH1 0x24 DUP3 ADD MSTORE PUSH32 0x4D697373696F6E20726F756E6473206D75737420626520677265617465722074 PUSH1 0x44 DUP3 ADD MSTORE PUSH17 0x68616E206F7220657175616C20746F2035 PUSH1 0x78 SHL PUSH1 0x64 DUP3 ADD MSTORE PUSH1 0x84 SWAP1 REVERT JUMPDEST POP CALLER DUP5 MSTORE PUSH1 0xB PUSH1 0x20 MSTORE PUSH1 0x40 DUP5 KECCAK256 SLOAD PUSH1 0xFF AND PUSH2 0x11F2 JUMP JUMPDEST POP CALLVALUE PUSH2 0x273 JUMPI DUP1 PUSH1 0x3 NOT CALLDATASIZE ADD SLT PUSH2 0x273 JUMPI DUP1 SLOAD PUSH1 0x1 PUSH1 0x1 PUSH1 0xA0 SHL SUB AND CALLER EQ DUP1 ISZERO PUSH2 0x1C11 JUMPI JUMPDEST PUSH2 0x1AED SWAP1 PUSH2 0x327E JUMP JUMPDEST PUSH1 0xA SLOAD PUSH1 0x1 PUSH1 0x1 PUSH1 0xA0 SHL SUB AND CALLER EQ PUSH2 0x1BCD JUMPI PUSH1 0x8 SLOAD PUSH3 0x15180 DUP2 ADD DUP1 SWAP2 GT PUSH2 0x79B JUMPI TIMESTAMP GT PUSH2 0x1B95 JUMPI PUSH1 0x9 SLOAD PUSH2 0x1B2A SWAP1 PUSH1 0x1 PUSH1 0x1 PUSH1 0xA0 SHL SUB AND PUSH2 0x3904 JUMP JUMPDEST PUSH1 0x9 SLOAD PUSH1 0x40 DUP1 MLOAD PUSH1 0x1 PUSH1 0x1 PUSH1 0xA0 SHL SUB SWAP1 SWAP3 AND DUP3 MSTORE TIMESTAMP PUSH1 0x20 DUP4 ADD MSTORE CALLER SWAP2 PUSH32 0xDD72DD33198968A9CDC9B1E5CBFF344FB8D04D99F8C15C0A02416B04E857B467 SWAP2 SWAP1 LOG2 PUSH1 0x1 PUSH1 0x1 PUSH1 0x60 SHL SUB PUSH1 0xA0 SHL PUSH1 0x9 SLOAD AND PUSH1 0x9 SSTORE PUSH1 0x1 PUSH1 0x1 PUSH1 0x60 SHL SUB PUSH1 0xA0 SHL PUSH1 0xA SLOAD AND PUSH1 0xA SSTORE DUP1 PUSH1 0x8 SSTORE DUP1 RETURN JUMPDEST PUSH1 0x40 MLOAD PUSH3 0x461BCD PUSH1 0xE5 SHL DUP2 MSTORE PUSH1 0x20 PUSH1 0x4 DUP3 ADD MSTORE PUSH1 0x10 PUSH1 0x24 DUP3 ADD MSTORE PUSH16 0x141C9BDC1BDCD85B08195E1C1A5C9959 PUSH1 0x82 SHL PUSH1 0x44 DUP3 ADD MSTORE PUSH1 0x64 SWAP1 REVERT JUMPDEST PUSH1 0x64 PUSH1 0x40 MLOAD PUSH3 0x461BCD PUSH1 0xE5 SHL DUP2 MSTORE PUSH1 0x20 PUSH1 0x4 DUP3 ADD MSTORE PUSH1 0x20 PUSH1 0x24 DUP3 ADD MSTORE PUSH32 0x43616E6E6F7420636F6E6669726D20796F7572206F776E2070726F706F73616C PUSH1 0x44 DUP3 ADD MSTORE REVERT JUMPDEST POP CALLER DUP2 MSTORE PUSH1 0xB PUSH1 0x20 MSTORE PUSH1 0x40 DUP2 KECCAK256 SLOAD PUSH1 0xFF AND PUSH2 0x1AE4 JUMP JUMPDEST POP CALLVALUE PUSH2 0x273 JUMPI DUP1 PUSH1 0x3 NOT CALLDATASIZE ADD SLT PUSH2 0x273 JUMPI PUSH2 0x1C40 PUSH2 0x38B9 JUMP JUMPDEST DUP1 SLOAD PUSH1 0x1 PUSH1 0x1 PUSH1 0xA0 SHL SUB NOT DUP2 AND DUP3 SSTORE DUP2 SWAP1 PUSH1 0x1 PUSH1 0x1 PUSH1 0xA0 SHL SUB AND PUSH32 0x8BE0079C531659141344CD1FD0A4F28419497F9722A3DAAFE3B4186F6B6457E0 DUP3 DUP1 LOG3 DUP1 RETURN JUMPDEST POP CALLVALUE PUSH2 0x273 JUMPI PUSH1 0x20 CALLDATASIZE PUSH1 0x3 NOT ADD SLT PUSH2 0x273 JUMPI PUSH1 0x4 CALLDATALOAD PUSH1 0x1 PUSH1 0x1 PUSH1 0xA0 SHL SUB DUP2 AND SWAP1 DUP2 SWAP1 SUB PUSH2 0x3B6 JUMPI DUP2 SLOAD PUSH1 0x1 PUSH1 0x1 PUSH1 0xA0 SHL SUB AND CALLER EQ DUP1 ISZERO PUSH2 0x1D56 JUMPI JUMPDEST PUSH2 0x1CC5 SWAP1 PUSH2 0x327E JUMP JUMPDEST PUSH2 0x1CD0 DUP2 ISZERO ISZERO PUSH2 0x32F3 JUMP JUMPDEST DUP1 DUP3 MSTORE PUSH1 0xB PUSH1 0x20 MSTORE PUSH1 0xFF PUSH1 0x40 DUP4 KECCAK256 SLOAD AND ISZERO PUSH2 0x1D20 JUMPI DUP1 DUP3 MSTORE PUSH1 0xB PUSH1 0x20 MSTORE PUSH1 0x40 DUP3 KECCAK256 DUP1 SLOAD PUSH1 0xFF NOT AND SWAP1 SSTORE PUSH32 0x66D5F06F711AF3C9FEBA3203FDB00B51345D514C68585D9D319C5FF5E6F77592 DUP3 DUP1 LOG2 DUP1 RETURN JUMPDEST PUSH1 0x40 MLOAD PUSH3 0x461BCD PUSH1 0xE5 SHL DUP2 MSTORE PUSH1 0x20 PUSH1 0x4 DUP3 ADD MSTORE PUSH1 0xE PUSH1 0x24 DUP3 ADD MSTORE PUSH14 0x139BDD08185D5D1A1BDC9A5E9959 PUSH1 0x92 SHL PUSH1 0x44 DUP3 ADD MSTORE PUSH1 0x64 SWAP1 REVERT JUMPDEST POP CALLER DUP3 MSTORE PUSH1 0xB PUSH1 0x20 MSTORE PUSH1 0x40 DUP3 KECCAK256 SLOAD PUSH1 0xFF AND PUSH2 0x1CBC JUMP JUMPDEST POP CALLVALUE PUSH2 0x273 JUMPI DUP1 PUSH1 0x3 NOT CALLDATASIZE ADD SLT PUSH2 0x273 JUMPI PUSH2 0xBAF PUSH2 0x1D88 PUSH2 0x3362 JUMP JUMPDEST PUSH1 0x40 SWAP4 SWAP2 SWAP4 MLOAD SWAP4 DUP5 SWAP4 DUP5 PUSH2 0x2D01 JUMP JUMPDEST POP CALLVALUE PUSH2 0x273 JUMPI DUP1 PUSH1 0x3 NOT CALLDATASIZE ADD SLT PUSH2 0x273 JUMPI PUSH1 0x2 SLOAD DUP2 SWAP1 DUP3 JUMPDEST DUP2 DUP2 LT PUSH2 0x1E8A JUMPI POP PUSH2 0x1DC0 DUP3 PUSH2 0x2F24 JUMP JUMPDEST SWAP1 PUSH2 0x1DCD PUSH2 0xBE9 DUP5 PUSH2 0x2F24 JUMP JUMPDEST SWAP1 DUP5 DUP1 JUMPDEST DUP3 DUP3 LT PUSH2 0x1DEB JUMPI POP POP POP PUSH2 0xBAF SWAP1 PUSH1 0x40 MLOAD SWAP4 DUP5 SWAP4 DUP5 PUSH2 0x2C43 JUMP JUMPDEST PUSH2 0x1DF4 DUP3 PUSH2 0x2CB8 JUMP JUMPDEST SWAP1 SLOAD PUSH1 0x3 SWAP2 SWAP1 SWAP2 SHL SHR PUSH1 0x1 PUSH1 0x1 PUSH1 0xA0 SHL SUB AND DUP8 MSTORE PUSH1 0xD PUSH1 0x20 MSTORE PUSH1 0x40 DUP8 KECCAK256 SLOAD PUSH1 0xFF AND PUSH1 0x8 DUP2 LT ISZERO DUP1 PUSH2 0xD05 JUMPI PUSH1 0x6 DUP3 EQ ISZERO DUP1 PUSH2 0x1E7D JUMPI JUMPDEST PUSH2 0x1E3B JUMPI JUMPDEST POP POP SWAP1 PUSH1 0x1 ADD SWAP1 PUSH2 0x1DD1 JUMP JUMPDEST PUSH2 0x1E44 DUP5 PUSH2 0x2CB8 JUMP JUMPDEST SWAP1 SLOAD PUSH1 0x3 SWAP2 SWAP1 SWAP2 SHL SHR PUSH1 0x1 PUSH1 0x1 PUSH1 0xA0 SHL SUB AND PUSH2 0x1E60 DUP5 DUP10 PUSH2 0x2FA0 JUMP JUMPDEST MSTORE PUSH2 0xCE5 JUMPI DUP2 PUSH2 0x1E76 SWAP2 PUSH2 0xC98 PUSH1 0x1 SWAP5 DUP11 PUSH2 0x2FA0 JUMP JUMPDEST SWAP1 CODESIZE PUSH2 0x1E2F JUMP JUMPDEST POP POP DUP8 PUSH1 0x7 DUP3 EQ ISZERO PUSH2 0x1E2A JUMP JUMPDEST PUSH2 0x1E93 DUP2 PUSH2 0x2CB8 JUMP JUMPDEST SWAP1 SLOAD PUSH1 0x3 SWAP2 SWAP1 SWAP2 SHL SHR PUSH1 0x1 PUSH1 0x1 PUSH1 0xA0 SHL SUB AND DUP5 MSTORE PUSH1 0xD PUSH1 0x20 MSTORE PUSH1 0x40 DUP5 KECCAK256 SLOAD PUSH1 0xFF AND PUSH1 0x8 DUP2 LT ISZERO PUSH2 0xD85 JUMPI PUSH1 0x6 DUP2 EQ ISZERO SWAP1 DUP2 PUSH2 0x1EEB JUMPI JUMPDEST POP PUSH2 0x1ED7 JUMPI JUMPDEST PUSH1 0x1 ADD PUSH2 0x1DAF JUMP JUMPDEST SWAP2 PUSH2 0x1EE3 PUSH1 0x1 SWAP2 PUSH2 0x2EE8 JUMP JUMPDEST SWAP3 SWAP1 POP PUSH2 0x1ECF JUMP JUMPDEST PUSH1 0x7 SWAP2 POP EQ ISZERO CODESIZE PUSH2 0x1EC9 JUMP JUMPDEST POP CALLVALUE PUSH2 0x273 JUMPI DUP1 PUSH1 0x3 NOT CALLDATASIZE ADD SLT PUSH2 0x273 JUMPI PUSH1 0x20 PUSH1 0x4 SLOAD PUSH1 0x40 MLOAD SWAP1 DUP2 MSTORE RETURN JUMPDEST POP CALLVALUE PUSH2 0x273 JUMPI DUP1 PUSH1 0x3 NOT CALLDATASIZE ADD SLT PUSH2 0x273 JUMPI PUSH1 0x20 PUSH1 0x2 SLOAD PUSH1 0x40 MLOAD SWAP1 DUP2 MSTORE RETURN JUMPDEST POP CALLVALUE PUSH2 0x273 JUMPI PUSH1 0x20 CALLDATASIZE PUSH1 0x3 NOT ADD SLT PUSH2 0x273 JUMPI PUSH1 0x4 CALLDATALOAD PUSH1 0x1 PUSH1 0x1 PUSH1 0xA0 SHL SUB DUP2 AND SWAP1 DUP2 SWAP1 SUB PUSH2 0x3B6 JUMPI PUSH1 0x2 SLOAD DUP3 SWAP1 DUP1 DUP1 JUMPDEST PUSH2 0x20F7 JUMPI POP PUSH2 0x1F70 DUP5 PUSH2 0x2F24 JUMP JUMPDEST SWAP3 PUSH2 0x1F83 PUSH2 0x1F7D DUP7 PUSH2 0x2F24 JUMP JUMPDEST SWAP6 PUSH2 0x2F56 JUMP JUMPDEST SWAP3 DUP1 SWAP3 DUP1 JUMPDEST PUSH2 0x1F9C JUMPI PUSH1 0x40 MLOAD DUP1 PUSH2 0xBAF DUP8 DUP11 DUP11 DUP5 PUSH2 0x2D01 JUMP JUMPDEST PUSH1 0x0 NOT DUP2 ADD DUP2 DUP2 GT PUSH2 0xA78 JUMPI PUSH2 0x1FB1 SWAP1 PUSH2 0x2CB8 JUMP JUMPDEST SWAP1 SLOAD PUSH1 0x40 MLOAD PUSH3 0x9C95E1 PUSH1 0xE4 SHL DUP2 MSTORE PUSH1 0x4 DUP2 ADD DUP7 SWAP1 MSTORE PUSH1 0x3 SWAP3 SWAP1 SWAP3 SHL SHR PUSH1 0x1 PUSH1 0x1 PUSH1 0xA0 SHL SUB AND SWAP1 PUSH1 0x20 DUP2 PUSH1 0x24 DUP2 DUP6 GAS STATICCALL SWAP1 DUP2 ISZERO PUSH2 0x20BE JUMPI DUP5 SWAP2 PUSH2 0x20C9 JUMPI JUMPDEST POP PUSH2 0x2004 JUMPI JUMPDEST POP PUSH2 0x1FFE SWAP1 PUSH2 0x3331 JUMP JUMPDEST DUP1 PUSH2 0x1F88 JUMP JUMPDEST DUP1 PUSH2 0x2012 DUP7 DUP10 SWAP8 SWAP5 SWAP8 PUSH2 0x2FA0 JUMP JUMPDEST MSTORE PUSH1 0x40 MLOAD PUSH4 0x68C6BA21 PUSH1 0xE0 SHL DUP2 MSTORE PUSH1 0x20 DUP2 PUSH1 0x4 DUP2 DUP6 GAS STATICCALL SWAP1 DUP2 ISZERO PUSH2 0x20BE JUMPI DUP5 SWAP2 PUSH2 0x2082 JUMPI JUMPDEST POP SWAP2 PUSH2 0x207B SWAP2 PUSH2 0x2053 PUSH2 0x1FFE SWAP5 PUSH2 0x204E DUP5 DUP14 PUSH2 0x2FA0 JUMP JUMPDEST PUSH2 0x3356 JUMP JUMPDEST DUP5 MSTORE PUSH1 0x10 PUSH1 0x20 MSTORE PUSH2 0x2066 PUSH1 0x40 DUP6 KECCAK256 PUSH2 0x2DF7 JUMP JUMPDEST PUSH2 0x2070 DUP3 DUP10 PUSH2 0x2FA0 JUMP JUMPDEST MSTORE PUSH2 0xCD8 DUP2 DUP9 PUSH2 0x2FA0 JUMP JUMPDEST SWAP4 SWAP1 PUSH2 0x1FF4 JUMP JUMPDEST SWAP1 POP PUSH1 0x20 DUP2 RETURNDATASIZE DUP3 GT PUSH2 0x20B6 JUMPI JUMPDEST DUP2 PUSH2 0x209C PUSH1 0x20 SWAP4 DUP4 PUSH2 0x2DD6 JUMP JUMPDEST DUP2 ADD SUB SLT PUSH2 0x6A1 JUMPI MLOAD PUSH1 0x8 DUP2 LT ISZERO PUSH2 0x6A1 JUMPI PUSH2 0x207B PUSH2 0x2037 JUMP JUMPDEST RETURNDATASIZE SWAP2 POP PUSH2 0x208F JUMP JUMPDEST PUSH1 0x40 MLOAD RETURNDATASIZE DUP7 DUP3 RETURNDATACOPY RETURNDATASIZE SWAP1 REVERT JUMPDEST PUSH2 0x20EA SWAP2 POP PUSH1 0x20 RETURNDATASIZE DUP2 GT PUSH2 0x20F0 JUMPI JUMPDEST PUSH2 0x20E2 DUP2 DUP4 PUSH2 0x2DD6 JUMP JUMPDEST DUP2 ADD SWAP1 PUSH2 0x333E JUMP JUMPDEST CODESIZE PUSH2 0x1FEE JUMP JUMPDEST POP RETURNDATASIZE PUSH2 0x20D8 JUMP JUMPDEST PUSH1 0x0 NOT DUP2 ADD DUP2 DUP2 GT PUSH2 0x2191 JUMPI PUSH1 0x20 PUSH2 0x2110 PUSH1 0x24 SWAP3 PUSH2 0x2CB8 JUMP JUMPDEST SWAP1 SLOAD PUSH1 0x40 MLOAD PUSH3 0x9C95E1 PUSH1 0xE4 SHL DUP2 MSTORE PUSH1 0x4 DUP2 ADD DUP10 SWAP1 MSTORE SWAP4 DUP5 SWAP3 SWAP1 SWAP2 DUP4 SWAP2 PUSH1 0x3 SHL SHR PUSH1 0x1 PUSH1 0x1 PUSH1 0xA0 SHL SUB AND GAS STATICCALL SWAP1 DUP2 ISZERO PUSH2 0x20BE JUMPI DUP5 SWAP2 PUSH2 0x2173 JUMPI JUMPDEST POP PUSH2 0x215E JUMPI JUMPDEST PUSH2 0x2158 SWAP1 PUSH2 0x3331 JUMP JUMPDEST DUP1 PUSH2 0x1F62 JUMP JUMPDEST SWAP4 PUSH2 0x216B PUSH2 0x2158 SWAP2 PUSH2 0x2EE8 JUMP JUMPDEST SWAP5 SWAP1 POP PUSH2 0x214F JUMP JUMPDEST PUSH2 0x218B SWAP2 POP PUSH1 0x20 RETURNDATASIZE DUP2 GT PUSH2 0x20F0 JUMPI PUSH2 0x20E2 DUP2 DUP4 PUSH2 0x2DD6 JUMP JUMPDEST CODESIZE PUSH2 0x2149 JUMP JUMPDEST PUSH4 0x4E487B71 PUSH1 0xE0 SHL DUP5 MSTORE PUSH1 0x11 PUSH1 0x4 MSTORE PUSH1 0x24 DUP5 REVERT JUMPDEST POP CALLVALUE PUSH2 0x273 JUMPI PUSH1 0x20 CALLDATASIZE PUSH1 0x3 NOT ADD SLT PUSH2 0x273 JUMPI PUSH1 0x4 CALLDATALOAD PUSH1 0x1 PUSH1 0x1 PUSH1 0xA0 SHL SUB DUP2 AND SWAP1 DUP2 SWAP1 SUB PUSH2 0x3B6 JUMPI DUP2 SLOAD PUSH1 0x1 PUSH1 0x1 PUSH1 0xA0 SHL SUB AND CALLER EQ DUP1 ISZERO PUSH2 0x2280 JUMPI JUMPDEST PUSH2 0x21E9 SWAP1 PUSH2 0x327E JUMP JUMPDEST PUSH2 0x21F4 DUP2 ISZERO ISZERO PUSH2 0x32F3 JUMP JUMPDEST DUP1 DUP3 MSTORE PUSH1 0xB PUSH1 0x20 MSTORE PUSH1 0xFF PUSH1 0x40 DUP4 KECCAK256 SLOAD AND PUSH2 0x2246 JUMPI DUP1 DUP3 MSTORE PUSH1 0xB PUSH1 0x20 MSTORE PUSH1 0x40 DUP3 KECCAK256 DUP1 SLOAD PUSH1 0xFF NOT AND PUSH1 0x1 OR SWAP1 SSTORE PUSH32 0x10AC961F00D5E732BA4DCC2C6FB09BEBEA0EB9EDD2A75C8109775EF288382E67 DUP3 DUP1 LOG2 DUP1 RETURN JUMPDEST PUSH1 0x40 MLOAD PUSH3 0x461BCD PUSH1 0xE5 SHL DUP2 MSTORE PUSH1 0x20 PUSH1 0x4 DUP3 ADD MSTORE PUSH1 0x12 PUSH1 0x24 DUP3 ADD MSTORE PUSH18 0x105B1C9958591E48185D5D1A1BDC9A5E9959 PUSH1 0x72 SHL PUSH1 0x44 DUP3 ADD MSTORE PUSH1 0x64 SWAP1 REVERT JUMPDEST POP CALLER DUP3 MSTORE PUSH1 0xB PUSH1 0x20 MSTORE PUSH1 0x40 DUP3 KECCAK256 SLOAD PUSH1 0xFF AND PUSH2 0x21E0 JUMP JUMPDEST POP CALLVALUE PUSH2 0x273 JUMPI PUSH1 0x20 CALLDATASIZE PUSH1 0x3 NOT ADD SLT PUSH2 0x273 JUMPI PUSH1 0x4 CALLDATALOAD PUSH1 0x1 PUSH1 0x1 PUSH1 0xA0 SHL SUB DUP2 AND SWAP1 DUP2 SWAP1 SUB PUSH2 0x3B6 JUMPI DUP2 MSTORE PUSH1 0xF PUSH1 0x20 MSTORE PUSH1 0x40 DUP2 KECCAK256 DUP1 SLOAD DUP3 SWAP2 DUP3 JUMPDEST DUP3 DUP2 LT PUSH2 0x2304 JUMPI POP POP POP DUP2 PUSH2 0x22E9 JUMPI PUSH1 0x20 SWAP2 POP PUSH1 0x40 MLOAD SWAP1 DUP2 MSTORE RETURN JUMPDEST PUSH3 0x278D00 DUP3 ADD DUP1 SWAP3 GT PUSH2 0x31D JUMPI POP PUSH2 0x318 PUSH1 0x20 SWAP2 TIMESTAMP SWAP1 PUSH2 0x32E6 JUMP JUMPDEST PUSH2 0x230E DUP2 DUP4 PUSH2 0x2CE9 JUMP JUMPDEST SWAP1 SLOAD SWAP1 PUSH1 0x3 SHL SHR PUSH3 0x278D00 DUP2 ADD DUP1 SWAP2 GT PUSH2 0x3A2 JUMPI TIMESTAMP LT PUSH2 0x2331 JUMPI JUMPDEST PUSH1 0x1 ADD PUSH2 0x22CE JUMP JUMPDEST DUP5 ISZERO DUP1 ISZERO PUSH2 0x235C JUMPI JUMPDEST ISZERO PUSH2 0x2329 JUMPI SWAP4 POP PUSH1 0x1 PUSH2 0x234D DUP6 DUP4 PUSH2 0x2CE9 JUMP JUMPDEST SWAP1 SLOAD SWAP1 PUSH1 0x3 SHL SHR SWAP5 SWAP1 POP PUSH2 0x2329 JUMP JUMPDEST POP DUP5 PUSH2 0x2368 DUP3 DUP5 PUSH2 0x2CE9 JUMP JUMPDEST SWAP1 SLOAD SWAP1 PUSH1 0x3 SHL SHR LT PUSH2 0x233A JUMP JUMPDEST POP CALLVALUE PUSH2 0x273 JUMPI DUP1 PUSH1 0x3 NOT CALLDATASIZE ADD SLT PUSH2 0x273 JUMPI PUSH1 0x20 PUSH1 0x5 SLOAD PUSH1 0x40 MLOAD SWAP1 DUP2 MSTORE RETURN JUMPDEST POP CALLVALUE PUSH2 0x273 JUMPI DUP1 PUSH1 0x3 NOT CALLDATASIZE ADD SLT PUSH2 0x273 JUMPI PUSH1 0xA SLOAD PUSH1 0x40 MLOAD PUSH1 0x1 PUSH1 0x1 PUSH1 0xA0 SHL SUB SWAP1 SWAP2 AND DUP2 MSTORE PUSH1 0x20 SWAP1 RETURN JUMPDEST POP CALLVALUE PUSH2 0x273 JUMPI PUSH1 0x20 CALLDATASIZE PUSH1 0x3 NOT ADD SLT PUSH2 0x273 JUMPI PUSH1 0x4 CALLDATALOAD SWAP1 PUSH1 0x2 SLOAD DUP3 LT ISZERO PUSH2 0x273 JUMPI PUSH1 0x20 PUSH2 0x23E7 DUP4 PUSH2 0x2CB8 JUMP JUMPDEST SWAP1 SLOAD PUSH1 0x40 MLOAD PUSH1 0x3 SWAP3 SWAP1 SWAP3 SHL SHR PUSH1 0x1 PUSH1 0x1 PUSH1 0xA0 SHL SUB AND DUP2 MSTORE RETURN JUMPDEST POP CALLVALUE PUSH2 0x273 JUMPI PUSH1 0x20 CALLDATASIZE PUSH1 0x3 NOT ADD SLT PUSH2 0x273 JUMPI PUSH1 0x4 CALLDATALOAD PUSH1 0x1 PUSH1 0x1 PUSH1 0xA0 SHL SUB DUP2 AND DUP1 DUP3 SUB PUSH2 0x271 JUMPI DUP3 SLOAD PUSH1 0x1 PUSH1 0x1 PUSH1 0xA0 SHL SUB AND CALLER EQ DUP1 ISZERO PUSH2 0x24FA JUMPI JUMPDEST PUSH2 0x2443 SWAP1 PUSH2 0x327E JUMP JUMPDEST DUP1 ISZERO PUSH2 0x24C1 JUMPI PUSH1 0x1 PUSH1 0x1 PUSH1 0x60 SHL SUB PUSH1 0xA0 SHL PUSH1 0x9 SLOAD AND OR PUSH1 0x9 SSTORE CALLER PUSH1 0x1 PUSH1 0x1 PUSH1 0x60 SHL SUB PUSH1 0xA0 SHL PUSH1 0xA SLOAD AND OR PUSH1 0xA SSTORE TIMESTAMP PUSH1 0x8 SSTORE PUSH32 0xC29BDBD554E41DF97E5C40FC273A09677AC133C245F0064BDFFEF5CC72176E19 PUSH1 0x40 MLOAD DUP1 PUSH2 0x24BB CALLER SWAP5 TIMESTAMP SWAP1 DUP4 PUSH1 0x20 SWAP1 SWAP4 SWAP3 SWAP2 SWAP4 PUSH1 0x40 DUP2 ADD SWAP5 PUSH1 0x1 DUP1 PUSH1 0xA0 SHL SUB AND DUP2 MSTORE ADD MSTORE JUMP JUMPDEST SUB SWAP1 LOG2 DUP1 RETURN JUMPDEST PUSH1 0x40 MLOAD PUSH3 0x461BCD PUSH1 0xE5 SHL DUP2 MSTORE PUSH1 0x20 PUSH1 0x4 DUP3 ADD MSTORE PUSH1 0x11 PUSH1 0x24 DUP3 ADD MSTORE PUSH17 0x24B73B30B634B2103732BB9037BBB732B9 PUSH1 0x79 SHL PUSH1 0x44 DUP3 ADD MSTORE PUSH1 0x64 SWAP1 REVERT JUMPDEST POP CALLER DUP4 MSTORE PUSH1 0xB PUSH1 0x20 MSTORE PUSH1 0x40 DUP4 KECCAK256 SLOAD PUSH1 0xFF AND PUSH2 0x243A JUMP JUMPDEST POP CALLVALUE PUSH2 0x273 JUMPI PUSH1 0x20 CALLDATASIZE PUSH1 0x3 NOT ADD SLT PUSH2 0x273 JUMPI PUSH1 0x4 CALLDATALOAD PUSH1 0x1 PUSH1 0x1 PUSH1 0xA0 SHL SUB DUP2 AND SWAP1 DUP2 SWAP1 SUB PUSH2 0x3B6 JUMPI PUSH1 0x60 PUSH2 0x200 PUSH1 0x40 MLOAD PUSH2 0x2548 DUP2 PUSH2 0x2DA4 JUMP JUMPDEST DUP3 DUP2 MSTORE DUP5 PUSH1 0x20 DUP3 ADD MSTORE DUP5 PUSH1 0x40 DUP3 ADD MSTORE DUP5 DUP4 DUP3 ADD MSTORE DUP5 PUSH1 0x80 DUP3 ADD MSTORE DUP5 PUSH1 0xA0 DUP3 ADD MSTORE DUP5 PUSH1 0xC0 DUP3 ADD MSTORE DUP5 PUSH1 0xE0 DUP3 ADD MSTORE DUP5 PUSH2 0x100 DUP3 ADD MSTORE DUP5 PUSH2 0x120 DUP3 ADD MSTORE DUP5 PUSH2 0x140 DUP3 ADD MSTORE DUP5 PUSH2 0x160 DUP3 ADD MSTORE DUP5 PUSH2 0x180 DUP3 ADD MSTORE DUP3 PUSH2 0x1A0 DUP3 ADD MSTORE DUP5 PUSH2 0x1C0 DUP3 ADD MSTORE DUP3 PUSH2 0x1E0 DUP3 ADD MSTORE ADD MSTORE DUP1 ISZERO PUSH2 0x2753 JUMPI DUP2 PUSH1 0x4 SWAP2 PUSH1 0x40 MLOAD SWAP3 DUP4 DUP1 SWAP3 PUSH4 0x1F385F79 PUSH1 0xE2 SHL DUP3 MSTORE GAS STATICCALL SWAP1 DUP2 ISZERO PUSH2 0x153B JUMPI DUP3 SWAP2 PUSH2 0x2731 JUMPI JUMPDEST POP SWAP1 PUSH1 0x40 MLOAD SWAP2 DUP3 SWAP2 PUSH1 0x20 DUP4 MSTORE PUSH2 0x25FD DUP3 MLOAD PUSH2 0x220 PUSH1 0x20 DUP7 ADD MSTORE PUSH2 0x240 DUP6 ADD SWAP1 PUSH2 0x2B65 JUMP JUMPDEST SWAP1 PUSH2 0x2610 PUSH1 0x20 DUP5 ADD MLOAD PUSH1 0x40 DUP7 ADD SWAP1 PUSH2 0x2CAB JUMP JUMPDEST PUSH1 0x40 DUP4 ADD MLOAD PUSH1 0x60 DUP6 ADD MSTORE PUSH1 0x60 DUP4 ADD MLOAD PUSH1 0x80 DUP6 ADD MSTORE PUSH1 0x80 DUP4 ADD MLOAD PUSH1 0xA0 DUP6 ADD MSTORE PUSH1 0xFF PUSH1 0xA0 DUP5 ADD MLOAD AND PUSH1 0xC0 DUP6 ADD MSTORE PUSH1 0xFF PUSH1 0xC0 DUP5 ADD MLOAD AND PUSH1 0xE0 DUP6 ADD MSTORE PUSH1 0xE0 DUP4 ADD MLOAD PUSH2 0x100 DUP6 ADD MSTORE PUSH2 0x100 DUP4 ADD MLOAD PUSH2 0x120 DUP6 ADD MSTORE PUSH1 0xFF PUSH2 0x120 DUP5 ADD MLOAD AND PUSH2 0x140 DUP6 ADD MSTORE PUSH1 0xFF PUSH2 0x140 DUP5 ADD MLOAD AND PUSH2 0x160 DUP6 ADD MSTORE PUSH2 0x160 DUP4 ADD MLOAD PUSH2 0x180 DUP6 ADD MSTORE PUSH2 0x180 DUP4 ADD MLOAD PUSH2 0x1A0 DUP6 ADD MSTORE PUSH2 0x1A0 DUP4 ADD MLOAD SWAP2 PUSH1 0x1F NOT DUP6 DUP3 SUB ADD PUSH2 0x1C0 DUP7 ADD MSTORE PUSH1 0x20 DUP1 DUP5 MLOAD SWAP3 DUP4 DUP2 MSTORE ADD SWAP4 ADD SWAP2 JUMPDEST DUP2 DUP2 LT PUSH2 0x2703 JUMPI POP POP POP SWAP1 PUSH2 0x200 PUSH2 0x26EE PUSH2 0xBAF SWAP4 PUSH2 0x1C0 DUP5 ADD MLOAD PUSH2 0x1E0 DUP8 ADD MSTORE PUSH2 0x1E0 DUP5 ADD MLOAD PUSH1 0x1F NOT DUP8 DUP4 SUB ADD DUP5 DUP9 ADD MSTORE PUSH2 0x2B65 JUMP JUMPDEST SWAP2 ADD MLOAD DUP4 DUP3 SUB PUSH1 0x1F NOT ADD PUSH2 0x220 DUP6 ADD MSTORE PUSH2 0x2BC5 JUMP JUMPDEST DUP3 MLOAD DUP1 MLOAD PUSH1 0x1 PUSH1 0x1 PUSH1 0xA0 SHL SUB AND DUP6 MSTORE PUSH1 0x20 SWAP1 DUP2 ADD MLOAD DUP2 DUP7 ADD MSTORE DUP8 SWAP7 POP PUSH1 0x40 SWAP1 SWAP5 ADD SWAP4 SWAP1 SWAP3 ADD SWAP2 PUSH1 0x1 ADD PUSH2 0x26B7 JUMP JUMPDEST PUSH2 0x274D SWAP2 POP RETURNDATASIZE DUP1 DUP5 DUP4 RETURNDATACOPY PUSH2 0x2745 DUP2 DUP4 PUSH2 0x2DD6 JUMP JUMPDEST DUP2 ADD SWAP1 PUSH2 0x3040 JUMP JUMPDEST CODESIZE PUSH2 0x25D9 JUMP JUMPDEST PUSH1 0x40 MLOAD PUSH3 0x461BCD PUSH1 0xE5 SHL DUP2 MSTORE PUSH1 0x20 PUSH1 0x4 DUP3 ADD MSTORE PUSH1 0x17 PUSH1 0x24 DUP3 ADD MSTORE PUSH32 0x496E76616C6964206D697373696F6E2061646472657373000000000000000000 PUSH1 0x44 DUP3 ADD MSTORE PUSH1 0x64 SWAP1 REVERT JUMPDEST POP CALLVALUE PUSH2 0x273 JUMPI PUSH1 0x20 CALLDATASIZE PUSH1 0x3 NOT ADD SLT PUSH2 0x273 JUMPI PUSH1 0x4 CALLDATALOAD SWAP1 PUSH1 0x8 DUP3 LT ISZERO SWAP2 DUP3 PUSH2 0x3B6 JUMPI PUSH1 0x2 SLOAD SWAP3 DUP3 SWAP4 DUP4 JUMPDEST DUP2 DUP2 LT PUSH2 0x28CF JUMPI POP PUSH2 0x27D2 DUP6 PUSH2 0x2F24 JUMP JUMPDEST SWAP4 PUSH2 0x27E5 PUSH2 0x27DF DUP8 PUSH2 0x2F24 JUMP JUMPDEST SWAP7 PUSH2 0x2F56 JUMP JUMPDEST SWAP4 DUP2 SWAP1 DUP3 JUMPDEST DUP5 DUP2 LT PUSH2 0x2801 JUMPI PUSH1 0x40 MLOAD DUP1 PUSH2 0xBAF DUP10 DUP13 DUP13 DUP5 PUSH2 0x2C43 JUMP JUMPDEST PUSH2 0x280A DUP2 PUSH2 0x2CB8 JUMP JUMPDEST SWAP1 SLOAD PUSH1 0x3 SWAP2 SWAP1 SWAP2 SHL SHR PUSH1 0x1 PUSH1 0x1 PUSH1 0xA0 SHL SUB AND DUP5 MSTORE PUSH1 0xD PUSH1 0x20 MSTORE PUSH1 0x40 DUP5 KECCAK256 SLOAD PUSH1 0xFF AND DUP7 PUSH2 0xD85 JUMPI PUSH1 0x8 DUP2 LT ISZERO PUSH2 0xD85 JUMPI DUP3 EQ PUSH2 0x2848 JUMPI JUMPDEST PUSH1 0x1 ADD PUSH2 0x27EA JUMP JUMPDEST SWAP2 SWAP5 POP PUSH2 0x2854 DUP3 PUSH2 0x2CB8 JUMP JUMPDEST SWAP1 SLOAD PUSH1 0x3 SWAP2 SWAP1 SWAP2 SHL SHR PUSH1 0x1 PUSH1 0x1 PUSH1 0xA0 SHL SUB AND PUSH2 0x2870 DUP7 DUP10 PUSH2 0x2FA0 JUMP JUMPDEST MSTORE PUSH1 0x1 PUSH2 0x28C7 DUP5 SWAP7 PUSH2 0x2882 DUP2 DUP13 PUSH2 0x2FA0 JUMP JUMPDEST PUSH1 0xFF DUP6 AND SWAP1 MSTORE PUSH2 0x2891 DUP6 PUSH2 0x2CB8 JUMP JUMPDEST DUP5 DUP1 PUSH1 0xA0 SHL SUB SWAP2 SLOAD SWAP1 PUSH1 0x3 SHL SHR AND DUP7 MSTORE PUSH1 0x10 PUSH1 0x20 MSTORE PUSH2 0x28B2 PUSH1 0x40 DUP8 KECCAK256 PUSH2 0x2DF7 JUMP JUMPDEST PUSH2 0x28BC DUP3 DUP12 PUSH2 0x2FA0 JUMP JUMPDEST MSTORE PUSH2 0xCD8 DUP2 DUP11 PUSH2 0x2FA0 JUMP JUMPDEST SWAP3 SWAP1 POP PUSH2 0x2840 JUMP JUMPDEST PUSH2 0x28D8 DUP2 PUSH2 0x2CB8 JUMP JUMPDEST SWAP1 SLOAD PUSH1 0x3 SWAP2 SWAP1 SWAP2 SHL SHR PUSH1 0x1 PUSH1 0x1 PUSH1 0xA0 SHL SUB AND DUP6 MSTORE PUSH1 0xD PUSH1 0x20 MSTORE PUSH1 0x40 DUP6 KECCAK256 SLOAD PUSH1 0xFF AND DUP4 PUSH2 0x1141 JUMPI PUSH1 0x8 DUP2 LT ISZERO PUSH2 0x1141 JUMPI DUP5 EQ PUSH2 0x2916 JUMPI JUMPDEST PUSH1 0x1 ADD PUSH2 0x27C1 JUMP JUMPDEST SWAP5 PUSH2 0x2922 PUSH1 0x1 SWAP2 PUSH2 0x2EE8 JUMP JUMPDEST SWAP6 SWAP1 POP PUSH2 0x290E JUMP JUMPDEST POP CALLVALUE PUSH2 0x273 JUMPI PUSH1 0x20 CALLDATASIZE PUSH1 0x3 NOT ADD SLT PUSH2 0x273 JUMPI PUSH1 0x4 CALLDATALOAD PUSH2 0x2947 PUSH2 0x38B9 JUMP JUMPDEST PUSH2 0x294F PUSH2 0x38E2 JUMP JUMPDEST DUP2 SLOAD PUSH1 0x1 PUSH1 0x1 PUSH1 0xA0 SHL SUB AND SWAP1 DUP1 DUP3 ISZERO PUSH2 0x2A55 JUMPI ISZERO PUSH2 0x2A4E JUMPI JUMPDEST SELFBALANCE DUP2 GT PUSH2 0x2A12 JUMPI DUP3 DUP1 DUP1 DUP1 DUP5 DUP7 GAS CALL RETURNDATASIZE ISZERO PUSH2 0x2A0D JUMPI RETURNDATASIZE PUSH2 0x2987 DUP2 PUSH2 0x2ECD JUMP JUMPDEST SWAP1 PUSH2 0x2995 PUSH1 0x40 MLOAD SWAP3 DUP4 PUSH2 0x2DD6 JUMP JUMPDEST DUP2 MSTORE DUP5 PUSH1 0x20 RETURNDATASIZE SWAP3 ADD RETURNDATACOPY JUMPDEST ISZERO PUSH2 0x29D6 JUMPI PUSH1 0x20 PUSH32 0xEAFF4B37086828766AD3268786972C0CD24259D4C87A80F9D3963A3C3D999B0D SWAP2 PUSH1 0x40 MLOAD SWAP1 DUP2 MSTORE LOG2 PUSH1 0x1 DUP1 SSTORE DUP1 RETURN JUMPDEST PUSH1 0x40 MLOAD PUSH3 0x461BCD PUSH1 0xE5 SHL DUP2 MSTORE PUSH1 0x20 PUSH1 0x4 DUP3 ADD MSTORE PUSH1 0xF PUSH1 0x24 DUP3 ADD MSTORE PUSH15 0x151C985B9CD9995C8819985A5B1959 PUSH1 0x8A SHL PUSH1 0x44 DUP3 ADD MSTORE PUSH1 0x64 SWAP1 REVERT JUMPDEST PUSH2 0x299F JUMP JUMPDEST PUSH1 0x40 MLOAD PUSH3 0x461BCD PUSH1 0xE5 SHL DUP2 MSTORE PUSH1 0x20 PUSH1 0x4 DUP3 ADD MSTORE PUSH1 0x14 PUSH1 0x24 DUP3 ADD MSTORE PUSH20 0x496E73756666696369656E742062616C616E6365 PUSH1 0x60 SHL PUSH1 0x44 DUP3 ADD MSTORE PUSH1 0x64 SWAP1 REVERT JUMPDEST POP SELFBALANCE PUSH2 0x2968 JUMP JUMPDEST PUSH1 0x40 MLOAD PUSH3 0x461BCD PUSH1 0xE5 SHL DUP2 MSTORE PUSH1 0x20 PUSH1 0x4 DUP3 ADD MSTORE PUSH1 0x15 PUSH1 0x24 DUP3 ADD MSTORE PUSH21 0x24B73B30B634B21036B0B730B3B2B91037BBB732B9 PUSH1 0x59 SHL PUSH1 0x44 DUP3 ADD MSTORE PUSH1 0x64 SWAP1 REVERT JUMPDEST POP CALLVALUE PUSH2 0x273 JUMPI DUP1 PUSH1 0x3 NOT CALLDATASIZE ADD SLT PUSH2 0x273 JUMPI PUSH1 0x9 SLOAD PUSH1 0x40 MLOAD PUSH1 0x1 PUSH1 0x1 PUSH1 0xA0 SHL SUB SWAP1 SWAP2 AND DUP2 MSTORE PUSH1 0x20 SWAP1 RETURN JUMPDEST POP CALLVALUE PUSH2 0x273 JUMPI DUP1 PUSH1 0x3 NOT CALLDATASIZE ADD SLT PUSH2 0x273 JUMPI PUSH1 0x20 PUSH1 0xFF PUSH1 0x3 SLOAD PUSH1 0x8 SHR AND PUSH1 0x40 MLOAD SWAP1 DUP2 MSTORE RETURN JUMPDEST POP CALLVALUE PUSH2 0x273 JUMPI PUSH1 0x20 CALLDATASIZE PUSH1 0x3 NOT ADD SLT PUSH2 0x273 JUMPI PUSH1 0x4 CALLDATALOAD PUSH1 0x1 PUSH1 0x1 PUSH1 0xA0 SHL SUB DUP2 AND SWAP1 DUP2 SWAP1 SUB PUSH2 0x3B6 JUMPI PUSH1 0x40 DUP3 PUSH1 0xFF SWAP3 PUSH1 0x20 SWAP5 MSTORE PUSH1 0xD DUP5 MSTORE KECCAK256 SLOAD AND PUSH2 0x2B24 PUSH1 0x40 MLOAD DUP1 SWAP3 PUSH2 0x2B42 JUMP JUMPDEST RETURN JUMPDEST SWAP1 POP CALLVALUE PUSH2 0x3B6 JUMPI DUP2 PUSH1 0x3 NOT CALLDATASIZE ADD SLT PUSH2 0x3B6 JUMPI PUSH1 0x20 SWAP1 PUSH1 0x8 SLOAD DUP2 MSTORE RETURN JUMPDEST SWAP1 PUSH1 0x8 DUP3 LT ISZERO PUSH2 0x2B4F JUMPI MSTORE JUMP JUMPDEST PUSH4 0x4E487B71 PUSH1 0xE0 SHL PUSH1 0x0 MSTORE PUSH1 0x21 PUSH1 0x4 MSTORE PUSH1 0x24 PUSH1 0x0 REVERT JUMPDEST SWAP1 PUSH1 0x20 DUP1 DUP4 MLOAD SWAP3 DUP4 DUP2 MSTORE ADD SWAP3 ADD SWAP1 PUSH1 0x0 JUMPDEST DUP2 DUP2 LT PUSH2 0x2B83 JUMPI POP POP POP SWAP1 JUMP JUMPDEST DUP3 MLOAD PUSH1 0x1 PUSH1 0x1 PUSH1 0xA0 SHL SUB AND DUP5 MSTORE PUSH1 0x20 SWAP4 DUP5 ADD SWAP4 SWAP1 SWAP3 ADD SWAP2 PUSH1 0x1 ADD PUSH2 0x2B76 JUMP JUMPDEST PUSH1 0x0 JUMPDEST DUP4 DUP2 LT PUSH2 0x2BB5 JUMPI POP POP PUSH1 0x0 SWAP2 ADD MSTORE JUMP JUMPDEST DUP2 DUP2 ADD MLOAD DUP4 DUP3 ADD MSTORE PUSH1 0x20 ADD PUSH2 0x2BA5 JUMP JUMPDEST SWAP1 PUSH1 0x20 SWAP2 PUSH2 0x2BDE DUP2 MLOAD DUP1 SWAP3 DUP2 DUP6 MSTORE DUP6 DUP1 DUP7 ADD SWAP2 ADD PUSH2 0x2BA2 JUMP JUMPDEST PUSH1 0x1F ADD PUSH1 0x1F NOT AND ADD ADD SWAP1 JUMP JUMPDEST SWAP1 DUP1 PUSH1 0x20 DUP4 MLOAD SWAP2 DUP3 DUP2 MSTORE ADD SWAP2 PUSH1 0x20 DUP1 DUP4 PUSH1 0x5 SHL DUP4 ADD ADD SWAP5 ADD SWAP3 PUSH1 0x0 SWAP2 JUMPDEST DUP4 DUP4 LT PUSH2 0x2C16 JUMPI POP POP POP POP POP SWAP1 JUMP JUMPDEST SWAP1 SWAP2 SWAP3 SWAP4 SWAP5 PUSH1 0x20 DUP1 PUSH2 0x2C34 PUSH1 0x1 SWAP4 PUSH1 0x1F NOT DUP7 DUP3 SUB ADD DUP8 MSTORE DUP10 MLOAD PUSH2 0x2BC5 JUMP JUMPDEST SWAP8 ADD SWAP4 ADD SWAP4 ADD SWAP2 SWAP4 SWAP3 SWAP1 PUSH2 0x2C07 JUMP JUMPDEST SWAP4 SWAP3 SWAP1 PUSH2 0x2C58 SWAP1 PUSH1 0x60 DUP7 MSTORE PUSH1 0x60 DUP7 ADD SWAP1 PUSH2 0x2B65 JUMP JUMPDEST SWAP4 DUP1 DUP6 SUB PUSH1 0x20 DUP3 ADD MSTORE PUSH1 0x20 DUP1 DUP5 MLOAD SWAP7 DUP8 DUP2 MSTORE ADD SWAP4 ADD PUSH1 0x0 SWAP6 JUMPDEST DUP1 DUP8 LT PUSH2 0x2C90 JUMPI POP POP PUSH2 0x2C8D SWAP4 SWAP5 POP PUSH1 0x40 DUP2 DUP5 SUB SWAP2 ADD MSTORE PUSH2 0x2BEA JUMP JUMPDEST SWAP1 JUMP JUMPDEST SWAP1 SWAP4 PUSH1 0x20 DUP1 PUSH1 0x1 SWAP3 PUSH1 0xFF DUP9 MLOAD AND DUP2 MSTORE ADD SWAP6 ADD SWAP7 ADD SWAP6 SWAP1 PUSH2 0x2C71 JUMP JUMPDEST SWAP1 PUSH1 0x7 DUP3 LT ISZERO PUSH2 0x2B4F JUMPI MSTORE JUMP JUMPDEST PUSH1 0x2 SLOAD DUP2 LT ISZERO PUSH2 0x2CD3 JUMPI PUSH1 0x2 PUSH1 0x0 MSTORE PUSH1 0x20 PUSH1 0x0 KECCAK256 ADD SWAP1 PUSH1 0x0 SWAP1 JUMP JUMPDEST PUSH4 0x4E487B71 PUSH1 0xE0 SHL PUSH1 0x0 MSTORE PUSH1 0x32 PUSH1 0x4 MSTORE PUSH1 0x24 PUSH1 0x0 REVERT JUMPDEST DUP1 SLOAD DUP3 LT ISZERO PUSH2 0x2CD3 JUMPI PUSH1 0x0 MSTORE PUSH1 0x20 PUSH1 0x0 KECCAK256 ADD SWAP1 PUSH1 0x0 SWAP1 JUMP JUMPDEST SWAP4 SWAP3 SWAP1 PUSH2 0x2D16 SWAP1 PUSH1 0x60 DUP7 MSTORE PUSH1 0x60 DUP7 ADD SWAP1 PUSH2 0x2B65 JUMP JUMPDEST SWAP4 DUP1 DUP6 SUB PUSH1 0x20 DUP3 ADD MSTORE PUSH1 0x20 DUP1 DUP5 MLOAD SWAP7 DUP8 DUP2 MSTORE ADD SWAP4 ADD PUSH1 0x0 SWAP6 JUMPDEST DUP1 DUP8 LT PUSH2 0x2D4B JUMPI POP POP PUSH2 0x2C8D SWAP4 SWAP5 POP PUSH1 0x40 DUP2 DUP5 SUB SWAP2 ADD MSTORE PUSH2 0x2BEA JUMP JUMPDEST SWAP1 SWAP4 PUSH1 0x20 DUP1 DUP3 PUSH2 0x2D5E PUSH1 0x1 SWAP5 DUP10 MLOAD PUSH2 0x2B42 JUMP JUMPDEST ADD SWAP6 ADD SWAP7 ADD SWAP6 SWAP1 PUSH2 0x2D2F JUMP JUMPDEST SWAP1 PUSH1 0x1 DUP3 DUP2 SHR SWAP3 AND DUP1 ISZERO PUSH2 0x2D9A JUMPI JUMPDEST PUSH1 0x20 DUP4 LT EQ PUSH2 0x2D84 JUMPI JUMP JUMPDEST PUSH4 0x4E487B71 PUSH1 0xE0 SHL PUSH1 0x0 MSTORE PUSH1 0x22 PUSH1 0x4 MSTORE PUSH1 0x24 PUSH1 0x0 REVERT JUMPDEST SWAP2 PUSH1 0x7F AND SWAP2 PUSH2 0x2D79 JUMP JUMPDEST PUSH2 0x220 DUP2 ADD SWAP1 DUP2 LT PUSH1 0x1 PUSH1 0x1 PUSH1 0x40 SHL SUB DUP3 GT OR PUSH2 0x2DC0 JUMPI PUSH1 0x40 MSTORE JUMP JUMPDEST PUSH4 0x4E487B71 PUSH1 0xE0 SHL PUSH1 0x0 MSTORE PUSH1 0x41 PUSH1 0x4 MSTORE PUSH1 0x24 PUSH1 0x0 REVERT JUMPDEST SWAP1 PUSH1 0x1F DUP1 NOT SWAP2 ADD AND DUP2 ADD SWAP1 DUP2 LT PUSH1 0x1 PUSH1 0x1 PUSH1 0x40 SHL SUB DUP3 GT OR PUSH2 0x2DC0 JUMPI PUSH1 0x40 MSTORE JUMP JUMPDEST SWAP1 PUSH1 0x40 MLOAD SWAP2 DUP3 PUSH1 0x0 DUP3 SLOAD SWAP3 PUSH2 0x2E0B DUP5 PUSH2 0x2D6A JUMP JUMPDEST DUP1 DUP5 MSTORE SWAP4 PUSH1 0x1 DUP2 AND SWAP1 DUP2 ISZERO PUSH2 0x2E79 JUMPI POP PUSH1 0x1 EQ PUSH2 0x2E32 JUMPI JUMPDEST POP PUSH2 0x2E30 SWAP3 POP SUB DUP4 PUSH2 0x2DD6 JUMP JUMPDEST JUMP JUMPDEST SWAP1 POP PUSH1 0x0 SWAP3 SWAP2 SWAP3 MSTORE PUSH1 0x20 PUSH1 0x0 KECCAK256 SWAP1 PUSH1 0x0 SWAP2 JUMPDEST DUP2 DUP4 LT PUSH2 0x2E5D JUMPI POP POP SWAP1 PUSH1 0x20 PUSH2 0x2E30 SWAP3 DUP3 ADD ADD CODESIZE PUSH2 0x2E23 JUMP JUMPDEST PUSH1 0x20 SWAP2 SWAP4 POP DUP1 PUSH1 0x1 SWAP2 SLOAD DUP4 DUP6 DUP10 ADD ADD MSTORE ADD SWAP2 ADD SWAP1 SWAP2 DUP5 SWAP3 PUSH2 0x2E44 JUMP JUMPDEST SWAP1 POP PUSH1 0x20 SWAP3 POP PUSH2 0x2E30 SWAP5 SWAP2 POP PUSH1 0xFF NOT AND DUP3 DUP5 ADD MSTORE ISZERO ISZERO PUSH1 0x5 SHL DUP3 ADD ADD CODESIZE PUSH2 0x2E23 JUMP JUMPDEST PUSH1 0x7 DUP2 LT ISZERO PUSH2 0x2B4F JUMPI PUSH1 0x0 MSTORE PUSH1 0xE PUSH1 0x20 MSTORE PUSH1 0x40 PUSH1 0x0 KECCAK256 SWAP1 JUMP JUMPDEST PUSH1 0x7 DUP2 LT ISZERO PUSH2 0x2B4F JUMPI PUSH1 0x0 MSTORE PUSH1 0x11 PUSH1 0x20 MSTORE PUSH1 0x40 PUSH1 0x0 KECCAK256 SWAP1 JUMP JUMPDEST PUSH1 0x1 PUSH1 0x1 PUSH1 0x40 SHL SUB DUP2 GT PUSH2 0x2DC0 JUMPI PUSH1 0x1F ADD PUSH1 0x1F NOT AND PUSH1 0x20 ADD SWAP1 JUMP JUMPDEST PUSH1 0x0 NOT DUP2 EQ PUSH2 0x2EF7 JUMPI PUSH1 0x1 ADD SWAP1 JUMP JUMPDEST PUSH4 0x4E487B71 PUSH1 0xE0 SHL PUSH1 0x0 MSTORE PUSH1 0x11 PUSH1 0x4 MSTORE PUSH1 0x24 PUSH1 0x0 REVERT JUMPDEST PUSH1 0x1 PUSH1 0x1 PUSH1 0x40 SHL SUB DUP2 GT PUSH2 0x2DC0 JUMPI PUSH1 0x5 SHL PUSH1 0x20 ADD SWAP1 JUMP JUMPDEST SWAP1 PUSH2 0x2F2E DUP3 PUSH2 0x2F0D JUMP JUMPDEST PUSH2 0x2F3B PUSH1 0x40 MLOAD SWAP2 DUP3 PUSH2 0x2DD6 JUMP JUMPDEST DUP3 DUP2 MSTORE DUP1 SWAP3 PUSH2 0x2F4C PUSH1 0x1F NOT SWAP2 PUSH2 0x2F0D JUMP JUMPDEST ADD SWAP1 PUSH1 0x20 CALLDATASIZE SWAP2 ADD CALLDATACOPY JUMP JUMPDEST SWAP1 PUSH2 0x2F60 DUP3 PUSH2 0x2F0D JUMP JUMPDEST PUSH2 0x2F6D PUSH1 0x40 MLOAD SWAP2 DUP3 PUSH2 0x2DD6 JUMP JUMPDEST DUP3 DUP2 MSTORE DUP1 SWAP3 PUSH2 0x2F7E PUSH1 0x1F NOT SWAP2 PUSH2 0x2F0D JUMP JUMPDEST ADD SWAP1 PUSH1 0x0 JUMPDEST DUP3 DUP2 LT PUSH2 0x2F8F JUMPI POP POP POP JUMP JUMPDEST DUP1 PUSH1 0x60 PUSH1 0x20 DUP1 SWAP4 DUP6 ADD ADD MSTORE ADD PUSH2 0x2F83 JUMP JUMPDEST DUP1 MLOAD DUP3 LT ISZERO PUSH2 0x2CD3 JUMPI PUSH1 0x20 SWAP2 PUSH1 0x5 SHL ADD ADD SWAP1 JUMP JUMPDEST MLOAD SWAP1 PUSH1 0x1 PUSH1 0x1 PUSH1 0xA0 SHL SUB DUP3 AND DUP3 SUB PUSH2 0x2FC8 JUMPI JUMP JUMPDEST PUSH1 0x0 DUP1 REVERT JUMPDEST SWAP1 DUP1 PUSH1 0x1F DUP4 ADD SLT ISZERO PUSH2 0x2FC8 JUMPI DUP2 MLOAD PUSH2 0x2FE4 DUP2 PUSH2 0x2F0D JUMP JUMPDEST SWAP3 PUSH2 0x2FF2 PUSH1 0x40 MLOAD SWAP5 DUP6 PUSH2 0x2DD6 JUMP JUMPDEST DUP2 DUP5 MSTORE PUSH1 0x20 DUP1 DUP6 ADD SWAP3 PUSH1 0x5 SHL DUP3 ADD ADD SWAP3 DUP4 GT PUSH2 0x2FC8 JUMPI PUSH1 0x20 ADD SWAP1 JUMPDEST DUP3 DUP3 LT PUSH2 0x301A JUMPI POP POP POP SWAP1 JUMP JUMPDEST PUSH1 0x20 DUP1 SWAP2 PUSH2 0x3027 DUP5 PUSH2 0x2FB4 JUMP JUMPDEST DUP2 MSTORE ADD SWAP2 ADD SWAP1 PUSH2 0x300D JUMP JUMPDEST MLOAD SWAP1 PUSH1 0xFF DUP3 AND DUP3 SUB PUSH2 0x2FC8 JUMPI JUMP JUMPDEST PUSH1 0x20 DUP2 DUP4 SUB SLT PUSH2 0x2FC8 JUMPI DUP1 MLOAD SWAP1 PUSH1 0x1 PUSH1 0x1 PUSH1 0x40 SHL SUB DUP3 GT PUSH2 0x2FC8 JUMPI ADD SWAP1 PUSH2 0x220 DUP3 DUP3 SUB SLT PUSH2 0x2FC8 JUMPI PUSH1 0x40 MLOAD SWAP2 PUSH2 0x3075 DUP4 PUSH2 0x2DA4 JUMP JUMPDEST DUP1 MLOAD PUSH1 0x1 PUSH1 0x1 PUSH1 0x40 SHL SUB DUP2 GT PUSH2 0x2FC8 JUMPI DUP3 PUSH2 0x3091 SWAP2 DUP4 ADD PUSH2 0x2FCD JUMP JUMPDEST DUP4 MSTORE PUSH1 0x20 DUP2 ADD MLOAD PUSH1 0x7 DUP2 LT ISZERO PUSH2 0x2FC8 JUMPI PUSH1 0x20 DUP5 ADD MSTORE PUSH1 0x40 DUP2 ADD MLOAD PUSH1 0x40 DUP5 ADD MSTORE PUSH1 0x60 DUP2 ADD MLOAD PUSH1 0x60 DUP5 ADD MSTORE PUSH1 0x80 DUP2 ADD MLOAD PUSH1 0x80 DUP5 ADD MSTORE PUSH2 0x30D0 PUSH1 0xA0 DUP3 ADD PUSH2 0x3032 JUMP JUMPDEST PUSH1 0xA0 DUP5 ADD MSTORE PUSH2 0x30E1 PUSH1 0xC0 DUP3 ADD PUSH2 0x3032 JUMP JUMPDEST PUSH1 0xC0 DUP5 ADD MSTORE PUSH1 0xE0 DUP2 ADD MLOAD PUSH1 0xE0 DUP5 ADD MSTORE PUSH2 0x100 DUP2 ADD MLOAD PUSH2 0x100 DUP5 ADD MSTORE PUSH2 0x3109 PUSH2 0x120 DUP3 ADD PUSH2 0x3032 JUMP JUMPDEST PUSH2 0x120 DUP5 ADD MSTORE PUSH2 0x311C PUSH2 0x140 DUP3 ADD PUSH2 0x3032 JUMP JUMPDEST PUSH2 0x140 DUP5 ADD MSTORE PUSH2 0x160 DUP2 ADD MLOAD PUSH2 0x160 DUP5 ADD MSTORE PUSH2 0x180 DUP2 ADD MLOAD PUSH2 0x180 DUP5 ADD MSTORE PUSH2 0x1A0 DUP2 ADD MLOAD PUSH1 0x1 PUSH1 0x1 PUSH1 0x40 SHL SUB DUP2 GT PUSH2 0x2FC8 JUMPI DUP2 ADD DUP3 PUSH1 0x1F DUP3 ADD SLT ISZERO PUSH2 0x2FC8 JUMPI DUP1 MLOAD PUSH2 0x3166 DUP2 PUSH2 0x2F0D JUMP JUMPDEST SWAP2 PUSH2 0x3174 PUSH1 0x40 MLOAD SWAP4 DUP5 PUSH2 0x2DD6 JUMP JUMPDEST DUP2 DUP4 MSTORE PUSH1 0x20 DUP1 DUP5 ADD SWAP3 PUSH1 0x6 SHL DUP3 ADD ADD SWAP1 DUP6 DUP3 GT PUSH2 0x2FC8 JUMPI PUSH1 0x20 ADD SWAP2 JUMPDEST DUP2 DUP4 LT PUSH2 0x3233 JUMPI POP POP POP PUSH2 0x1A0 DUP5 ADD MSTORE PUSH2 0x1C0 DUP2 ADD MLOAD PUSH2 0x1C0 DUP5 ADD MSTORE PUSH2 0x1E0 DUP2 ADD MLOAD PUSH1 0x1 PUSH1 0x1 PUSH1 0x40 SHL SUB DUP2 GT PUSH2 0x2FC8 JUMPI DUP3 PUSH2 0x31CC SWAP2 DUP4 ADD PUSH2 0x2FCD JUMP JUMPDEST PUSH2 0x1E0 DUP5 ADD MSTORE PUSH2 0x200 DUP2 ADD MLOAD SWAP1 PUSH1 0x1 PUSH1 0x1 PUSH1 0x40 SHL SUB DUP3 GT PUSH2 0x2FC8 JUMPI ADD DUP2 PUSH1 0x1F DUP3 ADD SLT ISZERO PUSH2 0x2FC8 JUMPI DUP1 MLOAD PUSH2 0x31FE DUP2 PUSH2 0x2ECD JUMP JUMPDEST SWAP3 PUSH2 0x320C PUSH1 0x40 MLOAD SWAP5 DUP6 PUSH2 0x2DD6 JUMP JUMPDEST DUP2 DUP5 MSTORE PUSH1 0x20 DUP3 DUP5 ADD ADD GT PUSH2 0x2FC8 JUMPI PUSH2 0x322A SWAP2 PUSH1 0x20 DUP1 DUP6 ADD SWAP2 ADD PUSH2 0x2BA2 JUMP JUMPDEST PUSH2 0x200 DUP3 ADD MSTORE SWAP1 JUMP JUMPDEST PUSH1 0x40 DUP4 DUP8 SUB SLT PUSH2 0x2FC8 JUMPI PUSH1 0x40 MLOAD SWAP1 PUSH1 0x40 DUP3 ADD SWAP1 DUP3 DUP3 LT PUSH1 0x1 PUSH1 0x1 PUSH1 0x40 SHL SUB DUP4 GT OR PUSH2 0x2DC0 JUMPI PUSH1 0x40 SWAP3 PUSH1 0x20 SWAP3 DUP5 MSTORE PUSH2 0x3269 DUP7 PUSH2 0x2FB4 JUMP JUMPDEST DUP2 MSTORE DUP3 DUP7 ADD MLOAD DUP4 DUP3 ADD MSTORE DUP2 MSTORE ADD SWAP3 ADD SWAP2 PUSH2 0x3190 JUMP JUMPDEST ISZERO PUSH2 0x3285 JUMPI JUMP JUMPDEST PUSH1 0x40 MLOAD PUSH3 0x461BCD PUSH1 0xE5 SHL DUP2 MSTORE PUSH1 0x20 PUSH1 0x4 DUP3 ADD MSTORE PUSH1 0x26 PUSH1 0x24 DUP3 ADD MSTORE PUSH32 0x4E6F74206F776E6572206F72204D697373696F6E466163746F72792061757468 PUSH1 0x44 DUP3 ADD MSTORE PUSH6 0x1BDC9A5E9959 PUSH1 0xD2 SHL PUSH1 0x64 DUP3 ADD MSTORE PUSH1 0x84 SWAP1 REVERT JUMPDEST SWAP2 SWAP1 DUP3 ADD DUP1 SWAP3 GT PUSH2 0x2EF7 JUMPI JUMP JUMPDEST SWAP2 SWAP1 DUP3 SUB SWAP2 DUP3 GT PUSH2 0x2EF7 JUMPI JUMP JUMPDEST ISZERO PUSH2 0x32FA JUMPI JUMP JUMPDEST PUSH1 0x40 MLOAD PUSH3 0x461BCD PUSH1 0xE5 SHL DUP2 MSTORE PUSH1 0x20 PUSH1 0x4 DUP3 ADD MSTORE PUSH1 0xF PUSH1 0x24 DUP3 ADD MSTORE PUSH15 0x496E76616C69642061646472657373 PUSH1 0x88 SHL PUSH1 0x44 DUP3 ADD MSTORE PUSH1 0x64 SWAP1 REVERT JUMPDEST DUP1 ISZERO PUSH2 0x2EF7 JUMPI PUSH1 0x0 NOT ADD SWAP1 JUMP JUMPDEST SWAP1 DUP2 PUSH1 0x20 SWAP2 SUB SLT PUSH2 0x2FC8 JUMPI MLOAD DUP1 ISZERO ISZERO DUP2 SUB PUSH2 0x2FC8 JUMPI SWAP1 JUMP JUMPDEST PUSH1 0x8 DUP3 LT ISZERO PUSH2 0x2B4F JUMPI MSTORE JUMP JUMPDEST PUSH1 0x2 SLOAD DUP1 ISZERO PUSH2 0x35F5 JUMPI PUSH3 0x4F19FF NOT TIMESTAMP ADD TIMESTAMP DUP2 GT PUSH2 0x2EF7 JUMPI PUSH3 0x278CFF NOT TIMESTAMP ADD TIMESTAMP DUP2 GT PUSH2 0x2EF7 JUMPI PUSH1 0x0 SWAP3 SWAP2 DUP3 DUP1 JUMPDEST PUSH2 0x3507 JUMPI JUMPDEST POP PUSH2 0x339D DUP5 PUSH2 0x2F24 JUMP JUMPDEST PUSH2 0x33A6 DUP6 PUSH2 0x2F24 JUMP JUMPDEST SWAP6 PUSH2 0x33B0 DUP7 PUSH2 0x2F56 JUMP JUMPDEST SWAP5 PUSH1 0x0 SWAP1 JUMPDEST DUP1 ISZERO ISZERO DUP1 PUSH2 0x34FE JUMPI JUMPDEST ISZERO PUSH2 0x34F3 JUMPI PUSH1 0x0 NOT ADD SWAP1 PUSH2 0x33D1 DUP3 PUSH2 0x2CB8 JUMP JUMPDEST PUSH1 0x1 DUP1 PUSH1 0xA0 SHL SUB SWAP2 SLOAD SWAP1 PUSH1 0x3 SHL SHR AND DUP1 PUSH1 0x0 MSTORE PUSH1 0xD PUSH1 0x20 MSTORE PUSH1 0xFF PUSH1 0x40 PUSH1 0x0 KECCAK256 SLOAD AND PUSH1 0x40 MLOAD PUSH4 0x1F385F79 PUSH1 0xE2 SHL DUP2 MSTORE PUSH1 0x0 DUP2 PUSH1 0x4 DUP2 DUP7 GAS STATICCALL SWAP1 DUP2 ISZERO PUSH2 0x34E7 JUMPI DUP13 SWAP2 DUP11 SWAP2 PUSH1 0x0 SWAP2 PUSH2 0x34CE JUMPI JUMPDEST POP DUP10 PUSH1 0xE0 DUP3 ADD DUP2 DUP2 MLOAD LT DUP1 PUSH2 0x34A7 JUMPI JUMPDEST ISZERO PUSH2 0x349C JUMPI POP POP PUSH2 0x100 ADD MLOAD LT JUMPDEST PUSH2 0x348D JUMPI DUP3 SWAP2 PUSH2 0x204E DUP6 PUSH2 0x345B SWAP4 DUP2 SWAP7 PUSH2 0x3455 PUSH1 0x1 SWAP10 DUP14 PUSH2 0x2FA0 JUMP JUMPDEST MSTORE PUSH2 0x2FA0 JUMP JUMPDEST PUSH1 0x0 MSTORE PUSH1 0x10 PUSH1 0x20 MSTORE PUSH2 0x3470 PUSH1 0x40 PUSH1 0x0 KECCAK256 PUSH2 0x2DF7 JUMP JUMPDEST PUSH2 0x347A DUP3 DUP11 PUSH2 0x2FA0 JUMP JUMPDEST MSTORE PUSH2 0x3485 DUP2 DUP10 PUSH2 0x2FA0 JUMP JUMPDEST POP ADD SWAP1 PUSH2 0x33B5 JUMP JUMPDEST POP SWAP5 SWAP10 SWAP9 POP SWAP3 SWAP6 POP POP POP POP POP POP JUMP JUMPDEST SWAP2 POP SWAP2 POP MLOAD LT PUSH2 0x3439 JUMP JUMPDEST POP SWAP3 POP POP SWAP2 POP PUSH1 0x8 DUP4 LT ISZERO PUSH2 0x2B4F JUMPI DUP13 SWAP2 DUP10 DUP12 SWAP3 PUSH1 0x6 DUP7 EQ DUP1 PUSH2 0x342B JUMPI POP PUSH1 0x7 DUP7 EQ PUSH2 0x342B JUMP JUMPDEST PUSH2 0x34E1 SWAP2 RETURNDATASIZE DUP1 SWAP2 DUP4 RETURNDATACOPY PUSH2 0x2745 DUP2 DUP4 PUSH2 0x2DD6 JUMP JUMPDEST CODESIZE PUSH2 0x341B JUMP JUMPDEST PUSH1 0x40 MLOAD RETURNDATASIZE PUSH1 0x0 DUP3 RETURNDATACOPY RETURNDATASIZE SWAP1 REVERT JUMPDEST POP SWAP2 SWAP7 SWAP6 POP SWAP3 POP POP POP JUMP JUMPDEST POP DUP8 DUP3 LT PUSH2 0x33BE JUMP JUMPDEST PUSH1 0x0 SWAP5 SWAP4 SWAP5 NOT ADD SWAP3 PUSH2 0x3518 DUP5 PUSH2 0x2CB8 JUMP JUMPDEST PUSH1 0x1 DUP1 PUSH1 0xA0 SHL SUB SWAP2 SLOAD SWAP1 PUSH1 0x3 SHL SHR AND DUP1 PUSH1 0x0 MSTORE PUSH1 0xD PUSH1 0x20 MSTORE PUSH1 0x4 PUSH1 0x0 PUSH1 0xFF PUSH1 0x40 DUP3 KECCAK256 SLOAD AND SWAP3 PUSH1 0x40 MLOAD SWAP3 DUP4 DUP1 SWAP3 PUSH4 0x1F385F79 PUSH1 0xE2 SHL DUP3 MSTORE GAS STATICCALL SWAP1 DUP2 ISZERO PUSH2 0x34E7 JUMPI DUP6 SWAP3 DUP6 SWAP2 PUSH1 0x0 SWAP4 PUSH2 0x35DA JUMPI JUMPDEST POP PUSH1 0xE0 DUP4 ADD SWAP1 DUP3 DUP3 MLOAD LT SWAP1 DUP2 PUSH2 0x35AA JUMPI JUMPDEST POP ISZERO PUSH2 0x359F JUMPI POP POP PUSH2 0x100 ADD MLOAD LT JUMPDEST PUSH2 0x3598 JUMPI PUSH2 0x3591 DUP5 SWAP2 PUSH2 0x2EE8 JUMP JUMPDEST SWAP5 SWAP4 PUSH2 0x338E JUMP JUMPDEST SWAP4 SWAP3 PUSH2 0x3393 JUMP JUMPDEST SWAP2 POP SWAP2 POP MLOAD LT PUSH2 0x3583 JUMP JUMPDEST SWAP3 POP POP SWAP3 POP PUSH1 0x8 DUP2 LT ISZERO PUSH2 0x2B4F JUMPI DUP6 SWAP3 DUP2 PUSH1 0x6 DUP8 SWAP4 EQ SWAP1 DUP2 ISZERO PUSH2 0x35CF JUMPI JUMPDEST POP CODESIZE PUSH2 0x3574 JUMP JUMPDEST PUSH1 0x7 SWAP2 POP EQ CODESIZE PUSH2 0x35C8 JUMP JUMPDEST PUSH2 0x35EE SWAP2 SWAP4 RETURNDATASIZE DUP1 SWAP2 DUP4 RETURNDATACOPY PUSH2 0x2745 DUP2 DUP4 PUSH2 0x2DD6 JUMP JUMPDEST SWAP2 CODESIZE PUSH2 0x3563 JUMP JUMPDEST POP PUSH1 0x20 PUSH1 0x40 MLOAD SWAP2 PUSH2 0x3606 DUP3 DUP5 PUSH2 0x2DD6 JUMP JUMPDEST PUSH1 0x0 DUP4 MSTORE PUSH1 0x0 CALLDATASIZE DUP2 CALLDATACOPY PUSH1 0x40 MLOAD SWAP3 PUSH2 0x361D DUP4 DUP6 PUSH2 0x2DD6 JUMP JUMPDEST PUSH1 0x0 DUP5 MSTORE PUSH1 0x0 CALLDATASIZE DUP2 CALLDATACOPY PUSH1 0x40 MLOAD SWAP3 PUSH1 0x0 PUSH2 0x3636 DUP3 DUP7 PUSH2 0x2DD6 JUMP JUMPDEST DUP5 MSTORE PUSH1 0x1F NOT DUP2 ADD PUSH1 0x0 JUMPDEST DUP2 DUP2 LT PUSH2 0x364F JUMPI POP POP POP SWAP3 SWAP2 SWAP1 JUMP JUMPDEST PUSH1 0x60 DUP7 DUP3 ADD DUP5 ADD MSTORE DUP3 ADD PUSH2 0x3640 JUMP JUMPDEST PUSH1 0x8 SLOAD DUP1 ISZERO PUSH2 0x36C0 JUMPI PUSH3 0x15180 DUP2 ADD SWAP2 DUP3 DUP3 GT PUSH2 0x2EF7 JUMPI DUP3 TIMESTAMP LT ISZERO PUSH2 0x36A5 JUMPI PUSH1 0x9 SLOAD PUSH1 0xA SLOAD PUSH1 0x1 PUSH1 0x1 PUSH1 0xA0 SHL SUB SWAP1 DUP2 AND SWAP5 SWAP2 AND SWAP2 SWAP1 PUSH2 0x369E SWAP1 TIMESTAMP SWAP1 PUSH2 0x32E6 JUMP JUMPDEST SWAP2 SWAP4 SWAP3 SWAP2 SWAP1 JUMP JUMPDEST PUSH1 0x9 SLOAD PUSH1 0xA SLOAD PUSH1 0x1 PUSH1 0x1 PUSH1 0xA0 SHL SUB SWAP2 DUP3 AND SWAP5 POP AND SWAP2 SWAP1 PUSH1 0x0 SWAP1 JUMP JUMPDEST POP PUSH1 0x0 SWAP1 PUSH1 0x0 SWAP1 PUSH1 0x0 SWAP1 PUSH1 0x0 SWAP1 JUMP JUMPDEST PUSH1 0x1 PUSH1 0x1 PUSH1 0xA0 SHL SUB AND PUSH1 0x0 SWAP1 DUP2 MSTORE PUSH1 0xF PUSH1 0x20 MSTORE PUSH1 0x40 DUP2 KECCAK256 DUP1 SLOAD DUP3 SWAP2 DUP3 SWAP2 DUP3 SWAP2 DUP3 JUMPDEST DUP3 DUP2 LT PUSH2 0x37B7 JUMPI POP POP POP PUSH1 0x3 SLOAD SWAP2 PUSH1 0xFF DUP4 AND GT SWAP1 PUSH1 0xFF DUP3 ISZERO SWAP4 PUSH1 0x8 SHR AND GT SWAP2 DUP3 ISZERO SWAP3 DUP3 DUP1 PUSH2 0x37B0 JUMPI JUMPDEST PUSH2 0x37A2 JUMPI DUP2 PUSH2 0x379A JUMPI JUMPDEST POP PUSH2 0x378E JUMPI DUP2 PUSH2 0x3786 JUMPI JUMPDEST POP PUSH2 0x377C JUMPI PUSH3 0x93A80 DUP2 ADD DUP1 SWAP2 GT PUSH2 0x2EF7 JUMPI PUSH2 0x374B SWAP1 TIMESTAMP SWAP1 PUSH2 0x32E6 JUMP JUMPDEST SWAP1 PUSH3 0x278D00 DUP2 ADD DUP1 SWAP2 GT PUSH2 0x2EF7 JUMPI PUSH2 0x3764 SWAP1 TIMESTAMP SWAP1 PUSH2 0x32E6 JUMP JUMPDEST GT ISZERO PUSH2 0x3774 JUMPI PUSH1 0x2 SWAP1 JUMPDEST PUSH1 0x0 SWAP2 SWAP1 JUMP JUMPDEST PUSH1 0x1 SWAP1 PUSH2 0x376E JUMP JUMPDEST POP POP PUSH1 0x0 SWAP1 PUSH1 0x2 SWAP1 JUMP JUMPDEST SWAP1 POP CODESIZE PUSH2 0x372E JUMP JUMPDEST POP POP POP POP PUSH1 0x0 SWAP1 PUSH1 0x1 SWAP1 JUMP JUMPDEST SWAP1 POP CODESIZE PUSH2 0x3723 JUMP JUMPDEST POP POP POP POP POP POP PUSH1 0x1 SWAP1 PUSH1 0x0 SWAP1 JUMP JUMPDEST POP DUP1 PUSH2 0x3719 JUMP JUMPDEST PUSH2 0x37C1 DUP2 DUP4 PUSH2 0x2CE9 JUMP JUMPDEST SWAP1 SLOAD SWAP1 PUSH1 0x3 SHL SHR PUSH3 0x278D00 DUP2 ADD DUP1 DUP3 GT PUSH2 0x2EF7 JUMPI TIMESTAMP LT PUSH2 0x37E5 JUMPI JUMPDEST POP PUSH1 0x1 ADD PUSH2 0x36F0 JUMP JUMPDEST SWAP4 PUSH2 0x37EF SWAP1 PUSH2 0x2EE8 JUMP JUMPDEST SWAP4 DUP8 ISZERO DUP1 ISZERO PUSH2 0x3845 JUMPI JUMPDEST PUSH2 0x383D JUMPI JUMPDEST PUSH3 0x93A80 DUP2 ADD DUP1 DUP3 GT PUSH2 0x2EF7 JUMPI TIMESTAMP LT ISZERO PUSH2 0x37DC JUMPI SWAP5 PUSH2 0x381C SWAP1 PUSH2 0x2EE8 JUMP JUMPDEST SWAP5 DUP7 ISZERO DUP1 ISZERO PUSH2 0x3834 JUMPI JUMPDEST ISZERO PUSH2 0x37DC JUMPI SWAP6 POP PUSH1 0x1 PUSH2 0x37DC JUMP JUMPDEST POP DUP7 DUP2 LT PUSH2 0x3826 JUMP JUMPDEST SWAP7 POP DUP7 PUSH2 0x37FE JUMP JUMPDEST POP DUP8 DUP2 LT PUSH2 0x37F9 JUMP JUMPDEST ISZERO PUSH2 0x3855 JUMPI JUMP JUMPDEST PUSH1 0x40 MLOAD PUSH3 0x461BCD PUSH1 0xE5 SHL DUP2 MSTORE PUSH1 0x20 PUSH1 0x4 DUP3 ADD MSTORE PUSH1 0x36 PUSH1 0x24 DUP3 ADD MSTORE PUSH32 0x4D697373696F6E466163746F72793A2063616C6C6572206973206E6F74206120 PUSH1 0x44 DUP3 ADD MSTORE PUSH22 0x1D985B1A59081B5A5CDCDA5BDB8818DBDB9D1C9858DD PUSH1 0x52 SHL PUSH1 0x64 DUP3 ADD MSTORE PUSH1 0x84 SWAP1 REVERT JUMPDEST PUSH1 0x0 SLOAD PUSH1 0x1 PUSH1 0x1 PUSH1 0xA0 SHL SUB AND CALLER SUB PUSH2 0x38CD JUMPI JUMP JUMPDEST PUSH4 0x118CDAA7 PUSH1 0xE0 SHL PUSH1 0x0 MSTORE CALLER PUSH1 0x4 MSTORE PUSH1 0x24 PUSH1 0x0 REVERT JUMPDEST PUSH1 0x2 PUSH1 0x1 SLOAD EQ PUSH2 0x38F3 JUMPI PUSH1 0x2 PUSH1 0x1 SSTORE JUMP JUMPDEST PUSH4 0x3EE5AEB5 PUSH1 0xE0 SHL PUSH1 0x0 MSTORE PUSH1 0x4 PUSH1 0x0 REVERT JUMPDEST PUSH1 0x0 DUP1 SLOAD PUSH1 0x1 PUSH1 0x1 PUSH1 0xA0 SHL SUB SWAP3 DUP4 AND PUSH1 0x1 PUSH1 0x1 PUSH1 0xA0 SHL SUB NOT DUP3 AND DUP2 OR DUP4 SSTORE SWAP3 AND SWAP1 PUSH32 0x8BE0079C531659141344CD1FD0A4F28419497F9722A3DAAFE3B4186F6B6457E0 SWAP1 DUP1 LOG3 JUMP JUMPDEST PUSH1 0x7 DUP2 LT ISZERO PUSH2 0x2B4F JUMPI PUSH1 0x1 DUP2 EQ PUSH2 0x3A75 JUMPI PUSH1 0x0 PUSH1 0x2 DUP3 EQ PUSH2 0x3A48 JUMPI POP PUSH1 0x3 DUP2 EQ PUSH2 0x3A22 JUMPI PUSH1 0x0 PUSH1 0x4 DUP3 EQ PUSH2 0x39FC JUMPI POP PUSH1 0x5 DUP2 EQ PUSH2 0x39D7 JUMPI PUSH1 0x6 PUSH1 0x0 SWAP2 EQ PUSH2 0x39B1 JUMPI POP PUSH1 0x40 MLOAD PUSH2 0x399B PUSH1 0x40 DUP3 PUSH2 0x2DD6 JUMP JUMPDEST PUSH1 0x6 DUP2 MSTORE PUSH6 0x437573746F6D PUSH1 0xD0 SHL PUSH1 0x20 DUP3 ADD MSTORE SWAP1 JUMP JUMPDEST POP PUSH1 0x40 MLOAD PUSH2 0x39C0 PUSH1 0x40 DUP3 PUSH2 0x2DD6 JUMP JUMPDEST PUSH1 0x7 DUP2 MSTORE PUSH7 0x4D6F6E74686C79 PUSH1 0xC8 SHL PUSH1 0x20 DUP3 ADD MSTORE SWAP1 JUMP JUMPDEST POP PUSH1 0x40 MLOAD PUSH2 0x39E6 PUSH1 0x40 DUP3 PUSH2 0x2DD6 JUMP JUMPDEST PUSH1 0x6 DUP2 MSTORE PUSH6 0x5765656B6C79 PUSH1 0xD0 SHL PUSH1 0x20 DUP3 ADD MSTORE SWAP1 JUMP JUMPDEST POP POP PUSH1 0x40 DUP1 MLOAD SWAP1 PUSH2 0x3A0D SWAP1 DUP3 PUSH2 0x2DD6 JUMP JUMPDEST PUSH1 0x5 DUP2 MSTORE PUSH5 0x4461696C79 PUSH1 0xD8 SHL PUSH1 0x20 DUP3 ADD MSTORE SWAP1 JUMP JUMPDEST POP PUSH1 0x40 MLOAD PUSH2 0x3A31 PUSH1 0x40 DUP3 PUSH2 0x2DD6 JUMP JUMPDEST PUSH1 0x7 DUP2 MSTORE PUSH7 0x42694461696C79 PUSH1 0xC8 SHL PUSH1 0x20 DUP3 ADD MSTORE SWAP1 JUMP JUMPDEST POP POP PUSH1 0x40 DUP1 MLOAD SWAP1 PUSH2 0x3A59 SWAP1 DUP3 PUSH2 0x2DD6 JUMP JUMPDEST PUSH1 0xC DUP2 MSTORE PUSH12 0x517561727465724461696C79 PUSH1 0xA0 SHL PUSH1 0x20 DUP3 ADD MSTORE SWAP1 JUMP JUMPDEST POP PUSH1 0x40 MLOAD PUSH2 0x3A84 PUSH1 0x40 DUP3 PUSH2 0x2DD6 JUMP JUMPDEST PUSH1 0x6 DUP2 MSTORE PUSH6 0x486F75726C79 PUSH1 0xD0 SHL PUSH1 0x20 DUP3 ADD MSTORE SWAP1 JUMP INVALID LOG2 PUSH5 0x6970667358 0x22 SLT KECCAK256 GAS EXP DUPN 0x63 0xDC SLT 0xB3 0xC8 BLOBBASEFEE 0xAE DUP15 0xA7 PUSH31 0xF5A1FE4D1025BCC6B449C914EF53D91EBC582564736F6C634300081E003300 "},"methodIdentifiers":{"OWNERSHIP_PROPOSAL_WINDOW()":"d3050eba","addAuthorizedAddress(address)":"42f1181e","authorized(address)":"b9181611","canEnroll(address)":"9804a586","confirmOwnershipTransfer()":"7200b829","createMission(uint8,uint256,uint256,uint256,uint8,uint8,uint256,uint256,uint8,string)":"72eecd21","getAllMissions()":"6d8a1390","getFactorySummary()":"e5047770","getFundsByType(uint8)":"2e33b07f","getLatestMissions(uint256)":"7e9eae50","getMissionData(address)":"20c5718f","getMissionsByStatus(uint8)":"1e59d584","getMissionsEnded()":"b6202913","getMissionsNotEnded()":"6805036d","getOwnershipProposal()":"8c09b7c3","getPlayerLimits(address)":"cbf2080d","getPlayerParticipation(address)":"503c0b88","getTotalMissions()":"5c5bb6f2","isMission(address)":"aa1f0595","missionImplementation()":"bd487725","missionNames(address)":"b6de7b43","missionStatus(address)":"0814ab82","missionTypeCounts(uint8)":"f08e231e","missions(uint256)":"2c8fe526","monthlyLimit()":"0a6005da","owner()":"8da5cb5b","proposalProposer()":"2d771f30","proposalTimestamp()":"04a61752","proposeOwnershipTransfer(address)":"21040fc3","proposedNewOwner()":"0fc8c4ed","recordEnrollment(address)":"c17f9e59","registerMissionFunds(uint8)":"a9bea789","removeAuthorizedAddress(address)":"70712939","renounceOwnership()":"715018a6","reservedFunds(uint8)":"c416ad2a","reservedFundsBreakdown()":"df4db463","secondsTillMonthlySlot(address)":"37012762","secondsTillWeeklySlot(address)":"eff0ab92","setEnrollmentLimits(uint8,uint8)":"d41eca64","setMissionStatus(uint8)":"d8d6e8ff","totalMissionFailures()":"83fbea51","totalMissionFunds()":"63679723","totalMissionSuccesses()":"c892fde3","totalOwnerEarnedFunds()":"3589cf72","transferOwnership(address)":"f2fde38b","weeklyLimit()":"861a68d6","withdrawFunds(uint256)":"155dd5ee"}}}}}