{"contracts/MissionFactory.sol":{"MissionFactory":{"abi":[{"inputs":[{"internalType":"address","name":"_impl","type":"address"}],"stateMutability":"nonpayable","type":"constructor"},{"inputs":[],"name":"FailedDeployment","type":"error"},{"inputs":[{"internalType":"uint256","name":"balance","type":"uint256"},{"internalType":"uint256","name":"needed","type":"uint256"}],"name":"InsufficientBalance","type":"error"},{"inputs":[{"internalType":"address","name":"owner","type":"address"}],"name":"OwnableInvalidOwner","type":"error"},{"inputs":[{"internalType":"address","name":"account","type":"address"}],"name":"OwnableUnauthorizedAccount","type":"error"},{"inputs":[],"name":"ReentrancyGuardReentrantCall","type":"error"},{"anonymous":false,"inputs":[{"indexed":true,"internalType":"address","name":"addr","type":"address"}],"name":"AuthorizedAddressAdded","type":"event"},{"anonymous":false,"inputs":[{"indexed":true,"internalType":"address","name":"addr","type":"address"}],"name":"AuthorizedAddressRemoved","type":"event"},{"anonymous":false,"inputs":[{"indexed":false,"internalType":"uint8","name":"newWeekly","type":"uint8"},{"indexed":false,"internalType":"uint8","name":"newMonthly","type":"uint8"}],"name":"EnrollmentLimitUpdated","type":"event"},{"anonymous":false,"inputs":[{"indexed":true,"internalType":"address","name":"user","type":"address"},{"indexed":false,"internalType":"uint256","name":"timestamp","type":"uint256"}],"name":"EnrollmentRecorded","type":"event"},{"anonymous":false,"inputs":[{"indexed":true,"internalType":"address","name":"sender","type":"address"},{"indexed":false,"internalType":"uint256","name":"amount","type":"uint256"}],"name":"FundsReceived","type":"event"},{"anonymous":false,"inputs":[{"indexed":true,"internalType":"address","name":"to","type":"address"},{"indexed":false,"internalType":"uint256","name":"amount","type":"uint256"}],"name":"FundsWithdrawn","type":"event"},{"anonymous":false,"inputs":[{"indexed":true,"internalType":"address","name":"missionAddress","type":"address"},{"indexed":true,"internalType":"enum MissionType","name":"missionType","type":"uint8"}],"name":"MissionCreated","type":"event"},{"anonymous":false,"inputs":[{"indexed":false,"internalType":"uint256","name":"amount","type":"uint256"},{"indexed":true,"internalType":"enum MissionType","name":"missionType","type":"uint8"},{"indexed":true,"internalType":"address","name":"sender","type":"address"}],"name":"MissionFundsRegistered","type":"event"},{"anonymous":false,"inputs":[{"indexed":true,"internalType":"address","name":"confirmer","type":"address"},{"indexed":false,"internalType":"address","name":"newOwner","type":"address"},{"indexed":false,"internalType":"uint256","name":"timestamp","type":"uint256"}],"name":"OwnershipTransferConfirmed","type":"event"},{"anonymous":false,"inputs":[{"indexed":true,"internalType":"address","name":"proposer","type":"address"},{"indexed":false,"internalType":"address","name":"newOwner","type":"address"},{"indexed":false,"internalType":"uint256","name":"timestamp","type":"uint256"}],"name":"OwnershipTransferProposed","type":"event"},{"anonymous":false,"inputs":[{"indexed":true,"internalType":"address","name":"previousOwner","type":"address"},{"indexed":true,"internalType":"address","name":"newOwner","type":"address"}],"name":"OwnershipTransferred","type":"event"},{"stateMutability":"payable","type":"fallback"},{"inputs":[],"name":"OWNERSHIP_PROPOSAL_WINDOW","outputs":[{"internalType":"uint256","name":"","type":"uint256"}],"stateMutability":"view","type":"function"},{"inputs":[{"internalType":"address","name":"account","type":"address"}],"name":"addAuthorizedAddress","outputs":[],"stateMutability":"nonpayable","type":"function"},{"inputs":[{"internalType":"address","name":"","type":"address"}],"name":"authorized","outputs":[{"internalType":"bool","name":"","type":"bool"}],"stateMutability":"view","type":"function"},{"inputs":[{"internalType":"address","name":"user","type":"address"}],"name":"canEnroll","outputs":[{"internalType":"bool","name":"ok","type":"bool"},{"internalType":"enum Limit","name":"breach","type":"uint8"}],"stateMutability":"view","type":"function"},{"inputs":[{"internalType":"address","name":"newOwner","type":"address"}],"name":"confirmOwnershipTransfer","outputs":[],"stateMutability":"nonpayable","type":"function"},{"inputs":[{"internalType":"enum MissionType","name":"_missionType","type":"uint8"},{"internalType":"uint256","name":"_enrollmentStart","type":"uint256"},{"internalType":"uint256","name":"_enrollmentEnd","type":"uint256"},{"internalType":"uint256","name":"_enrollmentAmount","type":"uint256"},{"internalType":"uint8","name":"_enrollmentMinPlayers","type":"uint8"},{"internalType":"uint8","name":"_enrollmentMaxPlayers","type":"uint8"},{"internalType":"uint256","name":"_missionStart","type":"uint256"},{"internalType":"uint256","name":"_missionEnd","type":"uint256"},{"internalType":"uint8","name":"_missionRounds","type":"uint8"}],"name":"createMission","outputs":[{"internalType":"address","name":"","type":"address"}],"stateMutability":"payable","type":"function"},{"inputs":[],"name":"getAllMissions","outputs":[{"internalType":"address[]","name":"","type":"address[]"},{"internalType":"enum Status[]","name":"","type":"uint8[]"}],"stateMutability":"view","type":"function"},{"inputs":[{"internalType":"enum MissionType","name":"_type","type":"uint8"}],"name":"getFundsByType","outputs":[{"internalType":"uint256","name":"","type":"uint256"}],"stateMutability":"view","type":"function"},{"inputs":[{"internalType":"uint256","name":"n","type":"uint256"}],"name":"getLatestMissions","outputs":[{"internalType":"address[]","name":"","type":"address[]"}],"stateMutability":"view","type":"function"},{"inputs":[{"internalType":"address","name":"missionAddress","type":"address"}],"name":"getMissionData","outputs":[{"components":[{"internalType":"address[]","name":"players","type":"address[]"},{"internalType":"enum MissionType","name":"missionType","type":"uint8"},{"internalType":"uint256","name":"enrollmentStart","type":"uint256"},{"internalType":"uint256","name":"enrollmentEnd","type":"uint256"},{"internalType":"uint256","name":"enrollmentAmount","type":"uint256"},{"internalType":"uint8","name":"enrollmentMinPlayers","type":"uint8"},{"internalType":"uint8","name":"enrollmentMaxPlayers","type":"uint8"},{"internalType":"uint256","name":"missionStart","type":"uint256"},{"internalType":"uint256","name":"missionEnd","type":"uint256"},{"internalType":"uint8","name":"missionRounds","type":"uint8"},{"internalType":"uint8","name":"roundCount","type":"uint8"},{"internalType":"uint256","name":"ethStart","type":"uint256"},{"internalType":"uint256","name":"ethCurrent","type":"uint256"},{"components":[{"internalType":"address","name":"player","type":"address"},{"internalType":"uint256","name":"amountWon","type":"uint256"}],"internalType":"struct Mission.PlayersWon[]","name":"playersWon","type":"tuple[]"},{"internalType":"uint256","name":"pauseTimestamp","type":"uint256"},{"internalType":"address[]","name":"refundedPlayers","type":"address[]"}],"internalType":"struct Mission.MissionData","name":"","type":"tuple"}],"stateMutability":"view","type":"function"},{"inputs":[{"internalType":"enum Status","name":"s","type":"uint8"}],"name":"getMissionsByStatus","outputs":[{"internalType":"address[]","name":"","type":"address[]"}],"stateMutability":"view","type":"function"},{"inputs":[],"name":"getMissionsEnded","outputs":[{"internalType":"address[]","name":"","type":"address[]"}],"stateMutability":"view","type":"function"},{"inputs":[],"name":"getMissionsNotEnded","outputs":[{"internalType":"address[]","name":"","type":"address[]"}],"stateMutability":"view","type":"function"},{"inputs":[{"internalType":"address","name":"player","type":"address"}],"name":"getPlayerLimits","outputs":[{"internalType":"uint8","name":"weekUsed","type":"uint8"},{"internalType":"uint8","name":"weekMax","type":"uint8"},{"internalType":"uint8","name":"monthUsed","type":"uint8"},{"internalType":"uint8","name":"monthMax","type":"uint8"},{"internalType":"uint256","name":"secToWeek","type":"uint256"},{"internalType":"uint256","name":"secToMonth","type":"uint256"}],"stateMutability":"view","type":"function"},{"inputs":[{"internalType":"address","name":"","type":"address"}],"name":"isMission","outputs":[{"internalType":"bool","name":"","type":"bool"}],"stateMutability":"view","type":"function"},{"inputs":[],"name":"missionImplementation","outputs":[{"internalType":"address","name":"","type":"address"}],"stateMutability":"view","type":"function"},{"inputs":[{"internalType":"address","name":"","type":"address"}],"name":"missionStatus","outputs":[{"internalType":"enum Status","name":"","type":"uint8"}],"stateMutability":"view","type":"function"},{"inputs":[{"internalType":"uint256","name":"","type":"uint256"}],"name":"missions","outputs":[{"internalType":"address","name":"","type":"address"}],"stateMutability":"view","type":"function"},{"inputs":[],"name":"monthlyLimit","outputs":[{"internalType":"uint8","name":"","type":"uint8"}],"stateMutability":"view","type":"function"},{"inputs":[],"name":"owner","outputs":[{"internalType":"address","name":"","type":"address"}],"stateMutability":"view","type":"function"},{"inputs":[{"internalType":"address","name":"","type":"address"}],"name":"ownershipProposals","outputs":[{"internalType":"address","name":"proposer","type":"address"},{"internalType":"uint256","name":"timestamp","type":"uint256"}],"stateMutability":"view","type":"function"},{"inputs":[{"internalType":"address","name":"newOwner","type":"address"}],"name":"proposeOwnershipTransfer","outputs":[],"stateMutability":"nonpayable","type":"function"},{"inputs":[{"internalType":"address","name":"user","type":"address"}],"name":"recordEnrollment","outputs":[],"stateMutability":"nonpayable","type":"function"},{"inputs":[{"internalType":"uint256","name":"amount","type":"uint256"},{"internalType":"enum MissionType","name":"missionType","type":"uint8"}],"name":"registerMissionFunds","outputs":[],"stateMutability":"nonpayable","type":"function"},{"inputs":[{"internalType":"address","name":"account","type":"address"}],"name":"removeAuthorizedAddress","outputs":[],"stateMutability":"nonpayable","type":"function"},{"inputs":[],"name":"renounceOwnership","outputs":[],"stateMutability":"nonpayable","type":"function"},{"inputs":[{"internalType":"enum MissionType","name":"","type":"uint8"}],"name":"reservedFunds","outputs":[{"internalType":"uint256","name":"","type":"uint256"}],"stateMutability":"view","type":"function"},{"inputs":[],"name":"reservedFundsBreakdown","outputs":[{"internalType":"uint256[7]","name":"","type":"uint256[7]"}],"stateMutability":"view","type":"function"},{"inputs":[{"internalType":"address","name":"user","type":"address"}],"name":"secondsTillMonthlySlot","outputs":[{"internalType":"uint256","name":"","type":"uint256"}],"stateMutability":"view","type":"function"},{"inputs":[{"internalType":"address","name":"user","type":"address"}],"name":"secondsTillWeeklySlot","outputs":[{"internalType":"uint256","name":"","type":"uint256"}],"stateMutability":"view","type":"function"},{"inputs":[{"internalType":"uint8","name":"_weekly","type":"uint8"},{"internalType":"uint8","name":"_monthly","type":"uint8"}],"name":"setEnrollmentLimits","outputs":[],"stateMutability":"nonpayable","type":"function"},{"inputs":[{"internalType":"enum Status","name":"newStatus","type":"uint8"}],"name":"setMissionStatus","outputs":[],"stateMutability":"nonpayable","type":"function"},{"inputs":[{"internalType":"address","name":"newOwner","type":"address"}],"name":"transferOwnership","outputs":[],"stateMutability":"nonpayable","type":"function"},{"inputs":[],"name":"weeklyLimit","outputs":[{"internalType":"uint8","name":"","type":"uint8"}],"stateMutability":"view","type":"function"},{"inputs":[{"internalType":"uint256","name":"amount","type":"uint256"}],"name":"withdrawFunds","outputs":[],"stateMutability":"nonpayable","type":"function"},{"stateMutability":"payable","type":"receive"}],"evm":{"bytecode":{"linkReferences":{},"object":"60a03461011e57601f612e2138819003918201601f19168301916001600160401b038311848410176101235780849260209460405283398101031261011e57516001600160a01b03811680820361011e5733156101085760008054336001600160a01b0319821681178355604051939290916001600160a01b0316907f8be0079c531659141344cd1fd0a4f28419497f9722a3daafe3b4186f6b6457e09080a360018055610a0461ffff196009541617600955156100da5750608052604051612ce7908161013a823960805181818161097b0152610f350152f35b62461bcd60e51b8152602060048201526009602482015268696d706c207a65726f60b81b6044820152606490fd5b631e4fbdf760e01b600052600060045260246000fd5b600080fd5b634e487b7160e01b600052604160045260246000fdfe6080806040526004361015610011575b005b600090813560e01c9081630814ab8214612319575080630a6005da146122f5578063155dd5ee146121335780631e59d58414611ff257806320c5718f14611d9157806321040fc314611c695780632c8fe52614611c255780632e33b07f146106fe5780633701276214611b465780633c2139571461193357806342f1181e146118425780636805036d146116915780636d8a139014611617578063707129391461152c578063715018a6146114d25780637e9eae501461143f578063861a68d61461141e5780638da5cb5b146113f75780639804a586146113ad5780639b15953914610e915780639c3d3a2014610d04578063aa1f059514610cc2578063b6202913146109ec578063b9181611146109aa578063bd48772514610965578063c17f9e5914610731578063c416ad2a146106fe578063cbf2080d14610567578063d3050eba14610549578063d41eca641461049b578063d8d6e8ff146103e8578063df4db46314610361578063eff0ab9214610254578063f2fde38b146101fd5763fb4cdea70361000f57346101fa5760203660031901126101fa576004356001600160a01b038116908190036101f857815260076020908152604091829020805460019091015483516001600160a01b0390921682529181019190915290819081015b0390f35b505b80fd5b50346101fa5760203660031901126101fa576004356001600160a01b0381168082036102505761022b612c41565b1561023c5761023990612c6a565b80f35b631e4fbdf760e01b82526004829052602482fd5b8280fd5b50346101fa5760203660031901126101fa576004356001600160a01b038116908190036101f857815260086020526040812080548291825b8281106102dc57505050816102a857602091505b604051908152f35b62093a8082018092116102c857506102c360209142906127e2565b6102a0565b634e487b7160e01b81526011600452602490fd5b6102e681836123fb565b90549060031b1c62093a80810180911161034d574210610309575b60010161028c565b84158015610334575b15610301579350600161032585836123fb565b90549060031b1c949050610301565b508461034082846123fb565b90549060031b1c10610312565b634e487b7160e01b85526011600452602485fd5b50346101fa57806003193601126101fa5760e0908160405161038382826124d6565b3690376040519061039483836124d6565b82368337805b60078110156103bd576001906103af81612413565b548160051b8501520161039a565b506040519190825b600782106103d257505050f35b60208060019285518152019301910190916103c5565b50346101fa5760203660031901126101fa5760043560088110156101f857338252600560205260ff60408320541615610437573382526004602052604082209060ff8019835416911617905580f35b60405162461bcd60e51b815260206004820152603660248201527f4d697373696f6e466163746f72793a2063616c6c6572206973206e6f742061206044820152751d985b1a59081b5a5cdcda5bdb8818dbdb9d1c9858dd60521b6064820152608490fd5b50346101fa5760403660031901126101fa5760043560ff81168091036101f85760243560ff811691828203610545577f321994b8855ae38e4fd6162f7a0bd7cde88be83aa3acc96e03c17b7f733b43e19260409260018060a01b0386541633148015610530575b61050b9061242c565b8261ff006009549260081b169161ffff1916171760095582519182526020820152a180f35b5033865260026020528386205460ff16610502565b8380fd5b50346101fa57806003193601126101fa576020604051620151808152f35b50346101fa5760203660031901126101fa576004356001600160a01b038116908190036101f85781526008602052604081208190829083809181908054915b82811061065357505050600954948015600014610621575080915b806105fb575060c09460ff8092945b8160405197168752818316602088015216604086015260081c166060840152608083015260a0820152f35b9062278d0082018092116102c8575060c09460ff61061b819342906127e2565b946105d0565b62093a80810180911161063f576106399042906127e2565b916105c1565b634e487b7160e01b82526011600452602482fd5b61065d81836123fb565b90549060031b1c62278d0081018082116106d9574210610681575b506001016105a6565b9561068b906124f8565b95851580156106f5575b6106ed575b62093a8081018082116106d95742101561067857966106b8906124f8565b96881580156106d0575b156106785797506001610678565b508881106106c2565b634e487b7160e01b86526011600452602486fd5b94508461069a565b50858110610695565b50346101fa5760203660031901126101fa576004359060078210156101fa57602061072883612413565b54604051908152f35b50346101fa5760203660031901126101fa576004356001600160a01b038116908190036101f857338252600460205260ff60408320541660088110156109515760010361091b5762278cff1942019042821161090757808352600860205260408320805492845b848110806108ee575b156107b4576107af906124f8565b610798565b838387928061083a575b50805490600160401b82101561082657816107e19160016107f9940181556123fb565b429082549060031b91821b91600019901b1916179055565b7f498f5e6dcf570483a1848853791046a7f10012193176d71f959f46eb7713d7446020604051428152a280f35b634e487b7160e01b84526041600452602484fd5b92805b6108488584546127e2565b8110156108985780610892610868610862886001956127d5565b866123fb565b90549060031b1c61087983876123fb565b90919082549060031b91821b91600019901b1916179055565b0161083d565b5092835b8181106108a957506107be565b825480156108da5760019190600019016108c381866123fb565b8154906000199060031b1b1916905584550161089c565b634e487b7160e01b86526031600452602486fd5b50816108fa82856123fb565b90549060031b1c106107a1565b634e487b7160e01b83526011600452602483fd5b60405162461bcd60e51b815260206004820152600e60248201526d24b73b30b634b21031b0b63632b960911b6044820152606490fd5b634e487b7160e01b83526021600452602483fd5b50346101fa57806003193601126101fa576040517f00000000000000000000000000000000000000000000000000000000000000006001600160a01b03168152602090f35b50346101fa5760203660031901126101fa576004356001600160a01b038116908190036101f85760408260ff9260209452600284522054166040519015158152f35b50346101fa57806003193601126101fa5762278cff19420142811161063f5760065482835b828110610b995750610a2290612535565b918390845b838110610a4457604051602080825281906101f490820188612380565b610a4d816123ca565b905460039190911b1c6001600160a01b031686526004602052604086205460ff166008811015610b8557600614908115610b47575b81610ac6575b600191610a96575b01610a27565b610a9f816123ca565b838060a01b0391549060031b1c16610ac0610ab9866124f8565b9588612567565b52610a90565b6004915086610ad4826123ca565b9054604051631f385f7960e21b81529485929091839160031b1c6001600160a01b03165afa8015610b3c5761010084916001948a91610b1a575b50015110159150610a88565b610b3691503d808c833e610b2e81836124d6565b810190612607565b38610b0e565b6040513d89823e3d90fd5b9050610b52816123ca565b905460039190911b1c6001600160a01b031686526004602052604086205460ff166008811015610b855760071490610a82565b634e487b7160e01b87526021600452602487fd5b610ba2816123ca565b905460039190911b1c6001600160a01b031685526004602052604085205460ff166008811015610cae576006148015610c72575b80610bfd575b610be9575b600101610a11565b90610bf56001916124f8565b919050610be1565b50600485610c0a836123ca565b9054604051631f385f7960e21b81529384929091839160031b1c6001600160a01b03165afa908115610c67578591610100918891610c4d575b5001511015610bdc565b610c6191503d808a833e610b2e81836124d6565b38610c43565b6040513d88823e3d90fd5b50610c7c816123ca565b905460039190911b1c6001600160a01b031685526004602052604085205460ff166008811015610cae57600714610bd6565b634e487b7160e01b86526021600452602486fd5b50346101fa5760203660031901126101fa576004356001600160a01b038116908190036101f85760408260ff9260209452600584522054166040519015158152f35b50346101fa5760403660031901126101fa576004356024356007811015610250578115610e4d57338352600460205260ff6040842054166008811015610e39576006148015610e17575b83546001600160a01b031633148015610e01575b8115610df9575b5015610db457610d7881612413565b610d838382546127d5565b90556040519182527f606617fd09d9890413e3c46147b844d4562351f86e0f7a5c60849bbf0ef0281160203393a380f35b60405162461bcd60e51b815260206004820152601d60248201527f43616c6c6572206e6f742061206d697373696f6e206f722061646d696e0000006044820152606490fd5b905038610d69565b50338452600260205260ff604085205416610d62565b50338352600460205260ff6040842054166008811015610e3957600714610d4e565b634e487b7160e01b84526021600452602484fd5b606460405162461bcd60e51b815260206004820152602060248201527f416d6f756e74206d7573742062652067726561746572207468616e207a65726f6044820152fd5b506101203660031901126101fa5760043560078110156101f857602435906044359160643560843560ff81168091036113a95760a43560ff81168091036113a55760c4359060e43592610104359460ff86168096036113a15789546001600160a01b03163314801561138b575b610f079061242c565b6005861061132c578582106112c157888710156112705788841061121257838511156111ce578015611175577f0000000000000000000000000000000000000000000000000000000000000000608881901c62ffffff16763d602d80600a3d3981f3363d3d373d3d3d363d73000000178b5260781b6e5af43d82803e903d91602b57fd5bf3176020526001600160a01b03603760098cf01698891561116657898b52600560205260408b20600160ff19825416179055898b52600460205260408b2060ff19815416905560018060a01b038b5416978a3b15611162576040519863c54168b360e01b8a5260048a01523060248a015261100960448a018b6123bd565b6064890152608488015260a487015260c486015260e485015261010484015261012483015261014482015283816101648134875af1801561115757611143575b50600654600160401b8110156108265780600161106992016006556123ca565b81546001600160a01b0360039290921b91821b19169084901b17905580827f0ac1ac89285bf936f515aafcf6808b3e062e77fd57f52c8892d20fc9409b8b538580a36110b481612413565b5460021c9081151580611139575b6110d2575b602083604051908152f35b6110db90612413565b6110e68282546127e2565b905582823b156101fa5760405163eb2bab7760e01b81529182906004908290865af1801561112e57611119575b806110c7565b6111248380926124d6565b6101f85781611113565b6040513d85823e3d90fd5b50814710156110c2565b83611150919492946124d6565b9138611049565b6040513d86823e3d90fd5b8b80fd5b63b06ebf3d60e01b8b5260048bfd5b60405162461bcd60e51b815260206004820152602b60248201527f456e726f6c6c6d656e7420616d6f756e74206d7573742062652067726561746560448201526a72207468616e207a65726f60a81b6064820152608490fd5b606460405162461bcd60e51b815260206004820152602060248201527f4d697373696f6e207374617274206d757374206265206265666f726520656e646044820152fd5b60405162461bcd60e51b815260206004820152603060248201527f4d697373696f6e207374617274206d757374206265206f6e206f72206166746560448201526f1c88195b9c9bdb1b1b595b9d08195b9960821b6064820152608490fd5b60405162461bcd60e51b815260206004820152602360248201527f456e726f6c6c6d656e74207374617274206d757374206265206265666f726520604482015262195b9960ea1b6064820152608490fd5b60405162461bcd60e51b815260206004820152603f60248201527f4d696e696d756d20706c6179657273206d75737420626520677265617465722060448201527f7468616e206f7220657175616c20746f206d697373696f6e20726f756e6473006064820152608490fd5b60405162461bcd60e51b815260206004820152603160248201527f4d697373696f6e20726f756e6473206d7573742062652067726561746572207460448201527068616e206f7220657175616c20746f203560781b6064820152608490fd5b50338a52600260205260408a205460ff16610efe565b8980fd5b8680fd5b8580fd5b50346101fa5760203660031901126101fa576004356001600160a01b03811681036101f8576113db90612ac2565b6040519115158252600381101561095157604092506020820152f35b50346101fa57806003193601126101fa57546040516001600160a01b039091168152602090f35b50346101fa57806003193601126101fa57602060ff60095416604051908152f35b50346101fa5760203660031901126101fa57600654906004358281116114cb575b61146981612535565b91806000198501948511905b83811061149257604051602080825281906101f490820188612380565b8161090757806114ac6114a7600193896127e2565b6123ca565b838060a01b0391549060031b1c166114c48288612567565b5201611475565b5081611460565b50346101fa57806003193601126101fa576114eb612c41565b80546001600160a01b03198116825581906001600160a01b03167f8be0079c531659141344cd1fd0a4f28419497f9722a3daafe3b4186f6b6457e08280a380f35b50346101fa5760203660031901126101fa576004356001600160a01b038116908190036101f85781546001600160a01b031633148015611601575b6115709061242c565b61157b8115156127ef565b808252600260205260ff604083205416156115cb57808252600260205260408220805460ff191690557f66d5f06f711af3c9feba3203fdb00b51345d514c68585d9d319c5ff5e6f775928280a280f35b60405162461bcd60e51b815260206004820152600e60248201526d139bdd08185d5d1a1bdc9a5e995960921b6044820152606490fd5b503382526002602052604082205460ff16611567565b50346101fa57806003193601126101fa5761164a9061163461282d565b9091604051938493604085526040850190612380565b8381036020850152602080845192838152019301915b81811061166e575050500390f35b9193509160208082611683600194885161235d565b019401910191849392611660565b50346101fa57806003193601126101fa5760065481825b82811061179357506116b990612535565b9082835b8281106116da57604051602080825281906101f490820187612380565b6116e3816123ca565b905460039190911b1c6001600160a01b031685526004602052604085205460ff166008811015610cae576006141580611756575b90600191611726575b016116bd565b61172f816123ca565b838060a01b0391549060031b1c16611750611749856124f8565b9487612567565b52611720565b50611760816123ca565b905460039190911b1c6001600160a01b031685526004602052604085205460ff166008811015610cae5760071415611717565b61179c816123ca565b905460039190911b1c6001600160a01b031684526004602052604084205460ff16600881101561182e5760061415806117f1575b6117dd575b6001016116a8565b906117e96001916124f8565b9190506117d5565b506117fb816123ca565b905460039190911b1c6001600160a01b031684526004602052604084205460ff16600881101561182e57600714156117d0565b634e487b7160e01b85526021600452602485fd5b50346101fa5760203660031901126101fa576004356001600160a01b038116908190036101f85781546001600160a01b03163314801561191d575b6118869061242c565b6118918115156127ef565b808252600260205260ff6040832054166118e357808252600260205260408220805460ff191660011790557f10ac961f00d5e732ba4dcc2c6fb09bebea0eb9edd2a75c8109775ef288382e678280a280f35b60405162461bcd60e51b8152602060048201526012602482015271105b1c9958591e48185d5d1a1bdc9a5e995960721b6044820152606490fd5b503382526002602052604082205460ff1661187d565b50346101fa5760203660031901126101fa576004356001600160a01b0381168082036102505782546001600160a01b031633148015611b30575b6119769061242c565b80835260076020526040832060405161198e816124ba565b81546001600160a01b0316808252600190920154602082019081529115611aeb57516001600160a01b03163314611aa75751620151808101809111611a93574211611a5b576119db612c41565b8015611a47576119ea82612c6a565b825260076020908152604080842084815560010184905580516001600160a01b039093168352429183019190915233917fdd72dd33198968a9cdc9b1e5cbff344fb8d04d99f8c15c0a02416b04e857b46791819081015b0390a280f35b631e4fbdf760e01b83526004839052602483fd5b60405162461bcd60e51b815260206004820152601060248201526f141c9bdc1bdcd85b08195e1c1a5c995960821b6044820152606490fd5b634e487b7160e01b84526011600452602484fd5b606460405162461bcd60e51b815260206004820152602060248201527f43616e6e6f7420636f6e6669726d20796f7572206f776e2070726f706f73616c6044820152fd5b60405162461bcd60e51b815260206004820152601a60248201527f4e6f2070726f706f73616c20666f722074686973206f776e65720000000000006044820152606490fd5b503383526002602052604083205460ff1661196d565b50346101fa5760203660031901126101fa576004356001600160a01b038116908190036101f857815260086020526040812080548291825b828110611bb45750505081611b995760209150604051908152f35b62278d0082018092116102c857506102c360209142906127e2565b611bbe81836123fb565b90549060031b1c62278d00810180911161034d574210611be1575b600101611b7e565b84158015611c0c575b15611bd95793506001611bfd85836123fb565b90549060031b1c949050611bd9565b5084611c1882846123fb565b90549060031b1c10611bea565b50346101fa5760203660031901126101fa57600435906006548210156101fa576020611c50836123ca565b905460405160039290921b1c6001600160a01b03168152f35b50346101fa5760203660031901126101fa576004356001600160a01b0381168082036102505782546001600160a01b031633148015611d7b575b611cac9061242c565b8015611d4257600160405191611cc1836124ba565b3383526020830190428252855260076020526040852092828060a01b039051166bffffffffffffffffffffffff60a01b845416178355519101557fc29bdbd554e41df97e5c40fc273a09677ac133c245f0064bdffef5cc72176e1960405180611a41339442908360209093929193604081019460018060a01b031681520152565b60405162461bcd60e51b815260206004820152601160248201527024b73b30b634b2103732bb9037bbb732b960791b6044820152606490fd5b503383526002602052604083205460ff16611ca3565b50346101fa5760203660031901126101fa576004356001600160a01b038116908190036101f85760606101e0604051611dc981612487565b82815284602082015284604082015284838201528460808201528460a08201528460c08201528460e08201528461010082015284610120820152846101408201528461016082015284610180820152826101a0820152846101c082015201528015611fad578160049160405192838092631f385f7960e21b82525afa908115611fa2578291611f88575b506040519060208252611e7481516102006020850152610220840190612380565b92611e87602083015160408501906123bd565b6040820151606084015260608201516080840152608082015160a084015260ff60a08301511660c084015260ff60c08301511660e084015260e082015161010084015261010082015161012084015260ff6101208301511661014084015260ff610140830151166101608401526101608201516101808401526101808201516101a08401526101a082015193601f19848203016101c0850152602080865192838152019501915b818110611f5d5784806101f4886101e0886101c0810151828601520151601f1984830301610200850152612380565b825180516001600160a01b031687526020908101518188015260409096019590920191600101611f2e565b611f9c91503d8084833e610b2e81836124d6565b38611e53565b6040513d84823e3d90fd5b60405162461bcd60e51b815260206004820152601760248201527f496e76616c6964206d697373696f6e20616464726573730000000000000000006044820152606490fd5b50346101fa5760203660031901126101fa57600435600881101580610250576006549083845b8381106120d8575061202990612535565b928491855b84811061204b57604051602080825281906101f490820189612380565b612054816123ca565b905460039190911b1c6001600160a01b031687526004602052604087205460ff16826120c45760088110156120c457908360019214612094575b0161202e565b61209d816123ca565b838060a01b0391549060031b1c166120be6120b7876124f8565b9689612567565b5261208e565b634e487b7160e01b88526021600452602488fd5b6120e1816123ca565b905460039190911b1c6001600160a01b031686526004602052604086205460ff1683610b85576008811015610b8557851461211f575b600101612018565b9061212b6001916124f8565b919050612117565b50346101fa5760203660031901126101fa5780546001600160a01b031660043533821480156122df575b6121669061242c565b6002600154146122d0576002600155808215612293571561228c575b478111612250578280808084865af13d1561224b573d67ffffffffffffffff811161223757604051906121bf601f8201601f1916602001836124d6565b81528460203d92013e5b156122005760207feaff4b37086828766ad3268786972c0cd24259d4c87a80f9d3963a3c3d999b0d91604051908152a26001805580f35b60405162461bcd60e51b815260206004820152600f60248201526e151c985b9cd9995c8819985a5b1959608a1b6044820152606490fd5b634e487b7160e01b85526041600452602485fd5b6121c9565b60405162461bcd60e51b8152602060048201526014602482015273496e73756666696369656e742062616c616e636560601b6044820152606490fd5b5047612182565b60405162461bcd60e51b815260206004820152601560248201527424b73b30b634b21036b0b730b3b2b91037bbb732b960591b6044820152606490fd5b633ee5aeb560e01b8352600483fd5b503383526002602052604083205460ff1661215d565b50346101fa57806003193601126101fa57602060ff60095460081c16604051908152f35b9050346101f85760203660031901126101f8576004356001600160a01b03811690819003610250578160ff60408561235b94602097526004875220541661235d565bf35b90600882101561236a5752565b634e487b7160e01b600052602160045260246000fd5b906020808351928381520192019060005b81811061239e5750505090565b82516001600160a01b0316845260209384019390920191600101612391565b90600782101561236a5752565b6006548110156123e557600660005260206000200190600090565b634e487b7160e01b600052603260045260246000fd5b80548210156123e55760005260206000200190600090565b600781101561236a576000526003602052604060002090565b1561243357565b60405162461bcd60e51b815260206004820152602660248201527f4e6f74206f776e6572206f72204d697373696f6e466163746f727920617574686044820152651bdc9a5e995960d21b6064820152608490fd5b610200810190811067ffffffffffffffff8211176124a457604052565b634e487b7160e01b600052604160045260246000fd5b6040810190811067ffffffffffffffff8211176124a457604052565b90601f8019910116810190811067ffffffffffffffff8211176124a457604052565b60001981146125075760010190565b634e487b7160e01b600052601160045260246000fd5b67ffffffffffffffff81116124a45760051b60200190565b9061253f8261251d565b61254c60405191826124d6565b828152809261255d601f199161251d565b0190602036910137565b80518210156123e55760209160051b010190565b51906001600160a01b038216820361258f57565b600080fd5b9080601f8301121561258f5781516125ab8161251d565b926125b960405194856124d6565b81845260208085019260051b82010192831161258f57602001905b8282106125e15750505090565b602080916125ee8461257b565b8152019101906125d4565b519060ff8216820361258f57565b60208183031261258f5780519067ffffffffffffffff821161258f57016102008183031261258f576040519161263c83612487565b815167ffffffffffffffff811161258f5781612659918401612594565b83526020820151600781101561258f57602084015260408201516040840152606082015160608401526080820151608084015261269860a083016125f9565b60a08401526126a960c083016125f9565b60c084015260e082015160e08401526101008201516101008401526126d161012083016125f9565b6101208401526126e461014083016125f9565b6101408401526101608201516101608401526101808201516101808401526101a082015167ffffffffffffffff811161258f57820181601f8201121561258f57805161272f8161251d565b9161273d60405193846124d6565b81835260208084019260061b8201019084821161258f57602001915b81831061279d575050506101a08401526101c08201516101c08401526101e082015167ffffffffffffffff811161258f576127949201612594565b6101e082015290565b60408386031261258f57602060409182516127b7816124ba565b6127c08661257b565b81528286015183820152815201920191612759565b9190820180921161250757565b9190820391821161250757565b156127f657565b60405162461bcd60e51b815260206004820152600f60248201526e496e76616c6964206164647265737360881b6044820152606490fd5b6006548015612a8c57624f19ff194201914283116125075762278cff194201428111612507576000929182805b61299e575b5061286984612535565b9061287385612535565b936000905b80151580612995575b1561298a576000190190612894826123ca565b60018060a01b0391549060031b1c169081600052600460205260ff6040600020541691604051631f385f7960e21b8152600081600481855afa801561297e578891600091612965575b508b60e082018181511080612942575b156129375750506101000151105b612929576129098287612567565b526129148188612567565b91600881101561236a57600192520190612878565b505050509350919350509190565b9150915051106128fb565b50925050600885101561236a578b899260068714806128ed5750600787146128ed565b612978913d8091833e610b2e81836124d6565b386128dd565b6040513d6000823e3d90fd5b509195509293505050565b50868210612881565b60009493941901926129af846123ca565b60018060a01b0391549060031b1c168060005260046020526004600060ff6040822054169260405192838092631f385f7960e21b82525afa90811561297e5785928991600093612a71575b5060e0830190828251109081612a41575b5015612a365750506101000151105b612a2f57612a2884916124f8565b949361285a565b939261285f565b915091505110612a1a565b9250509250600881101561236a5785928160068b9314908115612a66575b5038612a0b565b600791501438612a5f565b612a8591933d8091833e610b2e81836124d6565b91386129fa565b50602090604051612a9d83826124d6565b60008152600036813760405192612ab481856124d6565b600084525060003681379190565b6001600160a01b031660009081526008602052604081208054829182918291825b828110612baa575050506009549160ff8316119060ff82159360081c1611918215928280612ba3575b612b955781612b8d575b50612b815781612b79575b50612b6f5762093a80810180911161250757612b3e9042906127e2565b9062278d00810180911161250757612b579042906127e2565b1115612b67576002905b60009190565b600190612b61565b5050600090600290565b905038612b21565b50505050600090600190565b905038612b16565b505050505050600190600090565b5080612b0c565b612bb481836123fb565b90549060031b1c62278d008101808211612507574210612bd8575b50600101612ae3565b93612be2906124f8565b9387158015612c38575b612c30575b62093a80810180821161250757421015612bcf5794612c0f906124f8565b9486158015612c27575b15612bcf5795506001612bcf565b50868110612c19565b965086612bf1565b50878110612bec565b6000546001600160a01b03163303612c5557565b63118cdaa760e01b6000523360045260246000fd5b600080546001600160a01b039283166001600160a01b03198216811783559216907f8be0079c531659141344cd1fd0a4f28419497f9722a3daafe3b4186f6b6457e09080a356fea264697066735822122015478a34291e492a2dce51c71bd19c24bdd7d5f2dabd8f2ee001117fa443a83364736f6c634300081e0033","opcodes":"PUSH1 0xA0 CALLVALUE PUSH2 0x11E JUMPI PUSH1 0x1F PUSH2 0x2E21 CODESIZE DUP2 SWAP1 SUB SWAP2 DUP3 ADD PUSH1 0x1F NOT AND DUP4 ADD SWAP2 PUSH1 0x1 PUSH1 0x1 PUSH1 0x40 SHL SUB DUP4 GT DUP5 DUP5 LT OR PUSH2 0x123 JUMPI DUP1 DUP5 SWAP3 PUSH1 0x20 SWAP5 PUSH1 0x40 MSTORE DUP4 CODECOPY DUP2 ADD SUB SLT PUSH2 0x11E JUMPI MLOAD PUSH1 0x1 PUSH1 0x1 PUSH1 0xA0 SHL SUB DUP2 AND DUP1 DUP3 SUB PUSH2 0x11E JUMPI CALLER ISZERO PUSH2 0x108 JUMPI PUSH1 0x0 DUP1 SLOAD CALLER PUSH1 0x1 PUSH1 0x1 PUSH1 0xA0 SHL SUB NOT DUP3 AND DUP2 OR DUP4 SSTORE PUSH1 0x40 MLOAD SWAP4 SWAP3 SWAP1 SWAP2 PUSH1 0x1 PUSH1 0x1 PUSH1 0xA0 SHL SUB AND SWAP1 PUSH32 0x8BE0079C531659141344CD1FD0A4F28419497F9722A3DAAFE3B4186F6B6457E0 SWAP1 DUP1 LOG3 PUSH1 0x1 DUP1 SSTORE PUSH2 0xA04 PUSH2 0xFFFF NOT PUSH1 0x9 SLOAD AND OR PUSH1 0x9 SSTORE ISZERO PUSH2 0xDA JUMPI POP PUSH1 0x80 MSTORE PUSH1 0x40 MLOAD PUSH2 0x2CE7 SWAP1 DUP2 PUSH2 0x13A DUP3 CODECOPY PUSH1 0x80 MLOAD DUP2 DUP2 DUP2 PUSH2 0x97B ADD MSTORE PUSH2 0xF35 ADD MSTORE RETURN JUMPDEST PUSH3 0x461BCD PUSH1 0xE5 SHL DUP2 MSTORE PUSH1 0x20 PUSH1 0x4 DUP3 ADD MSTORE PUSH1 0x9 PUSH1 0x24 DUP3 ADD MSTORE PUSH9 0x696D706C207A65726F PUSH1 0xB8 SHL PUSH1 0x44 DUP3 ADD MSTORE PUSH1 0x64 SWAP1 REVERT JUMPDEST PUSH4 0x1E4FBDF7 PUSH1 0xE0 SHL PUSH1 0x0 MSTORE PUSH1 0x0 PUSH1 0x4 MSTORE PUSH1 0x24 PUSH1 0x0 REVERT JUMPDEST PUSH1 0x0 DUP1 REVERT JUMPDEST PUSH4 0x4E487B71 PUSH1 0xE0 SHL PUSH1 0x0 MSTORE PUSH1 0x41 PUSH1 0x4 MSTORE PUSH1 0x24 PUSH1 0x0 REVERT INVALID PUSH1 0x80 DUP1 PUSH1 0x40 MSTORE PUSH1 0x4 CALLDATASIZE LT ISZERO PUSH2 0x11 JUMPI JUMPDEST STOP JUMPDEST PUSH1 0x0 SWAP1 DUP2 CALLDATALOAD PUSH1 0xE0 SHR SWAP1 DUP2 PUSH4 0x814AB82 EQ PUSH2 0x2319 JUMPI POP DUP1 PUSH4 0xA6005DA EQ PUSH2 0x22F5 JUMPI DUP1 PUSH4 0x155DD5EE EQ PUSH2 0x2133 JUMPI DUP1 PUSH4 0x1E59D584 EQ PUSH2 0x1FF2 JUMPI DUP1 PUSH4 0x20C5718F EQ PUSH2 0x1D91 JUMPI DUP1 PUSH4 0x21040FC3 EQ PUSH2 0x1C69 JUMPI DUP1 PUSH4 0x2C8FE526 EQ PUSH2 0x1C25 JUMPI DUP1 PUSH4 0x2E33B07F EQ PUSH2 0x6FE JUMPI DUP1 PUSH4 0x37012762 EQ PUSH2 0x1B46 JUMPI DUP1 PUSH4 0x3C213957 EQ PUSH2 0x1933 JUMPI DUP1 PUSH4 0x42F1181E EQ PUSH2 0x1842 JUMPI DUP1 PUSH4 0x6805036D EQ PUSH2 0x1691 JUMPI DUP1 PUSH4 0x6D8A1390 EQ PUSH2 0x1617 JUMPI DUP1 PUSH4 0x70712939 EQ PUSH2 0x152C JUMPI DUP1 PUSH4 0x715018A6 EQ PUSH2 0x14D2 JUMPI DUP1 PUSH4 0x7E9EAE50 EQ PUSH2 0x143F JUMPI DUP1 PUSH4 0x861A68D6 EQ PUSH2 0x141E JUMPI DUP1 PUSH4 0x8DA5CB5B EQ PUSH2 0x13F7 JUMPI DUP1 PUSH4 0x9804A586 EQ PUSH2 0x13AD JUMPI DUP1 PUSH4 0x9B159539 EQ PUSH2 0xE91 JUMPI DUP1 PUSH4 0x9C3D3A20 EQ PUSH2 0xD04 JUMPI DUP1 PUSH4 0xAA1F0595 EQ PUSH2 0xCC2 JUMPI DUP1 PUSH4 0xB6202913 EQ PUSH2 0x9EC JUMPI DUP1 PUSH4 0xB9181611 EQ PUSH2 0x9AA JUMPI DUP1 PUSH4 0xBD487725 EQ PUSH2 0x965 JUMPI DUP1 PUSH4 0xC17F9E59 EQ PUSH2 0x731 JUMPI DUP1 PUSH4 0xC416AD2A EQ PUSH2 0x6FE JUMPI DUP1 PUSH4 0xCBF2080D EQ PUSH2 0x567 JUMPI DUP1 PUSH4 0xD3050EBA EQ PUSH2 0x549 JUMPI DUP1 PUSH4 0xD41ECA64 EQ PUSH2 0x49B JUMPI DUP1 PUSH4 0xD8D6E8FF EQ PUSH2 0x3E8 JUMPI DUP1 PUSH4 0xDF4DB463 EQ PUSH2 0x361 JUMPI DUP1 PUSH4 0xEFF0AB92 EQ PUSH2 0x254 JUMPI DUP1 PUSH4 0xF2FDE38B EQ PUSH2 0x1FD JUMPI PUSH4 0xFB4CDEA7 SUB PUSH2 0xF JUMPI CALLVALUE PUSH2 0x1FA JUMPI PUSH1 0x20 CALLDATASIZE PUSH1 0x3 NOT ADD SLT PUSH2 0x1FA JUMPI PUSH1 0x4 CALLDATALOAD PUSH1 0x1 PUSH1 0x1 PUSH1 0xA0 SHL SUB DUP2 AND SWAP1 DUP2 SWAP1 SUB PUSH2 0x1F8 JUMPI DUP2 MSTORE PUSH1 0x7 PUSH1 0x20 SWAP1 DUP2 MSTORE PUSH1 0x40 SWAP2 DUP3 SWAP1 KECCAK256 DUP1 SLOAD PUSH1 0x1 SWAP1 SWAP2 ADD SLOAD DUP4 MLOAD PUSH1 0x1 PUSH1 0x1 PUSH1 0xA0 SHL SUB SWAP1 SWAP3 AND DUP3 MSTORE SWAP2 DUP2 ADD SWAP2 SWAP1 SWAP2 MSTORE SWAP1 DUP2 SWAP1 DUP2 ADD JUMPDEST SUB SWAP1 RETURN JUMPDEST POP JUMPDEST DUP1 REVERT JUMPDEST POP CALLVALUE PUSH2 0x1FA JUMPI PUSH1 0x20 CALLDATASIZE PUSH1 0x3 NOT ADD SLT PUSH2 0x1FA JUMPI PUSH1 0x4 CALLDATALOAD PUSH1 0x1 PUSH1 0x1 PUSH1 0xA0 SHL SUB DUP2 AND DUP1 DUP3 SUB PUSH2 0x250 JUMPI PUSH2 0x22B PUSH2 0x2C41 JUMP JUMPDEST ISZERO PUSH2 0x23C JUMPI PUSH2 0x239 SWAP1 PUSH2 0x2C6A JUMP JUMPDEST DUP1 RETURN JUMPDEST PUSH4 0x1E4FBDF7 PUSH1 0xE0 SHL DUP3 MSTORE PUSH1 0x4 DUP3 SWAP1 MSTORE PUSH1 0x24 DUP3 REVERT JUMPDEST DUP3 DUP1 REVERT JUMPDEST POP CALLVALUE PUSH2 0x1FA JUMPI PUSH1 0x20 CALLDATASIZE PUSH1 0x3 NOT ADD SLT PUSH2 0x1FA JUMPI PUSH1 0x4 CALLDATALOAD PUSH1 0x1 PUSH1 0x1 PUSH1 0xA0 SHL SUB DUP2 AND SWAP1 DUP2 SWAP1 SUB PUSH2 0x1F8 JUMPI DUP2 MSTORE PUSH1 0x8 PUSH1 0x20 MSTORE PUSH1 0x40 DUP2 KECCAK256 DUP1 SLOAD DUP3 SWAP2 DUP3 JUMPDEST DUP3 DUP2 LT PUSH2 0x2DC JUMPI POP POP POP DUP2 PUSH2 0x2A8 JUMPI PUSH1 0x20 SWAP2 POP JUMPDEST PUSH1 0x40 MLOAD SWAP1 DUP2 MSTORE RETURN JUMPDEST PUSH3 0x93A80 DUP3 ADD DUP1 SWAP3 GT PUSH2 0x2C8 JUMPI POP PUSH2 0x2C3 PUSH1 0x20 SWAP2 TIMESTAMP SWAP1 PUSH2 0x27E2 JUMP JUMPDEST PUSH2 0x2A0 JUMP JUMPDEST PUSH4 0x4E487B71 PUSH1 0xE0 SHL DUP2 MSTORE PUSH1 0x11 PUSH1 0x4 MSTORE PUSH1 0x24 SWAP1 REVERT JUMPDEST PUSH2 0x2E6 DUP2 DUP4 PUSH2 0x23FB JUMP JUMPDEST SWAP1 SLOAD SWAP1 PUSH1 0x3 SHL SHR PUSH3 0x93A80 DUP2 ADD DUP1 SWAP2 GT PUSH2 0x34D JUMPI TIMESTAMP LT PUSH2 0x309 JUMPI JUMPDEST PUSH1 0x1 ADD PUSH2 0x28C JUMP JUMPDEST DUP5 ISZERO DUP1 ISZERO PUSH2 0x334 JUMPI JUMPDEST ISZERO PUSH2 0x301 JUMPI SWAP4 POP PUSH1 0x1 PUSH2 0x325 DUP6 DUP4 PUSH2 0x23FB JUMP JUMPDEST SWAP1 SLOAD SWAP1 PUSH1 0x3 SHL SHR SWAP5 SWAP1 POP PUSH2 0x301 JUMP JUMPDEST POP DUP5 PUSH2 0x340 DUP3 DUP5 PUSH2 0x23FB JUMP JUMPDEST SWAP1 SLOAD SWAP1 PUSH1 0x3 SHL SHR LT PUSH2 0x312 JUMP JUMPDEST PUSH4 0x4E487B71 PUSH1 0xE0 SHL DUP6 MSTORE PUSH1 0x11 PUSH1 0x4 MSTORE PUSH1 0x24 DUP6 REVERT JUMPDEST POP CALLVALUE PUSH2 0x1FA JUMPI DUP1 PUSH1 0x3 NOT CALLDATASIZE ADD SLT PUSH2 0x1FA JUMPI PUSH1 0xE0 SWAP1 DUP2 PUSH1 0x40 MLOAD PUSH2 0x383 DUP3 DUP3 PUSH2 0x24D6 JUMP JUMPDEST CALLDATASIZE SWAP1 CALLDATACOPY PUSH1 0x40 MLOAD SWAP1 PUSH2 0x394 DUP4 DUP4 PUSH2 0x24D6 JUMP JUMPDEST DUP3 CALLDATASIZE DUP4 CALLDATACOPY DUP1 JUMPDEST PUSH1 0x7 DUP2 LT ISZERO PUSH2 0x3BD JUMPI PUSH1 0x1 SWAP1 PUSH2 0x3AF DUP2 PUSH2 0x2413 JUMP JUMPDEST SLOAD DUP2 PUSH1 0x5 SHL DUP6 ADD MSTORE ADD PUSH2 0x39A JUMP JUMPDEST POP PUSH1 0x40 MLOAD SWAP2 SWAP1 DUP3 JUMPDEST PUSH1 0x7 DUP3 LT PUSH2 0x3D2 JUMPI POP POP POP RETURN JUMPDEST PUSH1 0x20 DUP1 PUSH1 0x1 SWAP3 DUP6 MLOAD DUP2 MSTORE ADD SWAP4 ADD SWAP2 ADD SWAP1 SWAP2 PUSH2 0x3C5 JUMP JUMPDEST POP CALLVALUE PUSH2 0x1FA JUMPI PUSH1 0x20 CALLDATASIZE PUSH1 0x3 NOT ADD SLT PUSH2 0x1FA JUMPI PUSH1 0x4 CALLDATALOAD PUSH1 0x8 DUP2 LT ISZERO PUSH2 0x1F8 JUMPI CALLER DUP3 MSTORE PUSH1 0x5 PUSH1 0x20 MSTORE PUSH1 0xFF PUSH1 0x40 DUP4 KECCAK256 SLOAD AND ISZERO PUSH2 0x437 JUMPI CALLER DUP3 MSTORE PUSH1 0x4 PUSH1 0x20 MSTORE PUSH1 0x40 DUP3 KECCAK256 SWAP1 PUSH1 0xFF DUP1 NOT DUP4 SLOAD AND SWAP2 AND OR SWAP1 SSTORE DUP1 RETURN JUMPDEST PUSH1 0x40 MLOAD PUSH3 0x461BCD PUSH1 0xE5 SHL DUP2 MSTORE PUSH1 0x20 PUSH1 0x4 DUP3 ADD MSTORE PUSH1 0x36 PUSH1 0x24 DUP3 ADD MSTORE PUSH32 0x4D697373696F6E466163746F72793A2063616C6C6572206973206E6F74206120 PUSH1 0x44 DUP3 ADD MSTORE PUSH22 0x1D985B1A59081B5A5CDCDA5BDB8818DBDB9D1C9858DD PUSH1 0x52 SHL PUSH1 0x64 DUP3 ADD MSTORE PUSH1 0x84 SWAP1 REVERT JUMPDEST POP CALLVALUE PUSH2 0x1FA JUMPI PUSH1 0x40 CALLDATASIZE PUSH1 0x3 NOT ADD SLT PUSH2 0x1FA JUMPI PUSH1 0x4 CALLDATALOAD PUSH1 0xFF DUP2 AND DUP1 SWAP2 SUB PUSH2 0x1F8 JUMPI PUSH1 0x24 CALLDATALOAD PUSH1 0xFF DUP2 AND SWAP2 DUP3 DUP3 SUB PUSH2 0x545 JUMPI PUSH32 0x321994B8855AE38E4FD6162F7A0BD7CDE88BE83AA3ACC96E03C17B7F733B43E1 SWAP3 PUSH1 0x40 SWAP3 PUSH1 0x1 DUP1 PUSH1 0xA0 SHL SUB DUP7 SLOAD AND CALLER EQ DUP1 ISZERO PUSH2 0x530 JUMPI JUMPDEST PUSH2 0x50B SWAP1 PUSH2 0x242C JUMP JUMPDEST DUP3 PUSH2 0xFF00 PUSH1 0x9 SLOAD SWAP3 PUSH1 0x8 SHL AND SWAP2 PUSH2 0xFFFF NOT AND OR OR PUSH1 0x9 SSTORE DUP3 MLOAD SWAP2 DUP3 MSTORE PUSH1 0x20 DUP3 ADD MSTORE LOG1 DUP1 RETURN JUMPDEST POP CALLER DUP7 MSTORE PUSH1 0x2 PUSH1 0x20 MSTORE DUP4 DUP7 KECCAK256 SLOAD PUSH1 0xFF AND PUSH2 0x502 JUMP JUMPDEST DUP4 DUP1 REVERT JUMPDEST POP CALLVALUE PUSH2 0x1FA JUMPI DUP1 PUSH1 0x3 NOT CALLDATASIZE ADD SLT PUSH2 0x1FA JUMPI PUSH1 0x20 PUSH1 0x40 MLOAD PUSH3 0x15180 DUP2 MSTORE RETURN JUMPDEST POP CALLVALUE PUSH2 0x1FA JUMPI PUSH1 0x20 CALLDATASIZE PUSH1 0x3 NOT ADD SLT PUSH2 0x1FA JUMPI PUSH1 0x4 CALLDATALOAD PUSH1 0x1 PUSH1 0x1 PUSH1 0xA0 SHL SUB DUP2 AND SWAP1 DUP2 SWAP1 SUB PUSH2 0x1F8 JUMPI DUP2 MSTORE PUSH1 0x8 PUSH1 0x20 MSTORE PUSH1 0x40 DUP2 KECCAK256 DUP2 SWAP1 DUP3 SWAP1 DUP4 DUP1 SWAP2 DUP2 SWAP1 DUP1 SLOAD SWAP2 JUMPDEST DUP3 DUP2 LT PUSH2 0x653 JUMPI POP POP POP PUSH1 0x9 SLOAD SWAP5 DUP1 ISZERO PUSH1 0x0 EQ PUSH2 0x621 JUMPI POP DUP1 SWAP2 JUMPDEST DUP1 PUSH2 0x5FB JUMPI POP PUSH1 0xC0 SWAP5 PUSH1 0xFF DUP1 SWAP3 SWAP5 JUMPDEST DUP2 PUSH1 0x40 MLOAD SWAP8 AND DUP8 MSTORE DUP2 DUP4 AND PUSH1 0x20 DUP9 ADD MSTORE AND PUSH1 0x40 DUP7 ADD MSTORE PUSH1 0x8 SHR AND PUSH1 0x60 DUP5 ADD MSTORE PUSH1 0x80 DUP4 ADD MSTORE PUSH1 0xA0 DUP3 ADD MSTORE RETURN JUMPDEST SWAP1 PUSH3 0x278D00 DUP3 ADD DUP1 SWAP3 GT PUSH2 0x2C8 JUMPI POP PUSH1 0xC0 SWAP5 PUSH1 0xFF PUSH2 0x61B DUP2 SWAP4 TIMESTAMP SWAP1 PUSH2 0x27E2 JUMP JUMPDEST SWAP5 PUSH2 0x5D0 JUMP JUMPDEST PUSH3 0x93A80 DUP2 ADD DUP1 SWAP2 GT PUSH2 0x63F JUMPI PUSH2 0x639 SWAP1 TIMESTAMP SWAP1 PUSH2 0x27E2 JUMP JUMPDEST SWAP2 PUSH2 0x5C1 JUMP JUMPDEST PUSH4 0x4E487B71 PUSH1 0xE0 SHL DUP3 MSTORE PUSH1 0x11 PUSH1 0x4 MSTORE PUSH1 0x24 DUP3 REVERT JUMPDEST PUSH2 0x65D DUP2 DUP4 PUSH2 0x23FB JUMP JUMPDEST SWAP1 SLOAD SWAP1 PUSH1 0x3 SHL SHR PUSH3 0x278D00 DUP2 ADD DUP1 DUP3 GT PUSH2 0x6D9 JUMPI TIMESTAMP LT PUSH2 0x681 JUMPI JUMPDEST POP PUSH1 0x1 ADD PUSH2 0x5A6 JUMP JUMPDEST SWAP6 PUSH2 0x68B SWAP1 PUSH2 0x24F8 JUMP JUMPDEST SWAP6 DUP6 ISZERO DUP1 ISZERO PUSH2 0x6F5 JUMPI JUMPDEST PUSH2 0x6ED JUMPI JUMPDEST PUSH3 0x93A80 DUP2 ADD DUP1 DUP3 GT PUSH2 0x6D9 JUMPI TIMESTAMP LT ISZERO PUSH2 0x678 JUMPI SWAP7 PUSH2 0x6B8 SWAP1 PUSH2 0x24F8 JUMP JUMPDEST SWAP7 DUP9 ISZERO DUP1 ISZERO PUSH2 0x6D0 JUMPI JUMPDEST ISZERO PUSH2 0x678 JUMPI SWAP8 POP PUSH1 0x1 PUSH2 0x678 JUMP JUMPDEST POP DUP9 DUP2 LT PUSH2 0x6C2 JUMP JUMPDEST PUSH4 0x4E487B71 PUSH1 0xE0 SHL DUP7 MSTORE PUSH1 0x11 PUSH1 0x4 MSTORE PUSH1 0x24 DUP7 REVERT JUMPDEST SWAP5 POP DUP5 PUSH2 0x69A JUMP JUMPDEST POP DUP6 DUP2 LT PUSH2 0x695 JUMP JUMPDEST POP CALLVALUE PUSH2 0x1FA JUMPI PUSH1 0x20 CALLDATASIZE PUSH1 0x3 NOT ADD SLT PUSH2 0x1FA JUMPI PUSH1 0x4 CALLDATALOAD SWAP1 PUSH1 0x7 DUP3 LT ISZERO PUSH2 0x1FA JUMPI PUSH1 0x20 PUSH2 0x728 DUP4 PUSH2 0x2413 JUMP JUMPDEST SLOAD PUSH1 0x40 MLOAD SWAP1 DUP2 MSTORE RETURN JUMPDEST POP CALLVALUE PUSH2 0x1FA JUMPI PUSH1 0x20 CALLDATASIZE PUSH1 0x3 NOT ADD SLT PUSH2 0x1FA JUMPI PUSH1 0x4 CALLDATALOAD PUSH1 0x1 PUSH1 0x1 PUSH1 0xA0 SHL SUB DUP2 AND SWAP1 DUP2 SWAP1 SUB PUSH2 0x1F8 JUMPI CALLER DUP3 MSTORE PUSH1 0x4 PUSH1 0x20 MSTORE PUSH1 0xFF PUSH1 0x40 DUP4 KECCAK256 SLOAD AND PUSH1 0x8 DUP2 LT ISZERO PUSH2 0x951 JUMPI PUSH1 0x1 SUB PUSH2 0x91B JUMPI PUSH3 0x278CFF NOT TIMESTAMP ADD SWAP1 TIMESTAMP DUP3 GT PUSH2 0x907 JUMPI DUP1 DUP4 MSTORE PUSH1 0x8 PUSH1 0x20 MSTORE PUSH1 0x40 DUP4 KECCAK256 DUP1 SLOAD SWAP3 DUP5 JUMPDEST DUP5 DUP2 LT DUP1 PUSH2 0x8EE JUMPI JUMPDEST ISZERO PUSH2 0x7B4 JUMPI PUSH2 0x7AF SWAP1 PUSH2 0x24F8 JUMP JUMPDEST PUSH2 0x798 JUMP JUMPDEST DUP4 DUP4 DUP8 SWAP3 DUP1 PUSH2 0x83A JUMPI JUMPDEST POP DUP1 SLOAD SWAP1 PUSH1 0x1 PUSH1 0x40 SHL DUP3 LT ISZERO PUSH2 0x826 JUMPI DUP2 PUSH2 0x7E1 SWAP2 PUSH1 0x1 PUSH2 0x7F9 SWAP5 ADD DUP2 SSTORE PUSH2 0x23FB JUMP JUMPDEST TIMESTAMP SWAP1 DUP3 SLOAD SWAP1 PUSH1 0x3 SHL SWAP2 DUP3 SHL SWAP2 PUSH1 0x0 NOT SWAP1 SHL NOT AND OR SWAP1 SSTORE JUMP JUMPDEST PUSH32 0x498F5E6DCF570483A1848853791046A7F10012193176D71F959F46EB7713D744 PUSH1 0x20 PUSH1 0x40 MLOAD TIMESTAMP DUP2 MSTORE LOG2 DUP1 RETURN JUMPDEST PUSH4 0x4E487B71 PUSH1 0xE0 SHL DUP5 MSTORE PUSH1 0x41 PUSH1 0x4 MSTORE PUSH1 0x24 DUP5 REVERT JUMPDEST SWAP3 DUP1 JUMPDEST PUSH2 0x848 DUP6 DUP5 SLOAD PUSH2 0x27E2 JUMP JUMPDEST DUP2 LT ISZERO PUSH2 0x898 JUMPI DUP1 PUSH2 0x892 PUSH2 0x868 PUSH2 0x862 DUP9 PUSH1 0x1 SWAP6 PUSH2 0x27D5 JUMP JUMPDEST DUP7 PUSH2 0x23FB JUMP JUMPDEST SWAP1 SLOAD SWAP1 PUSH1 0x3 SHL SHR PUSH2 0x879 DUP4 DUP8 PUSH2 0x23FB JUMP JUMPDEST SWAP1 SWAP2 SWAP1 DUP3 SLOAD SWAP1 PUSH1 0x3 SHL SWAP2 DUP3 SHL SWAP2 PUSH1 0x0 NOT SWAP1 SHL NOT AND OR SWAP1 SSTORE JUMP JUMPDEST ADD PUSH2 0x83D JUMP JUMPDEST POP SWAP3 DUP4 JUMPDEST DUP2 DUP2 LT PUSH2 0x8A9 JUMPI POP PUSH2 0x7BE JUMP JUMPDEST DUP3 SLOAD DUP1 ISZERO PUSH2 0x8DA JUMPI PUSH1 0x1 SWAP2 SWAP1 PUSH1 0x0 NOT ADD PUSH2 0x8C3 DUP2 DUP7 PUSH2 0x23FB JUMP JUMPDEST DUP2 SLOAD SWAP1 PUSH1 0x0 NOT SWAP1 PUSH1 0x3 SHL SHL NOT AND SWAP1 SSTORE DUP5 SSTORE ADD PUSH2 0x89C JUMP JUMPDEST PUSH4 0x4E487B71 PUSH1 0xE0 SHL DUP7 MSTORE PUSH1 0x31 PUSH1 0x4 MSTORE PUSH1 0x24 DUP7 REVERT JUMPDEST POP DUP2 PUSH2 0x8FA DUP3 DUP6 PUSH2 0x23FB JUMP JUMPDEST SWAP1 SLOAD SWAP1 PUSH1 0x3 SHL SHR LT PUSH2 0x7A1 JUMP JUMPDEST PUSH4 0x4E487B71 PUSH1 0xE0 SHL DUP4 MSTORE PUSH1 0x11 PUSH1 0x4 MSTORE PUSH1 0x24 DUP4 REVERT JUMPDEST PUSH1 0x40 MLOAD PUSH3 0x461BCD PUSH1 0xE5 SHL DUP2 MSTORE PUSH1 0x20 PUSH1 0x4 DUP3 ADD MSTORE PUSH1 0xE PUSH1 0x24 DUP3 ADD MSTORE PUSH14 0x24B73B30B634B21031B0B63632B9 PUSH1 0x91 SHL PUSH1 0x44 DUP3 ADD MSTORE PUSH1 0x64 SWAP1 REVERT JUMPDEST PUSH4 0x4E487B71 PUSH1 0xE0 SHL DUP4 MSTORE PUSH1 0x21 PUSH1 0x4 MSTORE PUSH1 0x24 DUP4 REVERT JUMPDEST POP CALLVALUE PUSH2 0x1FA JUMPI DUP1 PUSH1 0x3 NOT CALLDATASIZE ADD SLT PUSH2 0x1FA JUMPI PUSH1 0x40 MLOAD PUSH32 0x0 PUSH1 0x1 PUSH1 0x1 PUSH1 0xA0 SHL SUB AND DUP2 MSTORE PUSH1 0x20 SWAP1 RETURN JUMPDEST POP CALLVALUE PUSH2 0x1FA JUMPI PUSH1 0x20 CALLDATASIZE PUSH1 0x3 NOT ADD SLT PUSH2 0x1FA JUMPI PUSH1 0x4 CALLDATALOAD PUSH1 0x1 PUSH1 0x1 PUSH1 0xA0 SHL SUB DUP2 AND SWAP1 DUP2 SWAP1 SUB PUSH2 0x1F8 JUMPI PUSH1 0x40 DUP3 PUSH1 0xFF SWAP3 PUSH1 0x20 SWAP5 MSTORE PUSH1 0x2 DUP5 MSTORE KECCAK256 SLOAD AND PUSH1 0x40 MLOAD SWAP1 ISZERO ISZERO DUP2 MSTORE RETURN JUMPDEST POP CALLVALUE PUSH2 0x1FA JUMPI DUP1 PUSH1 0x3 NOT CALLDATASIZE ADD SLT PUSH2 0x1FA JUMPI PUSH3 0x278CFF NOT TIMESTAMP ADD TIMESTAMP DUP2 GT PUSH2 0x63F JUMPI PUSH1 0x6 SLOAD DUP3 DUP4 JUMPDEST DUP3 DUP2 LT PUSH2 0xB99 JUMPI POP PUSH2 0xA22 SWAP1 PUSH2 0x2535 JUMP JUMPDEST SWAP2 DUP4 SWAP1 DUP5 JUMPDEST DUP4 DUP2 LT PUSH2 0xA44 JUMPI PUSH1 0x40 MLOAD PUSH1 0x20 DUP1 DUP3 MSTORE DUP2 SWAP1 PUSH2 0x1F4 SWAP1 DUP3 ADD DUP9 PUSH2 0x2380 JUMP JUMPDEST PUSH2 0xA4D DUP2 PUSH2 0x23CA JUMP JUMPDEST SWAP1 SLOAD PUSH1 0x3 SWAP2 SWAP1 SWAP2 SHL SHR PUSH1 0x1 PUSH1 0x1 PUSH1 0xA0 SHL SUB AND DUP7 MSTORE PUSH1 0x4 PUSH1 0x20 MSTORE PUSH1 0x40 DUP7 KECCAK256 SLOAD PUSH1 0xFF AND PUSH1 0x8 DUP2 LT ISZERO PUSH2 0xB85 JUMPI PUSH1 0x6 EQ SWAP1 DUP2 ISZERO PUSH2 0xB47 JUMPI JUMPDEST DUP2 PUSH2 0xAC6 JUMPI JUMPDEST PUSH1 0x1 SWAP2 PUSH2 0xA96 JUMPI JUMPDEST ADD PUSH2 0xA27 JUMP JUMPDEST PUSH2 0xA9F DUP2 PUSH2 0x23CA JUMP JUMPDEST DUP4 DUP1 PUSH1 0xA0 SHL SUB SWAP2 SLOAD SWAP1 PUSH1 0x3 SHL SHR AND PUSH2 0xAC0 PUSH2 0xAB9 DUP7 PUSH2 0x24F8 JUMP JUMPDEST SWAP6 DUP9 PUSH2 0x2567 JUMP JUMPDEST MSTORE PUSH2 0xA90 JUMP JUMPDEST PUSH1 0x4 SWAP2 POP DUP7 PUSH2 0xAD4 DUP3 PUSH2 0x23CA JUMP JUMPDEST SWAP1 SLOAD PUSH1 0x40 MLOAD PUSH4 0x1F385F79 PUSH1 0xE2 SHL DUP2 MSTORE SWAP5 DUP6 SWAP3 SWAP1 SWAP2 DUP4 SWAP2 PUSH1 0x3 SHL SHR PUSH1 0x1 PUSH1 0x1 PUSH1 0xA0 SHL SUB AND GAS STATICCALL DUP1 ISZERO PUSH2 0xB3C JUMPI PUSH2 0x100 DUP5 SWAP2 PUSH1 0x1 SWAP5 DUP11 SWAP2 PUSH2 0xB1A JUMPI JUMPDEST POP ADD MLOAD LT ISZERO SWAP2 POP PUSH2 0xA88 JUMP JUMPDEST PUSH2 0xB36 SWAP2 POP RETURNDATASIZE DUP1 DUP13 DUP4 RETURNDATACOPY PUSH2 0xB2E DUP2 DUP4 PUSH2 0x24D6 JUMP JUMPDEST DUP2 ADD SWAP1 PUSH2 0x2607 JUMP JUMPDEST CODESIZE PUSH2 0xB0E JUMP JUMPDEST PUSH1 0x40 MLOAD RETURNDATASIZE DUP10 DUP3 RETURNDATACOPY RETURNDATASIZE SWAP1 REVERT JUMPDEST SWAP1 POP PUSH2 0xB52 DUP2 PUSH2 0x23CA JUMP JUMPDEST SWAP1 SLOAD PUSH1 0x3 SWAP2 SWAP1 SWAP2 SHL SHR PUSH1 0x1 PUSH1 0x1 PUSH1 0xA0 SHL SUB AND DUP7 MSTORE PUSH1 0x4 PUSH1 0x20 MSTORE PUSH1 0x40 DUP7 KECCAK256 SLOAD PUSH1 0xFF AND PUSH1 0x8 DUP2 LT ISZERO PUSH2 0xB85 JUMPI PUSH1 0x7 EQ SWAP1 PUSH2 0xA82 JUMP JUMPDEST PUSH4 0x4E487B71 PUSH1 0xE0 SHL DUP8 MSTORE PUSH1 0x21 PUSH1 0x4 MSTORE PUSH1 0x24 DUP8 REVERT JUMPDEST PUSH2 0xBA2 DUP2 PUSH2 0x23CA JUMP JUMPDEST SWAP1 SLOAD PUSH1 0x3 SWAP2 SWAP1 SWAP2 SHL SHR PUSH1 0x1 PUSH1 0x1 PUSH1 0xA0 SHL SUB AND DUP6 MSTORE PUSH1 0x4 PUSH1 0x20 MSTORE PUSH1 0x40 DUP6 KECCAK256 SLOAD PUSH1 0xFF AND PUSH1 0x8 DUP2 LT ISZERO PUSH2 0xCAE JUMPI PUSH1 0x6 EQ DUP1 ISZERO PUSH2 0xC72 JUMPI JUMPDEST DUP1 PUSH2 0xBFD JUMPI JUMPDEST PUSH2 0xBE9 JUMPI JUMPDEST PUSH1 0x1 ADD PUSH2 0xA11 JUMP JUMPDEST SWAP1 PUSH2 0xBF5 PUSH1 0x1 SWAP2 PUSH2 0x24F8 JUMP JUMPDEST SWAP2 SWAP1 POP PUSH2 0xBE1 JUMP JUMPDEST POP PUSH1 0x4 DUP6 PUSH2 0xC0A DUP4 PUSH2 0x23CA JUMP JUMPDEST SWAP1 SLOAD PUSH1 0x40 MLOAD PUSH4 0x1F385F79 PUSH1 0xE2 SHL DUP2 MSTORE SWAP4 DUP5 SWAP3 SWAP1 SWAP2 DUP4 SWAP2 PUSH1 0x3 SHL SHR PUSH1 0x1 PUSH1 0x1 PUSH1 0xA0 SHL SUB AND GAS STATICCALL SWAP1 DUP2 ISZERO PUSH2 0xC67 JUMPI DUP6 SWAP2 PUSH2 0x100 SWAP2 DUP9 SWAP2 PUSH2 0xC4D JUMPI JUMPDEST POP ADD MLOAD LT ISZERO PUSH2 0xBDC JUMP JUMPDEST PUSH2 0xC61 SWAP2 POP RETURNDATASIZE DUP1 DUP11 DUP4 RETURNDATACOPY PUSH2 0xB2E DUP2 DUP4 PUSH2 0x24D6 JUMP JUMPDEST CODESIZE PUSH2 0xC43 JUMP JUMPDEST PUSH1 0x40 MLOAD RETURNDATASIZE DUP9 DUP3 RETURNDATACOPY RETURNDATASIZE SWAP1 REVERT JUMPDEST POP PUSH2 0xC7C DUP2 PUSH2 0x23CA JUMP JUMPDEST SWAP1 SLOAD PUSH1 0x3 SWAP2 SWAP1 SWAP2 SHL SHR PUSH1 0x1 PUSH1 0x1 PUSH1 0xA0 SHL SUB AND DUP6 MSTORE PUSH1 0x4 PUSH1 0x20 MSTORE PUSH1 0x40 DUP6 KECCAK256 SLOAD PUSH1 0xFF AND PUSH1 0x8 DUP2 LT ISZERO PUSH2 0xCAE JUMPI PUSH1 0x7 EQ PUSH2 0xBD6 JUMP JUMPDEST PUSH4 0x4E487B71 PUSH1 0xE0 SHL DUP7 MSTORE PUSH1 0x21 PUSH1 0x4 MSTORE PUSH1 0x24 DUP7 REVERT JUMPDEST POP CALLVALUE PUSH2 0x1FA JUMPI PUSH1 0x20 CALLDATASIZE PUSH1 0x3 NOT ADD SLT PUSH2 0x1FA JUMPI PUSH1 0x4 CALLDATALOAD PUSH1 0x1 PUSH1 0x1 PUSH1 0xA0 SHL SUB DUP2 AND SWAP1 DUP2 SWAP1 SUB PUSH2 0x1F8 JUMPI PUSH1 0x40 DUP3 PUSH1 0xFF SWAP3 PUSH1 0x20 SWAP5 MSTORE PUSH1 0x5 DUP5 MSTORE KECCAK256 SLOAD AND PUSH1 0x40 MLOAD SWAP1 ISZERO ISZERO DUP2 MSTORE RETURN JUMPDEST POP CALLVALUE PUSH2 0x1FA JUMPI PUSH1 0x40 CALLDATASIZE PUSH1 0x3 NOT ADD SLT PUSH2 0x1FA JUMPI PUSH1 0x4 CALLDATALOAD PUSH1 0x24 CALLDATALOAD PUSH1 0x7 DUP2 LT ISZERO PUSH2 0x250 JUMPI DUP2 ISZERO PUSH2 0xE4D JUMPI CALLER DUP4 MSTORE PUSH1 0x4 PUSH1 0x20 MSTORE PUSH1 0xFF PUSH1 0x40 DUP5 KECCAK256 SLOAD AND PUSH1 0x8 DUP2 LT ISZERO PUSH2 0xE39 JUMPI PUSH1 0x6 EQ DUP1 ISZERO PUSH2 0xE17 JUMPI JUMPDEST DUP4 SLOAD PUSH1 0x1 PUSH1 0x1 PUSH1 0xA0 SHL SUB AND CALLER EQ DUP1 ISZERO PUSH2 0xE01 JUMPI JUMPDEST DUP2 ISZERO PUSH2 0xDF9 JUMPI JUMPDEST POP ISZERO PUSH2 0xDB4 JUMPI PUSH2 0xD78 DUP2 PUSH2 0x2413 JUMP JUMPDEST PUSH2 0xD83 DUP4 DUP3 SLOAD PUSH2 0x27D5 JUMP JUMPDEST SWAP1 SSTORE PUSH1 0x40 MLOAD SWAP2 DUP3 MSTORE PUSH32 0x606617FD09D9890413E3C46147B844D4562351F86E0F7A5C60849BBF0EF02811 PUSH1 0x20 CALLER SWAP4 LOG3 DUP1 RETURN JUMPDEST PUSH1 0x40 MLOAD PUSH3 0x461BCD PUSH1 0xE5 SHL DUP2 MSTORE PUSH1 0x20 PUSH1 0x4 DUP3 ADD MSTORE PUSH1 0x1D PUSH1 0x24 DUP3 ADD MSTORE PUSH32 0x43616C6C6572206E6F742061206D697373696F6E206F722061646D696E000000 PUSH1 0x44 DUP3 ADD MSTORE PUSH1 0x64 SWAP1 REVERT JUMPDEST SWAP1 POP CODESIZE PUSH2 0xD69 JUMP JUMPDEST POP CALLER DUP5 MSTORE PUSH1 0x2 PUSH1 0x20 MSTORE PUSH1 0xFF PUSH1 0x40 DUP6 KECCAK256 SLOAD AND PUSH2 0xD62 JUMP JUMPDEST POP CALLER DUP4 MSTORE PUSH1 0x4 PUSH1 0x20 MSTORE PUSH1 0xFF PUSH1 0x40 DUP5 KECCAK256 SLOAD AND PUSH1 0x8 DUP2 LT ISZERO PUSH2 0xE39 JUMPI PUSH1 0x7 EQ PUSH2 0xD4E JUMP JUMPDEST PUSH4 0x4E487B71 PUSH1 0xE0 SHL DUP5 MSTORE PUSH1 0x21 PUSH1 0x4 MSTORE PUSH1 0x24 DUP5 REVERT JUMPDEST PUSH1 0x64 PUSH1 0x40 MLOAD PUSH3 0x461BCD PUSH1 0xE5 SHL DUP2 MSTORE PUSH1 0x20 PUSH1 0x4 DUP3 ADD MSTORE PUSH1 0x20 PUSH1 0x24 DUP3 ADD MSTORE PUSH32 0x416D6F756E74206D7573742062652067726561746572207468616E207A65726F PUSH1 0x44 DUP3 ADD MSTORE REVERT JUMPDEST POP PUSH2 0x120 CALLDATASIZE PUSH1 0x3 NOT ADD SLT PUSH2 0x1FA JUMPI PUSH1 0x4 CALLDATALOAD PUSH1 0x7 DUP2 LT ISZERO PUSH2 0x1F8 JUMPI PUSH1 0x24 CALLDATALOAD SWAP1 PUSH1 0x44 CALLDATALOAD SWAP2 PUSH1 0x64 CALLDATALOAD PUSH1 0x84 CALLDATALOAD PUSH1 0xFF DUP2 AND DUP1 SWAP2 SUB PUSH2 0x13A9 JUMPI PUSH1 0xA4 CALLDATALOAD PUSH1 0xFF DUP2 AND DUP1 SWAP2 SUB PUSH2 0x13A5 JUMPI PUSH1 0xC4 CALLDATALOAD SWAP1 PUSH1 0xE4 CALLDATALOAD SWAP3 PUSH2 0x104 CALLDATALOAD SWAP5 PUSH1 0xFF DUP7 AND DUP1 SWAP7 SUB PUSH2 0x13A1 JUMPI DUP10 SLOAD PUSH1 0x1 PUSH1 0x1 PUSH1 0xA0 SHL SUB AND CALLER EQ DUP1 ISZERO PUSH2 0x138B JUMPI JUMPDEST PUSH2 0xF07 SWAP1 PUSH2 0x242C JUMP JUMPDEST PUSH1 0x5 DUP7 LT PUSH2 0x132C JUMPI DUP6 DUP3 LT PUSH2 0x12C1 JUMPI DUP9 DUP8 LT ISZERO PUSH2 0x1270 JUMPI DUP9 DUP5 LT PUSH2 0x1212 JUMPI DUP4 DUP6 GT ISZERO PUSH2 0x11CE JUMPI DUP1 ISZERO PUSH2 0x1175 JUMPI PUSH32 0x0 PUSH1 0x88 DUP2 SWAP1 SHR PUSH3 0xFFFFFF AND PUSH23 0x3D602D80600A3D3981F3363D3D373D3D3D363D73000000 OR DUP12 MSTORE PUSH1 0x78 SHL PUSH15 0x5AF43D82803E903D91602B57FD5BF3 OR PUSH1 0x20 MSTORE PUSH1 0x1 PUSH1 0x1 PUSH1 0xA0 SHL SUB PUSH1 0x37 PUSH1 0x9 DUP13 CREATE AND SWAP9 DUP10 ISZERO PUSH2 0x1166 JUMPI DUP10 DUP12 MSTORE PUSH1 0x5 PUSH1 0x20 MSTORE PUSH1 0x40 DUP12 KECCAK256 PUSH1 0x1 PUSH1 0xFF NOT DUP3 SLOAD AND OR SWAP1 SSTORE DUP10 DUP12 MSTORE PUSH1 0x4 PUSH1 0x20 MSTORE PUSH1 0x40 DUP12 KECCAK256 PUSH1 0xFF NOT DUP2 SLOAD AND SWAP1 SSTORE PUSH1 0x1 DUP1 PUSH1 0xA0 SHL SUB DUP12 SLOAD AND SWAP8 DUP11 EXTCODESIZE ISZERO PUSH2 0x1162 JUMPI PUSH1 0x40 MLOAD SWAP9 PUSH4 0xC54168B3 PUSH1 0xE0 SHL DUP11 MSTORE PUSH1 0x4 DUP11 ADD MSTORE ADDRESS PUSH1 0x24 DUP11 ADD MSTORE PUSH2 0x1009 PUSH1 0x44 DUP11 ADD DUP12 PUSH2 0x23BD JUMP JUMPDEST PUSH1 0x64 DUP10 ADD MSTORE PUSH1 0x84 DUP9 ADD MSTORE PUSH1 0xA4 DUP8 ADD MSTORE PUSH1 0xC4 DUP7 ADD MSTORE PUSH1 0xE4 DUP6 ADD MSTORE PUSH2 0x104 DUP5 ADD MSTORE PUSH2 0x124 DUP4 ADD MSTORE PUSH2 0x144 DUP3 ADD MSTORE DUP4 DUP2 PUSH2 0x164 DUP2 CALLVALUE DUP8 GAS CALL DUP1 ISZERO PUSH2 0x1157 JUMPI PUSH2 0x1143 JUMPI JUMPDEST POP PUSH1 0x6 SLOAD PUSH1 0x1 PUSH1 0x40 SHL DUP2 LT ISZERO PUSH2 0x826 JUMPI DUP1 PUSH1 0x1 PUSH2 0x1069 SWAP3 ADD PUSH1 0x6 SSTORE PUSH2 0x23CA JUMP JUMPDEST DUP2 SLOAD PUSH1 0x1 PUSH1 0x1 PUSH1 0xA0 SHL SUB PUSH1 0x3 SWAP3 SWAP1 SWAP3 SHL SWAP2 DUP3 SHL NOT AND SWAP1 DUP5 SWAP1 SHL OR SWAP1 SSTORE DUP1 DUP3 PUSH32 0xAC1AC89285BF936F515AAFCF6808B3E062E77FD57F52C8892D20FC9409B8B53 DUP6 DUP1 LOG3 PUSH2 0x10B4 DUP2 PUSH2 0x2413 JUMP JUMPDEST SLOAD PUSH1 0x2 SHR SWAP1 DUP2 ISZERO ISZERO DUP1 PUSH2 0x1139 JUMPI JUMPDEST PUSH2 0x10D2 JUMPI JUMPDEST PUSH1 0x20 DUP4 PUSH1 0x40 MLOAD SWAP1 DUP2 MSTORE RETURN JUMPDEST PUSH2 0x10DB SWAP1 PUSH2 0x2413 JUMP JUMPDEST PUSH2 0x10E6 DUP3 DUP3 SLOAD PUSH2 0x27E2 JUMP JUMPDEST SWAP1 SSTORE DUP3 DUP3 EXTCODESIZE ISZERO PUSH2 0x1FA JUMPI PUSH1 0x40 MLOAD PUSH4 0xEB2BAB77 PUSH1 0xE0 SHL DUP2 MSTORE SWAP2 DUP3 SWAP1 PUSH1 0x4 SWAP1 DUP3 SWAP1 DUP7 GAS CALL DUP1 ISZERO PUSH2 0x112E JUMPI PUSH2 0x1119 JUMPI JUMPDEST DUP1 PUSH2 0x10C7 JUMP JUMPDEST PUSH2 0x1124 DUP4 DUP1 SWAP3 PUSH2 0x24D6 JUMP JUMPDEST PUSH2 0x1F8 JUMPI DUP2 PUSH2 0x1113 JUMP JUMPDEST PUSH1 0x40 MLOAD RETURNDATASIZE DUP6 DUP3 RETURNDATACOPY RETURNDATASIZE SWAP1 REVERT JUMPDEST POP DUP2 SELFBALANCE LT ISZERO PUSH2 0x10C2 JUMP JUMPDEST DUP4 PUSH2 0x1150 SWAP2 SWAP5 SWAP3 SWAP5 PUSH2 0x24D6 JUMP JUMPDEST SWAP2 CODESIZE PUSH2 0x1049 JUMP JUMPDEST PUSH1 0x40 MLOAD RETURNDATASIZE DUP7 DUP3 RETURNDATACOPY RETURNDATASIZE SWAP1 REVERT JUMPDEST DUP12 DUP1 REVERT JUMPDEST PUSH4 0xB06EBF3D PUSH1 0xE0 SHL DUP12 MSTORE PUSH1 0x4 DUP12 REVERT JUMPDEST PUSH1 0x40 MLOAD PUSH3 0x461BCD PUSH1 0xE5 SHL DUP2 MSTORE PUSH1 0x20 PUSH1 0x4 DUP3 ADD MSTORE PUSH1 0x2B PUSH1 0x24 DUP3 ADD MSTORE PUSH32 0x456E726F6C6C6D656E7420616D6F756E74206D75737420626520677265617465 PUSH1 0x44 DUP3 ADD MSTORE PUSH11 0x72207468616E207A65726F PUSH1 0xA8 SHL PUSH1 0x64 DUP3 ADD MSTORE PUSH1 0x84 SWAP1 REVERT JUMPDEST PUSH1 0x64 PUSH1 0x40 MLOAD PUSH3 0x461BCD PUSH1 0xE5 SHL DUP2 MSTORE PUSH1 0x20 PUSH1 0x4 DUP3 ADD MSTORE PUSH1 0x20 PUSH1 0x24 DUP3 ADD MSTORE PUSH32 0x4D697373696F6E207374617274206D757374206265206265666F726520656E64 PUSH1 0x44 DUP3 ADD MSTORE REVERT JUMPDEST PUSH1 0x40 MLOAD PUSH3 0x461BCD PUSH1 0xE5 SHL DUP2 MSTORE PUSH1 0x20 PUSH1 0x4 DUP3 ADD MSTORE PUSH1 0x30 PUSH1 0x24 DUP3 ADD MSTORE PUSH32 0x4D697373696F6E207374617274206D757374206265206F6E206F722061667465 PUSH1 0x44 DUP3 ADD MSTORE PUSH16 0x1C88195B9C9BDB1B1B595B9D08195B99 PUSH1 0x82 SHL PUSH1 0x64 DUP3 ADD MSTORE PUSH1 0x84 SWAP1 REVERT JUMPDEST PUSH1 0x40 MLOAD PUSH3 0x461BCD PUSH1 0xE5 SHL DUP2 MSTORE PUSH1 0x20 PUSH1 0x4 DUP3 ADD MSTORE PUSH1 0x23 PUSH1 0x24 DUP3 ADD MSTORE PUSH32 0x456E726F6C6C6D656E74207374617274206D757374206265206265666F726520 PUSH1 0x44 DUP3 ADD MSTORE PUSH3 0x195B99 PUSH1 0xEA SHL PUSH1 0x64 DUP3 ADD MSTORE PUSH1 0x84 SWAP1 REVERT JUMPDEST PUSH1 0x40 MLOAD PUSH3 0x461BCD PUSH1 0xE5 SHL DUP2 MSTORE PUSH1 0x20 PUSH1 0x4 DUP3 ADD MSTORE PUSH1 0x3F PUSH1 0x24 DUP3 ADD MSTORE PUSH32 0x4D696E696D756D20706C6179657273206D757374206265206772656174657220 PUSH1 0x44 DUP3 ADD MSTORE PUSH32 0x7468616E206F7220657175616C20746F206D697373696F6E20726F756E647300 PUSH1 0x64 DUP3 ADD MSTORE PUSH1 0x84 SWAP1 REVERT JUMPDEST PUSH1 0x40 MLOAD PUSH3 0x461BCD PUSH1 0xE5 SHL DUP2 MSTORE PUSH1 0x20 PUSH1 0x4 DUP3 ADD MSTORE PUSH1 0x31 PUSH1 0x24 DUP3 ADD MSTORE PUSH32 0x4D697373696F6E20726F756E6473206D75737420626520677265617465722074 PUSH1 0x44 DUP3 ADD MSTORE PUSH17 0x68616E206F7220657175616C20746F2035 PUSH1 0x78 SHL PUSH1 0x64 DUP3 ADD MSTORE PUSH1 0x84 SWAP1 REVERT JUMPDEST POP CALLER DUP11 MSTORE PUSH1 0x2 PUSH1 0x20 MSTORE PUSH1 0x40 DUP11 KECCAK256 SLOAD PUSH1 0xFF AND PUSH2 0xEFE JUMP JUMPDEST DUP10 DUP1 REVERT JUMPDEST DUP7 DUP1 REVERT JUMPDEST DUP6 DUP1 REVERT JUMPDEST POP CALLVALUE PUSH2 0x1FA JUMPI PUSH1 0x20 CALLDATASIZE PUSH1 0x3 NOT ADD SLT PUSH2 0x1FA JUMPI PUSH1 0x4 CALLDATALOAD PUSH1 0x1 PUSH1 0x1 PUSH1 0xA0 SHL SUB DUP2 AND DUP2 SUB PUSH2 0x1F8 JUMPI PUSH2 0x13DB SWAP1 PUSH2 0x2AC2 JUMP JUMPDEST PUSH1 0x40 MLOAD SWAP2 ISZERO ISZERO DUP3 MSTORE PUSH1 0x3 DUP2 LT ISZERO PUSH2 0x951 JUMPI PUSH1 0x40 SWAP3 POP PUSH1 0x20 DUP3 ADD MSTORE RETURN JUMPDEST POP CALLVALUE PUSH2 0x1FA JUMPI DUP1 PUSH1 0x3 NOT CALLDATASIZE ADD SLT PUSH2 0x1FA JUMPI SLOAD PUSH1 0x40 MLOAD PUSH1 0x1 PUSH1 0x1 PUSH1 0xA0 SHL SUB SWAP1 SWAP2 AND DUP2 MSTORE PUSH1 0x20 SWAP1 RETURN JUMPDEST POP CALLVALUE PUSH2 0x1FA JUMPI DUP1 PUSH1 0x3 NOT CALLDATASIZE ADD SLT PUSH2 0x1FA JUMPI PUSH1 0x20 PUSH1 0xFF PUSH1 0x9 SLOAD AND PUSH1 0x40 MLOAD SWAP1 DUP2 MSTORE RETURN JUMPDEST POP CALLVALUE PUSH2 0x1FA JUMPI PUSH1 0x20 CALLDATASIZE PUSH1 0x3 NOT ADD SLT PUSH2 0x1FA JUMPI PUSH1 0x6 SLOAD SWAP1 PUSH1 0x4 CALLDATALOAD DUP3 DUP2 GT PUSH2 0x14CB JUMPI JUMPDEST PUSH2 0x1469 DUP2 PUSH2 0x2535 JUMP JUMPDEST SWAP2 DUP1 PUSH1 0x0 NOT DUP6 ADD SWAP5 DUP6 GT SWAP1 JUMPDEST DUP4 DUP2 LT PUSH2 0x1492 JUMPI PUSH1 0x40 MLOAD PUSH1 0x20 DUP1 DUP3 MSTORE DUP2 SWAP1 PUSH2 0x1F4 SWAP1 DUP3 ADD DUP9 PUSH2 0x2380 JUMP JUMPDEST DUP2 PUSH2 0x907 JUMPI DUP1 PUSH2 0x14AC PUSH2 0x14A7 PUSH1 0x1 SWAP4 DUP10 PUSH2 0x27E2 JUMP JUMPDEST PUSH2 0x23CA JUMP JUMPDEST DUP4 DUP1 PUSH1 0xA0 SHL SUB SWAP2 SLOAD SWAP1 PUSH1 0x3 SHL SHR AND PUSH2 0x14C4 DUP3 DUP9 PUSH2 0x2567 JUMP JUMPDEST MSTORE ADD PUSH2 0x1475 JUMP JUMPDEST POP DUP2 PUSH2 0x1460 JUMP JUMPDEST POP CALLVALUE PUSH2 0x1FA JUMPI DUP1 PUSH1 0x3 NOT CALLDATASIZE ADD SLT PUSH2 0x1FA JUMPI PUSH2 0x14EB PUSH2 0x2C41 JUMP JUMPDEST DUP1 SLOAD PUSH1 0x1 PUSH1 0x1 PUSH1 0xA0 SHL SUB NOT DUP2 AND DUP3 SSTORE DUP2 SWAP1 PUSH1 0x1 PUSH1 0x1 PUSH1 0xA0 SHL SUB AND PUSH32 0x8BE0079C531659141344CD1FD0A4F28419497F9722A3DAAFE3B4186F6B6457E0 DUP3 DUP1 LOG3 DUP1 RETURN JUMPDEST POP CALLVALUE PUSH2 0x1FA JUMPI PUSH1 0x20 CALLDATASIZE PUSH1 0x3 NOT ADD SLT PUSH2 0x1FA JUMPI PUSH1 0x4 CALLDATALOAD PUSH1 0x1 PUSH1 0x1 PUSH1 0xA0 SHL SUB DUP2 AND SWAP1 DUP2 SWAP1 SUB PUSH2 0x1F8 JUMPI DUP2 SLOAD PUSH1 0x1 PUSH1 0x1 PUSH1 0xA0 SHL SUB AND CALLER EQ DUP1 ISZERO PUSH2 0x1601 JUMPI JUMPDEST PUSH2 0x1570 SWAP1 PUSH2 0x242C JUMP JUMPDEST PUSH2 0x157B DUP2 ISZERO ISZERO PUSH2 0x27EF JUMP JUMPDEST DUP1 DUP3 MSTORE PUSH1 0x2 PUSH1 0x20 MSTORE PUSH1 0xFF PUSH1 0x40 DUP4 KECCAK256 SLOAD AND ISZERO PUSH2 0x15CB JUMPI DUP1 DUP3 MSTORE PUSH1 0x2 PUSH1 0x20 MSTORE PUSH1 0x40 DUP3 KECCAK256 DUP1 SLOAD PUSH1 0xFF NOT AND SWAP1 SSTORE PUSH32 0x66D5F06F711AF3C9FEBA3203FDB00B51345D514C68585D9D319C5FF5E6F77592 DUP3 DUP1 LOG2 DUP1 RETURN JUMPDEST PUSH1 0x40 MLOAD PUSH3 0x461BCD PUSH1 0xE5 SHL DUP2 MSTORE PUSH1 0x20 PUSH1 0x4 DUP3 ADD MSTORE PUSH1 0xE PUSH1 0x24 DUP3 ADD MSTORE PUSH14 0x139BDD08185D5D1A1BDC9A5E9959 PUSH1 0x92 SHL PUSH1 0x44 DUP3 ADD MSTORE PUSH1 0x64 SWAP1 REVERT JUMPDEST POP CALLER DUP3 MSTORE PUSH1 0x2 PUSH1 0x20 MSTORE PUSH1 0x40 DUP3 KECCAK256 SLOAD PUSH1 0xFF AND PUSH2 0x1567 JUMP JUMPDEST POP CALLVALUE PUSH2 0x1FA JUMPI DUP1 PUSH1 0x3 NOT CALLDATASIZE ADD SLT PUSH2 0x1FA JUMPI PUSH2 0x164A SWAP1 PUSH2 0x1634 PUSH2 0x282D JUMP JUMPDEST SWAP1 SWAP2 PUSH1 0x40 MLOAD SWAP4 DUP5 SWAP4 PUSH1 0x40 DUP6 MSTORE PUSH1 0x40 DUP6 ADD SWAP1 PUSH2 0x2380 JUMP JUMPDEST DUP4 DUP2 SUB PUSH1 0x20 DUP6 ADD MSTORE PUSH1 0x20 DUP1 DUP5 MLOAD SWAP3 DUP4 DUP2 MSTORE ADD SWAP4 ADD SWAP2 JUMPDEST DUP2 DUP2 LT PUSH2 0x166E JUMPI POP POP POP SUB SWAP1 RETURN JUMPDEST SWAP2 SWAP4 POP SWAP2 PUSH1 0x20 DUP1 DUP3 PUSH2 0x1683 PUSH1 0x1 SWAP5 DUP9 MLOAD PUSH2 0x235D JUMP JUMPDEST ADD SWAP5 ADD SWAP2 ADD SWAP2 DUP5 SWAP4 SWAP3 PUSH2 0x1660 JUMP JUMPDEST POP CALLVALUE PUSH2 0x1FA JUMPI DUP1 PUSH1 0x3 NOT CALLDATASIZE ADD SLT PUSH2 0x1FA JUMPI PUSH1 0x6 SLOAD DUP2 DUP3 JUMPDEST DUP3 DUP2 LT PUSH2 0x1793 JUMPI POP PUSH2 0x16B9 SWAP1 PUSH2 0x2535 JUMP JUMPDEST SWAP1 DUP3 DUP4 JUMPDEST DUP3 DUP2 LT PUSH2 0x16DA JUMPI PUSH1 0x40 MLOAD PUSH1 0x20 DUP1 DUP3 MSTORE DUP2 SWAP1 PUSH2 0x1F4 SWAP1 DUP3 ADD DUP8 PUSH2 0x2380 JUMP JUMPDEST PUSH2 0x16E3 DUP2 PUSH2 0x23CA JUMP JUMPDEST SWAP1 SLOAD PUSH1 0x3 SWAP2 SWAP1 SWAP2 SHL SHR PUSH1 0x1 PUSH1 0x1 PUSH1 0xA0 SHL SUB AND DUP6 MSTORE PUSH1 0x4 PUSH1 0x20 MSTORE PUSH1 0x40 DUP6 KECCAK256 SLOAD PUSH1 0xFF AND PUSH1 0x8 DUP2 LT ISZERO PUSH2 0xCAE JUMPI PUSH1 0x6 EQ ISZERO DUP1 PUSH2 0x1756 JUMPI JUMPDEST SWAP1 PUSH1 0x1 SWAP2 PUSH2 0x1726 JUMPI JUMPDEST ADD PUSH2 0x16BD JUMP JUMPDEST PUSH2 0x172F DUP2 PUSH2 0x23CA JUMP JUMPDEST DUP4 DUP1 PUSH1 0xA0 SHL SUB SWAP2 SLOAD SWAP1 PUSH1 0x3 SHL SHR AND PUSH2 0x1750 PUSH2 0x1749 DUP6 PUSH2 0x24F8 JUMP JUMPDEST SWAP5 DUP8 PUSH2 0x2567 JUMP JUMPDEST MSTORE PUSH2 0x1720 JUMP JUMPDEST POP PUSH2 0x1760 DUP2 PUSH2 0x23CA JUMP JUMPDEST SWAP1 SLOAD PUSH1 0x3 SWAP2 SWAP1 SWAP2 SHL SHR PUSH1 0x1 PUSH1 0x1 PUSH1 0xA0 SHL SUB AND DUP6 MSTORE PUSH1 0x4 PUSH1 0x20 MSTORE PUSH1 0x40 DUP6 KECCAK256 SLOAD PUSH1 0xFF AND PUSH1 0x8 DUP2 LT ISZERO PUSH2 0xCAE JUMPI PUSH1 0x7 EQ ISZERO PUSH2 0x1717 JUMP JUMPDEST PUSH2 0x179C DUP2 PUSH2 0x23CA JUMP JUMPDEST SWAP1 SLOAD PUSH1 0x3 SWAP2 SWAP1 SWAP2 SHL SHR PUSH1 0x1 PUSH1 0x1 PUSH1 0xA0 SHL SUB AND DUP5 MSTORE PUSH1 0x4 PUSH1 0x20 MSTORE PUSH1 0x40 DUP5 KECCAK256 SLOAD PUSH1 0xFF AND PUSH1 0x8 DUP2 LT ISZERO PUSH2 0x182E JUMPI PUSH1 0x6 EQ ISZERO DUP1 PUSH2 0x17F1 JUMPI JUMPDEST PUSH2 0x17DD JUMPI JUMPDEST PUSH1 0x1 ADD PUSH2 0x16A8 JUMP JUMPDEST SWAP1 PUSH2 0x17E9 PUSH1 0x1 SWAP2 PUSH2 0x24F8 JUMP JUMPDEST SWAP2 SWAP1 POP PUSH2 0x17D5 JUMP JUMPDEST POP PUSH2 0x17FB DUP2 PUSH2 0x23CA JUMP JUMPDEST SWAP1 SLOAD PUSH1 0x3 SWAP2 SWAP1 SWAP2 SHL SHR PUSH1 0x1 PUSH1 0x1 PUSH1 0xA0 SHL SUB AND DUP5 MSTORE PUSH1 0x4 PUSH1 0x20 MSTORE PUSH1 0x40 DUP5 KECCAK256 SLOAD PUSH1 0xFF AND PUSH1 0x8 DUP2 LT ISZERO PUSH2 0x182E JUMPI PUSH1 0x7 EQ ISZERO PUSH2 0x17D0 JUMP JUMPDEST PUSH4 0x4E487B71 PUSH1 0xE0 SHL DUP6 MSTORE PUSH1 0x21 PUSH1 0x4 MSTORE PUSH1 0x24 DUP6 REVERT JUMPDEST POP CALLVALUE PUSH2 0x1FA JUMPI PUSH1 0x20 CALLDATASIZE PUSH1 0x3 NOT ADD SLT PUSH2 0x1FA JUMPI PUSH1 0x4 CALLDATALOAD PUSH1 0x1 PUSH1 0x1 PUSH1 0xA0 SHL SUB DUP2 AND SWAP1 DUP2 SWAP1 SUB PUSH2 0x1F8 JUMPI DUP2 SLOAD PUSH1 0x1 PUSH1 0x1 PUSH1 0xA0 SHL SUB AND CALLER EQ DUP1 ISZERO PUSH2 0x191D JUMPI JUMPDEST PUSH2 0x1886 SWAP1 PUSH2 0x242C JUMP JUMPDEST PUSH2 0x1891 DUP2 ISZERO ISZERO PUSH2 0x27EF JUMP JUMPDEST DUP1 DUP3 MSTORE PUSH1 0x2 PUSH1 0x20 MSTORE PUSH1 0xFF PUSH1 0x40 DUP4 KECCAK256 SLOAD AND PUSH2 0x18E3 JUMPI DUP1 DUP3 MSTORE PUSH1 0x2 PUSH1 0x20 MSTORE PUSH1 0x40 DUP3 KECCAK256 DUP1 SLOAD PUSH1 0xFF NOT AND PUSH1 0x1 OR SWAP1 SSTORE PUSH32 0x10AC961F00D5E732BA4DCC2C6FB09BEBEA0EB9EDD2A75C8109775EF288382E67 DUP3 DUP1 LOG2 DUP1 RETURN JUMPDEST PUSH1 0x40 MLOAD PUSH3 0x461BCD PUSH1 0xE5 SHL DUP2 MSTORE PUSH1 0x20 PUSH1 0x4 DUP3 ADD MSTORE PUSH1 0x12 PUSH1 0x24 DUP3 ADD MSTORE PUSH18 0x105B1C9958591E48185D5D1A1BDC9A5E9959 PUSH1 0x72 SHL PUSH1 0x44 DUP3 ADD MSTORE PUSH1 0x64 SWAP1 REVERT JUMPDEST POP CALLER DUP3 MSTORE PUSH1 0x2 PUSH1 0x20 MSTORE PUSH1 0x40 DUP3 KECCAK256 SLOAD PUSH1 0xFF AND PUSH2 0x187D JUMP JUMPDEST POP CALLVALUE PUSH2 0x1FA JUMPI PUSH1 0x20 CALLDATASIZE PUSH1 0x3 NOT ADD SLT PUSH2 0x1FA JUMPI PUSH1 0x4 CALLDATALOAD PUSH1 0x1 PUSH1 0x1 PUSH1 0xA0 SHL SUB DUP2 AND DUP1 DUP3 SUB PUSH2 0x250 JUMPI DUP3 SLOAD PUSH1 0x1 PUSH1 0x1 PUSH1 0xA0 SHL SUB AND CALLER EQ DUP1 ISZERO PUSH2 0x1B30 JUMPI JUMPDEST PUSH2 0x1976 SWAP1 PUSH2 0x242C JUMP JUMPDEST DUP1 DUP4 MSTORE PUSH1 0x7 PUSH1 0x20 MSTORE PUSH1 0x40 DUP4 KECCAK256 PUSH1 0x40 MLOAD PUSH2 0x198E DUP2 PUSH2 0x24BA JUMP JUMPDEST DUP2 SLOAD PUSH1 0x1 PUSH1 0x1 PUSH1 0xA0 SHL SUB AND DUP1 DUP3 MSTORE PUSH1 0x1 SWAP1 SWAP3 ADD SLOAD PUSH1 0x20 DUP3 ADD SWAP1 DUP2 MSTORE SWAP2 ISZERO PUSH2 0x1AEB JUMPI MLOAD PUSH1 0x1 PUSH1 0x1 PUSH1 0xA0 SHL SUB AND CALLER EQ PUSH2 0x1AA7 JUMPI MLOAD PUSH3 0x15180 DUP2 ADD DUP1 SWAP2 GT PUSH2 0x1A93 JUMPI TIMESTAMP GT PUSH2 0x1A5B JUMPI PUSH2 0x19DB PUSH2 0x2C41 JUMP JUMPDEST DUP1 ISZERO PUSH2 0x1A47 JUMPI PUSH2 0x19EA DUP3 PUSH2 0x2C6A JUMP JUMPDEST DUP3 MSTORE PUSH1 0x7 PUSH1 0x20 SWAP1 DUP2 MSTORE PUSH1 0x40 DUP1 DUP5 KECCAK256 DUP5 DUP2 SSTORE PUSH1 0x1 ADD DUP5 SWAP1 SSTORE DUP1 MLOAD PUSH1 0x1 PUSH1 0x1 PUSH1 0xA0 SHL SUB SWAP1 SWAP4 AND DUP4 MSTORE TIMESTAMP SWAP2 DUP4 ADD SWAP2 SWAP1 SWAP2 MSTORE CALLER SWAP2 PUSH32 0xDD72DD33198968A9CDC9B1E5CBFF344FB8D04D99F8C15C0A02416B04E857B467 SWAP2 DUP2 SWAP1 DUP2 ADD JUMPDEST SUB SWAP1 LOG2 DUP1 RETURN JUMPDEST PUSH4 0x1E4FBDF7 PUSH1 0xE0 SHL DUP4 MSTORE PUSH1 0x4 DUP4 SWAP1 MSTORE PUSH1 0x24 DUP4 REVERT JUMPDEST PUSH1 0x40 MLOAD PUSH3 0x461BCD PUSH1 0xE5 SHL DUP2 MSTORE PUSH1 0x20 PUSH1 0x4 DUP3 ADD MSTORE PUSH1 0x10 PUSH1 0x24 DUP3 ADD MSTORE PUSH16 0x141C9BDC1BDCD85B08195E1C1A5C9959 PUSH1 0x82 SHL PUSH1 0x44 DUP3 ADD MSTORE PUSH1 0x64 SWAP1 REVERT JUMPDEST PUSH4 0x4E487B71 PUSH1 0xE0 SHL DUP5 MSTORE PUSH1 0x11 PUSH1 0x4 MSTORE PUSH1 0x24 DUP5 REVERT JUMPDEST PUSH1 0x64 PUSH1 0x40 MLOAD PUSH3 0x461BCD PUSH1 0xE5 SHL DUP2 MSTORE PUSH1 0x20 PUSH1 0x4 DUP3 ADD MSTORE PUSH1 0x20 PUSH1 0x24 DUP3 ADD MSTORE PUSH32 0x43616E6E6F7420636F6E6669726D20796F7572206F776E2070726F706F73616C PUSH1 0x44 DUP3 ADD MSTORE REVERT JUMPDEST PUSH1 0x40 MLOAD PUSH3 0x461BCD PUSH1 0xE5 SHL DUP2 MSTORE PUSH1 0x20 PUSH1 0x4 DUP3 ADD MSTORE PUSH1 0x1A PUSH1 0x24 DUP3 ADD MSTORE PUSH32 0x4E6F2070726F706F73616C20666F722074686973206F776E6572000000000000 PUSH1 0x44 DUP3 ADD MSTORE PUSH1 0x64 SWAP1 REVERT JUMPDEST POP CALLER DUP4 MSTORE PUSH1 0x2 PUSH1 0x20 MSTORE PUSH1 0x40 DUP4 KECCAK256 SLOAD PUSH1 0xFF AND PUSH2 0x196D JUMP JUMPDEST POP CALLVALUE PUSH2 0x1FA JUMPI PUSH1 0x20 CALLDATASIZE PUSH1 0x3 NOT ADD SLT PUSH2 0x1FA JUMPI PUSH1 0x4 CALLDATALOAD PUSH1 0x1 PUSH1 0x1 PUSH1 0xA0 SHL SUB DUP2 AND SWAP1 DUP2 SWAP1 SUB PUSH2 0x1F8 JUMPI DUP2 MSTORE PUSH1 0x8 PUSH1 0x20 MSTORE PUSH1 0x40 DUP2 KECCAK256 DUP1 SLOAD DUP3 SWAP2 DUP3 JUMPDEST DUP3 DUP2 LT PUSH2 0x1BB4 JUMPI POP POP POP DUP2 PUSH2 0x1B99 JUMPI PUSH1 0x20 SWAP2 POP PUSH1 0x40 MLOAD SWAP1 DUP2 MSTORE RETURN JUMPDEST PUSH3 0x278D00 DUP3 ADD DUP1 SWAP3 GT PUSH2 0x2C8 JUMPI POP PUSH2 0x2C3 PUSH1 0x20 SWAP2 TIMESTAMP SWAP1 PUSH2 0x27E2 JUMP JUMPDEST PUSH2 0x1BBE DUP2 DUP4 PUSH2 0x23FB JUMP JUMPDEST SWAP1 SLOAD SWAP1 PUSH1 0x3 SHL SHR PUSH3 0x278D00 DUP2 ADD DUP1 SWAP2 GT PUSH2 0x34D JUMPI TIMESTAMP LT PUSH2 0x1BE1 JUMPI JUMPDEST PUSH1 0x1 ADD PUSH2 0x1B7E JUMP JUMPDEST DUP5 ISZERO DUP1 ISZERO PUSH2 0x1C0C JUMPI JUMPDEST ISZERO PUSH2 0x1BD9 JUMPI SWAP4 POP PUSH1 0x1 PUSH2 0x1BFD DUP6 DUP4 PUSH2 0x23FB JUMP JUMPDEST SWAP1 SLOAD SWAP1 PUSH1 0x3 SHL SHR SWAP5 SWAP1 POP PUSH2 0x1BD9 JUMP JUMPDEST POP DUP5 PUSH2 0x1C18 DUP3 DUP5 PUSH2 0x23FB JUMP JUMPDEST SWAP1 SLOAD SWAP1 PUSH1 0x3 SHL SHR LT PUSH2 0x1BEA JUMP JUMPDEST POP CALLVALUE PUSH2 0x1FA JUMPI PUSH1 0x20 CALLDATASIZE PUSH1 0x3 NOT ADD SLT PUSH2 0x1FA JUMPI PUSH1 0x4 CALLDATALOAD SWAP1 PUSH1 0x6 SLOAD DUP3 LT ISZERO PUSH2 0x1FA JUMPI PUSH1 0x20 PUSH2 0x1C50 DUP4 PUSH2 0x23CA JUMP JUMPDEST SWAP1 SLOAD PUSH1 0x40 MLOAD PUSH1 0x3 SWAP3 SWAP1 SWAP3 SHL SHR PUSH1 0x1 PUSH1 0x1 PUSH1 0xA0 SHL SUB AND DUP2 MSTORE RETURN JUMPDEST POP CALLVALUE PUSH2 0x1FA JUMPI PUSH1 0x20 CALLDATASIZE PUSH1 0x3 NOT ADD SLT PUSH2 0x1FA JUMPI PUSH1 0x4 CALLDATALOAD PUSH1 0x1 PUSH1 0x1 PUSH1 0xA0 SHL SUB DUP2 AND DUP1 DUP3 SUB PUSH2 0x250 JUMPI DUP3 SLOAD PUSH1 0x1 PUSH1 0x1 PUSH1 0xA0 SHL SUB AND CALLER EQ DUP1 ISZERO PUSH2 0x1D7B JUMPI JUMPDEST PUSH2 0x1CAC SWAP1 PUSH2 0x242C JUMP JUMPDEST DUP1 ISZERO PUSH2 0x1D42 JUMPI PUSH1 0x1 PUSH1 0x40 MLOAD SWAP2 PUSH2 0x1CC1 DUP4 PUSH2 0x24BA JUMP JUMPDEST CALLER DUP4 MSTORE PUSH1 0x20 DUP4 ADD SWAP1 TIMESTAMP DUP3 MSTORE DUP6 MSTORE PUSH1 0x7 PUSH1 0x20 MSTORE PUSH1 0x40 DUP6 KECCAK256 SWAP3 DUP3 DUP1 PUSH1 0xA0 SHL SUB SWAP1 MLOAD AND PUSH12 0xFFFFFFFFFFFFFFFFFFFFFFFF PUSH1 0xA0 SHL DUP5 SLOAD AND OR DUP4 SSTORE MLOAD SWAP2 ADD SSTORE PUSH32 0xC29BDBD554E41DF97E5C40FC273A09677AC133C245F0064BDFFEF5CC72176E19 PUSH1 0x40 MLOAD DUP1 PUSH2 0x1A41 CALLER SWAP5 TIMESTAMP SWAP1 DUP4 PUSH1 0x20 SWAP1 SWAP4 SWAP3 SWAP2 SWAP4 PUSH1 0x40 DUP2 ADD SWAP5 PUSH1 0x1 DUP1 PUSH1 0xA0 SHL SUB AND DUP2 MSTORE ADD MSTORE JUMP JUMPDEST PUSH1 0x40 MLOAD PUSH3 0x461BCD PUSH1 0xE5 SHL DUP2 MSTORE PUSH1 0x20 PUSH1 0x4 DUP3 ADD MSTORE PUSH1 0x11 PUSH1 0x24 DUP3 ADD MSTORE PUSH17 0x24B73B30B634B2103732BB9037BBB732B9 PUSH1 0x79 SHL PUSH1 0x44 DUP3 ADD MSTORE PUSH1 0x64 SWAP1 REVERT JUMPDEST POP CALLER DUP4 MSTORE PUSH1 0x2 PUSH1 0x20 MSTORE PUSH1 0x40 DUP4 KECCAK256 SLOAD PUSH1 0xFF AND PUSH2 0x1CA3 JUMP JUMPDEST POP CALLVALUE PUSH2 0x1FA JUMPI PUSH1 0x20 CALLDATASIZE PUSH1 0x3 NOT ADD SLT PUSH2 0x1FA JUMPI PUSH1 0x4 CALLDATALOAD PUSH1 0x1 PUSH1 0x1 PUSH1 0xA0 SHL SUB DUP2 AND SWAP1 DUP2 SWAP1 SUB PUSH2 0x1F8 JUMPI PUSH1 0x60 PUSH2 0x1E0 PUSH1 0x40 MLOAD PUSH2 0x1DC9 DUP2 PUSH2 0x2487 JUMP JUMPDEST DUP3 DUP2 MSTORE DUP5 PUSH1 0x20 DUP3 ADD MSTORE DUP5 PUSH1 0x40 DUP3 ADD MSTORE DUP5 DUP4 DUP3 ADD MSTORE DUP5 PUSH1 0x80 DUP3 ADD MSTORE DUP5 PUSH1 0xA0 DUP3 ADD MSTORE DUP5 PUSH1 0xC0 DUP3 ADD MSTORE DUP5 PUSH1 0xE0 DUP3 ADD MSTORE DUP5 PUSH2 0x100 DUP3 ADD MSTORE DUP5 PUSH2 0x120 DUP3 ADD MSTORE DUP5 PUSH2 0x140 DUP3 ADD MSTORE DUP5 PUSH2 0x160 DUP3 ADD MSTORE DUP5 PUSH2 0x180 DUP3 ADD MSTORE DUP3 PUSH2 0x1A0 DUP3 ADD MSTORE DUP5 PUSH2 0x1C0 DUP3 ADD MSTORE ADD MSTORE DUP1 ISZERO PUSH2 0x1FAD JUMPI DUP2 PUSH1 0x4 SWAP2 PUSH1 0x40 MLOAD SWAP3 DUP4 DUP1 SWAP3 PUSH4 0x1F385F79 PUSH1 0xE2 SHL DUP3 MSTORE GAS STATICCALL SWAP1 DUP2 ISZERO PUSH2 0x1FA2 JUMPI DUP3 SWAP2 PUSH2 0x1F88 JUMPI JUMPDEST POP PUSH1 0x40 MLOAD SWAP1 PUSH1 0x20 DUP3 MSTORE PUSH2 0x1E74 DUP2 MLOAD PUSH2 0x200 PUSH1 0x20 DUP6 ADD MSTORE PUSH2 0x220 DUP5 ADD SWAP1 PUSH2 0x2380 JUMP JUMPDEST SWAP3 PUSH2 0x1E87 PUSH1 0x20 DUP4 ADD MLOAD PUSH1 0x40 DUP6 ADD SWAP1 PUSH2 0x23BD JUMP JUMPDEST PUSH1 0x40 DUP3 ADD MLOAD PUSH1 0x60 DUP5 ADD MSTORE PUSH1 0x60 DUP3 ADD MLOAD PUSH1 0x80 DUP5 ADD MSTORE PUSH1 0x80 DUP3 ADD MLOAD PUSH1 0xA0 DUP5 ADD MSTORE PUSH1 0xFF PUSH1 0xA0 DUP4 ADD MLOAD AND PUSH1 0xC0 DUP5 ADD MSTORE PUSH1 0xFF PUSH1 0xC0 DUP4 ADD MLOAD AND PUSH1 0xE0 DUP5 ADD MSTORE PUSH1 0xE0 DUP3 ADD MLOAD PUSH2 0x100 DUP5 ADD MSTORE PUSH2 0x100 DUP3 ADD MLOAD PUSH2 0x120 DUP5 ADD MSTORE PUSH1 0xFF PUSH2 0x120 DUP4 ADD MLOAD AND PUSH2 0x140 DUP5 ADD MSTORE PUSH1 0xFF PUSH2 0x140 DUP4 ADD MLOAD AND PUSH2 0x160 DUP5 ADD MSTORE PUSH2 0x160 DUP3 ADD MLOAD PUSH2 0x180 DUP5 ADD MSTORE PUSH2 0x180 DUP3 ADD MLOAD PUSH2 0x1A0 DUP5 ADD MSTORE PUSH2 0x1A0 DUP3 ADD MLOAD SWAP4 PUSH1 0x1F NOT DUP5 DUP3 SUB ADD PUSH2 0x1C0 DUP6 ADD MSTORE PUSH1 0x20 DUP1 DUP7 MLOAD SWAP3 DUP4 DUP2 MSTORE ADD SWAP6 ADD SWAP2 JUMPDEST DUP2 DUP2 LT PUSH2 0x1F5D JUMPI DUP5 DUP1 PUSH2 0x1F4 DUP9 PUSH2 0x1E0 DUP9 PUSH2 0x1C0 DUP2 ADD MLOAD DUP3 DUP7 ADD MSTORE ADD MLOAD PUSH1 0x1F NOT DUP5 DUP4 SUB ADD PUSH2 0x200 DUP6 ADD MSTORE PUSH2 0x2380 JUMP JUMPDEST DUP3 MLOAD DUP1 MLOAD PUSH1 0x1 PUSH1 0x1 PUSH1 0xA0 SHL SUB AND DUP8 MSTORE PUSH1 0x20 SWAP1 DUP2 ADD MLOAD DUP2 DUP9 ADD MSTORE PUSH1 0x40 SWAP1 SWAP7 ADD SWAP6 SWAP1 SWAP3 ADD SWAP2 PUSH1 0x1 ADD PUSH2 0x1F2E JUMP JUMPDEST PUSH2 0x1F9C SWAP2 POP RETURNDATASIZE DUP1 DUP5 DUP4 RETURNDATACOPY PUSH2 0xB2E DUP2 DUP4 PUSH2 0x24D6 JUMP JUMPDEST CODESIZE PUSH2 0x1E53 JUMP JUMPDEST PUSH1 0x40 MLOAD RETURNDATASIZE DUP5 DUP3 RETURNDATACOPY RETURNDATASIZE SWAP1 REVERT JUMPDEST PUSH1 0x40 MLOAD PUSH3 0x461BCD PUSH1 0xE5 SHL DUP2 MSTORE PUSH1 0x20 PUSH1 0x4 DUP3 ADD MSTORE PUSH1 0x17 PUSH1 0x24 DUP3 ADD MSTORE PUSH32 0x496E76616C6964206D697373696F6E2061646472657373000000000000000000 PUSH1 0x44 DUP3 ADD MSTORE PUSH1 0x64 SWAP1 REVERT JUMPDEST POP CALLVALUE PUSH2 0x1FA JUMPI PUSH1 0x20 CALLDATASIZE PUSH1 0x3 NOT ADD SLT PUSH2 0x1FA JUMPI PUSH1 0x4 CALLDATALOAD PUSH1 0x8 DUP2 LT ISZERO DUP1 PUSH2 0x250 JUMPI PUSH1 0x6 SLOAD SWAP1 DUP4 DUP5 JUMPDEST DUP4 DUP2 LT PUSH2 0x20D8 JUMPI POP PUSH2 0x2029 SWAP1 PUSH2 0x2535 JUMP JUMPDEST SWAP3 DUP5 SWAP2 DUP6 JUMPDEST DUP5 DUP2 LT PUSH2 0x204B JUMPI PUSH1 0x40 MLOAD PUSH1 0x20 DUP1 DUP3 MSTORE DUP2 SWAP1 PUSH2 0x1F4 SWAP1 DUP3 ADD DUP10 PUSH2 0x2380 JUMP JUMPDEST PUSH2 0x2054 DUP2 PUSH2 0x23CA JUMP JUMPDEST SWAP1 SLOAD PUSH1 0x3 SWAP2 SWAP1 SWAP2 SHL SHR PUSH1 0x1 PUSH1 0x1 PUSH1 0xA0 SHL SUB AND DUP8 MSTORE PUSH1 0x4 PUSH1 0x20 MSTORE PUSH1 0x40 DUP8 KECCAK256 SLOAD PUSH1 0xFF AND DUP3 PUSH2 0x20C4 JUMPI PUSH1 0x8 DUP2 LT ISZERO PUSH2 0x20C4 JUMPI SWAP1 DUP4 PUSH1 0x1 SWAP3 EQ PUSH2 0x2094 JUMPI JUMPDEST ADD PUSH2 0x202E JUMP JUMPDEST PUSH2 0x209D DUP2 PUSH2 0x23CA JUMP JUMPDEST DUP4 DUP1 PUSH1 0xA0 SHL SUB SWAP2 SLOAD SWAP1 PUSH1 0x3 SHL SHR AND PUSH2 0x20BE PUSH2 0x20B7 DUP8 PUSH2 0x24F8 JUMP JUMPDEST SWAP7 DUP10 PUSH2 0x2567 JUMP JUMPDEST MSTORE PUSH2 0x208E JUMP JUMPDEST PUSH4 0x4E487B71 PUSH1 0xE0 SHL DUP9 MSTORE PUSH1 0x21 PUSH1 0x4 MSTORE PUSH1 0x24 DUP9 REVERT JUMPDEST PUSH2 0x20E1 DUP2 PUSH2 0x23CA JUMP JUMPDEST SWAP1 SLOAD PUSH1 0x3 SWAP2 SWAP1 SWAP2 SHL SHR PUSH1 0x1 PUSH1 0x1 PUSH1 0xA0 SHL SUB AND DUP7 MSTORE PUSH1 0x4 PUSH1 0x20 MSTORE PUSH1 0x40 DUP7 KECCAK256 SLOAD PUSH1 0xFF AND DUP4 PUSH2 0xB85 JUMPI PUSH1 0x8 DUP2 LT ISZERO PUSH2 0xB85 JUMPI DUP6 EQ PUSH2 0x211F JUMPI JUMPDEST PUSH1 0x1 ADD PUSH2 0x2018 JUMP JUMPDEST SWAP1 PUSH2 0x212B PUSH1 0x1 SWAP2 PUSH2 0x24F8 JUMP JUMPDEST SWAP2 SWAP1 POP PUSH2 0x2117 JUMP JUMPDEST POP CALLVALUE PUSH2 0x1FA JUMPI PUSH1 0x20 CALLDATASIZE PUSH1 0x3 NOT ADD SLT PUSH2 0x1FA JUMPI DUP1 SLOAD PUSH1 0x1 PUSH1 0x1 PUSH1 0xA0 SHL SUB AND PUSH1 0x4 CALLDATALOAD CALLER DUP3 EQ DUP1 ISZERO PUSH2 0x22DF JUMPI JUMPDEST PUSH2 0x2166 SWAP1 PUSH2 0x242C JUMP JUMPDEST PUSH1 0x2 PUSH1 0x1 SLOAD EQ PUSH2 0x22D0 JUMPI PUSH1 0x2 PUSH1 0x1 SSTORE DUP1 DUP3 ISZERO PUSH2 0x2293 JUMPI ISZERO PUSH2 0x228C JUMPI JUMPDEST SELFBALANCE DUP2 GT PUSH2 0x2250 JUMPI DUP3 DUP1 DUP1 DUP1 DUP5 DUP7 GAS CALL RETURNDATASIZE ISZERO PUSH2 0x224B JUMPI RETURNDATASIZE PUSH8 0xFFFFFFFFFFFFFFFF DUP2 GT PUSH2 0x2237 JUMPI PUSH1 0x40 MLOAD SWAP1 PUSH2 0x21BF PUSH1 0x1F DUP3 ADD PUSH1 0x1F NOT AND PUSH1 0x20 ADD DUP4 PUSH2 0x24D6 JUMP JUMPDEST DUP2 MSTORE DUP5 PUSH1 0x20 RETURNDATASIZE SWAP3 ADD RETURNDATACOPY JUMPDEST ISZERO PUSH2 0x2200 JUMPI PUSH1 0x20 PUSH32 0xEAFF4B37086828766AD3268786972C0CD24259D4C87A80F9D3963A3C3D999B0D SWAP2 PUSH1 0x40 MLOAD SWAP1 DUP2 MSTORE LOG2 PUSH1 0x1 DUP1 SSTORE DUP1 RETURN JUMPDEST PUSH1 0x40 MLOAD PUSH3 0x461BCD PUSH1 0xE5 SHL DUP2 MSTORE PUSH1 0x20 PUSH1 0x4 DUP3 ADD MSTORE PUSH1 0xF PUSH1 0x24 DUP3 ADD MSTORE PUSH15 0x151C985B9CD9995C8819985A5B1959 PUSH1 0x8A SHL PUSH1 0x44 DUP3 ADD MSTORE PUSH1 0x64 SWAP1 REVERT JUMPDEST PUSH4 0x4E487B71 PUSH1 0xE0 SHL DUP6 MSTORE PUSH1 0x41 PUSH1 0x4 MSTORE PUSH1 0x24 DUP6 REVERT JUMPDEST PUSH2 0x21C9 JUMP JUMPDEST PUSH1 0x40 MLOAD PUSH3 0x461BCD PUSH1 0xE5 SHL DUP2 MSTORE PUSH1 0x20 PUSH1 0x4 DUP3 ADD MSTORE PUSH1 0x14 PUSH1 0x24 DUP3 ADD MSTORE PUSH20 0x496E73756666696369656E742062616C616E6365 PUSH1 0x60 SHL PUSH1 0x44 DUP3 ADD MSTORE PUSH1 0x64 SWAP1 REVERT JUMPDEST POP SELFBALANCE PUSH2 0x2182 JUMP JUMPDEST PUSH1 0x40 MLOAD PUSH3 0x461BCD PUSH1 0xE5 SHL DUP2 MSTORE PUSH1 0x20 PUSH1 0x4 DUP3 ADD MSTORE PUSH1 0x15 PUSH1 0x24 DUP3 ADD MSTORE PUSH21 0x24B73B30B634B21036B0B730B3B2B91037BBB732B9 PUSH1 0x59 SHL PUSH1 0x44 DUP3 ADD MSTORE PUSH1 0x64 SWAP1 REVERT JUMPDEST PUSH4 0x3EE5AEB5 PUSH1 0xE0 SHL DUP4 MSTORE PUSH1 0x4 DUP4 REVERT JUMPDEST POP CALLER DUP4 MSTORE PUSH1 0x2 PUSH1 0x20 MSTORE PUSH1 0x40 DUP4 KECCAK256 SLOAD PUSH1 0xFF AND PUSH2 0x215D JUMP JUMPDEST POP CALLVALUE PUSH2 0x1FA JUMPI DUP1 PUSH1 0x3 NOT CALLDATASIZE ADD SLT PUSH2 0x1FA JUMPI PUSH1 0x20 PUSH1 0xFF PUSH1 0x9 SLOAD PUSH1 0x8 SHR AND PUSH1 0x40 MLOAD SWAP1 DUP2 MSTORE RETURN JUMPDEST SWAP1 POP CALLVALUE PUSH2 0x1F8 JUMPI PUSH1 0x20 CALLDATASIZE PUSH1 0x3 NOT ADD SLT PUSH2 0x1F8 JUMPI PUSH1 0x4 CALLDATALOAD PUSH1 0x1 PUSH1 0x1 PUSH1 0xA0 SHL SUB DUP2 AND SWAP1 DUP2 SWAP1 SUB PUSH2 0x250 JUMPI DUP2 PUSH1 0xFF PUSH1 0x40 DUP6 PUSH2 0x235B SWAP5 PUSH1 0x20 SWAP8 MSTORE PUSH1 0x4 DUP8 MSTORE KECCAK256 SLOAD AND PUSH2 0x235D JUMP JUMPDEST RETURN JUMPDEST SWAP1 PUSH1 0x8 DUP3 LT ISZERO PUSH2 0x236A JUMPI MSTORE JUMP JUMPDEST PUSH4 0x4E487B71 PUSH1 0xE0 SHL PUSH1 0x0 MSTORE PUSH1 0x21 PUSH1 0x4 MSTORE PUSH1 0x24 PUSH1 0x0 REVERT JUMPDEST SWAP1 PUSH1 0x20 DUP1 DUP4 MLOAD SWAP3 DUP4 DUP2 MSTORE ADD SWAP3 ADD SWAP1 PUSH1 0x0 JUMPDEST DUP2 DUP2 LT PUSH2 0x239E JUMPI POP POP POP SWAP1 JUMP JUMPDEST DUP3 MLOAD PUSH1 0x1 PUSH1 0x1 PUSH1 0xA0 SHL SUB AND DUP5 MSTORE PUSH1 0x20 SWAP4 DUP5 ADD SWAP4 SWAP1 SWAP3 ADD SWAP2 PUSH1 0x1 ADD PUSH2 0x2391 JUMP JUMPDEST SWAP1 PUSH1 0x7 DUP3 LT ISZERO PUSH2 0x236A JUMPI MSTORE JUMP JUMPDEST PUSH1 0x6 SLOAD DUP2 LT ISZERO PUSH2 0x23E5 JUMPI PUSH1 0x6 PUSH1 0x0 MSTORE PUSH1 0x20 PUSH1 0x0 KECCAK256 ADD SWAP1 PUSH1 0x0 SWAP1 JUMP JUMPDEST PUSH4 0x4E487B71 PUSH1 0xE0 SHL PUSH1 0x0 MSTORE PUSH1 0x32 PUSH1 0x4 MSTORE PUSH1 0x24 PUSH1 0x0 REVERT JUMPDEST DUP1 SLOAD DUP3 LT ISZERO PUSH2 0x23E5 JUMPI PUSH1 0x0 MSTORE PUSH1 0x20 PUSH1 0x0 KECCAK256 ADD SWAP1 PUSH1 0x0 SWAP1 JUMP JUMPDEST PUSH1 0x7 DUP2 LT ISZERO PUSH2 0x236A JUMPI PUSH1 0x0 MSTORE PUSH1 0x3 PUSH1 0x20 MSTORE PUSH1 0x40 PUSH1 0x0 KECCAK256 SWAP1 JUMP JUMPDEST ISZERO PUSH2 0x2433 JUMPI JUMP JUMPDEST PUSH1 0x40 MLOAD PUSH3 0x461BCD PUSH1 0xE5 SHL DUP2 MSTORE PUSH1 0x20 PUSH1 0x4 DUP3 ADD MSTORE PUSH1 0x26 PUSH1 0x24 DUP3 ADD MSTORE PUSH32 0x4E6F74206F776E6572206F72204D697373696F6E466163746F72792061757468 PUSH1 0x44 DUP3 ADD MSTORE PUSH6 0x1BDC9A5E9959 PUSH1 0xD2 SHL PUSH1 0x64 DUP3 ADD MSTORE PUSH1 0x84 SWAP1 REVERT JUMPDEST PUSH2 0x200 DUP2 ADD SWAP1 DUP2 LT PUSH8 0xFFFFFFFFFFFFFFFF DUP3 GT OR PUSH2 0x24A4 JUMPI PUSH1 0x40 MSTORE JUMP JUMPDEST PUSH4 0x4E487B71 PUSH1 0xE0 SHL PUSH1 0x0 MSTORE PUSH1 0x41 PUSH1 0x4 MSTORE PUSH1 0x24 PUSH1 0x0 REVERT JUMPDEST PUSH1 0x40 DUP2 ADD SWAP1 DUP2 LT PUSH8 0xFFFFFFFFFFFFFFFF DUP3 GT OR PUSH2 0x24A4 JUMPI PUSH1 0x40 MSTORE JUMP JUMPDEST SWAP1 PUSH1 0x1F DUP1 NOT SWAP2 ADD AND DUP2 ADD SWAP1 DUP2 LT PUSH8 0xFFFFFFFFFFFFFFFF DUP3 GT OR PUSH2 0x24A4 JUMPI PUSH1 0x40 MSTORE JUMP JUMPDEST PUSH1 0x0 NOT DUP2 EQ PUSH2 0x2507 JUMPI PUSH1 0x1 ADD SWAP1 JUMP JUMPDEST PUSH4 0x4E487B71 PUSH1 0xE0 SHL PUSH1 0x0 MSTORE PUSH1 0x11 PUSH1 0x4 MSTORE PUSH1 0x24 PUSH1 0x0 REVERT JUMPDEST PUSH8 0xFFFFFFFFFFFFFFFF DUP2 GT PUSH2 0x24A4 JUMPI PUSH1 0x5 SHL PUSH1 0x20 ADD SWAP1 JUMP JUMPDEST SWAP1 PUSH2 0x253F DUP3 PUSH2 0x251D JUMP JUMPDEST PUSH2 0x254C PUSH1 0x40 MLOAD SWAP2 DUP3 PUSH2 0x24D6 JUMP JUMPDEST DUP3 DUP2 MSTORE DUP1 SWAP3 PUSH2 0x255D PUSH1 0x1F NOT SWAP2 PUSH2 0x251D JUMP JUMPDEST ADD SWAP1 PUSH1 0x20 CALLDATASIZE SWAP2 ADD CALLDATACOPY JUMP JUMPDEST DUP1 MLOAD DUP3 LT ISZERO PUSH2 0x23E5 JUMPI PUSH1 0x20 SWAP2 PUSH1 0x5 SHL ADD ADD SWAP1 JUMP JUMPDEST MLOAD SWAP1 PUSH1 0x1 PUSH1 0x1 PUSH1 0xA0 SHL SUB DUP3 AND DUP3 SUB PUSH2 0x258F JUMPI JUMP JUMPDEST PUSH1 0x0 DUP1 REVERT JUMPDEST SWAP1 DUP1 PUSH1 0x1F DUP4 ADD SLT ISZERO PUSH2 0x258F JUMPI DUP2 MLOAD PUSH2 0x25AB DUP2 PUSH2 0x251D JUMP JUMPDEST SWAP3 PUSH2 0x25B9 PUSH1 0x40 MLOAD SWAP5 DUP6 PUSH2 0x24D6 JUMP JUMPDEST DUP2 DUP5 MSTORE PUSH1 0x20 DUP1 DUP6 ADD SWAP3 PUSH1 0x5 SHL DUP3 ADD ADD SWAP3 DUP4 GT PUSH2 0x258F JUMPI PUSH1 0x20 ADD SWAP1 JUMPDEST DUP3 DUP3 LT PUSH2 0x25E1 JUMPI POP POP POP SWAP1 JUMP JUMPDEST PUSH1 0x20 DUP1 SWAP2 PUSH2 0x25EE DUP5 PUSH2 0x257B JUMP JUMPDEST DUP2 MSTORE ADD SWAP2 ADD SWAP1 PUSH2 0x25D4 JUMP JUMPDEST MLOAD SWAP1 PUSH1 0xFF DUP3 AND DUP3 SUB PUSH2 0x258F JUMPI JUMP JUMPDEST PUSH1 0x20 DUP2 DUP4 SUB SLT PUSH2 0x258F JUMPI DUP1 MLOAD SWAP1 PUSH8 0xFFFFFFFFFFFFFFFF DUP3 GT PUSH2 0x258F JUMPI ADD PUSH2 0x200 DUP2 DUP4 SUB SLT PUSH2 0x258F JUMPI PUSH1 0x40 MLOAD SWAP2 PUSH2 0x263C DUP4 PUSH2 0x2487 JUMP JUMPDEST DUP2 MLOAD PUSH8 0xFFFFFFFFFFFFFFFF DUP2 GT PUSH2 0x258F JUMPI DUP2 PUSH2 0x2659 SWAP2 DUP5 ADD PUSH2 0x2594 JUMP JUMPDEST DUP4 MSTORE PUSH1 0x20 DUP3 ADD MLOAD PUSH1 0x7 DUP2 LT ISZERO PUSH2 0x258F JUMPI PUSH1 0x20 DUP5 ADD MSTORE PUSH1 0x40 DUP3 ADD MLOAD PUSH1 0x40 DUP5 ADD MSTORE PUSH1 0x60 DUP3 ADD MLOAD PUSH1 0x60 DUP5 ADD MSTORE PUSH1 0x80 DUP3 ADD MLOAD PUSH1 0x80 DUP5 ADD MSTORE PUSH2 0x2698 PUSH1 0xA0 DUP4 ADD PUSH2 0x25F9 JUMP JUMPDEST PUSH1 0xA0 DUP5 ADD MSTORE PUSH2 0x26A9 PUSH1 0xC0 DUP4 ADD PUSH2 0x25F9 JUMP JUMPDEST PUSH1 0xC0 DUP5 ADD MSTORE PUSH1 0xE0 DUP3 ADD MLOAD PUSH1 0xE0 DUP5 ADD MSTORE PUSH2 0x100 DUP3 ADD MLOAD PUSH2 0x100 DUP5 ADD MSTORE PUSH2 0x26D1 PUSH2 0x120 DUP4 ADD PUSH2 0x25F9 JUMP JUMPDEST PUSH2 0x120 DUP5 ADD MSTORE PUSH2 0x26E4 PUSH2 0x140 DUP4 ADD PUSH2 0x25F9 JUMP JUMPDEST PUSH2 0x140 DUP5 ADD MSTORE PUSH2 0x160 DUP3 ADD MLOAD PUSH2 0x160 DUP5 ADD MSTORE PUSH2 0x180 DUP3 ADD MLOAD PUSH2 0x180 DUP5 ADD MSTORE PUSH2 0x1A0 DUP3 ADD MLOAD PUSH8 0xFFFFFFFFFFFFFFFF DUP2 GT PUSH2 0x258F JUMPI DUP3 ADD DUP2 PUSH1 0x1F DUP3 ADD SLT ISZERO PUSH2 0x258F JUMPI DUP1 MLOAD PUSH2 0x272F DUP2 PUSH2 0x251D JUMP JUMPDEST SWAP2 PUSH2 0x273D PUSH1 0x40 MLOAD SWAP4 DUP5 PUSH2 0x24D6 JUMP JUMPDEST DUP2 DUP4 MSTORE PUSH1 0x20 DUP1 DUP5 ADD SWAP3 PUSH1 0x6 SHL DUP3 ADD ADD SWAP1 DUP5 DUP3 GT PUSH2 0x258F JUMPI PUSH1 0x20 ADD SWAP2 JUMPDEST DUP2 DUP4 LT PUSH2 0x279D JUMPI POP POP POP PUSH2 0x1A0 DUP5 ADD MSTORE PUSH2 0x1C0 DUP3 ADD MLOAD PUSH2 0x1C0 DUP5 ADD MSTORE PUSH2 0x1E0 DUP3 ADD MLOAD PUSH8 0xFFFFFFFFFFFFFFFF DUP2 GT PUSH2 0x258F JUMPI PUSH2 0x2794 SWAP3 ADD PUSH2 0x2594 JUMP JUMPDEST PUSH2 0x1E0 DUP3 ADD MSTORE SWAP1 JUMP JUMPDEST PUSH1 0x40 DUP4 DUP7 SUB SLT PUSH2 0x258F JUMPI PUSH1 0x20 PUSH1 0x40 SWAP2 DUP3 MLOAD PUSH2 0x27B7 DUP2 PUSH2 0x24BA JUMP JUMPDEST PUSH2 0x27C0 DUP7 PUSH2 0x257B JUMP JUMPDEST DUP2 MSTORE DUP3 DUP7 ADD MLOAD DUP4 DUP3 ADD MSTORE DUP2 MSTORE ADD SWAP3 ADD SWAP2 PUSH2 0x2759 JUMP JUMPDEST SWAP2 SWAP1 DUP3 ADD DUP1 SWAP3 GT PUSH2 0x2507 JUMPI JUMP JUMPDEST SWAP2 SWAP1 DUP3 SUB SWAP2 DUP3 GT PUSH2 0x2507 JUMPI JUMP JUMPDEST ISZERO PUSH2 0x27F6 JUMPI JUMP JUMPDEST PUSH1 0x40 MLOAD PUSH3 0x461BCD PUSH1 0xE5 SHL DUP2 MSTORE PUSH1 0x20 PUSH1 0x4 DUP3 ADD MSTORE PUSH1 0xF PUSH1 0x24 DUP3 ADD MSTORE PUSH15 0x496E76616C69642061646472657373 PUSH1 0x88 SHL PUSH1 0x44 DUP3 ADD MSTORE PUSH1 0x64 SWAP1 REVERT JUMPDEST PUSH1 0x6 SLOAD DUP1 ISZERO PUSH2 0x2A8C JUMPI PUSH3 0x4F19FF NOT TIMESTAMP ADD SWAP2 TIMESTAMP DUP4 GT PUSH2 0x2507 JUMPI PUSH3 0x278CFF NOT TIMESTAMP ADD TIMESTAMP DUP2 GT PUSH2 0x2507 JUMPI PUSH1 0x0 SWAP3 SWAP2 DUP3 DUP1 JUMPDEST PUSH2 0x299E JUMPI JUMPDEST POP PUSH2 0x2869 DUP5 PUSH2 0x2535 JUMP JUMPDEST SWAP1 PUSH2 0x2873 DUP6 PUSH2 0x2535 JUMP JUMPDEST SWAP4 PUSH1 0x0 SWAP1 JUMPDEST DUP1 ISZERO ISZERO DUP1 PUSH2 0x2995 JUMPI JUMPDEST ISZERO PUSH2 0x298A JUMPI PUSH1 0x0 NOT ADD SWAP1 PUSH2 0x2894 DUP3 PUSH2 0x23CA JUMP JUMPDEST PUSH1 0x1 DUP1 PUSH1 0xA0 SHL SUB SWAP2 SLOAD SWAP1 PUSH1 0x3 SHL SHR AND SWAP1 DUP2 PUSH1 0x0 MSTORE PUSH1 0x4 PUSH1 0x20 MSTORE PUSH1 0xFF PUSH1 0x40 PUSH1 0x0 KECCAK256 SLOAD AND SWAP2 PUSH1 0x40 MLOAD PUSH4 0x1F385F79 PUSH1 0xE2 SHL DUP2 MSTORE PUSH1 0x0 DUP2 PUSH1 0x4 DUP2 DUP6 GAS STATICCALL DUP1 ISZERO PUSH2 0x297E JUMPI DUP9 SWAP2 PUSH1 0x0 SWAP2 PUSH2 0x2965 JUMPI JUMPDEST POP DUP12 PUSH1 0xE0 DUP3 ADD DUP2 DUP2 MLOAD LT DUP1 PUSH2 0x2942 JUMPI JUMPDEST ISZERO PUSH2 0x2937 JUMPI POP POP PUSH2 0x100 ADD MLOAD LT JUMPDEST PUSH2 0x2929 JUMPI PUSH2 0x2909 DUP3 DUP8 PUSH2 0x2567 JUMP JUMPDEST MSTORE PUSH2 0x2914 DUP2 DUP9 PUSH2 0x2567 JUMP JUMPDEST SWAP2 PUSH1 0x8 DUP2 LT ISZERO PUSH2 0x236A JUMPI PUSH1 0x1 SWAP3 MSTORE ADD SWAP1 PUSH2 0x2878 JUMP JUMPDEST POP POP POP POP SWAP4 POP SWAP2 SWAP4 POP POP SWAP2 SWAP1 JUMP JUMPDEST SWAP2 POP SWAP2 POP MLOAD LT PUSH2 0x28FB JUMP JUMPDEST POP SWAP3 POP POP PUSH1 0x8 DUP6 LT ISZERO PUSH2 0x236A JUMPI DUP12 DUP10 SWAP3 PUSH1 0x6 DUP8 EQ DUP1 PUSH2 0x28ED JUMPI POP PUSH1 0x7 DUP8 EQ PUSH2 0x28ED JUMP JUMPDEST PUSH2 0x2978 SWAP2 RETURNDATASIZE DUP1 SWAP2 DUP4 RETURNDATACOPY PUSH2 0xB2E DUP2 DUP4 PUSH2 0x24D6 JUMP JUMPDEST CODESIZE PUSH2 0x28DD JUMP JUMPDEST PUSH1 0x40 MLOAD RETURNDATASIZE PUSH1 0x0 DUP3 RETURNDATACOPY RETURNDATASIZE SWAP1 REVERT JUMPDEST POP SWAP2 SWAP6 POP SWAP3 SWAP4 POP POP POP JUMP JUMPDEST POP DUP7 DUP3 LT PUSH2 0x2881 JUMP JUMPDEST PUSH1 0x0 SWAP5 SWAP4 SWAP5 NOT ADD SWAP3 PUSH2 0x29AF DUP5 PUSH2 0x23CA JUMP JUMPDEST PUSH1 0x1 DUP1 PUSH1 0xA0 SHL SUB SWAP2 SLOAD SWAP1 PUSH1 0x3 SHL SHR AND DUP1 PUSH1 0x0 MSTORE PUSH1 0x4 PUSH1 0x20 MSTORE PUSH1 0x4 PUSH1 0x0 PUSH1 0xFF PUSH1 0x40 DUP3 KECCAK256 SLOAD AND SWAP3 PUSH1 0x40 MLOAD SWAP3 DUP4 DUP1 SWAP3 PUSH4 0x1F385F79 PUSH1 0xE2 SHL DUP3 MSTORE GAS STATICCALL SWAP1 DUP2 ISZERO PUSH2 0x297E JUMPI DUP6 SWAP3 DUP10 SWAP2 PUSH1 0x0 SWAP4 PUSH2 0x2A71 JUMPI JUMPDEST POP PUSH1 0xE0 DUP4 ADD SWAP1 DUP3 DUP3 MLOAD LT SWAP1 DUP2 PUSH2 0x2A41 JUMPI JUMPDEST POP ISZERO PUSH2 0x2A36 JUMPI POP POP PUSH2 0x100 ADD MLOAD LT JUMPDEST PUSH2 0x2A2F JUMPI PUSH2 0x2A28 DUP5 SWAP2 PUSH2 0x24F8 JUMP JUMPDEST SWAP5 SWAP4 PUSH2 0x285A JUMP JUMPDEST SWAP4 SWAP3 PUSH2 0x285F JUMP JUMPDEST SWAP2 POP SWAP2 POP MLOAD LT PUSH2 0x2A1A JUMP JUMPDEST SWAP3 POP POP SWAP3 POP PUSH1 0x8 DUP2 LT ISZERO PUSH2 0x236A JUMPI DUP6 SWAP3 DUP2 PUSH1 0x6 DUP12 SWAP4 EQ SWAP1 DUP2 ISZERO PUSH2 0x2A66 JUMPI JUMPDEST POP CODESIZE PUSH2 0x2A0B JUMP JUMPDEST PUSH1 0x7 SWAP2 POP EQ CODESIZE PUSH2 0x2A5F JUMP JUMPDEST PUSH2 0x2A85 SWAP2 SWAP4 RETURNDATASIZE DUP1 SWAP2 DUP4 RETURNDATACOPY PUSH2 0xB2E DUP2 DUP4 PUSH2 0x24D6 JUMP JUMPDEST SWAP2 CODESIZE PUSH2 0x29FA JUMP JUMPDEST POP PUSH1 0x20 SWAP1 PUSH1 0x40 MLOAD PUSH2 0x2A9D DUP4 DUP3 PUSH2 0x24D6 JUMP JUMPDEST PUSH1 0x0 DUP2 MSTORE PUSH1 0x0 CALLDATASIZE DUP2 CALLDATACOPY PUSH1 0x40 MLOAD SWAP3 PUSH2 0x2AB4 DUP2 DUP6 PUSH2 0x24D6 JUMP JUMPDEST PUSH1 0x0 DUP5 MSTORE POP PUSH1 0x0 CALLDATASIZE DUP2 CALLDATACOPY SWAP2 SWAP1 JUMP JUMPDEST PUSH1 0x1 PUSH1 0x1 PUSH1 0xA0 SHL SUB AND PUSH1 0x0 SWAP1 DUP2 MSTORE PUSH1 0x8 PUSH1 0x20 MSTORE PUSH1 0x40 DUP2 KECCAK256 DUP1 SLOAD DUP3 SWAP2 DUP3 SWAP2 DUP3 SWAP2 DUP3 JUMPDEST DUP3 DUP2 LT PUSH2 0x2BAA JUMPI POP POP POP PUSH1 0x9 SLOAD SWAP2 PUSH1 0xFF DUP4 AND GT SWAP1 PUSH1 0xFF DUP3 ISZERO SWAP4 PUSH1 0x8 SHR AND GT SWAP2 DUP3 ISZERO SWAP3 DUP3 DUP1 PUSH2 0x2BA3 JUMPI JUMPDEST PUSH2 0x2B95 JUMPI DUP2 PUSH2 0x2B8D JUMPI JUMPDEST POP PUSH2 0x2B81 JUMPI DUP2 PUSH2 0x2B79 JUMPI JUMPDEST POP PUSH2 0x2B6F JUMPI PUSH3 0x93A80 DUP2 ADD DUP1 SWAP2 GT PUSH2 0x2507 JUMPI PUSH2 0x2B3E SWAP1 TIMESTAMP SWAP1 PUSH2 0x27E2 JUMP JUMPDEST SWAP1 PUSH3 0x278D00 DUP2 ADD DUP1 SWAP2 GT PUSH2 0x2507 JUMPI PUSH2 0x2B57 SWAP1 TIMESTAMP SWAP1 PUSH2 0x27E2 JUMP JUMPDEST GT ISZERO PUSH2 0x2B67 JUMPI PUSH1 0x2 SWAP1 JUMPDEST PUSH1 0x0 SWAP2 SWAP1 JUMP JUMPDEST PUSH1 0x1 SWAP1 PUSH2 0x2B61 JUMP JUMPDEST POP POP PUSH1 0x0 SWAP1 PUSH1 0x2 SWAP1 JUMP JUMPDEST SWAP1 POP CODESIZE PUSH2 0x2B21 JUMP JUMPDEST POP POP POP POP PUSH1 0x0 SWAP1 PUSH1 0x1 SWAP1 JUMP JUMPDEST SWAP1 POP CODESIZE PUSH2 0x2B16 JUMP JUMPDEST POP POP POP POP POP POP PUSH1 0x1 SWAP1 PUSH1 0x0 SWAP1 JUMP JUMPDEST POP DUP1 PUSH2 0x2B0C JUMP JUMPDEST PUSH2 0x2BB4 DUP2 DUP4 PUSH2 0x23FB JUMP JUMPDEST SWAP1 SLOAD SWAP1 PUSH1 0x3 SHL SHR PUSH3 0x278D00 DUP2 ADD DUP1 DUP3 GT PUSH2 0x2507 JUMPI TIMESTAMP LT PUSH2 0x2BD8 JUMPI JUMPDEST POP PUSH1 0x1 ADD PUSH2 0x2AE3 JUMP JUMPDEST SWAP4 PUSH2 0x2BE2 SWAP1 PUSH2 0x24F8 JUMP JUMPDEST SWAP4 DUP8 ISZERO DUP1 ISZERO PUSH2 0x2C38 JUMPI JUMPDEST PUSH2 0x2C30 JUMPI JUMPDEST PUSH3 0x93A80 DUP2 ADD DUP1 DUP3 GT PUSH2 0x2507 JUMPI TIMESTAMP LT ISZERO PUSH2 0x2BCF JUMPI SWAP5 PUSH2 0x2C0F SWAP1 PUSH2 0x24F8 JUMP JUMPDEST SWAP5 DUP7 ISZERO DUP1 ISZERO PUSH2 0x2C27 JUMPI JUMPDEST ISZERO PUSH2 0x2BCF JUMPI SWAP6 POP PUSH1 0x1 PUSH2 0x2BCF JUMP JUMPDEST POP DUP7 DUP2 LT PUSH2 0x2C19 JUMP JUMPDEST SWAP7 POP DUP7 PUSH2 0x2BF1 JUMP JUMPDEST POP DUP8 DUP2 LT PUSH2 0x2BEC JUMP JUMPDEST PUSH1 0x0 SLOAD PUSH1 0x1 PUSH1 0x1 PUSH1 0xA0 SHL SUB AND CALLER SUB PUSH2 0x2C55 JUMPI JUMP JUMPDEST PUSH4 0x118CDAA7 PUSH1 0xE0 SHL PUSH1 0x0 MSTORE CALLER PUSH1 0x4 MSTORE PUSH1 0x24 PUSH1 0x0 REVERT JUMPDEST PUSH1 0x0 DUP1 SLOAD PUSH1 0x1 PUSH1 0x1 PUSH1 0xA0 SHL SUB SWAP3 DUP4 AND PUSH1 0x1 PUSH1 0x1 PUSH1 0xA0 SHL SUB NOT DUP3 AND DUP2 OR DUP4 SSTORE SWAP3 AND SWAP1 PUSH32 0x8BE0079C531659141344CD1FD0A4F28419497F9722A3DAAFE3B4186F6B6457E0 SWAP1 DUP1 LOG3 JUMP INVALID LOG2 PUSH5 0x6970667358 0x22 SLT KECCAK256 ISZERO SELFBALANCE DUP11 CALLVALUE 0x29 0x1E BLOBHASH 0x2A 0x2D 0xCE MLOAD 0xC7 SHL DATALOADN 0x9C24 0xBD 0xD7 0xD5 CALLCODE 0xDA 0xBD DUP16 0x2E RJUMP 0x111 PUSH32 0xA443A83364736F6C634300081E00330000000000000000000000000000000000 "},"methodIdentifiers":{"OWNERSHIP_PROPOSAL_WINDOW()":"d3050eba","addAuthorizedAddress(address)":"42f1181e","authorized(address)":"b9181611","canEnroll(address)":"9804a586","confirmOwnershipTransfer(address)":"3c213957","createMission(uint8,uint256,uint256,uint256,uint8,uint8,uint256,uint256,uint8)":"9b159539","getAllMissions()":"6d8a1390","getFundsByType(uint8)":"2e33b07f","getLatestMissions(uint256)":"7e9eae50","getMissionData(address)":"20c5718f","getMissionsByStatus(uint8)":"1e59d584","getMissionsEnded()":"b6202913","getMissionsNotEnded()":"6805036d","getPlayerLimits(address)":"cbf2080d","isMission(address)":"aa1f0595","missionImplementation()":"bd487725","missionStatus(address)":"0814ab82","missions(uint256)":"2c8fe526","monthlyLimit()":"0a6005da","owner()":"8da5cb5b","ownershipProposals(address)":"fb4cdea7","proposeOwnershipTransfer(address)":"21040fc3","recordEnrollment(address)":"c17f9e59","registerMissionFunds(uint256,uint8)":"9c3d3a20","removeAuthorizedAddress(address)":"70712939","renounceOwnership()":"715018a6","reservedFunds(uint8)":"c416ad2a","reservedFundsBreakdown()":"df4db463","secondsTillMonthlySlot(address)":"37012762","secondsTillWeeklySlot(address)":"eff0ab92","setEnrollmentLimits(uint8,uint8)":"d41eca64","setMissionStatus(uint8)":"d8d6e8ff","transferOwnership(address)":"f2fde38b","weeklyLimit()":"861a68d6","withdrawFunds(uint256)":"155dd5ee"}}}}}