{"contracts/MissionFactory.sol":{"MissionFactory":{"abi":[{"inputs":[],"stateMutability":"nonpayable","type":"constructor"},{"inputs":[],"name":"FailedDeployment","type":"error"},{"inputs":[{"internalType":"uint256","name":"balance","type":"uint256"},{"internalType":"uint256","name":"needed","type":"uint256"}],"name":"InsufficientBalance","type":"error"},{"inputs":[{"internalType":"address","name":"owner","type":"address"}],"name":"OwnableInvalidOwner","type":"error"},{"inputs":[{"internalType":"address","name":"account","type":"address"}],"name":"OwnableUnauthorizedAccount","type":"error"},{"inputs":[],"name":"ReentrancyGuardReentrantCall","type":"error"},{"anonymous":false,"inputs":[{"indexed":true,"internalType":"address","name":"addr","type":"address"}],"name":"AuthorizedAddressAdded","type":"event"},{"anonymous":false,"inputs":[{"indexed":true,"internalType":"address","name":"addr","type":"address"}],"name":"AuthorizedAddressRemoved","type":"event"},{"anonymous":false,"inputs":[{"indexed":false,"internalType":"uint8","name":"newWeekly","type":"uint8"},{"indexed":false,"internalType":"uint8","name":"newMonthly","type":"uint8"}],"name":"EnrollmentLimitUpdated","type":"event"},{"anonymous":false,"inputs":[{"indexed":true,"internalType":"address","name":"user","type":"address"},{"indexed":false,"internalType":"uint256","name":"timestamp","type":"uint256"}],"name":"EnrollmentRecorded","type":"event"},{"anonymous":false,"inputs":[{"indexed":true,"internalType":"address","name":"sender","type":"address"},{"indexed":false,"internalType":"uint256","name":"amount","type":"uint256"}],"name":"FundsReceived","type":"event"},{"anonymous":false,"inputs":[{"indexed":true,"internalType":"address","name":"to","type":"address"},{"indexed":false,"internalType":"uint256","name":"amount","type":"uint256"}],"name":"FundsWithdrawn","type":"event"},{"anonymous":false,"inputs":[{"indexed":true,"internalType":"address","name":"missionAddress","type":"address"},{"indexed":true,"internalType":"enum MissionType","name":"missionType","type":"uint8"}],"name":"MissionCreated","type":"event"},{"anonymous":false,"inputs":[{"indexed":false,"internalType":"uint256","name":"amount","type":"uint256"},{"indexed":true,"internalType":"enum MissionType","name":"missionType","type":"uint8"},{"indexed":true,"internalType":"address","name":"sender","type":"address"}],"name":"MissionFundsRegistered","type":"event"},{"anonymous":false,"inputs":[{"indexed":true,"internalType":"address","name":"confirmer","type":"address"},{"indexed":false,"internalType":"address","name":"newOwner","type":"address"},{"indexed":false,"internalType":"uint256","name":"timestamp","type":"uint256"}],"name":"OwnershipTransferConfirmed","type":"event"},{"anonymous":false,"inputs":[{"indexed":true,"internalType":"address","name":"proposer","type":"address"},{"indexed":false,"internalType":"address","name":"newOwner","type":"address"},{"indexed":false,"internalType":"uint256","name":"timestamp","type":"uint256"}],"name":"OwnershipTransferProposed","type":"event"},{"anonymous":false,"inputs":[{"indexed":true,"internalType":"address","name":"previousOwner","type":"address"},{"indexed":true,"internalType":"address","name":"newOwner","type":"address"}],"name":"OwnershipTransferred","type":"event"},{"stateMutability":"payable","type":"fallback"},{"inputs":[],"name":"OWNERSHIP_PROPOSAL_WINDOW","outputs":[{"internalType":"uint256","name":"","type":"uint256"}],"stateMutability":"view","type":"function"},{"inputs":[{"internalType":"address","name":"account","type":"address"}],"name":"addAuthorizedAddress","outputs":[],"stateMutability":"nonpayable","type":"function"},{"inputs":[{"internalType":"address","name":"","type":"address"}],"name":"authorized","outputs":[{"internalType":"bool","name":"","type":"bool"}],"stateMutability":"view","type":"function"},{"inputs":[{"internalType":"address","name":"user","type":"address"}],"name":"canEnroll","outputs":[{"internalType":"bool","name":"allowed","type":"bool"},{"internalType":"string","name":"reason","type":"string"}],"stateMutability":"view","type":"function"},{"inputs":[{"internalType":"address","name":"newOwner","type":"address"}],"name":"confirmOwnershipTransfer","outputs":[],"stateMutability":"nonpayable","type":"function"},{"inputs":[{"internalType":"enum MissionType","name":"_missionType","type":"uint8"},{"internalType":"uint256","name":"_enrollmentStart","type":"uint256"},{"internalType":"uint256","name":"_enrollmentEnd","type":"uint256"},{"internalType":"uint256","name":"_enrollmentAmount","type":"uint256"},{"internalType":"uint8","name":"_enrollmentMinPlayers","type":"uint8"},{"internalType":"uint8","name":"_enrollmentMaxPlayers","type":"uint8"},{"internalType":"uint256","name":"_missionStart","type":"uint256"},{"internalType":"uint256","name":"_missionEnd","type":"uint256"},{"internalType":"uint8","name":"_missionRounds","type":"uint8"}],"name":"createMission","outputs":[{"internalType":"address","name":"","type":"address"}],"stateMutability":"payable","type":"function"},{"inputs":[],"name":"getAllMissions","outputs":[{"internalType":"address[]","name":"","type":"address[]"},{"internalType":"enum Status[]","name":"","type":"uint8[]"}],"stateMutability":"view","type":"function"},{"inputs":[{"internalType":"enum MissionType","name":"_type","type":"uint8"}],"name":"getFundsByType","outputs":[{"internalType":"uint256","name":"","type":"uint256"}],"stateMutability":"view","type":"function"},{"inputs":[{"internalType":"address","name":"missionAddress","type":"address"}],"name":"getMissionData","outputs":[{"components":[{"internalType":"address[]","name":"players","type":"address[]"},{"internalType":"enum MissionType","name":"missionType","type":"uint8"},{"internalType":"enum Status","name":"missionStatus","type":"uint8"},{"internalType":"uint256","name":"enrollmentStart","type":"uint256"},{"internalType":"uint256","name":"enrollmentEnd","type":"uint256"},{"internalType":"uint256","name":"enrollmentAmount","type":"uint256"},{"internalType":"uint8","name":"enrollmentMinPlayers","type":"uint8"},{"internalType":"uint8","name":"enrollmentMaxPlayers","type":"uint8"},{"internalType":"uint256","name":"missionStart","type":"uint256"},{"internalType":"uint256","name":"missionEnd","type":"uint256"},{"internalType":"uint8","name":"missionRounds","type":"uint8"},{"internalType":"uint8","name":"roundCount","type":"uint8"},{"internalType":"uint256","name":"ethStart","type":"uint256"},{"internalType":"uint256","name":"ethCurrent","type":"uint256"},{"components":[{"internalType":"address","name":"player","type":"address"},{"internalType":"uint256","name":"amountWon","type":"uint256"}],"internalType":"struct Mission.PlayersWon[]","name":"playersWon","type":"tuple[]"},{"internalType":"uint256","name":"pauseTime","type":"uint256"},{"internalType":"address[]","name":"refundedPlayers","type":"address[]"}],"internalType":"struct Mission.MissionData","name":"","type":"tuple"}],"stateMutability":"view","type":"function"},{"inputs":[{"internalType":"enum Status","name":"filter","type":"uint8"}],"name":"getMissionsByStatus","outputs":[{"internalType":"address[]","name":"","type":"address[]"}],"stateMutability":"view","type":"function"},{"inputs":[],"name":"getMissionsEnded","outputs":[{"internalType":"address[]","name":"","type":"address[]"}],"stateMutability":"view","type":"function"},{"inputs":[],"name":"getMissionsNotEnded","outputs":[{"internalType":"address[]","name":"","type":"address[]"}],"stateMutability":"view","type":"function"},{"inputs":[],"name":"missionImplementation","outputs":[{"internalType":"address","name":"","type":"address"}],"stateMutability":"view","type":"function"},{"inputs":[{"internalType":"address","name":"","type":"address"}],"name":"missionStatus","outputs":[{"internalType":"enum Status","name":"","type":"uint8"}],"stateMutability":"view","type":"function"},{"inputs":[{"internalType":"uint256","name":"","type":"uint256"}],"name":"missions","outputs":[{"internalType":"address","name":"","type":"address"}],"stateMutability":"view","type":"function"},{"inputs":[],"name":"monthlyLimit","outputs":[{"internalType":"uint8","name":"","type":"uint8"}],"stateMutability":"view","type":"function"},{"inputs":[],"name":"owner","outputs":[{"internalType":"address","name":"","type":"address"}],"stateMutability":"view","type":"function"},{"inputs":[{"internalType":"address","name":"","type":"address"}],"name":"ownershipProposals","outputs":[{"internalType":"address","name":"proposer","type":"address"},{"internalType":"uint256","name":"timestamp","type":"uint256"}],"stateMutability":"view","type":"function"},{"inputs":[{"internalType":"address","name":"newOwner","type":"address"}],"name":"proposeOwnershipTransfer","outputs":[],"stateMutability":"nonpayable","type":"function"},{"inputs":[{"internalType":"address","name":"user","type":"address"}],"name":"recordEnrollment","outputs":[],"stateMutability":"nonpayable","type":"function"},{"inputs":[{"internalType":"uint256","name":"amount","type":"uint256"},{"internalType":"enum MissionType","name":"missionType","type":"uint8"}],"name":"registerMissionFunds","outputs":[],"stateMutability":"nonpayable","type":"function"},{"inputs":[{"internalType":"address","name":"account","type":"address"}],"name":"removeAuthorizedAddress","outputs":[],"stateMutability":"nonpayable","type":"function"},{"inputs":[],"name":"renounceOwnership","outputs":[],"stateMutability":"nonpayable","type":"function"},{"inputs":[{"internalType":"enum MissionType","name":"","type":"uint8"}],"name":"reservedFunds","outputs":[{"internalType":"uint256","name":"","type":"uint256"}],"stateMutability":"view","type":"function"},{"inputs":[{"internalType":"uint8","name":"_weekly","type":"uint8"},{"internalType":"uint8","name":"_monthly","type":"uint8"}],"name":"setEnrollmentLimits","outputs":[],"stateMutability":"nonpayable","type":"function"},{"inputs":[{"internalType":"enum Status","name":"newStatus","type":"uint8"}],"name":"setMissionStatus","outputs":[],"stateMutability":"nonpayable","type":"function"},{"inputs":[{"internalType":"address","name":"newOwner","type":"address"}],"name":"transferOwnership","outputs":[],"stateMutability":"nonpayable","type":"function"},{"inputs":[],"name":"weeklyLimit","outputs":[{"internalType":"uint8","name":"","type":"uint8"}],"stateMutability":"view","type":"function"},{"inputs":[{"internalType":"uint256","name":"amount","type":"uint256"}],"name":"withdrawFunds","outputs":[],"stateMutability":"nonpayable","type":"function"},{"stateMutability":"payable","type":"receive"}],"evm":{"bytecode":{"linkReferences":{},"object":"608080604052346100f95733156100e35760008054336001600160a01b0319821681178355916001600160a01b03909116907f8be0079c531659141344cd1fd0a4f28419497f9722a3daafe3b4186f6b6457e09080a3600180556009805461ffff1916610a0417905561290e8181016001600160401b038111838210176100cd57829161288b833903906000f080156100c157600680546001600160a01b0319166001600160a01b039290921691909117905560405161278c90816100ff8239f35b6040513d6000823e3d90fd5b634e487b7160e01b600052604160045260246000fd5b631e4fbdf760e01b600052600060045260246000fd5b600080fdfe6080806040526004361015610011575b005b600090813560e01c9081630814ab8214611fd1575080630a6005da14611fad578063155dd5ee14611deb5780631e59d58414611bfb57806320c5718f1461197f57806321040fc3146118575780632c8fe526146118135780632e33b07f146103ae5780633c2139571461160057806342f1181e1461150f5780636805036d146113795780636d8a1390146110a45780637071293914610fb9578063715018a614610f5f578063861a68d614610f3e5780638da5cb5b14610f175780639804a58614610eca5780639b159539146109e45780639c3d3a20146108a5578063b6202913146106e2578063b9181611146106a0578063bd48772514610677578063c17f9e59146103e1578063c416ad2a146103ae578063d3050eba14610390578063d41eca64146102e2578063d8d6e8ff14610212578063f2fde38b146101bb5763fb4cdea70361000f57346101b85760203660031901126101b8576004356001600160a01b038116908190036101b657815260076020908152604091829020805460019091015483516001600160a01b0390921682529181019190915290819081015b0390f35b505b80fd5b50346101b85760203660031901126101b8576004356001600160a01b03811680820361020e576101e96126e6565b156101fa576101f79061270f565b80f35b631e4fbdf760e01b82526004829052602482fd5b8280fd5b50346101b85760203660031901126101b85760043560068110156101b657338252600460205260ff60408320541660068110156102ce571561026a573382526004602052604082209060ff8019835416911617905580f35b60405162461bcd60e51b815260206004820152603660248201527f4d697373696f6e466163746f72793a2063616c6c6572206973206e6f742061206044820152751d985b1a59081b5a5cdcda5bdb8818dbdb9d1c9858dd60521b6064820152608490fd5b634e487b7160e01b83526021600452602483fd5b50346101b85760403660031901126101b85760043560ff81168091036101b65760243560ff81169182820361038c577f321994b8855ae38e4fd6162f7a0bd7cde88be83aa3acc96e03c17b7f733b43e19260409260018060a01b0386541633148015610377575b61035290612125565b8261ff006009549260081b169161ffff1916171760095582519182526020820152a180f35b5033865260026020528386205460ff16610349565b8380fd5b50346101b857806003193601126101b8576020604051620151808152f35b50346101b85760203660031901126101b8576004359060078210156101b85760206103d88361210c565b54604051908152f35b50346101b85760203660031901126101b8576004356001600160a01b0381169081810361020e57338352600460205260ff6040842054166006811015610663576001148015610641575b1561060b576104399061253b565b90156105e3575062278cff194201904282116105cf57808352600860205260408320805492845b848110806105b6575b1561047c57610477906121f1565b610460565b8383879280610502575b50805490600160401b8210156104ee57816104a99160016104c1940181556120b3565b429082549060031b91821b91600019901b1916179055565b7f498f5e6dcf570483a1848853791046a7f10012193176d71f959f46eb7713d7446020604051428152a280f35b634e487b7160e01b84526041600452602484fd5b92805b61051085845461252e565b811015610560578061055a61053061052a886001956124e3565b866120b3565b90549060031b1c61054183876120b3565b90919082549060031b91821b91600019901b1916179055565b01610505565b5092835b8181106105715750610486565b825480156105a257600191906000190161058b81866120b3565b8154906000199060031b1b19169055845501610564565b634e487b7160e01b86526031600452602486fd5b50816105c282856120b3565b90549060031b1c10610469565b634e487b7160e01b83526011600452602483fd5b60405162461bcd60e51b8152602060048201529081906106079060248301906120cb565b0390fd5b60405162461bcd60e51b815260206004820152600e60248201526d24b73b30b634b21031b0b63632b960911b6044820152606490fd5b50338352600460205260ff60408420541660068110156106635760021461042b565b634e487b7160e01b84526021600452602484fd5b50346101b857806003193601126101b8576006546040516001600160a01b039091168152602090f35b50346101b85760203660031901126101b8576004356001600160a01b038116908190036101b65760408260ff9260209452600284522054166040519015158152f35b50346101b857806003193601126101b85760055481825b8281106107f7575061070a9061222e565b9082835b82811061072b57604051602080825281906101b290820187612038565b61073481612082565b905460039190911b1c6001600160a01b031685526004602052604085205460ff1660068110156107e35760041480156107a7575b90600191610777575b0161070e565b61078081612082565b838060a01b0391549060031b1c166107a161079a856121f1565b9487612260565b52610771565b506107b181612082565b905460039190911b1c6001600160a01b031685526004602052604085205460ff1660068110156107e357600514610768565b634e487b7160e01b86526021600452602486fd5b61080081612082565b905460039190911b1c6001600160a01b031684526004602052604084205460ff166006811015610891576004148015610855575b610841575b6001016106f9565b9061084d6001916121f1565b919050610839565b5061085f81612082565b905460039190911b1c6001600160a01b031684526004602052604084205460ff16600681101561089157600514610834565b634e487b7160e01b85526021600452602485fd5b50346101b85760403660031901126101b857600435602435600781101561020e5781156109a057338352600460205260ff604084205416600681101561066357600414801561097e575b15610939576108fd8161210c565b6109088382546124e3565b90556040519182527f606617fd09d9890413e3c46147b844d4562351f86e0f7a5c60849bbf0ef0281160203393a380f35b60405162461bcd60e51b815260206004820152601d60248201527f43616c6c6572206973206e6f7420612076616c6964206d697373696f6e0000006044820152606490fd5b50338352600460205260ff6040842054166006811015610663576005146108ef565b606460405162461bcd60e51b815260206004820152602060248201527f416d6f756e74206d7573742062652067726561746572207468616e207a65726f6044820152fd5b506101203660031901126101b85760043560078110156101b657602435906044359160643560843560ff8116809103610ec65760a43560ff8116809103610ec25760c4359060e43592610104359460ff8616809603610ebe5789546001600160a01b031633148015610ea8575b610a5a90612125565b60058610610e4957858210610dde5788871015610d8d57888410610d2f5783851115610ceb578015610c9257600654608881901c62ffffff16763d602d80600a3d3981f3363d3d373d3d3d363d73000000178b5260781b6effffffffffffffffffffffffffffff19166e5af43d82803e903d91602b57fd5bf3176020526001600160a01b03603760098cf016988915610c83578a546001600160a01b0316978a3b15610c7f576040519863c54168b360e01b8a5260048a01523060248a0152610b2660448a018b612075565b6064890152608488015260a487015260c486015260e485015261010484015261012483015261014482015283816101648134875af18015610c7457610c60575b50600554600160401b8110156104ee57806001610b869201600555612082565b81546001600160a01b0360039290921b91821b19169084901b17905580827f0ac1ac89285bf936f515aafcf6808b3e062e77fd57f52c8892d20fc9409b8b538580a3610bd18161210c565b5460021c9081151580610c56575b610bef575b602083604051908152f35b610bf89061210c565b610c0382825461252e565b905582823b156101b85760405163eb2bab7760e01b81529182906004908290865af18015610c4b57610c36575b80610be4565b610c418380926121cf565b6101b65781610c30565b6040513d85823e3d90fd5b5081471015610bdf565b83610c6d919492946121cf565b9138610b66565b6040513d86823e3d90fd5b8b80fd5b63b06ebf3d60e01b8b5260048bfd5b60405162461bcd60e51b815260206004820152602b60248201527f456e726f6c6c6d656e7420616d6f756e74206d7573742062652067726561746560448201526a72207468616e207a65726f60a81b6064820152608490fd5b606460405162461bcd60e51b815260206004820152602060248201527f4d697373696f6e207374617274206d757374206265206265666f726520656e646044820152fd5b60405162461bcd60e51b815260206004820152603060248201527f4d697373696f6e207374617274206d757374206265206f6e206f72206166746560448201526f1c88195b9c9bdb1b1b595b9d08195b9960821b6064820152608490fd5b60405162461bcd60e51b815260206004820152602360248201527f456e726f6c6c6d656e74207374617274206d757374206265206265666f726520604482015262195b9960ea1b6064820152608490fd5b60405162461bcd60e51b815260206004820152603f60248201527f4d696e696d756d20706c6179657273206d75737420626520677265617465722060448201527f7468616e206f7220657175616c20746f206d697373696f6e20726f756e6473006064820152608490fd5b60405162461bcd60e51b815260206004820152603160248201527f4d697373696f6e20726f756e6473206d7573742062652067726561746572207460448201527068616e206f7220657175616c20746f203560781b6064820152608490fd5b50338a52600260205260408a205460ff16610a51565b8980fd5b8680fd5b8580fd5b50346101b85760203660031901126101b8576004356001600160a01b03811681036101b657610ef89061253b565b906101b2604051928392151583526040602084015260408301906120cb565b50346101b857806003193601126101b857546040516001600160a01b039091168152602090f35b50346101b857806003193601126101b857602060ff60095416604051908152f35b50346101b857806003193601126101b857610f786126e6565b80546001600160a01b03198116825581906001600160a01b03167f8be0079c531659141344cd1fd0a4f28419497f9722a3daafe3b4186f6b6457e08280a380f35b50346101b85760203660031901126101b8576004356001600160a01b038116908190036101b65781546001600160a01b03163314801561108e575b610ffd90612125565b6110088115156124f0565b808252600260205260ff6040832054161561105857808252600260205260408220805460ff191690557f66d5f06f711af3c9feba3203fdb00b51345d514c68585d9d319c5ff5e6f775928280a280f35b60405162461bcd60e51b815260206004820152600e60248201526d139bdd08185d5d1a1bdc9a5e995960921b6044820152606490fd5b503382526002602052604082205460ff16610ff4565b50346101b857806003193601126101b85760055462278cff1942019142831161136557919082805b82811061129757506110dd8461222e565b926111006110ea86612216565b956110f860405197886121cf565b808752612216565b602086019390601f19013685378291825b8284106111785750505050611136936020604051958695604087526040870190612038565b918583038287015251918281520192915b818110611155575050500390f35b919350916020808261116a6001948851612015565b019401910191849392611147565b6111858498969798612082565b905460039190911b1c6001600160a01b03168086526004602052604086205460ff16906006821015908161128357600483148015611276575b61120b575b6111cd848c612260565b526111d88389612260565b906111f757526001906111ea906121f1565b935b019296959496611111565b634e487b7160e01b87526021600452602487fd5b604051631f385f7960e21b81528881600481855afa90811561126b578691610120918b91611249575b50015110156111c357505050926001906111ec565b61126591503d808d833e61125d81836121cf565b810190612300565b38611234565b6040513d8b823e3d90fd5b50879150600583146111be565b634e487b7160e01b88526021600452602488fd5b9192936112a383612082565b905460039190911b1c6001600160a01b03168083526004602052604083205460ff166006811015610663579081600485931490811561135a575b506112fc575b50506112f06001916121f1565b925b01939291936110cc565b604051631f385f7960e21b81529190829060049082905afa908115610c4b578691610120918591611340575b500151106113375781386112e3565b916001906112f2565b61135491503d8087833e61125d81836121cf565b38611328565b6005915014386112dd565b634e487b7160e01b81526011600452602490fd5b50346101b857806003193601126101b85760055481825b82811061147457506113a19061222e565b9082835b8281106113c257604051602080825281906101b290820187612038565b6113cb81612082565b905460039190911b1c6001600160a01b031685526004602052604085205460ff1660068110156107e3576004141580611437575b9060019161140e575b016113a5565b61141781612082565b838060a01b0391549060031b1c1661143161079a856121f1565b52611408565b5061144181612082565b905460039190911b1c6001600160a01b031685526004602052604085205460ff1660068110156107e357600514156113ff565b61147d81612082565b905460039190911b1c6001600160a01b031684526004602052604084205460ff1660068110156108915760041415806114d2575b6114be575b600101611390565b906114ca6001916121f1565b9190506114b6565b506114dc81612082565b905460039190911b1c6001600160a01b031684526004602052604084205460ff16600681101561089157600514156114b1565b50346101b85760203660031901126101b8576004356001600160a01b038116908190036101b65781546001600160a01b0316331480156115ea575b61155390612125565b61155e8115156124f0565b808252600260205260ff6040832054166115b057808252600260205260408220805460ff191660011790557f10ac961f00d5e732ba4dcc2c6fb09bebea0eb9edd2a75c8109775ef288382e678280a280f35b60405162461bcd60e51b8152602060048201526012602482015271105b1c9958591e48185d5d1a1bdc9a5e995960721b6044820152606490fd5b503382526002602052604082205460ff1661154a565b50346101b85760203660031901126101b8576004356001600160a01b03811680820361020e5782546001600160a01b0316331480156117fd575b61164390612125565b80835260076020526040832060405161165b816121b3565b81546001600160a01b03168082526001909201546020820190815291156117b857516001600160a01b031633146117745751620151808101809111611760574211611728576116a86126e6565b8015611714576116b78261270f565b825260076020908152604080842084815560010184905580516001600160a01b039093168352429183019190915233917fdd72dd33198968a9cdc9b1e5cbff344fb8d04d99f8c15c0a02416b04e857b46791819081015b0390a280f35b631e4fbdf760e01b83526004839052602483fd5b60405162461bcd60e51b815260206004820152601060248201526f141c9bdc1bdcd85b08195e1c1a5c995960821b6044820152606490fd5b634e487b7160e01b84526011600452602484fd5b606460405162461bcd60e51b815260206004820152602060248201527f43616e6e6f7420636f6e6669726d20796f7572206f776e2070726f706f73616c6044820152fd5b60405162461bcd60e51b815260206004820152601a60248201527f4e6f2070726f706f73616c20666f722074686973206f776e65720000000000006044820152606490fd5b503383526002602052604083205460ff1661163a565b50346101b85760203660031901126101b857600435906005548210156101b857602061183e83612082565b905460405160039290921b1c6001600160a01b03168152f35b50346101b85760203660031901126101b8576004356001600160a01b03811680820361020e5782546001600160a01b031633148015611969575b61189a90612125565b8015611930576001604051916118af836121b3565b3383526020830190428252855260076020526040852092828060a01b039051166bffffffffffffffffffffffff60a01b845416178355519101557fc29bdbd554e41df97e5c40fc273a09677ac133c245f0064bdffef5cc72176e196040518061170e339442908360209093929193604081019460018060a01b031681520152565b60405162461bcd60e51b815260206004820152601160248201527024b73b30b634b2103732bb9037bbb732b960791b6044820152606490fd5b503383526002602052604083205460ff16611891565b50346101b85760203660031901126101b8576004356001600160a01b038116908190036101b65760606102006040516119b781612180565b82815284602082015284604082015284838201528460808201528460a08201528460c08201528460e08201528461010082015284610120820152846101408201528461016082015284610180820152846101a0820152826101c0820152846101e082015201528015611bb6578160049160405192838092631f385f7960e21b82525afa908115611bab578291611b91575b506040519060208252611a6981516102206020850152610240840190612038565b92611a7c60208301516040850190612075565b611a8e60408301516060850190612015565b60608201516080840152608082015160a084015260a082015160c084015260ff60c08301511660e084015260ff60e08301511661010084015261010082015161012084015261012082015161014084015260ff6101408301511661016084015260ff610160830151166101808401526101808201516101a08401526101a08201516101c08401526101c082015193601f19848203016101e0850152602080865192838152019501915b818110611b665784806101b288610200886101e0810151828601520151601f1984830301610220850152612038565b825180516001600160a01b031687526020908101518188015260409096019590920191600101611b37565b611ba591503d8084833e61125d81836121cf565b38611a48565b6040513d84823e3d90fd5b60405162461bcd60e51b815260206004820152601760248201527f496e76616c6964206d697373696f6e20616464726573730000000000000000006044820152606490fd5b50346101b85760203660031901126101b85760043560068110158061020e57600554906002831484805b83858210611d3c575050611c389061222e565b938592865b858110611c5a57604051602080825281906101b29082018a612038565b81611283578380611d00575b8015611cac575b90600191611c7c575b01611c3d565b611c8581612082565b838060a01b0391549060031b1c16611ca6611c9f886121f1565b978a612260565b52611c76565b509050611cb881612082565b905460039190911b1c6001600160a01b031687526004602052604087205487919060ff166006811015611cec578314611c6d565b634e487b7160e01b89526021600452602489fd5b50611d0a81612082565b905460039190911b1c6001600160a01b031688526004602052604088205460ff166006811015611cec57600314611c66565b6111f7578280611daf575b8015611d6f575b611d5b575b600101611c25565b90611d676001916121f1565b919050611d53565b509250611d7b83612082565b905460039190911b1c6001600160a01b031686526004602052604086205486939060ff166006811015611283578614611d4e565b50611db981612082565b905460039190911b1c6001600160a01b031687526004602052604087205460ff16600681101561128357600314611d47565b50346101b85760203660031901126101b85780546001600160a01b03166004353382148015611f97575b611e1e90612125565b600260015414611f88576002600155808215611f4b5715611f44575b478111611f08578280808084865af13d15611f03573d67ffffffffffffffff8111611eef5760405190611e77601f8201601f1916602001836121cf565b81528460203d92013e5b15611eb85760207feaff4b37086828766ad3268786972c0cd24259d4c87a80f9d3963a3c3d999b0d91604051908152a26001805580f35b60405162461bcd60e51b815260206004820152600f60248201526e151c985b9cd9995c8819985a5b1959608a1b6044820152606490fd5b634e487b7160e01b85526041600452602485fd5b611e81565b60405162461bcd60e51b8152602060048201526014602482015273496e73756666696369656e742062616c616e636560601b6044820152606490fd5b5047611e3a565b60405162461bcd60e51b815260206004820152601560248201527424b73b30b634b21036b0b730b3b2b91037bbb732b960591b6044820152606490fd5b633ee5aeb560e01b8352600483fd5b503383526002602052604083205460ff16611e15565b50346101b857806003193601126101b857602060ff60095460081c16604051908152f35b9050346101b65760203660031901126101b6576004356001600160a01b0381169081900361020e578160ff604085612013946020975260048752205416612015565bf35b9060068210156120225752565b634e487b7160e01b600052602160045260246000fd5b906020808351928381520192019060005b8181106120565750505090565b82516001600160a01b0316845260209384019390920191600101612049565b9060078210156120225752565b60055481101561209d57600560005260206000200190600090565b634e487b7160e01b600052603260045260246000fd5b805482101561209d5760005260206000200190600090565b919082519283825260005b8481106120f7575050826000602080949584010152601f8019910116010190565b806020809284010151828286010152016120d6565b6007811015612022576000526003602052604060002090565b1561212c57565b60405162461bcd60e51b815260206004820152602660248201527f4e6f74206f776e6572206f72204d697373696f6e466163746f727920617574686044820152651bdc9a5e995960d21b6064820152608490fd5b610220810190811067ffffffffffffffff82111761219d57604052565b634e487b7160e01b600052604160045260246000fd5b6040810190811067ffffffffffffffff82111761219d57604052565b90601f8019910116810190811067ffffffffffffffff82111761219d57604052565b60001981146122005760010190565b634e487b7160e01b600052601160045260246000fd5b67ffffffffffffffff811161219d5760051b60200190565b9061223882612216565b61224560405191826121cf565b8281528092612256601f1991612216565b0190602036910137565b805182101561209d5760209160051b010190565b51906001600160a01b038216820361228857565b600080fd5b9080601f830112156122885781516122a481612216565b926122b260405194856121cf565b81845260208085019260051b82010192831161228857602001905b8282106122da5750505090565b602080916122e784612274565b8152019101906122cd565b519060ff8216820361228857565b6020818303126122885780519067ffffffffffffffff8211612288570161022081830312612288576040519161233583612180565b815167ffffffffffffffff8111612288578161235291840161228d565b83526020820151600781101561228857602084015260408201516006811015612288576040840152606082015160608401526080820151608084015260a082015160a08401526123a460c083016122f2565b60c08401526123b560e083016122f2565b60e08401526101008201516101008401526101208201516101208401526123df61014083016122f2565b6101408401526123f261016083016122f2565b6101608401526101808201516101808401526101a08201516101a08401526101c082015167ffffffffffffffff811161228857820181601f8201121561228857805161243d81612216565b9161244b60405193846121cf565b81835260208084019260061b8201019084821161228857602001915b8183106124ab575050506101c08401526101e08201516101e084015261020082015167ffffffffffffffff8111612288576124a2920161228d565b61020082015290565b60408386031261228857602060409182516124c5816121b3565b6124ce86612274565b81528286015183820152815201920191612467565b9190820180921161220057565b156124f757565b60405162461bcd60e51b815260206004820152600f60248201526e496e76616c6964206164647265737360881b6044820152606490fd5b9190820391821161220057565b9060609060009260009060018060a01b031660005260086020526040600020916040518084602082965493848152019060005260206000209260005b8181106126cd57505061258c925003846121cf565b60005b83518110156125fd576125a28185612260565b5162278d0081018091116122005742106125bf575b60010161258f565b916125c9906121f1565b916125d48185612260565b5162093a808101809111612200574210156125b757946125f56001916121f1565b9590506125b7565b50939150916009549160ff83161115612680575060081c60ff1611156126355760019060405161262e6020826121cf565b6000815290565b6000906040516126466060826121cf565b602481527f416e7469416464696374696f6e3a204d6f6e74686c79206c696d69742072656160208201526318da195960e21b604082015290565b9291505060009161269460405191826121cf565b602381527f416e7469416464696374696f6e3a205765656b6c79206c696d697420726561636020820152621a195960ea1b604082015290565b8454835260019485019488945060209093019201612577565b6000546001600160a01b031633036126fa57565b63118cdaa760e01b6000523360045260246000fd5b600080546001600160a01b039283166001600160a01b03198216811783559216907f8be0079c531659141344cd1fd0a4f28419497f9722a3daafe3b4186f6b6457e09080a356fea264697066735822122050f408c6996e8acade3eb2565685a1471a452b286ce3c3f1b054cf9d3f3b873064736f6c634300081e003360808060405234607957331560635760008054336001600160a01b0319821681178355916001600160a01b03909116907f8be0079c531659141344cd1fd0a4f28419497f9722a3daafe3b4186f6b6457e09080a36001805561288f908161007f8239f35b631e4fbdf760e01b600052600060045260246000fd5b600080fdfe6080604052600436101561000f57005b6000803560e01c806301fb8d1f14611c9657806310eb0e0e14611c575780631212484814611ac057806324600fc3146117655780633072cf6014611742578063715018a6146116e85780637475a4cb146111145780637ce17de414610d405780638da5cb5b14610d19578063987c543a146108b557806398bdae43146107f4578063a52b2b88146107b5578063b2a4a5d21461077c578063b9713b77146106c1578063c033a49014610682578063c54168b31461021b578063eb2bab7714610164578063f2fde38b146101135763fa4cf5a1146100e857005b346101105780600319360112610110576002546040516001600160a01b039091168152602090f35b80fd5b50346101105760203660031901126101105761012d611dac565b6101356127a9565b6001600160a01b038116156101505761014d906127d2565b80f35b631e4fbdf760e01b82526004829052602482fd5b50806003193601126101105761017b34151561205b565b6002546001600160a01b031633036101de5761019934600f54611f34565b600f557f7272b264c9ef2a1e8e9303944736f4977b14a5761227b7b9869fecaa60f8938760406101cb34601054611f34565b806010558151903482526020820152a180f35b60405162461bcd60e51b815260206004820152601560248201527413db9b1e48199858dd1bdc9e4818d85b88199d5b99605a1b6044820152606490fd5b5061016036600319011261011057610231611dac565b6024356001600160a01b0381169290839003610110576044359260078410156104c55760c43560ff811680910361067e5760e4359060ff8216820361067a57610144359260ff841680940361067657610288612097565b60145460ff811661063b576001906102a134151561205b565b60ff1916176014556102b2866127d2565b6bffffffffffffffffffffffff60a01b600254161760025560ff196007541660ff87161760075560643560085560843560095560a435600a5561ff00600b549260081b169161ffff19161717600b5561010435600c5561012435600d5561ffff19600e541617600e5534600f5534601055806012556020906040516103378382611e6d565b818152600036813780519067ffffffffffffffff821161058b57600160401b821161058b578390600654836006558084106105da575b500160068352825b82811061059f5750505060405161038c8382611e6d565b8181528190600160401b821161058b57839060115483601155808410610507575b50016011835260008051602061281a8339815191528484925b8484106104c95750505050506007549060ff8260081c169161ff00191660075560018060a01b0360025416803b156104c55781809160246040518094819363d8d6e8ff60e01b835261041b6004840183611e11565b5af180156104ba579082916104a5575b50506006821015610491578061049157509060007fe9597995b7a2af444cc28b2b776b88b1253d701282a9bcf902d4f59750df7c579260008051602061283a83398151915283604051428152a36040514281526001600160a01b0390931692a360018055005b634e487b7160e01b81526021600452602490fd5b816104af91611e6d565b61011057803861042b565b6040513d84823e3d90fd5b5080fd5b8051805184546001600160a01b0319166001600160a01b039190911617845560200151600184810191909155916002910192019201919085906103c6565b9091506001600160ff1b0381168103610577576001600160ff1b03831683036105775790849160011b60008051602061281a833981519152018360011b60008051602061281a833981519152015b81811061056257506103ad565b85815560018101869055869350600201610555565b634e487b7160e01b84526011600452602484fd5b634e487b7160e01b83526041600452602483fd5b81516001600160a01b03167ff652222313e28459528d920b65115c16c04f3efc82aaedc97be59f3f377c0d3f82015590840190600101610375565b7ff652222313e28459528d920b65115c16c04f3efc82aaedc97be59f3f377c0d3f01837ff652222313e28459528d920b65115c16c04f3efc82aaedc97be59f3f377c0d3f015b81811061062d575061036d565b858155869350600101610620565b60405162461bcd60e51b8152602060048201526013602482015272105b1c9958591e481a5b9a5d1a585b1a5e9959606a1b6044820152606490fd5b8480fd5b8380fd5b8280fd5b50346101105760203660031901126101105760209060ff906040906001600160a01b036106ad611dac565b168152600584522054166040519015158152f35b5034610110578060031936011261011057600754600854600954600a54600b54600c54600d5490600e5492600f549460105496601254986040519a8b60ff82169061070b91611e04565b60208c019060081c60ff169061072091611e11565b60408b015260608a0152608089015260ff811660a089015260081c60ff1660c088015260e087015261010086015260ff811661012086015260081c60ff166101408501526101608401526101808301526101a08201526101c090f35b5034610110576020366003190112610110576020906040906001600160a01b036107a4611dac565b168152601583522054604051908152f35b50346101105760203660031901126101105760209060ff906040906001600160a01b036107e0611dac565b168152600484522054166040519015158152f35b503461011057806003193601126101105761080d612097565b80546001600160a01b031633148015610839575b61082a90611e9c565b6108326122a3565b6001805580f35b5060025460405163b918161160e01b815233600482015290602090829060249082906001600160a01b03165afa80156104ba57829061087a575b9050610821565b506020813d6020116108ad575b8161089460209383611e6d565b810103126104c5576108a861082a91611e8f565b610873565b3d9150610887565b5080600319360112610110576108c9612097565b6008544210610cd4574260095410610c985760065460ff600b5460081c161115610c5d57600a543403610c1857338152600360205260ff604082205416610bd357600254604051634c0252c360e11b8152336004820152908290829060249082906001600160a01b03165afa9081156104ba5782908392610b4c575b5015610b0e5750600654600160401b811015610afa5780600161096d92016006556006612043565b81549060031b9033821b9160018060a01b03901b1916179055338152600360205260408120600160ff198254161790556109a934600f54611f34565b600f556109b834601054611f34565b60105560025481906001600160a01b0316803b15610af75781809160246040518094819363c17f9e5960e01b83523360048401525af180156104ba57610ae2575b50506006546040519034825260208201527fbedd10d90b8962eb521114c7e2b49019403d371ffa1e46afbda7a3f1fde8f06f60403392a26007549061010060ff8360081c169261ff0019161760075560018060a01b0360025416803b156104c55760405163d8d6e8ff60e01b81529081602481858094600160048401525af180156104ba57908291610ab7575b5050600682101561049157806104915760018260008051602061283a8339815191526020604051428152a360018055005b81610ac191611e6d565b610110578038610a86565b634e487b7160e01b600052602160045260246000fd5b81610aec91611e6d565b6101105780386109f9565b50fd5b634e487b7160e01b82526041600452602482fd5b6044604051809262461bcd60e51b825260206004830152610b3e8151809281602486015260208686019101612005565b601f01601f19168101030190fd5b9150503d8083833e610b5e8183611e6d565b81019060408183031261067e57610b7481611e8f565b9060208101519067ffffffffffffffff8211610676570182601f8201121561067a578051610ba181611fb9565b93610baf6040519586611e6d565b8185526020828401011161067657610bcd9160208086019101612005565b38610945565b60405162461bcd60e51b815260206004820152601760248201527f506c6179657220616c726561647920656e726f6c6c65640000000000000000006044820152606490fd5b60405162461bcd60e51b815260206004820152601b60248201527f496e636f727265637420656e726f6c6c6d656e7420616d6f756e7400000000006044820152606490fd5b60405162461bcd60e51b815260206004820152601360248201527213585e081c1b185e595c9cc81c995858da1959606a1b6044820152606490fd5b60405162461bcd60e51b8152602060048201526014602482015273115b9c9bdb1b1b595b9d081a185cc8195b99195960621b6044820152606490fd5b60405162461bcd60e51b815260206004820152601e60248201527f456e726f6c6c6d656e7420686173206e6f7420737461727465642079657400006044820152606490fd5b5034610110578060031936011261011057546040516001600160a01b039091168152602090f35b50346101105780600319360112610110576060610200604051610d6281611e50565b82815283602082015283604082015283838201528360808201528360a08201528360c08201528360e08201528361010082015283610120820152836101408201528361016082015283610180820152836101a0820152826101c0820152836101e08201520152604051610dd481611e50565b6040516006548082528160208101600686526020862092865b8181106110f2575050610e0292500382611e6d565b815260075460ff811660078110156110de57602083015260081c60ff1660068110156110ca57604082015260085460608201526009546080820152600a5460a082015260ff600b5481811660c084015260081c1660e0820152600c54610100820152600d5461012082015260ff600e5481811661014084015260081c16610160820152600f546101808201526010546101a082015260115467ffffffffffffffff811161058b5760208160051b0190610ebe6040519283611e6d565b808252601184528360008051602061281a833981519152602084015b83831061109657505050506101c08201526012546101e08201526040516013548082528160208101601386526020862092865b818110611074575050610f2292500382611e6d565b6102008201526040519060208252610f4881516102206020850152610240840190611dc7565b92610f5b60208301516040850190611e04565b610f6d60408301516060850190611e11565b60608201516080840152608082015160a084015260a082015160c084015260ff60c08301511660e084015260ff60e08301511661010084015261010082015161012084015261012082015161014084015260ff6101408301511661016084015260ff610160830151166101808401526101808201516101a08401526101a08201516101c08401526101c082015193601f19848203016101e0850152602080865192838152019501915b81811061104957848061104588610200886101e0810151828601520151601f1984830301610220850152611dc7565b0390f35b825180516001600160a01b031687526020908101518188015260409096019590920191600101611016565b84546001600160a01b0316835260019485019486945060209093019201610f0d565b600260206001926040516110a981611e1e565b848060a01b0386541681528486015483820152815201920192019190610eda565b634e487b7160e01b83526021600452602483fd5b634e487b7160e01b84526021600452602484fd5b84546001600160a01b0316835260019485019486945060209093019201610ded565b503461011057806003193601126101105761112d612097565b601254801590811561169c575b501561166357338152600460205260ff60408220541661161e57338152600360205260ff604082205416156115d957600c54421061159457600d5442101561155b5760ff60075460081c166006811015611416576002810361151e57600e5460ff8082169160081c1610156114e2576003146114d5575b600c546111be8142611f57565b906064820291808304606414901517156114b957906111e26111e892600d54611f57565b90611f64565b60115480156114cd5760001981019081116114b957611208600191611f84565b500154905b6064820291808304606414901517156114b95761123790611231600f548094611f64565b90611f57565b8181029181830414901517156114a5576064900461125781601054611f57565b601055600e5460ff8160081c1660ff811461057757600161ff00910160081b169061ff00191617600e55338252600460205260408220600160ff198254161790556040516112a481611e1e565b338152816020820152601154600160401b811015611491578060016112cc9201601155611f84565b61147d57815181546001600160a01b0319166001600160a01b03919091161781556020909101516001909101558180808084335af1611309611fd5565b501561143f5760ff600e54818160081c16809360105460405191825260208201527fbbdd894f5e6d754c18172761a1a461095c26de58905e706a8c33657573d4067260403392a316036113665761135e612210565b610832612720565b60075461030060ff8260081c169161ff0019161760075560018060a01b0360025416803b1561067e5760405163d8d6e8ff60e01b81528381602481838096600360048401525af180156104ba5761142a575b5050426012557fae3ba0777e3d90978a607fca3c27811130deb71f173b067e83f1bcbd10173b4a6020604051428152a1600681101561141657816114165760039060008051602061283a8339815191526020604051428152a3610832565b634e487b7160e01b82526021600452602482fd5b8161143491611e6d565b6104c55781386113b8565b60405162461bcd60e51b815260206004820152601660248201527514185e5bdd5d081d1c985b9cd9995c8819985a5b195960521b6044820152606490fd5b634e487b7160e01b84526004849052602484fd5b634e487b7160e01b84526041600452602484fd5b634e487b7160e01b82526011600452602482fd5b634e487b7160e01b83526011600452602483fd5b50819061120d565b6114dd6120b9565b6111b1565b60405162461bcd60e51b8152602060048201526014602482015273105b1b081c9bdd5b991cc818dbdb5c1b195d195960621b6044820152606490fd5b60405162461bcd60e51b81526020600482015260156024820152744d697373696f6e206973206e6f742041637469766560581b6044820152606490fd5b60405162461bcd60e51b8152602060048201526011602482015270135a5cdcda5bdb881a185cc8195b991959607a1b6044820152606490fd5b60405162461bcd60e51b815260206004820152601b60248201527f4d697373696f6e20686173206e6f7420737461727465642079657400000000006044820152606490fd5b60405162461bcd60e51b815260206004820152601760248201527f4e6f7420656e726f6c6c656420696e206d697373696f6e0000000000000000006044820152606490fd5b60405162461bcd60e51b815260206004820152601f60248201527f506c6179657220616c726561647920776f6e2074686973206d697373696f6e006044820152606490fd5b60405162461bcd60e51b8152602060048201526011602482015270135a5cdcda5bdb881a5cc81c185d5cd959607a1b6044820152606490fd5b919050600e5491600160ff8460081c160160ff81116114b95791926116d49260ff9081169116036116dd5761ffff603c5b1690611f34565b4210153861113a565b61ffff61012c6116cd565b50346101105780600319360112610110576117016127a9565b80546001600160a01b03198116825581906001600160a01b03167f8be0079c531659141344cd1fd0a4f28419497f9722a3daafe3b4186f6b6457e08280a380f35b5034610110578060031936011261011057602060ff601454166040519015158152f35b503461011057806003193601126101105761177e612097565b80546001600160a01b031633148015611a44575b61179b90611e9c565b60ff60075460081c1660068110156114165760048114908115611a39575b5015611a00574780156117d581156117d0816126dd565b6126dd565b601982029082820460191417156114b95760646117f491048092611f57565b600254604051638da5cb5b60e01b81528491602090829060049082906001600160a01b03165afa9081156104ba578291859183916119b8575b50829182916001600160a01b03165af1611845611fd5565b501561197b57828080808460018060a01b03600254165af1611865611fd5565b50156119365760018060a01b03600254168360ff60075416823b156104c55760446118ad918360405195869485936304e1e9d160e51b85528960048601526024850190611e04565b5af1801561192b576118f2575b507fd66662c0ded9e58fd31d5e44944bcfd07ffc15e6927ecc1382e7941cb7bd24c49160409182519182526020820152a16001805580f35b9183611922604093957fd66662c0ded9e58fd31d5e44944bcfd07ffc15e6927ecc1382e7941cb7bd24c495611e6d565b939150916118ba565b6040513d86823e3d90fd5b60405162461bcd60e51b815260206004820152601760248201527f466163746f7279207472616e73666572206661696c65640000000000000000006044820152606490fd5b60405162461bcd60e51b815260206004820152601560248201527413dddb995c881d1c985b9cd9995c8819985a5b1959605a1b6044820152606490fd5b925050506020813d6020116119f8575b816119d560209383611e6d565b810103126104c557516001600160a01b03811681036104c557819084908261182d565b3d91506119c8565b60405162461bcd60e51b8152602060048201526011602482015270135a5cdcda5bdb881b9bdd08195b991959607a1b6044820152606490fd5b6005915014386117b9565b5060025460405163b918161160e01b815233600482015290602090829060249082906001600160a01b03165afa80156104ba578290611a85575b9050611792565b506020813d602011611ab8575b81611a9f60209383611e6d565b810103126104c557611ab361179b91611e8f565b611a7e565b3d9150611a92565b503461011057806003193601126101105780546001600160a01b031633148015611bdb575b611aee90611e9c565b611af6612097565b600d54421115611b9e5760ff60075460081c1660068110156114165760028114908115611b93575b5015611b4e57600e5460081c60ff16611b395761082a61217c565b611b41612210565b611b49612720565b610832565b60405162461bcd60e51b815260206004820152601b60248201527f4d697373696f6e2063616e6e6f742062652066696e616c697a656400000000006044820152606490fd5b600391501438611b1e565b60405162461bcd60e51b8152602060048201526015602482015274135a5cdcda5bdb881b9bdd08195b991959081e595d605a1b6044820152606490fd5b5060025460405163b918161160e01b815233600482015290602090829060249082906001600160a01b03165afa80156104ba578290611c1c575b9050611ae5565b506020813d602011611c4f575b81611c3660209383611e6d565b810103126104c557611c4a611aee91611e8f565b611c15565b3d9150611c29565b50346101105760203660031901126101105760209060ff906040906001600160a01b03611c82611dac565b168152600384522054166040519015158152f35b5034610110578060031936011261011057611caf612097565b80546001600160a01b031633148015611d30575b611ccc90611e9c565b611cda600954421015611ee8565b600654600b5460ff161115611cf15761082a61217c565b611cf96120b9565b7f413bcdce36601de9d10af5354f226f61d5dde1e304291e211ced6a6dee6b255660406006548151904282526020820152a1610832565b5060025460405163b918161160e01b815233600482015290602090829060249082906001600160a01b03165afa80156104ba578290611d71575b9050611cc3565b506020813d602011611da4575b81611d8b60209383611e6d565b810103126104c557611d9f611ccc91611e8f565b611d6a565b3d9150611d7e565b600435906001600160a01b0382168203611dc257565b600080fd5b906020808351928381520192019060005b818110611de55750505090565b82516001600160a01b0316845260209384019390920191600101611dd8565b906007821015610acc5752565b906006821015610acc5752565b6040810190811067ffffffffffffffff821117611e3a57604052565b634e487b7160e01b600052604160045260246000fd5b610220810190811067ffffffffffffffff821117611e3a57604052565b90601f8019910116810190811067ffffffffffffffff821117611e3a57604052565b51908115158203611dc257565b15611ea357565b60405162461bcd60e51b815260206004820152601760248201527f4e6f74206f776e6572206f7220617574686f72697a65640000000000000000006044820152606490fd5b15611eef57565b60405162461bcd60e51b815260206004820152601860248201527f456e726f6c6c6d656e74207374696c6c206f6e676f696e6700000000000000006044820152606490fd5b91908201809211611f4157565b634e487b7160e01b600052601160045260246000fd5b91908203918211611f4157565b8115611f6e570490565b634e487b7160e01b600052601260045260246000fd5b601154811015611fa357601160005260206000209060011b0190600090565b634e487b7160e01b600052603260045260246000fd5b67ffffffffffffffff8111611e3a57601f01601f191660200190565b3d15612000573d90611fe682611fb9565b91611ff46040519384611e6d565b82523d6000602084013e565b606090565b60005b8381106120185750506000910152565b8181015183820152602001612008565b600654811015611fa357600660005260206000200190600090565b8054821015611fa35760005260206000200190600090565b1561206257565b60405162461bcd60e51b815260206004820152600d60248201526c139bc8199d5b991cc81cd95b9d609a1b6044820152606490fd5b6002600154146120a8576002600155565b633ee5aeb560e01b60005260046000fd5b60075461020060ff8260081c169161ff0019161760075560018060a01b0360025416803b15611dc25760405163d8d6e8ff60e01b8152600260048201525a81602481600080968195f180156104ba57829061216c575b905050806012557f90819cd8de9b72986080ab279ab70683338d97e13bbb542d0c4320ef2ff9557f6020604051428152a160068210156104915780610491575060029060008051602061283a8339815191526020604051428152a3565b61217591611e6d565b388161210f565b60075461050060ff8260081c169161ff0019161760075560018060a01b0360025416803b15611dc25760405163d8d6e8ff60e01b8152600560048201525a81602481600080968195f180156104ba578290612200575b505060068210156104915780610491575060059060008051602061283a8339815191526020604051428152a3565b61220991611e6d565b38816121d2565b60075461040060ff8260081c169161ff0019161760075560018060a01b0360025416803b15611dc25760405163d8d6e8ff60e01b81526004808201525a81602481600080968195f180156104ba578290612293575b505060068210156104915780610491575060049060008051602061283a8339815191526020604051428152a3565b61229c91611e6d565b3881612265565b600954906122b5600092421015611ee8565b60ff60075460081c1660068110156110ca57600503612698576006541561265c57600190825b600654811015612427576122ee81612028565b905460039190911b1c6001600160a01b03168085526005602052604085205460ff161561231f575b506001016122db565b84808080600a54855af1612331611fd5565b50156123d257808552600560205260408520805460ff19166001179055601354600160401b8110156123be5790612372826001809594016013556013612043565b81549060031b9083821b91868060a01b03901b19161790557f48d31f1c958cd44f1f83a52ae2dfaf61e88a1b82c07a6d5711a4abef60b6531e6020600a54604051908152a25b90612316565b634e487b7160e01b86526041600452602486fd5b909250600a5481855260156020526123ef60408620918254611f34565b90557faf73b0b217208b61be286bbc37095bce7eb8b9ccf617244c2f0f154e8e04e3ff6020600a54604051908152a2600183926123b8565b50919060ff60075460081c1660068110156110ca5760048114908115612651575b5015611a0057479061245b8215156126dd565b156125e757905b811561246e81156126dd565b601983029083820460191417156114a557606461248d91048093611f57565b600254604051638da5cb5b60e01b815291929190602090829060049082906001600160a01b03165afa9081156104ba5782918591839161259f575b50829182918291906001600160a01b03165af16124e3611fd5565b501561197b57808080808560018060a01b03600254165af1612503611fd5565b50156119365760018060a01b036002541660ff60075416813b1561067e5761254b604484928360405195869485936304e1e9d160e51b85528a60048601526024850190611e04565b5af180156104ba5791604093917fd66662c0ded9e58fd31d5e44944bcfd07ffc15e6927ecc1382e7941cb7bd24c4959361258f575b505082519182526020820152a1565b8161259991611e6d565b38612580565b925050506020813d6020116125df575b816125bc60209383611e6d565b810103126104c557516001600160a01b03811681036104c55781908490826124c8565b3d91506125af565b919080816006545b8082106126185750508361260a929394821161261057611f57565b90612462565b905080611f57565b909161264960019161262985612028565b848060a01b0391549060031b1c1686526015602052604086205490611f34565b9201906125ef565b600591501438612448565b60405162461bcd60e51b8152602060048201526014602482015273139bc81c1b185e595c9cc81d1bc81c99599d5b9960621b6044820152606490fd5b60405162461bcd60e51b815260206004820152601f60248201527f4d697373696f6e206973206e6f7420696e204661696c656420737461747573006044820152606490fd5b156126e457565b60405162461bcd60e51b81526020600482015260146024820152734e6f2066756e647320746f20776974686472617760601b6044820152606490fd5b60009060ff60075460081c1660068110156110ca576004811490811561279e575b5015611a005747916127548315156126dd565b50600080816006545b80821061278557505083612778929394821161261057611f57565b90811561246e81156126dd565b909161279660019161262985612028565b92019061275d565b600591501438612741565b6000546001600160a01b031633036127bd57565b63118cdaa760e01b6000523360045260246000fd5b600080546001600160a01b039283166001600160a01b03198216811783559216907f8be0079c531659141344cd1fd0a4f28419497f9722a3daafe3b4186f6b6457e09080a356fe31ecc21a745e3968a04e9570e4425bc18fa8019c68028196b546d1669c200c6839ba628632d48c45c7f562c07db20a44cf68423691d5d79b20f87ba84138aedfa264697066735822122010b46e15dd236a65409fb1d2a8fbb1a0f28ea4b429261935a696c28ab27e055564736f6c634300081e0033","opcodes":"PUSH1 0x80 DUP1 PUSH1 0x40 MSTORE CALLVALUE PUSH2 0xF9 JUMPI CALLER ISZERO PUSH2 0xE3 JUMPI PUSH1 0x0 DUP1 SLOAD CALLER PUSH1 0x1 PUSH1 0x1 PUSH1 0xA0 SHL SUB NOT DUP3 AND DUP2 OR DUP4 SSTORE SWAP2 PUSH1 0x1 PUSH1 0x1 PUSH1 0xA0 SHL SUB SWAP1 SWAP2 AND SWAP1 PUSH32 0x8BE0079C531659141344CD1FD0A4F28419497F9722A3DAAFE3B4186F6B6457E0 SWAP1 DUP1 LOG3 PUSH1 0x1 DUP1 SSTORE PUSH1 0x9 DUP1 SLOAD PUSH2 0xFFFF NOT AND PUSH2 0xA04 OR SWAP1 SSTORE PUSH2 0x290E DUP2 DUP2 ADD PUSH1 0x1 PUSH1 0x1 PUSH1 0x40 SHL SUB DUP2 GT DUP4 DUP3 LT OR PUSH2 0xCD JUMPI DUP3 SWAP2 PUSH2 0x288B DUP4 CODECOPY SUB SWAP1 PUSH1 0x0 CREATE DUP1 ISZERO PUSH2 0xC1 JUMPI PUSH1 0x6 DUP1 SLOAD PUSH1 0x1 PUSH1 0x1 PUSH1 0xA0 SHL SUB NOT AND PUSH1 0x1 PUSH1 0x1 PUSH1 0xA0 SHL SUB SWAP3 SWAP1 SWAP3 AND SWAP2 SWAP1 SWAP2 OR SWAP1 SSTORE PUSH1 0x40 MLOAD PUSH2 0x278C SWAP1 DUP2 PUSH2 0xFF DUP3 CODECOPY RETURN JUMPDEST PUSH1 0x40 MLOAD RETURNDATASIZE PUSH1 0x0 DUP3 RETURNDATACOPY RETURNDATASIZE SWAP1 REVERT JUMPDEST PUSH4 0x4E487B71 PUSH1 0xE0 SHL PUSH1 0x0 MSTORE PUSH1 0x41 PUSH1 0x4 MSTORE PUSH1 0x24 PUSH1 0x0 REVERT JUMPDEST PUSH4 0x1E4FBDF7 PUSH1 0xE0 SHL PUSH1 0x0 MSTORE PUSH1 0x0 PUSH1 0x4 MSTORE PUSH1 0x24 PUSH1 0x0 REVERT JUMPDEST PUSH1 0x0 DUP1 REVERT INVALID PUSH1 0x80 DUP1 PUSH1 0x40 MSTORE PUSH1 0x4 CALLDATASIZE LT ISZERO PUSH2 0x11 JUMPI JUMPDEST STOP JUMPDEST PUSH1 0x0 SWAP1 DUP2 CALLDATALOAD PUSH1 0xE0 SHR SWAP1 DUP2 PUSH4 0x814AB82 EQ PUSH2 0x1FD1 JUMPI POP DUP1 PUSH4 0xA6005DA EQ PUSH2 0x1FAD JUMPI DUP1 PUSH4 0x155DD5EE EQ PUSH2 0x1DEB JUMPI DUP1 PUSH4 0x1E59D584 EQ PUSH2 0x1BFB JUMPI DUP1 PUSH4 0x20C5718F EQ PUSH2 0x197F JUMPI DUP1 PUSH4 0x21040FC3 EQ PUSH2 0x1857 JUMPI DUP1 PUSH4 0x2C8FE526 EQ PUSH2 0x1813 JUMPI DUP1 PUSH4 0x2E33B07F EQ PUSH2 0x3AE JUMPI DUP1 PUSH4 0x3C213957 EQ PUSH2 0x1600 JUMPI DUP1 PUSH4 0x42F1181E EQ PUSH2 0x150F JUMPI DUP1 PUSH4 0x6805036D EQ PUSH2 0x1379 JUMPI DUP1 PUSH4 0x6D8A1390 EQ PUSH2 0x10A4 JUMPI DUP1 PUSH4 0x70712939 EQ PUSH2 0xFB9 JUMPI DUP1 PUSH4 0x715018A6 EQ PUSH2 0xF5F JUMPI DUP1 PUSH4 0x861A68D6 EQ PUSH2 0xF3E JUMPI DUP1 PUSH4 0x8DA5CB5B EQ PUSH2 0xF17 JUMPI DUP1 PUSH4 0x9804A586 EQ PUSH2 0xECA JUMPI DUP1 PUSH4 0x9B159539 EQ PUSH2 0x9E4 JUMPI DUP1 PUSH4 0x9C3D3A20 EQ PUSH2 0x8A5 JUMPI DUP1 PUSH4 0xB6202913 EQ PUSH2 0x6E2 JUMPI DUP1 PUSH4 0xB9181611 EQ PUSH2 0x6A0 JUMPI DUP1 PUSH4 0xBD487725 EQ PUSH2 0x677 JUMPI DUP1 PUSH4 0xC17F9E59 EQ PUSH2 0x3E1 JUMPI DUP1 PUSH4 0xC416AD2A EQ PUSH2 0x3AE JUMPI DUP1 PUSH4 0xD3050EBA EQ PUSH2 0x390 JUMPI DUP1 PUSH4 0xD41ECA64 EQ PUSH2 0x2E2 JUMPI DUP1 PUSH4 0xD8D6E8FF EQ PUSH2 0x212 JUMPI DUP1 PUSH4 0xF2FDE38B EQ PUSH2 0x1BB JUMPI PUSH4 0xFB4CDEA7 SUB PUSH2 0xF JUMPI CALLVALUE PUSH2 0x1B8 JUMPI PUSH1 0x20 CALLDATASIZE PUSH1 0x3 NOT ADD SLT PUSH2 0x1B8 JUMPI PUSH1 0x4 CALLDATALOAD PUSH1 0x1 PUSH1 0x1 PUSH1 0xA0 SHL SUB DUP2 AND SWAP1 DUP2 SWAP1 SUB PUSH2 0x1B6 JUMPI DUP2 MSTORE PUSH1 0x7 PUSH1 0x20 SWAP1 DUP2 MSTORE PUSH1 0x40 SWAP2 DUP3 SWAP1 KECCAK256 DUP1 SLOAD PUSH1 0x1 SWAP1 SWAP2 ADD SLOAD DUP4 MLOAD PUSH1 0x1 PUSH1 0x1 PUSH1 0xA0 SHL SUB SWAP1 SWAP3 AND DUP3 MSTORE SWAP2 DUP2 ADD SWAP2 SWAP1 SWAP2 MSTORE SWAP1 DUP2 SWAP1 DUP2 ADD JUMPDEST SUB SWAP1 RETURN JUMPDEST POP JUMPDEST DUP1 REVERT JUMPDEST POP CALLVALUE PUSH2 0x1B8 JUMPI PUSH1 0x20 CALLDATASIZE PUSH1 0x3 NOT ADD SLT PUSH2 0x1B8 JUMPI PUSH1 0x4 CALLDATALOAD PUSH1 0x1 PUSH1 0x1 PUSH1 0xA0 SHL SUB DUP2 AND DUP1 DUP3 SUB PUSH2 0x20E JUMPI PUSH2 0x1E9 PUSH2 0x26E6 JUMP JUMPDEST ISZERO PUSH2 0x1FA JUMPI PUSH2 0x1F7 SWAP1 PUSH2 0x270F JUMP JUMPDEST DUP1 RETURN JUMPDEST PUSH4 0x1E4FBDF7 PUSH1 0xE0 SHL DUP3 MSTORE PUSH1 0x4 DUP3 SWAP1 MSTORE PUSH1 0x24 DUP3 REVERT JUMPDEST DUP3 DUP1 REVERT JUMPDEST POP CALLVALUE PUSH2 0x1B8 JUMPI PUSH1 0x20 CALLDATASIZE PUSH1 0x3 NOT ADD SLT PUSH2 0x1B8 JUMPI PUSH1 0x4 CALLDATALOAD PUSH1 0x6 DUP2 LT ISZERO PUSH2 0x1B6 JUMPI CALLER DUP3 MSTORE PUSH1 0x4 PUSH1 0x20 MSTORE PUSH1 0xFF PUSH1 0x40 DUP4 KECCAK256 SLOAD AND PUSH1 0x6 DUP2 LT ISZERO PUSH2 0x2CE JUMPI ISZERO PUSH2 0x26A JUMPI CALLER DUP3 MSTORE PUSH1 0x4 PUSH1 0x20 MSTORE PUSH1 0x40 DUP3 KECCAK256 SWAP1 PUSH1 0xFF DUP1 NOT DUP4 SLOAD AND SWAP2 AND OR SWAP1 SSTORE DUP1 RETURN JUMPDEST PUSH1 0x40 MLOAD PUSH3 0x461BCD PUSH1 0xE5 SHL DUP2 MSTORE PUSH1 0x20 PUSH1 0x4 DUP3 ADD MSTORE PUSH1 0x36 PUSH1 0x24 DUP3 ADD MSTORE PUSH32 0x4D697373696F6E466163746F72793A2063616C6C6572206973206E6F74206120 PUSH1 0x44 DUP3 ADD MSTORE PUSH22 0x1D985B1A59081B5A5CDCDA5BDB8818DBDB9D1C9858DD PUSH1 0x52 SHL PUSH1 0x64 DUP3 ADD MSTORE PUSH1 0x84 SWAP1 REVERT JUMPDEST PUSH4 0x4E487B71 PUSH1 0xE0 SHL DUP4 MSTORE PUSH1 0x21 PUSH1 0x4 MSTORE PUSH1 0x24 DUP4 REVERT JUMPDEST POP CALLVALUE PUSH2 0x1B8 JUMPI PUSH1 0x40 CALLDATASIZE PUSH1 0x3 NOT ADD SLT PUSH2 0x1B8 JUMPI PUSH1 0x4 CALLDATALOAD PUSH1 0xFF DUP2 AND DUP1 SWAP2 SUB PUSH2 0x1B6 JUMPI PUSH1 0x24 CALLDATALOAD PUSH1 0xFF DUP2 AND SWAP2 DUP3 DUP3 SUB PUSH2 0x38C JUMPI PUSH32 0x321994B8855AE38E4FD6162F7A0BD7CDE88BE83AA3ACC96E03C17B7F733B43E1 SWAP3 PUSH1 0x40 SWAP3 PUSH1 0x1 DUP1 PUSH1 0xA0 SHL SUB DUP7 SLOAD AND CALLER EQ DUP1 ISZERO PUSH2 0x377 JUMPI JUMPDEST PUSH2 0x352 SWAP1 PUSH2 0x2125 JUMP JUMPDEST DUP3 PUSH2 0xFF00 PUSH1 0x9 SLOAD SWAP3 PUSH1 0x8 SHL AND SWAP2 PUSH2 0xFFFF NOT AND OR OR PUSH1 0x9 SSTORE DUP3 MLOAD SWAP2 DUP3 MSTORE PUSH1 0x20 DUP3 ADD MSTORE LOG1 DUP1 RETURN JUMPDEST POP CALLER DUP7 MSTORE PUSH1 0x2 PUSH1 0x20 MSTORE DUP4 DUP7 KECCAK256 SLOAD PUSH1 0xFF AND PUSH2 0x349 JUMP JUMPDEST DUP4 DUP1 REVERT JUMPDEST POP CALLVALUE PUSH2 0x1B8 JUMPI DUP1 PUSH1 0x3 NOT CALLDATASIZE ADD SLT PUSH2 0x1B8 JUMPI PUSH1 0x20 PUSH1 0x40 MLOAD PUSH3 0x15180 DUP2 MSTORE RETURN JUMPDEST POP CALLVALUE PUSH2 0x1B8 JUMPI PUSH1 0x20 CALLDATASIZE PUSH1 0x3 NOT ADD SLT PUSH2 0x1B8 JUMPI PUSH1 0x4 CALLDATALOAD SWAP1 PUSH1 0x7 DUP3 LT ISZERO PUSH2 0x1B8 JUMPI PUSH1 0x20 PUSH2 0x3D8 DUP4 PUSH2 0x210C JUMP JUMPDEST SLOAD PUSH1 0x40 MLOAD SWAP1 DUP2 MSTORE RETURN JUMPDEST POP CALLVALUE PUSH2 0x1B8 JUMPI PUSH1 0x20 CALLDATASIZE PUSH1 0x3 NOT ADD SLT PUSH2 0x1B8 JUMPI PUSH1 0x4 CALLDATALOAD PUSH1 0x1 PUSH1 0x1 PUSH1 0xA0 SHL SUB DUP2 AND SWAP1 DUP2 DUP2 SUB PUSH2 0x20E JUMPI CALLER DUP4 MSTORE PUSH1 0x4 PUSH1 0x20 MSTORE PUSH1 0xFF PUSH1 0x40 DUP5 KECCAK256 SLOAD AND PUSH1 0x6 DUP2 LT ISZERO PUSH2 0x663 JUMPI PUSH1 0x1 EQ DUP1 ISZERO PUSH2 0x641 JUMPI JUMPDEST ISZERO PUSH2 0x60B JUMPI PUSH2 0x439 SWAP1 PUSH2 0x253B JUMP JUMPDEST SWAP1 ISZERO PUSH2 0x5E3 JUMPI POP PUSH3 0x278CFF NOT TIMESTAMP ADD SWAP1 TIMESTAMP DUP3 GT PUSH2 0x5CF JUMPI DUP1 DUP4 MSTORE PUSH1 0x8 PUSH1 0x20 MSTORE PUSH1 0x40 DUP4 KECCAK256 DUP1 SLOAD SWAP3 DUP5 JUMPDEST DUP5 DUP2 LT DUP1 PUSH2 0x5B6 JUMPI JUMPDEST ISZERO PUSH2 0x47C JUMPI PUSH2 0x477 SWAP1 PUSH2 0x21F1 JUMP JUMPDEST PUSH2 0x460 JUMP JUMPDEST DUP4 DUP4 DUP8 SWAP3 DUP1 PUSH2 0x502 JUMPI JUMPDEST POP DUP1 SLOAD SWAP1 PUSH1 0x1 PUSH1 0x40 SHL DUP3 LT ISZERO PUSH2 0x4EE JUMPI DUP2 PUSH2 0x4A9 SWAP2 PUSH1 0x1 PUSH2 0x4C1 SWAP5 ADD DUP2 SSTORE PUSH2 0x20B3 JUMP JUMPDEST TIMESTAMP SWAP1 DUP3 SLOAD SWAP1 PUSH1 0x3 SHL SWAP2 DUP3 SHL SWAP2 PUSH1 0x0 NOT SWAP1 SHL NOT AND OR SWAP1 SSTORE JUMP JUMPDEST PUSH32 0x498F5E6DCF570483A1848853791046A7F10012193176D71F959F46EB7713D744 PUSH1 0x20 PUSH1 0x40 MLOAD TIMESTAMP DUP2 MSTORE LOG2 DUP1 RETURN JUMPDEST PUSH4 0x4E487B71 PUSH1 0xE0 SHL DUP5 MSTORE PUSH1 0x41 PUSH1 0x4 MSTORE PUSH1 0x24 DUP5 REVERT JUMPDEST SWAP3 DUP1 JUMPDEST PUSH2 0x510 DUP6 DUP5 SLOAD PUSH2 0x252E JUMP JUMPDEST DUP2 LT ISZERO PUSH2 0x560 JUMPI DUP1 PUSH2 0x55A PUSH2 0x530 PUSH2 0x52A DUP9 PUSH1 0x1 SWAP6 PUSH2 0x24E3 JUMP JUMPDEST DUP7 PUSH2 0x20B3 JUMP JUMPDEST SWAP1 SLOAD SWAP1 PUSH1 0x3 SHL SHR PUSH2 0x541 DUP4 DUP8 PUSH2 0x20B3 JUMP JUMPDEST SWAP1 SWAP2 SWAP1 DUP3 SLOAD SWAP1 PUSH1 0x3 SHL SWAP2 DUP3 SHL SWAP2 PUSH1 0x0 NOT SWAP1 SHL NOT AND OR SWAP1 SSTORE JUMP JUMPDEST ADD PUSH2 0x505 JUMP JUMPDEST POP SWAP3 DUP4 JUMPDEST DUP2 DUP2 LT PUSH2 0x571 JUMPI POP PUSH2 0x486 JUMP JUMPDEST DUP3 SLOAD DUP1 ISZERO PUSH2 0x5A2 JUMPI PUSH1 0x1 SWAP2 SWAP1 PUSH1 0x0 NOT ADD PUSH2 0x58B DUP2 DUP7 PUSH2 0x20B3 JUMP JUMPDEST DUP2 SLOAD SWAP1 PUSH1 0x0 NOT SWAP1 PUSH1 0x3 SHL SHL NOT AND SWAP1 SSTORE DUP5 SSTORE ADD PUSH2 0x564 JUMP JUMPDEST PUSH4 0x4E487B71 PUSH1 0xE0 SHL DUP7 MSTORE PUSH1 0x31 PUSH1 0x4 MSTORE PUSH1 0x24 DUP7 REVERT JUMPDEST POP DUP2 PUSH2 0x5C2 DUP3 DUP6 PUSH2 0x20B3 JUMP JUMPDEST SWAP1 SLOAD SWAP1 PUSH1 0x3 SHL SHR LT PUSH2 0x469 JUMP JUMPDEST PUSH4 0x4E487B71 PUSH1 0xE0 SHL DUP4 MSTORE PUSH1 0x11 PUSH1 0x4 MSTORE PUSH1 0x24 DUP4 REVERT JUMPDEST PUSH1 0x40 MLOAD PUSH3 0x461BCD PUSH1 0xE5 SHL DUP2 MSTORE PUSH1 0x20 PUSH1 0x4 DUP3 ADD MSTORE SWAP1 DUP2 SWAP1 PUSH2 0x607 SWAP1 PUSH1 0x24 DUP4 ADD SWAP1 PUSH2 0x20CB JUMP JUMPDEST SUB SWAP1 REVERT JUMPDEST PUSH1 0x40 MLOAD PUSH3 0x461BCD PUSH1 0xE5 SHL DUP2 MSTORE PUSH1 0x20 PUSH1 0x4 DUP3 ADD MSTORE PUSH1 0xE PUSH1 0x24 DUP3 ADD MSTORE PUSH14 0x24B73B30B634B21031B0B63632B9 PUSH1 0x91 SHL PUSH1 0x44 DUP3 ADD MSTORE PUSH1 0x64 SWAP1 REVERT JUMPDEST POP CALLER DUP4 MSTORE PUSH1 0x4 PUSH1 0x20 MSTORE PUSH1 0xFF PUSH1 0x40 DUP5 KECCAK256 SLOAD AND PUSH1 0x6 DUP2 LT ISZERO PUSH2 0x663 JUMPI PUSH1 0x2 EQ PUSH2 0x42B JUMP JUMPDEST PUSH4 0x4E487B71 PUSH1 0xE0 SHL DUP5 MSTORE PUSH1 0x21 PUSH1 0x4 MSTORE PUSH1 0x24 DUP5 REVERT JUMPDEST POP CALLVALUE PUSH2 0x1B8 JUMPI DUP1 PUSH1 0x3 NOT CALLDATASIZE ADD SLT PUSH2 0x1B8 JUMPI PUSH1 0x6 SLOAD PUSH1 0x40 MLOAD PUSH1 0x1 PUSH1 0x1 PUSH1 0xA0 SHL SUB SWAP1 SWAP2 AND DUP2 MSTORE PUSH1 0x20 SWAP1 RETURN JUMPDEST POP CALLVALUE PUSH2 0x1B8 JUMPI PUSH1 0x20 CALLDATASIZE PUSH1 0x3 NOT ADD SLT PUSH2 0x1B8 JUMPI PUSH1 0x4 CALLDATALOAD PUSH1 0x1 PUSH1 0x1 PUSH1 0xA0 SHL SUB DUP2 AND SWAP1 DUP2 SWAP1 SUB PUSH2 0x1B6 JUMPI PUSH1 0x40 DUP3 PUSH1 0xFF SWAP3 PUSH1 0x20 SWAP5 MSTORE PUSH1 0x2 DUP5 MSTORE KECCAK256 SLOAD AND PUSH1 0x40 MLOAD SWAP1 ISZERO ISZERO DUP2 MSTORE RETURN JUMPDEST POP CALLVALUE PUSH2 0x1B8 JUMPI DUP1 PUSH1 0x3 NOT CALLDATASIZE ADD SLT PUSH2 0x1B8 JUMPI PUSH1 0x5 SLOAD DUP2 DUP3 JUMPDEST DUP3 DUP2 LT PUSH2 0x7F7 JUMPI POP PUSH2 0x70A SWAP1 PUSH2 0x222E JUMP JUMPDEST SWAP1 DUP3 DUP4 JUMPDEST DUP3 DUP2 LT PUSH2 0x72B JUMPI PUSH1 0x40 MLOAD PUSH1 0x20 DUP1 DUP3 MSTORE DUP2 SWAP1 PUSH2 0x1B2 SWAP1 DUP3 ADD DUP8 PUSH2 0x2038 JUMP JUMPDEST PUSH2 0x734 DUP2 PUSH2 0x2082 JUMP JUMPDEST SWAP1 SLOAD PUSH1 0x3 SWAP2 SWAP1 SWAP2 SHL SHR PUSH1 0x1 PUSH1 0x1 PUSH1 0xA0 SHL SUB AND DUP6 MSTORE PUSH1 0x4 PUSH1 0x20 MSTORE PUSH1 0x40 DUP6 KECCAK256 SLOAD PUSH1 0xFF AND PUSH1 0x6 DUP2 LT ISZERO PUSH2 0x7E3 JUMPI PUSH1 0x4 EQ DUP1 ISZERO PUSH2 0x7A7 JUMPI JUMPDEST SWAP1 PUSH1 0x1 SWAP2 PUSH2 0x777 JUMPI JUMPDEST ADD PUSH2 0x70E JUMP JUMPDEST PUSH2 0x780 DUP2 PUSH2 0x2082 JUMP JUMPDEST DUP4 DUP1 PUSH1 0xA0 SHL SUB SWAP2 SLOAD SWAP1 PUSH1 0x3 SHL SHR AND PUSH2 0x7A1 PUSH2 0x79A DUP6 PUSH2 0x21F1 JUMP JUMPDEST SWAP5 DUP8 PUSH2 0x2260 JUMP JUMPDEST MSTORE PUSH2 0x771 JUMP JUMPDEST POP PUSH2 0x7B1 DUP2 PUSH2 0x2082 JUMP JUMPDEST SWAP1 SLOAD PUSH1 0x3 SWAP2 SWAP1 SWAP2 SHL SHR PUSH1 0x1 PUSH1 0x1 PUSH1 0xA0 SHL SUB AND DUP6 MSTORE PUSH1 0x4 PUSH1 0x20 MSTORE PUSH1 0x40 DUP6 KECCAK256 SLOAD PUSH1 0xFF AND PUSH1 0x6 DUP2 LT ISZERO PUSH2 0x7E3 JUMPI PUSH1 0x5 EQ PUSH2 0x768 JUMP JUMPDEST PUSH4 0x4E487B71 PUSH1 0xE0 SHL DUP7 MSTORE PUSH1 0x21 PUSH1 0x4 MSTORE PUSH1 0x24 DUP7 REVERT JUMPDEST PUSH2 0x800 DUP2 PUSH2 0x2082 JUMP JUMPDEST SWAP1 SLOAD PUSH1 0x3 SWAP2 SWAP1 SWAP2 SHL SHR PUSH1 0x1 PUSH1 0x1 PUSH1 0xA0 SHL SUB AND DUP5 MSTORE PUSH1 0x4 PUSH1 0x20 MSTORE PUSH1 0x40 DUP5 KECCAK256 SLOAD PUSH1 0xFF AND PUSH1 0x6 DUP2 LT ISZERO PUSH2 0x891 JUMPI PUSH1 0x4 EQ DUP1 ISZERO PUSH2 0x855 JUMPI JUMPDEST PUSH2 0x841 JUMPI JUMPDEST PUSH1 0x1 ADD PUSH2 0x6F9 JUMP JUMPDEST SWAP1 PUSH2 0x84D PUSH1 0x1 SWAP2 PUSH2 0x21F1 JUMP JUMPDEST SWAP2 SWAP1 POP PUSH2 0x839 JUMP JUMPDEST POP PUSH2 0x85F DUP2 PUSH2 0x2082 JUMP JUMPDEST SWAP1 SLOAD PUSH1 0x3 SWAP2 SWAP1 SWAP2 SHL SHR PUSH1 0x1 PUSH1 0x1 PUSH1 0xA0 SHL SUB AND DUP5 MSTORE PUSH1 0x4 PUSH1 0x20 MSTORE PUSH1 0x40 DUP5 KECCAK256 SLOAD PUSH1 0xFF AND PUSH1 0x6 DUP2 LT ISZERO PUSH2 0x891 JUMPI PUSH1 0x5 EQ PUSH2 0x834 JUMP JUMPDEST PUSH4 0x4E487B71 PUSH1 0xE0 SHL DUP6 MSTORE PUSH1 0x21 PUSH1 0x4 MSTORE PUSH1 0x24 DUP6 REVERT JUMPDEST POP CALLVALUE PUSH2 0x1B8 JUMPI PUSH1 0x40 CALLDATASIZE PUSH1 0x3 NOT ADD SLT PUSH2 0x1B8 JUMPI PUSH1 0x4 CALLDATALOAD PUSH1 0x24 CALLDATALOAD PUSH1 0x7 DUP2 LT ISZERO PUSH2 0x20E JUMPI DUP2 ISZERO PUSH2 0x9A0 JUMPI CALLER DUP4 MSTORE PUSH1 0x4 PUSH1 0x20 MSTORE PUSH1 0xFF PUSH1 0x40 DUP5 KECCAK256 SLOAD AND PUSH1 0x6 DUP2 LT ISZERO PUSH2 0x663 JUMPI PUSH1 0x4 EQ DUP1 ISZERO PUSH2 0x97E JUMPI JUMPDEST ISZERO PUSH2 0x939 JUMPI PUSH2 0x8FD DUP2 PUSH2 0x210C JUMP JUMPDEST PUSH2 0x908 DUP4 DUP3 SLOAD PUSH2 0x24E3 JUMP JUMPDEST SWAP1 SSTORE PUSH1 0x40 MLOAD SWAP2 DUP3 MSTORE PUSH32 0x606617FD09D9890413E3C46147B844D4562351F86E0F7A5C60849BBF0EF02811 PUSH1 0x20 CALLER SWAP4 LOG3 DUP1 RETURN JUMPDEST PUSH1 0x40 MLOAD PUSH3 0x461BCD PUSH1 0xE5 SHL DUP2 MSTORE PUSH1 0x20 PUSH1 0x4 DUP3 ADD MSTORE PUSH1 0x1D PUSH1 0x24 DUP3 ADD MSTORE PUSH32 0x43616C6C6572206973206E6F7420612076616C6964206D697373696F6E000000 PUSH1 0x44 DUP3 ADD MSTORE PUSH1 0x64 SWAP1 REVERT JUMPDEST POP CALLER DUP4 MSTORE PUSH1 0x4 PUSH1 0x20 MSTORE PUSH1 0xFF PUSH1 0x40 DUP5 KECCAK256 SLOAD AND PUSH1 0x6 DUP2 LT ISZERO PUSH2 0x663 JUMPI PUSH1 0x5 EQ PUSH2 0x8EF JUMP JUMPDEST PUSH1 0x64 PUSH1 0x40 MLOAD PUSH3 0x461BCD PUSH1 0xE5 SHL DUP2 MSTORE PUSH1 0x20 PUSH1 0x4 DUP3 ADD MSTORE PUSH1 0x20 PUSH1 0x24 DUP3 ADD MSTORE PUSH32 0x416D6F756E74206D7573742062652067726561746572207468616E207A65726F PUSH1 0x44 DUP3 ADD MSTORE REVERT JUMPDEST POP PUSH2 0x120 CALLDATASIZE PUSH1 0x3 NOT ADD SLT PUSH2 0x1B8 JUMPI PUSH1 0x4 CALLDATALOAD PUSH1 0x7 DUP2 LT ISZERO PUSH2 0x1B6 JUMPI PUSH1 0x24 CALLDATALOAD SWAP1 PUSH1 0x44 CALLDATALOAD SWAP2 PUSH1 0x64 CALLDATALOAD PUSH1 0x84 CALLDATALOAD PUSH1 0xFF DUP2 AND DUP1 SWAP2 SUB PUSH2 0xEC6 JUMPI PUSH1 0xA4 CALLDATALOAD PUSH1 0xFF DUP2 AND DUP1 SWAP2 SUB PUSH2 0xEC2 JUMPI PUSH1 0xC4 CALLDATALOAD SWAP1 PUSH1 0xE4 CALLDATALOAD SWAP3 PUSH2 0x104 CALLDATALOAD SWAP5 PUSH1 0xFF DUP7 AND DUP1 SWAP7 SUB PUSH2 0xEBE JUMPI DUP10 SLOAD PUSH1 0x1 PUSH1 0x1 PUSH1 0xA0 SHL SUB AND CALLER EQ DUP1 ISZERO PUSH2 0xEA8 JUMPI JUMPDEST PUSH2 0xA5A SWAP1 PUSH2 0x2125 JUMP JUMPDEST PUSH1 0x5 DUP7 LT PUSH2 0xE49 JUMPI DUP6 DUP3 LT PUSH2 0xDDE JUMPI DUP9 DUP8 LT ISZERO PUSH2 0xD8D JUMPI DUP9 DUP5 LT PUSH2 0xD2F JUMPI DUP4 DUP6 GT ISZERO PUSH2 0xCEB JUMPI DUP1 ISZERO PUSH2 0xC92 JUMPI PUSH1 0x6 SLOAD PUSH1 0x88 DUP2 SWAP1 SHR PUSH3 0xFFFFFF AND PUSH23 0x3D602D80600A3D3981F3363D3D373D3D3D363D73000000 OR DUP12 MSTORE PUSH1 0x78 SHL PUSH15 0xFFFFFFFFFFFFFFFFFFFFFFFFFFFFFF NOT AND PUSH15 0x5AF43D82803E903D91602B57FD5BF3 OR PUSH1 0x20 MSTORE PUSH1 0x1 PUSH1 0x1 PUSH1 0xA0 SHL SUB PUSH1 0x37 PUSH1 0x9 DUP13 CREATE AND SWAP9 DUP10 ISZERO PUSH2 0xC83 JUMPI DUP11 SLOAD PUSH1 0x1 PUSH1 0x1 PUSH1 0xA0 SHL SUB AND SWAP8 DUP11 EXTCODESIZE ISZERO PUSH2 0xC7F JUMPI PUSH1 0x40 MLOAD SWAP9 PUSH4 0xC54168B3 PUSH1 0xE0 SHL DUP11 MSTORE PUSH1 0x4 DUP11 ADD MSTORE ADDRESS PUSH1 0x24 DUP11 ADD MSTORE PUSH2 0xB26 PUSH1 0x44 DUP11 ADD DUP12 PUSH2 0x2075 JUMP JUMPDEST PUSH1 0x64 DUP10 ADD MSTORE PUSH1 0x84 DUP9 ADD MSTORE PUSH1 0xA4 DUP8 ADD MSTORE PUSH1 0xC4 DUP7 ADD MSTORE PUSH1 0xE4 DUP6 ADD MSTORE PUSH2 0x104 DUP5 ADD MSTORE PUSH2 0x124 DUP4 ADD MSTORE PUSH2 0x144 DUP3 ADD MSTORE DUP4 DUP2 PUSH2 0x164 DUP2 CALLVALUE DUP8 GAS CALL DUP1 ISZERO PUSH2 0xC74 JUMPI PUSH2 0xC60 JUMPI JUMPDEST POP PUSH1 0x5 SLOAD PUSH1 0x1 PUSH1 0x40 SHL DUP2 LT ISZERO PUSH2 0x4EE JUMPI DUP1 PUSH1 0x1 PUSH2 0xB86 SWAP3 ADD PUSH1 0x5 SSTORE PUSH2 0x2082 JUMP JUMPDEST DUP2 SLOAD PUSH1 0x1 PUSH1 0x1 PUSH1 0xA0 SHL SUB PUSH1 0x3 SWAP3 SWAP1 SWAP3 SHL SWAP2 DUP3 SHL NOT AND SWAP1 DUP5 SWAP1 SHL OR SWAP1 SSTORE DUP1 DUP3 PUSH32 0xAC1AC89285BF936F515AAFCF6808B3E062E77FD57F52C8892D20FC9409B8B53 DUP6 DUP1 LOG3 PUSH2 0xBD1 DUP2 PUSH2 0x210C JUMP JUMPDEST SLOAD PUSH1 0x2 SHR SWAP1 DUP2 ISZERO ISZERO DUP1 PUSH2 0xC56 JUMPI JUMPDEST PUSH2 0xBEF JUMPI JUMPDEST PUSH1 0x20 DUP4 PUSH1 0x40 MLOAD SWAP1 DUP2 MSTORE RETURN JUMPDEST PUSH2 0xBF8 SWAP1 PUSH2 0x210C JUMP JUMPDEST PUSH2 0xC03 DUP3 DUP3 SLOAD PUSH2 0x252E JUMP JUMPDEST SWAP1 SSTORE DUP3 DUP3 EXTCODESIZE ISZERO PUSH2 0x1B8 JUMPI PUSH1 0x40 MLOAD PUSH4 0xEB2BAB77 PUSH1 0xE0 SHL DUP2 MSTORE SWAP2 DUP3 SWAP1 PUSH1 0x4 SWAP1 DUP3 SWAP1 DUP7 GAS CALL DUP1 ISZERO PUSH2 0xC4B JUMPI PUSH2 0xC36 JUMPI JUMPDEST DUP1 PUSH2 0xBE4 JUMP JUMPDEST PUSH2 0xC41 DUP4 DUP1 SWAP3 PUSH2 0x21CF JUMP JUMPDEST PUSH2 0x1B6 JUMPI DUP2 PUSH2 0xC30 JUMP JUMPDEST PUSH1 0x40 MLOAD RETURNDATASIZE DUP6 DUP3 RETURNDATACOPY RETURNDATASIZE SWAP1 REVERT JUMPDEST POP DUP2 SELFBALANCE LT ISZERO PUSH2 0xBDF JUMP JUMPDEST DUP4 PUSH2 0xC6D SWAP2 SWAP5 SWAP3 SWAP5 PUSH2 0x21CF JUMP JUMPDEST SWAP2 CODESIZE PUSH2 0xB66 JUMP JUMPDEST PUSH1 0x40 MLOAD RETURNDATASIZE DUP7 DUP3 RETURNDATACOPY RETURNDATASIZE SWAP1 REVERT JUMPDEST DUP12 DUP1 REVERT JUMPDEST PUSH4 0xB06EBF3D PUSH1 0xE0 SHL DUP12 MSTORE PUSH1 0x4 DUP12 REVERT JUMPDEST PUSH1 0x40 MLOAD PUSH3 0x461BCD PUSH1 0xE5 SHL DUP2 MSTORE PUSH1 0x20 PUSH1 0x4 DUP3 ADD MSTORE PUSH1 0x2B PUSH1 0x24 DUP3 ADD MSTORE PUSH32 0x456E726F6C6C6D656E7420616D6F756E74206D75737420626520677265617465 PUSH1 0x44 DUP3 ADD MSTORE PUSH11 0x72207468616E207A65726F PUSH1 0xA8 SHL PUSH1 0x64 DUP3 ADD MSTORE PUSH1 0x84 SWAP1 REVERT JUMPDEST PUSH1 0x64 PUSH1 0x40 MLOAD PUSH3 0x461BCD PUSH1 0xE5 SHL DUP2 MSTORE PUSH1 0x20 PUSH1 0x4 DUP3 ADD MSTORE PUSH1 0x20 PUSH1 0x24 DUP3 ADD MSTORE PUSH32 0x4D697373696F6E207374617274206D757374206265206265666F726520656E64 PUSH1 0x44 DUP3 ADD MSTORE REVERT JUMPDEST PUSH1 0x40 MLOAD PUSH3 0x461BCD PUSH1 0xE5 SHL DUP2 MSTORE PUSH1 0x20 PUSH1 0x4 DUP3 ADD MSTORE PUSH1 0x30 PUSH1 0x24 DUP3 ADD MSTORE PUSH32 0x4D697373696F6E207374617274206D757374206265206F6E206F722061667465 PUSH1 0x44 DUP3 ADD MSTORE PUSH16 0x1C88195B9C9BDB1B1B595B9D08195B99 PUSH1 0x82 SHL PUSH1 0x64 DUP3 ADD MSTORE PUSH1 0x84 SWAP1 REVERT JUMPDEST PUSH1 0x40 MLOAD PUSH3 0x461BCD PUSH1 0xE5 SHL DUP2 MSTORE PUSH1 0x20 PUSH1 0x4 DUP3 ADD MSTORE PUSH1 0x23 PUSH1 0x24 DUP3 ADD MSTORE PUSH32 0x456E726F6C6C6D656E74207374617274206D757374206265206265666F726520 PUSH1 0x44 DUP3 ADD MSTORE PUSH3 0x195B99 PUSH1 0xEA SHL PUSH1 0x64 DUP3 ADD MSTORE PUSH1 0x84 SWAP1 REVERT JUMPDEST PUSH1 0x40 MLOAD PUSH3 0x461BCD PUSH1 0xE5 SHL DUP2 MSTORE PUSH1 0x20 PUSH1 0x4 DUP3 ADD MSTORE PUSH1 0x3F PUSH1 0x24 DUP3 ADD MSTORE PUSH32 0x4D696E696D756D20706C6179657273206D757374206265206772656174657220 PUSH1 0x44 DUP3 ADD MSTORE PUSH32 0x7468616E206F7220657175616C20746F206D697373696F6E20726F756E647300 PUSH1 0x64 DUP3 ADD MSTORE PUSH1 0x84 SWAP1 REVERT JUMPDEST PUSH1 0x40 MLOAD PUSH3 0x461BCD PUSH1 0xE5 SHL DUP2 MSTORE PUSH1 0x20 PUSH1 0x4 DUP3 ADD MSTORE PUSH1 0x31 PUSH1 0x24 DUP3 ADD MSTORE PUSH32 0x4D697373696F6E20726F756E6473206D75737420626520677265617465722074 PUSH1 0x44 DUP3 ADD MSTORE PUSH17 0x68616E206F7220657175616C20746F2035 PUSH1 0x78 SHL PUSH1 0x64 DUP3 ADD MSTORE PUSH1 0x84 SWAP1 REVERT JUMPDEST POP CALLER DUP11 MSTORE PUSH1 0x2 PUSH1 0x20 MSTORE PUSH1 0x40 DUP11 KECCAK256 SLOAD PUSH1 0xFF AND PUSH2 0xA51 JUMP JUMPDEST DUP10 DUP1 REVERT JUMPDEST DUP7 DUP1 REVERT JUMPDEST DUP6 DUP1 REVERT JUMPDEST POP CALLVALUE PUSH2 0x1B8 JUMPI PUSH1 0x20 CALLDATASIZE PUSH1 0x3 NOT ADD SLT PUSH2 0x1B8 JUMPI PUSH1 0x4 CALLDATALOAD PUSH1 0x1 PUSH1 0x1 PUSH1 0xA0 SHL SUB DUP2 AND DUP2 SUB PUSH2 0x1B6 JUMPI PUSH2 0xEF8 SWAP1 PUSH2 0x253B JUMP JUMPDEST SWAP1 PUSH2 0x1B2 PUSH1 0x40 MLOAD SWAP3 DUP4 SWAP3 ISZERO ISZERO DUP4 MSTORE PUSH1 0x40 PUSH1 0x20 DUP5 ADD MSTORE PUSH1 0x40 DUP4 ADD SWAP1 PUSH2 0x20CB JUMP JUMPDEST POP CALLVALUE PUSH2 0x1B8 JUMPI DUP1 PUSH1 0x3 NOT CALLDATASIZE ADD SLT PUSH2 0x1B8 JUMPI SLOAD PUSH1 0x40 MLOAD PUSH1 0x1 PUSH1 0x1 PUSH1 0xA0 SHL SUB SWAP1 SWAP2 AND DUP2 MSTORE PUSH1 0x20 SWAP1 RETURN JUMPDEST POP CALLVALUE PUSH2 0x1B8 JUMPI DUP1 PUSH1 0x3 NOT CALLDATASIZE ADD SLT PUSH2 0x1B8 JUMPI PUSH1 0x20 PUSH1 0xFF PUSH1 0x9 SLOAD AND PUSH1 0x40 MLOAD SWAP1 DUP2 MSTORE RETURN JUMPDEST POP CALLVALUE PUSH2 0x1B8 JUMPI DUP1 PUSH1 0x3 NOT CALLDATASIZE ADD SLT PUSH2 0x1B8 JUMPI PUSH2 0xF78 PUSH2 0x26E6 JUMP JUMPDEST DUP1 SLOAD PUSH1 0x1 PUSH1 0x1 PUSH1 0xA0 SHL SUB NOT DUP2 AND DUP3 SSTORE DUP2 SWAP1 PUSH1 0x1 PUSH1 0x1 PUSH1 0xA0 SHL SUB AND PUSH32 0x8BE0079C531659141344CD1FD0A4F28419497F9722A3DAAFE3B4186F6B6457E0 DUP3 DUP1 LOG3 DUP1 RETURN JUMPDEST POP CALLVALUE PUSH2 0x1B8 JUMPI PUSH1 0x20 CALLDATASIZE PUSH1 0x3 NOT ADD SLT PUSH2 0x1B8 JUMPI PUSH1 0x4 CALLDATALOAD PUSH1 0x1 PUSH1 0x1 PUSH1 0xA0 SHL SUB DUP2 AND SWAP1 DUP2 SWAP1 SUB PUSH2 0x1B6 JUMPI DUP2 SLOAD PUSH1 0x1 PUSH1 0x1 PUSH1 0xA0 SHL SUB AND CALLER EQ DUP1 ISZERO PUSH2 0x108E JUMPI JUMPDEST PUSH2 0xFFD SWAP1 PUSH2 0x2125 JUMP JUMPDEST PUSH2 0x1008 DUP2 ISZERO ISZERO PUSH2 0x24F0 JUMP JUMPDEST DUP1 DUP3 MSTORE PUSH1 0x2 PUSH1 0x20 MSTORE PUSH1 0xFF PUSH1 0x40 DUP4 KECCAK256 SLOAD AND ISZERO PUSH2 0x1058 JUMPI DUP1 DUP3 MSTORE PUSH1 0x2 PUSH1 0x20 MSTORE PUSH1 0x40 DUP3 KECCAK256 DUP1 SLOAD PUSH1 0xFF NOT AND SWAP1 SSTORE PUSH32 0x66D5F06F711AF3C9FEBA3203FDB00B51345D514C68585D9D319C5FF5E6F77592 DUP3 DUP1 LOG2 DUP1 RETURN JUMPDEST PUSH1 0x40 MLOAD PUSH3 0x461BCD PUSH1 0xE5 SHL DUP2 MSTORE PUSH1 0x20 PUSH1 0x4 DUP3 ADD MSTORE PUSH1 0xE PUSH1 0x24 DUP3 ADD MSTORE PUSH14 0x139BDD08185D5D1A1BDC9A5E9959 PUSH1 0x92 SHL PUSH1 0x44 DUP3 ADD MSTORE PUSH1 0x64 SWAP1 REVERT JUMPDEST POP CALLER DUP3 MSTORE PUSH1 0x2 PUSH1 0x20 MSTORE PUSH1 0x40 DUP3 KECCAK256 SLOAD PUSH1 0xFF AND PUSH2 0xFF4 JUMP JUMPDEST POP CALLVALUE PUSH2 0x1B8 JUMPI DUP1 PUSH1 0x3 NOT CALLDATASIZE ADD SLT PUSH2 0x1B8 JUMPI PUSH1 0x5 SLOAD PUSH3 0x278CFF NOT TIMESTAMP ADD SWAP2 TIMESTAMP DUP4 GT PUSH2 0x1365 JUMPI SWAP2 SWAP1 DUP3 DUP1 JUMPDEST DUP3 DUP2 LT PUSH2 0x1297 JUMPI POP PUSH2 0x10DD DUP5 PUSH2 0x222E JUMP JUMPDEST SWAP3 PUSH2 0x1100 PUSH2 0x10EA DUP7 PUSH2 0x2216 JUMP JUMPDEST SWAP6 PUSH2 0x10F8 PUSH1 0x40 MLOAD SWAP8 DUP9 PUSH2 0x21CF JUMP JUMPDEST DUP1 DUP8 MSTORE PUSH2 0x2216 JUMP JUMPDEST PUSH1 0x20 DUP7 ADD SWAP4 SWAP1 PUSH1 0x1F NOT ADD CALLDATASIZE DUP6 CALLDATACOPY DUP3 SWAP2 DUP3 JUMPDEST DUP3 DUP5 LT PUSH2 0x1178 JUMPI POP POP POP POP PUSH2 0x1136 SWAP4 PUSH1 0x20 PUSH1 0x40 MLOAD SWAP6 DUP7 SWAP6 PUSH1 0x40 DUP8 MSTORE PUSH1 0x40 DUP8 ADD SWAP1 PUSH2 0x2038 JUMP JUMPDEST SWAP2 DUP6 DUP4 SUB DUP3 DUP8 ADD MSTORE MLOAD SWAP2 DUP3 DUP2 MSTORE ADD SWAP3 SWAP2 JUMPDEST DUP2 DUP2 LT PUSH2 0x1155 JUMPI POP POP POP SUB SWAP1 RETURN JUMPDEST SWAP2 SWAP4 POP SWAP2 PUSH1 0x20 DUP1 DUP3 PUSH2 0x116A PUSH1 0x1 SWAP5 DUP9 MLOAD PUSH2 0x2015 JUMP JUMPDEST ADD SWAP5 ADD SWAP2 ADD SWAP2 DUP5 SWAP4 SWAP3 PUSH2 0x1147 JUMP JUMPDEST PUSH2 0x1185 DUP5 SWAP9 SWAP7 SWAP8 SWAP9 PUSH2 0x2082 JUMP JUMPDEST SWAP1 SLOAD PUSH1 0x3 SWAP2 SWAP1 SWAP2 SHL SHR PUSH1 0x1 PUSH1 0x1 PUSH1 0xA0 SHL SUB AND DUP1 DUP7 MSTORE PUSH1 0x4 PUSH1 0x20 MSTORE PUSH1 0x40 DUP7 KECCAK256 SLOAD PUSH1 0xFF AND SWAP1 PUSH1 0x6 DUP3 LT ISZERO SWAP1 DUP2 PUSH2 0x1283 JUMPI PUSH1 0x4 DUP4 EQ DUP1 ISZERO PUSH2 0x1276 JUMPI JUMPDEST PUSH2 0x120B JUMPI JUMPDEST PUSH2 0x11CD DUP5 DUP13 PUSH2 0x2260 JUMP JUMPDEST MSTORE PUSH2 0x11D8 DUP4 DUP10 PUSH2 0x2260 JUMP JUMPDEST SWAP1 PUSH2 0x11F7 JUMPI MSTORE PUSH1 0x1 SWAP1 PUSH2 0x11EA SWAP1 PUSH2 0x21F1 JUMP JUMPDEST SWAP4 JUMPDEST ADD SWAP3 SWAP7 SWAP6 SWAP5 SWAP7 PUSH2 0x1111 JUMP JUMPDEST PUSH4 0x4E487B71 PUSH1 0xE0 SHL DUP8 MSTORE PUSH1 0x21 PUSH1 0x4 MSTORE PUSH1 0x24 DUP8 REVERT JUMPDEST PUSH1 0x40 MLOAD PUSH4 0x1F385F79 PUSH1 0xE2 SHL DUP2 MSTORE DUP9 DUP2 PUSH1 0x4 DUP2 DUP6 GAS STATICCALL SWAP1 DUP2 ISZERO PUSH2 0x126B JUMPI DUP7 SWAP2 PUSH2 0x120 SWAP2 DUP12 SWAP2 PUSH2 0x1249 JUMPI JUMPDEST POP ADD MLOAD LT ISZERO PUSH2 0x11C3 JUMPI POP POP POP SWAP3 PUSH1 0x1 SWAP1 PUSH2 0x11EC JUMP JUMPDEST PUSH2 0x1265 SWAP2 POP RETURNDATASIZE DUP1 DUP14 DUP4 RETURNDATACOPY PUSH2 0x125D DUP2 DUP4 PUSH2 0x21CF JUMP JUMPDEST DUP2 ADD SWAP1 PUSH2 0x2300 JUMP JUMPDEST CODESIZE PUSH2 0x1234 JUMP JUMPDEST PUSH1 0x40 MLOAD RETURNDATASIZE DUP12 DUP3 RETURNDATACOPY RETURNDATASIZE SWAP1 REVERT JUMPDEST POP DUP8 SWAP2 POP PUSH1 0x5 DUP4 EQ PUSH2 0x11BE JUMP JUMPDEST PUSH4 0x4E487B71 PUSH1 0xE0 SHL DUP9 MSTORE PUSH1 0x21 PUSH1 0x4 MSTORE PUSH1 0x24 DUP9 REVERT JUMPDEST SWAP2 SWAP3 SWAP4 PUSH2 0x12A3 DUP4 PUSH2 0x2082 JUMP JUMPDEST SWAP1 SLOAD PUSH1 0x3 SWAP2 SWAP1 SWAP2 SHL SHR PUSH1 0x1 PUSH1 0x1 PUSH1 0xA0 SHL SUB AND DUP1 DUP4 MSTORE PUSH1 0x4 PUSH1 0x20 MSTORE PUSH1 0x40 DUP4 KECCAK256 SLOAD PUSH1 0xFF AND PUSH1 0x6 DUP2 LT ISZERO PUSH2 0x663 JUMPI SWAP1 DUP2 PUSH1 0x4 DUP6 SWAP4 EQ SWAP1 DUP2 ISZERO PUSH2 0x135A JUMPI JUMPDEST POP PUSH2 0x12FC JUMPI JUMPDEST POP POP PUSH2 0x12F0 PUSH1 0x1 SWAP2 PUSH2 0x21F1 JUMP JUMPDEST SWAP3 JUMPDEST ADD SWAP4 SWAP3 SWAP2 SWAP4 PUSH2 0x10CC JUMP JUMPDEST PUSH1 0x40 MLOAD PUSH4 0x1F385F79 PUSH1 0xE2 SHL DUP2 MSTORE SWAP2 SWAP1 DUP3 SWAP1 PUSH1 0x4 SWAP1 DUP3 SWAP1 GAS STATICCALL SWAP1 DUP2 ISZERO PUSH2 0xC4B JUMPI DUP7 SWAP2 PUSH2 0x120 SWAP2 DUP6 SWAP2 PUSH2 0x1340 JUMPI JUMPDEST POP ADD MLOAD LT PUSH2 0x1337 JUMPI DUP2 CODESIZE PUSH2 0x12E3 JUMP JUMPDEST SWAP2 PUSH1 0x1 SWAP1 PUSH2 0x12F2 JUMP JUMPDEST PUSH2 0x1354 SWAP2 POP RETURNDATASIZE DUP1 DUP8 DUP4 RETURNDATACOPY PUSH2 0x125D DUP2 DUP4 PUSH2 0x21CF JUMP JUMPDEST CODESIZE PUSH2 0x1328 JUMP JUMPDEST PUSH1 0x5 SWAP2 POP EQ CODESIZE PUSH2 0x12DD JUMP JUMPDEST PUSH4 0x4E487B71 PUSH1 0xE0 SHL DUP2 MSTORE PUSH1 0x11 PUSH1 0x4 MSTORE PUSH1 0x24 SWAP1 REVERT JUMPDEST POP CALLVALUE PUSH2 0x1B8 JUMPI DUP1 PUSH1 0x3 NOT CALLDATASIZE ADD SLT PUSH2 0x1B8 JUMPI PUSH1 0x5 SLOAD DUP2 DUP3 JUMPDEST DUP3 DUP2 LT PUSH2 0x1474 JUMPI POP PUSH2 0x13A1 SWAP1 PUSH2 0x222E JUMP JUMPDEST SWAP1 DUP3 DUP4 JUMPDEST DUP3 DUP2 LT PUSH2 0x13C2 JUMPI PUSH1 0x40 MLOAD PUSH1 0x20 DUP1 DUP3 MSTORE DUP2 SWAP1 PUSH2 0x1B2 SWAP1 DUP3 ADD DUP8 PUSH2 0x2038 JUMP JUMPDEST PUSH2 0x13CB DUP2 PUSH2 0x2082 JUMP JUMPDEST SWAP1 SLOAD PUSH1 0x3 SWAP2 SWAP1 SWAP2 SHL SHR PUSH1 0x1 PUSH1 0x1 PUSH1 0xA0 SHL SUB AND DUP6 MSTORE PUSH1 0x4 PUSH1 0x20 MSTORE PUSH1 0x40 DUP6 KECCAK256 SLOAD PUSH1 0xFF AND PUSH1 0x6 DUP2 LT ISZERO PUSH2 0x7E3 JUMPI PUSH1 0x4 EQ ISZERO DUP1 PUSH2 0x1437 JUMPI JUMPDEST SWAP1 PUSH1 0x1 SWAP2 PUSH2 0x140E JUMPI JUMPDEST ADD PUSH2 0x13A5 JUMP JUMPDEST PUSH2 0x1417 DUP2 PUSH2 0x2082 JUMP JUMPDEST DUP4 DUP1 PUSH1 0xA0 SHL SUB SWAP2 SLOAD SWAP1 PUSH1 0x3 SHL SHR AND PUSH2 0x1431 PUSH2 0x79A DUP6 PUSH2 0x21F1 JUMP JUMPDEST MSTORE PUSH2 0x1408 JUMP JUMPDEST POP PUSH2 0x1441 DUP2 PUSH2 0x2082 JUMP JUMPDEST SWAP1 SLOAD PUSH1 0x3 SWAP2 SWAP1 SWAP2 SHL SHR PUSH1 0x1 PUSH1 0x1 PUSH1 0xA0 SHL SUB AND DUP6 MSTORE PUSH1 0x4 PUSH1 0x20 MSTORE PUSH1 0x40 DUP6 KECCAK256 SLOAD PUSH1 0xFF AND PUSH1 0x6 DUP2 LT ISZERO PUSH2 0x7E3 JUMPI PUSH1 0x5 EQ ISZERO PUSH2 0x13FF JUMP JUMPDEST PUSH2 0x147D DUP2 PUSH2 0x2082 JUMP JUMPDEST SWAP1 SLOAD PUSH1 0x3 SWAP2 SWAP1 SWAP2 SHL SHR PUSH1 0x1 PUSH1 0x1 PUSH1 0xA0 SHL SUB AND DUP5 MSTORE PUSH1 0x4 PUSH1 0x20 MSTORE PUSH1 0x40 DUP5 KECCAK256 SLOAD PUSH1 0xFF AND PUSH1 0x6 DUP2 LT ISZERO PUSH2 0x891 JUMPI PUSH1 0x4 EQ ISZERO DUP1 PUSH2 0x14D2 JUMPI JUMPDEST PUSH2 0x14BE JUMPI JUMPDEST PUSH1 0x1 ADD PUSH2 0x1390 JUMP JUMPDEST SWAP1 PUSH2 0x14CA PUSH1 0x1 SWAP2 PUSH2 0x21F1 JUMP JUMPDEST SWAP2 SWAP1 POP PUSH2 0x14B6 JUMP JUMPDEST POP PUSH2 0x14DC DUP2 PUSH2 0x2082 JUMP JUMPDEST SWAP1 SLOAD PUSH1 0x3 SWAP2 SWAP1 SWAP2 SHL SHR PUSH1 0x1 PUSH1 0x1 PUSH1 0xA0 SHL SUB AND DUP5 MSTORE PUSH1 0x4 PUSH1 0x20 MSTORE PUSH1 0x40 DUP5 KECCAK256 SLOAD PUSH1 0xFF AND PUSH1 0x6 DUP2 LT ISZERO PUSH2 0x891 JUMPI PUSH1 0x5 EQ ISZERO PUSH2 0x14B1 JUMP JUMPDEST POP CALLVALUE PUSH2 0x1B8 JUMPI PUSH1 0x20 CALLDATASIZE PUSH1 0x3 NOT ADD SLT PUSH2 0x1B8 JUMPI PUSH1 0x4 CALLDATALOAD PUSH1 0x1 PUSH1 0x1 PUSH1 0xA0 SHL SUB DUP2 AND SWAP1 DUP2 SWAP1 SUB PUSH2 0x1B6 JUMPI DUP2 SLOAD PUSH1 0x1 PUSH1 0x1 PUSH1 0xA0 SHL SUB AND CALLER EQ DUP1 ISZERO PUSH2 0x15EA JUMPI JUMPDEST PUSH2 0x1553 SWAP1 PUSH2 0x2125 JUMP JUMPDEST PUSH2 0x155E DUP2 ISZERO ISZERO PUSH2 0x24F0 JUMP JUMPDEST DUP1 DUP3 MSTORE PUSH1 0x2 PUSH1 0x20 MSTORE PUSH1 0xFF PUSH1 0x40 DUP4 KECCAK256 SLOAD AND PUSH2 0x15B0 JUMPI DUP1 DUP3 MSTORE PUSH1 0x2 PUSH1 0x20 MSTORE PUSH1 0x40 DUP3 KECCAK256 DUP1 SLOAD PUSH1 0xFF NOT AND PUSH1 0x1 OR SWAP1 SSTORE PUSH32 0x10AC961F00D5E732BA4DCC2C6FB09BEBEA0EB9EDD2A75C8109775EF288382E67 DUP3 DUP1 LOG2 DUP1 RETURN JUMPDEST PUSH1 0x40 MLOAD PUSH3 0x461BCD PUSH1 0xE5 SHL DUP2 MSTORE PUSH1 0x20 PUSH1 0x4 DUP3 ADD MSTORE PUSH1 0x12 PUSH1 0x24 DUP3 ADD MSTORE PUSH18 0x105B1C9958591E48185D5D1A1BDC9A5E9959 PUSH1 0x72 SHL PUSH1 0x44 DUP3 ADD MSTORE PUSH1 0x64 SWAP1 REVERT JUMPDEST POP CALLER DUP3 MSTORE PUSH1 0x2 PUSH1 0x20 MSTORE PUSH1 0x40 DUP3 KECCAK256 SLOAD PUSH1 0xFF AND PUSH2 0x154A JUMP JUMPDEST POP CALLVALUE PUSH2 0x1B8 JUMPI PUSH1 0x20 CALLDATASIZE PUSH1 0x3 NOT ADD SLT PUSH2 0x1B8 JUMPI PUSH1 0x4 CALLDATALOAD PUSH1 0x1 PUSH1 0x1 PUSH1 0xA0 SHL SUB DUP2 AND DUP1 DUP3 SUB PUSH2 0x20E JUMPI DUP3 SLOAD PUSH1 0x1 PUSH1 0x1 PUSH1 0xA0 SHL SUB AND CALLER EQ DUP1 ISZERO PUSH2 0x17FD JUMPI JUMPDEST PUSH2 0x1643 SWAP1 PUSH2 0x2125 JUMP JUMPDEST DUP1 DUP4 MSTORE PUSH1 0x7 PUSH1 0x20 MSTORE PUSH1 0x40 DUP4 KECCAK256 PUSH1 0x40 MLOAD PUSH2 0x165B DUP2 PUSH2 0x21B3 JUMP JUMPDEST DUP2 SLOAD PUSH1 0x1 PUSH1 0x1 PUSH1 0xA0 SHL SUB AND DUP1 DUP3 MSTORE PUSH1 0x1 SWAP1 SWAP3 ADD SLOAD PUSH1 0x20 DUP3 ADD SWAP1 DUP2 MSTORE SWAP2 ISZERO PUSH2 0x17B8 JUMPI MLOAD PUSH1 0x1 PUSH1 0x1 PUSH1 0xA0 SHL SUB AND CALLER EQ PUSH2 0x1774 JUMPI MLOAD PUSH3 0x15180 DUP2 ADD DUP1 SWAP2 GT PUSH2 0x1760 JUMPI TIMESTAMP GT PUSH2 0x1728 JUMPI PUSH2 0x16A8 PUSH2 0x26E6 JUMP JUMPDEST DUP1 ISZERO PUSH2 0x1714 JUMPI PUSH2 0x16B7 DUP3 PUSH2 0x270F JUMP JUMPDEST DUP3 MSTORE PUSH1 0x7 PUSH1 0x20 SWAP1 DUP2 MSTORE PUSH1 0x40 DUP1 DUP5 KECCAK256 DUP5 DUP2 SSTORE PUSH1 0x1 ADD DUP5 SWAP1 SSTORE DUP1 MLOAD PUSH1 0x1 PUSH1 0x1 PUSH1 0xA0 SHL SUB SWAP1 SWAP4 AND DUP4 MSTORE TIMESTAMP SWAP2 DUP4 ADD SWAP2 SWAP1 SWAP2 MSTORE CALLER SWAP2 PUSH32 0xDD72DD33198968A9CDC9B1E5CBFF344FB8D04D99F8C15C0A02416B04E857B467 SWAP2 DUP2 SWAP1 DUP2 ADD JUMPDEST SUB SWAP1 LOG2 DUP1 RETURN JUMPDEST PUSH4 0x1E4FBDF7 PUSH1 0xE0 SHL DUP4 MSTORE PUSH1 0x4 DUP4 SWAP1 MSTORE PUSH1 0x24 DUP4 REVERT JUMPDEST PUSH1 0x40 MLOAD PUSH3 0x461BCD PUSH1 0xE5 SHL DUP2 MSTORE PUSH1 0x20 PUSH1 0x4 DUP3 ADD MSTORE PUSH1 0x10 PUSH1 0x24 DUP3 ADD MSTORE PUSH16 0x141C9BDC1BDCD85B08195E1C1A5C9959 PUSH1 0x82 SHL PUSH1 0x44 DUP3 ADD MSTORE PUSH1 0x64 SWAP1 REVERT JUMPDEST PUSH4 0x4E487B71 PUSH1 0xE0 SHL DUP5 MSTORE PUSH1 0x11 PUSH1 0x4 MSTORE PUSH1 0x24 DUP5 REVERT JUMPDEST PUSH1 0x64 PUSH1 0x40 MLOAD PUSH3 0x461BCD PUSH1 0xE5 SHL DUP2 MSTORE PUSH1 0x20 PUSH1 0x4 DUP3 ADD MSTORE PUSH1 0x20 PUSH1 0x24 DUP3 ADD MSTORE PUSH32 0x43616E6E6F7420636F6E6669726D20796F7572206F776E2070726F706F73616C PUSH1 0x44 DUP3 ADD MSTORE REVERT JUMPDEST PUSH1 0x40 MLOAD PUSH3 0x461BCD PUSH1 0xE5 SHL DUP2 MSTORE PUSH1 0x20 PUSH1 0x4 DUP3 ADD MSTORE PUSH1 0x1A PUSH1 0x24 DUP3 ADD MSTORE PUSH32 0x4E6F2070726F706F73616C20666F722074686973206F776E6572000000000000 PUSH1 0x44 DUP3 ADD MSTORE PUSH1 0x64 SWAP1 REVERT JUMPDEST POP CALLER DUP4 MSTORE PUSH1 0x2 PUSH1 0x20 MSTORE PUSH1 0x40 DUP4 KECCAK256 SLOAD PUSH1 0xFF AND PUSH2 0x163A JUMP JUMPDEST POP CALLVALUE PUSH2 0x1B8 JUMPI PUSH1 0x20 CALLDATASIZE PUSH1 0x3 NOT ADD SLT PUSH2 0x1B8 JUMPI PUSH1 0x4 CALLDATALOAD SWAP1 PUSH1 0x5 SLOAD DUP3 LT ISZERO PUSH2 0x1B8 JUMPI PUSH1 0x20 PUSH2 0x183E DUP4 PUSH2 0x2082 JUMP JUMPDEST SWAP1 SLOAD PUSH1 0x40 MLOAD PUSH1 0x3 SWAP3 SWAP1 SWAP3 SHL SHR PUSH1 0x1 PUSH1 0x1 PUSH1 0xA0 SHL SUB AND DUP2 MSTORE RETURN JUMPDEST POP CALLVALUE PUSH2 0x1B8 JUMPI PUSH1 0x20 CALLDATASIZE PUSH1 0x3 NOT ADD SLT PUSH2 0x1B8 JUMPI PUSH1 0x4 CALLDATALOAD PUSH1 0x1 PUSH1 0x1 PUSH1 0xA0 SHL SUB DUP2 AND DUP1 DUP3 SUB PUSH2 0x20E JUMPI DUP3 SLOAD PUSH1 0x1 PUSH1 0x1 PUSH1 0xA0 SHL SUB AND CALLER EQ DUP1 ISZERO PUSH2 0x1969 JUMPI JUMPDEST PUSH2 0x189A SWAP1 PUSH2 0x2125 JUMP JUMPDEST DUP1 ISZERO PUSH2 0x1930 JUMPI PUSH1 0x1 PUSH1 0x40 MLOAD SWAP2 PUSH2 0x18AF DUP4 PUSH2 0x21B3 JUMP JUMPDEST CALLER DUP4 MSTORE PUSH1 0x20 DUP4 ADD SWAP1 TIMESTAMP DUP3 MSTORE DUP6 MSTORE PUSH1 0x7 PUSH1 0x20 MSTORE PUSH1 0x40 DUP6 KECCAK256 SWAP3 DUP3 DUP1 PUSH1 0xA0 SHL SUB SWAP1 MLOAD AND PUSH12 0xFFFFFFFFFFFFFFFFFFFFFFFF PUSH1 0xA0 SHL DUP5 SLOAD AND OR DUP4 SSTORE MLOAD SWAP2 ADD SSTORE PUSH32 0xC29BDBD554E41DF97E5C40FC273A09677AC133C245F0064BDFFEF5CC72176E19 PUSH1 0x40 MLOAD DUP1 PUSH2 0x170E CALLER SWAP5 TIMESTAMP SWAP1 DUP4 PUSH1 0x20 SWAP1 SWAP4 SWAP3 SWAP2 SWAP4 PUSH1 0x40 DUP2 ADD SWAP5 PUSH1 0x1 DUP1 PUSH1 0xA0 SHL SUB AND DUP2 MSTORE ADD MSTORE JUMP JUMPDEST PUSH1 0x40 MLOAD PUSH3 0x461BCD PUSH1 0xE5 SHL DUP2 MSTORE PUSH1 0x20 PUSH1 0x4 DUP3 ADD MSTORE PUSH1 0x11 PUSH1 0x24 DUP3 ADD MSTORE PUSH17 0x24B73B30B634B2103732BB9037BBB732B9 PUSH1 0x79 SHL PUSH1 0x44 DUP3 ADD MSTORE PUSH1 0x64 SWAP1 REVERT JUMPDEST POP CALLER DUP4 MSTORE PUSH1 0x2 PUSH1 0x20 MSTORE PUSH1 0x40 DUP4 KECCAK256 SLOAD PUSH1 0xFF AND PUSH2 0x1891 JUMP JUMPDEST POP CALLVALUE PUSH2 0x1B8 JUMPI PUSH1 0x20 CALLDATASIZE PUSH1 0x3 NOT ADD SLT PUSH2 0x1B8 JUMPI PUSH1 0x4 CALLDATALOAD PUSH1 0x1 PUSH1 0x1 PUSH1 0xA0 SHL SUB DUP2 AND SWAP1 DUP2 SWAP1 SUB PUSH2 0x1B6 JUMPI PUSH1 0x60 PUSH2 0x200 PUSH1 0x40 MLOAD PUSH2 0x19B7 DUP2 PUSH2 0x2180 JUMP JUMPDEST DUP3 DUP2 MSTORE DUP5 PUSH1 0x20 DUP3 ADD MSTORE DUP5 PUSH1 0x40 DUP3 ADD MSTORE DUP5 DUP4 DUP3 ADD MSTORE DUP5 PUSH1 0x80 DUP3 ADD MSTORE DUP5 PUSH1 0xA0 DUP3 ADD MSTORE DUP5 PUSH1 0xC0 DUP3 ADD MSTORE DUP5 PUSH1 0xE0 DUP3 ADD MSTORE DUP5 PUSH2 0x100 DUP3 ADD MSTORE DUP5 PUSH2 0x120 DUP3 ADD MSTORE DUP5 PUSH2 0x140 DUP3 ADD MSTORE DUP5 PUSH2 0x160 DUP3 ADD MSTORE DUP5 PUSH2 0x180 DUP3 ADD MSTORE DUP5 PUSH2 0x1A0 DUP3 ADD MSTORE DUP3 PUSH2 0x1C0 DUP3 ADD MSTORE DUP5 PUSH2 0x1E0 DUP3 ADD MSTORE ADD MSTORE DUP1 ISZERO PUSH2 0x1BB6 JUMPI DUP2 PUSH1 0x4 SWAP2 PUSH1 0x40 MLOAD SWAP3 DUP4 DUP1 SWAP3 PUSH4 0x1F385F79 PUSH1 0xE2 SHL DUP3 MSTORE GAS STATICCALL SWAP1 DUP2 ISZERO PUSH2 0x1BAB JUMPI DUP3 SWAP2 PUSH2 0x1B91 JUMPI JUMPDEST POP PUSH1 0x40 MLOAD SWAP1 PUSH1 0x20 DUP3 MSTORE PUSH2 0x1A69 DUP2 MLOAD PUSH2 0x220 PUSH1 0x20 DUP6 ADD MSTORE PUSH2 0x240 DUP5 ADD SWAP1 PUSH2 0x2038 JUMP JUMPDEST SWAP3 PUSH2 0x1A7C PUSH1 0x20 DUP4 ADD MLOAD PUSH1 0x40 DUP6 ADD SWAP1 PUSH2 0x2075 JUMP JUMPDEST PUSH2 0x1A8E PUSH1 0x40 DUP4 ADD MLOAD PUSH1 0x60 DUP6 ADD SWAP1 PUSH2 0x2015 JUMP JUMPDEST PUSH1 0x60 DUP3 ADD MLOAD PUSH1 0x80 DUP5 ADD MSTORE PUSH1 0x80 DUP3 ADD MLOAD PUSH1 0xA0 DUP5 ADD MSTORE PUSH1 0xA0 DUP3 ADD MLOAD PUSH1 0xC0 DUP5 ADD MSTORE PUSH1 0xFF PUSH1 0xC0 DUP4 ADD MLOAD AND PUSH1 0xE0 DUP5 ADD MSTORE PUSH1 0xFF PUSH1 0xE0 DUP4 ADD MLOAD AND PUSH2 0x100 DUP5 ADD MSTORE PUSH2 0x100 DUP3 ADD MLOAD PUSH2 0x120 DUP5 ADD MSTORE PUSH2 0x120 DUP3 ADD MLOAD PUSH2 0x140 DUP5 ADD MSTORE PUSH1 0xFF PUSH2 0x140 DUP4 ADD MLOAD AND PUSH2 0x160 DUP5 ADD MSTORE PUSH1 0xFF PUSH2 0x160 DUP4 ADD MLOAD AND PUSH2 0x180 DUP5 ADD MSTORE PUSH2 0x180 DUP3 ADD MLOAD PUSH2 0x1A0 DUP5 ADD MSTORE PUSH2 0x1A0 DUP3 ADD MLOAD PUSH2 0x1C0 DUP5 ADD MSTORE PUSH2 0x1C0 DUP3 ADD MLOAD SWAP4 PUSH1 0x1F NOT DUP5 DUP3 SUB ADD PUSH2 0x1E0 DUP6 ADD MSTORE PUSH1 0x20 DUP1 DUP7 MLOAD SWAP3 DUP4 DUP2 MSTORE ADD SWAP6 ADD SWAP2 JUMPDEST DUP2 DUP2 LT PUSH2 0x1B66 JUMPI DUP5 DUP1 PUSH2 0x1B2 DUP9 PUSH2 0x200 DUP9 PUSH2 0x1E0 DUP2 ADD MLOAD DUP3 DUP7 ADD MSTORE ADD MLOAD PUSH1 0x1F NOT DUP5 DUP4 SUB ADD PUSH2 0x220 DUP6 ADD MSTORE PUSH2 0x2038 JUMP JUMPDEST DUP3 MLOAD DUP1 MLOAD PUSH1 0x1 PUSH1 0x1 PUSH1 0xA0 SHL SUB AND DUP8 MSTORE PUSH1 0x20 SWAP1 DUP2 ADD MLOAD DUP2 DUP9 ADD MSTORE PUSH1 0x40 SWAP1 SWAP7 ADD SWAP6 SWAP1 SWAP3 ADD SWAP2 PUSH1 0x1 ADD PUSH2 0x1B37 JUMP JUMPDEST PUSH2 0x1BA5 SWAP2 POP RETURNDATASIZE DUP1 DUP5 DUP4 RETURNDATACOPY PUSH2 0x125D DUP2 DUP4 PUSH2 0x21CF JUMP JUMPDEST CODESIZE PUSH2 0x1A48 JUMP JUMPDEST PUSH1 0x40 MLOAD RETURNDATASIZE DUP5 DUP3 RETURNDATACOPY RETURNDATASIZE SWAP1 REVERT JUMPDEST PUSH1 0x40 MLOAD PUSH3 0x461BCD PUSH1 0xE5 SHL DUP2 MSTORE PUSH1 0x20 PUSH1 0x4 DUP3 ADD MSTORE PUSH1 0x17 PUSH1 0x24 DUP3 ADD MSTORE PUSH32 0x496E76616C6964206D697373696F6E2061646472657373000000000000000000 PUSH1 0x44 DUP3 ADD MSTORE PUSH1 0x64 SWAP1 REVERT JUMPDEST POP CALLVALUE PUSH2 0x1B8 JUMPI PUSH1 0x20 CALLDATASIZE PUSH1 0x3 NOT ADD SLT PUSH2 0x1B8 JUMPI PUSH1 0x4 CALLDATALOAD PUSH1 0x6 DUP2 LT ISZERO DUP1 PUSH2 0x20E JUMPI PUSH1 0x5 SLOAD SWAP1 PUSH1 0x2 DUP4 EQ DUP5 DUP1 JUMPDEST DUP4 DUP6 DUP3 LT PUSH2 0x1D3C JUMPI POP POP PUSH2 0x1C38 SWAP1 PUSH2 0x222E JUMP JUMPDEST SWAP4 DUP6 SWAP3 DUP7 JUMPDEST DUP6 DUP2 LT PUSH2 0x1C5A JUMPI PUSH1 0x40 MLOAD PUSH1 0x20 DUP1 DUP3 MSTORE DUP2 SWAP1 PUSH2 0x1B2 SWAP1 DUP3 ADD DUP11 PUSH2 0x2038 JUMP JUMPDEST DUP2 PUSH2 0x1283 JUMPI DUP4 DUP1 PUSH2 0x1D00 JUMPI JUMPDEST DUP1 ISZERO PUSH2 0x1CAC JUMPI JUMPDEST SWAP1 PUSH1 0x1 SWAP2 PUSH2 0x1C7C JUMPI JUMPDEST ADD PUSH2 0x1C3D JUMP JUMPDEST PUSH2 0x1C85 DUP2 PUSH2 0x2082 JUMP JUMPDEST DUP4 DUP1 PUSH1 0xA0 SHL SUB SWAP2 SLOAD SWAP1 PUSH1 0x3 SHL SHR AND PUSH2 0x1CA6 PUSH2 0x1C9F DUP9 PUSH2 0x21F1 JUMP JUMPDEST SWAP8 DUP11 PUSH2 0x2260 JUMP JUMPDEST MSTORE PUSH2 0x1C76 JUMP JUMPDEST POP SWAP1 POP PUSH2 0x1CB8 DUP2 PUSH2 0x2082 JUMP JUMPDEST SWAP1 SLOAD PUSH1 0x3 SWAP2 SWAP1 SWAP2 SHL SHR PUSH1 0x1 PUSH1 0x1 PUSH1 0xA0 SHL SUB AND DUP8 MSTORE PUSH1 0x4 PUSH1 0x20 MSTORE PUSH1 0x40 DUP8 KECCAK256 SLOAD DUP8 SWAP2 SWAP1 PUSH1 0xFF AND PUSH1 0x6 DUP2 LT ISZERO PUSH2 0x1CEC JUMPI DUP4 EQ PUSH2 0x1C6D JUMP JUMPDEST PUSH4 0x4E487B71 PUSH1 0xE0 SHL DUP10 MSTORE PUSH1 0x21 PUSH1 0x4 MSTORE PUSH1 0x24 DUP10 REVERT JUMPDEST POP PUSH2 0x1D0A DUP2 PUSH2 0x2082 JUMP JUMPDEST SWAP1 SLOAD PUSH1 0x3 SWAP2 SWAP1 SWAP2 SHL SHR PUSH1 0x1 PUSH1 0x1 PUSH1 0xA0 SHL SUB AND DUP9 MSTORE PUSH1 0x4 PUSH1 0x20 MSTORE PUSH1 0x40 DUP9 KECCAK256 SLOAD PUSH1 0xFF AND PUSH1 0x6 DUP2 LT ISZERO PUSH2 0x1CEC JUMPI PUSH1 0x3 EQ PUSH2 0x1C66 JUMP JUMPDEST PUSH2 0x11F7 JUMPI DUP3 DUP1 PUSH2 0x1DAF JUMPI JUMPDEST DUP1 ISZERO PUSH2 0x1D6F JUMPI JUMPDEST PUSH2 0x1D5B JUMPI JUMPDEST PUSH1 0x1 ADD PUSH2 0x1C25 JUMP JUMPDEST SWAP1 PUSH2 0x1D67 PUSH1 0x1 SWAP2 PUSH2 0x21F1 JUMP JUMPDEST SWAP2 SWAP1 POP PUSH2 0x1D53 JUMP JUMPDEST POP SWAP3 POP PUSH2 0x1D7B DUP4 PUSH2 0x2082 JUMP JUMPDEST SWAP1 SLOAD PUSH1 0x3 SWAP2 SWAP1 SWAP2 SHL SHR PUSH1 0x1 PUSH1 0x1 PUSH1 0xA0 SHL SUB AND DUP7 MSTORE PUSH1 0x4 PUSH1 0x20 MSTORE PUSH1 0x40 DUP7 KECCAK256 SLOAD DUP7 SWAP4 SWAP1 PUSH1 0xFF AND PUSH1 0x6 DUP2 LT ISZERO PUSH2 0x1283 JUMPI DUP7 EQ PUSH2 0x1D4E JUMP JUMPDEST POP PUSH2 0x1DB9 DUP2 PUSH2 0x2082 JUMP JUMPDEST SWAP1 SLOAD PUSH1 0x3 SWAP2 SWAP1 SWAP2 SHL SHR PUSH1 0x1 PUSH1 0x1 PUSH1 0xA0 SHL SUB AND DUP8 MSTORE PUSH1 0x4 PUSH1 0x20 MSTORE PUSH1 0x40 DUP8 KECCAK256 SLOAD PUSH1 0xFF AND PUSH1 0x6 DUP2 LT ISZERO PUSH2 0x1283 JUMPI PUSH1 0x3 EQ PUSH2 0x1D47 JUMP JUMPDEST POP CALLVALUE PUSH2 0x1B8 JUMPI PUSH1 0x20 CALLDATASIZE PUSH1 0x3 NOT ADD SLT PUSH2 0x1B8 JUMPI DUP1 SLOAD PUSH1 0x1 PUSH1 0x1 PUSH1 0xA0 SHL SUB AND PUSH1 0x4 CALLDATALOAD CALLER DUP3 EQ DUP1 ISZERO PUSH2 0x1F97 JUMPI JUMPDEST PUSH2 0x1E1E SWAP1 PUSH2 0x2125 JUMP JUMPDEST PUSH1 0x2 PUSH1 0x1 SLOAD EQ PUSH2 0x1F88 JUMPI PUSH1 0x2 PUSH1 0x1 SSTORE DUP1 DUP3 ISZERO PUSH2 0x1F4B JUMPI ISZERO PUSH2 0x1F44 JUMPI JUMPDEST SELFBALANCE DUP2 GT PUSH2 0x1F08 JUMPI DUP3 DUP1 DUP1 DUP1 DUP5 DUP7 GAS CALL RETURNDATASIZE ISZERO PUSH2 0x1F03 JUMPI RETURNDATASIZE PUSH8 0xFFFFFFFFFFFFFFFF DUP2 GT PUSH2 0x1EEF JUMPI PUSH1 0x40 MLOAD SWAP1 PUSH2 0x1E77 PUSH1 0x1F DUP3 ADD PUSH1 0x1F NOT AND PUSH1 0x20 ADD DUP4 PUSH2 0x21CF JUMP JUMPDEST DUP2 MSTORE DUP5 PUSH1 0x20 RETURNDATASIZE SWAP3 ADD RETURNDATACOPY JUMPDEST ISZERO PUSH2 0x1EB8 JUMPI PUSH1 0x20 PUSH32 0xEAFF4B37086828766AD3268786972C0CD24259D4C87A80F9D3963A3C3D999B0D SWAP2 PUSH1 0x40 MLOAD SWAP1 DUP2 MSTORE LOG2 PUSH1 0x1 DUP1 SSTORE DUP1 RETURN JUMPDEST PUSH1 0x40 MLOAD PUSH3 0x461BCD PUSH1 0xE5 SHL DUP2 MSTORE PUSH1 0x20 PUSH1 0x4 DUP3 ADD MSTORE PUSH1 0xF PUSH1 0x24 DUP3 ADD MSTORE PUSH15 0x151C985B9CD9995C8819985A5B1959 PUSH1 0x8A SHL PUSH1 0x44 DUP3 ADD MSTORE PUSH1 0x64 SWAP1 REVERT JUMPDEST PUSH4 0x4E487B71 PUSH1 0xE0 SHL DUP6 MSTORE PUSH1 0x41 PUSH1 0x4 MSTORE PUSH1 0x24 DUP6 REVERT JUMPDEST PUSH2 0x1E81 JUMP JUMPDEST PUSH1 0x40 MLOAD PUSH3 0x461BCD PUSH1 0xE5 SHL DUP2 MSTORE PUSH1 0x20 PUSH1 0x4 DUP3 ADD MSTORE PUSH1 0x14 PUSH1 0x24 DUP3 ADD MSTORE PUSH20 0x496E73756666696369656E742062616C616E6365 PUSH1 0x60 SHL PUSH1 0x44 DUP3 ADD MSTORE PUSH1 0x64 SWAP1 REVERT JUMPDEST POP SELFBALANCE PUSH2 0x1E3A JUMP JUMPDEST PUSH1 0x40 MLOAD PUSH3 0x461BCD PUSH1 0xE5 SHL DUP2 MSTORE PUSH1 0x20 PUSH1 0x4 DUP3 ADD MSTORE PUSH1 0x15 PUSH1 0x24 DUP3 ADD MSTORE PUSH21 0x24B73B30B634B21036B0B730B3B2B91037BBB732B9 PUSH1 0x59 SHL PUSH1 0x44 DUP3 ADD MSTORE PUSH1 0x64 SWAP1 REVERT JUMPDEST PUSH4 0x3EE5AEB5 PUSH1 0xE0 SHL DUP4 MSTORE PUSH1 0x4 DUP4 REVERT JUMPDEST POP CALLER DUP4 MSTORE PUSH1 0x2 PUSH1 0x20 MSTORE PUSH1 0x40 DUP4 KECCAK256 SLOAD PUSH1 0xFF AND PUSH2 0x1E15 JUMP JUMPDEST POP CALLVALUE PUSH2 0x1B8 JUMPI DUP1 PUSH1 0x3 NOT CALLDATASIZE ADD SLT PUSH2 0x1B8 JUMPI PUSH1 0x20 PUSH1 0xFF PUSH1 0x9 SLOAD PUSH1 0x8 SHR AND PUSH1 0x40 MLOAD SWAP1 DUP2 MSTORE RETURN JUMPDEST SWAP1 POP CALLVALUE PUSH2 0x1B6 JUMPI PUSH1 0x20 CALLDATASIZE PUSH1 0x3 NOT ADD SLT PUSH2 0x1B6 JUMPI PUSH1 0x4 CALLDATALOAD PUSH1 0x1 PUSH1 0x1 PUSH1 0xA0 SHL SUB DUP2 AND SWAP1 DUP2 SWAP1 SUB PUSH2 0x20E JUMPI DUP2 PUSH1 0xFF PUSH1 0x40 DUP6 PUSH2 0x2013 SWAP5 PUSH1 0x20 SWAP8 MSTORE PUSH1 0x4 DUP8 MSTORE KECCAK256 SLOAD AND PUSH2 0x2015 JUMP JUMPDEST RETURN JUMPDEST SWAP1 PUSH1 0x6 DUP3 LT ISZERO PUSH2 0x2022 JUMPI MSTORE JUMP JUMPDEST PUSH4 0x4E487B71 PUSH1 0xE0 SHL PUSH1 0x0 MSTORE PUSH1 0x21 PUSH1 0x4 MSTORE PUSH1 0x24 PUSH1 0x0 REVERT JUMPDEST SWAP1 PUSH1 0x20 DUP1 DUP4 MLOAD SWAP3 DUP4 DUP2 MSTORE ADD SWAP3 ADD SWAP1 PUSH1 0x0 JUMPDEST DUP2 DUP2 LT PUSH2 0x2056 JUMPI POP POP POP SWAP1 JUMP JUMPDEST DUP3 MLOAD PUSH1 0x1 PUSH1 0x1 PUSH1 0xA0 SHL SUB AND DUP5 MSTORE PUSH1 0x20 SWAP4 DUP5 ADD SWAP4 SWAP1 SWAP3 ADD SWAP2 PUSH1 0x1 ADD PUSH2 0x2049 JUMP JUMPDEST SWAP1 PUSH1 0x7 DUP3 LT ISZERO PUSH2 0x2022 JUMPI MSTORE JUMP JUMPDEST PUSH1 0x5 SLOAD DUP2 LT ISZERO PUSH2 0x209D JUMPI PUSH1 0x5 PUSH1 0x0 MSTORE PUSH1 0x20 PUSH1 0x0 KECCAK256 ADD SWAP1 PUSH1 0x0 SWAP1 JUMP JUMPDEST PUSH4 0x4E487B71 PUSH1 0xE0 SHL PUSH1 0x0 MSTORE PUSH1 0x32 PUSH1 0x4 MSTORE PUSH1 0x24 PUSH1 0x0 REVERT JUMPDEST DUP1 SLOAD DUP3 LT ISZERO PUSH2 0x209D JUMPI PUSH1 0x0 MSTORE PUSH1 0x20 PUSH1 0x0 KECCAK256 ADD SWAP1 PUSH1 0x0 SWAP1 JUMP JUMPDEST SWAP2 SWAP1 DUP3 MLOAD SWAP3 DUP4 DUP3 MSTORE PUSH1 0x0 JUMPDEST DUP5 DUP2 LT PUSH2 0x20F7 JUMPI POP POP DUP3 PUSH1 0x0 PUSH1 0x20 DUP1 SWAP5 SWAP6 DUP5 ADD ADD MSTORE PUSH1 0x1F DUP1 NOT SWAP2 ADD AND ADD ADD SWAP1 JUMP JUMPDEST DUP1 PUSH1 0x20 DUP1 SWAP3 DUP5 ADD ADD MLOAD DUP3 DUP3 DUP7 ADD ADD MSTORE ADD PUSH2 0x20D6 JUMP JUMPDEST PUSH1 0x7 DUP2 LT ISZERO PUSH2 0x2022 JUMPI PUSH1 0x0 MSTORE PUSH1 0x3 PUSH1 0x20 MSTORE PUSH1 0x40 PUSH1 0x0 KECCAK256 SWAP1 JUMP JUMPDEST ISZERO PUSH2 0x212C JUMPI JUMP JUMPDEST PUSH1 0x40 MLOAD PUSH3 0x461BCD PUSH1 0xE5 SHL DUP2 MSTORE PUSH1 0x20 PUSH1 0x4 DUP3 ADD MSTORE PUSH1 0x26 PUSH1 0x24 DUP3 ADD MSTORE PUSH32 0x4E6F74206F776E6572206F72204D697373696F6E466163746F72792061757468 PUSH1 0x44 DUP3 ADD MSTORE PUSH6 0x1BDC9A5E9959 PUSH1 0xD2 SHL PUSH1 0x64 DUP3 ADD MSTORE PUSH1 0x84 SWAP1 REVERT JUMPDEST PUSH2 0x220 DUP2 ADD SWAP1 DUP2 LT PUSH8 0xFFFFFFFFFFFFFFFF DUP3 GT OR PUSH2 0x219D JUMPI PUSH1 0x40 MSTORE JUMP JUMPDEST PUSH4 0x4E487B71 PUSH1 0xE0 SHL PUSH1 0x0 MSTORE PUSH1 0x41 PUSH1 0x4 MSTORE PUSH1 0x24 PUSH1 0x0 REVERT JUMPDEST PUSH1 0x40 DUP2 ADD SWAP1 DUP2 LT PUSH8 0xFFFFFFFFFFFFFFFF DUP3 GT OR PUSH2 0x219D JUMPI PUSH1 0x40 MSTORE JUMP JUMPDEST SWAP1 PUSH1 0x1F DUP1 NOT SWAP2 ADD AND DUP2 ADD SWAP1 DUP2 LT PUSH8 0xFFFFFFFFFFFFFFFF DUP3 GT OR PUSH2 0x219D JUMPI PUSH1 0x40 MSTORE JUMP JUMPDEST PUSH1 0x0 NOT DUP2 EQ PUSH2 0x2200 JUMPI PUSH1 0x1 ADD SWAP1 JUMP JUMPDEST PUSH4 0x4E487B71 PUSH1 0xE0 SHL PUSH1 0x0 MSTORE PUSH1 0x11 PUSH1 0x4 MSTORE PUSH1 0x24 PUSH1 0x0 REVERT JUMPDEST PUSH8 0xFFFFFFFFFFFFFFFF DUP2 GT PUSH2 0x219D JUMPI PUSH1 0x5 SHL PUSH1 0x20 ADD SWAP1 JUMP JUMPDEST SWAP1 PUSH2 0x2238 DUP3 PUSH2 0x2216 JUMP JUMPDEST PUSH2 0x2245 PUSH1 0x40 MLOAD SWAP2 DUP3 PUSH2 0x21CF JUMP JUMPDEST DUP3 DUP2 MSTORE DUP1 SWAP3 PUSH2 0x2256 PUSH1 0x1F NOT SWAP2 PUSH2 0x2216 JUMP JUMPDEST ADD SWAP1 PUSH1 0x20 CALLDATASIZE SWAP2 ADD CALLDATACOPY JUMP JUMPDEST DUP1 MLOAD DUP3 LT ISZERO PUSH2 0x209D JUMPI PUSH1 0x20 SWAP2 PUSH1 0x5 SHL ADD ADD SWAP1 JUMP JUMPDEST MLOAD SWAP1 PUSH1 0x1 PUSH1 0x1 PUSH1 0xA0 SHL SUB DUP3 AND DUP3 SUB PUSH2 0x2288 JUMPI JUMP JUMPDEST PUSH1 0x0 DUP1 REVERT JUMPDEST SWAP1 DUP1 PUSH1 0x1F DUP4 ADD SLT ISZERO PUSH2 0x2288 JUMPI DUP2 MLOAD PUSH2 0x22A4 DUP2 PUSH2 0x2216 JUMP JUMPDEST SWAP3 PUSH2 0x22B2 PUSH1 0x40 MLOAD SWAP5 DUP6 PUSH2 0x21CF JUMP JUMPDEST DUP2 DUP5 MSTORE PUSH1 0x20 DUP1 DUP6 ADD SWAP3 PUSH1 0x5 SHL DUP3 ADD ADD SWAP3 DUP4 GT PUSH2 0x2288 JUMPI PUSH1 0x20 ADD SWAP1 JUMPDEST DUP3 DUP3 LT PUSH2 0x22DA JUMPI POP POP POP SWAP1 JUMP JUMPDEST PUSH1 0x20 DUP1 SWAP2 PUSH2 0x22E7 DUP5 PUSH2 0x2274 JUMP JUMPDEST DUP2 MSTORE ADD SWAP2 ADD SWAP1 PUSH2 0x22CD JUMP JUMPDEST MLOAD SWAP1 PUSH1 0xFF DUP3 AND DUP3 SUB PUSH2 0x2288 JUMPI JUMP JUMPDEST PUSH1 0x20 DUP2 DUP4 SUB SLT PUSH2 0x2288 JUMPI DUP1 MLOAD SWAP1 PUSH8 0xFFFFFFFFFFFFFFFF DUP3 GT PUSH2 0x2288 JUMPI ADD PUSH2 0x220 DUP2 DUP4 SUB SLT PUSH2 0x2288 JUMPI PUSH1 0x40 MLOAD SWAP2 PUSH2 0x2335 DUP4 PUSH2 0x2180 JUMP JUMPDEST DUP2 MLOAD PUSH8 0xFFFFFFFFFFFFFFFF DUP2 GT PUSH2 0x2288 JUMPI DUP2 PUSH2 0x2352 SWAP2 DUP5 ADD PUSH2 0x228D JUMP JUMPDEST DUP4 MSTORE PUSH1 0x20 DUP3 ADD MLOAD PUSH1 0x7 DUP2 LT ISZERO PUSH2 0x2288 JUMPI PUSH1 0x20 DUP5 ADD MSTORE PUSH1 0x40 DUP3 ADD MLOAD PUSH1 0x6 DUP2 LT ISZERO PUSH2 0x2288 JUMPI PUSH1 0x40 DUP5 ADD MSTORE PUSH1 0x60 DUP3 ADD MLOAD PUSH1 0x60 DUP5 ADD MSTORE PUSH1 0x80 DUP3 ADD MLOAD PUSH1 0x80 DUP5 ADD MSTORE PUSH1 0xA0 DUP3 ADD MLOAD PUSH1 0xA0 DUP5 ADD MSTORE PUSH2 0x23A4 PUSH1 0xC0 DUP4 ADD PUSH2 0x22F2 JUMP JUMPDEST PUSH1 0xC0 DUP5 ADD MSTORE PUSH2 0x23B5 PUSH1 0xE0 DUP4 ADD PUSH2 0x22F2 JUMP JUMPDEST PUSH1 0xE0 DUP5 ADD MSTORE PUSH2 0x100 DUP3 ADD MLOAD PUSH2 0x100 DUP5 ADD MSTORE PUSH2 0x120 DUP3 ADD MLOAD PUSH2 0x120 DUP5 ADD MSTORE PUSH2 0x23DF PUSH2 0x140 DUP4 ADD PUSH2 0x22F2 JUMP JUMPDEST PUSH2 0x140 DUP5 ADD MSTORE PUSH2 0x23F2 PUSH2 0x160 DUP4 ADD PUSH2 0x22F2 JUMP JUMPDEST PUSH2 0x160 DUP5 ADD MSTORE PUSH2 0x180 DUP3 ADD MLOAD PUSH2 0x180 DUP5 ADD MSTORE PUSH2 0x1A0 DUP3 ADD MLOAD PUSH2 0x1A0 DUP5 ADD MSTORE PUSH2 0x1C0 DUP3 ADD MLOAD PUSH8 0xFFFFFFFFFFFFFFFF DUP2 GT PUSH2 0x2288 JUMPI DUP3 ADD DUP2 PUSH1 0x1F DUP3 ADD SLT ISZERO PUSH2 0x2288 JUMPI DUP1 MLOAD PUSH2 0x243D DUP2 PUSH2 0x2216 JUMP JUMPDEST SWAP2 PUSH2 0x244B PUSH1 0x40 MLOAD SWAP4 DUP5 PUSH2 0x21CF JUMP JUMPDEST DUP2 DUP4 MSTORE PUSH1 0x20 DUP1 DUP5 ADD SWAP3 PUSH1 0x6 SHL DUP3 ADD ADD SWAP1 DUP5 DUP3 GT PUSH2 0x2288 JUMPI PUSH1 0x20 ADD SWAP2 JUMPDEST DUP2 DUP4 LT PUSH2 0x24AB JUMPI POP POP POP PUSH2 0x1C0 DUP5 ADD MSTORE PUSH2 0x1E0 DUP3 ADD MLOAD PUSH2 0x1E0 DUP5 ADD MSTORE PUSH2 0x200 DUP3 ADD MLOAD PUSH8 0xFFFFFFFFFFFFFFFF DUP2 GT PUSH2 0x2288 JUMPI PUSH2 0x24A2 SWAP3 ADD PUSH2 0x228D JUMP JUMPDEST PUSH2 0x200 DUP3 ADD MSTORE SWAP1 JUMP JUMPDEST PUSH1 0x40 DUP4 DUP7 SUB SLT PUSH2 0x2288 JUMPI PUSH1 0x20 PUSH1 0x40 SWAP2 DUP3 MLOAD PUSH2 0x24C5 DUP2 PUSH2 0x21B3 JUMP JUMPDEST PUSH2 0x24CE DUP7 PUSH2 0x2274 JUMP JUMPDEST DUP2 MSTORE DUP3 DUP7 ADD MLOAD DUP4 DUP3 ADD MSTORE DUP2 MSTORE ADD SWAP3 ADD SWAP2 PUSH2 0x2467 JUMP JUMPDEST SWAP2 SWAP1 DUP3 ADD DUP1 SWAP3 GT PUSH2 0x2200 JUMPI JUMP JUMPDEST ISZERO PUSH2 0x24F7 JUMPI JUMP JUMPDEST PUSH1 0x40 MLOAD PUSH3 0x461BCD PUSH1 0xE5 SHL DUP2 MSTORE PUSH1 0x20 PUSH1 0x4 DUP3 ADD MSTORE PUSH1 0xF PUSH1 0x24 DUP3 ADD MSTORE PUSH15 0x496E76616C69642061646472657373 PUSH1 0x88 SHL PUSH1 0x44 DUP3 ADD MSTORE PUSH1 0x64 SWAP1 REVERT JUMPDEST SWAP2 SWAP1 DUP3 SUB SWAP2 DUP3 GT PUSH2 0x2200 JUMPI JUMP JUMPDEST SWAP1 PUSH1 0x60 SWAP1 PUSH1 0x0 SWAP3 PUSH1 0x0 SWAP1 PUSH1 0x1 DUP1 PUSH1 0xA0 SHL SUB AND PUSH1 0x0 MSTORE PUSH1 0x8 PUSH1 0x20 MSTORE PUSH1 0x40 PUSH1 0x0 KECCAK256 SWAP2 PUSH1 0x40 MLOAD DUP1 DUP5 PUSH1 0x20 DUP3 SWAP7 SLOAD SWAP4 DUP5 DUP2 MSTORE ADD SWAP1 PUSH1 0x0 MSTORE PUSH1 0x20 PUSH1 0x0 KECCAK256 SWAP3 PUSH1 0x0 JUMPDEST DUP2 DUP2 LT PUSH2 0x26CD JUMPI POP POP PUSH2 0x258C SWAP3 POP SUB DUP5 PUSH2 0x21CF JUMP JUMPDEST PUSH1 0x0 JUMPDEST DUP4 MLOAD DUP2 LT ISZERO PUSH2 0x25FD JUMPI PUSH2 0x25A2 DUP2 DUP6 PUSH2 0x2260 JUMP JUMPDEST MLOAD PUSH3 0x278D00 DUP2 ADD DUP1 SWAP2 GT PUSH2 0x2200 JUMPI TIMESTAMP LT PUSH2 0x25BF JUMPI JUMPDEST PUSH1 0x1 ADD PUSH2 0x258F JUMP JUMPDEST SWAP2 PUSH2 0x25C9 SWAP1 PUSH2 0x21F1 JUMP JUMPDEST SWAP2 PUSH2 0x25D4 DUP2 DUP6 PUSH2 0x2260 JUMP JUMPDEST MLOAD PUSH3 0x93A80 DUP2 ADD DUP1 SWAP2 GT PUSH2 0x2200 JUMPI TIMESTAMP LT ISZERO PUSH2 0x25B7 JUMPI SWAP5 PUSH2 0x25F5 PUSH1 0x1 SWAP2 PUSH2 0x21F1 JUMP JUMPDEST SWAP6 SWAP1 POP PUSH2 0x25B7 JUMP JUMPDEST POP SWAP4 SWAP2 POP SWAP2 PUSH1 0x9 SLOAD SWAP2 PUSH1 0xFF DUP4 AND GT ISZERO PUSH2 0x2680 JUMPI POP PUSH1 0x8 SHR PUSH1 0xFF AND GT ISZERO PUSH2 0x2635 JUMPI PUSH1 0x1 SWAP1 PUSH1 0x40 MLOAD PUSH2 0x262E PUSH1 0x20 DUP3 PUSH2 0x21CF JUMP JUMPDEST PUSH1 0x0 DUP2 MSTORE SWAP1 JUMP JUMPDEST PUSH1 0x0 SWAP1 PUSH1 0x40 MLOAD PUSH2 0x2646 PUSH1 0x60 DUP3 PUSH2 0x21CF JUMP JUMPDEST PUSH1 0x24 DUP2 MSTORE PUSH32 0x416E7469416464696374696F6E3A204D6F6E74686C79206C696D697420726561 PUSH1 0x20 DUP3 ADD MSTORE PUSH4 0x18DA1959 PUSH1 0xE2 SHL PUSH1 0x40 DUP3 ADD MSTORE SWAP1 JUMP JUMPDEST SWAP3 SWAP2 POP POP PUSH1 0x0 SWAP2 PUSH2 0x2694 PUSH1 0x40 MLOAD SWAP2 DUP3 PUSH2 0x21CF JUMP JUMPDEST PUSH1 0x23 DUP2 MSTORE PUSH32 0x416E7469416464696374696F6E3A205765656B6C79206C696D69742072656163 PUSH1 0x20 DUP3 ADD MSTORE PUSH3 0x1A1959 PUSH1 0xEA SHL PUSH1 0x40 DUP3 ADD MSTORE SWAP1 JUMP JUMPDEST DUP5 SLOAD DUP4 MSTORE PUSH1 0x1 SWAP5 DUP6 ADD SWAP5 DUP9 SWAP5 POP PUSH1 0x20 SWAP1 SWAP4 ADD SWAP3 ADD PUSH2 0x2577 JUMP JUMPDEST PUSH1 0x0 SLOAD PUSH1 0x1 PUSH1 0x1 PUSH1 0xA0 SHL SUB AND CALLER SUB PUSH2 0x26FA JUMPI JUMP JUMPDEST PUSH4 0x118CDAA7 PUSH1 0xE0 SHL PUSH1 0x0 MSTORE CALLER PUSH1 0x4 MSTORE PUSH1 0x24 PUSH1 0x0 REVERT JUMPDEST PUSH1 0x0 DUP1 SLOAD PUSH1 0x1 PUSH1 0x1 PUSH1 0xA0 SHL SUB SWAP3 DUP4 AND PUSH1 0x1 PUSH1 0x1 PUSH1 0xA0 SHL SUB NOT DUP3 AND DUP2 OR DUP4 SSTORE SWAP3 AND SWAP1 PUSH32 0x8BE0079C531659141344CD1FD0A4F28419497F9722A3DAAFE3B4186F6B6457E0 SWAP1 DUP1 LOG3 JUMP INVALID LOG2 PUSH5 0x6970667358 0x22 SLT KECCAK256 POP DELEGATECALL ADDMOD 0xC6 SWAP10 PUSH15 0x8ACADE3EB2565685A1471A452B286C CALLF 0xC3F1 0xB0 SLOAD 0xCF SWAP14 EXTCODEHASH EXTCODESIZE DUP8 ADDRESS PUSH5 0x736F6C6343 STOP ADDMOD 0x1E STOP CALLER PUSH1 0x80 DUP1 PUSH1 0x40 MSTORE CALLVALUE PUSH1 0x79 JUMPI CALLER ISZERO PUSH1 0x63 JUMPI PUSH1 0x0 DUP1 SLOAD CALLER PUSH1 0x1 PUSH1 0x1 PUSH1 0xA0 SHL SUB NOT DUP3 AND DUP2 OR DUP4 SSTORE SWAP2 PUSH1 0x1 PUSH1 0x1 PUSH1 0xA0 SHL SUB SWAP1 SWAP2 AND SWAP1 PUSH32 0x8BE0079C531659141344CD1FD0A4F28419497F9722A3DAAFE3B4186F6B6457E0 SWAP1 DUP1 LOG3 PUSH1 0x1 DUP1 SSTORE PUSH2 0x288F SWAP1 DUP2 PUSH2 0x7F DUP3 CODECOPY RETURN JUMPDEST PUSH4 0x1E4FBDF7 PUSH1 0xE0 SHL PUSH1 0x0 MSTORE PUSH1 0x0 PUSH1 0x4 MSTORE PUSH1 0x24 PUSH1 0x0 REVERT JUMPDEST PUSH1 0x0 DUP1 REVERT INVALID PUSH1 0x80 PUSH1 0x40 MSTORE PUSH1 0x4 CALLDATASIZE LT ISZERO PUSH2 0xF JUMPI STOP JUMPDEST PUSH1 0x0 DUP1 CALLDATALOAD PUSH1 0xE0 SHR DUP1 PUSH4 0x1FB8D1F EQ PUSH2 0x1C96 JUMPI DUP1 PUSH4 0x10EB0E0E EQ PUSH2 0x1C57 JUMPI DUP1 PUSH4 0x12124848 EQ PUSH2 0x1AC0 JUMPI DUP1 PUSH4 0x24600FC3 EQ PUSH2 0x1765 JUMPI DUP1 PUSH4 0x3072CF60 EQ PUSH2 0x1742 JUMPI DUP1 PUSH4 0x715018A6 EQ PUSH2 0x16E8 JUMPI DUP1 PUSH4 0x7475A4CB EQ PUSH2 0x1114 JUMPI DUP1 PUSH4 0x7CE17DE4 EQ PUSH2 0xD40 JUMPI DUP1 PUSH4 0x8DA5CB5B EQ PUSH2 0xD19 JUMPI DUP1 PUSH4 0x987C543A EQ PUSH2 0x8B5 JUMPI DUP1 PUSH4 0x98BDAE43 EQ PUSH2 0x7F4 JUMPI DUP1 PUSH4 0xA52B2B88 EQ PUSH2 0x7B5 JUMPI DUP1 PUSH4 0xB2A4A5D2 EQ PUSH2 0x77C JUMPI DUP1 PUSH4 0xB9713B77 EQ PUSH2 0x6C1 JUMPI DUP1 PUSH4 0xC033A490 EQ PUSH2 0x682 JUMPI DUP1 PUSH4 0xC54168B3 EQ PUSH2 0x21B JUMPI DUP1 PUSH4 0xEB2BAB77 EQ PUSH2 0x164 JUMPI DUP1 PUSH4 0xF2FDE38B EQ PUSH2 0x113 JUMPI PUSH4 0xFA4CF5A1 EQ PUSH2 0xE8 JUMPI STOP JUMPDEST CALLVALUE PUSH2 0x110 JUMPI DUP1 PUSH1 0x3 NOT CALLDATASIZE ADD SLT PUSH2 0x110 JUMPI PUSH1 0x2 SLOAD PUSH1 0x40 MLOAD PUSH1 0x1 PUSH1 0x1 PUSH1 0xA0 SHL SUB SWAP1 SWAP2 AND DUP2 MSTORE PUSH1 0x20 SWAP1 RETURN JUMPDEST DUP1 REVERT JUMPDEST POP CALLVALUE PUSH2 0x110 JUMPI PUSH1 0x20 CALLDATASIZE PUSH1 0x3 NOT ADD SLT PUSH2 0x110 JUMPI PUSH2 0x12D PUSH2 0x1DAC JUMP JUMPDEST PUSH2 0x135 PUSH2 0x27A9 JUMP JUMPDEST PUSH1 0x1 PUSH1 0x1 PUSH1 0xA0 SHL SUB DUP2 AND ISZERO PUSH2 0x150 JUMPI PUSH2 0x14D SWAP1 PUSH2 0x27D2 JUMP JUMPDEST DUP1 RETURN JUMPDEST PUSH4 0x1E4FBDF7 PUSH1 0xE0 SHL DUP3 MSTORE PUSH1 0x4 DUP3 SWAP1 MSTORE PUSH1 0x24 DUP3 REVERT JUMPDEST POP DUP1 PUSH1 0x3 NOT CALLDATASIZE ADD SLT PUSH2 0x110 JUMPI PUSH2 0x17B CALLVALUE ISZERO ISZERO PUSH2 0x205B JUMP JUMPDEST PUSH1 0x2 SLOAD PUSH1 0x1 PUSH1 0x1 PUSH1 0xA0 SHL SUB AND CALLER SUB PUSH2 0x1DE JUMPI PUSH2 0x199 CALLVALUE PUSH1 0xF SLOAD PUSH2 0x1F34 JUMP JUMPDEST PUSH1 0xF SSTORE PUSH32 0x7272B264C9EF2A1E8E9303944736F4977B14A5761227B7B9869FECAA60F89387 PUSH1 0x40 PUSH2 0x1CB CALLVALUE PUSH1 0x10 SLOAD PUSH2 0x1F34 JUMP JUMPDEST DUP1 PUSH1 0x10 SSTORE DUP2 MLOAD SWAP1 CALLVALUE DUP3 MSTORE PUSH1 0x20 DUP3 ADD MSTORE LOG1 DUP1 RETURN JUMPDEST PUSH1 0x40 MLOAD PUSH3 0x461BCD PUSH1 0xE5 SHL DUP2 MSTORE PUSH1 0x20 PUSH1 0x4 DUP3 ADD MSTORE PUSH1 0x15 PUSH1 0x24 DUP3 ADD MSTORE PUSH21 0x13DB9B1E48199858DD1BDC9E4818D85B88199D5B99 PUSH1 0x5A SHL PUSH1 0x44 DUP3 ADD MSTORE PUSH1 0x64 SWAP1 REVERT JUMPDEST POP PUSH2 0x160 CALLDATASIZE PUSH1 0x3 NOT ADD SLT PUSH2 0x110 JUMPI PUSH2 0x231 PUSH2 0x1DAC JUMP JUMPDEST PUSH1 0x24 CALLDATALOAD PUSH1 0x1 PUSH1 0x1 PUSH1 0xA0 SHL SUB DUP2 AND SWAP3 SWAP1 DUP4 SWAP1 SUB PUSH2 0x110 JUMPI PUSH1 0x44 CALLDATALOAD SWAP3 PUSH1 0x7 DUP5 LT ISZERO PUSH2 0x4C5 JUMPI PUSH1 0xC4 CALLDATALOAD PUSH1 0xFF DUP2 AND DUP1 SWAP2 SUB PUSH2 0x67E JUMPI PUSH1 0xE4 CALLDATALOAD SWAP1 PUSH1 0xFF DUP3 AND DUP3 SUB PUSH2 0x67A JUMPI PUSH2 0x144 CALLDATALOAD SWAP3 PUSH1 0xFF DUP5 AND DUP1 SWAP5 SUB PUSH2 0x676 JUMPI PUSH2 0x288 PUSH2 0x2097 JUMP JUMPDEST PUSH1 0x14 SLOAD PUSH1 0xFF DUP2 AND PUSH2 0x63B JUMPI PUSH1 0x1 SWAP1 PUSH2 0x2A1 CALLVALUE ISZERO ISZERO PUSH2 0x205B JUMP JUMPDEST PUSH1 0xFF NOT AND OR PUSH1 0x14 SSTORE PUSH2 0x2B2 DUP7 PUSH2 0x27D2 JUMP JUMPDEST PUSH12 0xFFFFFFFFFFFFFFFFFFFFFFFF PUSH1 0xA0 SHL PUSH1 0x2 SLOAD AND OR PUSH1 0x2 SSTORE PUSH1 0xFF NOT PUSH1 0x7 SLOAD AND PUSH1 0xFF DUP8 AND OR PUSH1 0x7 SSTORE PUSH1 0x64 CALLDATALOAD PUSH1 0x8 SSTORE PUSH1 0x84 CALLDATALOAD PUSH1 0x9 SSTORE PUSH1 0xA4 CALLDATALOAD PUSH1 0xA SSTORE PUSH2 0xFF00 PUSH1 0xB SLOAD SWAP3 PUSH1 0x8 SHL AND SWAP2 PUSH2 0xFFFF NOT AND OR OR PUSH1 0xB SSTORE PUSH2 0x104 CALLDATALOAD PUSH1 0xC SSTORE PUSH2 0x124 CALLDATALOAD PUSH1 0xD SSTORE PUSH2 0xFFFF NOT PUSH1 0xE SLOAD AND OR PUSH1 0xE SSTORE CALLVALUE PUSH1 0xF SSTORE CALLVALUE PUSH1 0x10 SSTORE DUP1 PUSH1 0x12 SSTORE PUSH1 0x20 SWAP1 PUSH1 0x40 MLOAD PUSH2 0x337 DUP4 DUP3 PUSH2 0x1E6D JUMP JUMPDEST DUP2 DUP2 MSTORE PUSH1 0x0 CALLDATASIZE DUP2 CALLDATACOPY DUP1 MLOAD SWAP1 PUSH8 0xFFFFFFFFFFFFFFFF DUP3 GT PUSH2 0x58B JUMPI PUSH1 0x1 PUSH1 0x40 SHL DUP3 GT PUSH2 0x58B JUMPI DUP4 SWAP1 PUSH1 0x6 SLOAD DUP4 PUSH1 0x6 SSTORE DUP1 DUP5 LT PUSH2 0x5DA JUMPI JUMPDEST POP ADD PUSH1 0x6 DUP4 MSTORE DUP3 JUMPDEST DUP3 DUP2 LT PUSH2 0x59F JUMPI POP POP POP PUSH1 0x40 MLOAD PUSH2 0x38C DUP4 DUP3 PUSH2 0x1E6D JUMP JUMPDEST DUP2 DUP2 MSTORE DUP2 SWAP1 PUSH1 0x1 PUSH1 0x40 SHL DUP3 GT PUSH2 0x58B JUMPI DUP4 SWAP1 PUSH1 0x11 SLOAD DUP4 PUSH1 0x11 SSTORE DUP1 DUP5 LT PUSH2 0x507 JUMPI JUMPDEST POP ADD PUSH1 0x11 DUP4 MSTORE PUSH1 0x0 DUP1 MLOAD PUSH1 0x20 PUSH2 0x281A DUP4 CODECOPY DUP2 MLOAD SWAP2 MSTORE DUP5 DUP5 SWAP3 JUMPDEST DUP5 DUP5 LT PUSH2 0x4C9 JUMPI POP POP POP POP POP PUSH1 0x7 SLOAD SWAP1 PUSH1 0xFF DUP3 PUSH1 0x8 SHR AND SWAP2 PUSH2 0xFF00 NOT AND PUSH1 0x7 SSTORE PUSH1 0x1 DUP1 PUSH1 0xA0 SHL SUB PUSH1 0x2 SLOAD AND DUP1 EXTCODESIZE ISZERO PUSH2 0x4C5 JUMPI DUP2 DUP1 SWAP2 PUSH1 0x24 PUSH1 0x40 MLOAD DUP1 SWAP5 DUP2 SWAP4 PUSH4 0xD8D6E8FF PUSH1 0xE0 SHL DUP4 MSTORE PUSH2 0x41B PUSH1 0x4 DUP5 ADD DUP4 PUSH2 0x1E11 JUMP JUMPDEST GAS CALL DUP1 ISZERO PUSH2 0x4BA JUMPI SWAP1 DUP3 SWAP2 PUSH2 0x4A5 JUMPI JUMPDEST POP POP PUSH1 0x6 DUP3 LT ISZERO PUSH2 0x491 JUMPI DUP1 PUSH2 0x491 JUMPI POP SWAP1 PUSH1 0x0 PUSH32 0xE9597995B7A2AF444CC28B2B776B88B1253D701282A9BCF902D4F59750DF7C57 SWAP3 PUSH1 0x0 DUP1 MLOAD PUSH1 0x20 PUSH2 0x283A DUP4 CODECOPY DUP2 MLOAD SWAP2 MSTORE DUP4 PUSH1 0x40 MLOAD TIMESTAMP DUP2 MSTORE LOG3 PUSH1 0x40 MLOAD TIMESTAMP DUP2 MSTORE PUSH1 0x1 PUSH1 0x1 PUSH1 0xA0 SHL SUB SWAP1 SWAP4 AND SWAP3 LOG3 PUSH1 0x1 DUP1 SSTORE STOP JUMPDEST PUSH4 0x4E487B71 PUSH1 0xE0 SHL DUP2 MSTORE PUSH1 0x21 PUSH1 0x4 MSTORE PUSH1 0x24 SWAP1 REVERT JUMPDEST DUP2 PUSH2 0x4AF SWAP2 PUSH2 0x1E6D JUMP JUMPDEST PUSH2 0x110 JUMPI DUP1 CODESIZE PUSH2 0x42B JUMP JUMPDEST PUSH1 0x40 MLOAD RETURNDATASIZE DUP5 DUP3 RETURNDATACOPY RETURNDATASIZE SWAP1 REVERT JUMPDEST POP DUP1 REVERT JUMPDEST DUP1 MLOAD DUP1 MLOAD DUP5 SLOAD PUSH1 0x1 PUSH1 0x1 PUSH1 0xA0 SHL SUB NOT AND PUSH1 0x1 PUSH1 0x1 PUSH1 0xA0 SHL SUB SWAP2 SWAP1 SWAP2 AND OR DUP5 SSTORE PUSH1 0x20 ADD MLOAD PUSH1 0x1 DUP5 DUP2 ADD SWAP2 SWAP1 SWAP2 SSTORE SWAP2 PUSH1 0x2 SWAP2 ADD SWAP3 ADD SWAP3 ADD SWAP2 SWAP1 DUP6 SWAP1 PUSH2 0x3C6 JUMP JUMPDEST SWAP1 SWAP2 POP PUSH1 0x1 PUSH1 0x1 PUSH1 0xFF SHL SUB DUP2 AND DUP2 SUB PUSH2 0x577 JUMPI PUSH1 0x1 PUSH1 0x1 PUSH1 0xFF SHL SUB DUP4 AND DUP4 SUB PUSH2 0x577 JUMPI SWAP1 DUP5 SWAP2 PUSH1 0x1 SHL PUSH1 0x0 DUP1 MLOAD PUSH1 0x20 PUSH2 0x281A DUP4 CODECOPY DUP2 MLOAD SWAP2 MSTORE ADD DUP4 PUSH1 0x1 SHL PUSH1 0x0 DUP1 MLOAD PUSH1 0x20 PUSH2 0x281A DUP4 CODECOPY DUP2 MLOAD SWAP2 MSTORE ADD JUMPDEST DUP2 DUP2 LT PUSH2 0x562 JUMPI POP PUSH2 0x3AD JUMP JUMPDEST DUP6 DUP2 SSTORE PUSH1 0x1 DUP2 ADD DUP7 SWAP1 SSTORE DUP7 SWAP4 POP PUSH1 0x2 ADD PUSH2 0x555 JUMP JUMPDEST PUSH4 0x4E487B71 PUSH1 0xE0 SHL DUP5 MSTORE PUSH1 0x11 PUSH1 0x4 MSTORE PUSH1 0x24 DUP5 REVERT JUMPDEST PUSH4 0x4E487B71 PUSH1 0xE0 SHL DUP4 MSTORE PUSH1 0x41 PUSH1 0x4 MSTORE PUSH1 0x24 DUP4 REVERT JUMPDEST DUP2 MLOAD PUSH1 0x1 PUSH1 0x1 PUSH1 0xA0 SHL SUB AND PUSH32 0xF652222313E28459528D920B65115C16C04F3EFC82AAEDC97BE59F3F377C0D3F DUP3 ADD SSTORE SWAP1 DUP5 ADD SWAP1 PUSH1 0x1 ADD PUSH2 0x375 JUMP JUMPDEST PUSH32 0xF652222313E28459528D920B65115C16C04F3EFC82AAEDC97BE59F3F377C0D3F ADD DUP4 PUSH32 0xF652222313E28459528D920B65115C16C04F3EFC82AAEDC97BE59F3F377C0D3F ADD JUMPDEST DUP2 DUP2 LT PUSH2 0x62D JUMPI POP PUSH2 0x36D JUMP JUMPDEST DUP6 DUP2 SSTORE DUP7 SWAP4 POP PUSH1 0x1 ADD PUSH2 0x620 JUMP JUMPDEST PUSH1 0x40 MLOAD PUSH3 0x461BCD PUSH1 0xE5 SHL DUP2 MSTORE PUSH1 0x20 PUSH1 0x4 DUP3 ADD MSTORE PUSH1 0x13 PUSH1 0x24 DUP3 ADD MSTORE PUSH19 0x105B1C9958591E481A5B9A5D1A585B1A5E9959 PUSH1 0x6A SHL PUSH1 0x44 DUP3 ADD MSTORE PUSH1 0x64 SWAP1 REVERT JUMPDEST DUP5 DUP1 REVERT JUMPDEST DUP4 DUP1 REVERT JUMPDEST DUP3 DUP1 REVERT JUMPDEST POP CALLVALUE PUSH2 0x110 JUMPI PUSH1 0x20 CALLDATASIZE PUSH1 0x3 NOT ADD SLT PUSH2 0x110 JUMPI PUSH1 0x20 SWAP1 PUSH1 0xFF SWAP1 PUSH1 0x40 SWAP1 PUSH1 0x1 PUSH1 0x1 PUSH1 0xA0 SHL SUB PUSH2 0x6AD PUSH2 0x1DAC JUMP JUMPDEST AND DUP2 MSTORE PUSH1 0x5 DUP5 MSTORE KECCAK256 SLOAD AND PUSH1 0x40 MLOAD SWAP1 ISZERO ISZERO DUP2 MSTORE RETURN JUMPDEST POP CALLVALUE PUSH2 0x110 JUMPI DUP1 PUSH1 0x3 NOT CALLDATASIZE ADD SLT PUSH2 0x110 JUMPI PUSH1 0x7 SLOAD PUSH1 0x8 SLOAD PUSH1 0x9 SLOAD PUSH1 0xA SLOAD PUSH1 0xB SLOAD PUSH1 0xC SLOAD PUSH1 0xD SLOAD SWAP1 PUSH1 0xE SLOAD SWAP3 PUSH1 0xF SLOAD SWAP5 PUSH1 0x10 SLOAD SWAP7 PUSH1 0x12 SLOAD SWAP9 PUSH1 0x40 MLOAD SWAP11 DUP12 PUSH1 0xFF DUP3 AND SWAP1 PUSH2 0x70B SWAP2 PUSH2 0x1E04 JUMP JUMPDEST PUSH1 0x20 DUP13 ADD SWAP1 PUSH1 0x8 SHR PUSH1 0xFF AND SWAP1 PUSH2 0x720 SWAP2 PUSH2 0x1E11 JUMP JUMPDEST PUSH1 0x40 DUP12 ADD MSTORE PUSH1 0x60 DUP11 ADD MSTORE PUSH1 0x80 DUP10 ADD MSTORE PUSH1 0xFF DUP2 AND PUSH1 0xA0 DUP10 ADD MSTORE PUSH1 0x8 SHR PUSH1 0xFF AND PUSH1 0xC0 DUP9 ADD MSTORE PUSH1 0xE0 DUP8 ADD MSTORE PUSH2 0x100 DUP7 ADD MSTORE PUSH1 0xFF DUP2 AND PUSH2 0x120 DUP7 ADD MSTORE PUSH1 0x8 SHR PUSH1 0xFF AND PUSH2 0x140 DUP6 ADD MSTORE PUSH2 0x160 DUP5 ADD MSTORE PUSH2 0x180 DUP4 ADD MSTORE PUSH2 0x1A0 DUP3 ADD MSTORE PUSH2 0x1C0 SWAP1 RETURN JUMPDEST POP CALLVALUE PUSH2 0x110 JUMPI PUSH1 0x20 CALLDATASIZE PUSH1 0x3 NOT ADD SLT PUSH2 0x110 JUMPI PUSH1 0x20 SWAP1 PUSH1 0x40 SWAP1 PUSH1 0x1 PUSH1 0x1 PUSH1 0xA0 SHL SUB PUSH2 0x7A4 PUSH2 0x1DAC JUMP JUMPDEST AND DUP2 MSTORE PUSH1 0x15 DUP4 MSTORE KECCAK256 SLOAD PUSH1 0x40 MLOAD SWAP1 DUP2 MSTORE RETURN JUMPDEST POP CALLVALUE PUSH2 0x110 JUMPI PUSH1 0x20 CALLDATASIZE PUSH1 0x3 NOT ADD SLT PUSH2 0x110 JUMPI PUSH1 0x20 SWAP1 PUSH1 0xFF SWAP1 PUSH1 0x40 SWAP1 PUSH1 0x1 PUSH1 0x1 PUSH1 0xA0 SHL SUB PUSH2 0x7E0 PUSH2 0x1DAC JUMP JUMPDEST AND DUP2 MSTORE PUSH1 0x4 DUP5 MSTORE KECCAK256 SLOAD AND PUSH1 0x40 MLOAD SWAP1 ISZERO ISZERO DUP2 MSTORE RETURN JUMPDEST POP CALLVALUE PUSH2 0x110 JUMPI DUP1 PUSH1 0x3 NOT CALLDATASIZE ADD SLT PUSH2 0x110 JUMPI PUSH2 0x80D PUSH2 0x2097 JUMP JUMPDEST DUP1 SLOAD PUSH1 0x1 PUSH1 0x1 PUSH1 0xA0 SHL SUB AND CALLER EQ DUP1 ISZERO PUSH2 0x839 JUMPI JUMPDEST PUSH2 0x82A SWAP1 PUSH2 0x1E9C JUMP JUMPDEST PUSH2 0x832 PUSH2 0x22A3 JUMP JUMPDEST PUSH1 0x1 DUP1 SSTORE DUP1 RETURN JUMPDEST POP PUSH1 0x2 SLOAD PUSH1 0x40 MLOAD PUSH4 0xB9181611 PUSH1 0xE0 SHL DUP2 MSTORE CALLER PUSH1 0x4 DUP3 ADD MSTORE SWAP1 PUSH1 0x20 SWAP1 DUP3 SWAP1 PUSH1 0x24 SWAP1 DUP3 SWAP1 PUSH1 0x1 PUSH1 0x1 PUSH1 0xA0 SHL SUB AND GAS STATICCALL DUP1 ISZERO PUSH2 0x4BA JUMPI DUP3 SWAP1 PUSH2 0x87A JUMPI JUMPDEST SWAP1 POP PUSH2 0x821 JUMP JUMPDEST POP PUSH1 0x20 DUP2 RETURNDATASIZE PUSH1 0x20 GT PUSH2 0x8AD JUMPI JUMPDEST DUP2 PUSH2 0x894 PUSH1 0x20 SWAP4 DUP4 PUSH2 0x1E6D JUMP JUMPDEST DUP2 ADD SUB SLT PUSH2 0x4C5 JUMPI PUSH2 0x8A8 PUSH2 0x82A SWAP2 PUSH2 0x1E8F JUMP JUMPDEST PUSH2 0x873 JUMP JUMPDEST RETURNDATASIZE SWAP2 POP PUSH2 0x887 JUMP JUMPDEST POP DUP1 PUSH1 0x3 NOT CALLDATASIZE ADD SLT PUSH2 0x110 JUMPI PUSH2 0x8C9 PUSH2 0x2097 JUMP JUMPDEST PUSH1 0x8 SLOAD TIMESTAMP LT PUSH2 0xCD4 JUMPI TIMESTAMP PUSH1 0x9 SLOAD LT PUSH2 0xC98 JUMPI PUSH1 0x6 SLOAD PUSH1 0xFF PUSH1 0xB SLOAD PUSH1 0x8 SHR AND GT ISZERO PUSH2 0xC5D JUMPI PUSH1 0xA SLOAD CALLVALUE SUB PUSH2 0xC18 JUMPI CALLER DUP2 MSTORE PUSH1 0x3 PUSH1 0x20 MSTORE PUSH1 0xFF PUSH1 0x40 DUP3 KECCAK256 SLOAD AND PUSH2 0xBD3 JUMPI PUSH1 0x2 SLOAD PUSH1 0x40 MLOAD PUSH4 0x4C0252C3 PUSH1 0xE1 SHL DUP2 MSTORE CALLER PUSH1 0x4 DUP3 ADD MSTORE SWAP1 DUP3 SWAP1 DUP3 SWAP1 PUSH1 0x24 SWAP1 DUP3 SWAP1 PUSH1 0x1 PUSH1 0x1 PUSH1 0xA0 SHL SUB AND GAS STATICCALL SWAP1 DUP2 ISZERO PUSH2 0x4BA JUMPI DUP3 SWAP1 DUP4 SWAP3 PUSH2 0xB4C JUMPI JUMPDEST POP ISZERO PUSH2 0xB0E JUMPI POP PUSH1 0x6 SLOAD PUSH1 0x1 PUSH1 0x40 SHL DUP2 LT ISZERO PUSH2 0xAFA JUMPI DUP1 PUSH1 0x1 PUSH2 0x96D SWAP3 ADD PUSH1 0x6 SSTORE PUSH1 0x6 PUSH2 0x2043 JUMP JUMPDEST DUP2 SLOAD SWAP1 PUSH1 0x3 SHL SWAP1 CALLER DUP3 SHL SWAP2 PUSH1 0x1 DUP1 PUSH1 0xA0 SHL SUB SWAP1 SHL NOT AND OR SWAP1 SSTORE CALLER DUP2 MSTORE PUSH1 0x3 PUSH1 0x20 MSTORE PUSH1 0x40 DUP2 KECCAK256 PUSH1 0x1 PUSH1 0xFF NOT DUP3 SLOAD AND OR SWAP1 SSTORE PUSH2 0x9A9 CALLVALUE PUSH1 0xF SLOAD PUSH2 0x1F34 JUMP JUMPDEST PUSH1 0xF SSTORE PUSH2 0x9B8 CALLVALUE PUSH1 0x10 SLOAD PUSH2 0x1F34 JUMP JUMPDEST PUSH1 0x10 SSTORE PUSH1 0x2 SLOAD DUP2 SWAP1 PUSH1 0x1 PUSH1 0x1 PUSH1 0xA0 SHL SUB AND DUP1 EXTCODESIZE ISZERO PUSH2 0xAF7 JUMPI DUP2 DUP1 SWAP2 PUSH1 0x24 PUSH1 0x40 MLOAD DUP1 SWAP5 DUP2 SWAP4 PUSH4 0xC17F9E59 PUSH1 0xE0 SHL DUP4 MSTORE CALLER PUSH1 0x4 DUP5 ADD MSTORE GAS CALL DUP1 ISZERO PUSH2 0x4BA JUMPI PUSH2 0xAE2 JUMPI JUMPDEST POP POP PUSH1 0x6 SLOAD PUSH1 0x40 MLOAD SWAP1 CALLVALUE DUP3 MSTORE PUSH1 0x20 DUP3 ADD MSTORE PUSH32 0xBEDD10D90B8962EB521114C7E2B49019403D371FFA1E46AFBDA7A3F1FDE8F06F PUSH1 0x40 CALLER SWAP3 LOG2 PUSH1 0x7 SLOAD SWAP1 PUSH2 0x100 PUSH1 0xFF DUP4 PUSH1 0x8 SHR AND SWAP3 PUSH2 0xFF00 NOT AND OR PUSH1 0x7 SSTORE PUSH1 0x1 DUP1 PUSH1 0xA0 SHL SUB PUSH1 0x2 SLOAD AND DUP1 EXTCODESIZE ISZERO PUSH2 0x4C5 JUMPI PUSH1 0x40 MLOAD PUSH4 0xD8D6E8FF PUSH1 0xE0 SHL DUP2 MSTORE SWAP1 DUP2 PUSH1 0x24 DUP2 DUP6 DUP1 SWAP5 PUSH1 0x1 PUSH1 0x4 DUP5 ADD MSTORE GAS CALL DUP1 ISZERO PUSH2 0x4BA JUMPI SWAP1 DUP3 SWAP2 PUSH2 0xAB7 JUMPI JUMPDEST POP POP PUSH1 0x6 DUP3 LT ISZERO PUSH2 0x491 JUMPI DUP1 PUSH2 0x491 JUMPI PUSH1 0x1 DUP3 PUSH1 0x0 DUP1 MLOAD PUSH1 0x20 PUSH2 0x283A DUP4 CODECOPY DUP2 MLOAD SWAP2 MSTORE PUSH1 0x20 PUSH1 0x40 MLOAD TIMESTAMP DUP2 MSTORE LOG3 PUSH1 0x1 DUP1 SSTORE STOP JUMPDEST DUP2 PUSH2 0xAC1 SWAP2 PUSH2 0x1E6D JUMP JUMPDEST PUSH2 0x110 JUMPI DUP1 CODESIZE PUSH2 0xA86 JUMP JUMPDEST PUSH4 0x4E487B71 PUSH1 0xE0 SHL PUSH1 0x0 MSTORE PUSH1 0x21 PUSH1 0x4 MSTORE PUSH1 0x24 PUSH1 0x0 REVERT JUMPDEST DUP2 PUSH2 0xAEC SWAP2 PUSH2 0x1E6D JUMP JUMPDEST PUSH2 0x110 JUMPI DUP1 CODESIZE PUSH2 0x9F9 JUMP JUMPDEST POP REVERT JUMPDEST PUSH4 0x4E487B71 PUSH1 0xE0 SHL DUP3 MSTORE PUSH1 0x41 PUSH1 0x4 MSTORE PUSH1 0x24 DUP3 REVERT JUMPDEST PUSH1 0x44 PUSH1 0x40 MLOAD DUP1 SWAP3 PUSH3 0x461BCD PUSH1 0xE5 SHL DUP3 MSTORE PUSH1 0x20 PUSH1 0x4 DUP4 ADD MSTORE PUSH2 0xB3E DUP2 MLOAD DUP1 SWAP3 DUP2 PUSH1 0x24 DUP7 ADD MSTORE PUSH1 0x20 DUP7 DUP7 ADD SWAP2 ADD PUSH2 0x2005 JUMP JUMPDEST PUSH1 0x1F ADD PUSH1 0x1F NOT AND DUP2 ADD SUB ADD SWAP1 REVERT JUMPDEST SWAP2 POP POP RETURNDATASIZE DUP1 DUP4 DUP4 RETURNDATACOPY PUSH2 0xB5E DUP2 DUP4 PUSH2 0x1E6D JUMP JUMPDEST DUP2 ADD SWAP1 PUSH1 0x40 DUP2 DUP4 SUB SLT PUSH2 0x67E JUMPI PUSH2 0xB74 DUP2 PUSH2 0x1E8F JUMP JUMPDEST SWAP1 PUSH1 0x20 DUP2 ADD MLOAD SWAP1 PUSH8 0xFFFFFFFFFFFFFFFF DUP3 GT PUSH2 0x676 JUMPI ADD DUP3 PUSH1 0x1F DUP3 ADD SLT ISZERO PUSH2 0x67A JUMPI DUP1 MLOAD PUSH2 0xBA1 DUP2 PUSH2 0x1FB9 JUMP JUMPDEST SWAP4 PUSH2 0xBAF PUSH1 0x40 MLOAD SWAP6 DUP7 PUSH2 0x1E6D JUMP JUMPDEST DUP2 DUP6 MSTORE PUSH1 0x20 DUP3 DUP5 ADD ADD GT PUSH2 0x676 JUMPI PUSH2 0xBCD SWAP2 PUSH1 0x20 DUP1 DUP7 ADD SWAP2 ADD PUSH2 0x2005 JUMP JUMPDEST CODESIZE PUSH2 0x945 JUMP JUMPDEST PUSH1 0x40 MLOAD PUSH3 0x461BCD PUSH1 0xE5 SHL DUP2 MSTORE PUSH1 0x20 PUSH1 0x4 DUP3 ADD MSTORE PUSH1 0x17 PUSH1 0x24 DUP3 ADD MSTORE PUSH32 0x506C6179657220616C726561647920656E726F6C6C6564000000000000000000 PUSH1 0x44 DUP3 ADD MSTORE PUSH1 0x64 SWAP1 REVERT JUMPDEST PUSH1 0x40 MLOAD PUSH3 0x461BCD PUSH1 0xE5 SHL DUP2 MSTORE PUSH1 0x20 PUSH1 0x4 DUP3 ADD MSTORE PUSH1 0x1B PUSH1 0x24 DUP3 ADD MSTORE PUSH32 0x496E636F727265637420656E726F6C6C6D656E7420616D6F756E740000000000 PUSH1 0x44 DUP3 ADD MSTORE PUSH1 0x64 SWAP1 REVERT JUMPDEST PUSH1 0x40 MLOAD PUSH3 0x461BCD PUSH1 0xE5 SHL DUP2 MSTORE PUSH1 0x20 PUSH1 0x4 DUP3 ADD MSTORE PUSH1 0x13 PUSH1 0x24 DUP3 ADD MSTORE PUSH19 0x13585E081C1B185E595C9CC81C995858DA1959 PUSH1 0x6A SHL PUSH1 0x44 DUP3 ADD MSTORE PUSH1 0x64 SWAP1 REVERT JUMPDEST PUSH1 0x40 MLOAD PUSH3 0x461BCD PUSH1 0xE5 SHL DUP2 MSTORE PUSH1 0x20 PUSH1 0x4 DUP3 ADD MSTORE PUSH1 0x14 PUSH1 0x24 DUP3 ADD MSTORE PUSH20 0x115B9C9BDB1B1B595B9D081A185CC8195B991959 PUSH1 0x62 SHL PUSH1 0x44 DUP3 ADD MSTORE PUSH1 0x64 SWAP1 REVERT JUMPDEST PUSH1 0x40 MLOAD PUSH3 0x461BCD PUSH1 0xE5 SHL DUP2 MSTORE PUSH1 0x20 PUSH1 0x4 DUP3 ADD MSTORE PUSH1 0x1E PUSH1 0x24 DUP3 ADD MSTORE PUSH32 0x456E726F6C6C6D656E7420686173206E6F742073746172746564207965740000 PUSH1 0x44 DUP3 ADD MSTORE PUSH1 0x64 SWAP1 REVERT JUMPDEST POP CALLVALUE PUSH2 0x110 JUMPI DUP1 PUSH1 0x3 NOT CALLDATASIZE ADD SLT PUSH2 0x110 JUMPI SLOAD PUSH1 0x40 MLOAD PUSH1 0x1 PUSH1 0x1 PUSH1 0xA0 SHL SUB SWAP1 SWAP2 AND DUP2 MSTORE PUSH1 0x20 SWAP1 RETURN JUMPDEST POP CALLVALUE PUSH2 0x110 JUMPI DUP1 PUSH1 0x3 NOT CALLDATASIZE ADD SLT PUSH2 0x110 JUMPI PUSH1 0x60 PUSH2 0x200 PUSH1 0x40 MLOAD PUSH2 0xD62 DUP2 PUSH2 0x1E50 JUMP JUMPDEST DUP3 DUP2 MSTORE DUP4 PUSH1 0x20 DUP3 ADD MSTORE DUP4 PUSH1 0x40 DUP3 ADD MSTORE DUP4 DUP4 DUP3 ADD MSTORE DUP4 PUSH1 0x80 DUP3 ADD MSTORE DUP4 PUSH1 0xA0 DUP3 ADD MSTORE DUP4 PUSH1 0xC0 DUP3 ADD MSTORE DUP4 PUSH1 0xE0 DUP3 ADD MSTORE DUP4 PUSH2 0x100 DUP3 ADD MSTORE DUP4 PUSH2 0x120 DUP3 ADD MSTORE DUP4 PUSH2 0x140 DUP3 ADD MSTORE DUP4 PUSH2 0x160 DUP3 ADD MSTORE DUP4 PUSH2 0x180 DUP3 ADD MSTORE DUP4 PUSH2 0x1A0 DUP3 ADD MSTORE DUP3 PUSH2 0x1C0 DUP3 ADD MSTORE DUP4 PUSH2 0x1E0 DUP3 ADD MSTORE ADD MSTORE PUSH1 0x40 MLOAD PUSH2 0xDD4 DUP2 PUSH2 0x1E50 JUMP JUMPDEST PUSH1 0x40 MLOAD PUSH1 0x6 SLOAD DUP1 DUP3 MSTORE DUP2 PUSH1 0x20 DUP2 ADD PUSH1 0x6 DUP7 MSTORE PUSH1 0x20 DUP7 KECCAK256 SWAP3 DUP7 JUMPDEST DUP2 DUP2 LT PUSH2 0x10F2 JUMPI POP POP PUSH2 0xE02 SWAP3 POP SUB DUP3 PUSH2 0x1E6D JUMP JUMPDEST DUP2 MSTORE PUSH1 0x7 SLOAD PUSH1 0xFF DUP2 AND PUSH1 0x7 DUP2 LT ISZERO PUSH2 0x10DE JUMPI PUSH1 0x20 DUP4 ADD MSTORE PUSH1 0x8 SHR PUSH1 0xFF AND PUSH1 0x6 DUP2 LT ISZERO PUSH2 0x10CA JUMPI PUSH1 0x40 DUP3 ADD MSTORE PUSH1 0x8 SLOAD PUSH1 0x60 DUP3 ADD MSTORE PUSH1 0x9 SLOAD PUSH1 0x80 DUP3 ADD MSTORE PUSH1 0xA SLOAD PUSH1 0xA0 DUP3 ADD MSTORE PUSH1 0xFF PUSH1 0xB SLOAD DUP2 DUP2 AND PUSH1 0xC0 DUP5 ADD MSTORE PUSH1 0x8 SHR AND PUSH1 0xE0 DUP3 ADD MSTORE PUSH1 0xC SLOAD PUSH2 0x100 DUP3 ADD MSTORE PUSH1 0xD SLOAD PUSH2 0x120 DUP3 ADD MSTORE PUSH1 0xFF PUSH1 0xE SLOAD DUP2 DUP2 AND PUSH2 0x140 DUP5 ADD MSTORE PUSH1 0x8 SHR AND PUSH2 0x160 DUP3 ADD MSTORE PUSH1 0xF SLOAD PUSH2 0x180 DUP3 ADD MSTORE PUSH1 0x10 SLOAD PUSH2 0x1A0 DUP3 ADD MSTORE PUSH1 0x11 SLOAD PUSH8 0xFFFFFFFFFFFFFFFF DUP2 GT PUSH2 0x58B JUMPI PUSH1 0x20 DUP2 PUSH1 0x5 SHL ADD SWAP1 PUSH2 0xEBE PUSH1 0x40 MLOAD SWAP3 DUP4 PUSH2 0x1E6D JUMP JUMPDEST DUP1 DUP3 MSTORE PUSH1 0x11 DUP5 MSTORE DUP4 PUSH1 0x0 DUP1 MLOAD PUSH1 0x20 PUSH2 0x281A DUP4 CODECOPY DUP2 MLOAD SWAP2 MSTORE PUSH1 0x20 DUP5 ADD JUMPDEST DUP4 DUP4 LT PUSH2 0x1096 JUMPI POP POP POP POP PUSH2 0x1C0 DUP3 ADD MSTORE PUSH1 0x12 SLOAD PUSH2 0x1E0 DUP3 ADD MSTORE PUSH1 0x40 MLOAD PUSH1 0x13 SLOAD DUP1 DUP3 MSTORE DUP2 PUSH1 0x20 DUP2 ADD PUSH1 0x13 DUP7 MSTORE PUSH1 0x20 DUP7 KECCAK256 SWAP3 DUP7 JUMPDEST DUP2 DUP2 LT PUSH2 0x1074 JUMPI POP POP PUSH2 0xF22 SWAP3 POP SUB DUP3 PUSH2 0x1E6D JUMP JUMPDEST PUSH2 0x200 DUP3 ADD MSTORE PUSH1 0x40 MLOAD SWAP1 PUSH1 0x20 DUP3 MSTORE PUSH2 0xF48 DUP2 MLOAD PUSH2 0x220 PUSH1 0x20 DUP6 ADD MSTORE PUSH2 0x240 DUP5 ADD SWAP1 PUSH2 0x1DC7 JUMP JUMPDEST SWAP3 PUSH2 0xF5B PUSH1 0x20 DUP4 ADD MLOAD PUSH1 0x40 DUP6 ADD SWAP1 PUSH2 0x1E04 JUMP JUMPDEST PUSH2 0xF6D PUSH1 0x40 DUP4 ADD MLOAD PUSH1 0x60 DUP6 ADD SWAP1 PUSH2 0x1E11 JUMP JUMPDEST PUSH1 0x60 DUP3 ADD MLOAD PUSH1 0x80 DUP5 ADD MSTORE PUSH1 0x80 DUP3 ADD MLOAD PUSH1 0xA0 DUP5 ADD MSTORE PUSH1 0xA0 DUP3 ADD MLOAD PUSH1 0xC0 DUP5 ADD MSTORE PUSH1 0xFF PUSH1 0xC0 DUP4 ADD MLOAD AND PUSH1 0xE0 DUP5 ADD MSTORE PUSH1 0xFF PUSH1 0xE0 DUP4 ADD MLOAD AND PUSH2 0x100 DUP5 ADD MSTORE PUSH2 0x100 DUP3 ADD MLOAD PUSH2 0x120 DUP5 ADD MSTORE PUSH2 0x120 DUP3 ADD MLOAD PUSH2 0x140 DUP5 ADD MSTORE PUSH1 0xFF PUSH2 0x140 DUP4 ADD MLOAD AND PUSH2 0x160 DUP5 ADD MSTORE PUSH1 0xFF PUSH2 0x160 DUP4 ADD MLOAD AND PUSH2 0x180 DUP5 ADD MSTORE PUSH2 0x180 DUP3 ADD MLOAD PUSH2 0x1A0 DUP5 ADD MSTORE PUSH2 0x1A0 DUP3 ADD MLOAD PUSH2 0x1C0 DUP5 ADD MSTORE PUSH2 0x1C0 DUP3 ADD MLOAD SWAP4 PUSH1 0x1F NOT DUP5 DUP3 SUB ADD PUSH2 0x1E0 DUP6 ADD MSTORE PUSH1 0x20 DUP1 DUP7 MLOAD SWAP3 DUP4 DUP2 MSTORE ADD SWAP6 ADD SWAP2 JUMPDEST DUP2 DUP2 LT PUSH2 0x1049 JUMPI DUP5 DUP1 PUSH2 0x1045 DUP9 PUSH2 0x200 DUP9 PUSH2 0x1E0 DUP2 ADD MLOAD DUP3 DUP7 ADD MSTORE ADD MLOAD PUSH1 0x1F NOT DUP5 DUP4 SUB ADD PUSH2 0x220 DUP6 ADD MSTORE PUSH2 0x1DC7 JUMP JUMPDEST SUB SWAP1 RETURN JUMPDEST DUP3 MLOAD DUP1 MLOAD PUSH1 0x1 PUSH1 0x1 PUSH1 0xA0 SHL SUB AND DUP8 MSTORE PUSH1 0x20 SWAP1 DUP2 ADD MLOAD DUP2 DUP9 ADD MSTORE PUSH1 0x40 SWAP1 SWAP7 ADD SWAP6 SWAP1 SWAP3 ADD SWAP2 PUSH1 0x1 ADD PUSH2 0x1016 JUMP JUMPDEST DUP5 SLOAD PUSH1 0x1 PUSH1 0x1 PUSH1 0xA0 SHL SUB AND DUP4 MSTORE PUSH1 0x1 SWAP5 DUP6 ADD SWAP5 DUP7 SWAP5 POP PUSH1 0x20 SWAP1 SWAP4 ADD SWAP3 ADD PUSH2 0xF0D JUMP JUMPDEST PUSH1 0x2 PUSH1 0x20 PUSH1 0x1 SWAP3 PUSH1 0x40 MLOAD PUSH2 0x10A9 DUP2 PUSH2 0x1E1E JUMP JUMPDEST DUP5 DUP1 PUSH1 0xA0 SHL SUB DUP7 SLOAD AND DUP2 MSTORE DUP5 DUP7 ADD SLOAD DUP4 DUP3 ADD MSTORE DUP2 MSTORE ADD SWAP3 ADD SWAP3 ADD SWAP2 SWAP1 PUSH2 0xEDA JUMP JUMPDEST PUSH4 0x4E487B71 PUSH1 0xE0 SHL DUP4 MSTORE PUSH1 0x21 PUSH1 0x4 MSTORE PUSH1 0x24 DUP4 REVERT JUMPDEST PUSH4 0x4E487B71 PUSH1 0xE0 SHL DUP5 MSTORE PUSH1 0x21 PUSH1 0x4 MSTORE PUSH1 0x24 DUP5 REVERT JUMPDEST DUP5 SLOAD PUSH1 0x1 PUSH1 0x1 PUSH1 0xA0 SHL SUB AND DUP4 MSTORE PUSH1 0x1 SWAP5 DUP6 ADD SWAP5 DUP7 SWAP5 POP PUSH1 0x20 SWAP1 SWAP4 ADD SWAP3 ADD PUSH2 0xDED JUMP JUMPDEST POP CALLVALUE PUSH2 0x110 JUMPI DUP1 PUSH1 0x3 NOT CALLDATASIZE ADD SLT PUSH2 0x110 JUMPI PUSH2 0x112D PUSH2 0x2097 JUMP JUMPDEST PUSH1 0x12 SLOAD DUP1 ISZERO SWAP1 DUP2 ISZERO PUSH2 0x169C JUMPI JUMPDEST POP ISZERO PUSH2 0x1663 JUMPI CALLER DUP2 MSTORE PUSH1 0x4 PUSH1 0x20 MSTORE PUSH1 0xFF PUSH1 0x40 DUP3 KECCAK256 SLOAD AND PUSH2 0x161E JUMPI CALLER DUP2 MSTORE PUSH1 0x3 PUSH1 0x20 MSTORE PUSH1 0xFF PUSH1 0x40 DUP3 KECCAK256 SLOAD AND ISZERO PUSH2 0x15D9 JUMPI PUSH1 0xC SLOAD TIMESTAMP LT PUSH2 0x1594 JUMPI PUSH1 0xD SLOAD TIMESTAMP LT ISZERO PUSH2 0x155B JUMPI PUSH1 0xFF PUSH1 0x7 SLOAD PUSH1 0x8 SHR AND PUSH1 0x6 DUP2 LT ISZERO PUSH2 0x1416 JUMPI PUSH1 0x2 DUP2 SUB PUSH2 0x151E JUMPI PUSH1 0xE SLOAD PUSH1 0xFF DUP1 DUP3 AND SWAP2 PUSH1 0x8 SHR AND LT ISZERO PUSH2 0x14E2 JUMPI PUSH1 0x3 EQ PUSH2 0x14D5 JUMPI JUMPDEST PUSH1 0xC SLOAD PUSH2 0x11BE DUP2 TIMESTAMP PUSH2 0x1F57 JUMP JUMPDEST SWAP1 PUSH1 0x64 DUP3 MUL SWAP2 DUP1 DUP4 DIV PUSH1 0x64 EQ SWAP1 ISZERO OR ISZERO PUSH2 0x14B9 JUMPI SWAP1 PUSH2 0x11E2 PUSH2 0x11E8 SWAP3 PUSH1 0xD SLOAD PUSH2 0x1F57 JUMP JUMPDEST SWAP1 PUSH2 0x1F64 JUMP JUMPDEST PUSH1 0x11 SLOAD DUP1 ISZERO PUSH2 0x14CD JUMPI PUSH1 0x0 NOT DUP2 ADD SWAP1 DUP2 GT PUSH2 0x14B9 JUMPI PUSH2 0x1208 PUSH1 0x1 SWAP2 PUSH2 0x1F84 JUMP JUMPDEST POP ADD SLOAD SWAP1 JUMPDEST PUSH1 0x64 DUP3 MUL SWAP2 DUP1 DUP4 DIV PUSH1 0x64 EQ SWAP1 ISZERO OR ISZERO PUSH2 0x14B9 JUMPI PUSH2 0x1237 SWAP1 PUSH2 0x1231 PUSH1 0xF SLOAD DUP1 SWAP5 PUSH2 0x1F64 JUMP JUMPDEST SWAP1 PUSH2 0x1F57 JUMP JUMPDEST DUP2 DUP2 MUL SWAP2 DUP2 DUP4 DIV EQ SWAP1 ISZERO OR ISZERO PUSH2 0x14A5 JUMPI PUSH1 0x64 SWAP1 DIV PUSH2 0x1257 DUP2 PUSH1 0x10 SLOAD PUSH2 0x1F57 JUMP JUMPDEST PUSH1 0x10 SSTORE PUSH1 0xE SLOAD PUSH1 0xFF DUP2 PUSH1 0x8 SHR AND PUSH1 0xFF DUP2 EQ PUSH2 0x577 JUMPI PUSH1 0x1 PUSH2 0xFF00 SWAP2 ADD PUSH1 0x8 SHL AND SWAP1 PUSH2 0xFF00 NOT AND OR PUSH1 0xE SSTORE CALLER DUP3 MSTORE PUSH1 0x4 PUSH1 0x20 MSTORE PUSH1 0x40 DUP3 KECCAK256 PUSH1 0x1 PUSH1 0xFF NOT DUP3 SLOAD AND OR SWAP1 SSTORE PUSH1 0x40 MLOAD PUSH2 0x12A4 DUP2 PUSH2 0x1E1E JUMP JUMPDEST CALLER DUP2 MSTORE DUP2 PUSH1 0x20 DUP3 ADD MSTORE PUSH1 0x11 SLOAD PUSH1 0x1 PUSH1 0x40 SHL DUP2 LT ISZERO PUSH2 0x1491 JUMPI DUP1 PUSH1 0x1 PUSH2 0x12CC SWAP3 ADD PUSH1 0x11 SSTORE PUSH2 0x1F84 JUMP JUMPDEST PUSH2 0x147D JUMPI DUP2 MLOAD DUP2 SLOAD PUSH1 0x1 PUSH1 0x1 PUSH1 0xA0 SHL SUB NOT AND PUSH1 0x1 PUSH1 0x1 PUSH1 0xA0 SHL SUB SWAP2 SWAP1 SWAP2 AND OR DUP2 SSTORE PUSH1 0x20 SWAP1 SWAP2 ADD MLOAD PUSH1 0x1 SWAP1 SWAP2 ADD SSTORE DUP2 DUP1 DUP1 DUP1 DUP5 CALLER GAS CALL PUSH2 0x1309 PUSH2 0x1FD5 JUMP JUMPDEST POP ISZERO PUSH2 0x143F JUMPI PUSH1 0xFF PUSH1 0xE SLOAD DUP2 DUP2 PUSH1 0x8 SHR AND DUP1 SWAP4 PUSH1 0x10 SLOAD PUSH1 0x40 MLOAD SWAP2 DUP3 MSTORE PUSH1 0x20 DUP3 ADD MSTORE PUSH32 0xBBDD894F5E6D754C18172761A1A461095C26DE58905E706A8C33657573D40672 PUSH1 0x40 CALLER SWAP3 LOG3 AND SUB PUSH2 0x1366 JUMPI PUSH2 0x135E PUSH2 0x2210 JUMP JUMPDEST PUSH2 0x832 PUSH2 0x2720 JUMP JUMPDEST PUSH1 0x7 SLOAD PUSH2 0x300 PUSH1 0xFF DUP3 PUSH1 0x8 SHR AND SWAP2 PUSH2 0xFF00 NOT AND OR PUSH1 0x7 SSTORE PUSH1 0x1 DUP1 PUSH1 0xA0 SHL SUB PUSH1 0x2 SLOAD AND DUP1 EXTCODESIZE ISZERO PUSH2 0x67E JUMPI PUSH1 0x40 MLOAD PUSH4 0xD8D6E8FF PUSH1 0xE0 SHL DUP2 MSTORE DUP4 DUP2 PUSH1 0x24 DUP2 DUP4 DUP1 SWAP7 PUSH1 0x3 PUSH1 0x4 DUP5 ADD MSTORE GAS CALL DUP1 ISZERO PUSH2 0x4BA JUMPI PUSH2 0x142A JUMPI JUMPDEST POP POP TIMESTAMP PUSH1 0x12 SSTORE PUSH32 0xAE3BA0777E3D90978A607FCA3C27811130DEB71F173B067E83F1BCBD10173B4A PUSH1 0x20 PUSH1 0x40 MLOAD TIMESTAMP DUP2 MSTORE LOG1 PUSH1 0x6 DUP2 LT ISZERO PUSH2 0x1416 JUMPI DUP2 PUSH2 0x1416 JUMPI PUSH1 0x3 SWAP1 PUSH1 0x0 DUP1 MLOAD PUSH1 0x20 PUSH2 0x283A DUP4 CODECOPY DUP2 MLOAD SWAP2 MSTORE PUSH1 0x20 PUSH1 0x40 MLOAD TIMESTAMP DUP2 MSTORE LOG3 PUSH2 0x832 JUMP JUMPDEST PUSH4 0x4E487B71 PUSH1 0xE0 SHL DUP3 MSTORE PUSH1 0x21 PUSH1 0x4 MSTORE PUSH1 0x24 DUP3 REVERT JUMPDEST DUP2 PUSH2 0x1434 SWAP2 PUSH2 0x1E6D JUMP JUMPDEST PUSH2 0x4C5 JUMPI DUP2 CODESIZE PUSH2 0x13B8 JUMP JUMPDEST PUSH1 0x40 MLOAD PUSH3 0x461BCD PUSH1 0xE5 SHL DUP2 MSTORE PUSH1 0x20 PUSH1 0x4 DUP3 ADD MSTORE PUSH1 0x16 PUSH1 0x24 DUP3 ADD MSTORE PUSH22 0x14185E5BDD5D081D1C985B9CD9995C8819985A5B1959 PUSH1 0x52 SHL PUSH1 0x44 DUP3 ADD MSTORE PUSH1 0x64 SWAP1 REVERT JUMPDEST PUSH4 0x4E487B71 PUSH1 0xE0 SHL DUP5 MSTORE PUSH1 0x4 DUP5 SWAP1 MSTORE PUSH1 0x24 DUP5 REVERT JUMPDEST PUSH4 0x4E487B71 PUSH1 0xE0 SHL DUP5 MSTORE PUSH1 0x41 PUSH1 0x4 MSTORE PUSH1 0x24 DUP5 REVERT JUMPDEST PUSH4 0x4E487B71 PUSH1 0xE0 SHL DUP3 MSTORE PUSH1 0x11 PUSH1 0x4 MSTORE PUSH1 0x24 DUP3 REVERT JUMPDEST PUSH4 0x4E487B71 PUSH1 0xE0 SHL DUP4 MSTORE PUSH1 0x11 PUSH1 0x4 MSTORE PUSH1 0x24 DUP4 REVERT JUMPDEST POP DUP2 SWAP1 PUSH2 0x120D JUMP JUMPDEST PUSH2 0x14DD PUSH2 0x20B9 JUMP JUMPDEST PUSH2 0x11B1 JUMP JUMPDEST PUSH1 0x40 MLOAD PUSH3 0x461BCD PUSH1 0xE5 SHL DUP2 MSTORE PUSH1 0x20 PUSH1 0x4 DUP3 ADD MSTORE PUSH1 0x14 PUSH1 0x24 DUP3 ADD MSTORE PUSH20 0x105B1B081C9BDD5B991CC818DBDB5C1B195D1959 PUSH1 0x62 SHL PUSH1 0x44 DUP3 ADD MSTORE PUSH1 0x64 SWAP1 REVERT JUMPDEST PUSH1 0x40 MLOAD PUSH3 0x461BCD PUSH1 0xE5 SHL DUP2 MSTORE PUSH1 0x20 PUSH1 0x4 DUP3 ADD MSTORE PUSH1 0x15 PUSH1 0x24 DUP3 ADD MSTORE PUSH21 0x4D697373696F6E206973206E6F7420416374697665 PUSH1 0x58 SHL PUSH1 0x44 DUP3 ADD MSTORE PUSH1 0x64 SWAP1 REVERT JUMPDEST PUSH1 0x40 MLOAD PUSH3 0x461BCD PUSH1 0xE5 SHL DUP2 MSTORE PUSH1 0x20 PUSH1 0x4 DUP3 ADD MSTORE PUSH1 0x11 PUSH1 0x24 DUP3 ADD MSTORE PUSH17 0x135A5CDCDA5BDB881A185CC8195B991959 PUSH1 0x7A SHL PUSH1 0x44 DUP3 ADD MSTORE PUSH1 0x64 SWAP1 REVERT JUMPDEST PUSH1 0x40 MLOAD PUSH3 0x461BCD PUSH1 0xE5 SHL DUP2 MSTORE PUSH1 0x20 PUSH1 0x4 DUP3 ADD MSTORE PUSH1 0x1B PUSH1 0x24 DUP3 ADD MSTORE PUSH32 0x4D697373696F6E20686173206E6F742073746172746564207965740000000000 PUSH1 0x44 DUP3 ADD MSTORE PUSH1 0x64 SWAP1 REVERT JUMPDEST PUSH1 0x40 MLOAD PUSH3 0x461BCD PUSH1 0xE5 SHL DUP2 MSTORE PUSH1 0x20 PUSH1 0x4 DUP3 ADD MSTORE PUSH1 0x17 PUSH1 0x24 DUP3 ADD MSTORE PUSH32 0x4E6F7420656E726F6C6C656420696E206D697373696F6E000000000000000000 PUSH1 0x44 DUP3 ADD MSTORE PUSH1 0x64 SWAP1 REVERT JUMPDEST PUSH1 0x40 MLOAD PUSH3 0x461BCD PUSH1 0xE5 SHL DUP2 MSTORE PUSH1 0x20 PUSH1 0x4 DUP3 ADD MSTORE PUSH1 0x1F PUSH1 0x24 DUP3 ADD MSTORE PUSH32 0x506C6179657220616C726561647920776F6E2074686973206D697373696F6E00 PUSH1 0x44 DUP3 ADD MSTORE PUSH1 0x64 SWAP1 REVERT JUMPDEST PUSH1 0x40 MLOAD PUSH3 0x461BCD PUSH1 0xE5 SHL DUP2 MSTORE PUSH1 0x20 PUSH1 0x4 DUP3 ADD MSTORE PUSH1 0x11 PUSH1 0x24 DUP3 ADD MSTORE PUSH17 0x135A5CDCDA5BDB881A5CC81C185D5CD959 PUSH1 0x7A SHL PUSH1 0x44 DUP3 ADD MSTORE PUSH1 0x64 SWAP1 REVERT JUMPDEST SWAP2 SWAP1 POP PUSH1 0xE SLOAD SWAP2 PUSH1 0x1 PUSH1 0xFF DUP5 PUSH1 0x8 SHR AND ADD PUSH1 0xFF DUP2 GT PUSH2 0x14B9 JUMPI SWAP2 SWAP3 PUSH2 0x16D4 SWAP3 PUSH1 0xFF SWAP1 DUP2 AND SWAP2 AND SUB PUSH2 0x16DD JUMPI PUSH2 0xFFFF PUSH1 0x3C JUMPDEST AND SWAP1 PUSH2 0x1F34 JUMP JUMPDEST TIMESTAMP LT ISZERO CODESIZE PUSH2 0x113A JUMP JUMPDEST PUSH2 0xFFFF PUSH2 0x12C PUSH2 0x16CD JUMP JUMPDEST POP CALLVALUE PUSH2 0x110 JUMPI DUP1 PUSH1 0x3 NOT CALLDATASIZE ADD SLT PUSH2 0x110 JUMPI PUSH2 0x1701 PUSH2 0x27A9 JUMP JUMPDEST DUP1 SLOAD PUSH1 0x1 PUSH1 0x1 PUSH1 0xA0 SHL SUB NOT DUP2 AND DUP3 SSTORE DUP2 SWAP1 PUSH1 0x1 PUSH1 0x1 PUSH1 0xA0 SHL SUB AND PUSH32 0x8BE0079C531659141344CD1FD0A4F28419497F9722A3DAAFE3B4186F6B6457E0 DUP3 DUP1 LOG3 DUP1 RETURN JUMPDEST POP CALLVALUE PUSH2 0x110 JUMPI DUP1 PUSH1 0x3 NOT CALLDATASIZE ADD SLT PUSH2 0x110 JUMPI PUSH1 0x20 PUSH1 0xFF PUSH1 0x14 SLOAD AND PUSH1 0x40 MLOAD SWAP1 ISZERO ISZERO DUP2 MSTORE RETURN JUMPDEST POP CALLVALUE PUSH2 0x110 JUMPI DUP1 PUSH1 0x3 NOT CALLDATASIZE ADD SLT PUSH2 0x110 JUMPI PUSH2 0x177E PUSH2 0x2097 JUMP JUMPDEST DUP1 SLOAD PUSH1 0x1 PUSH1 0x1 PUSH1 0xA0 SHL SUB AND CALLER EQ DUP1 ISZERO PUSH2 0x1A44 JUMPI JUMPDEST PUSH2 0x179B SWAP1 PUSH2 0x1E9C JUMP JUMPDEST PUSH1 0xFF PUSH1 0x7 SLOAD PUSH1 0x8 SHR AND PUSH1 0x6 DUP2 LT ISZERO PUSH2 0x1416 JUMPI PUSH1 0x4 DUP2 EQ SWAP1 DUP2 ISZERO PUSH2 0x1A39 JUMPI JUMPDEST POP ISZERO PUSH2 0x1A00 JUMPI SELFBALANCE DUP1 ISZERO PUSH2 0x17D5 DUP2 ISZERO PUSH2 0x17D0 DUP2 PUSH2 0x26DD JUMP JUMPDEST PUSH2 0x26DD JUMP JUMPDEST PUSH1 0x19 DUP3 MUL SWAP1 DUP3 DUP3 DIV PUSH1 0x19 EQ OR ISZERO PUSH2 0x14B9 JUMPI PUSH1 0x64 PUSH2 0x17F4 SWAP2 DIV DUP1 SWAP3 PUSH2 0x1F57 JUMP JUMPDEST PUSH1 0x2 SLOAD PUSH1 0x40 MLOAD PUSH4 0x8DA5CB5B PUSH1 0xE0 SHL DUP2 MSTORE DUP5 SWAP2 PUSH1 0x20 SWAP1 DUP3 SWAP1 PUSH1 0x4 SWAP1 DUP3 SWAP1 PUSH1 0x1 PUSH1 0x1 PUSH1 0xA0 SHL SUB AND GAS STATICCALL SWAP1 DUP2 ISZERO PUSH2 0x4BA JUMPI DUP3 SWAP2 DUP6 SWAP2 DUP4 SWAP2 PUSH2 0x19B8 JUMPI JUMPDEST POP DUP3 SWAP2 DUP3 SWAP2 PUSH1 0x1 PUSH1 0x1 PUSH1 0xA0 SHL SUB AND GAS CALL PUSH2 0x1845 PUSH2 0x1FD5 JUMP JUMPDEST POP ISZERO PUSH2 0x197B JUMPI DUP3 DUP1 DUP1 DUP1 DUP5 PUSH1 0x1 DUP1 PUSH1 0xA0 SHL SUB PUSH1 0x2 SLOAD AND GAS CALL PUSH2 0x1865 PUSH2 0x1FD5 JUMP JUMPDEST POP ISZERO PUSH2 0x1936 JUMPI PUSH1 0x1 DUP1 PUSH1 0xA0 SHL SUB PUSH1 0x2 SLOAD AND DUP4 PUSH1 0xFF PUSH1 0x7 SLOAD AND DUP3 EXTCODESIZE ISZERO PUSH2 0x4C5 JUMPI PUSH1 0x44 PUSH2 0x18AD SWAP2 DUP4 PUSH1 0x40 MLOAD SWAP6 DUP7 SWAP5 DUP6 SWAP4 PUSH4 0x4E1E9D1 PUSH1 0xE5 SHL DUP6 MSTORE DUP10 PUSH1 0x4 DUP7 ADD MSTORE PUSH1 0x24 DUP6 ADD SWAP1 PUSH2 0x1E04 JUMP JUMPDEST GAS CALL DUP1 ISZERO PUSH2 0x192B JUMPI PUSH2 0x18F2 JUMPI JUMPDEST POP PUSH32 0xD66662C0DED9E58FD31D5E44944BCFD07FFC15E6927ECC1382E7941CB7BD24C4 SWAP2 PUSH1 0x40 SWAP2 DUP3 MLOAD SWAP2 DUP3 MSTORE PUSH1 0x20 DUP3 ADD MSTORE LOG1 PUSH1 0x1 DUP1 SSTORE DUP1 RETURN JUMPDEST SWAP2 DUP4 PUSH2 0x1922 PUSH1 0x40 SWAP4 SWAP6 PUSH32 0xD66662C0DED9E58FD31D5E44944BCFD07FFC15E6927ECC1382E7941CB7BD24C4 SWAP6 PUSH2 0x1E6D JUMP JUMPDEST SWAP4 SWAP2 POP SWAP2 PUSH2 0x18BA JUMP JUMPDEST PUSH1 0x40 MLOAD RETURNDATASIZE DUP7 DUP3 RETURNDATACOPY RETURNDATASIZE SWAP1 REVERT JUMPDEST PUSH1 0x40 MLOAD PUSH3 0x461BCD PUSH1 0xE5 SHL DUP2 MSTORE PUSH1 0x20 PUSH1 0x4 DUP3 ADD MSTORE PUSH1 0x17 PUSH1 0x24 DUP3 ADD MSTORE PUSH32 0x466163746F7279207472616E73666572206661696C6564000000000000000000 PUSH1 0x44 DUP3 ADD MSTORE PUSH1 0x64 SWAP1 REVERT JUMPDEST PUSH1 0x40 MLOAD PUSH3 0x461BCD PUSH1 0xE5 SHL DUP2 MSTORE PUSH1 0x20 PUSH1 0x4 DUP3 ADD MSTORE PUSH1 0x15 PUSH1 0x24 DUP3 ADD MSTORE PUSH21 0x13DDDB995C881D1C985B9CD9995C8819985A5B1959 PUSH1 0x5A SHL PUSH1 0x44 DUP3 ADD MSTORE PUSH1 0x64 SWAP1 REVERT JUMPDEST SWAP3 POP POP POP PUSH1 0x20 DUP2 RETURNDATASIZE PUSH1 0x20 GT PUSH2 0x19F8 JUMPI JUMPDEST DUP2 PUSH2 0x19D5 PUSH1 0x20 SWAP4 DUP4 PUSH2 0x1E6D JUMP JUMPDEST DUP2 ADD SUB SLT PUSH2 0x4C5 JUMPI MLOAD PUSH1 0x1 PUSH1 0x1 PUSH1 0xA0 SHL SUB DUP2 AND DUP2 SUB PUSH2 0x4C5 JUMPI DUP2 SWAP1 DUP5 SWAP1 DUP3 PUSH2 0x182D JUMP JUMPDEST RETURNDATASIZE SWAP2 POP PUSH2 0x19C8 JUMP JUMPDEST PUSH1 0x40 MLOAD PUSH3 0x461BCD PUSH1 0xE5 SHL DUP2 MSTORE PUSH1 0x20 PUSH1 0x4 DUP3 ADD MSTORE PUSH1 0x11 PUSH1 0x24 DUP3 ADD MSTORE PUSH17 0x135A5CDCDA5BDB881B9BDD08195B991959 PUSH1 0x7A SHL PUSH1 0x44 DUP3 ADD MSTORE PUSH1 0x64 SWAP1 REVERT JUMPDEST PUSH1 0x5 SWAP2 POP EQ CODESIZE PUSH2 0x17B9 JUMP JUMPDEST POP PUSH1 0x2 SLOAD PUSH1 0x40 MLOAD PUSH4 0xB9181611 PUSH1 0xE0 SHL DUP2 MSTORE CALLER PUSH1 0x4 DUP3 ADD MSTORE SWAP1 PUSH1 0x20 SWAP1 DUP3 SWAP1 PUSH1 0x24 SWAP1 DUP3 SWAP1 PUSH1 0x1 PUSH1 0x1 PUSH1 0xA0 SHL SUB AND GAS STATICCALL DUP1 ISZERO PUSH2 0x4BA JUMPI DUP3 SWAP1 PUSH2 0x1A85 JUMPI JUMPDEST SWAP1 POP PUSH2 0x1792 JUMP JUMPDEST POP PUSH1 0x20 DUP2 RETURNDATASIZE PUSH1 0x20 GT PUSH2 0x1AB8 JUMPI JUMPDEST DUP2 PUSH2 0x1A9F PUSH1 0x20 SWAP4 DUP4 PUSH2 0x1E6D JUMP JUMPDEST DUP2 ADD SUB SLT PUSH2 0x4C5 JUMPI PUSH2 0x1AB3 PUSH2 0x179B SWAP2 PUSH2 0x1E8F JUMP JUMPDEST PUSH2 0x1A7E JUMP JUMPDEST RETURNDATASIZE SWAP2 POP PUSH2 0x1A92 JUMP JUMPDEST POP CALLVALUE PUSH2 0x110 JUMPI DUP1 PUSH1 0x3 NOT CALLDATASIZE ADD SLT PUSH2 0x110 JUMPI DUP1 SLOAD PUSH1 0x1 PUSH1 0x1 PUSH1 0xA0 SHL SUB AND CALLER EQ DUP1 ISZERO PUSH2 0x1BDB JUMPI JUMPDEST PUSH2 0x1AEE SWAP1 PUSH2 0x1E9C JUMP JUMPDEST PUSH2 0x1AF6 PUSH2 0x2097 JUMP JUMPDEST PUSH1 0xD SLOAD TIMESTAMP GT ISZERO PUSH2 0x1B9E JUMPI PUSH1 0xFF PUSH1 0x7 SLOAD PUSH1 0x8 SHR AND PUSH1 0x6 DUP2 LT ISZERO PUSH2 0x1416 JUMPI PUSH1 0x2 DUP2 EQ SWAP1 DUP2 ISZERO PUSH2 0x1B93 JUMPI JUMPDEST POP ISZERO PUSH2 0x1B4E JUMPI PUSH1 0xE SLOAD PUSH1 0x8 SHR PUSH1 0xFF AND PUSH2 0x1B39 JUMPI PUSH2 0x82A PUSH2 0x217C JUMP JUMPDEST PUSH2 0x1B41 PUSH2 0x2210 JUMP JUMPDEST PUSH2 0x1B49 PUSH2 0x2720 JUMP JUMPDEST PUSH2 0x832 JUMP JUMPDEST PUSH1 0x40 MLOAD PUSH3 0x461BCD PUSH1 0xE5 SHL DUP2 MSTORE PUSH1 0x20 PUSH1 0x4 DUP3 ADD MSTORE PUSH1 0x1B PUSH1 0x24 DUP3 ADD MSTORE PUSH32 0x4D697373696F6E2063616E6E6F742062652066696E616C697A65640000000000 PUSH1 0x44 DUP3 ADD MSTORE PUSH1 0x64 SWAP1 REVERT JUMPDEST PUSH1 0x3 SWAP2 POP EQ CODESIZE PUSH2 0x1B1E JUMP JUMPDEST PUSH1 0x40 MLOAD PUSH3 0x461BCD PUSH1 0xE5 SHL DUP2 MSTORE PUSH1 0x20 PUSH1 0x4 DUP3 ADD MSTORE PUSH1 0x15 PUSH1 0x24 DUP3 ADD MSTORE PUSH21 0x135A5CDCDA5BDB881B9BDD08195B991959081E595D PUSH1 0x5A SHL PUSH1 0x44 DUP3 ADD MSTORE PUSH1 0x64 SWAP1 REVERT JUMPDEST POP PUSH1 0x2 SLOAD PUSH1 0x40 MLOAD PUSH4 0xB9181611 PUSH1 0xE0 SHL DUP2 MSTORE CALLER PUSH1 0x4 DUP3 ADD MSTORE SWAP1 PUSH1 0x20 SWAP1 DUP3 SWAP1 PUSH1 0x24 SWAP1 DUP3 SWAP1 PUSH1 0x1 PUSH1 0x1 PUSH1 0xA0 SHL SUB AND GAS STATICCALL DUP1 ISZERO PUSH2 0x4BA JUMPI DUP3 SWAP1 PUSH2 0x1C1C JUMPI JUMPDEST SWAP1 POP PUSH2 0x1AE5 JUMP JUMPDEST POP PUSH1 0x20 DUP2 RETURNDATASIZE PUSH1 0x20 GT PUSH2 0x1C4F JUMPI JUMPDEST DUP2 PUSH2 0x1C36 PUSH1 0x20 SWAP4 DUP4 PUSH2 0x1E6D JUMP JUMPDEST DUP2 ADD SUB SLT PUSH2 0x4C5 JUMPI PUSH2 0x1C4A PUSH2 0x1AEE SWAP2 PUSH2 0x1E8F JUMP JUMPDEST PUSH2 0x1C15 JUMP JUMPDEST RETURNDATASIZE SWAP2 POP PUSH2 0x1C29 JUMP JUMPDEST POP CALLVALUE PUSH2 0x110 JUMPI PUSH1 0x20 CALLDATASIZE PUSH1 0x3 NOT ADD SLT PUSH2 0x110 JUMPI PUSH1 0x20 SWAP1 PUSH1 0xFF SWAP1 PUSH1 0x40 SWAP1 PUSH1 0x1 PUSH1 0x1 PUSH1 0xA0 SHL SUB PUSH2 0x1C82 PUSH2 0x1DAC JUMP JUMPDEST AND DUP2 MSTORE PUSH1 0x3 DUP5 MSTORE KECCAK256 SLOAD AND PUSH1 0x40 MLOAD SWAP1 ISZERO ISZERO DUP2 MSTORE RETURN JUMPDEST POP CALLVALUE PUSH2 0x110 JUMPI DUP1 PUSH1 0x3 NOT CALLDATASIZE ADD SLT PUSH2 0x110 JUMPI PUSH2 0x1CAF PUSH2 0x2097 JUMP JUMPDEST DUP1 SLOAD PUSH1 0x1 PUSH1 0x1 PUSH1 0xA0 SHL SUB AND CALLER EQ DUP1 ISZERO PUSH2 0x1D30 JUMPI JUMPDEST PUSH2 0x1CCC SWAP1 PUSH2 0x1E9C JUMP JUMPDEST PUSH2 0x1CDA PUSH1 0x9 SLOAD TIMESTAMP LT ISZERO PUSH2 0x1EE8 JUMP JUMPDEST PUSH1 0x6 SLOAD PUSH1 0xB SLOAD PUSH1 0xFF AND GT ISZERO PUSH2 0x1CF1 JUMPI PUSH2 0x82A PUSH2 0x217C JUMP JUMPDEST PUSH2 0x1CF9 PUSH2 0x20B9 JUMP JUMPDEST PUSH32 0x413BCDCE36601DE9D10AF5354F226F61D5DDE1E304291E211CED6A6DEE6B2556 PUSH1 0x40 PUSH1 0x6 SLOAD DUP2 MLOAD SWAP1 TIMESTAMP DUP3 MSTORE PUSH1 0x20 DUP3 ADD MSTORE LOG1 PUSH2 0x832 JUMP JUMPDEST POP PUSH1 0x2 SLOAD PUSH1 0x40 MLOAD PUSH4 0xB9181611 PUSH1 0xE0 SHL DUP2 MSTORE CALLER PUSH1 0x4 DUP3 ADD MSTORE SWAP1 PUSH1 0x20 SWAP1 DUP3 SWAP1 PUSH1 0x24 SWAP1 DUP3 SWAP1 PUSH1 0x1 PUSH1 0x1 PUSH1 0xA0 SHL SUB AND GAS STATICCALL DUP1 ISZERO PUSH2 0x4BA JUMPI DUP3 SWAP1 PUSH2 0x1D71 JUMPI JUMPDEST SWAP1 POP PUSH2 0x1CC3 JUMP JUMPDEST POP PUSH1 0x20 DUP2 RETURNDATASIZE PUSH1 0x20 GT PUSH2 0x1DA4 JUMPI JUMPDEST DUP2 PUSH2 0x1D8B PUSH1 0x20 SWAP4 DUP4 PUSH2 0x1E6D JUMP JUMPDEST DUP2 ADD SUB SLT PUSH2 0x4C5 JUMPI PUSH2 0x1D9F PUSH2 0x1CCC SWAP2 PUSH2 0x1E8F JUMP JUMPDEST PUSH2 0x1D6A JUMP JUMPDEST RETURNDATASIZE SWAP2 POP PUSH2 0x1D7E JUMP JUMPDEST PUSH1 0x4 CALLDATALOAD SWAP1 PUSH1 0x1 PUSH1 0x1 PUSH1 0xA0 SHL SUB DUP3 AND DUP3 SUB PUSH2 0x1DC2 JUMPI JUMP JUMPDEST PUSH1 0x0 DUP1 REVERT JUMPDEST SWAP1 PUSH1 0x20 DUP1 DUP4 MLOAD SWAP3 DUP4 DUP2 MSTORE ADD SWAP3 ADD SWAP1 PUSH1 0x0 JUMPDEST DUP2 DUP2 LT PUSH2 0x1DE5 JUMPI POP POP POP SWAP1 JUMP JUMPDEST DUP3 MLOAD PUSH1 0x1 PUSH1 0x1 PUSH1 0xA0 SHL SUB AND DUP5 MSTORE PUSH1 0x20 SWAP4 DUP5 ADD SWAP4 SWAP1 SWAP3 ADD SWAP2 PUSH1 0x1 ADD PUSH2 0x1DD8 JUMP JUMPDEST SWAP1 PUSH1 0x7 DUP3 LT ISZERO PUSH2 0xACC JUMPI MSTORE JUMP JUMPDEST SWAP1 PUSH1 0x6 DUP3 LT ISZERO PUSH2 0xACC JUMPI MSTORE JUMP JUMPDEST PUSH1 0x40 DUP2 ADD SWAP1 DUP2 LT PUSH8 0xFFFFFFFFFFFFFFFF DUP3 GT OR PUSH2 0x1E3A JUMPI PUSH1 0x40 MSTORE JUMP JUMPDEST PUSH4 0x4E487B71 PUSH1 0xE0 SHL PUSH1 0x0 MSTORE PUSH1 0x41 PUSH1 0x4 MSTORE PUSH1 0x24 PUSH1 0x0 REVERT JUMPDEST PUSH2 0x220 DUP2 ADD SWAP1 DUP2 LT PUSH8 0xFFFFFFFFFFFFFFFF DUP3 GT OR PUSH2 0x1E3A JUMPI PUSH1 0x40 MSTORE JUMP JUMPDEST SWAP1 PUSH1 0x1F DUP1 NOT SWAP2 ADD AND DUP2 ADD SWAP1 DUP2 LT PUSH8 0xFFFFFFFFFFFFFFFF DUP3 GT OR PUSH2 0x1E3A JUMPI PUSH1 0x40 MSTORE JUMP JUMPDEST MLOAD SWAP1 DUP2 ISZERO ISZERO DUP3 SUB PUSH2 0x1DC2 JUMPI JUMP JUMPDEST ISZERO PUSH2 0x1EA3 JUMPI JUMP JUMPDEST PUSH1 0x40 MLOAD PUSH3 0x461BCD PUSH1 0xE5 SHL DUP2 MSTORE PUSH1 0x20 PUSH1 0x4 DUP3 ADD MSTORE PUSH1 0x17 PUSH1 0x24 DUP3 ADD MSTORE PUSH32 0x4E6F74206F776E6572206F7220617574686F72697A6564000000000000000000 PUSH1 0x44 DUP3 ADD MSTORE PUSH1 0x64 SWAP1 REVERT JUMPDEST ISZERO PUSH2 0x1EEF JUMPI JUMP JUMPDEST PUSH1 0x40 MLOAD PUSH3 0x461BCD PUSH1 0xE5 SHL DUP2 MSTORE PUSH1 0x20 PUSH1 0x4 DUP3 ADD MSTORE PUSH1 0x18 PUSH1 0x24 DUP3 ADD MSTORE PUSH32 0x456E726F6C6C6D656E74207374696C6C206F6E676F696E670000000000000000 PUSH1 0x44 DUP3 ADD MSTORE PUSH1 0x64 SWAP1 REVERT JUMPDEST SWAP2 SWAP1 DUP3 ADD DUP1 SWAP3 GT PUSH2 0x1F41 JUMPI JUMP JUMPDEST PUSH4 0x4E487B71 PUSH1 0xE0 SHL PUSH1 0x0 MSTORE PUSH1 0x11 PUSH1 0x4 MSTORE PUSH1 0x24 PUSH1 0x0 REVERT JUMPDEST SWAP2 SWAP1 DUP3 SUB SWAP2 DUP3 GT PUSH2 0x1F41 JUMPI JUMP JUMPDEST DUP2 ISZERO PUSH2 0x1F6E JUMPI DIV SWAP1 JUMP JUMPDEST PUSH4 0x4E487B71 PUSH1 0xE0 SHL PUSH1 0x0 MSTORE PUSH1 0x12 PUSH1 0x4 MSTORE PUSH1 0x24 PUSH1 0x0 REVERT JUMPDEST PUSH1 0x11 SLOAD DUP2 LT ISZERO PUSH2 0x1FA3 JUMPI PUSH1 0x11 PUSH1 0x0 MSTORE PUSH1 0x20 PUSH1 0x0 KECCAK256 SWAP1 PUSH1 0x1 SHL ADD SWAP1 PUSH1 0x0 SWAP1 JUMP JUMPDEST PUSH4 0x4E487B71 PUSH1 0xE0 SHL PUSH1 0x0 MSTORE PUSH1 0x32 PUSH1 0x4 MSTORE PUSH1 0x24 PUSH1 0x0 REVERT JUMPDEST PUSH8 0xFFFFFFFFFFFFFFFF DUP2 GT PUSH2 0x1E3A JUMPI PUSH1 0x1F ADD PUSH1 0x1F NOT AND PUSH1 0x20 ADD SWAP1 JUMP JUMPDEST RETURNDATASIZE ISZERO PUSH2 0x2000 JUMPI RETURNDATASIZE SWAP1 PUSH2 0x1FE6 DUP3 PUSH2 0x1FB9 JUMP JUMPDEST SWAP2 PUSH2 0x1FF4 PUSH1 0x40 MLOAD SWAP4 DUP5 PUSH2 0x1E6D JUMP JUMPDEST DUP3 MSTORE RETURNDATASIZE PUSH1 0x0 PUSH1 0x20 DUP5 ADD RETURNDATACOPY JUMP JUMPDEST PUSH1 0x60 SWAP1 JUMP JUMPDEST PUSH1 0x0 JUMPDEST DUP4 DUP2 LT PUSH2 0x2018 JUMPI POP POP PUSH1 0x0 SWAP2 ADD MSTORE JUMP JUMPDEST DUP2 DUP2 ADD MLOAD DUP4 DUP3 ADD MSTORE PUSH1 0x20 ADD PUSH2 0x2008 JUMP JUMPDEST PUSH1 0x6 SLOAD DUP2 LT ISZERO PUSH2 0x1FA3 JUMPI PUSH1 0x6 PUSH1 0x0 MSTORE PUSH1 0x20 PUSH1 0x0 KECCAK256 ADD SWAP1 PUSH1 0x0 SWAP1 JUMP JUMPDEST DUP1 SLOAD DUP3 LT ISZERO PUSH2 0x1FA3 JUMPI PUSH1 0x0 MSTORE PUSH1 0x20 PUSH1 0x0 KECCAK256 ADD SWAP1 PUSH1 0x0 SWAP1 JUMP JUMPDEST ISZERO PUSH2 0x2062 JUMPI JUMP JUMPDEST PUSH1 0x40 MLOAD PUSH3 0x461BCD PUSH1 0xE5 SHL DUP2 MSTORE PUSH1 0x20 PUSH1 0x4 DUP3 ADD MSTORE PUSH1 0xD PUSH1 0x24 DUP3 ADD MSTORE PUSH13 0x139BC8199D5B991CC81CD95B9D PUSH1 0x9A SHL PUSH1 0x44 DUP3 ADD MSTORE PUSH1 0x64 SWAP1 REVERT JUMPDEST PUSH1 0x2 PUSH1 0x1 SLOAD EQ PUSH2 0x20A8 JUMPI PUSH1 0x2 PUSH1 0x1 SSTORE JUMP JUMPDEST PUSH4 0x3EE5AEB5 PUSH1 0xE0 SHL PUSH1 0x0 MSTORE PUSH1 0x4 PUSH1 0x0 REVERT JUMPDEST PUSH1 0x7 SLOAD PUSH2 0x200 PUSH1 0xFF DUP3 PUSH1 0x8 SHR AND SWAP2 PUSH2 0xFF00 NOT AND OR PUSH1 0x7 SSTORE PUSH1 0x1 DUP1 PUSH1 0xA0 SHL SUB PUSH1 0x2 SLOAD AND DUP1 EXTCODESIZE ISZERO PUSH2 0x1DC2 JUMPI PUSH1 0x40 MLOAD PUSH4 0xD8D6E8FF PUSH1 0xE0 SHL DUP2 MSTORE PUSH1 0x2 PUSH1 0x4 DUP3 ADD MSTORE GAS DUP2 PUSH1 0x24 DUP2 PUSH1 0x0 DUP1 SWAP7 DUP2 SWAP6 CALL DUP1 ISZERO PUSH2 0x4BA JUMPI DUP3 SWAP1 PUSH2 0x216C JUMPI JUMPDEST SWAP1 POP POP DUP1 PUSH1 0x12 SSTORE PUSH32 0x90819CD8DE9B72986080AB279AB70683338D97E13BBB542D0C4320EF2FF9557F PUSH1 0x20 PUSH1 0x40 MLOAD TIMESTAMP DUP2 MSTORE LOG1 PUSH1 0x6 DUP3 LT ISZERO PUSH2 0x491 JUMPI DUP1 PUSH2 0x491 JUMPI POP PUSH1 0x2 SWAP1 PUSH1 0x0 DUP1 MLOAD PUSH1 0x20 PUSH2 0x283A DUP4 CODECOPY DUP2 MLOAD SWAP2 MSTORE PUSH1 0x20 PUSH1 0x40 MLOAD TIMESTAMP DUP2 MSTORE LOG3 JUMP JUMPDEST PUSH2 0x2175 SWAP2 PUSH2 0x1E6D JUMP JUMPDEST CODESIZE DUP2 PUSH2 0x210F JUMP JUMPDEST PUSH1 0x7 SLOAD PUSH2 0x500 PUSH1 0xFF DUP3 PUSH1 0x8 SHR AND SWAP2 PUSH2 0xFF00 NOT AND OR PUSH1 0x7 SSTORE PUSH1 0x1 DUP1 PUSH1 0xA0 SHL SUB PUSH1 0x2 SLOAD AND DUP1 EXTCODESIZE ISZERO PUSH2 0x1DC2 JUMPI PUSH1 0x40 MLOAD PUSH4 0xD8D6E8FF PUSH1 0xE0 SHL DUP2 MSTORE PUSH1 0x5 PUSH1 0x4 DUP3 ADD MSTORE GAS DUP2 PUSH1 0x24 DUP2 PUSH1 0x0 DUP1 SWAP7 DUP2 SWAP6 CALL DUP1 ISZERO PUSH2 0x4BA JUMPI DUP3 SWAP1 PUSH2 0x2200 JUMPI JUMPDEST POP POP PUSH1 0x6 DUP3 LT ISZERO PUSH2 0x491 JUMPI DUP1 PUSH2 0x491 JUMPI POP PUSH1 0x5 SWAP1 PUSH1 0x0 DUP1 MLOAD PUSH1 0x20 PUSH2 0x283A DUP4 CODECOPY DUP2 MLOAD SWAP2 MSTORE PUSH1 0x20 PUSH1 0x40 MLOAD TIMESTAMP DUP2 MSTORE LOG3 JUMP JUMPDEST PUSH2 0x2209 SWAP2 PUSH2 0x1E6D JUMP JUMPDEST CODESIZE DUP2 PUSH2 0x21D2 JUMP JUMPDEST PUSH1 0x7 SLOAD PUSH2 0x400 PUSH1 0xFF DUP3 PUSH1 0x8 SHR AND SWAP2 PUSH2 0xFF00 NOT AND OR PUSH1 0x7 SSTORE PUSH1 0x1 DUP1 PUSH1 0xA0 SHL SUB PUSH1 0x2 SLOAD AND DUP1 EXTCODESIZE ISZERO PUSH2 0x1DC2 JUMPI PUSH1 0x40 MLOAD PUSH4 0xD8D6E8FF PUSH1 0xE0 SHL DUP2 MSTORE PUSH1 0x4 DUP1 DUP3 ADD MSTORE GAS DUP2 PUSH1 0x24 DUP2 PUSH1 0x0 DUP1 SWAP7 DUP2 SWAP6 CALL DUP1 ISZERO PUSH2 0x4BA JUMPI DUP3 SWAP1 PUSH2 0x2293 JUMPI JUMPDEST POP POP PUSH1 0x6 DUP3 LT ISZERO PUSH2 0x491 JUMPI DUP1 PUSH2 0x491 JUMPI POP PUSH1 0x4 SWAP1 PUSH1 0x0 DUP1 MLOAD PUSH1 0x20 PUSH2 0x283A DUP4 CODECOPY DUP2 MLOAD SWAP2 MSTORE PUSH1 0x20 PUSH1 0x40 MLOAD TIMESTAMP DUP2 MSTORE LOG3 JUMP JUMPDEST PUSH2 0x229C SWAP2 PUSH2 0x1E6D JUMP JUMPDEST CODESIZE DUP2 PUSH2 0x2265 JUMP JUMPDEST PUSH1 0x9 SLOAD SWAP1 PUSH2 0x22B5 PUSH1 0x0 SWAP3 TIMESTAMP LT ISZERO PUSH2 0x1EE8 JUMP JUMPDEST PUSH1 0xFF PUSH1 0x7 SLOAD PUSH1 0x8 SHR AND PUSH1 0x6 DUP2 LT ISZERO PUSH2 0x10CA JUMPI PUSH1 0x5 SUB PUSH2 0x2698 JUMPI PUSH1 0x6 SLOAD ISZERO PUSH2 0x265C JUMPI PUSH1 0x1 SWAP1 DUP3 JUMPDEST PUSH1 0x6 SLOAD DUP2 LT ISZERO PUSH2 0x2427 JUMPI PUSH2 0x22EE DUP2 PUSH2 0x2028 JUMP JUMPDEST SWAP1 SLOAD PUSH1 0x3 SWAP2 SWAP1 SWAP2 SHL SHR PUSH1 0x1 PUSH1 0x1 PUSH1 0xA0 SHL SUB AND DUP1 DUP6 MSTORE PUSH1 0x5 PUSH1 0x20 MSTORE PUSH1 0x40 DUP6 KECCAK256 SLOAD PUSH1 0xFF AND ISZERO PUSH2 0x231F JUMPI JUMPDEST POP PUSH1 0x1 ADD PUSH2 0x22DB JUMP JUMPDEST DUP5 DUP1 DUP1 DUP1 PUSH1 0xA SLOAD DUP6 GAS CALL PUSH2 0x2331 PUSH2 0x1FD5 JUMP JUMPDEST POP ISZERO PUSH2 0x23D2 JUMPI DUP1 DUP6 MSTORE PUSH1 0x5 PUSH1 0x20 MSTORE PUSH1 0x40 DUP6 KECCAK256 DUP1 SLOAD PUSH1 0xFF NOT AND PUSH1 0x1 OR SWAP1 SSTORE PUSH1 0x13 SLOAD PUSH1 0x1 PUSH1 0x40 SHL DUP2 LT ISZERO PUSH2 0x23BE JUMPI SWAP1 PUSH2 0x2372 DUP3 PUSH1 0x1 DUP1 SWAP6 SWAP5 ADD PUSH1 0x13 SSTORE PUSH1 0x13 PUSH2 0x2043 JUMP JUMPDEST DUP2 SLOAD SWAP1 PUSH1 0x3 SHL SWAP1 DUP4 DUP3 SHL SWAP2 DUP7 DUP1 PUSH1 0xA0 SHL SUB SWAP1 SHL NOT AND OR SWAP1 SSTORE PUSH32 0x48D31F1C958CD44F1F83A52AE2DFAF61E88A1B82C07A6D5711A4ABEF60B6531E PUSH1 0x20 PUSH1 0xA SLOAD PUSH1 0x40 MLOAD SWAP1 DUP2 MSTORE LOG2 JUMPDEST SWAP1 PUSH2 0x2316 JUMP JUMPDEST PUSH4 0x4E487B71 PUSH1 0xE0 SHL DUP7 MSTORE PUSH1 0x41 PUSH1 0x4 MSTORE PUSH1 0x24 DUP7 REVERT JUMPDEST SWAP1 SWAP3 POP PUSH1 0xA SLOAD DUP2 DUP6 MSTORE PUSH1 0x15 PUSH1 0x20 MSTORE PUSH2 0x23EF PUSH1 0x40 DUP7 KECCAK256 SWAP2 DUP3 SLOAD PUSH2 0x1F34 JUMP JUMPDEST SWAP1 SSTORE PUSH32 0xAF73B0B217208B61BE286BBC37095BCE7EB8B9CCF617244C2F0F154E8E04E3FF PUSH1 0x20 PUSH1 0xA SLOAD PUSH1 0x40 MLOAD SWAP1 DUP2 MSTORE LOG2 PUSH1 0x1 DUP4 SWAP3 PUSH2 0x23B8 JUMP JUMPDEST POP SWAP2 SWAP1 PUSH1 0xFF PUSH1 0x7 SLOAD PUSH1 0x8 SHR AND PUSH1 0x6 DUP2 LT ISZERO PUSH2 0x10CA JUMPI PUSH1 0x4 DUP2 EQ SWAP1 DUP2 ISZERO PUSH2 0x2651 JUMPI JUMPDEST POP ISZERO PUSH2 0x1A00 JUMPI SELFBALANCE SWAP1 PUSH2 0x245B DUP3 ISZERO ISZERO PUSH2 0x26DD JUMP JUMPDEST ISZERO PUSH2 0x25E7 JUMPI SWAP1 JUMPDEST DUP2 ISZERO PUSH2 0x246E DUP2 ISZERO PUSH2 0x26DD JUMP JUMPDEST PUSH1 0x19 DUP4 MUL SWAP1 DUP4 DUP3 DIV PUSH1 0x19 EQ OR ISZERO PUSH2 0x14A5 JUMPI PUSH1 0x64 PUSH2 0x248D SWAP2 DIV DUP1 SWAP4 PUSH2 0x1F57 JUMP JUMPDEST PUSH1 0x2 SLOAD PUSH1 0x40 MLOAD PUSH4 0x8DA5CB5B PUSH1 0xE0 SHL DUP2 MSTORE SWAP2 SWAP3 SWAP2 SWAP1 PUSH1 0x20 SWAP1 DUP3 SWAP1 PUSH1 0x4 SWAP1 DUP3 SWAP1 PUSH1 0x1 PUSH1 0x1 PUSH1 0xA0 SHL SUB AND GAS STATICCALL SWAP1 DUP2 ISZERO PUSH2 0x4BA JUMPI DUP3 SWAP2 DUP6 SWAP2 DUP4 SWAP2 PUSH2 0x259F JUMPI JUMPDEST POP DUP3 SWAP2 DUP3 SWAP2 DUP3 SWAP2 SWAP1 PUSH1 0x1 PUSH1 0x1 PUSH1 0xA0 SHL SUB AND GAS CALL PUSH2 0x24E3 PUSH2 0x1FD5 JUMP JUMPDEST POP ISZERO PUSH2 0x197B JUMPI DUP1 DUP1 DUP1 DUP1 DUP6 PUSH1 0x1 DUP1 PUSH1 0xA0 SHL SUB PUSH1 0x2 SLOAD AND GAS CALL PUSH2 0x2503 PUSH2 0x1FD5 JUMP JUMPDEST POP ISZERO PUSH2 0x1936 JUMPI PUSH1 0x1 DUP1 PUSH1 0xA0 SHL SUB PUSH1 0x2 SLOAD AND PUSH1 0xFF PUSH1 0x7 SLOAD AND DUP2 EXTCODESIZE ISZERO PUSH2 0x67E JUMPI PUSH2 0x254B PUSH1 0x44 DUP5 SWAP3 DUP4 PUSH1 0x40 MLOAD SWAP6 DUP7 SWAP5 DUP6 SWAP4 PUSH4 0x4E1E9D1 PUSH1 0xE5 SHL DUP6 MSTORE DUP11 PUSH1 0x4 DUP7 ADD MSTORE PUSH1 0x24 DUP6 ADD SWAP1 PUSH2 0x1E04 JUMP JUMPDEST GAS CALL DUP1 ISZERO PUSH2 0x4BA JUMPI SWAP2 PUSH1 0x40 SWAP4 SWAP2 PUSH32 0xD66662C0DED9E58FD31D5E44944BCFD07FFC15E6927ECC1382E7941CB7BD24C4 SWAP6 SWAP4 PUSH2 0x258F JUMPI JUMPDEST POP POP DUP3 MLOAD SWAP2 DUP3 MSTORE PUSH1 0x20 DUP3 ADD MSTORE LOG1 JUMP JUMPDEST DUP2 PUSH2 0x2599 SWAP2 PUSH2 0x1E6D JUMP JUMPDEST CODESIZE PUSH2 0x2580 JUMP JUMPDEST SWAP3 POP POP POP PUSH1 0x20 DUP2 RETURNDATASIZE PUSH1 0x20 GT PUSH2 0x25DF JUMPI JUMPDEST DUP2 PUSH2 0x25BC PUSH1 0x20 SWAP4 DUP4 PUSH2 0x1E6D JUMP JUMPDEST DUP2 ADD SUB SLT PUSH2 0x4C5 JUMPI MLOAD PUSH1 0x1 PUSH1 0x1 PUSH1 0xA0 SHL SUB DUP2 AND DUP2 SUB PUSH2 0x4C5 JUMPI DUP2 SWAP1 DUP5 SWAP1 DUP3 PUSH2 0x24C8 JUMP JUMPDEST RETURNDATASIZE SWAP2 POP PUSH2 0x25AF JUMP JUMPDEST SWAP2 SWAP1 DUP1 DUP2 PUSH1 0x6 SLOAD JUMPDEST DUP1 DUP3 LT PUSH2 0x2618 JUMPI POP POP DUP4 PUSH2 0x260A SWAP3 SWAP4 SWAP5 DUP3 GT PUSH2 0x2610 JUMPI PUSH2 0x1F57 JUMP JUMPDEST SWAP1 PUSH2 0x2462 JUMP JUMPDEST SWAP1 POP DUP1 PUSH2 0x1F57 JUMP JUMPDEST SWAP1 SWAP2 PUSH2 0x2649 PUSH1 0x1 SWAP2 PUSH2 0x2629 DUP6 PUSH2 0x2028 JUMP JUMPDEST DUP5 DUP1 PUSH1 0xA0 SHL SUB SWAP2 SLOAD SWAP1 PUSH1 0x3 SHL SHR AND DUP7 MSTORE PUSH1 0x15 PUSH1 0x20 MSTORE PUSH1 0x40 DUP7 KECCAK256 SLOAD SWAP1 PUSH2 0x1F34 JUMP JUMPDEST SWAP3 ADD SWAP1 PUSH2 0x25EF JUMP JUMPDEST PUSH1 0x5 SWAP2 POP EQ CODESIZE PUSH2 0x2448 JUMP JUMPDEST PUSH1 0x40 MLOAD PUSH3 0x461BCD PUSH1 0xE5 SHL DUP2 MSTORE PUSH1 0x20 PUSH1 0x4 DUP3 ADD MSTORE PUSH1 0x14 PUSH1 0x24 DUP3 ADD MSTORE PUSH20 0x139BC81C1B185E595C9CC81D1BC81C99599D5B99 PUSH1 0x62 SHL PUSH1 0x44 DUP3 ADD MSTORE PUSH1 0x64 SWAP1 REVERT JUMPDEST PUSH1 0x40 MLOAD PUSH3 0x461BCD PUSH1 0xE5 SHL DUP2 MSTORE PUSH1 0x20 PUSH1 0x4 DUP3 ADD MSTORE PUSH1 0x1F PUSH1 0x24 DUP3 ADD MSTORE PUSH32 0x4D697373696F6E206973206E6F7420696E204661696C65642073746174757300 PUSH1 0x44 DUP3 ADD MSTORE PUSH1 0x64 SWAP1 REVERT JUMPDEST ISZERO PUSH2 0x26E4 JUMPI JUMP JUMPDEST PUSH1 0x40 MLOAD PUSH3 0x461BCD PUSH1 0xE5 SHL DUP2 MSTORE PUSH1 0x20 PUSH1 0x4 DUP3 ADD MSTORE PUSH1 0x14 PUSH1 0x24 DUP3 ADD MSTORE PUSH20 0x4E6F2066756E647320746F207769746864726177 PUSH1 0x60 SHL PUSH1 0x44 DUP3 ADD MSTORE PUSH1 0x64 SWAP1 REVERT JUMPDEST PUSH1 0x0 SWAP1 PUSH1 0xFF PUSH1 0x7 SLOAD PUSH1 0x8 SHR AND PUSH1 0x6 DUP2 LT ISZERO PUSH2 0x10CA JUMPI PUSH1 0x4 DUP2 EQ SWAP1 DUP2 ISZERO PUSH2 0x279E JUMPI JUMPDEST POP ISZERO PUSH2 0x1A00 JUMPI SELFBALANCE SWAP2 PUSH2 0x2754 DUP4 ISZERO ISZERO PUSH2 0x26DD JUMP JUMPDEST POP PUSH1 0x0 DUP1 DUP2 PUSH1 0x6 SLOAD JUMPDEST DUP1 DUP3 LT PUSH2 0x2785 JUMPI POP POP DUP4 PUSH2 0x2778 SWAP3 SWAP4 SWAP5 DUP3 GT PUSH2 0x2610 JUMPI PUSH2 0x1F57 JUMP JUMPDEST SWAP1 DUP2 ISZERO PUSH2 0x246E DUP2 ISZERO PUSH2 0x26DD JUMP JUMPDEST SWAP1 SWAP2 PUSH2 0x2796 PUSH1 0x1 SWAP2 PUSH2 0x2629 DUP6 PUSH2 0x2028 JUMP JUMPDEST SWAP3 ADD SWAP1 PUSH2 0x275D JUMP JUMPDEST PUSH1 0x5 SWAP2 POP EQ CODESIZE PUSH2 0x2741 JUMP JUMPDEST PUSH1 0x0 SLOAD PUSH1 0x1 PUSH1 0x1 PUSH1 0xA0 SHL SUB AND CALLER SUB PUSH2 0x27BD JUMPI JUMP JUMPDEST PUSH4 0x118CDAA7 PUSH1 0xE0 SHL PUSH1 0x0 MSTORE CALLER PUSH1 0x4 MSTORE PUSH1 0x24 PUSH1 0x0 REVERT JUMPDEST PUSH1 0x0 DUP1 SLOAD PUSH1 0x1 PUSH1 0x1 PUSH1 0xA0 SHL SUB SWAP3 DUP4 AND PUSH1 0x1 PUSH1 0x1 PUSH1 0xA0 SHL SUB NOT DUP3 AND DUP2 OR DUP4 SSTORE SWAP3 AND SWAP1 PUSH32 0x8BE0079C531659141344CD1FD0A4F28419497F9722A3DAAFE3B4186F6B6457E0 SWAP1 DUP1 LOG3 JUMP INVALID BALANCE EOFCREATE 0xC2 BYTE PUSH21 0x5E3968A04E9570E4425BC18FA8019C68028196B546 DATALOADN 0x669C KECCAK256 0xC PUSH9 0x39BA628632D48C45C7 CREATE2 PUSH3 0xC07DB2 EXP PREVRANDAO 0xCF PUSH9 0x423691D5D79B20F87B 0xA8 COINBASE CODESIZE 0xAE 0xDF LOG2 PUSH5 0x6970667358 0x22 SLT KECCAK256 LT 0xB4 PUSH15 0x15DD236A65409FB1D2A8FBB1A0F28E LOG4 0xB4 0x29 0x26 NOT CALLDATALOAD 0xA6 SWAP7 0xC2 DUP11 0xB2 PUSH31 0x55564736F6C634300081E0033000000000000000000000000000000000000 "},"methodIdentifiers":{"OWNERSHIP_PROPOSAL_WINDOW()":"d3050eba","addAuthorizedAddress(address)":"42f1181e","authorized(address)":"b9181611","canEnroll(address)":"9804a586","confirmOwnershipTransfer(address)":"3c213957","createMission(uint8,uint256,uint256,uint256,uint8,uint8,uint256,uint256,uint8)":"9b159539","getAllMissions()":"6d8a1390","getFundsByType(uint8)":"2e33b07f","getMissionData(address)":"20c5718f","getMissionsByStatus(uint8)":"1e59d584","getMissionsEnded()":"b6202913","getMissionsNotEnded()":"6805036d","missionImplementation()":"bd487725","missionStatus(address)":"0814ab82","missions(uint256)":"2c8fe526","monthlyLimit()":"0a6005da","owner()":"8da5cb5b","ownershipProposals(address)":"fb4cdea7","proposeOwnershipTransfer(address)":"21040fc3","recordEnrollment(address)":"c17f9e59","registerMissionFunds(uint256,uint8)":"9c3d3a20","removeAuthorizedAddress(address)":"70712939","renounceOwnership()":"715018a6","reservedFunds(uint8)":"c416ad2a","setEnrollmentLimits(uint8,uint8)":"d41eca64","setMissionStatus(uint8)":"d8d6e8ff","transferOwnership(address)":"f2fde38b","weeklyLimit()":"861a68d6","withdrawFunds(uint256)":"155dd5ee"}}}}}