{
  "_format": "hh-sol-artifact-1",
  "contractName": "MissionFactory",
  "sourceName": "contracts/MissionFactory.sol",
  "abi": [
    {
      "inputs": [
        {
          "internalType": "address",
          "name": "_impl",
          "type": "address"
        }
      ],
      "stateMutability": "nonpayable",
      "type": "constructor"
    },
    {
      "inputs": [],
      "name": "FailedDeployment",
      "type": "error"
    },
    {
      "inputs": [
        {
          "internalType": "uint256",
          "name": "balance",
          "type": "uint256"
        },
        {
          "internalType": "uint256",
          "name": "needed",
          "type": "uint256"
        }
      ],
      "name": "InsufficientBalance",
      "type": "error"
    },
    {
      "inputs": [
        {
          "internalType": "address",
          "name": "owner",
          "type": "address"
        }
      ],
      "name": "OwnableInvalidOwner",
      "type": "error"
    },
    {
      "inputs": [
        {
          "internalType": "address",
          "name": "account",
          "type": "address"
        }
      ],
      "name": "OwnableUnauthorizedAccount",
      "type": "error"
    },
    {
      "inputs": [],
      "name": "ReentrancyGuardReentrantCall",
      "type": "error"
    },
    {
      "anonymous": false,
      "inputs": [
        {
          "indexed": true,
          "internalType": "address",
          "name": "addr",
          "type": "address"
        }
      ],
      "name": "AuthorizedAddressAdded",
      "type": "event"
    },
    {
      "anonymous": false,
      "inputs": [
        {
          "indexed": true,
          "internalType": "address",
          "name": "addr",
          "type": "address"
        }
      ],
      "name": "AuthorizedAddressRemoved",
      "type": "event"
    },
    {
      "anonymous": false,
      "inputs": [
        {
          "indexed": false,
          "internalType": "uint8",
          "name": "newWeekly",
          "type": "uint8"
        },
        {
          "indexed": false,
          "internalType": "uint8",
          "name": "newMonthly",
          "type": "uint8"
        }
      ],
      "name": "EnrollmentLimitUpdated",
      "type": "event"
    },
    {
      "anonymous": false,
      "inputs": [
        {
          "indexed": true,
          "internalType": "address",
          "name": "user",
          "type": "address"
        },
        {
          "indexed": false,
          "internalType": "uint256",
          "name": "timestamp",
          "type": "uint256"
        }
      ],
      "name": "EnrollmentRecorded",
      "type": "event"
    },
    {
      "anonymous": false,
      "inputs": [
        {
          "indexed": true,
          "internalType": "address",
          "name": "sender",
          "type": "address"
        },
        {
          "indexed": false,
          "internalType": "uint256",
          "name": "amount",
          "type": "uint256"
        }
      ],
      "name": "FundsReceived",
      "type": "event"
    },
    {
      "anonymous": false,
      "inputs": [
        {
          "indexed": true,
          "internalType": "address",
          "name": "to",
          "type": "address"
        },
        {
          "indexed": false,
          "internalType": "uint256",
          "name": "amount",
          "type": "uint256"
        }
      ],
      "name": "FundsWithdrawn",
      "type": "event"
    },
    {
      "anonymous": false,
      "inputs": [
        {
          "indexed": true,
          "internalType": "address",
          "name": "mission",
          "type": "address"
        },
        {
          "indexed": false,
          "internalType": "string",
          "name": "name",
          "type": "string"
        },
        {
          "indexed": false,
          "internalType": "enum MissionType",
          "name": "missionType",
          "type": "uint8"
        },
        {
          "indexed": false,
          "internalType": "uint256",
          "name": "enrollmentStart",
          "type": "uint256"
        },
        {
          "indexed": false,
          "internalType": "uint256",
          "name": "enrollmentEnd",
          "type": "uint256"
        },
        {
          "indexed": false,
          "internalType": "uint8",
          "name": "minPlayers",
          "type": "uint8"
        },
        {
          "indexed": false,
          "internalType": "uint8",
          "name": "maxPlayers",
          "type": "uint8"
        },
        {
          "indexed": false,
          "internalType": "uint256",
          "name": "enrollmentAmount",
          "type": "uint256"
        },
        {
          "indexed": false,
          "internalType": "uint256",
          "name": "missionStart",
          "type": "uint256"
        },
        {
          "indexed": false,
          "internalType": "uint256",
          "name": "missionEnd",
          "type": "uint256"
        },
        {
          "indexed": false,
          "internalType": "uint8",
          "name": "missionRounds",
          "type": "uint8"
        }
      ],
      "name": "MissionCreated",
      "type": "event"
    },
    {
      "anonymous": false,
      "inputs": [
        {
          "indexed": true,
          "internalType": "address",
          "name": "mission",
          "type": "address"
        },
        {
          "indexed": true,
          "internalType": "uint8",
          "name": "finalStatus",
          "type": "uint8"
        },
        {
          "indexed": false,
          "internalType": "uint256",
          "name": "timestamp",
          "type": "uint256"
        }
      ],
      "name": "MissionFinalized",
      "type": "event"
    },
    {
      "anonymous": false,
      "inputs": [
        {
          "indexed": false,
          "internalType": "uint256",
          "name": "amount",
          "type": "uint256"
        },
        {
          "indexed": true,
          "internalType": "enum MissionType",
          "name": "missionType",
          "type": "uint8"
        },
        {
          "indexed": true,
          "internalType": "address",
          "name": "sender",
          "type": "address"
        }
      ],
      "name": "MissionFundsRegistered",
      "type": "event"
    },
    {
      "anonymous": false,
      "inputs": [
        {
          "indexed": true,
          "internalType": "address",
          "name": "mission",
          "type": "address"
        },
        {
          "indexed": true,
          "internalType": "uint8",
          "name": "fromStatus",
          "type": "uint8"
        },
        {
          "indexed": true,
          "internalType": "uint8",
          "name": "toStatus",
          "type": "uint8"
        },
        {
          "indexed": false,
          "internalType": "uint256",
          "name": "timestamp",
          "type": "uint256"
        }
      ],
      "name": "MissionStatusUpdated",
      "type": "event"
    },
    {
      "anonymous": false,
      "inputs": [
        {
          "indexed": true,
          "internalType": "address",
          "name": "confirmer",
          "type": "address"
        },
        {
          "indexed": false,
          "internalType": "address",
          "name": "newOwner",
          "type": "address"
        },
        {
          "indexed": false,
          "internalType": "uint256",
          "name": "timestamp",
          "type": "uint256"
        }
      ],
      "name": "OwnershipTransferConfirmed",
      "type": "event"
    },
    {
      "anonymous": false,
      "inputs": [
        {
          "indexed": true,
          "internalType": "address",
          "name": "proposer",
          "type": "address"
        },
        {
          "indexed": false,
          "internalType": "address",
          "name": "newOwner",
          "type": "address"
        },
        {
          "indexed": false,
          "internalType": "uint256",
          "name": "timestamp",
          "type": "uint256"
        }
      ],
      "name": "OwnershipTransferProposed",
      "type": "event"
    },
    {
      "anonymous": false,
      "inputs": [
        {
          "indexed": true,
          "internalType": "address",
          "name": "previousOwner",
          "type": "address"
        },
        {
          "indexed": true,
          "internalType": "address",
          "name": "newOwner",
          "type": "address"
        }
      ],
      "name": "OwnershipTransferred",
      "type": "event"
    },
    {
      "stateMutability": "payable",
      "type": "fallback"
    },
    {
      "inputs": [],
      "name": "OWNERSHIP_PROPOSAL_WINDOW",
      "outputs": [
        {
          "internalType": "uint256",
          "name": "",
          "type": "uint256"
        }
      ],
      "stateMutability": "view",
      "type": "function"
    },
    {
      "inputs": [
        {
          "internalType": "address",
          "name": "account",
          "type": "address"
        }
      ],
      "name": "addAuthorizedAddress",
      "outputs": [],
      "stateMutability": "nonpayable",
      "type": "function"
    },
    {
      "inputs": [
        {
          "internalType": "address",
          "name": "",
          "type": "address"
        }
      ],
      "name": "authorized",
      "outputs": [
        {
          "internalType": "bool",
          "name": "",
          "type": "bool"
        }
      ],
      "stateMutability": "view",
      "type": "function"
    },
    {
      "inputs": [
        {
          "internalType": "address",
          "name": "user",
          "type": "address"
        }
      ],
      "name": "canEnroll",
      "outputs": [
        {
          "internalType": "bool",
          "name": "ok",
          "type": "bool"
        },
        {
          "internalType": "enum Limit",
          "name": "breach",
          "type": "uint8"
        }
      ],
      "stateMutability": "view",
      "type": "function"
    },
    {
      "inputs": [],
      "name": "confirmOwnershipTransfer",
      "outputs": [],
      "stateMutability": "nonpayable",
      "type": "function"
    },
    {
      "inputs": [
        {
          "internalType": "enum MissionType",
          "name": "_missionType",
          "type": "uint8"
        },
        {
          "internalType": "uint256",
          "name": "_enrollmentStart",
          "type": "uint256"
        },
        {
          "internalType": "uint256",
          "name": "_enrollmentEnd",
          "type": "uint256"
        },
        {
          "internalType": "uint256",
          "name": "_enrollmentAmount",
          "type": "uint256"
        },
        {
          "internalType": "uint8",
          "name": "_enrollmentMinPlayers",
          "type": "uint8"
        },
        {
          "internalType": "uint8",
          "name": "_enrollmentMaxPlayers",
          "type": "uint8"
        },
        {
          "internalType": "uint256",
          "name": "_missionStart",
          "type": "uint256"
        },
        {
          "internalType": "uint256",
          "name": "_missionEnd",
          "type": "uint256"
        },
        {
          "internalType": "uint8",
          "name": "_missionRounds",
          "type": "uint8"
        },
        {
          "internalType": "string",
          "name": "_missionName",
          "type": "string"
        }
      ],
      "name": "createMission",
      "outputs": [
        {
          "internalType": "address",
          "name": "",
          "type": "address"
        },
        {
          "internalType": "string",
          "name": "",
          "type": "string"
        }
      ],
      "stateMutability": "payable",
      "type": "function"
    },
    {
      "inputs": [],
      "name": "getAllMissions",
      "outputs": [
        {
          "internalType": "address[]",
          "name": "",
          "type": "address[]"
        },
        {
          "internalType": "enum Status[]",
          "name": "",
          "type": "uint8[]"
        },
        {
          "internalType": "string[]",
          "name": "",
          "type": "string[]"
        }
      ],
      "stateMutability": "view",
      "type": "function"
    },
    {
      "inputs": [],
      "name": "getFactorySummary",
      "outputs": [
        {
          "internalType": "address",
          "name": "ownerAddress",
          "type": "address"
        },
        {
          "internalType": "address",
          "name": "factoryAddress",
          "type": "address"
        },
        {
          "internalType": "address",
          "name": "implementation",
          "type": "address"
        },
        {
          "internalType": "uint256",
          "name": "totalMissions",
          "type": "uint256"
        },
        {
          "internalType": "uint256",
          "name": "weekly",
          "type": "uint256"
        },
        {
          "internalType": "uint256",
          "name": "monthly",
          "type": "uint256"
        },
        {
          "internalType": "uint256",
          "name": "missionFunds",
          "type": "uint256"
        },
        {
          "internalType": "uint256",
          "name": "ownerFunds",
          "type": "uint256"
        },
        {
          "internalType": "uint256",
          "name": "successes",
          "type": "uint256"
        },
        {
          "internalType": "uint256",
          "name": "failures",
          "type": "uint256"
        },
        {
          "internalType": "uint256[]",
          "name": "fundsPerTypeArray",
          "type": "uint256[]"
        }
      ],
      "stateMutability": "view",
      "type": "function"
    },
    {
      "inputs": [
        {
          "internalType": "enum MissionType",
          "name": "_type",
          "type": "uint8"
        }
      ],
      "name": "getFundsByType",
      "outputs": [
        {
          "internalType": "uint256",
          "name": "",
          "type": "uint256"
        }
      ],
      "stateMutability": "view",
      "type": "function"
    },
    {
      "inputs": [
        {
          "internalType": "uint256",
          "name": "n",
          "type": "uint256"
        }
      ],
      "name": "getLatestMissions",
      "outputs": [
        {
          "internalType": "address[]",
          "name": "",
          "type": "address[]"
        },
        {
          "internalType": "uint8[]",
          "name": "",
          "type": "uint8[]"
        },
        {
          "internalType": "string[]",
          "name": "",
          "type": "string[]"
        }
      ],
      "stateMutability": "view",
      "type": "function"
    },
    {
      "inputs": [
        {
          "internalType": "address",
          "name": "missionAddress",
          "type": "address"
        }
      ],
      "name": "getMissionData",
      "outputs": [
        {
          "components": [
            {
              "internalType": "address[]",
              "name": "players",
              "type": "address[]"
            },
            {
              "internalType": "enum MissionType",
              "name": "missionType",
              "type": "uint8"
            },
            {
              "internalType": "uint256",
              "name": "enrollmentStart",
              "type": "uint256"
            },
            {
              "internalType": "uint256",
              "name": "enrollmentEnd",
              "type": "uint256"
            },
            {
              "internalType": "uint256",
              "name": "enrollmentAmount",
              "type": "uint256"
            },
            {
              "internalType": "uint8",
              "name": "enrollmentMinPlayers",
              "type": "uint8"
            },
            {
              "internalType": "uint8",
              "name": "enrollmentMaxPlayers",
              "type": "uint8"
            },
            {
              "internalType": "uint256",
              "name": "missionStart",
              "type": "uint256"
            },
            {
              "internalType": "uint256",
              "name": "missionEnd",
              "type": "uint256"
            },
            {
              "internalType": "uint8",
              "name": "missionRounds",
              "type": "uint8"
            },
            {
              "internalType": "uint8",
              "name": "roundCount",
              "type": "uint8"
            },
            {
              "internalType": "uint256",
              "name": "croStart",
              "type": "uint256"
            },
            {
              "internalType": "uint256",
              "name": "croCurrent",
              "type": "uint256"
            },
            {
              "components": [
                {
                  "internalType": "address",
                  "name": "player",
                  "type": "address"
                },
                {
                  "internalType": "uint256",
                  "name": "amountWon",
                  "type": "uint256"
                }
              ],
              "internalType": "struct Mission.PlayersWon[]",
              "name": "playersWon",
              "type": "tuple[]"
            },
            {
              "internalType": "uint256",
              "name": "pauseTimestamp",
              "type": "uint256"
            },
            {
              "internalType": "address[]",
              "name": "refundedPlayers",
              "type": "address[]"
            },
            {
              "internalType": "string",
              "name": "name",
              "type": "string"
            }
          ],
          "internalType": "struct Mission.MissionData",
          "name": "",
          "type": "tuple"
        }
      ],
      "stateMutability": "view",
      "type": "function"
    },
    {
      "inputs": [
        {
          "internalType": "enum Status",
          "name": "s",
          "type": "uint8"
        }
      ],
      "name": "getMissionsByStatus",
      "outputs": [
        {
          "internalType": "address[]",
          "name": "",
          "type": "address[]"
        },
        {
          "internalType": "uint8[]",
          "name": "",
          "type": "uint8[]"
        },
        {
          "internalType": "string[]",
          "name": "",
          "type": "string[]"
        }
      ],
      "stateMutability": "view",
      "type": "function"
    },
    {
      "inputs": [],
      "name": "getMissionsEnded",
      "outputs": [
        {
          "internalType": "address[]",
          "name": "",
          "type": "address[]"
        },
        {
          "internalType": "uint8[]",
          "name": "",
          "type": "uint8[]"
        },
        {
          "internalType": "string[]",
          "name": "",
          "type": "string[]"
        }
      ],
      "stateMutability": "view",
      "type": "function"
    },
    {
      "inputs": [
        {
          "internalType": "uint256",
          "name": "offset",
          "type": "uint256"
        },
        {
          "internalType": "uint256",
          "name": "limit",
          "type": "uint256"
        }
      ],
      "name": "getMissionsEndedPaged",
      "outputs": [
        {
          "internalType": "address[]",
          "name": "addrs",
          "type": "address[]"
        },
        {
          "internalType": "uint8[]",
          "name": "statuses",
          "type": "uint8[]"
        },
        {
          "internalType": "string[]",
          "name": "names",
          "type": "string[]"
        }
      ],
      "stateMutability": "view",
      "type": "function"
    },
    {
      "inputs": [],
      "name": "getMissionsNotEnded",
      "outputs": [
        {
          "internalType": "address[]",
          "name": "",
          "type": "address[]"
        },
        {
          "internalType": "uint8[]",
          "name": "",
          "type": "uint8[]"
        },
        {
          "internalType": "string[]",
          "name": "",
          "type": "string[]"
        }
      ],
      "stateMutability": "view",
      "type": "function"
    },
    {
      "inputs": [],
      "name": "getOwnershipProposal",
      "outputs": [
        {
          "internalType": "address",
          "name": "newOwner",
          "type": "address"
        },
        {
          "internalType": "address",
          "name": "proposer",
          "type": "address"
        },
        {
          "internalType": "uint256",
          "name": "timestamp",
          "type": "uint256"
        },
        {
          "internalType": "uint256",
          "name": "timeLeft",
          "type": "uint256"
        }
      ],
      "stateMutability": "view",
      "type": "function"
    },
    {
      "inputs": [
        {
          "internalType": "address",
          "name": "player",
          "type": "address"
        }
      ],
      "name": "getPlayerLimits",
      "outputs": [
        {
          "internalType": "uint8",
          "name": "weekUsed",
          "type": "uint8"
        },
        {
          "internalType": "uint8",
          "name": "weekMax",
          "type": "uint8"
        },
        {
          "internalType": "uint8",
          "name": "monthUsed",
          "type": "uint8"
        },
        {
          "internalType": "uint8",
          "name": "monthMax",
          "type": "uint8"
        },
        {
          "internalType": "uint256",
          "name": "secToWeek",
          "type": "uint256"
        },
        {
          "internalType": "uint256",
          "name": "secToMonth",
          "type": "uint256"
        }
      ],
      "stateMutability": "view",
      "type": "function"
    },
    {
      "inputs": [
        {
          "internalType": "address",
          "name": "player",
          "type": "address"
        }
      ],
      "name": "getPlayerParticipation",
      "outputs": [
        {
          "internalType": "address[]",
          "name": "",
          "type": "address[]"
        },
        {
          "internalType": "enum Status[]",
          "name": "",
          "type": "uint8[]"
        },
        {
          "internalType": "string[]",
          "name": "",
          "type": "string[]"
        }
      ],
      "stateMutability": "view",
      "type": "function"
    },
    {
      "inputs": [],
      "name": "getTotalMissions",
      "outputs": [
        {
          "internalType": "uint256",
          "name": "",
          "type": "uint256"
        }
      ],
      "stateMutability": "view",
      "type": "function"
    },
    {
      "inputs": [
        {
          "internalType": "address",
          "name": "",
          "type": "address"
        }
      ],
      "name": "isMission",
      "outputs": [
        {
          "internalType": "bool",
          "name": "",
          "type": "bool"
        }
      ],
      "stateMutability": "view",
      "type": "function"
    },
    {
      "inputs": [],
      "name": "missionImplementation",
      "outputs": [
        {
          "internalType": "address",
          "name": "",
          "type": "address"
        }
      ],
      "stateMutability": "view",
      "type": "function"
    },
    {
      "inputs": [
        {
          "internalType": "address",
          "name": "",
          "type": "address"
        }
      ],
      "name": "missionNames",
      "outputs": [
        {
          "internalType": "string",
          "name": "",
          "type": "string"
        }
      ],
      "stateMutability": "view",
      "type": "function"
    },
    {
      "inputs": [
        {
          "internalType": "address",
          "name": "",
          "type": "address"
        }
      ],
      "name": "missionStatus",
      "outputs": [
        {
          "internalType": "enum Status",
          "name": "",
          "type": "uint8"
        }
      ],
      "stateMutability": "view",
      "type": "function"
    },
    {
      "inputs": [
        {
          "internalType": "enum MissionType",
          "name": "",
          "type": "uint8"
        }
      ],
      "name": "missionTypeCounts",
      "outputs": [
        {
          "internalType": "uint256",
          "name": "",
          "type": "uint256"
        }
      ],
      "stateMutability": "view",
      "type": "function"
    },
    {
      "inputs": [
        {
          "internalType": "uint256",
          "name": "",
          "type": "uint256"
        }
      ],
      "name": "missions",
      "outputs": [
        {
          "internalType": "address",
          "name": "",
          "type": "address"
        }
      ],
      "stateMutability": "view",
      "type": "function"
    },
    {
      "inputs": [],
      "name": "monthlyLimit",
      "outputs": [
        {
          "internalType": "uint8",
          "name": "",
          "type": "uint8"
        }
      ],
      "stateMutability": "view",
      "type": "function"
    },
    {
      "inputs": [],
      "name": "owner",
      "outputs": [
        {
          "internalType": "address",
          "name": "",
          "type": "address"
        }
      ],
      "stateMutability": "view",
      "type": "function"
    },
    {
      "inputs": [],
      "name": "proposalProposer",
      "outputs": [
        {
          "internalType": "address",
          "name": "",
          "type": "address"
        }
      ],
      "stateMutability": "view",
      "type": "function"
    },
    {
      "inputs": [],
      "name": "proposalTimestamp",
      "outputs": [
        {
          "internalType": "uint256",
          "name": "",
          "type": "uint256"
        }
      ],
      "stateMutability": "view",
      "type": "function"
    },
    {
      "inputs": [
        {
          "internalType": "address",
          "name": "newOwner",
          "type": "address"
        }
      ],
      "name": "proposeOwnershipTransfer",
      "outputs": [],
      "stateMutability": "nonpayable",
      "type": "function"
    },
    {
      "inputs": [],
      "name": "proposedNewOwner",
      "outputs": [
        {
          "internalType": "address",
          "name": "",
          "type": "address"
        }
      ],
      "stateMutability": "view",
      "type": "function"
    },
    {
      "inputs": [
        {
          "internalType": "address",
          "name": "user",
          "type": "address"
        }
      ],
      "name": "recordEnrollment",
      "outputs": [],
      "stateMutability": "nonpayable",
      "type": "function"
    },
    {
      "inputs": [
        {
          "internalType": "enum MissionType",
          "name": "missionType",
          "type": "uint8"
        }
      ],
      "name": "registerMissionFunds",
      "outputs": [],
      "stateMutability": "payable",
      "type": "function"
    },
    {
      "inputs": [
        {
          "internalType": "address",
          "name": "account",
          "type": "address"
        }
      ],
      "name": "removeAuthorizedAddress",
      "outputs": [],
      "stateMutability": "nonpayable",
      "type": "function"
    },
    {
      "inputs": [],
      "name": "renounceOwnership",
      "outputs": [],
      "stateMutability": "nonpayable",
      "type": "function"
    },
    {
      "inputs": [
        {
          "internalType": "enum MissionType",
          "name": "",
          "type": "uint8"
        }
      ],
      "name": "reservedFunds",
      "outputs": [
        {
          "internalType": "uint256",
          "name": "",
          "type": "uint256"
        }
      ],
      "stateMutability": "view",
      "type": "function"
    },
    {
      "inputs": [],
      "name": "reservedFundsBreakdown",
      "outputs": [
        {
          "internalType": "uint256[7]",
          "name": "",
          "type": "uint256[7]"
        }
      ],
      "stateMutability": "view",
      "type": "function"
    },
    {
      "inputs": [
        {
          "internalType": "address",
          "name": "user",
          "type": "address"
        }
      ],
      "name": "secondsTillMonthlySlot",
      "outputs": [
        {
          "internalType": "uint256",
          "name": "",
          "type": "uint256"
        }
      ],
      "stateMutability": "view",
      "type": "function"
    },
    {
      "inputs": [
        {
          "internalType": "address",
          "name": "user",
          "type": "address"
        }
      ],
      "name": "secondsTillWeeklySlot",
      "outputs": [
        {
          "internalType": "uint256",
          "name": "",
          "type": "uint256"
        }
      ],
      "stateMutability": "view",
      "type": "function"
    },
    {
      "inputs": [
        {
          "internalType": "uint8",
          "name": "_weekly",
          "type": "uint8"
        },
        {
          "internalType": "uint8",
          "name": "_monthly",
          "type": "uint8"
        }
      ],
      "name": "setEnrollmentLimits",
      "outputs": [],
      "stateMutability": "nonpayable",
      "type": "function"
    },
    {
      "inputs": [
        {
          "internalType": "enum Status",
          "name": "newStatus",
          "type": "uint8"
        }
      ],
      "name": "setMissionStatus",
      "outputs": [],
      "stateMutability": "nonpayable",
      "type": "function"
    },
    {
      "inputs": [],
      "name": "totalMissionFailures",
      "outputs": [
        {
          "internalType": "uint256",
          "name": "",
          "type": "uint256"
        }
      ],
      "stateMutability": "view",
      "type": "function"
    },
    {
      "inputs": [],
      "name": "totalMissionFunds",
      "outputs": [
        {
          "internalType": "uint256",
          "name": "",
          "type": "uint256"
        }
      ],
      "stateMutability": "view",
      "type": "function"
    },
    {
      "inputs": [],
      "name": "totalMissionSuccesses",
      "outputs": [
        {
          "internalType": "uint256",
          "name": "",
          "type": "uint256"
        }
      ],
      "stateMutability": "view",
      "type": "function"
    },
    {
      "inputs": [],
      "name": "totalOwnerEarnedFunds",
      "outputs": [
        {
          "internalType": "uint256",
          "name": "",
          "type": "uint256"
        }
      ],
      "stateMutability": "view",
      "type": "function"
    },
    {
      "inputs": [
        {
          "internalType": "address",
          "name": "newOwner",
          "type": "address"
        }
      ],
      "name": "transferOwnership",
      "outputs": [],
      "stateMutability": "nonpayable",
      "type": "function"
    },
    {
      "inputs": [],
      "name": "weeklyLimit",
      "outputs": [
        {
          "internalType": "uint8",
          "name": "",
          "type": "uint8"
        }
      ],
      "stateMutability": "view",
      "type": "function"
    },
    {
      "inputs": [
        {
          "internalType": "uint256",
          "name": "amount",
          "type": "uint256"
        }
      ],
      "name": "withdrawFunds",
      "outputs": [],
      "stateMutability": "nonpayable",
      "type": "function"
    },
    {
      "stateMutability": "payable",
      "type": "receive"
    }
  ],
  "bytecode": "0x60a03461012557601f613f8038819003918201601f19168301916001600160401b0383118484101761012a5780849260209460405283398101031261012557516001600160a01b03811680820361012557331561010f5760008054336001600160a01b0319821681178355604051939290916001600160a01b0316907f8be0079c531659141344cd1fd0a4f28419497f9722a3daafe3b4186f6b6457e09080a360018055610a0461ffff196003541617600355156100e15750608052604051613e3f908161014182396080518181816104a001528181610c41015261137e0152f35b62461bcd60e51b8152602060048201526009602482015268696d706c207a65726f60b81b6044820152606490fd5b631e4fbdf760e01b600052600060045260246000fd5b600080fd5b634e487b7160e01b600052604160045260246000fdfe6080806040526004361015610011575b005b600090813560e01c90816304a6175214612cc3575080630814ab8214612c7c5780630a6005da14612c585780630fc8c4ed14612c2f578063155dd5ee14612ac75780631e59d5841461293557806320c5718f146126ad57806321040fc31461259d5780632c8fe526146125595780632d771f30146125305780632e33b07f146109cd5780633589cf7214612512578063370127621461243357806342f1181e14612342578063503c0b88146120d05780635c5bb6f2146120b257806363679723146120945780636805036d14611f345780636d8a139014611f095780637071293914611e1e578063715018a614611dc45780637200b82914611c5c57806372eecd21146112865780637e9eae501461117c57806383fbea511461115e578063861a68d61461113d5780638c09b7c3146110fd5780638da5cb5b146110d65780639804a5861461108c578063a9bea78914610f18578063aa1f059514610ed6578063b620291314610d04578063b6de7b4314610cb2578063b918161114610c70578063bd48772514610c2b578063c17f9e59146109f7578063c416ad2a146109cd578063c892fde3146109af578063cbf2080d14610818578063d3050eba146107fa578063d41eca641461074c578063d8d6e8ff146105af578063df4db46314610528578063e5047770146103fb578063eff0ab92146102ea578063f08e231e146102b7578063f225b56d146102815763f2fde38b0361000f573461027e57602036600319011261027e576004356001600160a01b03811680820361027c57610257613c28565b156102685761026590613c73565b80f35b631e4fbdf760e01b82526004829052602482fd5b825b80fd5b503461027e57604036600319011261027e576102b36102a4602435600435613a61565b60409391935193849384612de0565b0390f35b503461027e57602036600319011261027e5760043590600782101561027e5760206102e183613051565b54604051908152f35b503461027e57602036600319011261027e576004356001600160a01b038116908190036103f7578152600f6020526040812080548291825b828110610372575050508161033e57602091505b604051908152f35b62093a80820180921161035e575061035960209142906134b7565b610336565b634e487b7160e01b81526011600452602490fd5b61037c8183612e86565b90549060031b1c62093a8081018091116103e357421061039f575b600101610322565b841580156103ca575b1561039757935060016103bb8583612e86565b90549060031b1c949050610397565b50846103d68284612e86565b90549060031b1c106103a8565b634e487b7160e01b85526011600452602485fd5b5080fd5b503461027e578060031936011261027e576101009060405161041d8382612f73565b600781526020810191601f198401368437805b60078110156104575760019061044581613038565b546104508286613171565b5201610430565b5091909160018060a01b0381541660025493600354956004549060055490600654916007549360ff6040519b8c9b6101608d01998d528c6020309101528c604060018060a01b037f00000000000000000000000000000000000000000000000000000000000000001691015260608d015281811660808d015260081c1660a08b015260c08a015260e089015287015261012086015261016061014086015251809152610180840192915b81811061050f575050500390f35b8251845285945060209384019390920191600101610501565b503461027e578060031936011261027e5760e0908160405161054a8282612f73565b3690376040519061055b8383612f73565b82368337805b60078110156105845760019061057681613038565b548160051b85015201610561565b506040519190825b6007821061059957505050f35b602080600192855181520193019101909161058c565b503461027e57602036600319011261027e5760043560088110156103f757338252600c6020526105e560ff6040842054166139f6565b338252600d60205260ff60408320541690338352600d602052604083209160ff198354169260ff83168094179055839060068314918260001461072f5761062d600654613085565b6006555b600882101561071b576107075783906040514281527f0ea143fc1698242668979798ae4ab3fbbece2356edb72793bc92f1c4aca96ca960203392a48391600581149182156106fc575b508282156106d7575b505061068d578280f35b6106c3576040514281527f471602128a67197776b2e0caf0ffdabf9bb93efcca8b7cb74862aa9f63f2347f60203392a338808280f35b634e487b7160e01b82526021600452602482fd5b9091506106e8576007143882610683565b634e487b7160e01b84526021600452602484fd5b85935091503861067a565b634e487b7160e01b85526021600452602485fd5b634e487b7160e01b86526021600452602486fd5b50846007840361063157610744600754613085565b600755610631565b503461027e57604036600319011261027e5760043560ff81168091036103f75760243560ff8116918282036107f6577f321994b8855ae38e4fd6162f7a0bd7cde88be83aa3acc96e03c17b7f733b43e19260409260018060a01b03865416331480156107e1575b6107bc9061344f565b8261ff006003549260081b169161ffff1916171760035582519182526020820152a180f35b50338652600b6020528386205460ff166107b3565b8380fd5b503461027e578060031936011261027e576020604051620151808152f35b503461027e57602036600319011261027e576004356001600160a01b038116908190036103f7578152600f602052604081208190829083809181908054915b828110610904575050506003549480156000146108d2575080915b806108ac575060c09460ff8092945b8160405197168752818316602088015216604086015260081c166060840152608083015260a0820152f35b9062278d00820180921161035e575060c09460ff6108cc819342906134b7565b94610881565b62093a8081018091116108f0576108ea9042906134b7565b91610872565b634e487b7160e01b82526011600452602482fd5b61090e8183612e86565b90549060031b1c62278d00810180821161098a574210610932575b50600101610857565b9561093c90613085565b95851580156109a6575b61099e575b62093a80810180821161098a57421015610929579661096990613085565b9688158015610981575b156109295797506001610929565b50888110610973565b634e487b7160e01b86526011600452602486fd5b94508461094b565b50858110610946565b503461027e578060031936011261027e576020600654604051908152f35b503461027e57602036600319011261027e5760043590600782101561027e5760206102e183613038565b503461027e57602036600319011261027e576004356001600160a01b038116908190036103f757338252600d60205260ff6040832054166008811015610c1757600103610be15762278cff19420190428211610bcd57808352600f60205260408320805492845b84811080610bb4575b15610a7a57610a7590613085565b610a5e565b8383879280610b00575b50805490600160401b821015610aec5781610aa7916001610abf94018155612e86565b429082549060031b91821b91600019901b1916179055565b7f498f5e6dcf570483a1848853791046a7f10012193176d71f959f46eb7713d7446020604051428152a280f35b634e487b7160e01b84526041600452602484fd5b92805b610b0e8584546134b7565b811015610b5e5780610b58610b2e610b28886001956134aa565b86612e86565b90549060031b1c610b3f8387612e86565b90919082549060031b91821b91600019901b1916179055565b01610b03565b5092835b818110610b6f5750610a84565b82548015610ba0576001919060001901610b898186612e86565b8154906000199060031b1b19169055845501610b62565b634e487b7160e01b86526031600452602486fd5b5081610bc08285612e86565b90549060031b1c10610a67565b634e487b7160e01b83526011600452602483fd5b60405162461bcd60e51b815260206004820152600e60248201526d24b73b30b634b21031b0b63632b960911b6044820152606490fd5b634e487b7160e01b83526021600452602483fd5b503461027e578060031936011261027e576040517f00000000000000000000000000000000000000000000000000000000000000006001600160a01b03168152602090f35b503461027e57602036600319011261027e576004356001600160a01b038116908190036103f75760408260ff9260209452600b84522054166040519015158152f35b503461027e57602036600319011261027e576004356001600160a01b038116908190036103f757604082610cf0926102b39452601060205220612f94565b604051918291602083526020830190612d62565b503461027e578060031936011261027e576002548190825b818110610e6a5750610d2d826130c1565b90610d40610d3a846130c1565b93613127565b9084805b828210610d5e575050506102b39060405193849384612de0565b610d6782612e55565b905460039190911b1c6001600160a01b03168752600d602052604087205460ff16600881101580610e5657600682148015610e4a575b610dae575b50509060010190610d44565b610db784612e55565b905460039190911b1c6001600160a01b0316610dd38489613171565b52610e365781610e2f91610de96001948a613171565b52610df384612e55565b848060a01b0391549060031b1c1689526010602052610e1460408a20612f94565b610e1e8288613171565b52610e298187613171565b50613085565b9038610da2565b634e487b7160e01b88526021600452602488fd5b50508760078214610d9d565b634e487b7160e01b89526021600452602489fd5b610e7381612e55565b905460039190911b1c6001600160a01b03168452600d602052604084205460ff1660088110156107075760068114908115610ecb575b50610eb7575b600101610d1c565b91610ec3600191613085565b929050610eaf565b600791501438610ea9565b503461027e57602036600319011261027e576004356001600160a01b038116908190036103f75760408260ff9260209452600c84522054166040519015158152f35b50602036600319011261027e5760043560078110156103f757338252600c602052610f4960ff6040842054166139f6565b610f51613c51565b341561104857338252600d60205260ff6040832054166008811015610c17576006148015611026575b15610fea57610f8881613038565b610f933482546134aa565b9055610fa1346004546134aa565b600455610fb3600334046005546134aa565b600555604051903482527f606617fd09d9890413e3c46147b844d4562351f86e0f7a5c60849bbf0ef0281160203393a36001805580f35b60405162461bcd60e51b815260206004820152601460248201527321b0b63632b9103737ba10309036b4b9b9b4b7b760611b6044820152606490fd5b50338252600d60205260ff6040832054166008811015610c1757600714610f7a565b606460405162461bcd60e51b815260206004820152602060248201527f416d6f756e74206d7573742062652067726561746572207468616e207a65726f6044820152fd5b503461027e57602036600319011261027e576004356001600160a01b03811681036103f7576110ba90613877565b60405191151582526003811015610c1757604092506020820152f35b503461027e578060031936011261027e57546040516001600160a01b039091168152602090f35b503461027e578060031936011261027e576080611118613806565b604080516001600160a01b039586168152949093166020850152918301526060820152f35b503461027e578060031936011261027e57602060ff60035416604051908152f35b503461027e578060031936011261027e576020600754604051908152f35b503461027e57602036600319011261027e576004359060025480831161127e575b6111a6836130c1565b916111b0846130c1565b936111ba81613127565b926000198101908111835b8381106111dc57604051806102b3888b8b84612de0565b816103e3576111f36111ee82856134b7565b612e55565b905460039190911b1c6001600160a01b031680611210838a613171565b528552600d60205260ff604086205416600881101561071b5790600191611237828b613171565b5261124181612e55565b838060a01b0391549060031b1c168652601060205261126260408720612f94565b61126c8289613171565b526112778188613171565b50016111c5565b91508161119d565b5061014036600319011261027e576007600435101561027e5760843560ff811681036103f75760a4359160ff8316830361027e57610104359260ff841684036103f75761012435926001600160401b03841161027c573660238501121561027c578360040135936001600160401b0385116107f65736602486830101116107f65783546001600160a01b031633148015611c46575b6113249061344f565b61132c613c51565b600560ff871610611be75760ff861660ff831610611b7c5760ff821660ff841610611b12576044356024351015611ac15760443560c43510611a635760c43560e4351115611a1f57606435156119c6577f0000000000000000000000000000000000000000000000000000000000000000608881901c62ffffff16763d602d80600a3d3981f3363d3d373d3d3d363d7300000017855260781b6e5af43d82803e903d91602b57fd5bf3176020526001600160a01b036037600986f0169485156119b75784906113fc600435613051565b6114068154613085565b905580156117dd578080602461141d60209461306a565b9561142b6040519788612f73565b828752018386013783010152945b848452600c60205260408420600160ff19825416179055848452600d6020526040842060ff19815416905584845260106020526040842086516001600160401b0381116117c95761148a8254612f07565b601f8111611784575b50806020601f8211600114611720578791611715575b508160011b916000199060031b1c19161790555b83546001600160a01b0316853b1561171157604051906317a0f85760e21b825260048201523060248201526114f760448201600435612e48565b6024356064820152604435608482015260643560a482015260ff831660c482015260ff841660e482015260c43561010482015260e43561012482015260ff821661014482015261018061016482015284818061155761018482018b612d62565b0381348a5af18015611706576116f2575b50600254600160401b8110156116de57927f42cca9b632a0b2904340227071aa69155e66caf6d75f183968389dc593eb5f4c9260ff80936115b08760018b9901600255612e55565b81549060031b9089821b9160018060a01b03901b19161790556040519485946101408652816115e48d610140890190612d62565b956115f460208901600435612e48565b602435604089015260443560608901521660808701521660a085015260643560c085015260c43560e085015260e435610100850152166101208301520390a261163e600435613038565b5460021c801515806116d4575b611672575b5050600180556102b36040519283928352604060208401526040830190612d62565b61167d600435613038565b6116888282546134b7565b9055823b156103f757816004916040519283809263eb2bab7760e01b8252875af180156116c95715611650576116bf828092612f73565b61027e5780611650565b6040513d84823e3d90fd5b508047101561164b565b634e487b7160e01b85526041600452602485fd5b846116ff91959295612f73565b9238611568565b6040513d87823e3d90fd5b8480fd5b9050880151386114a9565b915082875281872087925b8a601f198416851061176d57506001935082601f19811610611754575b5050811b0190556114bd565b8a015160001960f88460031b161c191690553880611748565b81015182556020938401936001909201910161172b565b82875260208720601f830160051c810191602084106117bf575b601f0160051c01905b8181106117b45750611493565b8781556001016117a7565b909150819061179e565b634e487b7160e01b86526041600452602486fd5b5050506117eb600435613cba565b6117f6600435613051565b54848172184f03e93ff9f4daa797ed6e38ed64bf6a1f0160401b811015611994575b806d04ee2d6d415b85acef8100000000600a921015611979575b662386f26fc10000811015611965575b6305f5e100811015611954575b612710811015611945575b6064811015611937575b101561192f575b6001810191600a60216118966118808661306a565b9561188e6040519788612f73565b80875261306a565b602086019490601f19013686378501015b60001901916f181899199a1a9b1b9c1cb0b131b232b360811b8282061a8353049081156118d657600a906118a7565b50506119189260206003926119299460405196846118fd899651809287808a019101612d3f565b8501916201016960ed1b858401525180936023840190612d3f565b01010301601f198101835282612f73565b94611439565b60010161186b565b606460029104920191611864565b6127106004910492019161185a565b6305f5e1006008910492019161184f565b662386f26fc1000060109104920191611842565b6d04ee2d6d415b85acef810000000060209104920191611832565b506040905072184f03e93ff9f4daa797ed6e38ed64bf6a1f0160401b8204611818565b63b06ebf3d60e01b8552600485fd5b60405162461bcd60e51b815260206004820152602b60248201527f456e726f6c6c6d656e7420616d6f756e74206d7573742062652067726561746560448201526a72207468616e207a65726f60a81b6064820152608490fd5b606460405162461bcd60e51b815260206004820152602060248201527f4d697373696f6e207374617274206d757374206265206265666f726520656e646044820152fd5b60405162461bcd60e51b815260206004820152603060248201527f4d697373696f6e207374617274206d757374206265206f6e206f72206166746560448201526f1c88195b9c9bdb1b1b595b9d08195b9960821b6064820152608490fd5b60405162461bcd60e51b815260206004820152602360248201527f456e726f6c6c6d656e74207374617274206d757374206265206265666f726520604482015262195b9960ea1b6064820152608490fd5b608460405162461bcd60e51b815260206004820152604060248201527f4d6178696d756d20706c6179657273206d75737420626520677265617465722060448201527f7468616e206f7220657175616c20746f206d696e696d756d20706c61796572736064820152fd5b60405162461bcd60e51b815260206004820152603f60248201527f4d696e696d756d20706c6179657273206d75737420626520677265617465722060448201527f7468616e206f7220657175616c20746f206d697373696f6e20726f756e6473006064820152608490fd5b60405162461bcd60e51b815260206004820152603160248201527f4d697373696f6e20726f756e6473206d7573742062652067726561746572207460448201527068616e206f7220657175616c20746f203560781b6064820152608490fd5b50338452600b602052604084205460ff1661131b565b503461027e578060031936011261027e5780546001600160a01b031633148015611dae575b611c8a9061344f565b600a546001600160a01b03163314611d6a576008546201518081018091116108f0574211611d3257600954611cc7906001600160a01b0316613c73565b600954604080516001600160a01b03909216825242602083015233917fdd72dd33198968a9cdc9b1e5cbff344fb8d04d99f8c15c0a02416b04e857b4679190a26001600160601b0360a01b600954166009556001600160601b0360a01b600a5416600a558060085580f35b60405162461bcd60e51b815260206004820152601060248201526f141c9bdc1bdcd85b08195e1c1a5c995960821b6044820152606490fd5b606460405162461bcd60e51b815260206004820152602060248201527f43616e6e6f7420636f6e6669726d20796f7572206f776e2070726f706f73616c6044820152fd5b50338152600b602052604081205460ff16611c81565b503461027e578060031936011261027e57611ddd613c28565b80546001600160a01b03198116825581906001600160a01b03167f8be0079c531659141344cd1fd0a4f28419497f9722a3daafe3b4186f6b6457e08280a380f35b503461027e57602036600319011261027e576004356001600160a01b038116908190036103f75781546001600160a01b031633148015611ef3575b611e629061344f565b611e6d8115156134c4565b808252600b60205260ff60408320541615611ebd57808252600b60205260408220805460ff191690557f66d5f06f711af3c9feba3203fdb00b51345d514c68585d9d319c5ff5e6f775928280a280f35b60405162461bcd60e51b815260206004820152600e60248201526d139bdd08185d5d1a1bdc9a5e995960921b6044820152606490fd5b50338252600b602052604082205460ff16611e59565b503461027e578060031936011261027e576102b3611f25613533565b60409391935193849384612e9e565b503461027e578060031936011261027e576002548190825b8181106120275750611f5d826130c1565b90611f6a610d3a846130c1565b9084805b828210611f88575050506102b39060405193849384612de0565b611f9182612e55565b905460039190911b1c6001600160a01b03168752600d602052604087205460ff16600881101580610e565760068214158061201a575b611fd8575b50509060010190611f6e565b611fe184612e55565b905460039190911b1c6001600160a01b0316611ffd8489613171565b52610e36578161201391610de96001948a613171565b9038611fcc565b5050876007821415611fc7565b61203081612e55565b905460039190911b1c6001600160a01b03168452600d602052604084205460ff1660088110156107075760068114159081612088575b50612074575b600101611f4c565b91612080600191613085565b92905061206c565b60079150141538612066565b503461027e578060031936011261027e576020600454604051908152f35b503461027e578060031936011261027e576020600254604051908152f35b503461027e57602036600319011261027e576004356001600160a01b038116908190036103f757600254829080805b612294575061210d846130c1565b9261212061211a866130c1565b95613127565b928092805b61213957604051806102b3878a8a84612e9e565b6000198101818111610bcd5761214e90612e55565b9054604051629c95e160e41b81526004810186905260039290921b1c6001600160a01b031690602081602481855afa90811561225b578491612266575b506121a1575b5061219b90613502565b80612125565b806121af8689979497613171565b526040516368c6ba2160e01b8152602081600481855afa90811561225b57849161221f575b5091612218916121f061219b946121eb848d613171565b613527565b8452601060205261220360408520612f94565b61220d8289613171565b52610e298188613171565b9390612191565b90506020813d8211612253575b8161223960209383612f73565b810103126107f6575160088110156107f6576122186121d4565b3d915061222c565b6040513d86823e3d90fd5b612287915060203d811161228d575b61227f8183612f73565b81019061350f565b3861218b565b503d612275565b600019810181811161232e5760206122ad602492612e55565b9054604051629c95e160e41b8152600481018990529384929091839160031b1c6001600160a01b03165afa90811561225b578491612310575b506122fb575b6122f590613502565b806120ff565b936123086122f591613085565b9490506122ec565b612328915060203d811161228d5761227f8183612f73565b386122e6565b634e487b7160e01b84526011600452602484fd5b503461027e57602036600319011261027e576004356001600160a01b038116908190036103f75781546001600160a01b03163314801561241d575b6123869061344f565b6123918115156134c4565b808252600b60205260ff6040832054166123e357808252600b60205260408220805460ff191660011790557f10ac961f00d5e732ba4dcc2c6fb09bebea0eb9edd2a75c8109775ef288382e678280a280f35b60405162461bcd60e51b8152602060048201526012602482015271105b1c9958591e48185d5d1a1bdc9a5e995960721b6044820152606490fd5b50338252600b602052604082205460ff1661237d565b503461027e57602036600319011261027e576004356001600160a01b038116908190036103f7578152600f6020526040812080548291825b8281106124a157505050816124865760209150604051908152f35b62278d00820180921161035e575061035960209142906134b7565b6124ab8183612e86565b90549060031b1c62278d0081018091116103e35742106124ce575b60010161246b565b841580156124f9575b156124c657935060016124ea8583612e86565b90549060031b1c9490506124c6565b50846125058284612e86565b90549060031b1c106124d7565b503461027e578060031936011261027e576020600554604051908152f35b503461027e578060031936011261027e57600a546040516001600160a01b039091168152602090f35b503461027e57602036600319011261027e576004359060025482101561027e57602061258483612e55565b905460405160039290921b1c6001600160a01b03168152f35b503461027e57602036600319011261027e576004356001600160a01b03811680820361027c5782546001600160a01b031633148015612697575b6125e09061344f565b801561265e576001600160601b0360a01b6009541617600955336001600160601b0360a01b600a541617600a55426008557fc29bdbd554e41df97e5c40fc273a09677ac133c245f0064bdffef5cc72176e1960405180612658339442908360209093929193604081019460018060a01b031681520152565b0390a280f35b60405162461bcd60e51b815260206004820152601160248201527024b73b30b634b2103732bb9037bbb732b960791b6044820152606490fd5b50338352600b602052604083205460ff166125d7565b503461027e57602036600319011261027e576004356001600160a01b038116908190036103f75760606102006040516126e581612f41565b82815284602082015284604082015284838201528460808201528460a08201528460c08201528460e08201528461010082015284610120820152846101408201528461016082015284610180820152826101a0820152846101c0820152826101e0820152015280156128f0578160049160405192838092631f385f7960e21b82525afa9081156116c95782916128ce575b50906040519182916020835261279a82516102206020860152610240850190612d02565b906127ad60208401516040860190612e48565b6040830151606085015260608301516080850152608083015160a085015260ff60a08401511660c085015260ff60c08401511660e085015260e083015161010085015261010083015161012085015260ff6101208401511661014085015260ff610140840151166101608501526101608301516101808501526101808301516101a08501526101a083015191601f19858203016101c0860152602080845192838152019301915b8181106128a0575050509061020061288b6102b3936101c08401516101e08701526101e0840151601f198783030184880152612d02565b910151838203601f1901610220850152612d62565b825180516001600160a01b031685526020908101518186015287965060409094019390920191600101612854565b6128ea91503d8084833e6128e28183612f73565b810190613211565b38612776565b60405162461bcd60e51b815260206004820152601760248201527f496e76616c6964206d697373696f6e20616464726573730000000000000000006044820152606490fd5b503461027e57602036600319011261027e5760043590600882101591826103f757600254928293835b818110612a6c575061296f856130c1565b9361298261297c876130c1565b96613127565b938190825b84811061299e57604051806102b3898c8c84612de0565b6129a781612e55565b905460039190911b1c6001600160a01b03168452600d602052604084205460ff16866107075760088110156107075782146129e5575b600101612987565b9194506129f182612e55565b905460039190911b1c6001600160a01b0316612a0d8689613171565b526001612a648496612a1f818c613171565b60ff85169052612a2e85612e55565b848060a01b0391549060031b1c1686526010602052612a4f60408720612f94565b612a59828b613171565b52610e29818a613171565b9290506129dd565b612a7581612e55565b905460039190911b1c6001600160a01b03168552600d602052604085205460ff168361071b57600881101561071b578414612ab3575b60010161295e565b94612abf600191613085565b959050612aab565b503461027e57602036600319011261027e57600435612ae4613c28565b612aec613c51565b81546001600160a01b031690808215612bf25715612beb575b478111612baf578280808084865af13d15612baa573d612b248161306a565b90612b326040519283612f73565b81528460203d92013e5b15612b735760207feaff4b37086828766ad3268786972c0cd24259d4c87a80f9d3963a3c3d999b0d91604051908152a26001805580f35b60405162461bcd60e51b815260206004820152600f60248201526e151c985b9cd9995c8819985a5b1959608a1b6044820152606490fd5b612b3c565b60405162461bcd60e51b8152602060048201526014602482015273496e73756666696369656e742062616c616e636560601b6044820152606490fd5b5047612b05565b60405162461bcd60e51b815260206004820152601560248201527424b73b30b634b21036b0b730b3b2b91037bbb732b960591b6044820152606490fd5b503461027e578060031936011261027e576009546040516001600160a01b039091168152602090f35b503461027e578060031936011261027e57602060ff60035460081c16604051908152f35b503461027e57602036600319011261027e576004356001600160a01b038116908190036103f75760408260ff9260209452600d8452205416612cc16040518092612cdf565bf35b9050346103f757816003193601126103f7576020906008548152f35b906008821015612cec5752565b634e487b7160e01b600052602160045260246000fd5b906020808351928381520192019060005b818110612d205750505090565b82516001600160a01b0316845260209384019390920191600101612d13565b60005b838110612d525750506000910152565b8181015183820152602001612d42565b90602091612d7b81518092818552858086019101612d3f565b601f01601f1916010190565b9080602083519182815201916020808360051b8301019401926000915b838310612db357505050505090565b9091929394602080612dd1600193601f198682030187528951612d62565b97019301930191939290612da4565b939290612df590606086526060860190612d02565b9380850360208201526020808451968781520193016000955b808710612e2d575050612e2a9394506040818403910152612d87565b90565b909360208060019260ff885116815201950196019590612e0e565b906007821015612cec5752565b600254811015612e7057600260005260206000200190600090565b634e487b7160e01b600052603260045260246000fd5b8054821015612e705760005260206000200190600090565b939290612eb390606086526060860190612d02565b9380850360208201526020808451968781520193016000955b808710612ee8575050612e2a9394506040818403910152612d87565b909360208082612efb6001948951612cdf565b01950196019590612ecc565b90600182811c92168015612f37575b6020831014612f2157565b634e487b7160e01b600052602260045260246000fd5b91607f1691612f16565b61022081019081106001600160401b03821117612f5d57604052565b634e487b7160e01b600052604160045260246000fd5b90601f801991011681019081106001600160401b03821117612f5d57604052565b9060405191826000825492612fa884612f07565b80845293600181169081156130165750600114612fcf575b50612fcd92500383612f73565b565b90506000929192526020600020906000915b818310612ffa575050906020612fcd9282010138612fc0565b6020919350806001915483858901015201910190918492612fe1565b905060209250612fcd94915060ff191682840152151560051b82010138612fc0565b6007811015612cec57600052600e602052604060002090565b6007811015612cec576000526011602052604060002090565b6001600160401b038111612f5d57601f01601f191660200190565b60001981146130945760010190565b634e487b7160e01b600052601160045260246000fd5b6001600160401b038111612f5d5760051b60200190565b906130cb826130aa565b6130d86040519182612f73565b82815280926130e9601f19916130aa565b0190602036910137565b60405190613102602083612f73565b600080835282815b82811061311657505050565b80606060208093850101520161310a565b90613131826130aa565b61313e6040519182612f73565b828152809261314f601f19916130aa565b019060005b82811061316057505050565b806060602080938501015201613154565b8051821015612e705760209160051b010190565b51906001600160a01b038216820361319957565b600080fd5b9080601f830112156131995781516131b5816130aa565b926131c36040519485612f73565b81845260208085019260051b82010192831161319957602001905b8282106131eb5750505090565b602080916131f884613185565b8152019101906131de565b519060ff8216820361319957565b602081830312613199578051906001600160401b03821161319957019061022082820312613199576040519161324683612f41565b80516001600160401b038111613199578261326291830161319e565b8352602081015160078110156131995760208401526040810151604084015260608101516060840152608081015160808401526132a160a08201613203565b60a08401526132b260c08201613203565b60c084015260e081015160e08401526101008101516101008401526132da6101208201613203565b6101208401526132ed6101408201613203565b6101408401526101608101516101608401526101808101516101808401526101a08101516001600160401b03811161319957810182601f82011215613199578051613337816130aa565b916133456040519384612f73565b81835260208084019260061b8201019085821161319957602001915b818310613404575050506101a08401526101c08101516101c08401526101e08101516001600160401b038111613199578261339d91830161319e565b6101e0840152610200810151906001600160401b038211613199570181601f820112156131995780516133cf8161306a565b926133dd6040519485612f73565b81845260208284010111613199576133fb9160208085019101612d3f565b61020082015290565b604083870312613199576040519060408201908282106001600160401b03831117612f5d57604092602092845261343a86613185565b81528286015183820152815201920191613361565b1561345657565b60405162461bcd60e51b815260206004820152602660248201527f4e6f74206f776e6572206f72204d697373696f6e466163746f727920617574686044820152651bdc9a5e995960d21b6064820152608490fd5b9190820180921161309457565b9190820391821161309457565b156134cb57565b60405162461bcd60e51b815260206004820152600f60248201526e496e76616c6964206164647265737360881b6044820152606490fd5b8015613094576000190190565b90816020910312613199575180151581036131995790565b6008821015612cec5752565b60025480156137c657624f19ff1942014281116130945762278cff194201428111613094576000929182805b6136d8575b5061356e846130c1565b613577856130c1565b9561358186613127565b946000905b801515806136cf575b156136c45760001901906135a282612e55565b60018060a01b0391549060031b1c1680600052600d60205260ff60406000205416604051631f385f7960e21b8152600081600481865afa9081156136b8578c918a9160009161369f575b508960e082018181511080613678575b1561366d5750506101000151105b61365e5782916121eb8561362c9381966136266001998d613171565b52613171565b60005260106020526136416040600020612f94565b61364b828a613171565b526136568189613171565b500190613586565b50949998509295505050505050565b91509150511061360a565b5092505091506008831015612cec578c91898b9260068614806135fc5750600786146135fc565b6136b2913d8091833e6128e28183612f73565b386135ec565b6040513d6000823e3d90fd5b509196955092505050565b5087821061358f565b60009493941901926136e984612e55565b60018060a01b0391549060031b1c1680600052600d6020526004600060ff6040822054169260405192838092631f385f7960e21b82525afa9081156136b857859285916000936137ab575b5060e083019082825110908161377b575b50156137705750506101000151105b613769576137628491613085565b949361355f565b9392613564565b915091505110613754565b92505092506008811015612cec5785928160068793149081156137a0575b5038613745565b600791501438613799565b6137bf91933d8091833e6128e28183612f73565b9138613734565b506040516020916137d78383612f73565b600082526000368137604051926137ee8185612f73565b600084525060003681376138006130f3565b91929190565b60085480156138685762015180810191828211613094578242101561384d57600954600a546001600160a01b0390811694911691906138469042906134b7565b9193929190565b600954600a546001600160a01b039182169450169190600090565b50600090600090600090600090565b6001600160a01b03166000908152600f602052604081208054829182918291825b82811061395f575050506003549160ff8316119060ff82159360081c1611918215928280613958575b61394a5781613942575b50613936578161392e575b506139245762093a808101809111613094576138f39042906134b7565b9062278d0081018091116130945761390c9042906134b7565b111561391c576002905b60009190565b600190613916565b5050600090600290565b9050386138d6565b50505050600090600190565b9050386138cb565b505050505050600190600090565b50806138c1565b6139698183612e86565b90549060031b1c62278d00810180821161309457421061398d575b50600101613898565b9361399790613085565b93871580156139ed575b6139e5575b62093a8081018082116130945742101561398457946139c490613085565b94861580156139dc575b156139845795506001613984565b508681106139ce565b9650866139a6565b508781106139a1565b156139fd57565b60405162461bcd60e51b815260206004820152603660248201527f4d697373696f6e466163746f72793a2063616c6c6572206973206e6f742061206044820152751d985b1a59081b5a5cdcda5bdb8818dbdb9d1c9858dd60521b6064820152608490fd5b90916002549283831015613c1457613a7990836134aa565b92808411613c0c575b50600092825b818110613b8c5750613a99846130c1565b90613aa661211a866130c1565b936000905b828110613aba57505050929190565b613ac381612e55565b905460039190911b1c6001600160a01b03166000818152600d602052604090205460ff16600881101580612cec57600582148015613b7f575b818115613b6f575b50613b15575b505050600101613aab565b82613b2586899794959697613171565b52612cec576001928392613b39838c613171565b526000526010602052613b4f6040600020612f94565b613b59828a613171565b52613b648189613171565b500191903880613b0a565b9050612cec576007821481613b04565b5050600060068214613afc565b613b9581612e55565b60018060a01b0391549060031b1c16600052600d60205260ff6040600020541660088110159081612cec5760058114918215613bfe575b8215613bed575b5050613be2575b600101613a88565b600190940193613bda565b909150612cec576007143880613bd3565b506006811491506000613bcc565b925038613a82565b506040516020935091506137d78383612f73565b6000546001600160a01b03163303613c3c57565b63118cdaa760e01b6000523360045260246000fd5b600260015414613c62576002600155565b633ee5aeb560e01b60005260046000fd5b600080546001600160a01b039283166001600160a01b03198216811783559216907f8be0079c531659141344cd1fd0a4f28419497f9722a3daafe3b4186f6b6457e09080a3565b6007811015612cec5760018114613de457600060028214613db7575060038114613d9157600060048214613d6b575060058114613d4657600660009114613d205750604051613d0a604082612f73565b6006815265437573746f6d60d01b602082015290565b50604051613d2f604082612f73565b60078152664d6f6e74686c7960c81b602082015290565b50604051613d55604082612f73565b60068152655765656b6c7960d01b602082015290565b50506040805190613d7c9082612f73565b60058152644461696c7960d81b602082015290565b50604051613da0604082612f73565b600781526642694461696c7960c81b602082015290565b50506040805190613dc89082612f73565b600c81526b517561727465724461696c7960a01b602082015290565b50604051613df3604082612f73565b6006815265486f75726c7960d01b60208201529056fea264697066735822122053fd4160da206271b2fe99db31c74c641edc52911780fed66be5fa0429f2511b64736f6c634300081e0033",
  "linkReferences": {},
  "deployedLinkReferences": {}
}