{
  "_format": "hh-sol-artifact-1",
  "contractName": "Mission",
  "sourceName": "contracts/MissionFactory.sol",
  "abi": [
    {
      "inputs": [],
      "stateMutability": "nonpayable",
      "type": "constructor"
    },
    {
      "inputs": [],
      "name": "AllRoundsDone",
      "type": "error"
    },
    {
      "inputs": [],
      "name": "AlreadyJoined",
      "type": "error"
    },
    {
      "inputs": [],
      "name": "AlreadyWon",
      "type": "error"
    },
    {
      "inputs": [],
      "name": "ContractsNotAllowed",
      "type": "error"
    },
    {
      "inputs": [
        {
          "internalType": "uint256",
          "name": "secondsLeft",
          "type": "uint256"
        }
      ],
      "name": "Cooldown",
      "type": "error"
    },
    {
      "inputs": [
        {
          "internalType": "uint256",
          "name": "nowTs",
          "type": "uint256"
        },
        {
          "internalType": "uint256",
          "name": "endTs",
          "type": "uint256"
        }
      ],
      "name": "EnrollmentClosed",
      "type": "error"
    },
    {
      "inputs": [
        {
          "internalType": "uint256",
          "name": "nowTs",
          "type": "uint256"
        },
        {
          "internalType": "uint256",
          "name": "startTs",
          "type": "uint256"
        }
      ],
      "name": "EnrollmentNotStarted",
      "type": "error"
    },
    {
      "inputs": [
        {
          "internalType": "uint8",
          "name": "maxPlayers",
          "type": "uint8"
        }
      ],
      "name": "MaxPlayers",
      "type": "error"
    },
    {
      "inputs": [],
      "name": "MissionEnded",
      "type": "error"
    },
    {
      "inputs": [
        {
          "internalType": "uint256",
          "name": "secondsLeft",
          "type": "uint256"
        }
      ],
      "name": "MonthlyLimit",
      "type": "error"
    },
    {
      "inputs": [
        {
          "internalType": "uint256",
          "name": "nowTs",
          "type": "uint256"
        },
        {
          "internalType": "uint256",
          "name": "missionStart",
          "type": "uint256"
        }
      ],
      "name": "NotActive",
      "type": "error"
    },
    {
      "inputs": [],
      "name": "NotJoined",
      "type": "error"
    },
    {
      "inputs": [
        {
          "internalType": "address",
          "name": "owner",
          "type": "address"
        }
      ],
      "name": "OwnableInvalidOwner",
      "type": "error"
    },
    {
      "inputs": [
        {
          "internalType": "address",
          "name": "account",
          "type": "address"
        }
      ],
      "name": "OwnableUnauthorizedAccount",
      "type": "error"
    },
    {
      "inputs": [
        {
          "internalType": "address",
          "name": "winner",
          "type": "address"
        },
        {
          "internalType": "uint256",
          "name": "amount",
          "type": "uint256"
        },
        {
          "internalType": "bytes",
          "name": "data",
          "type": "bytes"
        }
      ],
      "name": "PayoutFailed",
      "type": "error"
    },
    {
      "inputs": [],
      "name": "ReentrancyGuardReentrantCall",
      "type": "error"
    },
    {
      "inputs": [
        {
          "internalType": "uint256",
          "name": "secondsLeft",
          "type": "uint256"
        }
      ],
      "name": "WeeklyLimit",
      "type": "error"
    },
    {
      "inputs": [
        {
          "internalType": "uint256",
          "name": "expected",
          "type": "uint256"
        },
        {
          "internalType": "uint256",
          "name": "sent",
          "type": "uint256"
        }
      ],
      "name": "WrongEntryFee",
      "type": "error"
    },
    {
      "anonymous": false,
      "inputs": [
        {
          "indexed": false,
          "internalType": "uint256",
          "name": "ownerAmount",
          "type": "uint256"
        },
        {
          "indexed": false,
          "internalType": "uint256",
          "name": "factoryAmount",
          "type": "uint256"
        }
      ],
      "name": "FundsWithdrawn",
      "type": "event"
    },
    {
      "anonymous": false,
      "inputs": [
        {
          "indexed": true,
          "internalType": "address",
          "name": "owner",
          "type": "address"
        },
        {
          "indexed": true,
          "internalType": "enum MissionType",
          "name": "missionType",
          "type": "uint8"
        },
        {
          "indexed": false,
          "internalType": "uint256",
          "name": "timestamp",
          "type": "uint256"
        }
      ],
      "name": "MissionInitialized",
      "type": "event"
    },
    {
      "anonymous": false,
      "inputs": [
        {
          "indexed": true,
          "internalType": "uint256",
          "name": "nrOfPlayers",
          "type": "uint256"
        },
        {
          "indexed": true,
          "internalType": "uint256",
          "name": "amount",
          "type": "uint256"
        },
        {
          "indexed": false,
          "internalType": "address[]",
          "name": "player",
          "type": "address[]"
        },
        {
          "indexed": false,
          "internalType": "uint256",
          "name": "timestamp",
          "type": "uint256"
        }
      ],
      "name": "MissionRefunded",
      "type": "event"
    },
    {
      "anonymous": false,
      "inputs": [
        {
          "indexed": true,
          "internalType": "enum Status",
          "name": "previousStatus",
          "type": "uint8"
        },
        {
          "indexed": true,
          "internalType": "enum Status",
          "name": "newStatus",
          "type": "uint8"
        },
        {
          "indexed": false,
          "internalType": "uint256",
          "name": "timestamp",
          "type": "uint256"
        }
      ],
      "name": "MissionStatusChanged",
      "type": "event"
    },
    {
      "anonymous": false,
      "inputs": [
        {
          "indexed": true,
          "internalType": "address",
          "name": "previousOwner",
          "type": "address"
        },
        {
          "indexed": true,
          "internalType": "address",
          "name": "newOwner",
          "type": "address"
        }
      ],
      "name": "OwnershipTransferred",
      "type": "event"
    },
    {
      "anonymous": false,
      "inputs": [
        {
          "indexed": true,
          "internalType": "address",
          "name": "player",
          "type": "address"
        },
        {
          "indexed": false,
          "internalType": "uint256",
          "name": "amount",
          "type": "uint256"
        },
        {
          "indexed": false,
          "internalType": "uint256",
          "name": "totalPlayers",
          "type": "uint256"
        }
      ],
      "name": "PlayerEnrolled",
      "type": "event"
    },
    {
      "anonymous": false,
      "inputs": [
        {
          "indexed": true,
          "internalType": "address",
          "name": "player",
          "type": "address"
        },
        {
          "indexed": false,
          "internalType": "uint256",
          "name": "amount",
          "type": "uint256"
        }
      ],
      "name": "PlayerRefunded",
      "type": "event"
    },
    {
      "anonymous": false,
      "inputs": [
        {
          "indexed": false,
          "internalType": "uint256",
          "name": "value",
          "type": "uint256"
        },
        {
          "indexed": false,
          "internalType": "uint256",
          "name": "croCurrent",
          "type": "uint256"
        }
      ],
      "name": "PotIncreased",
      "type": "event"
    },
    {
      "anonymous": false,
      "inputs": [
        {
          "indexed": true,
          "internalType": "address",
          "name": "player",
          "type": "address"
        },
        {
          "indexed": false,
          "internalType": "uint256",
          "name": "amount",
          "type": "uint256"
        }
      ],
      "name": "RefundFailed",
      "type": "event"
    },
    {
      "anonymous": false,
      "inputs": [
        {
          "indexed": true,
          "internalType": "address",
          "name": "player",
          "type": "address"
        },
        {
          "indexed": true,
          "internalType": "uint8",
          "name": "roundNumber",
          "type": "uint8"
        },
        {
          "indexed": false,
          "internalType": "uint256",
          "name": "payout",
          "type": "uint256"
        },
        {
          "indexed": false,
          "internalType": "uint256",
          "name": "croRemaining",
          "type": "uint256"
        }
      ],
      "name": "RoundCalled",
      "type": "event"
    },
    {
      "inputs": [],
      "name": "callRound",
      "outputs": [],
      "stateMutability": "nonpayable",
      "type": "function"
    },
    {
      "inputs": [],
      "name": "checkMissionStartCondition",
      "outputs": [],
      "stateMutability": "nonpayable",
      "type": "function"
    },
    {
      "inputs": [],
      "name": "currentProgressPct",
      "outputs": [
        {
          "internalType": "uint256",
          "name": "",
          "type": "uint256"
        }
      ],
      "stateMutability": "view",
      "type": "function"
    },
    {
      "inputs": [],
      "name": "enrollPlayer",
      "outputs": [],
      "stateMutability": "payable",
      "type": "function"
    },
    {
      "inputs": [
        {
          "internalType": "address",
          "name": "",
          "type": "address"
        }
      ],
      "name": "enrolled",
      "outputs": [
        {
          "internalType": "bool",
          "name": "",
          "type": "bool"
        }
      ],
      "stateMutability": "view",
      "type": "function"
    },
    {
      "inputs": [],
      "name": "factoryShare",
      "outputs": [
        {
          "internalType": "uint256",
          "name": "",
          "type": "uint256"
        }
      ],
      "stateMutability": "view",
      "type": "function"
    },
    {
      "inputs": [
        {
          "internalType": "address",
          "name": "",
          "type": "address"
        }
      ],
      "name": "failedRefundAmounts",
      "outputs": [
        {
          "internalType": "uint256",
          "name": "",
          "type": "uint256"
        }
      ],
      "stateMutability": "view",
      "type": "function"
    },
    {
      "inputs": [],
      "name": "forceFinalizeMission",
      "outputs": [],
      "stateMutability": "nonpayable",
      "type": "function"
    },
    {
      "inputs": [],
      "name": "getFailedRefundPlayers",
      "outputs": [
        {
          "internalType": "address[]",
          "name": "",
          "type": "address[]"
        }
      ],
      "stateMutability": "view",
      "type": "function"
    },
    {
      "inputs": [],
      "name": "getIndexerSnapshot",
      "outputs": [
        {
          "internalType": "uint8",
          "name": "status",
          "type": "uint8"
        },
        {
          "internalType": "uint8",
          "name": "roundCount",
          "type": "uint8"
        },
        {
          "internalType": "uint256",
          "name": "croCurrent",
          "type": "uint256"
        },
        {
          "internalType": "uint32",
          "name": "playersCount",
          "type": "uint32"
        },
        {
          "internalType": "uint32",
          "name": "winnersCount",
          "type": "uint32"
        },
        {
          "internalType": "uint32",
          "name": "refundedCount",
          "type": "uint32"
        }
      ],
      "stateMutability": "view",
      "type": "function"
    },
    {
      "inputs": [],
      "name": "getMissionData",
      "outputs": [
        {
          "components": [
            {
              "internalType": "address[]",
              "name": "players",
              "type": "address[]"
            },
            {
              "internalType": "enum MissionType",
              "name": "missionType",
              "type": "uint8"
            },
            {
              "internalType": "uint256",
              "name": "enrollmentStart",
              "type": "uint256"
            },
            {
              "internalType": "uint256",
              "name": "enrollmentEnd",
              "type": "uint256"
            },
            {
              "internalType": "uint256",
              "name": "enrollmentAmount",
              "type": "uint256"
            },
            {
              "internalType": "uint8",
              "name": "enrollmentMinPlayers",
              "type": "uint8"
            },
            {
              "internalType": "uint8",
              "name": "enrollmentMaxPlayers",
              "type": "uint8"
            },
            {
              "internalType": "uint256",
              "name": "missionStart",
              "type": "uint256"
            },
            {
              "internalType": "uint256",
              "name": "missionEnd",
              "type": "uint256"
            },
            {
              "internalType": "uint8",
              "name": "missionRounds",
              "type": "uint8"
            },
            {
              "internalType": "uint8",
              "name": "roundCount",
              "type": "uint8"
            },
            {
              "internalType": "uint256",
              "name": "croStart",
              "type": "uint256"
            },
            {
              "internalType": "uint256",
              "name": "croCurrent",
              "type": "uint256"
            },
            {
              "components": [
                {
                  "internalType": "address",
                  "name": "player",
                  "type": "address"
                },
                {
                  "internalType": "uint256",
                  "name": "amountWon",
                  "type": "uint256"
                }
              ],
              "internalType": "struct Mission.PlayersWon[]",
              "name": "playersWon",
              "type": "tuple[]"
            },
            {
              "internalType": "uint256",
              "name": "pauseTimestamp",
              "type": "uint256"
            },
            {
              "internalType": "address[]",
              "name": "refundedPlayers",
              "type": "address[]"
            },
            {
              "internalType": "string",
              "name": "name",
              "type": "string"
            },
            {
              "internalType": "uint256",
              "name": "missionCreated",
              "type": "uint256"
            }
          ],
          "internalType": "struct Mission.MissionData",
          "name": "",
          "type": "tuple"
        }
      ],
      "stateMutability": "view",
      "type": "function"
    },
    {
      "inputs": [],
      "name": "getPlayerCount",
      "outputs": [
        {
          "internalType": "uint256",
          "name": "",
          "type": "uint256"
        }
      ],
      "stateMutability": "view",
      "type": "function"
    },
    {
      "inputs": [],
      "name": "getRealtimeStatus",
      "outputs": [
        {
          "internalType": "enum Status",
          "name": "",
          "type": "uint8"
        }
      ],
      "stateMutability": "view",
      "type": "function"
    },
    {
      "inputs": [
        {
          "internalType": "uint256",
          "name": "offset",
          "type": "uint256"
        },
        {
          "internalType": "uint256",
          "name": "limit",
          "type": "uint256"
        }
      ],
      "name": "getRefundedPlayersSlice",
      "outputs": [
        {
          "internalType": "address[]",
          "name": "slice",
          "type": "address[]"
        }
      ],
      "stateMutability": "view",
      "type": "function"
    },
    {
      "inputs": [],
      "name": "getWinners",
      "outputs": [
        {
          "components": [
            {
              "internalType": "address",
              "name": "player",
              "type": "address"
            },
            {
              "internalType": "uint256",
              "name": "amountWon",
              "type": "uint256"
            }
          ],
          "internalType": "struct Mission.PlayersWon[]",
          "name": "",
          "type": "tuple[]"
        }
      ],
      "stateMutability": "view",
      "type": "function"
    },
    {
      "inputs": [
        {
          "internalType": "address",
          "name": "",
          "type": "address"
        }
      ],
      "name": "hasWon",
      "outputs": [
        {
          "internalType": "bool",
          "name": "",
          "type": "bool"
        }
      ],
      "stateMutability": "view",
      "type": "function"
    },
    {
      "inputs": [],
      "name": "increasePot",
      "outputs": [],
      "stateMutability": "payable",
      "type": "function"
    },
    {
      "inputs": [
        {
          "internalType": "address",
          "name": "_owner",
          "type": "address"
        },
        {
          "internalType": "address",
          "name": "_missionFactory",
          "type": "address"
        },
        {
          "internalType": "enum MissionType",
          "name": "_missionType",
          "type": "uint8"
        },
        {
          "internalType": "uint256",
          "name": "_enrollmentStart",
          "type": "uint256"
        },
        {
          "internalType": "uint256",
          "name": "_enrollmentEnd",
          "type": "uint256"
        },
        {
          "internalType": "uint256",
          "name": "_enrollmentAmount",
          "type": "uint256"
        },
        {
          "internalType": "uint8",
          "name": "_enrollmentMinPlayers",
          "type": "uint8"
        },
        {
          "internalType": "uint8",
          "name": "_enrollmentMaxPlayers",
          "type": "uint8"
        },
        {
          "internalType": "uint256",
          "name": "_missionStart",
          "type": "uint256"
        },
        {
          "internalType": "uint256",
          "name": "_missionEnd",
          "type": "uint256"
        },
        {
          "internalType": "uint8",
          "name": "_missionRounds",
          "type": "uint8"
        },
        {
          "internalType": "string",
          "name": "_name",
          "type": "string"
        }
      ],
      "name": "initialize",
      "outputs": [],
      "stateMutability": "payable",
      "type": "function"
    },
    {
      "inputs": [],
      "name": "isArming",
      "outputs": [
        {
          "internalType": "bool",
          "name": "",
          "type": "bool"
        }
      ],
      "stateMutability": "view",
      "type": "function"
    },
    {
      "inputs": [],
      "name": "isFinalized",
      "outputs": [
        {
          "internalType": "bool",
          "name": "",
          "type": "bool"
        }
      ],
      "stateMutability": "view",
      "type": "function"
    },
    {
      "inputs": [
        {
          "internalType": "address",
          "name": "addr",
          "type": "address"
        }
      ],
      "name": "isPlayer",
      "outputs": [
        {
          "internalType": "bool",
          "name": "",
          "type": "bool"
        }
      ],
      "stateMutability": "view",
      "type": "function"
    },
    {
      "inputs": [],
      "name": "missionFactory",
      "outputs": [
        {
          "internalType": "contract MissionFactory",
          "name": "",
          "type": "address"
        }
      ],
      "stateMutability": "view",
      "type": "function"
    },
    {
      "inputs": [],
      "name": "missionStartConditionChecked",
      "outputs": [
        {
          "internalType": "bool",
          "name": "",
          "type": "bool"
        }
      ],
      "stateMutability": "view",
      "type": "function"
    },
    {
      "inputs": [],
      "name": "owner",
      "outputs": [
        {
          "internalType": "address",
          "name": "",
          "type": "address"
        }
      ],
      "stateMutability": "view",
      "type": "function"
    },
    {
      "inputs": [],
      "name": "ownerShare",
      "outputs": [
        {
          "internalType": "uint256",
          "name": "",
          "type": "uint256"
        }
      ],
      "stateMutability": "view",
      "type": "function"
    },
    {
      "inputs": [
        {
          "internalType": "address",
          "name": "player",
          "type": "address"
        }
      ],
      "name": "pendingPayout",
      "outputs": [
        {
          "internalType": "uint256",
          "name": "",
          "type": "uint256"
        }
      ],
      "stateMutability": "view",
      "type": "function"
    },
    {
      "inputs": [
        {
          "internalType": "address",
          "name": "player",
          "type": "address"
        }
      ],
      "name": "playerState",
      "outputs": [
        {
          "internalType": "bool",
          "name": "joined",
          "type": "bool"
        },
        {
          "internalType": "bool",
          "name": "won",
          "type": "bool"
        }
      ],
      "stateMutability": "view",
      "type": "function"
    },
    {
      "inputs": [],
      "name": "refundPlayers",
      "outputs": [],
      "stateMutability": "nonpayable",
      "type": "function"
    },
    {
      "inputs": [
        {
          "internalType": "address",
          "name": "",
          "type": "address"
        }
      ],
      "name": "refunded",
      "outputs": [
        {
          "internalType": "bool",
          "name": "",
          "type": "bool"
        }
      ],
      "stateMutability": "view",
      "type": "function"
    },
    {
      "inputs": [],
      "name": "remainingRounds",
      "outputs": [
        {
          "internalType": "uint8",
          "name": "",
          "type": "uint8"
        }
      ],
      "stateMutability": "view",
      "type": "function"
    },
    {
      "inputs": [],
      "name": "renounceOwnership",
      "outputs": [],
      "stateMutability": "nonpayable",
      "type": "function"
    },
    {
      "inputs": [],
      "name": "secondsUntilNextRound",
      "outputs": [
        {
          "internalType": "uint256",
          "name": "",
          "type": "uint256"
        }
      ],
      "stateMutability": "view",
      "type": "function"
    },
    {
      "inputs": [
        {
          "internalType": "address",
          "name": "newOwner",
          "type": "address"
        }
      ],
      "name": "transferOwnership",
      "outputs": [],
      "stateMutability": "nonpayable",
      "type": "function"
    },
    {
      "inputs": [
        {
          "internalType": "address",
          "name": "addr",
          "type": "address"
        }
      ],
      "name": "wasRefunded",
      "outputs": [
        {
          "internalType": "bool",
          "name": "",
          "type": "bool"
        }
      ],
      "stateMutability": "view",
      "type": "function"
    },
    {
      "inputs": [],
      "name": "withdrawFunds",
      "outputs": [],
      "stateMutability": "nonpayable",
      "type": "function"
    }
  ],
  "bytecode": "0x608080604052346083573315606d5760008054336001600160a01b0319821681178355916001600160a01b03909116907f8be0079c531659141344cd1fd0a4f28419497f9722a3daafe3b4186f6b6457e09080a36001805560ff196009541660095561341790816100898239f35b631e4fbdf760e01b600052600060045260246000fd5b600080fdfe608080604052600436101561001357600080fd5b600090813560e01c9081623e16a514611f145750806309c95e1014611eca57806310eb0e0e14611e8b5780631212484814611db957806324600fc314611cff578063268b2b5114611cd1578063293c221314611cae5780635407441f14611c9357806357985d1014611c205780635e83e15c146116f457806368c6ba21146116cc578063715018a6146116725780637475a4cb1461125b5780637ce17de414610ea65780637cf61b6914610d9f5780638d4e408314610d545780638da5cb5b14610d2d5780638f1c315114610d0f578063987c543a1461088757806398bdae43146107cd578063a52b2b881461078e578063a7e22a3e14610768578063ad1ca6bf146106a7578063b2a4a5d21461066e578063c033a4901461062f578063c2e5220614610611578063dd1121f6146105dd578063df15c37e146104fa578063e6810a50146104d6578063eb2bab77146102c6578063f2fde38b14610275578063fa4cf5a11461024c578063faf9175d14610219578063fb84e12f146101f65763fcca0c84146101a157600080fd5b346101f35760203660031901126101f35760409060ff826001600160a01b036101c8611f30565b1692838152600360205282828220541693815260046020522054168251911515825215156020820152f35b80fd5b50346101f357806003193601126101f357602061021161287c565b604051908152f35b50346101f35760403660031901126101f35761024861023c6024356004356127dd565b6040519182918261202d565b0390f35b50346101f357806003193601126101f3576002546040516001600160a01b039091168152602090f35b50346101f35760203660031901126101f35761028f611f30565b610297612e9d565b6001600160a01b038116156102b2576102af90612e56565b80f35b631e4fbdf760e01b82526004829052602482fd5b50806003193601126101f35734156104a15760018060a01b0360025416803314908115610422575b50801561040f575b156103be576103036128e5565b60088110156103aa5760031115610365576103203460135461231a565b6013557f7272b264c9ef2a1e8e9303944736f4977b14a5761227b7b9869fecaa60f8938760406103523460145461231a565b806014558151903482526020820152a180f35b60405162461bcd60e51b815260206004820152601960248201527f4d697373696f6e207061737365642061637469766174696f6e000000000000006044820152606490fd5b634e487b7160e01b82526021600452602482fd5b60405162461bcd60e51b815260206004820152602360248201527f4f6e6c7920666163746f7279206f7220617574686f72697a65642063616e20666044820152621d5b9960ea1b6064820152608490fd5b5080546001600160a01b031633146102f6565b60405163b918161160e01b81523360048201529150602090829060249082905afa908115610496578291610458575b50386102ee565b90506020813d60201161048e575b81610473602093836120fd565b8101031261048a576104849061211f565b38610451565b5080fd5b3d9150610466565b6040513d84823e3d90fd5b60405162461bcd60e51b815260206004820152600d60248201526c139bc8199d5b991cc81cd95b9d609a1b6044820152606490fd5b50346101f35760203660031901126101f35760206102116104f5611f30565b6126c4565b50346101f357806003193601126101f3576105136128e5565b60088110156103aa576006149081156105ab575b501561054c576102486105386124c2565b604051918291602083526020830190611fa3565b60405162461bcd60e51b815260206004820152603160248201527f4d697373696f6e206973206e6f7420696e2053756363657373206f7220506172604482015270746c79537563636573732073746174757360781b6064820152608490fd5b90506105b56128e5565b9060088210156105c9575060051438610527565b634e487b7160e01b81526021600452602490fd5b50346101f357806003193601126101f357600d54421180610606575b6020906040519015158152f35b5060105442106105f9565b50346101f357806003193601126101f3576020600a54604051908152f35b50346101f35760203660031901126101f35760209060ff906040906001600160a01b0361065a611f30565b168152600584522054166040519015158152f35b50346101f35760203660031901126101f3576020906040906001600160a01b03610696611f30565b168152600683522054604051908152f35b50346101f357806003193601126101f3576106c06128c3565b80546001600160a01b0316331480156106ec575b6106dd9061212c565b6106e56125aa565b6001805580f35b5060025460405163b918161160e01b815233600482015290602090829060249082906001600160a01b03165afa801561049657829061072d575b90506106d4565b506020813d602011610760575b81610747602093836120fd565b8101031261048a5761075b6106dd9161211f565b610726565b3d915061073a565b50346101f357806003193601126101f357602061078361255f565b60ff60405191168152f35b50346101f35760203660031901126101f35760209060ff906040906001600160a01b036107b9611f30565b168152600484522054166040519015158152f35b50346101f357806003193601126101f3576107e66128c3565b80546001600160a01b03163314801561080b575b6108039061212c565b6106e5612ec6565b5060025460405163b918161160e01b815233600482015290602090829060249082906001600160a01b03165afa801561049657829061084c575b90506107fa565b506020813d60201161087f575b81610866602093836120fd565b8101031261048a5761087a6108039161211f565b610845565b3d9150610859565b50806003193601126101f35761089b6128c3565b333b610d0157600c54804210610ceb5750600d54804211610cd55750600a5460ff600f5460081c1680911015610cc35750600e54803403610cad5750338152600360205260ff604082205416610c9f5760025460408051634c0252c360e11b81523360048201526001600160a01b0390921692919081602481865afa9081156104965782908392610c51575b5015610b495750600a54600160401b811015610b355780600161094f9201600a55600a612210565b81549060031b9033821b9160018060a01b03901b1916179055338152600360205260408120600160ff1982541617905561098b3460135461231a565b60135561099a3460145461231a565b60145580600181610b28575b8015610b1b575b8015610b0e575b610aab575b6105c957601a5460ff8160081c16906008821015610a95576101009060016000936000805160206133a28339815191526020604051428152a361ff00191617601a5560025481906001600160a01b0316803b15610a925781809160246040518095819363c17f9e5960e01b83523360048401525af18015610a8557610a75575b600a546040519034825260208201527fbedd10d90b8962eb521114c7e2b49019403d371ffa1e46afbda7a3f1fde8f06f60403392a26001805580f35b610a7e916120fd565b8181610a39565b50604051903d90823e3d90fd5b50fd5b634e487b7160e01b600052602160045260246000fd5b506002546001600160a01b0316803b1561048a5760405163d8d6e8ff60e01b815260016004820152829182908290602490829084905af1908115610496578291610af7575b50506109b9565b81610b01916120fd565b610b0c578083610af0565bfd5b506105c9578060006109b4565b506105c9578060006109ad565b506105c9578060006109a6565b634e487b7160e01b82526041600452602482fd5b6024926003821015610c3e57602091600103610bd1576040516377f855c960e11b815233600482015293849182905afa8015610a85578190610b99575b631b62787960e31b825260045260249150fd5b506020823d602011610bc9575b81610bb3602093836120fd565b81010312610bc45760249151610b86565b600080fd5b3d9150610ba6565b604051631b8093b160e11b815233600482015293849182905afa8015610a85578190610c0b575b63147ce66f60e31b825260045260249150fd5b506020823d602011610c36575b81610c25602093836120fd565b81010312610bc45760249151610bf8565b3d9150610c18565b5050634e487b7160e01b81526021600452fd5b9150506040813d604011610c97575b81610c6d604093836120fd565b8101031261048a576020610c808261211f565b910151906003821015610c935738610927565b8280fd5b3d9150610c60565b621d934160e11b8152600490fd5b6354d7a6b360e01b825260045234602452604490fd5b63647bcfa160e01b8252600452602490fd5b63166450c960e31b825242600452602452604490fd5b634cd01efb60e11b825242600452602452604490fd5b628b531560e01b8152600490fd5b50346101f357806003193601126101f3576020600754604051908152f35b50346101f357806003193601126101f357546040516001600160a01b039091168152602090f35b50346101f357806003193601126101f357610d6d6128e5565b9060088210156105c95781600660209314918215610d92575b50506040519015158152f35b6007925050143880610d86565b50346101f357806003193601126101f357610db86128e5565b60088110156103aa576007610dcd9114612178565b600a5481805b828110610e5e5750610de4906123ad565b9180805b838110610dfd5760405180610248878261202d565b80610e096001926121c4565b838060a01b0391549060031b1c16835260066020526040832054610e2e575b01610de8565b610e37816121c4565b838060a01b0391549060031b1c16610e58610e518661253c565b958861254b565b52610e28565b610e67816121c4565b905460039190911b1c6001600160a01b0316845260066020526040842054610e92575b600101610dd3565b90610e9e60019161253c565b919050610e8a565b50346101f357806003193601126101f35780610220604051610ec7816120e0565b606081528260208201528260408201528260608201528260808201528260a08201528260c08201528260e0820152826101008201528261012082015282610140820152826101608201528261018082015260606101a0820152826101c082015260606101e08201526060610200820152015260405190610f46826120e0565b604051600a548082528160208101600a85526020852092855b818110611239575050610f74925003826120fd565b825260ff600b541660078110156103aa576020830152600c546040830152600d546060830152600e54608083015260ff600f5481811660a085015260081c1660c083015260105460e083015260115461010083015260ff60125481811661012085015260081c16610140830152601354610160830152601454610180830152610ffb6124c2565b6101a08301526016546101c08301526040516017548082528160208101601785526020852092855b818110611217575050611038925003826120fd565b6101e08301526040519081816018549261105184612409565b80845293600181169081156111f557506001146111a8575b50611076925003826120fd565b61020082015260195461022082015260405180916020825261022061119b6111856111616110b285516102406020890152610260880190611f59565b6110c460208701516040890190611f96565b6040860151606088015260608601516080880152608086015160a088015260ff60a08701511660c088015260ff60c08701511660e088015260e086015161010088015261010086015161012088015260ff6101208701511661014088015260ff610140870151166101608801526101608601516101808801526101808601516101a08801526101a0860151601f19888303016101c0890152611fa3565b6101c08501516101e08701526101e0850151601f1987830301610200880152611f59565b610200840151858203601f190184870152611fec565b9101516102408301520390f35b60188152919290506000805160206133c28339815191525b8183106111d95750509060206110769282010138611069565b60209193508060019154838588010152019101909183926111c0565b90506020925061107694915060ff191682840152151560051b82010138611069565b84546001600160a01b0316835260019485019486945060209093019201611023565b84546001600160a01b0316835260019485019486945060209093019201610f5f565b50346101f357806003193601126101f3576112746128c3565b61127c6128e5565b60088110156103aa576004811461161657600381106115fd576003106115ee57338152600460205260ff6040822054166115df57338152600360205260ff604082205416156115d05760125460ff8160081c169060ff81168210156115c1576010546112e88142612327565b906064820291808304606414901517156115ad579061130c61131292601154612327565b90612443565b91601354606461132f601454956113298785612327565b936123df565b04908082106115725761134191612327565b9280841161156a575b831561152d578361135a91612327565b60145560ff811461151957600161ff00910160081b169061ff00191617601255338252600460205260408220600160ff1982541617905560405161139d816120ae565b338152816020820152601554600160401b811015611505578060016113c59201601555612463565b6114f157815181546001600160a01b0319166001600160a01b03919091161781556020909101516001909101558180808084335af1611402612482565b90156114bd575060ff601254818160081c16809360145460405191825260208201527fbbdd894f5e6d754c18172761a1a461095c26de58905e706a8c33657573d4067260403392a31603611460576114586129e8565b6106e5612b79565b50600042601655601a5460ff8160081c169060088210156114a957826004610400936000805160206133a28339815191526020604051428152a35061ff00191617601a556106e5565b634e487b7160e01b83526021600452602483fd5b906114ed60405192839263d086db4360e01b84523360048501526024840152606060448401526064830190611fec565b0390fd5b634e487b7160e01b84526004849052602484fd5b634e487b7160e01b84526041600452602484fd5b634e487b7160e01b84526011600452602484fd5b60405162461bcd60e51b8152602060048201526015602482015274139bc81a5b98dc995b595b9d185b081c185e5bdd5d605a1b6044820152606490fd5b92508261134a565b60405162461bcd60e51b8152602060048201526013602482015272283937b3b932b9b9903932b3b932b9b9b4b7b760691b6044820152606490fd5b634e487b7160e01b85526011600452602485fd5b6321b94f7b60e21b8352600483fd5b63c394a43360e01b8152600490fd5b6302ab8f8960e11b8152600490fd5b630d6a05df60e41b8152600490fd5b6010546316f5e3b760e21b835242600452602452604482fd5b60248260125460ff8061162d818460081c166122f2565b921691161460001461166757611655603c5b61165061ffff42921660165461231a565b612327565b600162269d7960e21b03198252600452fd5b61165561012c61163f565b50346101f357806003193601126101f35761168b612e9d565b80546001600160a01b03198116825581906001600160a01b03167f8be0079c531659141344cd1fd0a4f28419497f9722a3daafe3b4186f6b6457e08280a380f35b50346101f357806003193601126101f3576102486116e86128e5565b60405191829182611f46565b506101803660031901126101f35761170a611f30565b6024356001600160a01b0381169190829003610c9357604435916007831015611c1c5760c4359060ff8216809203611c185760e43560ff81168103611c1457610144359060ff8216809203611c1057610164359367ffffffffffffffff8511611c0c5736602386011215611c0c5784600401359367ffffffffffffffff8511611c08573660248688010111611c08576117a16128c3565b601a5460ff8116611bcd5760ff1916600117601a556117bf87612e56565b6bffffffffffffffffffffffff60a01b600254161760025560ff19600b541660ff881617600b55606435600c55608435600d5560a435600e5561ff00600f549260081b169161ffff19161717600f55610104356010556101243560115561ffff19601254161760125534601355346014558460165560209160405161184484826120fd565b8681528636813780519067ffffffffffffffff8211611b2a57600160401b8211611b2a578490600a5483600a55808410611b79575b5001600a8852875b828110611b3e5750505060405161189884826120fd565b8681528690600160401b8211611b2a57849060155483601555808410611aa6575b5001601588526000805160206133828339815191528589925b848410611a685750505050506118e9601854612409565b601f8111611a08575b508590601f8311600114611970577fe9597995b7a2af444cc28b2b776b88b1253d701282a9bcf902d4f59750df7c57939291879183611962575b50508160011b916000199060031b1c1916176018555b4260198190556040519081526001600160a01b0390931692a36001805580f35b60249250010135388061192c565b601887526000805160206133c283398151915291601f198416885b8181106119ee57509160019391857fe9597995b7a2af444cc28b2b776b88b1253d701282a9bcf902d4f59750df7c57979694106119d1575b505050811b01601855611942565b0160240135600019600384901b60f8161c191690553880806119c3565b91938660018192602488880101358155019501920161198b565b611a4c9060188852601f840160051c6000805160206133c28339815191520190858510611a52575b601f0160051c6000805160206133c283398151915201906123f2565b386118f2565b6000805160206133c28339815191529150611a30565b8051805184546001600160a01b0319166001600160a01b039190911617845560200151600184810191909155916002910192019201919086906118d2565b9091506001600160ff1b0381168103611b16576001600160ff1b0383168303611b165790859160011b600080516020613382833981519152018360011b600080516020613382833981519152015b818110611b0157506118b9565b8a8155600181018b9055879350600201611af4565b634e487b7160e01b89526011600452602489fd5b634e487b7160e01b88526041600452602488fd5b81516001600160a01b03167fc65a7bb8d6351c1cf70c95a316cc6a92839c986682d98bc35f958f4883f9d2a882015590850190600101611881565b611bc7907fc65a7bb8d6351c1cf70c95a316cc6a92839c986682d98bc35f958f4883f9d2a801847fc65a7bb8d6351c1cf70c95a316cc6a92839c986682d98bc35f958f4883f9d2a8016123f2565b38611879565b60405162461bcd60e51b8152602060048201526013602482015272105b1c9958591e481a5b9a5d1a585b1a5e9959606a1b6044820152606490fd5b8880fd5b8780fd5b8680fd5b8580fd5b8480fd5b8380fd5b50346101f357806003193601126101f357611c396128e5565b9060088210156105c95760c08260ff60125460081c1660145463ffffffff600a541663ffffffff601554169163ffffffff601754169360ff60405196168652602086015260408501526060840152608083015260a0820152f35b50346101f357806003193601126101f3576020610211612334565b50346101f357806003193601126101f357602060ff600954166040519015158152f35b50346101f35760203660031901126101f3576020611cf5611cf0611f30565b612228565b6040519015158152f35b50346101f357806003193601126101f357611d186128c3565b80546001600160a01b031633148015611d3d575b611d359061212c565b6106e5612df4565b5060025460405163b918161160e01b815233600482015290602090829060249082906001600160a01b03165afa8015610496578290611d7e575b9050611d2c565b506020813d602011611db1575b81611d98602093836120fd565b8101031261048a57611dac611d359161211f565b611d77565b3d9150611d8b565b50346101f357806003193601126101f35780546001600160a01b031633148015611e0f575b611de79061212c565b611def6128c3565b611df76128e5565b60088110156103aa576005036101f3576114586129e8565b5060025460405163b918161160e01b815233600482015290602090829060249082906001600160a01b03165afa8015610496578290611e50575b9050611dde565b506020813d602011611e83575b81611e6a602093836120fd565b8101031261048a57611e7e611de79161211f565b611e49565b3d9150611e5d565b50346101f35760203660031901126101f35760209060ff906040906001600160a01b03611eb6611f30565b168152600384522054166040519015158152f35b50346101f35760203660031901126101f35760209060ff906040906001600160a01b03611ef5611f30565b16611f01811515612070565b8152600384522054166040519015158152f35b90503461048a578160031936011261048a576020906008548152f35b600435906001600160a01b0382168203610bc457565b919060208301926008821015610a955752565b906020808351928381520192019060005b818110611f775750505090565b82516001600160a01b0316845260209384019390920191600101611f6a565b906007821015610a955752565b906020808351928381520192019060005b818110611fc15750505090565b825180516001600160a01b031685526020908101518186015260409094019390920191600101611fb4565b919082519283825260005b848110612018575050826000602080949584010152601f8019910116010190565b80602080928401015182828601015201611ff7565b602060408183019282815284518094520192019060005b8181106120515750505090565b82516001600160a01b0316845260209384019390920191600101612044565b1561207757565b60405162461bcd60e51b815260206004820152600f60248201526e496e76616c6964206164647265737360881b6044820152606490fd5b6040810190811067ffffffffffffffff8211176120ca57604052565b634e487b7160e01b600052604160045260246000fd5b610240810190811067ffffffffffffffff8211176120ca57604052565b90601f8019910116810190811067ffffffffffffffff8211176120ca57604052565b51908115158203610bc457565b1561213357565b60405162461bcd60e51b815260206004820152601760248201527f4e6f74206f776e6572206f7220617574686f72697a65640000000000000000006044820152606490fd5b1561217f57565b60405162461bcd60e51b815260206004820152601f60248201527f4d697373696f6e206973206e6f7420696e204661696c656420737461747573006044820152606490fd5b600a548110156121df57600a60005260206000200190600090565b634e487b7160e01b600052603260045260246000fd5b6017548110156121df57601760005260206000200190600090565b80548210156121df5760005260206000200190600090565b6122306128e5565b6008811015610a955760076122459114612178565b6001600160a01b0316612259811515612070565b80600052600360205260ff60406000205416156122b7576017549060005b82811061228657505050600090565b81612290826121f5565b905460039190911b1c6001600160a01b0316146122af57600101612277565b505050600190565b60405162461bcd60e51b8152602060048201526013602482015272141b185e595c881b9bdd08195b9c9bdb1b1959606a1b6044820152606490fd5b60ff60019116019060ff821161230457565b634e487b7160e01b600052601160045260246000fd5b9190820180921161230457565b9190820391821161230457565b61233c6128e5565b6008811015610a95576004036123905760125460ff80612360818460081c166122f2565b921691161460001461238557612382603c61165061ffff42921660165461231a565b90565b61238261012c61163f565b600090565b67ffffffffffffffff81116120ca5760051b60200190565b906123b782612395565b6123c460405191826120fd565b82815280926123d5601f1991612395565b0190602036910137565b8181029291811591840414171561230457565b8181106123fd575050565b600081556001016123f2565b90600182811c92168015612439575b602083101461242357565b634e487b7160e01b600052602260045260246000fd5b91607f1691612418565b811561244d570490565b634e487b7160e01b600052601260045260246000fd5b6015548110156121df57601560005260206000209060011b0190600090565b3d156124bd573d9067ffffffffffffffff82116120ca57604051916124b1601f8201601f1916602001846120fd565b82523d6000602084013e565b606090565b601554906124cf82612395565b916124dd60405193846120fd565b80835260156000908152600080516020613382833981519152602085015b8383106125085750505050565b6002602060019260405161251b816120ae565b848060a01b03865416815284860154838201528152019201920191906124fb565b60001981146123045760010190565b80518210156121df5760209160051b010190565b6125676128e5565b6008811015610a95576003811490811561259f575b5061258657600090565b60125460ff808260081c1691160360ff81116123045790565b60049150143861257c565b600d544211806126b9575b1561264e5760095460ff81166126095760ff1916600117600955600a54156125f957600a5460ff600f5416116125e757565b6125ef612a95565b6125f7612ec6565b565b612601612a95565b6125f7612df4565b60405162461bcd60e51b815260206004820152601f60248201527f416c726561647920636865636b656420737461727420636f6e646974696f6e006044820152606490fd5b60405162461bcd60e51b815260206004820152603860248201527f4d697373696f6e206e6f7420696e2061726d696e672077696e646f772e20436160448201527f6c6c20726566756e64506c617965727320696e737465616400000000000000006064820152608490fd5b5060105442106125b5565b6126cc6128e5565b6008811015610a9557600381141590816127d1575b506127cb576001600160a01b031660008181526003602052604090205460ff16156127cb57600052600460205260ff60406000205416612390576010548042106127cb57601154804210156127c45761273a8242612327565b906064820291808304606414901517156123045761275b9261130c91612327565b601554600081156127bc575060001981019081116123045761277e600191612463565b500154905b606482029180830460641490151715612304576064916127b36127b8926127ad6013548094612443565b90612327565b6123df565b0490565b905090612783565b5050600090565b50600090565b600491501415386126e1565b9190601754908184101561285e57612809916127fa85928361231a565b90808211612856575b50612327565b612812816123ad565b9260005b82811061282257505050565b806128376128326001938561231a565b6121f5565b838060a01b0391549060031b1c1661284f828861254b565b5201612816565b905038612803565b505090506040516128706020826120fd565b60008152600036813790565b6010548042106127cb57601154804210156128bc5761289b8242612327565b90606482029180830460641490151715612304576123829261130c91612327565b5050606490565b6002600154146128d4576002600155565b633ee5aeb560e01b60005260046000fd5b60ff601a5460081c166008811015610a95576006811480156129de575b6123825750600c54421061239057600d544211156129d957600a5460ff600f5416116129d45760105442106129cf576011544210156129a55760125460ff808260081c1691168082101561299e57601654908161296157505050600390565b60ff61296f612982946122f2565b16036129935761ffff603c5b169061231a565b42101561298e57600490565b600390565b61ffff61012c61297b565b5050600690565b60125460ff8160081c169081156129c85760ff16116129c357600690565b600590565b5050600790565b600290565b600790565b600190565b5060078114612902565b6002546000906001600160a01b0316803b15610bc45760405163d8d6e8ff60e01b815260066004820152906000908290602490829084905af18015612a8957612a74575b50806105c95750601a5460ff8160081c16906008821015610a95576106009160066000916000805160206133a28339815191526020604051428152a35061ff00191617601a55565b612a8191506000906120fd565b600038612a2c565b6040513d6000823e3d90fd5b6002546000906001600160a01b0316803b15610bc45760405163d8d6e8ff60e01b815260076004820152906000908290602490829084905af18015612a8957612b21575b50806105c95750601a5460ff8160081c16906008821015610a95576107009160076000916000805160206133a28339815191526020604051428152a35061ff00191617601a55565b612b2e91506000906120fd565b600038612ad9565b15612b3d57565b60405162461bcd60e51b81526020600482015260146024820152734e6f2066756e647320746f20776974686472617760601b6044820152606490fd5b600090612b846128e5565b60088110156114a9576006148015612dda575b1561048a574791612ba9831515612b36565b600a5415612dcd575b5060008081600a545b808210612d9457505083612bd69293948211612d8c57612327565b8015612be28115612b36565b60198202908282046019141715612d78576064612c0191048092612327565b600254604051638da5cb5b60e01b815291939190602090829060049082906001600160a01b03165afa90811561049657829184918391612d30575b50829182918291906001600160a01b03165af1612c57612482565b5015612cf35760018060a01b036002541660ff600b5416813b15610c9357612c996024849287604051958694859363a9bea78960e01b85526004850190611f96565b5af1801561049657612ce3575b50507fd66662c0ded9e58fd31d5e44944bcfd07ffc15e6927ecc1382e7941cb7bd24c460408051838152846020820152a160075560085547601455565b81612ced916120fd565b38612ca6565b60405162461bcd60e51b815260206004820152601560248201527413dddb995c881d1c985b9cd9995c8819985a5b1959605a1b6044820152606490fd5b925050506020813d602011612d70575b81612d4d602093836120fd565b8101031261048a57516001600160a01b038116810361048a578190839082612c3c565b3d9150612d40565b634e487b7160e01b83526011600452602483fd5b905080612327565b9091612dc5600191612da5856121c4565b848060a01b0391549060031b1c168652600660205260408620549061231a565b920190612bbb565b612dd5612a95565b612bb2565b50612de36128e5565b60088110156114a957600714612b97565b612dfc6128e5565b60009060088110156103aa576006148015612e3c575b156101f357478015612be28115612e2881612b36565b600a54612b3657612e37612a95565b612b36565b50612e456128e5565b60088110156103aa57600714612e12565b600080546001600160a01b039283166001600160a01b03198216811783559216907f8be0079c531659141344cd1fd0a4f28419497f9722a3daafe3b4186f6b6457e09080a3565b6000546001600160a01b03163303612eb157565b63118cdaa760e01b6000523360045260246000fd5b612ece6128e5565b9060009160088110156114a95760070361333c57600a541561330057600190825b600a5481101561303b57612f02816121c4565b905460039190911b1c6001600160a01b03168085526005602052604085205460ff1615612f33575b50600101612eef565b84808080600e54855af1612f45612482565b5015612fe657808552600560205260408520805460ff19166001179055601754600160401b811015612fd25790612f86826001809594016017556017612210565b81549060031b9083821b91868060a01b03901b19161790557f48d31f1c958cd44f1f83a52ae2dfaf61e88a1b82c07a6d5711a4abef60b6531e6020600e54604051908152a25b90612f2a565b634e487b7160e01b86526041600452602486fd5b909250600e5481855260066020526130036040862091825461231a565b90557faf73b0b217208b61be286bbc37095bce7eb8b9ccf617244c2f0f154e8e04e3ff6020600e54604051908152a260018392612fcc565b509190613046612a95565b476130e5575b50601754600e549160405190826040830160408452526060820190601781527fc624b66cc0138b8fabc209247f72d758e1cf3343756d543badbf24212bed8c15905b8481106130c657505090807fbb93c7c839bddd97272c8e974d54d30adfa3aa55df63a52f02b7192efd361a24924260208301520390a3565b81546001600160a01b031683526020909201916001918201910161308e565b6130ed6128e5565b60088110156114a95760061480156132e6575b1561048a574790613112821515612b36565b600a54156132d9575b15613298575b801561312d8115612b36565b60198202908282046019141715612d7857606461314c91048092612327565b600254604051638da5cb5b60e01b815291929190602090829060049082906001600160a01b03165afa90811561324557849183918391613250575b50829182918291906001600160a01b03165af16131a2612482565b5015612cf35760018060a01b036002541660ff600b5416813b15611c18576131e46024869286604051958694859363a9bea78960e01b85526004850190611f96565b5af1801561324557613231575b507fd66662c0ded9e58fd31d5e44944bcfd07ffc15e6927ecc1382e7941cb7bd24c460408051838152846020820152a1600755600855476014553861304c565b8361323e919492946120fd565b91386131f1565b6040513d86823e3d90fd5b925050506020813d602011613290575b8161326d602093836120fd565b81010312611c1c57516001600160a01b0381168103611c1c578390829082613187565b3d9150613260565b91908081600a545b8082106132c0575050836132bb9293948211612d8c57612327565b613121565b90916132d1600191612da5856121c4565b9201906132a0565b6132e1612a95565b61311b565b506132ef6128e5565b60088110156114a957600714613100565b60405162461bcd60e51b8152602060048201526014602482015273139bc81c1b185e595c9cc81d1bc81c99599d5b9960621b6044820152606490fd5b60405162461bcd60e51b815260206004820152601c60248201527f4d697373696f6e206e6f7420696e204661696c656420737461747573000000006044820152606490fdfe55f448fdea98c4d29eb340757ef0a66cd03dbb9538908a6a81d96026b71ec47539ba628632d48c45c7f562c07db20a44cf68423691d5d79b20f87ba84138aedfb13d2d76d1f4b7be834882e410b3e3a8afaf69f83600ae24db354391d2378d2ea264697066735822122060ef99aeb1c0f2075af4ce33c4254074a792f11c565a82af90474545ce2d314e64736f6c634300081e0033",
  "linkReferences": {},
  "deployedLinkReferences": {}
}