{
  "_format": "hh-sol-artifact-1",
  "contractName": "MissionFactory",
  "sourceName": "contracts/MissionFactory.sol",
  "abi": [
    {
      "inputs": [
        {
          "internalType": "address",
          "name": "_impl",
          "type": "address"
        }
      ],
      "stateMutability": "nonpayable",
      "type": "constructor"
    },
    {
      "inputs": [],
      "name": "FailedDeployment",
      "type": "error"
    },
    {
      "inputs": [
        {
          "internalType": "uint256",
          "name": "balance",
          "type": "uint256"
        },
        {
          "internalType": "uint256",
          "name": "needed",
          "type": "uint256"
        }
      ],
      "name": "InsufficientBalance",
      "type": "error"
    },
    {
      "inputs": [
        {
          "internalType": "address",
          "name": "owner",
          "type": "address"
        }
      ],
      "name": "OwnableInvalidOwner",
      "type": "error"
    },
    {
      "inputs": [
        {
          "internalType": "address",
          "name": "account",
          "type": "address"
        }
      ],
      "name": "OwnableUnauthorizedAccount",
      "type": "error"
    },
    {
      "inputs": [],
      "name": "ReentrancyGuardReentrantCall",
      "type": "error"
    },
    {
      "anonymous": false,
      "inputs": [
        {
          "indexed": true,
          "internalType": "address",
          "name": "addr",
          "type": "address"
        }
      ],
      "name": "AuthorizedAddressAdded",
      "type": "event"
    },
    {
      "anonymous": false,
      "inputs": [
        {
          "indexed": true,
          "internalType": "address",
          "name": "addr",
          "type": "address"
        }
      ],
      "name": "AuthorizedAddressRemoved",
      "type": "event"
    },
    {
      "anonymous": false,
      "inputs": [
        {
          "indexed": false,
          "internalType": "uint8",
          "name": "newWeekly",
          "type": "uint8"
        },
        {
          "indexed": false,
          "internalType": "uint8",
          "name": "newMonthly",
          "type": "uint8"
        }
      ],
      "name": "EnrollmentLimitUpdated",
      "type": "event"
    },
    {
      "anonymous": false,
      "inputs": [
        {
          "indexed": true,
          "internalType": "address",
          "name": "user",
          "type": "address"
        },
        {
          "indexed": false,
          "internalType": "uint256",
          "name": "timestamp",
          "type": "uint256"
        }
      ],
      "name": "EnrollmentRecorded",
      "type": "event"
    },
    {
      "anonymous": false,
      "inputs": [
        {
          "indexed": true,
          "internalType": "address",
          "name": "sender",
          "type": "address"
        },
        {
          "indexed": false,
          "internalType": "uint256",
          "name": "amount",
          "type": "uint256"
        }
      ],
      "name": "FundsReceived",
      "type": "event"
    },
    {
      "anonymous": false,
      "inputs": [
        {
          "indexed": true,
          "internalType": "address",
          "name": "to",
          "type": "address"
        },
        {
          "indexed": false,
          "internalType": "uint256",
          "name": "amount",
          "type": "uint256"
        }
      ],
      "name": "FundsWithdrawn",
      "type": "event"
    },
    {
      "anonymous": false,
      "inputs": [
        {
          "indexed": true,
          "internalType": "address",
          "name": "missionAddress",
          "type": "address"
        },
        {
          "indexed": true,
          "internalType": "enum MissionType",
          "name": "missionType",
          "type": "uint8"
        }
      ],
      "name": "MissionCreated",
      "type": "event"
    },
    {
      "anonymous": false,
      "inputs": [
        {
          "indexed": false,
          "internalType": "uint256",
          "name": "amount",
          "type": "uint256"
        },
        {
          "indexed": true,
          "internalType": "enum MissionType",
          "name": "missionType",
          "type": "uint8"
        },
        {
          "indexed": true,
          "internalType": "address",
          "name": "sender",
          "type": "address"
        }
      ],
      "name": "MissionFundsRegistered",
      "type": "event"
    },
    {
      "anonymous": false,
      "inputs": [
        {
          "indexed": true,
          "internalType": "address",
          "name": "confirmer",
          "type": "address"
        },
        {
          "indexed": false,
          "internalType": "address",
          "name": "newOwner",
          "type": "address"
        },
        {
          "indexed": false,
          "internalType": "uint256",
          "name": "timestamp",
          "type": "uint256"
        }
      ],
      "name": "OwnershipTransferConfirmed",
      "type": "event"
    },
    {
      "anonymous": false,
      "inputs": [
        {
          "indexed": true,
          "internalType": "address",
          "name": "proposer",
          "type": "address"
        },
        {
          "indexed": false,
          "internalType": "address",
          "name": "newOwner",
          "type": "address"
        },
        {
          "indexed": false,
          "internalType": "uint256",
          "name": "timestamp",
          "type": "uint256"
        }
      ],
      "name": "OwnershipTransferProposed",
      "type": "event"
    },
    {
      "anonymous": false,
      "inputs": [
        {
          "indexed": true,
          "internalType": "address",
          "name": "previousOwner",
          "type": "address"
        },
        {
          "indexed": true,
          "internalType": "address",
          "name": "newOwner",
          "type": "address"
        }
      ],
      "name": "OwnershipTransferred",
      "type": "event"
    },
    {
      "stateMutability": "payable",
      "type": "fallback"
    },
    {
      "inputs": [],
      "name": "OWNERSHIP_PROPOSAL_WINDOW",
      "outputs": [
        {
          "internalType": "uint256",
          "name": "",
          "type": "uint256"
        }
      ],
      "stateMutability": "view",
      "type": "function"
    },
    {
      "inputs": [
        {
          "internalType": "address",
          "name": "account",
          "type": "address"
        }
      ],
      "name": "addAuthorizedAddress",
      "outputs": [],
      "stateMutability": "nonpayable",
      "type": "function"
    },
    {
      "inputs": [
        {
          "internalType": "address",
          "name": "",
          "type": "address"
        }
      ],
      "name": "authorized",
      "outputs": [
        {
          "internalType": "bool",
          "name": "",
          "type": "bool"
        }
      ],
      "stateMutability": "view",
      "type": "function"
    },
    {
      "inputs": [
        {
          "internalType": "address",
          "name": "user",
          "type": "address"
        }
      ],
      "name": "canEnroll",
      "outputs": [
        {
          "internalType": "bool",
          "name": "ok",
          "type": "bool"
        },
        {
          "internalType": "enum Limit",
          "name": "breach",
          "type": "uint8"
        }
      ],
      "stateMutability": "view",
      "type": "function"
    },
    {
      "inputs": [
        {
          "internalType": "address",
          "name": "newOwner",
          "type": "address"
        }
      ],
      "name": "confirmOwnershipTransfer",
      "outputs": [],
      "stateMutability": "nonpayable",
      "type": "function"
    },
    {
      "inputs": [
        {
          "internalType": "enum MissionType",
          "name": "_missionType",
          "type": "uint8"
        },
        {
          "internalType": "uint256",
          "name": "_enrollmentStart",
          "type": "uint256"
        },
        {
          "internalType": "uint256",
          "name": "_enrollmentEnd",
          "type": "uint256"
        },
        {
          "internalType": "uint256",
          "name": "_enrollmentAmount",
          "type": "uint256"
        },
        {
          "internalType": "uint8",
          "name": "_enrollmentMinPlayers",
          "type": "uint8"
        },
        {
          "internalType": "uint8",
          "name": "_enrollmentMaxPlayers",
          "type": "uint8"
        },
        {
          "internalType": "uint256",
          "name": "_missionStart",
          "type": "uint256"
        },
        {
          "internalType": "uint256",
          "name": "_missionEnd",
          "type": "uint256"
        },
        {
          "internalType": "uint8",
          "name": "_missionRounds",
          "type": "uint8"
        }
      ],
      "name": "createMission",
      "outputs": [
        {
          "internalType": "address",
          "name": "",
          "type": "address"
        }
      ],
      "stateMutability": "payable",
      "type": "function"
    },
    {
      "inputs": [],
      "name": "getAllMissions",
      "outputs": [
        {
          "internalType": "address[]",
          "name": "",
          "type": "address[]"
        },
        {
          "internalType": "enum Status[]",
          "name": "",
          "type": "uint8[]"
        }
      ],
      "stateMutability": "view",
      "type": "function"
    },
    {
      "inputs": [
        {
          "internalType": "enum MissionType",
          "name": "_type",
          "type": "uint8"
        }
      ],
      "name": "getFundsByType",
      "outputs": [
        {
          "internalType": "uint256",
          "name": "",
          "type": "uint256"
        }
      ],
      "stateMutability": "view",
      "type": "function"
    },
    {
      "inputs": [
        {
          "internalType": "uint256",
          "name": "n",
          "type": "uint256"
        }
      ],
      "name": "getLatestMissions",
      "outputs": [
        {
          "internalType": "address[]",
          "name": "",
          "type": "address[]"
        },
        {
          "internalType": "uint8[]",
          "name": "",
          "type": "uint8[]"
        }
      ],
      "stateMutability": "view",
      "type": "function"
    },
    {
      "inputs": [
        {
          "internalType": "address",
          "name": "missionAddress",
          "type": "address"
        }
      ],
      "name": "getMissionData",
      "outputs": [
        {
          "components": [
            {
              "internalType": "address[]",
              "name": "players",
              "type": "address[]"
            },
            {
              "internalType": "enum MissionType",
              "name": "missionType",
              "type": "uint8"
            },
            {
              "internalType": "uint256",
              "name": "enrollmentStart",
              "type": "uint256"
            },
            {
              "internalType": "uint256",
              "name": "enrollmentEnd",
              "type": "uint256"
            },
            {
              "internalType": "uint256",
              "name": "enrollmentAmount",
              "type": "uint256"
            },
            {
              "internalType": "uint8",
              "name": "enrollmentMinPlayers",
              "type": "uint8"
            },
            {
              "internalType": "uint8",
              "name": "enrollmentMaxPlayers",
              "type": "uint8"
            },
            {
              "internalType": "uint256",
              "name": "missionStart",
              "type": "uint256"
            },
            {
              "internalType": "uint256",
              "name": "missionEnd",
              "type": "uint256"
            },
            {
              "internalType": "uint8",
              "name": "missionRounds",
              "type": "uint8"
            },
            {
              "internalType": "uint8",
              "name": "roundCount",
              "type": "uint8"
            },
            {
              "internalType": "uint256",
              "name": "ethStart",
              "type": "uint256"
            },
            {
              "internalType": "uint256",
              "name": "ethCurrent",
              "type": "uint256"
            },
            {
              "components": [
                {
                  "internalType": "address",
                  "name": "player",
                  "type": "address"
                },
                {
                  "internalType": "uint256",
                  "name": "amountWon",
                  "type": "uint256"
                }
              ],
              "internalType": "struct Mission.PlayersWon[]",
              "name": "playersWon",
              "type": "tuple[]"
            },
            {
              "internalType": "uint256",
              "name": "pauseTimestamp",
              "type": "uint256"
            },
            {
              "internalType": "address[]",
              "name": "refundedPlayers",
              "type": "address[]"
            }
          ],
          "internalType": "struct Mission.MissionData",
          "name": "",
          "type": "tuple"
        }
      ],
      "stateMutability": "view",
      "type": "function"
    },
    {
      "inputs": [
        {
          "internalType": "enum Status",
          "name": "s",
          "type": "uint8"
        }
      ],
      "name": "getMissionsByStatus",
      "outputs": [
        {
          "internalType": "address[]",
          "name": "",
          "type": "address[]"
        },
        {
          "internalType": "uint8[]",
          "name": "",
          "type": "uint8[]"
        }
      ],
      "stateMutability": "view",
      "type": "function"
    },
    {
      "inputs": [],
      "name": "getMissionsEnded",
      "outputs": [
        {
          "internalType": "address[]",
          "name": "",
          "type": "address[]"
        },
        {
          "internalType": "uint8[]",
          "name": "",
          "type": "uint8[]"
        }
      ],
      "stateMutability": "view",
      "type": "function"
    },
    {
      "inputs": [],
      "name": "getMissionsNotEnded",
      "outputs": [
        {
          "internalType": "address[]",
          "name": "",
          "type": "address[]"
        },
        {
          "internalType": "uint8[]",
          "name": "",
          "type": "uint8[]"
        }
      ],
      "stateMutability": "view",
      "type": "function"
    },
    {
      "inputs": [
        {
          "internalType": "address",
          "name": "player",
          "type": "address"
        }
      ],
      "name": "getPlayerLimits",
      "outputs": [
        {
          "internalType": "uint8",
          "name": "weekUsed",
          "type": "uint8"
        },
        {
          "internalType": "uint8",
          "name": "weekMax",
          "type": "uint8"
        },
        {
          "internalType": "uint8",
          "name": "monthUsed",
          "type": "uint8"
        },
        {
          "internalType": "uint8",
          "name": "monthMax",
          "type": "uint8"
        },
        {
          "internalType": "uint256",
          "name": "secToWeek",
          "type": "uint256"
        },
        {
          "internalType": "uint256",
          "name": "secToMonth",
          "type": "uint256"
        }
      ],
      "stateMutability": "view",
      "type": "function"
    },
    {
      "inputs": [],
      "name": "getTotalMissions",
      "outputs": [
        {
          "internalType": "uint256",
          "name": "",
          "type": "uint256"
        }
      ],
      "stateMutability": "view",
      "type": "function"
    },
    {
      "inputs": [
        {
          "internalType": "address",
          "name": "",
          "type": "address"
        }
      ],
      "name": "isMission",
      "outputs": [
        {
          "internalType": "bool",
          "name": "",
          "type": "bool"
        }
      ],
      "stateMutability": "view",
      "type": "function"
    },
    {
      "inputs": [],
      "name": "missionImplementation",
      "outputs": [
        {
          "internalType": "address",
          "name": "",
          "type": "address"
        }
      ],
      "stateMutability": "view",
      "type": "function"
    },
    {
      "inputs": [
        {
          "internalType": "address",
          "name": "",
          "type": "address"
        }
      ],
      "name": "missionStatus",
      "outputs": [
        {
          "internalType": "enum Status",
          "name": "",
          "type": "uint8"
        }
      ],
      "stateMutability": "view",
      "type": "function"
    },
    {
      "inputs": [
        {
          "internalType": "uint256",
          "name": "",
          "type": "uint256"
        }
      ],
      "name": "missions",
      "outputs": [
        {
          "internalType": "address",
          "name": "",
          "type": "address"
        }
      ],
      "stateMutability": "view",
      "type": "function"
    },
    {
      "inputs": [],
      "name": "monthlyLimit",
      "outputs": [
        {
          "internalType": "uint8",
          "name": "",
          "type": "uint8"
        }
      ],
      "stateMutability": "view",
      "type": "function"
    },
    {
      "inputs": [],
      "name": "owner",
      "outputs": [
        {
          "internalType": "address",
          "name": "",
          "type": "address"
        }
      ],
      "stateMutability": "view",
      "type": "function"
    },
    {
      "inputs": [
        {
          "internalType": "address",
          "name": "",
          "type": "address"
        }
      ],
      "name": "ownershipProposals",
      "outputs": [
        {
          "internalType": "address",
          "name": "proposer",
          "type": "address"
        },
        {
          "internalType": "uint256",
          "name": "timestamp",
          "type": "uint256"
        }
      ],
      "stateMutability": "view",
      "type": "function"
    },
    {
      "inputs": [
        {
          "internalType": "address",
          "name": "newOwner",
          "type": "address"
        }
      ],
      "name": "proposeOwnershipTransfer",
      "outputs": [],
      "stateMutability": "nonpayable",
      "type": "function"
    },
    {
      "inputs": [
        {
          "internalType": "address",
          "name": "user",
          "type": "address"
        }
      ],
      "name": "recordEnrollment",
      "outputs": [],
      "stateMutability": "nonpayable",
      "type": "function"
    },
    {
      "inputs": [
        {
          "internalType": "enum MissionType",
          "name": "missionType",
          "type": "uint8"
        }
      ],
      "name": "registerMissionFunds",
      "outputs": [],
      "stateMutability": "payable",
      "type": "function"
    },
    {
      "inputs": [
        {
          "internalType": "address",
          "name": "account",
          "type": "address"
        }
      ],
      "name": "removeAuthorizedAddress",
      "outputs": [],
      "stateMutability": "nonpayable",
      "type": "function"
    },
    {
      "inputs": [],
      "name": "renounceOwnership",
      "outputs": [],
      "stateMutability": "nonpayable",
      "type": "function"
    },
    {
      "inputs": [
        {
          "internalType": "enum MissionType",
          "name": "",
          "type": "uint8"
        }
      ],
      "name": "reservedFunds",
      "outputs": [
        {
          "internalType": "uint256",
          "name": "",
          "type": "uint256"
        }
      ],
      "stateMutability": "view",
      "type": "function"
    },
    {
      "inputs": [],
      "name": "reservedFundsBreakdown",
      "outputs": [
        {
          "internalType": "uint256[7]",
          "name": "",
          "type": "uint256[7]"
        }
      ],
      "stateMutability": "view",
      "type": "function"
    },
    {
      "inputs": [
        {
          "internalType": "address",
          "name": "user",
          "type": "address"
        }
      ],
      "name": "secondsTillMonthlySlot",
      "outputs": [
        {
          "internalType": "uint256",
          "name": "",
          "type": "uint256"
        }
      ],
      "stateMutability": "view",
      "type": "function"
    },
    {
      "inputs": [
        {
          "internalType": "address",
          "name": "user",
          "type": "address"
        }
      ],
      "name": "secondsTillWeeklySlot",
      "outputs": [
        {
          "internalType": "uint256",
          "name": "",
          "type": "uint256"
        }
      ],
      "stateMutability": "view",
      "type": "function"
    },
    {
      "inputs": [
        {
          "internalType": "uint8",
          "name": "_weekly",
          "type": "uint8"
        },
        {
          "internalType": "uint8",
          "name": "_monthly",
          "type": "uint8"
        }
      ],
      "name": "setEnrollmentLimits",
      "outputs": [],
      "stateMutability": "nonpayable",
      "type": "function"
    },
    {
      "inputs": [
        {
          "internalType": "enum Status",
          "name": "newStatus",
          "type": "uint8"
        }
      ],
      "name": "setMissionStatus",
      "outputs": [],
      "stateMutability": "nonpayable",
      "type": "function"
    },
    {
      "inputs": [],
      "name": "totalMissionFailures",
      "outputs": [
        {
          "internalType": "uint256",
          "name": "",
          "type": "uint256"
        }
      ],
      "stateMutability": "view",
      "type": "function"
    },
    {
      "inputs": [],
      "name": "totalMissionFunds",
      "outputs": [
        {
          "internalType": "uint256",
          "name": "",
          "type": "uint256"
        }
      ],
      "stateMutability": "view",
      "type": "function"
    },
    {
      "inputs": [],
      "name": "totalMissionSuccesses",
      "outputs": [
        {
          "internalType": "uint256",
          "name": "",
          "type": "uint256"
        }
      ],
      "stateMutability": "view",
      "type": "function"
    },
    {
      "inputs": [],
      "name": "totalOwnerEarnedFunds",
      "outputs": [
        {
          "internalType": "uint256",
          "name": "",
          "type": "uint256"
        }
      ],
      "stateMutability": "view",
      "type": "function"
    },
    {
      "inputs": [
        {
          "internalType": "address",
          "name": "newOwner",
          "type": "address"
        }
      ],
      "name": "transferOwnership",
      "outputs": [],
      "stateMutability": "nonpayable",
      "type": "function"
    },
    {
      "inputs": [],
      "name": "weeklyLimit",
      "outputs": [
        {
          "internalType": "uint8",
          "name": "",
          "type": "uint8"
        }
      ],
      "stateMutability": "view",
      "type": "function"
    },
    {
      "inputs": [
        {
          "internalType": "uint256",
          "name": "amount",
          "type": "uint256"
        }
      ],
      "name": "withdrawFunds",
      "outputs": [],
      "stateMutability": "nonpayable",
      "type": "function"
    },
    {
      "stateMutability": "payable",
      "type": "receive"
    }
  ],
  "bytecode": "0x60a03461011e57601f612e1f38819003918201601f19168301916001600160401b038311848410176101235780849260209460405283398101031261011e57516001600160a01b03811680820361011e5733156101085760008054336001600160a01b0319821681178355604051939290916001600160a01b0316907f8be0079c531659141344cd1fd0a4f28419497f9722a3daafe3b4186f6b6457e09080a360018055610a0461ffff196003541617600355156100da5750608052604051612ce5908161013a82396080518181816109a40152610de00152f35b62461bcd60e51b8152602060048201526009602482015268696d706c207a65726f60b81b6044820152606490fd5b631e4fbdf760e01b600052600060045260246000fd5b600080fd5b634e487b7160e01b600052604160045260246000fdfe6080806040526004361015610011575b005b600090813560e01c9081630814ab8214612238575080630a6005da14612214578063155dd5ee1461205e5780631e59d58414611efe57806320c5718f14611c9557806321040fc314611b6d5780632c8fe52614611b295780632e33b07f146107275780633589cf7214611b0b5780633701276214611a2c5780633c2139571461182d57806342f1181e1461173c5780635c5bb6f21461171e57806363679723146117005780636805036d146115ad5780636d8a1390146115335780637071293914611448578063715018a6146113ee5780637e9eae501461130857806383fbea51146112ea578063861a68d6146112c95780638da5cb5b146112a25780639804a586146112585780639b15953914610d3c578063a9bea78914610bc8578063aa1f059514610b86578063b620291314610a15578063b9181611146109d3578063bd4877251461098e578063c17f9e591461075a578063c416ad2a14610727578063c892fde314610709578063cbf2080d14610572578063d3050eba14610554578063d41eca64146104a6578063d8d6e8ff1461041f578063df4db46314610398578063eff0ab921461028b578063f2fde38b146102345763fb4cdea70361000f5734610231576020366003190112610231576004356001600160a01b0381169081900361022f578152600b6020908152604091829020805460019091015483516001600160a01b0390921682529181019190915290819081015b0390f35b505b80fd5b5034610231576020366003190112610231576004356001600160a01b03811680820361028757610262612c3f565b156102735761027090612c68565b80f35b631e4fbdf760e01b82526004829052602482fd5b8280fd5b5034610231576020366003190112610231576004356001600160a01b0381169081900361022f578152600d6020526040812080548291825b82811061031357505050816102df57602091505b604051908152f35b62093a8082018092116102ff57506102fa6020914290612753565b6102d7565b634e487b7160e01b81526011600452602490fd5b61031d818361236c565b90549060031b1c62093a808101809111610384574210610340575b6001016102c3565b8415801561036b575b15610338579350600161035c858361236c565b90549060031b1c949050610338565b5084610377828461236c565b90549060031b1c10610349565b634e487b7160e01b85526011600452602485fd5b503461023157806003193601126102315760e090816040516103ba8282612447565b369037604051906103cb8383612447565b82368337805b60078110156103f4576001906103e681612384565b548160051b850152016103d1565b506040519190825b6007821061040957505050f35b60208060019285518152019301910190916103fc565b503461023157602036600319011261023157600435600881101561022f57338252600960205261045560ff604084205416612bb2565b338252600a6020526040822060ff1981541660ff83161790556006811460001461048b5750610485600654612469565b60065580f35b6007146104955780f35b6104a0600754612469565b60075580f35b50346102315760403660031901126102315760043560ff811680910361022f5760243560ff811691828203610550577f321994b8855ae38e4fd6162f7a0bd7cde88be83aa3acc96e03c17b7f733b43e19260409260018060a01b038654163314801561053b575b6105169061239d565b8261ff006003549260081b169161ffff1916171760035582519182526020820152a180f35b5033865260086020528386205460ff1661050d565b8380fd5b50346102315780600319360112610231576020604051620151808152f35b5034610231576020366003190112610231576004356001600160a01b0381169081900361022f578152600d602052604081208190829083809181908054915b82811061065e5750505060035494801560001461062c575080915b80610606575060c09460ff8092945b8160405197168752818316602088015216604086015260081c166060840152608083015260a0820152f35b9062278d0082018092116102ff575060c09460ff61062681934290612753565b946105db565b62093a80810180911161064a57610644904290612753565b916105cc565b634e487b7160e01b82526011600452602482fd5b610668818361236c565b90549060031b1c62278d0081018082116106e457421061068c575b506001016105b1565b9561069690612469565b9585158015610700575b6106f8575b62093a8081018082116106e45742101561068357966106c390612469565b96881580156106db575b156106835797506001610683565b508881106106cd565b634e487b7160e01b86526011600452602486fd5b9450846106a5565b508581106106a0565b50346102315780600319360112610231576020600654604051908152f35b50346102315760203660031901126102315760043590600782101561023157602061075183612384565b54604051908152f35b5034610231576020366003190112610231576004356001600160a01b0381169081900361022f57338252600a60205260ff604083205416600881101561097a576001036109445762278cff1942019042821161093057808352600d60205260408320805492845b84811080610917575b156107dd576107d890612469565b6107c1565b8383879280610863575b50805490600160401b82101561084f578161080a9160016108229401815561236c565b429082549060031b91821b91600019901b1916179055565b7f498f5e6dcf570483a1848853791046a7f10012193176d71f959f46eb7713d7446020604051428152a280f35b634e487b7160e01b84526041600452602484fd5b92805b610871858454612753565b8110156108c157806108bb61089161088b88600195612746565b8661236c565b90549060031b1c6108a2838761236c565b90919082549060031b91821b91600019901b1916179055565b01610866565b5092835b8181106108d257506107e7565b825480156109035760019190600019016108ec818661236c565b8154906000199060031b1b191690558455016108c5565b634e487b7160e01b86526031600452602486fd5b5081610923828561236c565b90549060031b1c106107ca565b634e487b7160e01b83526011600452602483fd5b60405162461bcd60e51b815260206004820152600e60248201526d24b73b30b634b21031b0b63632b960911b6044820152606490fd5b634e487b7160e01b83526021600452602483fd5b50346102315780600319360112610231576040517f00000000000000000000000000000000000000000000000000000000000000006001600160a01b03168152602090f35b5034610231576020366003190112610231576004356001600160a01b0381169081900361022f5760408260ff9260209452600884522054166040519015158152f35b50346102315780600319360112610231576002549080805b838110610b1a5750610a47610a41836124a6565b926124a6565b9281805b828110610a61576040518061022b8888836122dc565b610a6a8161233b565b905460039190911b1c6001600160a01b03168252600a602052604082205460ff16600881101580610b0657600682148015610afa575b610aaf575b5050600101610a4b565b610aba83969361233b565b905460039190911b1c6001600160a01b0316610ad684896124d8565b5261097a5781610af291610aec6001948a6124d8565b52612469565b939038610aa5565b50508260078214610aa0565b634e487b7160e01b84526021600452602484fd5b610b238161233b565b905460039190911b1c6001600160a01b03168252600a602052604082205460ff16600881101561097a5760068114908115610b7b575b50610b67575b600101610a2d565b91610b73600191612469565b929050610b5f565b600791501438610b59565b5034610231576020366003190112610231576004356001600160a01b0381169081900361022f5760408260ff9260209452600984522054166040519015158152f35b50602036600319011261023157600435600781101561022f573382526009602052610bf960ff604084205416612bb2565b610c01612c1d565b3415610cf857338252600a60205260ff604083205416600881101561097a576006148015610cd6575b15610c9a57610c3881612384565b610c43348254612746565b9055610c5134600454612746565b600455610c6360033404600554612746565b600555604051903482527f606617fd09d9890413e3c46147b844d4562351f86e0f7a5c60849bbf0ef0281160203393a36001805580f35b60405162461bcd60e51b815260206004820152601460248201527321b0b63632b9103737ba10309036b4b9b9b4b7b760611b6044820152606490fd5b50338252600a60205260ff604083205416600881101561097a57600714610c2a565b606460405162461bcd60e51b815260206004820152602060248201527f416d6f756e74206d7573742062652067726561746572207468616e207a65726f6044820152fd5b5061012036600319011261023157600435600781101561022f57602435906044359160643560843560ff81168091036112545760a43560ff81168091036112505760c4359060e43592610104359460ff861680960361124c5789546001600160a01b031633148015611236575b610db29061239d565b600586106111d75785821061116c578887101561111b578884106110bd5783851115611079578015611020577f0000000000000000000000000000000000000000000000000000000000000000608881901c62ffffff16763d602d80600a3d3981f3363d3d373d3d3d363d73000000178b5260781b6e5af43d82803e903d91602b57fd5bf3176020526001600160a01b03603760098cf01698891561101157898b52600960205260408b20600160ff19825416179055898b52600a60205260408b2060ff19815416905560018060a01b038b5416978a3b1561100d576040519863c54168b360e01b8a5260048a01523060248a0152610eb460448a018b61232e565b6064890152608488015260a487015260c486015260e485015261010484015261012483015261014482015283816101648134875af1801561100257610fee575b50600254600160401b81101561084f57806001610f14920160025561233b565b81546001600160a01b0360039290921b91821b19169084901b17905580827f0ac1ac89285bf936f515aafcf6808b3e062e77fd57f52c8892d20fc9409b8b538580a3610f5f81612384565b5460021c9081151580610fe4575b610f7d575b602083604051908152f35b610f8690612384565b610f91828254612753565b905582823b156102315760405163eb2bab7760e01b81529182906004908290865af18015610fd957610fc4575b80610f72565b610fcf838092612447565b61022f5781610fbe565b6040513d85823e3d90fd5b5081471015610f6d565b83610ffb91949294612447565b9138610ef4565b6040513d86823e3d90fd5b8b80fd5b63b06ebf3d60e01b8b5260048bfd5b60405162461bcd60e51b815260206004820152602b60248201527f456e726f6c6c6d656e7420616d6f756e74206d7573742062652067726561746560448201526a72207468616e207a65726f60a81b6064820152608490fd5b606460405162461bcd60e51b815260206004820152602060248201527f4d697373696f6e207374617274206d757374206265206265666f726520656e646044820152fd5b60405162461bcd60e51b815260206004820152603060248201527f4d697373696f6e207374617274206d757374206265206f6e206f72206166746560448201526f1c88195b9c9bdb1b1b595b9d08195b9960821b6064820152608490fd5b60405162461bcd60e51b815260206004820152602360248201527f456e726f6c6c6d656e74207374617274206d757374206265206265666f726520604482015262195b9960ea1b6064820152608490fd5b60405162461bcd60e51b815260206004820152603f60248201527f4d696e696d756d20706c6179657273206d75737420626520677265617465722060448201527f7468616e206f7220657175616c20746f206d697373696f6e20726f756e6473006064820152608490fd5b60405162461bcd60e51b815260206004820152603160248201527f4d697373696f6e20726f756e6473206d7573742062652067726561746572207460448201527068616e206f7220657175616c20746f203560781b6064820152608490fd5b50338a52600860205260408a205460ff16610da9565b8980fd5b8680fd5b8580fd5b5034610231576020366003190112610231576004356001600160a01b038116810361022f5761128690612a33565b6040519115158252600381101561097a57604092506020820152f35b5034610231578060031936011261023157546040516001600160a01b039091168152602090f35b5034610231578060031936011261023157602060ff60035416604051908152f35b50346102315780600319360112610231576020600754604051908152f35b503461023157602036600319011261023157600254906004358281116113e7575b611332816124a6565b9161133c826124a6565b936000198101908111825b84811061135d576040518061022b8989836122dc565b816113d35761137461136f8285612753565b61233b565b905460039190911b1c6001600160a01b03168061139183896124d8565b528452600a60205260ff60408520541660088110156113bf57906001916113b8828a6124d8565b5201611347565b634e487b7160e01b85526021600452602485fd5b634e487b7160e01b84526011600452602484fd5b5081611329565b5034610231578060031936011261023157611407612c3f565b80546001600160a01b03198116825581906001600160a01b03167f8be0079c531659141344cd1fd0a4f28419497f9722a3daafe3b4186f6b6457e08280a380f35b5034610231576020366003190112610231576004356001600160a01b0381169081900361022f5781546001600160a01b03163314801561151d575b61148c9061239d565b611497811515612760565b808252600860205260ff604083205416156114e757808252600860205260408220805460ff191690557f66d5f06f711af3c9feba3203fdb00b51345d514c68585d9d319c5ff5e6f775928280a280f35b60405162461bcd60e51b815260206004820152600e60248201526d139bdd08185d5d1a1bdc9a5e995960921b6044820152606490fd5b503382526008602052604082205460ff16611483565b50346102315780600319360112610231576115669061155061279e565b909160405193849360408552604085019061229f565b8381036020850152602080845192838152019301915b81811061158a575050500390f35b919350916020808261159f600194885161227c565b01940191019184939261157c565b50346102315780600319360112610231576002549080805b83811061169357506115d9610a41836124a6565b9281805b8281106115f3576040518061022b8888836122dc565b6115fc8161233b565b905460039190911b1c6001600160a01b03168252600a602052604082205460ff16600881101580610b0657600682141580611686575b611641575b50506001016115dd565b61164c83969361233b565b905460039190911b1c6001600160a01b031661166884896124d8565b5261097a578161167e91610aec6001948a6124d8565b939038611637565b5050826007821415611632565b61169c8161233b565b905460039190911b1c6001600160a01b03168252600a602052604082205460ff16600881101561097a57600681141590816116f4575b506116e0575b6001016115c5565b916116ec600191612469565b9290506116d8565b600791501415386116d2565b50346102315780600319360112610231576020600454604051908152f35b50346102315780600319360112610231576020600254604051908152f35b5034610231576020366003190112610231576004356001600160a01b0381169081900361022f5781546001600160a01b031633148015611817575b6117809061239d565b61178b811515612760565b808252600860205260ff6040832054166117dd57808252600860205260408220805460ff191660011790557f10ac961f00d5e732ba4dcc2c6fb09bebea0eb9edd2a75c8109775ef288382e678280a280f35b60405162461bcd60e51b8152602060048201526012602482015271105b1c9958591e48185d5d1a1bdc9a5e995960721b6044820152606490fd5b503382526008602052604082205460ff16611777565b5034610231576020366003190112610231576004356001600160a01b0381168082036102875782546001600160a01b031633148015611a16575b6118709061239d565b808352600b602052604083206040516118888161242b565b81546001600160a01b03168082526001909201546020820190815291156119d157516001600160a01b0316331461198d57516201518081018091116113d3574211611955576118d5612c3f565b8015611941576118e482612c68565b8252600b6020908152604080842084815560010184905580516001600160a01b039093168352429183019190915233917fdd72dd33198968a9cdc9b1e5cbff344fb8d04d99f8c15c0a02416b04e857b46791819081015b0390a280f35b631e4fbdf760e01b83526004839052602483fd5b60405162461bcd60e51b815260206004820152601060248201526f141c9bdc1bdcd85b08195e1c1a5c995960821b6044820152606490fd5b606460405162461bcd60e51b815260206004820152602060248201527f43616e6e6f7420636f6e6669726d20796f7572206f776e2070726f706f73616c6044820152fd5b60405162461bcd60e51b815260206004820152601a60248201527f4e6f2070726f706f73616c20666f722074686973206f776e65720000000000006044820152606490fd5b503383526008602052604083205460ff16611867565b5034610231576020366003190112610231576004356001600160a01b0381169081900361022f578152600d6020526040812080548291825b828110611a9a5750505081611a7f5760209150604051908152f35b62278d0082018092116102ff57506102fa6020914290612753565b611aa4818361236c565b90549060031b1c62278d008101809111610384574210611ac7575b600101611a64565b84158015611af2575b15611abf5793506001611ae3858361236c565b90549060031b1c949050611abf565b5084611afe828461236c565b90549060031b1c10611ad0565b50346102315780600319360112610231576020600554604051908152f35b50346102315760203660031901126102315760043590600254821015610231576020611b548361233b565b905460405160039290921b1c6001600160a01b03168152f35b5034610231576020366003190112610231576004356001600160a01b0381168082036102875782546001600160a01b031633148015611c7f575b611bb09061239d565b8015611c4657600160405191611bc58361242b565b33835260208301904282528552600b6020526040852092828060a01b039051166bffffffffffffffffffffffff60a01b845416178355519101557fc29bdbd554e41df97e5c40fc273a09677ac133c245f0064bdffef5cc72176e196040518061193b339442908360209093929193604081019460018060a01b031681520152565b60405162461bcd60e51b815260206004820152601160248201527024b73b30b634b2103732bb9037bbb732b960791b6044820152606490fd5b503383526008602052604083205460ff16611ba7565b5034610231576020366003190112610231576004356001600160a01b0381169081900361022f5760606101e0604051611ccd816123f8565b82815284602082015284604082015284838201528460808201528460a08201528460c08201528460e08201528461010082015284610120820152846101408201528461016082015284610180820152826101a0820152846101c082015201528015611eb9578160049160405192838092631f385f7960e21b82525afa908115611eae578291611e8c575b506040519060208252611d788151610200602085015261022084019061229f565b92611d8b6020830151604085019061232e565b6040820151606084015260608201516080840152608082015160a084015260ff60a08301511660c084015260ff60c08301511660e084015260e082015161010084015261010082015161012084015260ff6101208301511661014084015260ff610140830151166101608401526101608201516101808401526101808201516101a08401526101a082015193601f19848203016101c0850152602080865192838152019501915b818110611e6157848061022b886101e0886101c0810151828601520151601f198483030161020085015261229f565b825180516001600160a01b031687526020908101518188015260409096019590920191600101611e32565b611ea891503d8084833e611ea08183612447565b810190612578565b38611d57565b6040513d84823e3d90fd5b60405162461bcd60e51b815260206004820152601760248201527f496e76616c6964206d697373696f6e20616464726573730000000000000000006044820152606490fd5b5034610231576020366003190112610231576004359060088210159081610231576002548192825b8281106120035750611f40611f3a856124a6565b946124a6565b948391845b848110611f5b576040518061022b8a8a836122dc565b611f648161233b565b905460039190911b1c6001600160a01b03168652600a602052604086205460ff1682611fef576008811015611fef578314611fa2575b600101611f45565b929050611fae8361233b565b905460039190911b1c6001600160a01b0316611fca82886124d8565b526001611fe78692611fdc818b6124d8565b60ff86169052612469565b939050611f9a565b634e487b7160e01b87526021600452602487fd5b61200c8161233b565b905460039190911b1c6001600160a01b03168452600a602052604084205460ff16826113bf5760088110156113bf57861461204a575b600101611f26565b93612056600191612469565b949050612042565b50346102315760203660031901126102315760043560018060a01b03825416331480156121fe575b61208f9061239d565b612097612c1d565b81546001600160a01b0316908082156121c157156121ba575b47811161217e578280808084865af13d15612179573d67ffffffffffffffff811161216557604051906120ed601f8201601f191660200183612447565b81528460203d92013e5b1561212e5760207feaff4b37086828766ad3268786972c0cd24259d4c87a80f9d3963a3c3d999b0d91604051908152a26001805580f35b60405162461bcd60e51b815260206004820152600f60248201526e151c985b9cd9995c8819985a5b1959608a1b6044820152606490fd5b634e487b7160e01b85526041600452602485fd5b6120f7565b60405162461bcd60e51b8152602060048201526014602482015273496e73756666696369656e742062616c616e636560601b6044820152606490fd5b50476120b0565b60405162461bcd60e51b815260206004820152601560248201527424b73b30b634b21036b0b730b3b2b91037bbb732b960591b6044820152606490fd5b503382526008602052604082205460ff16612086565b5034610231578060031936011261023157602060ff60035460081c16604051908152f35b90503461022f57602036600319011261022f576004356001600160a01b03811690819003610287578160ff60408561227a9460209752600a875220541661227c565bf35b9060088210156122895752565b634e487b7160e01b600052602160045260246000fd5b906020808351928381520192019060005b8181106122bd5750505090565b82516001600160a01b03168452602093840193909201916001016122b0565b906122ef9060408352604083019061229f565b9060208183039101526020808351928381520192019060005b8181106123155750505090565b825160ff16845260209384019390920191600101612308565b9060078210156122895752565b60025481101561235657600260005260206000200190600090565b634e487b7160e01b600052603260045260246000fd5b80548210156123565760005260206000200190600090565b600781101561228957600052600c602052604060002090565b156123a457565b60405162461bcd60e51b815260206004820152602660248201527f4e6f74206f776e6572206f72204d697373696f6e466163746f727920617574686044820152651bdc9a5e995960d21b6064820152608490fd5b610200810190811067ffffffffffffffff82111761241557604052565b634e487b7160e01b600052604160045260246000fd5b6040810190811067ffffffffffffffff82111761241557604052565b90601f8019910116810190811067ffffffffffffffff82111761241557604052565b60001981146124785760010190565b634e487b7160e01b600052601160045260246000fd5b67ffffffffffffffff81116124155760051b60200190565b906124b08261248e565b6124bd6040519182612447565b82815280926124ce601f199161248e565b0190602036910137565b80518210156123565760209160051b010190565b51906001600160a01b038216820361250057565b600080fd5b9080601f8301121561250057815161251c8161248e565b9261252a6040519485612447565b81845260208085019260051b82010192831161250057602001905b8282106125525750505090565b6020809161255f846124ec565b815201910190612545565b519060ff8216820361250057565b6020818303126125005780519067ffffffffffffffff821161250057016102008183031261250057604051916125ad836123f8565b815167ffffffffffffffff811161250057816125ca918401612505565b83526020820151600781101561250057602084015260408201516040840152606082015160608401526080820151608084015261260960a0830161256a565b60a084015261261a60c0830161256a565b60c084015260e082015160e0840152610100820151610100840152612642610120830161256a565b610120840152612655610140830161256a565b6101408401526101608201516101608401526101808201516101808401526101a082015167ffffffffffffffff811161250057820181601f820112156125005780516126a08161248e565b916126ae6040519384612447565b81835260208084019260061b8201019084821161250057602001915b81831061270e575050506101a08401526101c08201516101c08401526101e082015167ffffffffffffffff8111612500576127059201612505565b6101e082015290565b60408386031261250057602060409182516127288161242b565b612731866124ec565b815282860151838201528152019201916126ca565b9190820180921161247857565b9190820391821161247857565b1561276757565b60405162461bcd60e51b815260206004820152600f60248201526e496e76616c6964206164647265737360881b6044820152606490fd5b60025480156129fd57624f19ff194201914283116124785762278cff194201428111612478576000929182805b61290f575b506127da846124a6565b906127e4856124a6565b936000905b80151580612906575b156128fb5760001901906128058261233b565b60018060a01b0391549060031b1c169081600052600a60205260ff6040600020541691604051631f385f7960e21b8152600081600481855afa80156128ef5788916000916128d6575b508b60e0820181815110806128b3575b156128a85750506101000151105b61289a5761287a82876124d8565b5261288581886124d8565b916008811015612289576001925201906127e9565b505050509350919350509190565b91509150511061286c565b509250506008851015612289578b8992600687148061285e57506007871461285e565b6128e9913d8091833e611ea08183612447565b3861284e565b6040513d6000823e3d90fd5b509195509293505050565b508682106127f2565b60009493941901926129208461233b565b60018060a01b0391549060031b1c1680600052600a6020526004600060ff6040822054169260405192838092631f385f7960e21b82525afa9081156128ef57859289916000936129e2575b5060e08301908282511090816129b2575b50156129a75750506101000151105b6129a0576129998491612469565b94936127cb565b93926127d0565b91509150511061298b565b925050925060088110156122895785928160068b93149081156129d7575b503861297c565b6007915014386129d0565b6129f691933d8091833e611ea08183612447565b913861296b565b50602090604051612a0e8382612447565b60008152600036813760405192612a258185612447565b600084525060003681379190565b6001600160a01b03166000908152600d602052604081208054829182918291825b828110612b1b575050506003549160ff8316119060ff82159360081c1611918215928280612b14575b612b065781612afe575b50612af25781612aea575b50612ae05762093a80810180911161247857612aaf904290612753565b9062278d00810180911161247857612ac8904290612753565b1115612ad8576002905b60009190565b600190612ad2565b5050600090600290565b905038612a92565b50505050600090600190565b905038612a87565b505050505050600190600090565b5080612a7d565b612b25818361236c565b90549060031b1c62278d008101808211612478574210612b49575b50600101612a54565b93612b5390612469565b9387158015612ba9575b612ba1575b62093a80810180821161247857421015612b405794612b8090612469565b9486158015612b98575b15612b405795506001612b40565b50868110612b8a565b965086612b62565b50878110612b5d565b15612bb957565b60405162461bcd60e51b815260206004820152603660248201527f4d697373696f6e466163746f72793a2063616c6c6572206973206e6f742061206044820152751d985b1a59081b5a5cdcda5bdb8818dbdb9d1c9858dd60521b6064820152608490fd5b600260015414612c2e576002600155565b633ee5aeb560e01b60005260046000fd5b6000546001600160a01b03163303612c5357565b63118cdaa760e01b6000523360045260246000fd5b600080546001600160a01b039283166001600160a01b03198216811783559216907f8be0079c531659141344cd1fd0a4f28419497f9722a3daafe3b4186f6b6457e09080a356fea26469706673582212209dbcdfeb6217bdae24ed5ae9675ad9d3831f8fea8bfa5522b6e94625d41622bf64736f6c634300081e0033",
  "linkReferences": {},
  "deployedLinkReferences": {}
}