{
  "_format": "hh-sol-artifact-1",
  "contractName": "Mission",
  "sourceName": "contracts/MissionFactory.sol",
  "abi": [
    {
      "inputs": [],
      "stateMutability": "nonpayable",
      "type": "constructor"
    },
    {
      "inputs": [],
      "name": "AllRoundsDone",
      "type": "error"
    },
    {
      "inputs": [],
      "name": "AlreadyJoined",
      "type": "error"
    },
    {
      "inputs": [],
      "name": "AlreadyWon",
      "type": "error"
    },
    {
      "inputs": [],
      "name": "ContractsNotAllowed",
      "type": "error"
    },
    {
      "inputs": [
        {
          "internalType": "uint256",
          "name": "secondsLeft",
          "type": "uint256"
        }
      ],
      "name": "Cooldown",
      "type": "error"
    },
    {
      "inputs": [
        {
          "internalType": "uint256",
          "name": "nowTs",
          "type": "uint256"
        },
        {
          "internalType": "uint256",
          "name": "endTs",
          "type": "uint256"
        }
      ],
      "name": "EnrollmentClosed",
      "type": "error"
    },
    {
      "inputs": [
        {
          "internalType": "uint256",
          "name": "nowTs",
          "type": "uint256"
        },
        {
          "internalType": "uint256",
          "name": "startTs",
          "type": "uint256"
        }
      ],
      "name": "EnrollmentNotStarted",
      "type": "error"
    },
    {
      "inputs": [
        {
          "internalType": "uint8",
          "name": "maxPlayers",
          "type": "uint8"
        }
      ],
      "name": "MaxPlayers",
      "type": "error"
    },
    {
      "inputs": [],
      "name": "MissionEnded",
      "type": "error"
    },
    {
      "inputs": [
        {
          "internalType": "uint256",
          "name": "secondsLeft",
          "type": "uint256"
        }
      ],
      "name": "MonthlyLimit",
      "type": "error"
    },
    {
      "inputs": [
        {
          "internalType": "uint256",
          "name": "nowTs",
          "type": "uint256"
        },
        {
          "internalType": "uint256",
          "name": "missionStart",
          "type": "uint256"
        }
      ],
      "name": "NotActive",
      "type": "error"
    },
    {
      "inputs": [],
      "name": "NotJoined",
      "type": "error"
    },
    {
      "inputs": [
        {
          "internalType": "address",
          "name": "owner",
          "type": "address"
        }
      ],
      "name": "OwnableInvalidOwner",
      "type": "error"
    },
    {
      "inputs": [
        {
          "internalType": "address",
          "name": "account",
          "type": "address"
        }
      ],
      "name": "OwnableUnauthorizedAccount",
      "type": "error"
    },
    {
      "inputs": [
        {
          "internalType": "address",
          "name": "winner",
          "type": "address"
        },
        {
          "internalType": "uint256",
          "name": "amount",
          "type": "uint256"
        },
        {
          "internalType": "bytes",
          "name": "data",
          "type": "bytes"
        }
      ],
      "name": "PayoutFailed",
      "type": "error"
    },
    {
      "inputs": [],
      "name": "ReentrancyGuardReentrantCall",
      "type": "error"
    },
    {
      "inputs": [
        {
          "internalType": "uint256",
          "name": "secondsLeft",
          "type": "uint256"
        }
      ],
      "name": "WeeklyLimit",
      "type": "error"
    },
    {
      "inputs": [
        {
          "internalType": "uint256",
          "name": "expected",
          "type": "uint256"
        },
        {
          "internalType": "uint256",
          "name": "sent",
          "type": "uint256"
        }
      ],
      "name": "WrongEntryFee",
      "type": "error"
    },
    {
      "anonymous": false,
      "inputs": [
        {
          "indexed": false,
          "internalType": "uint256",
          "name": "ownerAmount",
          "type": "uint256"
        },
        {
          "indexed": false,
          "internalType": "uint256",
          "name": "factoryAmount",
          "type": "uint256"
        }
      ],
      "name": "FundsWithdrawn",
      "type": "event"
    },
    {
      "anonymous": false,
      "inputs": [
        {
          "indexed": true,
          "internalType": "address",
          "name": "owner",
          "type": "address"
        },
        {
          "indexed": true,
          "internalType": "enum MissionType",
          "name": "missionType",
          "type": "uint8"
        },
        {
          "indexed": false,
          "internalType": "uint256",
          "name": "timestamp",
          "type": "uint256"
        }
      ],
      "name": "MissionInitialized",
      "type": "event"
    },
    {
      "anonymous": false,
      "inputs": [
        {
          "indexed": true,
          "internalType": "uint256",
          "name": "nrOfPlayers",
          "type": "uint256"
        },
        {
          "indexed": true,
          "internalType": "uint256",
          "name": "amount",
          "type": "uint256"
        },
        {
          "indexed": true,
          "internalType": "address[]",
          "name": "player",
          "type": "address[]"
        },
        {
          "indexed": false,
          "internalType": "uint256",
          "name": "timestamp",
          "type": "uint256"
        }
      ],
      "name": "MissionRefunded",
      "type": "event"
    },
    {
      "anonymous": false,
      "inputs": [
        {
          "indexed": true,
          "internalType": "enum Status",
          "name": "previousStatus",
          "type": "uint8"
        },
        {
          "indexed": true,
          "internalType": "enum Status",
          "name": "newStatus",
          "type": "uint8"
        },
        {
          "indexed": false,
          "internalType": "uint256",
          "name": "timestamp",
          "type": "uint256"
        }
      ],
      "name": "MissionStatusChanged",
      "type": "event"
    },
    {
      "anonymous": false,
      "inputs": [
        {
          "indexed": true,
          "internalType": "address",
          "name": "previousOwner",
          "type": "address"
        },
        {
          "indexed": true,
          "internalType": "address",
          "name": "newOwner",
          "type": "address"
        }
      ],
      "name": "OwnershipTransferred",
      "type": "event"
    },
    {
      "anonymous": false,
      "inputs": [
        {
          "indexed": true,
          "internalType": "address",
          "name": "player",
          "type": "address"
        },
        {
          "indexed": false,
          "internalType": "uint256",
          "name": "amount",
          "type": "uint256"
        },
        {
          "indexed": false,
          "internalType": "uint256",
          "name": "totalPlayers",
          "type": "uint256"
        }
      ],
      "name": "PlayerEnrolled",
      "type": "event"
    },
    {
      "anonymous": false,
      "inputs": [
        {
          "indexed": true,
          "internalType": "address",
          "name": "player",
          "type": "address"
        },
        {
          "indexed": false,
          "internalType": "uint256",
          "name": "amount",
          "type": "uint256"
        }
      ],
      "name": "PlayerRefunded",
      "type": "event"
    },
    {
      "anonymous": false,
      "inputs": [
        {
          "indexed": false,
          "internalType": "uint256",
          "name": "value",
          "type": "uint256"
        },
        {
          "indexed": false,
          "internalType": "uint256",
          "name": "croCurrent",
          "type": "uint256"
        }
      ],
      "name": "PotIncreased",
      "type": "event"
    },
    {
      "anonymous": false,
      "inputs": [
        {
          "indexed": true,
          "internalType": "address",
          "name": "player",
          "type": "address"
        },
        {
          "indexed": false,
          "internalType": "uint256",
          "name": "amount",
          "type": "uint256"
        }
      ],
      "name": "RefundFailed",
      "type": "event"
    },
    {
      "anonymous": false,
      "inputs": [
        {
          "indexed": true,
          "internalType": "address",
          "name": "player",
          "type": "address"
        },
        {
          "indexed": true,
          "internalType": "uint8",
          "name": "roundNumber",
          "type": "uint8"
        },
        {
          "indexed": false,
          "internalType": "uint256",
          "name": "payout",
          "type": "uint256"
        },
        {
          "indexed": false,
          "internalType": "uint256",
          "name": "croRemaining",
          "type": "uint256"
        }
      ],
      "name": "RoundCalled",
      "type": "event"
    },
    {
      "inputs": [],
      "name": "callRound",
      "outputs": [],
      "stateMutability": "nonpayable",
      "type": "function"
    },
    {
      "inputs": [],
      "name": "checkMissionStartCondition",
      "outputs": [],
      "stateMutability": "nonpayable",
      "type": "function"
    },
    {
      "inputs": [],
      "name": "currentProgressPct",
      "outputs": [
        {
          "internalType": "uint256",
          "name": "",
          "type": "uint256"
        }
      ],
      "stateMutability": "view",
      "type": "function"
    },
    {
      "inputs": [],
      "name": "enrollPlayer",
      "outputs": [],
      "stateMutability": "payable",
      "type": "function"
    },
    {
      "inputs": [
        {
          "internalType": "address",
          "name": "",
          "type": "address"
        }
      ],
      "name": "enrolled",
      "outputs": [
        {
          "internalType": "bool",
          "name": "",
          "type": "bool"
        }
      ],
      "stateMutability": "view",
      "type": "function"
    },
    {
      "inputs": [],
      "name": "factoryShare",
      "outputs": [
        {
          "internalType": "uint256",
          "name": "",
          "type": "uint256"
        }
      ],
      "stateMutability": "view",
      "type": "function"
    },
    {
      "inputs": [
        {
          "internalType": "address",
          "name": "",
          "type": "address"
        }
      ],
      "name": "failedRefundAmounts",
      "outputs": [
        {
          "internalType": "uint256",
          "name": "",
          "type": "uint256"
        }
      ],
      "stateMutability": "view",
      "type": "function"
    },
    {
      "inputs": [],
      "name": "forceFinalizeMission",
      "outputs": [],
      "stateMutability": "nonpayable",
      "type": "function"
    },
    {
      "inputs": [],
      "name": "getFailedRefundPlayers",
      "outputs": [
        {
          "internalType": "address[]",
          "name": "",
          "type": "address[]"
        }
      ],
      "stateMutability": "view",
      "type": "function"
    },
    {
      "inputs": [],
      "name": "getMissionData",
      "outputs": [
        {
          "components": [
            {
              "internalType": "address[]",
              "name": "players",
              "type": "address[]"
            },
            {
              "internalType": "enum MissionType",
              "name": "missionType",
              "type": "uint8"
            },
            {
              "internalType": "uint256",
              "name": "enrollmentStart",
              "type": "uint256"
            },
            {
              "internalType": "uint256",
              "name": "enrollmentEnd",
              "type": "uint256"
            },
            {
              "internalType": "uint256",
              "name": "enrollmentAmount",
              "type": "uint256"
            },
            {
              "internalType": "uint8",
              "name": "enrollmentMinPlayers",
              "type": "uint8"
            },
            {
              "internalType": "uint8",
              "name": "enrollmentMaxPlayers",
              "type": "uint8"
            },
            {
              "internalType": "uint256",
              "name": "missionStart",
              "type": "uint256"
            },
            {
              "internalType": "uint256",
              "name": "missionEnd",
              "type": "uint256"
            },
            {
              "internalType": "uint8",
              "name": "missionRounds",
              "type": "uint8"
            },
            {
              "internalType": "uint8",
              "name": "roundCount",
              "type": "uint8"
            },
            {
              "internalType": "uint256",
              "name": "croStart",
              "type": "uint256"
            },
            {
              "internalType": "uint256",
              "name": "croCurrent",
              "type": "uint256"
            },
            {
              "components": [
                {
                  "internalType": "address",
                  "name": "player",
                  "type": "address"
                },
                {
                  "internalType": "uint256",
                  "name": "amountWon",
                  "type": "uint256"
                }
              ],
              "internalType": "struct Mission.PlayersWon[]",
              "name": "playersWon",
              "type": "tuple[]"
            },
            {
              "internalType": "uint256",
              "name": "pauseTimestamp",
              "type": "uint256"
            },
            {
              "internalType": "address[]",
              "name": "refundedPlayers",
              "type": "address[]"
            }
          ],
          "internalType": "struct Mission.MissionData",
          "name": "",
          "type": "tuple"
        }
      ],
      "stateMutability": "view",
      "type": "function"
    },
    {
      "inputs": [],
      "name": "getPlayerCount",
      "outputs": [
        {
          "internalType": "uint256",
          "name": "",
          "type": "uint256"
        }
      ],
      "stateMutability": "view",
      "type": "function"
    },
    {
      "inputs": [],
      "name": "getRealtimeStatus",
      "outputs": [
        {
          "internalType": "enum Status",
          "name": "",
          "type": "uint8"
        }
      ],
      "stateMutability": "view",
      "type": "function"
    },
    {
      "inputs": [],
      "name": "getWinners",
      "outputs": [
        {
          "components": [
            {
              "internalType": "address",
              "name": "player",
              "type": "address"
            },
            {
              "internalType": "uint256",
              "name": "amountWon",
              "type": "uint256"
            }
          ],
          "internalType": "struct Mission.PlayersWon[]",
          "name": "",
          "type": "tuple[]"
        }
      ],
      "stateMutability": "view",
      "type": "function"
    },
    {
      "inputs": [
        {
          "internalType": "address",
          "name": "",
          "type": "address"
        }
      ],
      "name": "hasWon",
      "outputs": [
        {
          "internalType": "bool",
          "name": "",
          "type": "bool"
        }
      ],
      "stateMutability": "view",
      "type": "function"
    },
    {
      "inputs": [],
      "name": "increasePot",
      "outputs": [],
      "stateMutability": "payable",
      "type": "function"
    },
    {
      "inputs": [
        {
          "internalType": "address",
          "name": "_owner",
          "type": "address"
        },
        {
          "internalType": "address",
          "name": "_missionFactory",
          "type": "address"
        },
        {
          "internalType": "enum MissionType",
          "name": "_missionType",
          "type": "uint8"
        },
        {
          "internalType": "uint256",
          "name": "_enrollmentStart",
          "type": "uint256"
        },
        {
          "internalType": "uint256",
          "name": "_enrollmentEnd",
          "type": "uint256"
        },
        {
          "internalType": "uint256",
          "name": "_enrollmentAmount",
          "type": "uint256"
        },
        {
          "internalType": "uint8",
          "name": "_enrollmentMinPlayers",
          "type": "uint8"
        },
        {
          "internalType": "uint8",
          "name": "_enrollmentMaxPlayers",
          "type": "uint8"
        },
        {
          "internalType": "uint256",
          "name": "_missionStart",
          "type": "uint256"
        },
        {
          "internalType": "uint256",
          "name": "_missionEnd",
          "type": "uint256"
        },
        {
          "internalType": "uint8",
          "name": "_missionRounds",
          "type": "uint8"
        }
      ],
      "name": "initialize",
      "outputs": [],
      "stateMutability": "payable",
      "type": "function"
    },
    {
      "inputs": [],
      "name": "isArming",
      "outputs": [
        {
          "internalType": "bool",
          "name": "",
          "type": "bool"
        }
      ],
      "stateMutability": "view",
      "type": "function"
    },
    {
      "inputs": [],
      "name": "isFinalized",
      "outputs": [
        {
          "internalType": "bool",
          "name": "",
          "type": "bool"
        }
      ],
      "stateMutability": "view",
      "type": "function"
    },
    {
      "inputs": [
        {
          "internalType": "address",
          "name": "addr",
          "type": "address"
        }
      ],
      "name": "isPlayer",
      "outputs": [
        {
          "internalType": "bool",
          "name": "",
          "type": "bool"
        }
      ],
      "stateMutability": "view",
      "type": "function"
    },
    {
      "inputs": [],
      "name": "missionFactory",
      "outputs": [
        {
          "internalType": "contract MissionFactory",
          "name": "",
          "type": "address"
        }
      ],
      "stateMutability": "view",
      "type": "function"
    },
    {
      "inputs": [],
      "name": "missionStartConditionChecked",
      "outputs": [
        {
          "internalType": "bool",
          "name": "",
          "type": "bool"
        }
      ],
      "stateMutability": "view",
      "type": "function"
    },
    {
      "inputs": [],
      "name": "owner",
      "outputs": [
        {
          "internalType": "address",
          "name": "",
          "type": "address"
        }
      ],
      "stateMutability": "view",
      "type": "function"
    },
    {
      "inputs": [],
      "name": "ownerShare",
      "outputs": [
        {
          "internalType": "uint256",
          "name": "",
          "type": "uint256"
        }
      ],
      "stateMutability": "view",
      "type": "function"
    },
    {
      "inputs": [
        {
          "internalType": "address",
          "name": "player",
          "type": "address"
        }
      ],
      "name": "pendingPayout",
      "outputs": [
        {
          "internalType": "uint256",
          "name": "",
          "type": "uint256"
        }
      ],
      "stateMutability": "view",
      "type": "function"
    },
    {
      "inputs": [
        {
          "internalType": "address",
          "name": "player",
          "type": "address"
        }
      ],
      "name": "playerState",
      "outputs": [
        {
          "internalType": "bool",
          "name": "joined",
          "type": "bool"
        },
        {
          "internalType": "bool",
          "name": "won",
          "type": "bool"
        }
      ],
      "stateMutability": "view",
      "type": "function"
    },
    {
      "inputs": [],
      "name": "refundPlayers",
      "outputs": [],
      "stateMutability": "nonpayable",
      "type": "function"
    },
    {
      "inputs": [
        {
          "internalType": "address",
          "name": "",
          "type": "address"
        }
      ],
      "name": "refunded",
      "outputs": [
        {
          "internalType": "bool",
          "name": "",
          "type": "bool"
        }
      ],
      "stateMutability": "view",
      "type": "function"
    },
    {
      "inputs": [],
      "name": "remainingRounds",
      "outputs": [
        {
          "internalType": "uint8",
          "name": "",
          "type": "uint8"
        }
      ],
      "stateMutability": "view",
      "type": "function"
    },
    {
      "inputs": [],
      "name": "renounceOwnership",
      "outputs": [],
      "stateMutability": "nonpayable",
      "type": "function"
    },
    {
      "inputs": [],
      "name": "secondsUntilNextRound",
      "outputs": [
        {
          "internalType": "uint256",
          "name": "",
          "type": "uint256"
        }
      ],
      "stateMutability": "view",
      "type": "function"
    },
    {
      "inputs": [
        {
          "internalType": "address",
          "name": "newOwner",
          "type": "address"
        }
      ],
      "name": "transferOwnership",
      "outputs": [],
      "stateMutability": "nonpayable",
      "type": "function"
    },
    {
      "inputs": [
        {
          "internalType": "address",
          "name": "addr",
          "type": "address"
        }
      ],
      "name": "wasRefunded",
      "outputs": [
        {
          "internalType": "bool",
          "name": "",
          "type": "bool"
        }
      ],
      "stateMutability": "view",
      "type": "function"
    },
    {
      "inputs": [],
      "name": "withdrawFunds",
      "outputs": [],
      "stateMutability": "nonpayable",
      "type": "function"
    }
  ],
  "bytecode": "0x608080604052346083573315606d5760008054336001600160a01b0319821681178355916001600160a01b03909116907f8be0079c531659141344cd1fd0a4f28419497f9722a3daafe3b4186f6b6457e09080a36001805560ff1960095416600955612fd490816100898239f35b631e4fbdf760e01b600052600060045260246000fd5b600080fdfe608080604052600436101561001357600080fd5b600090813560e01c9081623e16a514611cbc5750806309c95e1014611c7257806310eb0e0e14611c335780631212484814611b0257806324600fc314611a48578063268b2b5114611a1a578063293c2213146119f75780635407441f146119dc57806368c6ba21146119b4578063715018a61461195a5780637475a4cb1461157c5780637ce17de41461128b5780637cf61b69146110fc5780638d4e4083146110b15780638da5cb5b1461108a5780638f1c31511461106c578063987c543a14610be857806398bdae4314610b2e578063a52b2b8814610aef578063a7e22a3e14610ac9578063ad1ca6bf14610a08578063b2a4a5d2146109cf578063c033a49014610990578063c2e5220614610972578063c54168b3146105cc578063dd1121f614610598578063df15c37e146104b1578063e6810a501461048d578063eb2bab771461027d578063f2fde38b1461022c578063fa4cf5a114610203578063fb84e12f146101e05763fcca0c841461018b57600080fd5b346101dd5760203660031901126101dd5760409060ff826001600160a01b036101b2611cd8565b1692838152600360205282828220541693815260046020522054168251911515825215156020820152f35b80fd5b50346101dd57806003193601126101dd5760206101fb61247b565b604051908152f35b50346101dd57806003193601126101dd576002546040516001600160a01b039091168152602090f35b50346101dd5760203660031901126101dd57610246611cd8565b61024e612a51565b6001600160a01b038116156102695761026690612a7a565b80f35b631e4fbdf760e01b82526004829052602482fd5b50806003193601126101dd5734156104585760018060a01b03600254168033149081156103d9575b5080156103c6575b15610375576102ba6124e4565b6008811015610361576003111561031c576102d73460135461205a565b6013557f7272b264c9ef2a1e8e9303944736f4977b14a5761227b7b9869fecaa60f8938760406103093460145461205a565b806014558151903482526020820152a180f35b60405162461bcd60e51b815260206004820152601960248201527f4d697373696f6e207061737365642061637469766174696f6e000000000000006044820152606490fd5b634e487b7160e01b82526021600452602482fd5b60405162461bcd60e51b815260206004820152602360248201527f4f6e6c7920666163746f7279206f7220617574686f72697a65642063616e20666044820152621d5b9960ea1b6064820152608490fd5b5080546001600160a01b031633146102ad565b60405163b918161160e01b81523360048201529150602090829060249082905afa90811561044d57829161040f575b50386102a5565b90506020813d602011610445575b8161042a60209383611e21565b810103126104415761043b90611e43565b38610408565b5080fd5b3d915061041d565b6040513d84823e3d90fd5b60405162461bcd60e51b815260206004820152600d60248201526c139bc8199d5b991cc81cd95b9d609a1b6044820152606490fd5b50346101dd5760203660031901126101dd5760206101fb6104ac611cd8565b61236d565b50346101dd57806003193601126101dd576104ca6124e4565b600881101561036157600614908115610566575b5015610507576105036104ef61217f565b604051918291602083526020830190611d4b565b0390f35b60405162461bcd60e51b815260206004820152603160248201527f4d697373696f6e206973206e6f7420696e2053756363657373206f7220506172604482015270746c79537563636573732073746174757360781b6064820152608490fd5b90506105706124e4565b9060088210156105845750600514386104de565b634e487b7160e01b81526021600452602490fd5b50346101dd57806003193601126101dd57600d544211806105c1575b6020906040519015158152f35b5060105442106105b4565b506101603660031901126101dd576105e2611cd8565b6024356001600160a01b038116919082900361096e5760443591600783101561096a5760c43560ff81168091036109665760e4359060ff8216820361096257610144359260ff841680940361095e576106396124c2565b60185460ff81166109235760ff191660011760185561065785612a7a565b6bffffffffffffffffffffffff60a01b600254161760025560ff19600b541660ff861617600b55606435600c55608435600d5560a435600e5561ff00600f549260081b169161ffff19161717600f55610104356010556101243560115561ffff19601254161760125534601355346014558260165560206040516106db8282611e21565b848152600036813780519067ffffffffffffffff821161087357600160401b8211610873578290600a5483600a558084106108c2575b5001600a8652855b828110610887575050506040516107308282611e21565b8481528490600160401b8211610873578290601554836015558084106107ef575b500160158652600080516020612f5f83398151915286915b8383106107b25750506040514281526001600160a01b03909416937fe9597995b7a2af444cc28b2b776b88b1253d701282a9bcf902d4f59750df7c579392509050a36001805580f35b8051805183546001600160a01b0319166001600160a01b039190911617835560200151600183810191909155906002908601920192019190610769565b9091506001600160ff1b038116810361085f576001600160ff1b038316830361085f5790839160011b600080516020612f5f833981519152018360011b600080516020612f5f833981519152015b81811061084a5750610751565b8881556001810189905585935060020161083d565b634e487b7160e01b87526011600452602487fd5b634e487b7160e01b86526041600452602486fd5b81516001600160a01b03167fc65a7bb8d6351c1cf70c95a316cc6a92839c986682d98bc35f958f4883f9d2a882015590830190600101610719565b7fc65a7bb8d6351c1cf70c95a316cc6a92839c986682d98bc35f958f4883f9d2a801837fc65a7bb8d6351c1cf70c95a316cc6a92839c986682d98bc35f958f4883f9d2a8015b8181106109155750610711565b888155859350600101610908565b60405162461bcd60e51b8152602060048201526013602482015272105b1c9958591e481a5b9a5d1a585b1a5e9959606a1b6044820152606490fd5b8680fd5b8580fd5b8480fd5b8380fd5b8280fd5b50346101dd57806003193601126101dd576020600a54604051908152f35b50346101dd5760203660031901126101dd5760209060ff906040906001600160a01b036109bb611cd8565b168152600584522054166040519015158152f35b50346101dd5760203660031901126101dd576020906040906001600160a01b036109f7611cd8565b168152600683522054604051908152f35b50346101dd57806003193601126101dd57610a216124c2565b80546001600160a01b031633148015610a4d575b610a3e90611e50565b610a46612253565b6001805580f35b5060025460405163b918161160e01b815233600482015290602090829060249082906001600160a01b03165afa801561044d578290610a8e575b9050610a35565b506020813d602011610ac1575b81610aa860209383611e21565b8101031261044157610abc610a3e91611e43565b610a87565b3d9150610a9b565b50346101dd57806003193601126101dd576020610ae4612208565b60ff60405191168152f35b50346101dd5760203660031901126101dd5760209060ff906040906001600160a01b03610b1a611cd8565b168152600484522054166040519015158152f35b50346101dd57806003193601126101dd57610b476124c2565b80546001600160a01b031633148015610b6c575b610b6490611e50565b610a46612ac1565b5060025460405163b918161160e01b815233600482015290602090829060249082906001600160a01b03165afa801561044d578290610bad575b9050610b5b565b506020813d602011610be0575b81610bc760209383611e21565b8101031261044157610bdb610b6491611e43565b610ba6565b3d9150610bba565b50806003193601126101dd57610bfc6124c2565b333b61105e57600c548042106110485750600d548042116110325750600a5460ff600f5460081c16809110156110205750600e5480340361100a5750338152600360205260ff604082205416610ffc5760025460408051634c0252c360e11b81523360048201526001600160a01b0390921692919081602481865afa90811561044d5782908392610fb2575b5015610eaa5750600a54600160401b811015610e9657806001610cb09201600a55600a611f19565b81549060031b9033821b9160018060a01b03901b1916179055338152600360205260408120600160ff19825416179055610cec3460135461205a565b601355610cfb3460145461205a565b60145580600181610e89575b8015610e7c575b8015610e6f575b610e0c575b6105845760185460ff8160081c16906008821015610df657610100906001600093600080516020612f7f8339815191526020604051428152a361ff0019161760185560025481906001600160a01b0316803b15610df35781809160246040518095819363c17f9e5960e01b83523360048401525af18015610de657610dd6575b600a546040519034825260208201527fbedd10d90b8962eb521114c7e2b49019403d371ffa1e46afbda7a3f1fde8f06f60403392a26001805580f35b610ddf91611e21565b8181610d9a565b50604051903d90823e3d90fd5b50fd5b634e487b7160e01b600052602160045260246000fd5b506002546001600160a01b0316803b156104415760405163d8d6e8ff60e01b815260016004820152829182908290602490829084905af190811561044d578291610e58575b5050610d1a565b81610e6291611e21565b610e6d578083610e51565bfd5b5061058457806000610d15565b5061058457806000610d0e565b5061058457806000610d07565b634e487b7160e01b82526041600452602482fd5b6024926003821015610f9f57602091600103610f32576040516377f855c960e11b815233600482015293849182905afa8015610de6578190610efa575b631b62787960e31b825260045260249150fd5b506020823d602011610f2a575b81610f1460209383611e21565b81010312610f255760249151610ee7565b600080fd5b3d9150610f07565b604051631b8093b160e11b815233600482015293849182905afa8015610de6578190610f6c575b63147ce66f60e31b825260045260249150fd5b506020823d602011610f97575b81610f8660209383611e21565b81010312610f255760249151610f59565b3d9150610f79565b5050634e487b7160e01b81526021600452fd5b9150506040813d604011610ff4575b81610fce60409383611e21565b81010312610441576020610fe182611e43565b91015190600382101561096e5738610c88565b3d9150610fc1565b621d934160e11b8152600490fd5b6354d7a6b360e01b825260045234602452604490fd5b63647bcfa160e01b8252600452602490fd5b63166450c960e31b825242600452602452604490fd5b634cd01efb60e11b825242600452602452604490fd5b628b531560e01b8152600490fd5b50346101dd57806003193601126101dd576020600754604051908152f35b50346101dd57806003193601126101dd57546040516001600160a01b039091168152602090f35b50346101dd57806003193601126101dd576110ca6124e4565b90600882101561058457816006602093149182156110ef575b50506040519015158152f35b60079250501438806110e3565b50346101dd57806003193601126101dd576111156124e4565b600881101561036157600761112a9114611e9c565b600a5481805b828110611243575061115a61114482612167565b916111526040519384611e21565b808352612167565b602082019290601f190136843783845b8281106111bf5750505090604051928392602084019060208552518091526040840192915b81811061119d575050500390f35b82516001600160a01b031684528594506020938401939092019160010161118f565b6111c881611ee8565b905460039190911b1c6001600160a01b03168652600660205260408620546111f3575b60010161116a565b6111fc81611ee8565b905460039190911b1c6001600160a01b0316611217836121f9565b92855181101561122f5760051b8501602001526111eb565b634e487b7160e01b88526032600452602488fd5b61124c81611ee8565b905460039190911b1c6001600160a01b0316845260066020526040842054611277575b600101611130565b906112836001916121f9565b91905061126f565b50346101dd57806003193601126101dd5760606101e06040516112ad81611e04565b82815283602082015283604082015283838201528360808201528360a08201528360c08201528360e08201528361010082015283610120820152836101408201528361016082015283610180820152826101a0820152836101c0820152015260405161131881611e04565b604051600a548082528160208101600a86526020862092865b81811061155a57505061134692500382611e21565b815260ff600b54166007811015611546576020820152600c546040820152600d546060820152600e54608082015260ff600f5481811660a084015260081c1660c082015260105460e082015260115461010082015260ff60125481811661012084015260081c166101408201526013546101608201526014546101808201526113cd61217f565b6101a08201526016546101c082015260405160178054808352908452909260208401917fc624b66cc0138b8fabc209247f72d758e1cf3343756d543badbf24212bed8c15915b81811061152757610503858761142b81880382611e21565b6101e0820152604051918291602083526101e061150861145983516102006020880152610220870190611d01565b61146b60208501516040880190611d3e565b6040840151606087015260608401516080870152608084015160a087015260ff60a08501511660c087015260ff60c08501511660e087015260e084015161010087015261010084015161012087015260ff6101208501511661014087015260ff610140850151166101608701526101608401516101808701526101808401516101a08701526101a0840151601f19878303016101c0880152611d4b565b6101c083015185830152910151838203601f1901610200850152611d01565b82546001600160a01b0316845260209093019260019283019201611413565b634e487b7160e01b83526021600452602483fd5b84546001600160a01b0316835260019485019486945060209093019201611331565b50346101dd57806003193601126101dd576115956124c2565b61159d6124e4565b600881101561036157600481146118fe57600381106118e5576003106118d657338152600460205260ff6040822054166118c757338152600360205260ff604082205416156118b85760125460ff8160081c169060ff81168210156118a9576010546116098142612067565b9060648202918083046064149015171561188d579061162d61163392601154612067565b906120e8565b60155480156118a157600019810190811161188d57611653600191612108565b500154905b60648202918083046064149015171561188d5760649161168861168d9261168260135480946120e8565b90612067565b6120d5565b049161169b83601454612067565b60145560ff811461187957600161ff00910160081b169061ff00191617601255338252600460205260408220600160ff198254161790556040516116de81611dd2565b338152816020820152601554600160401b811015611865578060016117069201601555612108565b61185157815181546001600160a01b0319166001600160a01b03919091161781556020909101516001909101558180808084335af1611743612127565b90156117ea575060ff601254818160081c16809360145460405191825260208201527fbbdd894f5e6d754c18172761a1a461095c26de58905e706a8c33657573d4067260403392a316036117a1576117996125e7565b610a46612778565b5060004260165560185460ff8160081c169060088210156115465782600461040093600080516020612f7f8339815191526020604051428152a35061ff00191617601855610a46565b9060405192839163d086db4360e01b8352336004840152602483015260606044830152825192836064840152815b84811061183957505091608492838284010152601f80199101168101030190fd5b60208282018101516084888401015286945001611818565b634e487b7160e01b84526004849052602484fd5b634e487b7160e01b84526041600452602484fd5b634e487b7160e01b84526011600452602484fd5b634e487b7160e01b85526011600452602485fd5b508390611658565b6321b94f7b60e21b8352600483fd5b63c394a43360e01b8152600490fd5b6302ab8f8960e11b8152600490fd5b630d6a05df60e41b8152600490fd5b6010546316f5e3b760e21b835242600452602452604482fd5b60248260125460ff80611915818460081c16612032565b921691161460001461194f5761193d603c5b61193861ffff42921660165461205a565b612067565b600162269d7960e21b03198252600452fd5b61193d61012c611927565b50346101dd57806003193601126101dd57611973612a51565b80546001600160a01b03198116825581906001600160a01b03167f8be0079c531659141344cd1fd0a4f28419497f9722a3daafe3b4186f6b6457e08280a380f35b50346101dd57806003193601126101dd576105036119d06124e4565b60405191829182611cee565b50346101dd57806003193601126101dd5760206101fb612074565b50346101dd57806003193601126101dd57602060ff600954166040519015158152f35b50346101dd5760203660031901126101dd576020611a3e611a39611cd8565b611f31565b6040519015158152f35b50346101dd57806003193601126101dd57611a616124c2565b80546001600160a01b031633148015611a86575b611a7e90611e50565b610a466129ef565b5060025460405163b918161160e01b815233600482015290602090829060249082906001600160a01b03165afa801561044d578290611ac7575b9050611a75565b506020813d602011611afa575b81611ae160209383611e21565b8101031261044157611af5611a7e91611e43565b611ac0565b3d9150611ad4565b50346101dd57806003193601126101dd5780546001600160a01b031633148015611bb7575b611b3090611e50565b611b386124c2565b611b406124e4565b6008811015610361576005148015611b9d575b15611b60576117996125e7565b60405162461bcd60e51b8152602060048201526015602482015274135a5cdcda5bdb881b9bdd08195b991959081e595d605a1b6044820152606490fd5b50611ba66124e4565b600881101561036157600614611b53565b5060025460405163b918161160e01b815233600482015290602090829060249082906001600160a01b03165afa801561044d578290611bf8575b9050611b27565b506020813d602011611c2b575b81611c1260209383611e21565b8101031261044157611c26611b3091611e43565b611bf1565b3d9150611c05565b50346101dd5760203660031901126101dd5760209060ff906040906001600160a01b03611c5e611cd8565b168152600384522054166040519015158152f35b50346101dd5760203660031901126101dd5760209060ff906040906001600160a01b03611c9d611cd8565b16611ca9811515611d94565b8152600384522054166040519015158152f35b9050346104415781600319360112610441576020906008548152f35b600435906001600160a01b0382168203610f2557565b919060208301926008821015610df65752565b906020808351928381520192019060005b818110611d1f5750505090565b82516001600160a01b0316845260209384019390920191600101611d12565b906007821015610df65752565b906020808351928381520192019060005b818110611d695750505090565b825180516001600160a01b031685526020908101518186015260409094019390920191600101611d5c565b15611d9b57565b60405162461bcd60e51b815260206004820152600f60248201526e496e76616c6964206164647265737360881b6044820152606490fd5b6040810190811067ffffffffffffffff821117611dee57604052565b634e487b7160e01b600052604160045260246000fd5b610200810190811067ffffffffffffffff821117611dee57604052565b90601f8019910116810190811067ffffffffffffffff821117611dee57604052565b51908115158203610f2557565b15611e5757565b60405162461bcd60e51b815260206004820152601760248201527f4e6f74206f776e6572206f7220617574686f72697a65640000000000000000006044820152606490fd5b15611ea357565b60405162461bcd60e51b815260206004820152601f60248201527f4d697373696f6e206973206e6f7420696e204661696c656420737461747573006044820152606490fd5b600a54811015611f0357600a60005260206000200190600090565b634e487b7160e01b600052603260045260246000fd5b8054821015611f035760005260206000200190600090565b611f396124e4565b6008811015610df6576007611f4e9114611e9c565b6001600160a01b0316611f62811515611d94565b80600052600360205260ff6040600020541615611ff757601754908160005b838110611f915750505050600090565b600082821015611fe357601790527fc624b66cc0138b8fabc209247f72d758e1cf3343756d543badbf24212bed8c158101546001600160a01b03168314611fda57600101611f81565b50505050600190565b634e487b7160e01b81526032600452602490fd5b60405162461bcd60e51b8152602060048201526013602482015272141b185e595c881b9bdd08195b9c9bdb1b1959606a1b6044820152606490fd5b60ff60019116019060ff821161204457565b634e487b7160e01b600052601160045260246000fd5b9190820180921161204457565b9190820391821161204457565b61207c6124e4565b6008811015610df6576004036120d05760125460ff806120a0818460081c16612032565b92169116146000146120c5576120c2603c61193861ffff42921660165461205a565b90565b6120c261012c611927565b600090565b8181029291811591840414171561204457565b81156120f2570490565b634e487b7160e01b600052601260045260246000fd5b601554811015611f0357601560005260206000209060011b0190600090565b3d15612162573d9067ffffffffffffffff8211611dee5760405191612156601f8201601f191660200184611e21565b82523d6000602084013e565b606090565b67ffffffffffffffff8111611dee5760051b60200190565b6015549061218c82612167565b9161219a6040519384611e21565b80835260156000908152600080516020612f5f833981519152602085015b8383106121c55750505050565b600260206001926040516121d881611dd2565b848060a01b03865416815284860154838201528152019201920191906121b8565b60001981146120445760010190565b6122106124e4565b6008811015610df65760038114908115612248575b5061222f57600090565b60125460ff808260081c1691160360ff81116120445790565b600491501438612225565b600d54421180612362575b156122f75760095460ff81166122b25760ff1916600117600955600a54156122a257600a5460ff600f54161161229057565b612298612694565b6122a0612ac1565b565b6122aa612694565b6122a06129ef565b60405162461bcd60e51b815260206004820152601f60248201527f416c726561647920636865636b656420737461727420636f6e646974696f6e006044820152606490fd5b60405162461bcd60e51b815260206004820152603860248201527f4d697373696f6e206e6f7420696e2061726d696e672077696e646f772e20436160448201527f6c6c20726566756e64506c617965727320696e737465616400000000000000006064820152608490fd5b50601054421061225e565b6123756124e4565b6008811015610df6576003811415908161246f575b50612469576001600160a01b031660008181526003602052604090205460ff161561246957600052600460205260ff604060002054166120d0576010548042106124695760115480421015612462576123e38242612067565b90606482029180830460641490151715612044576124049261162d91612067565b6015546000811561245a5750600019810190811161204457612427600191612108565b500154905b606482029180830460641490151715612044576064916116886124569261168260135480946120e8565b0490565b90509061242c565b5050600090565b50600090565b6004915014153861238a565b60105480421061246957601154804210156124bb5761249a8242612067565b90606482029180830460641490151715612044576120c29261162d91612067565b5050606490565b6002600154146124d3576002600155565b633ee5aeb560e01b60005260046000fd5b60ff60185460081c166008811015610df6576006811480156125dd575b6120c25750600c5442106120d057600d544211156125d857600a5460ff600f5416116125d35760105442106125ce576011544210156125a45760125460ff808260081c1691168082101561259d57601654908161256057505050600390565b60ff61256e61258194612032565b16036125925761ffff603c5b169061205a565b42101561258d57600490565b600390565b61ffff61012c61257a565b5050600690565b60125460ff8160081c169081156125c75760ff16116125c257600690565b600590565b5050600790565b600290565b600790565b600190565b5060078114612501565b6002546000906001600160a01b0316803b15610f255760405163d8d6e8ff60e01b815260066004820152906000908290602490829084905af1801561268857612673575b5080610584575060185460ff8160081c16906008821015610df657610600916006600091600080516020612f7f8339815191526020604051428152a35061ff00191617601855565b6126809150600090611e21565b60003861262b565b6040513d6000823e3d90fd5b6002546000906001600160a01b0316803b15610f255760405163d8d6e8ff60e01b815260076004820152906000908290602490829084905af1801561268857612720575b5080610584575060185460ff8160081c16906008821015610df657610700916007600091600080516020612f7f8339815191526020604051428152a35061ff00191617601855565b61272d9150600090611e21565b6000386126d8565b1561273c57565b60405162461bcd60e51b81526020600482015260146024820152734e6f2066756e647320746f20776974686472617760601b6044820152606490fd5b6000906127836124e4565b60088110156115465760061480156129d5575b156104415747916127a8831515612735565b600a54156129c8575b5060008081600a545b80821061298f575050836127d5929394821161298757612067565b80156127e18115612735565b6019820290828204601914171561297357606461280091048092612067565b600254604051638da5cb5b60e01b815291939190602090829060049082906001600160a01b03165afa90811561044d5782918491839161292b575b50829182918291906001600160a01b03165af1612856612127565b50156128ee5760018060a01b036002541660ff600b5416813b1561096e576128986024849287604051958694859363a9bea78960e01b85526004850190611d3e565b5af1801561044d576128de575b50507fd66662c0ded9e58fd31d5e44944bcfd07ffc15e6927ecc1382e7941cb7bd24c460408051838152846020820152a1600755600855565b816128e891611e21565b386128a5565b60405162461bcd60e51b815260206004820152601560248201527413dddb995c881d1c985b9cd9995c8819985a5b1959605a1b6044820152606490fd5b925050506020813d60201161296b575b8161294860209383611e21565b8101031261044157516001600160a01b038116810361044157819083908261283b565b3d915061293b565b634e487b7160e01b83526011600452602483fd5b905080612067565b90916129c06001916129a085611ee8565b848060a01b0391549060031b1c168652600660205260408620549061205a565b9201906127ba565b6129d0612694565b6127b1565b506129de6124e4565b600881101561154657600714612796565b6129f76124e4565b6000906008811015610361576006148015612a37575b156101dd574780156127e18115612a2381612735565b600a5461273557612a32612694565b612735565b50612a406124e4565b600881101561036157600714612a0d565b6000546001600160a01b03163303612a6557565b63118cdaa760e01b6000523360045260246000fd5b600080546001600160a01b039283166001600160a01b03198216811783559216907f8be0079c531659141344cd1fd0a4f28419497f9722a3daafe3b4186f6b6457e09080a3565b612ac96124e4565b90600091600881101561154657600703612f1957600a5415612edd57600190825b600a54811015612c2257612afd81611ee8565b905460039190911b1c6001600160a01b03168085526005602052604085205460ff1615612b2e575b50600101612aea565b84808080600e54855af1612b40612127565b5015612bcd57808552600560205260408520805460ff19166001179055601754600160401b8110156108735790612b81826001809594016017556017611f19565b81549060031b9083821b91868060a01b03901b19161790557f48d31f1c958cd44f1f83a52ae2dfaf61e88a1b82c07a6d5711a4abef60b6531e6020600e54604051908152a25b90612b25565b909250600e548185526006602052612bea6040862091825461205a565b90557faf73b0b217208b61be286bbc37095bce7eb8b9ccf617244c2f0f154e8e04e3ff6020600e54604051908152a260018392612bc7565b509190612c2d612694565b47612cc6575b5060175490600e54906040518091829190601781527fc624b66cc0138b8fabc209247f72d758e1cf3343756d543badbf24212bed8c15905b868110612ca4575050039020917fbb93c7c839bddd97272c8e974d54d30adfa3aa55df63a52f02b7192efd361a246020604051428152a4565b81546001600160a01b0316835284935060209092019160019182019101612c6b565b612cce6124e4565b6008811015611546576006148015612ec3575b15610441574790612cf3821515612735565b600a5415612eb6575b15612e75575b8015612d0e8115612735565b60198202908282046019141715612973576064612d2d91048092612067565b600254604051638da5cb5b60e01b815291929190602090829060049082906001600160a01b03165afa908115612e2257849183918391612e2d575b50829182918291906001600160a01b03165af1612d83612127565b50156128ee5760018060a01b036002541660ff600b5416813b1561096657612dc56024869286604051958694859363a9bea78960e01b85526004850190611d3e565b5af18015612e2257612e0e575b507fd66662c0ded9e58fd31d5e44944bcfd07ffc15e6927ecc1382e7941cb7bd24c460408051838152846020820152a160075560085538612c33565b83612e1b91949294611e21565b9138612dd2565b6040513d86823e3d90fd5b925050506020813d602011612e6d575b81612e4a60209383611e21565b8101031261096a57516001600160a01b038116810361096a578390829082612d68565b3d9150612e3d565b91908081600a545b808210612e9d57505083612e98929394821161298757612067565b612d02565b9091612eae6001916129a085611ee8565b920190612e7d565b612ebe612694565b612cfc565b50612ecc6124e4565b600881101561154657600714612ce1565b60405162461bcd60e51b8152602060048201526014602482015273139bc81c1b185e595c9cc81d1bc81c99599d5b9960621b6044820152606490fd5b60405162461bcd60e51b815260206004820152601c60248201527f4d697373696f6e206e6f7420696e204661696c656420737461747573000000006044820152606490fdfe55f448fdea98c4d29eb340757ef0a66cd03dbb9538908a6a81d96026b71ec47539ba628632d48c45c7f562c07db20a44cf68423691d5d79b20f87ba84138aedfa264697066735822122065a85a9e00c1148591d174424305686594a52726d453b1c46e60400bb10d1baf64736f6c634300081e0033",
  "linkReferences": {},
  "deployedLinkReferences": {}
}