{
  "_format": "hh-sol-artifact-1",
  "contractName": "MissionFactory",
  "sourceName": "contracts/MissionFactory.sol",
  "abi": [
    {
      "inputs": [
        {
          "internalType": "address",
          "name": "_impl",
          "type": "address"
        }
      ],
      "stateMutability": "nonpayable",
      "type": "constructor"
    },
    {
      "inputs": [],
      "name": "FailedDeployment",
      "type": "error"
    },
    {
      "inputs": [
        {
          "internalType": "uint256",
          "name": "balance",
          "type": "uint256"
        },
        {
          "internalType": "uint256",
          "name": "needed",
          "type": "uint256"
        }
      ],
      "name": "InsufficientBalance",
      "type": "error"
    },
    {
      "inputs": [
        {
          "internalType": "address",
          "name": "owner",
          "type": "address"
        }
      ],
      "name": "OwnableInvalidOwner",
      "type": "error"
    },
    {
      "inputs": [
        {
          "internalType": "address",
          "name": "account",
          "type": "address"
        }
      ],
      "name": "OwnableUnauthorizedAccount",
      "type": "error"
    },
    {
      "inputs": [],
      "name": "ReentrancyGuardReentrantCall",
      "type": "error"
    },
    {
      "anonymous": false,
      "inputs": [
        {
          "indexed": true,
          "internalType": "address",
          "name": "addr",
          "type": "address"
        }
      ],
      "name": "AuthorizedAddressAdded",
      "type": "event"
    },
    {
      "anonymous": false,
      "inputs": [
        {
          "indexed": true,
          "internalType": "address",
          "name": "addr",
          "type": "address"
        }
      ],
      "name": "AuthorizedAddressRemoved",
      "type": "event"
    },
    {
      "anonymous": false,
      "inputs": [
        {
          "indexed": false,
          "internalType": "uint8",
          "name": "newWeekly",
          "type": "uint8"
        },
        {
          "indexed": false,
          "internalType": "uint8",
          "name": "newMonthly",
          "type": "uint8"
        }
      ],
      "name": "EnrollmentLimitUpdated",
      "type": "event"
    },
    {
      "anonymous": false,
      "inputs": [
        {
          "indexed": true,
          "internalType": "address",
          "name": "user",
          "type": "address"
        },
        {
          "indexed": false,
          "internalType": "uint256",
          "name": "timestamp",
          "type": "uint256"
        }
      ],
      "name": "EnrollmentRecorded",
      "type": "event"
    },
    {
      "anonymous": false,
      "inputs": [
        {
          "indexed": true,
          "internalType": "address",
          "name": "sender",
          "type": "address"
        },
        {
          "indexed": false,
          "internalType": "uint256",
          "name": "amount",
          "type": "uint256"
        }
      ],
      "name": "FundsReceived",
      "type": "event"
    },
    {
      "anonymous": false,
      "inputs": [
        {
          "indexed": true,
          "internalType": "address",
          "name": "to",
          "type": "address"
        },
        {
          "indexed": false,
          "internalType": "uint256",
          "name": "amount",
          "type": "uint256"
        }
      ],
      "name": "FundsWithdrawn",
      "type": "event"
    },
    {
      "anonymous": false,
      "inputs": [
        {
          "indexed": true,
          "internalType": "address",
          "name": "missionAddress",
          "type": "address"
        },
        {
          "indexed": true,
          "internalType": "enum MissionType",
          "name": "missionType",
          "type": "uint8"
        }
      ],
      "name": "MissionCreated",
      "type": "event"
    },
    {
      "anonymous": false,
      "inputs": [
        {
          "indexed": false,
          "internalType": "uint256",
          "name": "amount",
          "type": "uint256"
        },
        {
          "indexed": true,
          "internalType": "enum MissionType",
          "name": "missionType",
          "type": "uint8"
        },
        {
          "indexed": true,
          "internalType": "address",
          "name": "sender",
          "type": "address"
        }
      ],
      "name": "MissionFundsRegistered",
      "type": "event"
    },
    {
      "anonymous": false,
      "inputs": [
        {
          "indexed": true,
          "internalType": "address",
          "name": "confirmer",
          "type": "address"
        },
        {
          "indexed": false,
          "internalType": "address",
          "name": "newOwner",
          "type": "address"
        },
        {
          "indexed": false,
          "internalType": "uint256",
          "name": "timestamp",
          "type": "uint256"
        }
      ],
      "name": "OwnershipTransferConfirmed",
      "type": "event"
    },
    {
      "anonymous": false,
      "inputs": [
        {
          "indexed": true,
          "internalType": "address",
          "name": "proposer",
          "type": "address"
        },
        {
          "indexed": false,
          "internalType": "address",
          "name": "newOwner",
          "type": "address"
        },
        {
          "indexed": false,
          "internalType": "uint256",
          "name": "timestamp",
          "type": "uint256"
        }
      ],
      "name": "OwnershipTransferProposed",
      "type": "event"
    },
    {
      "anonymous": false,
      "inputs": [
        {
          "indexed": true,
          "internalType": "address",
          "name": "previousOwner",
          "type": "address"
        },
        {
          "indexed": true,
          "internalType": "address",
          "name": "newOwner",
          "type": "address"
        }
      ],
      "name": "OwnershipTransferred",
      "type": "event"
    },
    {
      "stateMutability": "payable",
      "type": "fallback"
    },
    {
      "inputs": [],
      "name": "OWNERSHIP_PROPOSAL_WINDOW",
      "outputs": [
        {
          "internalType": "uint256",
          "name": "",
          "type": "uint256"
        }
      ],
      "stateMutability": "view",
      "type": "function"
    },
    {
      "inputs": [
        {
          "internalType": "address",
          "name": "account",
          "type": "address"
        }
      ],
      "name": "addAuthorizedAddress",
      "outputs": [],
      "stateMutability": "nonpayable",
      "type": "function"
    },
    {
      "inputs": [
        {
          "internalType": "address",
          "name": "",
          "type": "address"
        }
      ],
      "name": "authorized",
      "outputs": [
        {
          "internalType": "bool",
          "name": "",
          "type": "bool"
        }
      ],
      "stateMutability": "view",
      "type": "function"
    },
    {
      "inputs": [
        {
          "internalType": "address",
          "name": "user",
          "type": "address"
        }
      ],
      "name": "canEnroll",
      "outputs": [
        {
          "internalType": "bool",
          "name": "ok",
          "type": "bool"
        },
        {
          "internalType": "enum Limit",
          "name": "breach",
          "type": "uint8"
        }
      ],
      "stateMutability": "view",
      "type": "function"
    },
    {
      "inputs": [],
      "name": "confirmOwnershipTransfer",
      "outputs": [],
      "stateMutability": "nonpayable",
      "type": "function"
    },
    {
      "inputs": [
        {
          "internalType": "enum MissionType",
          "name": "_missionType",
          "type": "uint8"
        },
        {
          "internalType": "uint256",
          "name": "_enrollmentStart",
          "type": "uint256"
        },
        {
          "internalType": "uint256",
          "name": "_enrollmentEnd",
          "type": "uint256"
        },
        {
          "internalType": "uint256",
          "name": "_enrollmentAmount",
          "type": "uint256"
        },
        {
          "internalType": "uint8",
          "name": "_enrollmentMinPlayers",
          "type": "uint8"
        },
        {
          "internalType": "uint8",
          "name": "_enrollmentMaxPlayers",
          "type": "uint8"
        },
        {
          "internalType": "uint256",
          "name": "_missionStart",
          "type": "uint256"
        },
        {
          "internalType": "uint256",
          "name": "_missionEnd",
          "type": "uint256"
        },
        {
          "internalType": "uint8",
          "name": "_missionRounds",
          "type": "uint8"
        },
        {
          "internalType": "string",
          "name": "_missionName",
          "type": "string"
        }
      ],
      "name": "createMission",
      "outputs": [
        {
          "internalType": "address",
          "name": "",
          "type": "address"
        },
        {
          "internalType": "string",
          "name": "",
          "type": "string"
        }
      ],
      "stateMutability": "payable",
      "type": "function"
    },
    {
      "inputs": [],
      "name": "getAllMissions",
      "outputs": [
        {
          "internalType": "address[]",
          "name": "",
          "type": "address[]"
        },
        {
          "internalType": "enum Status[]",
          "name": "",
          "type": "uint8[]"
        },
        {
          "internalType": "string[]",
          "name": "",
          "type": "string[]"
        }
      ],
      "stateMutability": "view",
      "type": "function"
    },
    {
      "inputs": [],
      "name": "getFactorySummary",
      "outputs": [
        {
          "internalType": "address",
          "name": "ownerAddress",
          "type": "address"
        },
        {
          "internalType": "address",
          "name": "factoryAddress",
          "type": "address"
        },
        {
          "internalType": "address",
          "name": "implementation",
          "type": "address"
        },
        {
          "internalType": "uint256",
          "name": "totalMissions",
          "type": "uint256"
        },
        {
          "internalType": "uint256",
          "name": "weekly",
          "type": "uint256"
        },
        {
          "internalType": "uint256",
          "name": "monthly",
          "type": "uint256"
        },
        {
          "internalType": "uint256",
          "name": "missionFunds",
          "type": "uint256"
        },
        {
          "internalType": "uint256",
          "name": "ownerFunds",
          "type": "uint256"
        },
        {
          "internalType": "uint256",
          "name": "successes",
          "type": "uint256"
        },
        {
          "internalType": "uint256",
          "name": "failures",
          "type": "uint256"
        },
        {
          "internalType": "uint256[]",
          "name": "fundsPerTypeArray",
          "type": "uint256[]"
        }
      ],
      "stateMutability": "view",
      "type": "function"
    },
    {
      "inputs": [
        {
          "internalType": "enum MissionType",
          "name": "_type",
          "type": "uint8"
        }
      ],
      "name": "getFundsByType",
      "outputs": [
        {
          "internalType": "uint256",
          "name": "",
          "type": "uint256"
        }
      ],
      "stateMutability": "view",
      "type": "function"
    },
    {
      "inputs": [
        {
          "internalType": "uint256",
          "name": "n",
          "type": "uint256"
        }
      ],
      "name": "getLatestMissions",
      "outputs": [
        {
          "internalType": "address[]",
          "name": "",
          "type": "address[]"
        },
        {
          "internalType": "uint8[]",
          "name": "",
          "type": "uint8[]"
        },
        {
          "internalType": "string[]",
          "name": "",
          "type": "string[]"
        }
      ],
      "stateMutability": "view",
      "type": "function"
    },
    {
      "inputs": [
        {
          "internalType": "address",
          "name": "missionAddress",
          "type": "address"
        }
      ],
      "name": "getMissionData",
      "outputs": [
        {
          "components": [
            {
              "internalType": "address[]",
              "name": "players",
              "type": "address[]"
            },
            {
              "internalType": "enum MissionType",
              "name": "missionType",
              "type": "uint8"
            },
            {
              "internalType": "uint256",
              "name": "enrollmentStart",
              "type": "uint256"
            },
            {
              "internalType": "uint256",
              "name": "enrollmentEnd",
              "type": "uint256"
            },
            {
              "internalType": "uint256",
              "name": "enrollmentAmount",
              "type": "uint256"
            },
            {
              "internalType": "uint8",
              "name": "enrollmentMinPlayers",
              "type": "uint8"
            },
            {
              "internalType": "uint8",
              "name": "enrollmentMaxPlayers",
              "type": "uint8"
            },
            {
              "internalType": "uint256",
              "name": "missionStart",
              "type": "uint256"
            },
            {
              "internalType": "uint256",
              "name": "missionEnd",
              "type": "uint256"
            },
            {
              "internalType": "uint8",
              "name": "missionRounds",
              "type": "uint8"
            },
            {
              "internalType": "uint8",
              "name": "roundCount",
              "type": "uint8"
            },
            {
              "internalType": "uint256",
              "name": "croStart",
              "type": "uint256"
            },
            {
              "internalType": "uint256",
              "name": "croCurrent",
              "type": "uint256"
            },
            {
              "components": [
                {
                  "internalType": "address",
                  "name": "player",
                  "type": "address"
                },
                {
                  "internalType": "uint256",
                  "name": "amountWon",
                  "type": "uint256"
                }
              ],
              "internalType": "struct Mission.PlayersWon[]",
              "name": "playersWon",
              "type": "tuple[]"
            },
            {
              "internalType": "uint256",
              "name": "pauseTimestamp",
              "type": "uint256"
            },
            {
              "internalType": "address[]",
              "name": "refundedPlayers",
              "type": "address[]"
            },
            {
              "internalType": "string",
              "name": "name",
              "type": "string"
            }
          ],
          "internalType": "struct Mission.MissionData",
          "name": "",
          "type": "tuple"
        }
      ],
      "stateMutability": "view",
      "type": "function"
    },
    {
      "inputs": [
        {
          "internalType": "enum Status",
          "name": "s",
          "type": "uint8"
        }
      ],
      "name": "getMissionsByStatus",
      "outputs": [
        {
          "internalType": "address[]",
          "name": "",
          "type": "address[]"
        },
        {
          "internalType": "uint8[]",
          "name": "",
          "type": "uint8[]"
        },
        {
          "internalType": "string[]",
          "name": "",
          "type": "string[]"
        }
      ],
      "stateMutability": "view",
      "type": "function"
    },
    {
      "inputs": [],
      "name": "getMissionsEnded",
      "outputs": [
        {
          "internalType": "address[]",
          "name": "",
          "type": "address[]"
        },
        {
          "internalType": "uint8[]",
          "name": "",
          "type": "uint8[]"
        },
        {
          "internalType": "string[]",
          "name": "",
          "type": "string[]"
        }
      ],
      "stateMutability": "view",
      "type": "function"
    },
    {
      "inputs": [],
      "name": "getMissionsNotEnded",
      "outputs": [
        {
          "internalType": "address[]",
          "name": "",
          "type": "address[]"
        },
        {
          "internalType": "uint8[]",
          "name": "",
          "type": "uint8[]"
        },
        {
          "internalType": "string[]",
          "name": "",
          "type": "string[]"
        }
      ],
      "stateMutability": "view",
      "type": "function"
    },
    {
      "inputs": [],
      "name": "getOwnershipProposal",
      "outputs": [
        {
          "internalType": "address",
          "name": "newOwner",
          "type": "address"
        },
        {
          "internalType": "address",
          "name": "proposer",
          "type": "address"
        },
        {
          "internalType": "uint256",
          "name": "timestamp",
          "type": "uint256"
        },
        {
          "internalType": "uint256",
          "name": "timeLeft",
          "type": "uint256"
        }
      ],
      "stateMutability": "view",
      "type": "function"
    },
    {
      "inputs": [
        {
          "internalType": "address",
          "name": "player",
          "type": "address"
        }
      ],
      "name": "getPlayerLimits",
      "outputs": [
        {
          "internalType": "uint8",
          "name": "weekUsed",
          "type": "uint8"
        },
        {
          "internalType": "uint8",
          "name": "weekMax",
          "type": "uint8"
        },
        {
          "internalType": "uint8",
          "name": "monthUsed",
          "type": "uint8"
        },
        {
          "internalType": "uint8",
          "name": "monthMax",
          "type": "uint8"
        },
        {
          "internalType": "uint256",
          "name": "secToWeek",
          "type": "uint256"
        },
        {
          "internalType": "uint256",
          "name": "secToMonth",
          "type": "uint256"
        }
      ],
      "stateMutability": "view",
      "type": "function"
    },
    {
      "inputs": [
        {
          "internalType": "address",
          "name": "player",
          "type": "address"
        }
      ],
      "name": "getPlayerParticipation",
      "outputs": [
        {
          "internalType": "address[]",
          "name": "",
          "type": "address[]"
        },
        {
          "internalType": "enum Status[]",
          "name": "",
          "type": "uint8[]"
        },
        {
          "internalType": "string[]",
          "name": "",
          "type": "string[]"
        }
      ],
      "stateMutability": "view",
      "type": "function"
    },
    {
      "inputs": [],
      "name": "getTotalMissions",
      "outputs": [
        {
          "internalType": "uint256",
          "name": "",
          "type": "uint256"
        }
      ],
      "stateMutability": "view",
      "type": "function"
    },
    {
      "inputs": [
        {
          "internalType": "address",
          "name": "",
          "type": "address"
        }
      ],
      "name": "isMission",
      "outputs": [
        {
          "internalType": "bool",
          "name": "",
          "type": "bool"
        }
      ],
      "stateMutability": "view",
      "type": "function"
    },
    {
      "inputs": [],
      "name": "missionImplementation",
      "outputs": [
        {
          "internalType": "address",
          "name": "",
          "type": "address"
        }
      ],
      "stateMutability": "view",
      "type": "function"
    },
    {
      "inputs": [
        {
          "internalType": "address",
          "name": "",
          "type": "address"
        }
      ],
      "name": "missionNames",
      "outputs": [
        {
          "internalType": "string",
          "name": "",
          "type": "string"
        }
      ],
      "stateMutability": "view",
      "type": "function"
    },
    {
      "inputs": [
        {
          "internalType": "address",
          "name": "",
          "type": "address"
        }
      ],
      "name": "missionStatus",
      "outputs": [
        {
          "internalType": "enum Status",
          "name": "",
          "type": "uint8"
        }
      ],
      "stateMutability": "view",
      "type": "function"
    },
    {
      "inputs": [
        {
          "internalType": "enum MissionType",
          "name": "",
          "type": "uint8"
        }
      ],
      "name": "missionTypeCounts",
      "outputs": [
        {
          "internalType": "uint256",
          "name": "",
          "type": "uint256"
        }
      ],
      "stateMutability": "view",
      "type": "function"
    },
    {
      "inputs": [
        {
          "internalType": "uint256",
          "name": "",
          "type": "uint256"
        }
      ],
      "name": "missions",
      "outputs": [
        {
          "internalType": "address",
          "name": "",
          "type": "address"
        }
      ],
      "stateMutability": "view",
      "type": "function"
    },
    {
      "inputs": [],
      "name": "monthlyLimit",
      "outputs": [
        {
          "internalType": "uint8",
          "name": "",
          "type": "uint8"
        }
      ],
      "stateMutability": "view",
      "type": "function"
    },
    {
      "inputs": [],
      "name": "owner",
      "outputs": [
        {
          "internalType": "address",
          "name": "",
          "type": "address"
        }
      ],
      "stateMutability": "view",
      "type": "function"
    },
    {
      "inputs": [],
      "name": "proposalProposer",
      "outputs": [
        {
          "internalType": "address",
          "name": "",
          "type": "address"
        }
      ],
      "stateMutability": "view",
      "type": "function"
    },
    {
      "inputs": [],
      "name": "proposalTimestamp",
      "outputs": [
        {
          "internalType": "uint256",
          "name": "",
          "type": "uint256"
        }
      ],
      "stateMutability": "view",
      "type": "function"
    },
    {
      "inputs": [
        {
          "internalType": "address",
          "name": "newOwner",
          "type": "address"
        }
      ],
      "name": "proposeOwnershipTransfer",
      "outputs": [],
      "stateMutability": "nonpayable",
      "type": "function"
    },
    {
      "inputs": [],
      "name": "proposedNewOwner",
      "outputs": [
        {
          "internalType": "address",
          "name": "",
          "type": "address"
        }
      ],
      "stateMutability": "view",
      "type": "function"
    },
    {
      "inputs": [
        {
          "internalType": "address",
          "name": "user",
          "type": "address"
        }
      ],
      "name": "recordEnrollment",
      "outputs": [],
      "stateMutability": "nonpayable",
      "type": "function"
    },
    {
      "inputs": [
        {
          "internalType": "enum MissionType",
          "name": "missionType",
          "type": "uint8"
        }
      ],
      "name": "registerMissionFunds",
      "outputs": [],
      "stateMutability": "payable",
      "type": "function"
    },
    {
      "inputs": [
        {
          "internalType": "address",
          "name": "account",
          "type": "address"
        }
      ],
      "name": "removeAuthorizedAddress",
      "outputs": [],
      "stateMutability": "nonpayable",
      "type": "function"
    },
    {
      "inputs": [],
      "name": "renounceOwnership",
      "outputs": [],
      "stateMutability": "nonpayable",
      "type": "function"
    },
    {
      "inputs": [
        {
          "internalType": "enum MissionType",
          "name": "",
          "type": "uint8"
        }
      ],
      "name": "reservedFunds",
      "outputs": [
        {
          "internalType": "uint256",
          "name": "",
          "type": "uint256"
        }
      ],
      "stateMutability": "view",
      "type": "function"
    },
    {
      "inputs": [],
      "name": "reservedFundsBreakdown",
      "outputs": [
        {
          "internalType": "uint256[7]",
          "name": "",
          "type": "uint256[7]"
        }
      ],
      "stateMutability": "view",
      "type": "function"
    },
    {
      "inputs": [
        {
          "internalType": "address",
          "name": "user",
          "type": "address"
        }
      ],
      "name": "secondsTillMonthlySlot",
      "outputs": [
        {
          "internalType": "uint256",
          "name": "",
          "type": "uint256"
        }
      ],
      "stateMutability": "view",
      "type": "function"
    },
    {
      "inputs": [
        {
          "internalType": "address",
          "name": "user",
          "type": "address"
        }
      ],
      "name": "secondsTillWeeklySlot",
      "outputs": [
        {
          "internalType": "uint256",
          "name": "",
          "type": "uint256"
        }
      ],
      "stateMutability": "view",
      "type": "function"
    },
    {
      "inputs": [
        {
          "internalType": "uint8",
          "name": "_weekly",
          "type": "uint8"
        },
        {
          "internalType": "uint8",
          "name": "_monthly",
          "type": "uint8"
        }
      ],
      "name": "setEnrollmentLimits",
      "outputs": [],
      "stateMutability": "nonpayable",
      "type": "function"
    },
    {
      "inputs": [
        {
          "internalType": "enum Status",
          "name": "newStatus",
          "type": "uint8"
        }
      ],
      "name": "setMissionStatus",
      "outputs": [],
      "stateMutability": "nonpayable",
      "type": "function"
    },
    {
      "inputs": [],
      "name": "totalMissionFailures",
      "outputs": [
        {
          "internalType": "uint256",
          "name": "",
          "type": "uint256"
        }
      ],
      "stateMutability": "view",
      "type": "function"
    },
    {
      "inputs": [],
      "name": "totalMissionFunds",
      "outputs": [
        {
          "internalType": "uint256",
          "name": "",
          "type": "uint256"
        }
      ],
      "stateMutability": "view",
      "type": "function"
    },
    {
      "inputs": [],
      "name": "totalMissionSuccesses",
      "outputs": [
        {
          "internalType": "uint256",
          "name": "",
          "type": "uint256"
        }
      ],
      "stateMutability": "view",
      "type": "function"
    },
    {
      "inputs": [],
      "name": "totalOwnerEarnedFunds",
      "outputs": [
        {
          "internalType": "uint256",
          "name": "",
          "type": "uint256"
        }
      ],
      "stateMutability": "view",
      "type": "function"
    },
    {
      "inputs": [
        {
          "internalType": "address",
          "name": "newOwner",
          "type": "address"
        }
      ],
      "name": "transferOwnership",
      "outputs": [],
      "stateMutability": "nonpayable",
      "type": "function"
    },
    {
      "inputs": [],
      "name": "weeklyLimit",
      "outputs": [
        {
          "internalType": "uint8",
          "name": "",
          "type": "uint8"
        }
      ],
      "stateMutability": "view",
      "type": "function"
    },
    {
      "inputs": [
        {
          "internalType": "uint256",
          "name": "amount",
          "type": "uint256"
        }
      ],
      "name": "withdrawFunds",
      "outputs": [],
      "stateMutability": "nonpayable",
      "type": "function"
    },
    {
      "stateMutability": "payable",
      "type": "receive"
    }
  ],
  "bytecode": "0x60a03461012557601f613c0f38819003918201601f19168301916001600160401b0383118484101761012a5780849260209460405283398101031261012557516001600160a01b03811680820361012557331561010f5760008054336001600160a01b0319821681178355604051939290916001600160a01b0316907f8be0079c531659141344cd1fd0a4f28419497f9722a3daafe3b4186f6b6457e09080a360018055610a0461ffff196003541617600355156100e15750608052604051613ace9081610141823960805181818161045f01528181610aea01526112530152f35b62461bcd60e51b8152602060048201526009602482015268696d706c207a65726f60b81b6044820152606490fd5b631e4fbdf760e01b600052600060045260246000fd5b600080fd5b634e487b7160e01b600052604160045260246000fdfe6080806040526004361015610011575b005b600090813560e01c90816304a6175214612b24575080630814ab8214612add5780630a6005da14612ab95780630fc8c4ed14612a90578063155dd5ee146129285780631e59d5841461279657806320c5718f1461250e57806321040fc3146123fe5780632c8fe526146123ba5780632d771f30146123915780632e33b07f146108765780633589cf7214612373578063370127621461229457806342f1181e146121a3578063503c0b8814611f315780635c5bb6f214611f135780636367972314611ef55780636805036d14611d955780636d8a139014611d6a5780637071293914611c7f578063715018a614611c255780637200b82914611abd57806372eecd211461115b5780637e9eae501461103d57806383fbea511461101f578063861a68d614610ffe5780638c09b7c314610fbe5780638da5cb5b14610f975780639804a58614610f4d578063a9bea78914610dd9578063aa1f059514610d97578063b620291314610bb1578063b6de7b4314610b5b578063b918161114610b19578063bd48772514610ad4578063c17f9e59146108a0578063c416ad2a14610876578063c892fde314610858578063cbf2080d146106c1578063d3050eba146106a3578063d41eca64146105f5578063d8d6e8ff1461056e578063df4db463146104e7578063e5047770146103ba578063eff0ab92146102a9578063f08e231e146102765763f2fde38b0361000f5734610273576020366003190112610273576004356001600160a01b0381168082036102715761024c6138b7565b1561025d5761025a90613902565b80f35b631e4fbdf760e01b82526004829052602482fd5b825b80fd5b5034610273576020366003190112610273576004359060078210156102735760206102a083612eb2565b54604051908152f35b5034610273576020366003190112610273576004356001600160a01b038116908190036103b6578152600f6020526040812080548291825b82811061033157505050816102fd57602091505b604051908152f35b62093a80820180921161031d575061031860209142906132e4565b6102f5565b634e487b7160e01b81526011600452602490fd5b61033b8183612ce7565b90549060031b1c62093a8081018091116103a257421061035e575b6001016102e1565b84158015610389575b15610356579350600161037a8583612ce7565b90549060031b1c949050610356565b50846103958284612ce7565b90549060031b1c10610367565b634e487b7160e01b85526011600452602485fd5b5080fd5b5034610273578060031936011261027357610100906040516103dc8382612dd4565b600781526020810191601f198401368437805b60078110156104165760019061040481612e99565b5461040f8286612f9e565b52016103ef565b5091909160018060a01b0381541660025493600354956004549060055490600654916007549360ff6040519b8c9b6101608d01998d528c6020309101528c604060018060a01b037f00000000000000000000000000000000000000000000000000000000000000001691015260608d015281811660808d015260081c1660a08b015260c08a015260e089015287015261012086015261016061014086015251809152610180840192915b8181106104ce575050500390f35b82518452859450602093840193909201916001016104c0565b503461027357806003193601126102735760e090816040516105098282612dd4565b3690376040519061051a8383612dd4565b82368337805b60078110156105435760019061053581612e99565b548160051b85015201610520565b506040519190825b6007821061055857505050f35b602080600192855181520193019101909161054b565b50346102735760203660031901126102735760043560088110156103b657338252600c6020526105a460ff60408420541661384c565b338252600d6020526040822060ff1981541660ff8316179055600681146000146105da57506105d4600654612ee6565b60065580f35b6007146105e45780f35b6105ef600754612ee6565b60075580f35b50346102735760403660031901126102735760043560ff81168091036103b65760243560ff81169182820361069f577f321994b8855ae38e4fd6162f7a0bd7cde88be83aa3acc96e03c17b7f733b43e19260409260018060a01b038654163314801561068a575b6106659061327c565b8261ff006003549260081b169161ffff1916171760035582519182526020820152a180f35b50338652600b6020528386205460ff1661065c565b8380fd5b50346102735780600319360112610273576020604051620151808152f35b5034610273576020366003190112610273576004356001600160a01b038116908190036103b6578152600f602052604081208190829083809181908054915b8281106107ad5750505060035494801560001461077b575080915b80610755575060c09460ff8092945b8160405197168752818316602088015216604086015260081c166060840152608083015260a0820152f35b9062278d00820180921161031d575060c09460ff610775819342906132e4565b9461072a565b62093a808101809111610799576107939042906132e4565b9161071b565b634e487b7160e01b82526011600452602482fd5b6107b78183612ce7565b90549060031b1c62278d0081018082116108335742106107db575b50600101610700565b956107e590612ee6565b958515801561084f575b610847575b62093a808101808211610833574210156107d2579661081290612ee6565b968815801561082a575b156107d257975060016107d2565b5088811061081c565b634e487b7160e01b86526011600452602486fd5b9450846107f4565b508581106107ef565b50346102735780600319360112610273576020600654604051908152f35b5034610273576020366003190112610273576004359060078210156102735760206102a083612e99565b5034610273576020366003190112610273576004356001600160a01b038116908190036103b657338252600d60205260ff6040832054166008811015610ac057600103610a8a5762278cff19420190428211610a7657808352600f60205260408320805492845b84811080610a5d575b156109235761091e90612ee6565b610907565b83838792806109a9575b50805490600160401b821015610995578161095091600161096894018155612ce7565b429082549060031b91821b91600019901b1916179055565b7f498f5e6dcf570483a1848853791046a7f10012193176d71f959f46eb7713d7446020604051428152a280f35b634e487b7160e01b84526041600452602484fd5b92805b6109b78584546132e4565b811015610a075780610a016109d76109d1886001956132d7565b86612ce7565b90549060031b1c6109e88387612ce7565b90919082549060031b91821b91600019901b1916179055565b016109ac565b5092835b818110610a18575061092d565b82548015610a49576001919060001901610a328186612ce7565b8154906000199060031b1b19169055845501610a0b565b634e487b7160e01b86526031600452602486fd5b5081610a698285612ce7565b90549060031b1c10610910565b634e487b7160e01b83526011600452602483fd5b60405162461bcd60e51b815260206004820152600e60248201526d24b73b30b634b21031b0b63632b960911b6044820152606490fd5b634e487b7160e01b83526021600452602483fd5b50346102735780600319360112610273576040517f00000000000000000000000000000000000000000000000000000000000000006001600160a01b03168152602090f35b5034610273576020366003190112610273576004356001600160a01b038116908190036103b65760408260ff9260209452600b84522054166040519015158152f35b5034610273576020366003190112610273576004356001600160a01b038116908190036103b657604082610b9992610bad9452601060205220612df5565b604051918291602083526020830190612bc3565b0390f35b50346102735780600319360112610273576002548190825b818110610d175750610bda82612f22565b90610bed610be784612f22565b93612f54565b9084805b828210610c0b57505050610bad9060405193849384612c41565b610c1482612cb6565b905460039190911b1c6001600160a01b03168752600d602052604087205460ff16600881101580610d0357600682148015610cf7575b610c5b575b50509060010190610bf1565b610c6484612cb6565b905460039190911b1c6001600160a01b0316610c808489612f9e565b52610ce35781610cdc91610c966001948a612f9e565b52610ca084612cb6565b848060a01b0391549060031b1c1689526010602052610cc160408a20612df5565b610ccb8288612f9e565b52610cd68187612f9e565b50612ee6565b9038610c4f565b634e487b7160e01b88526021600452602488fd5b50508760078214610c4a565b634e487b7160e01b89526021600452602489fd5b610d2081612cb6565b905460039190911b1c6001600160a01b03168452600d602052604084205460ff166008811015610d835760068114908115610d78575b50610d64575b600101610bc9565b91610d70600191612ee6565b929050610d5c565b600791501438610d56565b634e487b7160e01b85526021600452602485fd5b5034610273576020366003190112610273576004356001600160a01b038116908190036103b65760408260ff9260209452600c84522054166040519015158152f35b5060203660031901126102735760043560078110156103b657338252600c602052610e0a60ff60408420541661384c565b610e126138e0565b3415610f0957338252600d60205260ff6040832054166008811015610ac0576006148015610ee7575b15610eab57610e4981612e99565b610e543482546132d7565b9055610e62346004546132d7565b600455610e74600334046005546132d7565b600555604051903482527f606617fd09d9890413e3c46147b844d4562351f86e0f7a5c60849bbf0ef0281160203393a36001805580f35b60405162461bcd60e51b815260206004820152601460248201527321b0b63632b9103737ba10309036b4b9b9b4b7b760611b6044820152606490fd5b50338252600d60205260ff6040832054166008811015610ac057600714610e3b565b606460405162461bcd60e51b815260206004820152602060248201527f416d6f756e74206d7573742062652067726561746572207468616e207a65726f6044820152fd5b5034610273576020366003190112610273576004356001600160a01b03811681036103b657610f7b906136cd565b60405191151582526003811015610ac057604092506020820152f35b5034610273578060031936011261027357546040516001600160a01b039091168152602090f35b50346102735780600319360112610273576080610fd961365c565b604080516001600160a01b039586168152949093166020850152918301526060820152f35b5034610273578060031936011261027357602060ff60035416604051908152f35b50346102735780600319360112610273576020600754604051908152f35b50346102735760203660031901126102735760043590600254808311611153575b61106783612f22565b9161107184612f22565b9361107b81612f54565b926000198101908111835b83811061109d5760405180610bad888b8b84612c41565b816103a2576110b46110af82856132e4565b612cb6565b905460039190911b1c6001600160a01b0316806110d1838a612f9e565b528552600d60205260ff604086205416600881101561113f57906001916110f8828b612f9e565b5261110281612cb6565b838060a01b0391549060031b1c168652601060205261112360408720612df5565b61112d8289612f9e565b526111388188612f9e565b5001611086565b634e487b7160e01b86526021600452602486fd5b91508161105e565b5061014036600319011261027357600760043510156102735760843560ff811681036103b65760a4359160ff8316830361027357610104359160ff831683036103b65761012435926001600160401b0384116102715736602385011215610271578360040135936001600160401b03851161069f57366024868301011161069f5783546001600160a01b031633148015611aa7575b6111f99061327c565b6112016138e0565b600560ff831610611a485760ff821660ff8416106119dd5760ff831660ff8716106119735760443560243510156119225760443560c435106118c45760c43560e43511156118805760643515611827577f0000000000000000000000000000000000000000000000000000000000000000608881901c62ffffff16763d602d80600a3d3981f3363d3d373d3d3d363d7300000017855260781b6e5af43d82803e903d91602b57fd5bf3176020526001600160a01b036037600986f0169485156118185784906112d1600435612eb2565b6112db8154612ee6565b9055801561163e57808060246112f2602094612ecb565b956113006040519788612dd4565b828752018386013783010152945b848452600c60205260408420600160ff19825416179055848452600d6020526040842060ff19815416905584845260106020526040842086516001600160401b03811161162a5761135f8254612d68565b601f81116115e5575b50806020601f8211600114611581578791611576575b508160011b916000199060031b1c19161790555b83546001600160a01b031692853b156115725760ff9291838092604051966317a0f85760e21b885260048801523060248801526113d460448801600435612ca9565b6024356064880152604435608488015260643560a48801521660c48601521660e484015260c43561010484015260e4356101248401521661014482015261018061016482015281818061142b610184820188612bc3565b038134875af18015611539578290611562575b5050600254600160401b81101561154e5780600161145f9201600255612cb6565b81546001600160a01b0360039290921b91821b19169084901b179055600435827f0ac1ac89285bf936f515aafcf6808b3e062e77fd57f52c8892d20fc9409b8b538380a36114ae600435612e99565b5460021c80151580611544575b6114e2575b505060018055610bad6040519283928352604060208401526040830190612bc3565b6114ed600435612e99565b6114f88282546132e4565b9055823b156103b657816004916040519283809263eb2bab7760e01b8252875af1801561153957156114c05761152f828092612dd4565b61027357806114c0565b6040513d84823e3d90fd5b50804710156114bb565b634e487b7160e01b82526041600452602482fd5b61156b91612dd4565b388161143e565b8480fd5b90508801513861137e565b915082875281872087925b8a601f19841685106115ce57506001935082601f198116106115b5575b5050811b019055611392565b8a015160001960f88460031b161c1916905538806115a9565b81015182556020938401936001909201910161158c565b82875260208720601f830160051c81019160208410611620575b601f0160051c01905b8181106116155750611368565b878155600101611608565b90915081906115ff565b634e487b7160e01b86526041600452602486fd5b50505061164c600435613949565b611657600435612eb2565b54848172184f03e93ff9f4daa797ed6e38ed64bf6a1f0160401b8110156117f5575b806d04ee2d6d415b85acef8100000000600a9210156117da575b662386f26fc100008110156117c6575b6305f5e1008110156117b5575b6127108110156117a6575b6064811015611798575b1015611790575b6001810191600a60216116f76116e186612ecb565b956116ef6040519788612dd4565b808752612ecb565b602086019490601f19013686378501015b60001901916f181899199a1a9b1b9c1cb0b131b232b360811b8282061a83530490811561173757600a90611708565b505061177992602060039261178a94604051968461175e899651809287808a019101612ba0565b8501916201016960ed1b858401525180936023840190612ba0565b01010301601f198101835282612dd4565b9461130e565b6001016116cc565b6064600291049201916116c5565b612710600491049201916116bb565b6305f5e100600891049201916116b0565b662386f26fc10000601091049201916116a3565b6d04ee2d6d415b85acef810000000060209104920191611693565b506040905072184f03e93ff9f4daa797ed6e38ed64bf6a1f0160401b8204611679565b63b06ebf3d60e01b8552600485fd5b60405162461bcd60e51b815260206004820152602b60248201527f456e726f6c6c6d656e7420616d6f756e74206d7573742062652067726561746560448201526a72207468616e207a65726f60a81b6064820152608490fd5b606460405162461bcd60e51b815260206004820152602060248201527f4d697373696f6e207374617274206d757374206265206265666f726520656e646044820152fd5b60405162461bcd60e51b815260206004820152603060248201527f4d697373696f6e207374617274206d757374206265206f6e206f72206166746560448201526f1c88195b9c9bdb1b1b595b9d08195b9960821b6064820152608490fd5b60405162461bcd60e51b815260206004820152602360248201527f456e726f6c6c6d656e74207374617274206d757374206265206265666f726520604482015262195b9960ea1b6064820152608490fd5b608460405162461bcd60e51b815260206004820152604060248201527f4d6178696d756d20706c6179657273206d75737420626520677265617465722060448201527f7468616e206f7220657175616c20746f206d696e696d756d20706c61796572736064820152fd5b60405162461bcd60e51b815260206004820152603f60248201527f4d696e696d756d20706c6179657273206d75737420626520677265617465722060448201527f7468616e206f7220657175616c20746f206d697373696f6e20726f756e6473006064820152608490fd5b60405162461bcd60e51b815260206004820152603160248201527f4d697373696f6e20726f756e6473206d7573742062652067726561746572207460448201527068616e206f7220657175616c20746f203560781b6064820152608490fd5b50338452600b602052604084205460ff166111f0565b503461027357806003193601126102735780546001600160a01b031633148015611c0f575b611aeb9061327c565b600a546001600160a01b03163314611bcb57600854620151808101809111610799574211611b9357600954611b28906001600160a01b0316613902565b600954604080516001600160a01b03909216825242602083015233917fdd72dd33198968a9cdc9b1e5cbff344fb8d04d99f8c15c0a02416b04e857b4679190a26001600160601b0360a01b600954166009556001600160601b0360a01b600a5416600a558060085580f35b60405162461bcd60e51b815260206004820152601060248201526f141c9bdc1bdcd85b08195e1c1a5c995960821b6044820152606490fd5b606460405162461bcd60e51b815260206004820152602060248201527f43616e6e6f7420636f6e6669726d20796f7572206f776e2070726f706f73616c6044820152fd5b50338152600b602052604081205460ff16611ae2565b5034610273578060031936011261027357611c3e6138b7565b80546001600160a01b03198116825581906001600160a01b03167f8be0079c531659141344cd1fd0a4f28419497f9722a3daafe3b4186f6b6457e08280a380f35b5034610273576020366003190112610273576004356001600160a01b038116908190036103b65781546001600160a01b031633148015611d54575b611cc39061327c565b611cce8115156132f1565b808252600b60205260ff60408320541615611d1e57808252600b60205260408220805460ff191690557f66d5f06f711af3c9feba3203fdb00b51345d514c68585d9d319c5ff5e6f775928280a280f35b60405162461bcd60e51b815260206004820152600e60248201526d139bdd08185d5d1a1bdc9a5e995960921b6044820152606490fd5b50338252600b602052604082205460ff16611cba565b5034610273578060031936011261027357610bad611d86613360565b60409391935193849384612cff565b50346102735780600319360112610273576002548190825b818110611e885750611dbe82612f22565b90611dcb610be784612f22565b9084805b828210611de957505050610bad9060405193849384612c41565b611df282612cb6565b905460039190911b1c6001600160a01b03168752600d602052604087205460ff16600881101580610d0357600682141580611e7b575b611e39575b50509060010190611dcf565b611e4284612cb6565b905460039190911b1c6001600160a01b0316611e5e8489612f9e565b52610ce35781611e7491610c966001948a612f9e565b9038611e2d565b5050876007821415611e28565b611e9181612cb6565b905460039190911b1c6001600160a01b03168452600d602052604084205460ff166008811015610d835760068114159081611ee9575b50611ed5575b600101611dad565b91611ee1600191612ee6565b929050611ecd565b60079150141538611ec7565b50346102735780600319360112610273576020600454604051908152f35b50346102735780600319360112610273576020600254604051908152f35b5034610273576020366003190112610273576004356001600160a01b038116908190036103b657600254829080805b6120f55750611f6e84612f22565b92611f81611f7b86612f22565b95612f54565b928092805b611f9a5760405180610bad878a8a84612cff565b6000198101818111610a7657611faf90612cb6565b9054604051629c95e160e41b81526004810186905260039290921b1c6001600160a01b031690602081602481855afa9081156120bc5784916120c7575b50612002575b50611ffc9061332f565b80611f86565b806120108689979497612f9e565b526040516368c6ba2160e01b8152602081600481855afa9081156120bc578491612080575b509161207991612051611ffc9461204c848d612f9e565b613354565b8452601060205261206460408520612df5565b61206e8289612f9e565b52610cd68188612f9e565b9390611ff2565b90506020813d82116120b4575b8161209a60209383612dd4565b8101031261069f5751600881101561069f57612079612035565b3d915061208d565b6040513d86823e3d90fd5b6120e8915060203d81116120ee575b6120e08183612dd4565b81019061333c565b38611fec565b503d6120d6565b600019810181811161218f57602061210e602492612cb6565b9054604051629c95e160e41b8152600481018990529384929091839160031b1c6001600160a01b03165afa9081156120bc578491612171575b5061215c575b6121569061332f565b80611f60565b9361216961215691612ee6565b94905061214d565b612189915060203d81116120ee576120e08183612dd4565b38612147565b634e487b7160e01b84526011600452602484fd5b5034610273576020366003190112610273576004356001600160a01b038116908190036103b65781546001600160a01b03163314801561227e575b6121e79061327c565b6121f28115156132f1565b808252600b60205260ff60408320541661224457808252600b60205260408220805460ff191660011790557f10ac961f00d5e732ba4dcc2c6fb09bebea0eb9edd2a75c8109775ef288382e678280a280f35b60405162461bcd60e51b8152602060048201526012602482015271105b1c9958591e48185d5d1a1bdc9a5e995960721b6044820152606490fd5b50338252600b602052604082205460ff166121de565b5034610273576020366003190112610273576004356001600160a01b038116908190036103b6578152600f6020526040812080548291825b82811061230257505050816122e75760209150604051908152f35b62278d00820180921161031d575061031860209142906132e4565b61230c8183612ce7565b90549060031b1c62278d0081018091116103a257421061232f575b6001016122cc565b8415801561235a575b15612327579350600161234b8583612ce7565b90549060031b1c949050612327565b50846123668284612ce7565b90549060031b1c10612338565b50346102735780600319360112610273576020600554604051908152f35b5034610273578060031936011261027357600a546040516001600160a01b039091168152602090f35b503461027357602036600319011261027357600435906002548210156102735760206123e583612cb6565b905460405160039290921b1c6001600160a01b03168152f35b5034610273576020366003190112610273576004356001600160a01b0381168082036102715782546001600160a01b0316331480156124f8575b6124419061327c565b80156124bf576001600160601b0360a01b6009541617600955336001600160601b0360a01b600a541617600a55426008557fc29bdbd554e41df97e5c40fc273a09677ac133c245f0064bdffef5cc72176e19604051806124b9339442908360209093929193604081019460018060a01b031681520152565b0390a280f35b60405162461bcd60e51b815260206004820152601160248201527024b73b30b634b2103732bb9037bbb732b960791b6044820152606490fd5b50338352600b602052604083205460ff16612438565b5034610273576020366003190112610273576004356001600160a01b038116908190036103b657606061020060405161254681612da2565b82815284602082015284604082015284838201528460808201528460a08201528460c08201528460e08201528461010082015284610120820152846101408201528461016082015284610180820152826101a0820152846101c0820152826101e082015201528015612751578160049160405192838092631f385f7960e21b82525afa90811561153957829161272f575b5090604051918291602083526125fb82516102206020860152610240850190612b63565b9061260e60208401516040860190612ca9565b6040830151606085015260608301516080850152608083015160a085015260ff60a08401511660c085015260ff60c08401511660e085015260e083015161010085015261010083015161012085015260ff6101208401511661014085015260ff610140840151166101608501526101608301516101808501526101808301516101a08501526101a083015191601f19858203016101c0860152602080845192838152019301915b81811061270157505050906102006126ec610bad936101c08401516101e08701526101e0840151601f198783030184880152612b63565b910151838203601f1901610220850152612bc3565b825180516001600160a01b0316855260209081015181860152879650604090940193909201916001016126b5565b61274b91503d8084833e6127438183612dd4565b81019061303e565b386125d7565b60405162461bcd60e51b815260206004820152601760248201527f496e76616c6964206d697373696f6e20616464726573730000000000000000006044820152606490fd5b50346102735760203660031901126102735760043590600882101591826103b657600254928293835b8181106128cd57506127d085612f22565b936127e36127dd87612f22565b96612f54565b938190825b8481106127ff5760405180610bad898c8c84612c41565b61280881612cb6565b905460039190911b1c6001600160a01b03168452600d602052604084205460ff1686610d83576008811015610d83578214612846575b6001016127e8565b91945061285282612cb6565b905460039190911b1c6001600160a01b031661286e8689612f9e565b5260016128c58496612880818c612f9e565b60ff8516905261288f85612cb6565b848060a01b0391549060031b1c16865260106020526128b060408720612df5565b6128ba828b612f9e565b52610cd6818a612f9e565b92905061283e565b6128d681612cb6565b905460039190911b1c6001600160a01b03168552600d602052604085205460ff168361113f57600881101561113f578414612914575b6001016127bf565b94612920600191612ee6565b95905061290c565b5034610273576020366003190112610273576004356129456138b7565b61294d6138e0565b81546001600160a01b031690808215612a535715612a4c575b478111612a10578280808084865af13d15612a0b573d61298581612ecb565b906129936040519283612dd4565b81528460203d92013e5b156129d45760207feaff4b37086828766ad3268786972c0cd24259d4c87a80f9d3963a3c3d999b0d91604051908152a26001805580f35b60405162461bcd60e51b815260206004820152600f60248201526e151c985b9cd9995c8819985a5b1959608a1b6044820152606490fd5b61299d565b60405162461bcd60e51b8152602060048201526014602482015273496e73756666696369656e742062616c616e636560601b6044820152606490fd5b5047612966565b60405162461bcd60e51b815260206004820152601560248201527424b73b30b634b21036b0b730b3b2b91037bbb732b960591b6044820152606490fd5b50346102735780600319360112610273576009546040516001600160a01b039091168152602090f35b5034610273578060031936011261027357602060ff60035460081c16604051908152f35b5034610273576020366003190112610273576004356001600160a01b038116908190036103b65760408260ff9260209452600d8452205416612b226040518092612b40565bf35b9050346103b657816003193601126103b6576020906008548152f35b906008821015612b4d5752565b634e487b7160e01b600052602160045260246000fd5b906020808351928381520192019060005b818110612b815750505090565b82516001600160a01b0316845260209384019390920191600101612b74565b60005b838110612bb35750506000910152565b8181015183820152602001612ba3565b90602091612bdc81518092818552858086019101612ba0565b601f01601f1916010190565b9080602083519182815201916020808360051b8301019401926000915b838310612c1457505050505090565b9091929394602080612c32600193601f198682030187528951612bc3565b97019301930191939290612c05565b939290612c5690606086526060860190612b63565b9380850360208201526020808451968781520193016000955b808710612c8e575050612c8b9394506040818403910152612be8565b90565b909360208060019260ff885116815201950196019590612c6f565b906007821015612b4d5752565b600254811015612cd157600260005260206000200190600090565b634e487b7160e01b600052603260045260246000fd5b8054821015612cd15760005260206000200190600090565b939290612d1490606086526060860190612b63565b9380850360208201526020808451968781520193016000955b808710612d49575050612c8b9394506040818403910152612be8565b909360208082612d5c6001948951612b40565b01950196019590612d2d565b90600182811c92168015612d98575b6020831014612d8257565b634e487b7160e01b600052602260045260246000fd5b91607f1691612d77565b61022081019081106001600160401b03821117612dbe57604052565b634e487b7160e01b600052604160045260246000fd5b90601f801991011681019081106001600160401b03821117612dbe57604052565b9060405191826000825492612e0984612d68565b8084529360018116908115612e775750600114612e30575b50612e2e92500383612dd4565b565b90506000929192526020600020906000915b818310612e5b575050906020612e2e9282010138612e21565b6020919350806001915483858901015201910190918492612e42565b905060209250612e2e94915060ff191682840152151560051b82010138612e21565b6007811015612b4d57600052600e602052604060002090565b6007811015612b4d576000526011602052604060002090565b6001600160401b038111612dbe57601f01601f191660200190565b6000198114612ef55760010190565b634e487b7160e01b600052601160045260246000fd5b6001600160401b038111612dbe5760051b60200190565b90612f2c82612f0b565b612f396040519182612dd4565b8281528092612f4a601f1991612f0b565b0190602036910137565b90612f5e82612f0b565b612f6b6040519182612dd4565b8281528092612f7c601f1991612f0b565b019060005b828110612f8d57505050565b806060602080938501015201612f81565b8051821015612cd15760209160051b010190565b51906001600160a01b0382168203612fc657565b600080fd5b9080601f83011215612fc6578151612fe281612f0b565b92612ff06040519485612dd4565b81845260208085019260051b820101928311612fc657602001905b8282106130185750505090565b6020809161302584612fb2565b81520191019061300b565b519060ff82168203612fc657565b602081830312612fc6578051906001600160401b038211612fc657019061022082820312612fc6576040519161307383612da2565b80516001600160401b038111612fc6578261308f918301612fcb565b835260208101516007811015612fc65760208401526040810151604084015260608101516060840152608081015160808401526130ce60a08201613030565b60a08401526130df60c08201613030565b60c084015260e081015160e08401526101008101516101008401526131076101208201613030565b61012084015261311a6101408201613030565b6101408401526101608101516101608401526101808101516101808401526101a08101516001600160401b038111612fc657810182601f82011215612fc657805161316481612f0b565b916131726040519384612dd4565b81835260208084019260061b82010190858211612fc657602001915b818310613231575050506101a08401526101c08101516101c08401526101e08101516001600160401b038111612fc657826131ca918301612fcb565b6101e0840152610200810151906001600160401b038211612fc6570181601f82011215612fc65780516131fc81612ecb565b9261320a6040519485612dd4565b81845260208284010111612fc6576132289160208085019101612ba0565b61020082015290565b604083870312612fc6576040519060408201908282106001600160401b03831117612dbe57604092602092845261326786612fb2565b8152828601518382015281520192019161318e565b1561328357565b60405162461bcd60e51b815260206004820152602660248201527f4e6f74206f776e6572206f72204d697373696f6e466163746f727920617574686044820152651bdc9a5e995960d21b6064820152608490fd5b91908201809211612ef557565b91908203918211612ef557565b156132f857565b60405162461bcd60e51b815260206004820152600f60248201526e496e76616c6964206164647265737360881b6044820152606490fd5b8015612ef5576000190190565b90816020910312612fc657518015158103612fc65790565b6008821015612b4d5752565b60025480156135f357624f19ff194201428111612ef55762278cff194201428111612ef5576000929182805b613505575b5061339b84612f22565b6133a485612f22565b956133ae86612f54565b946000905b801515806134fc575b156134f15760001901906133cf82612cb6565b60018060a01b0391549060031b1c1680600052600d60205260ff60406000205416604051631f385f7960e21b8152600081600481865afa9081156134e5578c918a916000916134cc575b508960e0820181815110806134a5575b1561349a5750506101000151105b61348b57829161204c856134599381966134536001998d612f9e565b52612f9e565b600052601060205261346e6040600020612df5565b613478828a612f9e565b526134838189612f9e565b5001906133b3565b50949998509295505050505050565b915091505110613437565b5092505091506008831015612b4d578c91898b926006861480613429575060078614613429565b6134df913d8091833e6127438183612dd4565b38613419565b6040513d6000823e3d90fd5b509196955092505050565b508782106133bc565b600094939419019261351684612cb6565b60018060a01b0391549060031b1c1680600052600d6020526004600060ff6040822054169260405192838092631f385f7960e21b82525afa9081156134e557859285916000936135d8575b5060e08301908282511090816135a8575b501561359d5750506101000151105b6135965761358f8491612ee6565b949361338c565b9392613391565b915091505110613581565b92505092506008811015612b4d5785928160068793149081156135cd575b5038613572565b6007915014386135c6565b6135ec91933d8091833e6127438183612dd4565b9138613561565b506020604051916136048284612dd4565b6000835260003681376040519261361b8385612dd4565b6000845260003681376040519260006136348286612dd4565b8452601f19810160005b81811061364d57505050929190565b6060868201840152820161363e565b60085480156136be5762015180810191828211612ef557824210156136a357600954600a546001600160a01b03908116949116919061369c9042906132e4565b9193929190565b600954600a546001600160a01b039182169450169190600090565b50600090600090600090600090565b6001600160a01b03166000908152600f602052604081208054829182918291825b8281106137b5575050506003549160ff8316119060ff82159360081c16119182159282806137ae575b6137a05781613798575b5061378c5781613784575b5061377a5762093a808101809111612ef5576137499042906132e4565b9062278d008101809111612ef5576137629042906132e4565b1115613772576002905b60009190565b60019061376c565b5050600090600290565b90503861372c565b50505050600090600190565b905038613721565b505050505050600190600090565b5080613717565b6137bf8183612ce7565b90549060031b1c62278d008101808211612ef55742106137e3575b506001016136ee565b936137ed90612ee6565b9387158015613843575b61383b575b62093a808101808211612ef5574210156137da579461381a90612ee6565b9486158015613832575b156137da57955060016137da565b50868110613824565b9650866137fc565b508781106137f7565b1561385357565b60405162461bcd60e51b815260206004820152603660248201527f4d697373696f6e466163746f72793a2063616c6c6572206973206e6f742061206044820152751d985b1a59081b5a5cdcda5bdb8818dbdb9d1c9858dd60521b6064820152608490fd5b6000546001600160a01b031633036138cb57565b63118cdaa760e01b6000523360045260246000fd5b6002600154146138f1576002600155565b633ee5aeb560e01b60005260046000fd5b600080546001600160a01b039283166001600160a01b03198216811783559216907f8be0079c531659141344cd1fd0a4f28419497f9722a3daafe3b4186f6b6457e09080a3565b6007811015612b4d5760018114613a7357600060028214613a46575060038114613a20576000600482146139fa5750600581146139d5576006600091146139af5750604051613999604082612dd4565b6006815265437573746f6d60d01b602082015290565b506040516139be604082612dd4565b60078152664d6f6e74686c7960c81b602082015290565b506040516139e4604082612dd4565b60068152655765656b6c7960d01b602082015290565b50506040805190613a0b9082612dd4565b60058152644461696c7960d81b602082015290565b50604051613a2f604082612dd4565b600781526642694461696c7960c81b602082015290565b50506040805190613a579082612dd4565b600c81526b517561727465724461696c7960a01b602082015290565b50604051613a82604082612dd4565b6006815265486f75726c7960d01b60208201529056fea2646970667358221220ffb580fc005c8ea7b3f3148b4f5e4b6b3c1694ce5ea774f49e3d5cdc171a97c564736f6c634300081e0033",
  "linkReferences": {},
  "deployedLinkReferences": {}
}