{
  "_format": "hh-sol-artifact-1",
  "contractName": "MissionFactory",
  "sourceName": "contracts/MissionFactory.sol",
  "abi": [
    {
      "inputs": [
        {
          "internalType": "address",
          "name": "_impl",
          "type": "address"
        }
      ],
      "stateMutability": "nonpayable",
      "type": "constructor"
    },
    {
      "inputs": [],
      "name": "FailedDeployment",
      "type": "error"
    },
    {
      "inputs": [
        {
          "internalType": "uint256",
          "name": "balance",
          "type": "uint256"
        },
        {
          "internalType": "uint256",
          "name": "needed",
          "type": "uint256"
        }
      ],
      "name": "InsufficientBalance",
      "type": "error"
    },
    {
      "inputs": [
        {
          "internalType": "address",
          "name": "owner",
          "type": "address"
        }
      ],
      "name": "OwnableInvalidOwner",
      "type": "error"
    },
    {
      "inputs": [
        {
          "internalType": "address",
          "name": "account",
          "type": "address"
        }
      ],
      "name": "OwnableUnauthorizedAccount",
      "type": "error"
    },
    {
      "inputs": [],
      "name": "ReentrancyGuardReentrantCall",
      "type": "error"
    },
    {
      "anonymous": false,
      "inputs": [
        {
          "indexed": true,
          "internalType": "address",
          "name": "addr",
          "type": "address"
        }
      ],
      "name": "AuthorizedAddressAdded",
      "type": "event"
    },
    {
      "anonymous": false,
      "inputs": [
        {
          "indexed": true,
          "internalType": "address",
          "name": "addr",
          "type": "address"
        }
      ],
      "name": "AuthorizedAddressRemoved",
      "type": "event"
    },
    {
      "anonymous": false,
      "inputs": [
        {
          "indexed": true,
          "internalType": "address",
          "name": "mission",
          "type": "address"
        },
        {
          "indexed": false,
          "internalType": "string",
          "name": "name",
          "type": "string"
        },
        {
          "indexed": false,
          "internalType": "enum MissionType",
          "name": "missionType",
          "type": "uint8"
        },
        {
          "indexed": false,
          "internalType": "uint256",
          "name": "enrollmentStart",
          "type": "uint256"
        },
        {
          "indexed": false,
          "internalType": "uint256",
          "name": "enrollmentEnd",
          "type": "uint256"
        },
        {
          "indexed": false,
          "internalType": "uint8",
          "name": "minPlayers",
          "type": "uint8"
        },
        {
          "indexed": false,
          "internalType": "uint8",
          "name": "maxPlayers",
          "type": "uint8"
        },
        {
          "indexed": false,
          "internalType": "uint8",
          "name": "roundPauseDuration",
          "type": "uint8"
        },
        {
          "indexed": false,
          "internalType": "uint8",
          "name": "lastRoundPauseDuration",
          "type": "uint8"
        },
        {
          "indexed": false,
          "internalType": "uint256",
          "name": "enrollmentAmount",
          "type": "uint256"
        },
        {
          "indexed": false,
          "internalType": "uint256",
          "name": "missionStart",
          "type": "uint256"
        },
        {
          "indexed": false,
          "internalType": "uint256",
          "name": "missionEnd",
          "type": "uint256"
        },
        {
          "indexed": false,
          "internalType": "uint8",
          "name": "missionRounds",
          "type": "uint8"
        },
        {
          "indexed": false,
          "internalType": "address",
          "name": "creator",
          "type": "address"
        }
      ],
      "name": "MissionCreated",
      "type": "event"
    },
    {
      "anonymous": false,
      "inputs": [
        {
          "indexed": true,
          "internalType": "address",
          "name": "mission",
          "type": "address"
        },
        {
          "indexed": true,
          "internalType": "uint8",
          "name": "finalStatus",
          "type": "uint8"
        },
        {
          "indexed": false,
          "internalType": "uint256",
          "name": "timestamp",
          "type": "uint256"
        }
      ],
      "name": "MissionFinalized",
      "type": "event"
    },
    {
      "anonymous": false,
      "inputs": [
        {
          "indexed": true,
          "internalType": "address",
          "name": "mission",
          "type": "address"
        },
        {
          "indexed": true,
          "internalType": "uint8",
          "name": "fromStatus",
          "type": "uint8"
        },
        {
          "indexed": true,
          "internalType": "uint8",
          "name": "toStatus",
          "type": "uint8"
        },
        {
          "indexed": false,
          "internalType": "uint256",
          "name": "timestamp",
          "type": "uint256"
        }
      ],
      "name": "MissionStatusUpdated",
      "type": "event"
    },
    {
      "anonymous": false,
      "inputs": [
        {
          "indexed": true,
          "internalType": "address",
          "name": "confirmer",
          "type": "address"
        },
        {
          "indexed": false,
          "internalType": "address",
          "name": "newOwner",
          "type": "address"
        },
        {
          "indexed": false,
          "internalType": "uint256",
          "name": "timestamp",
          "type": "uint256"
        }
      ],
      "name": "OwnershipTransferConfirmed",
      "type": "event"
    },
    {
      "anonymous": false,
      "inputs": [
        {
          "indexed": true,
          "internalType": "address",
          "name": "proposer",
          "type": "address"
        },
        {
          "indexed": false,
          "internalType": "address",
          "name": "newOwner",
          "type": "address"
        },
        {
          "indexed": false,
          "internalType": "uint256",
          "name": "timestamp",
          "type": "uint256"
        }
      ],
      "name": "OwnershipTransferProposed",
      "type": "event"
    },
    {
      "anonymous": false,
      "inputs": [
        {
          "indexed": true,
          "internalType": "address",
          "name": "previousOwner",
          "type": "address"
        },
        {
          "indexed": true,
          "internalType": "address",
          "name": "newOwner",
          "type": "address"
        }
      ],
      "name": "OwnershipTransferred",
      "type": "event"
    },
    {
      "stateMutability": "payable",
      "type": "fallback"
    },
    {
      "inputs": [],
      "name": "OWNERSHIP_PROPOSAL_WINDOW",
      "outputs": [
        {
          "internalType": "uint256",
          "name": "",
          "type": "uint256"
        }
      ],
      "stateMutability": "view",
      "type": "function"
    },
    {
      "inputs": [
        {
          "internalType": "address",
          "name": "account",
          "type": "address"
        }
      ],
      "name": "addAuthorizedAddress",
      "outputs": [],
      "stateMutability": "nonpayable",
      "type": "function"
    },
    {
      "inputs": [
        {
          "internalType": "address",
          "name": "",
          "type": "address"
        }
      ],
      "name": "authorized",
      "outputs": [
        {
          "internalType": "bool",
          "name": "",
          "type": "bool"
        }
      ],
      "stateMutability": "view",
      "type": "function"
    },
    {
      "inputs": [
        {
          "internalType": "address",
          "name": "user",
          "type": "address"
        }
      ],
      "name": "canEnroll",
      "outputs": [
        {
          "internalType": "bool",
          "name": "ok",
          "type": "bool"
        },
        {
          "internalType": "enum Limit",
          "name": "breach",
          "type": "uint8"
        }
      ],
      "stateMutability": "view",
      "type": "function"
    },
    {
      "inputs": [],
      "name": "confirmOwnershipTransfer",
      "outputs": [],
      "stateMutability": "nonpayable",
      "type": "function"
    },
    {
      "inputs": [
        {
          "internalType": "enum MissionType",
          "name": "_missionType",
          "type": "uint8"
        },
        {
          "internalType": "uint256",
          "name": "_enrollmentStart",
          "type": "uint256"
        },
        {
          "internalType": "uint256",
          "name": "_enrollmentEnd",
          "type": "uint256"
        },
        {
          "internalType": "uint256",
          "name": "_enrollmentAmount",
          "type": "uint256"
        },
        {
          "internalType": "uint8",
          "name": "_enrollmentMinPlayers",
          "type": "uint8"
        },
        {
          "internalType": "uint8",
          "name": "_enrollmentMaxPlayers",
          "type": "uint8"
        },
        {
          "internalType": "uint8",
          "name": "_roundPauseDuration",
          "type": "uint8"
        },
        {
          "internalType": "uint8",
          "name": "_lastRoundPauseDuration",
          "type": "uint8"
        },
        {
          "internalType": "uint256",
          "name": "_missionStart",
          "type": "uint256"
        },
        {
          "internalType": "uint256",
          "name": "_missionEnd",
          "type": "uint256"
        },
        {
          "internalType": "uint8",
          "name": "_missionRounds",
          "type": "uint8"
        },
        {
          "internalType": "string",
          "name": "_missionName",
          "type": "string"
        },
        {
          "internalType": "bytes32",
          "name": "_pinHash",
          "type": "bytes32"
        },
        {
          "internalType": "address",
          "name": "_creator",
          "type": "address"
        }
      ],
      "name": "createMission",
      "outputs": [
        {
          "internalType": "address",
          "name": "",
          "type": "address"
        },
        {
          "internalType": "string",
          "name": "",
          "type": "string"
        }
      ],
      "stateMutability": "payable",
      "type": "function"
    },
    {
      "inputs": [],
      "name": "getAllMissions",
      "outputs": [
        {
          "components": [
            {
              "internalType": "enum Status",
              "name": "status",
              "type": "uint8"
            },
            {
              "internalType": "uint256",
              "name": "missionCreated",
              "type": "uint256"
            },
            {
              "internalType": "string",
              "name": "name",
              "type": "string"
            },
            {
              "internalType": "enum MissionType",
              "name": "missionType",
              "type": "uint8"
            },
            {
              "internalType": "uint8",
              "name": "missionRounds",
              "type": "uint8"
            },
            {
              "internalType": "uint8",
              "name": "roundPauseDuration",
              "type": "uint8"
            },
            {
              "internalType": "uint8",
              "name": "lastRoundPauseDuration",
              "type": "uint8"
            },
            {
              "internalType": "uint256",
              "name": "croInitial",
              "type": "uint256"
            },
            {
              "internalType": "uint256",
              "name": "croStart",
              "type": "uint256"
            },
            {
              "internalType": "uint256",
              "name": "croCurrent",
              "type": "uint256"
            },
            {
              "internalType": "uint256",
              "name": "enrollmentAmount",
              "type": "uint256"
            },
            {
              "internalType": "uint8",
              "name": "enrollmentMinPlayers",
              "type": "uint8"
            },
            {
              "internalType": "uint8",
              "name": "enrollmentMaxPlayers",
              "type": "uint8"
            },
            {
              "internalType": "uint256",
              "name": "enrollmentStart",
              "type": "uint256"
            },
            {
              "internalType": "uint256",
              "name": "enrollmentEnd",
              "type": "uint256"
            },
            {
              "internalType": "uint256",
              "name": "missionStart",
              "type": "uint256"
            },
            {
              "internalType": "uint256",
              "name": "missionEnd",
              "type": "uint256"
            },
            {
              "components": [
                {
                  "internalType": "address",
                  "name": "player",
                  "type": "address"
                },
                {
                  "internalType": "uint256",
                  "name": "enrolledTS",
                  "type": "uint256"
                },
                {
                  "internalType": "uint256",
                  "name": "amountWon",
                  "type": "uint256"
                },
                {
                  "internalType": "uint256",
                  "name": "wonTS",
                  "type": "uint256"
                },
                {
                  "internalType": "bool",
                  "name": "refunded",
                  "type": "bool"
                },
                {
                  "internalType": "bool",
                  "name": "refundFailed",
                  "type": "bool"
                },
                {
                  "internalType": "uint256",
                  "name": "refundTS",
                  "type": "uint256"
                }
              ],
              "internalType": "struct Mission.Players[]",
              "name": "players",
              "type": "tuple[]"
            },
            {
              "internalType": "uint8",
              "name": "enrollmentCount",
              "type": "uint8"
            },
            {
              "internalType": "uint8",
              "name": "roundCount",
              "type": "uint8"
            },
            {
              "internalType": "uint256",
              "name": "pauseTimestamp",
              "type": "uint256"
            },
            {
              "internalType": "bool",
              "name": "allRefunded",
              "type": "bool"
            },
            {
              "internalType": "address",
              "name": "creator",
              "type": "address"
            }
          ],
          "internalType": "struct Mission.MissionData[]",
          "name": "",
          "type": "tuple[]"
        }
      ],
      "stateMutability": "view",
      "type": "function"
    },
    {
      "inputs": [
        {
          "internalType": "uint64",
          "name": "lastSeq",
          "type": "uint64"
        }
      ],
      "name": "getChangesAfter",
      "outputs": [
        {
          "internalType": "address[]",
          "name": "m",
          "type": "address[]"
        },
        {
          "internalType": "uint40[]",
          "name": "timestamps",
          "type": "uint40[]"
        },
        {
          "internalType": "uint64[]",
          "name": "seqs",
          "type": "uint64[]"
        },
        {
          "internalType": "uint8[]",
          "name": "statuses",
          "type": "uint8[]"
        }
      ],
      "stateMutability": "view",
      "type": "function"
    },
    {
      "inputs": [],
      "name": "getFactorySummary",
      "outputs": [
        {
          "internalType": "address",
          "name": "ownerAddress",
          "type": "address"
        },
        {
          "internalType": "address",
          "name": "factoryAddress",
          "type": "address"
        },
        {
          "internalType": "address",
          "name": "implementation",
          "type": "address"
        },
        {
          "internalType": "uint256",
          "name": "totalMissions",
          "type": "uint256"
        },
        {
          "internalType": "uint256",
          "name": "weekly",
          "type": "uint256"
        },
        {
          "internalType": "uint256",
          "name": "monthly",
          "type": "uint256"
        },
        {
          "internalType": "uint256",
          "name": "missionFunds",
          "type": "uint256"
        },
        {
          "internalType": "uint256",
          "name": "ownerFunds",
          "type": "uint256"
        },
        {
          "internalType": "uint256",
          "name": "successes",
          "type": "uint256"
        },
        {
          "internalType": "uint256",
          "name": "failures",
          "type": "uint256"
        },
        {
          "internalType": "uint256[]",
          "name": "fundsPerTypeArray",
          "type": "uint256[]"
        }
      ],
      "stateMutability": "view",
      "type": "function"
    },
    {
      "inputs": [
        {
          "internalType": "enum MissionType",
          "name": "_type",
          "type": "uint8"
        }
      ],
      "name": "getFundsByType",
      "outputs": [
        {
          "internalType": "uint256",
          "name": "",
          "type": "uint256"
        }
      ],
      "stateMutability": "view",
      "type": "function"
    },
    {
      "inputs": [
        {
          "internalType": "uint256",
          "name": "n",
          "type": "uint256"
        }
      ],
      "name": "getLatestMissions",
      "outputs": [
        {
          "components": [
            {
              "internalType": "enum Status",
              "name": "status",
              "type": "uint8"
            },
            {
              "internalType": "uint256",
              "name": "missionCreated",
              "type": "uint256"
            },
            {
              "internalType": "string",
              "name": "name",
              "type": "string"
            },
            {
              "internalType": "enum MissionType",
              "name": "missionType",
              "type": "uint8"
            },
            {
              "internalType": "uint8",
              "name": "missionRounds",
              "type": "uint8"
            },
            {
              "internalType": "uint8",
              "name": "roundPauseDuration",
              "type": "uint8"
            },
            {
              "internalType": "uint8",
              "name": "lastRoundPauseDuration",
              "type": "uint8"
            },
            {
              "internalType": "uint256",
              "name": "croInitial",
              "type": "uint256"
            },
            {
              "internalType": "uint256",
              "name": "croStart",
              "type": "uint256"
            },
            {
              "internalType": "uint256",
              "name": "croCurrent",
              "type": "uint256"
            },
            {
              "internalType": "uint256",
              "name": "enrollmentAmount",
              "type": "uint256"
            },
            {
              "internalType": "uint8",
              "name": "enrollmentMinPlayers",
              "type": "uint8"
            },
            {
              "internalType": "uint8",
              "name": "enrollmentMaxPlayers",
              "type": "uint8"
            },
            {
              "internalType": "uint256",
              "name": "enrollmentStart",
              "type": "uint256"
            },
            {
              "internalType": "uint256",
              "name": "enrollmentEnd",
              "type": "uint256"
            },
            {
              "internalType": "uint256",
              "name": "missionStart",
              "type": "uint256"
            },
            {
              "internalType": "uint256",
              "name": "missionEnd",
              "type": "uint256"
            },
            {
              "components": [
                {
                  "internalType": "address",
                  "name": "player",
                  "type": "address"
                },
                {
                  "internalType": "uint256",
                  "name": "enrolledTS",
                  "type": "uint256"
                },
                {
                  "internalType": "uint256",
                  "name": "amountWon",
                  "type": "uint256"
                },
                {
                  "internalType": "uint256",
                  "name": "wonTS",
                  "type": "uint256"
                },
                {
                  "internalType": "bool",
                  "name": "refunded",
                  "type": "bool"
                },
                {
                  "internalType": "bool",
                  "name": "refundFailed",
                  "type": "bool"
                },
                {
                  "internalType": "uint256",
                  "name": "refundTS",
                  "type": "uint256"
                }
              ],
              "internalType": "struct Mission.Players[]",
              "name": "players",
              "type": "tuple[]"
            },
            {
              "internalType": "uint8",
              "name": "enrollmentCount",
              "type": "uint8"
            },
            {
              "internalType": "uint8",
              "name": "roundCount",
              "type": "uint8"
            },
            {
              "internalType": "uint256",
              "name": "pauseTimestamp",
              "type": "uint256"
            },
            {
              "internalType": "bool",
              "name": "allRefunded",
              "type": "bool"
            },
            {
              "internalType": "address",
              "name": "creator",
              "type": "address"
            }
          ],
          "internalType": "struct Mission.MissionData[]",
          "name": "",
          "type": "tuple[]"
        }
      ],
      "stateMutability": "view",
      "type": "function"
    },
    {
      "inputs": [
        {
          "internalType": "address",
          "name": "missionAddress",
          "type": "address"
        }
      ],
      "name": "getMissionData",
      "outputs": [
        {
          "components": [
            {
              "internalType": "enum Status",
              "name": "status",
              "type": "uint8"
            },
            {
              "internalType": "uint256",
              "name": "missionCreated",
              "type": "uint256"
            },
            {
              "internalType": "string",
              "name": "name",
              "type": "string"
            },
            {
              "internalType": "enum MissionType",
              "name": "missionType",
              "type": "uint8"
            },
            {
              "internalType": "uint8",
              "name": "missionRounds",
              "type": "uint8"
            },
            {
              "internalType": "uint8",
              "name": "roundPauseDuration",
              "type": "uint8"
            },
            {
              "internalType": "uint8",
              "name": "lastRoundPauseDuration",
              "type": "uint8"
            },
            {
              "internalType": "uint256",
              "name": "croInitial",
              "type": "uint256"
            },
            {
              "internalType": "uint256",
              "name": "croStart",
              "type": "uint256"
            },
            {
              "internalType": "uint256",
              "name": "croCurrent",
              "type": "uint256"
            },
            {
              "internalType": "uint256",
              "name": "enrollmentAmount",
              "type": "uint256"
            },
            {
              "internalType": "uint8",
              "name": "enrollmentMinPlayers",
              "type": "uint8"
            },
            {
              "internalType": "uint8",
              "name": "enrollmentMaxPlayers",
              "type": "uint8"
            },
            {
              "internalType": "uint256",
              "name": "enrollmentStart",
              "type": "uint256"
            },
            {
              "internalType": "uint256",
              "name": "enrollmentEnd",
              "type": "uint256"
            },
            {
              "internalType": "uint256",
              "name": "missionStart",
              "type": "uint256"
            },
            {
              "internalType": "uint256",
              "name": "missionEnd",
              "type": "uint256"
            },
            {
              "components": [
                {
                  "internalType": "address",
                  "name": "player",
                  "type": "address"
                },
                {
                  "internalType": "uint256",
                  "name": "enrolledTS",
                  "type": "uint256"
                },
                {
                  "internalType": "uint256",
                  "name": "amountWon",
                  "type": "uint256"
                },
                {
                  "internalType": "uint256",
                  "name": "wonTS",
                  "type": "uint256"
                },
                {
                  "internalType": "bool",
                  "name": "refunded",
                  "type": "bool"
                },
                {
                  "internalType": "bool",
                  "name": "refundFailed",
                  "type": "bool"
                },
                {
                  "internalType": "uint256",
                  "name": "refundTS",
                  "type": "uint256"
                }
              ],
              "internalType": "struct Mission.Players[]",
              "name": "players",
              "type": "tuple[]"
            },
            {
              "internalType": "uint8",
              "name": "enrollmentCount",
              "type": "uint8"
            },
            {
              "internalType": "uint8",
              "name": "roundCount",
              "type": "uint8"
            },
            {
              "internalType": "uint256",
              "name": "pauseTimestamp",
              "type": "uint256"
            },
            {
              "internalType": "bool",
              "name": "allRefunded",
              "type": "bool"
            },
            {
              "internalType": "address",
              "name": "creator",
              "type": "address"
            }
          ],
          "internalType": "struct Mission.MissionData",
          "name": "",
          "type": "tuple"
        }
      ],
      "stateMutability": "view",
      "type": "function"
    },
    {
      "inputs": [
        {
          "internalType": "enum Status",
          "name": "s",
          "type": "uint8"
        }
      ],
      "name": "getMissionsByStatus",
      "outputs": [
        {
          "components": [
            {
              "internalType": "enum Status",
              "name": "status",
              "type": "uint8"
            },
            {
              "internalType": "uint256",
              "name": "missionCreated",
              "type": "uint256"
            },
            {
              "internalType": "string",
              "name": "name",
              "type": "string"
            },
            {
              "internalType": "enum MissionType",
              "name": "missionType",
              "type": "uint8"
            },
            {
              "internalType": "uint8",
              "name": "missionRounds",
              "type": "uint8"
            },
            {
              "internalType": "uint8",
              "name": "roundPauseDuration",
              "type": "uint8"
            },
            {
              "internalType": "uint8",
              "name": "lastRoundPauseDuration",
              "type": "uint8"
            },
            {
              "internalType": "uint256",
              "name": "croInitial",
              "type": "uint256"
            },
            {
              "internalType": "uint256",
              "name": "croStart",
              "type": "uint256"
            },
            {
              "internalType": "uint256",
              "name": "croCurrent",
              "type": "uint256"
            },
            {
              "internalType": "uint256",
              "name": "enrollmentAmount",
              "type": "uint256"
            },
            {
              "internalType": "uint8",
              "name": "enrollmentMinPlayers",
              "type": "uint8"
            },
            {
              "internalType": "uint8",
              "name": "enrollmentMaxPlayers",
              "type": "uint8"
            },
            {
              "internalType": "uint256",
              "name": "enrollmentStart",
              "type": "uint256"
            },
            {
              "internalType": "uint256",
              "name": "enrollmentEnd",
              "type": "uint256"
            },
            {
              "internalType": "uint256",
              "name": "missionStart",
              "type": "uint256"
            },
            {
              "internalType": "uint256",
              "name": "missionEnd",
              "type": "uint256"
            },
            {
              "components": [
                {
                  "internalType": "address",
                  "name": "player",
                  "type": "address"
                },
                {
                  "internalType": "uint256",
                  "name": "enrolledTS",
                  "type": "uint256"
                },
                {
                  "internalType": "uint256",
                  "name": "amountWon",
                  "type": "uint256"
                },
                {
                  "internalType": "uint256",
                  "name": "wonTS",
                  "type": "uint256"
                },
                {
                  "internalType": "bool",
                  "name": "refunded",
                  "type": "bool"
                },
                {
                  "internalType": "bool",
                  "name": "refundFailed",
                  "type": "bool"
                },
                {
                  "internalType": "uint256",
                  "name": "refundTS",
                  "type": "uint256"
                }
              ],
              "internalType": "struct Mission.Players[]",
              "name": "players",
              "type": "tuple[]"
            },
            {
              "internalType": "uint8",
              "name": "enrollmentCount",
              "type": "uint8"
            },
            {
              "internalType": "uint8",
              "name": "roundCount",
              "type": "uint8"
            },
            {
              "internalType": "uint256",
              "name": "pauseTimestamp",
              "type": "uint256"
            },
            {
              "internalType": "bool",
              "name": "allRefunded",
              "type": "bool"
            },
            {
              "internalType": "address",
              "name": "creator",
              "type": "address"
            }
          ],
          "internalType": "struct Mission.MissionData[]",
          "name": "",
          "type": "tuple[]"
        }
      ],
      "stateMutability": "view",
      "type": "function"
    },
    {
      "inputs": [],
      "name": "getMissionsEnded",
      "outputs": [
        {
          "components": [
            {
              "internalType": "enum Status",
              "name": "status",
              "type": "uint8"
            },
            {
              "internalType": "uint256",
              "name": "missionCreated",
              "type": "uint256"
            },
            {
              "internalType": "string",
              "name": "name",
              "type": "string"
            },
            {
              "internalType": "enum MissionType",
              "name": "missionType",
              "type": "uint8"
            },
            {
              "internalType": "uint8",
              "name": "missionRounds",
              "type": "uint8"
            },
            {
              "internalType": "uint8",
              "name": "roundPauseDuration",
              "type": "uint8"
            },
            {
              "internalType": "uint8",
              "name": "lastRoundPauseDuration",
              "type": "uint8"
            },
            {
              "internalType": "uint256",
              "name": "croInitial",
              "type": "uint256"
            },
            {
              "internalType": "uint256",
              "name": "croStart",
              "type": "uint256"
            },
            {
              "internalType": "uint256",
              "name": "croCurrent",
              "type": "uint256"
            },
            {
              "internalType": "uint256",
              "name": "enrollmentAmount",
              "type": "uint256"
            },
            {
              "internalType": "uint8",
              "name": "enrollmentMinPlayers",
              "type": "uint8"
            },
            {
              "internalType": "uint8",
              "name": "enrollmentMaxPlayers",
              "type": "uint8"
            },
            {
              "internalType": "uint256",
              "name": "enrollmentStart",
              "type": "uint256"
            },
            {
              "internalType": "uint256",
              "name": "enrollmentEnd",
              "type": "uint256"
            },
            {
              "internalType": "uint256",
              "name": "missionStart",
              "type": "uint256"
            },
            {
              "internalType": "uint256",
              "name": "missionEnd",
              "type": "uint256"
            },
            {
              "components": [
                {
                  "internalType": "address",
                  "name": "player",
                  "type": "address"
                },
                {
                  "internalType": "uint256",
                  "name": "enrolledTS",
                  "type": "uint256"
                },
                {
                  "internalType": "uint256",
                  "name": "amountWon",
                  "type": "uint256"
                },
                {
                  "internalType": "uint256",
                  "name": "wonTS",
                  "type": "uint256"
                },
                {
                  "internalType": "bool",
                  "name": "refunded",
                  "type": "bool"
                },
                {
                  "internalType": "bool",
                  "name": "refundFailed",
                  "type": "bool"
                },
                {
                  "internalType": "uint256",
                  "name": "refundTS",
                  "type": "uint256"
                }
              ],
              "internalType": "struct Mission.Players[]",
              "name": "players",
              "type": "tuple[]"
            },
            {
              "internalType": "uint8",
              "name": "enrollmentCount",
              "type": "uint8"
            },
            {
              "internalType": "uint8",
              "name": "roundCount",
              "type": "uint8"
            },
            {
              "internalType": "uint256",
              "name": "pauseTimestamp",
              "type": "uint256"
            },
            {
              "internalType": "bool",
              "name": "allRefunded",
              "type": "bool"
            },
            {
              "internalType": "address",
              "name": "creator",
              "type": "address"
            }
          ],
          "internalType": "struct Mission.MissionData[]",
          "name": "",
          "type": "tuple[]"
        }
      ],
      "stateMutability": "view",
      "type": "function"
    },
    {
      "inputs": [],
      "name": "getMissionsNotEnded",
      "outputs": [
        {
          "components": [
            {
              "internalType": "enum Status",
              "name": "status",
              "type": "uint8"
            },
            {
              "internalType": "uint256",
              "name": "missionCreated",
              "type": "uint256"
            },
            {
              "internalType": "string",
              "name": "name",
              "type": "string"
            },
            {
              "internalType": "enum MissionType",
              "name": "missionType",
              "type": "uint8"
            },
            {
              "internalType": "uint8",
              "name": "missionRounds",
              "type": "uint8"
            },
            {
              "internalType": "uint8",
              "name": "roundPauseDuration",
              "type": "uint8"
            },
            {
              "internalType": "uint8",
              "name": "lastRoundPauseDuration",
              "type": "uint8"
            },
            {
              "internalType": "uint256",
              "name": "croInitial",
              "type": "uint256"
            },
            {
              "internalType": "uint256",
              "name": "croStart",
              "type": "uint256"
            },
            {
              "internalType": "uint256",
              "name": "croCurrent",
              "type": "uint256"
            },
            {
              "internalType": "uint256",
              "name": "enrollmentAmount",
              "type": "uint256"
            },
            {
              "internalType": "uint8",
              "name": "enrollmentMinPlayers",
              "type": "uint8"
            },
            {
              "internalType": "uint8",
              "name": "enrollmentMaxPlayers",
              "type": "uint8"
            },
            {
              "internalType": "uint256",
              "name": "enrollmentStart",
              "type": "uint256"
            },
            {
              "internalType": "uint256",
              "name": "enrollmentEnd",
              "type": "uint256"
            },
            {
              "internalType": "uint256",
              "name": "missionStart",
              "type": "uint256"
            },
            {
              "internalType": "uint256",
              "name": "missionEnd",
              "type": "uint256"
            },
            {
              "components": [
                {
                  "internalType": "address",
                  "name": "player",
                  "type": "address"
                },
                {
                  "internalType": "uint256",
                  "name": "enrolledTS",
                  "type": "uint256"
                },
                {
                  "internalType": "uint256",
                  "name": "amountWon",
                  "type": "uint256"
                },
                {
                  "internalType": "uint256",
                  "name": "wonTS",
                  "type": "uint256"
                },
                {
                  "internalType": "bool",
                  "name": "refunded",
                  "type": "bool"
                },
                {
                  "internalType": "bool",
                  "name": "refundFailed",
                  "type": "bool"
                },
                {
                  "internalType": "uint256",
                  "name": "refundTS",
                  "type": "uint256"
                }
              ],
              "internalType": "struct Mission.Players[]",
              "name": "players",
              "type": "tuple[]"
            },
            {
              "internalType": "uint8",
              "name": "enrollmentCount",
              "type": "uint8"
            },
            {
              "internalType": "uint8",
              "name": "roundCount",
              "type": "uint8"
            },
            {
              "internalType": "uint256",
              "name": "pauseTimestamp",
              "type": "uint256"
            },
            {
              "internalType": "bool",
              "name": "allRefunded",
              "type": "bool"
            },
            {
              "internalType": "address",
              "name": "creator",
              "type": "address"
            }
          ],
          "internalType": "struct Mission.MissionData[]",
          "name": "",
          "type": "tuple[]"
        }
      ],
      "stateMutability": "view",
      "type": "function"
    },
    {
      "inputs": [],
      "name": "getOwnershipProposal",
      "outputs": [
        {
          "internalType": "address",
          "name": "newOwner",
          "type": "address"
        },
        {
          "internalType": "address",
          "name": "proposer",
          "type": "address"
        },
        {
          "internalType": "uint256",
          "name": "timestamp",
          "type": "uint256"
        },
        {
          "internalType": "uint256",
          "name": "timeLeft",
          "type": "uint256"
        }
      ],
      "stateMutability": "view",
      "type": "function"
    },
    {
      "inputs": [
        {
          "internalType": "address",
          "name": "player",
          "type": "address"
        }
      ],
      "name": "getPlayerLimits",
      "outputs": [
        {
          "internalType": "uint8",
          "name": "weekUsed",
          "type": "uint8"
        },
        {
          "internalType": "uint8",
          "name": "weekMax",
          "type": "uint8"
        },
        {
          "internalType": "uint8",
          "name": "monthUsed",
          "type": "uint8"
        },
        {
          "internalType": "uint8",
          "name": "monthMax",
          "type": "uint8"
        },
        {
          "internalType": "uint256",
          "name": "secToWeek",
          "type": "uint256"
        },
        {
          "internalType": "uint256",
          "name": "secToMonth",
          "type": "uint256"
        }
      ],
      "stateMutability": "view",
      "type": "function"
    },
    {
      "inputs": [
        {
          "internalType": "address",
          "name": "player",
          "type": "address"
        }
      ],
      "name": "getPlayerParticipation",
      "outputs": [
        {
          "internalType": "address[]",
          "name": "",
          "type": "address[]"
        },
        {
          "internalType": "enum Status[]",
          "name": "",
          "type": "uint8[]"
        },
        {
          "internalType": "string[]",
          "name": "",
          "type": "string[]"
        }
      ],
      "stateMutability": "view",
      "type": "function"
    },
    {
      "inputs": [],
      "name": "getTotalMissions",
      "outputs": [
        {
          "internalType": "uint256",
          "name": "",
          "type": "uint256"
        }
      ],
      "stateMutability": "view",
      "type": "function"
    },
    {
      "inputs": [
        {
          "internalType": "address",
          "name": "",
          "type": "address"
        }
      ],
      "name": "isMission",
      "outputs": [
        {
          "internalType": "bool",
          "name": "",
          "type": "bool"
        }
      ],
      "stateMutability": "view",
      "type": "function"
    },
    {
      "inputs": [
        {
          "internalType": "address",
          "name": "",
          "type": "address"
        }
      ],
      "name": "lastUserMissionCreatedAt",
      "outputs": [
        {
          "internalType": "uint256",
          "name": "",
          "type": "uint256"
        }
      ],
      "stateMutability": "view",
      "type": "function"
    },
    {
      "inputs": [],
      "name": "missionImplementation",
      "outputs": [
        {
          "internalType": "address",
          "name": "",
          "type": "address"
        }
      ],
      "stateMutability": "view",
      "type": "function"
    },
    {
      "inputs": [
        {
          "internalType": "address",
          "name": "",
          "type": "address"
        }
      ],
      "name": "missionNames",
      "outputs": [
        {
          "internalType": "string",
          "name": "",
          "type": "string"
        }
      ],
      "stateMutability": "view",
      "type": "function"
    },
    {
      "inputs": [
        {
          "internalType": "address",
          "name": "",
          "type": "address"
        }
      ],
      "name": "missionStatus",
      "outputs": [
        {
          "internalType": "enum Status",
          "name": "",
          "type": "uint8"
        }
      ],
      "stateMutability": "view",
      "type": "function"
    },
    {
      "inputs": [
        {
          "internalType": "enum MissionType",
          "name": "",
          "type": "uint8"
        }
      ],
      "name": "missionTypeCounts",
      "outputs": [
        {
          "internalType": "uint256",
          "name": "",
          "type": "uint256"
        }
      ],
      "stateMutability": "view",
      "type": "function"
    },
    {
      "inputs": [
        {
          "internalType": "uint256",
          "name": "",
          "type": "uint256"
        }
      ],
      "name": "missions",
      "outputs": [
        {
          "internalType": "address",
          "name": "",
          "type": "address"
        }
      ],
      "stateMutability": "view",
      "type": "function"
    },
    {
      "inputs": [],
      "name": "monthlyLimit",
      "outputs": [
        {
          "internalType": "uint8",
          "name": "",
          "type": "uint8"
        }
      ],
      "stateMutability": "view",
      "type": "function"
    },
    {
      "inputs": [],
      "name": "notifyTouched",
      "outputs": [],
      "stateMutability": "nonpayable",
      "type": "function"
    },
    {
      "inputs": [],
      "name": "owner",
      "outputs": [
        {
          "internalType": "address",
          "name": "",
          "type": "address"
        }
      ],
      "stateMutability": "view",
      "type": "function"
    },
    {
      "inputs": [],
      "name": "proposalProposer",
      "outputs": [
        {
          "internalType": "address",
          "name": "",
          "type": "address"
        }
      ],
      "stateMutability": "view",
      "type": "function"
    },
    {
      "inputs": [],
      "name": "proposalTimestamp",
      "outputs": [
        {
          "internalType": "uint256",
          "name": "",
          "type": "uint256"
        }
      ],
      "stateMutability": "view",
      "type": "function"
    },
    {
      "inputs": [
        {
          "internalType": "address",
          "name": "newOwner",
          "type": "address"
        }
      ],
      "name": "proposeOwnershipTransfer",
      "outputs": [],
      "stateMutability": "nonpayable",
      "type": "function"
    },
    {
      "inputs": [],
      "name": "proposedNewOwner",
      "outputs": [
        {
          "internalType": "address",
          "name": "",
          "type": "address"
        }
      ],
      "stateMutability": "view",
      "type": "function"
    },
    {
      "inputs": [
        {
          "internalType": "address",
          "name": "user",
          "type": "address"
        }
      ],
      "name": "recordEnrollment",
      "outputs": [],
      "stateMutability": "nonpayable",
      "type": "function"
    },
    {
      "inputs": [
        {
          "internalType": "enum MissionType",
          "name": "missionType",
          "type": "uint8"
        }
      ],
      "name": "registerMissionFunds",
      "outputs": [],
      "stateMutability": "payable",
      "type": "function"
    },
    {
      "inputs": [
        {
          "internalType": "address",
          "name": "account",
          "type": "address"
        }
      ],
      "name": "removeAuthorizedAddress",
      "outputs": [],
      "stateMutability": "nonpayable",
      "type": "function"
    },
    {
      "inputs": [],
      "name": "renounceOwnership",
      "outputs": [],
      "stateMutability": "nonpayable",
      "type": "function"
    },
    {
      "inputs": [
        {
          "internalType": "enum MissionType",
          "name": "",
          "type": "uint8"
        }
      ],
      "name": "reservedFunds",
      "outputs": [
        {
          "internalType": "uint256",
          "name": "",
          "type": "uint256"
        }
      ],
      "stateMutability": "view",
      "type": "function"
    },
    {
      "inputs": [],
      "name": "reservedFundsBreakdown",
      "outputs": [
        {
          "internalType": "uint256[9]",
          "name": "",
          "type": "uint256[9]"
        }
      ],
      "stateMutability": "view",
      "type": "function"
    },
    {
      "inputs": [
        {
          "internalType": "address",
          "name": "user",
          "type": "address"
        }
      ],
      "name": "secondsTillMonthlySlot",
      "outputs": [
        {
          "internalType": "uint256",
          "name": "",
          "type": "uint256"
        }
      ],
      "stateMutability": "view",
      "type": "function"
    },
    {
      "inputs": [
        {
          "internalType": "address",
          "name": "user",
          "type": "address"
        }
      ],
      "name": "secondsTillWeeklySlot",
      "outputs": [
        {
          "internalType": "uint256",
          "name": "",
          "type": "uint256"
        }
      ],
      "stateMutability": "view",
      "type": "function"
    },
    {
      "inputs": [
        {
          "internalType": "uint8",
          "name": "_weekly",
          "type": "uint8"
        },
        {
          "internalType": "uint8",
          "name": "_monthly",
          "type": "uint8"
        }
      ],
      "name": "setEnrollmentLimits",
      "outputs": [],
      "stateMutability": "nonpayable",
      "type": "function"
    },
    {
      "inputs": [
        {
          "internalType": "enum Status",
          "name": "newStatus",
          "type": "uint8"
        }
      ],
      "name": "setMissionStatus",
      "outputs": [],
      "stateMutability": "nonpayable",
      "type": "function"
    },
    {
      "inputs": [],
      "name": "totalMissionFailures",
      "outputs": [
        {
          "internalType": "uint256",
          "name": "",
          "type": "uint256"
        }
      ],
      "stateMutability": "view",
      "type": "function"
    },
    {
      "inputs": [],
      "name": "totalMissionFunds",
      "outputs": [
        {
          "internalType": "uint256",
          "name": "",
          "type": "uint256"
        }
      ],
      "stateMutability": "view",
      "type": "function"
    },
    {
      "inputs": [],
      "name": "totalMissionSuccesses",
      "outputs": [
        {
          "internalType": "uint256",
          "name": "",
          "type": "uint256"
        }
      ],
      "stateMutability": "view",
      "type": "function"
    },
    {
      "inputs": [],
      "name": "totalOwnerEarnedFunds",
      "outputs": [
        {
          "internalType": "uint256",
          "name": "",
          "type": "uint256"
        }
      ],
      "stateMutability": "view",
      "type": "function"
    },
    {
      "inputs": [
        {
          "internalType": "address",
          "name": "newOwner",
          "type": "address"
        }
      ],
      "name": "transferOwnership",
      "outputs": [],
      "stateMutability": "nonpayable",
      "type": "function"
    },
    {
      "inputs": [
        {
          "internalType": "address",
          "name": "user",
          "type": "address"
        },
        {
          "internalType": "uint256",
          "name": "startTs",
          "type": "uint256"
        },
        {
          "internalType": "uint256",
          "name": "endTs",
          "type": "uint256"
        }
      ],
      "name": "undoEnrollmentInWindow",
      "outputs": [],
      "stateMutability": "nonpayable",
      "type": "function"
    },
    {
      "inputs": [],
      "name": "weeklyLimit",
      "outputs": [
        {
          "internalType": "uint8",
          "name": "",
          "type": "uint8"
        }
      ],
      "stateMutability": "view",
      "type": "function"
    },
    {
      "inputs": [
        {
          "internalType": "uint256",
          "name": "amount",
          "type": "uint256"
        }
      ],
      "name": "withdrawFunds",
      "outputs": [],
      "stateMutability": "nonpayable",
      "type": "function"
    },
    {
      "stateMutability": "payable",
      "type": "receive"
    }
  ],
  "bytecode": "0x60a03461012557601f61472738819003918201601f19168301916001600160401b0383118484101761012a5780849260209460405283398101031261012557516001600160a01b03811680820361012557331561010f5760008054336001600160a01b0319821681178355604051939290916001600160a01b0316907f8be0079c531659141344cd1fd0a4f28419497f9722a3daafe3b4186f6b6457e09080a360018055610f0761ffff196003541617600355156100e157506080526040516145e69081610141823960805181818161048301528181610bbc01526110960152f35b62461bcd60e51b8152602060048201526009602482015268696d706c207a65726f60b81b6044820152606490fd5b631e4fbdf760e01b600052600060045260246000fd5b600080fd5b634e487b7160e01b600052604160045260246000fdfe6080806040526004361015610011575b005b600090813560e01c90816304a6175214612b2c575080630814ab8214612ae85780630a6005da14612ac45780630fc8c4ed14612a9b578063155dd5ee1461297b5780631e59d5841461295057806320c5718f1461287757806321040fc3146127a15780632c8fe5261461275d5780632d771f30146127345780632e33b07f146109bf5780633589cf7214612716578063370127621461263b5780633a17420d146122ff57806342f1181e146121ee578063503c0b8814611e175780635c5bb6f214611df95780636367972314611ddb5780636740ca8414611da25780636805036d14611d865780636d8a139014611d6a5780637071293914611c8a578063715018a614611c305780637200b82914611adb5780637a07f2d114610efa5780637e9eae5014610ec657806383fbea5114610ea8578063861a68d614610e875780638c09b7c314610e475780638da5cb5b14610e205780639804a58614610de257806398d05c3e14610da2578063a9bea78914610ce4578063aa1f059514610ca5578063b620291314610c7d578063b6de7b4314610c2a578063b918161114610beb578063bd48772514610ba6578063c17f9e59146109f2578063c416ad2a146109bf578063c892fde3146109a1578063cbf2080d1461080e578063d0657019146107df578063d3050eba146107c1578063d41eca6414610747578063d8d6e8ff14610590578063df4db46314610508578063e5047770146103e1578063eff0ab92146102d8578063f08e231e1461029e5763f2fde38b0361000f573461029b57602036600319011261029b57610264612b48565b61026c6137a5565b6001600160a01b038116156102875761028490614185565b80f35b631e4fbdf760e01b82526004829052602482fd5b80fd5b503461029b57602036600319011261029b5760043560098110156102d45781604091602093508152601183522054604051908152f35b5080fd5b503461029b57602036600319011261029b576001600160a01b036102fa612b48565b168152600f6020526040812080548291825b82811061035c575050508161032857602091505b604051908152f35b62093a80820180921161034857506103436020914290613424565b610320565b634e487b7160e01b81526011600452602490fd5b6103668183612e47565b90549060031b1c62093a8081018091116103cd574210610389575b60010161030c565b841580156103b4575b1561038157935060016103a58583612e47565b90549060031b1c949050610381565b50846103c08284612e47565b90549060031b1c10610392565b634e487b7160e01b85526011600452602485fd5b503461029b578060031936011261029b576101406040516104028282612f23565b600981526020810192601f198301368537805b600981101561043c5760019061042a81612fe8565b546104358286613472565b5201610415565b50606092939160018060a01b0382541690610160600254966003546004546005546006549160ff600754946040519d8e9d8e8a81019c815230602082015260018060a01b037f000000000000000000000000000000000000000000000000000000000000000016604082015201528c608083831691015260081c1660a08c015260c08b015260e08a015261010089015261012088015286015251809152610180840192915b8181106104ef575050500390f35b82518452859450602093840193909201916001016104e1565b503461029b578060031936011261029b57610120908160405161052b8282612f23565b3690376040519061053c8383612f23565b82368337805b60098110156105655760019061055781612fe8565b548160051b85015201610542565b506040519190825b6009821061057a57505050f35b602080600192855181520193019101909161056d565b503461029b57602036600319011261029b5760043560088110156102d457338252600c60205260ff604083205416156102d457338252600d60205260ff60408320541690338352600d602052604083209160ff198354169260ff831680941790556105fb82336141f6565b600682149084821561072a57610612600654613431565b6006555b6008821015610716576106e85783906040514281527f0ea143fc1698242668979798ae4ab3fbbece2356edb72793bc92f1c4aca96ca960203392a4839160058114801561070c575b8381156106fc575b5061066f578480f35b826106e85781156106da575b506106cd575b6106b9576040514281527f471602128a67197776b2e0caf0ffdabf9bb93efcca8b7cb74862aa9f63f2347f60203392a3388080808480f35b634e487b7160e01b82526021600452602482fd5b6106d5614357565b610681565b91505060078391143861067b565b634e487b7160e01b85526021600452602485fd5b90506106e8576007811483610666565b508492508161065e565b634e487b7160e01b86526021600452602486fd5b5084600784036106165761073f600754613431565b600755610616565b503461029b57604036600319011261029b5760043560ff81168091036102d4576024359060ff821682036107a75782546001600160a01b0316331480156107ab575b156107a75761ff006003549260081b169161ffff1916171760035580f35b8280fd5b50338352600b60205260ff604084205416610789565b503461029b578060031936011261029b576020604051620151808152f35b503461029b578060031936011261029b57338152600c60205260ff6040822054161561029b57610284336141cc565b503461029b57602036600319011261029b576001600160a01b03610830612b48565b168152600f602052604081208190829083809181908054915b8281106108f6575050506003549480156000146108c4575080915b8061089e575060c09460ff8092945b8160405197168752818316602088015216604086015260081c166060840152608083015260a0820152f35b9062278d008201809211610348575060c09460ff6108be81934290613424565b94610873565b62093a8081018091116108e2576108dc904290613424565b91610864565b634e487b7160e01b82526011600452602482fd5b6109008183612e47565b90549060031b1c62278d00810180821161097c574210610924575b50600101610849565b9561092e90613431565b9585158015610998575b610990575b62093a80810180821161097c5742101561091b579661095b90613431565b9688158015610973575b1561091b579750600161091b565b50888110610965565b634e487b7160e01b86526011600452602486fd5b94508461093d565b50858110610938565b503461029b578060031936011261029b576020600654604051908152f35b503461029b57602036600319011261029b5760043590600982101561029b5760206109e983612fe8565b54604051908152f35b503461029b57602036600319011261029b57610a0c612b48565b338252600c60205260ff604083205416156102d457338252600d60205260ff6040832054166008811015610b92576001036102d45762278cff19420190428211610b7e576001600160a01b03168252600f60205260408220805491835b83811080610b65575b15610a8557610a8090613431565b610a69565b82859180610ae6575b50805490600160401b821015610ad25781610ab1916001610ac994018155612e47565b429082549060031b91821b91600019901b1916179055565b610284336141cc565b634e487b7160e01b83526041600452602483fd5b825b610af3828454613424565b811015610b435780610b3d610b13610b0d85600195613401565b86612e47565b90549060031b1c610b248387612e47565b90919082549060031b91821b91600019901b1916179055565b01610ae8565b50825b818110610b535750610a8e565b600190610b5f846136a4565b01610b46565b5081610b718285612e47565b90549060031b1c10610a72565b634e487b7160e01b83526011600452602483fd5b634e487b7160e01b83526021600452602483fd5b503461029b578060031936011261029b576040517f00000000000000000000000000000000000000000000000000000000000000006001600160a01b03168152602090f35b503461029b57602036600319011261029b5760209060ff906040906001600160a01b03610c16612b48565b168152600b84522054166040519015158152f35b503461029b57602036600319011261029b57610c7990610c65906040906001600160a01b03610c57612b48565b168152601060205220612f44565b604051918291602083526020830190612ba9565b0390f35b503461029b578060031936011261029b57610c79610c99613fae565b60405191829182612d9b565b503461029b57602036600319011261029b5760209060ff906040906001600160a01b03610cd0612b48565b168152600c84522054166040519015158152f35b50602036600319011261029b5760043560098110156102d457338252600c60205260ff604083205416156102d457610d1a6137ce565b338252600d60205260ff6040832054166008811015610b92576006148015610d80575b156102d457610d4b90612fe8565b610d56348254613401565b9055610d6434600454613401565b600455610d7660033404600554613401565b6005556001805580f35b50338252600d60205260ff6040832054166008811015610b9257600714610d3d565b503461029b57606036600319011261029b57610dbc612b48565b338252600c60205260ff604083205416156102d4576102849060443590602435906136e3565b503461029b57602036600319011261029b57610e04610dff612b48565b613525565b60405191151582526003811015610b9257604092506020820152f35b503461029b578060031936011261029b57546040516001600160a01b039091168152602090f35b503461029b578060031936011261029b576080610e626134b4565b604080516001600160a01b039586168152949093166020850152918301526060820152f35b503461029b578060031936011261029b57602060ff60035416604051908152f35b503461029b578060031936011261029b576020600754604051908152f35b503461029b57602036600319011261029b57610c79610c99600435600254808211610ef2575b50613df7565b905083610eec565b506101c036600319011261029b576009600435101561029b5760843560ff811681036102d45760a43560ff811681036107a75760c4359160ff831683036114ca5760e4359060ff82168203611ad757610144359260ff84168403611ad3576001600160401b036101643511611ad35736602361016435011215611ad3576001600160401b03610164356004013511611ad357366024610164356004013561016435010111611ad3576101a435936001600160a01b0385168503611ab95786546001600160a01b031633148015611abd575b15611ab957610fd86137ce565b8693600760043514808015611aaa575b1561198057600260ff84161061195057600360ff86161061191b57601960ff8516116118e55760001960ff86160160ff81116118d15760ff1660ff8416116118985760016064351061186a578561185657156117a5576101843515611775575b604435610104351061173b576101043561012435111561170757603c60ff8816106116c257603c60ff82161061167d576044356024351015611644576e5af43d82803e903d91602b57fd5bf37f0000000000000000000000000000000000000000000000000000000000000000763d602d80600a3d3981f3363d3d373d3d3d363d7300000062ffffff8260881c16178a5260781b176020526037600989f0966001600160a01b0388161561163557610164356004013515611600576001600160a01b038816808a52600c60209081526040808c20805460ff19908116600117909155838d52600d8352818d2080549091169055918b52601090528920805461114f90612e9c565b601f81116115b6575b5089601f61016435600401351160011461152b578a90610164356004013561151a575b50610164356004013560011b90600019610164356004013560031b1c19161790555b88546001600160a01b039081169089163b15611516576040519063c7fe98f560e01b825260048201523060248201526111db60448201600435612bce565b6024356064820152604435608482015260643560a482015260ff861660c482015260ff851660e482015260ff821661010482015260ff8316610124820152610104356101448201526101243561016482015260ff84166101848201526102006101a482015289818061125f6102048201610164356004013560246101643501613493565b610184356101c48301526001600160a01b038c81166101e484015291900390829034908e165af1801561150b576114f7575b50600254600160401b8110156114e35760ff92837fa3762b212d264a160590ad73a0d2d39787a5a93c4d70bec3dfb385bdffc2863a9695936113048c6112e08660018698016002556002612e47565b81546001600160a01b0393841660039290921b91821b9390911b1916919091179055565b81604051976101a089528161132b6101a08b01610164356004013560246101643501613493565b9b61133b60208c01600435612bce565b60243560408c015260443560608c01521660808a01521660a08801521660c08601521660e08401526064356101008401526101043561012084015261012435610140840152166101608201526001600160a01b0385811661018083015286169281900390a2836113ac600435612fe8565b5460021c801515806114d9575b61145f575b5050610b9257600860043514611442575b506113d9816141cc565b6113e96101643560040135613001565b916113f76040519384612f23565b610164356004810135808552906024016020850137602061016435600401358401015260018055610c7960405192839260018060a01b03168352604060208401526040830190612ba9565b6001600160a01b03168252601260205260408220429055386113cf565b61146a600435612fe8565b611475828254613424565b90556001600160a01b0385163b156102d45760405163eb2bab7760e01b8152908290829060049082906001600160a01b038a165af180156114ce57156113be57816114bf91612f23565b6114ca5783386113be565b8380fd5b6040513d84823e3d90fd5b50804710156113b9565b634e487b7160e01b8a52604160045260248afd5b89611504919a929a612f23565b9738611291565b6040513d8c823e3d90fd5b8980fd5b60249150610164350101353861117b565b818b5260208b20908b5b6004610164350135601f1916811061159857506004610164350135601f19811610611571575b505060016101643560040135811b01905561119d565b602460001960f8610164356004013560031b161c199161016435010135169055388061155b565b90916020600181926024866101643501013581550193019101611535565b818b526020808c20906004610164350135601f810160051c830191116115f9575b8c601f840160051c830182106115ef57505050611158565b81556001016115d7565b50806115d7565b60405162461bcd60e51b815260206004820152600d60248201526c4d697373696f6e206e616d653f60981b6044820152606490fd5b63b06ebf3d60e01b8952600489fd5b60405162461bcd60e51b8152602060048201526011602482015270115b9c9bdb1b081cdd185c9d0f8f595b99607a1b6044820152606490fd5b60405162461bcd60e51b815260206004820152601d60248201527f4c61737420726f756e64207061757365206475726174696f6e3c3630730000006044820152606490fd5b60405162461bcd60e51b815260206004820152601860248201527f526f756e64207061757365206475726174696f6e3c36307300000000000000006044820152606490fd5b60405162461bcd60e51b815260206004820152600c60248201526b13481cdd185c9d0f8f595b9960a21b6044820152606490fd5b60405162461bcd60e51b815260206004820152601260248201527113481cdd185c9d0f195b9c9bdb1b08195b9960721b6044820152606490fd5b60405162461bcd60e51b815260206004820152600860248201526770696e486173683f60c01b6044820152606490fd5b6001600160a01b03861615611821576001600160a01b03861688526012602052604088205462015180810190811061180d574210156110485760405162461bcd60e51b815260206004820152600760248201526609ad2dc406468d60cb1b6044820152606490fd5b634e487b7160e01b89526011600452602489fd5b60405162461bcd60e51b815260206004820152600d60248201526c43726561746f7220616464723f60981b6044820152606490fd5b634e487b7160e01b89526021600452602489fd5b60405162461bcd60e51b81526020600482015260066024820152654665653e3d3160d01b6044820152606490fd5b60405162461bcd60e51b8152602060048201526011602482015270526f756e64733c3d6d696e506c61792d3160781b6044820152606490fd5b634e487b7160e01b8a52601160045260248afd5b60405162461bcd60e51b815260206004820152600e60248201526d26b0bc10383630bcb2b9399e191b60911b6044820152606490fd5b60405162461bcd60e51b815260206004820152600d60248201526c26b4b710383630bcb2b9399f1960991b6044820152606490fd5b60405162461bcd60e51b8152602060048201526008602482015267526f756e64733e3160c01b6044820152606490fd5b50600160ff831610611a745760ff821660ff851610611a2f5760ff841660ff8416106119ea57606460ff841611156110485760405162461bcd60e51b815260206004820152601060248201526f06d617820706c61796572733c3d3130360841b6044820152606490fd5b60405162461bcd60e51b815260206004820152601b60248201527f4d617820706c61796572733c6d696e696d756d20706c617965727300000000006044820152606490fd5b60405162461bcd60e51b815260206004820152601860248201527f4d696e20706c61796572733c6d697373696f6e20726e647300000000000000006044820152606490fd5b60405162461bcd60e51b815260206004820152600e60248201526d4d697373696f6e20726e64733c3160901b6044820152606490fd5b50889550600435600814610fe8565b8680fd5b50338752600b60205260ff604088205416610fcb565b8580fd5b8480fd5b503461029b578060031936011261029b5780546001600160a01b031633148015611c1a575b1561029b57600a546001600160a01b03163314611be5576008546201518081018091116108e2574211611bad57600954611b42906001600160a01b0316614185565b600954604080516001600160a01b03909216825242602083015233917fdd72dd33198968a9cdc9b1e5cbff344fb8d04d99f8c15c0a02416b04e857b4679190a26001600160601b0360a01b600954166009556001600160601b0360a01b600a5416600a558060085580f35b60405162461bcd60e51b815260206004820152601060248201526f141c9bdc1bdcd85b08195e1c1a5c995960821b6044820152606490fd5b60405162461bcd60e51b815260206004820152600d60248201526c0853dddb881c1c9bdc1bdcd85b609a1b6044820152606490fd5b50338152600b60205260ff604082205416611b00565b503461029b578060031936011261029b57611c496137a5565b80546001600160a01b03198116825581906001600160a01b03167f8be0079c531659141344cd1fd0a4f28419497f9722a3daafe3b4186f6b6457e08280a380f35b503461029b57602036600319011261029b57611ca4612b48565b81546001600160a01b031633148015611d54575b156102d4576001600160a01b0316611cd18115156133cd565b808252600b60205260ff60408320541615611d2157808252600b60205260408220805460ff191690557f66d5f06f711af3c9feba3203fdb00b51345d514c68585d9d319c5ff5e6f775928280a280f35b60405162461bcd60e51b815260206004820152600b60248201526a08585d5d1a1bdc9a5e995960aa1b6044820152606490fd5b50338252600b60205260ff604083205416611cb8565b503461029b578060031936011261029b57610c79610c99613c42565b503461029b578060031936011261029b57610c79610c99613a50565b503461029b57602036600319011261029b576020906040906001600160a01b03611dca612b48565b168152601283522054604051908152f35b503461029b578060031936011261029b576020600454604051908152f35b503461029b578060031936011261029b576020600254604051908152f35b503461029b57602036600319011261029b57611e31612b48565b600254919081906001600160a01b031683805b6121145750611e5283613440565b93611e5c846130d2565b90611e6a6040519283612f23565b848252611e76856130d2565b602083019390601f1901368537611e8c866130d2565b95611e9a6040519788612f23565b808752611ea9601f19916130d2565b01855b8181106121015750508491805b611f7d57611edb88888888886020604051968796606088526060880190612e5f565b91868303828801525191828152019190835b818110611f56575050508381036040850152825190818152602081016020808460051b840101950193915b838310611f255786860387f35b919395509193602080611f44600193601f198682030187528951612ba9565b97019301930190928695949293611f18565b91939495509160208082611f6d6001948851612b63565b0194019101918695949392611eed565b60001981018181116120ed57611f9290612dfb565b9054604051629c95e160e41b81526004810185905260039290921b1c6001600160a01b031690602081602481855afa9081156120a95788916120b4575b50611fe5575b50611fdf90613486565b80611eb9565b80611ff3858b969496613472565b526040516368c6ba2160e01b8152602081600481855afa9081156120a957889161206b575b506120238387613472565b600882101561185657528652601060205260408620611fdf916120649161204990612f44565b612053828b613472565b5261205e818a613472565b50613431565b9290611fd5565b90506020813d82116120a1575b8161208560209383612f23565b8101031261209d5751600881101561209d5738612018565b8780fd5b3d9150612078565b6040513d8a823e3d90fd5b90506020813d82116120e5575b816120ce60209383612f23565b8101031261209d576120df906130fd565b38611fcf565b3d91506120c1565b634e487b7160e01b87526011600452602487fd5b60606020828a0181019190915201611eac565b92939260001981018181116121da576020612130602492612dfb565b9054604051629c95e160e41b8152600481018790529384929091839160031b1c6001600160a01b03165afa9081156121cf578491612196575b50612181575b61217890613486565b80949394611e44565b9361218e61217891613431565b94905061216f565b90506020813d82116121c7575b816121b060209383612f23565b810103126114ca576121c1906130fd565b38612169565b3d91506121a3565b6040513d86823e3d90fd5b634e487b7160e01b84526011600452602484fd5b503461029b57602036600319011261029b57612208612b48565b81546001600160a01b0316331480156122e9575b156102d4576001600160a01b031680156122bc57808252600b60205260ff60408320541661228257808252600b60205260408220805460ff191660011790557f10ac961f00d5e732ba4dcc2c6fb09bebea0eb9edd2a75c8109775ef288382e678280a280f35b60405162461bcd60e51b8152602060048201526012602482015271105b1c9958591e48185d5d1a1bdc9a5e995960721b6044820152606490fd5b60405162461bcd60e51b8152602060048201526005602482015264616464723f60d81b6044820152606490fd5b50338252600b60205260ff60408320541661221c565b503461029b57602036600319011261029b576004356001600160401b0381168091036102d457906014549181805b8481106125a4575061233e83613440565b92612348816130d2565b6123556040519182612f23565b818152612361826130d2565b602082019190601f1901368337612377836130d2565b906123856040519283612f23565b838252612391846130d2565b602083019890601f1901368a376123c06123aa866130d2565b956123b86040519788612f23565b8087526130d2565b602086019790601f190136893786875b8381106124b45750505050906123f9979392916020604051998a9960808b5260808b0190612e5f565b91898303828b01525191828152019290865b8181106124945750505060209087830360408901525191828152019290845b81811061247257505050602090858303606087015251918281520192915b818110612456575050500390f35b825160ff16845285945060209384019390920191600101612448565b82516001600160401b031685528897506020948501949092019160010161242a565b825164ffffffffff1685528a99506020948501949092019160010161240b565b6124c1819c9a9b9c612e2c565b905460039190911b1c6001600160a01b0316895260166020526040808a2090518d916124ec82612ed6565b8054906001808060a01b0383169182855264ffffffffff602086019460a01c168452015493876001600160401b03861660ff60606040880197838952019760401c16875211612547575b50505050506001019a99989a6123d0565b869364ffffffffff60ff94612599979461256c60019a9b6001600160401b0396613472565b525116612579868d613472565b525116612586848c613472565b525116612593828c613472565b52613431565b91903880808f612536565b6125b18195939495612e2c565b60018060a01b0391549060031b1c168252601660205283604083206001604051916125db83612ed6565b64ffffffffff8154838060a01b038116855260a01c166020840152015490606060ff6001600160401b0384169384604085015260401c1691015211612627575b6001019392919361232d565b93612633600191613431565b94905061261b565b503461029b57602036600319011261029b576001600160a01b0361265d612b48565b168152600f6020526040812080548291825b8281106126a5575050508161268a5760209150604051908152f35b62278d00820180921161034857506103436020914290613424565b6126af8183612e47565b90549060031b1c62278d0081018091116103cd5742106126d2575b60010161266f565b841580156126fd575b156126ca57935060016126ee8583612e47565b90549060031b1c9490506126ca565b50846127098284612e47565b90549060031b1c106126db565b503461029b578060031936011261029b576020600554604051908152f35b503461029b578060031936011261029b57600a546040516001600160a01b039091168152602090f35b503461029b57602036600319011261029b576004359060025482101561029b57602061278883612dfb565b905460405160039290921b1c6001600160a01b03168152f35b503461029b57602036600319011261029b576127bb612b48565b81546001600160a01b031633148015612861575b156102d4576001600160a01b0381166127e98115156133cd565b6001600160601b0360a01b6009541617600955336001600160601b0360a01b600a541617600a55426008557fc29bdbd554e41df97e5c40fc273a09677ac133c245f0064bdffef5cc72176e196040518061285b339442908360209093929193604081019460018060a01b031681520152565b0390a280f35b50338252600b60205260ff6040832054166127cf565b503461029b57602036600319011261029b57612891612b48565b61289961301c565b506001600160a01b0316801561290b578160049160405192838092631f385f7960e21b82525afa9081156114ce5782610c7993926128e8575b5050604051918291602083526020830190612bdb565b61290492503d8091833e6128fc8183612f23565b81019061310a565b38806128d2565b60405162461bcd60e51b815260206004820152601760248201527f496e76616c6964206d697373696f6e20616464726573730000000000000000006044820152606490fd5b503461029b57602036600319011261029b5760043590600882101561029b57610c79610c998361387a565b503461029b57602036600319011261029b576004356129986137a5565b6129a06137ce565b81546001600160a01b0316818115612a6a5715612a62575b478211612a31578280809381935af13d15612a2c573d6129d781613001565b906129e56040519283612f23565b81528260203d92013e5b156129fb576001805580f35b60405162461bcd60e51b815260206004820152600960248201526815160819985a5b195960ba1b6044820152606490fd5b6129ef565b60405162461bcd60e51b81526020600482015260096024820152683e2062616c616e636560b81b6044820152606490fd5b4791506129b8565b60405162461bcd60e51b81526020600482015260096024820152682737ba1037bbb732b960b91b6044820152606490fd5b503461029b578060031936011261029b576009546040516001600160a01b039091168152602090f35b503461029b578060031936011261029b57602060ff60035460081c16604051908152f35b503461029b57602036600319011261029b5760209060ff906040906001600160a01b03612b13612b48565b168152600d8452205416612b2a6040518092612b63565bf35b9050346102d457816003193601126102d4576020906008548152f35b600435906001600160a01b0382168203612b5e57565b600080fd5b906008821015612b705752565b634e487b7160e01b600052602160045260246000fd5b60005b838110612b995750506000910152565b8181015183820152602001612b89565b90602091612bc281518092818552858086019101612b86565b601f01601f1916010190565b906009821015612b705752565b90612be7818351612b63565b60208201516020820152612c0c60408301516102e060408401526102e0830190612ba9565b91612c1f60608201516060840190612bce565b60ff608082015116608083015260ff60a08201511660a083015260ff60c08201511660c083015260e081015160e083015261010081015161010083015261012081015161012083015261014081015161014083015260ff6101608201511661016083015260ff610180820151166101808301526101a08101516101a08301526101c08101516101c08301526101e08101516101e0830152610200810151610200830152610220810151928281036102208401526020808551928381520194019060005b818110612d3a575050508060ff6102406102c09301511661024084015260ff610260820151166102608401526102808101516102808401526102a081015115156102a08401528160018060a01b039101511691015290565b909194602060e060019260c08951858060a01b0381511683528481015185840152604081015160408401526060810151606084015260808101511515608084015260a0810151151560a0840152015160c08201520196019101919091612ce2565b602081016020825282518091526040820191602060408360051b8301019401926000915b838310612dce57505050505090565b9091929394602080612dec600193603f198682030187528951612bdb565b97019301930191939290612dbf565b600254811015612e1657600260005260206000200190600090565b634e487b7160e01b600052603260045260246000fd5b601454811015612e1657601460005260206000200190600090565b8054821015612e165760005260206000200190600090565b906020808351928381520192019060005b818110612e7d5750505090565b82516001600160a01b0316845260209384019390920191600101612e70565b90600182811c92168015612ecc575b6020831014612eb657565b634e487b7160e01b600052602260045260246000fd5b91607f1691612eab565b608081019081106001600160401b03821117612ef157604052565b634e487b7160e01b600052604160045260246000fd5b6102e081019081106001600160401b03821117612ef157604052565b90601f801991011681019081106001600160401b03821117612ef157604052565b9060405191826000825492612f5884612e9c565b8084529360018116908115612fc65750600114612f7f575b50612f7d92500383612f23565b565b90506000929192526020600020906000915b818310612faa575050906020612f7d9282010138612f70565b6020919350806001915483858901015201910190918492612f91565b905060209250612f7d94915060ff191682840152151560051b82010138612f70565b6009811015612b7057600052600e602052604060002090565b6001600160401b038111612ef157601f01601f191660200190565b6040519061302982612f07565b60006102c083828152826020820152606060408201528260608201528260808201528260a08201528260c08201528260e08201528261010082015282610120820152826101408201528261016082015282610180820152826101a0820152826101c0820152826101e0820152826102008201526060610220820152826102408201528261026082015282610280820152826102a08201520152565b519060ff82168203612b5e57565b6001600160401b038111612ef15760051b60200190565b51906001600160a01b0382168203612b5e57565b51908115158203612b5e57565b602081830312612b5e578051906001600160401b038211612b5e57016102e081830312612b5e576040519161313e83612f07565b81516008811015612b5e5783526020820151602084015260408201516001600160401b038111612b5e57820181601f82011215612b5e5780519061318182613001565b9161318f6040519384612f23565b8083528360208284010111612b5e576131ae9160208085019101612b86565b604084015260608201516009811015612b5e5760608401526131d2608083016130c4565b60808401526131e360a083016130c4565b60a08401526131f460c083016130c4565b60c084015260e082015160e084015261010082015161010084015261012082015161012084015261014082015161014084015261323461016083016130c4565b61016084015261324761018083016130c4565b6101808401526101a08201516101a08401526101c08201516101c08401526101e08201516101e08401526102008201516102008401526102208201516001600160401b038111612b5e57820181601f82011215612b5e578051906132aa826130d2565b926132b86040519485612f23565b828452602060e0818601940283010191818311612b5e57602001925b8284106133415750505050613338916102c0916102208501526132fa61024082016130c4565b61024085015261330d61026082016130c4565b61026085015261028081015161028085015261332c6102a082016130fd565b6102a0850152016130e9565b6102c082015290565b60e084830312612b5e576040519060e08201908282106001600160401b03831117612ef15760e092602092604052613378876130e9565b8152828701518382015260408701516040820152606087015160608201526133a2608088016130fd565b60808201526133b360a088016130fd565b60a082015260c087015160c08201528152019301926132d4565b156133d457565b60405162461bcd60e51b8152602060048201526005602482015264416464723f60d81b6044820152606490fd5b9190820180921161340e57565b634e487b7160e01b600052601160045260246000fd5b9190820391821161340e57565b600019811461340e5760010190565b9061344a826130d2565b6134576040519182612f23565b8281528092613468601f19916130d2565b0190602036910137565b8051821015612e165760209160051b010190565b801561340e576000190190565b908060209392818452848401376000828201840152601f01601f1916010190565b6008548015613516576201518081019182821161340e57824210156134fb57600954600a546001600160a01b0390811694911691906134f4904290613424565b9193929190565b600954600a546001600160a01b039182169450169190600090565b50600090600090600090600090565b6001600160a01b03166000908152600f602052604081208054829182918291825b82811061360d575050506003549160ff8316119060ff82159360081c1611918215928280613606575b6135f857816135f0575b506135e457816135dc575b506135d25762093a80810180911161340e576135a1904290613424565b9062278d00810180911161340e576135ba904290613424565b11156135ca576002905b60009190565b6001906135c4565b5050600090600290565b905038613584565b50505050600090600190565b905038613579565b505050505050600190600090565b508061356f565b6136178183612e47565b90549060031b1c62278d00810180821161340e57421061363b575b50600101613546565b9361364590613431565b938715801561369b575b613693575b62093a80810180821161340e57421015613632579461367290613431565b948615801561368a575b156136325795506001613632565b5086811061367c565b965086613654565b5087811061364f565b805480156136cd5760001901906136bb8282612e47565b8154906000199060031b1b1916905555565b634e487b7160e01b600052603160045260246000fd5b6001600160a01b03166000908152600f6020526040902080549291831561379f5760005b848110613715575050505050565b61371f8184612e47565b90549060031b1c84838210159182613794575b505061374057600101613707565b919250509291925b6001810180821161340e5784811015613787579061377d61376c6137829385612e47565b90549060031b1c610b248386612e47565b613431565b613748565b5050612f7d9192506136a4565b111590508438613732565b50505050565b6000546001600160a01b031633036137b957565b63118cdaa760e01b6000523360045260246000fd5b6002600154146137df576002600155565b633ee5aeb560e01b60005260046000fd5b604051906137ff602083612f23565b600080835282815b82811061381357505050565b60209061381e61301c565b82828501015201613807565b90613834826130d2565b6138416040519182612f23565b8281528092613852601f19916130d2565b019060005b82811061386357505050565b60209061386e61301c565b82828501015201613857565b906000916002548015613a4157624f19ff194201914283116103cd5762278cff19420142811161097c576138ad8361382a565b938693805b6138fd575b50505050906138c58261382a565b935b8281106138d357505050565b806138e060019284613472565b516138eb8288613472565b526138f68187613472565b50016138c7565b600019019361390b85612dfb565b905460039190911b1c6001600160a01b0316808952600d602052604089205460ff16906008861015613a07576008821015613a07578990868303613a3757604051631f385f7960e21b8152929190839060049082905afa91821561150b578a92613a1b575b508960606102208401526139ba575b509060019161398e8289613472565b526139998188613472565b50019387806139b2575b6139ad57806138b2565b6138b7565b5084156139a3565b6008811015613a0757600681149081156139fc575b50156139ef5783610200820151105b6139e8573861397f565b50936138b7565b826101e0820151106139de565b6007915014386139cf565b634e487b7160e01b8a52602160045260248afd5b613a309192503d808c833e6128fc8183612f23565b9038613970565b50505093806138b2565b50509050613a4d6137f0565b90565b6000906002548015613c3757624f19ff194201904282116121da5762278cff194201914283116103cd57613a838261382a565b928592805b613ad2575b50505090613a9a8261382a565b935b828110613aa857505050565b80613ab560019284613472565b51613ac08288613472565b52613acb8187613472565b5001613a9c565b6000190192613ae084612dfb565b905460039190911b1c6001600160a01b0316808852600d602052604088205460ff1690888015613c105761185657600882101561185657889082155b15613c0657604051631f385f7960e21b8152929190839060049082905afa918215613bfb578992613bdf575b50886060610220840152613b92575b5090600191613b668288613472565b52613b718187613472565b5001928680613b8a575b613b855780613a88565b613a8d565b508315613b7b565b60088110156118565760068114908115613bd4575b5015613bc75782610200820151105b613bc05738613b57565b5092613a8d565b836101e082015110613bb6565b600791501438613ba7565b613bf49192503d808b833e6128fc8183612f23565b9038613b48565b6040513d8b823e3d90fd5b5050509280613a88565b506008821015611856578890600683148015613c2d575b15613b1c565b5060078314613c27565b509050613a4d6137f0565b6000906002548015613c3757624f19ff194201904282116121da5762278cff194201914283116103cd57613c758261382a565b928592805b613cc4575b50505090613c8c8261382a565b935b828110613c9a57505050565b80613ca760019284613472565b51613cb28288613472565b52613cbd8187613472565b5001613c8e565b6000190192613cd284612dfb565b905460039190911b1c6001600160a01b0316808852600d602052604088205460ff16908815613dea5788611856576008821015612b7057889082155b15613de057604051631f385f7960e21b8152929190839060049082905afa918215613bfb578992613dc4575b50606061022083015260088110156118565760068114908115613db9575b5015613dac5782610200820151105b613da55790600191613d798288613472565b52613d848187613472565b5001928680613d9d575b613d985780613c7a565b613c7f565b508315613d8e565b5092613c7f565b836101e082015110613d67565b600791501438613d58565b613dd99192503d808b833e6128fc8183612f23565b9038613d3a565b5050509280613c7a565b9750600080986001613d0e565b600254600092918115613a4157624f19ff194201904282116103cd5762278cff1942019142831161097c57613e2b8461382a565b928694805b613e7a575b50505050613e428261382a565b935b828110613e5057505050565b80613e5d60019284613472565b51613e688288613472565b52613e738187613472565b5001613e44565b6000190194613e8886612dfb565b905460039190911b1c6001600160a01b0316808952600d602052604089205460ff16908915613fa15789613a07576008821015612b7057899082155b15613f9757604051631f385f7960e21b8152929190839060049082905afa91821561150b578a92613f7b575b50896060610220840152613f2e575b5090600191613f0e8288613472565b52613f198187613472565b500194838614613f295780613e30565b613e35565b6008811015613a075760068114908115613f70575b5015613f635782610200820151105b613f5c5738613eff565b5094613e35565b836101e082015110613f52565b600791501438613f43565b613f909192503d808c833e6128fc8183612f23565b9038613ef0565b5050509480613e30565b9850600080996001613ec4565b6000906002548015613c3757624f19ff194201904282116121da5762278cff194201914283116103cd57613fe18261382a565b928592805b614030575b50505090613ff88261382a565b935b82811061400657505050565b8061401360019284613472565b5161401e8288613472565b526140298187613472565b5001613ffa565b600019019261403e84612dfb565b905460039190911b1c6001600160a01b0316808852600d602052604088205460ff169088156141635788611856576008821015612b7057889082155b1561415957604051631f385f7960e21b8152929190839060049082905afa918215613bfb57899261413d575b508860606102208401526140f0575b50906001916140c48288613472565b526140cf8187613472565b50019286806140e8575b6140e35780613fe6565b613feb565b5083156140d9565b60088110156118565760068114908115614132575b50156141255782610200820151105b61411e57386140b5565b5092613feb565b836101e082015110614114565b600791501438614105565b6141529192503d808b833e6128fc8183612f23565b90386140a6565b5050509280613fe6565b600098506008821015611856578890600683148061407a57506007831461407a565b600080546001600160a01b039283166001600160a01b03198216811783559216907f8be0079c531659141344cd1fd0a4f28419497f9722a3daafe3b4186f6b6457e09080a3565b6001600160a01b0381166000908152600d602052604090205460ff166008811015612b7057612f7d915b601354916001600160401b036001818516011680936001600160401b0319161760135560018060a01b0382169283600052601560205263ffffffff60406000205416916001600160401b03600160405161424f81612ed6565b8781526020810164ffffffffff421681526040820195865260ff6060830195168552886000526016602052604060002091838060a01b039051166001600160601b0360a01b8354161782555181549064ffffffffff60a01b9060a01b169064ffffffffff60a01b1916178155019251166001600160401b03198354161782555160ff60401b82549160401b169060ff60401b1916179055156142ef575050565b60145490600160401b821015612ef1576112e082600161431494016014556014612e47565b63ffffffff6014541690600052601560205263ffffffff6040600020911663ffffffff19825416179055565b63ffffffff1663ffffffff811461340e5760010190565b601454156145a157600062093a7f19420142811161340e5764ffffffffff16915b600863ffffffff83161080614596575b156145915760175460145463ffffffff82161015614581575b5060175463ffffffff8116906143b682612e2c565b60018060a01b0391549060031b1c1691826000526016602052606060406000206040516143e281612ed6565b60ff6001835493818060a01b038516845264ffffffffff602085019560a01c16855201546001600160401b038116604084015260401c1692839101526008821015612b7057879060009260068114938415614574575b505082614561575b505015614534575050601454600019810190811161340e5763ffffffff60175416908082036144cb575b505060145480156136cd576000190161448281612e2c565b81549060018060a01b039060031b1b19169055601455806000526015602052604060002063ffffffff198154169055600052601660205260006001604082208281550155614378565b6112e0916144db6144f592612e2c565b905460039190911b1c6001600160a01b0316928391612e2c565b600163ffffffff60175416019063ffffffff821161340e57600052601560205263ffffffff6040600020911663ffffffff19825416179055388061446a565b61455b9394925061454963ffffffff91614340565b169063ffffffff191617601755614340565b90614378565b5164ffffffffff16111590508638614440565b5060071492503880614438565b63ffffffff1916601755386143a1565b915050565b506014541515614388565b63ffffffff196017541660175556fea2646970667358221220e25633c739d6e832b3b4b407ddf0a5040c7f4ee8b41e915089d39e0ff30f507664736f6c634300081e0033",
  "linkReferences": {},
  "deployedLinkReferences": {}
}