{
  "_format": "hh-sol-artifact-1",
  "contractName": "MissionFactory",
  "sourceName": "contracts/MissionFactory.sol",
  "abi": [
    {
      "inputs": [],
      "stateMutability": "nonpayable",
      "type": "constructor"
    },
    {
      "inputs": [],
      "name": "FailedDeployment",
      "type": "error"
    },
    {
      "inputs": [
        {
          "internalType": "uint256",
          "name": "balance",
          "type": "uint256"
        },
        {
          "internalType": "uint256",
          "name": "needed",
          "type": "uint256"
        }
      ],
      "name": "InsufficientBalance",
      "type": "error"
    },
    {
      "inputs": [
        {
          "internalType": "address",
          "name": "owner",
          "type": "address"
        }
      ],
      "name": "OwnableInvalidOwner",
      "type": "error"
    },
    {
      "inputs": [
        {
          "internalType": "address",
          "name": "account",
          "type": "address"
        }
      ],
      "name": "OwnableUnauthorizedAccount",
      "type": "error"
    },
    {
      "inputs": [],
      "name": "ReentrancyGuardReentrantCall",
      "type": "error"
    },
    {
      "anonymous": false,
      "inputs": [
        {
          "indexed": true,
          "internalType": "address",
          "name": "addr",
          "type": "address"
        }
      ],
      "name": "AuthorizedAddressAdded",
      "type": "event"
    },
    {
      "anonymous": false,
      "inputs": [
        {
          "indexed": true,
          "internalType": "address",
          "name": "addr",
          "type": "address"
        }
      ],
      "name": "AuthorizedAddressRemoved",
      "type": "event"
    },
    {
      "anonymous": false,
      "inputs": [
        {
          "indexed": false,
          "internalType": "uint8",
          "name": "newWeekly",
          "type": "uint8"
        },
        {
          "indexed": false,
          "internalType": "uint8",
          "name": "newMonthly",
          "type": "uint8"
        }
      ],
      "name": "EnrollmentLimitUpdated",
      "type": "event"
    },
    {
      "anonymous": false,
      "inputs": [
        {
          "indexed": true,
          "internalType": "address",
          "name": "user",
          "type": "address"
        },
        {
          "indexed": false,
          "internalType": "uint256",
          "name": "timestamp",
          "type": "uint256"
        }
      ],
      "name": "EnrollmentRecorded",
      "type": "event"
    },
    {
      "anonymous": false,
      "inputs": [
        {
          "indexed": true,
          "internalType": "address",
          "name": "sender",
          "type": "address"
        },
        {
          "indexed": false,
          "internalType": "uint256",
          "name": "amount",
          "type": "uint256"
        }
      ],
      "name": "FundsReceived",
      "type": "event"
    },
    {
      "anonymous": false,
      "inputs": [
        {
          "indexed": true,
          "internalType": "address",
          "name": "to",
          "type": "address"
        },
        {
          "indexed": false,
          "internalType": "uint256",
          "name": "amount",
          "type": "uint256"
        }
      ],
      "name": "FundsWithdrawn",
      "type": "event"
    },
    {
      "anonymous": false,
      "inputs": [
        {
          "indexed": true,
          "internalType": "address",
          "name": "missionAddress",
          "type": "address"
        },
        {
          "indexed": true,
          "internalType": "enum MissionType",
          "name": "missionType",
          "type": "uint8"
        }
      ],
      "name": "MissionCreated",
      "type": "event"
    },
    {
      "anonymous": false,
      "inputs": [
        {
          "indexed": false,
          "internalType": "uint256",
          "name": "amount",
          "type": "uint256"
        },
        {
          "indexed": true,
          "internalType": "enum MissionType",
          "name": "missionType",
          "type": "uint8"
        },
        {
          "indexed": true,
          "internalType": "address",
          "name": "sender",
          "type": "address"
        }
      ],
      "name": "MissionFundsRegistered",
      "type": "event"
    },
    {
      "anonymous": false,
      "inputs": [
        {
          "indexed": true,
          "internalType": "address",
          "name": "confirmer",
          "type": "address"
        },
        {
          "indexed": false,
          "internalType": "address",
          "name": "newOwner",
          "type": "address"
        },
        {
          "indexed": false,
          "internalType": "uint256",
          "name": "timestamp",
          "type": "uint256"
        }
      ],
      "name": "OwnershipTransferConfirmed",
      "type": "event"
    },
    {
      "anonymous": false,
      "inputs": [
        {
          "indexed": true,
          "internalType": "address",
          "name": "proposer",
          "type": "address"
        },
        {
          "indexed": false,
          "internalType": "address",
          "name": "newOwner",
          "type": "address"
        },
        {
          "indexed": false,
          "internalType": "uint256",
          "name": "timestamp",
          "type": "uint256"
        }
      ],
      "name": "OwnershipTransferProposed",
      "type": "event"
    },
    {
      "anonymous": false,
      "inputs": [
        {
          "indexed": true,
          "internalType": "address",
          "name": "previousOwner",
          "type": "address"
        },
        {
          "indexed": true,
          "internalType": "address",
          "name": "newOwner",
          "type": "address"
        }
      ],
      "name": "OwnershipTransferred",
      "type": "event"
    },
    {
      "stateMutability": "payable",
      "type": "fallback"
    },
    {
      "inputs": [],
      "name": "OWNERSHIP_PROPOSAL_WINDOW",
      "outputs": [
        {
          "internalType": "uint256",
          "name": "",
          "type": "uint256"
        }
      ],
      "stateMutability": "view",
      "type": "function"
    },
    {
      "inputs": [
        {
          "internalType": "address",
          "name": "account",
          "type": "address"
        }
      ],
      "name": "addAuthorizedAddress",
      "outputs": [],
      "stateMutability": "nonpayable",
      "type": "function"
    },
    {
      "inputs": [
        {
          "internalType": "address",
          "name": "",
          "type": "address"
        }
      ],
      "name": "authorized",
      "outputs": [
        {
          "internalType": "bool",
          "name": "",
          "type": "bool"
        }
      ],
      "stateMutability": "view",
      "type": "function"
    },
    {
      "inputs": [
        {
          "internalType": "address",
          "name": "user",
          "type": "address"
        }
      ],
      "name": "canEnroll",
      "outputs": [
        {
          "internalType": "bool",
          "name": "allowed",
          "type": "bool"
        },
        {
          "internalType": "string",
          "name": "reason",
          "type": "string"
        }
      ],
      "stateMutability": "view",
      "type": "function"
    },
    {
      "inputs": [
        {
          "internalType": "address",
          "name": "newOwner",
          "type": "address"
        }
      ],
      "name": "confirmOwnershipTransfer",
      "outputs": [],
      "stateMutability": "nonpayable",
      "type": "function"
    },
    {
      "inputs": [
        {
          "internalType": "enum MissionType",
          "name": "_missionType",
          "type": "uint8"
        },
        {
          "internalType": "uint256",
          "name": "_enrollmentStart",
          "type": "uint256"
        },
        {
          "internalType": "uint256",
          "name": "_enrollmentEnd",
          "type": "uint256"
        },
        {
          "internalType": "uint256",
          "name": "_enrollmentAmount",
          "type": "uint256"
        },
        {
          "internalType": "uint8",
          "name": "_enrollmentMinPlayers",
          "type": "uint8"
        },
        {
          "internalType": "uint8",
          "name": "_enrollmentMaxPlayers",
          "type": "uint8"
        },
        {
          "internalType": "uint256",
          "name": "_missionStart",
          "type": "uint256"
        },
        {
          "internalType": "uint256",
          "name": "_missionEnd",
          "type": "uint256"
        },
        {
          "internalType": "uint8",
          "name": "_missionRounds",
          "type": "uint8"
        }
      ],
      "name": "createMission",
      "outputs": [
        {
          "internalType": "address",
          "name": "",
          "type": "address"
        }
      ],
      "stateMutability": "payable",
      "type": "function"
    },
    {
      "inputs": [],
      "name": "getAllMissions",
      "outputs": [
        {
          "internalType": "address[]",
          "name": "",
          "type": "address[]"
        },
        {
          "internalType": "enum Status[]",
          "name": "",
          "type": "uint8[]"
        }
      ],
      "stateMutability": "view",
      "type": "function"
    },
    {
      "inputs": [
        {
          "internalType": "enum MissionType",
          "name": "_type",
          "type": "uint8"
        }
      ],
      "name": "getFundsByType",
      "outputs": [
        {
          "internalType": "uint256",
          "name": "",
          "type": "uint256"
        }
      ],
      "stateMutability": "view",
      "type": "function"
    },
    {
      "inputs": [
        {
          "internalType": "address",
          "name": "missionAddress",
          "type": "address"
        }
      ],
      "name": "getMissionData",
      "outputs": [
        {
          "components": [
            {
              "internalType": "address[]",
              "name": "players",
              "type": "address[]"
            },
            {
              "internalType": "enum MissionType",
              "name": "missionType",
              "type": "uint8"
            },
            {
              "internalType": "enum Status",
              "name": "missionStatus",
              "type": "uint8"
            },
            {
              "internalType": "uint256",
              "name": "enrollmentStart",
              "type": "uint256"
            },
            {
              "internalType": "uint256",
              "name": "enrollmentEnd",
              "type": "uint256"
            },
            {
              "internalType": "uint256",
              "name": "enrollmentAmount",
              "type": "uint256"
            },
            {
              "internalType": "uint8",
              "name": "enrollmentMinPlayers",
              "type": "uint8"
            },
            {
              "internalType": "uint8",
              "name": "enrollmentMaxPlayers",
              "type": "uint8"
            },
            {
              "internalType": "uint256",
              "name": "missionStart",
              "type": "uint256"
            },
            {
              "internalType": "uint256",
              "name": "missionEnd",
              "type": "uint256"
            },
            {
              "internalType": "uint8",
              "name": "missionRounds",
              "type": "uint8"
            },
            {
              "internalType": "uint8",
              "name": "roundCount",
              "type": "uint8"
            },
            {
              "internalType": "uint256",
              "name": "ethStart",
              "type": "uint256"
            },
            {
              "internalType": "uint256",
              "name": "ethCurrent",
              "type": "uint256"
            },
            {
              "components": [
                {
                  "internalType": "address",
                  "name": "player",
                  "type": "address"
                },
                {
                  "internalType": "uint256",
                  "name": "amountWon",
                  "type": "uint256"
                }
              ],
              "internalType": "struct Mission.PlayersWon[]",
              "name": "playersWon",
              "type": "tuple[]"
            },
            {
              "internalType": "uint256",
              "name": "pauseTime",
              "type": "uint256"
            },
            {
              "internalType": "address[]",
              "name": "refundedPlayers",
              "type": "address[]"
            }
          ],
          "internalType": "struct Mission.MissionData",
          "name": "",
          "type": "tuple"
        }
      ],
      "stateMutability": "view",
      "type": "function"
    },
    {
      "inputs": [
        {
          "internalType": "enum Status",
          "name": "filter",
          "type": "uint8"
        }
      ],
      "name": "getMissionsByStatus",
      "outputs": [
        {
          "internalType": "address[]",
          "name": "",
          "type": "address[]"
        }
      ],
      "stateMutability": "view",
      "type": "function"
    },
    {
      "inputs": [],
      "name": "getMissionsEnded",
      "outputs": [
        {
          "internalType": "address[]",
          "name": "",
          "type": "address[]"
        }
      ],
      "stateMutability": "view",
      "type": "function"
    },
    {
      "inputs": [],
      "name": "getMissionsNotEnded",
      "outputs": [
        {
          "internalType": "address[]",
          "name": "",
          "type": "address[]"
        }
      ],
      "stateMutability": "view",
      "type": "function"
    },
    {
      "inputs": [
        {
          "internalType": "address",
          "name": "",
          "type": "address"
        }
      ],
      "name": "isMission",
      "outputs": [
        {
          "internalType": "bool",
          "name": "",
          "type": "bool"
        }
      ],
      "stateMutability": "view",
      "type": "function"
    },
    {
      "inputs": [],
      "name": "missionImplementation",
      "outputs": [
        {
          "internalType": "address",
          "name": "",
          "type": "address"
        }
      ],
      "stateMutability": "view",
      "type": "function"
    },
    {
      "inputs": [
        {
          "internalType": "address",
          "name": "",
          "type": "address"
        }
      ],
      "name": "missionStatus",
      "outputs": [
        {
          "internalType": "enum Status",
          "name": "",
          "type": "uint8"
        }
      ],
      "stateMutability": "view",
      "type": "function"
    },
    {
      "inputs": [
        {
          "internalType": "uint256",
          "name": "",
          "type": "uint256"
        }
      ],
      "name": "missions",
      "outputs": [
        {
          "internalType": "address",
          "name": "",
          "type": "address"
        }
      ],
      "stateMutability": "view",
      "type": "function"
    },
    {
      "inputs": [],
      "name": "monthlyLimit",
      "outputs": [
        {
          "internalType": "uint8",
          "name": "",
          "type": "uint8"
        }
      ],
      "stateMutability": "view",
      "type": "function"
    },
    {
      "inputs": [],
      "name": "owner",
      "outputs": [
        {
          "internalType": "address",
          "name": "",
          "type": "address"
        }
      ],
      "stateMutability": "view",
      "type": "function"
    },
    {
      "inputs": [
        {
          "internalType": "address",
          "name": "",
          "type": "address"
        }
      ],
      "name": "ownershipProposals",
      "outputs": [
        {
          "internalType": "address",
          "name": "proposer",
          "type": "address"
        },
        {
          "internalType": "uint256",
          "name": "timestamp",
          "type": "uint256"
        }
      ],
      "stateMutability": "view",
      "type": "function"
    },
    {
      "inputs": [
        {
          "internalType": "address",
          "name": "newOwner",
          "type": "address"
        }
      ],
      "name": "proposeOwnershipTransfer",
      "outputs": [],
      "stateMutability": "nonpayable",
      "type": "function"
    },
    {
      "inputs": [
        {
          "internalType": "address",
          "name": "user",
          "type": "address"
        }
      ],
      "name": "recordEnrollment",
      "outputs": [],
      "stateMutability": "nonpayable",
      "type": "function"
    },
    {
      "inputs": [
        {
          "internalType": "uint256",
          "name": "amount",
          "type": "uint256"
        },
        {
          "internalType": "enum MissionType",
          "name": "missionType",
          "type": "uint8"
        }
      ],
      "name": "registerMissionFunds",
      "outputs": [],
      "stateMutability": "nonpayable",
      "type": "function"
    },
    {
      "inputs": [
        {
          "internalType": "address",
          "name": "account",
          "type": "address"
        }
      ],
      "name": "removeAuthorizedAddress",
      "outputs": [],
      "stateMutability": "nonpayable",
      "type": "function"
    },
    {
      "inputs": [],
      "name": "renounceOwnership",
      "outputs": [],
      "stateMutability": "nonpayable",
      "type": "function"
    },
    {
      "inputs": [
        {
          "internalType": "enum MissionType",
          "name": "",
          "type": "uint8"
        }
      ],
      "name": "reservedFunds",
      "outputs": [
        {
          "internalType": "uint256",
          "name": "",
          "type": "uint256"
        }
      ],
      "stateMutability": "view",
      "type": "function"
    },
    {
      "inputs": [
        {
          "internalType": "uint8",
          "name": "_weekly",
          "type": "uint8"
        },
        {
          "internalType": "uint8",
          "name": "_monthly",
          "type": "uint8"
        }
      ],
      "name": "setEnrollmentLimits",
      "outputs": [],
      "stateMutability": "nonpayable",
      "type": "function"
    },
    {
      "inputs": [
        {
          "internalType": "enum Status",
          "name": "newStatus",
          "type": "uint8"
        }
      ],
      "name": "setMissionStatus",
      "outputs": [],
      "stateMutability": "nonpayable",
      "type": "function"
    },
    {
      "inputs": [
        {
          "internalType": "address",
          "name": "newOwner",
          "type": "address"
        }
      ],
      "name": "transferOwnership",
      "outputs": [],
      "stateMutability": "nonpayable",
      "type": "function"
    },
    {
      "inputs": [],
      "name": "weeklyLimit",
      "outputs": [
        {
          "internalType": "uint8",
          "name": "",
          "type": "uint8"
        }
      ],
      "stateMutability": "view",
      "type": "function"
    },
    {
      "inputs": [
        {
          "internalType": "uint256",
          "name": "amount",
          "type": "uint256"
        }
      ],
      "name": "withdrawFunds",
      "outputs": [],
      "stateMutability": "nonpayable",
      "type": "function"
    },
    {
      "stateMutability": "payable",
      "type": "receive"
    }
  ],
  "bytecode": "0x608080604052346100f95733156100e35760008054336001600160a01b0319821681178355916001600160a01b03909116907f8be0079c531659141344cd1fd0a4f28419497f9722a3daafe3b4186f6b6457e09080a360018055600a805461ffff1916610a041790556129128181016001600160401b038111838210176100cd57829161291f833903906000f080156100c157600780546001600160a01b0319166001600160a01b039290921691909117905560405161282090816100ff8239f35b6040513d6000823e3d90fd5b634e487b7160e01b600052604160045260246000fd5b631e4fbdf760e01b600052600060045260246000fd5b600080fdfe6080806040526004361015610011575b005b600090813560e01c9081630814ab8214612065575080630a6005da14612041578063155dd5ee14611e7f5780631e59d58414611c8f57806320c5718f14611a1357806321040fc3146118eb5780632c8fe526146118a75780632e33b07f1461039c5780633c2139571461169457806342f1181e146115a35780636805036d1461140d5780636d8a139014611138578063707129391461104d578063715018a614610ff3578063861a68d614610fd25780638da5cb5b14610fab5780639804a58614610f5e5780639b15953914610a4e5780639c3d3a20146108d5578063aa1f059514610893578063b6202913146106d0578063b91816111461068e578063bd48772514610665578063c17f9e59146103cf578063c416ad2a1461039c578063d3050eba1461037e578063d41eca64146102d0578063d8d6e8ff1461021d578063f2fde38b146101c65763fb4cdea70361000f57346101c35760203660031901126101c3576004356001600160a01b038116908190036101c157815260086020908152604091829020805460019091015483516001600160a01b0390921682529181019190915290819081015b0390f35b505b80fd5b50346101c35760203660031901126101c3576004356001600160a01b038116808203610219576101f461277a565b1561020557610202906127a3565b80f35b631e4fbdf760e01b82526004829052602482fd5b8280fd5b50346101c35760203660031901126101c35760043560068110156101c157338252600560205260ff6040832054161561026c573382526004602052604082209060ff8019835416911617905580f35b60405162461bcd60e51b815260206004820152603660248201527f4d697373696f6e466163746f72793a2063616c6c6572206973206e6f742061206044820152751d985b1a59081b5a5cdcda5bdb8818dbdb9d1c9858dd60521b6064820152608490fd5b50346101c35760403660031901126101c35760043560ff81168091036101c15760243560ff81169182820361037a577f321994b8855ae38e4fd6162f7a0bd7cde88be83aa3acc96e03c17b7f733b43e19260409260018060a01b0386541633148015610365575b610340906121b9565b8261ff00600a549260081b169161ffff19161717600a5582519182526020820152a180f35b5033865260026020528386205460ff16610337565b8380fd5b50346101c357806003193601126101c3576020604051620151808152f35b50346101c35760203660031901126101c3576004359060078210156101c35760206103c6836121a0565b54604051908152f35b50346101c35760203660031901126101c3576004356001600160a01b0381169081810361021957338352600460205260ff604084205416600681101561065157600114801561062f575b156105f957610427906125cf565b90156105d1575062278cff194201904282116105bd57808352600960205260408320805492845b848110806105a4575b1561046a5761046590612285565b61044e565b83838792806104f0575b50805490600160401b8210156104dc57816104979160016104af94018155612147565b429082549060031b91821b91600019901b1916179055565b7f498f5e6dcf570483a1848853791046a7f10012193176d71f959f46eb7713d7446020604051428152a280f35b634e487b7160e01b84526041600452602484fd5b92805b6104fe8584546125c2565b81101561054e578061054861051e61051888600195612577565b86612147565b90549060031b1c61052f8387612147565b90919082549060031b91821b91600019901b1916179055565b016104f3565b5092835b81811061055f5750610474565b825480156105905760019190600019016105798186612147565b8154906000199060031b1b19169055845501610552565b634e487b7160e01b86526031600452602486fd5b50816105b08285612147565b90549060031b1c10610457565b634e487b7160e01b83526011600452602483fd5b60405162461bcd60e51b8152602060048201529081906105f590602483019061215f565b0390fd5b60405162461bcd60e51b815260206004820152600e60248201526d24b73b30b634b21031b0b63632b960911b6044820152606490fd5b50338352600460205260ff604084205416600681101561065157600214610419565b634e487b7160e01b84526021600452602484fd5b50346101c357806003193601126101c3576007546040516001600160a01b039091168152602090f35b50346101c35760203660031901126101c3576004356001600160a01b038116908190036101c15760408260ff9260209452600284522054166040519015158152f35b50346101c357806003193601126101c35760065481825b8281106107e557506106f8906122c2565b9082835b82811061071957604051602080825281906101bd908201876120cc565b61072281612116565b905460039190911b1c6001600160a01b031685526004602052604085205460ff1660068110156107d1576004148015610795575b90600191610765575b016106fc565b61076e81612116565b838060a01b0391549060031b1c1661078f61078885612285565b94876122f4565b5261075f565b5061079f81612116565b905460039190911b1c6001600160a01b031685526004602052604085205460ff1660068110156107d157600514610756565b634e487b7160e01b86526021600452602486fd5b6107ee81612116565b905460039190911b1c6001600160a01b031684526004602052604084205460ff16600681101561087f576004148015610843575b61082f575b6001016106e7565b9061083b600191612285565b919050610827565b5061084d81612116565b905460039190911b1c6001600160a01b031684526004602052604084205460ff16600681101561087f57600514610822565b634e487b7160e01b85526021600452602485fd5b50346101c35760203660031901126101c3576004356001600160a01b038116908190036101c15760408260ff9260209452600584522054166040519015158152f35b50346101c35760403660031901126101c3576004356024356007811015610219578115610a0a57338352600460205260ff60408420541660068110156106515760041480156109e8575b83546001600160a01b0316331480156109d2575b81156109ca575b501561098557610949816121a0565b610954838254612577565b90556040519182527f606617fd09d9890413e3c46147b844d4562351f86e0f7a5c60849bbf0ef0281160203393a380f35b60405162461bcd60e51b815260206004820152601d60248201527f43616c6c6572206e6f742061206d697373696f6e206f722061646d696e0000006044820152606490fd5b90503861093a565b50338452600260205260ff604085205416610933565b50338352600460205260ff60408420541660068110156106515760051461091f565b606460405162461bcd60e51b815260206004820152602060248201527f416d6f756e74206d7573742062652067726561746572207468616e207a65726f6044820152fd5b506101203660031901126101c35760043560078110156101c157602435906044359160643560843560ff8116809103610f5a5760a43560ff8116809103610f565760c4359060e43592610104359460ff8616809603610f525789546001600160a01b031633148015610f3c575b610ac4906121b9565b60058610610edd57858210610e725788871015610e2157888410610dc35783851115610d7f578015610d2657600754608881901c62ffffff16763d602d80600a3d3981f3363d3d373d3d3d363d73000000178b5260781b6effffffffffffffffffffffffffffff19166e5af43d82803e903d91602b57fd5bf3176020526001600160a01b03603760098cf016988915610d1757898b52600560205260408b20600160ff19825416179055898b52600460205260408b2060ff19815416905560018060a01b038b5416978a3b15610d13576040519863c54168b360e01b8a5260048a01523060248a0152610bba60448a018b612109565b6064890152608488015260a487015260c486015260e485015261010484015261012483015261014482015283816101648134875af18015610d0857610cf4575b50600654600160401b8110156104dc57806001610c1a9201600655612116565b81546001600160a01b0360039290921b91821b19169084901b17905580827f0ac1ac89285bf936f515aafcf6808b3e062e77fd57f52c8892d20fc9409b8b538580a3610c65816121a0565b5460021c9081151580610cea575b610c83575b602083604051908152f35b610c8c906121a0565b610c978282546125c2565b905582823b156101c35760405163eb2bab7760e01b81529182906004908290865af18015610cdf57610cca575b80610c78565b610cd5838092612263565b6101c15781610cc4565b6040513d85823e3d90fd5b5081471015610c73565b83610d0191949294612263565b9138610bfa565b6040513d86823e3d90fd5b8b80fd5b63b06ebf3d60e01b8b5260048bfd5b60405162461bcd60e51b815260206004820152602b60248201527f456e726f6c6c6d656e7420616d6f756e74206d7573742062652067726561746560448201526a72207468616e207a65726f60a81b6064820152608490fd5b606460405162461bcd60e51b815260206004820152602060248201527f4d697373696f6e207374617274206d757374206265206265666f726520656e646044820152fd5b60405162461bcd60e51b815260206004820152603060248201527f4d697373696f6e207374617274206d757374206265206f6e206f72206166746560448201526f1c88195b9c9bdb1b1b595b9d08195b9960821b6064820152608490fd5b60405162461bcd60e51b815260206004820152602360248201527f456e726f6c6c6d656e74207374617274206d757374206265206265666f726520604482015262195b9960ea1b6064820152608490fd5b60405162461bcd60e51b815260206004820152603f60248201527f4d696e696d756d20706c6179657273206d75737420626520677265617465722060448201527f7468616e206f7220657175616c20746f206d697373696f6e20726f756e6473006064820152608490fd5b60405162461bcd60e51b815260206004820152603160248201527f4d697373696f6e20726f756e6473206d7573742062652067726561746572207460448201527068616e206f7220657175616c20746f203560781b6064820152608490fd5b50338a52600260205260408a205460ff16610abb565b8980fd5b8680fd5b8580fd5b50346101c35760203660031901126101c3576004356001600160a01b03811681036101c157610f8c906125cf565b906101bd6040519283921515835260406020840152604083019061215f565b50346101c357806003193601126101c357546040516001600160a01b039091168152602090f35b50346101c357806003193601126101c357602060ff600a5416604051908152f35b50346101c357806003193601126101c35761100c61277a565b80546001600160a01b03198116825581906001600160a01b03167f8be0079c531659141344cd1fd0a4f28419497f9722a3daafe3b4186f6b6457e08280a380f35b50346101c35760203660031901126101c3576004356001600160a01b038116908190036101c15781546001600160a01b031633148015611122575b611091906121b9565b61109c811515612584565b808252600260205260ff604083205416156110ec57808252600260205260408220805460ff191690557f66d5f06f711af3c9feba3203fdb00b51345d514c68585d9d319c5ff5e6f775928280a280f35b60405162461bcd60e51b815260206004820152600e60248201526d139bdd08185d5d1a1bdc9a5e995960921b6044820152606490fd5b503382526002602052604082205460ff16611088565b50346101c357806003193601126101c35760065462278cff194201914283116113f957919082805b82811061132b5750611171846122c2565b9261119461117e866122aa565b9561118c6040519788612263565b8087526122aa565b602086019390601f19013685378291825b82841061120c57505050506111ca9360206040519586956040875260408701906120cc565b918583038287015251918281520192915b8181106111e9575050500390f35b91935091602080826111fe60019488516120a9565b0194019101918493926111db565b6112198498969798612116565b905460039190911b1c6001600160a01b03168086526004602052604086205460ff1690600682101590816113175760048314801561130a575b61129f575b611261848c6122f4565b5261126c83896122f4565b9061128b575260019061127e90612285565b935b0192969594966111a5565b634e487b7160e01b87526021600452602487fd5b604051631f385f7960e21b81528881600481855afa9081156112ff578691610120918b916112dd575b50015110156112575750505092600190611280565b6112f991503d808d833e6112f18183612263565b810190612394565b386112c8565b6040513d8b823e3d90fd5b5087915060058314611252565b634e487b7160e01b88526021600452602488fd5b91929361133783612116565b905460039190911b1c6001600160a01b03168083526004602052604083205460ff16600681101561065157908160048593149081156113ee575b50611390575b5050611384600191612285565b925b0193929193611160565b604051631f385f7960e21b81529190829060049082905afa908115610cdf5786916101209185916113d4575b500151106113cb578138611377565b91600190611386565b6113e891503d8087833e6112f18183612263565b386113bc565b600591501438611371565b634e487b7160e01b81526011600452602490fd5b50346101c357806003193601126101c35760065481825b8281106115085750611435906122c2565b9082835b82811061145657604051602080825281906101bd908201876120cc565b61145f81612116565b905460039190911b1c6001600160a01b031685526004602052604085205460ff1660068110156107d15760041415806114cb575b906001916114a2575b01611439565b6114ab81612116565b838060a01b0391549060031b1c166114c561078885612285565b5261149c565b506114d581612116565b905460039190911b1c6001600160a01b031685526004602052604085205460ff1660068110156107d15760051415611493565b61151181612116565b905460039190911b1c6001600160a01b031684526004602052604084205460ff16600681101561087f576004141580611566575b611552575b600101611424565b9061155e600191612285565b91905061154a565b5061157081612116565b905460039190911b1c6001600160a01b031684526004602052604084205460ff16600681101561087f5760051415611545565b50346101c35760203660031901126101c3576004356001600160a01b038116908190036101c15781546001600160a01b03163314801561167e575b6115e7906121b9565b6115f2811515612584565b808252600260205260ff60408320541661164457808252600260205260408220805460ff191660011790557f10ac961f00d5e732ba4dcc2c6fb09bebea0eb9edd2a75c8109775ef288382e678280a280f35b60405162461bcd60e51b8152602060048201526012602482015271105b1c9958591e48185d5d1a1bdc9a5e995960721b6044820152606490fd5b503382526002602052604082205460ff166115de565b50346101c35760203660031901126101c3576004356001600160a01b0381168082036102195782546001600160a01b031633148015611891575b6116d7906121b9565b8083526008602052604083206040516116ef81612247565b81546001600160a01b031680825260019092015460208201908152911561184c57516001600160a01b0316331461180857516201518081018091116117f45742116117bc5761173c61277a565b80156117a85761174b826127a3565b825260086020908152604080842084815560010184905580516001600160a01b039093168352429183019190915233917fdd72dd33198968a9cdc9b1e5cbff344fb8d04d99f8c15c0a02416b04e857b46791819081015b0390a280f35b631e4fbdf760e01b83526004839052602483fd5b60405162461bcd60e51b815260206004820152601060248201526f141c9bdc1bdcd85b08195e1c1a5c995960821b6044820152606490fd5b634e487b7160e01b84526011600452602484fd5b606460405162461bcd60e51b815260206004820152602060248201527f43616e6e6f7420636f6e6669726d20796f7572206f776e2070726f706f73616c6044820152fd5b60405162461bcd60e51b815260206004820152601a60248201527f4e6f2070726f706f73616c20666f722074686973206f776e65720000000000006044820152606490fd5b503383526002602052604083205460ff166116ce565b50346101c35760203660031901126101c357600435906006548210156101c35760206118d283612116565b905460405160039290921b1c6001600160a01b03168152f35b50346101c35760203660031901126101c3576004356001600160a01b0381168082036102195782546001600160a01b0316331480156119fd575b61192e906121b9565b80156119c45760016040519161194383612247565b3383526020830190428252855260086020526040852092828060a01b039051166bffffffffffffffffffffffff60a01b845416178355519101557fc29bdbd554e41df97e5c40fc273a09677ac133c245f0064bdffef5cc72176e19604051806117a2339442908360209093929193604081019460018060a01b031681520152565b60405162461bcd60e51b815260206004820152601160248201527024b73b30b634b2103732bb9037bbb732b960791b6044820152606490fd5b503383526002602052604083205460ff16611925565b50346101c35760203660031901126101c3576004356001600160a01b038116908190036101c1576060610200604051611a4b81612214565b82815284602082015284604082015284838201528460808201528460a08201528460c08201528460e08201528461010082015284610120820152846101408201528461016082015284610180820152846101a0820152826101c0820152846101e082015201528015611c4a578160049160405192838092631f385f7960e21b82525afa908115611c3f578291611c25575b506040519060208252611afd815161022060208501526102408401906120cc565b92611b1060208301516040850190612109565b611b22604083015160608501906120a9565b60608201516080840152608082015160a084015260a082015160c084015260ff60c08301511660e084015260ff60e08301511661010084015261010082015161012084015261012082015161014084015260ff6101408301511661016084015260ff610160830151166101808401526101808201516101a08401526101a08201516101c08401526101c082015193601f19848203016101e0850152602080865192838152019501915b818110611bfa5784806101bd88610200886101e0810151828601520151601f19848303016102208501526120cc565b825180516001600160a01b031687526020908101518188015260409096019590920191600101611bcb565b611c3991503d8084833e6112f18183612263565b38611adc565b6040513d84823e3d90fd5b60405162461bcd60e51b815260206004820152601760248201527f496e76616c6964206d697373696f6e20616464726573730000000000000000006044820152606490fd5b50346101c35760203660031901126101c35760043560068110158061021957600654906002831484805b83858210611dd0575050611ccc906122c2565b938592865b858110611cee57604051602080825281906101bd9082018a6120cc565b81611317578380611d94575b8015611d40575b90600191611d10575b01611cd1565b611d1981612116565b838060a01b0391549060031b1c16611d3a611d3388612285565b978a6122f4565b52611d0a565b509050611d4c81612116565b905460039190911b1c6001600160a01b031687526004602052604087205487919060ff166006811015611d80578314611d01565b634e487b7160e01b89526021600452602489fd5b50611d9e81612116565b905460039190911b1c6001600160a01b031688526004602052604088205460ff166006811015611d8057600314611cfa565b61128b578280611e43575b8015611e03575b611def575b600101611cb9565b90611dfb600191612285565b919050611de7565b509250611e0f83612116565b905460039190911b1c6001600160a01b031686526004602052604086205486939060ff166006811015611317578614611de2565b50611e4d81612116565b905460039190911b1c6001600160a01b031687526004602052604087205460ff16600681101561131757600314611ddb565b50346101c35760203660031901126101c35780546001600160a01b0316600435338214801561202b575b611eb2906121b9565b60026001541461201c576002600155808215611fdf5715611fd8575b478111611f9c578280808084865af13d15611f97573d67ffffffffffffffff8111611f835760405190611f0b601f8201601f191660200183612263565b81528460203d92013e5b15611f4c5760207feaff4b37086828766ad3268786972c0cd24259d4c87a80f9d3963a3c3d999b0d91604051908152a26001805580f35b60405162461bcd60e51b815260206004820152600f60248201526e151c985b9cd9995c8819985a5b1959608a1b6044820152606490fd5b634e487b7160e01b85526041600452602485fd5b611f15565b60405162461bcd60e51b8152602060048201526014602482015273496e73756666696369656e742062616c616e636560601b6044820152606490fd5b5047611ece565b60405162461bcd60e51b815260206004820152601560248201527424b73b30b634b21036b0b730b3b2b91037bbb732b960591b6044820152606490fd5b633ee5aeb560e01b8352600483fd5b503383526002602052604083205460ff16611ea9565b50346101c357806003193601126101c357602060ff600a5460081c16604051908152f35b9050346101c15760203660031901126101c1576004356001600160a01b03811690819003610219578160ff6040856120a79460209752600487522054166120a9565bf35b9060068210156120b65752565b634e487b7160e01b600052602160045260246000fd5b906020808351928381520192019060005b8181106120ea5750505090565b82516001600160a01b03168452602093840193909201916001016120dd565b9060078210156120b65752565b60065481101561213157600660005260206000200190600090565b634e487b7160e01b600052603260045260246000fd5b80548210156121315760005260206000200190600090565b919082519283825260005b84811061218b575050826000602080949584010152601f8019910116010190565b8060208092840101518282860101520161216a565b60078110156120b6576000526003602052604060002090565b156121c057565b60405162461bcd60e51b815260206004820152602660248201527f4e6f74206f776e6572206f72204d697373696f6e466163746f727920617574686044820152651bdc9a5e995960d21b6064820152608490fd5b610220810190811067ffffffffffffffff82111761223157604052565b634e487b7160e01b600052604160045260246000fd5b6040810190811067ffffffffffffffff82111761223157604052565b90601f8019910116810190811067ffffffffffffffff82111761223157604052565b60001981146122945760010190565b634e487b7160e01b600052601160045260246000fd5b67ffffffffffffffff81116122315760051b60200190565b906122cc826122aa565b6122d96040519182612263565b82815280926122ea601f19916122aa565b0190602036910137565b80518210156121315760209160051b010190565b51906001600160a01b038216820361231c57565b600080fd5b9080601f8301121561231c578151612338816122aa565b926123466040519485612263565b81845260208085019260051b82010192831161231c57602001905b82821061236e5750505090565b6020809161237b84612308565b815201910190612361565b519060ff8216820361231c57565b60208183031261231c5780519067ffffffffffffffff821161231c57016102208183031261231c57604051916123c983612214565b815167ffffffffffffffff811161231c57816123e6918401612321565b83526020820151600781101561231c5760208401526040820151600681101561231c576040840152606082015160608401526080820151608084015260a082015160a084015261243860c08301612386565b60c084015261244960e08301612386565b60e08401526101008201516101008401526101208201516101208401526124736101408301612386565b6101408401526124866101608301612386565b6101608401526101808201516101808401526101a08201516101a08401526101c082015167ffffffffffffffff811161231c57820181601f8201121561231c5780516124d1816122aa565b916124df6040519384612263565b81835260208084019260061b8201019084821161231c57602001915b81831061253f575050506101c08401526101e08201516101e084015261020082015167ffffffffffffffff811161231c576125369201612321565b61020082015290565b60408386031261231c576020604091825161255981612247565b61256286612308565b815282860151838201528152019201916124fb565b9190820180921161229457565b1561258b57565b60405162461bcd60e51b815260206004820152600f60248201526e496e76616c6964206164647265737360881b6044820152606490fd5b9190820391821161229457565b9060609060009260009060018060a01b031660005260096020526040600020916040518084602082965493848152019060005260206000209260005b81811061276157505061262092500384612263565b60005b83518110156126915761263681856122f4565b5162278d008101809111612294574210612653575b600101612623565b9161265d90612285565b9161266881856122f4565b5162093a8081018091116122945742101561264b5794612689600191612285565b95905061264b565b5093915091600a549160ff83161115612714575060081c60ff1611156126c9576001906040516126c2602082612263565b6000815290565b6000906040516126da606082612263565b602481527f416e7469416464696374696f6e3a204d6f6e74686c79206c696d69742072656160208201526318da195960e21b604082015290565b929150506000916127286040519182612263565b602381527f416e7469416464696374696f6e3a205765656b6c79206c696d697420726561636020820152621a195960ea1b604082015290565b845483526001948501948894506020909301920161260b565b6000546001600160a01b0316330361278e57565b63118cdaa760e01b6000523360045260246000fd5b600080546001600160a01b039283166001600160a01b03198216811783559216907f8be0079c531659141344cd1fd0a4f28419497f9722a3daafe3b4186f6b6457e09080a356fea264697066735822122053b0972580b705fd73843ca2a01a5c56f34cd0c432106c86b93b66b78e8f68b364736f6c634300081e003360808060405234607957331560635760008054336001600160a01b0319821681178355916001600160a01b03909116907f8be0079c531659141344cd1fd0a4f28419497f9722a3daafe3b4186f6b6457e09080a360018055612893908161007f8239f35b631e4fbdf760e01b600052600060045260246000fd5b600080fdfe6080604052600436101561000f57005b6000803560e01c806301fb8d1f14611c9f57806310eb0e0e14611c605780631212484814611ac957806324600fc31461176e5780633072cf601461174b578063715018a6146116f15780637475a4cb146111315780637ce17de414610d5d5780638da5cb5b14610d36578063987c543a146108b557806398bdae43146107f4578063a52b2b88146107b5578063b2a4a5d21461077c578063b9713b77146106c1578063c033a49014610682578063c54168b31461021b578063eb2bab7714610164578063f2fde38b146101135763fa4cf5a1146100e857005b346101105780600319360112610110576002546040516001600160a01b039091168152602090f35b80fd5b50346101105760203660031901126101105761012d611db5565b6101356127ad565b6001600160a01b038116156101505761014d906127d6565b80f35b631e4fbdf760e01b82526004829052602482fd5b50806003193601126101105761017b34151561205f565b6002546001600160a01b031633036101de5761019934600f54611f38565b600f557f7272b264c9ef2a1e8e9303944736f4977b14a5761227b7b9869fecaa60f8938760406101cb34601054611f38565b806010558151903482526020820152a180f35b60405162461bcd60e51b815260206004820152601560248201527413db9b1e48199858dd1bdc9e4818d85b88199d5b99605a1b6044820152606490fd5b5061016036600319011261011057610231611db5565b6024356001600160a01b0381169290839003610110576044359260078410156104c55760c43560ff811680910361067e5760e4359060ff8216820361067a57610144359260ff84168094036106765761028861209b565b60145460ff811661063b576001906102a134151561205f565b60ff1916176014556102b2866127d6565b6bffffffffffffffffffffffff60a01b600254161760025560ff196007541660ff87161760075560643560085560843560095560a435600a5561ff00600b549260081b169161ffff19161717600b5561010435600c5561012435600d5561ffff19600e541617600e5534600f5534601055806012556020906040516103378382611e71565b818152600036813780519067ffffffffffffffff821161058b57600160401b821161058b578390600654836006558084106105da575b500160068352825b82811061059f5750505060405161038c8382611e71565b8181528190600160401b821161058b57839060115483601155808410610507575b50016011835260008051602061281e8339815191528484925b8484106104c95750505050506007549060ff8260081c169161ff00191660075560018060a01b0360025416803b156104c55781809160246040518094819363d8d6e8ff60e01b835261041b6004840183611e15565b5af180156104ba579082916104a5575b50506006821015610491578061049157509060007fe9597995b7a2af444cc28b2b776b88b1253d701282a9bcf902d4f59750df7c579260008051602061283e83398151915283604051428152a36040514281526001600160a01b0390931692a360018055005b634e487b7160e01b81526021600452602490fd5b816104af91611e71565b61011057803861042b565b6040513d84823e3d90fd5b5080fd5b8051805184546001600160a01b0319166001600160a01b039190911617845560200151600184810191909155916002910192019201919085906103c6565b9091506001600160ff1b0381168103610577576001600160ff1b03831683036105775790849160011b60008051602061281e833981519152018360011b60008051602061281e833981519152015b81811061056257506103ad565b85815560018101869055869350600201610555565b634e487b7160e01b84526011600452602484fd5b634e487b7160e01b83526041600452602483fd5b81516001600160a01b03167ff652222313e28459528d920b65115c16c04f3efc82aaedc97be59f3f377c0d3f82015590840190600101610375565b7ff652222313e28459528d920b65115c16c04f3efc82aaedc97be59f3f377c0d3f01837ff652222313e28459528d920b65115c16c04f3efc82aaedc97be59f3f377c0d3f015b81811061062d575061036d565b858155869350600101610620565b60405162461bcd60e51b8152602060048201526013602482015272105b1c9958591e481a5b9a5d1a585b1a5e9959606a1b6044820152606490fd5b8480fd5b8380fd5b8280fd5b50346101105760203660031901126101105760209060ff906040906001600160a01b036106ad611db5565b168152600584522054166040519015158152f35b5034610110578060031936011261011057600754600854600954600a54600b54600c54600d5490600e5492600f549460105496601254986040519a8b60ff82169061070b91611e08565b60208c019060081c60ff169061072091611e15565b60408b015260608a0152608089015260ff811660a089015260081c60ff1660c088015260e087015261010086015260ff811661012086015260081c60ff166101408501526101608401526101808301526101a08201526101c090f35b5034610110576020366003190112610110576020906040906001600160a01b036107a4611db5565b168152601583522054604051908152f35b50346101105760203660031901126101105760209060ff906040906001600160a01b036107e0611db5565b168152600484522054166040519015158152f35b503461011057806003193601126101105761080d61209b565b80546001600160a01b031633148015610839575b61082a90611ea0565b6108326122a7565b6001805580f35b5060025460405163b918161160e01b815233600482015290602090829060249082906001600160a01b03165afa80156104ba57829061087a575b9050610821565b506020813d6020116108ad575b8161089460209383611e71565b810103126104c5576108a861082a91611e93565b610873565b3d9150610887565b5080600319360112610110576108c961209b565b6008544210610cf1574260095410610cb55760065460ff600b5460081c161115610c7a57600a543403610c3557338152600360205260ff604082205416610bf057600254604051634c0252c360e11b8152336004820152908290829060249082906001600160a01b03165afa9081156104ba5782908392610b69575b5015610b2b5750600654600160401b811015610b175780600161096d92016006556006612047565b81549060031b9033821b9160018060a01b03901b1916179055338152600360205260408120600160ff198254161790556109a934600f54611f38565b600f556109b834601054611f38565b60105560075461010060ff8260081c169161ff0019161760075560018060a01b0360025416803b1561067e5760405163d8d6e8ff60e01b81528381602481838096600160048401525af180156104ba57610aec575b50506006811015610ad85781610ad85760019060008051602061283e8339815191526020604051428152a36002546001600160a01b0316803b15610ad3576000809160246040518094819363c17f9e5960e01b83523360048401525af18015610ac757610ab2575b506006546040519034825260208201527fbedd10d90b8962eb521114c7e2b49019403d371ffa1e46afbda7a3f1fde8f06f60403392a26001805580f35b610abf9150600090611e71565b600038610a75565b6040513d6000823e3d90fd5b600080fd5b634e487b7160e01b82526021600452602482fd5b81610af691611e71565b6104c5578138610a0d565b634e487b7160e01b600052602160045260246000fd5b634e487b7160e01b82526041600452602482fd5b6044604051809262461bcd60e51b825260206004830152610b5b8151809281602486015260208686019101612009565b601f01601f19168101030190fd5b9150503d8083833e610b7b8183611e71565b81019060408183031261067e57610b9181611e93565b9060208101519067ffffffffffffffff8211610676570182601f8201121561067a578051610bbe81611fbd565b93610bcc6040519586611e71565b8185526020828401011161067657610bea9160208086019101612009565b38610945565b60405162461bcd60e51b815260206004820152601760248201527f506c6179657220616c726561647920656e726f6c6c65640000000000000000006044820152606490fd5b60405162461bcd60e51b815260206004820152601b60248201527f496e636f727265637420656e726f6c6c6d656e7420616d6f756e7400000000006044820152606490fd5b60405162461bcd60e51b815260206004820152601360248201527213585e081c1b185e595c9cc81c995858da1959606a1b6044820152606490fd5b60405162461bcd60e51b8152602060048201526014602482015273115b9c9bdb1b1b595b9d081a185cc8195b99195960621b6044820152606490fd5b60405162461bcd60e51b815260206004820152601e60248201527f456e726f6c6c6d656e7420686173206e6f7420737461727465642079657400006044820152606490fd5b5034610110578060031936011261011057546040516001600160a01b039091168152602090f35b50346101105780600319360112610110576060610200604051610d7f81611e54565b82815283602082015283604082015283838201528360808201528360a08201528360c08201528360e08201528361010082015283610120820152836101408201528361016082015283610180820152836101a0820152826101c0820152836101e08201520152604051610df181611e54565b6040516006548082528160208101600686526020862092865b81811061110f575050610e1f92500382611e71565b815260075460ff811660078110156110fb57602083015260081c60ff1660068110156110e757604082015260085460608201526009546080820152600a5460a082015260ff600b5481811660c084015260081c1660e0820152600c54610100820152600d5461012082015260ff600e5481811661014084015260081c16610160820152600f546101808201526010546101a082015260115467ffffffffffffffff811161058b5760208160051b0190610edb6040519283611e71565b808252601184528360008051602061281e833981519152602084015b8383106110b357505050506101c08201526012546101e08201526040516013548082528160208101601386526020862092865b818110611091575050610f3f92500382611e71565b6102008201526040519060208252610f6581516102206020850152610240840190611dcb565b92610f7860208301516040850190611e08565b610f8a60408301516060850190611e15565b60608201516080840152608082015160a084015260a082015160c084015260ff60c08301511660e084015260ff60e08301511661010084015261010082015161012084015261012082015161014084015260ff6101408301511661016084015260ff610160830151166101808401526101808201516101a08401526101a08201516101c08401526101c082015193601f19848203016101e0850152602080865192838152019501915b81811061106657848061106288610200886101e0810151828601520151601f1984830301610220850152611dcb565b0390f35b825180516001600160a01b031687526020908101518188015260409096019590920191600101611033565b84546001600160a01b0316835260019485019486945060209093019201610f2a565b600260206001926040516110c681611e22565b848060a01b0386541681528486015483820152815201920192019190610ef7565b634e487b7160e01b83526021600452602483fd5b634e487b7160e01b84526021600452602484fd5b84546001600160a01b0316835260019485019486945060209093019201610e0a565b503461011057806003193601126101105761114a61209b565b60125480159081156116a5575b501561166c57338152600460205260ff60408220541661162757338152600360205260ff604082205416156115e257600c54421061159d57600d544210156115645760ff60075460081c166006811015610ad8576002810361152757600e5460ff8082169160081c1610156114eb576003146114de575b600c546111db8142611f5b565b906064820291808304606414901517156114c257906111ff61120592600d54611f5b565b90611f68565b60115480156114d65760001981019081116114c257611225600191611f88565b500154905b6064820291808304606414901517156114c2576112549061124e600f548094611f68565b90611f5b565b8181029181830414901517156114ae576064900461127481601054611f5b565b601055600e5460ff8160081c1660ff811461057757600161ff00910160081b169061ff00191617600e55338252600460205260408220600160ff198254161790556040516112c181611e22565b338152816020820152601154600160401b81101561149a578060016112e99201601155611f88565b61148657815181546001600160a01b0319166001600160a01b03919091161781556020909101516001909101558180808084335af1611326611fd9565b50156114485760ff600e54818160081c16809360105460405191825260208201527fbbdd894f5e6d754c18172761a1a461095c26de58905e706a8c33657573d4067260403392a316036113835761137b612214565b610832612724565b60075461030060ff8260081c169161ff0019161760075560018060a01b0360025416803b1561067e5760405163d8d6e8ff60e01b81528381602481838096600360048401525af180156104ba57611433575b5050426012557fae3ba0777e3d90978a607fca3c27811130deb71f173b067e83f1bcbd10173b4a6020604051428152a16006811015610ad85781610ad85760039060008051602061283e8339815191526020604051428152a3610832565b8161143d91611e71565b6104c55781386113d5565b60405162461bcd60e51b815260206004820152601660248201527514185e5bdd5d081d1c985b9cd9995c8819985a5b195960521b6044820152606490fd5b634e487b7160e01b84526004849052602484fd5b634e487b7160e01b84526041600452602484fd5b634e487b7160e01b82526011600452602482fd5b634e487b7160e01b83526011600452602483fd5b50819061122a565b6114e66120bd565b6111ce565b60405162461bcd60e51b8152602060048201526014602482015273105b1b081c9bdd5b991cc818dbdb5c1b195d195960621b6044820152606490fd5b60405162461bcd60e51b81526020600482015260156024820152744d697373696f6e206973206e6f742041637469766560581b6044820152606490fd5b60405162461bcd60e51b8152602060048201526011602482015270135a5cdcda5bdb881a185cc8195b991959607a1b6044820152606490fd5b60405162461bcd60e51b815260206004820152601b60248201527f4d697373696f6e20686173206e6f7420737461727465642079657400000000006044820152606490fd5b60405162461bcd60e51b815260206004820152601760248201527f4e6f7420656e726f6c6c656420696e206d697373696f6e0000000000000000006044820152606490fd5b60405162461bcd60e51b815260206004820152601f60248201527f506c6179657220616c726561647920776f6e2074686973206d697373696f6e006044820152606490fd5b60405162461bcd60e51b8152602060048201526011602482015270135a5cdcda5bdb881a5cc81c185d5cd959607a1b6044820152606490fd5b919050600e5491600160ff8460081c160160ff81116114c25791926116dd9260ff9081169116036116e65761ffff603c5b1690611f38565b42101538611157565b61ffff61012c6116d6565b503461011057806003193601126101105761170a6127ad565b80546001600160a01b03198116825581906001600160a01b03167f8be0079c531659141344cd1fd0a4f28419497f9722a3daafe3b4186f6b6457e08280a380f35b5034610110578060031936011261011057602060ff601454166040519015158152f35b503461011057806003193601126101105761178761209b565b80546001600160a01b031633148015611a4d575b6117a490611ea0565b60ff60075460081c166006811015610ad85760048114908115611a42575b5015611a09574780156117de81156117d9816126e1565b6126e1565b601982029082820460191417156114c25760646117fd91048092611f5b565b600254604051638da5cb5b60e01b81528491602090829060049082906001600160a01b03165afa9081156104ba578291859183916119c1575b50829182916001600160a01b03165af161184e611fd9565b501561198457828080808460018060a01b03600254165af161186e611fd9565b501561193f5760018060a01b03600254168360ff60075416823b156104c55760446118b6918360405195869485936304e1e9d160e51b85528960048601526024850190611e08565b5af18015611934576118fb575b507fd66662c0ded9e58fd31d5e44944bcfd07ffc15e6927ecc1382e7941cb7bd24c49160409182519182526020820152a16001805580f35b918361192b604093957fd66662c0ded9e58fd31d5e44944bcfd07ffc15e6927ecc1382e7941cb7bd24c495611e71565b939150916118c3565b6040513d86823e3d90fd5b60405162461bcd60e51b815260206004820152601760248201527f466163746f7279207472616e73666572206661696c65640000000000000000006044820152606490fd5b60405162461bcd60e51b815260206004820152601560248201527413dddb995c881d1c985b9cd9995c8819985a5b1959605a1b6044820152606490fd5b925050506020813d602011611a01575b816119de60209383611e71565b810103126104c557516001600160a01b03811681036104c5578190849082611836565b3d91506119d1565b60405162461bcd60e51b8152602060048201526011602482015270135a5cdcda5bdb881b9bdd08195b991959607a1b6044820152606490fd5b6005915014386117c2565b5060025460405163b918161160e01b815233600482015290602090829060249082906001600160a01b03165afa80156104ba578290611a8e575b905061179b565b506020813d602011611ac1575b81611aa860209383611e71565b810103126104c557611abc6117a491611e93565b611a87565b3d9150611a9b565b503461011057806003193601126101105780546001600160a01b031633148015611be4575b611af790611ea0565b611aff61209b565b600d54421115611ba75760ff60075460081c166006811015610ad85760028114908115611b9c575b5015611b5757600e5460081c60ff16611b425761082a612180565b611b4a612214565b611b52612724565b610832565b60405162461bcd60e51b815260206004820152601b60248201527f4d697373696f6e2063616e6e6f742062652066696e616c697a656400000000006044820152606490fd5b600391501438611b27565b60405162461bcd60e51b8152602060048201526015602482015274135a5cdcda5bdb881b9bdd08195b991959081e595d605a1b6044820152606490fd5b5060025460405163b918161160e01b815233600482015290602090829060249082906001600160a01b03165afa80156104ba578290611c25575b9050611aee565b506020813d602011611c58575b81611c3f60209383611e71565b810103126104c557611c53611af791611e93565b611c1e565b3d9150611c32565b50346101105760203660031901126101105760209060ff906040906001600160a01b03611c8b611db5565b168152600384522054166040519015158152f35b5034610110578060031936011261011057611cb861209b565b80546001600160a01b031633148015611d39575b611cd590611ea0565b611ce3600954421015611eec565b600654600b5460ff161115611cfa5761082a612180565b611d026120bd565b7f413bcdce36601de9d10af5354f226f61d5dde1e304291e211ced6a6dee6b255660406006548151904282526020820152a1610832565b5060025460405163b918161160e01b815233600482015290602090829060249082906001600160a01b03165afa80156104ba578290611d7a575b9050611ccc565b506020813d602011611dad575b81611d9460209383611e71565b810103126104c557611da8611cd591611e93565b611d73565b3d9150611d87565b600435906001600160a01b0382168203610ad357565b906020808351928381520192019060005b818110611de95750505090565b82516001600160a01b0316845260209384019390920191600101611ddc565b906007821015610b015752565b906006821015610b015752565b6040810190811067ffffffffffffffff821117611e3e57604052565b634e487b7160e01b600052604160045260246000fd5b610220810190811067ffffffffffffffff821117611e3e57604052565b90601f8019910116810190811067ffffffffffffffff821117611e3e57604052565b51908115158203610ad357565b15611ea757565b60405162461bcd60e51b815260206004820152601760248201527f4e6f74206f776e6572206f7220617574686f72697a65640000000000000000006044820152606490fd5b15611ef357565b60405162461bcd60e51b815260206004820152601860248201527f456e726f6c6c6d656e74207374696c6c206f6e676f696e6700000000000000006044820152606490fd5b91908201809211611f4557565b634e487b7160e01b600052601160045260246000fd5b91908203918211611f4557565b8115611f72570490565b634e487b7160e01b600052601260045260246000fd5b601154811015611fa757601160005260206000209060011b0190600090565b634e487b7160e01b600052603260045260246000fd5b67ffffffffffffffff8111611e3e57601f01601f191660200190565b3d15612004573d90611fea82611fbd565b91611ff86040519384611e71565b82523d6000602084013e565b606090565b60005b83811061201c5750506000910152565b818101518382015260200161200c565b600654811015611fa757600660005260206000200190600090565b8054821015611fa75760005260206000200190600090565b1561206657565b60405162461bcd60e51b815260206004820152600d60248201526c139bc8199d5b991cc81cd95b9d609a1b6044820152606490fd5b6002600154146120ac576002600155565b633ee5aeb560e01b60005260046000fd5b60075461020060ff8260081c169161ff0019161760075560018060a01b0360025416803b15610ad35760405163d8d6e8ff60e01b8152600260048201525a81602481600080968195f180156104ba578290612170575b905050806012557f90819cd8de9b72986080ab279ab70683338d97e13bbb542d0c4320ef2ff9557f6020604051428152a160068210156104915780610491575060029060008051602061283e8339815191526020604051428152a3565b61217991611e71565b3881612113565b60075461050060ff8260081c169161ff0019161760075560018060a01b0360025416803b15610ad35760405163d8d6e8ff60e01b8152600560048201525a81602481600080968195f180156104ba578290612204575b505060068210156104915780610491575060059060008051602061283e8339815191526020604051428152a3565b61220d91611e71565b38816121d6565b60075461040060ff8260081c169161ff0019161760075560018060a01b0360025416803b15610ad35760405163d8d6e8ff60e01b81526004808201525a81602481600080968195f180156104ba578290612297575b505060068210156104915780610491575060049060008051602061283e8339815191526020604051428152a3565b6122a091611e71565b3881612269565b600954906122b9600092421015611eec565b60ff60075460081c1660068110156110e75760050361269c576006541561266057600190825b60065481101561242b576122f28161202c565b905460039190911b1c6001600160a01b03168085526005602052604085205460ff1615612323575b506001016122df565b84808080600a54855af1612335611fd9565b50156123d657808552600560205260408520805460ff19166001179055601354600160401b8110156123c25790612376826001809594016013556013612047565b81549060031b9083821b91868060a01b03901b19161790557f48d31f1c958cd44f1f83a52ae2dfaf61e88a1b82c07a6d5711a4abef60b6531e6020600a54604051908152a25b9061231a565b634e487b7160e01b86526041600452602486fd5b909250600a5481855260156020526123f360408620918254611f38565b90557faf73b0b217208b61be286bbc37095bce7eb8b9ccf617244c2f0f154e8e04e3ff6020600a54604051908152a2600183926123bc565b50919060ff60075460081c1660068110156110e75760048114908115612655575b5015611a0957479061245f8215156126e1565b156125eb57905b811561247281156126e1565b601983029083820460191417156114ae57606461249191048093611f5b565b600254604051638da5cb5b60e01b815291929190602090829060049082906001600160a01b03165afa9081156104ba578291859183916125a3575b50829182918291906001600160a01b03165af16124e7611fd9565b501561198457808080808560018060a01b03600254165af1612507611fd9565b501561193f5760018060a01b036002541660ff60075416813b1561067e5761254f604484928360405195869485936304e1e9d160e51b85528a60048601526024850190611e08565b5af180156104ba5791604093917fd66662c0ded9e58fd31d5e44944bcfd07ffc15e6927ecc1382e7941cb7bd24c49593612593575b505082519182526020820152a1565b8161259d91611e71565b38612584565b925050506020813d6020116125e3575b816125c060209383611e71565b810103126104c557516001600160a01b03811681036104c55781908490826124cc565b3d91506125b3565b919080816006545b80821061261c5750508361260e929394821161261457611f5b565b90612466565b905080611f5b565b909161264d60019161262d8561202c565b848060a01b0391549060031b1c1686526015602052604086205490611f38565b9201906125f3565b60059150143861244c565b60405162461bcd60e51b8152602060048201526014602482015273139bc81c1b185e595c9cc81d1bc81c99599d5b9960621b6044820152606490fd5b60405162461bcd60e51b815260206004820152601f60248201527f4d697373696f6e206973206e6f7420696e204661696c656420737461747573006044820152606490fd5b156126e857565b60405162461bcd60e51b81526020600482015260146024820152734e6f2066756e647320746f20776974686472617760601b6044820152606490fd5b60009060ff60075460081c1660068110156110e757600481149081156127a2575b5015611a095747916127588315156126e1565b50600080816006545b8082106127895750508361277c929394821161261457611f5b565b90811561247281156126e1565b909161279a60019161262d8561202c565b920190612761565b600591501438612745565b6000546001600160a01b031633036127c157565b63118cdaa760e01b6000523360045260246000fd5b600080546001600160a01b039283166001600160a01b03198216811783559216907f8be0079c531659141344cd1fd0a4f28419497f9722a3daafe3b4186f6b6457e09080a356fe31ecc21a745e3968a04e9570e4425bc18fa8019c68028196b546d1669c200c6839ba628632d48c45c7f562c07db20a44cf68423691d5d79b20f87ba84138aedfa26469706673582212205256274fa88c7509194aa1573e80691188510fabc3b3d03719a7a2943875c19964736f6c634300081e0033",
  "linkReferences": {},
  "deployedLinkReferences": {}
}