{
  "_format": "hh-sol-artifact-1",
  "contractName": "MissionFactory",
  "sourceName": "contracts/MissionFactory.sol",
  "abi": [
    {
      "inputs": [
        {
          "internalType": "address",
          "name": "_impl",
          "type": "address"
        }
      ],
      "stateMutability": "nonpayable",
      "type": "constructor"
    },
    {
      "inputs": [],
      "name": "FailedDeployment",
      "type": "error"
    },
    {
      "inputs": [
        {
          "internalType": "uint256",
          "name": "balance",
          "type": "uint256"
        },
        {
          "internalType": "uint256",
          "name": "needed",
          "type": "uint256"
        }
      ],
      "name": "InsufficientBalance",
      "type": "error"
    },
    {
      "inputs": [
        {
          "internalType": "address",
          "name": "owner",
          "type": "address"
        }
      ],
      "name": "OwnableInvalidOwner",
      "type": "error"
    },
    {
      "inputs": [
        {
          "internalType": "address",
          "name": "account",
          "type": "address"
        }
      ],
      "name": "OwnableUnauthorizedAccount",
      "type": "error"
    },
    {
      "inputs": [],
      "name": "ReentrancyGuardReentrantCall",
      "type": "error"
    },
    {
      "anonymous": false,
      "inputs": [
        {
          "indexed": true,
          "internalType": "address",
          "name": "addr",
          "type": "address"
        }
      ],
      "name": "AuthorizedAddressAdded",
      "type": "event"
    },
    {
      "anonymous": false,
      "inputs": [
        {
          "indexed": true,
          "internalType": "address",
          "name": "addr",
          "type": "address"
        }
      ],
      "name": "AuthorizedAddressRemoved",
      "type": "event"
    },
    {
      "anonymous": false,
      "inputs": [
        {
          "indexed": false,
          "internalType": "uint8",
          "name": "newWeekly",
          "type": "uint8"
        },
        {
          "indexed": false,
          "internalType": "uint8",
          "name": "newMonthly",
          "type": "uint8"
        }
      ],
      "name": "EnrollmentLimitUpdated",
      "type": "event"
    },
    {
      "anonymous": false,
      "inputs": [
        {
          "indexed": true,
          "internalType": "address",
          "name": "user",
          "type": "address"
        },
        {
          "indexed": false,
          "internalType": "uint256",
          "name": "timestamp",
          "type": "uint256"
        }
      ],
      "name": "EnrollmentRecorded",
      "type": "event"
    },
    {
      "anonymous": false,
      "inputs": [
        {
          "indexed": true,
          "internalType": "address",
          "name": "user",
          "type": "address"
        },
        {
          "indexed": false,
          "internalType": "uint256",
          "name": "timestampRemoved",
          "type": "uint256"
        }
      ],
      "name": "EnrollmentReverted",
      "type": "event"
    },
    {
      "anonymous": false,
      "inputs": [
        {
          "indexed": true,
          "internalType": "address",
          "name": "to",
          "type": "address"
        },
        {
          "indexed": false,
          "internalType": "uint256",
          "name": "amount",
          "type": "uint256"
        }
      ],
      "name": "FundsWithdrawn",
      "type": "event"
    },
    {
      "anonymous": false,
      "inputs": [
        {
          "indexed": true,
          "internalType": "address",
          "name": "mission",
          "type": "address"
        },
        {
          "indexed": false,
          "internalType": "string",
          "name": "name",
          "type": "string"
        },
        {
          "indexed": false,
          "internalType": "enum MissionType",
          "name": "missionType",
          "type": "uint8"
        },
        {
          "indexed": false,
          "internalType": "uint256",
          "name": "enrollmentStart",
          "type": "uint256"
        },
        {
          "indexed": false,
          "internalType": "uint256",
          "name": "enrollmentEnd",
          "type": "uint256"
        },
        {
          "indexed": false,
          "internalType": "uint8",
          "name": "minPlayers",
          "type": "uint8"
        },
        {
          "indexed": false,
          "internalType": "uint8",
          "name": "maxPlayers",
          "type": "uint8"
        },
        {
          "indexed": false,
          "internalType": "uint8",
          "name": "roundPauseDuration",
          "type": "uint8"
        },
        {
          "indexed": false,
          "internalType": "uint8",
          "name": "lastRoundPauseDuration",
          "type": "uint8"
        },
        {
          "indexed": false,
          "internalType": "uint256",
          "name": "enrollmentAmount",
          "type": "uint256"
        },
        {
          "indexed": false,
          "internalType": "uint256",
          "name": "missionStart",
          "type": "uint256"
        },
        {
          "indexed": false,
          "internalType": "uint256",
          "name": "missionEnd",
          "type": "uint256"
        },
        {
          "indexed": false,
          "internalType": "uint8",
          "name": "missionRounds",
          "type": "uint8"
        }
      ],
      "name": "MissionCreated",
      "type": "event"
    },
    {
      "anonymous": false,
      "inputs": [
        {
          "indexed": true,
          "internalType": "address",
          "name": "mission",
          "type": "address"
        },
        {
          "indexed": true,
          "internalType": "uint8",
          "name": "finalStatus",
          "type": "uint8"
        },
        {
          "indexed": false,
          "internalType": "uint256",
          "name": "timestamp",
          "type": "uint256"
        }
      ],
      "name": "MissionFinalized",
      "type": "event"
    },
    {
      "anonymous": false,
      "inputs": [
        {
          "indexed": false,
          "internalType": "uint256",
          "name": "amount",
          "type": "uint256"
        },
        {
          "indexed": true,
          "internalType": "enum MissionType",
          "name": "missionType",
          "type": "uint8"
        },
        {
          "indexed": true,
          "internalType": "address",
          "name": "sender",
          "type": "address"
        }
      ],
      "name": "MissionFundsRegistered",
      "type": "event"
    },
    {
      "anonymous": false,
      "inputs": [
        {
          "indexed": true,
          "internalType": "address",
          "name": "mission",
          "type": "address"
        },
        {
          "indexed": true,
          "internalType": "uint8",
          "name": "fromStatus",
          "type": "uint8"
        },
        {
          "indexed": true,
          "internalType": "uint8",
          "name": "toStatus",
          "type": "uint8"
        },
        {
          "indexed": false,
          "internalType": "uint256",
          "name": "timestamp",
          "type": "uint256"
        }
      ],
      "name": "MissionStatusUpdated",
      "type": "event"
    },
    {
      "anonymous": false,
      "inputs": [
        {
          "indexed": true,
          "internalType": "address",
          "name": "confirmer",
          "type": "address"
        },
        {
          "indexed": false,
          "internalType": "address",
          "name": "newOwner",
          "type": "address"
        },
        {
          "indexed": false,
          "internalType": "uint256",
          "name": "timestamp",
          "type": "uint256"
        }
      ],
      "name": "OwnershipTransferConfirmed",
      "type": "event"
    },
    {
      "anonymous": false,
      "inputs": [
        {
          "indexed": true,
          "internalType": "address",
          "name": "proposer",
          "type": "address"
        },
        {
          "indexed": false,
          "internalType": "address",
          "name": "newOwner",
          "type": "address"
        },
        {
          "indexed": false,
          "internalType": "uint256",
          "name": "timestamp",
          "type": "uint256"
        }
      ],
      "name": "OwnershipTransferProposed",
      "type": "event"
    },
    {
      "anonymous": false,
      "inputs": [
        {
          "indexed": true,
          "internalType": "address",
          "name": "previousOwner",
          "type": "address"
        },
        {
          "indexed": true,
          "internalType": "address",
          "name": "newOwner",
          "type": "address"
        }
      ],
      "name": "OwnershipTransferred",
      "type": "event"
    },
    {
      "stateMutability": "payable",
      "type": "fallback"
    },
    {
      "inputs": [],
      "name": "OWNERSHIP_PROPOSAL_WINDOW",
      "outputs": [
        {
          "internalType": "uint256",
          "name": "",
          "type": "uint256"
        }
      ],
      "stateMutability": "view",
      "type": "function"
    },
    {
      "inputs": [
        {
          "internalType": "address",
          "name": "account",
          "type": "address"
        }
      ],
      "name": "addAuthorizedAddress",
      "outputs": [],
      "stateMutability": "nonpayable",
      "type": "function"
    },
    {
      "inputs": [
        {
          "internalType": "address",
          "name": "",
          "type": "address"
        }
      ],
      "name": "authorized",
      "outputs": [
        {
          "internalType": "bool",
          "name": "",
          "type": "bool"
        }
      ],
      "stateMutability": "view",
      "type": "function"
    },
    {
      "inputs": [
        {
          "internalType": "address",
          "name": "user",
          "type": "address"
        }
      ],
      "name": "canEnroll",
      "outputs": [
        {
          "internalType": "bool",
          "name": "ok",
          "type": "bool"
        },
        {
          "internalType": "enum Limit",
          "name": "breach",
          "type": "uint8"
        }
      ],
      "stateMutability": "view",
      "type": "function"
    },
    {
      "inputs": [],
      "name": "confirmOwnershipTransfer",
      "outputs": [],
      "stateMutability": "nonpayable",
      "type": "function"
    },
    {
      "inputs": [
        {
          "internalType": "enum MissionType",
          "name": "_missionType",
          "type": "uint8"
        },
        {
          "internalType": "uint256",
          "name": "_enrollmentStart",
          "type": "uint256"
        },
        {
          "internalType": "uint256",
          "name": "_enrollmentEnd",
          "type": "uint256"
        },
        {
          "internalType": "uint256",
          "name": "_enrollmentAmount",
          "type": "uint256"
        },
        {
          "internalType": "uint8",
          "name": "_enrollmentMinPlayers",
          "type": "uint8"
        },
        {
          "internalType": "uint8",
          "name": "_enrollmentMaxPlayers",
          "type": "uint8"
        },
        {
          "internalType": "uint8",
          "name": "_roundPauseDuration",
          "type": "uint8"
        },
        {
          "internalType": "uint8",
          "name": "_lastRoundPauseDuration",
          "type": "uint8"
        },
        {
          "internalType": "uint256",
          "name": "_missionStart",
          "type": "uint256"
        },
        {
          "internalType": "uint256",
          "name": "_missionEnd",
          "type": "uint256"
        },
        {
          "internalType": "uint8",
          "name": "_missionRounds",
          "type": "uint8"
        },
        {
          "internalType": "string",
          "name": "_missionName",
          "type": "string"
        }
      ],
      "name": "createMission",
      "outputs": [
        {
          "internalType": "address",
          "name": "",
          "type": "address"
        },
        {
          "internalType": "string",
          "name": "",
          "type": "string"
        }
      ],
      "stateMutability": "payable",
      "type": "function"
    },
    {
      "inputs": [],
      "name": "getAllMissions",
      "outputs": [
        {
          "internalType": "address[]",
          "name": "",
          "type": "address[]"
        },
        {
          "internalType": "enum Status[]",
          "name": "",
          "type": "uint8[]"
        },
        {
          "internalType": "string[]",
          "name": "",
          "type": "string[]"
        }
      ],
      "stateMutability": "view",
      "type": "function"
    },
    {
      "inputs": [],
      "name": "getFactorySummary",
      "outputs": [
        {
          "internalType": "address",
          "name": "ownerAddress",
          "type": "address"
        },
        {
          "internalType": "address",
          "name": "factoryAddress",
          "type": "address"
        },
        {
          "internalType": "address",
          "name": "implementation",
          "type": "address"
        },
        {
          "internalType": "uint256",
          "name": "totalMissions",
          "type": "uint256"
        },
        {
          "internalType": "uint256",
          "name": "weekly",
          "type": "uint256"
        },
        {
          "internalType": "uint256",
          "name": "monthly",
          "type": "uint256"
        },
        {
          "internalType": "uint256",
          "name": "missionFunds",
          "type": "uint256"
        },
        {
          "internalType": "uint256",
          "name": "ownerFunds",
          "type": "uint256"
        },
        {
          "internalType": "uint256",
          "name": "successes",
          "type": "uint256"
        },
        {
          "internalType": "uint256",
          "name": "failures",
          "type": "uint256"
        },
        {
          "internalType": "uint256[]",
          "name": "fundsPerTypeArray",
          "type": "uint256[]"
        }
      ],
      "stateMutability": "view",
      "type": "function"
    },
    {
      "inputs": [
        {
          "internalType": "enum MissionType",
          "name": "_type",
          "type": "uint8"
        }
      ],
      "name": "getFundsByType",
      "outputs": [
        {
          "internalType": "uint256",
          "name": "",
          "type": "uint256"
        }
      ],
      "stateMutability": "view",
      "type": "function"
    },
    {
      "inputs": [
        {
          "internalType": "uint256",
          "name": "n",
          "type": "uint256"
        }
      ],
      "name": "getLatestMissions",
      "outputs": [
        {
          "internalType": "address[]",
          "name": "",
          "type": "address[]"
        },
        {
          "internalType": "uint8[]",
          "name": "",
          "type": "uint8[]"
        },
        {
          "internalType": "string[]",
          "name": "",
          "type": "string[]"
        }
      ],
      "stateMutability": "view",
      "type": "function"
    },
    {
      "inputs": [
        {
          "internalType": "address",
          "name": "missionAddress",
          "type": "address"
        }
      ],
      "name": "getMissionData",
      "outputs": [
        {
          "components": [
            {
              "internalType": "address[]",
              "name": "players",
              "type": "address[]"
            },
            {
              "internalType": "enum MissionType",
              "name": "missionType",
              "type": "uint8"
            },
            {
              "internalType": "uint256",
              "name": "enrollmentStart",
              "type": "uint256"
            },
            {
              "internalType": "uint256",
              "name": "enrollmentEnd",
              "type": "uint256"
            },
            {
              "internalType": "uint256",
              "name": "enrollmentAmount",
              "type": "uint256"
            },
            {
              "internalType": "uint8",
              "name": "enrollmentMinPlayers",
              "type": "uint8"
            },
            {
              "internalType": "uint8",
              "name": "enrollmentMaxPlayers",
              "type": "uint8"
            },
            {
              "internalType": "uint8",
              "name": "roundPauseDuration",
              "type": "uint8"
            },
            {
              "internalType": "uint8",
              "name": "lastRoundPauseDuration",
              "type": "uint8"
            },
            {
              "internalType": "uint256",
              "name": "missionStart",
              "type": "uint256"
            },
            {
              "internalType": "uint256",
              "name": "missionEnd",
              "type": "uint256"
            },
            {
              "internalType": "uint8",
              "name": "missionRounds",
              "type": "uint8"
            },
            {
              "internalType": "uint8",
              "name": "roundCount",
              "type": "uint8"
            },
            {
              "internalType": "uint256",
              "name": "croStart",
              "type": "uint256"
            },
            {
              "internalType": "uint256",
              "name": "croCurrent",
              "type": "uint256"
            },
            {
              "components": [
                {
                  "internalType": "address",
                  "name": "player",
                  "type": "address"
                },
                {
                  "internalType": "uint256",
                  "name": "amountWon",
                  "type": "uint256"
                }
              ],
              "internalType": "struct Mission.PlayersWon[]",
              "name": "playersWon",
              "type": "tuple[]"
            },
            {
              "internalType": "uint256",
              "name": "pauseTimestamp",
              "type": "uint256"
            },
            {
              "internalType": "address[]",
              "name": "refundedPlayers",
              "type": "address[]"
            },
            {
              "internalType": "string",
              "name": "name",
              "type": "string"
            },
            {
              "internalType": "uint256",
              "name": "missionCreated",
              "type": "uint256"
            }
          ],
          "internalType": "struct Mission.MissionData",
          "name": "",
          "type": "tuple"
        }
      ],
      "stateMutability": "view",
      "type": "function"
    },
    {
      "inputs": [
        {
          "internalType": "enum Status",
          "name": "s",
          "type": "uint8"
        }
      ],
      "name": "getMissionsByStatus",
      "outputs": [
        {
          "internalType": "address[]",
          "name": "",
          "type": "address[]"
        },
        {
          "internalType": "uint8[]",
          "name": "",
          "type": "uint8[]"
        },
        {
          "internalType": "string[]",
          "name": "",
          "type": "string[]"
        }
      ],
      "stateMutability": "view",
      "type": "function"
    },
    {
      "inputs": [],
      "name": "getMissionsEnded",
      "outputs": [
        {
          "internalType": "address[]",
          "name": "",
          "type": "address[]"
        },
        {
          "internalType": "uint8[]",
          "name": "",
          "type": "uint8[]"
        },
        {
          "internalType": "string[]",
          "name": "",
          "type": "string[]"
        }
      ],
      "stateMutability": "view",
      "type": "function"
    },
    {
      "inputs": [
        {
          "internalType": "uint256",
          "name": "offset",
          "type": "uint256"
        },
        {
          "internalType": "uint256",
          "name": "limit",
          "type": "uint256"
        }
      ],
      "name": "getMissionsEndedPaged",
      "outputs": [
        {
          "internalType": "address[]",
          "name": "addrs",
          "type": "address[]"
        },
        {
          "internalType": "uint8[]",
          "name": "statuses",
          "type": "uint8[]"
        },
        {
          "internalType": "string[]",
          "name": "names",
          "type": "string[]"
        }
      ],
      "stateMutability": "view",
      "type": "function"
    },
    {
      "inputs": [],
      "name": "getMissionsNotEnded",
      "outputs": [
        {
          "internalType": "address[]",
          "name": "",
          "type": "address[]"
        },
        {
          "internalType": "uint8[]",
          "name": "",
          "type": "uint8[]"
        },
        {
          "internalType": "string[]",
          "name": "",
          "type": "string[]"
        }
      ],
      "stateMutability": "view",
      "type": "function"
    },
    {
      "inputs": [],
      "name": "getOwnershipProposal",
      "outputs": [
        {
          "internalType": "address",
          "name": "newOwner",
          "type": "address"
        },
        {
          "internalType": "address",
          "name": "proposer",
          "type": "address"
        },
        {
          "internalType": "uint256",
          "name": "timestamp",
          "type": "uint256"
        },
        {
          "internalType": "uint256",
          "name": "timeLeft",
          "type": "uint256"
        }
      ],
      "stateMutability": "view",
      "type": "function"
    },
    {
      "inputs": [
        {
          "internalType": "address",
          "name": "player",
          "type": "address"
        }
      ],
      "name": "getPlayerLimits",
      "outputs": [
        {
          "internalType": "uint8",
          "name": "weekUsed",
          "type": "uint8"
        },
        {
          "internalType": "uint8",
          "name": "weekMax",
          "type": "uint8"
        },
        {
          "internalType": "uint8",
          "name": "monthUsed",
          "type": "uint8"
        },
        {
          "internalType": "uint8",
          "name": "monthMax",
          "type": "uint8"
        },
        {
          "internalType": "uint256",
          "name": "secToWeek",
          "type": "uint256"
        },
        {
          "internalType": "uint256",
          "name": "secToMonth",
          "type": "uint256"
        }
      ],
      "stateMutability": "view",
      "type": "function"
    },
    {
      "inputs": [
        {
          "internalType": "address",
          "name": "player",
          "type": "address"
        }
      ],
      "name": "getPlayerParticipation",
      "outputs": [
        {
          "internalType": "address[]",
          "name": "",
          "type": "address[]"
        },
        {
          "internalType": "enum Status[]",
          "name": "",
          "type": "uint8[]"
        },
        {
          "internalType": "string[]",
          "name": "",
          "type": "string[]"
        }
      ],
      "stateMutability": "view",
      "type": "function"
    },
    {
      "inputs": [],
      "name": "getTotalMissions",
      "outputs": [
        {
          "internalType": "uint256",
          "name": "",
          "type": "uint256"
        }
      ],
      "stateMutability": "view",
      "type": "function"
    },
    {
      "inputs": [
        {
          "internalType": "address",
          "name": "",
          "type": "address"
        }
      ],
      "name": "isMission",
      "outputs": [
        {
          "internalType": "bool",
          "name": "",
          "type": "bool"
        }
      ],
      "stateMutability": "view",
      "type": "function"
    },
    {
      "inputs": [],
      "name": "missionImplementation",
      "outputs": [
        {
          "internalType": "address",
          "name": "",
          "type": "address"
        }
      ],
      "stateMutability": "view",
      "type": "function"
    },
    {
      "inputs": [
        {
          "internalType": "address",
          "name": "",
          "type": "address"
        }
      ],
      "name": "missionNames",
      "outputs": [
        {
          "internalType": "string",
          "name": "",
          "type": "string"
        }
      ],
      "stateMutability": "view",
      "type": "function"
    },
    {
      "inputs": [
        {
          "internalType": "address",
          "name": "",
          "type": "address"
        }
      ],
      "name": "missionStatus",
      "outputs": [
        {
          "internalType": "enum Status",
          "name": "",
          "type": "uint8"
        }
      ],
      "stateMutability": "view",
      "type": "function"
    },
    {
      "inputs": [
        {
          "internalType": "enum MissionType",
          "name": "",
          "type": "uint8"
        }
      ],
      "name": "missionTypeCounts",
      "outputs": [
        {
          "internalType": "uint256",
          "name": "",
          "type": "uint256"
        }
      ],
      "stateMutability": "view",
      "type": "function"
    },
    {
      "inputs": [
        {
          "internalType": "uint256",
          "name": "",
          "type": "uint256"
        }
      ],
      "name": "missions",
      "outputs": [
        {
          "internalType": "address",
          "name": "",
          "type": "address"
        }
      ],
      "stateMutability": "view",
      "type": "function"
    },
    {
      "inputs": [],
      "name": "monthlyLimit",
      "outputs": [
        {
          "internalType": "uint8",
          "name": "",
          "type": "uint8"
        }
      ],
      "stateMutability": "view",
      "type": "function"
    },
    {
      "inputs": [],
      "name": "owner",
      "outputs": [
        {
          "internalType": "address",
          "name": "",
          "type": "address"
        }
      ],
      "stateMutability": "view",
      "type": "function"
    },
    {
      "inputs": [],
      "name": "proposalProposer",
      "outputs": [
        {
          "internalType": "address",
          "name": "",
          "type": "address"
        }
      ],
      "stateMutability": "view",
      "type": "function"
    },
    {
      "inputs": [],
      "name": "proposalTimestamp",
      "outputs": [
        {
          "internalType": "uint256",
          "name": "",
          "type": "uint256"
        }
      ],
      "stateMutability": "view",
      "type": "function"
    },
    {
      "inputs": [
        {
          "internalType": "address",
          "name": "newOwner",
          "type": "address"
        }
      ],
      "name": "proposeOwnershipTransfer",
      "outputs": [],
      "stateMutability": "nonpayable",
      "type": "function"
    },
    {
      "inputs": [],
      "name": "proposedNewOwner",
      "outputs": [
        {
          "internalType": "address",
          "name": "",
          "type": "address"
        }
      ],
      "stateMutability": "view",
      "type": "function"
    },
    {
      "inputs": [
        {
          "internalType": "address",
          "name": "user",
          "type": "address"
        }
      ],
      "name": "recordEnrollment",
      "outputs": [],
      "stateMutability": "nonpayable",
      "type": "function"
    },
    {
      "inputs": [
        {
          "internalType": "enum MissionType",
          "name": "missionType",
          "type": "uint8"
        }
      ],
      "name": "registerMissionFunds",
      "outputs": [],
      "stateMutability": "payable",
      "type": "function"
    },
    {
      "inputs": [
        {
          "internalType": "address",
          "name": "account",
          "type": "address"
        }
      ],
      "name": "removeAuthorizedAddress",
      "outputs": [],
      "stateMutability": "nonpayable",
      "type": "function"
    },
    {
      "inputs": [],
      "name": "renounceOwnership",
      "outputs": [],
      "stateMutability": "nonpayable",
      "type": "function"
    },
    {
      "inputs": [
        {
          "internalType": "enum MissionType",
          "name": "",
          "type": "uint8"
        }
      ],
      "name": "reservedFunds",
      "outputs": [
        {
          "internalType": "uint256",
          "name": "",
          "type": "uint256"
        }
      ],
      "stateMutability": "view",
      "type": "function"
    },
    {
      "inputs": [],
      "name": "reservedFundsBreakdown",
      "outputs": [
        {
          "internalType": "uint256[7]",
          "name": "",
          "type": "uint256[7]"
        }
      ],
      "stateMutability": "view",
      "type": "function"
    },
    {
      "inputs": [
        {
          "internalType": "address",
          "name": "user",
          "type": "address"
        }
      ],
      "name": "secondsTillMonthlySlot",
      "outputs": [
        {
          "internalType": "uint256",
          "name": "",
          "type": "uint256"
        }
      ],
      "stateMutability": "view",
      "type": "function"
    },
    {
      "inputs": [
        {
          "internalType": "address",
          "name": "user",
          "type": "address"
        }
      ],
      "name": "secondsTillWeeklySlot",
      "outputs": [
        {
          "internalType": "uint256",
          "name": "",
          "type": "uint256"
        }
      ],
      "stateMutability": "view",
      "type": "function"
    },
    {
      "inputs": [
        {
          "internalType": "uint8",
          "name": "_weekly",
          "type": "uint8"
        },
        {
          "internalType": "uint8",
          "name": "_monthly",
          "type": "uint8"
        }
      ],
      "name": "setEnrollmentLimits",
      "outputs": [],
      "stateMutability": "nonpayable",
      "type": "function"
    },
    {
      "inputs": [
        {
          "internalType": "enum Status",
          "name": "newStatus",
          "type": "uint8"
        }
      ],
      "name": "setMissionStatus",
      "outputs": [],
      "stateMutability": "nonpayable",
      "type": "function"
    },
    {
      "inputs": [],
      "name": "totalMissionFailures",
      "outputs": [
        {
          "internalType": "uint256",
          "name": "",
          "type": "uint256"
        }
      ],
      "stateMutability": "view",
      "type": "function"
    },
    {
      "inputs": [],
      "name": "totalMissionFunds",
      "outputs": [
        {
          "internalType": "uint256",
          "name": "",
          "type": "uint256"
        }
      ],
      "stateMutability": "view",
      "type": "function"
    },
    {
      "inputs": [],
      "name": "totalMissionSuccesses",
      "outputs": [
        {
          "internalType": "uint256",
          "name": "",
          "type": "uint256"
        }
      ],
      "stateMutability": "view",
      "type": "function"
    },
    {
      "inputs": [],
      "name": "totalOwnerEarnedFunds",
      "outputs": [
        {
          "internalType": "uint256",
          "name": "",
          "type": "uint256"
        }
      ],
      "stateMutability": "view",
      "type": "function"
    },
    {
      "inputs": [
        {
          "internalType": "address",
          "name": "newOwner",
          "type": "address"
        }
      ],
      "name": "transferOwnership",
      "outputs": [],
      "stateMutability": "nonpayable",
      "type": "function"
    },
    {
      "inputs": [
        {
          "internalType": "address",
          "name": "user",
          "type": "address"
        },
        {
          "internalType": "uint256",
          "name": "startTs",
          "type": "uint256"
        },
        {
          "internalType": "uint256",
          "name": "endTs",
          "type": "uint256"
        }
      ],
      "name": "undoEnrollmentInWindow",
      "outputs": [],
      "stateMutability": "nonpayable",
      "type": "function"
    },
    {
      "inputs": [],
      "name": "weeklyLimit",
      "outputs": [
        {
          "internalType": "uint8",
          "name": "",
          "type": "uint8"
        }
      ],
      "stateMutability": "view",
      "type": "function"
    },
    {
      "inputs": [
        {
          "internalType": "uint256",
          "name": "amount",
          "type": "uint256"
        }
      ],
      "name": "withdrawFunds",
      "outputs": [],
      "stateMutability": "nonpayable",
      "type": "function"
    },
    {
      "stateMutability": "payable",
      "type": "receive"
    }
  ],
  "bytecode": "0x60a03461012557601f61427d38819003918201601f19168301916001600160401b0383118484101761012a5780849260209460405283398101031261012557516001600160a01b03811680820361012557331561010f5760008054336001600160a01b0319821681178355604051939290916001600160a01b0316907f8be0079c531659141344cd1fd0a4f28419497f9722a3daafe3b4186f6b6457e09080a360018055610f0761ffff196003541617600355156100e1575060805260405161413c9081610141823960805181818161052601528181610fa601526117080152f35b62461bcd60e51b8152602060048201526009602482015268696d706c207a65726f60b81b6044820152606490fd5b631e4fbdf760e01b600052600060045260246000fd5b600080fd5b634e487b7160e01b600052604160045260246000fdfe6080806040526004361015610011575b005b600090813560e01c90816304a6175214612e0a575080630814ab8214612dc65780630a6005da14612da25780630fc8c4ed14612d79578063155dd5ee14612c115780631e59d58414612a7f57806320c5718f146127bb57806321040fc3146126ad5780632c8fe526146126695780632d771f30146126405780632e33b07f146114cb5780633589cf7214612622578063370127621461254757806342f1181e1461245a578063503c0b88146121e95780635c5bb6f2146121cb57806363679723146121ad5780636805036d1461204d5780636d8a1390146120225780637071293914611f3b578063715018a614611ee15780637200b82914611d795780637e9eae5014611c7057806383fbea5114611c52578063861a68d614611c315780638c09b7c314611bf15780638da5cb5b14611bca5780639804a58614611b8c57806398d05c3e14611b4a578063a9bea789146119d6578063aa1f059514611997578063b6202913146117c5578063b6de7b4314611776578063b918161114611737578063bd487725146116f2578063c17f9e59146114f5578063c416ad2a146114cb578063c892fde3146114ad578063cbf2080d1461131a578063d3050eba146112fc578063d41eca6414611252578063d8d6e8ff146110b5578063df4db4631461102e578063e504777014610f01578063ea507dad146103fa578063eff0ab92146102f1578063f08e231e146102be578063f225b56d146102885763f2fde38b0361000f57346102855760203660031901126102855761024e612e26565b610256613f25565b6001600160a01b038116156102715761026e90613f70565b80f35b631e4fbdf760e01b82526004829052602482fd5b80fd5b5034610285576040366003190112610285576102ba6102ab602435600435613d5e565b60409391935193849384612f42565b0390f35b5034610285576020366003190112610285576004359060078210156102855760206102e8836131b3565b54604051908152f35b5034610285576020366003190112610285576001600160a01b03610313612e26565b168152600f6020526040812080548291825b828110610375575050508161034157602091505b604051908152f35b62093a808201809211610361575061035c6020914290613648565b610339565b634e487b7160e01b81526011600452602490fd5b61037f8183612fe8565b90549060031b1c62093a8081018091116103e65742106103a2575b600101610325565b841580156103cd575b1561039a57935060016103be8583612fe8565b90549060031b1c94905061039a565b50846103d98284612fe8565b90549060031b1c106103ab565b634e487b7160e01b85526011600452602485fd5b5061018036600319011261028557600760043510156102855760843560ff811681036108a85760a4359160ff831683036102855760c4359160ff831683036108a85760e43560ff81168103610efd57610144359060ff82168203610ef95761016435946001600160401b038611610ef55736602387011215610ef5578560040135956001600160401b038711610ef1573660248883010111610ef15785546001600160a01b031633148015610edb575b6104b3906135e0565b6104bb613f4e565b600560ff851610610e7c5760ff841660ff861610610e115760ff851660ff891610610da7576044356024351015610d56576044356101043510610cf85761010435610124351115610cb45760643515610c5b57603c60ff831610610bfd57603c60ff841610610b9a577f0000000000000000000000000000000000000000000000000000000000000000608881901c62ffffff16763d602d80600a3d3981f3363d3d373d3d3d363d7300000017875260781b6e5af43d82803e903d91602b57fd5bf3176020526001600160a01b036037600988f016968715610b8b5786906105a46004356131b3565b6105ae81546131e7565b905580156109b157808060246105c56020946131cc565b956105d360405197886130d5565b828752018386013783010152965b868652600c60205260408620600160ff19825416179055868652600d6020526040862060ff19815416905586865260106020526040862088516001600160401b03811161099d576106328254613069565b601f811161095c575b50806020601f82116001146108f85789916108ed575b508160011b916000199060031b1c19161790555b85546001600160a01b0316873b156108e95760405190630ccf8fed60e31b8252600482015230602482015261069f60448201600435612faa565b6024356064820152604435608482015260643560a482015260ff861660c482015260ff821660e482015260ff831661010482015260ff8416610124820152610104356101448201526101243561016482015260ff85166101848201526101c06101a48201528681806107156101c482018d612ec4565b0381348c5af180156108de576108ca575b50600254600160401b8110156108b6577fbb01632f8ba922012a4cac12632e6d17bba3f2bf82e0e427b30da8a824201d5e9460ff6107a895818c96818d9b978c610777896001859b01600255612fb7565b819291549060031b91821b9160018060a01b03901b1916179055816040519b8c9b6101808d526101808d0190612ec4565b996107b860208d01600435612faa565b60243560408d015260443560608d01521660808b01521660a08901521660c08701521660e08501526064356101008501526101043561012085015261012435610140850152166101608301520390a261081260043561319a565b5460021c801515806108ac575b610846575b5050600180556102ba6040519283928352604060208401526040830190612ec4565b61085160043561319a565b61085c828254613648565b9055823b156108a857816004916040519283809263eb2bab7760e01b8252875af1801561089d5715610824576108938280926130d5565b6102855780610824565b6040513d84823e3d90fd5b5080fd5b508047101561081f565b634e487b7160e01b87526041600452602487fd5b866108d7919792976130d5565b9438610726565b6040513d89823e3d90fd5b8680fd5b90508a015138610651565b915082895281892089925b8c601f198416851061094557506001935082601f1981161061092c575b5050811b019055610665565b8c015160001960f88460031b161c191690553880610920565b810151825560209384019360019092019101610903565b82895260208920601f830160051c810160208410610996575b601f830160051c8201811061098b57505061063b565b8a8155600101610975565b5080610975565b634e487b7160e01b88526041600452602488fd5b5050506109bf600435613fb7565b6109ca6004356131b3565b54868172184f03e93ff9f4daa797ed6e38ed64bf6a1f0160401b811015610b68575b806d04ee2d6d415b85acef8100000000600a921015610b4d575b662386f26fc10000811015610b39575b6305f5e100811015610b28575b612710811015610b19575b6064811015610b0b575b1015610b03575b6001810191600a6021610a6a610a54866131cc565b95610a6260405197886130d5565b8087526131cc565b602086019490601f19013686378501015b60001901916f181899199a1a9b1b9c1cb0b131b232b360811b8282061a835304908115610aaa57600a90610a7b565b5050610aec926020600392610afd946040519684610ad1899651809287808a019101612ea1565b8501916201016960ed1b858401525180936023840190612ea1565b01010301601f1981018352826130d5565b966105e1565b600101610a3f565b606460029104920191610a38565b61271060049104920191610a2e565b6305f5e10060089104920191610a23565b662386f26fc1000060109104920191610a16565b6d04ee2d6d415b85acef810000000060209104920191610a06565b506040905072184f03e93ff9f4daa797ed6e38ed64bf6a1f0160401b82046109ec565b63b06ebf3d60e01b8752600487fd5b60405162461bcd60e51b815260206004820152603560248201527f4c61737420726f756e64207061757365206475726174696f6e206d757374206260448201527465206174206c65617374203630207365636f6e647360581b6064820152608490fd5b60405162461bcd60e51b815260206004820152603060248201527f526f756e64207061757365206475726174696f6e206d7573742062652061742060448201526f6c65617374203630207365636f6e647360801b6064820152608490fd5b60405162461bcd60e51b815260206004820152602b60248201527f456e726f6c6c6d656e7420616d6f756e74206d7573742062652067726561746560448201526a72207468616e207a65726f60a81b6064820152608490fd5b606460405162461bcd60e51b815260206004820152602060248201527f4d697373696f6e207374617274206d757374206265206265666f726520656e646044820152fd5b60405162461bcd60e51b815260206004820152603060248201527f4d697373696f6e207374617274206d757374206265206f6e206f72206166746560448201526f1c88195b9c9bdb1b1b595b9d08195b9960821b6064820152608490fd5b60405162461bcd60e51b815260206004820152602360248201527f456e726f6c6c6d656e74207374617274206d757374206265206265666f726520604482015262195b9960ea1b6064820152608490fd5b608460405162461bcd60e51b815260206004820152604060248201527f4d6178696d756d20706c6179657273206d75737420626520677265617465722060448201527f7468616e206f7220657175616c20746f206d696e696d756d20706c61796572736064820152fd5b60405162461bcd60e51b815260206004820152603f60248201527f4d696e696d756d20706c6179657273206d75737420626520677265617465722060448201527f7468616e206f7220657175616c20746f206d697373696f6e20726f756e6473006064820152608490fd5b60405162461bcd60e51b815260206004820152603160248201527f4d697373696f6e20726f756e6473206d7573742062652067726561746572207460448201527068616e206f7220657175616c20746f203560781b6064820152608490fd5b50338652600b602052604086205460ff166104aa565b8580fd5b8480fd5b8380fd5b8280fd5b503461028557806003193601126102855761010090604051610f2383826130d5565b600781526020810191601f198401368437805b6007811015610f5d57600190610f4b8161319a565b54610f5682866132d3565b5201610f36565b5091909160018060a01b0381541660025493600354956004549060055490600654916007549360ff6040519b8c9b6101608d01998d528c6020309101528c604060018060a01b037f00000000000000000000000000000000000000000000000000000000000000001691015260608d015281811660808d015260081c1660a08b015260c08a015260e089015287015261012086015261016061014086015251809152610180840192915b818110611015575050500390f35b8251845285945060209384019390920191600101611007565b503461028557806003193601126102855760e0908160405161105082826130d5565b3690376040519061106183836130d5565b82368337805b600781101561108a5760019061107c8161319a565b548160051b85015201611067565b506040519190825b6007821061109f57505050f35b6020806001928551815201930191019091611092565b50346102855760203660031901126102855760043560088110156108a857338252600c6020526110eb60ff604084205416613b89565b338252600d60205260ff60408320541690338352600d602052604083209160ff198354169260ff831680941790558390600683149182600014611235576111336006546131e7565b6006555b60088210156112215761120d5783906040514281527f0ea143fc1698242668979798ae4ab3fbbece2356edb72793bc92f1c4aca96ca960203392a4839160058114918215611202575b508282156111dd575b5050611193578280f35b6111c9576040514281527f471602128a67197776b2e0caf0ffdabf9bb93efcca8b7cb74862aa9f63f2347f60203392a338808280f35b634e487b7160e01b82526021600452602482fd5b9091506111ee576007143882611189565b634e487b7160e01b84526021600452602484fd5b859350915038611180565b634e487b7160e01b85526021600452602485fd5b634e487b7160e01b86526021600452602486fd5b5084600784036111375761124a6007546131e7565b600755611137565b50346102855760403660031901126102855760043560ff81168091036108a85760243560ff811691828203610ef9577f321994b8855ae38e4fd6162f7a0bd7cde88be83aa3acc96e03c17b7f733b43e19260409260018060a01b03865416331480156112e7575b6112c2906135e0565b8261ff006003549260081b169161ffff1916171760035582519182526020820152a180f35b50338652600b6020528386205460ff166112b9565b50346102855780600319360112610285576020604051620151808152f35b5034610285576020366003190112610285576001600160a01b0361133c612e26565b168152600f602052604081208190829083809181908054915b828110611402575050506003549480156000146113d0575080915b806113aa575060c09460ff8092945b8160405197168752818316602088015216604086015260081c166060840152608083015260a0820152f35b9062278d008201809211610361575060c09460ff6113ca81934290613648565b9461137f565b62093a8081018091116113ee576113e8904290613648565b91611370565b634e487b7160e01b82526011600452602482fd5b61140c8183612fe8565b90549060031b1c62278d008101808211611488574210611430575b50600101611355565b9561143a906131e7565b95851580156114a4575b61149c575b62093a808101808211611488574210156114275796611467906131e7565b968815801561147f575b156114275797506001611427565b50888110611471565b634e487b7160e01b86526011600452602486fd5b945084611449565b50858110611444565b50346102855780600319360112610285576020600654604051908152f35b5034610285576020366003190112610285576004359060078210156102855760206102e88361319a565b50346102855760203660031901126102855761150f612e26565b338252600d60205260ff60408320541660088110156116de576001036116a85762278cff19420190428211611694576001600160a01b0316808352600f60205260408320805492845b8481108061167b575b156115745761156f906131e7565b611558565b83838792806115fa575b50805490600160401b8210156115e657816115a19160016115b994018155612fe8565b429082549060031b91821b91600019901b1916179055565b7f498f5e6dcf570483a1848853791046a7f10012193176d71f959f46eb7713d7446020604051428152a280f35b634e487b7160e01b84526041600452602484fd5b92805b611608858454613648565b81101561165857806116526116286116228860019561363b565b86612fe8565b90549060031b1c6116398387612fe8565b90919082549060031b91821b91600019901b1916179055565b016115fd565b5092835b818110611669575061157e565b60019061167584613bf4565b0161165c565b50816116878285612fe8565b90549060031b1c10611561565b634e487b7160e01b83526011600452602483fd5b60405162461bcd60e51b815260206004820152600e60248201526d24b73b30b634b21031b0b63632b960911b6044820152606490fd5b634e487b7160e01b83526021600452602483fd5b50346102855780600319360112610285576040517f00000000000000000000000000000000000000000000000000000000000000006001600160a01b03168152602090f35b50346102855760203660031901126102855760209060ff906040906001600160a01b03611762612e26565b168152600b84522054166040519015158152f35b5034610285576020366003190112610285576102ba906117b1906040906001600160a01b036117a3612e26565b1681526010602052206130f6565b604051918291602083526020830190612ec4565b50346102855780600319360112610285576002548190825b81811061192b57506117ee82613223565b906118016117fb84613223565b93613289565b9084805b82821061181f575050506102ba9060405193849384612f42565b61182882612fb7565b905460039190911b1c6001600160a01b03168752600d602052604087205460ff166008811015806119175760068214801561190b575b61186f575b50509060010190611805565b61187884612fb7565b905460039190911b1c6001600160a01b031661189484896132d3565b526118f757816118f0916118aa6001948a6132d3565b526118b484612fb7565b848060a01b0391549060031b1c16895260106020526118d560408a206130f6565b6118df82886132d3565b526118ea81876132d3565b506131e7565b9038611863565b634e487b7160e01b88526021600452602488fd5b5050876007821461185e565b634e487b7160e01b89526021600452602489fd5b61193481612fb7565b905460039190911b1c6001600160a01b03168452600d602052604084205460ff16600881101561120d576006811490811561198c575b50611978575b6001016117dd565b916119846001916131e7565b929050611970565b60079150143861196a565b50346102855760203660031901126102855760209060ff906040906001600160a01b036119c2612e26565b168152600c84522054166040519015158152f35b5060203660031901126102855760043560078110156108a857338252600c602052611a0760ff604084205416613b89565b611a0f613f4e565b3415611b0657338252600d60205260ff60408320541660088110156116de576006148015611ae4575b15611aa857611a468161319a565b611a5134825461363b565b9055611a5f3460045461363b565b600455611a716003340460055461363b565b600555604051903482527f606617fd09d9890413e3c46147b844d4562351f86e0f7a5c60849bbf0ef0281160203393a36001805580f35b60405162461bcd60e51b815260206004820152601460248201527321b0b63632b9103737ba10309036b4b9b9b4b7b760611b6044820152606490fd5b50338252600d60205260ff60408320541660088110156116de57600714611a38565b606460405162461bcd60e51b815260206004820152602060248201527f416d6f756e74206d7573742062652067726561746572207468616e207a65726f6044820152fd5b50346102855760603660031901126102855761026e611b67612e26565b338352600c602052611b7f60ff604085205416613b89565b6044359060243590613c33565b503461028557602036600319011261028557611bae611ba9612e26565b613a0a565b604051911515825260038110156116de57604092506020820152f35b5034610285578060031936011261028557546040516001600160a01b039091168152602090f35b50346102855780600319360112610285576080611c0c613999565b604080516001600160a01b039586168152949093166020850152918301526060820152f35b5034610285578060031936011261028557602060ff60035416604051908152f35b50346102855780600319360112610285576020600754604051908152f35b50346102855760203660031901126102855760043590600254808311611d71575b611c9a83613223565b91611ca484613223565b93611cae81613289565b926000198101908111835b838110611cd057604051806102ba888b8b84612f42565b816103e657611ce7611ce28285613648565b612fb7565b905460039190911b1c6001600160a01b031680611d04838a6132d3565b52808652600d60205260ff6040872054166008811015611d5d57908291611d2d6001948c6132d3565b5286526010602052611d41604087206130f6565b611d4b82896132d3565b52611d5681886132d3565b5001611cb9565b634e487b7160e01b87526021600452602487fd5b915081611c91565b503461028557806003193601126102855780546001600160a01b031633148015611ecb575b611da7906135e0565b600a546001600160a01b03163314611e87576008546201518081018091116113ee574211611e4f57600954611de4906001600160a01b0316613f70565b600954604080516001600160a01b03909216825242602083015233917fdd72dd33198968a9cdc9b1e5cbff344fb8d04d99f8c15c0a02416b04e857b4679190a26001600160601b0360a01b600954166009556001600160601b0360a01b600a5416600a558060085580f35b60405162461bcd60e51b815260206004820152601060248201526f141c9bdc1bdcd85b08195e1c1a5c995960821b6044820152606490fd5b606460405162461bcd60e51b815260206004820152602060248201527f43616e6e6f7420636f6e6669726d20796f7572206f776e2070726f706f73616c6044820152fd5b50338152600b602052604081205460ff16611d9e565b5034610285578060031936011261028557611efa613f25565b80546001600160a01b03198116825581906001600160a01b03167f8be0079c531659141344cd1fd0a4f28419497f9722a3daafe3b4186f6b6457e08280a380f35b503461028557602036600319011261028557611f55612e26565b81546001600160a01b03163314801561200c575b611f72906135e0565b6001600160a01b0316611f86811515613655565b808252600b60205260ff60408320541615611fd657808252600b60205260408220805460ff191690557f66d5f06f711af3c9feba3203fdb00b51345d514c68585d9d319c5ff5e6f775928280a280f35b60405162461bcd60e51b815260206004820152600e60248201526d139bdd08185d5d1a1bdc9a5e995960921b6044820152606490fd5b50338252600b602052604082205460ff16611f69565b50346102855780600319360112610285576102ba61203e6136c4565b60409391935193849384613000565b50346102855780600319360112610285576002548190825b818110612140575061207682613223565b906120836117fb84613223565b9084805b8282106120a1575050506102ba9060405193849384612f42565b6120aa82612fb7565b905460039190911b1c6001600160a01b03168752600d602052604087205460ff1660088110158061191757600682141580612133575b6120f1575b50509060010190612087565b6120fa84612fb7565b905460039190911b1c6001600160a01b031661211684896132d3565b526118f7578161212c916118aa6001948a6132d3565b90386120e5565b50508760078214156120e0565b61214981612fb7565b905460039190911b1c6001600160a01b03168452600d602052604084205460ff16600881101561120d57600681141590816121a1575b5061218d575b600101612065565b916121996001916131e7565b929050612185565b6007915014153861217f565b50346102855780600319360112610285576020600454604051908152f35b50346102855780600319360112610285576020600254604051908152f35b503461028557602036600319011261028557612203612e26565b6002546001600160a01b0390911690829080805b6123ac575061222584613223565b9261223861223286613223565b95613289565b928092805b61225157604051806102ba878a8a84613000565b60001981018181116116945761226690612fb7565b9054604051629c95e160e41b81526004810186905260039290921b1c6001600160a01b031690602081602481855afa90811561237357849161237e575b506122b9575b506122b390613693565b8061223d565b806122c786899794976132d3565b526040516368c6ba2160e01b8152602081600481855afa908115612373578491612337575b5091612330916123086122b394612303848d6132d3565b6136b8565b8452601060205261231b604085206130f6565b61232582896132d3565b526118ea81886132d3565b93906122a9565b90506020813d821161236b575b81612351602093836130d5565b81010312610ef957516008811015610ef9576123306122ec565b3d9150612344565b6040513d86823e3d90fd5b61239f915060203d81116123a5575b61239781836130d5565b8101906136a0565b386122a3565b503d61238d565b60001981018181116124465760206123c5602492612fb7565b9054604051629c95e160e41b8152600481018990529384929091839160031b1c6001600160a01b03165afa908115612373578491612428575b50612413575b61240d90613693565b80612217565b9361242061240d916131e7565b949050612404565b612440915060203d81116123a55761239781836130d5565b386123fe565b634e487b7160e01b84526011600452602484fd5b503461028557602036600319011261028557612474612e26565b81546001600160a01b031633148015612531575b612491906135e0565b6001600160a01b03166124a5811515613655565b808252600b60205260ff6040832054166124f757808252600b60205260408220805460ff191660011790557f10ac961f00d5e732ba4dcc2c6fb09bebea0eb9edd2a75c8109775ef288382e678280a280f35b60405162461bcd60e51b8152602060048201526012602482015271105b1c9958591e48185d5d1a1bdc9a5e995960721b6044820152606490fd5b50338252600b602052604082205460ff16612488565b5034610285576020366003190112610285576001600160a01b03612569612e26565b168152600f6020526040812080548291825b8281106125b157505050816125965760209150604051908152f35b62278d008201809211610361575061035c6020914290613648565b6125bb8183612fe8565b90549060031b1c62278d0081018091116103e65742106125de575b60010161257b565b84158015612609575b156125d657935060016125fa8583612fe8565b90549060031b1c9490506125d6565b50846126158284612fe8565b90549060031b1c106125e7565b50346102855780600319360112610285576020600554604051908152f35b5034610285578060031936011261028557600a546040516001600160a01b039091168152602090f35b5034610285576020366003190112610285576004359060025482101561028557602061269483612fb7565b905460405160039290921b1c6001600160a01b03168152f35b5034610285576020366003190112610285576126c7612e26565b81546001600160a01b0316331480156127a5575b6126e4906135e0565b6001600160a01b038116801561276c576001600160601b0360a01b6009541617600955336001600160601b0360a01b600a541617600a55426008557fc29bdbd554e41df97e5c40fc273a09677ac133c245f0064bdffef5cc72176e1960405180612766339442908360209093929193604081019460018060a01b031681520152565b0390a280f35b60405162461bcd60e51b815260206004820152601160248201527024b73b30b634b2103732bb9037bbb732b960791b6044820152606490fd5b50338252600b602052604082205460ff166126db565b5034610285576020366003190112610285576127d5612e26565b816102606040516127e5816130a3565b606081528260208201528260408201528260608201528260808201528260a08201528260c08201528260e08201528261010082015282610120820152826101408201528261016082015282610180820152826101a0820152826101c082015260606101e08201528261020082015260606102208201526060610240820152015260018060a01b03168015612a3a578160049160405192838092631f385f7960e21b82525afa90811561089d578291612a18575b5060405190602082526128b9815161028060208501526102a0840190612e64565b926128cc60208301516040850190612faa565b6040820151606084015260608201516080840152608082015160a084015260ff60a08301511660c084015260ff60c08301511660e084015260ff60e08301511661010084015260ff6101008301511661012084015261012082015161014084015261014082015161016084015260ff6101608301511661018084015260ff610180830151166101a08401526101a08201516101c08401526101c08201516101e08401526101e082015193601f1984820301610200850152602080865192838152019501915b8181106129ed575050506102606129e06129ca8495610200850151610220870152610220850151601f1987830301610240880152612e64565b610240840151858203601f190184870152612ec4565b9101516102808301520390f35b825180516001600160a01b031687526020908101518188015260409096019590920191600101612991565b612a3491503d8084833e612a2c81836130d5565b81019061336e565b38612898565b60405162461bcd60e51b815260206004820152601760248201527f496e76616c6964206d697373696f6e20616464726573730000000000000000006044820152606490fd5b50346102855760203660031901126102855760043590600882101591826108a857600254928293835b818110612bb65750612ab985613223565b93612acc612ac687613223565b96613289565b938190825b848110612ae857604051806102ba898c8c84612f42565b612af181612fb7565b905460039190911b1c6001600160a01b03168452600d602052604084205460ff168661120d57600881101561120d578214612b2f575b600101612ad1565b919450612b3b82612fb7565b905460039190911b1c6001600160a01b0316612b5786896132d3565b526001612bae8496612b69818c6132d3565b60ff85169052612b7885612fb7565b848060a01b0391549060031b1c1686526010602052612b99604087206130f6565b612ba3828b6132d3565b526118ea818a6132d3565b929050612b27565b612bbf81612fb7565b905460039190911b1c6001600160a01b03168552600d602052604085205460ff1683611221576008811015611221578414612bfd575b600101612aa8565b94612c096001916131e7565b959050612bf5565b503461028557602036600319011261028557600435612c2e613f25565b612c36613f4e565b81546001600160a01b031690808215612d3c5715612d35575b478111612cf9578280808084865af13d15612cf4573d612c6e816131cc565b90612c7c60405192836130d5565b81528460203d92013e5b15612cbd5760207feaff4b37086828766ad3268786972c0cd24259d4c87a80f9d3963a3c3d999b0d91604051908152a26001805580f35b60405162461bcd60e51b815260206004820152600f60248201526e151c985b9cd9995c8819985a5b1959608a1b6044820152606490fd5b612c86565b60405162461bcd60e51b8152602060048201526014602482015273496e73756666696369656e742062616c616e636560601b6044820152606490fd5b5047612c4f565b60405162461bcd60e51b815260206004820152601560248201527424b73b30b634b21036b0b730b3b2b91037bbb732b960591b6044820152606490fd5b50346102855780600319360112610285576009546040516001600160a01b039091168152602090f35b5034610285578060031936011261028557602060ff60035460081c16604051908152f35b50346102855760203660031901126102855760209060ff906040906001600160a01b03612df1612e26565b168152600d8452205416612e086040518092612e41565bf35b9050346108a857816003193601126108a8576020906008548152f35b600435906001600160a01b0382168203612e3c57565b600080fd5b906008821015612e4e5752565b634e487b7160e01b600052602160045260246000fd5b906020808351928381520192019060005b818110612e825750505090565b82516001600160a01b0316845260209384019390920191600101612e75565b60005b838110612eb45750506000910152565b8181015183820152602001612ea4565b90602091612edd81518092818552858086019101612ea1565b601f01601f1916010190565b9080602083519182815201916020808360051b8301019401926000915b838310612f1557505050505090565b9091929394602080612f33600193601f198682030187528951612ec4565b97019301930191939290612f06565b939290612f5790606086526060860190612e64565b9380850360208201526020808451968781520193016000955b808710612f8f575050612f8c9394506040818403910152612ee9565b90565b909360208060019260ff885116815201950196019590612f70565b906007821015612e4e5752565b600254811015612fd257600260005260206000200190600090565b634e487b7160e01b600052603260045260246000fd5b8054821015612fd25760005260206000200190600090565b93929061301590606086526060860190612e64565b9380850360208201526020808451968781520193016000955b80871061304a575050612f8c9394506040818403910152612ee9565b90936020808261305d6001948951612e41565b0195019601959061302e565b90600182811c92168015613099575b602083101461308357565b634e487b7160e01b600052602260045260246000fd5b91607f1691613078565b61028081019081106001600160401b038211176130bf57604052565b634e487b7160e01b600052604160045260246000fd5b90601f801991011681019081106001600160401b038211176130bf57604052565b906040519182600082549261310a84613069565b80845293600181169081156131785750600114613131575b5061312f925003836130d5565b565b90506000929192526020600020906000915b81831061315c57505090602061312f9282010138613122565b6020919350806001915483858901015201910190918492613143565b90506020925061312f94915060ff191682840152151560051b82010138613122565b6007811015612e4e57600052600e602052604060002090565b6007811015612e4e576000526011602052604060002090565b6001600160401b0381116130bf57601f01601f191660200190565b60001981146131f65760010190565b634e487b7160e01b600052601160045260246000fd5b6001600160401b0381116130bf5760051b60200190565b9061322d8261320c565b61323a60405191826130d5565b828152809261324b601f199161320c565b0190602036910137565b604051906132646020836130d5565b600080835282815b82811061327857505050565b80606060208093850101520161326c565b906132938261320c565b6132a060405191826130d5565b82815280926132b1601f199161320c565b019060005b8281106132c257505050565b8060606020809385010152016132b6565b8051821015612fd25760209160051b010190565b51906001600160a01b0382168203612e3c57565b9080601f83011215612e3c5781516133128161320c565b9261332060405194856130d5565b81845260208085019260051b820101928311612e3c57602001905b8282106133485750505090565b60208091613355846132e7565b81520191019061333b565b519060ff82168203612e3c57565b602081830312612e3c578051906001600160401b038211612e3c57019061028082820312612e3c57604051916133a3836130a3565b80516001600160401b038111612e3c57826133bf9183016132fb565b835260208101516007811015612e3c5760208401526040810151604084015260608101516060840152608081015160808401526133fe60a08201613360565b60a084015261340f60c08201613360565b60c084015261342060e08201613360565b60e08401526134326101008201613360565b61010084015261012081015161012084015261014081015161014084015261345d6101608201613360565b6101608401526134706101808201613360565b6101808401526101a08101516101a08401526101c08101516101c08401526101e08101516001600160401b038111612e3c57810182601f82011215612e3c5780516134ba8161320c565b916134c860405193846130d5565b81835260208084019260061b82010190858211612e3c57602001915b818310613595575050506101e08401526102008101516102008401526102208101516001600160401b038111612e3c57826135209183016132fb565b6102208401526102408101516001600160401b038111612e3c5781019180601f84011215612e3c57825192613554846131cc565b9161356260405193846130d5565b84835260208583010111612e3c57610260936135849160208085019101612ea1565b610240840152015161026082015290565b604083870312612e3c576040519060408201908282106001600160401b038311176130bf5760409260209284526135cb866132e7565b815282860151838201528152019201916134e4565b156135e757565b60405162461bcd60e51b815260206004820152602660248201527f4e6f74206f776e6572206f72204d697373696f6e466163746f727920617574686044820152651bdc9a5e995960d21b6064820152608490fd5b919082018092116131f657565b919082039182116131f657565b1561365c57565b60405162461bcd60e51b815260206004820152600f60248201526e496e76616c6964206164647265737360881b6044820152606490fd5b80156131f6576000190190565b90816020910312612e3c57518015158103612e3c5790565b6008821015612e4e5752565b600254801561395957624f19ff1942014281116131f65762278cff1942014281116131f6576000929182805b61386a575b506136ff84613223565b61370885613223565b9561371286613289565b946000905b80151580613861575b1561385657600019019061373382612fb7565b60018060a01b0391549060031b1c1680600052600d60205260ff60406000205416604051631f385f7960e21b8152600081600481865afa90811561384a578c918a91600091613831575b50896101208201818151108061380a575b156137ff5750506101400151105b6137f0578291612303856137be9381966137b86001998d6132d3565b526132d3565b60005260106020526137d360406000206130f6565b6137dd828a6132d3565b526137e881896132d3565b500190613717565b50949998509295505050505050565b91509150511061379c565b5092505091506008831015612e4e578c91898b92600686148061378e57506007861461378e565b613844913d8091833e612a2c81836130d5565b3861377d565b6040513d6000823e3d90fd5b509196955092505050565b50878210613720565b600094939419019261387b84612fb7565b60018060a01b0391549060031b1c1680600052600d6020526004600060ff6040822054169260405192838092631f385f7960e21b82525afa90811561384a578592859160009361393e575b5061012083019082825110908161390e575b50156139035750506101400151105b6138fc576138f584916131e7565b94936136f0565b93926136f5565b9150915051106138e7565b92505092506008811015612e4e578592816006879314908115613933575b50386138d8565b60079150143861392c565b61395291933d8091833e612a2c81836130d5565b91386138c6565b5060405160209161396a83836130d5565b6000825260003681376040519261398181856130d5565b60008452506000368137613993613255565b91929190565b60085480156139fb57620151808101918282116131f657824210156139e057600954600a546001600160a01b0390811694911691906139d9904290613648565b9193929190565b600954600a546001600160a01b039182169450169190600090565b50600090600090600090600090565b6001600160a01b03166000908152600f602052604081208054829182918291825b828110613af2575050506003549160ff8316119060ff82159360081c1611918215928280613aeb575b613add5781613ad5575b50613ac95781613ac1575b50613ab75762093a8081018091116131f657613a86904290613648565b9062278d0081018091116131f657613a9f904290613648565b1115613aaf576002905b60009190565b600190613aa9565b5050600090600290565b905038613a69565b50505050600090600190565b905038613a5e565b505050505050600190600090565b5080613a54565b613afc8183612fe8565b90549060031b1c62278d0081018082116131f6574210613b20575b50600101613a2b565b93613b2a906131e7565b9387158015613b80575b613b78575b62093a8081018082116131f657421015613b175794613b57906131e7565b9486158015613b6f575b15613b175795506001613b17565b50868110613b61565b965086613b39565b50878110613b34565b15613b9057565b60405162461bcd60e51b815260206004820152603660248201527f4d697373696f6e466163746f72793a2063616c6c6572206973206e6f742061206044820152751d985b1a59081b5a5cdcda5bdb8818dbdb9d1c9858dd60521b6064820152608490fd5b80548015613c1d576000190190613c0b8282612fe8565b8154906000199060031b1b1916905555565b634e487b7160e01b600052603160045260246000fd5b6001600160a01b031691908215613d2a5782600052600f6020526040600020928354908115613d235760005b828110613c6e57505050505050565b613c788187612fe8565b90549060031b1c8481101580613d19575b613c965750600101613c5f565b95969350909193505b600181018082116131f65784811015613cde5790613cd4613cc3613cd99389612fe8565b90549060031b1c611639838a612fe8565b6131e7565b613c9f565b5050927f01529614ec434373beb3b1a50817efd69e07a771b06eb9950b86a7f01d783aab9250613d1060209295613bf4565b604051908152a2565b5085811115613c89565b5050505050565b60405162461bcd60e51b815260206004820152600c60248201526b24b73b30b634b2103ab9b2b960a11b6044820152606490fd5b90916002549283831015613f1157613d76908361363b565b92808411613f09575b50600092825b818110613e895750613d9684613223565b90613da361223286613223565b936000905b828110613db757505050929190565b613dc081612fb7565b905460039190911b1c6001600160a01b03166000818152600d602052604090205460ff16600881101580612e4e57600582148015613e7c575b818115613e6c575b50613e12575b505050600101613da8565b82613e22868997949596976132d3565b52612e4e576001928392613e36838c6132d3565b526000526010602052613e4c60406000206130f6565b613e56828a6132d3565b52613e6181896132d3565b500191903880613e07565b9050612e4e576007821481613e01565b5050600060068214613df9565b613e9281612fb7565b60018060a01b0391549060031b1c16600052600d60205260ff6040600020541660088110159081612e4e5760058114918215613efb575b8215613eea575b5050613edf575b600101613d85565b600190940193613ed7565b909150612e4e576007143880613ed0565b506006811491506000613ec9565b925038613d7f565b5060405160209350915061396a83836130d5565b6000546001600160a01b03163303613f3957565b63118cdaa760e01b6000523360045260246000fd5b600260015414613f5f576002600155565b633ee5aeb560e01b60005260046000fd5b600080546001600160a01b039283166001600160a01b03198216811783559216907f8be0079c531659141344cd1fd0a4f28419497f9722a3daafe3b4186f6b6457e09080a3565b6007811015612e4e57600181146140e1576000600282146140b457506003811461408e576000600482146140685750600581146140435760066000911461401d57506040516140076040826130d5565b6006815265437573746f6d60d01b602082015290565b5060405161402c6040826130d5565b60078152664d6f6e74686c7960c81b602082015290565b506040516140526040826130d5565b60068152655765656b6c7960d01b602082015290565b5050604080519061407990826130d5565b60058152644461696c7960d81b602082015290565b5060405161409d6040826130d5565b600781526642694461696c7960c81b602082015290565b505060408051906140c590826130d5565b600c81526b517561727465724461696c7960a01b602082015290565b506040516140f06040826130d5565b6006815265486f75726c7960d01b60208201529056fea2646970667358221220a937577a2e4bfacd33eb31fa4a63923965f8abfdf5df32bb4f60a1c84f84b67c64736f6c634300081e0033",
  "linkReferences": {},
  "deployedLinkReferences": {}
}