{
  "_format": "hh-sol-artifact-1",
  "contractName": "MissionFactory",
  "sourceName": "contracts/MissionFactory.sol",
  "abi": [
    {
      "inputs": [
        {
          "internalType": "address",
          "name": "_impl",
          "type": "address"
        }
      ],
      "stateMutability": "nonpayable",
      "type": "constructor"
    },
    {
      "inputs": [],
      "name": "FailedDeployment",
      "type": "error"
    },
    {
      "inputs": [
        {
          "internalType": "uint256",
          "name": "balance",
          "type": "uint256"
        },
        {
          "internalType": "uint256",
          "name": "needed",
          "type": "uint256"
        }
      ],
      "name": "InsufficientBalance",
      "type": "error"
    },
    {
      "inputs": [
        {
          "internalType": "address",
          "name": "owner",
          "type": "address"
        }
      ],
      "name": "OwnableInvalidOwner",
      "type": "error"
    },
    {
      "inputs": [
        {
          "internalType": "address",
          "name": "account",
          "type": "address"
        }
      ],
      "name": "OwnableUnauthorizedAccount",
      "type": "error"
    },
    {
      "inputs": [],
      "name": "ReentrancyGuardReentrantCall",
      "type": "error"
    },
    {
      "anonymous": false,
      "inputs": [
        {
          "indexed": true,
          "internalType": "address",
          "name": "addr",
          "type": "address"
        }
      ],
      "name": "AuthorizedAddressAdded",
      "type": "event"
    },
    {
      "anonymous": false,
      "inputs": [
        {
          "indexed": true,
          "internalType": "address",
          "name": "addr",
          "type": "address"
        }
      ],
      "name": "AuthorizedAddressRemoved",
      "type": "event"
    },
    {
      "anonymous": false,
      "inputs": [
        {
          "indexed": false,
          "internalType": "uint8",
          "name": "newWeekly",
          "type": "uint8"
        },
        {
          "indexed": false,
          "internalType": "uint8",
          "name": "newMonthly",
          "type": "uint8"
        }
      ],
      "name": "EnrollmentLimitUpdated",
      "type": "event"
    },
    {
      "anonymous": false,
      "inputs": [
        {
          "indexed": true,
          "internalType": "address",
          "name": "user",
          "type": "address"
        },
        {
          "indexed": false,
          "internalType": "uint256",
          "name": "timestamp",
          "type": "uint256"
        }
      ],
      "name": "EnrollmentRecorded",
      "type": "event"
    },
    {
      "anonymous": false,
      "inputs": [
        {
          "indexed": true,
          "internalType": "address",
          "name": "sender",
          "type": "address"
        },
        {
          "indexed": false,
          "internalType": "uint256",
          "name": "amount",
          "type": "uint256"
        }
      ],
      "name": "FundsReceived",
      "type": "event"
    },
    {
      "anonymous": false,
      "inputs": [
        {
          "indexed": true,
          "internalType": "address",
          "name": "to",
          "type": "address"
        },
        {
          "indexed": false,
          "internalType": "uint256",
          "name": "amount",
          "type": "uint256"
        }
      ],
      "name": "FundsWithdrawn",
      "type": "event"
    },
    {
      "anonymous": false,
      "inputs": [
        {
          "indexed": true,
          "internalType": "address",
          "name": "missionAddress",
          "type": "address"
        },
        {
          "indexed": true,
          "internalType": "enum MissionType",
          "name": "missionType",
          "type": "uint8"
        }
      ],
      "name": "MissionCreated",
      "type": "event"
    },
    {
      "anonymous": false,
      "inputs": [
        {
          "indexed": false,
          "internalType": "uint256",
          "name": "amount",
          "type": "uint256"
        },
        {
          "indexed": true,
          "internalType": "enum MissionType",
          "name": "missionType",
          "type": "uint8"
        },
        {
          "indexed": true,
          "internalType": "address",
          "name": "sender",
          "type": "address"
        }
      ],
      "name": "MissionFundsRegistered",
      "type": "event"
    },
    {
      "anonymous": false,
      "inputs": [
        {
          "indexed": true,
          "internalType": "address",
          "name": "confirmer",
          "type": "address"
        },
        {
          "indexed": false,
          "internalType": "address",
          "name": "newOwner",
          "type": "address"
        },
        {
          "indexed": false,
          "internalType": "uint256",
          "name": "timestamp",
          "type": "uint256"
        }
      ],
      "name": "OwnershipTransferConfirmed",
      "type": "event"
    },
    {
      "anonymous": false,
      "inputs": [
        {
          "indexed": true,
          "internalType": "address",
          "name": "proposer",
          "type": "address"
        },
        {
          "indexed": false,
          "internalType": "address",
          "name": "newOwner",
          "type": "address"
        },
        {
          "indexed": false,
          "internalType": "uint256",
          "name": "timestamp",
          "type": "uint256"
        }
      ],
      "name": "OwnershipTransferProposed",
      "type": "event"
    },
    {
      "anonymous": false,
      "inputs": [
        {
          "indexed": true,
          "internalType": "address",
          "name": "previousOwner",
          "type": "address"
        },
        {
          "indexed": true,
          "internalType": "address",
          "name": "newOwner",
          "type": "address"
        }
      ],
      "name": "OwnershipTransferred",
      "type": "event"
    },
    {
      "stateMutability": "payable",
      "type": "fallback"
    },
    {
      "inputs": [],
      "name": "OWNERSHIP_PROPOSAL_WINDOW",
      "outputs": [
        {
          "internalType": "uint256",
          "name": "",
          "type": "uint256"
        }
      ],
      "stateMutability": "view",
      "type": "function"
    },
    {
      "inputs": [
        {
          "internalType": "address",
          "name": "account",
          "type": "address"
        }
      ],
      "name": "addAuthorizedAddress",
      "outputs": [],
      "stateMutability": "nonpayable",
      "type": "function"
    },
    {
      "inputs": [
        {
          "internalType": "address",
          "name": "",
          "type": "address"
        }
      ],
      "name": "authorized",
      "outputs": [
        {
          "internalType": "bool",
          "name": "",
          "type": "bool"
        }
      ],
      "stateMutability": "view",
      "type": "function"
    },
    {
      "inputs": [
        {
          "internalType": "address",
          "name": "user",
          "type": "address"
        }
      ],
      "name": "canEnroll",
      "outputs": [
        {
          "internalType": "bool",
          "name": "ok",
          "type": "bool"
        },
        {
          "internalType": "enum Limit",
          "name": "breach",
          "type": "uint8"
        }
      ],
      "stateMutability": "view",
      "type": "function"
    },
    {
      "inputs": [
        {
          "internalType": "address",
          "name": "newOwner",
          "type": "address"
        }
      ],
      "name": "confirmOwnershipTransfer",
      "outputs": [],
      "stateMutability": "nonpayable",
      "type": "function"
    },
    {
      "inputs": [
        {
          "internalType": "enum MissionType",
          "name": "_missionType",
          "type": "uint8"
        },
        {
          "internalType": "uint256",
          "name": "_enrollmentStart",
          "type": "uint256"
        },
        {
          "internalType": "uint256",
          "name": "_enrollmentEnd",
          "type": "uint256"
        },
        {
          "internalType": "uint256",
          "name": "_enrollmentAmount",
          "type": "uint256"
        },
        {
          "internalType": "uint8",
          "name": "_enrollmentMinPlayers",
          "type": "uint8"
        },
        {
          "internalType": "uint8",
          "name": "_enrollmentMaxPlayers",
          "type": "uint8"
        },
        {
          "internalType": "uint256",
          "name": "_missionStart",
          "type": "uint256"
        },
        {
          "internalType": "uint256",
          "name": "_missionEnd",
          "type": "uint256"
        },
        {
          "internalType": "uint8",
          "name": "_missionRounds",
          "type": "uint8"
        }
      ],
      "name": "createMission",
      "outputs": [
        {
          "internalType": "address",
          "name": "",
          "type": "address"
        }
      ],
      "stateMutability": "payable",
      "type": "function"
    },
    {
      "inputs": [],
      "name": "getAllMissions",
      "outputs": [
        {
          "internalType": "address[]",
          "name": "",
          "type": "address[]"
        },
        {
          "internalType": "enum Status[]",
          "name": "",
          "type": "uint8[]"
        }
      ],
      "stateMutability": "view",
      "type": "function"
    },
    {
      "inputs": [
        {
          "internalType": "enum MissionType",
          "name": "_type",
          "type": "uint8"
        }
      ],
      "name": "getFundsByType",
      "outputs": [
        {
          "internalType": "uint256",
          "name": "",
          "type": "uint256"
        }
      ],
      "stateMutability": "view",
      "type": "function"
    },
    {
      "inputs": [
        {
          "internalType": "uint256",
          "name": "n",
          "type": "uint256"
        }
      ],
      "name": "getLatestMissions",
      "outputs": [
        {
          "internalType": "address[]",
          "name": "",
          "type": "address[]"
        }
      ],
      "stateMutability": "view",
      "type": "function"
    },
    {
      "inputs": [
        {
          "internalType": "address",
          "name": "missionAddress",
          "type": "address"
        }
      ],
      "name": "getMissionData",
      "outputs": [
        {
          "components": [
            {
              "internalType": "address[]",
              "name": "players",
              "type": "address[]"
            },
            {
              "internalType": "enum MissionType",
              "name": "missionType",
              "type": "uint8"
            },
            {
              "internalType": "uint256",
              "name": "enrollmentStart",
              "type": "uint256"
            },
            {
              "internalType": "uint256",
              "name": "enrollmentEnd",
              "type": "uint256"
            },
            {
              "internalType": "uint256",
              "name": "enrollmentAmount",
              "type": "uint256"
            },
            {
              "internalType": "uint8",
              "name": "enrollmentMinPlayers",
              "type": "uint8"
            },
            {
              "internalType": "uint8",
              "name": "enrollmentMaxPlayers",
              "type": "uint8"
            },
            {
              "internalType": "uint256",
              "name": "missionStart",
              "type": "uint256"
            },
            {
              "internalType": "uint256",
              "name": "missionEnd",
              "type": "uint256"
            },
            {
              "internalType": "uint8",
              "name": "missionRounds",
              "type": "uint8"
            },
            {
              "internalType": "uint8",
              "name": "roundCount",
              "type": "uint8"
            },
            {
              "internalType": "uint256",
              "name": "ethStart",
              "type": "uint256"
            },
            {
              "internalType": "uint256",
              "name": "ethCurrent",
              "type": "uint256"
            },
            {
              "components": [
                {
                  "internalType": "address",
                  "name": "player",
                  "type": "address"
                },
                {
                  "internalType": "uint256",
                  "name": "amountWon",
                  "type": "uint256"
                }
              ],
              "internalType": "struct Mission.PlayersWon[]",
              "name": "playersWon",
              "type": "tuple[]"
            },
            {
              "internalType": "uint256",
              "name": "pauseTimestamp",
              "type": "uint256"
            },
            {
              "internalType": "address[]",
              "name": "refundedPlayers",
              "type": "address[]"
            }
          ],
          "internalType": "struct Mission.MissionData",
          "name": "",
          "type": "tuple"
        }
      ],
      "stateMutability": "view",
      "type": "function"
    },
    {
      "inputs": [
        {
          "internalType": "enum Status",
          "name": "s",
          "type": "uint8"
        }
      ],
      "name": "getMissionsByStatus",
      "outputs": [
        {
          "internalType": "address[]",
          "name": "",
          "type": "address[]"
        }
      ],
      "stateMutability": "view",
      "type": "function"
    },
    {
      "inputs": [],
      "name": "getMissionsEnded",
      "outputs": [
        {
          "internalType": "address[]",
          "name": "",
          "type": "address[]"
        }
      ],
      "stateMutability": "view",
      "type": "function"
    },
    {
      "inputs": [],
      "name": "getMissionsNotEnded",
      "outputs": [
        {
          "internalType": "address[]",
          "name": "",
          "type": "address[]"
        }
      ],
      "stateMutability": "view",
      "type": "function"
    },
    {
      "inputs": [
        {
          "internalType": "address",
          "name": "player",
          "type": "address"
        }
      ],
      "name": "getPlayerLimits",
      "outputs": [
        {
          "internalType": "uint8",
          "name": "weekUsed",
          "type": "uint8"
        },
        {
          "internalType": "uint8",
          "name": "weekMax",
          "type": "uint8"
        },
        {
          "internalType": "uint8",
          "name": "monthUsed",
          "type": "uint8"
        },
        {
          "internalType": "uint8",
          "name": "monthMax",
          "type": "uint8"
        },
        {
          "internalType": "uint256",
          "name": "secToWeek",
          "type": "uint256"
        },
        {
          "internalType": "uint256",
          "name": "secToMonth",
          "type": "uint256"
        }
      ],
      "stateMutability": "view",
      "type": "function"
    },
    {
      "inputs": [],
      "name": "getTotalMissions",
      "outputs": [
        {
          "internalType": "uint256",
          "name": "",
          "type": "uint256"
        }
      ],
      "stateMutability": "view",
      "type": "function"
    },
    {
      "inputs": [
        {
          "internalType": "address",
          "name": "",
          "type": "address"
        }
      ],
      "name": "isMission",
      "outputs": [
        {
          "internalType": "bool",
          "name": "",
          "type": "bool"
        }
      ],
      "stateMutability": "view",
      "type": "function"
    },
    {
      "inputs": [],
      "name": "missionImplementation",
      "outputs": [
        {
          "internalType": "address",
          "name": "",
          "type": "address"
        }
      ],
      "stateMutability": "view",
      "type": "function"
    },
    {
      "inputs": [
        {
          "internalType": "address",
          "name": "",
          "type": "address"
        }
      ],
      "name": "missionStatus",
      "outputs": [
        {
          "internalType": "enum Status",
          "name": "",
          "type": "uint8"
        }
      ],
      "stateMutability": "view",
      "type": "function"
    },
    {
      "inputs": [
        {
          "internalType": "uint256",
          "name": "",
          "type": "uint256"
        }
      ],
      "name": "missions",
      "outputs": [
        {
          "internalType": "address",
          "name": "",
          "type": "address"
        }
      ],
      "stateMutability": "view",
      "type": "function"
    },
    {
      "inputs": [],
      "name": "monthlyLimit",
      "outputs": [
        {
          "internalType": "uint8",
          "name": "",
          "type": "uint8"
        }
      ],
      "stateMutability": "view",
      "type": "function"
    },
    {
      "inputs": [],
      "name": "owner",
      "outputs": [
        {
          "internalType": "address",
          "name": "",
          "type": "address"
        }
      ],
      "stateMutability": "view",
      "type": "function"
    },
    {
      "inputs": [
        {
          "internalType": "address",
          "name": "",
          "type": "address"
        }
      ],
      "name": "ownershipProposals",
      "outputs": [
        {
          "internalType": "address",
          "name": "proposer",
          "type": "address"
        },
        {
          "internalType": "uint256",
          "name": "timestamp",
          "type": "uint256"
        }
      ],
      "stateMutability": "view",
      "type": "function"
    },
    {
      "inputs": [
        {
          "internalType": "address",
          "name": "newOwner",
          "type": "address"
        }
      ],
      "name": "proposeOwnershipTransfer",
      "outputs": [],
      "stateMutability": "nonpayable",
      "type": "function"
    },
    {
      "inputs": [
        {
          "internalType": "address",
          "name": "user",
          "type": "address"
        }
      ],
      "name": "recordEnrollment",
      "outputs": [],
      "stateMutability": "nonpayable",
      "type": "function"
    },
    {
      "inputs": [
        {
          "internalType": "enum MissionType",
          "name": "missionType",
          "type": "uint8"
        }
      ],
      "name": "registerMissionFunds",
      "outputs": [],
      "stateMutability": "payable",
      "type": "function"
    },
    {
      "inputs": [
        {
          "internalType": "address",
          "name": "account",
          "type": "address"
        }
      ],
      "name": "removeAuthorizedAddress",
      "outputs": [],
      "stateMutability": "nonpayable",
      "type": "function"
    },
    {
      "inputs": [],
      "name": "renounceOwnership",
      "outputs": [],
      "stateMutability": "nonpayable",
      "type": "function"
    },
    {
      "inputs": [
        {
          "internalType": "enum MissionType",
          "name": "",
          "type": "uint8"
        }
      ],
      "name": "reservedFunds",
      "outputs": [
        {
          "internalType": "uint256",
          "name": "",
          "type": "uint256"
        }
      ],
      "stateMutability": "view",
      "type": "function"
    },
    {
      "inputs": [],
      "name": "reservedFundsBreakdown",
      "outputs": [
        {
          "internalType": "uint256[7]",
          "name": "",
          "type": "uint256[7]"
        }
      ],
      "stateMutability": "view",
      "type": "function"
    },
    {
      "inputs": [
        {
          "internalType": "address",
          "name": "user",
          "type": "address"
        }
      ],
      "name": "secondsTillMonthlySlot",
      "outputs": [
        {
          "internalType": "uint256",
          "name": "",
          "type": "uint256"
        }
      ],
      "stateMutability": "view",
      "type": "function"
    },
    {
      "inputs": [
        {
          "internalType": "address",
          "name": "user",
          "type": "address"
        }
      ],
      "name": "secondsTillWeeklySlot",
      "outputs": [
        {
          "internalType": "uint256",
          "name": "",
          "type": "uint256"
        }
      ],
      "stateMutability": "view",
      "type": "function"
    },
    {
      "inputs": [
        {
          "internalType": "uint8",
          "name": "_weekly",
          "type": "uint8"
        },
        {
          "internalType": "uint8",
          "name": "_monthly",
          "type": "uint8"
        }
      ],
      "name": "setEnrollmentLimits",
      "outputs": [],
      "stateMutability": "nonpayable",
      "type": "function"
    },
    {
      "inputs": [
        {
          "internalType": "enum Status",
          "name": "newStatus",
          "type": "uint8"
        }
      ],
      "name": "setMissionStatus",
      "outputs": [],
      "stateMutability": "nonpayable",
      "type": "function"
    },
    {
      "inputs": [],
      "name": "totalMissionFailures",
      "outputs": [
        {
          "internalType": "uint256",
          "name": "",
          "type": "uint256"
        }
      ],
      "stateMutability": "view",
      "type": "function"
    },
    {
      "inputs": [],
      "name": "totalMissionFunds",
      "outputs": [
        {
          "internalType": "uint256",
          "name": "",
          "type": "uint256"
        }
      ],
      "stateMutability": "view",
      "type": "function"
    },
    {
      "inputs": [],
      "name": "totalMissionSuccesses",
      "outputs": [
        {
          "internalType": "uint256",
          "name": "",
          "type": "uint256"
        }
      ],
      "stateMutability": "view",
      "type": "function"
    },
    {
      "inputs": [],
      "name": "totalOwnerEarnedFunds",
      "outputs": [
        {
          "internalType": "uint256",
          "name": "",
          "type": "uint256"
        }
      ],
      "stateMutability": "view",
      "type": "function"
    },
    {
      "inputs": [
        {
          "internalType": "address",
          "name": "newOwner",
          "type": "address"
        }
      ],
      "name": "transferOwnership",
      "outputs": [],
      "stateMutability": "nonpayable",
      "type": "function"
    },
    {
      "inputs": [],
      "name": "weeklyLimit",
      "outputs": [
        {
          "internalType": "uint8",
          "name": "",
          "type": "uint8"
        }
      ],
      "stateMutability": "view",
      "type": "function"
    },
    {
      "inputs": [
        {
          "internalType": "uint256",
          "name": "amount",
          "type": "uint256"
        }
      ],
      "name": "withdrawFunds",
      "outputs": [],
      "stateMutability": "nonpayable",
      "type": "function"
    },
    {
      "stateMutability": "payable",
      "type": "receive"
    }
  ],
  "bytecode": "0x60a03461011e57601f612f2a38819003918201601f19168301916001600160401b038311848410176101235780849260209460405283398101031261011e57516001600160a01b03811680820361011e5733156101085760008054336001600160a01b0319821681178355604051939290916001600160a01b0316907f8be0079c531659141344cd1fd0a4f28419497f9722a3daafe3b4186f6b6457e09080a360018055610a0461ffff196003541617600355156100da5750608052604051612df0908161013a82396080518181816109a40152610f450152f35b62461bcd60e51b8152602060048201526009602482015268696d706c207a65726f60b81b6044820152606490fd5b631e4fbdf760e01b600052600060045260246000fd5b600080fd5b634e487b7160e01b600052604160045260246000fdfe6080806040526004361015610011575b005b600090813560e01c9081630814ab8214612395575080630a6005da14612371578063155dd5ee146121bb5780631e59d5841461207a57806320c5718f14611e1957806321040fc314611cf15780632c8fe52614611cad5780632e33b07f146107275780633589cf7214611c8f5780633701276214611bb05780633c2139571461199d57806342f1181e146118ac5780635c5bb6f21461188e57806363679723146118705780636805036d146116bf5780636d8a139014611645578063707129391461155a578063715018a6146115005780637e9eae501461146d57806383fbea511461144f578063861a68d61461142e5780638da5cb5b146114075780639804a586146113bd5780639b15953914610ea1578063a9bea78914610d2d578063aa1f059514610ceb578063b620291314610a15578063b9181611146109d3578063bd4877251461098e578063c17f9e591461075a578063c416ad2a14610727578063c892fde314610709578063cbf2080d14610572578063d3050eba14610554578063d41eca64146104a6578063d8d6e8ff1461041f578063df4db46314610398578063eff0ab921461028b578063f2fde38b146102345763fb4cdea70361000f5734610231576020366003190112610231576004356001600160a01b0381169081900361022f578152600b6020908152604091829020805460019091015483516001600160a01b0390921682529181019190915290819081015b0390f35b505b80fd5b5034610231576020366003190112610231576004356001600160a01b03811680820361028757610262612d4a565b156102735761027090612d73565b80f35b631e4fbdf760e01b82526004829052602482fd5b8280fd5b5034610231576020366003190112610231576004356001600160a01b0381169081900361022f578152600d6020526040812080548291825b82811061031357505050816102df57602091505b604051908152f35b62093a8082018092116102ff57506102fa602091429061285e565b6102d7565b634e487b7160e01b81526011600452602490fd5b61031d8183612477565b90549060031b1c62093a808101809111610384574210610340575b6001016102c3565b8415801561036b575b15610338579350600161035c8583612477565b90549060031b1c949050610338565b50846103778284612477565b90549060031b1c10610349565b634e487b7160e01b85526011600452602485fd5b503461023157806003193601126102315760e090816040516103ba8282612552565b369037604051906103cb8383612552565b82368337805b60078110156103f4576001906103e68161248f565b548160051b850152016103d1565b506040519190825b6007821061040957505050f35b60208060019285518152019301910190916103fc565b503461023157602036600319011261023157600435600881101561022f57338252600960205261045560ff604084205416612cbd565b338252600a6020526040822060ff1981541660ff83161790556006811460001461048b5750610485600654612574565b60065580f35b6007146104955780f35b6104a0600754612574565b60075580f35b50346102315760403660031901126102315760043560ff811680910361022f5760243560ff811691828203610550577f321994b8855ae38e4fd6162f7a0bd7cde88be83aa3acc96e03c17b7f733b43e19260409260018060a01b038654163314801561053b575b610516906124a8565b8261ff006003549260081b169161ffff1916171760035582519182526020820152a180f35b5033865260086020528386205460ff1661050d565b8380fd5b50346102315780600319360112610231576020604051620151808152f35b5034610231576020366003190112610231576004356001600160a01b0381169081900361022f578152600d602052604081208190829083809181908054915b82811061065e5750505060035494801560001461062c575080915b80610606575060c09460ff8092945b8160405197168752818316602088015216604086015260081c166060840152608083015260a0820152f35b9062278d0082018092116102ff575060c09460ff6106268193429061285e565b946105db565b62093a80810180911161064a5761064490429061285e565b916105cc565b634e487b7160e01b82526011600452602482fd5b6106688183612477565b90549060031b1c62278d0081018082116106e457421061068c575b506001016105b1565b9561069690612574565b9585158015610700575b6106f8575b62093a8081018082116106e45742101561068357966106c390612574565b96881580156106db575b156106835797506001610683565b508881106106cd565b634e487b7160e01b86526011600452602486fd5b9450846106a5565b508581106106a0565b50346102315780600319360112610231576020600654604051908152f35b5034610231576020366003190112610231576004359060078210156102315760206107518361248f565b54604051908152f35b5034610231576020366003190112610231576004356001600160a01b0381169081900361022f57338252600a60205260ff604083205416600881101561097a576001036109445762278cff1942019042821161093057808352600d60205260408320805492845b84811080610917575b156107dd576107d890612574565b6107c1565b8383879280610863575b50805490600160401b82101561084f578161080a91600161082294018155612477565b429082549060031b91821b91600019901b1916179055565b7f498f5e6dcf570483a1848853791046a7f10012193176d71f959f46eb7713d7446020604051428152a280f35b634e487b7160e01b84526041600452602484fd5b92805b61087185845461285e565b8110156108c157806108bb61089161088b88600195612851565b86612477565b90549060031b1c6108a28387612477565b90919082549060031b91821b91600019901b1916179055565b01610866565b5092835b8181106108d257506107e7565b825480156109035760019190600019016108ec8186612477565b8154906000199060031b1b191690558455016108c5565b634e487b7160e01b86526031600452602486fd5b50816109238285612477565b90549060031b1c106107ca565b634e487b7160e01b83526011600452602483fd5b60405162461bcd60e51b815260206004820152600e60248201526d24b73b30b634b21031b0b63632b960911b6044820152606490fd5b634e487b7160e01b83526021600452602483fd5b50346102315780600319360112610231576040517f00000000000000000000000000000000000000000000000000000000000000006001600160a01b03168152602090f35b5034610231576020366003190112610231576004356001600160a01b0381169081900361022f5760408260ff9260209452600884522054166040519015158152f35b503461023157806003193601126102315762278cff19420142811161064a5760025482835b828110610bc25750610a4b906125b1565b918390845b838110610a6d576040516020808252819061022b908201886123fc565b610a7681612446565b905460039190911b1c6001600160a01b03168652600a602052604086205460ff166008811015610bae57600614908115610b70575b81610aef575b600191610abf575b01610a50565b610ac881612446565b838060a01b0391549060031b1c16610ae9610ae286612574565b95886125e3565b52610ab9565b6004915086610afd82612446565b9054604051631f385f7960e21b81529485929091839160031b1c6001600160a01b03165afa8015610b655761010084916001948a91610b43575b50015110159150610ab1565b610b5f91503d808c833e610b578183612552565b810190612683565b38610b37565b6040513d89823e3d90fd5b9050610b7b81612446565b905460039190911b1c6001600160a01b03168652600a602052604086205460ff166008811015610bae5760071490610aab565b634e487b7160e01b87526021600452602487fd5b610bcb81612446565b905460039190911b1c6001600160a01b03168552600a602052604085205460ff166008811015610cd7576006148015610c9b575b80610c26575b610c12575b600101610a3a565b90610c1e600191612574565b919050610c0a565b50600485610c3383612446565b9054604051631f385f7960e21b81529384929091839160031b1c6001600160a01b03165afa908115610c90578591610100918891610c76575b5001511015610c05565b610c8a91503d808a833e610b578183612552565b38610c6c565b6040513d88823e3d90fd5b50610ca581612446565b905460039190911b1c6001600160a01b03168552600a602052604085205460ff166008811015610cd757600714610bff565b634e487b7160e01b86526021600452602486fd5b5034610231576020366003190112610231576004356001600160a01b0381169081900361022f5760408260ff9260209452600984522054166040519015158152f35b50602036600319011261023157600435600781101561022f573382526009602052610d5e60ff604084205416612cbd565b610d66612d28565b3415610e5d57338252600a60205260ff604083205416600881101561097a576006148015610e3b575b15610dff57610d9d8161248f565b610da8348254612851565b9055610db634600454612851565b600455610dc860033404600554612851565b600555604051903482527f606617fd09d9890413e3c46147b844d4562351f86e0f7a5c60849bbf0ef0281160203393a36001805580f35b60405162461bcd60e51b815260206004820152601460248201527321b0b63632b9103737ba10309036b4b9b9b4b7b760611b6044820152606490fd5b50338252600a60205260ff604083205416600881101561097a57600714610d8f565b606460405162461bcd60e51b815260206004820152602060248201527f416d6f756e74206d7573742062652067726561746572207468616e207a65726f6044820152fd5b5061012036600319011261023157600435600781101561022f57602435906044359160643560843560ff81168091036113b95760a43560ff81168091036113b55760c4359060e43592610104359460ff86168096036113b15789546001600160a01b03163314801561139b575b610f17906124a8565b6005861061133c578582106112d157888710156112805788841061122257838511156111de578015611185577f0000000000000000000000000000000000000000000000000000000000000000608881901c62ffffff16763d602d80600a3d3981f3363d3d373d3d3d363d73000000178b5260781b6e5af43d82803e903d91602b57fd5bf3176020526001600160a01b03603760098cf01698891561117657898b52600960205260408b20600160ff19825416179055898b52600a60205260408b2060ff19815416905560018060a01b038b5416978a3b15611172576040519863c54168b360e01b8a5260048a01523060248a015261101960448a018b612439565b6064890152608488015260a487015260c486015260e485015261010484015261012483015261014482015283816101648134875af1801561116757611153575b50600254600160401b81101561084f578060016110799201600255612446565b81546001600160a01b0360039290921b91821b19169084901b17905580827f0ac1ac89285bf936f515aafcf6808b3e062e77fd57f52c8892d20fc9409b8b538580a36110c48161248f565b5460021c9081151580611149575b6110e2575b602083604051908152f35b6110eb9061248f565b6110f682825461285e565b905582823b156102315760405163eb2bab7760e01b81529182906004908290865af1801561113e57611129575b806110d7565b611134838092612552565b61022f5781611123565b6040513d85823e3d90fd5b50814710156110d2565b8361116091949294612552565b9138611059565b6040513d86823e3d90fd5b8b80fd5b63b06ebf3d60e01b8b5260048bfd5b60405162461bcd60e51b815260206004820152602b60248201527f456e726f6c6c6d656e7420616d6f756e74206d7573742062652067726561746560448201526a72207468616e207a65726f60a81b6064820152608490fd5b606460405162461bcd60e51b815260206004820152602060248201527f4d697373696f6e207374617274206d757374206265206265666f726520656e646044820152fd5b60405162461bcd60e51b815260206004820152603060248201527f4d697373696f6e207374617274206d757374206265206f6e206f72206166746560448201526f1c88195b9c9bdb1b1b595b9d08195b9960821b6064820152608490fd5b60405162461bcd60e51b815260206004820152602360248201527f456e726f6c6c6d656e74207374617274206d757374206265206265666f726520604482015262195b9960ea1b6064820152608490fd5b60405162461bcd60e51b815260206004820152603f60248201527f4d696e696d756d20706c6179657273206d75737420626520677265617465722060448201527f7468616e206f7220657175616c20746f206d697373696f6e20726f756e6473006064820152608490fd5b60405162461bcd60e51b815260206004820152603160248201527f4d697373696f6e20726f756e6473206d7573742062652067726561746572207460448201527068616e206f7220657175616c20746f203560781b6064820152608490fd5b50338a52600860205260408a205460ff16610f0e565b8980fd5b8680fd5b8580fd5b5034610231576020366003190112610231576004356001600160a01b038116810361022f576113eb90612b3e565b6040519115158252600381101561097a57604092506020820152f35b5034610231578060031936011261023157546040516001600160a01b039091168152602090f35b5034610231578060031936011261023157602060ff60035416604051908152f35b50346102315780600319360112610231576020600754604051908152f35b503461023157602036600319011261023157600254906004358281116114f9575b611497816125b1565b91806000198501948511905b8381106114c0576040516020808252819061022b908201886123fc565b8161093057806114da6114d56001938961285e565b612446565b838060a01b0391549060031b1c166114f282886125e3565b52016114a3565b508161148e565b5034610231578060031936011261023157611519612d4a565b80546001600160a01b03198116825581906001600160a01b03167f8be0079c531659141344cd1fd0a4f28419497f9722a3daafe3b4186f6b6457e08280a380f35b5034610231576020366003190112610231576004356001600160a01b0381169081900361022f5781546001600160a01b03163314801561162f575b61159e906124a8565b6115a981151561286b565b808252600860205260ff604083205416156115f957808252600860205260408220805460ff191690557f66d5f06f711af3c9feba3203fdb00b51345d514c68585d9d319c5ff5e6f775928280a280f35b60405162461bcd60e51b815260206004820152600e60248201526d139bdd08185d5d1a1bdc9a5e995960921b6044820152606490fd5b503382526008602052604082205460ff16611595565b5034610231578060031936011261023157611678906116626128a9565b90916040519384936040855260408501906123fc565b8381036020850152602080845192838152019301915b81811061169c575050500390f35b91935091602080826116b160019488516123d9565b01940191019184939261168e565b503461023157806003193601126102315760025481825b8281106117c157506116e7906125b1565b9082835b828110611708576040516020808252819061022b908201876123fc565b61171181612446565b905460039190911b1c6001600160a01b03168552600a602052604085205460ff166008811015610cd7576006141580611784575b90600191611754575b016116eb565b61175d81612446565b838060a01b0391549060031b1c1661177e61177785612574565b94876125e3565b5261174e565b5061178e81612446565b905460039190911b1c6001600160a01b03168552600a602052604085205460ff166008811015610cd75760071415611745565b6117ca81612446565b905460039190911b1c6001600160a01b03168452600a602052604084205460ff16600881101561185c57600614158061181f575b61180b575b6001016116d6565b90611817600191612574565b919050611803565b5061182981612446565b905460039190911b1c6001600160a01b03168452600a602052604084205460ff16600881101561185c57600714156117fe565b634e487b7160e01b85526021600452602485fd5b50346102315780600319360112610231576020600454604051908152f35b50346102315780600319360112610231576020600254604051908152f35b5034610231576020366003190112610231576004356001600160a01b0381169081900361022f5781546001600160a01b031633148015611987575b6118f0906124a8565b6118fb81151561286b565b808252600860205260ff60408320541661194d57808252600860205260408220805460ff191660011790557f10ac961f00d5e732ba4dcc2c6fb09bebea0eb9edd2a75c8109775ef288382e678280a280f35b60405162461bcd60e51b8152602060048201526012602482015271105b1c9958591e48185d5d1a1bdc9a5e995960721b6044820152606490fd5b503382526008602052604082205460ff166118e7565b5034610231576020366003190112610231576004356001600160a01b0381168082036102875782546001600160a01b031633148015611b9a575b6119e0906124a8565b808352600b602052604083206040516119f881612536565b81546001600160a01b0316808252600190920154602082019081529115611b5557516001600160a01b03163314611b115751620151808101809111611afd574211611ac557611a45612d4a565b8015611ab157611a5482612d73565b8252600b6020908152604080842084815560010184905580516001600160a01b039093168352429183019190915233917fdd72dd33198968a9cdc9b1e5cbff344fb8d04d99f8c15c0a02416b04e857b46791819081015b0390a280f35b631e4fbdf760e01b83526004839052602483fd5b60405162461bcd60e51b815260206004820152601060248201526f141c9bdc1bdcd85b08195e1c1a5c995960821b6044820152606490fd5b634e487b7160e01b84526011600452602484fd5b606460405162461bcd60e51b815260206004820152602060248201527f43616e6e6f7420636f6e6669726d20796f7572206f776e2070726f706f73616c6044820152fd5b60405162461bcd60e51b815260206004820152601a60248201527f4e6f2070726f706f73616c20666f722074686973206f776e65720000000000006044820152606490fd5b503383526008602052604083205460ff166119d7565b5034610231576020366003190112610231576004356001600160a01b0381169081900361022f578152600d6020526040812080548291825b828110611c1e5750505081611c035760209150604051908152f35b62278d0082018092116102ff57506102fa602091429061285e565b611c288183612477565b90549060031b1c62278d008101809111610384574210611c4b575b600101611be8565b84158015611c76575b15611c435793506001611c678583612477565b90549060031b1c949050611c43565b5084611c828284612477565b90549060031b1c10611c54565b50346102315780600319360112610231576020600554604051908152f35b50346102315760203660031901126102315760043590600254821015610231576020611cd883612446565b905460405160039290921b1c6001600160a01b03168152f35b5034610231576020366003190112610231576004356001600160a01b0381168082036102875782546001600160a01b031633148015611e03575b611d34906124a8565b8015611dca57600160405191611d4983612536565b33835260208301904282528552600b6020526040852092828060a01b039051166bffffffffffffffffffffffff60a01b845416178355519101557fc29bdbd554e41df97e5c40fc273a09677ac133c245f0064bdffef5cc72176e1960405180611aab339442908360209093929193604081019460018060a01b031681520152565b60405162461bcd60e51b815260206004820152601160248201527024b73b30b634b2103732bb9037bbb732b960791b6044820152606490fd5b503383526008602052604083205460ff16611d2b565b5034610231576020366003190112610231576004356001600160a01b0381169081900361022f5760606101e0604051611e5181612503565b82815284602082015284604082015284838201528460808201528460a08201528460c08201528460e08201528461010082015284610120820152846101408201528461016082015284610180820152826101a0820152846101c082015201528015612035578160049160405192838092631f385f7960e21b82525afa90811561202a578291612010575b506040519060208252611efc815161020060208501526102208401906123fc565b92611f0f60208301516040850190612439565b6040820151606084015260608201516080840152608082015160a084015260ff60a08301511660c084015260ff60c08301511660e084015260e082015161010084015261010082015161012084015260ff6101208301511661014084015260ff610140830151166101608401526101608201516101808401526101808201516101a08401526101a082015193601f19848203016101c0850152602080865192838152019501915b818110611fe557848061022b886101e0886101c0810151828601520151601f19848303016102008501526123fc565b825180516001600160a01b031687526020908101518188015260409096019590920191600101611fb6565b61202491503d8084833e610b578183612552565b38611edb565b6040513d84823e3d90fd5b60405162461bcd60e51b815260206004820152601760248201527f496e76616c6964206d697373696f6e20616464726573730000000000000000006044820152606490fd5b503461023157602036600319011261023157600435600881101580610287576002549083845b83811061216057506120b1906125b1565b928491855b8481106120d3576040516020808252819061022b908201896123fc565b6120dc81612446565b905460039190911b1c6001600160a01b03168752600a602052604087205460ff168261214c57600881101561214c5790836001921461211c575b016120b6565b61212581612446565b838060a01b0391549060031b1c1661214661213f87612574565b96896125e3565b52612116565b634e487b7160e01b88526021600452602488fd5b61216981612446565b905460039190911b1c6001600160a01b03168652600a602052604086205460ff1683610bae576008811015610bae5785146121a7575b6001016120a0565b906121b3600191612574565b91905061219f565b50346102315760203660031901126102315760043560018060a01b038254163314801561235b575b6121ec906124a8565b6121f4612d28565b81546001600160a01b03169080821561231e5715612317575b4781116122db578280808084865af13d156122d6573d67ffffffffffffffff81116122c2576040519061224a601f8201601f191660200183612552565b81528460203d92013e5b1561228b5760207feaff4b37086828766ad3268786972c0cd24259d4c87a80f9d3963a3c3d999b0d91604051908152a26001805580f35b60405162461bcd60e51b815260206004820152600f60248201526e151c985b9cd9995c8819985a5b1959608a1b6044820152606490fd5b634e487b7160e01b85526041600452602485fd5b612254565b60405162461bcd60e51b8152602060048201526014602482015273496e73756666696369656e742062616c616e636560601b6044820152606490fd5b504761220d565b60405162461bcd60e51b815260206004820152601560248201527424b73b30b634b21036b0b730b3b2b91037bbb732b960591b6044820152606490fd5b503382526008602052604082205460ff166121e3565b5034610231578060031936011261023157602060ff60035460081c16604051908152f35b90503461022f57602036600319011261022f576004356001600160a01b03811690819003610287578160ff6040856123d79460209752600a87522054166123d9565bf35b9060088210156123e65752565b634e487b7160e01b600052602160045260246000fd5b906020808351928381520192019060005b81811061241a5750505090565b82516001600160a01b031684526020938401939092019160010161240d565b9060078210156123e65752565b60025481101561246157600260005260206000200190600090565b634e487b7160e01b600052603260045260246000fd5b80548210156124615760005260206000200190600090565b60078110156123e657600052600c602052604060002090565b156124af57565b60405162461bcd60e51b815260206004820152602660248201527f4e6f74206f776e6572206f72204d697373696f6e466163746f727920617574686044820152651bdc9a5e995960d21b6064820152608490fd5b610200810190811067ffffffffffffffff82111761252057604052565b634e487b7160e01b600052604160045260246000fd5b6040810190811067ffffffffffffffff82111761252057604052565b90601f8019910116810190811067ffffffffffffffff82111761252057604052565b60001981146125835760010190565b634e487b7160e01b600052601160045260246000fd5b67ffffffffffffffff81116125205760051b60200190565b906125bb82612599565b6125c86040519182612552565b82815280926125d9601f1991612599565b0190602036910137565b80518210156124615760209160051b010190565b51906001600160a01b038216820361260b57565b600080fd5b9080601f8301121561260b57815161262781612599565b926126356040519485612552565b81845260208085019260051b82010192831161260b57602001905b82821061265d5750505090565b6020809161266a846125f7565b815201910190612650565b519060ff8216820361260b57565b60208183031261260b5780519067ffffffffffffffff821161260b57016102008183031261260b57604051916126b883612503565b815167ffffffffffffffff811161260b57816126d5918401612610565b83526020820151600781101561260b57602084015260408201516040840152606082015160608401526080820151608084015261271460a08301612675565b60a084015261272560c08301612675565b60c084015260e082015160e084015261010082015161010084015261274d6101208301612675565b6101208401526127606101408301612675565b6101408401526101608201516101608401526101808201516101808401526101a082015167ffffffffffffffff811161260b57820181601f8201121561260b5780516127ab81612599565b916127b96040519384612552565b81835260208084019260061b8201019084821161260b57602001915b818310612819575050506101a08401526101c08201516101c08401526101e082015167ffffffffffffffff811161260b576128109201612610565b6101e082015290565b60408386031261260b576020604091825161283381612536565b61283c866125f7565b815282860151838201528152019201916127d5565b9190820180921161258357565b9190820391821161258357565b1561287257565b60405162461bcd60e51b815260206004820152600f60248201526e496e76616c6964206164647265737360881b6044820152606490fd5b6002548015612b0857624f19ff194201914283116125835762278cff194201428111612583576000929182805b612a1a575b506128e5846125b1565b906128ef856125b1565b936000905b80151580612a11575b15612a0657600019019061291082612446565b60018060a01b0391549060031b1c169081600052600a60205260ff6040600020541691604051631f385f7960e21b8152600081600481855afa80156129fa5788916000916129e1575b508b60e0820181815110806129be575b156129b35750506101000151105b6129a55761298582876125e3565b5261299081886125e3565b9160088110156123e6576001925201906128f4565b505050509350919350509190565b915091505110612977565b5092505060088510156123e6578b89926006871480612969575060078714612969565b6129f4913d8091833e610b578183612552565b38612959565b6040513d6000823e3d90fd5b509195509293505050565b508682106128fd565b6000949394190192612a2b84612446565b60018060a01b0391549060031b1c1680600052600a6020526004600060ff6040822054169260405192838092631f385f7960e21b82525afa9081156129fa5785928991600093612aed575b5060e0830190828251109081612abd575b5015612ab25750506101000151105b612aab57612aa48491612574565b94936128d6565b93926128db565b915091505110612a96565b925050925060088110156123e65785928160068b9314908115612ae2575b5038612a87565b600791501438612adb565b612b0191933d8091833e610b578183612552565b9138612a76565b50602090604051612b198382612552565b60008152600036813760405192612b308185612552565b600084525060003681379190565b6001600160a01b03166000908152600d602052604081208054829182918291825b828110612c26575050506003549160ff8316119060ff82159360081c1611918215928280612c1f575b612c115781612c09575b50612bfd5781612bf5575b50612beb5762093a80810180911161258357612bba90429061285e565b9062278d00810180911161258357612bd390429061285e565b1115612be3576002905b60009190565b600190612bdd565b5050600090600290565b905038612b9d565b50505050600090600190565b905038612b92565b505050505050600190600090565b5080612b88565b612c308183612477565b90549060031b1c62278d008101808211612583574210612c54575b50600101612b5f565b93612c5e90612574565b9387158015612cb4575b612cac575b62093a80810180821161258357421015612c4b5794612c8b90612574565b9486158015612ca3575b15612c4b5795506001612c4b565b50868110612c95565b965086612c6d565b50878110612c68565b15612cc457565b60405162461bcd60e51b815260206004820152603660248201527f4d697373696f6e466163746f72793a2063616c6c6572206973206e6f742061206044820152751d985b1a59081b5a5cdcda5bdb8818dbdb9d1c9858dd60521b6064820152608490fd5b600260015414612d39576002600155565b633ee5aeb560e01b60005260046000fd5b6000546001600160a01b03163303612d5e57565b63118cdaa760e01b6000523360045260246000fd5b600080546001600160a01b039283166001600160a01b03198216811783559216907f8be0079c531659141344cd1fd0a4f28419497f9722a3daafe3b4186f6b6457e09080a356fea264697066735822122035c5845d253779169c40d48d7a7840b38e3a530edf9ef4f7e78f7dcf6f2a9b0d64736f6c634300081e0033",
  "linkReferences": {},
  "deployedLinkReferences": {}
}