{
  "_format": "hh-sol-artifact-1",
  "contractName": "Mission",
  "sourceName": "contracts/MissionFactory.sol",
  "abi": [
    {
      "inputs": [],
      "stateMutability": "nonpayable",
      "type": "constructor"
    },
    {
      "inputs": [],
      "name": "AllRoundsDone",
      "type": "error"
    },
    {
      "inputs": [],
      "name": "AlreadyJoined",
      "type": "error"
    },
    {
      "inputs": [],
      "name": "AlreadyWon",
      "type": "error"
    },
    {
      "inputs": [
        {
          "internalType": "uint256",
          "name": "secondsLeft",
          "type": "uint256"
        }
      ],
      "name": "Cooldown",
      "type": "error"
    },
    {
      "inputs": [
        {
          "internalType": "uint256",
          "name": "nowTs",
          "type": "uint256"
        },
        {
          "internalType": "uint256",
          "name": "endTs",
          "type": "uint256"
        }
      ],
      "name": "EnrollmentClosed",
      "type": "error"
    },
    {
      "inputs": [
        {
          "internalType": "uint256",
          "name": "nowTs",
          "type": "uint256"
        },
        {
          "internalType": "uint256",
          "name": "startTs",
          "type": "uint256"
        }
      ],
      "name": "EnrollmentNotStarted",
      "type": "error"
    },
    {
      "inputs": [
        {
          "internalType": "uint8",
          "name": "maxPlayers",
          "type": "uint8"
        }
      ],
      "name": "MaxPlayers",
      "type": "error"
    },
    {
      "inputs": [
        {
          "internalType": "uint256",
          "name": "secondsLeft",
          "type": "uint256"
        }
      ],
      "name": "MonthlyLimit",
      "type": "error"
    },
    {
      "inputs": [
        {
          "internalType": "uint256",
          "name": "nowTs",
          "type": "uint256"
        },
        {
          "internalType": "uint256",
          "name": "missionStart",
          "type": "uint256"
        }
      ],
      "name": "NotActive",
      "type": "error"
    },
    {
      "inputs": [],
      "name": "NotJoined",
      "type": "error"
    },
    {
      "inputs": [
        {
          "internalType": "address",
          "name": "owner",
          "type": "address"
        }
      ],
      "name": "OwnableInvalidOwner",
      "type": "error"
    },
    {
      "inputs": [
        {
          "internalType": "address",
          "name": "account",
          "type": "address"
        }
      ],
      "name": "OwnableUnauthorizedAccount",
      "type": "error"
    },
    {
      "inputs": [
        {
          "internalType": "address",
          "name": "winner",
          "type": "address"
        },
        {
          "internalType": "uint256",
          "name": "amount",
          "type": "uint256"
        },
        {
          "internalType": "bytes",
          "name": "data",
          "type": "bytes"
        }
      ],
      "name": "PayoutFailed",
      "type": "error"
    },
    {
      "inputs": [],
      "name": "ReentrancyGuardReentrantCall",
      "type": "error"
    },
    {
      "inputs": [
        {
          "internalType": "uint256",
          "name": "secondsLeft",
          "type": "uint256"
        }
      ],
      "name": "WeeklyLimit",
      "type": "error"
    },
    {
      "inputs": [
        {
          "internalType": "uint256",
          "name": "expected",
          "type": "uint256"
        },
        {
          "internalType": "uint256",
          "name": "sent",
          "type": "uint256"
        }
      ],
      "name": "WrongEntryFee",
      "type": "error"
    },
    {
      "anonymous": false,
      "inputs": [
        {
          "indexed": false,
          "internalType": "uint256",
          "name": "ownerAmount",
          "type": "uint256"
        },
        {
          "indexed": false,
          "internalType": "uint256",
          "name": "factoryAmount",
          "type": "uint256"
        }
      ],
      "name": "FundsWithdrawn",
      "type": "event"
    },
    {
      "anonymous": false,
      "inputs": [
        {
          "indexed": true,
          "internalType": "address",
          "name": "owner",
          "type": "address"
        },
        {
          "indexed": true,
          "internalType": "enum MissionType",
          "name": "missionType",
          "type": "uint8"
        },
        {
          "indexed": false,
          "internalType": "uint256",
          "name": "timestamp",
          "type": "uint256"
        }
      ],
      "name": "MissionInitialized",
      "type": "event"
    },
    {
      "anonymous": false,
      "inputs": [
        {
          "indexed": true,
          "internalType": "uint256",
          "name": "nrOfPlayers",
          "type": "uint256"
        },
        {
          "indexed": true,
          "internalType": "uint256",
          "name": "amount",
          "type": "uint256"
        },
        {
          "indexed": true,
          "internalType": "address[]",
          "name": "player",
          "type": "address[]"
        },
        {
          "indexed": false,
          "internalType": "uint256",
          "name": "timestamp",
          "type": "uint256"
        }
      ],
      "name": "MissionRefunded",
      "type": "event"
    },
    {
      "anonymous": false,
      "inputs": [
        {
          "indexed": true,
          "internalType": "enum Status",
          "name": "previousStatus",
          "type": "uint8"
        },
        {
          "indexed": true,
          "internalType": "enum Status",
          "name": "newStatus",
          "type": "uint8"
        },
        {
          "indexed": false,
          "internalType": "uint256",
          "name": "timestamp",
          "type": "uint256"
        }
      ],
      "name": "MissionStatusChanged",
      "type": "event"
    },
    {
      "anonymous": false,
      "inputs": [
        {
          "indexed": true,
          "internalType": "address",
          "name": "previousOwner",
          "type": "address"
        },
        {
          "indexed": true,
          "internalType": "address",
          "name": "newOwner",
          "type": "address"
        }
      ],
      "name": "OwnershipTransferred",
      "type": "event"
    },
    {
      "anonymous": false,
      "inputs": [
        {
          "indexed": true,
          "internalType": "address",
          "name": "player",
          "type": "address"
        },
        {
          "indexed": false,
          "internalType": "uint256",
          "name": "amount",
          "type": "uint256"
        },
        {
          "indexed": false,
          "internalType": "uint256",
          "name": "totalPlayers",
          "type": "uint256"
        }
      ],
      "name": "PlayerEnrolled",
      "type": "event"
    },
    {
      "anonymous": false,
      "inputs": [
        {
          "indexed": true,
          "internalType": "address",
          "name": "player",
          "type": "address"
        },
        {
          "indexed": false,
          "internalType": "uint256",
          "name": "amount",
          "type": "uint256"
        }
      ],
      "name": "PlayerRefunded",
      "type": "event"
    },
    {
      "anonymous": false,
      "inputs": [
        {
          "indexed": false,
          "internalType": "uint256",
          "name": "value",
          "type": "uint256"
        },
        {
          "indexed": false,
          "internalType": "uint256",
          "name": "ethCurrent",
          "type": "uint256"
        }
      ],
      "name": "PotIncreased",
      "type": "event"
    },
    {
      "anonymous": false,
      "inputs": [
        {
          "indexed": true,
          "internalType": "address",
          "name": "player",
          "type": "address"
        },
        {
          "indexed": false,
          "internalType": "uint256",
          "name": "amount",
          "type": "uint256"
        }
      ],
      "name": "RefundFailed",
      "type": "event"
    },
    {
      "anonymous": false,
      "inputs": [
        {
          "indexed": true,
          "internalType": "address",
          "name": "player",
          "type": "address"
        },
        {
          "indexed": true,
          "internalType": "uint8",
          "name": "roundNumber",
          "type": "uint8"
        },
        {
          "indexed": false,
          "internalType": "uint256",
          "name": "payout",
          "type": "uint256"
        },
        {
          "indexed": false,
          "internalType": "uint256",
          "name": "ethRemaining",
          "type": "uint256"
        }
      ],
      "name": "RoundCalled",
      "type": "event"
    },
    {
      "inputs": [],
      "name": "callRound",
      "outputs": [],
      "stateMutability": "nonpayable",
      "type": "function"
    },
    {
      "inputs": [],
      "name": "checkMissionStartCondition",
      "outputs": [],
      "stateMutability": "nonpayable",
      "type": "function"
    },
    {
      "inputs": [],
      "name": "currentProgressPct",
      "outputs": [
        {
          "internalType": "uint256",
          "name": "",
          "type": "uint256"
        }
      ],
      "stateMutability": "view",
      "type": "function"
    },
    {
      "inputs": [],
      "name": "enrollPlayer",
      "outputs": [],
      "stateMutability": "payable",
      "type": "function"
    },
    {
      "inputs": [
        {
          "internalType": "address",
          "name": "",
          "type": "address"
        }
      ],
      "name": "enrolled",
      "outputs": [
        {
          "internalType": "bool",
          "name": "",
          "type": "bool"
        }
      ],
      "stateMutability": "view",
      "type": "function"
    },
    {
      "inputs": [],
      "name": "factoryShare",
      "outputs": [
        {
          "internalType": "uint256",
          "name": "",
          "type": "uint256"
        }
      ],
      "stateMutability": "view",
      "type": "function"
    },
    {
      "inputs": [
        {
          "internalType": "address",
          "name": "",
          "type": "address"
        }
      ],
      "name": "failedRefundAmounts",
      "outputs": [
        {
          "internalType": "uint256",
          "name": "",
          "type": "uint256"
        }
      ],
      "stateMutability": "view",
      "type": "function"
    },
    {
      "inputs": [],
      "name": "forceFinalizeMission",
      "outputs": [],
      "stateMutability": "nonpayable",
      "type": "function"
    },
    {
      "inputs": [],
      "name": "getFailedRefundPlayers",
      "outputs": [
        {
          "internalType": "address[]",
          "name": "",
          "type": "address[]"
        }
      ],
      "stateMutability": "view",
      "type": "function"
    },
    {
      "inputs": [],
      "name": "getMissionData",
      "outputs": [
        {
          "components": [
            {
              "internalType": "address[]",
              "name": "players",
              "type": "address[]"
            },
            {
              "internalType": "enum MissionType",
              "name": "missionType",
              "type": "uint8"
            },
            {
              "internalType": "uint256",
              "name": "enrollmentStart",
              "type": "uint256"
            },
            {
              "internalType": "uint256",
              "name": "enrollmentEnd",
              "type": "uint256"
            },
            {
              "internalType": "uint256",
              "name": "enrollmentAmount",
              "type": "uint256"
            },
            {
              "internalType": "uint8",
              "name": "enrollmentMinPlayers",
              "type": "uint8"
            },
            {
              "internalType": "uint8",
              "name": "enrollmentMaxPlayers",
              "type": "uint8"
            },
            {
              "internalType": "uint256",
              "name": "missionStart",
              "type": "uint256"
            },
            {
              "internalType": "uint256",
              "name": "missionEnd",
              "type": "uint256"
            },
            {
              "internalType": "uint8",
              "name": "missionRounds",
              "type": "uint8"
            },
            {
              "internalType": "uint8",
              "name": "roundCount",
              "type": "uint8"
            },
            {
              "internalType": "uint256",
              "name": "ethStart",
              "type": "uint256"
            },
            {
              "internalType": "uint256",
              "name": "ethCurrent",
              "type": "uint256"
            },
            {
              "components": [
                {
                  "internalType": "address",
                  "name": "player",
                  "type": "address"
                },
                {
                  "internalType": "uint256",
                  "name": "amountWon",
                  "type": "uint256"
                }
              ],
              "internalType": "struct Mission.PlayersWon[]",
              "name": "playersWon",
              "type": "tuple[]"
            },
            {
              "internalType": "uint256",
              "name": "pauseTimestamp",
              "type": "uint256"
            },
            {
              "internalType": "address[]",
              "name": "refundedPlayers",
              "type": "address[]"
            }
          ],
          "internalType": "struct Mission.MissionData",
          "name": "",
          "type": "tuple"
        }
      ],
      "stateMutability": "view",
      "type": "function"
    },
    {
      "inputs": [],
      "name": "getRealtimeStatus",
      "outputs": [
        {
          "internalType": "enum Status",
          "name": "",
          "type": "uint8"
        }
      ],
      "stateMutability": "view",
      "type": "function"
    },
    {
      "inputs": [
        {
          "internalType": "address",
          "name": "",
          "type": "address"
        }
      ],
      "name": "hasWon",
      "outputs": [
        {
          "internalType": "bool",
          "name": "",
          "type": "bool"
        }
      ],
      "stateMutability": "view",
      "type": "function"
    },
    {
      "inputs": [],
      "name": "increasePot",
      "outputs": [],
      "stateMutability": "payable",
      "type": "function"
    },
    {
      "inputs": [
        {
          "internalType": "address",
          "name": "_owner",
          "type": "address"
        },
        {
          "internalType": "address",
          "name": "_missionFactory",
          "type": "address"
        },
        {
          "internalType": "enum MissionType",
          "name": "_missionType",
          "type": "uint8"
        },
        {
          "internalType": "uint256",
          "name": "_enrollmentStart",
          "type": "uint256"
        },
        {
          "internalType": "uint256",
          "name": "_enrollmentEnd",
          "type": "uint256"
        },
        {
          "internalType": "uint256",
          "name": "_enrollmentAmount",
          "type": "uint256"
        },
        {
          "internalType": "uint8",
          "name": "_enrollmentMinPlayers",
          "type": "uint8"
        },
        {
          "internalType": "uint8",
          "name": "_enrollmentMaxPlayers",
          "type": "uint8"
        },
        {
          "internalType": "uint256",
          "name": "_missionStart",
          "type": "uint256"
        },
        {
          "internalType": "uint256",
          "name": "_missionEnd",
          "type": "uint256"
        },
        {
          "internalType": "uint8",
          "name": "_missionRounds",
          "type": "uint8"
        }
      ],
      "name": "initialize",
      "outputs": [],
      "stateMutability": "payable",
      "type": "function"
    },
    {
      "inputs": [],
      "name": "missionFactory",
      "outputs": [
        {
          "internalType": "contract MissionFactory",
          "name": "",
          "type": "address"
        }
      ],
      "stateMutability": "view",
      "type": "function"
    },
    {
      "inputs": [],
      "name": "owner",
      "outputs": [
        {
          "internalType": "address",
          "name": "",
          "type": "address"
        }
      ],
      "stateMutability": "view",
      "type": "function"
    },
    {
      "inputs": [],
      "name": "ownerShare",
      "outputs": [
        {
          "internalType": "uint256",
          "name": "",
          "type": "uint256"
        }
      ],
      "stateMutability": "view",
      "type": "function"
    },
    {
      "inputs": [
        {
          "internalType": "address",
          "name": "player",
          "type": "address"
        }
      ],
      "name": "pendingPayout",
      "outputs": [
        {
          "internalType": "uint256",
          "name": "",
          "type": "uint256"
        }
      ],
      "stateMutability": "view",
      "type": "function"
    },
    {
      "inputs": [
        {
          "internalType": "address",
          "name": "player",
          "type": "address"
        }
      ],
      "name": "playerState",
      "outputs": [
        {
          "internalType": "bool",
          "name": "joined",
          "type": "bool"
        },
        {
          "internalType": "bool",
          "name": "won",
          "type": "bool"
        }
      ],
      "stateMutability": "view",
      "type": "function"
    },
    {
      "inputs": [],
      "name": "refundPlayers",
      "outputs": [],
      "stateMutability": "nonpayable",
      "type": "function"
    },
    {
      "inputs": [
        {
          "internalType": "address",
          "name": "",
          "type": "address"
        }
      ],
      "name": "refunded",
      "outputs": [
        {
          "internalType": "bool",
          "name": "",
          "type": "bool"
        }
      ],
      "stateMutability": "view",
      "type": "function"
    },
    {
      "inputs": [],
      "name": "remainingRounds",
      "outputs": [
        {
          "internalType": "uint8",
          "name": "",
          "type": "uint8"
        }
      ],
      "stateMutability": "view",
      "type": "function"
    },
    {
      "inputs": [],
      "name": "renounceOwnership",
      "outputs": [],
      "stateMutability": "nonpayable",
      "type": "function"
    },
    {
      "inputs": [],
      "name": "secondsUntilNextRound",
      "outputs": [
        {
          "internalType": "uint256",
          "name": "",
          "type": "uint256"
        }
      ],
      "stateMutability": "view",
      "type": "function"
    },
    {
      "inputs": [
        {
          "internalType": "address",
          "name": "newOwner",
          "type": "address"
        }
      ],
      "name": "transferOwnership",
      "outputs": [],
      "stateMutability": "nonpayable",
      "type": "function"
    },
    {
      "inputs": [],
      "name": "withdrawFunds",
      "outputs": [],
      "stateMutability": "nonpayable",
      "type": "function"
    }
  ],
  "bytecode": "0x60808060405234607957331560635760008054336001600160a01b0319821681178355916001600160a01b03909116907f8be0079c531659141344cd1fd0a4f28419497f9722a3daafe3b4186f6b6457e09080a360018055612caf908161007f8239f35b631e4fbdf760e01b600052600060045260246000fd5b600080fdfe608080604052600436101561001357600080fd5b600090813560e01c9081623e16a514611dbd5750806310eb0e0e14611d7e5780631212484814611c4d57806324600fc31461197f5780635407441f1461196457806368c6ba211461193c578063715018a6146118e25780637475a4cb146115155780637ce17de4146111935780637cf61b6914610fc45780638da5cb5b14610f9d5780638f1c315114610f7f578063987c543a14610afb57806398bdae4314610a41578063a52b2b8814610a02578063a7e22a3e146109dc578063ad1ca6bf14610879578063b2a4a5d214610840578063c033a49014610801578063c54168b31461045b578063e6810a5014610437578063eb2bab7714610230578063f2fde38b146101df578063fa4cf5a1146101b6578063fb84e12f146101935763fcca0c841461013e57600080fd5b346101905760203660031901126101905760409060ff826001600160a01b03610165611dd9565b1692838152600360205282828220541693815260046020522054168251911515825215156020820152f35b80fd5b503461019057806003193601126101905760206101ae612214565b604051908152f35b50346101905780600319360112610190576002546040516001600160a01b039091168152602090f35b5034610190576020366003190112610190576101f9611dd9565b610201612737565b6001600160a01b0381161561021c5761021990612760565b80f35b631e4fbdf760e01b82526004829052602482fd5b50806003193601126101905734156104025760018060a01b0360025416803314908115610383575b508015610370575b1561031f5761026d61227d565b600881101561030b57600410156102cf5761028a34601254611f3e565b6012557f7272b264c9ef2a1e8e9303944736f4977b14a5761227b7b9869fecaa60f8938760406102bc34601354611f3e565b806013558151903482526020820152a180f35b60405162461bcd60e51b81526020600482015260146024820152734d697373696f6e207374696c6c2061637469766560601b6044820152606490fd5b634e487b7160e01b82526021600452602482fd5b60405162461bcd60e51b815260206004820152602360248201527f4f6e6c7920666163746f7279206f7220617574686f72697a65642063616e20666044820152621d5b9960ea1b6064820152608490fd5b5080546001600160a01b03163314610260565b60405163b918161160e01b81523360048201529150602090829060249082905afa9081156103f75782916103b9575b5038610258565b90506020813d6020116103ef575b816103d460209383611e9b565b810103126103eb576103e590611ebd565b386103b2565b5080fd5b3d91506103c7565b6040513d84823e3d90fd5b60405162461bcd60e51b815260206004820152600d60248201526c139bc8199d5b991cc81cd95b9d609a1b6044820152606490fd5b50346101905760203660031901126101905760206101ae610456611dd9565b612106565b5061016036600319011261019057610471611dd9565b6024356001600160a01b03811691908290036107fd576044359160078310156107f95760c43560ff81168091036107f55760e4359060ff821682036107f157610144359260ff84168094036107ed576104c861225b565b60175460ff81166107b25760ff19166001176017556104e685612760565b6bffffffffffffffffffffffff60a01b600254161760025560ff19600a541660ff861617600a55606435600b55608435600c5560a435600d5561ff00600e549260081b169161ffff19161717600e5561010435600f556101243560105561ffff196011541617601155346012553460135582601555602060405161056a8282611e9b565b848152600036813780519067ffffffffffffffff821161070257600160401b821161070257829060095483600955808410610751575b500160098652855b828110610716575050506040516105bf8282611e9b565b8481528490600160401b82116107025782906014548360145580841061067e575b500160148652600080516020612c5a83398151915286915b8383106106415750506040514281526001600160a01b03909416937fe9597995b7a2af444cc28b2b776b88b1253d701282a9bcf902d4f59750df7c579392509050a36001805580f35b8051805183546001600160a01b0319166001600160a01b0391909116178355602001516001838101919091559060029086019201920191906105f8565b9091506001600160ff1b03811681036106ee576001600160ff1b03831683036106ee5790839160011b600080516020612c5a833981519152018360011b600080516020612c5a833981519152015b8181106106d957506105e0565b888155600181018990558593506002016106cc565b634e487b7160e01b87526011600452602487fd5b634e487b7160e01b86526041600452602486fd5b81516001600160a01b03167f6e1540171b6c0c960b71a7020d9f60077f6af931a8bbf590da0223dacf75c7af820155908301906001016105a8565b7f6e1540171b6c0c960b71a7020d9f60077f6af931a8bbf590da0223dacf75c7af01837f6e1540171b6c0c960b71a7020d9f60077f6af931a8bbf590da0223dacf75c7af015b8181106107a457506105a0565b888155859350600101610797565b60405162461bcd60e51b8152602060048201526013602482015272105b1c9958591e481a5b9a5d1a585b1a5e9959606a1b6044820152606490fd5b8680fd5b8580fd5b8480fd5b8380fd5b8280fd5b50346101905760203660031901126101905760209060ff906040906001600160a01b0361082c611dd9565b168152600584522054166040519015158152f35b5034610190576020366003190112610190576020906040906001600160a01b03610868611dd9565b168152600683522054604051908152f35b503461019057806003193601126101905761089261225b565b80546001600160a01b031633148015610960575b6108af90611eca565b600c54421180610955575b156108ea5760095460ff600e5416116108d5575b6001805580f35b6108dd61242d565b6108e56127a7565b6108ce565b60405162461bcd60e51b815260206004820152603860248201527f4d697373696f6e206e6f7420696e2061726d696e672077696e646f772e20436160448201527f6c6c20726566756e64506c617965727320696e737465616400000000000000006064820152608490fd5b50600f5442106108ba565b5060025460405163b918161160e01b815233600482015290602090829060249082906001600160a01b03165afa80156103f75782906109a1575b90506108a6565b506020813d6020116109d4575b816109bb60209383611e9b565b810103126103eb576109cf6108af91611ebd565b61099a565b3d91506109ae565b503461019057806003193601126101905760206109f76120bb565b60ff60405191168152f35b50346101905760203660031901126101905760209060ff906040906001600160a01b03610a2d611dd9565b168152600484522054166040519015158152f35b5034610190578060031936011261019057610a5a61225b565b80546001600160a01b031633148015610a7f575b610a7790611eca565b6108ce6127a7565b5060025460405163b918161160e01b815233600482015290602090829060249082906001600160a01b03165afa80156103f7578290610ac0575b9050610a6e565b506020813d602011610af3575b81610ada60209383611e9b565b810103126103eb57610aee610a7791611ebd565b610ab9565b3d9150610acd565b508060031936011261019057610b0f61225b565b600b54804210610f695750600c54804211610f53575060095460ff600e5460081c1680911015610f415750600d54803403610f2b5750338152600360205260ff604082205416610f1d5760025460408051634c0252c360e11b81523360048201526001600160a01b0390921692919081602481865afa9081156103f75782908392610ed3575b5015610dcb5750600954600160401b811015610db757806001610bbd92016009556009612094565b81549060031b9033821b9160018060a01b03901b1916179055338152600360205260408120600160ff19825416179055610bf934601254611f3e565b601255610c0834601354611f3e565b60135580600181610daa575b8015610d9d575b8015610d90575b610d2d575b610d195760175460ff8160081c16906008821015610d0357610100906001600093600080516020612c3a8339815191526020604051428152a361ff0019161760175560025481906001600160a01b0316803b15610d005781809160246040518095819363c17f9e5960e01b83523360048401525af18015610cf357610ce3575b6009546040519034825260208201527fbedd10d90b8962eb521114c7e2b49019403d371ffa1e46afbda7a3f1fde8f06f60403392a26001805580f35b610cec91611e9b565b8181610ca7565b50604051903d90823e3d90fd5b50fd5b634e487b7160e01b600052602160045260246000fd5b634e487b7160e01b81526021600452602490fd5b506002546001600160a01b0316803b156103eb5760405163d8d6e8ff60e01b815260016004820152829182908290602490829084905af19081156103f7578291610d79575b5050610c27565b81610d8391611e9b565b610d8e578083610d72565bfd5b50610d1957806000610c22565b50610d1957806000610c1b565b50610d1957806000610c14565b634e487b7160e01b82526041600452602482fd5b6024926003821015610ec057602091600103610e53576040516377f855c960e11b815233600482015293849182905afa8015610cf3578190610e1b575b631b62787960e31b825260045260249150fd5b506020823d602011610e4b575b81610e3560209383611e9b565b81010312610e465760249151610e08565b600080fd5b3d9150610e28565b604051631b8093b160e11b815233600482015293849182905afa8015610cf3578190610e8d575b63147ce66f60e31b825260045260249150fd5b506020823d602011610eb8575b81610ea760209383611e9b565b81010312610e465760249151610e7a565b3d9150610e9a565b5050634e487b7160e01b81526021600452fd5b9150506040813d604011610f15575b81610eef60409383611e9b565b810103126103eb576020610f0282611ebd565b9101519060038210156107fd5738610b95565b3d9150610ee2565b621d934160e11b8152600490fd5b6354d7a6b360e01b825260045234602452604490fd5b63647bcfa160e01b8252600452602490fd5b63166450c960e31b825242600452602452604490fd5b634cd01efb60e11b825242600452602452604490fd5b50346101905780600319360112610190576020600754604051908152f35b5034610190578060031936011261019057546040516001600160a01b039091168152602090f35b5034610190578060031936011261019057610fdd61227d565b600881101561030b5760070361114e5760095481805b828110611106575061101d61100782612061565b916110156040519384611e9b565b808352612061565b602082019290601f190136843783845b8281106110825750505090604051928392602084019060208552518091526040840192915b818110611060575050500390f35b82516001600160a01b0316845285945060209384019390920191600101611052565b61108b81612079565b905460039190911b1c6001600160a01b03168652600660205260408620546110b6575b60010161102d565b6110bf81612079565b905460039190911b1c6001600160a01b03166110da836120ac565b9285518110156110f25760051b8501602001526110ae565b634e487b7160e01b88526032600452602488fd5b61110f81612079565b905460039190911b1c6001600160a01b031684526006602052604084205461113a575b600101610ff3565b906111466001916120ac565b919050611132565b60405162461bcd60e51b815260206004820152601f60248201527f4d697373696f6e206973206e6f7420696e204661696c656420737461747573006044820152606490fd5b503461019057806003193601126101905760606101e06040516111b581611e7e565b82815283602082015283604082015283838201528360808201528360a08201528360c08201528360e08201528361010082015283610120820152836101408201528361016082015283610180820152826101a0820152836101c0820152015260405161122081611e7e565b6040516009548082528160208101600986526020862092865b8181106114f357505061124e92500382611e9b565b815260ff600a541660078110156114df576020820152600b546040820152600c546060820152600d54608082015260ff600e5481811660a084015260081c1660c0820152600f5460e082015260105461010082015260ff60115481811661012084015260081c166101408201526012546101608201526013546101808201526014546112d981612061565b906112e76040519283611e9b565b8082526014845283600080516020612c5a833981519152602084015b8383106114ab57505050506101a08201526015546101c08201526040516016548082528160208101601686526020862092865b81811061148957505061134b92500382611e9b565b6101e0820152604051906020825261137181516102006020850152610220840190611e02565b9261138460208301516040850190611e3f565b6040820151606084015260608201516080840152608082015160a084015260ff60a08301511660c084015260ff60c08301511660e084015260e082015161010084015261010082015161012084015260ff6101208301511661014084015260ff610140830151166101608401526101608201516101808401526101808201516101a08401526101a082015193601f19848203016101c0850152602080865192838152019501915b81811061145e57848061145a886101e0886101c0810151828601520151601f1984830301610200850152611e02565b0390f35b825180516001600160a01b03168752602090810151818801526040909601959092019160010161142b565b84546001600160a01b0316835260019485019486945060209093019201611336565b600260206001926040516114be81611e4c565b848060a01b0386541681528486015483820152815201920192019190611303565b634e487b7160e01b83526021600452602483fd5b84546001600160a01b0316835260019485019486945060209093019201611239565b503461019057806003193601126101905761152e61225b565b61153661227d565b600881101561030b5760048114611886576002190161186d57338152600460205260ff60408220541661185e57338152600360205260ff6040822054161561184f5760115460ff8160081c169060ff811682101561184057600f5461159b8142611f4b565b9060648202918083046064149015171561182457906115bf6115c592601054611f4b565b90611fcc565b6014548015611838576000198101908111611824576115e5600191611fec565b500154905b6064820291808304606414901517156118245760649161161a61161f926116146012548094611fcc565b90611f4b565b611fb9565b049161162d83601354611f4b565b60135560ff811461181057600161ff00910160081b169061ff00191617601155338252600460205260408220600160ff1982541617905560405161167081611e4c565b338152816020820152601454600160401b8110156117fc578060016116989201601455611fec565b6117e857815181546001600160a01b0319166001600160a01b03919091161781556020909101516001909101558180808084335af16116d5612021565b9015611781575060ff601154818160081c16809360135460405191825260208201527fbbdd894f5e6d754c18172761a1a461095c26de58905e706a8c33657573d4067260403392a316036117335761172b612380565b6108ce612511565b80610d19575060004260155560175460ff8160081c169060088210156114df5782600461040093600080516020612c3a8339815191526020604051428152a35061ff001916176017556108ce565b9060405192839163d086db4360e01b8352336004840152602483015260606044830152825192836064840152815b8481106117d057505091608492838284010152601f80199101168101030190fd5b602082820181015160848884010152869450016117af565b634e487b7160e01b84526004849052602484fd5b634e487b7160e01b84526041600452602484fd5b634e487b7160e01b84526011600452602484fd5b634e487b7160e01b85526011600452602485fd5b5083906115ea565b6321b94f7b60e21b8352600483fd5b63c394a43360e01b8152600490fd5b6302ab8f8960e11b8152600490fd5b600f546316f5e3b760e21b825242600452602452604490fd5b60248260115460ff8061189d818460081c16611f16565b92169116146000146118d7576118c5603c5b6118c061ffff429216601554611f3e565b611f4b565b600162269d7960e21b03198252600452fd5b6118c561012c6118af565b50346101905780600319360112610190576118fb612737565b80546001600160a01b03198116825581906001600160a01b03167f8be0079c531659141344cd1fd0a4f28419497f9722a3daafe3b4186f6b6457e08280a380f35b503461019057806003193601126101905761145a61195861227d565b60405191829182611def565b503461019057806003193601126101905760206101ae611f58565b503461019057806003193601126101905761199861225b565b80546001600160a01b031633148015611bd1575b6119b590611eca565b6119bd61227d565b600881101561030b576006148015611bb7575b15610190574780156119f381156119e6816124ce565b60095415611baa576124ce565b60198202908282046019141715611b96576064611a1291048092611f4b565b600254604051638da5cb5b60e01b81529192918491602090829060049082906001600160a01b03165afa9081156103f757829184918391611b4e575b50829182916001600160a01b03165af1611a66612021565b5015611b115760018060a01b03600254168360ff600a5416823b156103eb576024611aa89186604051958694859363a9bea78960e01b85526004850190611e3f565b5af18015611b0657611af2575b507fd66662c0ded9e58fd31d5e44944bcfd07ffc15e6927ecc1382e7941cb7bd24c460408051838152846020820152a16007556008556001805580f35b83611aff91949294611e9b565b9138611ab5565b6040513d86823e3d90fd5b60405162461bcd60e51b815260206004820152601560248201527413dddb995c881d1c985b9cd9995c8819985a5b1959605a1b6044820152606490fd5b925050506020813d602011611b8e575b81611b6b60209383611e9b565b810103126103eb57516001600160a01b03811681036103eb578190839082611a4e565b3d9150611b5e565b634e487b7160e01b83526011600452602483fd5b611bb261242d565b6124ce565b50611bc061227d565b600881101561030b576007146119d0565b5060025460405163b918161160e01b815233600482015290602090829060249082906001600160a01b03165afa80156103f7578290611c12575b90506119ac565b506020813d602011611c45575b81611c2c60209383611e9b565b810103126103eb57611c406119b591611ebd565b611c0b565b3d9150611c1f565b503461019057806003193601126101905780546001600160a01b031633148015611d02575b611c7b90611eca565b611c8361225b565b611c8b61227d565b600881101561030b576005148015611ce8575b15611cab5761172b612380565b60405162461bcd60e51b8152602060048201526015602482015274135a5cdcda5bdb881b9bdd08195b991959081e595d605a1b6044820152606490fd5b50611cf161227d565b600881101561030b57600614611c9e565b5060025460405163b918161160e01b815233600482015290602090829060249082906001600160a01b03165afa80156103f7578290611d43575b9050611c72565b506020813d602011611d76575b81611d5d60209383611e9b565b810103126103eb57611d71611c7b91611ebd565b611d3c565b3d9150611d50565b50346101905760203660031901126101905760209060ff906040906001600160a01b03611da9611dd9565b168152600384522054166040519015158152f35b9050346103eb57816003193601126103eb576020906008548152f35b600435906001600160a01b0382168203610e4657565b919060208301926008821015610d035752565b906020808351928381520192019060005b818110611e205750505090565b82516001600160a01b0316845260209384019390920191600101611e13565b906007821015610d035752565b6040810190811067ffffffffffffffff821117611e6857604052565b634e487b7160e01b600052604160045260246000fd5b610200810190811067ffffffffffffffff821117611e6857604052565b90601f8019910116810190811067ffffffffffffffff821117611e6857604052565b51908115158203610e4657565b15611ed157565b60405162461bcd60e51b815260206004820152601760248201527f4e6f74206f776e6572206f7220617574686f72697a65640000000000000000006044820152606490fd5b60ff60019116019060ff8211611f2857565b634e487b7160e01b600052601160045260246000fd5b91908201809211611f2857565b91908203918211611f2857565b611f6061227d565b6008811015610d0357600403611fb45760115460ff80611f84818460081c16611f16565b9216911614600014611fa957611fa6603c6118c061ffff429216601554611f3e565b90565b611fa661012c6118af565b600090565b81810292918115918404141715611f2857565b8115611fd6570490565b634e487b7160e01b600052601260045260246000fd5b60145481101561200b57601460005260206000209060011b0190600090565b634e487b7160e01b600052603260045260246000fd5b3d1561205c573d9067ffffffffffffffff8211611e685760405191612050601f8201601f191660200184611e9b565b82523d6000602084013e565b606090565b67ffffffffffffffff8111611e685760051b60200190565b60095481101561200b57600960005260206000200190600090565b805482101561200b5760005260206000200190600090565b6000198114611f285760010190565b6120c361227d565b6008811015610d0357600381149081156120fb575b506120e257600090565b60115460ff808260081c1691160360ff8111611f285790565b6004915014386120d8565b61210e61227d565b6008811015610d035760038114159081612208575b50612202576001600160a01b031660008181526003602052604090205460ff161561220257600052600460205260ff60406000205416611fb457600f5480421061220257601054804210156121fb5761217c8242611f4b565b90606482029180830460641490151715611f285761219d926115bf91611f4b565b601454600081156121f357506000198101908111611f28576121c0600191611fec565b500154905b606482029180830460641490151715611f285760649161161a6121ef926116146012548094611fcc565b0490565b9050906121c5565b5050600090565b50600090565b60049150141538612123565b600f548042106122025760105480421015612254576122338242611f4b565b90606482029180830460641490151715611f2857611fa6926115bf91611f4b565b5050606490565b60026001541461226c576002600155565b633ee5aeb560e01b60005260046000fd5b60ff60175460081c166008811015610d0357600681148015612376575b611fa65750600b544210611fb457600c544211156123715760095460ff600e54161161236c57600f5442106123675760105442101561233d5760115460ff808260081c169116808210156123365760155490816122f957505050600390565b60ff61230761231a94611f16565b160361232b5761ffff603c5b1690611f3e565b42101561232657600490565b600390565b61ffff61012c612313565b5050600690565b60115460ff8160081c169081156123605760ff161161235b57600690565b600590565b5050600790565b600290565b600790565b600190565b506007811461229a565b6002546000906001600160a01b0316803b15610e465760405163d8d6e8ff60e01b815260066004820152906000908290602490829084905af180156124215761240c575b5080610d19575060175460ff8160081c16906008821015610d0357610600916006600091600080516020612c3a8339815191526020604051428152a35061ff00191617601755565b6124199150600090611e9b565b6000386123c4565b6040513d6000823e3d90fd5b6002546000906001600160a01b0316803b15610e465760405163d8d6e8ff60e01b815260076004820152906000908290602490829084905af18015612421576124b9575b5080610d19575060175460ff8160081c16906008821015610d0357610700916007600091600080516020612c3a8339815191526020604051428152a35061ff00191617601755565b6124c69150600090611e9b565b600038612471565b156124d557565b60405162461bcd60e51b81526020600482015260146024820152734e6f2066756e647320746f20776974686472617760601b6044820152606490fd5b60009061251c61227d565b60088110156114df57600614801561271d575b156103eb5747916125418315156124ce565b60095415612710575b50600080816009545b8082106126d75750508361256e92939482116126cf57611f4b565b801561257a81156124ce565b60198202908282046019141715611b9657606461259991048092611f4b565b600254604051638da5cb5b60e01b815291939190602090829060049082906001600160a01b03165afa9081156103f757829184918391612687575b50829182918291906001600160a01b03165af16125ef612021565b5015611b115760018060a01b036002541660ff600a5416813b156107fd576126316024849287604051958694859363a9bea78960e01b85526004850190611e3f565b5af180156103f757612677575b50507fd66662c0ded9e58fd31d5e44944bcfd07ffc15e6927ecc1382e7941cb7bd24c460408051838152846020820152a1600755600855565b8161268191611e9b565b3861263e565b925050506020813d6020116126c7575b816126a460209383611e9b565b810103126103eb57516001600160a01b03811681036103eb5781908390826125d4565b3d9150612697565b905080611f4b565b90916127086001916126e885612079565b848060a01b0391549060031b1c1686526006602052604086205490611f3e565b920190612553565b61271861242d565b61254a565b5061272661227d565b60088110156114df5760071461252f565b6000546001600160a01b0316330361274b57565b63118cdaa760e01b6000523360045260246000fd5b600080546001600160a01b039283166001600160a01b03198216811783559216907f8be0079c531659141344cd1fd0a4f28419497f9722a3daafe3b4186f6b6457e09080a3565b6127af61227d565b9060009160088110156114df57600703612bf45760095415612bb857600190825b600954811015612908576127e381612079565b905460039190911b1c6001600160a01b03168085526005602052604085205460ff1615612814575b506001016127d0565b84808080600d54855af1612826612021565b50156128b357808552600560205260408520805460ff19166001179055601654600160401b8110156107025790612867826001809594016016556016612094565b81549060031b9083821b91868060a01b03901b19161790557f48d31f1c958cd44f1f83a52ae2dfaf61e88a1b82c07a6d5711a4abef60b6531e6020600d54604051908152a25b9061280b565b909250600d5481855260066020526128d060408620918254611f3e565b90557faf73b0b217208b61be286bbc37095bce7eb8b9ccf617244c2f0f154e8e04e3ff6020600d54604051908152a2600183926128ad565b50919061291361242d565b476129ac575b5060165490600d54906040518091829190601681527fd833147d7dc355ba459fc788f669e58cfaf9dc25ddcd0702e87d69c7b5124289905b86811061298a575050039020917fbb93c7c839bddd97272c8e974d54d30adfa3aa55df63a52f02b7192efd361a246020604051428152a4565b81546001600160a01b0316835284935060209092019160019182019101612951565b6129b461227d565b60088110156114df576006148015612b9e575b156103eb5747906129d98215156124ce565b60095415612b91575b15612b50575b80156129f481156124ce565b60198202908282046019141715611b96576064612a1391048092611f4b565b600254604051638da5cb5b60e01b815291929190602090829060049082906001600160a01b03165afa908115611b0657849183918391612b08575b50829182918291906001600160a01b03165af1612a69612021565b5015611b115760018060a01b036002541660ff600a5416813b156107f557612aab6024869286604051958694859363a9bea78960e01b85526004850190611e3f565b5af18015611b0657612af4575b507fd66662c0ded9e58fd31d5e44944bcfd07ffc15e6927ecc1382e7941cb7bd24c460408051838152846020820152a160075560085538612919565b83612b0191949294611e9b565b9138612ab8565b925050506020813d602011612b48575b81612b2560209383611e9b565b810103126107f957516001600160a01b03811681036107f9578390829082612a4e565b3d9150612b18565b919080816009545b808210612b7857505083612b7392939482116126cf57611f4b565b6129e8565b9091612b896001916126e885612079565b920190612b58565b612b9961242d565b6129e2565b50612ba761227d565b60088110156114df576007146129c7565b60405162461bcd60e51b8152602060048201526014602482015273139bc81c1b185e595c9cc81d1bc81c99599d5b9960621b6044820152606490fd5b60405162461bcd60e51b815260206004820152601c60248201527f4d697373696f6e206e6f7420696e204661696c656420737461747573000000006044820152606490fdfe39ba628632d48c45c7f562c07db20a44cf68423691d5d79b20f87ba84138aedfce6d7b5282bd9a3661ae061feed1dbda4e52ab073b1f9285be6e155d9c38d4eca2646970667358221220a357412d0603db5f507c37f0faecb075a57d8387cc725f62bd9a816970ae703864736f6c634300081e0033",
  "linkReferences": {},
  "deployedLinkReferences": {}
}