{
  "_format": "hh-sol-artifact-1",
  "contractName": "Mission",
  "sourceName": "contracts/MissionFactory.sol",
  "abi": [
    {
      "inputs": [],
      "stateMutability": "nonpayable",
      "type": "constructor"
    },
    {
      "inputs": [],
      "name": "AllRoundsDone",
      "type": "error"
    },
    {
      "inputs": [],
      "name": "AlreadyJoined",
      "type": "error"
    },
    {
      "inputs": [],
      "name": "AlreadyWon",
      "type": "error"
    },
    {
      "inputs": [],
      "name": "ContractsNotAllowed",
      "type": "error"
    },
    {
      "inputs": [
        {
          "internalType": "uint256",
          "name": "secondsLeft",
          "type": "uint256"
        }
      ],
      "name": "Cooldown",
      "type": "error"
    },
    {
      "inputs": [
        {
          "internalType": "uint256",
          "name": "nowTs",
          "type": "uint256"
        },
        {
          "internalType": "uint256",
          "name": "endTs",
          "type": "uint256"
        }
      ],
      "name": "EnrollmentClosed",
      "type": "error"
    },
    {
      "inputs": [
        {
          "internalType": "uint256",
          "name": "nowTs",
          "type": "uint256"
        },
        {
          "internalType": "uint256",
          "name": "startTs",
          "type": "uint256"
        }
      ],
      "name": "EnrollmentNotStarted",
      "type": "error"
    },
    {
      "inputs": [
        {
          "internalType": "uint8",
          "name": "maxPlayers",
          "type": "uint8"
        }
      ],
      "name": "MaxPlayers",
      "type": "error"
    },
    {
      "inputs": [],
      "name": "MissionEnded",
      "type": "error"
    },
    {
      "inputs": [
        {
          "internalType": "uint256",
          "name": "secondsLeft",
          "type": "uint256"
        }
      ],
      "name": "MonthlyLimit",
      "type": "error"
    },
    {
      "inputs": [
        {
          "internalType": "uint256",
          "name": "nowTs",
          "type": "uint256"
        },
        {
          "internalType": "uint256",
          "name": "missionStart",
          "type": "uint256"
        }
      ],
      "name": "NotActive",
      "type": "error"
    },
    {
      "inputs": [],
      "name": "NotJoined",
      "type": "error"
    },
    {
      "inputs": [
        {
          "internalType": "address",
          "name": "owner",
          "type": "address"
        }
      ],
      "name": "OwnableInvalidOwner",
      "type": "error"
    },
    {
      "inputs": [
        {
          "internalType": "address",
          "name": "account",
          "type": "address"
        }
      ],
      "name": "OwnableUnauthorizedAccount",
      "type": "error"
    },
    {
      "inputs": [
        {
          "internalType": "address",
          "name": "winner",
          "type": "address"
        },
        {
          "internalType": "uint256",
          "name": "amount",
          "type": "uint256"
        },
        {
          "internalType": "bytes",
          "name": "data",
          "type": "bytes"
        }
      ],
      "name": "PayoutFailed",
      "type": "error"
    },
    {
      "inputs": [],
      "name": "ReentrancyGuardReentrantCall",
      "type": "error"
    },
    {
      "inputs": [
        {
          "internalType": "uint256",
          "name": "secondsLeft",
          "type": "uint256"
        }
      ],
      "name": "WeeklyLimit",
      "type": "error"
    },
    {
      "inputs": [
        {
          "internalType": "uint256",
          "name": "expected",
          "type": "uint256"
        },
        {
          "internalType": "uint256",
          "name": "sent",
          "type": "uint256"
        }
      ],
      "name": "WrongEntryFee",
      "type": "error"
    },
    {
      "anonymous": false,
      "inputs": [
        {
          "indexed": false,
          "internalType": "uint256",
          "name": "ownerAmount",
          "type": "uint256"
        },
        {
          "indexed": false,
          "internalType": "uint256",
          "name": "factoryAmount",
          "type": "uint256"
        }
      ],
      "name": "FundsWithdrawn",
      "type": "event"
    },
    {
      "anonymous": false,
      "inputs": [
        {
          "indexed": true,
          "internalType": "address",
          "name": "owner",
          "type": "address"
        },
        {
          "indexed": true,
          "internalType": "enum MissionType",
          "name": "missionType",
          "type": "uint8"
        },
        {
          "indexed": false,
          "internalType": "uint256",
          "name": "timestamp",
          "type": "uint256"
        }
      ],
      "name": "MissionInitialized",
      "type": "event"
    },
    {
      "anonymous": false,
      "inputs": [
        {
          "indexed": true,
          "internalType": "uint256",
          "name": "nrOfPlayers",
          "type": "uint256"
        },
        {
          "indexed": true,
          "internalType": "uint256",
          "name": "amount",
          "type": "uint256"
        },
        {
          "indexed": false,
          "internalType": "address[]",
          "name": "player",
          "type": "address[]"
        },
        {
          "indexed": false,
          "internalType": "uint256",
          "name": "timestamp",
          "type": "uint256"
        }
      ],
      "name": "MissionRefunded",
      "type": "event"
    },
    {
      "anonymous": false,
      "inputs": [
        {
          "indexed": true,
          "internalType": "enum Status",
          "name": "previousStatus",
          "type": "uint8"
        },
        {
          "indexed": true,
          "internalType": "enum Status",
          "name": "newStatus",
          "type": "uint8"
        },
        {
          "indexed": false,
          "internalType": "uint256",
          "name": "timestamp",
          "type": "uint256"
        }
      ],
      "name": "MissionStatusChanged",
      "type": "event"
    },
    {
      "anonymous": false,
      "inputs": [
        {
          "indexed": true,
          "internalType": "address",
          "name": "previousOwner",
          "type": "address"
        },
        {
          "indexed": true,
          "internalType": "address",
          "name": "newOwner",
          "type": "address"
        }
      ],
      "name": "OwnershipTransferred",
      "type": "event"
    },
    {
      "anonymous": false,
      "inputs": [
        {
          "indexed": true,
          "internalType": "address",
          "name": "player",
          "type": "address"
        },
        {
          "indexed": false,
          "internalType": "uint256",
          "name": "amount",
          "type": "uint256"
        },
        {
          "indexed": false,
          "internalType": "uint256",
          "name": "totalPlayers",
          "type": "uint256"
        }
      ],
      "name": "PlayerEnrolled",
      "type": "event"
    },
    {
      "anonymous": false,
      "inputs": [
        {
          "indexed": true,
          "internalType": "address",
          "name": "player",
          "type": "address"
        },
        {
          "indexed": false,
          "internalType": "uint256",
          "name": "amount",
          "type": "uint256"
        }
      ],
      "name": "PlayerRefunded",
      "type": "event"
    },
    {
      "anonymous": false,
      "inputs": [
        {
          "indexed": false,
          "internalType": "uint256",
          "name": "value",
          "type": "uint256"
        },
        {
          "indexed": false,
          "internalType": "uint256",
          "name": "croCurrent",
          "type": "uint256"
        }
      ],
      "name": "PotIncreased",
      "type": "event"
    },
    {
      "anonymous": false,
      "inputs": [
        {
          "indexed": true,
          "internalType": "address",
          "name": "player",
          "type": "address"
        },
        {
          "indexed": false,
          "internalType": "uint256",
          "name": "amount",
          "type": "uint256"
        }
      ],
      "name": "RefundFailed",
      "type": "event"
    },
    {
      "anonymous": false,
      "inputs": [
        {
          "indexed": true,
          "internalType": "address",
          "name": "player",
          "type": "address"
        },
        {
          "indexed": true,
          "internalType": "uint8",
          "name": "roundNumber",
          "type": "uint8"
        },
        {
          "indexed": false,
          "internalType": "uint256",
          "name": "payout",
          "type": "uint256"
        },
        {
          "indexed": false,
          "internalType": "uint256",
          "name": "croRemaining",
          "type": "uint256"
        }
      ],
      "name": "RoundCalled",
      "type": "event"
    },
    {
      "inputs": [],
      "name": "callRound",
      "outputs": [],
      "stateMutability": "nonpayable",
      "type": "function"
    },
    {
      "inputs": [],
      "name": "checkMissionStartCondition",
      "outputs": [],
      "stateMutability": "nonpayable",
      "type": "function"
    },
    {
      "inputs": [],
      "name": "currentProgressPct",
      "outputs": [
        {
          "internalType": "uint256",
          "name": "",
          "type": "uint256"
        }
      ],
      "stateMutability": "view",
      "type": "function"
    },
    {
      "inputs": [],
      "name": "enrollPlayer",
      "outputs": [],
      "stateMutability": "payable",
      "type": "function"
    },
    {
      "inputs": [
        {
          "internalType": "string",
          "name": "passphrase",
          "type": "string"
        }
      ],
      "name": "enrollPlayerWithSecret",
      "outputs": [],
      "stateMutability": "payable",
      "type": "function"
    },
    {
      "inputs": [],
      "name": "factoryShare",
      "outputs": [
        {
          "internalType": "uint256",
          "name": "",
          "type": "uint256"
        }
      ],
      "stateMutability": "view",
      "type": "function"
    },
    {
      "inputs": [],
      "name": "forceFinalizeMission",
      "outputs": [],
      "stateMutability": "nonpayable",
      "type": "function"
    },
    {
      "inputs": [],
      "name": "getFailedRefundPlayers",
      "outputs": [
        {
          "internalType": "address[]",
          "name": "",
          "type": "address[]"
        }
      ],
      "stateMutability": "view",
      "type": "function"
    },
    {
      "inputs": [],
      "name": "getIndexerSnapshot",
      "outputs": [
        {
          "internalType": "uint8",
          "name": "status",
          "type": "uint8"
        },
        {
          "internalType": "uint8",
          "name": "roundCount",
          "type": "uint8"
        },
        {
          "internalType": "uint256",
          "name": "croCurrent",
          "type": "uint256"
        },
        {
          "internalType": "uint32",
          "name": "playersCount",
          "type": "uint32"
        },
        {
          "internalType": "uint32",
          "name": "winnersCount",
          "type": "uint32"
        },
        {
          "internalType": "uint32",
          "name": "refundedCount",
          "type": "uint32"
        }
      ],
      "stateMutability": "view",
      "type": "function"
    },
    {
      "inputs": [],
      "name": "getMissionData",
      "outputs": [
        {
          "components": [
            {
              "internalType": "enum Status",
              "name": "status",
              "type": "uint8"
            },
            {
              "internalType": "uint256",
              "name": "missionCreated",
              "type": "uint256"
            },
            {
              "internalType": "string",
              "name": "name",
              "type": "string"
            },
            {
              "internalType": "enum MissionType",
              "name": "missionType",
              "type": "uint8"
            },
            {
              "internalType": "uint8",
              "name": "missionRounds",
              "type": "uint8"
            },
            {
              "internalType": "uint8",
              "name": "roundPauseDuration",
              "type": "uint8"
            },
            {
              "internalType": "uint8",
              "name": "lastRoundPauseDuration",
              "type": "uint8"
            },
            {
              "internalType": "uint256",
              "name": "croInitial",
              "type": "uint256"
            },
            {
              "internalType": "uint256",
              "name": "croStart",
              "type": "uint256"
            },
            {
              "internalType": "uint256",
              "name": "croCurrent",
              "type": "uint256"
            },
            {
              "internalType": "uint256",
              "name": "enrollmentAmount",
              "type": "uint256"
            },
            {
              "internalType": "uint8",
              "name": "enrollmentMinPlayers",
              "type": "uint8"
            },
            {
              "internalType": "uint8",
              "name": "enrollmentMaxPlayers",
              "type": "uint8"
            },
            {
              "internalType": "uint256",
              "name": "enrollmentStart",
              "type": "uint256"
            },
            {
              "internalType": "uint256",
              "name": "enrollmentEnd",
              "type": "uint256"
            },
            {
              "internalType": "uint256",
              "name": "missionStart",
              "type": "uint256"
            },
            {
              "internalType": "uint256",
              "name": "missionEnd",
              "type": "uint256"
            },
            {
              "components": [
                {
                  "internalType": "address",
                  "name": "player",
                  "type": "address"
                },
                {
                  "internalType": "uint256",
                  "name": "enrolledTS",
                  "type": "uint256"
                },
                {
                  "internalType": "uint256",
                  "name": "amountWon",
                  "type": "uint256"
                },
                {
                  "internalType": "uint256",
                  "name": "wonTS",
                  "type": "uint256"
                },
                {
                  "internalType": "bool",
                  "name": "refunded",
                  "type": "bool"
                },
                {
                  "internalType": "bool",
                  "name": "refundFailed",
                  "type": "bool"
                },
                {
                  "internalType": "uint256",
                  "name": "refundTS",
                  "type": "uint256"
                }
              ],
              "internalType": "struct Mission.Players[]",
              "name": "players",
              "type": "tuple[]"
            },
            {
              "internalType": "uint8",
              "name": "enrollmentCount",
              "type": "uint8"
            },
            {
              "internalType": "uint8",
              "name": "roundCount",
              "type": "uint8"
            },
            {
              "internalType": "uint256",
              "name": "pauseTimestamp",
              "type": "uint256"
            },
            {
              "internalType": "bool",
              "name": "allRefunded",
              "type": "bool"
            },
            {
              "internalType": "address",
              "name": "creator",
              "type": "address"
            }
          ],
          "internalType": "struct Mission.MissionData",
          "name": "",
          "type": "tuple"
        }
      ],
      "stateMutability": "view",
      "type": "function"
    },
    {
      "inputs": [],
      "name": "getPlayerCount",
      "outputs": [
        {
          "internalType": "uint256",
          "name": "",
          "type": "uint256"
        }
      ],
      "stateMutability": "view",
      "type": "function"
    },
    {
      "inputs": [],
      "name": "getRealtimeStatus",
      "outputs": [
        {
          "internalType": "enum Status",
          "name": "",
          "type": "uint8"
        }
      ],
      "stateMutability": "view",
      "type": "function"
    },
    {
      "inputs": [
        {
          "internalType": "uint256",
          "name": "offset",
          "type": "uint256"
        },
        {
          "internalType": "uint256",
          "name": "limit",
          "type": "uint256"
        }
      ],
      "name": "getRefundedPlayersSlice",
      "outputs": [
        {
          "internalType": "address[]",
          "name": "slice",
          "type": "address[]"
        }
      ],
      "stateMutability": "view",
      "type": "function"
    },
    {
      "inputs": [],
      "name": "getWinners",
      "outputs": [
        {
          "components": [
            {
              "internalType": "address",
              "name": "player",
              "type": "address"
            },
            {
              "internalType": "uint256",
              "name": "enrolledTS",
              "type": "uint256"
            },
            {
              "internalType": "uint256",
              "name": "amountWon",
              "type": "uint256"
            },
            {
              "internalType": "uint256",
              "name": "wonTS",
              "type": "uint256"
            },
            {
              "internalType": "bool",
              "name": "refunded",
              "type": "bool"
            },
            {
              "internalType": "bool",
              "name": "refundFailed",
              "type": "bool"
            },
            {
              "internalType": "uint256",
              "name": "refundTS",
              "type": "uint256"
            }
          ],
          "internalType": "struct Mission.Players[]",
          "name": "",
          "type": "tuple[]"
        }
      ],
      "stateMutability": "view",
      "type": "function"
    },
    {
      "inputs": [],
      "name": "increasePot",
      "outputs": [],
      "stateMutability": "payable",
      "type": "function"
    },
    {
      "inputs": [
        {
          "internalType": "address",
          "name": "_owner",
          "type": "address"
        },
        {
          "internalType": "address",
          "name": "_missionFactory",
          "type": "address"
        },
        {
          "internalType": "enum MissionType",
          "name": "_missionType",
          "type": "uint8"
        },
        {
          "internalType": "uint256",
          "name": "_enrollmentStart",
          "type": "uint256"
        },
        {
          "internalType": "uint256",
          "name": "_enrollmentEnd",
          "type": "uint256"
        },
        {
          "internalType": "uint256",
          "name": "_enrollmentAmount",
          "type": "uint256"
        },
        {
          "internalType": "uint8",
          "name": "_enrollmentMinPlayers",
          "type": "uint8"
        },
        {
          "internalType": "uint8",
          "name": "_enrollmentMaxPlayers",
          "type": "uint8"
        },
        {
          "internalType": "uint8",
          "name": "_roundPauseDuration",
          "type": "uint8"
        },
        {
          "internalType": "uint8",
          "name": "_lastRoundPauseDuration",
          "type": "uint8"
        },
        {
          "internalType": "uint256",
          "name": "_missionStart",
          "type": "uint256"
        },
        {
          "internalType": "uint256",
          "name": "_missionEnd",
          "type": "uint256"
        },
        {
          "internalType": "uint8",
          "name": "_missionRounds",
          "type": "uint8"
        },
        {
          "internalType": "string",
          "name": "_name",
          "type": "string"
        },
        {
          "internalType": "bytes32",
          "name": "_pinHash",
          "type": "bytes32"
        },
        {
          "internalType": "address",
          "name": "_creator",
          "type": "address"
        }
      ],
      "name": "initialize",
      "outputs": [],
      "stateMutability": "payable",
      "type": "function"
    },
    {
      "inputs": [],
      "name": "isArming",
      "outputs": [
        {
          "internalType": "bool",
          "name": "",
          "type": "bool"
        }
      ],
      "stateMutability": "view",
      "type": "function"
    },
    {
      "inputs": [],
      "name": "isFinalized",
      "outputs": [
        {
          "internalType": "bool",
          "name": "",
          "type": "bool"
        }
      ],
      "stateMutability": "view",
      "type": "function"
    },
    {
      "inputs": [
        {
          "internalType": "address",
          "name": "addr",
          "type": "address"
        }
      ],
      "name": "isPlayer",
      "outputs": [
        {
          "internalType": "bool",
          "name": "",
          "type": "bool"
        }
      ],
      "stateMutability": "view",
      "type": "function"
    },
    {
      "inputs": [],
      "name": "missionFactory",
      "outputs": [
        {
          "internalType": "contract MissionFactory",
          "name": "",
          "type": "address"
        }
      ],
      "stateMutability": "view",
      "type": "function"
    },
    {
      "inputs": [],
      "name": "missionStartConditionChecked",
      "outputs": [
        {
          "internalType": "bool",
          "name": "",
          "type": "bool"
        }
      ],
      "stateMutability": "view",
      "type": "function"
    },
    {
      "inputs": [],
      "name": "owner",
      "outputs": [
        {
          "internalType": "address",
          "name": "",
          "type": "address"
        }
      ],
      "stateMutability": "view",
      "type": "function"
    },
    {
      "inputs": [],
      "name": "ownerShare",
      "outputs": [
        {
          "internalType": "uint256",
          "name": "",
          "type": "uint256"
        }
      ],
      "stateMutability": "view",
      "type": "function"
    },
    {
      "inputs": [
        {
          "internalType": "address",
          "name": "player",
          "type": "address"
        }
      ],
      "name": "pendingPayout",
      "outputs": [
        {
          "internalType": "uint256",
          "name": "",
          "type": "uint256"
        }
      ],
      "stateMutability": "view",
      "type": "function"
    },
    {
      "inputs": [
        {
          "internalType": "address",
          "name": "player",
          "type": "address"
        }
      ],
      "name": "playerState",
      "outputs": [
        {
          "internalType": "bool",
          "name": "joined",
          "type": "bool"
        },
        {
          "internalType": "bool",
          "name": "won",
          "type": "bool"
        }
      ],
      "stateMutability": "view",
      "type": "function"
    },
    {
      "inputs": [],
      "name": "refundPlayers",
      "outputs": [],
      "stateMutability": "nonpayable",
      "type": "function"
    },
    {
      "inputs": [],
      "name": "remainingRounds",
      "outputs": [
        {
          "internalType": "uint8",
          "name": "",
          "type": "uint8"
        }
      ],
      "stateMutability": "view",
      "type": "function"
    },
    {
      "inputs": [],
      "name": "renounceOwnership",
      "outputs": [],
      "stateMutability": "nonpayable",
      "type": "function"
    },
    {
      "inputs": [],
      "name": "secondsUntilNextRound",
      "outputs": [
        {
          "internalType": "uint256",
          "name": "",
          "type": "uint256"
        }
      ],
      "stateMutability": "view",
      "type": "function"
    },
    {
      "inputs": [
        {
          "internalType": "address",
          "name": "newOwner",
          "type": "address"
        }
      ],
      "name": "transferOwnership",
      "outputs": [],
      "stateMutability": "nonpayable",
      "type": "function"
    },
    {
      "inputs": [
        {
          "internalType": "address",
          "name": "addr",
          "type": "address"
        }
      ],
      "name": "wasRefunded",
      "outputs": [
        {
          "internalType": "bool",
          "name": "",
          "type": "bool"
        }
      ],
      "stateMutability": "view",
      "type": "function"
    },
    {
      "inputs": [],
      "name": "withdrawFunds",
      "outputs": [],
      "stateMutability": "nonpayable",
      "type": "function"
    }
  ],
  "bytecode": "0x60808060405234607957331560635760008054336001600160a01b0319821681178355916001600160a01b03909116907f8be0079c531659141344cd1fd0a4f28419497f9722a3daafe3b4186f6b6457e09080a360018055613ab4908161007f8239f35b631e4fbdf760e01b600052600060045260246000fd5b600080fdfe608080604052600436101561001357600080fd5b600090813560e01c9081623e16a514611e205750806309c95e1014611dd65780631212484814611d0457806324600fc314611bef578063268b2b5114611b33578063293c221314611b105780635407441f14611af557806357985d1014611a1f57806368c6ba21146119f5578063715018a61461199b5780637475a4cb146115c25780637ce17de4146111875780637cf61b691461109f5780638d4e4083146110405780638da5cb5b146110195780638f1c315114610ffb578063987c543a14610f4957806398bdae4314610e8f578063a7e22a3e14610e69578063ad1ca6bf14610daf578063c2e5220614610d8e578063c7fe98f5146108e0578063cb8d96751461075a578063dd1121f614610726578063df15c37e14610515578063e6810a50146104f1578063eb2bab771461028e578063f2fde38b1461023d578063fa4cf5a114610214578063faf9175d146101d9578063fb84e12f146101b65763fcca0c841461018057600080fd5b346101b35760203660031901126101b35760406101a361019e611e3c565b6127e9565b8251911515825215156020820152f35b80fd5b50346101b357806003193601126101b35760206101d16127a2565b604051908152f35b50346101b35760403660031901126101b3576102106101fc602435600435612624565b604051918291602083526020830190611f47565b0390f35b50346101b357806003193601126101b3576002546040516001600160a01b039091168152602090f35b50346101b35760203660031901126101b357610257611e3c565b61025f613081565b6001600160a01b0381161561027a57610277906130aa565b80f35b631e4fbdf760e01b82526004829052602482fd5b50806003193601126101b35734156104bc576002546001600160a01b03163381148015610442575b801561042f575b156103de576102ca612867565b60088110156103ca57600311156103855781906102e934600a546121b1565b600a556102f834600b546121b1565b600b557f7272b264c9ef2a1e8e9303944736f4977b14a5761227b7b9869fecaa60f89387604061032a34600c546121b1565b80600c558151903482526020820152a1803b156103825781809160046040518094819363d065701960e01b83525af18015610377576103665750f35b816103709161203f565b6101b35780f35b6040513d84823e3d90fd5b50fd5b60405162461bcd60e51b815260206004820152601960248201527f4d697373696f6e207061737365642061637469766174696f6e000000000000006044820152606490fd5b634e487b7160e01b83526021600452602483fd5b60405162461bcd60e51b815260206004820152602360248201527f4f6e6c7920666163746f7279206f7220617574686f72697a65642063616e20666044820152621d5b9960ea1b6064820152608490fd5b5081546001600160a01b031633146102bd565b5060405163b918161160e01b8152336004820152602081602481855afa9081156104b1578391610473575b506102b6565b90506020813d6020116104a9575b8161048e6020938361203f565b810103126104a55761049f90612061565b3861046d565b8280fd5b3d9150610481565b6040513d85823e3d90fd5b60405162461bcd60e51b815260206004820152600d60248201526c139bc8199d5b991cc81cd95b9d609a1b6044820152606490fd5b50346101b35760203660031901126101b35760206101d1610510611e3c565b612508565b50346101b357806003193601126101b35761052e612867565b60088110156107125760061480156106f8575b156106995760135481805b82811061064e575061055d83612330565b9261056b604051948561203f565b80845261057a601f1991612330565b01815b81811061060d575050805b8282106105a5576040516020808252819061021090820187611ec8565b6105b76105b183612164565b50612200565b91606083015115801590610600575b6105d5575b6001019150610588565b6105f7826105e560019491612348565b946105f08289612389565b5286612389565b508291506105cb565b50604083015115156105c6565b60209060405161061c81612023565b84815284838201528460408201528460608201528460808201528460a08201528460c08201528282880101520161057d565b61065a6105b182612164565b6060810151159081159161068b575b50610677575b60010161054c565b92610683600191612348565b93905061066f565b604091500151151538610669565b60405162461bcd60e51b815260206004820152603160248201527f4d697373696f6e206973206e6f7420696e2053756363657373206f7220506172604482015270746c79537563636573732073746174757360781b6064820152608490fd5b50610701612867565b600881101561071257600514610541565b634e487b7160e01b82526021600452602482fd5b50346101b357806003193601126101b35760105442118061074f575b6020906040519015158152f35b506011544210610742565b5060203660031901126101b35760043567ffffffffffffffff81116108dc57610787903690600401611f84565b90610790612845565b60ff6009541660098110156108c85760070361088357600f54916107cf602080604051848195838301978837810187838201520301808452018261203f565b5190206017540361083e57333b6108305780421061081a575060105480421161080457506107fd42336130f1565b6001805580f35b63166450c960e31b825242600452602452604490fd5b634cd01efb60e11b825242600452602452604490fd5b628b531560e01b8252600482fd5b60405162461bcd60e51b815260206004820152601760248201527f57726f6e672053656372657420506173737068726173650000000000000000006044820152606490fd5b60405162461bcd60e51b815260206004820152601960248201527f4e6f7420616e20496e766974654f6e6c79206d697373696f6e000000000000006044820152606490fd5b634e487b7160e01b84526021600452602484fd5b5080fd5b506102003660031901126101b3576108f6611e3c565b6024356001600160a01b03811691908290036104a557604435916009831015610d8a5760c43560ff8116809103610d865760e4359060ff82168203610d82576101043560ff81168103610d7e57610124359060ff82168203610d7a57610184359160ff83168303610d76576101a43567ffffffffffffffff8111610d7257610982903690600401611f84565b6101e435979091906001600160a01b0389168903610d6e576109a2612845565b60185460ff8116610d335760ff19166001176018556109c08a6130aa565b6bffffffffffffffffffffffff60a01b600254161760025560ff196009541660ff8b16176009554260075567ffffffffffffffff8211610d1f57610a056008546122f6565b601f8111610cb4575b508a90601f8311600114610c3e5762ff00009392918c9183610c33575b50508160011b916000199060031b1c1916176008555b61ff0063ff0000006009549260181b169460081b169063ffffff001916179160101b16171760095534600a5534600b5534600c5560a435600d5561ff00600e549260081b169161ffff19161717600e55606435600f5560843560105561014435601155610164356012556019548460195580610bc4575b506013548460135580610b41575b506014805461ffff191690556015849055601680546101c4356017556001600160a81b03191660089290921b610100600160a81b03169190911790556040514281526001600160a01b03909116907fe9597995b7a2af444cc28b2b776b88b1253d701282a9bcf902d4f59750df7c5790602090a36001805580f35b80600602906006820403610bb057601385527f66de8ffda797e3de9c05e8fc57b3bf0ec28a930d40b0d285d93c06501cf6a090908101905b818110610b865750610ac6565b80866006925586600182015586600282015586600382015586600482015586600582015501610b79565b634e487b7160e01b85526011600452602485fd5b80600602906006820403610bb057601985527f944998273e477b495144fb8794c914197f3ccb46be2900f4698fd0ef743c9695908101905b818110610c095750610ab8565b80866006925586600182015586600282015586600382015586600482015586600582015501610bfc565b013590503880610a2b565b60088c52600080516020613a5f83398151915291601f1984168d5b818110610c9c575091600193918562ff000097969410610c82575b505050811b01600855610a41565b0135600019600384901b60f8161c19169055388080610c74565b91936020600181928787013581550195019201610c59565b60088c52601f830160051c600080516020613a5f833981519152019060208410610d09575b601f0160051c600080516020613a5f83398151915201905b818110610cfe5750610a0e565b8c8155600101610cf1565b600080516020613a5f8339815191529150610cd9565b634e487b7160e01b8b52604160045260248bfd5b60405162461bcd60e51b8152602060048201526013602482015272105b1c9958591e481a5b9a5d1a585b1a5e9959606a1b6044820152606490fd5b8b80fd5b8980fd5b8880fd5b8780fd5b8680fd5b8580fd5b8480fd5b8380fd5b50346101b357806003193601126101b357602060ff60145416604051908152f35b50346101b357806003193601126101b357610dc8612845565b80546001600160a01b031633148015610ded575b610de59061206e565b6107fd6123ee565b5060025460405163b918161160e01b815233600482015290602090829060249082906001600160a01b03165afa8015610377578290610e2e575b9050610ddc565b506020813d602011610e61575b81610e486020938361203f565b810103126108dc57610e5c610de591612061565b610e27565b3d9150610e3b565b50346101b357806003193601126101b3576020610e8461239d565b60ff60405191168152f35b50346101b357806003193601126101b357610ea8612845565b80546001600160a01b031633148015610ecd575b610ec59061206e565b6107fd61365c565b5060025460405163b918161160e01b815233600482015290602090829060249082906001600160a01b03165afa8015610377578290610f0e575b9050610ebc565b506020813d602011610f41575b81610f286020938361203f565b810103126108dc57610f3c610ec591612061565b610f07565b3d9150610f1b565b50806003193601126101b357610f5d612845565b60ff60095416600981101561071257600714610fa757333b610f9957600f5480421061081a575060105480421161080457506107fd42336130f1565b628b531560e01b8152600490fd5b60405162461bcd60e51b815260206004820152602660248201527f496e766974654f6e6c793a2075736520656e726f6c6c506c617965725769746860448201526514d958dc995d60d21b6064820152608490fd5b50346101b357806003193601126101b3576020600354604051908152f35b50346101b357806003193601126101b357546040516001600160a01b039091168152602090f35b50346101b357806003193601126101b357611059612867565b90600882101561108b578160066020931491821561107e575b50506040519015158152f35b6007925050143880611072565b634e487b7160e01b81526021600452602490fd5b50346101b357806003193601126101b3576110b8612867565b60088110156107125760076110cd91146120ba565b60135481805b82811061115257506110e490612357565b91805b828110611104576040516020808252819061021090820187611f47565b8060ff6004611114600194612164565b50015460081c16611126575b016110e7565b61112f81612164565b50828060a01b0390541661114c61114585612348565b9487612389565b52611120565b60ff600461115f83612164565b50015460081c16611173575b6001016110d3565b9061117f600191612348565b91905061116b565b50346101b357806003193601126101b357806102c06040516111a881611ff0565b828152826020820152606060408201528260608201528260808201528260a08201528260c08201528260e08201528261010082015282610120820152826101408201528261016082015282610180820152826101a0820152826101c0820152826101e0820152826102008201526060610220820152826102408201528261026082015282610280820152826102a082015201526040519061124882611ff0565b61125760ff60065416836122ea565b60075460208301526040516008548183611270836122f6565b80835292600181169081156115a35750600114611557575b6112949250038261203f565b604083015260095460ff811660098110156103ca579060ff916060850152818160081c166080850152818160101c1660a085015260181c1660c0830152600a5460e0830152600b54610100830152600c54610120830152600d5461014083015260ff600e5481811661016085015260081c16610180830152600f546101a08301526010546101c08301526011546101e083015260125461020083015260135461133c81612330565b9161134a604051938461203f565b818352601381527f66de8ffda797e3de9c05e8fc57b3bf0ec28a930d40b0d285d93c06501cf6a090602084015b83831061153957610220860185905260145460ff818116610240890152600891821c811661026089015260155461028089015260165490811615156102a0890152901c6001600160a01b03166102c0870152856113db6113d5612867565b826122ea565b6040518091602082526113f2602083018251611e57565b602081015160408301526114e861141a60408301516102e06060860152610300850190611e7a565b61142c60608401516080860190611ebb565b60ff60808401511660a085015260ff60a08401511660c085015260ff60c08401511660e085015260e083015161010085015261010083015161012085015261012083015161014085015261014083015161016085015260ff6101608401511661018085015260ff610180840151166101a08501526101a08301516101c08501526101c08301516101e08501526101e0830151610200850152610200830151610220850152610220830151601f1985830301610240860152611ec8565b9060ff6102408201511661026084015260ff610260820151166102808401526102808101516102a08401526102a081015115156102c08401526102c060018060a01b03910151166102e08301520390f35b6006602060019261154985612200565b815201920192019190611377565b5060088452908390600080516020613a5f8339815191525b81831061158757505090602061129492820101611288565b602091935080600191548385880101520191019091839261156f565b6020925061129494915060ff191682840152151560051b820101611288565b50346101b357806003193601126101b3576115db612845565b6115e3612867565b6008811015610712576004811461193c57600381106119235760031061191457338152601a60205260ff60408220541680156119055761162a61162582612106565b61212f565b509060028201918254158015906118f8575b6118e9576014549260ff8460081c169360ff60095460081c168510156118da5760115461166981426121be565b906402540be4008202918083046402540be40014901517156118c6579061169561169b926012546121be565b9061228a565b94600b546402540be4006116bc600c54986116b68a856121be565b93612277565b049080821061188b576116ce916121be565b95808711611883575b861561184657866116e7916121be565b600c5560ff8114611832576117359492611728949261ff00600189940160081b169061ff001916176014555560034291015583600261172d61172884612106565b612164565b500155612106565b506003429101558180808084335af161174c6122aa565b90156117fe575060ff60145460081c168091600c5460405191825260208201527fbbdd894f5e6d754c18172761a1a461095c26de58905e706a8c33657573d4067260403392a360095460081c60ff16036117b0576117a8612977565b6107fd612b61565b8061108b575060004260155560185460ff8160081c169060088210156103ca5782600461040093600080516020613a3f8339815191526020604051428152a35061ff001916176018556107fd565b9061182e60405192839263d086db4360e01b84523360048501526024840152606060448401526064830190611e7a565b0390fd5b634e487b7160e01b87526011600452602487fd5b60405162461bcd60e51b8152602060048201526015602482015274139bc81a5b98dc995b595b9d185b081c185e5bdd5d605a1b6044820152606490fd5b9550856116d7565b60405162461bcd60e51b8152602060048201526013602482015272283937b3b932b9b9903932b3b932b9b9b4b7b760691b6044820152606490fd5b634e487b7160e01b88526011600452602488fd5b6321b94f7b60e21b8652600486fd5b6302ab8f8960e11b8452600484fd5b506003810154151561163c565b63c394a43360e01b8252600482fd5b630d6a05df60e41b8152600490fd5b6011546316f5e3b760e21b835242600452602452604482fd5b60248261198060ff6119548160145460081c1661219f565b600954908216600882901c8316036119925760181c165b61197b60ff4292166015546121b1565b6121be565b600162269d7960e21b03198252600452fd5b60101c1661196b565b50346101b357806003193601126101b3576119b4613081565b80546001600160a01b03198116825581906001600160a01b03167f8be0079c531659141344cd1fd0a4f28419497f9722a3daafe3b4186f6b6457e08280a380f35b50346101b357806003193601126101b3576020611a10612867565b611a1d6040518092611e57565bf35b50346101b357806003193601126101b357611a38612867565b8182601354815b818110611a90575050600883101561108b575060c09263ffffffff809260ff601454600c548260405198168852828260081c16602089015260408801521660608601521660808401521660a0820152f35b611a9c6105b182612164565b604081015115801590611ae8575b611ad4575b60800151611ac0575b600101611a3f565b94611acc600191612260565b959050611ab8565b93611ae0608091612260565b949050611aaf565b5060608101511515611aaa565b50346101b357806003193601126101b35760206101d16121cb565b50346101b357806003193601126101b357602060ff600554166040519015158152f35b50346101b35760203660031901126101b357611b4d611e3c565b611b55612867565b60088110156103ca5791604091611b70600760ff95146120ba565b6001600160a01b0316611b84811515611fb2565b8152601a6020522054168015611bb45760ff6004611ba6611625602094612106565b500154166040519015158152f35b60405162461bcd60e51b8152602060048201526013602482015272141b185e595c881b9bdd08195b9c9bdb1b1959606a1b6044820152606490fd5b50346101b357806003193601126101b357611c08612845565b80546001600160a01b031633148015611c88575b611c259061206e565b611c2d612f55565b60025481906001600160a01b0316803b156103825781809160046040518095819363d065701960e01b83525af18015611c7b57611c6b576001805580f35b611c749161203f565b38816107fd565b50604051903d90823e3d90fd5b5060025460405163b918161160e01b815233600482015290602090829060249082906001600160a01b03165afa8015610377578290611cc9575b9050611c1c565b506020813d602011611cfc575b81611ce36020938361203f565b810103126108dc57611cf7611c2591612061565b611cc2565b3d9150611cd6565b50346101b357806003193601126101b35780546001600160a01b031633148015611d5a575b611d329061206e565b611d3a612845565b611d42612867565b6008811015610712576005036101b3576117a8612977565b5060025460405163b918161160e01b815233600482015290602090829060249082906001600160a01b03165afa8015610377578290611d9b575b9050611d29565b506020813d602011611dce575b81611db56020938361203f565b810103126108dc57611dc9611d3291612061565b611d94565b3d9150611da8565b50346101b35760203660031901126101b35760209060ff906040906001600160a01b03611e01611e3c565b16611e0d811515611fb2565b8152601a84522054161515604051908152f35b9050346108dc57816003193601126108dc576020906004548152f35b600435906001600160a01b0382168203611e5257565b600080fd5b906008821015611e645752565b634e487b7160e01b600052602160045260246000fd5b919082519283825260005b848110611ea6575050826000602080949584010152601f8019910116010190565b80602080928401015182828601015201611e85565b906009821015611e645752565b906020808351928381520192019060005b818110611ee65750505090565b909192602060e060019260c08751858060a01b0381511683528481015185840152604081015160408401526060810151606084015260808101511515608084015260a0810151151560a0840152015160c08201520194019101919091611ed9565b906020808351928381520192019060005b818110611f655750505090565b82516001600160a01b0316845260209384019390920191600101611f58565b9181601f84011215611e525782359167ffffffffffffffff8311611e525760208381860195010111611e5257565b15611fb957565b60405162461bcd60e51b815260206004820152600f60248201526e496e76616c6964206164647265737360881b6044820152606490fd5b6102e0810190811067ffffffffffffffff82111761200d57604052565b634e487b7160e01b600052604160045260246000fd5b60e0810190811067ffffffffffffffff82111761200d57604052565b90601f8019910116810190811067ffffffffffffffff82111761200d57604052565b51908115158203611e5257565b1561207557565b60405162461bcd60e51b815260206004820152601760248201527f4e6f74206f776e6572206f7220617574686f72697a65640000000000000000006044820152606490fd5b156120c157565b60405162461bcd60e51b815260206004820152601f60248201527f4d697373696f6e206973206e6f7420696e204661696c656420737461747573006044820152606490fd5b60ff6000199116019060ff821161211957565b634e487b7160e01b600052601160045260246000fd5b60195481101561214e5760196000526006602060002091020190600090565b634e487b7160e01b600052603260045260246000fd5b60135481101561214e5760136000526006602060002091020190600090565b805482101561214e576000526006602060002091020190600090565b60ff60019116019060ff821161211957565b9190820180921161211957565b9190820391821161211957565b6121d3612867565b6008811015611e64576004036121fb576121f860ff6119548160145460081c1661219f565b90565b600090565b9060405161220d81612023565b60c06005829460018060a01b03815416845260018101546020850152600281015460408501526003810154606085015260ff60048201548181161515608087015260081c16151560a08501520154910152565b63ffffffff1663ffffffff81146121195760010190565b8181029291811591840414171561211957565b8115612294570490565b634e487b7160e01b600052601260045260246000fd5b3d156122e5573d9067ffffffffffffffff821161200d57604051916122d9601f8201601f19166020018461203f565b82523d6000602084013e565b606090565b6008821015611e645752565b90600182811c92168015612326575b602083101461231057565b634e487b7160e01b600052602260045260246000fd5b91607f1691612305565b67ffffffffffffffff811161200d5760051b60200190565b60001981146121195760010190565b9061236182612330565b61236e604051918261203f565b828152809261237f601f1991612330565b0190602036910137565b805182101561214e5760209160051b010190565b6123a5612867565b6008811015611e6457600381149081156123e3575b506123c457600090565b60ff60095460081c1660ff60145460081c16900360ff81116121195790565b6004915014386123ba565b6010544211806124fd575b156124925760055460ff811661244d5760ff19166001176005556013541561243d5760135460ff600e54161161242b57565b612433612a20565b61243b61365c565b565b612445612a20565b61243b612f55565b60405162461bcd60e51b815260206004820152601f60248201527f416c726561647920636865636b656420737461727420636f6e646974696f6e006044820152606490fd5b60405162461bcd60e51b815260206004820152603860248201527f4d697373696f6e206e6f7420696e2061726d696e672077696e646f772e20436160448201527f6c6c20726566756e64506c617965727320696e737465616400000000000000006064820152608490fd5b5060115442106123f9565b612510612867565b6008811015611e645760038114159081612618575b506125f8576001600160a01b03166000908152601a602052604090205460ff1680156125f85761162561255791612106565b506002810154159081159161260a575b506121fb576011548042118015906125fe575b6125f85761258881426121be565b6402540be4008102908082046402540be4001490151715612119576116956125b2926012546121be565b600b546402540be4006125cc600c54936116b685856121be565b0490808211156125f0576125df916121be565b908082116125eb575090565b905090565b505050600090565b50600090565b5060125442101561257a565b600391500154151538612567565b60049150141538612525565b60135492918315801561279a575b8015612790575b6126e2576000805b85811061275e5750801561274b5761265890612357565b936000805b8281106127005750505083518210156126e2578161267e61268e92826121b1565b85518082116126da575b506121be565b9061269882612357565b9360005b8381106126a95750505050565b6001906001600160a01b036126c76126c183876121b1565b85612389565b51166126d38289612389565b520161269c565b905038612688565b505090506040516126f460208261203f565b60008152600036813790565b8060ff6004612710600194612164565b5001541661271f575b0161265d565b61272881612164565b50828060a01b0390541661274561273e85612348565b948a612389565b52612719565b50505090506040516126f460208261203f565b60ff600461276b83612164565b5001541661277c575b600101612641565b90612788600191612348565b919050612774565b5083821015612639565b508015612632565b6011548042106125f857601254804210156127e2576127c182426121be565b90606482029180830460641490151715612119576121f892611695916121be565b5050606490565b6001600160a01b03166000908152601a602052604090205460ff16801561283c5761162561281691612106565b50906002820154159182159261282e575b5060019190565b600301541515915038612827565b50600090600090565b600260015414612856576002600155565b633ee5aeb560e01b60005260046000fd5b60ff60185460081c166008811015611e645760068114801561296d575b6121f85750600f5442106121fb576010544211156129685760135460ff600e54161161296357601154421061295e576012544210156129315760ff60145460081c166009549060ff8260081c16808210156129295760155491826128eb5750505050600390565b61290f9360ff92836128fd819461219f565b16036129205760181c165b16906121b1565b42101561291b57600490565b600390565b60101c16612908565b505050600690565b60ff60145460081c1680156129585760ff60095460081c161161295357600690565b600590565b50600790565b600290565b600790565b600190565b5060078114612884565b6002546000906001600160a01b0316803b15611e525760405163d8d6e8ff60e01b8152908160248160008094600660048401525af18015612a14576129ff575b508061108b575060185460ff8160081c16906008821015611e6457610600916006600091600080516020613a3f8339815191526020604051428152a35061ff00191617601855565b612a0c915060009061203f565b6000386129b7565b6040513d6000823e3d90fd5b6002546000906001600160a01b0316803b15611e525760405163d8d6e8ff60e01b8152908160248160008094600760048401525af18015612a1457612aa8575b508061108b575060185460ff8160081c16906008821015611e6457610700916007600091600080516020613a3f8339815191526020604051428152a35061ff00191617601855565b612ab5915060009061203f565b600038612a60565b15612ac457565b60405162461bcd60e51b81526020600482015260146024820152734e6f2066756e647320746f20776974686472617760601b6044820152606490fd5b90816020910312611e5257516001600160a01b0381168103611e525790565b15612b2657565b60405162461bcd60e51b815260206004820152601360248201527213dddb995c881c185e5bdd5d0819985a5b1959606a1b6044820152606490fd5b6000612b6b612867565b6008811015610712576006148015612f3b575b156101b3574790612b90821515612abd565b60ff6014541615612f2e575b506000908182601354905b818110612f0257505090612bc1612bce92600d5490612277565b90808211612efa576121be565b8015612bda8115612abd565b60ff6009541660098110156108c85760078103612cb1575050600254604051638da5cb5b60e01b815290602090829060049082906001600160a01b03165afa9081156104b15783808085612c4b9582958391612c82575b506001600160a01b03165af1612c456122aa565b50612b1f565b7fd66662c0ded9e58fd31d5e44944bcfd07ffc15e6927ecc1382e7941cb7bd24c460408051838152846020820152a1600355600455565b612ca4915060203d602011612caa575b612c9c818361203f565b810190612b00565b38612c31565b503d612c92565b600814612dd55760198202908282046019141715612dc1576064612cd7910480926121be565b600254604051638da5cb5b60e01b815291939190602090829060049082906001600160a01b03165afa9081156103775782808086612d2b9582958391612c8257506001600160a01b03165af1612c456122aa565b60018060a01b036002541660ff60095416813b156104a557612d676024849287604051958694859363a9bea78960e01b85526004850190611ebb565b5af1801561037757612db1575b50507fd66662c0ded9e58fd31d5e44944bcfd07ffc15e6927ecc1382e7941cb7bd24c460408051838152846020820152a160035560045547600c55565b81612dbb9161203f565b38612d74565b634e487b7160e01b83526011600452602483fd5b60328202908282046032141715612dc1576064612df4910480926121be565b600254604051638da5cb5b60e01b815290602090829060049082906001600160a01b03165afa908115612eef5784808086612e459582958391612c8257506001600160a01b03165af1612c456122aa565b828080808460018060a01b0360165460081c165af1612e626122aa565b5015612eb257817fd66662c0ded9e58fd31d5e44944bcfd07ffc15e6927ecc1382e7941cb7bd24c46040612e9984612eaa966121b1565b8151908152866020820152a16121b1565b600355600455565b60405162461bcd60e51b815260206004820152601560248201527410dc99585d1bdc881c185e5bdd5d0819985a5b1959605a1b6044820152606490fd5b6040513d86823e3d90fd5b9050806121be565b60ff6004612f0f83612164565b50015460081c16612f23575b600101612ba7565b600190920191612f1b565b612f36612a20565b612b9c565b50612f44612867565b600881101561071257600714612b7e565b612f5d612867565b6000906008811015610712576006148015612fa0575b156101b357478015612bda8115612f8981612abd565b60ff60145416612abd57612f9b612a20565b612abd565b50612fa9612867565b600881101561071257600714612f73565b612fc2612867565b9060009160088110156103ca576006148015613067575b156108dc574790612feb821515612abd565b60ff601454161561305a575b15613008578015612bda8115612abd565b8182601354905b81811061302e57505090612bc161302992600d5490612277565b612bce565b60ff600461303b83612164565b50015460081c1661304f575b60010161300f565b600190920191613047565b613062612a20565b612ff7565b50613070612867565b60088110156103ca57600714612fd9565b6000546001600160a01b0316330361309557565b63118cdaa760e01b6000523360045260246000fd5b600080546001600160a01b039283166001600160a01b03198216811783559216907f8be0079c531659141344cd1fd0a4f28419497f9722a3daafe3b4186f6b6457e09080a3565b6014549060ff60009281600e5460081c1691829116101561364a5750600d5480340361363457506001600160a01b0316808252601a602052604082205490929060ff166136265760018060a01b0360025416604051634c0252c360e11b8152846004820152604081602481855afa908115612eef57849085926135dc575b50156134e75750506040519061318482612023565b83825260208201908152604082018381526060830190848252608084019185835260a085019186835260c0860194878652601954600160401b8110156134d3578060016131d692016019556019612183565b9790976134bf575187546001600160a01b039091166001600160a01b03199091161787555160018701555160028601555160038501559051600484018054925191151560ff1661ffff199093169290921790151560081b61ff00161790556005905191015560ff60195416828252601a602052604082209060ff1982541617905560195460001981019081116134ab576105b16132729161212f565b601354600160401b8110156134975780600161329392016013556013612183565b91909161348357805182546001600160a01b039091166001600160a01b0319909116178255602081015160018301556040810151600283015560608101516003830155608081015160048301805460a084015192151560ff1661ffff199091161791151560081b61ff001691909117905560059060c0015191015560145460ff61331e81831661219f565b169060ff19161760145561333434600b546121b1565b600b5561334334600c546121b1565b600c5560ff60185460081c166008811015610712576001036133ea575b6002546001600160a01b0316803b156108dc5781809160246040518094819363c17f9e5960e01b83528860048401525af18015610377576133d5575b50507fbedd10d90b8962eb521114c7e2b49019403d371ffa1e46afbda7a3f1fde8f06f604060ff601454168151903482526020820152a2565b6133e082809261203f565b6101b3578061339c565b6002546001600160a01b0316803b156108dc5760405163d8d6e8ff60e01b81529081602481858094600160048401525af1801561037757908291613472575b5061108b575060185460ff8160081c16906008821015611e6457610100906001600093600080516020613a3f8339815191526020604051428152a361ff00191617601855613360565b9061347c9161203f565b8038613429565b634e487b7160e01b83526004839052602483fd5b634e487b7160e01b83526041600452602483fd5b634e487b7160e01b82526011600452602482fd5b634e487b7160e01b89526004899052602489fd5b634e487b7160e01b89526041600452602489fd5b84816003869310156103ca576020919060010361356d576024604051809581936377f855c960e11b835260048301525afa8015611c7b578190613538575b631b62787960e31b825260045260249150fd5b50906020813d602011613565575b816135536020938361203f565b810103126108dc579060249151613525565b3d9150613546565b602460405180958193631b8093b160e11b835260048301525afa8015611c7b5781906135a7575b63147ce66f60e31b825260045260249150fd5b50906020813d6020116135d4575b816135c26020938361203f565b810103126108dc579060249151613594565b3d91506135b5565b9150506040813d60401161361e575b816135f86040938361203f565b81010312610d8a57602061360b82612061565b910151906003821015610d86573861316f565b3d91506135eb565b621d934160e11b8252600482fd5b6354d7a6b360e01b835260045234602452604482fd5b63647bcfa160e01b8352600452602482fd5b613664612867565b6008811015611e64576007036139f95760ff60145416156139bd5760019060005b60195481101561384d576136988161212f565b506004810160ff815416156136b2575b5050600101613685565b600080808060018060a01b03865416600d54905af16136cf6122aa565b50156137cc57805461ffff1916600117905542600582015560046136f283612164565b5001805460ff19166001179055600461370a83612164565b5001805461ff001916905561371e82612164565b5060054291015560018060a01b0390541690817f48d31f1c958cd44f1f83a52ae2dfaf61e88a1b82c07a6d5711a4abef60b6531e6020600d54604051908152a2600254600f5460105493916001600160a01b0316803b15611e5257600092836064926040519788958694634c682e1f60e11b86526004860152602485015260448401525af1918215612a14576001926137bb575b505b90386136a8565b60006137c69161203f565b386137b2565b805461ff00191661010017905542600582015590925060046137ed84612164565b5001805461ff00191661010017905561380583612164565b5060054291015560018060a01b039054167faf73b0b217208b61be286bbc37095bce7eb8b9ccf617244c2f0f154e8e04e3ff6020600d54604051908152a260016000926137b4565b509060016000601954905b81811061397b575b505060ff801960165416911515161760165561387a612a20565b4761396c575b506019546000805b82811061393a575061389981612357565b916000805b8281106138ef575050507fbb93c7c839bddd97272c8e974d54d30adfa3aa55df63a52f02b7192efd361a246138e4600d5493604051918291604083526040830190611f47565b4260208301520390a3565b8060ff60046138ff60019461212f565b5001541661390e575b0161389e565b6139178161212f565b50828060a01b0390541661393461392d85612348565b9488612389565b52613908565b60ff60046139478361212f565b50015416613958575b600101613888565b90613964600191612348565b919050613950565b61397590612fba565b38613880565b60ff60046139888361212f565b50015416156139b15760ff600461399e8361212f565b50015460081c166139b157600101613858565b50505060003880613860565b60405162461bcd60e51b8152602060048201526014602482015273139bc81c1b185e595c9cc81d1bc81c99599d5b9960621b6044820152606490fd5b60405162461bcd60e51b815260206004820152601c60248201527f4d697373696f6e206e6f7420696e204661696c656420737461747573000000006044820152606490fdfe39ba628632d48c45c7f562c07db20a44cf68423691d5d79b20f87ba84138aedff3f7a9fe364faab93b216da50a3214154f22a0a2b415b23a84c8169e8b636ee3a2646970667358221220742671e48044cddcef6ddd28f02bb6011ab9ce2860f6841d70e36e76720e056364736f6c634300081e0033",
  "linkReferences": {},
  "deployedLinkReferences": {}
}