{
  "_format": "hh-sol-artifact-1",
  "contractName": "Mission",
  "sourceName": "contracts/MissionFactory.sol",
  "abi": [
    {
      "inputs": [],
      "stateMutability": "nonpayable",
      "type": "constructor"
    },
    {
      "inputs": [],
      "name": "AllRoundsDone",
      "type": "error"
    },
    {
      "inputs": [],
      "name": "AlreadyJoined",
      "type": "error"
    },
    {
      "inputs": [],
      "name": "AlreadyWon",
      "type": "error"
    },
    {
      "inputs": [
        {
          "internalType": "uint256",
          "name": "secondsLeft",
          "type": "uint256"
        }
      ],
      "name": "Cooldown",
      "type": "error"
    },
    {
      "inputs": [
        {
          "internalType": "uint256",
          "name": "nowTs",
          "type": "uint256"
        },
        {
          "internalType": "uint256",
          "name": "endTs",
          "type": "uint256"
        }
      ],
      "name": "EnrollmentClosed",
      "type": "error"
    },
    {
      "inputs": [
        {
          "internalType": "uint256",
          "name": "nowTs",
          "type": "uint256"
        },
        {
          "internalType": "uint256",
          "name": "startTs",
          "type": "uint256"
        }
      ],
      "name": "EnrollmentNotStarted",
      "type": "error"
    },
    {
      "inputs": [
        {
          "internalType": "uint8",
          "name": "maxPlayers",
          "type": "uint8"
        }
      ],
      "name": "MaxPlayers",
      "type": "error"
    },
    {
      "inputs": [
        {
          "internalType": "uint256",
          "name": "secondsLeft",
          "type": "uint256"
        }
      ],
      "name": "MonthlyLimit",
      "type": "error"
    },
    {
      "inputs": [
        {
          "internalType": "uint256",
          "name": "nowTs",
          "type": "uint256"
        },
        {
          "internalType": "uint256",
          "name": "missionStart",
          "type": "uint256"
        }
      ],
      "name": "NotActive",
      "type": "error"
    },
    {
      "inputs": [],
      "name": "NotJoined",
      "type": "error"
    },
    {
      "inputs": [
        {
          "internalType": "address",
          "name": "owner",
          "type": "address"
        }
      ],
      "name": "OwnableInvalidOwner",
      "type": "error"
    },
    {
      "inputs": [
        {
          "internalType": "address",
          "name": "account",
          "type": "address"
        }
      ],
      "name": "OwnableUnauthorizedAccount",
      "type": "error"
    },
    {
      "inputs": [
        {
          "internalType": "address",
          "name": "winner",
          "type": "address"
        },
        {
          "internalType": "uint256",
          "name": "amount",
          "type": "uint256"
        },
        {
          "internalType": "bytes",
          "name": "data",
          "type": "bytes"
        }
      ],
      "name": "PayoutFailed",
      "type": "error"
    },
    {
      "inputs": [],
      "name": "ReentrancyGuardReentrantCall",
      "type": "error"
    },
    {
      "inputs": [
        {
          "internalType": "uint256",
          "name": "secondsLeft",
          "type": "uint256"
        }
      ],
      "name": "WeeklyLimit",
      "type": "error"
    },
    {
      "inputs": [
        {
          "internalType": "uint256",
          "name": "expected",
          "type": "uint256"
        },
        {
          "internalType": "uint256",
          "name": "sent",
          "type": "uint256"
        }
      ],
      "name": "WrongEntryFee",
      "type": "error"
    },
    {
      "anonymous": false,
      "inputs": [
        {
          "indexed": false,
          "internalType": "uint256",
          "name": "ownerAmount",
          "type": "uint256"
        },
        {
          "indexed": false,
          "internalType": "uint256",
          "name": "factoryAmount",
          "type": "uint256"
        }
      ],
      "name": "FundsWithdrawn",
      "type": "event"
    },
    {
      "anonymous": false,
      "inputs": [
        {
          "indexed": true,
          "internalType": "address",
          "name": "owner",
          "type": "address"
        },
        {
          "indexed": true,
          "internalType": "enum MissionType",
          "name": "missionType",
          "type": "uint8"
        },
        {
          "indexed": false,
          "internalType": "uint256",
          "name": "timestamp",
          "type": "uint256"
        }
      ],
      "name": "MissionInitialized",
      "type": "event"
    },
    {
      "anonymous": false,
      "inputs": [
        {
          "indexed": true,
          "internalType": "enum Status",
          "name": "previousStatus",
          "type": "uint8"
        },
        {
          "indexed": true,
          "internalType": "enum Status",
          "name": "newStatus",
          "type": "uint8"
        },
        {
          "indexed": false,
          "internalType": "uint256",
          "name": "timestamp",
          "type": "uint256"
        }
      ],
      "name": "MissionStatusChanged",
      "type": "event"
    },
    {
      "anonymous": false,
      "inputs": [
        {
          "indexed": true,
          "internalType": "address",
          "name": "previousOwner",
          "type": "address"
        },
        {
          "indexed": true,
          "internalType": "address",
          "name": "newOwner",
          "type": "address"
        }
      ],
      "name": "OwnershipTransferred",
      "type": "event"
    },
    {
      "anonymous": false,
      "inputs": [
        {
          "indexed": true,
          "internalType": "address",
          "name": "player",
          "type": "address"
        },
        {
          "indexed": false,
          "internalType": "uint256",
          "name": "amount",
          "type": "uint256"
        },
        {
          "indexed": false,
          "internalType": "uint256",
          "name": "totalPlayers",
          "type": "uint256"
        }
      ],
      "name": "PlayerEnrolled",
      "type": "event"
    },
    {
      "anonymous": false,
      "inputs": [
        {
          "indexed": true,
          "internalType": "address",
          "name": "player",
          "type": "address"
        },
        {
          "indexed": false,
          "internalType": "uint256",
          "name": "amount",
          "type": "uint256"
        }
      ],
      "name": "PlayerRefunded",
      "type": "event"
    },
    {
      "anonymous": false,
      "inputs": [
        {
          "indexed": false,
          "internalType": "uint256",
          "name": "value",
          "type": "uint256"
        },
        {
          "indexed": false,
          "internalType": "uint256",
          "name": "ethCurrent",
          "type": "uint256"
        }
      ],
      "name": "PotIncreased",
      "type": "event"
    },
    {
      "anonymous": false,
      "inputs": [
        {
          "indexed": true,
          "internalType": "address",
          "name": "player",
          "type": "address"
        },
        {
          "indexed": false,
          "internalType": "uint256",
          "name": "amount",
          "type": "uint256"
        }
      ],
      "name": "RefundFailed",
      "type": "event"
    },
    {
      "anonymous": false,
      "inputs": [
        {
          "indexed": true,
          "internalType": "address",
          "name": "player",
          "type": "address"
        },
        {
          "indexed": true,
          "internalType": "uint8",
          "name": "roundNumber",
          "type": "uint8"
        },
        {
          "indexed": false,
          "internalType": "uint256",
          "name": "payout",
          "type": "uint256"
        },
        {
          "indexed": false,
          "internalType": "uint256",
          "name": "ethRemaining",
          "type": "uint256"
        }
      ],
      "name": "RoundCalled",
      "type": "event"
    },
    {
      "stateMutability": "payable",
      "type": "fallback"
    },
    {
      "inputs": [],
      "name": "callRound",
      "outputs": [],
      "stateMutability": "nonpayable",
      "type": "function"
    },
    {
      "inputs": [],
      "name": "checkMissionStartCondition",
      "outputs": [],
      "stateMutability": "nonpayable",
      "type": "function"
    },
    {
      "inputs": [],
      "name": "currentProgressPct",
      "outputs": [
        {
          "internalType": "uint256",
          "name": "",
          "type": "uint256"
        }
      ],
      "stateMutability": "view",
      "type": "function"
    },
    {
      "inputs": [],
      "name": "enrollPlayer",
      "outputs": [],
      "stateMutability": "payable",
      "type": "function"
    },
    {
      "inputs": [
        {
          "internalType": "address",
          "name": "",
          "type": "address"
        }
      ],
      "name": "enrolled",
      "outputs": [
        {
          "internalType": "bool",
          "name": "",
          "type": "bool"
        }
      ],
      "stateMutability": "view",
      "type": "function"
    },
    {
      "inputs": [
        {
          "internalType": "address",
          "name": "",
          "type": "address"
        }
      ],
      "name": "failedRefundAmounts",
      "outputs": [
        {
          "internalType": "uint256",
          "name": "",
          "type": "uint256"
        }
      ],
      "stateMutability": "view",
      "type": "function"
    },
    {
      "inputs": [],
      "name": "forceFinalizeMission",
      "outputs": [],
      "stateMutability": "nonpayable",
      "type": "function"
    },
    {
      "inputs": [],
      "name": "getFailedRefundPlayers",
      "outputs": [
        {
          "internalType": "address[]",
          "name": "",
          "type": "address[]"
        }
      ],
      "stateMutability": "view",
      "type": "function"
    },
    {
      "inputs": [],
      "name": "getMissionData",
      "outputs": [
        {
          "components": [
            {
              "internalType": "address[]",
              "name": "players",
              "type": "address[]"
            },
            {
              "internalType": "enum MissionType",
              "name": "missionType",
              "type": "uint8"
            },
            {
              "internalType": "uint256",
              "name": "enrollmentStart",
              "type": "uint256"
            },
            {
              "internalType": "uint256",
              "name": "enrollmentEnd",
              "type": "uint256"
            },
            {
              "internalType": "uint256",
              "name": "enrollmentAmount",
              "type": "uint256"
            },
            {
              "internalType": "uint8",
              "name": "enrollmentMinPlayers",
              "type": "uint8"
            },
            {
              "internalType": "uint8",
              "name": "enrollmentMaxPlayers",
              "type": "uint8"
            },
            {
              "internalType": "uint256",
              "name": "missionStart",
              "type": "uint256"
            },
            {
              "internalType": "uint256",
              "name": "missionEnd",
              "type": "uint256"
            },
            {
              "internalType": "uint8",
              "name": "missionRounds",
              "type": "uint8"
            },
            {
              "internalType": "uint8",
              "name": "roundCount",
              "type": "uint8"
            },
            {
              "internalType": "uint256",
              "name": "ethStart",
              "type": "uint256"
            },
            {
              "internalType": "uint256",
              "name": "ethCurrent",
              "type": "uint256"
            },
            {
              "components": [
                {
                  "internalType": "address",
                  "name": "player",
                  "type": "address"
                },
                {
                  "internalType": "uint256",
                  "name": "amountWon",
                  "type": "uint256"
                }
              ],
              "internalType": "struct Mission.PlayersWon[]",
              "name": "playersWon",
              "type": "tuple[]"
            },
            {
              "internalType": "uint256",
              "name": "pauseTimestamp",
              "type": "uint256"
            },
            {
              "internalType": "address[]",
              "name": "refundedPlayers",
              "type": "address[]"
            }
          ],
          "internalType": "struct Mission.MissionData",
          "name": "",
          "type": "tuple"
        }
      ],
      "stateMutability": "view",
      "type": "function"
    },
    {
      "inputs": [],
      "name": "getRealtimeStatus",
      "outputs": [
        {
          "internalType": "enum Status",
          "name": "",
          "type": "uint8"
        }
      ],
      "stateMutability": "view",
      "type": "function"
    },
    {
      "inputs": [
        {
          "internalType": "address",
          "name": "",
          "type": "address"
        }
      ],
      "name": "hasWon",
      "outputs": [
        {
          "internalType": "bool",
          "name": "",
          "type": "bool"
        }
      ],
      "stateMutability": "view",
      "type": "function"
    },
    {
      "inputs": [],
      "name": "increasePot",
      "outputs": [],
      "stateMutability": "payable",
      "type": "function"
    },
    {
      "inputs": [
        {
          "internalType": "address",
          "name": "_owner",
          "type": "address"
        },
        {
          "internalType": "address",
          "name": "_missionFactory",
          "type": "address"
        },
        {
          "internalType": "enum MissionType",
          "name": "_missionType",
          "type": "uint8"
        },
        {
          "internalType": "uint256",
          "name": "_enrollmentStart",
          "type": "uint256"
        },
        {
          "internalType": "uint256",
          "name": "_enrollmentEnd",
          "type": "uint256"
        },
        {
          "internalType": "uint256",
          "name": "_enrollmentAmount",
          "type": "uint256"
        },
        {
          "internalType": "uint8",
          "name": "_enrollmentMinPlayers",
          "type": "uint8"
        },
        {
          "internalType": "uint8",
          "name": "_enrollmentMaxPlayers",
          "type": "uint8"
        },
        {
          "internalType": "uint256",
          "name": "_missionStart",
          "type": "uint256"
        },
        {
          "internalType": "uint256",
          "name": "_missionEnd",
          "type": "uint256"
        },
        {
          "internalType": "uint8",
          "name": "_missionRounds",
          "type": "uint8"
        }
      ],
      "name": "initialize",
      "outputs": [],
      "stateMutability": "payable",
      "type": "function"
    },
    {
      "inputs": [],
      "name": "missionData",
      "outputs": [
        {
          "internalType": "enum MissionType",
          "name": "missionType",
          "type": "uint8"
        },
        {
          "internalType": "uint256",
          "name": "enrollmentStart",
          "type": "uint256"
        },
        {
          "internalType": "uint256",
          "name": "enrollmentEnd",
          "type": "uint256"
        },
        {
          "internalType": "uint256",
          "name": "enrollmentAmount",
          "type": "uint256"
        },
        {
          "internalType": "uint8",
          "name": "enrollmentMinPlayers",
          "type": "uint8"
        },
        {
          "internalType": "uint8",
          "name": "enrollmentMaxPlayers",
          "type": "uint8"
        },
        {
          "internalType": "uint256",
          "name": "missionStart",
          "type": "uint256"
        },
        {
          "internalType": "uint256",
          "name": "missionEnd",
          "type": "uint256"
        },
        {
          "internalType": "uint8",
          "name": "missionRounds",
          "type": "uint8"
        },
        {
          "internalType": "uint8",
          "name": "roundCount",
          "type": "uint8"
        },
        {
          "internalType": "uint256",
          "name": "ethStart",
          "type": "uint256"
        },
        {
          "internalType": "uint256",
          "name": "ethCurrent",
          "type": "uint256"
        },
        {
          "internalType": "uint256",
          "name": "pauseTimestamp",
          "type": "uint256"
        }
      ],
      "stateMutability": "view",
      "type": "function"
    },
    {
      "inputs": [],
      "name": "missionFactory",
      "outputs": [
        {
          "internalType": "contract MissionFactory",
          "name": "",
          "type": "address"
        }
      ],
      "stateMutability": "view",
      "type": "function"
    },
    {
      "inputs": [],
      "name": "owner",
      "outputs": [
        {
          "internalType": "address",
          "name": "",
          "type": "address"
        }
      ],
      "stateMutability": "view",
      "type": "function"
    },
    {
      "inputs": [
        {
          "internalType": "address",
          "name": "player",
          "type": "address"
        }
      ],
      "name": "pendingPayout",
      "outputs": [
        {
          "internalType": "uint256",
          "name": "",
          "type": "uint256"
        }
      ],
      "stateMutability": "view",
      "type": "function"
    },
    {
      "inputs": [
        {
          "internalType": "address",
          "name": "player",
          "type": "address"
        }
      ],
      "name": "playerState",
      "outputs": [
        {
          "internalType": "bool",
          "name": "joined",
          "type": "bool"
        },
        {
          "internalType": "bool",
          "name": "won",
          "type": "bool"
        }
      ],
      "stateMutability": "view",
      "type": "function"
    },
    {
      "inputs": [],
      "name": "refundPlayers",
      "outputs": [],
      "stateMutability": "nonpayable",
      "type": "function"
    },
    {
      "inputs": [
        {
          "internalType": "address",
          "name": "",
          "type": "address"
        }
      ],
      "name": "refunded",
      "outputs": [
        {
          "internalType": "bool",
          "name": "",
          "type": "bool"
        }
      ],
      "stateMutability": "view",
      "type": "function"
    },
    {
      "inputs": [],
      "name": "remainingRounds",
      "outputs": [
        {
          "internalType": "uint8",
          "name": "",
          "type": "uint8"
        }
      ],
      "stateMutability": "view",
      "type": "function"
    },
    {
      "inputs": [],
      "name": "renounceOwnership",
      "outputs": [],
      "stateMutability": "nonpayable",
      "type": "function"
    },
    {
      "inputs": [],
      "name": "secondsUntilNextRound",
      "outputs": [
        {
          "internalType": "uint256",
          "name": "",
          "type": "uint256"
        }
      ],
      "stateMutability": "view",
      "type": "function"
    },
    {
      "inputs": [
        {
          "internalType": "address",
          "name": "newOwner",
          "type": "address"
        }
      ],
      "name": "transferOwnership",
      "outputs": [],
      "stateMutability": "nonpayable",
      "type": "function"
    },
    {
      "inputs": [],
      "name": "withdrawFunds",
      "outputs": [],
      "stateMutability": "nonpayable",
      "type": "function"
    },
    {
      "stateMutability": "payable",
      "type": "receive"
    }
  ],
  "bytecode": "0x60808060405234607957331560635760008054336001600160a01b0319821681178355916001600160a01b03909116907f8be0079c531659141344cd1fd0a4f28419497f9722a3daafe3b4186f6b6457e09080a360018055612b41908161007f8239f35b631e4fbdf760e01b600052600060045260246000fd5b600080fdfe6080806040526004361015610011575b005b600090813560e01c90816310eb0e0e14611dd5575080631212484814611ca457806324600fc31461194e5780635407441f1461193357806368c6ba211461190b578063715018a6146118b15780637475a4cb146114e45780637ce17de4146111625780637cf61b6914610f935780638da5cb5b14610f6c578063987c543a14610ae857806398bdae4314610a2e578063a52b2b88146109ef578063a7e22a3e146109c9578063ad1ca6bf14610857578063b2a4a5d21461081e578063b9713b7714610780578063c033a49014610741578063c54168b31461039b578063e6810a5014610377578063eb2bab771461021f578063f2fde38b146101ce578063fa4cf5a1146101a5578063fb84e12f146101825763fcca0c840361000f573461017f57602036600319011261017f5760409060ff826001600160a01b03610154611e11565b1692838152600360205282828220541693815260046020522054168251911515825215156020820152f35b80fd5b503461017f578060031936011261017f57602061019d61224c565b604051908152f35b503461017f578060031936011261017f576002546040516001600160a01b039091168152602090f35b503461017f57602036600319011261017f576101e8611e11565b6101f06127a8565b6001600160a01b0381161561020b57610208906127d1565b80f35b631e4fbdf760e01b82526004829052602482fd5b508060031936011261017f573415610342576002546001600160a01b031633036103055761024b6122b5565b60088110156102f1576002106102ac5761026734600f54611f76565b600f557f7272b264c9ef2a1e8e9303944736f4977b14a5761227b7b9869fecaa60f89387604061029934601054611f76565b806010558151903482526020820152a180f35b60405162461bcd60e51b815260206004820152601c60248201527f4d697373696f6e207061737365642061726d696e6720737461747573000000006044820152606490fd5b634e487b7160e01b82526021600452602482fd5b60405162461bcd60e51b815260206004820152601560248201527413db9b1e48199858dd1bdc9e4818d85b88199d5b99605a1b6044820152606490fd5b60405162461bcd60e51b815260206004820152600d60248201526c139bc8199d5b991cc81cd95b9d609a1b6044820152606490fd5b503461017f57602036600319011261017f57602061019d610396611e11565b61213e565b5061016036600319011261017f576103b1611e11565b6024356001600160a01b038116919082900361073d576044359160078310156107395760c43560ff81168091036107355760e4359060ff8216820361073157610144359260ff841680940361072d57610408612293565b60155460ff81166106f25760ff1916600117601555610426856127d1565b6bffffffffffffffffffffffff60a01b600254161760025560ff196007541660ff86161760075560643560085560843560095560a435600a5561ff00600b549260081b169161ffff19161717600b5561010435600c5561012435600d5561ffff19600e541617600e5534600f55346010558260125560206040516104aa8282611ed3565b848152600036813780519067ffffffffffffffff821161064257600160401b821161064257829060065483600655808410610691575b500160068652855b828110610656575050506040516104ff8282611ed3565b8481528490600160401b8211610642578290601154836011558084106105be575b500160118652600080516020612acc83398151915286915b8383106105815750506040514281526001600160a01b03909416937fe9597995b7a2af444cc28b2b776b88b1253d701282a9bcf902d4f59750df7c579392509050a36001805580f35b8051805183546001600160a01b0319166001600160a01b039190911617835560200151600183810191909155906002908601920192019190610538565b9091506001600160ff1b038116810361062e576001600160ff1b038316830361062e5790839160011b600080516020612acc833981519152018360011b600080516020612acc833981519152015b8181106106195750610520565b8881556001810189905585935060020161060c565b634e487b7160e01b87526011600452602487fd5b634e487b7160e01b86526041600452602486fd5b81516001600160a01b03167ff652222313e28459528d920b65115c16c04f3efc82aaedc97be59f3f377c0d3f820155908301906001016104e8565b7ff652222313e28459528d920b65115c16c04f3efc82aaedc97be59f3f377c0d3f01837ff652222313e28459528d920b65115c16c04f3efc82aaedc97be59f3f377c0d3f015b8181106106e457506104e0565b8881558593506001016106d7565b60405162461bcd60e51b8152602060048201526013602482015272105b1c9958591e481a5b9a5d1a585b1a5e9959606a1b6044820152606490fd5b8680fd5b8580fd5b8480fd5b8380fd5b8280fd5b503461017f57602036600319011261017f5760209060ff906040906001600160a01b0361076c611e11565b168152600584522054166040519015158152f35b503461017f578060031936011261017f576101a060ff60075416600854600954600a5460ff600b54600c54600d549083600e5493600f5496601054986012549a6107cd604051809e611e77565b60208d015260408c015260608b015281811660808b015260081c1660a089015260c088015260e087015281811661010087015260081c16610120850152610140840152610160830152610180820152f35b503461017f57602036600319011261017f576020906040906001600160a01b03610846611e11565b168152601483522054604051908152f35b503461017f578060031936011261017f57610870612293565b80546001600160a01b03163314801561093e575b61088d90611f02565b600954421180610933575b156108c85760065460ff600b5416116108b3575b6001805580f35b6108bb612465565b6108c3612818565b6108ac565b60405162461bcd60e51b815260206004820152603860248201527f4d697373696f6e206e6f7420696e2061726d696e672077696e646f772e20436160448201527f6c6c20726566756e64506c617965727320696e737465616400000000000000006064820152608490fd5b50600c544210610898565b5060025460405163b918161160e01b815233600482015290602090829060249082906001600160a01b03165afa80156109be57829061097f575b9050610884565b506020813d6020116109b6575b8161099960209383611ed3565b810103126109b2576109ad61088d91611ef5565b610978565b5080fd5b3d915061098c565b6040513d84823e3d90fd5b503461017f578060031936011261017f5760206109e46120f3565b60ff60405191168152f35b503461017f57602036600319011261017f5760209060ff906040906001600160a01b03610a1a611e11565b168152600484522054166040519015158152f35b503461017f578060031936011261017f57610a47612293565b80546001600160a01b031633148015610a6c575b610a6490611f02565b6108ac612818565b5060025460405163b918161160e01b815233600482015290602090829060249082906001600160a01b03165afa80156109be578290610aad575b9050610a5b565b506020813d602011610ae0575b81610ac760209383611ed3565b810103126109b257610adb610a6491611ef5565b610aa6565b3d9150610aba565b508060031936011261017f57610afc612293565b600854804210610f565750600954804211610f40575060065460ff600b5460081c1680911015610f2e5750600a54803403610f185750338152600360205260ff604082205416610f0a5760025460408051634c0252c360e11b81523360048201526001600160a01b0390921692919081602481865afa9081156109be5782908392610ec0575b5015610db85750600654600160401b811015610da457806001610baa920160065560066120cc565b81549060031b9033821b9160018060a01b03901b1916179055338152600360205260408120600160ff19825416179055610be634600f54611f76565b600f55610bf534601054611f76565b60105580600181610d97575b8015610d8a575b8015610d7d575b610d1a575b610d065760155460ff8160081c16906008821015610cf057610100906001600093600080516020612aec8339815191526020604051428152a361ff0019161760155560025481906001600160a01b0316803b15610ced5781809160246040518095819363c17f9e5960e01b83523360048401525af18015610ce057610cd0575b6006546040519034825260208201527fbedd10d90b8962eb521114c7e2b49019403d371ffa1e46afbda7a3f1fde8f06f60403392a26001805580f35b610cd991611ed3565b8181610c94565b50604051903d90823e3d90fd5b50fd5b634e487b7160e01b600052602160045260246000fd5b634e487b7160e01b81526021600452602490fd5b506002546001600160a01b0316803b156109b25760405163d8d6e8ff60e01b815260016004820152829182908290602490829084905af19081156109be578291610d66575b5050610c14565b81610d7091611ed3565b610d7b578083610d5f565bfd5b50610d0657806000610c0f565b50610d0657806000610c08565b50610d0657806000610c01565b634e487b7160e01b82526041600452602482fd5b6024926003821015610ead57602091600103610e40576040516377f855c960e11b815233600482015293849182905afa8015610ce0578190610e08575b631b62787960e31b825260045260249150fd5b506020823d602011610e38575b81610e2260209383611ed3565b81010312610e335760249151610df5565b600080fd5b3d9150610e15565b604051631b8093b160e11b815233600482015293849182905afa8015610ce0578190610e7a575b63147ce66f60e31b825260045260249150fd5b506020823d602011610ea5575b81610e9460209383611ed3565b81010312610e335760249151610e67565b3d9150610e87565b5050634e487b7160e01b81526021600452fd5b9150506040813d604011610f02575b81610edc60409383611ed3565b810103126109b2576020610eef82611ef5565b91015190600382101561073d5738610b82565b3d9150610ecf565b621d934160e11b8152600490fd5b6354d7a6b360e01b825260045234602452604490fd5b63647bcfa160e01b8252600452602490fd5b63166450c960e31b825242600452602452604490fd5b634cd01efb60e11b825242600452602452604490fd5b503461017f578060031936011261017f57546040516001600160a01b039091168152602090f35b503461017f578060031936011261017f57610fac6122b5565b60088110156102f15760070361111d5760065481805b8281106110d55750610fec610fd682612099565b91610fe46040519384611ed3565b808352612099565b602082019290601f190136843783845b8281106110515750505090604051928392602084019060208552518091526040840192915b81811061102f575050500390f35b82516001600160a01b0316845285945060209384019390920191600101611021565b61105a816120b1565b905460039190911b1c6001600160a01b0316865260146020526040862054611085575b600101610ffc565b61108e816120b1565b905460039190911b1c6001600160a01b03166110a9836120e4565b9285518110156110c15760051b85016020015261107d565b634e487b7160e01b88526032600452602488fd5b6110de816120b1565b905460039190911b1c6001600160a01b0316845260146020526040842054611109575b600101610fc2565b906111156001916120e4565b919050611101565b60405162461bcd60e51b815260206004820152601f60248201527f4d697373696f6e206973206e6f7420696e204661696c656420737461747573006044820152606490fd5b503461017f578060031936011261017f5760606101e060405161118481611eb6565b82815283602082015283604082015283838201528360808201528360a08201528360c08201528360e08201528361010082015283610120820152836101408201528361016082015283610180820152826101a0820152836101c082015201526040516111ef81611eb6565b6040516006548082528160208101600686526020862092865b8181106114c257505061121d92500382611ed3565b815260ff6007541660078110156114ae57602082015260085460408201526009546060820152600a54608082015260ff600b5481811660a084015260081c1660c0820152600c5460e0820152600d5461010082015260ff600e5481811661012084015260081c16610140820152600f546101608201526010546101808201526011546112a881612099565b906112b66040519283611ed3565b8082526011845283600080516020612acc833981519152602084015b83831061147a57505050506101a08201526012546101c08201526040516013548082528160208101601386526020862092865b81811061145857505061131a92500382611ed3565b6101e0820152604051906020825261134081516102006020850152610220840190611e3a565b9261135360208301516040850190611e77565b6040820151606084015260608201516080840152608082015160a084015260ff60a08301511660c084015260ff60c08301511660e084015260e082015161010084015261010082015161012084015260ff6101208301511661014084015260ff610140830151166101608401526101608201516101808401526101808201516101a08401526101a082015193601f19848203016101c0850152602080865192838152019501915b81811061142d578480611429886101e0886101c0810151828601520151601f1984830301610200850152611e3a565b0390f35b825180516001600160a01b0316875260209081015181880152604090960195909201916001016113fa565b84546001600160a01b0316835260019485019486945060209093019201611305565b6002602060019260405161148d81611e84565b848060a01b03865416815284860154838201528152019201920191906112d2565b634e487b7160e01b83526021600452602483fd5b84546001600160a01b0316835260019485019486945060209093019201611208565b503461017f578060031936011261017f576114fd612293565b6115056122b5565b60088110156102f15760048114611855576002190161183c57338152600460205260ff60408220541661182d57338152600360205260ff6040822054161561181e57600e5460ff8160081c169060ff811682101561180f57600c5461156a8142611f83565b906064820291808304606414901517156117f3579061158e61159492600d54611f83565b90612004565b60115480156118075760001981019081116117f3576115b4600191612024565b500154905b6064820291808304606414901517156117f3576064916115e96115ee926115e3600f548094612004565b90611f83565b611ff1565b04916115fc83601054611f83565b60105560ff81146117df57600161ff00910160081b169061ff00191617600e55338252600460205260408220600160ff1982541617905560405161163f81611e84565b338152816020820152601154600160401b8110156117cb578060016116679201601155612024565b6117b757815181546001600160a01b0319166001600160a01b03919091161781556020909101516001909101558180808084335af16116a4612059565b9015611750575060ff600e54818160081c16809360105460405191825260208201527fbbdd894f5e6d754c18172761a1a461095c26de58905e706a8c33657573d4067260403392a31603611702576116fa6123b8565b6108ac612549565b80610d06575060004260125560155460ff8160081c169060088210156114ae5782600461040093600080516020612aec8339815191526020604051428152a35061ff001916176015556108ac565b9060405192839163d086db4360e01b8352336004840152602483015260606044830152825192836064840152815b84811061179f57505091608492838284010152601f80199101168101030190fd5b6020828201810151608488840101528694500161177e565b634e487b7160e01b84526004849052602484fd5b634e487b7160e01b84526041600452602484fd5b634e487b7160e01b84526011600452602484fd5b634e487b7160e01b85526011600452602485fd5b5083906115b9565b6321b94f7b60e21b8352600483fd5b63c394a43360e01b8152600490fd5b6302ab8f8960e11b8152600490fd5b600c546316f5e3b760e21b825242600452602452604490fd5b602482600e5460ff8061186c818460081c16611f4e565b92169116146000146118a657611894603c5b61188f61ffff429216601254611f76565b611f83565b600162269d7960e21b03198252600452fd5b61189461012c61187e565b503461017f578060031936011261017f576118ca6127a8565b80546001600160a01b03198116825581906001600160a01b03167f8be0079c531659141344cd1fd0a4f28419497f9722a3daafe3b4186f6b6457e08280a380f35b503461017f578060031936011261017f576114296119276122b5565b60405191829182611e27565b503461017f578060031936011261017f57602061019d611f90565b503461017f578060031936011261017f57611967612293565b80546001600160a01b031633148015611c28575b61198490611f02565b61198c6122b5565b60088110156102f1576006148015611c0e575b1561017f574780156119c281156119b581612506565b60065415611c0157612506565b60198202908282046019141715611bed5760646119e191048092611f83565b600254604051638da5cb5b60e01b81528491602090829060049082906001600160a01b03165afa9081156109be57829185918391611ba5575b50829182916001600160a01b03165af1611a32612059565b5015611b6857828080808460018060a01b03600254165af1611a52612059565b5015611b235760018060a01b03600254168360ff60075416823b156109b2576044611a9a918360405195869485936304e1e9d160e51b85528960048601526024850190611e77565b5af18015611b1857611adf575b507fd66662c0ded9e58fd31d5e44944bcfd07ffc15e6927ecc1382e7941cb7bd24c49160409182519182526020820152a16001805580f35b9183611b0f604093957fd66662c0ded9e58fd31d5e44944bcfd07ffc15e6927ecc1382e7941cb7bd24c495611ed3565b93915091611aa7565b6040513d86823e3d90fd5b60405162461bcd60e51b815260206004820152601760248201527f466163746f7279207472616e73666572206661696c65640000000000000000006044820152606490fd5b60405162461bcd60e51b815260206004820152601560248201527413dddb995c881d1c985b9cd9995c8819985a5b1959605a1b6044820152606490fd5b925050506020813d602011611be5575b81611bc260209383611ed3565b810103126109b257516001600160a01b03811681036109b2578190849082611a1a565b3d9150611bb5565b634e487b7160e01b83526011600452602483fd5b611c09612465565b612506565b50611c176122b5565b60088110156102f15760071461199f565b5060025460405163b918161160e01b815233600482015290602090829060249082906001600160a01b03165afa80156109be578290611c69575b905061197b565b506020813d602011611c9c575b81611c8360209383611ed3565b810103126109b257611c9761198491611ef5565b611c62565b3d9150611c76565b503461017f578060031936011261017f5780546001600160a01b031633148015611d59575b611cd290611f02565b611cda612293565b611ce26122b5565b60088110156102f1576005148015611d3f575b15611d02576116fa6123b8565b60405162461bcd60e51b8152602060048201526015602482015274135a5cdcda5bdb881b9bdd08195b991959081e595d605a1b6044820152606490fd5b50611d486122b5565b60088110156102f157600614611cf5565b5060025460405163b918161160e01b815233600482015290602090829060249082906001600160a01b03165afa80156109be578290611d9a575b9050611cc9565b506020813d602011611dcd575b81611db460209383611ed3565b810103126109b257611dc8611cd291611ef5565b611d93565b3d9150611da7565b9050346109b25760203660031901126109b25760209160ff906040906001600160a01b03611e01611e11565b1681526003855220541615158152f35b600435906001600160a01b0382168203610e3357565b919060208301926008821015610cf05752565b906020808351928381520192019060005b818110611e585750505090565b82516001600160a01b0316845260209384019390920191600101611e4b565b906007821015610cf05752565b6040810190811067ffffffffffffffff821117611ea057604052565b634e487b7160e01b600052604160045260246000fd5b610200810190811067ffffffffffffffff821117611ea057604052565b90601f8019910116810190811067ffffffffffffffff821117611ea057604052565b51908115158203610e3357565b15611f0957565b60405162461bcd60e51b815260206004820152601760248201527f4e6f74206f776e6572206f7220617574686f72697a65640000000000000000006044820152606490fd5b60ff60019116019060ff8211611f6057565b634e487b7160e01b600052601160045260246000fd5b91908201809211611f6057565b91908203918211611f6057565b611f986122b5565b6008811015610cf057600403611fec57600e5460ff80611fbc818460081c16611f4e565b9216911614600014611fe157611fde603c61188f61ffff429216601254611f76565b90565b611fde61012c61187e565b600090565b81810292918115918404141715611f6057565b811561200e570490565b634e487b7160e01b600052601260045260246000fd5b60115481101561204357601160005260206000209060011b0190600090565b634e487b7160e01b600052603260045260246000fd5b3d15612094573d9067ffffffffffffffff8211611ea05760405191612088601f8201601f191660200184611ed3565b82523d6000602084013e565b606090565b67ffffffffffffffff8111611ea05760051b60200190565b60065481101561204357600660005260206000200190600090565b80548210156120435760005260206000200190600090565b6000198114611f605760010190565b6120fb6122b5565b6008811015610cf05760038114908115612133575b5061211a57600090565b600e5460ff808260081c1691160360ff8111611f605790565b600491501438612110565b6121466122b5565b6008811015610cf05760038114159081612240575b5061223a576001600160a01b031660008181526003602052604090205460ff161561223a57600052600460205260ff60406000205416611fec57600c5480421061223a57600d5480421015612233576121b48242611f83565b90606482029180830460641490151715611f60576121d59261158e91611f83565b6011546000811561222b57506000198101908111611f60576121f8600191612024565b500154905b606482029180830460641490151715611f60576064916115e9612227926115e3600f548094612004565b0490565b9050906121fd565b5050600090565b50600090565b6004915014153861215b565b600c5480421061223a57600d548042101561228c5761226b8242611f83565b90606482029180830460641490151715611f6057611fde9261158e91611f83565b5050606490565b6002600154146122a4576002600155565b633ee5aeb560e01b60005260046000fd5b60ff60155460081c166008811015610cf0576006811480156123ae575b611fde57506008544210611fec576009544211156123a95760065460ff600b5416116123a457600c54421061239f57600d5442101561237557600e5460ff808260081c1691168082101561236e57601254908161233157505050600390565b60ff61233f61235294611f4e565b16036123635761ffff603c5b1690611f76565b42101561235e57600490565b600390565b61ffff61012c61234b565b5050600690565b600e5460ff8160081c169081156123985760ff161161239357600690565b600590565b5050600790565b600290565b600790565b600190565b50600781146122d2565b6002546000906001600160a01b0316803b15610e335760405163d8d6e8ff60e01b815260066004820152906000908290602490829084905af1801561245957612444575b5080610d06575060155460ff8160081c16906008821015610cf057610600916006600091600080516020612aec8339815191526020604051428152a35061ff00191617601555565b6124519150600090611ed3565b6000386123fc565b6040513d6000823e3d90fd5b6002546000906001600160a01b0316803b15610e335760405163d8d6e8ff60e01b815260076004820152906000908290602490829084905af18015612459576124f1575b5080610d06575060155460ff8160081c16906008821015610cf057610700916007600091600080516020612aec8339815191526020604051428152a35061ff00191617601555565b6124fe9150600090611ed3565b6000386124a9565b1561250d57565b60405162461bcd60e51b81526020600482015260146024820152734e6f2066756e647320746f20776974686472617760601b6044820152606490fd5b6000906125546122b5565b60088110156114ae57600614801561278e575b156109b2574791612579831515612506565b60065415612781575b50600080816006545b808210612748575050836125a6929394821161274057611f83565b9081156125b38115612506565b6019830290838204601914171561272c5760646125d291048093611f83565b600254604051638da5cb5b60e01b815291929190602090829060049082906001600160a01b03165afa9081156109be578291859183916126e4575b50829182918291906001600160a01b03165af1612628612059565b5015611b6857808080808560018060a01b03600254165af1612648612059565b5015611b235760018060a01b036002541660ff60075416813b1561073d57612690604484928360405195869485936304e1e9d160e51b85528a60048601526024850190611e77565b5af180156109be5791604093917fd66662c0ded9e58fd31d5e44944bcfd07ffc15e6927ecc1382e7941cb7bd24c495936126d4575b505082519182526020820152a1565b816126de91611ed3565b386126c5565b925050506020813d602011612724575b8161270160209383611ed3565b810103126109b257516001600160a01b03811681036109b257819084908261260d565b3d91506126f4565b634e487b7160e01b82526011600452602482fd5b905080611f83565b9091612779600191612759856120b1565b848060a01b0391549060031b1c1686526014602052604086205490611f76565b92019061258b565b612789612465565b612582565b506127976122b5565b60088110156114ae57600714612567565b6000546001600160a01b031633036127bc57565b63118cdaa760e01b6000523360045260246000fd5b600080546001600160a01b039283166001600160a01b03198216811783559216907f8be0079c531659141344cd1fd0a4f28419497f9722a3daafe3b4186f6b6457e09080a3565b6128206122b5565b9060009160088110156114ae57600703612a865760065415612a4a57600190825b60065481101561297957612854816120b1565b905460039190911b1c6001600160a01b03168085526005602052604085205460ff1615612885575b50600101612841565b84808080600a54855af1612897612059565b501561292457808552600560205260408520805460ff19166001179055601354600160401b81101561064257906128d88260018095940160135560136120cc565b81549060031b9083821b91868060a01b03901b19161790557f48d31f1c958cd44f1f83a52ae2dfaf61e88a1b82c07a6d5711a4abef60b6531e6020600a54604051908152a25b9061287c565b909250600a54818552601460205261294160408620918254611f76565b90557faf73b0b217208b61be286bbc37095bce7eb8b9ccf617244c2f0f154e8e04e3ff6020600a54604051908152a26001839261291e565b50919060065460ff600b541611612a3d575b6129936122b5565b60088110156114ae576006148015612a23575b156109b25747906129b8821515612506565b60065415612a16575b156129d457905b81156125b38115612506565b919080816006545b8082106129fd575050836129f7929394821161274057611f83565b906129c8565b9091612a0e600191612759856120b1565b9201906129dc565b612a1e612465565b6129c1565b50612a2c6122b5565b60088110156114ae576007146129a6565b612a45612465565b61298b565b60405162461bcd60e51b8152602060048201526014602482015273139bc81c1b185e595c9cc81d1bc81c99599d5b9960621b6044820152606490fd5b60405162461bcd60e51b815260206004820152601c60248201527f4d697373696f6e206e6f7420696e204661696c656420737461747573000000006044820152606490fdfe31ecc21a745e3968a04e9570e4425bc18fa8019c68028196b546d1669c200c6839ba628632d48c45c7f562c07db20a44cf68423691d5d79b20f87ba84138aedfa2646970667358221220f9d97643c8a400fd3e7cf72d2e6b432ddcf4a035fe825b0d4669aa95277007b164736f6c634300081e0033",
  "linkReferences": {},
  "deployedLinkReferences": {}
}