{
  "_format": "hh-sol-artifact-1",
  "contractName": "MissionFactory",
  "sourceName": "contracts/MissionFactory.sol",
  "abi": [
    {
      "inputs": [
        {
          "internalType": "address",
          "name": "_impl",
          "type": "address"
        }
      ],
      "stateMutability": "nonpayable",
      "type": "constructor"
    },
    {
      "inputs": [],
      "name": "FailedDeployment",
      "type": "error"
    },
    {
      "inputs": [
        {
          "internalType": "uint256",
          "name": "balance",
          "type": "uint256"
        },
        {
          "internalType": "uint256",
          "name": "needed",
          "type": "uint256"
        }
      ],
      "name": "InsufficientBalance",
      "type": "error"
    },
    {
      "inputs": [
        {
          "internalType": "address",
          "name": "owner",
          "type": "address"
        }
      ],
      "name": "OwnableInvalidOwner",
      "type": "error"
    },
    {
      "inputs": [
        {
          "internalType": "address",
          "name": "account",
          "type": "address"
        }
      ],
      "name": "OwnableUnauthorizedAccount",
      "type": "error"
    },
    {
      "inputs": [],
      "name": "ReentrancyGuardReentrantCall",
      "type": "error"
    },
    {
      "anonymous": false,
      "inputs": [
        {
          "indexed": true,
          "internalType": "address",
          "name": "addr",
          "type": "address"
        }
      ],
      "name": "AuthorizedAddressAdded",
      "type": "event"
    },
    {
      "anonymous": false,
      "inputs": [
        {
          "indexed": true,
          "internalType": "address",
          "name": "addr",
          "type": "address"
        }
      ],
      "name": "AuthorizedAddressRemoved",
      "type": "event"
    },
    {
      "anonymous": false,
      "inputs": [
        {
          "indexed": false,
          "internalType": "uint8",
          "name": "newWeekly",
          "type": "uint8"
        },
        {
          "indexed": false,
          "internalType": "uint8",
          "name": "newMonthly",
          "type": "uint8"
        }
      ],
      "name": "EnrollmentLimitUpdated",
      "type": "event"
    },
    {
      "anonymous": false,
      "inputs": [
        {
          "indexed": true,
          "internalType": "address",
          "name": "user",
          "type": "address"
        },
        {
          "indexed": false,
          "internalType": "uint256",
          "name": "timestamp",
          "type": "uint256"
        }
      ],
      "name": "EnrollmentRecorded",
      "type": "event"
    },
    {
      "anonymous": false,
      "inputs": [
        {
          "indexed": true,
          "internalType": "address",
          "name": "sender",
          "type": "address"
        },
        {
          "indexed": false,
          "internalType": "uint256",
          "name": "amount",
          "type": "uint256"
        }
      ],
      "name": "FundsReceived",
      "type": "event"
    },
    {
      "anonymous": false,
      "inputs": [
        {
          "indexed": true,
          "internalType": "address",
          "name": "to",
          "type": "address"
        },
        {
          "indexed": false,
          "internalType": "uint256",
          "name": "amount",
          "type": "uint256"
        }
      ],
      "name": "FundsWithdrawn",
      "type": "event"
    },
    {
      "anonymous": false,
      "inputs": [
        {
          "indexed": true,
          "internalType": "address",
          "name": "missionAddress",
          "type": "address"
        },
        {
          "indexed": true,
          "internalType": "enum MissionType",
          "name": "missionType",
          "type": "uint8"
        }
      ],
      "name": "MissionCreated",
      "type": "event"
    },
    {
      "anonymous": false,
      "inputs": [
        {
          "indexed": false,
          "internalType": "uint256",
          "name": "amount",
          "type": "uint256"
        },
        {
          "indexed": true,
          "internalType": "enum MissionType",
          "name": "missionType",
          "type": "uint8"
        },
        {
          "indexed": true,
          "internalType": "address",
          "name": "sender",
          "type": "address"
        }
      ],
      "name": "MissionFundsRegistered",
      "type": "event"
    },
    {
      "anonymous": false,
      "inputs": [
        {
          "indexed": true,
          "internalType": "address",
          "name": "confirmer",
          "type": "address"
        },
        {
          "indexed": false,
          "internalType": "address",
          "name": "newOwner",
          "type": "address"
        },
        {
          "indexed": false,
          "internalType": "uint256",
          "name": "timestamp",
          "type": "uint256"
        }
      ],
      "name": "OwnershipTransferConfirmed",
      "type": "event"
    },
    {
      "anonymous": false,
      "inputs": [
        {
          "indexed": true,
          "internalType": "address",
          "name": "proposer",
          "type": "address"
        },
        {
          "indexed": false,
          "internalType": "address",
          "name": "newOwner",
          "type": "address"
        },
        {
          "indexed": false,
          "internalType": "uint256",
          "name": "timestamp",
          "type": "uint256"
        }
      ],
      "name": "OwnershipTransferProposed",
      "type": "event"
    },
    {
      "anonymous": false,
      "inputs": [
        {
          "indexed": true,
          "internalType": "address",
          "name": "previousOwner",
          "type": "address"
        },
        {
          "indexed": true,
          "internalType": "address",
          "name": "newOwner",
          "type": "address"
        }
      ],
      "name": "OwnershipTransferred",
      "type": "event"
    },
    {
      "stateMutability": "payable",
      "type": "fallback"
    },
    {
      "inputs": [],
      "name": "OWNERSHIP_PROPOSAL_WINDOW",
      "outputs": [
        {
          "internalType": "uint256",
          "name": "",
          "type": "uint256"
        }
      ],
      "stateMutability": "view",
      "type": "function"
    },
    {
      "inputs": [
        {
          "internalType": "address",
          "name": "account",
          "type": "address"
        }
      ],
      "name": "addAuthorizedAddress",
      "outputs": [],
      "stateMutability": "nonpayable",
      "type": "function"
    },
    {
      "inputs": [
        {
          "internalType": "address",
          "name": "",
          "type": "address"
        }
      ],
      "name": "authorized",
      "outputs": [
        {
          "internalType": "bool",
          "name": "",
          "type": "bool"
        }
      ],
      "stateMutability": "view",
      "type": "function"
    },
    {
      "inputs": [
        {
          "internalType": "address",
          "name": "user",
          "type": "address"
        }
      ],
      "name": "canEnroll",
      "outputs": [
        {
          "internalType": "bool",
          "name": "ok",
          "type": "bool"
        },
        {
          "internalType": "enum Limit",
          "name": "breach",
          "type": "uint8"
        }
      ],
      "stateMutability": "view",
      "type": "function"
    },
    {
      "inputs": [
        {
          "internalType": "address",
          "name": "newOwner",
          "type": "address"
        }
      ],
      "name": "confirmOwnershipTransfer",
      "outputs": [],
      "stateMutability": "nonpayable",
      "type": "function"
    },
    {
      "inputs": [
        {
          "internalType": "enum MissionType",
          "name": "_missionType",
          "type": "uint8"
        },
        {
          "internalType": "uint256",
          "name": "_enrollmentStart",
          "type": "uint256"
        },
        {
          "internalType": "uint256",
          "name": "_enrollmentEnd",
          "type": "uint256"
        },
        {
          "internalType": "uint256",
          "name": "_enrollmentAmount",
          "type": "uint256"
        },
        {
          "internalType": "uint8",
          "name": "_enrollmentMinPlayers",
          "type": "uint8"
        },
        {
          "internalType": "uint8",
          "name": "_enrollmentMaxPlayers",
          "type": "uint8"
        },
        {
          "internalType": "uint256",
          "name": "_missionStart",
          "type": "uint256"
        },
        {
          "internalType": "uint256",
          "name": "_missionEnd",
          "type": "uint256"
        },
        {
          "internalType": "uint8",
          "name": "_missionRounds",
          "type": "uint8"
        }
      ],
      "name": "createMission",
      "outputs": [
        {
          "internalType": "address",
          "name": "",
          "type": "address"
        }
      ],
      "stateMutability": "payable",
      "type": "function"
    },
    {
      "inputs": [],
      "name": "getAllMissions",
      "outputs": [
        {
          "internalType": "address[]",
          "name": "",
          "type": "address[]"
        },
        {
          "internalType": "enum Status[]",
          "name": "",
          "type": "uint8[]"
        }
      ],
      "stateMutability": "view",
      "type": "function"
    },
    {
      "inputs": [],
      "name": "getFactorySummary",
      "outputs": [
        {
          "internalType": "address",
          "name": "ownerAddress",
          "type": "address"
        },
        {
          "internalType": "address",
          "name": "factoryAddress",
          "type": "address"
        },
        {
          "internalType": "address",
          "name": "implementation",
          "type": "address"
        },
        {
          "internalType": "uint256",
          "name": "totalMissions",
          "type": "uint256"
        },
        {
          "internalType": "uint256",
          "name": "weekly",
          "type": "uint256"
        },
        {
          "internalType": "uint256",
          "name": "monthly",
          "type": "uint256"
        },
        {
          "internalType": "uint256",
          "name": "missionFunds",
          "type": "uint256"
        },
        {
          "internalType": "uint256",
          "name": "ownerFunds",
          "type": "uint256"
        },
        {
          "internalType": "uint256",
          "name": "successes",
          "type": "uint256"
        },
        {
          "internalType": "uint256",
          "name": "failures",
          "type": "uint256"
        },
        {
          "internalType": "uint256[7]",
          "name": "fundsPerTypeArray",
          "type": "uint256[7]"
        }
      ],
      "stateMutability": "view",
      "type": "function"
    },
    {
      "inputs": [
        {
          "internalType": "enum MissionType",
          "name": "_type",
          "type": "uint8"
        }
      ],
      "name": "getFundsByType",
      "outputs": [
        {
          "internalType": "uint256",
          "name": "",
          "type": "uint256"
        }
      ],
      "stateMutability": "view",
      "type": "function"
    },
    {
      "inputs": [
        {
          "internalType": "uint256",
          "name": "n",
          "type": "uint256"
        }
      ],
      "name": "getLatestMissions",
      "outputs": [
        {
          "internalType": "address[]",
          "name": "",
          "type": "address[]"
        },
        {
          "internalType": "uint8[]",
          "name": "",
          "type": "uint8[]"
        }
      ],
      "stateMutability": "view",
      "type": "function"
    },
    {
      "inputs": [
        {
          "internalType": "address",
          "name": "missionAddress",
          "type": "address"
        }
      ],
      "name": "getMissionData",
      "outputs": [
        {
          "components": [
            {
              "internalType": "address[]",
              "name": "players",
              "type": "address[]"
            },
            {
              "internalType": "enum MissionType",
              "name": "missionType",
              "type": "uint8"
            },
            {
              "internalType": "uint256",
              "name": "enrollmentStart",
              "type": "uint256"
            },
            {
              "internalType": "uint256",
              "name": "enrollmentEnd",
              "type": "uint256"
            },
            {
              "internalType": "uint256",
              "name": "enrollmentAmount",
              "type": "uint256"
            },
            {
              "internalType": "uint8",
              "name": "enrollmentMinPlayers",
              "type": "uint8"
            },
            {
              "internalType": "uint8",
              "name": "enrollmentMaxPlayers",
              "type": "uint8"
            },
            {
              "internalType": "uint256",
              "name": "missionStart",
              "type": "uint256"
            },
            {
              "internalType": "uint256",
              "name": "missionEnd",
              "type": "uint256"
            },
            {
              "internalType": "uint8",
              "name": "missionRounds",
              "type": "uint8"
            },
            {
              "internalType": "uint8",
              "name": "roundCount",
              "type": "uint8"
            },
            {
              "internalType": "uint256",
              "name": "croStart",
              "type": "uint256"
            },
            {
              "internalType": "uint256",
              "name": "croCurrent",
              "type": "uint256"
            },
            {
              "components": [
                {
                  "internalType": "address",
                  "name": "player",
                  "type": "address"
                },
                {
                  "internalType": "uint256",
                  "name": "amountWon",
                  "type": "uint256"
                }
              ],
              "internalType": "struct Mission.PlayersWon[]",
              "name": "playersWon",
              "type": "tuple[]"
            },
            {
              "internalType": "uint256",
              "name": "pauseTimestamp",
              "type": "uint256"
            },
            {
              "internalType": "address[]",
              "name": "refundedPlayers",
              "type": "address[]"
            }
          ],
          "internalType": "struct Mission.MissionData",
          "name": "",
          "type": "tuple"
        }
      ],
      "stateMutability": "view",
      "type": "function"
    },
    {
      "inputs": [
        {
          "internalType": "enum Status",
          "name": "s",
          "type": "uint8"
        }
      ],
      "name": "getMissionsByStatus",
      "outputs": [
        {
          "internalType": "address[]",
          "name": "",
          "type": "address[]"
        },
        {
          "internalType": "uint8[]",
          "name": "",
          "type": "uint8[]"
        }
      ],
      "stateMutability": "view",
      "type": "function"
    },
    {
      "inputs": [],
      "name": "getMissionsEnded",
      "outputs": [
        {
          "internalType": "address[]",
          "name": "",
          "type": "address[]"
        },
        {
          "internalType": "uint8[]",
          "name": "",
          "type": "uint8[]"
        }
      ],
      "stateMutability": "view",
      "type": "function"
    },
    {
      "inputs": [],
      "name": "getMissionsNotEnded",
      "outputs": [
        {
          "internalType": "address[]",
          "name": "",
          "type": "address[]"
        },
        {
          "internalType": "uint8[]",
          "name": "",
          "type": "uint8[]"
        }
      ],
      "stateMutability": "view",
      "type": "function"
    },
    {
      "inputs": [
        {
          "internalType": "address",
          "name": "player",
          "type": "address"
        }
      ],
      "name": "getPlayerLimits",
      "outputs": [
        {
          "internalType": "uint8",
          "name": "weekUsed",
          "type": "uint8"
        },
        {
          "internalType": "uint8",
          "name": "weekMax",
          "type": "uint8"
        },
        {
          "internalType": "uint8",
          "name": "monthUsed",
          "type": "uint8"
        },
        {
          "internalType": "uint8",
          "name": "monthMax",
          "type": "uint8"
        },
        {
          "internalType": "uint256",
          "name": "secToWeek",
          "type": "uint256"
        },
        {
          "internalType": "uint256",
          "name": "secToMonth",
          "type": "uint256"
        }
      ],
      "stateMutability": "view",
      "type": "function"
    },
    {
      "inputs": [
        {
          "internalType": "address",
          "name": "player",
          "type": "address"
        }
      ],
      "name": "getPlayerParticipation",
      "outputs": [
        {
          "internalType": "address[]",
          "name": "joined",
          "type": "address[]"
        },
        {
          "internalType": "enum Status[]",
          "name": "statuses",
          "type": "uint8[]"
        }
      ],
      "stateMutability": "view",
      "type": "function"
    },
    {
      "inputs": [],
      "name": "getTotalMissions",
      "outputs": [
        {
          "internalType": "uint256",
          "name": "",
          "type": "uint256"
        }
      ],
      "stateMutability": "view",
      "type": "function"
    },
    {
      "inputs": [
        {
          "internalType": "address",
          "name": "",
          "type": "address"
        }
      ],
      "name": "isMission",
      "outputs": [
        {
          "internalType": "bool",
          "name": "",
          "type": "bool"
        }
      ],
      "stateMutability": "view",
      "type": "function"
    },
    {
      "inputs": [],
      "name": "missionImplementation",
      "outputs": [
        {
          "internalType": "address",
          "name": "",
          "type": "address"
        }
      ],
      "stateMutability": "view",
      "type": "function"
    },
    {
      "inputs": [
        {
          "internalType": "address",
          "name": "",
          "type": "address"
        }
      ],
      "name": "missionStatus",
      "outputs": [
        {
          "internalType": "enum Status",
          "name": "",
          "type": "uint8"
        }
      ],
      "stateMutability": "view",
      "type": "function"
    },
    {
      "inputs": [
        {
          "internalType": "uint256",
          "name": "",
          "type": "uint256"
        }
      ],
      "name": "missions",
      "outputs": [
        {
          "internalType": "address",
          "name": "",
          "type": "address"
        }
      ],
      "stateMutability": "view",
      "type": "function"
    },
    {
      "inputs": [],
      "name": "monthlyLimit",
      "outputs": [
        {
          "internalType": "uint8",
          "name": "",
          "type": "uint8"
        }
      ],
      "stateMutability": "view",
      "type": "function"
    },
    {
      "inputs": [],
      "name": "owner",
      "outputs": [
        {
          "internalType": "address",
          "name": "",
          "type": "address"
        }
      ],
      "stateMutability": "view",
      "type": "function"
    },
    {
      "inputs": [
        {
          "internalType": "address",
          "name": "",
          "type": "address"
        }
      ],
      "name": "ownershipProposals",
      "outputs": [
        {
          "internalType": "address",
          "name": "proposer",
          "type": "address"
        },
        {
          "internalType": "uint256",
          "name": "timestamp",
          "type": "uint256"
        }
      ],
      "stateMutability": "view",
      "type": "function"
    },
    {
      "inputs": [
        {
          "internalType": "address",
          "name": "newOwner",
          "type": "address"
        }
      ],
      "name": "proposeOwnershipTransfer",
      "outputs": [],
      "stateMutability": "nonpayable",
      "type": "function"
    },
    {
      "inputs": [
        {
          "internalType": "address",
          "name": "user",
          "type": "address"
        }
      ],
      "name": "recordEnrollment",
      "outputs": [],
      "stateMutability": "nonpayable",
      "type": "function"
    },
    {
      "inputs": [
        {
          "internalType": "enum MissionType",
          "name": "missionType",
          "type": "uint8"
        }
      ],
      "name": "registerMissionFunds",
      "outputs": [],
      "stateMutability": "payable",
      "type": "function"
    },
    {
      "inputs": [
        {
          "internalType": "address",
          "name": "account",
          "type": "address"
        }
      ],
      "name": "removeAuthorizedAddress",
      "outputs": [],
      "stateMutability": "nonpayable",
      "type": "function"
    },
    {
      "inputs": [],
      "name": "renounceOwnership",
      "outputs": [],
      "stateMutability": "nonpayable",
      "type": "function"
    },
    {
      "inputs": [
        {
          "internalType": "enum MissionType",
          "name": "",
          "type": "uint8"
        }
      ],
      "name": "reservedFunds",
      "outputs": [
        {
          "internalType": "uint256",
          "name": "",
          "type": "uint256"
        }
      ],
      "stateMutability": "view",
      "type": "function"
    },
    {
      "inputs": [],
      "name": "reservedFundsBreakdown",
      "outputs": [
        {
          "internalType": "uint256[7]",
          "name": "",
          "type": "uint256[7]"
        }
      ],
      "stateMutability": "view",
      "type": "function"
    },
    {
      "inputs": [
        {
          "internalType": "address",
          "name": "user",
          "type": "address"
        }
      ],
      "name": "secondsTillMonthlySlot",
      "outputs": [
        {
          "internalType": "uint256",
          "name": "",
          "type": "uint256"
        }
      ],
      "stateMutability": "view",
      "type": "function"
    },
    {
      "inputs": [
        {
          "internalType": "address",
          "name": "user",
          "type": "address"
        }
      ],
      "name": "secondsTillWeeklySlot",
      "outputs": [
        {
          "internalType": "uint256",
          "name": "",
          "type": "uint256"
        }
      ],
      "stateMutability": "view",
      "type": "function"
    },
    {
      "inputs": [
        {
          "internalType": "uint8",
          "name": "_weekly",
          "type": "uint8"
        },
        {
          "internalType": "uint8",
          "name": "_monthly",
          "type": "uint8"
        }
      ],
      "name": "setEnrollmentLimits",
      "outputs": [],
      "stateMutability": "nonpayable",
      "type": "function"
    },
    {
      "inputs": [
        {
          "internalType": "enum Status",
          "name": "newStatus",
          "type": "uint8"
        }
      ],
      "name": "setMissionStatus",
      "outputs": [],
      "stateMutability": "nonpayable",
      "type": "function"
    },
    {
      "inputs": [],
      "name": "totalMissionFailures",
      "outputs": [
        {
          "internalType": "uint256",
          "name": "",
          "type": "uint256"
        }
      ],
      "stateMutability": "view",
      "type": "function"
    },
    {
      "inputs": [],
      "name": "totalMissionFunds",
      "outputs": [
        {
          "internalType": "uint256",
          "name": "",
          "type": "uint256"
        }
      ],
      "stateMutability": "view",
      "type": "function"
    },
    {
      "inputs": [],
      "name": "totalMissionSuccesses",
      "outputs": [
        {
          "internalType": "uint256",
          "name": "",
          "type": "uint256"
        }
      ],
      "stateMutability": "view",
      "type": "function"
    },
    {
      "inputs": [],
      "name": "totalOwnerEarnedFunds",
      "outputs": [
        {
          "internalType": "uint256",
          "name": "",
          "type": "uint256"
        }
      ],
      "stateMutability": "view",
      "type": "function"
    },
    {
      "inputs": [
        {
          "internalType": "address",
          "name": "newOwner",
          "type": "address"
        }
      ],
      "name": "transferOwnership",
      "outputs": [],
      "stateMutability": "nonpayable",
      "type": "function"
    },
    {
      "inputs": [],
      "name": "weeklyLimit",
      "outputs": [
        {
          "internalType": "uint8",
          "name": "",
          "type": "uint8"
        }
      ],
      "stateMutability": "view",
      "type": "function"
    },
    {
      "inputs": [
        {
          "internalType": "uint256",
          "name": "amount",
          "type": "uint256"
        }
      ],
      "name": "withdrawFunds",
      "outputs": [],
      "stateMutability": "nonpayable",
      "type": "function"
    },
    {
      "stateMutability": "payable",
      "type": "receive"
    }
  ],
  "bytecode": "0x60a03461012557601f6131e338819003918201601f19168301916001600160401b0383118484101761012a5780849260209460405283398101031261012557516001600160a01b03811680820361012557331561010f5760008054336001600160a01b0319821681178355604051939290916001600160a01b0316907f8be0079c531659141344cd1fd0a4f28419497f9722a3daafe3b4186f6b6457e09080a360018055610a0461ffff196003541617600355156100e157506080526040516130a29081610141823960805181818161044f01528181610a9e0152610ee90152f35b62461bcd60e51b8152602060048201526009602482015268696d706c207a65726f60b81b6044820152606490fd5b631e4fbdf760e01b600052600060045260246000fd5b600080fd5b634e487b7160e01b600052604160045260246000fdfe6080806040526004361015610011575b005b600090813560e01c9081630814ab8214612542575080630a6005da1461251e578063155dd5ee146123925780631e59d5841461223257806320c5718f14611fc957806321040fc314611ea15780632c8fe52614611e5d5780632e33b07f146108215780633589cf7214611e3f5780633701276214611d605780633c21395714611b8357806342f1181e14611a92578063503c0b88146118625780635c5bb6f21461184457806363679723146118265780636805036d146116d35780636d8a1390146116aa57806370712939146115bf578063715018a6146115655780637e9eae501461147f57806383fbea5114611461578063861a68d6146114405780638da5cb5b146114195780639804a586146113cf5780639b15953914610e36578063a9bea78914610cc2578063aa1f059514610c80578063b620291314610b0f578063b918161114610acd578063bd48772514610a88578063c17f9e5914610854578063c416ad2a14610821578063c892fde314610803578063cbf2080d1461066c578063d3050eba1461064e578063d41eca64146105a0578063d8d6e8ff14610519578063df4db463146104ab578063e5047770146103ae578063eff0ab92146102a1578063f2fde38b1461024a5763fb4cdea70361000f5734610247576020366003190112610247576004356001600160a01b03811690819003610245578152600b6020908152604091829020805460019091015483516001600160a01b0390921682529181019190915290819081015b0390f35b505b80fd5b5034610247576020366003190112610247576004356001600160a01b03811680820361029d57610278612fda565b156102895761028690613025565b80f35b631e4fbdf760e01b82526004829052602482fd5b8280fd5b5034610247576020366003190112610247576004356001600160a01b03811690819003610245578152600d6020526040812080548291825b82811061032957505050816102f557602091505b604051908152f35b62093a80820180921161031557506103106020914290612ad7565b6102ed565b634e487b7160e01b81526011600452602490fd5b6103338183612670565b90549060031b1c62093a80810180911161039a574210610356575b6001016102d9565b84158015610381575b1561034e57935060016103728583612670565b90549060031b1c94905061034e565b508461038d8284612670565b90549060031b1c1061035f565b634e487b7160e01b85526011600452602485fd5b503461024757806003193601126102475760e0806040516103cf8282612770565b3690376040516103df8282612770565b81368237825b600781101561040c576001906103fa816126e0565b546104058285612fc9565b52016103e5565b506104a9906102209360018060a01b03905416926002549060035490600454906005549160ff60065494600754966040519a8b523060208c015260018060a01b037f00000000000000000000000000000000000000000000000000000000000000001660408c015260608b015281811660808b015260081c1660a089015260c08801528601526101008501526101208401526101408301906126f9565bf35b503461024757806003193601126102475760e090816040516104cd8282612770565b3690376040516104dd8382612770565b82368237815b600781101561050a576001906104f8816126e0565b546105038285612fc9565b52016104e3565b83826104a960405180926126f9565b503461024757602036600319011261024757600435600881101561024557338252600960205261054f60ff604084205416612f5e565b338252600a6020526040822060ff1981541660ff831617905560068114600014610585575061057f600654612792565b60065580f35b60071461058f5780f35b61059a600754612792565b60075580f35b50346102475760403660031901126102475760043560ff81168091036102455760243560ff81169182820361064a577f321994b8855ae38e4fd6162f7a0bd7cde88be83aa3acc96e03c17b7f733b43e19260409260018060a01b0386541633148015610635575b61061090612a6f565b8261ff006003549260081b169161ffff1916171760035582519182526020820152a180f35b5033865260086020528386205460ff16610607565b8380fd5b50346102475780600319360112610247576020604051620151808152f35b5034610247576020366003190112610247576004356001600160a01b03811690819003610245578152600d602052604081208190829083809181908054915b82811061075857505050600354948015600014610726575080915b80610700575060c09460ff8092945b8160405197168752818316602088015216604086015260081c166060840152608083015260a0820152f35b9062278d008201809211610315575060c09460ff61072081934290612ad7565b946106d5565b62093a8081018091116107445761073e904290612ad7565b916106c6565b634e487b7160e01b82526011600452602482fd5b6107628183612670565b90549060031b1c62278d0081018082116107de574210610786575b506001016106ab565b9561079090612792565b95851580156107fa575b6107f2575b62093a8081018082116107de5742101561077d57966107bd90612792565b96881580156107d5575b1561077d579750600161077d565b508881106107c7565b634e487b7160e01b86526011600452602486fd5b94508461079f565b5085811061079a565b50346102475780600319360112610247576020600654604051908152f35b50346102475760203660031901126102475760043590600782101561024757602061084b836126e0565b54604051908152f35b5034610247576020366003190112610247576004356001600160a01b0381169081900361024557338252600a60205260ff6040832054166008811015610a7457600103610a3e5762278cff19420190428211610a2a57808352600d60205260408320805492845b84811080610a11575b156108d7576108d290612792565b6108bb565b838387928061095d575b50805490600160401b821015610949578161090491600161091c94018155612670565b429082549060031b91821b91600019901b1916179055565b7f498f5e6dcf570483a1848853791046a7f10012193176d71f959f46eb7713d7446020604051428152a280f35b634e487b7160e01b84526041600452602484fd5b92805b61096b858454612ad7565b8110156109bb57806109b561098b61098588600195612aca565b86612670565b90549060031b1c61099c8387612670565b90919082549060031b91821b91600019901b1916179055565b01610960565b5092835b8181106109cc57506108e1565b825480156109fd5760019190600019016109e68186612670565b8154906000199060031b1b191690558455016109bf565b634e487b7160e01b86526031600452602486fd5b5081610a1d8285612670565b90549060031b1c106108c4565b634e487b7160e01b83526011600452602483fd5b60405162461bcd60e51b815260206004820152600e60248201526d24b73b30b634b21031b0b63632b960911b6044820152606490fd5b634e487b7160e01b83526021600452602483fd5b50346102475780600319360112610247576040517f00000000000000000000000000000000000000000000000000000000000000006001600160a01b03168152602090f35b5034610247576020366003190112610247576004356001600160a01b038116908190036102455760408260ff9260209452600884522054166040519015158152f35b50346102475780600319360112610247576002549080805b838110610c145750610b41610b3b836127cf565b926127cf565b9281805b828110610b5b57604051806102418888836125e0565b610b648161263f565b905460039190911b1c6001600160a01b03168252600a602052604082205460ff16600881101580610c0057600682148015610bf4575b610ba9575b5050600101610b45565b610bb483969361263f565b905460039190911b1c6001600160a01b0316610bd08489612801565b52610a745781610bec91610be66001948a612801565b52612792565b939038610b9f565b50508260078214610b9a565b634e487b7160e01b84526021600452602484fd5b610c1d8161263f565b905460039190911b1c6001600160a01b03168252600a602052604082205460ff166008811015610a745760068114908115610c75575b50610c61575b600101610b27565b91610c6d600191612792565b929050610c59565b600791501438610c53565b5034610247576020366003190112610247576004356001600160a01b038116908190036102455760408260ff9260209452600984522054166040519015158152f35b506020366003190112610247576004356007811015610245573382526009602052610cf360ff604084205416612f5e565b610cfb613003565b3415610df257338252600a60205260ff6040832054166008811015610a74576006148015610dd0575b15610d9457610d32816126e0565b610d3d348254612aca565b9055610d4b34600454612aca565b600455610d5d60033404600554612aca565b600555604051903482527f606617fd09d9890413e3c46147b844d4562351f86e0f7a5c60849bbf0ef0281160203393a36001805580f35b60405162461bcd60e51b815260206004820152601460248201527321b0b63632b9103737ba10309036b4b9b9b4b7b760611b6044820152606490fd5b50338252600a60205260ff6040832054166008811015610a7457600714610d24565b606460405162461bcd60e51b815260206004820152602060248201527f416d6f756e74206d7573742062652067726561746572207468616e207a65726f6044820152fd5b5061012036600319011261024757600435600781101561024557602435906044359160643560843560ff81168091036113cb5760a43560ff81168091036113c75760c4359060e43592610104359460ff86168096036113c35789546001600160a01b0316331480156113ad575b610eac90612a6f565b610eb4613003565b6005861061134e578582106112e3578183106112795788871015611228578884106111ca578385111561118657801561112d577f0000000000000000000000000000000000000000000000000000000000000000608881901c62ffffff16763d602d80600a3d3981f3363d3d373d3d3d363d73000000178b5260781b6e5af43d82803e903d91602b57fd5bf3176020526001600160a01b03603760098cf01698891561111e57898b52600960205260408b20600160ff19825416179055898b52600a60205260408b2060ff19815416905560018060a01b038b5416978a3b1561111a576040519863c54168b360e01b8a5260048a01523060248a0152610fbd60448a018b612632565b6064890152608488015260a487015260c486015260e485015261010484015261012483015261014482015283816101648134875af1801561110f576110fb575b50600254600160401b8110156109495780600161101d920160025561263f565b81546001600160a01b0360039290921b91821b19169084901b17905580827f0ac1ac89285bf936f515aafcf6808b3e062e77fd57f52c8892d20fc9409b8b538580a3611068816126e0565b5460021c90811515806110f1575b61108a575b60208360018055604051908152f35b611093906126e0565b61109e828254612ad7565b905582823b156102475760405163eb2bab7760e01b81529182906004908290865af180156110e6576110d1575b8061107b565b6110dc838092612770565b61024557816110cb565b6040513d85823e3d90fd5b5081471015611076565b8361110891949294612770565b9138610ffd565b6040513d86823e3d90fd5b8b80fd5b63b06ebf3d60e01b8b5260048bfd5b60405162461bcd60e51b815260206004820152602b60248201527f456e726f6c6c6d656e7420616d6f756e74206d7573742062652067726561746560448201526a72207468616e207a65726f60a81b6064820152608490fd5b606460405162461bcd60e51b815260206004820152602060248201527f4d697373696f6e207374617274206d757374206265206265666f726520656e646044820152fd5b60405162461bcd60e51b815260206004820152603060248201527f4d697373696f6e207374617274206d757374206265206f6e206f72206166746560448201526f1c88195b9c9bdb1b1b595b9d08195b9960821b6064820152608490fd5b60405162461bcd60e51b815260206004820152602360248201527f456e726f6c6c6d656e74207374617274206d757374206265206265666f726520604482015262195b9960ea1b6064820152608490fd5b608460405162461bcd60e51b815260206004820152604060248201527f4d6178696d756d20706c6179657273206d75737420626520677265617465722060448201527f7468616e206f7220657175616c20746f206d696e696d756d20706c61796572736064820152fd5b60405162461bcd60e51b815260206004820152603f60248201527f4d696e696d756d20706c6179657273206d75737420626520677265617465722060448201527f7468616e206f7220657175616c20746f206d697373696f6e20726f756e6473006064820152608490fd5b60405162461bcd60e51b815260206004820152603160248201527f4d697373696f6e20726f756e6473206d7573742062652067726561746572207460448201527068616e206f7220657175616c20746f203560781b6064820152608490fd5b50338a52600860205260408a205460ff16610ea3565b8980fd5b8680fd5b8580fd5b5034610247576020366003190112610247576004356001600160a01b0381168103610245576113fd90612ddf565b60405191151582526003811015610a7457604092506020820152f35b5034610247578060031936011261024757546040516001600160a01b039091168152602090f35b5034610247578060031936011261024757602060ff60035416604051908152f35b50346102475780600319360112610247576020600754604051908152f35b5034610247576020366003190112610247576002549060043582811161155e575b6114a9816127cf565b916114b3826127cf565b936000198101908111825b8481106114d457604051806102418989836125e0565b8161154a576114eb6114e68285612ad7565b61263f565b905460039190911b1c6001600160a01b0316806115088389612801565b528452600a60205260ff6040852054166008811015611536579060019161152f828a612801565b52016114be565b634e487b7160e01b85526021600452602485fd5b634e487b7160e01b84526011600452602484fd5b50816114a0565b503461024757806003193601126102475761157e612fda565b80546001600160a01b03198116825581906001600160a01b03167f8be0079c531659141344cd1fd0a4f28419497f9722a3daafe3b4186f6b6457e08280a380f35b5034610247576020366003190112610247576004356001600160a01b038116908190036102455781546001600160a01b031633148015611694575b61160390612a6f565b61160e811515612ae4565b808252600860205260ff6040832054161561165e57808252600860205260408220805460ff191690557f66d5f06f711af3c9feba3203fdb00b51345d514c68585d9d319c5ff5e6f775928280a280f35b60405162461bcd60e51b815260206004820152600e60248201526d139bdd08185d5d1a1bdc9a5e995960921b6044820152606490fd5b503382526008602052604082205460ff166115fa565b50346102475780600319360112610247576116c3612b53565b9061024160405192839283612688565b50346102475780600319360112610247576002549080805b8381106117b957506116ff610b3b836127cf565b9281805b82811061171957604051806102418888836125e0565b6117228161263f565b905460039190911b1c6001600160a01b03168252600a602052604082205460ff16600881101580610c00576006821415806117ac575b611767575b5050600101611703565b61177283969361263f565b905460039190911b1c6001600160a01b031661178e8489612801565b52610a7457816117a491610be66001948a612801565b93903861175d565b5050826007821415611758565b6117c28161263f565b905460039190911b1c6001600160a01b03168252600a602052604082205460ff166008811015610a74576006811415908161181a575b50611806575b6001016116eb565b91611812600191612792565b9290506117fe565b600791501415386117f8565b50346102475780600319360112610247576020600454604051908152f35b50346102475780600319360112610247576020600254604051908152f35b5034610247576020366003190112610247576004356001600160a01b038116919082900361024757600254918183805b6119f857506118a96118a3846127cf565b936127cf565b9381815b6118c05760405180610241888883612688565b600019820182811161154a576118d59061263f565b9054604051629c95e160e41b81526004810187905260039290921b1c6001600160a01b031690602081602481855afa9081156119ed5785916119bf575b5061192a575b509061192390612b22565b90816118ad565b60208160049261193a858a612801565b526040516368c6ba2160e01b815292839182905afa90811561110f578491611983575b508161197861197d92611973611923958b612801565b612b47565b612792565b90611918565b90506020813d82116119b7575b8161199d60209383612770565b8101031261064a5751600881101561064a5761192361195d565b3d9150611990565b6119e0915060203d81116119e6575b6119d88183612770565b810190612b2f565b38611912565b503d6119ce565b6040513d87823e3d90fd5b6000198101818111610a2a576020611a1160249261263f565b9054604051629c95e160e41b8152600481018890529384929091839160031b1c6001600160a01b03165afa9081156110e6578391611a74575b50611a5f575b611a5990612b22565b80611892565b92611a6c611a5991612792565b939050611a50565b611a8c915060203d81116119e6576119d88183612770565b38611a4a565b5034610247576020366003190112610247576004356001600160a01b038116908190036102455781546001600160a01b031633148015611b6d575b611ad690612a6f565b611ae1811515612ae4565b808252600860205260ff604083205416611b3357808252600860205260408220805460ff191660011790557f10ac961f00d5e732ba4dcc2c6fb09bebea0eb9edd2a75c8109775ef288382e678280a280f35b60405162461bcd60e51b8152602060048201526012602482015271105b1c9958591e48185d5d1a1bdc9a5e995960721b6044820152606490fd5b503382526008602052604082205460ff16611acd565b5034610247576020366003190112610247576004356001600160a01b03811680820361029d5782546001600160a01b031633148015611d4a575b611bc690612a6f565b808352600b60205260408320604051611bde81612754565b81546001600160a01b0316808252600190920154602082019081529115611d0557516001600160a01b03163314611cc1575162015180810180911161154a574211611c8957611c2c82613025565b8252600b6020908152604080842084815560010184905580516001600160a01b039093168352429183019190915233917fdd72dd33198968a9cdc9b1e5cbff344fb8d04d99f8c15c0a02416b04e857b46791819081015b0390a280f35b60405162461bcd60e51b815260206004820152601060248201526f141c9bdc1bdcd85b08195e1c1a5c995960821b6044820152606490fd5b606460405162461bcd60e51b815260206004820152602060248201527f43616e6e6f7420636f6e6669726d20796f7572206f776e2070726f706f73616c6044820152fd5b60405162461bcd60e51b815260206004820152601a60248201527f4e6f2070726f706f73616c20666f722074686973206f776e65720000000000006044820152606490fd5b503383526008602052604083205460ff16611bbd565b5034610247576020366003190112610247576004356001600160a01b03811690819003610245578152600d6020526040812080548291825b828110611dce5750505081611db35760209150604051908152f35b62278d00820180921161031557506103106020914290612ad7565b611dd88183612670565b90549060031b1c62278d00810180911161039a574210611dfb575b600101611d98565b84158015611e26575b15611df35793506001611e178583612670565b90549060031b1c949050611df3565b5084611e328284612670565b90549060031b1c10611e04565b50346102475780600319360112610247576020600554604051908152f35b50346102475760203660031901126102475760043590600254821015610247576020611e888361263f565b905460405160039290921b1c6001600160a01b03168152f35b5034610247576020366003190112610247576004356001600160a01b03811680820361029d5782546001600160a01b031633148015611fb3575b611ee490612a6f565b8015611f7a57600160405191611ef983612754565b33835260208301904282528552600b6020526040852092828060a01b039051166bffffffffffffffffffffffff60a01b845416178355519101557fc29bdbd554e41df97e5c40fc273a09677ac133c245f0064bdffef5cc72176e1960405180611c83339442908360209093929193604081019460018060a01b031681520152565b60405162461bcd60e51b815260206004820152601160248201527024b73b30b634b2103732bb9037bbb732b960791b6044820152606490fd5b503383526008602052604083205460ff16611edb565b5034610247576020366003190112610247576004356001600160a01b038116908190036102455760606101e060405161200181612721565b82815284602082015284604082015284838201528460808201528460a08201528460c08201528460e08201528461010082015284610120820152846101408201528461016082015284610180820152826101a0820152846101c0820152015280156121ed578160049160405192838092631f385f7960e21b82525afa9081156121e25782916121c0575b5060405190602082526120ac815161020060208501526102208401906125a3565b926120bf60208301516040850190612632565b6040820151606084015260608201516080840152608082015160a084015260ff60a08301511660c084015260ff60c08301511660e084015260e082015161010084015261010082015161012084015260ff6101208301511661014084015260ff610140830151166101608401526101608201516101808401526101808201516101a08401526101a082015193601f19848203016101c0850152602080865192838152019501915b818110612195578480610241886101e0886101c0810151828601520151601f19848303016102008501526125a3565b825180516001600160a01b031687526020908101518188015260409096019590920191600101612166565b6121dc91503d8084833e6121d48183612770565b8101906128a1565b3861208b565b6040513d84823e3d90fd5b60405162461bcd60e51b815260206004820152601760248201527f496e76616c6964206d697373696f6e20616464726573730000000000000000006044820152606490fd5b5034610247576020366003190112610247576004359060088210159081610247576002548192825b828110612337575061227461226e856127cf565b946127cf565b948391845b84811061228f57604051806102418a8a836125e0565b6122988161263f565b905460039190911b1c6001600160a01b03168652600a602052604086205460ff16826123235760088110156123235783146122d6575b600101612279565b9290506122e28361263f565b905460039190911b1c6001600160a01b03166122fe8288612801565b52600161231b8692612310818b612801565b60ff86169052612792565b9390506122ce565b634e487b7160e01b87526021600452602487fd5b6123408161263f565b905460039190911b1c6001600160a01b03168452600a602052604084205460ff168261153657600881101561153657861461237e575b60010161225a565b9361238a600191612792565b949050612376565b5034610247576020366003190112610247576004356123af612fda565b6123b7613003565b81546001600160a01b0316908082156124e157156124da575b47811161249e578280808084865af13d15612499573d67ffffffffffffffff8111612485576040519061240d601f8201601f191660200183612770565b81528460203d92013e5b1561244e5760207feaff4b37086828766ad3268786972c0cd24259d4c87a80f9d3963a3c3d999b0d91604051908152a26001805580f35b60405162461bcd60e51b815260206004820152600f60248201526e151c985b9cd9995c8819985a5b1959608a1b6044820152606490fd5b634e487b7160e01b85526041600452602485fd5b612417565b60405162461bcd60e51b8152602060048201526014602482015273496e73756666696369656e742062616c616e636560601b6044820152606490fd5b50476123d0565b60405162461bcd60e51b815260206004820152601560248201527424b73b30b634b21036b0b730b3b2b91037bbb732b960591b6044820152606490fd5b5034610247578060031936011261024757602060ff60035460081c16604051908152f35b905034610245576020366003190112610245576004356001600160a01b0381169081900361029d578160ff6040856104a99460209752600a87522054165b90600882101561258d5752565b634e487b7160e01b600052602160045260246000fd5b906020808351928381520192019060005b8181106125c15750505090565b82516001600160a01b03168452602093840193909201916001016125b4565b906125f3906040835260408301906125a3565b9060208183039101526020808351928381520192019060005b8181106126195750505090565b825160ff1684526020938401939092019160010161260c565b90600782101561258d5752565b60025481101561265a57600260005260206000200190600090565b634e487b7160e01b600052603260045260246000fd5b805482101561265a5760005260206000200190600090565b9061269b906040835260408301906125a3565b9060208183039101526020808351928381520192019060005b8181106126c15750505090565b909192602080826126d56001948851612580565b0194019291016126b4565b600781101561258d57600052600c602052604060002090565b906000905b6007821061270b57505050565b60208060019285518152019301910190916126fe565b610200810190811067ffffffffffffffff82111761273e57604052565b634e487b7160e01b600052604160045260246000fd5b6040810190811067ffffffffffffffff82111761273e57604052565b90601f8019910116810190811067ffffffffffffffff82111761273e57604052565b60001981146127a15760010190565b634e487b7160e01b600052601160045260246000fd5b67ffffffffffffffff811161273e5760051b60200190565b906127d9826127b7565b6127e66040519182612770565b82815280926127f7601f19916127b7565b0190602036910137565b805182101561265a5760209160051b010190565b51906001600160a01b038216820361282957565b600080fd5b9080601f83011215612829578151612845816127b7565b926128536040519485612770565b81845260208085019260051b82010192831161282957602001905b82821061287b5750505090565b6020809161288884612815565b81520191019061286e565b519060ff8216820361282957565b6020818303126128295780519067ffffffffffffffff821161282957016102008183031261282957604051916128d683612721565b815167ffffffffffffffff811161282957816128f391840161282e565b83526020820151600781101561282957602084015260408201516040840152606082015160608401526080820151608084015261293260a08301612893565b60a084015261294360c08301612893565b60c084015260e082015160e084015261010082015161010084015261296b6101208301612893565b61012084015261297e6101408301612893565b6101408401526101608201516101608401526101808201516101808401526101a082015167ffffffffffffffff811161282957820181601f820112156128295780516129c9816127b7565b916129d76040519384612770565b81835260208084019260061b8201019084821161282957602001915b818310612a37575050506101a08401526101c08201516101c08401526101e082015167ffffffffffffffff811161282957612a2e920161282e565b6101e082015290565b6040838603126128295760206040918251612a5181612754565b612a5a86612815565b815282860151838201528152019201916129f3565b15612a7657565b60405162461bcd60e51b815260206004820152602660248201527f4e6f74206f776e6572206f72204d697373696f6e466163746f727920617574686044820152651bdc9a5e995960d21b6064820152608490fd5b919082018092116127a157565b919082039182116127a157565b15612aeb57565b60405162461bcd60e51b815260206004820152600f60248201526e496e76616c6964206164647265737360881b6044820152606490fd5b80156127a1576000190190565b90816020910312612829575180151581036128295790565b600882101561258d5752565b6002548015612da957624f19ff1942014281116127a15762278cff1942014281116127a15760009392939284805b612cbd575b50612b90846127cf565b90612b9a856127cf565b956000905b80151580612cb4575b15612ca9576000190190612bbb8261263f565b60018060a01b0391549060031b1c1680600052600a60205260ff6040600020541690604051631f385f7960e21b8152600081600481855afa8015612c9d578891600091612c84575b508960e082018181511080612c61575b15612c565750506101000151105b612c49578291612c4291612c3760019589612801565b52611973838c612801565b0190612b9f565b5050505093509150509190565b915091505110612c21565b50925050600884101561258d578989926006861480612c13575060078614612c13565b612c97913d8091833e6121d48183612770565b38612c03565b6040513d6000823e3d90fd5b505093509150509190565b50868210612ba8565b600019019493612ccc8661263f565b60018060a01b0391549060031b1c1680600052600a6020526004600060ff6040822054169260405192838092631f385f7960e21b82525afa908115612c9d5785928791600093612d8e575b5060e0830190828251109081612d5e575b5015612d535750506101000151105b612d4c57612d458691612792565b9495612b81565b9394612b86565b915091505110612d37565b9250509250600881101561258d578592816006899314908115612d83575b5038612d28565b600791501438612d7c565b612da291933d8091833e6121d48183612770565b9138612d17565b50602090604051612dba8382612770565b60008152600036813760405192612dd18185612770565b600084525060003681379190565b6001600160a01b03166000908152600d602052604081208054829182918291825b828110612ec7575050506003549160ff8316119060ff82159360081c1611918215928280612ec0575b612eb25781612eaa575b50612e9e5781612e96575b50612e8c5762093a8081018091116127a157612e5b904290612ad7565b9062278d0081018091116127a157612e74904290612ad7565b1115612e84576002905b60009190565b600190612e7e565b5050600090600290565b905038612e3e565b50505050600090600190565b905038612e33565b505050505050600190600090565b5080612e29565b612ed18183612670565b90549060031b1c62278d0081018082116127a1574210612ef5575b50600101612e00565b93612eff90612792565b9387158015612f55575b612f4d575b62093a8081018082116127a157421015612eec5794612f2c90612792565b9486158015612f44575b15612eec5795506001612eec565b50868110612f36565b965086612f0e565b50878110612f09565b15612f6557565b60405162461bcd60e51b815260206004820152603660248201527f4d697373696f6e466163746f72793a2063616c6c6572206973206e6f742061206044820152751d985b1a59081b5a5cdcda5bdb8818dbdb9d1c9858dd60521b6064820152608490fd5b90600781101561265a5760051b0190565b6000546001600160a01b03163303612fee57565b63118cdaa760e01b6000523360045260246000fd5b600260015414613014576002600155565b633ee5aeb560e01b60005260046000fd5b600080546001600160a01b039283166001600160a01b03198216811783559216907f8be0079c531659141344cd1fd0a4f28419497f9722a3daafe3b4186f6b6457e09080a356fea2646970667358221220f1aaca94dc4e38eb3759f5b8b374b25f9c8b0720dfd9259736b45b986df9e35364736f6c634300081e0033",
  "linkReferences": {},
  "deployedLinkReferences": {}
}