{
  "_format": "hh-sol-artifact-1",
  "contractName": "Mission",
  "sourceName": "contracts/MissionFactory.sol",
  "abi": [
    {
      "inputs": [],
      "stateMutability": "nonpayable",
      "type": "constructor"
    },
    {
      "inputs": [],
      "name": "AllRoundsDone",
      "type": "error"
    },
    {
      "inputs": [],
      "name": "AlreadyJoined",
      "type": "error"
    },
    {
      "inputs": [],
      "name": "AlreadyWon",
      "type": "error"
    },
    {
      "inputs": [],
      "name": "ContractsNotAllowed",
      "type": "error"
    },
    {
      "inputs": [
        {
          "internalType": "uint256",
          "name": "secondsLeft",
          "type": "uint256"
        }
      ],
      "name": "Cooldown",
      "type": "error"
    },
    {
      "inputs": [
        {
          "internalType": "uint256",
          "name": "nowTs",
          "type": "uint256"
        },
        {
          "internalType": "uint256",
          "name": "endTs",
          "type": "uint256"
        }
      ],
      "name": "EnrollmentClosed",
      "type": "error"
    },
    {
      "inputs": [
        {
          "internalType": "uint256",
          "name": "nowTs",
          "type": "uint256"
        },
        {
          "internalType": "uint256",
          "name": "startTs",
          "type": "uint256"
        }
      ],
      "name": "EnrollmentNotStarted",
      "type": "error"
    },
    {
      "inputs": [
        {
          "internalType": "uint8",
          "name": "maxPlayers",
          "type": "uint8"
        }
      ],
      "name": "MaxPlayers",
      "type": "error"
    },
    {
      "inputs": [],
      "name": "MissionEnded",
      "type": "error"
    },
    {
      "inputs": [
        {
          "internalType": "uint256",
          "name": "secondsLeft",
          "type": "uint256"
        }
      ],
      "name": "MonthlyLimit",
      "type": "error"
    },
    {
      "inputs": [
        {
          "internalType": "uint256",
          "name": "nowTs",
          "type": "uint256"
        },
        {
          "internalType": "uint256",
          "name": "missionStart",
          "type": "uint256"
        }
      ],
      "name": "NotActive",
      "type": "error"
    },
    {
      "inputs": [],
      "name": "NotJoined",
      "type": "error"
    },
    {
      "inputs": [
        {
          "internalType": "address",
          "name": "owner",
          "type": "address"
        }
      ],
      "name": "OwnableInvalidOwner",
      "type": "error"
    },
    {
      "inputs": [
        {
          "internalType": "address",
          "name": "account",
          "type": "address"
        }
      ],
      "name": "OwnableUnauthorizedAccount",
      "type": "error"
    },
    {
      "inputs": [
        {
          "internalType": "address",
          "name": "winner",
          "type": "address"
        },
        {
          "internalType": "uint256",
          "name": "amount",
          "type": "uint256"
        },
        {
          "internalType": "bytes",
          "name": "data",
          "type": "bytes"
        }
      ],
      "name": "PayoutFailed",
      "type": "error"
    },
    {
      "inputs": [],
      "name": "ReentrancyGuardReentrantCall",
      "type": "error"
    },
    {
      "inputs": [
        {
          "internalType": "uint256",
          "name": "secondsLeft",
          "type": "uint256"
        }
      ],
      "name": "WeeklyLimit",
      "type": "error"
    },
    {
      "inputs": [
        {
          "internalType": "uint256",
          "name": "expected",
          "type": "uint256"
        },
        {
          "internalType": "uint256",
          "name": "sent",
          "type": "uint256"
        }
      ],
      "name": "WrongEntryFee",
      "type": "error"
    },
    {
      "anonymous": false,
      "inputs": [
        {
          "indexed": false,
          "internalType": "uint256",
          "name": "ownerAmount",
          "type": "uint256"
        },
        {
          "indexed": false,
          "internalType": "uint256",
          "name": "factoryAmount",
          "type": "uint256"
        }
      ],
      "name": "FundsWithdrawn",
      "type": "event"
    },
    {
      "anonymous": false,
      "inputs": [
        {
          "indexed": true,
          "internalType": "address",
          "name": "owner",
          "type": "address"
        },
        {
          "indexed": true,
          "internalType": "enum MissionType",
          "name": "missionType",
          "type": "uint8"
        },
        {
          "indexed": false,
          "internalType": "uint256",
          "name": "timestamp",
          "type": "uint256"
        }
      ],
      "name": "MissionInitialized",
      "type": "event"
    },
    {
      "anonymous": false,
      "inputs": [
        {
          "indexed": true,
          "internalType": "uint256",
          "name": "nrOfPlayers",
          "type": "uint256"
        },
        {
          "indexed": true,
          "internalType": "uint256",
          "name": "amount",
          "type": "uint256"
        },
        {
          "indexed": true,
          "internalType": "address[]",
          "name": "player",
          "type": "address[]"
        },
        {
          "indexed": false,
          "internalType": "uint256",
          "name": "timestamp",
          "type": "uint256"
        }
      ],
      "name": "MissionRefunded",
      "type": "event"
    },
    {
      "anonymous": false,
      "inputs": [
        {
          "indexed": true,
          "internalType": "enum Status",
          "name": "previousStatus",
          "type": "uint8"
        },
        {
          "indexed": true,
          "internalType": "enum Status",
          "name": "newStatus",
          "type": "uint8"
        },
        {
          "indexed": false,
          "internalType": "uint256",
          "name": "timestamp",
          "type": "uint256"
        }
      ],
      "name": "MissionStatusChanged",
      "type": "event"
    },
    {
      "anonymous": false,
      "inputs": [
        {
          "indexed": true,
          "internalType": "address",
          "name": "previousOwner",
          "type": "address"
        },
        {
          "indexed": true,
          "internalType": "address",
          "name": "newOwner",
          "type": "address"
        }
      ],
      "name": "OwnershipTransferred",
      "type": "event"
    },
    {
      "anonymous": false,
      "inputs": [
        {
          "indexed": true,
          "internalType": "address",
          "name": "player",
          "type": "address"
        },
        {
          "indexed": false,
          "internalType": "uint256",
          "name": "amount",
          "type": "uint256"
        },
        {
          "indexed": false,
          "internalType": "uint256",
          "name": "totalPlayers",
          "type": "uint256"
        }
      ],
      "name": "PlayerEnrolled",
      "type": "event"
    },
    {
      "anonymous": false,
      "inputs": [
        {
          "indexed": true,
          "internalType": "address",
          "name": "player",
          "type": "address"
        },
        {
          "indexed": false,
          "internalType": "uint256",
          "name": "amount",
          "type": "uint256"
        }
      ],
      "name": "PlayerRefunded",
      "type": "event"
    },
    {
      "anonymous": false,
      "inputs": [
        {
          "indexed": false,
          "internalType": "uint256",
          "name": "value",
          "type": "uint256"
        },
        {
          "indexed": false,
          "internalType": "uint256",
          "name": "croCurrent",
          "type": "uint256"
        }
      ],
      "name": "PotIncreased",
      "type": "event"
    },
    {
      "anonymous": false,
      "inputs": [
        {
          "indexed": true,
          "internalType": "address",
          "name": "player",
          "type": "address"
        },
        {
          "indexed": false,
          "internalType": "uint256",
          "name": "amount",
          "type": "uint256"
        }
      ],
      "name": "RefundFailed",
      "type": "event"
    },
    {
      "anonymous": false,
      "inputs": [
        {
          "indexed": true,
          "internalType": "address",
          "name": "player",
          "type": "address"
        },
        {
          "indexed": true,
          "internalType": "uint8",
          "name": "roundNumber",
          "type": "uint8"
        },
        {
          "indexed": false,
          "internalType": "uint256",
          "name": "payout",
          "type": "uint256"
        },
        {
          "indexed": false,
          "internalType": "uint256",
          "name": "croRemaining",
          "type": "uint256"
        }
      ],
      "name": "RoundCalled",
      "type": "event"
    },
    {
      "inputs": [],
      "name": "callRound",
      "outputs": [],
      "stateMutability": "nonpayable",
      "type": "function"
    },
    {
      "inputs": [],
      "name": "checkMissionStartCondition",
      "outputs": [],
      "stateMutability": "nonpayable",
      "type": "function"
    },
    {
      "inputs": [],
      "name": "currentProgressPct",
      "outputs": [
        {
          "internalType": "uint256",
          "name": "",
          "type": "uint256"
        }
      ],
      "stateMutability": "view",
      "type": "function"
    },
    {
      "inputs": [],
      "name": "enrollPlayer",
      "outputs": [],
      "stateMutability": "payable",
      "type": "function"
    },
    {
      "inputs": [
        {
          "internalType": "address",
          "name": "",
          "type": "address"
        }
      ],
      "name": "enrolled",
      "outputs": [
        {
          "internalType": "bool",
          "name": "",
          "type": "bool"
        }
      ],
      "stateMutability": "view",
      "type": "function"
    },
    {
      "inputs": [],
      "name": "factoryShare",
      "outputs": [
        {
          "internalType": "uint256",
          "name": "",
          "type": "uint256"
        }
      ],
      "stateMutability": "view",
      "type": "function"
    },
    {
      "inputs": [
        {
          "internalType": "address",
          "name": "",
          "type": "address"
        }
      ],
      "name": "failedRefundAmounts",
      "outputs": [
        {
          "internalType": "uint256",
          "name": "",
          "type": "uint256"
        }
      ],
      "stateMutability": "view",
      "type": "function"
    },
    {
      "inputs": [],
      "name": "forceFinalizeMission",
      "outputs": [],
      "stateMutability": "nonpayable",
      "type": "function"
    },
    {
      "inputs": [],
      "name": "getFailedRefundPlayers",
      "outputs": [
        {
          "internalType": "address[]",
          "name": "",
          "type": "address[]"
        }
      ],
      "stateMutability": "view",
      "type": "function"
    },
    {
      "inputs": [],
      "name": "getMissionData",
      "outputs": [
        {
          "components": [
            {
              "internalType": "address[]",
              "name": "players",
              "type": "address[]"
            },
            {
              "internalType": "enum MissionType",
              "name": "missionType",
              "type": "uint8"
            },
            {
              "internalType": "uint256",
              "name": "enrollmentStart",
              "type": "uint256"
            },
            {
              "internalType": "uint256",
              "name": "enrollmentEnd",
              "type": "uint256"
            },
            {
              "internalType": "uint256",
              "name": "enrollmentAmount",
              "type": "uint256"
            },
            {
              "internalType": "uint8",
              "name": "enrollmentMinPlayers",
              "type": "uint8"
            },
            {
              "internalType": "uint8",
              "name": "enrollmentMaxPlayers",
              "type": "uint8"
            },
            {
              "internalType": "uint256",
              "name": "missionStart",
              "type": "uint256"
            },
            {
              "internalType": "uint256",
              "name": "missionEnd",
              "type": "uint256"
            },
            {
              "internalType": "uint8",
              "name": "missionRounds",
              "type": "uint8"
            },
            {
              "internalType": "uint8",
              "name": "roundCount",
              "type": "uint8"
            },
            {
              "internalType": "uint256",
              "name": "croStart",
              "type": "uint256"
            },
            {
              "internalType": "uint256",
              "name": "croCurrent",
              "type": "uint256"
            },
            {
              "components": [
                {
                  "internalType": "address",
                  "name": "player",
                  "type": "address"
                },
                {
                  "internalType": "uint256",
                  "name": "amountWon",
                  "type": "uint256"
                }
              ],
              "internalType": "struct Mission.PlayersWon[]",
              "name": "playersWon",
              "type": "tuple[]"
            },
            {
              "internalType": "uint256",
              "name": "pauseTimestamp",
              "type": "uint256"
            },
            {
              "internalType": "address[]",
              "name": "refundedPlayers",
              "type": "address[]"
            },
            {
              "internalType": "string",
              "name": "name",
              "type": "string"
            }
          ],
          "internalType": "struct Mission.MissionData",
          "name": "",
          "type": "tuple"
        }
      ],
      "stateMutability": "view",
      "type": "function"
    },
    {
      "inputs": [],
      "name": "getPlayerCount",
      "outputs": [
        {
          "internalType": "uint256",
          "name": "",
          "type": "uint256"
        }
      ],
      "stateMutability": "view",
      "type": "function"
    },
    {
      "inputs": [],
      "name": "getRealtimeStatus",
      "outputs": [
        {
          "internalType": "enum Status",
          "name": "",
          "type": "uint8"
        }
      ],
      "stateMutability": "view",
      "type": "function"
    },
    {
      "inputs": [],
      "name": "getWinners",
      "outputs": [
        {
          "components": [
            {
              "internalType": "address",
              "name": "player",
              "type": "address"
            },
            {
              "internalType": "uint256",
              "name": "amountWon",
              "type": "uint256"
            }
          ],
          "internalType": "struct Mission.PlayersWon[]",
          "name": "",
          "type": "tuple[]"
        }
      ],
      "stateMutability": "view",
      "type": "function"
    },
    {
      "inputs": [
        {
          "internalType": "address",
          "name": "",
          "type": "address"
        }
      ],
      "name": "hasWon",
      "outputs": [
        {
          "internalType": "bool",
          "name": "",
          "type": "bool"
        }
      ],
      "stateMutability": "view",
      "type": "function"
    },
    {
      "inputs": [],
      "name": "increasePot",
      "outputs": [],
      "stateMutability": "payable",
      "type": "function"
    },
    {
      "inputs": [
        {
          "internalType": "address",
          "name": "_owner",
          "type": "address"
        },
        {
          "internalType": "address",
          "name": "_missionFactory",
          "type": "address"
        },
        {
          "internalType": "enum MissionType",
          "name": "_missionType",
          "type": "uint8"
        },
        {
          "internalType": "uint256",
          "name": "_enrollmentStart",
          "type": "uint256"
        },
        {
          "internalType": "uint256",
          "name": "_enrollmentEnd",
          "type": "uint256"
        },
        {
          "internalType": "uint256",
          "name": "_enrollmentAmount",
          "type": "uint256"
        },
        {
          "internalType": "uint8",
          "name": "_enrollmentMinPlayers",
          "type": "uint8"
        },
        {
          "internalType": "uint8",
          "name": "_enrollmentMaxPlayers",
          "type": "uint8"
        },
        {
          "internalType": "uint256",
          "name": "_missionStart",
          "type": "uint256"
        },
        {
          "internalType": "uint256",
          "name": "_missionEnd",
          "type": "uint256"
        },
        {
          "internalType": "uint8",
          "name": "_missionRounds",
          "type": "uint8"
        },
        {
          "internalType": "string",
          "name": "_name",
          "type": "string"
        }
      ],
      "name": "initialize",
      "outputs": [],
      "stateMutability": "payable",
      "type": "function"
    },
    {
      "inputs": [],
      "name": "isArming",
      "outputs": [
        {
          "internalType": "bool",
          "name": "",
          "type": "bool"
        }
      ],
      "stateMutability": "view",
      "type": "function"
    },
    {
      "inputs": [],
      "name": "isFinalized",
      "outputs": [
        {
          "internalType": "bool",
          "name": "",
          "type": "bool"
        }
      ],
      "stateMutability": "view",
      "type": "function"
    },
    {
      "inputs": [
        {
          "internalType": "address",
          "name": "addr",
          "type": "address"
        }
      ],
      "name": "isPlayer",
      "outputs": [
        {
          "internalType": "bool",
          "name": "",
          "type": "bool"
        }
      ],
      "stateMutability": "view",
      "type": "function"
    },
    {
      "inputs": [],
      "name": "missionFactory",
      "outputs": [
        {
          "internalType": "contract MissionFactory",
          "name": "",
          "type": "address"
        }
      ],
      "stateMutability": "view",
      "type": "function"
    },
    {
      "inputs": [],
      "name": "missionStartConditionChecked",
      "outputs": [
        {
          "internalType": "bool",
          "name": "",
          "type": "bool"
        }
      ],
      "stateMutability": "view",
      "type": "function"
    },
    {
      "inputs": [],
      "name": "owner",
      "outputs": [
        {
          "internalType": "address",
          "name": "",
          "type": "address"
        }
      ],
      "stateMutability": "view",
      "type": "function"
    },
    {
      "inputs": [],
      "name": "ownerShare",
      "outputs": [
        {
          "internalType": "uint256",
          "name": "",
          "type": "uint256"
        }
      ],
      "stateMutability": "view",
      "type": "function"
    },
    {
      "inputs": [
        {
          "internalType": "address",
          "name": "player",
          "type": "address"
        }
      ],
      "name": "pendingPayout",
      "outputs": [
        {
          "internalType": "uint256",
          "name": "",
          "type": "uint256"
        }
      ],
      "stateMutability": "view",
      "type": "function"
    },
    {
      "inputs": [
        {
          "internalType": "address",
          "name": "player",
          "type": "address"
        }
      ],
      "name": "playerState",
      "outputs": [
        {
          "internalType": "bool",
          "name": "joined",
          "type": "bool"
        },
        {
          "internalType": "bool",
          "name": "won",
          "type": "bool"
        }
      ],
      "stateMutability": "view",
      "type": "function"
    },
    {
      "inputs": [],
      "name": "refundPlayers",
      "outputs": [],
      "stateMutability": "nonpayable",
      "type": "function"
    },
    {
      "inputs": [
        {
          "internalType": "address",
          "name": "",
          "type": "address"
        }
      ],
      "name": "refunded",
      "outputs": [
        {
          "internalType": "bool",
          "name": "",
          "type": "bool"
        }
      ],
      "stateMutability": "view",
      "type": "function"
    },
    {
      "inputs": [],
      "name": "remainingRounds",
      "outputs": [
        {
          "internalType": "uint8",
          "name": "",
          "type": "uint8"
        }
      ],
      "stateMutability": "view",
      "type": "function"
    },
    {
      "inputs": [],
      "name": "renounceOwnership",
      "outputs": [],
      "stateMutability": "nonpayable",
      "type": "function"
    },
    {
      "inputs": [],
      "name": "secondsUntilNextRound",
      "outputs": [
        {
          "internalType": "uint256",
          "name": "",
          "type": "uint256"
        }
      ],
      "stateMutability": "view",
      "type": "function"
    },
    {
      "inputs": [
        {
          "internalType": "address",
          "name": "newOwner",
          "type": "address"
        }
      ],
      "name": "transferOwnership",
      "outputs": [],
      "stateMutability": "nonpayable",
      "type": "function"
    },
    {
      "inputs": [
        {
          "internalType": "address",
          "name": "addr",
          "type": "address"
        }
      ],
      "name": "wasRefunded",
      "outputs": [
        {
          "internalType": "bool",
          "name": "",
          "type": "bool"
        }
      ],
      "stateMutability": "view",
      "type": "function"
    },
    {
      "inputs": [],
      "name": "withdrawFunds",
      "outputs": [],
      "stateMutability": "nonpayable",
      "type": "function"
    }
  ],
  "bytecode": "0x608080604052346083573315606d5760008054336001600160a01b0319821681178355916001600160a01b03909116907f8be0079c531659141344cd1fd0a4f28419497f9722a3daafe3b4186f6b6457e09080a36001805560ff196009541660095561329b90816100898239f35b631e4fbdf760e01b600052600060045260246000fd5b600080fdfe608080604052600436101561001357600080fd5b600090813560e01c9081623e16a514611ebd5750806309c95e1014611e7357806310eb0e0e14611e345780631212484814611d0357806324600fc314611c49578063268b2b5114611c1b578063293c221314611bf85780635407441f14611bdd5780635e83e15c146116b757806368c6ba211461168f578063715018a6146116355780637475a4cb1461128a5780637ce17de414610ee95780637cf61b6914610d5a5780638d4e408314610d0f5780638da5cb5b14610ce85780638f1c315114610cca578063987c543a1461084257806398bdae4314610788578063a52b2b8814610749578063a7e22a3e14610723578063ad1ca6bf14610662578063b2a4a5d214610629578063c033a490146105ea578063c2e52206146105cc578063dd1121f614610598578063df15c37e146104b1578063e6810a501461048d578063eb2bab771461027d578063f2fde38b1461022c578063fa4cf5a114610203578063fb84e12f146101e05763fcca0c841461018b57600080fd5b346101dd5760203660031901126101dd5760409060ff826001600160a01b036101b2611ed9565b1692838152600360205282828220541693815260046020522054168251911515825215156020820152f35b80fd5b50346101dd57806003193601126101dd5760206101fb61270e565b604051908152f35b50346101dd57806003193601126101dd576002546040516001600160a01b039091168152602090f35b50346101dd5760203660031901126101dd57610246611ed9565b61024e612d2b565b6001600160a01b038116156102695761026690612ce4565b80f35b631e4fbdf760e01b82526004829052602482fd5b50806003193601126101dd5734156104585760018060a01b03600254168033149081156103d9575b5080156103c6575b15610375576102ba612777565b6008811015610361576003111561031c576102d73460135461229c565b6013557f7272b264c9ef2a1e8e9303944736f4977b14a5761227b7b9869fecaa60f8938760406103093460145461229c565b806014558151903482526020820152a180f35b60405162461bcd60e51b815260206004820152601960248201527f4d697373696f6e207061737365642061637469766174696f6e000000000000006044820152606490fd5b634e487b7160e01b82526021600452602482fd5b60405162461bcd60e51b815260206004820152602360248201527f4f6e6c7920666163746f7279206f7220617574686f72697a65642063616e20666044820152621d5b9960ea1b6064820152608490fd5b5080546001600160a01b031633146102ad565b60405163b918161160e01b81523360048201529150602090829060249082905afa90811561044d57829161040f575b50386102a5565b90506020813d602011610445575b8161042a60209383612063565b810103126104415761043b90612085565b38610408565b5080fd5b3d915061041d565b6040513d84823e3d90fd5b60405162461bcd60e51b815260206004820152600d60248201526c139bc8199d5b991cc81cd95b9d609a1b6044820152606490fd5b50346101dd5760203660031901126101dd5760206101fb6104ac611ed9565b612600565b50346101dd57806003193601126101dd576104ca612777565b600881101561036157600614908115610566575b5015610507576105036104ef612412565b604051918291602083526020830190611f4c565b0390f35b60405162461bcd60e51b815260206004820152603160248201527f4d697373696f6e206973206e6f7420696e2053756363657373206f7220506172604482015270746c79537563636573732073746174757360781b6064820152608490fd5b9050610570612777565b9060088210156105845750600514386104de565b634e487b7160e01b81526021600452602490fd5b50346101dd57806003193601126101dd57600d544211806105c1575b6020906040519015158152f35b5060105442106105b4565b50346101dd57806003193601126101dd576020600a54604051908152f35b50346101dd5760203660031901126101dd5760209060ff906040906001600160a01b03610615611ed9565b168152600584522054166040519015158152f35b50346101dd5760203660031901126101dd576020906040906001600160a01b03610651611ed9565b168152600683522054604051908152f35b50346101dd57806003193601126101dd5761067b612755565b80546001600160a01b0316331480156106a7575b61069890612092565b6106a06124e6565b6001805580f35b5060025460405163b918161160e01b815233600482015290602090829060249082906001600160a01b03165afa801561044d5782906106e8575b905061068f565b506020813d60201161071b575b8161070260209383612063565b810103126104415761071661069891612085565b6106e1565b3d91506106f5565b50346101dd57806003193601126101dd57602061073e61249b565b60ff60405191168152f35b50346101dd5760203660031901126101dd5760209060ff906040906001600160a01b03610774611ed9565b168152600484522054166040519015158152f35b50346101dd57806003193601126101dd576107a1612755565b80546001600160a01b0316331480156107c6575b6107be90612092565b6106a0612d54565b5060025460405163b918161160e01b815233600482015290602090829060249082906001600160a01b03165afa801561044d578290610807575b90506107b5565b506020813d60201161083a575b8161082160209383612063565b81010312610441576108356107be91612085565b610800565b3d9150610814565b50806003193601126101dd57610856612755565b333b610cbc57600c54804210610ca65750600d54804211610c905750600a5460ff600f5460081c1680911015610c7e5750600e54803403610c685750338152600360205260ff604082205416610c5a5760025460408051634c0252c360e11b81523360048201526001600160a01b0390921692919081602481865afa90811561044d5782908392610c0c575b5015610b045750600a54600160401b811015610af05780600161090a9201600a55600a61215b565b81549060031b9033821b9160018060a01b03901b1916179055338152600360205260408120600160ff198254161790556109463460135461229c565b6013556109553460145461229c565b60145580600181610ae3575b8015610ad6575b8015610ac9575b610a66575b6105845760195460ff8160081c16906008821015610a50576101009060016000936000805160206132268339815191526020604051428152a361ff0019161760195560025481906001600160a01b0316803b15610a4d5781809160246040518095819363c17f9e5960e01b83523360048401525af18015610a4057610a30575b600a546040519034825260208201527fbedd10d90b8962eb521114c7e2b49019403d371ffa1e46afbda7a3f1fde8f06f60403392a26001805580f35b610a3991612063565b81816109f4565b50604051903d90823e3d90fd5b50fd5b634e487b7160e01b600052602160045260246000fd5b506002546001600160a01b0316803b156104415760405163d8d6e8ff60e01b815260016004820152829182908290602490829084905af190811561044d578291610ab2575b5050610974565b81610abc91612063565b610ac7578083610aab565bfd5b506105845780600061096f565b5061058457806000610968565b5061058457806000610961565b634e487b7160e01b82526041600452602482fd5b6024926003821015610bf957602091600103610b8c576040516377f855c960e11b815233600482015293849182905afa8015610a40578190610b54575b631b62787960e31b825260045260249150fd5b506020823d602011610b84575b81610b6e60209383612063565b81010312610b7f5760249151610b41565b600080fd5b3d9150610b61565b604051631b8093b160e11b815233600482015293849182905afa8015610a40578190610bc6575b63147ce66f60e31b825260045260249150fd5b506020823d602011610bf1575b81610be060209383612063565b81010312610b7f5760249151610bb3565b3d9150610bd3565b5050634e487b7160e01b81526021600452fd5b9150506040813d604011610c52575b81610c2860409383612063565b81010312610441576020610c3b82612085565b910151906003821015610c4e57386108e2565b8280fd5b3d9150610c1b565b621d934160e11b8152600490fd5b6354d7a6b360e01b825260045234602452604490fd5b63647bcfa160e01b8252600452602490fd5b63166450c960e31b825242600452602452604490fd5b634cd01efb60e11b825242600452602452604490fd5b628b531560e01b8152600490fd5b50346101dd57806003193601126101dd576020600754604051908152f35b50346101dd57806003193601126101dd57546040516001600160a01b039091168152602090f35b50346101dd57806003193601126101dd57610d28612777565b9060088210156105845781600660209314918215610d4d575b50506040519015158152f35b6007925050143880610d41565b50346101dd57806003193601126101dd57610d73612777565b6008811015610361576007610d8891146120de565b600a5481805b828110610ea15750610db8610da282612317565b91610db06040519384612063565b808352612317565b602082019290601f190136843783845b828110610e1d5750505090604051928392602084019060208552518091526040840192915b818110610dfb575050500390f35b82516001600160a01b0316845285945060209384019390920191600101610ded565b610e268161212a565b905460039190911b1c6001600160a01b0316865260066020526040862054610e51575b600101610dc8565b610e5a8161212a565b905460039190911b1c6001600160a01b0316610e758361248c565b928551811015610e8d5760051b850160200152610e49565b634e487b7160e01b88526032600452602488fd5b610eaa8161212a565b905460039190911b1c6001600160a01b0316845260066020526040842054610ed5575b600101610d8e565b90610ee160019161248c565b919050610ecd565b50346101dd57806003193601126101dd576060610200604051610f0b81612046565b82815283602082015283604082015283838201528360808201528360a08201528360c08201528360e08201528361010082015283610120820152836101408201528361016082015283610180820152826101a0820152836101c0820152826101e08201520152604051610f7d81612046565b604051600a548082528160208101600a86526020862092865b818110611268575050610fab92500382612063565b815260ff600b54166007811015611254576020820152600c546040820152600d546060820152600e54608082015260ff600f5481811660a084015260081c1660c082015260105460e082015260115461010082015260ff60125481811661012084015260081c16610140820152601354610160820152601454610180820152611032612412565b6101a08201526016546101c08201526040516017548082528160208101601786526020862092865b81811061123257505061106f92500382612063565b6101e08201526040516018548361108582612359565b808452916001811690811561120a57506001146111c5575b50506110ae81610503940382612063565b610200820152604051918291602083526102006111b061118e6110df84516102206020890152610240880190611f02565b6110f160208601516040890190611f3f565b6040850151606088015260608501516080880152608085015160a088015260ff60a08601511660c088015260ff60c08601511660e088015260e085015161010088015261010085015161012088015260ff6101208601511661014088015260ff610140860151166101608801526101608501516101808801526101808501516101a08801526101a0850151601f19888303016101c0890152611f4c565b6101c08401516101e08701526101e0840151601f198783030184880152611f02565b910151838203601f1901610220850152611f95565b601881529093506000805160206132468339815191525b8482106111f45750810160200192506110ae8161109d565b60018160209254838587010152019101906111dc565b610503965084925060209150926110ae9360ff191682840152151560051b820101945061109d565b84546001600160a01b031683526001948501948694506020909301920161105a565b634e487b7160e01b83526021600452602483fd5b84546001600160a01b0316835260019485019486945060209093019201610f96565b50346101dd57806003193601126101dd576112a3612755565b6112ab612777565b600881101561036157600481146115d957600381106115c0576003106115b157338152600460205260ff6040822054166115a257338152600360205260ff604082205416156115935760125460ff8160081c169060ff81168210156115845760105461131781426122a9565b90606482029180830460641490151715611568579061133b611341926011546122a9565b90612393565b601554801561157c576000198101908111611568576113616001916123b3565b500154905b6064820291808304606414901517156115685760649161139661139b926113906013548094612393565b906122a9565b61232f565b04916113a9836014546122a9565b60145560ff811461155457600161ff00910160081b169061ff00191617601255338252600460205260408220600160ff198254161790556040516113ec81612014565b338152816020820152601554600160401b8110156115405780600161141492016015556123b3565b61152c57815181546001600160a01b0319166001600160a01b03919091161781556020909101516001909101558180808084335af16114516123d2565b90156114f8575060ff601254818160081c16809360145460405191825260208201527fbbdd894f5e6d754c18172761a1a461095c26de58905e706a8c33657573d4067260403392a316036114af576114a761287a565b6106a0612a0b565b5060004260165560195460ff8160081c1690600882101561125457826004610400936000805160206132268339815191526020604051428152a35061ff001916176019556106a0565b9061152860405192839263d086db4360e01b84523360048501526024840152606060448401526064830190611f95565b0390fd5b634e487b7160e01b84526004849052602484fd5b634e487b7160e01b84526041600452602484fd5b634e487b7160e01b84526011600452602484fd5b634e487b7160e01b85526011600452602485fd5b508390611366565b6321b94f7b60e21b8352600483fd5b63c394a43360e01b8152600490fd5b6302ab8f8960e11b8152600490fd5b630d6a05df60e41b8152600490fd5b6010546316f5e3b760e21b835242600452602452604482fd5b60248260125460ff806115f0818460081c16612274565b921691161460001461162a57611618603c5b61161361ffff42921660165461229c565b6122a9565b600162269d7960e21b03198252600452fd5b61161861012c611602565b50346101dd57806003193601126101dd5761164e612d2b565b80546001600160a01b03198116825581906001600160a01b03167f8be0079c531659141344cd1fd0a4f28419497f9722a3daafe3b4186f6b6457e08280a380f35b50346101dd57806003193601126101dd576105036116ab612777565b60405191829182611eef565b506101803660031901126101dd576116cd611ed9565b6024356001600160a01b0381169190829003610c4e57604435916007831015611bd95760c4359060ff8216809203611bd55760e43560ff81168103611bd157610144359060ff8216809203611bcd57610164359367ffffffffffffffff8511611bc95736602386011215611bc95784600401359367ffffffffffffffff8511611bc5573660248688010111611bc557611764612755565b60195460ff8116611b8a5760ff191660011760195561178287612ce4565b6bffffffffffffffffffffffff60a01b600254161760025560ff19600b541660ff881617600b55606435600c55608435600d5560a435600e5561ff00600f549260081b169161ffff19161717600f55610104356010556101243560115561ffff1960125416176012553460135534601455846016556020916040516118078482612063565b8681528636813780519067ffffffffffffffff8211611ae757600160401b8211611ae7578490600a5483600a55808410611b36575b5001600a8852875b828110611afb5750505060405161185b8482612063565b8681528690600160401b8211611ae757849060155483601555808410611a63575b5001601588526000805160206132068339815191528589925b848410611a255750505050506118ac601854612359565b601f81116119c5575b508590601f831160011461192d577fe9597995b7a2af444cc28b2b776b88b1253d701282a9bcf902d4f59750df7c5793929187918361191f575b50508160011b916000199060031b1c1916176018555b6040514281526001600160a01b0390931692a36001805580f35b6024925001013538806118ef565b6018875260008051602061324683398151915291601f198416885b8181106119ab57509160019391857fe9597995b7a2af444cc28b2b776b88b1253d701282a9bcf902d4f59750df7c579796941061198e575b505050811b01601855611905565b0160240135600019600384901b60f8161c19169055388080611980565b919386600181926024888801013581550195019201611948565b611a099060188852601f840160051c6000805160206132468339815191520190858510611a0f575b601f0160051c6000805160206132468339815191520190612342565b386118b5565b60008051602061324683398151915291506119ed565b8051805184546001600160a01b0319166001600160a01b03919091161784556020015160018481019190915591600291019201920191908690611895565b9091506001600160ff1b0381168103611ad3576001600160ff1b0383168303611ad35790859160011b600080516020613206833981519152018360011b600080516020613206833981519152015b818110611abe575061187c565b8a8155600181018b9055879350600201611ab1565b634e487b7160e01b89526011600452602489fd5b634e487b7160e01b88526041600452602488fd5b81516001600160a01b03167fc65a7bb8d6351c1cf70c95a316cc6a92839c986682d98bc35f958f4883f9d2a882015590850190600101611844565b611b84907fc65a7bb8d6351c1cf70c95a316cc6a92839c986682d98bc35f958f4883f9d2a801847fc65a7bb8d6351c1cf70c95a316cc6a92839c986682d98bc35f958f4883f9d2a801612342565b3861183c565b60405162461bcd60e51b8152602060048201526013602482015272105b1c9958591e481a5b9a5d1a585b1a5e9959606a1b6044820152606490fd5b8880fd5b8780fd5b8680fd5b8580fd5b8480fd5b8380fd5b50346101dd57806003193601126101dd5760206101fb6122b6565b50346101dd57806003193601126101dd57602060ff600954166040519015158152f35b50346101dd5760203660031901126101dd576020611c3f611c3a611ed9565b612173565b6040519015158152f35b50346101dd57806003193601126101dd57611c62612755565b80546001600160a01b031633148015611c87575b611c7f90612092565b6106a0612c82565b5060025460405163b918161160e01b815233600482015290602090829060249082906001600160a01b03165afa801561044d578290611cc8575b9050611c76565b506020813d602011611cfb575b81611ce260209383612063565b8101031261044157611cf6611c7f91612085565b611cc1565b3d9150611cd5565b50346101dd57806003193601126101dd5780546001600160a01b031633148015611db8575b611d3190612092565b611d39612755565b611d41612777565b6008811015610361576005148015611d9e575b15611d61576114a761287a565b60405162461bcd60e51b8152602060048201526015602482015274135a5cdcda5bdb881b9bdd08195b991959081e595d605a1b6044820152606490fd5b50611da7612777565b600881101561036157600614611d54565b5060025460405163b918161160e01b815233600482015290602090829060249082906001600160a01b03165afa801561044d578290611df9575b9050611d28565b506020813d602011611e2c575b81611e1360209383612063565b8101031261044157611e27611d3191612085565b611df2565b3d9150611e06565b50346101dd5760203660031901126101dd5760209060ff906040906001600160a01b03611e5f611ed9565b168152600384522054166040519015158152f35b50346101dd5760203660031901126101dd5760209060ff906040906001600160a01b03611e9e611ed9565b16611eaa811515611fd6565b8152600384522054166040519015158152f35b9050346104415781600319360112610441576020906008548152f35b600435906001600160a01b0382168203610b7f57565b919060208301926008821015610a505752565b906020808351928381520192019060005b818110611f205750505090565b82516001600160a01b0316845260209384019390920191600101611f13565b906007821015610a505752565b906020808351928381520192019060005b818110611f6a5750505090565b825180516001600160a01b031685526020908101518186015260409094019390920191600101611f5d565b919082519283825260005b848110611fc1575050826000602080949584010152601f8019910116010190565b80602080928401015182828601015201611fa0565b15611fdd57565b60405162461bcd60e51b815260206004820152600f60248201526e496e76616c6964206164647265737360881b6044820152606490fd5b6040810190811067ffffffffffffffff82111761203057604052565b634e487b7160e01b600052604160045260246000fd5b610220810190811067ffffffffffffffff82111761203057604052565b90601f8019910116810190811067ffffffffffffffff82111761203057604052565b51908115158203610b7f57565b1561209957565b60405162461bcd60e51b815260206004820152601760248201527f4e6f74206f776e6572206f7220617574686f72697a65640000000000000000006044820152606490fd5b156120e557565b60405162461bcd60e51b815260206004820152601f60248201527f4d697373696f6e206973206e6f7420696e204661696c656420737461747573006044820152606490fd5b600a5481101561214557600a60005260206000200190600090565b634e487b7160e01b600052603260045260246000fd5b80548210156121455760005260206000200190600090565b61217b612777565b6008811015610a5057600761219091146120de565b6001600160a01b03166121a4811515611fd6565b80600052600360205260ff604060002054161561223957601754908160005b8381106121d35750505050600090565b60008282101561222557601790527fc624b66cc0138b8fabc209247f72d758e1cf3343756d543badbf24212bed8c158101546001600160a01b0316831461221c576001016121c3565b50505050600190565b634e487b7160e01b81526032600452602490fd5b60405162461bcd60e51b8152602060048201526013602482015272141b185e595c881b9bdd08195b9c9bdb1b1959606a1b6044820152606490fd5b60ff60019116019060ff821161228657565b634e487b7160e01b600052601160045260246000fd5b9190820180921161228657565b9190820391821161228657565b6122be612777565b6008811015610a50576004036123125760125460ff806122e2818460081c16612274565b921691161460001461230757612304603c61161361ffff42921660165461229c565b90565b61230461012c611602565b600090565b67ffffffffffffffff81116120305760051b60200190565b8181029291811591840414171561228657565b81811061234d575050565b60008155600101612342565b90600182811c92168015612389575b602083101461237357565b634e487b7160e01b600052602260045260246000fd5b91607f1691612368565b811561239d570490565b634e487b7160e01b600052601260045260246000fd5b60155481101561214557601560005260206000209060011b0190600090565b3d1561240d573d9067ffffffffffffffff82116120305760405191612401601f8201601f191660200184612063565b82523d6000602084013e565b606090565b6015549061241f82612317565b9161242d6040519384612063565b80835260156000908152600080516020613206833981519152602085015b8383106124585750505050565b6002602060019260405161246b81612014565b848060a01b038654168152848601548382015281520192019201919061244b565b60001981146122865760010190565b6124a3612777565b6008811015610a5057600381149081156124db575b506124c257600090565b60125460ff808260081c1691160360ff81116122865790565b6004915014386124b8565b600d544211806125f5575b1561258a5760095460ff81166125455760ff1916600117600955600a541561253557600a5460ff600f54161161252357565b61252b612927565b612533612d54565b565b61253d612927565b612533612c82565b60405162461bcd60e51b815260206004820152601f60248201527f416c726561647920636865636b656420737461727420636f6e646974696f6e006044820152606490fd5b60405162461bcd60e51b815260206004820152603860248201527f4d697373696f6e206e6f7420696e2061726d696e672077696e646f772e20436160448201527f6c6c20726566756e64506c617965727320696e737465616400000000000000006064820152608490fd5b5060105442106124f1565b612608612777565b6008811015610a505760038114159081612702575b506126fc576001600160a01b031660008181526003602052604090205460ff16156126fc57600052600460205260ff60406000205416612312576010548042106126fc57601154804210156126f55761267682426122a9565b90606482029180830460641490151715612286576126979261133b916122a9565b601554600081156126ed57506000198101908111612286576126ba6001916123b3565b500154905b606482029180830460641490151715612286576064916113966126e9926113906013548094612393565b0490565b9050906126bf565b5050600090565b50600090565b6004915014153861261d565b6010548042106126fc576011548042101561274e5761272d82426122a9565b90606482029180830460641490151715612286576123049261133b916122a9565b5050606490565b600260015414612766576002600155565b633ee5aeb560e01b60005260046000fd5b60ff60195460081c166008811015610a5057600681148015612870575b6123045750600c54421061231257600d5442111561286b57600a5460ff600f541611612866576010544210612861576011544210156128375760125460ff808260081c169116808210156128305760165490816127f357505050600390565b60ff61280161281494612274565b16036128255761ffff603c5b169061229c565b42101561282057600490565b600390565b61ffff61012c61280d565b5050600690565b60125460ff8160081c1690811561285a5760ff161161285557600690565b600590565b5050600790565b600290565b600790565b600190565b5060078114612794565b6002546000906001600160a01b0316803b15610b7f5760405163d8d6e8ff60e01b815260066004820152906000908290602490829084905af1801561291b57612906575b5080610584575060195460ff8160081c16906008821015610a50576106009160066000916000805160206132268339815191526020604051428152a35061ff00191617601955565b6129139150600090612063565b6000386128be565b6040513d6000823e3d90fd5b6002546000906001600160a01b0316803b15610b7f5760405163d8d6e8ff60e01b815260076004820152906000908290602490829084905af1801561291b576129b3575b5080610584575060195460ff8160081c16906008821015610a50576107009160076000916000805160206132268339815191526020604051428152a35061ff00191617601955565b6129c09150600090612063565b60003861296b565b156129cf57565b60405162461bcd60e51b81526020600482015260146024820152734e6f2066756e647320746f20776974686472617760601b6044820152606490fd5b600090612a16612777565b6008811015611254576006148015612c68575b15610441574791612a3b8315156129c8565b600a5415612c5b575b5060008081600a545b808210612c2257505083612a689293948211612c1a576122a9565b8015612a7481156129c8565b60198202908282046019141715612c06576064612a93910480926122a9565b600254604051638da5cb5b60e01b815291939190602090829060049082906001600160a01b03165afa90811561044d57829184918391612bbe575b50829182918291906001600160a01b03165af1612ae96123d2565b5015612b815760018060a01b036002541660ff600b5416813b15610c4e57612b2b6024849287604051958694859363a9bea78960e01b85526004850190611f3f565b5af1801561044d57612b71575b50507fd66662c0ded9e58fd31d5e44944bcfd07ffc15e6927ecc1382e7941cb7bd24c460408051838152846020820152a1600755600855565b81612b7b91612063565b38612b38565b60405162461bcd60e51b815260206004820152601560248201527413dddb995c881d1c985b9cd9995c8819985a5b1959605a1b6044820152606490fd5b925050506020813d602011612bfe575b81612bdb60209383612063565b8101031261044157516001600160a01b0381168103610441578190839082612ace565b3d9150612bce565b634e487b7160e01b83526011600452602483fd5b9050806122a9565b9091612c53600191612c338561212a565b848060a01b0391549060031b1c168652600660205260408620549061229c565b920190612a4d565b612c63612927565b612a44565b50612c71612777565b600881101561125457600714612a29565b612c8a612777565b6000906008811015610361576006148015612cca575b156101dd57478015612a748115612cb6816129c8565b600a546129c857612cc5612927565b6129c8565b50612cd3612777565b600881101561036157600714612ca0565b600080546001600160a01b039283166001600160a01b03198216811783559216907f8be0079c531659141344cd1fd0a4f28419497f9722a3daafe3b4186f6b6457e09080a3565b6000546001600160a01b03163303612d3f57565b63118cdaa760e01b6000523360045260246000fd5b612d5c612777565b906000916008811015611254576007036131c057600a541561318457600190825b600a54811015612ec957612d908161212a565b905460039190911b1c6001600160a01b03168085526005602052604085205460ff1615612dc1575b50600101612d7d565b84808080600e54855af1612dd36123d2565b5015612e7457808552600560205260408520805460ff19166001179055601754600160401b811015612e605790612e1482600180959401601755601761215b565b81549060031b9083821b91868060a01b03901b19161790557f48d31f1c958cd44f1f83a52ae2dfaf61e88a1b82c07a6d5711a4abef60b6531e6020600e54604051908152a25b90612db8565b634e487b7160e01b86526041600452602486fd5b909250600e548185526006602052612e916040862091825461229c565b90557faf73b0b217208b61be286bbc37095bce7eb8b9ccf617244c2f0f154e8e04e3ff6020600e54604051908152a260018392612e5a565b509190612ed4612927565b47612f6d575b5060175490600e54906040518091829190601781527fc624b66cc0138b8fabc209247f72d758e1cf3343756d543badbf24212bed8c15905b868110612f4b575050039020917fbb93c7c839bddd97272c8e974d54d30adfa3aa55df63a52f02b7192efd361a246020604051428152a4565b81546001600160a01b0316835284935060209092019160019182019101612f12565b612f75612777565b600881101561125457600614801561316a575b15610441574790612f9a8215156129c8565b600a541561315d575b1561311c575b8015612fb581156129c8565b60198202908282046019141715612c06576064612fd4910480926122a9565b600254604051638da5cb5b60e01b815291929190602090829060049082906001600160a01b03165afa9081156130c9578491839183916130d4575b50829182918291906001600160a01b03165af161302a6123d2565b5015612b815760018060a01b036002541660ff600b5416813b15611bd55761306c6024869286604051958694859363a9bea78960e01b85526004850190611f3f565b5af180156130c9576130b5575b507fd66662c0ded9e58fd31d5e44944bcfd07ffc15e6927ecc1382e7941cb7bd24c460408051838152846020820152a160075560085538612eda565b836130c291949294612063565b9138613079565b6040513d86823e3d90fd5b925050506020813d602011613114575b816130f160209383612063565b81010312611bd957516001600160a01b0381168103611bd957839082908261300f565b3d91506130e4565b91908081600a545b8082106131445750508361313f9293948211612c1a576122a9565b612fa9565b9091613155600191612c338561212a565b920190613124565b613165612927565b612fa3565b50613173612777565b600881101561125457600714612f88565b60405162461bcd60e51b8152602060048201526014602482015273139bc81c1b185e595c9cc81d1bc81c99599d5b9960621b6044820152606490fd5b60405162461bcd60e51b815260206004820152601c60248201527f4d697373696f6e206e6f7420696e204661696c656420737461747573000000006044820152606490fdfe55f448fdea98c4d29eb340757ef0a66cd03dbb9538908a6a81d96026b71ec47539ba628632d48c45c7f562c07db20a44cf68423691d5d79b20f87ba84138aedfb13d2d76d1f4b7be834882e410b3e3a8afaf69f83600ae24db354391d2378d2ea2646970667358221220efc31a4e2975c1a7af59afe8b066451f2edc2019b188e579b95e2bc4c330536a64736f6c634300081e0033",
  "linkReferences": {},
  "deployedLinkReferences": {}
}