{
  "_format": "hh-sol-artifact-1",
  "contractName": "MissionFactory",
  "sourceName": "contracts/MissionFactory.sol",
  "abi": [
    {
      "inputs": [
        {
          "internalType": "address",
          "name": "_impl",
          "type": "address"
        }
      ],
      "stateMutability": "nonpayable",
      "type": "constructor"
    },
    {
      "inputs": [],
      "name": "FailedDeployment",
      "type": "error"
    },
    {
      "inputs": [
        {
          "internalType": "uint256",
          "name": "balance",
          "type": "uint256"
        },
        {
          "internalType": "uint256",
          "name": "needed",
          "type": "uint256"
        }
      ],
      "name": "InsufficientBalance",
      "type": "error"
    },
    {
      "inputs": [
        {
          "internalType": "address",
          "name": "owner",
          "type": "address"
        }
      ],
      "name": "OwnableInvalidOwner",
      "type": "error"
    },
    {
      "inputs": [
        {
          "internalType": "address",
          "name": "account",
          "type": "address"
        }
      ],
      "name": "OwnableUnauthorizedAccount",
      "type": "error"
    },
    {
      "inputs": [],
      "name": "ReentrancyGuardReentrantCall",
      "type": "error"
    },
    {
      "anonymous": false,
      "inputs": [
        {
          "indexed": true,
          "internalType": "address",
          "name": "addr",
          "type": "address"
        }
      ],
      "name": "AuthorizedAddressAdded",
      "type": "event"
    },
    {
      "anonymous": false,
      "inputs": [
        {
          "indexed": true,
          "internalType": "address",
          "name": "addr",
          "type": "address"
        }
      ],
      "name": "AuthorizedAddressRemoved",
      "type": "event"
    },
    {
      "anonymous": false,
      "inputs": [
        {
          "indexed": true,
          "internalType": "address",
          "name": "to",
          "type": "address"
        },
        {
          "indexed": false,
          "internalType": "uint256",
          "name": "amount",
          "type": "uint256"
        }
      ],
      "name": "FundsWithdrawn",
      "type": "event"
    },
    {
      "anonymous": false,
      "inputs": [
        {
          "indexed": true,
          "internalType": "address",
          "name": "mission",
          "type": "address"
        },
        {
          "indexed": false,
          "internalType": "string",
          "name": "name",
          "type": "string"
        },
        {
          "indexed": false,
          "internalType": "enum MissionType",
          "name": "missionType",
          "type": "uint8"
        },
        {
          "indexed": false,
          "internalType": "uint256",
          "name": "enrollmentStart",
          "type": "uint256"
        },
        {
          "indexed": false,
          "internalType": "uint256",
          "name": "enrollmentEnd",
          "type": "uint256"
        },
        {
          "indexed": false,
          "internalType": "uint8",
          "name": "minPlayers",
          "type": "uint8"
        },
        {
          "indexed": false,
          "internalType": "uint8",
          "name": "maxPlayers",
          "type": "uint8"
        },
        {
          "indexed": false,
          "internalType": "uint8",
          "name": "roundPauseDuration",
          "type": "uint8"
        },
        {
          "indexed": false,
          "internalType": "uint8",
          "name": "lastRoundPauseDuration",
          "type": "uint8"
        },
        {
          "indexed": false,
          "internalType": "uint256",
          "name": "enrollmentAmount",
          "type": "uint256"
        },
        {
          "indexed": false,
          "internalType": "uint256",
          "name": "missionStart",
          "type": "uint256"
        },
        {
          "indexed": false,
          "internalType": "uint256",
          "name": "missionEnd",
          "type": "uint256"
        },
        {
          "indexed": false,
          "internalType": "uint8",
          "name": "missionRounds",
          "type": "uint8"
        },
        {
          "indexed": false,
          "internalType": "address",
          "name": "creator",
          "type": "address"
        }
      ],
      "name": "MissionCreated",
      "type": "event"
    },
    {
      "anonymous": false,
      "inputs": [
        {
          "indexed": true,
          "internalType": "address",
          "name": "mission",
          "type": "address"
        },
        {
          "indexed": true,
          "internalType": "uint8",
          "name": "finalStatus",
          "type": "uint8"
        },
        {
          "indexed": false,
          "internalType": "uint256",
          "name": "timestamp",
          "type": "uint256"
        }
      ],
      "name": "MissionFinalized",
      "type": "event"
    },
    {
      "anonymous": false,
      "inputs": [
        {
          "indexed": false,
          "internalType": "uint256",
          "name": "amount",
          "type": "uint256"
        },
        {
          "indexed": true,
          "internalType": "enum MissionType",
          "name": "missionType",
          "type": "uint8"
        },
        {
          "indexed": true,
          "internalType": "address",
          "name": "sender",
          "type": "address"
        }
      ],
      "name": "MissionFundsRegistered",
      "type": "event"
    },
    {
      "anonymous": false,
      "inputs": [
        {
          "indexed": true,
          "internalType": "address",
          "name": "mission",
          "type": "address"
        },
        {
          "indexed": true,
          "internalType": "uint8",
          "name": "fromStatus",
          "type": "uint8"
        },
        {
          "indexed": true,
          "internalType": "uint8",
          "name": "toStatus",
          "type": "uint8"
        },
        {
          "indexed": false,
          "internalType": "uint256",
          "name": "timestamp",
          "type": "uint256"
        }
      ],
      "name": "MissionStatusUpdated",
      "type": "event"
    },
    {
      "anonymous": false,
      "inputs": [
        {
          "indexed": true,
          "internalType": "address",
          "name": "confirmer",
          "type": "address"
        },
        {
          "indexed": false,
          "internalType": "address",
          "name": "newOwner",
          "type": "address"
        },
        {
          "indexed": false,
          "internalType": "uint256",
          "name": "timestamp",
          "type": "uint256"
        }
      ],
      "name": "OwnershipTransferConfirmed",
      "type": "event"
    },
    {
      "anonymous": false,
      "inputs": [
        {
          "indexed": true,
          "internalType": "address",
          "name": "proposer",
          "type": "address"
        },
        {
          "indexed": false,
          "internalType": "address",
          "name": "newOwner",
          "type": "address"
        },
        {
          "indexed": false,
          "internalType": "uint256",
          "name": "timestamp",
          "type": "uint256"
        }
      ],
      "name": "OwnershipTransferProposed",
      "type": "event"
    },
    {
      "anonymous": false,
      "inputs": [
        {
          "indexed": true,
          "internalType": "address",
          "name": "previousOwner",
          "type": "address"
        },
        {
          "indexed": true,
          "internalType": "address",
          "name": "newOwner",
          "type": "address"
        }
      ],
      "name": "OwnershipTransferred",
      "type": "event"
    },
    {
      "stateMutability": "payable",
      "type": "fallback"
    },
    {
      "inputs": [],
      "name": "OWNERSHIP_PROPOSAL_WINDOW",
      "outputs": [
        {
          "internalType": "uint256",
          "name": "",
          "type": "uint256"
        }
      ],
      "stateMutability": "view",
      "type": "function"
    },
    {
      "inputs": [
        {
          "internalType": "address",
          "name": "account",
          "type": "address"
        }
      ],
      "name": "addAuthorizedAddress",
      "outputs": [],
      "stateMutability": "nonpayable",
      "type": "function"
    },
    {
      "inputs": [
        {
          "internalType": "address",
          "name": "",
          "type": "address"
        }
      ],
      "name": "authorized",
      "outputs": [
        {
          "internalType": "bool",
          "name": "",
          "type": "bool"
        }
      ],
      "stateMutability": "view",
      "type": "function"
    },
    {
      "inputs": [
        {
          "internalType": "address",
          "name": "user",
          "type": "address"
        }
      ],
      "name": "canEnroll",
      "outputs": [
        {
          "internalType": "bool",
          "name": "ok",
          "type": "bool"
        },
        {
          "internalType": "enum Limit",
          "name": "breach",
          "type": "uint8"
        }
      ],
      "stateMutability": "view",
      "type": "function"
    },
    {
      "inputs": [],
      "name": "confirmOwnershipTransfer",
      "outputs": [],
      "stateMutability": "nonpayable",
      "type": "function"
    },
    {
      "inputs": [
        {
          "internalType": "enum MissionType",
          "name": "_missionType",
          "type": "uint8"
        },
        {
          "internalType": "uint256",
          "name": "_enrollmentStart",
          "type": "uint256"
        },
        {
          "internalType": "uint256",
          "name": "_enrollmentEnd",
          "type": "uint256"
        },
        {
          "internalType": "uint256",
          "name": "_enrollmentAmount",
          "type": "uint256"
        },
        {
          "internalType": "uint8",
          "name": "_enrollmentMinPlayers",
          "type": "uint8"
        },
        {
          "internalType": "uint8",
          "name": "_enrollmentMaxPlayers",
          "type": "uint8"
        },
        {
          "internalType": "uint8",
          "name": "_roundPauseDuration",
          "type": "uint8"
        },
        {
          "internalType": "uint8",
          "name": "_lastRoundPauseDuration",
          "type": "uint8"
        },
        {
          "internalType": "uint256",
          "name": "_missionStart",
          "type": "uint256"
        },
        {
          "internalType": "uint256",
          "name": "_missionEnd",
          "type": "uint256"
        },
        {
          "internalType": "uint8",
          "name": "_missionRounds",
          "type": "uint8"
        },
        {
          "internalType": "string",
          "name": "_missionName",
          "type": "string"
        },
        {
          "internalType": "bytes32",
          "name": "_pinHash",
          "type": "bytes32"
        },
        {
          "internalType": "address",
          "name": "_creator",
          "type": "address"
        }
      ],
      "name": "createMission",
      "outputs": [
        {
          "internalType": "address",
          "name": "",
          "type": "address"
        },
        {
          "internalType": "string",
          "name": "",
          "type": "string"
        }
      ],
      "stateMutability": "payable",
      "type": "function"
    },
    {
      "inputs": [],
      "name": "getAllMissions",
      "outputs": [
        {
          "internalType": "address[]",
          "name": "",
          "type": "address[]"
        },
        {
          "internalType": "enum Status[]",
          "name": "",
          "type": "uint8[]"
        },
        {
          "internalType": "string[]",
          "name": "",
          "type": "string[]"
        }
      ],
      "stateMutability": "view",
      "type": "function"
    },
    {
      "inputs": [
        {
          "internalType": "uint64",
          "name": "lastSeq",
          "type": "uint64"
        }
      ],
      "name": "getChangesAfter",
      "outputs": [
        {
          "internalType": "address[]",
          "name": "m",
          "type": "address[]"
        },
        {
          "internalType": "uint40[]",
          "name": "timestamps",
          "type": "uint40[]"
        },
        {
          "internalType": "uint64[]",
          "name": "seqs",
          "type": "uint64[]"
        },
        {
          "internalType": "uint8[]",
          "name": "statuses",
          "type": "uint8[]"
        }
      ],
      "stateMutability": "view",
      "type": "function"
    },
    {
      "inputs": [],
      "name": "getFactorySummary",
      "outputs": [
        {
          "internalType": "address",
          "name": "ownerAddress",
          "type": "address"
        },
        {
          "internalType": "address",
          "name": "factoryAddress",
          "type": "address"
        },
        {
          "internalType": "address",
          "name": "implementation",
          "type": "address"
        },
        {
          "internalType": "uint256",
          "name": "totalMissions",
          "type": "uint256"
        },
        {
          "internalType": "uint256",
          "name": "weekly",
          "type": "uint256"
        },
        {
          "internalType": "uint256",
          "name": "monthly",
          "type": "uint256"
        },
        {
          "internalType": "uint256",
          "name": "missionFunds",
          "type": "uint256"
        },
        {
          "internalType": "uint256",
          "name": "ownerFunds",
          "type": "uint256"
        },
        {
          "internalType": "uint256",
          "name": "successes",
          "type": "uint256"
        },
        {
          "internalType": "uint256",
          "name": "failures",
          "type": "uint256"
        },
        {
          "internalType": "uint256[]",
          "name": "fundsPerTypeArray",
          "type": "uint256[]"
        }
      ],
      "stateMutability": "view",
      "type": "function"
    },
    {
      "inputs": [
        {
          "internalType": "enum MissionType",
          "name": "_type",
          "type": "uint8"
        }
      ],
      "name": "getFundsByType",
      "outputs": [
        {
          "internalType": "uint256",
          "name": "",
          "type": "uint256"
        }
      ],
      "stateMutability": "view",
      "type": "function"
    },
    {
      "inputs": [
        {
          "internalType": "uint256",
          "name": "n",
          "type": "uint256"
        }
      ],
      "name": "getLatestMissions",
      "outputs": [
        {
          "internalType": "address[]",
          "name": "",
          "type": "address[]"
        },
        {
          "internalType": "uint8[]",
          "name": "",
          "type": "uint8[]"
        },
        {
          "internalType": "string[]",
          "name": "",
          "type": "string[]"
        }
      ],
      "stateMutability": "view",
      "type": "function"
    },
    {
      "inputs": [
        {
          "internalType": "address",
          "name": "missionAddress",
          "type": "address"
        }
      ],
      "name": "getMissionData",
      "outputs": [
        {
          "components": [
            {
              "internalType": "enum Status",
              "name": "status",
              "type": "uint8"
            },
            {
              "internalType": "uint256",
              "name": "missionCreated",
              "type": "uint256"
            },
            {
              "internalType": "string",
              "name": "name",
              "type": "string"
            },
            {
              "internalType": "enum MissionType",
              "name": "missionType",
              "type": "uint8"
            },
            {
              "internalType": "uint8",
              "name": "missionRounds",
              "type": "uint8"
            },
            {
              "internalType": "uint8",
              "name": "roundPauseDuration",
              "type": "uint8"
            },
            {
              "internalType": "uint8",
              "name": "lastRoundPauseDuration",
              "type": "uint8"
            },
            {
              "internalType": "uint256",
              "name": "croInitial",
              "type": "uint256"
            },
            {
              "internalType": "uint256",
              "name": "croStart",
              "type": "uint256"
            },
            {
              "internalType": "uint256",
              "name": "croCurrent",
              "type": "uint256"
            },
            {
              "internalType": "uint256",
              "name": "enrollmentAmount",
              "type": "uint256"
            },
            {
              "internalType": "uint8",
              "name": "enrollmentMinPlayers",
              "type": "uint8"
            },
            {
              "internalType": "uint8",
              "name": "enrollmentMaxPlayers",
              "type": "uint8"
            },
            {
              "internalType": "uint256",
              "name": "enrollmentStart",
              "type": "uint256"
            },
            {
              "internalType": "uint256",
              "name": "enrollmentEnd",
              "type": "uint256"
            },
            {
              "internalType": "uint256",
              "name": "missionStart",
              "type": "uint256"
            },
            {
              "internalType": "uint256",
              "name": "missionEnd",
              "type": "uint256"
            },
            {
              "components": [
                {
                  "internalType": "address",
                  "name": "player",
                  "type": "address"
                },
                {
                  "internalType": "uint256",
                  "name": "enrolledTS",
                  "type": "uint256"
                },
                {
                  "internalType": "uint256",
                  "name": "amountWon",
                  "type": "uint256"
                },
                {
                  "internalType": "uint256",
                  "name": "wonTS",
                  "type": "uint256"
                },
                {
                  "internalType": "bool",
                  "name": "refunded",
                  "type": "bool"
                },
                {
                  "internalType": "bool",
                  "name": "refundFailed",
                  "type": "bool"
                },
                {
                  "internalType": "uint256",
                  "name": "refundTS",
                  "type": "uint256"
                }
              ],
              "internalType": "struct Mission.Players[]",
              "name": "players",
              "type": "tuple[]"
            },
            {
              "internalType": "uint8",
              "name": "enrollmentCount",
              "type": "uint8"
            },
            {
              "internalType": "uint8",
              "name": "roundCount",
              "type": "uint8"
            },
            {
              "internalType": "uint256",
              "name": "pauseTimestamp",
              "type": "uint256"
            },
            {
              "internalType": "bool",
              "name": "allRefunded",
              "type": "bool"
            },
            {
              "internalType": "address",
              "name": "creator",
              "type": "address"
            }
          ],
          "internalType": "struct Mission.MissionData",
          "name": "",
          "type": "tuple"
        }
      ],
      "stateMutability": "view",
      "type": "function"
    },
    {
      "inputs": [
        {
          "internalType": "enum Status",
          "name": "s",
          "type": "uint8"
        }
      ],
      "name": "getMissionsByStatus",
      "outputs": [
        {
          "internalType": "address[]",
          "name": "",
          "type": "address[]"
        },
        {
          "internalType": "uint8[]",
          "name": "",
          "type": "uint8[]"
        },
        {
          "internalType": "string[]",
          "name": "",
          "type": "string[]"
        }
      ],
      "stateMutability": "view",
      "type": "function"
    },
    {
      "inputs": [],
      "name": "getMissionsEnded",
      "outputs": [
        {
          "internalType": "address[]",
          "name": "",
          "type": "address[]"
        },
        {
          "internalType": "uint8[]",
          "name": "",
          "type": "uint8[]"
        },
        {
          "internalType": "string[]",
          "name": "",
          "type": "string[]"
        }
      ],
      "stateMutability": "view",
      "type": "function"
    },
    {
      "inputs": [],
      "name": "getMissionsNotEnded",
      "outputs": [
        {
          "internalType": "address[]",
          "name": "",
          "type": "address[]"
        },
        {
          "internalType": "uint8[]",
          "name": "",
          "type": "uint8[]"
        },
        {
          "internalType": "string[]",
          "name": "",
          "type": "string[]"
        }
      ],
      "stateMutability": "view",
      "type": "function"
    },
    {
      "inputs": [],
      "name": "getOwnershipProposal",
      "outputs": [
        {
          "internalType": "address",
          "name": "newOwner",
          "type": "address"
        },
        {
          "internalType": "address",
          "name": "proposer",
          "type": "address"
        },
        {
          "internalType": "uint256",
          "name": "timestamp",
          "type": "uint256"
        },
        {
          "internalType": "uint256",
          "name": "timeLeft",
          "type": "uint256"
        }
      ],
      "stateMutability": "view",
      "type": "function"
    },
    {
      "inputs": [
        {
          "internalType": "address",
          "name": "player",
          "type": "address"
        }
      ],
      "name": "getPlayerLimits",
      "outputs": [
        {
          "internalType": "uint8",
          "name": "weekUsed",
          "type": "uint8"
        },
        {
          "internalType": "uint8",
          "name": "weekMax",
          "type": "uint8"
        },
        {
          "internalType": "uint8",
          "name": "monthUsed",
          "type": "uint8"
        },
        {
          "internalType": "uint8",
          "name": "monthMax",
          "type": "uint8"
        },
        {
          "internalType": "uint256",
          "name": "secToWeek",
          "type": "uint256"
        },
        {
          "internalType": "uint256",
          "name": "secToMonth",
          "type": "uint256"
        }
      ],
      "stateMutability": "view",
      "type": "function"
    },
    {
      "inputs": [
        {
          "internalType": "address",
          "name": "player",
          "type": "address"
        }
      ],
      "name": "getPlayerParticipation",
      "outputs": [
        {
          "internalType": "address[]",
          "name": "",
          "type": "address[]"
        },
        {
          "internalType": "enum Status[]",
          "name": "",
          "type": "uint8[]"
        },
        {
          "internalType": "string[]",
          "name": "",
          "type": "string[]"
        }
      ],
      "stateMutability": "view",
      "type": "function"
    },
    {
      "inputs": [],
      "name": "getTotalMissions",
      "outputs": [
        {
          "internalType": "uint256",
          "name": "",
          "type": "uint256"
        }
      ],
      "stateMutability": "view",
      "type": "function"
    },
    {
      "inputs": [
        {
          "internalType": "address",
          "name": "",
          "type": "address"
        }
      ],
      "name": "isMission",
      "outputs": [
        {
          "internalType": "bool",
          "name": "",
          "type": "bool"
        }
      ],
      "stateMutability": "view",
      "type": "function"
    },
    {
      "inputs": [
        {
          "internalType": "address",
          "name": "",
          "type": "address"
        }
      ],
      "name": "lastUserMissionCreatedAt",
      "outputs": [
        {
          "internalType": "uint256",
          "name": "",
          "type": "uint256"
        }
      ],
      "stateMutability": "view",
      "type": "function"
    },
    {
      "inputs": [],
      "name": "missionImplementation",
      "outputs": [
        {
          "internalType": "address",
          "name": "",
          "type": "address"
        }
      ],
      "stateMutability": "view",
      "type": "function"
    },
    {
      "inputs": [
        {
          "internalType": "address",
          "name": "",
          "type": "address"
        }
      ],
      "name": "missionNames",
      "outputs": [
        {
          "internalType": "string",
          "name": "",
          "type": "string"
        }
      ],
      "stateMutability": "view",
      "type": "function"
    },
    {
      "inputs": [
        {
          "internalType": "address",
          "name": "",
          "type": "address"
        }
      ],
      "name": "missionStatus",
      "outputs": [
        {
          "internalType": "enum Status",
          "name": "",
          "type": "uint8"
        }
      ],
      "stateMutability": "view",
      "type": "function"
    },
    {
      "inputs": [
        {
          "internalType": "enum MissionType",
          "name": "",
          "type": "uint8"
        }
      ],
      "name": "missionTypeCounts",
      "outputs": [
        {
          "internalType": "uint256",
          "name": "",
          "type": "uint256"
        }
      ],
      "stateMutability": "view",
      "type": "function"
    },
    {
      "inputs": [
        {
          "internalType": "uint256",
          "name": "",
          "type": "uint256"
        }
      ],
      "name": "missions",
      "outputs": [
        {
          "internalType": "address",
          "name": "",
          "type": "address"
        }
      ],
      "stateMutability": "view",
      "type": "function"
    },
    {
      "inputs": [],
      "name": "monthlyLimit",
      "outputs": [
        {
          "internalType": "uint8",
          "name": "",
          "type": "uint8"
        }
      ],
      "stateMutability": "view",
      "type": "function"
    },
    {
      "inputs": [],
      "name": "notifyTouched",
      "outputs": [],
      "stateMutability": "nonpayable",
      "type": "function"
    },
    {
      "inputs": [],
      "name": "owner",
      "outputs": [
        {
          "internalType": "address",
          "name": "",
          "type": "address"
        }
      ],
      "stateMutability": "view",
      "type": "function"
    },
    {
      "inputs": [],
      "name": "proposalProposer",
      "outputs": [
        {
          "internalType": "address",
          "name": "",
          "type": "address"
        }
      ],
      "stateMutability": "view",
      "type": "function"
    },
    {
      "inputs": [],
      "name": "proposalTimestamp",
      "outputs": [
        {
          "internalType": "uint256",
          "name": "",
          "type": "uint256"
        }
      ],
      "stateMutability": "view",
      "type": "function"
    },
    {
      "inputs": [
        {
          "internalType": "address",
          "name": "newOwner",
          "type": "address"
        }
      ],
      "name": "proposeOwnershipTransfer",
      "outputs": [],
      "stateMutability": "nonpayable",
      "type": "function"
    },
    {
      "inputs": [],
      "name": "proposedNewOwner",
      "outputs": [
        {
          "internalType": "address",
          "name": "",
          "type": "address"
        }
      ],
      "stateMutability": "view",
      "type": "function"
    },
    {
      "inputs": [
        {
          "internalType": "address",
          "name": "user",
          "type": "address"
        }
      ],
      "name": "recordEnrollment",
      "outputs": [],
      "stateMutability": "nonpayable",
      "type": "function"
    },
    {
      "inputs": [
        {
          "internalType": "enum MissionType",
          "name": "missionType",
          "type": "uint8"
        }
      ],
      "name": "registerMissionFunds",
      "outputs": [],
      "stateMutability": "payable",
      "type": "function"
    },
    {
      "inputs": [
        {
          "internalType": "address",
          "name": "account",
          "type": "address"
        }
      ],
      "name": "removeAuthorizedAddress",
      "outputs": [],
      "stateMutability": "nonpayable",
      "type": "function"
    },
    {
      "inputs": [],
      "name": "renounceOwnership",
      "outputs": [],
      "stateMutability": "nonpayable",
      "type": "function"
    },
    {
      "inputs": [
        {
          "internalType": "enum MissionType",
          "name": "",
          "type": "uint8"
        }
      ],
      "name": "reservedFunds",
      "outputs": [
        {
          "internalType": "uint256",
          "name": "",
          "type": "uint256"
        }
      ],
      "stateMutability": "view",
      "type": "function"
    },
    {
      "inputs": [],
      "name": "reservedFundsBreakdown",
      "outputs": [
        {
          "internalType": "uint256[9]",
          "name": "",
          "type": "uint256[9]"
        }
      ],
      "stateMutability": "view",
      "type": "function"
    },
    {
      "inputs": [
        {
          "internalType": "address",
          "name": "user",
          "type": "address"
        }
      ],
      "name": "secondsTillMonthlySlot",
      "outputs": [
        {
          "internalType": "uint256",
          "name": "",
          "type": "uint256"
        }
      ],
      "stateMutability": "view",
      "type": "function"
    },
    {
      "inputs": [
        {
          "internalType": "address",
          "name": "user",
          "type": "address"
        }
      ],
      "name": "secondsTillWeeklySlot",
      "outputs": [
        {
          "internalType": "uint256",
          "name": "",
          "type": "uint256"
        }
      ],
      "stateMutability": "view",
      "type": "function"
    },
    {
      "inputs": [
        {
          "internalType": "uint8",
          "name": "_weekly",
          "type": "uint8"
        },
        {
          "internalType": "uint8",
          "name": "_monthly",
          "type": "uint8"
        }
      ],
      "name": "setEnrollmentLimits",
      "outputs": [],
      "stateMutability": "nonpayable",
      "type": "function"
    },
    {
      "inputs": [
        {
          "internalType": "enum Status",
          "name": "newStatus",
          "type": "uint8"
        }
      ],
      "name": "setMissionStatus",
      "outputs": [],
      "stateMutability": "nonpayable",
      "type": "function"
    },
    {
      "inputs": [],
      "name": "totalMissionFailures",
      "outputs": [
        {
          "internalType": "uint256",
          "name": "",
          "type": "uint256"
        }
      ],
      "stateMutability": "view",
      "type": "function"
    },
    {
      "inputs": [],
      "name": "totalMissionFunds",
      "outputs": [
        {
          "internalType": "uint256",
          "name": "",
          "type": "uint256"
        }
      ],
      "stateMutability": "view",
      "type": "function"
    },
    {
      "inputs": [],
      "name": "totalMissionSuccesses",
      "outputs": [
        {
          "internalType": "uint256",
          "name": "",
          "type": "uint256"
        }
      ],
      "stateMutability": "view",
      "type": "function"
    },
    {
      "inputs": [],
      "name": "totalOwnerEarnedFunds",
      "outputs": [
        {
          "internalType": "uint256",
          "name": "",
          "type": "uint256"
        }
      ],
      "stateMutability": "view",
      "type": "function"
    },
    {
      "inputs": [
        {
          "internalType": "address",
          "name": "newOwner",
          "type": "address"
        }
      ],
      "name": "transferOwnership",
      "outputs": [],
      "stateMutability": "nonpayable",
      "type": "function"
    },
    {
      "inputs": [
        {
          "internalType": "address",
          "name": "user",
          "type": "address"
        },
        {
          "internalType": "uint256",
          "name": "startTs",
          "type": "uint256"
        },
        {
          "internalType": "uint256",
          "name": "endTs",
          "type": "uint256"
        }
      ],
      "name": "undoEnrollmentInWindow",
      "outputs": [],
      "stateMutability": "nonpayable",
      "type": "function"
    },
    {
      "inputs": [],
      "name": "weeklyLimit",
      "outputs": [
        {
          "internalType": "uint8",
          "name": "",
          "type": "uint8"
        }
      ],
      "stateMutability": "view",
      "type": "function"
    },
    {
      "inputs": [
        {
          "internalType": "uint256",
          "name": "amount",
          "type": "uint256"
        }
      ],
      "name": "withdrawFunds",
      "outputs": [],
      "stateMutability": "nonpayable",
      "type": "function"
    },
    {
      "stateMutability": "payable",
      "type": "receive"
    }
  ],
  "bytecode": "0x60a03461012557601f61465c38819003918201601f19168301916001600160401b0383118484101761012a5780849260209460405283398101031261012557516001600160a01b03811680820361012557331561010f5760008054336001600160a01b0319821681178355604051939290916001600160a01b0316907f8be0079c531659141344cd1fd0a4f28419497f9722a3daafe3b4186f6b6457e09080a360018055610f0761ffff196003541617600355156100e1575060805260405161451b9081610141823960805181818161048301528181610bc0015261134f0152f35b62461bcd60e51b8152602060048201526009602482015268696d706c207a65726f60b81b6044820152606490fd5b631e4fbdf760e01b600052600060045260246000fd5b600080fd5b634e487b7160e01b600052604160045260246000fdfe6080806040526004361015610011575b005b600090813560e01c90816304a6175214613171575080630814ab821461312d5780630a6005da146131095780630fc8c4ed146130e0578063155dd5ee14612f955780631e59d58414612e0357806320c5718f14612ada57806321040fc314612a005780632c8fe526146129bc5780632d771f30146129935780632e33b07f146109c95780633589cf7214612975578063370127621461289a5780633a17420d146125c357806342f1181e146124ae578063503c0b88146122175780635c5bb6f2146121f957806363679723146121db5780636740ca84146121a25780636805036d146120425780636d8a1390146120175780637071293914611f33578063715018a614611ed95780637200b82914611d805780637a07f2d1146111af5780637e9eae50146110a657806383fbea5114611088578063861a68d6146110675780638c09b7c3146110275780638da5cb5b146110005780639804a58614610fc257806398d05c3e14610f80578063a9bea78914610e92578063aa1f059514610e53578063b620291314610c81578063b6de7b4314610c2e578063b918161114610bef578063bd48772514610baa578063c17f9e59146109fc578063c416ad2a146109c9578063c892fde3146109ab578063cbf2080d14610818578063d0657019146107e6578063d3050eba146107c8578063d41eca641461074a578063d8d6e8ff14610590578063df4db46314610508578063e5047770146103e1578063eff0ab92146102d8578063f08e231e1461029e5763f2fde38b0361000f573461029b57602036600319011261029b5761026461318d565b61026c61406f565b6001600160a01b0381161561028757610284906140ba565b80f35b631e4fbdf760e01b82526004829052602482fd5b80fd5b503461029b57602036600319011261029b5760043560098110156102d45781604091602093508152601183522054604051908152f35b5080fd5b503461029b57602036600319011261029b576001600160a01b036102fa61318d565b168152600f6020526040812080548291825b82811061035c575050508161032857602091505b604051908152f35b62093a808201809211610348575061034360209142906139ce565b610320565b634e487b7160e01b81526011600452602490fd5b6103668183613373565b90549060031b1c62093a8081018091116103cd574210610389575b60010161030c565b841580156103b4575b1561038157935060016103a58583613373565b90549060031b1c949050610381565b50846103c08284613373565b90549060031b1c10610392565b634e487b7160e01b85526011600452602485fd5b503461029b578060031936011261029b57610140604051610402828261347b565b600981526020810192601f198301368537805b600981101561043c5760019061042a81613540565b54610435828661362c565b5201610415565b50606092939160018060a01b0382541690610160600254966003546004546005546006549160ff600754946040519d8e9d8e8a81019c815230602082015260018060a01b037f000000000000000000000000000000000000000000000000000000000000000016604082015201528c608083831691015260081c1660a08c015260c08b015260e08a015261010089015261012088015286015251809152610180840192915b8181106104ef575050500390f35b82518452859450602093840193909201916001016104e1565b503461029b578060031936011261029b57610120908160405161052b828261347b565b3690376040519061053c838361347b565b82368337805b60098110156105655760019061055781613540565b548160051b85015201610542565b506040519190825b6009821061057a57505050f35b602080600192855181520193019101909161056d565b503461029b57602036600319011261029b5760043560088110156102d457338252600c6020526105c660ff604084205416613f03565b338252600d60205260ff60408320541690338352600d602052604083209160ff198354169260ff831680941790556105fe823361412b565b600682149084821561072d57610615600654613574565b6006555b6008821015610719576106eb5783906040514281527f0ea143fc1698242668979798ae4ab3fbbece2356edb72793bc92f1c4aca96ca960203392a4839160058114801561070f575b8381156106ff575b50610672578480f35b826106eb5781156106dd575b506106d0575b6106bc576040514281527f471602128a67197776b2e0caf0ffdabf9bb93efcca8b7cb74862aa9f63f2347f60203392a3388080808480f35b634e487b7160e01b82526021600452602482fd5b6106d861428c565b610684565b91505060078391143861067e565b634e487b7160e01b85526021600452602485fd5b90506106eb576007811483610669565b5084925081610661565b634e487b7160e01b86526021600452602486fd5b50846007840361061957610742600754613574565b600755610619565b503461029b57604036600319011261029b5760043560ff81168091036102d4576024359060ff821682036107c45782546001600160a01b0316331480156107ae575b61079590613932565b61ff006003549260081b169161ffff1916171760035580f35b50338352600b602052604083205460ff1661078c565b8280fd5b503461029b578060031936011261029b576020604051620151808152f35b503461029b578060031936011261029b57338152600c60205261080f60ff604083205416613f03565b61028433614101565b503461029b57602036600319011261029b576001600160a01b0361083a61318d565b168152600f602052604081208190829083809181908054915b828110610900575050506003549480156000146108ce575080915b806108a8575060c09460ff8092945b8160405197168752818316602088015216604086015260081c166060840152608083015260a0820152f35b9062278d008201809211610348575060c09460ff6108c8819342906139ce565b9461087d565b62093a8081018091116108ec576108e69042906139ce565b9161086e565b634e487b7160e01b82526011600452602482fd5b61090a8183613373565b90549060031b1c62278d00810180821161098657421061092e575b50600101610853565b9561093890613574565b95851580156109a2575b61099a575b62093a80810180821161098657421015610925579661096590613574565b968815801561097d575b156109255797506001610925565b5088811061096f565b634e487b7160e01b86526011600452602486fd5b945084610947565b50858110610942565b503461029b578060031936011261029b576020600654604051908152f35b503461029b57602036600319011261029b5760043590600982101561029b5760206109f383613540565b54604051908152f35b503461029b57602036600319011261029b57610a1661318d565b338252600c602052610a2e60ff604084205416613f03565b338252600d60205260ff6040832054166008811015610b96576001036102d45762278cff19420190428211610b82576001600160a01b03168252600f60205260408220805491835b83811080610b69575b15610a9257610a8d90613574565b610a76565b82859180610aea575b50805490600160401b821015610ad65781610abe91600161080f94018155613373565b429082549060031b91821b91600019901b1916179055565b634e487b7160e01b83526041600452602483fd5b825b610af78284546139ce565b811015610b475780610b41610b17610b11856001956139c1565b86613373565b90549060031b1c610b288387613373565b90919082549060031b91821b91600019901b1916179055565b01610aec565b50825b818110610b575750610a9b565b600190610b6384613f6e565b01610b4a565b5081610b758285613373565b90549060031b1c10610a7f565b634e487b7160e01b83526011600452602483fd5b634e487b7160e01b83526021600452602483fd5b503461029b578060031936011261029b576040517f00000000000000000000000000000000000000000000000000000000000000006001600160a01b03168152602090f35b503461029b57602036600319011261029b5760209060ff906040906001600160a01b03610c1a61318d565b168152600b84522054166040519015158152f35b503461029b57602036600319011261029b57610c7d90610c69906040906001600160a01b03610c5b61318d565b16815260106020522061349c565b604051918291602083526020830190613262565b0390f35b503461029b578060031936011261029b576002548190825b818110610de75750610caa826135b0565b90610cbd610cb7846135b0565b936135e2565b9084805b828210610cdb57505050610c7d90604051938493846132e0565b610ce482613327565b905460039190911b1c6001600160a01b03168752600d602052604087205460ff16600881101580610dd357600682148015610dc7575b610d2b575b50509060010190610cc1565b610d3484613327565b905460039190911b1c6001600160a01b0316610d50848961362c565b52610db35781610dac91610d666001948a61362c565b52610d7084613327565b848060a01b0391549060031b1c1689526010602052610d9160408a2061349c565b610d9b828861362c565b52610da6818761362c565b50613574565b9038610d1f565b634e487b7160e01b88526021600452602488fd5b50508760078214610d1a565b634e487b7160e01b89526021600452602489fd5b610df081613327565b905460039190911b1c6001600160a01b03168452600d602052604084205460ff1660088110156106eb5760068114908115610e48575b50610e34575b600101610c99565b91610e40600191613574565b929050610e2c565b600791501438610e26565b503461029b57602036600319011261029b5760209060ff906040906001600160a01b03610e7e61318d565b168152600c84522054166040519015158152f35b50602036600319011261029b5760043560098110156102d457338252600c602052610ec360ff604084205416613f03565b610ecb614098565b338252600d60205260ff6040832054166008811015610b96576006148015610f5e575b156102d457610efc81613540565b610f073482546139c1565b9055610f15346004546139c1565b600455610f27600334046005546139c1565b600555604051903482527f606617fd09d9890413e3c46147b844d4562351f86e0f7a5c60849bbf0ef0281160203393a36001805580f35b50338252600d60205260ff6040832054166008811015610b9657600714610eee565b503461029b57606036600319011261029b57610284610f9d61318d565b338352600c602052610fb560ff604085205416613f03565b6044359060243590613fad565b503461029b57602036600319011261029b57610fe4610fdf61318d565b613d84565b60405191151582526003811015610b9657604092506020820152f35b503461029b578060031936011261029b57546040516001600160a01b039091168152602090f35b503461029b578060031936011261029b576080611042613d13565b604080516001600160a01b039586168152949093166020850152918301526060820152f35b503461029b578060031936011261029b57602060ff60035416604051908152f35b503461029b578060031936011261029b576020600754604051908152f35b503461029b57602036600319011261029b57600435906002548083116111a7575b6110d0836135b0565b916110da846135b0565b936110e4816135e2565b926000198101908111835b8381106111065760405180610c7d888b8b846132e0565b816103cd5761111d61111882856139ce565b613327565b905460039190911b1c6001600160a01b03168061113a838a61362c565b52808652600d60205260ff6040872054166008811015611193579082916111636001948c61362c565b52865260106020526111776040872061349c565b611181828961362c565b5261118c818861362c565b50016110ef565b634e487b7160e01b87526021600452602487fd5b9150816110c7565b506101c036600319011261029b576009600435101561029b5760843560ff811681036102d45760a43560ff811681036107c45760c4359160ff831683036117835760e4359060ff82168203611d7c57610144359260ff84168403611d78576001600160401b036101643511611d785736602361016435011215611d78576001600160401b03610164356004013511611d7857366024610164356004013561016435010111611d78576101a435936001600160a01b0385168503611d745786546001600160a01b031633148015611d5e575b61128990613932565b611291614098565b8693600760043514808015611d4f575b15611c2557600260ff841610611bf557600360ff861610611bc057601960ff851611611b8a5760001960ff86160160ff8111611b765760ff1660ff841611611b3d57600160643510611b0f5785610dd35715611a5e576101843515611a2e575b60443561010435106119f457610104356101243511156119c057603c60ff88161061197b57603c60ff8216106119365760443560243510156118fd576e5af43d82803e903d91602b57fd5bf37f0000000000000000000000000000000000000000000000000000000000000000763d602d80600a3d3981f3363d3d373d3d3d363d7300000062ffffff8260881c16178a5260781b176020526037600989f0966001600160a01b038816156118ee576101643560040135156118b9576001600160a01b038816808a52600c60209081526040808c20805460ff19908116600117909155838d52600d8352818d2080549091169055918b526010905289208054611408906133f4565b601f811161186f575b5089601f6101643560040135116001146117e4578a9061016435600401356117d3575b50610164356004013560011b90600019610164356004013560031b1c19161790555b88546001600160a01b039081169089163b156117cf576040519063c7fe98f560e01b825260048201523060248201526114946044820160043561331a565b6024356064820152604435608482015260643560a482015260ff861660c482015260ff851660e482015260ff821661010482015260ff8316610124820152610104356101448201526101243561016482015260ff84166101848201526102006101a48201528981806115186102048201610164356004013560246101643501613cf2565b610184356101c48301526001600160a01b038c81166101e484015291900390829034908e165af180156117c4576117b0575b50600254600160401b81101561179c5760ff92837fa3762b212d264a160590ad73a0d2d39787a5a93c4d70bec3dfb385bdffc2863a9695936115bd8c6115998660018698016002556002613373565b81546001600160a01b0393841660039290921b91821b9390911b1916919091179055565b81604051976101a08952816115e46101a08b01610164356004013560246101643501613cf2565b9b6115f460208c0160043561331a565b60243560408c015260443560608c01521660808a01521660a08801521660c08601521660e08401526064356101008401526101043561012084015261012435610140840152166101608201526001600160a01b0385811661018083015286169281900390a283611665600435613540565b5460021c80151580611792575b611718575b5050610b96576008600435146116fb575b5061169281614101565b6116a26101643560040135613559565b916116b0604051938461347b565b610164356004810135808552906024016020850137602061016435600401358401015260018055610c7d60405192839260018060a01b03168352604060208401526040830190613262565b6001600160a01b0316825260126020526040822042905538611688565b611723600435613540565b61172e8282546139ce565b90556001600160a01b0385163b156102d45760405163eb2bab7760e01b8152908290829060049082906001600160a01b038a165af18015611787571561167757816117789161347b565b611783578338611677565b8380fd5b6040513d84823e3d90fd5b5080471015611672565b634e487b7160e01b8a52604160045260248afd5b896117bd919a929a61347b565b973861154a565b6040513d8c823e3d90fd5b8980fd5b602491506101643501013538611434565b818b5260208b20908b5b6004610164350135601f1916811061185157506004610164350135601f1981161061182a575b505060016101643560040135811b019055611456565b602460001960f8610164356004013560031b161c1991610164350101351690553880611814565b909160206001819260248661016435010135815501930191016117ee565b818b526020808c20906004610164350135601f810160051c830191116118b2575b8c601f840160051c830182106118a857505050611411565b8155600101611890565b5080611890565b60405162461bcd60e51b815260206004820152600d60248201526c4d697373696f6e206e616d653f60981b6044820152606490fd5b63b06ebf3d60e01b8952600489fd5b60405162461bcd60e51b8152602060048201526011602482015270115b9c9bdb1b081cdd185c9d0f8f595b99607a1b6044820152606490fd5b60405162461bcd60e51b815260206004820152601d60248201527f4c61737420726f756e64207061757365206475726174696f6e3c3630730000006044820152606490fd5b60405162461bcd60e51b815260206004820152601860248201527f526f756e64207061757365206475726174696f6e3c36307300000000000000006044820152606490fd5b60405162461bcd60e51b815260206004820152600c60248201526b13481cdd185c9d0f8f595b9960a21b6044820152606490fd5b60405162461bcd60e51b815260206004820152601260248201527113481cdd185c9d0f195b9c9bdb1b08195b9960721b6044820152606490fd5b60405162461bcd60e51b815260206004820152600860248201526770696e486173683f60c01b6044820152606490fd5b6001600160a01b03861615611ada576001600160a01b038616885260126020526040882054620151808101908110611ac6574210156113015760405162461bcd60e51b815260206004820152600760248201526609ad2dc406468d60cb1b6044820152606490fd5b634e487b7160e01b89526011600452602489fd5b60405162461bcd60e51b815260206004820152600d60248201526c43726561746f7220616464723f60981b6044820152606490fd5b60405162461bcd60e51b81526020600482015260066024820152654665653e3d3160d01b6044820152606490fd5b60405162461bcd60e51b8152602060048201526011602482015270526f756e64733c3d6d696e506c61792d3160781b6044820152606490fd5b634e487b7160e01b8a52601160045260248afd5b60405162461bcd60e51b815260206004820152600e60248201526d26b0bc10383630bcb2b9399e191b60911b6044820152606490fd5b60405162461bcd60e51b815260206004820152600d60248201526c26b4b710383630bcb2b9399f1960991b6044820152606490fd5b60405162461bcd60e51b8152602060048201526008602482015267526f756e64733e3160c01b6044820152606490fd5b50600160ff831610611d195760ff821660ff851610611cd45760ff841660ff841610611c8f57606460ff841611156113015760405162461bcd60e51b815260206004820152601060248201526f06d617820706c61796572733c3d3130360841b6044820152606490fd5b60405162461bcd60e51b815260206004820152601b60248201527f4d617820706c61796572733c6d696e696d756d20706c617965727300000000006044820152606490fd5b60405162461bcd60e51b815260206004820152601860248201527f4d696e20706c61796572733c6d697373696f6e20726e647300000000000000006044820152606490fd5b60405162461bcd60e51b815260206004820152600e60248201526d4d697373696f6e20726e64733c3160901b6044820152606490fd5b508895506004356008146112a1565b50338752600b602052604087205460ff16611280565b8680fd5b8580fd5b8480fd5b503461029b578060031936011261029b5780546001600160a01b031633148015611ec3575b611dae90613932565b600a546001600160a01b03163314611e8e576008546201518081018091116108ec574211611e5657600954611deb906001600160a01b03166140ba565b600954604080516001600160a01b03909216825242602083015233917fdd72dd33198968a9cdc9b1e5cbff344fb8d04d99f8c15c0a02416b04e857b4679190a26001600160601b0360a01b600954166009556001600160601b0360a01b600a5416600a558060085580f35b60405162461bcd60e51b815260206004820152601060248201526f141c9bdc1bdcd85b08195e1c1a5c995960821b6044820152606490fd5b60405162461bcd60e51b815260206004820152600d60248201526c0853dddb881c1c9bdc1bdcd85b609a1b6044820152606490fd5b50338152600b602052604081205460ff16611da5565b503461029b578060031936011261029b57611ef261406f565b80546001600160a01b03198116825581906001600160a01b03167f8be0079c531659141344cd1fd0a4f28419497f9722a3daafe3b4186f6b6457e08280a380f35b503461029b57602036600319011261029b57611f4d61318d565b81546001600160a01b031633148015612001575b611f6a90613932565b6001600160a01b0316611f7e81151561398d565b808252600b60205260ff60408320541615611fce57808252600b60205260408220805460ff191690557f66d5f06f711af3c9feba3203fdb00b51345d514c68585d9d319c5ff5e6f775928280a280f35b60405162461bcd60e51b815260206004820152600b60248201526a08585d5d1a1bdc9a5e995960aa1b6044820152606490fd5b50338252600b602052604082205460ff16611f61565b503461029b578060031936011261029b57610c7d6120336139f4565b6040939193519384938461338b565b503461029b578060031936011261029b576002548190825b818110612135575061206b826135b0565b90612078610cb7846135b0565b9084805b82821061209657505050610c7d90604051938493846132e0565b61209f82613327565b905460039190911b1c6001600160a01b03168752600d602052604087205460ff16600881101580610dd357600682141580612128575b6120e6575b5050906001019061207c565b6120ef84613327565b905460039190911b1c6001600160a01b031661210b848961362c565b52610db3578161212191610d666001948a61362c565b90386120da565b50508760078214156120d5565b61213e81613327565b905460039190911b1c6001600160a01b03168452600d602052604084205460ff1660088110156106eb5760068114159081612196575b50612182575b60010161205a565b9161218e600191613574565b92905061217a565b60079150141538612174565b503461029b57602036600319011261029b576020906040906001600160a01b036121ca61318d565b168152601283522054604051908152f35b503461029b578060031936011261029b576020600454604051908152f35b503461029b578060031936011261029b576020600254604051908152f35b503461029b57602036600319011261029b5761223161318d565b6002546001600160a01b0390911690829080805b6123e55750612253846135b0565b92612266612260866135b0565b956135e2565b928092805b61227f5760405180610c7d878a8a8461338b565b6000198101818111610b825761229490613327565b9054604051629c95e160e41b81526004810186905260039290921b1c6001600160a01b031690602081602481855afa9081156123a15784916123ac575b506122e7575b506122e1906139db565b8061226b565b806122f5868997949761362c565b526040516368c6ba2160e01b8152602081600481855afa9081156123a1578491612365575b509161235e916123366122e194612331848d61362c565b6139e8565b845260106020526123496040852061349c565b612353828961362c565b52610da6818861362c565b93906122d7565b90506020813d8211612399575b8161237f6020938361347b565b81010312611783575160088110156117835761235e61231a565b3d9150612372565b6040513d86823e3d90fd5b90506020813d82116123dd575b816123c66020938361347b565b81010312611783576123d790613662565b386122d1565b3d91506123b9565b600019810181811161249a5760206123fe602492613327565b9054604051629c95e160e41b8152600481018990529384929091839160031b1c6001600160a01b03165afa9081156123a1578491612461575b5061244c575b612446906139db565b80612245565b9361245961244691613574565b94905061243d565b90506020813d8211612492575b8161247b6020938361347b565b810103126117835761248c90613662565b38612437565b3d915061246e565b634e487b7160e01b84526011600452602484fd5b503461029b57602036600319011261029b576124c861318d565b81546001600160a01b0316331480156125ad575b6124e590613932565b6001600160a01b0316801561258057808252600b60205260ff60408320541661254657808252600b60205260408220805460ff191660011790557f10ac961f00d5e732ba4dcc2c6fb09bebea0eb9edd2a75c8109775ef288382e678280a280f35b60405162461bcd60e51b8152602060048201526012602482015271105b1c9958591e48185d5d1a1bdc9a5e995960721b6044820152606490fd5b60405162461bcd60e51b8152602060048201526005602482015264616464723f60d81b6044820152606490fd5b50338252600b602052604082205460ff166124dc565b503461029b57602036600319011261029b57600435906001600160401b03821680920361029b57906014549082805b8381106128055750612603846135b0565b9261260d85613599565b9061261b604051928361347b565b85825261262786613599565b602083019290601f190136843761263d87613599565b9161264b604051938461347b565b87835261266c61265a89613599565b602085019990601f1901368b376135b0565b9585865b83811061271957505050506020612692604051976080895260808901906131cb565b91878303828901525191828152019290845b8181106126fc57505050602090858303604087015251918281520194915b8181106126dd578480610c7d88878382036060850152613208565b82516001600160401b03168652602095860195909201916001016126c2565b825164ffffffffff168552602094850194909201916001016126a4565b61272581989798613358565b905460039190911b1c6001600160a01b0316875260166020526040808820905161274e81613460565b81546001808060a01b0382169384845264ffffffffff602085019360a01c1683520154928d876001600160401b03861660ff60606040880197838952019760401c168752116127a8575b5050505050600101969596612670565b869364ffffffffff60ff946127fa97946127cd60019a9b6001600160401b039661362c565b5251166127da868d61362c565b5251166127e7848c61362c565b5251166127f4828d61362c565b52613574565b91903880808d612798565b61281181949294613358565b60018060a01b0391549060031b1c1684526016602052826040852060016040519161283b83613460565b64ffffffffff8154838060a01b038116855260a01c166020840152015490606060ff6001600160401b0384169384604085015260401c1691015211612886575b6001019290926125f2565b93612892600191613574565b94905061287b565b503461029b57602036600319011261029b576001600160a01b036128bc61318d565b168152600f6020526040812080548291825b82811061290457505050816128e95760209150604051908152f35b62278d008201809211610348575061034360209142906139ce565b61290e8183613373565b90549060031b1c62278d0081018091116103cd574210612931575b6001016128ce565b8415801561295c575b15612929579350600161294d8583613373565b90549060031b1c949050612929565b50846129688284613373565b90549060031b1c1061293a565b503461029b578060031936011261029b576020600554604051908152f35b503461029b578060031936011261029b57600a546040516001600160a01b039091168152602090f35b503461029b57602036600319011261029b576004359060025482101561029b5760206129e783613327565b905460405160039290921b1c6001600160a01b03168152f35b503461029b57602036600319011261029b57612a1a61318d565b81546001600160a01b031633148015612ac4575b612a3790613932565b6001600160a01b038116612a4c81151561398d565b6001600160601b0360a01b6009541617600955336001600160601b0360a01b600a541617600a55426008557fc29bdbd554e41df97e5c40fc273a09677ac133c245f0064bdffef5cc72176e1960405180612abe339442908360209093929193604081019460018060a01b031681520152565b0390a280f35b50338252600b602052604082205460ff16612a2e565b503461029b57602036600319011261029b57612af461318d565b816102c0604051612b048161342e565b828152826020820152606060408201528260608201528260808201528260a08201528260c08201528260e08201528261010082015282610120820152826101408201528261016082015282610180820152826101a0820152826101c0820152826101e0820152826102008201526060610220820152826102408201528261026082015282610280820152826102a0820152015260018060a01b03168015612dbe578160049160405192838092631f385f7960e21b82525afa908115611787578291612d9c575b50906040519060208252612be26020830184516131a8565b60208301516040830152612c0760408401516102e06060850152610300840190613262565b92612c1a6060820151608085019061331a565b60ff60808201511660a084015260ff60a08201511660c084015260ff60c08201511660e084015260e081015161010084015261010081015161012084015261012081015161014084015261014081015161016084015260ff6101608201511661018084015260ff610180820151166101a08401526101a08101516101c08401526101c08101516101e08401526101e081015161020084015261020081015161022084015261022081015191601f198486030161024085015260208084519687815201930190945b808610612d3d57505082935060ff6102408201511661026084015260ff610260820151166102808401526102808101516102a08401526102a081015115156102c08401526102c060018060a01b03910151166102e08301520390f35b9092602060e060019260c08751858060a01b0381511683528481015185840152604081015160408401526060810151606084015260808101511515608084015260a0810151151560a0840152015160c082015201940195019490612ce1565b612db891503d8084833e612db0818361347b565b81019061366f565b38612bca565b60405162461bcd60e51b815260206004820152601760248201527f496e76616c6964206d697373696f6e20616464726573730000000000000000006044820152606490fd5b503461029b57602036600319011261029b5760043590600882101591826102d457600254928293835b818110612f3a5750612e3d856135b0565b93612e50612e4a876135b0565b966135e2565b938190825b848110612e6c5760405180610c7d898c8c846132e0565b612e7581613327565b905460039190911b1c6001600160a01b03168452600d602052604084205460ff16866106eb5760088110156106eb578214612eb3575b600101612e55565b919450612ebf82613327565b905460039190911b1c6001600160a01b0316612edb868961362c565b526001612f328496612eed818c61362c565b60ff85169052612efc85613327565b848060a01b0391549060031b1c1686526010602052612f1d6040872061349c565b612f27828b61362c565b52610da6818a61362c565b929050612eab565b612f4381613327565b905460039190911b1c6001600160a01b03168552600d602052604085205460ff1683610719576008811015610719578414612f81575b600101612e2c565b94612f8d600191613574565b959050612f79565b503461029b57602036600319011261029b57600435612fb261406f565b612fba614098565b81546001600160a01b0316908082156130af57156130a8575b478111613077578280808084865af13d15613072573d612ff281613559565b90613000604051928361347b565b81528460203d92013e5b156130415760207feaff4b37086828766ad3268786972c0cd24259d4c87a80f9d3963a3c3d999b0d91604051908152a26001805580f35b60405162461bcd60e51b815260206004820152600960248201526815160819985a5b195960ba1b6044820152606490fd5b61300a565b60405162461bcd60e51b81526020600482015260096024820152683e2062616c616e636560b81b6044820152606490fd5b5047612fd3565b60405162461bcd60e51b81526020600482015260096024820152682737ba1037bbb732b960b91b6044820152606490fd5b503461029b578060031936011261029b576009546040516001600160a01b039091168152602090f35b503461029b578060031936011261029b57602060ff60035460081c16604051908152f35b503461029b57602036600319011261029b5760209060ff906040906001600160a01b0361315861318d565b168152600d845220541661316f60405180926131a8565bf35b9050346102d457816003193601126102d4576020906008548152f35b600435906001600160a01b03821682036131a357565b600080fd5b9060088210156131b55752565b634e487b7160e01b600052602160045260246000fd5b906020808351928381520192019060005b8181106131e95750505090565b82516001600160a01b03168452602093840193909201916001016131dc565b906020808351928381520192019060005b8181106132265750505090565b825160ff16845260209384019390920191600101613219565b60005b8381106132525750506000910152565b8181015183820152602001613242565b9060209161327b8151809281855285808601910161323f565b601f01601f1916010190565b9080602083519182815201916020808360051b8301019401926000915b8383106132b357505050505090565b90919293946020806132d1600193601f198682030187528951613262565b970193019301919392906132a4565b91613309906132fb61331795936060865260608601906131cb565b908482036020860152613208565b916040818403910152613287565b90565b9060098210156131b55752565b60025481101561334257600260005260206000200190600090565b634e487b7160e01b600052603260045260246000fd5b60145481101561334257601460005260206000200190600090565b80548210156133425760005260206000200190600090565b9392906133a0906060865260608601906131cb565b9380850360208201526020808451968781520193016000955b8087106133d55750506133179394506040818403910152613287565b9093602080826133e860019489516131a8565b019501960195906133b9565b90600182811c92168015613424575b602083101461340e57565b634e487b7160e01b600052602260045260246000fd5b91607f1691613403565b6102e081019081106001600160401b0382111761344a57604052565b634e487b7160e01b600052604160045260246000fd5b608081019081106001600160401b0382111761344a57604052565b90601f801991011681019081106001600160401b0382111761344a57604052565b90604051918260008254926134b0846133f4565b808452936001811690811561351e57506001146134d7575b506134d59250038361347b565b565b90506000929192526020600020906000915b8183106135025750509060206134d592820101386134c8565b60209193508060019154838589010152019101909184926134e9565b9050602092506134d594915060ff191682840152151560051b820101386134c8565b60098110156131b557600052600e602052604060002090565b6001600160401b03811161344a57601f01601f191660200190565b60001981146135835760010190565b634e487b7160e01b600052601160045260246000fd5b6001600160401b03811161344a5760051b60200190565b906135ba82613599565b6135c7604051918261347b565b82815280926135d8601f1991613599565b0190602036910137565b906135ec82613599565b6135f9604051918261347b565b828152809261360a601f1991613599565b019060005b82811061361b57505050565b80606060208093850101520161360f565b80518210156133425760209160051b010190565b519060ff821682036131a357565b51906001600160a01b03821682036131a357565b519081151582036131a357565b6020818303126131a3578051906001600160401b0382116131a357016102e0818303126131a357604051916136a38361342e565b815160088110156131a35783526020820151602084015260408201516001600160401b0381116131a357820181601f820112156131a3578051906136e682613559565b916136f4604051938461347b565b80835283602082840101116131a357613713916020808501910161323f565b6040840152606082015160098110156131a357606084015261373760808301613640565b608084015261374860a08301613640565b60a084015261375960c08301613640565b60c084015260e082015160e08401526101008201516101008401526101208201516101208401526101408201516101408401526137996101608301613640565b6101608401526137ac6101808301613640565b6101808401526101a08201516101a08401526101c08201516101c08401526101e08201516101e08401526102008201516102008401526102208201516001600160401b0381116131a357820181601f820112156131a35780519061380f82613599565b9261381d604051948561347b565b828452602060e08186019402830101918183116131a357602001925b8284106138a6575050505061389d916102c09161022085015261385f6102408201613640565b6102408501526138726102608201613640565b6102608501526102808101516102808501526138916102a08201613662565b6102a08501520161364e565b6102c082015290565b60e0848303126131a3576040519060e08201908282106001600160401b0383111761344a5760e0926020926040526138dd8761364e565b81528287015183820152604087015160408201526060870151606082015261390760808801613662565b608082015261391860a08801613662565b60a082015260c087015160c0820152815201930192613839565b1561393957565b60405162461bcd60e51b815260206004820152602660248201527f4e6f74206f776e6572206f72204d697373696f6e466163746f727920617574686044820152651bdc9a5e995960d21b6064820152608490fd5b1561399457565b60405162461bcd60e51b8152602060048201526005602482015264416464723f60d81b6044820152606490fd5b9190820180921161358357565b9190820391821161358357565b8015613583576000190190565b60088210156131b55752565b6002548015613c8957624f19ff1942014281116135835762278cff194201428111613583576000929182805b613b9a575b50613a2f846135b0565b613a38856135b0565b95613a42866135e2565b946000905b80151580613b91575b15613b86576000190190613a6382613327565b60018060a01b0391549060031b1c1680600052600d60205260ff60406000205416604051631f385f7960e21b8152600081600481865afa908115613b7a578c918a91600091613b61575b50896101e082018181511080613b3a575b15613b2f5750506102000151105b613b2057829161233185613aee938196613ae86001998d61362c565b5261362c565b6000526010602052613b03604060002061349c565b613b0d828a61362c565b52613b18818961362c565b500190613a47565b50949998509295505050505050565b915091505110613acc565b50925050915060088310156131b5578c91898b926006861480613abe575060078614613abe565b613b74913d8091833e612db0818361347b565b38613aad565b6040513d6000823e3d90fd5b509196955092505050565b50878210613a50565b6000949394190192613bab84613327565b60018060a01b0391549060031b1c1680600052600d6020526004600060ff6040822054169260405192838092631f385f7960e21b82525afa908115613b7a5785928591600093613c6e575b506101e0830190828251109081613c3e575b5015613c335750506102000151105b613c2c57613c258491613574565b9493613a20565b9392613a25565b915091505110613c17565b925050925060088110156131b5578592816006879314908115613c63575b5038613c08565b600791501438613c5c565b613c8291933d8091833e612db0818361347b565b9138613bf6565b50602060405191613c9a828461347b565b60008352600036813760405192613cb1838561347b565b600084526000368137604051926000613cca828661347b565b8452601f19810160005b818110613ce357505050929190565b60608682018401528201613cd4565b908060209392818452848401376000828201840152601f01601f1916010190565b6008548015613d7557620151808101918282116135835782421015613d5a57600954600a546001600160a01b039081169491169190613d539042906139ce565b9193929190565b600954600a546001600160a01b039182169450169190600090565b50600090600090600090600090565b6001600160a01b03166000908152600f602052604081208054829182918291825b828110613e6c575050506003549160ff8316119060ff82159360081c1611918215928280613e65575b613e575781613e4f575b50613e435781613e3b575b50613e315762093a80810180911161358357613e009042906139ce565b9062278d00810180911161358357613e199042906139ce565b1115613e29576002905b60009190565b600190613e23565b5050600090600290565b905038613de3565b50505050600090600190565b905038613dd8565b505050505050600190600090565b5080613dce565b613e768183613373565b90549060031b1c62278d008101808211613583574210613e9a575b50600101613da5565b93613ea490613574565b9387158015613efa575b613ef2575b62093a80810180821161358357421015613e915794613ed190613574565b9486158015613ee9575b15613e915795506001613e91565b50868110613edb565b965086613eb3565b50878110613eae565b15613f0a57565b60405162461bcd60e51b815260206004820152603660248201527f4d697373696f6e466163746f72793a2063616c6c6572206973206e6f742061206044820152751d985b1a59081b5a5cdcda5bdb8818dbdb9d1c9858dd60521b6064820152608490fd5b80548015613f97576000190190613f858282613373565b8154906000199060031b1b1916905555565b634e487b7160e01b600052603160045260246000fd5b6001600160a01b03166000908152600f602052604090208054929183156140695760005b848110613fdf575050505050565b613fe98184613373565b90549060031b1c8483821015918261405e575b505061400a57600101613fd1565b919250509291925b600181018082116135835784811015614051579061404761403661404c9385613373565b90549060031b1c610b288386613373565b613574565b614012565b50506134d5919250613f6e565b111590508438613ffc565b50505050565b6000546001600160a01b0316330361408357565b63118cdaa760e01b6000523360045260246000fd5b6002600154146140a9576002600155565b633ee5aeb560e01b60005260046000fd5b600080546001600160a01b039283166001600160a01b03198216811783559216907f8be0079c531659141344cd1fd0a4f28419497f9722a3daafe3b4186f6b6457e09080a3565b6001600160a01b0381166000908152600d602052604090205460ff1660088110156131b5576134d5915b601354916001600160401b036001818516011680936001600160401b0319161760135560018060a01b0382169283600052601560205263ffffffff60406000205416916001600160401b03600160405161418481613460565b8781526020810164ffffffffff421681526040820195865260ff6060830195168552886000526016602052604060002091838060a01b039051166001600160601b0360a01b8354161782555181549064ffffffffff60a01b9060a01b169064ffffffffff60a01b1916178155019251166001600160401b03198354161782555160ff60401b82549160401b169060ff60401b191617905515614224575050565b60145490600160401b82101561344a5761159982600161424994016014556014613373565b63ffffffff6014541690600052601560205263ffffffff6040600020911663ffffffff19825416179055565b63ffffffff1663ffffffff81146135835760010190565b601454156144d657600062093a7f1942014281116135835764ffffffffff16915b600863ffffffff831610806144cb575b156144c65760175460145463ffffffff821610156144b6575b5060175463ffffffff8116906142eb82613358565b60018060a01b0391549060031b1c16918260005260166020526060604060002060405161431781613460565b60ff6001835493818060a01b038516845264ffffffffff602085019560a01c16855201546001600160401b038116604084015260401c16928391015260088210156131b5578790600092600681149384156144a9575b505082614496575b50501561446957505060145460001981019081116135835763ffffffff6017541690808203614400575b50506014548015613f9757600019016143b781613358565b81549060018060a01b039060031b1b19169055601455806000526015602052604060002063ffffffff1981541690556000526016602052600060016040822082815501556142ad565b6115999161441061442a92613358565b905460039190911b1c6001600160a01b0316928391613358565b600163ffffffff60175416019063ffffffff821161358357600052601560205263ffffffff6040600020911663ffffffff19825416179055388061439f565b6144909394925061447e63ffffffff91614275565b169063ffffffff191617601755614275565b906142ad565b5164ffffffffff16111590508638614375565b506007149250388061436d565b63ffffffff1916601755386142d6565b915050565b5060145415156142bd565b63ffffffff196017541660175556fea2646970667358221220fd0973fc592972a3f275ec200ff1bd7b7c0310aefe3587d674e2af2874301af364736f6c634300081e0033",
  "linkReferences": {},
  "deployedLinkReferences": {}
}