{
  "_format": "hh-sol-artifact-1",
  "contractName": "MissionFactory",
  "sourceName": "contracts/MissionFactory.sol",
  "abi": [
    {
      "inputs": [
        {
          "internalType": "address",
          "name": "_impl",
          "type": "address"
        }
      ],
      "stateMutability": "nonpayable",
      "type": "constructor"
    },
    {
      "inputs": [],
      "name": "FailedDeployment",
      "type": "error"
    },
    {
      "inputs": [
        {
          "internalType": "uint256",
          "name": "balance",
          "type": "uint256"
        },
        {
          "internalType": "uint256",
          "name": "needed",
          "type": "uint256"
        }
      ],
      "name": "InsufficientBalance",
      "type": "error"
    },
    {
      "inputs": [
        {
          "internalType": "address",
          "name": "owner",
          "type": "address"
        }
      ],
      "name": "OwnableInvalidOwner",
      "type": "error"
    },
    {
      "inputs": [
        {
          "internalType": "address",
          "name": "account",
          "type": "address"
        }
      ],
      "name": "OwnableUnauthorizedAccount",
      "type": "error"
    },
    {
      "inputs": [],
      "name": "ReentrancyGuardReentrantCall",
      "type": "error"
    },
    {
      "anonymous": false,
      "inputs": [
        {
          "indexed": true,
          "internalType": "address",
          "name": "addr",
          "type": "address"
        }
      ],
      "name": "AuthorizedAddressAdded",
      "type": "event"
    },
    {
      "anonymous": false,
      "inputs": [
        {
          "indexed": true,
          "internalType": "address",
          "name": "addr",
          "type": "address"
        }
      ],
      "name": "AuthorizedAddressRemoved",
      "type": "event"
    },
    {
      "anonymous": false,
      "inputs": [
        {
          "indexed": false,
          "internalType": "uint8",
          "name": "newWeekly",
          "type": "uint8"
        },
        {
          "indexed": false,
          "internalType": "uint8",
          "name": "newMonthly",
          "type": "uint8"
        }
      ],
      "name": "EnrollmentLimitUpdated",
      "type": "event"
    },
    {
      "anonymous": false,
      "inputs": [
        {
          "indexed": true,
          "internalType": "address",
          "name": "user",
          "type": "address"
        },
        {
          "indexed": false,
          "internalType": "uint256",
          "name": "timestamp",
          "type": "uint256"
        }
      ],
      "name": "EnrollmentRecorded",
      "type": "event"
    },
    {
      "anonymous": false,
      "inputs": [
        {
          "indexed": true,
          "internalType": "address",
          "name": "sender",
          "type": "address"
        },
        {
          "indexed": false,
          "internalType": "uint256",
          "name": "amount",
          "type": "uint256"
        }
      ],
      "name": "FundsReceived",
      "type": "event"
    },
    {
      "anonymous": false,
      "inputs": [
        {
          "indexed": true,
          "internalType": "address",
          "name": "to",
          "type": "address"
        },
        {
          "indexed": false,
          "internalType": "uint256",
          "name": "amount",
          "type": "uint256"
        }
      ],
      "name": "FundsWithdrawn",
      "type": "event"
    },
    {
      "anonymous": false,
      "inputs": [
        {
          "indexed": true,
          "internalType": "address",
          "name": "missionAddress",
          "type": "address"
        },
        {
          "indexed": true,
          "internalType": "enum MissionType",
          "name": "missionType",
          "type": "uint8"
        }
      ],
      "name": "MissionCreated",
      "type": "event"
    },
    {
      "anonymous": false,
      "inputs": [
        {
          "indexed": false,
          "internalType": "uint256",
          "name": "amount",
          "type": "uint256"
        },
        {
          "indexed": true,
          "internalType": "enum MissionType",
          "name": "missionType",
          "type": "uint8"
        },
        {
          "indexed": true,
          "internalType": "address",
          "name": "sender",
          "type": "address"
        }
      ],
      "name": "MissionFundsRegistered",
      "type": "event"
    },
    {
      "anonymous": false,
      "inputs": [
        {
          "indexed": true,
          "internalType": "address",
          "name": "confirmer",
          "type": "address"
        },
        {
          "indexed": false,
          "internalType": "address",
          "name": "newOwner",
          "type": "address"
        },
        {
          "indexed": false,
          "internalType": "uint256",
          "name": "timestamp",
          "type": "uint256"
        }
      ],
      "name": "OwnershipTransferConfirmed",
      "type": "event"
    },
    {
      "anonymous": false,
      "inputs": [
        {
          "indexed": true,
          "internalType": "address",
          "name": "proposer",
          "type": "address"
        },
        {
          "indexed": false,
          "internalType": "address",
          "name": "newOwner",
          "type": "address"
        },
        {
          "indexed": false,
          "internalType": "uint256",
          "name": "timestamp",
          "type": "uint256"
        }
      ],
      "name": "OwnershipTransferProposed",
      "type": "event"
    },
    {
      "anonymous": false,
      "inputs": [
        {
          "indexed": true,
          "internalType": "address",
          "name": "previousOwner",
          "type": "address"
        },
        {
          "indexed": true,
          "internalType": "address",
          "name": "newOwner",
          "type": "address"
        }
      ],
      "name": "OwnershipTransferred",
      "type": "event"
    },
    {
      "stateMutability": "payable",
      "type": "fallback"
    },
    {
      "inputs": [],
      "name": "OWNERSHIP_PROPOSAL_WINDOW",
      "outputs": [
        {
          "internalType": "uint256",
          "name": "",
          "type": "uint256"
        }
      ],
      "stateMutability": "view",
      "type": "function"
    },
    {
      "inputs": [
        {
          "internalType": "address",
          "name": "account",
          "type": "address"
        }
      ],
      "name": "addAuthorizedAddress",
      "outputs": [],
      "stateMutability": "nonpayable",
      "type": "function"
    },
    {
      "inputs": [
        {
          "internalType": "address",
          "name": "",
          "type": "address"
        }
      ],
      "name": "authorized",
      "outputs": [
        {
          "internalType": "bool",
          "name": "",
          "type": "bool"
        }
      ],
      "stateMutability": "view",
      "type": "function"
    },
    {
      "inputs": [
        {
          "internalType": "address",
          "name": "user",
          "type": "address"
        }
      ],
      "name": "canEnroll",
      "outputs": [
        {
          "internalType": "bool",
          "name": "ok",
          "type": "bool"
        },
        {
          "internalType": "enum Limit",
          "name": "breach",
          "type": "uint8"
        }
      ],
      "stateMutability": "view",
      "type": "function"
    },
    {
      "inputs": [
        {
          "internalType": "address",
          "name": "newOwner",
          "type": "address"
        }
      ],
      "name": "confirmOwnershipTransfer",
      "outputs": [],
      "stateMutability": "nonpayable",
      "type": "function"
    },
    {
      "inputs": [
        {
          "internalType": "enum MissionType",
          "name": "_missionType",
          "type": "uint8"
        },
        {
          "internalType": "uint256",
          "name": "_enrollmentStart",
          "type": "uint256"
        },
        {
          "internalType": "uint256",
          "name": "_enrollmentEnd",
          "type": "uint256"
        },
        {
          "internalType": "uint256",
          "name": "_enrollmentAmount",
          "type": "uint256"
        },
        {
          "internalType": "uint8",
          "name": "_enrollmentMinPlayers",
          "type": "uint8"
        },
        {
          "internalType": "uint8",
          "name": "_enrollmentMaxPlayers",
          "type": "uint8"
        },
        {
          "internalType": "uint256",
          "name": "_missionStart",
          "type": "uint256"
        },
        {
          "internalType": "uint256",
          "name": "_missionEnd",
          "type": "uint256"
        },
        {
          "internalType": "uint8",
          "name": "_missionRounds",
          "type": "uint8"
        }
      ],
      "name": "createMission",
      "outputs": [
        {
          "internalType": "address",
          "name": "",
          "type": "address"
        }
      ],
      "stateMutability": "payable",
      "type": "function"
    },
    {
      "inputs": [],
      "name": "getAllMissions",
      "outputs": [
        {
          "internalType": "address[]",
          "name": "",
          "type": "address[]"
        },
        {
          "internalType": "enum Status[]",
          "name": "",
          "type": "uint8[]"
        }
      ],
      "stateMutability": "view",
      "type": "function"
    },
    {
      "inputs": [
        {
          "internalType": "enum MissionType",
          "name": "_type",
          "type": "uint8"
        }
      ],
      "name": "getFundsByType",
      "outputs": [
        {
          "internalType": "uint256",
          "name": "",
          "type": "uint256"
        }
      ],
      "stateMutability": "view",
      "type": "function"
    },
    {
      "inputs": [
        {
          "internalType": "uint256",
          "name": "n",
          "type": "uint256"
        }
      ],
      "name": "getLatestMissions",
      "outputs": [
        {
          "internalType": "address[]",
          "name": "",
          "type": "address[]"
        }
      ],
      "stateMutability": "view",
      "type": "function"
    },
    {
      "inputs": [
        {
          "internalType": "address",
          "name": "missionAddress",
          "type": "address"
        }
      ],
      "name": "getMissionData",
      "outputs": [
        {
          "components": [
            {
              "internalType": "address[]",
              "name": "players",
              "type": "address[]"
            },
            {
              "internalType": "enum MissionType",
              "name": "missionType",
              "type": "uint8"
            },
            {
              "internalType": "uint256",
              "name": "enrollmentStart",
              "type": "uint256"
            },
            {
              "internalType": "uint256",
              "name": "enrollmentEnd",
              "type": "uint256"
            },
            {
              "internalType": "uint256",
              "name": "enrollmentAmount",
              "type": "uint256"
            },
            {
              "internalType": "uint8",
              "name": "enrollmentMinPlayers",
              "type": "uint8"
            },
            {
              "internalType": "uint8",
              "name": "enrollmentMaxPlayers",
              "type": "uint8"
            },
            {
              "internalType": "uint256",
              "name": "missionStart",
              "type": "uint256"
            },
            {
              "internalType": "uint256",
              "name": "missionEnd",
              "type": "uint256"
            },
            {
              "internalType": "uint8",
              "name": "missionRounds",
              "type": "uint8"
            },
            {
              "internalType": "uint8",
              "name": "roundCount",
              "type": "uint8"
            },
            {
              "internalType": "uint256",
              "name": "ethStart",
              "type": "uint256"
            },
            {
              "internalType": "uint256",
              "name": "ethCurrent",
              "type": "uint256"
            },
            {
              "components": [
                {
                  "internalType": "address",
                  "name": "player",
                  "type": "address"
                },
                {
                  "internalType": "uint256",
                  "name": "amountWon",
                  "type": "uint256"
                }
              ],
              "internalType": "struct Mission.PlayersWon[]",
              "name": "playersWon",
              "type": "tuple[]"
            },
            {
              "internalType": "uint256",
              "name": "pauseTimestamp",
              "type": "uint256"
            },
            {
              "internalType": "address[]",
              "name": "refundedPlayers",
              "type": "address[]"
            }
          ],
          "internalType": "struct Mission.MissionData",
          "name": "",
          "type": "tuple"
        }
      ],
      "stateMutability": "view",
      "type": "function"
    },
    {
      "inputs": [
        {
          "internalType": "enum Status",
          "name": "s",
          "type": "uint8"
        }
      ],
      "name": "getMissionsByStatus",
      "outputs": [
        {
          "internalType": "address[]",
          "name": "",
          "type": "address[]"
        }
      ],
      "stateMutability": "view",
      "type": "function"
    },
    {
      "inputs": [],
      "name": "getMissionsEnded",
      "outputs": [
        {
          "internalType": "address[]",
          "name": "",
          "type": "address[]"
        }
      ],
      "stateMutability": "view",
      "type": "function"
    },
    {
      "inputs": [],
      "name": "getMissionsNotEnded",
      "outputs": [
        {
          "internalType": "address[]",
          "name": "",
          "type": "address[]"
        }
      ],
      "stateMutability": "view",
      "type": "function"
    },
    {
      "inputs": [
        {
          "internalType": "address",
          "name": "player",
          "type": "address"
        }
      ],
      "name": "getPlayerLimits",
      "outputs": [
        {
          "internalType": "uint8",
          "name": "weekUsed",
          "type": "uint8"
        },
        {
          "internalType": "uint8",
          "name": "weekMax",
          "type": "uint8"
        },
        {
          "internalType": "uint8",
          "name": "monthUsed",
          "type": "uint8"
        },
        {
          "internalType": "uint8",
          "name": "monthMax",
          "type": "uint8"
        },
        {
          "internalType": "uint256",
          "name": "secToWeek",
          "type": "uint256"
        },
        {
          "internalType": "uint256",
          "name": "secToMonth",
          "type": "uint256"
        }
      ],
      "stateMutability": "view",
      "type": "function"
    },
    {
      "inputs": [
        {
          "internalType": "address",
          "name": "",
          "type": "address"
        }
      ],
      "name": "isMission",
      "outputs": [
        {
          "internalType": "bool",
          "name": "",
          "type": "bool"
        }
      ],
      "stateMutability": "view",
      "type": "function"
    },
    {
      "inputs": [],
      "name": "missionImplementation",
      "outputs": [
        {
          "internalType": "address",
          "name": "",
          "type": "address"
        }
      ],
      "stateMutability": "view",
      "type": "function"
    },
    {
      "inputs": [
        {
          "internalType": "address",
          "name": "",
          "type": "address"
        }
      ],
      "name": "missionStatus",
      "outputs": [
        {
          "internalType": "enum Status",
          "name": "",
          "type": "uint8"
        }
      ],
      "stateMutability": "view",
      "type": "function"
    },
    {
      "inputs": [
        {
          "internalType": "uint256",
          "name": "",
          "type": "uint256"
        }
      ],
      "name": "missions",
      "outputs": [
        {
          "internalType": "address",
          "name": "",
          "type": "address"
        }
      ],
      "stateMutability": "view",
      "type": "function"
    },
    {
      "inputs": [],
      "name": "monthlyLimit",
      "outputs": [
        {
          "internalType": "uint8",
          "name": "",
          "type": "uint8"
        }
      ],
      "stateMutability": "view",
      "type": "function"
    },
    {
      "inputs": [],
      "name": "owner",
      "outputs": [
        {
          "internalType": "address",
          "name": "",
          "type": "address"
        }
      ],
      "stateMutability": "view",
      "type": "function"
    },
    {
      "inputs": [
        {
          "internalType": "address",
          "name": "",
          "type": "address"
        }
      ],
      "name": "ownershipProposals",
      "outputs": [
        {
          "internalType": "address",
          "name": "proposer",
          "type": "address"
        },
        {
          "internalType": "uint256",
          "name": "timestamp",
          "type": "uint256"
        }
      ],
      "stateMutability": "view",
      "type": "function"
    },
    {
      "inputs": [
        {
          "internalType": "address",
          "name": "newOwner",
          "type": "address"
        }
      ],
      "name": "proposeOwnershipTransfer",
      "outputs": [],
      "stateMutability": "nonpayable",
      "type": "function"
    },
    {
      "inputs": [
        {
          "internalType": "address",
          "name": "user",
          "type": "address"
        }
      ],
      "name": "recordEnrollment",
      "outputs": [],
      "stateMutability": "nonpayable",
      "type": "function"
    },
    {
      "inputs": [
        {
          "internalType": "uint256",
          "name": "amount",
          "type": "uint256"
        },
        {
          "internalType": "enum MissionType",
          "name": "missionType",
          "type": "uint8"
        }
      ],
      "name": "registerMissionFunds",
      "outputs": [],
      "stateMutability": "nonpayable",
      "type": "function"
    },
    {
      "inputs": [
        {
          "internalType": "address",
          "name": "account",
          "type": "address"
        }
      ],
      "name": "removeAuthorizedAddress",
      "outputs": [],
      "stateMutability": "nonpayable",
      "type": "function"
    },
    {
      "inputs": [],
      "name": "renounceOwnership",
      "outputs": [],
      "stateMutability": "nonpayable",
      "type": "function"
    },
    {
      "inputs": [
        {
          "internalType": "enum MissionType",
          "name": "",
          "type": "uint8"
        }
      ],
      "name": "reservedFunds",
      "outputs": [
        {
          "internalType": "uint256",
          "name": "",
          "type": "uint256"
        }
      ],
      "stateMutability": "view",
      "type": "function"
    },
    {
      "inputs": [],
      "name": "reservedFundsBreakdown",
      "outputs": [
        {
          "internalType": "uint256[7]",
          "name": "",
          "type": "uint256[7]"
        }
      ],
      "stateMutability": "view",
      "type": "function"
    },
    {
      "inputs": [
        {
          "internalType": "address",
          "name": "user",
          "type": "address"
        }
      ],
      "name": "secondsTillMonthlySlot",
      "outputs": [
        {
          "internalType": "uint256",
          "name": "",
          "type": "uint256"
        }
      ],
      "stateMutability": "view",
      "type": "function"
    },
    {
      "inputs": [
        {
          "internalType": "address",
          "name": "user",
          "type": "address"
        }
      ],
      "name": "secondsTillWeeklySlot",
      "outputs": [
        {
          "internalType": "uint256",
          "name": "",
          "type": "uint256"
        }
      ],
      "stateMutability": "view",
      "type": "function"
    },
    {
      "inputs": [
        {
          "internalType": "uint8",
          "name": "_weekly",
          "type": "uint8"
        },
        {
          "internalType": "uint8",
          "name": "_monthly",
          "type": "uint8"
        }
      ],
      "name": "setEnrollmentLimits",
      "outputs": [],
      "stateMutability": "nonpayable",
      "type": "function"
    },
    {
      "inputs": [
        {
          "internalType": "enum Status",
          "name": "newStatus",
          "type": "uint8"
        }
      ],
      "name": "setMissionStatus",
      "outputs": [],
      "stateMutability": "nonpayable",
      "type": "function"
    },
    {
      "inputs": [
        {
          "internalType": "address",
          "name": "newOwner",
          "type": "address"
        }
      ],
      "name": "transferOwnership",
      "outputs": [],
      "stateMutability": "nonpayable",
      "type": "function"
    },
    {
      "inputs": [],
      "name": "weeklyLimit",
      "outputs": [
        {
          "internalType": "uint8",
          "name": "",
          "type": "uint8"
        }
      ],
      "stateMutability": "view",
      "type": "function"
    },
    {
      "inputs": [
        {
          "internalType": "uint256",
          "name": "amount",
          "type": "uint256"
        }
      ],
      "name": "withdrawFunds",
      "outputs": [],
      "stateMutability": "nonpayable",
      "type": "function"
    },
    {
      "stateMutability": "payable",
      "type": "receive"
    }
  ],
  "bytecode": "0x60a03461011e57601f612e2138819003918201601f19168301916001600160401b038311848410176101235780849260209460405283398101031261011e57516001600160a01b03811680820361011e5733156101085760008054336001600160a01b0319821681178355604051939290916001600160a01b0316907f8be0079c531659141344cd1fd0a4f28419497f9722a3daafe3b4186f6b6457e09080a360018055610a0461ffff196009541617600955156100da5750608052604051612ce7908161013a823960805181818161097b0152610f350152f35b62461bcd60e51b8152602060048201526009602482015268696d706c207a65726f60b81b6044820152606490fd5b631e4fbdf760e01b600052600060045260246000fd5b600080fd5b634e487b7160e01b600052604160045260246000fdfe6080806040526004361015610011575b005b600090813560e01c9081630814ab8214612319575080630a6005da146122f5578063155dd5ee146121335780631e59d58414611ff257806320c5718f14611d9157806321040fc314611c695780632c8fe52614611c255780632e33b07f146106fe5780633701276214611b465780633c2139571461193357806342f1181e146118425780636805036d146116915780636d8a139014611617578063707129391461152c578063715018a6146114d25780637e9eae501461143f578063861a68d61461141e5780638da5cb5b146113f75780639804a586146113ad5780639b15953914610e915780639c3d3a2014610d04578063aa1f059514610cc2578063b6202913146109ec578063b9181611146109aa578063bd48772514610965578063c17f9e5914610731578063c416ad2a146106fe578063cbf2080d14610567578063d3050eba14610549578063d41eca641461049b578063d8d6e8ff146103e8578063df4db46314610361578063eff0ab9214610254578063f2fde38b146101fd5763fb4cdea70361000f57346101fa5760203660031901126101fa576004356001600160a01b038116908190036101f857815260076020908152604091829020805460019091015483516001600160a01b0390921682529181019190915290819081015b0390f35b505b80fd5b50346101fa5760203660031901126101fa576004356001600160a01b0381168082036102505761022b612c41565b1561023c5761023990612c6a565b80f35b631e4fbdf760e01b82526004829052602482fd5b8280fd5b50346101fa5760203660031901126101fa576004356001600160a01b038116908190036101f857815260086020526040812080548291825b8281106102dc57505050816102a857602091505b604051908152f35b62093a8082018092116102c857506102c360209142906127e2565b6102a0565b634e487b7160e01b81526011600452602490fd5b6102e681836123fb565b90549060031b1c62093a80810180911161034d574210610309575b60010161028c565b84158015610334575b15610301579350600161032585836123fb565b90549060031b1c949050610301565b508461034082846123fb565b90549060031b1c10610312565b634e487b7160e01b85526011600452602485fd5b50346101fa57806003193601126101fa5760e0908160405161038382826124d6565b3690376040519061039483836124d6565b82368337805b60078110156103bd576001906103af81612413565b548160051b8501520161039a565b506040519190825b600782106103d257505050f35b60208060019285518152019301910190916103c5565b50346101fa5760203660031901126101fa5760043560088110156101f857338252600560205260ff60408320541615610437573382526004602052604082209060ff8019835416911617905580f35b60405162461bcd60e51b815260206004820152603660248201527f4d697373696f6e466163746f72793a2063616c6c6572206973206e6f742061206044820152751d985b1a59081b5a5cdcda5bdb8818dbdb9d1c9858dd60521b6064820152608490fd5b50346101fa5760403660031901126101fa5760043560ff81168091036101f85760243560ff811691828203610545577f321994b8855ae38e4fd6162f7a0bd7cde88be83aa3acc96e03c17b7f733b43e19260409260018060a01b0386541633148015610530575b61050b9061242c565b8261ff006009549260081b169161ffff1916171760095582519182526020820152a180f35b5033865260026020528386205460ff16610502565b8380fd5b50346101fa57806003193601126101fa576020604051620151808152f35b50346101fa5760203660031901126101fa576004356001600160a01b038116908190036101f85781526008602052604081208190829083809181908054915b82811061065357505050600954948015600014610621575080915b806105fb575060c09460ff8092945b8160405197168752818316602088015216604086015260081c166060840152608083015260a0820152f35b9062278d0082018092116102c8575060c09460ff61061b819342906127e2565b946105d0565b62093a80810180911161063f576106399042906127e2565b916105c1565b634e487b7160e01b82526011600452602482fd5b61065d81836123fb565b90549060031b1c62278d0081018082116106d9574210610681575b506001016105a6565b9561068b906124f8565b95851580156106f5575b6106ed575b62093a8081018082116106d95742101561067857966106b8906124f8565b96881580156106d0575b156106785797506001610678565b508881106106c2565b634e487b7160e01b86526011600452602486fd5b94508461069a565b50858110610695565b50346101fa5760203660031901126101fa576004359060078210156101fa57602061072883612413565b54604051908152f35b50346101fa5760203660031901126101fa576004356001600160a01b038116908190036101f857338252600460205260ff60408320541660088110156109515760010361091b5762278cff1942019042821161090757808352600860205260408320805492845b848110806108ee575b156107b4576107af906124f8565b610798565b838387928061083a575b50805490600160401b82101561082657816107e19160016107f9940181556123fb565b429082549060031b91821b91600019901b1916179055565b7f498f5e6dcf570483a1848853791046a7f10012193176d71f959f46eb7713d7446020604051428152a280f35b634e487b7160e01b84526041600452602484fd5b92805b6108488584546127e2565b8110156108985780610892610868610862886001956127d5565b866123fb565b90549060031b1c61087983876123fb565b90919082549060031b91821b91600019901b1916179055565b0161083d565b5092835b8181106108a957506107be565b825480156108da5760019190600019016108c381866123fb565b8154906000199060031b1b1916905584550161089c565b634e487b7160e01b86526031600452602486fd5b50816108fa82856123fb565b90549060031b1c106107a1565b634e487b7160e01b83526011600452602483fd5b60405162461bcd60e51b815260206004820152600e60248201526d24b73b30b634b21031b0b63632b960911b6044820152606490fd5b634e487b7160e01b83526021600452602483fd5b50346101fa57806003193601126101fa576040517f00000000000000000000000000000000000000000000000000000000000000006001600160a01b03168152602090f35b50346101fa5760203660031901126101fa576004356001600160a01b038116908190036101f85760408260ff9260209452600284522054166040519015158152f35b50346101fa57806003193601126101fa5762278cff19420142811161063f5760065482835b828110610b995750610a2290612535565b918390845b838110610a4457604051602080825281906101f490820188612380565b610a4d816123ca565b905460039190911b1c6001600160a01b031686526004602052604086205460ff166008811015610b8557600614908115610b47575b81610ac6575b600191610a96575b01610a27565b610a9f816123ca565b838060a01b0391549060031b1c16610ac0610ab9866124f8565b9588612567565b52610a90565b6004915086610ad4826123ca565b9054604051631f385f7960e21b81529485929091839160031b1c6001600160a01b03165afa8015610b3c5761010084916001948a91610b1a575b50015110159150610a88565b610b3691503d808c833e610b2e81836124d6565b810190612607565b38610b0e565b6040513d89823e3d90fd5b9050610b52816123ca565b905460039190911b1c6001600160a01b031686526004602052604086205460ff166008811015610b855760071490610a82565b634e487b7160e01b87526021600452602487fd5b610ba2816123ca565b905460039190911b1c6001600160a01b031685526004602052604085205460ff166008811015610cae576006148015610c72575b80610bfd575b610be9575b600101610a11565b90610bf56001916124f8565b919050610be1565b50600485610c0a836123ca565b9054604051631f385f7960e21b81529384929091839160031b1c6001600160a01b03165afa908115610c67578591610100918891610c4d575b5001511015610bdc565b610c6191503d808a833e610b2e81836124d6565b38610c43565b6040513d88823e3d90fd5b50610c7c816123ca565b905460039190911b1c6001600160a01b031685526004602052604085205460ff166008811015610cae57600714610bd6565b634e487b7160e01b86526021600452602486fd5b50346101fa5760203660031901126101fa576004356001600160a01b038116908190036101f85760408260ff9260209452600584522054166040519015158152f35b50346101fa5760403660031901126101fa576004356024356007811015610250578115610e4d57338352600460205260ff6040842054166008811015610e39576006148015610e17575b83546001600160a01b031633148015610e01575b8115610df9575b5015610db457610d7881612413565b610d838382546127d5565b90556040519182527f606617fd09d9890413e3c46147b844d4562351f86e0f7a5c60849bbf0ef0281160203393a380f35b60405162461bcd60e51b815260206004820152601d60248201527f43616c6c6572206e6f742061206d697373696f6e206f722061646d696e0000006044820152606490fd5b905038610d69565b50338452600260205260ff604085205416610d62565b50338352600460205260ff6040842054166008811015610e3957600714610d4e565b634e487b7160e01b84526021600452602484fd5b606460405162461bcd60e51b815260206004820152602060248201527f416d6f756e74206d7573742062652067726561746572207468616e207a65726f6044820152fd5b506101203660031901126101fa5760043560078110156101f857602435906044359160643560843560ff81168091036113a95760a43560ff81168091036113a55760c4359060e43592610104359460ff86168096036113a15789546001600160a01b03163314801561138b575b610f079061242c565b6005861061132c578582106112c157888710156112705788841061121257838511156111ce578015611175577f0000000000000000000000000000000000000000000000000000000000000000608881901c62ffffff16763d602d80600a3d3981f3363d3d373d3d3d363d73000000178b5260781b6e5af43d82803e903d91602b57fd5bf3176020526001600160a01b03603760098cf01698891561116657898b52600560205260408b20600160ff19825416179055898b52600460205260408b2060ff19815416905560018060a01b038b5416978a3b15611162576040519863c54168b360e01b8a5260048a01523060248a015261100960448a018b6123bd565b6064890152608488015260a487015260c486015260e485015261010484015261012483015261014482015283816101648134875af1801561115757611143575b50600654600160401b8110156108265780600161106992016006556123ca565b81546001600160a01b0360039290921b91821b19169084901b17905580827f0ac1ac89285bf936f515aafcf6808b3e062e77fd57f52c8892d20fc9409b8b538580a36110b481612413565b5460021c9081151580611139575b6110d2575b602083604051908152f35b6110db90612413565b6110e68282546127e2565b905582823b156101fa5760405163eb2bab7760e01b81529182906004908290865af1801561112e57611119575b806110c7565b6111248380926124d6565b6101f85781611113565b6040513d85823e3d90fd5b50814710156110c2565b83611150919492946124d6565b9138611049565b6040513d86823e3d90fd5b8b80fd5b63b06ebf3d60e01b8b5260048bfd5b60405162461bcd60e51b815260206004820152602b60248201527f456e726f6c6c6d656e7420616d6f756e74206d7573742062652067726561746560448201526a72207468616e207a65726f60a81b6064820152608490fd5b606460405162461bcd60e51b815260206004820152602060248201527f4d697373696f6e207374617274206d757374206265206265666f726520656e646044820152fd5b60405162461bcd60e51b815260206004820152603060248201527f4d697373696f6e207374617274206d757374206265206f6e206f72206166746560448201526f1c88195b9c9bdb1b1b595b9d08195b9960821b6064820152608490fd5b60405162461bcd60e51b815260206004820152602360248201527f456e726f6c6c6d656e74207374617274206d757374206265206265666f726520604482015262195b9960ea1b6064820152608490fd5b60405162461bcd60e51b815260206004820152603f60248201527f4d696e696d756d20706c6179657273206d75737420626520677265617465722060448201527f7468616e206f7220657175616c20746f206d697373696f6e20726f756e6473006064820152608490fd5b60405162461bcd60e51b815260206004820152603160248201527f4d697373696f6e20726f756e6473206d7573742062652067726561746572207460448201527068616e206f7220657175616c20746f203560781b6064820152608490fd5b50338a52600260205260408a205460ff16610efe565b8980fd5b8680fd5b8580fd5b50346101fa5760203660031901126101fa576004356001600160a01b03811681036101f8576113db90612ac2565b6040519115158252600381101561095157604092506020820152f35b50346101fa57806003193601126101fa57546040516001600160a01b039091168152602090f35b50346101fa57806003193601126101fa57602060ff60095416604051908152f35b50346101fa5760203660031901126101fa57600654906004358281116114cb575b61146981612535565b91806000198501948511905b83811061149257604051602080825281906101f490820188612380565b8161090757806114ac6114a7600193896127e2565b6123ca565b838060a01b0391549060031b1c166114c48288612567565b5201611475565b5081611460565b50346101fa57806003193601126101fa576114eb612c41565b80546001600160a01b03198116825581906001600160a01b03167f8be0079c531659141344cd1fd0a4f28419497f9722a3daafe3b4186f6b6457e08280a380f35b50346101fa5760203660031901126101fa576004356001600160a01b038116908190036101f85781546001600160a01b031633148015611601575b6115709061242c565b61157b8115156127ef565b808252600260205260ff604083205416156115cb57808252600260205260408220805460ff191690557f66d5f06f711af3c9feba3203fdb00b51345d514c68585d9d319c5ff5e6f775928280a280f35b60405162461bcd60e51b815260206004820152600e60248201526d139bdd08185d5d1a1bdc9a5e995960921b6044820152606490fd5b503382526002602052604082205460ff16611567565b50346101fa57806003193601126101fa5761164a9061163461282d565b9091604051938493604085526040850190612380565b8381036020850152602080845192838152019301915b81811061166e575050500390f35b9193509160208082611683600194885161235d565b019401910191849392611660565b50346101fa57806003193601126101fa5760065481825b82811061179357506116b990612535565b9082835b8281106116da57604051602080825281906101f490820187612380565b6116e3816123ca565b905460039190911b1c6001600160a01b031685526004602052604085205460ff166008811015610cae576006141580611756575b90600191611726575b016116bd565b61172f816123ca565b838060a01b0391549060031b1c16611750611749856124f8565b9487612567565b52611720565b50611760816123ca565b905460039190911b1c6001600160a01b031685526004602052604085205460ff166008811015610cae5760071415611717565b61179c816123ca565b905460039190911b1c6001600160a01b031684526004602052604084205460ff16600881101561182e5760061415806117f1575b6117dd575b6001016116a8565b906117e96001916124f8565b9190506117d5565b506117fb816123ca565b905460039190911b1c6001600160a01b031684526004602052604084205460ff16600881101561182e57600714156117d0565b634e487b7160e01b85526021600452602485fd5b50346101fa5760203660031901126101fa576004356001600160a01b038116908190036101f85781546001600160a01b03163314801561191d575b6118869061242c565b6118918115156127ef565b808252600260205260ff6040832054166118e357808252600260205260408220805460ff191660011790557f10ac961f00d5e732ba4dcc2c6fb09bebea0eb9edd2a75c8109775ef288382e678280a280f35b60405162461bcd60e51b8152602060048201526012602482015271105b1c9958591e48185d5d1a1bdc9a5e995960721b6044820152606490fd5b503382526002602052604082205460ff1661187d565b50346101fa5760203660031901126101fa576004356001600160a01b0381168082036102505782546001600160a01b031633148015611b30575b6119769061242c565b80835260076020526040832060405161198e816124ba565b81546001600160a01b0316808252600190920154602082019081529115611aeb57516001600160a01b03163314611aa75751620151808101809111611a93574211611a5b576119db612c41565b8015611a47576119ea82612c6a565b825260076020908152604080842084815560010184905580516001600160a01b039093168352429183019190915233917fdd72dd33198968a9cdc9b1e5cbff344fb8d04d99f8c15c0a02416b04e857b46791819081015b0390a280f35b631e4fbdf760e01b83526004839052602483fd5b60405162461bcd60e51b815260206004820152601060248201526f141c9bdc1bdcd85b08195e1c1a5c995960821b6044820152606490fd5b634e487b7160e01b84526011600452602484fd5b606460405162461bcd60e51b815260206004820152602060248201527f43616e6e6f7420636f6e6669726d20796f7572206f776e2070726f706f73616c6044820152fd5b60405162461bcd60e51b815260206004820152601a60248201527f4e6f2070726f706f73616c20666f722074686973206f776e65720000000000006044820152606490fd5b503383526002602052604083205460ff1661196d565b50346101fa5760203660031901126101fa576004356001600160a01b038116908190036101f857815260086020526040812080548291825b828110611bb45750505081611b995760209150604051908152f35b62278d0082018092116102c857506102c360209142906127e2565b611bbe81836123fb565b90549060031b1c62278d00810180911161034d574210611be1575b600101611b7e565b84158015611c0c575b15611bd95793506001611bfd85836123fb565b90549060031b1c949050611bd9565b5084611c1882846123fb565b90549060031b1c10611bea565b50346101fa5760203660031901126101fa57600435906006548210156101fa576020611c50836123ca565b905460405160039290921b1c6001600160a01b03168152f35b50346101fa5760203660031901126101fa576004356001600160a01b0381168082036102505782546001600160a01b031633148015611d7b575b611cac9061242c565b8015611d4257600160405191611cc1836124ba565b3383526020830190428252855260076020526040852092828060a01b039051166bffffffffffffffffffffffff60a01b845416178355519101557fc29bdbd554e41df97e5c40fc273a09677ac133c245f0064bdffef5cc72176e1960405180611a41339442908360209093929193604081019460018060a01b031681520152565b60405162461bcd60e51b815260206004820152601160248201527024b73b30b634b2103732bb9037bbb732b960791b6044820152606490fd5b503383526002602052604083205460ff16611ca3565b50346101fa5760203660031901126101fa576004356001600160a01b038116908190036101f85760606101e0604051611dc981612487565b82815284602082015284604082015284838201528460808201528460a08201528460c08201528460e08201528461010082015284610120820152846101408201528461016082015284610180820152826101a0820152846101c082015201528015611fad578160049160405192838092631f385f7960e21b82525afa908115611fa2578291611f88575b506040519060208252611e7481516102006020850152610220840190612380565b92611e87602083015160408501906123bd565b6040820151606084015260608201516080840152608082015160a084015260ff60a08301511660c084015260ff60c08301511660e084015260e082015161010084015261010082015161012084015260ff6101208301511661014084015260ff610140830151166101608401526101608201516101808401526101808201516101a08401526101a082015193601f19848203016101c0850152602080865192838152019501915b818110611f5d5784806101f4886101e0886101c0810151828601520151601f1984830301610200850152612380565b825180516001600160a01b031687526020908101518188015260409096019590920191600101611f2e565b611f9c91503d8084833e610b2e81836124d6565b38611e53565b6040513d84823e3d90fd5b60405162461bcd60e51b815260206004820152601760248201527f496e76616c6964206d697373696f6e20616464726573730000000000000000006044820152606490fd5b50346101fa5760203660031901126101fa57600435600881101580610250576006549083845b8381106120d8575061202990612535565b928491855b84811061204b57604051602080825281906101f490820189612380565b612054816123ca565b905460039190911b1c6001600160a01b031687526004602052604087205460ff16826120c45760088110156120c457908360019214612094575b0161202e565b61209d816123ca565b838060a01b0391549060031b1c166120be6120b7876124f8565b9689612567565b5261208e565b634e487b7160e01b88526021600452602488fd5b6120e1816123ca565b905460039190911b1c6001600160a01b031686526004602052604086205460ff1683610b85576008811015610b8557851461211f575b600101612018565b9061212b6001916124f8565b919050612117565b50346101fa5760203660031901126101fa5780546001600160a01b031660043533821480156122df575b6121669061242c565b6002600154146122d0576002600155808215612293571561228c575b478111612250578280808084865af13d1561224b573d67ffffffffffffffff811161223757604051906121bf601f8201601f1916602001836124d6565b81528460203d92013e5b156122005760207feaff4b37086828766ad3268786972c0cd24259d4c87a80f9d3963a3c3d999b0d91604051908152a26001805580f35b60405162461bcd60e51b815260206004820152600f60248201526e151c985b9cd9995c8819985a5b1959608a1b6044820152606490fd5b634e487b7160e01b85526041600452602485fd5b6121c9565b60405162461bcd60e51b8152602060048201526014602482015273496e73756666696369656e742062616c616e636560601b6044820152606490fd5b5047612182565b60405162461bcd60e51b815260206004820152601560248201527424b73b30b634b21036b0b730b3b2b91037bbb732b960591b6044820152606490fd5b633ee5aeb560e01b8352600483fd5b503383526002602052604083205460ff1661215d565b50346101fa57806003193601126101fa57602060ff60095460081c16604051908152f35b9050346101f85760203660031901126101f8576004356001600160a01b03811690819003610250578160ff60408561235b94602097526004875220541661235d565bf35b90600882101561236a5752565b634e487b7160e01b600052602160045260246000fd5b906020808351928381520192019060005b81811061239e5750505090565b82516001600160a01b0316845260209384019390920191600101612391565b90600782101561236a5752565b6006548110156123e557600660005260206000200190600090565b634e487b7160e01b600052603260045260246000fd5b80548210156123e55760005260206000200190600090565b600781101561236a576000526003602052604060002090565b1561243357565b60405162461bcd60e51b815260206004820152602660248201527f4e6f74206f776e6572206f72204d697373696f6e466163746f727920617574686044820152651bdc9a5e995960d21b6064820152608490fd5b610200810190811067ffffffffffffffff8211176124a457604052565b634e487b7160e01b600052604160045260246000fd5b6040810190811067ffffffffffffffff8211176124a457604052565b90601f8019910116810190811067ffffffffffffffff8211176124a457604052565b60001981146125075760010190565b634e487b7160e01b600052601160045260246000fd5b67ffffffffffffffff81116124a45760051b60200190565b9061253f8261251d565b61254c60405191826124d6565b828152809261255d601f199161251d565b0190602036910137565b80518210156123e55760209160051b010190565b51906001600160a01b038216820361258f57565b600080fd5b9080601f8301121561258f5781516125ab8161251d565b926125b960405194856124d6565b81845260208085019260051b82010192831161258f57602001905b8282106125e15750505090565b602080916125ee8461257b565b8152019101906125d4565b519060ff8216820361258f57565b60208183031261258f5780519067ffffffffffffffff821161258f57016102008183031261258f576040519161263c83612487565b815167ffffffffffffffff811161258f5781612659918401612594565b83526020820151600781101561258f57602084015260408201516040840152606082015160608401526080820151608084015261269860a083016125f9565b60a08401526126a960c083016125f9565b60c084015260e082015160e08401526101008201516101008401526126d161012083016125f9565b6101208401526126e461014083016125f9565b6101408401526101608201516101608401526101808201516101808401526101a082015167ffffffffffffffff811161258f57820181601f8201121561258f57805161272f8161251d565b9161273d60405193846124d6565b81835260208084019260061b8201019084821161258f57602001915b81831061279d575050506101a08401526101c08201516101c08401526101e082015167ffffffffffffffff811161258f576127949201612594565b6101e082015290565b60408386031261258f57602060409182516127b7816124ba565b6127c08661257b565b81528286015183820152815201920191612759565b9190820180921161250757565b9190820391821161250757565b156127f657565b60405162461bcd60e51b815260206004820152600f60248201526e496e76616c6964206164647265737360881b6044820152606490fd5b6006548015612a8c57624f19ff194201914283116125075762278cff194201428111612507576000929182805b61299e575b5061286984612535565b9061287385612535565b936000905b80151580612995575b1561298a576000190190612894826123ca565b60018060a01b0391549060031b1c169081600052600460205260ff6040600020541691604051631f385f7960e21b8152600081600481855afa801561297e578891600091612965575b508b60e082018181511080612942575b156129375750506101000151105b612929576129098287612567565b526129148188612567565b91600881101561236a57600192520190612878565b505050509350919350509190565b9150915051106128fb565b50925050600885101561236a578b899260068714806128ed5750600787146128ed565b612978913d8091833e610b2e81836124d6565b386128dd565b6040513d6000823e3d90fd5b509195509293505050565b50868210612881565b60009493941901926129af846123ca565b60018060a01b0391549060031b1c168060005260046020526004600060ff6040822054169260405192838092631f385f7960e21b82525afa90811561297e5785928991600093612a71575b5060e0830190828251109081612a41575b5015612a365750506101000151105b612a2f57612a2884916124f8565b949361285a565b939261285f565b915091505110612a1a565b9250509250600881101561236a5785928160068b9314908115612a66575b5038612a0b565b600791501438612a5f565b612a8591933d8091833e610b2e81836124d6565b91386129fa565b50602090604051612a9d83826124d6565b60008152600036813760405192612ab481856124d6565b600084525060003681379190565b6001600160a01b031660009081526008602052604081208054829182918291825b828110612baa575050506009549160ff8316119060ff82159360081c1611918215928280612ba3575b612b955781612b8d575b50612b815781612b79575b50612b6f5762093a80810180911161250757612b3e9042906127e2565b9062278d00810180911161250757612b579042906127e2565b1115612b67576002905b60009190565b600190612b61565b5050600090600290565b905038612b21565b50505050600090600190565b905038612b16565b505050505050600190600090565b5080612b0c565b612bb481836123fb565b90549060031b1c62278d008101808211612507574210612bd8575b50600101612ae3565b93612be2906124f8565b9387158015612c38575b612c30575b62093a80810180821161250757421015612bcf5794612c0f906124f8565b9486158015612c27575b15612bcf5795506001612bcf565b50868110612c19565b965086612bf1565b50878110612bec565b6000546001600160a01b03163303612c5557565b63118cdaa760e01b6000523360045260246000fd5b600080546001600160a01b039283166001600160a01b03198216811783559216907f8be0079c531659141344cd1fd0a4f28419497f9722a3daafe3b4186f6b6457e09080a356fea264697066735822122015478a34291e492a2dce51c71bd19c24bdd7d5f2dabd8f2ee001117fa443a83364736f6c634300081e0033",
  "linkReferences": {},
  "deployedLinkReferences": {}
}