{
  "_format": "hh-sol-artifact-1",
  "contractName": "Mission",
  "sourceName": "contracts/MissionFactory.sol",
  "abi": [
    {
      "inputs": [],
      "stateMutability": "nonpayable",
      "type": "constructor"
    },
    {
      "inputs": [
        {
          "internalType": "address",
          "name": "owner",
          "type": "address"
        }
      ],
      "name": "OwnableInvalidOwner",
      "type": "error"
    },
    {
      "inputs": [
        {
          "internalType": "address",
          "name": "account",
          "type": "address"
        }
      ],
      "name": "OwnableUnauthorizedAccount",
      "type": "error"
    },
    {
      "inputs": [],
      "name": "ReentrancyGuardReentrantCall",
      "type": "error"
    },
    {
      "anonymous": false,
      "inputs": [
        {
          "indexed": false,
          "internalType": "uint256",
          "name": "ownerAmount",
          "type": "uint256"
        },
        {
          "indexed": false,
          "internalType": "uint256",
          "name": "factoryAmount",
          "type": "uint256"
        }
      ],
      "name": "FundsWithdrawn",
      "type": "event"
    },
    {
      "anonymous": false,
      "inputs": [
        {
          "indexed": false,
          "internalType": "uint256",
          "name": "timestamp",
          "type": "uint256"
        },
        {
          "indexed": false,
          "internalType": "uint256",
          "name": "totalPlayers",
          "type": "uint256"
        }
      ],
      "name": "MissionArmed",
      "type": "event"
    },
    {
      "anonymous": false,
      "inputs": [
        {
          "indexed": true,
          "internalType": "address",
          "name": "owner",
          "type": "address"
        },
        {
          "indexed": true,
          "internalType": "enum MissionType",
          "name": "missionType",
          "type": "uint8"
        },
        {
          "indexed": false,
          "internalType": "uint256",
          "name": "timestamp",
          "type": "uint256"
        }
      ],
      "name": "MissionInitialized",
      "type": "event"
    },
    {
      "anonymous": false,
      "inputs": [
        {
          "indexed": false,
          "internalType": "uint256",
          "name": "timestamp",
          "type": "uint256"
        }
      ],
      "name": "MissionPaused",
      "type": "event"
    },
    {
      "anonymous": false,
      "inputs": [
        {
          "indexed": false,
          "internalType": "uint256",
          "name": "timestamp",
          "type": "uint256"
        }
      ],
      "name": "MissionResumed",
      "type": "event"
    },
    {
      "anonymous": false,
      "inputs": [
        {
          "indexed": true,
          "internalType": "enum Status",
          "name": "previousStatus",
          "type": "uint8"
        },
        {
          "indexed": true,
          "internalType": "enum Status",
          "name": "newStatus",
          "type": "uint8"
        },
        {
          "indexed": false,
          "internalType": "uint256",
          "name": "timestamp",
          "type": "uint256"
        }
      ],
      "name": "MissionStatusChanged",
      "type": "event"
    },
    {
      "anonymous": false,
      "inputs": [
        {
          "indexed": true,
          "internalType": "address",
          "name": "previousOwner",
          "type": "address"
        },
        {
          "indexed": true,
          "internalType": "address",
          "name": "newOwner",
          "type": "address"
        }
      ],
      "name": "OwnershipTransferred",
      "type": "event"
    },
    {
      "anonymous": false,
      "inputs": [
        {
          "indexed": true,
          "internalType": "address",
          "name": "player",
          "type": "address"
        },
        {
          "indexed": false,
          "internalType": "uint256",
          "name": "amount",
          "type": "uint256"
        },
        {
          "indexed": false,
          "internalType": "uint256",
          "name": "totalPlayers",
          "type": "uint256"
        }
      ],
      "name": "PlayerEnrolled",
      "type": "event"
    },
    {
      "anonymous": false,
      "inputs": [
        {
          "indexed": true,
          "internalType": "address",
          "name": "player",
          "type": "address"
        },
        {
          "indexed": false,
          "internalType": "uint256",
          "name": "amount",
          "type": "uint256"
        }
      ],
      "name": "PlayerRefunded",
      "type": "event"
    },
    {
      "anonymous": false,
      "inputs": [
        {
          "indexed": false,
          "internalType": "uint256",
          "name": "value",
          "type": "uint256"
        },
        {
          "indexed": false,
          "internalType": "uint256",
          "name": "ethCurrent",
          "type": "uint256"
        }
      ],
      "name": "PotIncreased",
      "type": "event"
    },
    {
      "anonymous": false,
      "inputs": [
        {
          "indexed": true,
          "internalType": "address",
          "name": "player",
          "type": "address"
        },
        {
          "indexed": false,
          "internalType": "uint256",
          "name": "amount",
          "type": "uint256"
        }
      ],
      "name": "RefundFailed",
      "type": "event"
    },
    {
      "anonymous": false,
      "inputs": [
        {
          "indexed": true,
          "internalType": "address",
          "name": "player",
          "type": "address"
        },
        {
          "indexed": true,
          "internalType": "uint8",
          "name": "roundNumber",
          "type": "uint8"
        },
        {
          "indexed": false,
          "internalType": "uint256",
          "name": "payout",
          "type": "uint256"
        },
        {
          "indexed": false,
          "internalType": "uint256",
          "name": "ethRemaining",
          "type": "uint256"
        }
      ],
      "name": "RoundCalled",
      "type": "event"
    },
    {
      "stateMutability": "payable",
      "type": "fallback"
    },
    {
      "inputs": [],
      "name": "_initialized",
      "outputs": [
        {
          "internalType": "bool",
          "name": "",
          "type": "bool"
        }
      ],
      "stateMutability": "view",
      "type": "function"
    },
    {
      "inputs": [],
      "name": "armMission",
      "outputs": [],
      "stateMutability": "nonpayable",
      "type": "function"
    },
    {
      "inputs": [],
      "name": "callRound",
      "outputs": [],
      "stateMutability": "nonpayable",
      "type": "function"
    },
    {
      "inputs": [],
      "name": "enrollPlayer",
      "outputs": [],
      "stateMutability": "payable",
      "type": "function"
    },
    {
      "inputs": [
        {
          "internalType": "address",
          "name": "",
          "type": "address"
        }
      ],
      "name": "enrolled",
      "outputs": [
        {
          "internalType": "bool",
          "name": "",
          "type": "bool"
        }
      ],
      "stateMutability": "view",
      "type": "function"
    },
    {
      "inputs": [
        {
          "internalType": "address",
          "name": "",
          "type": "address"
        }
      ],
      "name": "failedRefundAmounts",
      "outputs": [
        {
          "internalType": "uint256",
          "name": "",
          "type": "uint256"
        }
      ],
      "stateMutability": "view",
      "type": "function"
    },
    {
      "inputs": [],
      "name": "forceFinalizeMission",
      "outputs": [],
      "stateMutability": "nonpayable",
      "type": "function"
    },
    {
      "inputs": [],
      "name": "getMissionData",
      "outputs": [
        {
          "components": [
            {
              "internalType": "address[]",
              "name": "players",
              "type": "address[]"
            },
            {
              "internalType": "enum MissionType",
              "name": "missionType",
              "type": "uint8"
            },
            {
              "internalType": "enum Status",
              "name": "missionStatus",
              "type": "uint8"
            },
            {
              "internalType": "uint256",
              "name": "enrollmentStart",
              "type": "uint256"
            },
            {
              "internalType": "uint256",
              "name": "enrollmentEnd",
              "type": "uint256"
            },
            {
              "internalType": "uint256",
              "name": "enrollmentAmount",
              "type": "uint256"
            },
            {
              "internalType": "uint8",
              "name": "enrollmentMinPlayers",
              "type": "uint8"
            },
            {
              "internalType": "uint8",
              "name": "enrollmentMaxPlayers",
              "type": "uint8"
            },
            {
              "internalType": "uint256",
              "name": "missionStart",
              "type": "uint256"
            },
            {
              "internalType": "uint256",
              "name": "missionEnd",
              "type": "uint256"
            },
            {
              "internalType": "uint8",
              "name": "missionRounds",
              "type": "uint8"
            },
            {
              "internalType": "uint8",
              "name": "roundCount",
              "type": "uint8"
            },
            {
              "internalType": "uint256",
              "name": "ethStart",
              "type": "uint256"
            },
            {
              "internalType": "uint256",
              "name": "ethCurrent",
              "type": "uint256"
            },
            {
              "components": [
                {
                  "internalType": "address",
                  "name": "player",
                  "type": "address"
                },
                {
                  "internalType": "uint256",
                  "name": "amountWon",
                  "type": "uint256"
                }
              ],
              "internalType": "struct Mission.PlayersWon[]",
              "name": "playersWon",
              "type": "tuple[]"
            },
            {
              "internalType": "uint256",
              "name": "pauseTime",
              "type": "uint256"
            },
            {
              "internalType": "address[]",
              "name": "refundedPlayers",
              "type": "address[]"
            }
          ],
          "internalType": "struct Mission.MissionData",
          "name": "",
          "type": "tuple"
        }
      ],
      "stateMutability": "view",
      "type": "function"
    },
    {
      "inputs": [
        {
          "internalType": "address",
          "name": "",
          "type": "address"
        }
      ],
      "name": "hasWon",
      "outputs": [
        {
          "internalType": "bool",
          "name": "",
          "type": "bool"
        }
      ],
      "stateMutability": "view",
      "type": "function"
    },
    {
      "inputs": [],
      "name": "increasePot",
      "outputs": [],
      "stateMutability": "payable",
      "type": "function"
    },
    {
      "inputs": [
        {
          "internalType": "address",
          "name": "_owner",
          "type": "address"
        },
        {
          "internalType": "address",
          "name": "_missionFactory",
          "type": "address"
        },
        {
          "internalType": "enum MissionType",
          "name": "_missionType",
          "type": "uint8"
        },
        {
          "internalType": "uint256",
          "name": "_enrollmentStart",
          "type": "uint256"
        },
        {
          "internalType": "uint256",
          "name": "_enrollmentEnd",
          "type": "uint256"
        },
        {
          "internalType": "uint256",
          "name": "_enrollmentAmount",
          "type": "uint256"
        },
        {
          "internalType": "uint8",
          "name": "_enrollmentMinPlayers",
          "type": "uint8"
        },
        {
          "internalType": "uint8",
          "name": "_enrollmentMaxPlayers",
          "type": "uint8"
        },
        {
          "internalType": "uint256",
          "name": "_missionStart",
          "type": "uint256"
        },
        {
          "internalType": "uint256",
          "name": "_missionEnd",
          "type": "uint256"
        },
        {
          "internalType": "uint8",
          "name": "_missionRounds",
          "type": "uint8"
        }
      ],
      "name": "initialize",
      "outputs": [],
      "stateMutability": "payable",
      "type": "function"
    },
    {
      "inputs": [],
      "name": "missionData",
      "outputs": [
        {
          "internalType": "enum MissionType",
          "name": "missionType",
          "type": "uint8"
        },
        {
          "internalType": "enum Status",
          "name": "missionStatus",
          "type": "uint8"
        },
        {
          "internalType": "uint256",
          "name": "enrollmentStart",
          "type": "uint256"
        },
        {
          "internalType": "uint256",
          "name": "enrollmentEnd",
          "type": "uint256"
        },
        {
          "internalType": "uint256",
          "name": "enrollmentAmount",
          "type": "uint256"
        },
        {
          "internalType": "uint8",
          "name": "enrollmentMinPlayers",
          "type": "uint8"
        },
        {
          "internalType": "uint8",
          "name": "enrollmentMaxPlayers",
          "type": "uint8"
        },
        {
          "internalType": "uint256",
          "name": "missionStart",
          "type": "uint256"
        },
        {
          "internalType": "uint256",
          "name": "missionEnd",
          "type": "uint256"
        },
        {
          "internalType": "uint8",
          "name": "missionRounds",
          "type": "uint8"
        },
        {
          "internalType": "uint8",
          "name": "roundCount",
          "type": "uint8"
        },
        {
          "internalType": "uint256",
          "name": "ethStart",
          "type": "uint256"
        },
        {
          "internalType": "uint256",
          "name": "ethCurrent",
          "type": "uint256"
        },
        {
          "internalType": "uint256",
          "name": "pauseTime",
          "type": "uint256"
        }
      ],
      "stateMutability": "view",
      "type": "function"
    },
    {
      "inputs": [],
      "name": "missionFactory",
      "outputs": [
        {
          "internalType": "contract MissionFactory",
          "name": "",
          "type": "address"
        }
      ],
      "stateMutability": "view",
      "type": "function"
    },
    {
      "inputs": [],
      "name": "owner",
      "outputs": [
        {
          "internalType": "address",
          "name": "",
          "type": "address"
        }
      ],
      "stateMutability": "view",
      "type": "function"
    },
    {
      "inputs": [],
      "name": "refundPlayers",
      "outputs": [],
      "stateMutability": "nonpayable",
      "type": "function"
    },
    {
      "inputs": [
        {
          "internalType": "address",
          "name": "",
          "type": "address"
        }
      ],
      "name": "refunded",
      "outputs": [
        {
          "internalType": "bool",
          "name": "",
          "type": "bool"
        }
      ],
      "stateMutability": "view",
      "type": "function"
    },
    {
      "inputs": [],
      "name": "renounceOwnership",
      "outputs": [],
      "stateMutability": "nonpayable",
      "type": "function"
    },
    {
      "inputs": [
        {
          "internalType": "address",
          "name": "newOwner",
          "type": "address"
        }
      ],
      "name": "transferOwnership",
      "outputs": [],
      "stateMutability": "nonpayable",
      "type": "function"
    },
    {
      "inputs": [],
      "name": "withdrawFunds",
      "outputs": [],
      "stateMutability": "nonpayable",
      "type": "function"
    },
    {
      "stateMutability": "payable",
      "type": "receive"
    }
  ],
  "bytecode": "0x60808060405234607957331560635760008054336001600160a01b0319821681178355916001600160a01b03909116907f8be0079c531659141344cd1fd0a4f28419497f9722a3daafe3b4186f6b6457e09080a360018055612893908161007f8239f35b631e4fbdf760e01b600052600060045260246000fd5b600080fdfe6080604052600436101561000f57005b6000803560e01c806301fb8d1f14611c9f57806310eb0e0e14611c605780631212484814611ac957806324600fc31461176e5780633072cf601461174b578063715018a6146116f15780637475a4cb146111315780637ce17de414610d5d5780638da5cb5b14610d36578063987c543a146108b557806398bdae43146107f4578063a52b2b88146107b5578063b2a4a5d21461077c578063b9713b77146106c1578063c033a49014610682578063c54168b31461021b578063eb2bab7714610164578063f2fde38b146101135763fa4cf5a1146100e857005b346101105780600319360112610110576002546040516001600160a01b039091168152602090f35b80fd5b50346101105760203660031901126101105761012d611db5565b6101356127ad565b6001600160a01b038116156101505761014d906127d6565b80f35b631e4fbdf760e01b82526004829052602482fd5b50806003193601126101105761017b34151561205f565b6002546001600160a01b031633036101de5761019934600f54611f38565b600f557f7272b264c9ef2a1e8e9303944736f4977b14a5761227b7b9869fecaa60f8938760406101cb34601054611f38565b806010558151903482526020820152a180f35b60405162461bcd60e51b815260206004820152601560248201527413db9b1e48199858dd1bdc9e4818d85b88199d5b99605a1b6044820152606490fd5b5061016036600319011261011057610231611db5565b6024356001600160a01b0381169290839003610110576044359260078410156104c55760c43560ff811680910361067e5760e4359060ff8216820361067a57610144359260ff84168094036106765761028861209b565b60145460ff811661063b576001906102a134151561205f565b60ff1916176014556102b2866127d6565b6bffffffffffffffffffffffff60a01b600254161760025560ff196007541660ff87161760075560643560085560843560095560a435600a5561ff00600b549260081b169161ffff19161717600b5561010435600c5561012435600d5561ffff19600e541617600e5534600f5534601055806012556020906040516103378382611e71565b818152600036813780519067ffffffffffffffff821161058b57600160401b821161058b578390600654836006558084106105da575b500160068352825b82811061059f5750505060405161038c8382611e71565b8181528190600160401b821161058b57839060115483601155808410610507575b50016011835260008051602061281e8339815191528484925b8484106104c95750505050506007549060ff8260081c169161ff00191660075560018060a01b0360025416803b156104c55781809160246040518094819363d8d6e8ff60e01b835261041b6004840183611e15565b5af180156104ba579082916104a5575b50506006821015610491578061049157509060007fe9597995b7a2af444cc28b2b776b88b1253d701282a9bcf902d4f59750df7c579260008051602061283e83398151915283604051428152a36040514281526001600160a01b0390931692a360018055005b634e487b7160e01b81526021600452602490fd5b816104af91611e71565b61011057803861042b565b6040513d84823e3d90fd5b5080fd5b8051805184546001600160a01b0319166001600160a01b039190911617845560200151600184810191909155916002910192019201919085906103c6565b9091506001600160ff1b0381168103610577576001600160ff1b03831683036105775790849160011b60008051602061281e833981519152018360011b60008051602061281e833981519152015b81811061056257506103ad565b85815560018101869055869350600201610555565b634e487b7160e01b84526011600452602484fd5b634e487b7160e01b83526041600452602483fd5b81516001600160a01b03167ff652222313e28459528d920b65115c16c04f3efc82aaedc97be59f3f377c0d3f82015590840190600101610375565b7ff652222313e28459528d920b65115c16c04f3efc82aaedc97be59f3f377c0d3f01837ff652222313e28459528d920b65115c16c04f3efc82aaedc97be59f3f377c0d3f015b81811061062d575061036d565b858155869350600101610620565b60405162461bcd60e51b8152602060048201526013602482015272105b1c9958591e481a5b9a5d1a585b1a5e9959606a1b6044820152606490fd5b8480fd5b8380fd5b8280fd5b50346101105760203660031901126101105760209060ff906040906001600160a01b036106ad611db5565b168152600584522054166040519015158152f35b5034610110578060031936011261011057600754600854600954600a54600b54600c54600d5490600e5492600f549460105496601254986040519a8b60ff82169061070b91611e08565b60208c019060081c60ff169061072091611e15565b60408b015260608a0152608089015260ff811660a089015260081c60ff1660c088015260e087015261010086015260ff811661012086015260081c60ff166101408501526101608401526101808301526101a08201526101c090f35b5034610110576020366003190112610110576020906040906001600160a01b036107a4611db5565b168152601583522054604051908152f35b50346101105760203660031901126101105760209060ff906040906001600160a01b036107e0611db5565b168152600484522054166040519015158152f35b503461011057806003193601126101105761080d61209b565b80546001600160a01b031633148015610839575b61082a90611ea0565b6108326122a7565b6001805580f35b5060025460405163b918161160e01b815233600482015290602090829060249082906001600160a01b03165afa80156104ba57829061087a575b9050610821565b506020813d6020116108ad575b8161089460209383611e71565b810103126104c5576108a861082a91611e93565b610873565b3d9150610887565b5080600319360112610110576108c961209b565b6008544210610cf1574260095410610cb55760065460ff600b5460081c161115610c7a57600a543403610c3557338152600360205260ff604082205416610bf057600254604051634c0252c360e11b8152336004820152908290829060249082906001600160a01b03165afa9081156104ba5782908392610b69575b5015610b2b5750600654600160401b811015610b175780600161096d92016006556006612047565b81549060031b9033821b9160018060a01b03901b1916179055338152600360205260408120600160ff198254161790556109a934600f54611f38565b600f556109b834601054611f38565b60105560075461010060ff8260081c169161ff0019161760075560018060a01b0360025416803b1561067e5760405163d8d6e8ff60e01b81528381602481838096600160048401525af180156104ba57610aec575b50506006811015610ad85781610ad85760019060008051602061283e8339815191526020604051428152a36002546001600160a01b0316803b15610ad3576000809160246040518094819363c17f9e5960e01b83523360048401525af18015610ac757610ab2575b506006546040519034825260208201527fbedd10d90b8962eb521114c7e2b49019403d371ffa1e46afbda7a3f1fde8f06f60403392a26001805580f35b610abf9150600090611e71565b600038610a75565b6040513d6000823e3d90fd5b600080fd5b634e487b7160e01b82526021600452602482fd5b81610af691611e71565b6104c5578138610a0d565b634e487b7160e01b600052602160045260246000fd5b634e487b7160e01b82526041600452602482fd5b6044604051809262461bcd60e51b825260206004830152610b5b8151809281602486015260208686019101612009565b601f01601f19168101030190fd5b9150503d8083833e610b7b8183611e71565b81019060408183031261067e57610b9181611e93565b9060208101519067ffffffffffffffff8211610676570182601f8201121561067a578051610bbe81611fbd565b93610bcc6040519586611e71565b8185526020828401011161067657610bea9160208086019101612009565b38610945565b60405162461bcd60e51b815260206004820152601760248201527f506c6179657220616c726561647920656e726f6c6c65640000000000000000006044820152606490fd5b60405162461bcd60e51b815260206004820152601b60248201527f496e636f727265637420656e726f6c6c6d656e7420616d6f756e7400000000006044820152606490fd5b60405162461bcd60e51b815260206004820152601360248201527213585e081c1b185e595c9cc81c995858da1959606a1b6044820152606490fd5b60405162461bcd60e51b8152602060048201526014602482015273115b9c9bdb1b1b595b9d081a185cc8195b99195960621b6044820152606490fd5b60405162461bcd60e51b815260206004820152601e60248201527f456e726f6c6c6d656e7420686173206e6f7420737461727465642079657400006044820152606490fd5b5034610110578060031936011261011057546040516001600160a01b039091168152602090f35b50346101105780600319360112610110576060610200604051610d7f81611e54565b82815283602082015283604082015283838201528360808201528360a08201528360c08201528360e08201528361010082015283610120820152836101408201528361016082015283610180820152836101a0820152826101c0820152836101e08201520152604051610df181611e54565b6040516006548082528160208101600686526020862092865b81811061110f575050610e1f92500382611e71565b815260075460ff811660078110156110fb57602083015260081c60ff1660068110156110e757604082015260085460608201526009546080820152600a5460a082015260ff600b5481811660c084015260081c1660e0820152600c54610100820152600d5461012082015260ff600e5481811661014084015260081c16610160820152600f546101808201526010546101a082015260115467ffffffffffffffff811161058b5760208160051b0190610edb6040519283611e71565b808252601184528360008051602061281e833981519152602084015b8383106110b357505050506101c08201526012546101e08201526040516013548082528160208101601386526020862092865b818110611091575050610f3f92500382611e71565b6102008201526040519060208252610f6581516102206020850152610240840190611dcb565b92610f7860208301516040850190611e08565b610f8a60408301516060850190611e15565b60608201516080840152608082015160a084015260a082015160c084015260ff60c08301511660e084015260ff60e08301511661010084015261010082015161012084015261012082015161014084015260ff6101408301511661016084015260ff610160830151166101808401526101808201516101a08401526101a08201516101c08401526101c082015193601f19848203016101e0850152602080865192838152019501915b81811061106657848061106288610200886101e0810151828601520151601f1984830301610220850152611dcb565b0390f35b825180516001600160a01b031687526020908101518188015260409096019590920191600101611033565b84546001600160a01b0316835260019485019486945060209093019201610f2a565b600260206001926040516110c681611e22565b848060a01b0386541681528486015483820152815201920192019190610ef7565b634e487b7160e01b83526021600452602483fd5b634e487b7160e01b84526021600452602484fd5b84546001600160a01b0316835260019485019486945060209093019201610e0a565b503461011057806003193601126101105761114a61209b565b60125480159081156116a5575b501561166c57338152600460205260ff60408220541661162757338152600360205260ff604082205416156115e257600c54421061159d57600d544210156115645760ff60075460081c166006811015610ad8576002810361152757600e5460ff8082169160081c1610156114eb576003146114de575b600c546111db8142611f5b565b906064820291808304606414901517156114c257906111ff61120592600d54611f5b565b90611f68565b60115480156114d65760001981019081116114c257611225600191611f88565b500154905b6064820291808304606414901517156114c2576112549061124e600f548094611f68565b90611f5b565b8181029181830414901517156114ae576064900461127481601054611f5b565b601055600e5460ff8160081c1660ff811461057757600161ff00910160081b169061ff00191617600e55338252600460205260408220600160ff198254161790556040516112c181611e22565b338152816020820152601154600160401b81101561149a578060016112e99201601155611f88565b61148657815181546001600160a01b0319166001600160a01b03919091161781556020909101516001909101558180808084335af1611326611fd9565b50156114485760ff600e54818160081c16809360105460405191825260208201527fbbdd894f5e6d754c18172761a1a461095c26de58905e706a8c33657573d4067260403392a316036113835761137b612214565b610832612724565b60075461030060ff8260081c169161ff0019161760075560018060a01b0360025416803b1561067e5760405163d8d6e8ff60e01b81528381602481838096600360048401525af180156104ba57611433575b5050426012557fae3ba0777e3d90978a607fca3c27811130deb71f173b067e83f1bcbd10173b4a6020604051428152a16006811015610ad85781610ad85760039060008051602061283e8339815191526020604051428152a3610832565b8161143d91611e71565b6104c55781386113d5565b60405162461bcd60e51b815260206004820152601660248201527514185e5bdd5d081d1c985b9cd9995c8819985a5b195960521b6044820152606490fd5b634e487b7160e01b84526004849052602484fd5b634e487b7160e01b84526041600452602484fd5b634e487b7160e01b82526011600452602482fd5b634e487b7160e01b83526011600452602483fd5b50819061122a565b6114e66120bd565b6111ce565b60405162461bcd60e51b8152602060048201526014602482015273105b1b081c9bdd5b991cc818dbdb5c1b195d195960621b6044820152606490fd5b60405162461bcd60e51b81526020600482015260156024820152744d697373696f6e206973206e6f742041637469766560581b6044820152606490fd5b60405162461bcd60e51b8152602060048201526011602482015270135a5cdcda5bdb881a185cc8195b991959607a1b6044820152606490fd5b60405162461bcd60e51b815260206004820152601b60248201527f4d697373696f6e20686173206e6f7420737461727465642079657400000000006044820152606490fd5b60405162461bcd60e51b815260206004820152601760248201527f4e6f7420656e726f6c6c656420696e206d697373696f6e0000000000000000006044820152606490fd5b60405162461bcd60e51b815260206004820152601f60248201527f506c6179657220616c726561647920776f6e2074686973206d697373696f6e006044820152606490fd5b60405162461bcd60e51b8152602060048201526011602482015270135a5cdcda5bdb881a5cc81c185d5cd959607a1b6044820152606490fd5b919050600e5491600160ff8460081c160160ff81116114c25791926116dd9260ff9081169116036116e65761ffff603c5b1690611f38565b42101538611157565b61ffff61012c6116d6565b503461011057806003193601126101105761170a6127ad565b80546001600160a01b03198116825581906001600160a01b03167f8be0079c531659141344cd1fd0a4f28419497f9722a3daafe3b4186f6b6457e08280a380f35b5034610110578060031936011261011057602060ff601454166040519015158152f35b503461011057806003193601126101105761178761209b565b80546001600160a01b031633148015611a4d575b6117a490611ea0565b60ff60075460081c166006811015610ad85760048114908115611a42575b5015611a09574780156117de81156117d9816126e1565b6126e1565b601982029082820460191417156114c25760646117fd91048092611f5b565b600254604051638da5cb5b60e01b81528491602090829060049082906001600160a01b03165afa9081156104ba578291859183916119c1575b50829182916001600160a01b03165af161184e611fd9565b501561198457828080808460018060a01b03600254165af161186e611fd9565b501561193f5760018060a01b03600254168360ff60075416823b156104c55760446118b6918360405195869485936304e1e9d160e51b85528960048601526024850190611e08565b5af18015611934576118fb575b507fd66662c0ded9e58fd31d5e44944bcfd07ffc15e6927ecc1382e7941cb7bd24c49160409182519182526020820152a16001805580f35b918361192b604093957fd66662c0ded9e58fd31d5e44944bcfd07ffc15e6927ecc1382e7941cb7bd24c495611e71565b939150916118c3565b6040513d86823e3d90fd5b60405162461bcd60e51b815260206004820152601760248201527f466163746f7279207472616e73666572206661696c65640000000000000000006044820152606490fd5b60405162461bcd60e51b815260206004820152601560248201527413dddb995c881d1c985b9cd9995c8819985a5b1959605a1b6044820152606490fd5b925050506020813d602011611a01575b816119de60209383611e71565b810103126104c557516001600160a01b03811681036104c5578190849082611836565b3d91506119d1565b60405162461bcd60e51b8152602060048201526011602482015270135a5cdcda5bdb881b9bdd08195b991959607a1b6044820152606490fd5b6005915014386117c2565b5060025460405163b918161160e01b815233600482015290602090829060249082906001600160a01b03165afa80156104ba578290611a8e575b905061179b565b506020813d602011611ac1575b81611aa860209383611e71565b810103126104c557611abc6117a491611e93565b611a87565b3d9150611a9b565b503461011057806003193601126101105780546001600160a01b031633148015611be4575b611af790611ea0565b611aff61209b565b600d54421115611ba75760ff60075460081c166006811015610ad85760028114908115611b9c575b5015611b5757600e5460081c60ff16611b425761082a612180565b611b4a612214565b611b52612724565b610832565b60405162461bcd60e51b815260206004820152601b60248201527f4d697373696f6e2063616e6e6f742062652066696e616c697a656400000000006044820152606490fd5b600391501438611b27565b60405162461bcd60e51b8152602060048201526015602482015274135a5cdcda5bdb881b9bdd08195b991959081e595d605a1b6044820152606490fd5b5060025460405163b918161160e01b815233600482015290602090829060249082906001600160a01b03165afa80156104ba578290611c25575b9050611aee565b506020813d602011611c58575b81611c3f60209383611e71565b810103126104c557611c53611af791611e93565b611c1e565b3d9150611c32565b50346101105760203660031901126101105760209060ff906040906001600160a01b03611c8b611db5565b168152600384522054166040519015158152f35b5034610110578060031936011261011057611cb861209b565b80546001600160a01b031633148015611d39575b611cd590611ea0565b611ce3600954421015611eec565b600654600b5460ff161115611cfa5761082a612180565b611d026120bd565b7f413bcdce36601de9d10af5354f226f61d5dde1e304291e211ced6a6dee6b255660406006548151904282526020820152a1610832565b5060025460405163b918161160e01b815233600482015290602090829060249082906001600160a01b03165afa80156104ba578290611d7a575b9050611ccc565b506020813d602011611dad575b81611d9460209383611e71565b810103126104c557611da8611cd591611e93565b611d73565b3d9150611d87565b600435906001600160a01b0382168203610ad357565b906020808351928381520192019060005b818110611de95750505090565b82516001600160a01b0316845260209384019390920191600101611ddc565b906007821015610b015752565b906006821015610b015752565b6040810190811067ffffffffffffffff821117611e3e57604052565b634e487b7160e01b600052604160045260246000fd5b610220810190811067ffffffffffffffff821117611e3e57604052565b90601f8019910116810190811067ffffffffffffffff821117611e3e57604052565b51908115158203610ad357565b15611ea757565b60405162461bcd60e51b815260206004820152601760248201527f4e6f74206f776e6572206f7220617574686f72697a65640000000000000000006044820152606490fd5b15611ef357565b60405162461bcd60e51b815260206004820152601860248201527f456e726f6c6c6d656e74207374696c6c206f6e676f696e6700000000000000006044820152606490fd5b91908201809211611f4557565b634e487b7160e01b600052601160045260246000fd5b91908203918211611f4557565b8115611f72570490565b634e487b7160e01b600052601260045260246000fd5b601154811015611fa757601160005260206000209060011b0190600090565b634e487b7160e01b600052603260045260246000fd5b67ffffffffffffffff8111611e3e57601f01601f191660200190565b3d15612004573d90611fea82611fbd565b91611ff86040519384611e71565b82523d6000602084013e565b606090565b60005b83811061201c5750506000910152565b818101518382015260200161200c565b600654811015611fa757600660005260206000200190600090565b8054821015611fa75760005260206000200190600090565b1561206657565b60405162461bcd60e51b815260206004820152600d60248201526c139bc8199d5b991cc81cd95b9d609a1b6044820152606490fd5b6002600154146120ac576002600155565b633ee5aeb560e01b60005260046000fd5b60075461020060ff8260081c169161ff0019161760075560018060a01b0360025416803b15610ad35760405163d8d6e8ff60e01b8152600260048201525a81602481600080968195f180156104ba578290612170575b905050806012557f90819cd8de9b72986080ab279ab70683338d97e13bbb542d0c4320ef2ff9557f6020604051428152a160068210156104915780610491575060029060008051602061283e8339815191526020604051428152a3565b61217991611e71565b3881612113565b60075461050060ff8260081c169161ff0019161760075560018060a01b0360025416803b15610ad35760405163d8d6e8ff60e01b8152600560048201525a81602481600080968195f180156104ba578290612204575b505060068210156104915780610491575060059060008051602061283e8339815191526020604051428152a3565b61220d91611e71565b38816121d6565b60075461040060ff8260081c169161ff0019161760075560018060a01b0360025416803b15610ad35760405163d8d6e8ff60e01b81526004808201525a81602481600080968195f180156104ba578290612297575b505060068210156104915780610491575060049060008051602061283e8339815191526020604051428152a3565b6122a091611e71565b3881612269565b600954906122b9600092421015611eec565b60ff60075460081c1660068110156110e75760050361269c576006541561266057600190825b60065481101561242b576122f28161202c565b905460039190911b1c6001600160a01b03168085526005602052604085205460ff1615612323575b506001016122df565b84808080600a54855af1612335611fd9565b50156123d657808552600560205260408520805460ff19166001179055601354600160401b8110156123c25790612376826001809594016013556013612047565b81549060031b9083821b91868060a01b03901b19161790557f48d31f1c958cd44f1f83a52ae2dfaf61e88a1b82c07a6d5711a4abef60b6531e6020600a54604051908152a25b9061231a565b634e487b7160e01b86526041600452602486fd5b909250600a5481855260156020526123f360408620918254611f38565b90557faf73b0b217208b61be286bbc37095bce7eb8b9ccf617244c2f0f154e8e04e3ff6020600a54604051908152a2600183926123bc565b50919060ff60075460081c1660068110156110e75760048114908115612655575b5015611a0957479061245f8215156126e1565b156125eb57905b811561247281156126e1565b601983029083820460191417156114ae57606461249191048093611f5b565b600254604051638da5cb5b60e01b815291929190602090829060049082906001600160a01b03165afa9081156104ba578291859183916125a3575b50829182918291906001600160a01b03165af16124e7611fd9565b501561198457808080808560018060a01b03600254165af1612507611fd9565b501561193f5760018060a01b036002541660ff60075416813b1561067e5761254f604484928360405195869485936304e1e9d160e51b85528a60048601526024850190611e08565b5af180156104ba5791604093917fd66662c0ded9e58fd31d5e44944bcfd07ffc15e6927ecc1382e7941cb7bd24c49593612593575b505082519182526020820152a1565b8161259d91611e71565b38612584565b925050506020813d6020116125e3575b816125c060209383611e71565b810103126104c557516001600160a01b03811681036104c55781908490826124cc565b3d91506125b3565b919080816006545b80821061261c5750508361260e929394821161261457611f5b565b90612466565b905080611f5b565b909161264d60019161262d8561202c565b848060a01b0391549060031b1c1686526015602052604086205490611f38565b9201906125f3565b60059150143861244c565b60405162461bcd60e51b8152602060048201526014602482015273139bc81c1b185e595c9cc81d1bc81c99599d5b9960621b6044820152606490fd5b60405162461bcd60e51b815260206004820152601f60248201527f4d697373696f6e206973206e6f7420696e204661696c656420737461747573006044820152606490fd5b156126e857565b60405162461bcd60e51b81526020600482015260146024820152734e6f2066756e647320746f20776974686472617760601b6044820152606490fd5b60009060ff60075460081c1660068110156110e757600481149081156127a2575b5015611a095747916127588315156126e1565b50600080816006545b8082106127895750508361277c929394821161261457611f5b565b90811561247281156126e1565b909161279a60019161262d8561202c565b920190612761565b600591501438612745565b6000546001600160a01b031633036127c157565b63118cdaa760e01b6000523360045260246000fd5b600080546001600160a01b039283166001600160a01b03198216811783559216907f8be0079c531659141344cd1fd0a4f28419497f9722a3daafe3b4186f6b6457e09080a356fe31ecc21a745e3968a04e9570e4425bc18fa8019c68028196b546d1669c200c6839ba628632d48c45c7f562c07db20a44cf68423691d5d79b20f87ba84138aedfa26469706673582212205256274fa88c7509194aa1573e80691188510fabc3b3d03719a7a2943875c19964736f6c634300081e0033",
  "linkReferences": {},
  "deployedLinkReferences": {}
}