{"contracts/MissionFactory.sol":{"MissionFactory":{"abi":[{"inputs":[{"internalType":"address","name":"_impl","type":"address"}],"stateMutability":"nonpayable","type":"constructor"},{"inputs":[],"name":"FailedDeployment","type":"error"},{"inputs":[{"internalType":"uint256","name":"balance","type":"uint256"},{"internalType":"uint256","name":"needed","type":"uint256"}],"name":"InsufficientBalance","type":"error"},{"inputs":[{"internalType":"address","name":"owner","type":"address"}],"name":"OwnableInvalidOwner","type":"error"},{"inputs":[{"internalType":"address","name":"account","type":"address"}],"name":"OwnableUnauthorizedAccount","type":"error"},{"inputs":[],"name":"ReentrancyGuardReentrantCall","type":"error"},{"anonymous":false,"inputs":[{"indexed":true,"internalType":"address","name":"addr","type":"address"}],"name":"AuthorizedAddressAdded","type":"event"},{"anonymous":false,"inputs":[{"indexed":true,"internalType":"address","name":"addr","type":"address"}],"name":"AuthorizedAddressRemoved","type":"event"},{"anonymous":false,"inputs":[{"indexed":false,"internalType":"uint8","name":"newWeekly","type":"uint8"},{"indexed":false,"internalType":"uint8","name":"newMonthly","type":"uint8"}],"name":"EnrollmentLimitUpdated","type":"event"},{"anonymous":false,"inputs":[{"indexed":true,"internalType":"address","name":"user","type":"address"},{"indexed":false,"internalType":"uint256","name":"timestamp","type":"uint256"}],"name":"EnrollmentRecorded","type":"event"},{"anonymous":false,"inputs":[{"indexed":true,"internalType":"address","name":"user","type":"address"},{"indexed":false,"internalType":"uint256","name":"timestampRemoved","type":"uint256"}],"name":"EnrollmentReverted","type":"event"},{"anonymous":false,"inputs":[{"indexed":true,"internalType":"address","name":"to","type":"address"},{"indexed":false,"internalType":"uint256","name":"amount","type":"uint256"}],"name":"FundsWithdrawn","type":"event"},{"anonymous":false,"inputs":[{"indexed":true,"internalType":"address","name":"mission","type":"address"},{"indexed":false,"internalType":"string","name":"name","type":"string"},{"indexed":false,"internalType":"enum MissionType","name":"missionType","type":"uint8"},{"indexed":false,"internalType":"uint256","name":"enrollmentStart","type":"uint256"},{"indexed":false,"internalType":"uint256","name":"enrollmentEnd","type":"uint256"},{"indexed":false,"internalType":"uint8","name":"minPlayers","type":"uint8"},{"indexed":false,"internalType":"uint8","name":"maxPlayers","type":"uint8"},{"indexed":false,"internalType":"uint8","name":"roundPauseDuration","type":"uint8"},{"indexed":false,"internalType":"uint8","name":"lastRoundPauseDuration","type":"uint8"},{"indexed":false,"internalType":"uint256","name":"enrollmentAmount","type":"uint256"},{"indexed":false,"internalType":"uint256","name":"missionStart","type":"uint256"},{"indexed":false,"internalType":"uint256","name":"missionEnd","type":"uint256"},{"indexed":false,"internalType":"uint8","name":"missionRounds","type":"uint8"}],"name":"MissionCreated","type":"event"},{"anonymous":false,"inputs":[{"indexed":true,"internalType":"address","name":"mission","type":"address"},{"indexed":true,"internalType":"uint8","name":"finalStatus","type":"uint8"},{"indexed":false,"internalType":"uint256","name":"timestamp","type":"uint256"}],"name":"MissionFinalized","type":"event"},{"anonymous":false,"inputs":[{"indexed":false,"internalType":"uint256","name":"amount","type":"uint256"},{"indexed":true,"internalType":"enum MissionType","name":"missionType","type":"uint8"},{"indexed":true,"internalType":"address","name":"sender","type":"address"}],"name":"MissionFundsRegistered","type":"event"},{"anonymous":false,"inputs":[{"indexed":true,"internalType":"address","name":"mission","type":"address"},{"indexed":true,"internalType":"uint8","name":"fromStatus","type":"uint8"},{"indexed":true,"internalType":"uint8","name":"toStatus","type":"uint8"},{"indexed":false,"internalType":"uint256","name":"timestamp","type":"uint256"}],"name":"MissionStatusUpdated","type":"event"},{"anonymous":false,"inputs":[{"indexed":true,"internalType":"address","name":"confirmer","type":"address"},{"indexed":false,"internalType":"address","name":"newOwner","type":"address"},{"indexed":false,"internalType":"uint256","name":"timestamp","type":"uint256"}],"name":"OwnershipTransferConfirmed","type":"event"},{"anonymous":false,"inputs":[{"indexed":true,"internalType":"address","name":"proposer","type":"address"},{"indexed":false,"internalType":"address","name":"newOwner","type":"address"},{"indexed":false,"internalType":"uint256","name":"timestamp","type":"uint256"}],"name":"OwnershipTransferProposed","type":"event"},{"anonymous":false,"inputs":[{"indexed":true,"internalType":"address","name":"previousOwner","type":"address"},{"indexed":true,"internalType":"address","name":"newOwner","type":"address"}],"name":"OwnershipTransferred","type":"event"},{"stateMutability":"payable","type":"fallback"},{"inputs":[],"name":"OWNERSHIP_PROPOSAL_WINDOW","outputs":[{"internalType":"uint256","name":"","type":"uint256"}],"stateMutability":"view","type":"function"},{"inputs":[{"internalType":"address","name":"account","type":"address"}],"name":"addAuthorizedAddress","outputs":[],"stateMutability":"nonpayable","type":"function"},{"inputs":[{"internalType":"address","name":"","type":"address"}],"name":"authorized","outputs":[{"internalType":"bool","name":"","type":"bool"}],"stateMutability":"view","type":"function"},{"inputs":[{"internalType":"address","name":"user","type":"address"}],"name":"canEnroll","outputs":[{"internalType":"bool","name":"ok","type":"bool"},{"internalType":"enum Limit","name":"breach","type":"uint8"}],"stateMutability":"view","type":"function"},{"inputs":[],"name":"confirmOwnershipTransfer","outputs":[],"stateMutability":"nonpayable","type":"function"},{"inputs":[{"internalType":"enum MissionType","name":"_missionType","type":"uint8"},{"internalType":"uint256","name":"_enrollmentStart","type":"uint256"},{"internalType":"uint256","name":"_enrollmentEnd","type":"uint256"},{"internalType":"uint256","name":"_enrollmentAmount","type":"uint256"},{"internalType":"uint8","name":"_enrollmentMinPlayers","type":"uint8"},{"internalType":"uint8","name":"_enrollmentMaxPlayers","type":"uint8"},{"internalType":"uint8","name":"_roundPauseDuration","type":"uint8"},{"internalType":"uint8","name":"_lastRoundPauseDuration","type":"uint8"},{"internalType":"uint256","name":"_missionStart","type":"uint256"},{"internalType":"uint256","name":"_missionEnd","type":"uint256"},{"internalType":"uint8","name":"_missionRounds","type":"uint8"},{"internalType":"string","name":"_missionName","type":"string"}],"name":"createMission","outputs":[{"internalType":"address","name":"","type":"address"},{"internalType":"string","name":"","type":"string"}],"stateMutability":"payable","type":"function"},{"inputs":[],"name":"getAllMissions","outputs":[{"internalType":"address[]","name":"","type":"address[]"},{"internalType":"enum Status[]","name":"","type":"uint8[]"},{"internalType":"string[]","name":"","type":"string[]"}],"stateMutability":"view","type":"function"},{"inputs":[],"name":"getFactorySummary","outputs":[{"internalType":"address","name":"ownerAddress","type":"address"},{"internalType":"address","name":"factoryAddress","type":"address"},{"internalType":"address","name":"implementation","type":"address"},{"internalType":"uint256","name":"totalMissions","type":"uint256"},{"internalType":"uint256","name":"weekly","type":"uint256"},{"internalType":"uint256","name":"monthly","type":"uint256"},{"internalType":"uint256","name":"missionFunds","type":"uint256"},{"internalType":"uint256","name":"ownerFunds","type":"uint256"},{"internalType":"uint256","name":"successes","type":"uint256"},{"internalType":"uint256","name":"failures","type":"uint256"},{"internalType":"uint256[]","name":"fundsPerTypeArray","type":"uint256[]"}],"stateMutability":"view","type":"function"},{"inputs":[{"internalType":"enum MissionType","name":"_type","type":"uint8"}],"name":"getFundsByType","outputs":[{"internalType":"uint256","name":"","type":"uint256"}],"stateMutability":"view","type":"function"},{"inputs":[{"internalType":"uint256","name":"n","type":"uint256"}],"name":"getLatestMissions","outputs":[{"internalType":"address[]","name":"","type":"address[]"},{"internalType":"uint8[]","name":"","type":"uint8[]"},{"internalType":"string[]","name":"","type":"string[]"}],"stateMutability":"view","type":"function"},{"inputs":[{"internalType":"address","name":"missionAddress","type":"address"}],"name":"getMissionData","outputs":[{"components":[{"internalType":"address[]","name":"players","type":"address[]"},{"internalType":"enum MissionType","name":"missionType","type":"uint8"},{"internalType":"uint256","name":"enrollmentStart","type":"uint256"},{"internalType":"uint256","name":"enrollmentEnd","type":"uint256"},{"internalType":"uint256","name":"enrollmentAmount","type":"uint256"},{"internalType":"uint8","name":"enrollmentMinPlayers","type":"uint8"},{"internalType":"uint8","name":"enrollmentMaxPlayers","type":"uint8"},{"internalType":"uint8","name":"roundPauseDuration","type":"uint8"},{"internalType":"uint8","name":"lastRoundPauseDuration","type":"uint8"},{"internalType":"uint256","name":"missionStart","type":"uint256"},{"internalType":"uint256","name":"missionEnd","type":"uint256"},{"internalType":"uint8","name":"missionRounds","type":"uint8"},{"internalType":"uint8","name":"roundCount","type":"uint8"},{"internalType":"uint256","name":"croStart","type":"uint256"},{"internalType":"uint256","name":"croCurrent","type":"uint256"},{"components":[{"internalType":"address","name":"player","type":"address"},{"internalType":"uint256","name":"amountWon","type":"uint256"}],"internalType":"struct Mission.PlayersWon[]","name":"playersWon","type":"tuple[]"},{"internalType":"uint256","name":"pauseTimestamp","type":"uint256"},{"internalType":"address[]","name":"refundedPlayers","type":"address[]"},{"internalType":"string","name":"name","type":"string"},{"internalType":"uint256","name":"missionCreated","type":"uint256"}],"internalType":"struct Mission.MissionData","name":"","type":"tuple"}],"stateMutability":"view","type":"function"},{"inputs":[{"internalType":"enum Status","name":"s","type":"uint8"}],"name":"getMissionsByStatus","outputs":[{"internalType":"address[]","name":"","type":"address[]"},{"internalType":"uint8[]","name":"","type":"uint8[]"},{"internalType":"string[]","name":"","type":"string[]"}],"stateMutability":"view","type":"function"},{"inputs":[],"name":"getMissionsEnded","outputs":[{"internalType":"address[]","name":"","type":"address[]"},{"internalType":"uint8[]","name":"","type":"uint8[]"},{"internalType":"string[]","name":"","type":"string[]"}],"stateMutability":"view","type":"function"},{"inputs":[{"internalType":"uint256","name":"offset","type":"uint256"},{"internalType":"uint256","name":"limit","type":"uint256"}],"name":"getMissionsEndedPaged","outputs":[{"internalType":"address[]","name":"addrs","type":"address[]"},{"internalType":"uint8[]","name":"statuses","type":"uint8[]"},{"internalType":"string[]","name":"names","type":"string[]"}],"stateMutability":"view","type":"function"},{"inputs":[],"name":"getMissionsNotEnded","outputs":[{"internalType":"address[]","name":"","type":"address[]"},{"internalType":"uint8[]","name":"","type":"uint8[]"},{"internalType":"string[]","name":"","type":"string[]"}],"stateMutability":"view","type":"function"},{"inputs":[],"name":"getOwnershipProposal","outputs":[{"internalType":"address","name":"newOwner","type":"address"},{"internalType":"address","name":"proposer","type":"address"},{"internalType":"uint256","name":"timestamp","type":"uint256"},{"internalType":"uint256","name":"timeLeft","type":"uint256"}],"stateMutability":"view","type":"function"},{"inputs":[{"internalType":"address","name":"player","type":"address"}],"name":"getPlayerLimits","outputs":[{"internalType":"uint8","name":"weekUsed","type":"uint8"},{"internalType":"uint8","name":"weekMax","type":"uint8"},{"internalType":"uint8","name":"monthUsed","type":"uint8"},{"internalType":"uint8","name":"monthMax","type":"uint8"},{"internalType":"uint256","name":"secToWeek","type":"uint256"},{"internalType":"uint256","name":"secToMonth","type":"uint256"}],"stateMutability":"view","type":"function"},{"inputs":[{"internalType":"address","name":"player","type":"address"}],"name":"getPlayerParticipation","outputs":[{"internalType":"address[]","name":"","type":"address[]"},{"internalType":"enum Status[]","name":"","type":"uint8[]"},{"internalType":"string[]","name":"","type":"string[]"}],"stateMutability":"view","type":"function"},{"inputs":[],"name":"getTotalMissions","outputs":[{"internalType":"uint256","name":"","type":"uint256"}],"stateMutability":"view","type":"function"},{"inputs":[{"internalType":"address","name":"","type":"address"}],"name":"isMission","outputs":[{"internalType":"bool","name":"","type":"bool"}],"stateMutability":"view","type":"function"},{"inputs":[],"name":"missionImplementation","outputs":[{"internalType":"address","name":"","type":"address"}],"stateMutability":"view","type":"function"},{"inputs":[{"internalType":"address","name":"","type":"address"}],"name":"missionNames","outputs":[{"internalType":"string","name":"","type":"string"}],"stateMutability":"view","type":"function"},{"inputs":[{"internalType":"address","name":"","type":"address"}],"name":"missionStatus","outputs":[{"internalType":"enum Status","name":"","type":"uint8"}],"stateMutability":"view","type":"function"},{"inputs":[{"internalType":"enum MissionType","name":"","type":"uint8"}],"name":"missionTypeCounts","outputs":[{"internalType":"uint256","name":"","type":"uint256"}],"stateMutability":"view","type":"function"},{"inputs":[{"internalType":"uint256","name":"","type":"uint256"}],"name":"missions","outputs":[{"internalType":"address","name":"","type":"address"}],"stateMutability":"view","type":"function"},{"inputs":[],"name":"monthlyLimit","outputs":[{"internalType":"uint8","name":"","type":"uint8"}],"stateMutability":"view","type":"function"},{"inputs":[],"name":"owner","outputs":[{"internalType":"address","name":"","type":"address"}],"stateMutability":"view","type":"function"},{"inputs":[],"name":"proposalProposer","outputs":[{"internalType":"address","name":"","type":"address"}],"stateMutability":"view","type":"function"},{"inputs":[],"name":"proposalTimestamp","outputs":[{"internalType":"uint256","name":"","type":"uint256"}],"stateMutability":"view","type":"function"},{"inputs":[{"internalType":"address","name":"newOwner","type":"address"}],"name":"proposeOwnershipTransfer","outputs":[],"stateMutability":"nonpayable","type":"function"},{"inputs":[],"name":"proposedNewOwner","outputs":[{"internalType":"address","name":"","type":"address"}],"stateMutability":"view","type":"function"},{"inputs":[{"internalType":"address","name":"user","type":"address"}],"name":"recordEnrollment","outputs":[],"stateMutability":"nonpayable","type":"function"},{"inputs":[{"internalType":"enum MissionType","name":"missionType","type":"uint8"}],"name":"registerMissionFunds","outputs":[],"stateMutability":"payable","type":"function"},{"inputs":[{"internalType":"address","name":"account","type":"address"}],"name":"removeAuthorizedAddress","outputs":[],"stateMutability":"nonpayable","type":"function"},{"inputs":[],"name":"renounceOwnership","outputs":[],"stateMutability":"nonpayable","type":"function"},{"inputs":[{"internalType":"enum MissionType","name":"","type":"uint8"}],"name":"reservedFunds","outputs":[{"internalType":"uint256","name":"","type":"uint256"}],"stateMutability":"view","type":"function"},{"inputs":[],"name":"reservedFundsBreakdown","outputs":[{"internalType":"uint256[7]","name":"","type":"uint256[7]"}],"stateMutability":"view","type":"function"},{"inputs":[{"internalType":"address","name":"user","type":"address"}],"name":"secondsTillMonthlySlot","outputs":[{"internalType":"uint256","name":"","type":"uint256"}],"stateMutability":"view","type":"function"},{"inputs":[{"internalType":"address","name":"user","type":"address"}],"name":"secondsTillWeeklySlot","outputs":[{"internalType":"uint256","name":"","type":"uint256"}],"stateMutability":"view","type":"function"},{"inputs":[{"internalType":"uint8","name":"_weekly","type":"uint8"},{"internalType":"uint8","name":"_monthly","type":"uint8"}],"name":"setEnrollmentLimits","outputs":[],"stateMutability":"nonpayable","type":"function"},{"inputs":[{"internalType":"enum Status","name":"newStatus","type":"uint8"}],"name":"setMissionStatus","outputs":[],"stateMutability":"nonpayable","type":"function"},{"inputs":[],"name":"totalMissionFailures","outputs":[{"internalType":"uint256","name":"","type":"uint256"}],"stateMutability":"view","type":"function"},{"inputs":[],"name":"totalMissionFunds","outputs":[{"internalType":"uint256","name":"","type":"uint256"}],"stateMutability":"view","type":"function"},{"inputs":[],"name":"totalMissionSuccesses","outputs":[{"internalType":"uint256","name":"","type":"uint256"}],"stateMutability":"view","type":"function"},{"inputs":[],"name":"totalOwnerEarnedFunds","outputs":[{"internalType":"uint256","name":"","type":"uint256"}],"stateMutability":"view","type":"function"},{"inputs":[{"internalType":"address","name":"newOwner","type":"address"}],"name":"transferOwnership","outputs":[],"stateMutability":"nonpayable","type":"function"},{"inputs":[{"internalType":"address","name":"user","type":"address"},{"internalType":"uint256","name":"startTs","type":"uint256"},{"internalType":"uint256","name":"endTs","type":"uint256"}],"name":"undoEnrollmentInWindow","outputs":[],"stateMutability":"nonpayable","type":"function"},{"inputs":[],"name":"weeklyLimit","outputs":[{"internalType":"uint8","name":"","type":"uint8"}],"stateMutability":"view","type":"function"},{"inputs":[{"internalType":"uint256","name":"amount","type":"uint256"}],"name":"withdrawFunds","outputs":[],"stateMutability":"nonpayable","type":"function"},{"stateMutability":"payable","type":"receive"}],"evm":{"bytecode":{"linkReferences":{},"object":"60a03461012557601f61427d38819003918201601f19168301916001600160401b0383118484101761012a5780849260209460405283398101031261012557516001600160a01b03811680820361012557331561010f5760008054336001600160a01b0319821681178355604051939290916001600160a01b0316907f8be0079c531659141344cd1fd0a4f28419497f9722a3daafe3b4186f6b6457e09080a360018055610f0761ffff196003541617600355156100e1575060805260405161413c9081610141823960805181818161052601528181610fa601526117080152f35b62461bcd60e51b8152602060048201526009602482015268696d706c207a65726f60b81b6044820152606490fd5b631e4fbdf760e01b600052600060045260246000fd5b600080fd5b634e487b7160e01b600052604160045260246000fdfe6080806040526004361015610011575b005b600090813560e01c90816304a6175214612e0a575080630814ab8214612dc65780630a6005da14612da25780630fc8c4ed14612d79578063155dd5ee14612c115780631e59d58414612a7f57806320c5718f146127bb57806321040fc3146126ad5780632c8fe526146126695780632d771f30146126405780632e33b07f146114cb5780633589cf7214612622578063370127621461254757806342f1181e1461245a578063503c0b88146121e95780635c5bb6f2146121cb57806363679723146121ad5780636805036d1461204d5780636d8a1390146120225780637071293914611f3b578063715018a614611ee15780637200b82914611d795780637e9eae5014611c7057806383fbea5114611c52578063861a68d614611c315780638c09b7c314611bf15780638da5cb5b14611bca5780639804a58614611b8c57806398d05c3e14611b4a578063a9bea789146119d6578063aa1f059514611997578063b6202913146117c5578063b6de7b4314611776578063b918161114611737578063bd487725146116f2578063c17f9e59146114f5578063c416ad2a146114cb578063c892fde3146114ad578063cbf2080d1461131a578063d3050eba146112fc578063d41eca6414611252578063d8d6e8ff146110b5578063df4db4631461102e578063e504777014610f01578063ea507dad146103fa578063eff0ab92146102f1578063f08e231e146102be578063f225b56d146102885763f2fde38b0361000f57346102855760203660031901126102855761024e612e26565b610256613f25565b6001600160a01b038116156102715761026e90613f70565b80f35b631e4fbdf760e01b82526004829052602482fd5b80fd5b5034610285576040366003190112610285576102ba6102ab602435600435613d5e565b60409391935193849384612f42565b0390f35b5034610285576020366003190112610285576004359060078210156102855760206102e8836131b3565b54604051908152f35b5034610285576020366003190112610285576001600160a01b03610313612e26565b168152600f6020526040812080548291825b828110610375575050508161034157602091505b604051908152f35b62093a808201809211610361575061035c6020914290613648565b610339565b634e487b7160e01b81526011600452602490fd5b61037f8183612fe8565b90549060031b1c62093a8081018091116103e65742106103a2575b600101610325565b841580156103cd575b1561039a57935060016103be8583612fe8565b90549060031b1c94905061039a565b50846103d98284612fe8565b90549060031b1c106103ab565b634e487b7160e01b85526011600452602485fd5b5061018036600319011261028557600760043510156102855760843560ff811681036108a85760a4359160ff831683036102855760c4359160ff831683036108a85760e43560ff81168103610efd57610144359060ff82168203610ef95761016435946001600160401b038611610ef55736602387011215610ef5578560040135956001600160401b038711610ef1573660248883010111610ef15785546001600160a01b031633148015610edb575b6104b3906135e0565b6104bb613f4e565b600560ff851610610e7c5760ff841660ff861610610e115760ff851660ff891610610da7576044356024351015610d56576044356101043510610cf85761010435610124351115610cb45760643515610c5b57603c60ff831610610bfd57603c60ff841610610b9a577f0000000000000000000000000000000000000000000000000000000000000000608881901c62ffffff16763d602d80600a3d3981f3363d3d373d3d3d363d7300000017875260781b6e5af43d82803e903d91602b57fd5bf3176020526001600160a01b036037600988f016968715610b8b5786906105a46004356131b3565b6105ae81546131e7565b905580156109b157808060246105c56020946131cc565b956105d360405197886130d5565b828752018386013783010152965b868652600c60205260408620600160ff19825416179055868652600d6020526040862060ff19815416905586865260106020526040862088516001600160401b03811161099d576106328254613069565b601f811161095c575b50806020601f82116001146108f85789916108ed575b508160011b916000199060031b1c19161790555b85546001600160a01b0316873b156108e95760405190630ccf8fed60e31b8252600482015230602482015261069f60448201600435612faa565b6024356064820152604435608482015260643560a482015260ff861660c482015260ff821660e482015260ff831661010482015260ff8416610124820152610104356101448201526101243561016482015260ff85166101848201526101c06101a48201528681806107156101c482018d612ec4565b0381348c5af180156108de576108ca575b50600254600160401b8110156108b6577fbb01632f8ba922012a4cac12632e6d17bba3f2bf82e0e427b30da8a824201d5e9460ff6107a895818c96818d9b978c610777896001859b01600255612fb7565b819291549060031b91821b9160018060a01b03901b1916179055816040519b8c9b6101808d526101808d0190612ec4565b996107b860208d01600435612faa565b60243560408d015260443560608d01521660808b01521660a08901521660c08701521660e08501526064356101008501526101043561012085015261012435610140850152166101608301520390a261081260043561319a565b5460021c801515806108ac575b610846575b5050600180556102ba6040519283928352604060208401526040830190612ec4565b61085160043561319a565b61085c828254613648565b9055823b156108a857816004916040519283809263eb2bab7760e01b8252875af1801561089d5715610824576108938280926130d5565b6102855780610824565b6040513d84823e3d90fd5b5080fd5b508047101561081f565b634e487b7160e01b87526041600452602487fd5b866108d7919792976130d5565b9438610726565b6040513d89823e3d90fd5b8680fd5b90508a015138610651565b915082895281892089925b8c601f198416851061094557506001935082601f1981161061092c575b5050811b019055610665565b8c015160001960f88460031b161c191690553880610920565b810151825560209384019360019092019101610903565b82895260208920601f830160051c810160208410610996575b601f830160051c8201811061098b57505061063b565b8a8155600101610975565b5080610975565b634e487b7160e01b88526041600452602488fd5b5050506109bf600435613fb7565b6109ca6004356131b3565b54868172184f03e93ff9f4daa797ed6e38ed64bf6a1f0160401b811015610b68575b806d04ee2d6d415b85acef8100000000600a921015610b4d575b662386f26fc10000811015610b39575b6305f5e100811015610b28575b612710811015610b19575b6064811015610b0b575b1015610b03575b6001810191600a6021610a6a610a54866131cc565b95610a6260405197886130d5565b8087526131cc565b602086019490601f19013686378501015b60001901916f181899199a1a9b1b9c1cb0b131b232b360811b8282061a835304908115610aaa57600a90610a7b565b5050610aec926020600392610afd946040519684610ad1899651809287808a019101612ea1565b8501916201016960ed1b858401525180936023840190612ea1565b01010301601f1981018352826130d5565b966105e1565b600101610a3f565b606460029104920191610a38565b61271060049104920191610a2e565b6305f5e10060089104920191610a23565b662386f26fc1000060109104920191610a16565b6d04ee2d6d415b85acef810000000060209104920191610a06565b506040905072184f03e93ff9f4daa797ed6e38ed64bf6a1f0160401b82046109ec565b63b06ebf3d60e01b8752600487fd5b60405162461bcd60e51b815260206004820152603560248201527f4c61737420726f756e64207061757365206475726174696f6e206d757374206260448201527465206174206c65617374203630207365636f6e647360581b6064820152608490fd5b60405162461bcd60e51b815260206004820152603060248201527f526f756e64207061757365206475726174696f6e206d7573742062652061742060448201526f6c65617374203630207365636f6e647360801b6064820152608490fd5b60405162461bcd60e51b815260206004820152602b60248201527f456e726f6c6c6d656e7420616d6f756e74206d7573742062652067726561746560448201526a72207468616e207a65726f60a81b6064820152608490fd5b606460405162461bcd60e51b815260206004820152602060248201527f4d697373696f6e207374617274206d757374206265206265666f726520656e646044820152fd5b60405162461bcd60e51b815260206004820152603060248201527f4d697373696f6e207374617274206d757374206265206f6e206f72206166746560448201526f1c88195b9c9bdb1b1b595b9d08195b9960821b6064820152608490fd5b60405162461bcd60e51b815260206004820152602360248201527f456e726f6c6c6d656e74207374617274206d757374206265206265666f726520604482015262195b9960ea1b6064820152608490fd5b608460405162461bcd60e51b815260206004820152604060248201527f4d6178696d756d20706c6179657273206d75737420626520677265617465722060448201527f7468616e206f7220657175616c20746f206d696e696d756d20706c61796572736064820152fd5b60405162461bcd60e51b815260206004820152603f60248201527f4d696e696d756d20706c6179657273206d75737420626520677265617465722060448201527f7468616e206f7220657175616c20746f206d697373696f6e20726f756e6473006064820152608490fd5b60405162461bcd60e51b815260206004820152603160248201527f4d697373696f6e20726f756e6473206d7573742062652067726561746572207460448201527068616e206f7220657175616c20746f203560781b6064820152608490fd5b50338652600b602052604086205460ff166104aa565b8580fd5b8480fd5b8380fd5b8280fd5b503461028557806003193601126102855761010090604051610f2383826130d5565b600781526020810191601f198401368437805b6007811015610f5d57600190610f4b8161319a565b54610f5682866132d3565b5201610f36565b5091909160018060a01b0381541660025493600354956004549060055490600654916007549360ff6040519b8c9b6101608d01998d528c6020309101528c604060018060a01b037f00000000000000000000000000000000000000000000000000000000000000001691015260608d015281811660808d015260081c1660a08b015260c08a015260e089015287015261012086015261016061014086015251809152610180840192915b818110611015575050500390f35b8251845285945060209384019390920191600101611007565b503461028557806003193601126102855760e0908160405161105082826130d5565b3690376040519061106183836130d5565b82368337805b600781101561108a5760019061107c8161319a565b548160051b85015201611067565b506040519190825b6007821061109f57505050f35b6020806001928551815201930191019091611092565b50346102855760203660031901126102855760043560088110156108a857338252600c6020526110eb60ff604084205416613b89565b338252600d60205260ff60408320541690338352600d602052604083209160ff198354169260ff831680941790558390600683149182600014611235576111336006546131e7565b6006555b60088210156112215761120d5783906040514281527f0ea143fc1698242668979798ae4ab3fbbece2356edb72793bc92f1c4aca96ca960203392a4839160058114918215611202575b508282156111dd575b5050611193578280f35b6111c9576040514281527f471602128a67197776b2e0caf0ffdabf9bb93efcca8b7cb74862aa9f63f2347f60203392a338808280f35b634e487b7160e01b82526021600452602482fd5b9091506111ee576007143882611189565b634e487b7160e01b84526021600452602484fd5b859350915038611180565b634e487b7160e01b85526021600452602485fd5b634e487b7160e01b86526021600452602486fd5b5084600784036111375761124a6007546131e7565b600755611137565b50346102855760403660031901126102855760043560ff81168091036108a85760243560ff811691828203610ef9577f321994b8855ae38e4fd6162f7a0bd7cde88be83aa3acc96e03c17b7f733b43e19260409260018060a01b03865416331480156112e7575b6112c2906135e0565b8261ff006003549260081b169161ffff1916171760035582519182526020820152a180f35b50338652600b6020528386205460ff166112b9565b50346102855780600319360112610285576020604051620151808152f35b5034610285576020366003190112610285576001600160a01b0361133c612e26565b168152600f602052604081208190829083809181908054915b828110611402575050506003549480156000146113d0575080915b806113aa575060c09460ff8092945b8160405197168752818316602088015216604086015260081c166060840152608083015260a0820152f35b9062278d008201809211610361575060c09460ff6113ca81934290613648565b9461137f565b62093a8081018091116113ee576113e8904290613648565b91611370565b634e487b7160e01b82526011600452602482fd5b61140c8183612fe8565b90549060031b1c62278d008101808211611488574210611430575b50600101611355565b9561143a906131e7565b95851580156114a4575b61149c575b62093a808101808211611488574210156114275796611467906131e7565b968815801561147f575b156114275797506001611427565b50888110611471565b634e487b7160e01b86526011600452602486fd5b945084611449565b50858110611444565b50346102855780600319360112610285576020600654604051908152f35b5034610285576020366003190112610285576004359060078210156102855760206102e88361319a565b50346102855760203660031901126102855761150f612e26565b338252600d60205260ff60408320541660088110156116de576001036116a85762278cff19420190428211611694576001600160a01b0316808352600f60205260408320805492845b8481108061167b575b156115745761156f906131e7565b611558565b83838792806115fa575b50805490600160401b8210156115e657816115a19160016115b994018155612fe8565b429082549060031b91821b91600019901b1916179055565b7f498f5e6dcf570483a1848853791046a7f10012193176d71f959f46eb7713d7446020604051428152a280f35b634e487b7160e01b84526041600452602484fd5b92805b611608858454613648565b81101561165857806116526116286116228860019561363b565b86612fe8565b90549060031b1c6116398387612fe8565b90919082549060031b91821b91600019901b1916179055565b016115fd565b5092835b818110611669575061157e565b60019061167584613bf4565b0161165c565b50816116878285612fe8565b90549060031b1c10611561565b634e487b7160e01b83526011600452602483fd5b60405162461bcd60e51b815260206004820152600e60248201526d24b73b30b634b21031b0b63632b960911b6044820152606490fd5b634e487b7160e01b83526021600452602483fd5b50346102855780600319360112610285576040517f00000000000000000000000000000000000000000000000000000000000000006001600160a01b03168152602090f35b50346102855760203660031901126102855760209060ff906040906001600160a01b03611762612e26565b168152600b84522054166040519015158152f35b5034610285576020366003190112610285576102ba906117b1906040906001600160a01b036117a3612e26565b1681526010602052206130f6565b604051918291602083526020830190612ec4565b50346102855780600319360112610285576002548190825b81811061192b57506117ee82613223565b906118016117fb84613223565b93613289565b9084805b82821061181f575050506102ba9060405193849384612f42565b61182882612fb7565b905460039190911b1c6001600160a01b03168752600d602052604087205460ff166008811015806119175760068214801561190b575b61186f575b50509060010190611805565b61187884612fb7565b905460039190911b1c6001600160a01b031661189484896132d3565b526118f757816118f0916118aa6001948a6132d3565b526118b484612fb7565b848060a01b0391549060031b1c16895260106020526118d560408a206130f6565b6118df82886132d3565b526118ea81876132d3565b506131e7565b9038611863565b634e487b7160e01b88526021600452602488fd5b5050876007821461185e565b634e487b7160e01b89526021600452602489fd5b61193481612fb7565b905460039190911b1c6001600160a01b03168452600d602052604084205460ff16600881101561120d576006811490811561198c575b50611978575b6001016117dd565b916119846001916131e7565b929050611970565b60079150143861196a565b50346102855760203660031901126102855760209060ff906040906001600160a01b036119c2612e26565b168152600c84522054166040519015158152f35b5060203660031901126102855760043560078110156108a857338252600c602052611a0760ff604084205416613b89565b611a0f613f4e565b3415611b0657338252600d60205260ff60408320541660088110156116de576006148015611ae4575b15611aa857611a468161319a565b611a5134825461363b565b9055611a5f3460045461363b565b600455611a716003340460055461363b565b600555604051903482527f606617fd09d9890413e3c46147b844d4562351f86e0f7a5c60849bbf0ef0281160203393a36001805580f35b60405162461bcd60e51b815260206004820152601460248201527321b0b63632b9103737ba10309036b4b9b9b4b7b760611b6044820152606490fd5b50338252600d60205260ff60408320541660088110156116de57600714611a38565b606460405162461bcd60e51b815260206004820152602060248201527f416d6f756e74206d7573742062652067726561746572207468616e207a65726f6044820152fd5b50346102855760603660031901126102855761026e611b67612e26565b338352600c602052611b7f60ff604085205416613b89565b6044359060243590613c33565b503461028557602036600319011261028557611bae611ba9612e26565b613a0a565b604051911515825260038110156116de57604092506020820152f35b5034610285578060031936011261028557546040516001600160a01b039091168152602090f35b50346102855780600319360112610285576080611c0c613999565b604080516001600160a01b039586168152949093166020850152918301526060820152f35b5034610285578060031936011261028557602060ff60035416604051908152f35b50346102855780600319360112610285576020600754604051908152f35b50346102855760203660031901126102855760043590600254808311611d71575b611c9a83613223565b91611ca484613223565b93611cae81613289565b926000198101908111835b838110611cd057604051806102ba888b8b84612f42565b816103e657611ce7611ce28285613648565b612fb7565b905460039190911b1c6001600160a01b031680611d04838a6132d3565b52808652600d60205260ff6040872054166008811015611d5d57908291611d2d6001948c6132d3565b5286526010602052611d41604087206130f6565b611d4b82896132d3565b52611d5681886132d3565b5001611cb9565b634e487b7160e01b87526021600452602487fd5b915081611c91565b503461028557806003193601126102855780546001600160a01b031633148015611ecb575b611da7906135e0565b600a546001600160a01b03163314611e87576008546201518081018091116113ee574211611e4f57600954611de4906001600160a01b0316613f70565b600954604080516001600160a01b03909216825242602083015233917fdd72dd33198968a9cdc9b1e5cbff344fb8d04d99f8c15c0a02416b04e857b4679190a26001600160601b0360a01b600954166009556001600160601b0360a01b600a5416600a558060085580f35b60405162461bcd60e51b815260206004820152601060248201526f141c9bdc1bdcd85b08195e1c1a5c995960821b6044820152606490fd5b606460405162461bcd60e51b815260206004820152602060248201527f43616e6e6f7420636f6e6669726d20796f7572206f776e2070726f706f73616c6044820152fd5b50338152600b602052604081205460ff16611d9e565b5034610285578060031936011261028557611efa613f25565b80546001600160a01b03198116825581906001600160a01b03167f8be0079c531659141344cd1fd0a4f28419497f9722a3daafe3b4186f6b6457e08280a380f35b503461028557602036600319011261028557611f55612e26565b81546001600160a01b03163314801561200c575b611f72906135e0565b6001600160a01b0316611f86811515613655565b808252600b60205260ff60408320541615611fd657808252600b60205260408220805460ff191690557f66d5f06f711af3c9feba3203fdb00b51345d514c68585d9d319c5ff5e6f775928280a280f35b60405162461bcd60e51b815260206004820152600e60248201526d139bdd08185d5d1a1bdc9a5e995960921b6044820152606490fd5b50338252600b602052604082205460ff16611f69565b50346102855780600319360112610285576102ba61203e6136c4565b60409391935193849384613000565b50346102855780600319360112610285576002548190825b818110612140575061207682613223565b906120836117fb84613223565b9084805b8282106120a1575050506102ba9060405193849384612f42565b6120aa82612fb7565b905460039190911b1c6001600160a01b03168752600d602052604087205460ff1660088110158061191757600682141580612133575b6120f1575b50509060010190612087565b6120fa84612fb7565b905460039190911b1c6001600160a01b031661211684896132d3565b526118f7578161212c916118aa6001948a6132d3565b90386120e5565b50508760078214156120e0565b61214981612fb7565b905460039190911b1c6001600160a01b03168452600d602052604084205460ff16600881101561120d57600681141590816121a1575b5061218d575b600101612065565b916121996001916131e7565b929050612185565b6007915014153861217f565b50346102855780600319360112610285576020600454604051908152f35b50346102855780600319360112610285576020600254604051908152f35b503461028557602036600319011261028557612203612e26565b6002546001600160a01b0390911690829080805b6123ac575061222584613223565b9261223861223286613223565b95613289565b928092805b61225157604051806102ba878a8a84613000565b60001981018181116116945761226690612fb7565b9054604051629c95e160e41b81526004810186905260039290921b1c6001600160a01b031690602081602481855afa90811561237357849161237e575b506122b9575b506122b390613693565b8061223d565b806122c786899794976132d3565b526040516368c6ba2160e01b8152602081600481855afa908115612373578491612337575b5091612330916123086122b394612303848d6132d3565b6136b8565b8452601060205261231b604085206130f6565b61232582896132d3565b526118ea81886132d3565b93906122a9565b90506020813d821161236b575b81612351602093836130d5565b81010312610ef957516008811015610ef9576123306122ec565b3d9150612344565b6040513d86823e3d90fd5b61239f915060203d81116123a5575b61239781836130d5565b8101906136a0565b386122a3565b503d61238d565b60001981018181116124465760206123c5602492612fb7565b9054604051629c95e160e41b8152600481018990529384929091839160031b1c6001600160a01b03165afa908115612373578491612428575b50612413575b61240d90613693565b80612217565b9361242061240d916131e7565b949050612404565b612440915060203d81116123a55761239781836130d5565b386123fe565b634e487b7160e01b84526011600452602484fd5b503461028557602036600319011261028557612474612e26565b81546001600160a01b031633148015612531575b612491906135e0565b6001600160a01b03166124a5811515613655565b808252600b60205260ff6040832054166124f757808252600b60205260408220805460ff191660011790557f10ac961f00d5e732ba4dcc2c6fb09bebea0eb9edd2a75c8109775ef288382e678280a280f35b60405162461bcd60e51b8152602060048201526012602482015271105b1c9958591e48185d5d1a1bdc9a5e995960721b6044820152606490fd5b50338252600b602052604082205460ff16612488565b5034610285576020366003190112610285576001600160a01b03612569612e26565b168152600f6020526040812080548291825b8281106125b157505050816125965760209150604051908152f35b62278d008201809211610361575061035c6020914290613648565b6125bb8183612fe8565b90549060031b1c62278d0081018091116103e65742106125de575b60010161257b565b84158015612609575b156125d657935060016125fa8583612fe8565b90549060031b1c9490506125d6565b50846126158284612fe8565b90549060031b1c106125e7565b50346102855780600319360112610285576020600554604051908152f35b5034610285578060031936011261028557600a546040516001600160a01b039091168152602090f35b5034610285576020366003190112610285576004359060025482101561028557602061269483612fb7565b905460405160039290921b1c6001600160a01b03168152f35b5034610285576020366003190112610285576126c7612e26565b81546001600160a01b0316331480156127a5575b6126e4906135e0565b6001600160a01b038116801561276c576001600160601b0360a01b6009541617600955336001600160601b0360a01b600a541617600a55426008557fc29bdbd554e41df97e5c40fc273a09677ac133c245f0064bdffef5cc72176e1960405180612766339442908360209093929193604081019460018060a01b031681520152565b0390a280f35b60405162461bcd60e51b815260206004820152601160248201527024b73b30b634b2103732bb9037bbb732b960791b6044820152606490fd5b50338252600b602052604082205460ff166126db565b5034610285576020366003190112610285576127d5612e26565b816102606040516127e5816130a3565b606081528260208201528260408201528260608201528260808201528260a08201528260c08201528260e08201528261010082015282610120820152826101408201528261016082015282610180820152826101a0820152826101c082015260606101e08201528261020082015260606102208201526060610240820152015260018060a01b03168015612a3a578160049160405192838092631f385f7960e21b82525afa90811561089d578291612a18575b5060405190602082526128b9815161028060208501526102a0840190612e64565b926128cc60208301516040850190612faa565b6040820151606084015260608201516080840152608082015160a084015260ff60a08301511660c084015260ff60c08301511660e084015260ff60e08301511661010084015260ff6101008301511661012084015261012082015161014084015261014082015161016084015260ff6101608301511661018084015260ff610180830151166101a08401526101a08201516101c08401526101c08201516101e08401526101e082015193601f1984820301610200850152602080865192838152019501915b8181106129ed575050506102606129e06129ca8495610200850151610220870152610220850151601f1987830301610240880152612e64565b610240840151858203601f190184870152612ec4565b9101516102808301520390f35b825180516001600160a01b031687526020908101518188015260409096019590920191600101612991565b612a3491503d8084833e612a2c81836130d5565b81019061336e565b38612898565b60405162461bcd60e51b815260206004820152601760248201527f496e76616c6964206d697373696f6e20616464726573730000000000000000006044820152606490fd5b50346102855760203660031901126102855760043590600882101591826108a857600254928293835b818110612bb65750612ab985613223565b93612acc612ac687613223565b96613289565b938190825b848110612ae857604051806102ba898c8c84612f42565b612af181612fb7565b905460039190911b1c6001600160a01b03168452600d602052604084205460ff168661120d57600881101561120d578214612b2f575b600101612ad1565b919450612b3b82612fb7565b905460039190911b1c6001600160a01b0316612b5786896132d3565b526001612bae8496612b69818c6132d3565b60ff85169052612b7885612fb7565b848060a01b0391549060031b1c1686526010602052612b99604087206130f6565b612ba3828b6132d3565b526118ea818a6132d3565b929050612b27565b612bbf81612fb7565b905460039190911b1c6001600160a01b03168552600d602052604085205460ff1683611221576008811015611221578414612bfd575b600101612aa8565b94612c096001916131e7565b959050612bf5565b503461028557602036600319011261028557600435612c2e613f25565b612c36613f4e565b81546001600160a01b031690808215612d3c5715612d35575b478111612cf9578280808084865af13d15612cf4573d612c6e816131cc565b90612c7c60405192836130d5565b81528460203d92013e5b15612cbd5760207feaff4b37086828766ad3268786972c0cd24259d4c87a80f9d3963a3c3d999b0d91604051908152a26001805580f35b60405162461bcd60e51b815260206004820152600f60248201526e151c985b9cd9995c8819985a5b1959608a1b6044820152606490fd5b612c86565b60405162461bcd60e51b8152602060048201526014602482015273496e73756666696369656e742062616c616e636560601b6044820152606490fd5b5047612c4f565b60405162461bcd60e51b815260206004820152601560248201527424b73b30b634b21036b0b730b3b2b91037bbb732b960591b6044820152606490fd5b50346102855780600319360112610285576009546040516001600160a01b039091168152602090f35b5034610285578060031936011261028557602060ff60035460081c16604051908152f35b50346102855760203660031901126102855760209060ff906040906001600160a01b03612df1612e26565b168152600d8452205416612e086040518092612e41565bf35b9050346108a857816003193601126108a8576020906008548152f35b600435906001600160a01b0382168203612e3c57565b600080fd5b906008821015612e4e5752565b634e487b7160e01b600052602160045260246000fd5b906020808351928381520192019060005b818110612e825750505090565b82516001600160a01b0316845260209384019390920191600101612e75565b60005b838110612eb45750506000910152565b8181015183820152602001612ea4565b90602091612edd81518092818552858086019101612ea1565b601f01601f1916010190565b9080602083519182815201916020808360051b8301019401926000915b838310612f1557505050505090565b9091929394602080612f33600193601f198682030187528951612ec4565b97019301930191939290612f06565b939290612f5790606086526060860190612e64565b9380850360208201526020808451968781520193016000955b808710612f8f575050612f8c9394506040818403910152612ee9565b90565b909360208060019260ff885116815201950196019590612f70565b906007821015612e4e5752565b600254811015612fd257600260005260206000200190600090565b634e487b7160e01b600052603260045260246000fd5b8054821015612fd25760005260206000200190600090565b93929061301590606086526060860190612e64565b9380850360208201526020808451968781520193016000955b80871061304a575050612f8c9394506040818403910152612ee9565b90936020808261305d6001948951612e41565b0195019601959061302e565b90600182811c92168015613099575b602083101461308357565b634e487b7160e01b600052602260045260246000fd5b91607f1691613078565b61028081019081106001600160401b038211176130bf57604052565b634e487b7160e01b600052604160045260246000fd5b90601f801991011681019081106001600160401b038211176130bf57604052565b906040519182600082549261310a84613069565b80845293600181169081156131785750600114613131575b5061312f925003836130d5565b565b90506000929192526020600020906000915b81831061315c57505090602061312f9282010138613122565b6020919350806001915483858901015201910190918492613143565b90506020925061312f94915060ff191682840152151560051b82010138613122565b6007811015612e4e57600052600e602052604060002090565b6007811015612e4e576000526011602052604060002090565b6001600160401b0381116130bf57601f01601f191660200190565b60001981146131f65760010190565b634e487b7160e01b600052601160045260246000fd5b6001600160401b0381116130bf5760051b60200190565b9061322d8261320c565b61323a60405191826130d5565b828152809261324b601f199161320c565b0190602036910137565b604051906132646020836130d5565b600080835282815b82811061327857505050565b80606060208093850101520161326c565b906132938261320c565b6132a060405191826130d5565b82815280926132b1601f199161320c565b019060005b8281106132c257505050565b8060606020809385010152016132b6565b8051821015612fd25760209160051b010190565b51906001600160a01b0382168203612e3c57565b9080601f83011215612e3c5781516133128161320c565b9261332060405194856130d5565b81845260208085019260051b820101928311612e3c57602001905b8282106133485750505090565b60208091613355846132e7565b81520191019061333b565b519060ff82168203612e3c57565b602081830312612e3c578051906001600160401b038211612e3c57019061028082820312612e3c57604051916133a3836130a3565b80516001600160401b038111612e3c57826133bf9183016132fb565b835260208101516007811015612e3c5760208401526040810151604084015260608101516060840152608081015160808401526133fe60a08201613360565b60a084015261340f60c08201613360565b60c084015261342060e08201613360565b60e08401526134326101008201613360565b61010084015261012081015161012084015261014081015161014084015261345d6101608201613360565b6101608401526134706101808201613360565b6101808401526101a08101516101a08401526101c08101516101c08401526101e08101516001600160401b038111612e3c57810182601f82011215612e3c5780516134ba8161320c565b916134c860405193846130d5565b81835260208084019260061b82010190858211612e3c57602001915b818310613595575050506101e08401526102008101516102008401526102208101516001600160401b038111612e3c57826135209183016132fb565b6102208401526102408101516001600160401b038111612e3c5781019180601f84011215612e3c57825192613554846131cc565b9161356260405193846130d5565b84835260208583010111612e3c57610260936135849160208085019101612ea1565b610240840152015161026082015290565b604083870312612e3c576040519060408201908282106001600160401b038311176130bf5760409260209284526135cb866132e7565b815282860151838201528152019201916134e4565b156135e757565b60405162461bcd60e51b815260206004820152602660248201527f4e6f74206f776e6572206f72204d697373696f6e466163746f727920617574686044820152651bdc9a5e995960d21b6064820152608490fd5b919082018092116131f657565b919082039182116131f657565b1561365c57565b60405162461bcd60e51b815260206004820152600f60248201526e496e76616c6964206164647265737360881b6044820152606490fd5b80156131f6576000190190565b90816020910312612e3c57518015158103612e3c5790565b6008821015612e4e5752565b600254801561395957624f19ff1942014281116131f65762278cff1942014281116131f6576000929182805b61386a575b506136ff84613223565b61370885613223565b9561371286613289565b946000905b80151580613861575b1561385657600019019061373382612fb7565b60018060a01b0391549060031b1c1680600052600d60205260ff60406000205416604051631f385f7960e21b8152600081600481865afa90811561384a578c918a91600091613831575b50896101208201818151108061380a575b156137ff5750506101400151105b6137f0578291612303856137be9381966137b86001998d6132d3565b526132d3565b60005260106020526137d360406000206130f6565b6137dd828a6132d3565b526137e881896132d3565b500190613717565b50949998509295505050505050565b91509150511061379c565b5092505091506008831015612e4e578c91898b92600686148061378e57506007861461378e565b613844913d8091833e612a2c81836130d5565b3861377d565b6040513d6000823e3d90fd5b509196955092505050565b50878210613720565b600094939419019261387b84612fb7565b60018060a01b0391549060031b1c1680600052600d6020526004600060ff6040822054169260405192838092631f385f7960e21b82525afa90811561384a578592859160009361393e575b5061012083019082825110908161390e575b50156139035750506101400151105b6138fc576138f584916131e7565b94936136f0565b93926136f5565b9150915051106138e7565b92505092506008811015612e4e578592816006879314908115613933575b50386138d8565b60079150143861392c565b61395291933d8091833e612a2c81836130d5565b91386138c6565b5060405160209161396a83836130d5565b6000825260003681376040519261398181856130d5565b60008452506000368137613993613255565b91929190565b60085480156139fb57620151808101918282116131f657824210156139e057600954600a546001600160a01b0390811694911691906139d9904290613648565b9193929190565b600954600a546001600160a01b039182169450169190600090565b50600090600090600090600090565b6001600160a01b03166000908152600f602052604081208054829182918291825b828110613af2575050506003549160ff8316119060ff82159360081c1611918215928280613aeb575b613add5781613ad5575b50613ac95781613ac1575b50613ab75762093a8081018091116131f657613a86904290613648565b9062278d0081018091116131f657613a9f904290613648565b1115613aaf576002905b60009190565b600190613aa9565b5050600090600290565b905038613a69565b50505050600090600190565b905038613a5e565b505050505050600190600090565b5080613a54565b613afc8183612fe8565b90549060031b1c62278d0081018082116131f6574210613b20575b50600101613a2b565b93613b2a906131e7565b9387158015613b80575b613b78575b62093a8081018082116131f657421015613b175794613b57906131e7565b9486158015613b6f575b15613b175795506001613b17565b50868110613b61565b965086613b39565b50878110613b34565b15613b9057565b60405162461bcd60e51b815260206004820152603660248201527f4d697373696f6e466163746f72793a2063616c6c6572206973206e6f742061206044820152751d985b1a59081b5a5cdcda5bdb8818dbdb9d1c9858dd60521b6064820152608490fd5b80548015613c1d576000190190613c0b8282612fe8565b8154906000199060031b1b1916905555565b634e487b7160e01b600052603160045260246000fd5b6001600160a01b031691908215613d2a5782600052600f6020526040600020928354908115613d235760005b828110613c6e57505050505050565b613c788187612fe8565b90549060031b1c8481101580613d19575b613c965750600101613c5f565b95969350909193505b600181018082116131f65784811015613cde5790613cd4613cc3613cd99389612fe8565b90549060031b1c611639838a612fe8565b6131e7565b613c9f565b5050927f01529614ec434373beb3b1a50817efd69e07a771b06eb9950b86a7f01d783aab9250613d1060209295613bf4565b604051908152a2565b5085811115613c89565b5050505050565b60405162461bcd60e51b815260206004820152600c60248201526b24b73b30b634b2103ab9b2b960a11b6044820152606490fd5b90916002549283831015613f1157613d76908361363b565b92808411613f09575b50600092825b818110613e895750613d9684613223565b90613da361223286613223565b936000905b828110613db757505050929190565b613dc081612fb7565b905460039190911b1c6001600160a01b03166000818152600d602052604090205460ff16600881101580612e4e57600582148015613e7c575b818115613e6c575b50613e12575b505050600101613da8565b82613e22868997949596976132d3565b52612e4e576001928392613e36838c6132d3565b526000526010602052613e4c60406000206130f6565b613e56828a6132d3565b52613e6181896132d3565b500191903880613e07565b9050612e4e576007821481613e01565b5050600060068214613df9565b613e9281612fb7565b60018060a01b0391549060031b1c16600052600d60205260ff6040600020541660088110159081612e4e5760058114918215613efb575b8215613eea575b5050613edf575b600101613d85565b600190940193613ed7565b909150612e4e576007143880613ed0565b506006811491506000613ec9565b925038613d7f565b5060405160209350915061396a83836130d5565b6000546001600160a01b03163303613f3957565b63118cdaa760e01b6000523360045260246000fd5b600260015414613f5f576002600155565b633ee5aeb560e01b60005260046000fd5b600080546001600160a01b039283166001600160a01b03198216811783559216907f8be0079c531659141344cd1fd0a4f28419497f9722a3daafe3b4186f6b6457e09080a3565b6007811015612e4e57600181146140e1576000600282146140b457506003811461408e576000600482146140685750600581146140435760066000911461401d57506040516140076040826130d5565b6006815265437573746f6d60d01b602082015290565b5060405161402c6040826130d5565b60078152664d6f6e74686c7960c81b602082015290565b506040516140526040826130d5565b60068152655765656b6c7960d01b602082015290565b5050604080519061407990826130d5565b60058152644461696c7960d81b602082015290565b5060405161409d6040826130d5565b600781526642694461696c7960c81b602082015290565b505060408051906140c590826130d5565b600c81526b517561727465724461696c7960a01b602082015290565b506040516140f06040826130d5565b6006815265486f75726c7960d01b60208201529056fea2646970667358221220a937577a2e4bfacd33eb31fa4a63923965f8abfdf5df32bb4f60a1c84f84b67c64736f6c634300081e0033","opcodes":"PUSH1 0xA0 CALLVALUE PUSH2 0x125 JUMPI PUSH1 0x1F PUSH2 0x427D CODESIZE DUP2 SWAP1 SUB SWAP2 DUP3 ADD PUSH1 0x1F NOT AND DUP4 ADD SWAP2 PUSH1 0x1 PUSH1 0x1 PUSH1 0x40 SHL SUB DUP4 GT DUP5 DUP5 LT OR PUSH2 0x12A JUMPI DUP1 DUP5 SWAP3 PUSH1 0x20 SWAP5 PUSH1 0x40 MSTORE DUP4 CODECOPY DUP2 ADD SUB SLT PUSH2 0x125 JUMPI MLOAD PUSH1 0x1 PUSH1 0x1 PUSH1 0xA0 SHL SUB DUP2 AND DUP1 DUP3 SUB PUSH2 0x125 JUMPI CALLER ISZERO PUSH2 0x10F JUMPI PUSH1 0x0 DUP1 SLOAD CALLER PUSH1 0x1 PUSH1 0x1 PUSH1 0xA0 SHL SUB NOT DUP3 AND DUP2 OR DUP4 SSTORE PUSH1 0x40 MLOAD SWAP4 SWAP3 SWAP1 SWAP2 PUSH1 0x1 PUSH1 0x1 PUSH1 0xA0 SHL SUB AND SWAP1 PUSH32 0x8BE0079C531659141344CD1FD0A4F28419497F9722A3DAAFE3B4186F6B6457E0 SWAP1 DUP1 LOG3 PUSH1 0x1 DUP1 SSTORE PUSH2 0xF07 PUSH2 0xFFFF NOT PUSH1 0x3 SLOAD AND OR PUSH1 0x3 SSTORE ISZERO PUSH2 0xE1 JUMPI POP PUSH1 0x80 MSTORE PUSH1 0x40 MLOAD PUSH2 0x413C SWAP1 DUP2 PUSH2 0x141 DUP3 CODECOPY PUSH1 0x80 MLOAD DUP2 DUP2 DUP2 PUSH2 0x526 ADD MSTORE DUP2 DUP2 PUSH2 0xFA6 ADD MSTORE PUSH2 0x1708 ADD MSTORE RETURN JUMPDEST PUSH3 0x461BCD PUSH1 0xE5 SHL DUP2 MSTORE PUSH1 0x20 PUSH1 0x4 DUP3 ADD MSTORE PUSH1 0x9 PUSH1 0x24 DUP3 ADD MSTORE PUSH9 0x696D706C207A65726F PUSH1 0xB8 SHL PUSH1 0x44 DUP3 ADD MSTORE PUSH1 0x64 SWAP1 REVERT JUMPDEST PUSH4 0x1E4FBDF7 PUSH1 0xE0 SHL PUSH1 0x0 MSTORE PUSH1 0x0 PUSH1 0x4 MSTORE PUSH1 0x24 PUSH1 0x0 REVERT JUMPDEST PUSH1 0x0 DUP1 REVERT JUMPDEST PUSH4 0x4E487B71 PUSH1 0xE0 SHL PUSH1 0x0 MSTORE PUSH1 0x41 PUSH1 0x4 MSTORE PUSH1 0x24 PUSH1 0x0 REVERT INVALID PUSH1 0x80 DUP1 PUSH1 0x40 MSTORE PUSH1 0x4 CALLDATASIZE LT ISZERO PUSH2 0x11 JUMPI JUMPDEST STOP JUMPDEST PUSH1 0x0 SWAP1 DUP2 CALLDATALOAD PUSH1 0xE0 SHR SWAP1 DUP2 PUSH4 0x4A61752 EQ PUSH2 0x2E0A JUMPI POP DUP1 PUSH4 0x814AB82 EQ PUSH2 0x2DC6 JUMPI DUP1 PUSH4 0xA6005DA EQ PUSH2 0x2DA2 JUMPI DUP1 PUSH4 0xFC8C4ED EQ PUSH2 0x2D79 JUMPI DUP1 PUSH4 0x155DD5EE EQ PUSH2 0x2C11 JUMPI DUP1 PUSH4 0x1E59D584 EQ PUSH2 0x2A7F JUMPI DUP1 PUSH4 0x20C5718F EQ PUSH2 0x27BB JUMPI DUP1 PUSH4 0x21040FC3 EQ PUSH2 0x26AD JUMPI DUP1 PUSH4 0x2C8FE526 EQ PUSH2 0x2669 JUMPI DUP1 PUSH4 0x2D771F30 EQ PUSH2 0x2640 JUMPI DUP1 PUSH4 0x2E33B07F EQ PUSH2 0x14CB JUMPI DUP1 PUSH4 0x3589CF72 EQ PUSH2 0x2622 JUMPI DUP1 PUSH4 0x37012762 EQ PUSH2 0x2547 JUMPI DUP1 PUSH4 0x42F1181E EQ PUSH2 0x245A JUMPI DUP1 PUSH4 0x503C0B88 EQ PUSH2 0x21E9 JUMPI DUP1 PUSH4 0x5C5BB6F2 EQ PUSH2 0x21CB JUMPI DUP1 PUSH4 0x63679723 EQ PUSH2 0x21AD JUMPI DUP1 PUSH4 0x6805036D EQ PUSH2 0x204D JUMPI DUP1 PUSH4 0x6D8A1390 EQ PUSH2 0x2022 JUMPI DUP1 PUSH4 0x70712939 EQ PUSH2 0x1F3B JUMPI DUP1 PUSH4 0x715018A6 EQ PUSH2 0x1EE1 JUMPI DUP1 PUSH4 0x7200B829 EQ PUSH2 0x1D79 JUMPI DUP1 PUSH4 0x7E9EAE50 EQ PUSH2 0x1C70 JUMPI DUP1 PUSH4 0x83FBEA51 EQ PUSH2 0x1C52 JUMPI DUP1 PUSH4 0x861A68D6 EQ PUSH2 0x1C31 JUMPI DUP1 PUSH4 0x8C09B7C3 EQ PUSH2 0x1BF1 JUMPI DUP1 PUSH4 0x8DA5CB5B EQ PUSH2 0x1BCA JUMPI DUP1 PUSH4 0x9804A586 EQ PUSH2 0x1B8C JUMPI DUP1 PUSH4 0x98D05C3E EQ PUSH2 0x1B4A JUMPI DUP1 PUSH4 0xA9BEA789 EQ PUSH2 0x19D6 JUMPI DUP1 PUSH4 0xAA1F0595 EQ PUSH2 0x1997 JUMPI DUP1 PUSH4 0xB6202913 EQ PUSH2 0x17C5 JUMPI DUP1 PUSH4 0xB6DE7B43 EQ PUSH2 0x1776 JUMPI DUP1 PUSH4 0xB9181611 EQ PUSH2 0x1737 JUMPI DUP1 PUSH4 0xBD487725 EQ PUSH2 0x16F2 JUMPI DUP1 PUSH4 0xC17F9E59 EQ PUSH2 0x14F5 JUMPI DUP1 PUSH4 0xC416AD2A EQ PUSH2 0x14CB JUMPI DUP1 PUSH4 0xC892FDE3 EQ PUSH2 0x14AD JUMPI DUP1 PUSH4 0xCBF2080D EQ PUSH2 0x131A JUMPI DUP1 PUSH4 0xD3050EBA EQ PUSH2 0x12FC JUMPI DUP1 PUSH4 0xD41ECA64 EQ PUSH2 0x1252 JUMPI DUP1 PUSH4 0xD8D6E8FF EQ PUSH2 0x10B5 JUMPI DUP1 PUSH4 0xDF4DB463 EQ PUSH2 0x102E JUMPI DUP1 PUSH4 0xE5047770 EQ PUSH2 0xF01 JUMPI DUP1 PUSH4 0xEA507DAD EQ PUSH2 0x3FA JUMPI DUP1 PUSH4 0xEFF0AB92 EQ PUSH2 0x2F1 JUMPI DUP1 PUSH4 0xF08E231E EQ PUSH2 0x2BE JUMPI DUP1 PUSH4 0xF225B56D EQ PUSH2 0x288 JUMPI PUSH4 0xF2FDE38B SUB PUSH2 0xF JUMPI CALLVALUE PUSH2 0x285 JUMPI PUSH1 0x20 CALLDATASIZE PUSH1 0x3 NOT ADD SLT PUSH2 0x285 JUMPI PUSH2 0x24E PUSH2 0x2E26 JUMP JUMPDEST PUSH2 0x256 PUSH2 0x3F25 JUMP JUMPDEST PUSH1 0x1 PUSH1 0x1 PUSH1 0xA0 SHL SUB DUP2 AND ISZERO PUSH2 0x271 JUMPI PUSH2 0x26E SWAP1 PUSH2 0x3F70 JUMP JUMPDEST DUP1 RETURN JUMPDEST PUSH4 0x1E4FBDF7 PUSH1 0xE0 SHL DUP3 MSTORE PUSH1 0x4 DUP3 SWAP1 MSTORE PUSH1 0x24 DUP3 REVERT JUMPDEST DUP1 REVERT JUMPDEST POP CALLVALUE PUSH2 0x285 JUMPI PUSH1 0x40 CALLDATASIZE PUSH1 0x3 NOT ADD SLT PUSH2 0x285 JUMPI PUSH2 0x2BA PUSH2 0x2AB PUSH1 0x24 CALLDATALOAD PUSH1 0x4 CALLDATALOAD PUSH2 0x3D5E JUMP JUMPDEST PUSH1 0x40 SWAP4 SWAP2 SWAP4 MLOAD SWAP4 DUP5 SWAP4 DUP5 PUSH2 0x2F42 JUMP JUMPDEST SUB SWAP1 RETURN JUMPDEST POP CALLVALUE PUSH2 0x285 JUMPI PUSH1 0x20 CALLDATASIZE PUSH1 0x3 NOT ADD SLT PUSH2 0x285 JUMPI PUSH1 0x4 CALLDATALOAD SWAP1 PUSH1 0x7 DUP3 LT ISZERO PUSH2 0x285 JUMPI PUSH1 0x20 PUSH2 0x2E8 DUP4 PUSH2 0x31B3 JUMP JUMPDEST SLOAD PUSH1 0x40 MLOAD SWAP1 DUP2 MSTORE RETURN JUMPDEST POP CALLVALUE PUSH2 0x285 JUMPI PUSH1 0x20 CALLDATASIZE PUSH1 0x3 NOT ADD SLT PUSH2 0x285 JUMPI PUSH1 0x1 PUSH1 0x1 PUSH1 0xA0 SHL SUB PUSH2 0x313 PUSH2 0x2E26 JUMP JUMPDEST AND DUP2 MSTORE PUSH1 0xF PUSH1 0x20 MSTORE PUSH1 0x40 DUP2 KECCAK256 DUP1 SLOAD DUP3 SWAP2 DUP3 JUMPDEST DUP3 DUP2 LT PUSH2 0x375 JUMPI POP POP POP DUP2 PUSH2 0x341 JUMPI PUSH1 0x20 SWAP2 POP JUMPDEST PUSH1 0x40 MLOAD SWAP1 DUP2 MSTORE RETURN JUMPDEST PUSH3 0x93A80 DUP3 ADD DUP1 SWAP3 GT PUSH2 0x361 JUMPI POP PUSH2 0x35C PUSH1 0x20 SWAP2 TIMESTAMP SWAP1 PUSH2 0x3648 JUMP JUMPDEST PUSH2 0x339 JUMP JUMPDEST PUSH4 0x4E487B71 PUSH1 0xE0 SHL DUP2 MSTORE PUSH1 0x11 PUSH1 0x4 MSTORE PUSH1 0x24 SWAP1 REVERT JUMPDEST PUSH2 0x37F DUP2 DUP4 PUSH2 0x2FE8 JUMP JUMPDEST SWAP1 SLOAD SWAP1 PUSH1 0x3 SHL SHR PUSH3 0x93A80 DUP2 ADD DUP1 SWAP2 GT PUSH2 0x3E6 JUMPI TIMESTAMP LT PUSH2 0x3A2 JUMPI JUMPDEST PUSH1 0x1 ADD PUSH2 0x325 JUMP JUMPDEST DUP5 ISZERO DUP1 ISZERO PUSH2 0x3CD JUMPI JUMPDEST ISZERO PUSH2 0x39A JUMPI SWAP4 POP PUSH1 0x1 PUSH2 0x3BE DUP6 DUP4 PUSH2 0x2FE8 JUMP JUMPDEST SWAP1 SLOAD SWAP1 PUSH1 0x3 SHL SHR SWAP5 SWAP1 POP PUSH2 0x39A JUMP JUMPDEST POP DUP5 PUSH2 0x3D9 DUP3 DUP5 PUSH2 0x2FE8 JUMP JUMPDEST SWAP1 SLOAD SWAP1 PUSH1 0x3 SHL SHR LT PUSH2 0x3AB JUMP JUMPDEST PUSH4 0x4E487B71 PUSH1 0xE0 SHL DUP6 MSTORE PUSH1 0x11 PUSH1 0x4 MSTORE PUSH1 0x24 DUP6 REVERT JUMPDEST POP PUSH2 0x180 CALLDATASIZE PUSH1 0x3 NOT ADD SLT PUSH2 0x285 JUMPI PUSH1 0x7 PUSH1 0x4 CALLDATALOAD LT ISZERO PUSH2 0x285 JUMPI PUSH1 0x84 CALLDATALOAD PUSH1 0xFF DUP2 AND DUP2 SUB PUSH2 0x8A8 JUMPI PUSH1 0xA4 CALLDATALOAD SWAP2 PUSH1 0xFF DUP4 AND DUP4 SUB PUSH2 0x285 JUMPI PUSH1 0xC4 CALLDATALOAD SWAP2 PUSH1 0xFF DUP4 AND DUP4 SUB PUSH2 0x8A8 JUMPI PUSH1 0xE4 CALLDATALOAD PUSH1 0xFF DUP2 AND DUP2 SUB PUSH2 0xEFD JUMPI PUSH2 0x144 CALLDATALOAD SWAP1 PUSH1 0xFF DUP3 AND DUP3 SUB PUSH2 0xEF9 JUMPI PUSH2 0x164 CALLDATALOAD SWAP5 PUSH1 0x1 PUSH1 0x1 PUSH1 0x40 SHL SUB DUP7 GT PUSH2 0xEF5 JUMPI CALLDATASIZE PUSH1 0x23 DUP8 ADD SLT ISZERO PUSH2 0xEF5 JUMPI DUP6 PUSH1 0x4 ADD CALLDATALOAD SWAP6 PUSH1 0x1 PUSH1 0x1 PUSH1 0x40 SHL SUB DUP8 GT PUSH2 0xEF1 JUMPI CALLDATASIZE PUSH1 0x24 DUP9 DUP4 ADD ADD GT PUSH2 0xEF1 JUMPI DUP6 SLOAD PUSH1 0x1 PUSH1 0x1 PUSH1 0xA0 SHL SUB AND CALLER EQ DUP1 ISZERO PUSH2 0xEDB JUMPI JUMPDEST PUSH2 0x4B3 SWAP1 PUSH2 0x35E0 JUMP JUMPDEST PUSH2 0x4BB PUSH2 0x3F4E JUMP JUMPDEST PUSH1 0x5 PUSH1 0xFF DUP6 AND LT PUSH2 0xE7C JUMPI PUSH1 0xFF DUP5 AND PUSH1 0xFF DUP7 AND LT PUSH2 0xE11 JUMPI PUSH1 0xFF DUP6 AND PUSH1 0xFF DUP10 AND LT PUSH2 0xDA7 JUMPI PUSH1 0x44 CALLDATALOAD PUSH1 0x24 CALLDATALOAD LT ISZERO PUSH2 0xD56 JUMPI PUSH1 0x44 CALLDATALOAD PUSH2 0x104 CALLDATALOAD LT PUSH2 0xCF8 JUMPI PUSH2 0x104 CALLDATALOAD PUSH2 0x124 CALLDATALOAD GT ISZERO PUSH2 0xCB4 JUMPI PUSH1 0x64 CALLDATALOAD ISZERO PUSH2 0xC5B JUMPI PUSH1 0x3C PUSH1 0xFF DUP4 AND LT PUSH2 0xBFD JUMPI PUSH1 0x3C PUSH1 0xFF DUP5 AND LT PUSH2 0xB9A JUMPI PUSH32 0x0 PUSH1 0x88 DUP2 SWAP1 SHR PUSH3 0xFFFFFF AND PUSH23 0x3D602D80600A3D3981F3363D3D373D3D3D363D73000000 OR DUP8 MSTORE PUSH1 0x78 SHL PUSH15 0x5AF43D82803E903D91602B57FD5BF3 OR PUSH1 0x20 MSTORE PUSH1 0x1 PUSH1 0x1 PUSH1 0xA0 SHL SUB PUSH1 0x37 PUSH1 0x9 DUP9 CREATE AND SWAP7 DUP8 ISZERO PUSH2 0xB8B JUMPI DUP7 SWAP1 PUSH2 0x5A4 PUSH1 0x4 CALLDATALOAD PUSH2 0x31B3 JUMP JUMPDEST PUSH2 0x5AE DUP2 SLOAD PUSH2 0x31E7 JUMP JUMPDEST SWAP1 SSTORE DUP1 ISZERO PUSH2 0x9B1 JUMPI DUP1 DUP1 PUSH1 0x24 PUSH2 0x5C5 PUSH1 0x20 SWAP5 PUSH2 0x31CC JUMP JUMPDEST SWAP6 PUSH2 0x5D3 PUSH1 0x40 MLOAD SWAP8 DUP9 PUSH2 0x30D5 JUMP JUMPDEST DUP3 DUP8 MSTORE ADD DUP4 DUP7 ADD CALLDATACOPY DUP4 ADD ADD MSTORE SWAP7 JUMPDEST DUP7 DUP7 MSTORE PUSH1 0xC PUSH1 0x20 MSTORE PUSH1 0x40 DUP7 KECCAK256 PUSH1 0x1 PUSH1 0xFF NOT DUP3 SLOAD AND OR SWAP1 SSTORE DUP7 DUP7 MSTORE PUSH1 0xD PUSH1 0x20 MSTORE PUSH1 0x40 DUP7 KECCAK256 PUSH1 0xFF NOT DUP2 SLOAD AND SWAP1 SSTORE DUP7 DUP7 MSTORE PUSH1 0x10 PUSH1 0x20 MSTORE PUSH1 0x40 DUP7 KECCAK256 DUP9 MLOAD PUSH1 0x1 PUSH1 0x1 PUSH1 0x40 SHL SUB DUP2 GT PUSH2 0x99D JUMPI PUSH2 0x632 DUP3 SLOAD PUSH2 0x3069 JUMP JUMPDEST PUSH1 0x1F DUP2 GT PUSH2 0x95C JUMPI JUMPDEST POP DUP1 PUSH1 0x20 PUSH1 0x1F DUP3 GT PUSH1 0x1 EQ PUSH2 0x8F8 JUMPI DUP10 SWAP2 PUSH2 0x8ED JUMPI JUMPDEST POP DUP2 PUSH1 0x1 SHL SWAP2 PUSH1 0x0 NOT SWAP1 PUSH1 0x3 SHL SHR NOT AND OR SWAP1 SSTORE JUMPDEST DUP6 SLOAD PUSH1 0x1 PUSH1 0x1 PUSH1 0xA0 SHL SUB AND DUP8 EXTCODESIZE ISZERO PUSH2 0x8E9 JUMPI PUSH1 0x40 MLOAD SWAP1 PUSH4 0xCCF8FED PUSH1 0xE3 SHL DUP3 MSTORE PUSH1 0x4 DUP3 ADD MSTORE ADDRESS PUSH1 0x24 DUP3 ADD MSTORE PUSH2 0x69F PUSH1 0x44 DUP3 ADD PUSH1 0x4 CALLDATALOAD PUSH2 0x2FAA JUMP JUMPDEST PUSH1 0x24 CALLDATALOAD PUSH1 0x64 DUP3 ADD MSTORE PUSH1 0x44 CALLDATALOAD PUSH1 0x84 DUP3 ADD MSTORE PUSH1 0x64 CALLDATALOAD PUSH1 0xA4 DUP3 ADD MSTORE PUSH1 0xFF DUP7 AND PUSH1 0xC4 DUP3 ADD MSTORE PUSH1 0xFF DUP3 AND PUSH1 0xE4 DUP3 ADD MSTORE PUSH1 0xFF DUP4 AND PUSH2 0x104 DUP3 ADD MSTORE PUSH1 0xFF DUP5 AND PUSH2 0x124 DUP3 ADD MSTORE PUSH2 0x104 CALLDATALOAD PUSH2 0x144 DUP3 ADD MSTORE PUSH2 0x124 CALLDATALOAD PUSH2 0x164 DUP3 ADD MSTORE PUSH1 0xFF DUP6 AND PUSH2 0x184 DUP3 ADD MSTORE PUSH2 0x1C0 PUSH2 0x1A4 DUP3 ADD MSTORE DUP7 DUP2 DUP1 PUSH2 0x715 PUSH2 0x1C4 DUP3 ADD DUP14 PUSH2 0x2EC4 JUMP JUMPDEST SUB DUP2 CALLVALUE DUP13 GAS CALL DUP1 ISZERO PUSH2 0x8DE JUMPI PUSH2 0x8CA JUMPI JUMPDEST POP PUSH1 0x2 SLOAD PUSH1 0x1 PUSH1 0x40 SHL DUP2 LT ISZERO PUSH2 0x8B6 JUMPI PUSH32 0xBB01632F8BA922012A4CAC12632E6D17BBA3F2BF82E0E427B30DA8A824201D5E SWAP5 PUSH1 0xFF PUSH2 0x7A8 SWAP6 DUP2 DUP13 SWAP7 DUP2 DUP14 SWAP12 SWAP8 DUP13 PUSH2 0x777 DUP10 PUSH1 0x1 DUP6 SWAP12 ADD PUSH1 0x2 SSTORE PUSH2 0x2FB7 JUMP JUMPDEST DUP2 SWAP3 SWAP2 SLOAD SWAP1 PUSH1 0x3 SHL SWAP2 DUP3 SHL SWAP2 PUSH1 0x1 DUP1 PUSH1 0xA0 SHL SUB SWAP1 SHL NOT AND OR SWAP1 SSTORE DUP2 PUSH1 0x40 MLOAD SWAP12 DUP13 SWAP12 PUSH2 0x180 DUP14 MSTORE PUSH2 0x180 DUP14 ADD SWAP1 PUSH2 0x2EC4 JUMP JUMPDEST SWAP10 PUSH2 0x7B8 PUSH1 0x20 DUP14 ADD PUSH1 0x4 CALLDATALOAD PUSH2 0x2FAA JUMP JUMPDEST PUSH1 0x24 CALLDATALOAD PUSH1 0x40 DUP14 ADD MSTORE PUSH1 0x44 CALLDATALOAD PUSH1 0x60 DUP14 ADD MSTORE AND PUSH1 0x80 DUP12 ADD MSTORE AND PUSH1 0xA0 DUP10 ADD MSTORE AND PUSH1 0xC0 DUP8 ADD MSTORE AND PUSH1 0xE0 DUP6 ADD MSTORE PUSH1 0x64 CALLDATALOAD PUSH2 0x100 DUP6 ADD MSTORE PUSH2 0x104 CALLDATALOAD PUSH2 0x120 DUP6 ADD MSTORE PUSH2 0x124 CALLDATALOAD PUSH2 0x140 DUP6 ADD MSTORE AND PUSH2 0x160 DUP4 ADD MSTORE SUB SWAP1 LOG2 PUSH2 0x812 PUSH1 0x4 CALLDATALOAD PUSH2 0x319A JUMP JUMPDEST SLOAD PUSH1 0x2 SHR DUP1 ISZERO ISZERO DUP1 PUSH2 0x8AC JUMPI JUMPDEST PUSH2 0x846 JUMPI JUMPDEST POP POP PUSH1 0x1 DUP1 SSTORE PUSH2 0x2BA PUSH1 0x40 MLOAD SWAP3 DUP4 SWAP3 DUP4 MSTORE PUSH1 0x40 PUSH1 0x20 DUP5 ADD MSTORE PUSH1 0x40 DUP4 ADD SWAP1 PUSH2 0x2EC4 JUMP JUMPDEST PUSH2 0x851 PUSH1 0x4 CALLDATALOAD PUSH2 0x319A JUMP JUMPDEST PUSH2 0x85C DUP3 DUP3 SLOAD PUSH2 0x3648 JUMP JUMPDEST SWAP1 SSTORE DUP3 EXTCODESIZE ISZERO PUSH2 0x8A8 JUMPI DUP2 PUSH1 0x4 SWAP2 PUSH1 0x40 MLOAD SWAP3 DUP4 DUP1 SWAP3 PUSH4 0xEB2BAB77 PUSH1 0xE0 SHL DUP3 MSTORE DUP8 GAS CALL DUP1 ISZERO PUSH2 0x89D JUMPI ISZERO PUSH2 0x824 JUMPI PUSH2 0x893 DUP3 DUP1 SWAP3 PUSH2 0x30D5 JUMP JUMPDEST PUSH2 0x285 JUMPI DUP1 PUSH2 0x824 JUMP JUMPDEST PUSH1 0x40 MLOAD RETURNDATASIZE DUP5 DUP3 RETURNDATACOPY RETURNDATASIZE SWAP1 REVERT JUMPDEST POP DUP1 REVERT JUMPDEST POP DUP1 SELFBALANCE LT ISZERO PUSH2 0x81F JUMP JUMPDEST PUSH4 0x4E487B71 PUSH1 0xE0 SHL DUP8 MSTORE PUSH1 0x41 PUSH1 0x4 MSTORE PUSH1 0x24 DUP8 REVERT JUMPDEST DUP7 PUSH2 0x8D7 SWAP2 SWAP8 SWAP3 SWAP8 PUSH2 0x30D5 JUMP JUMPDEST SWAP5 CODESIZE PUSH2 0x726 JUMP JUMPDEST PUSH1 0x40 MLOAD RETURNDATASIZE DUP10 DUP3 RETURNDATACOPY RETURNDATASIZE SWAP1 REVERT JUMPDEST DUP7 DUP1 REVERT JUMPDEST SWAP1 POP DUP11 ADD MLOAD CODESIZE PUSH2 0x651 JUMP JUMPDEST SWAP2 POP DUP3 DUP10 MSTORE DUP2 DUP10 KECCAK256 DUP10 SWAP3 JUMPDEST DUP13 PUSH1 0x1F NOT DUP5 AND DUP6 LT PUSH2 0x945 JUMPI POP PUSH1 0x1 SWAP4 POP DUP3 PUSH1 0x1F NOT DUP2 AND LT PUSH2 0x92C JUMPI JUMPDEST POP POP DUP2 SHL ADD SWAP1 SSTORE PUSH2 0x665 JUMP JUMPDEST DUP13 ADD MLOAD PUSH1 0x0 NOT PUSH1 0xF8 DUP5 PUSH1 0x3 SHL AND SHR NOT AND SWAP1 SSTORE CODESIZE DUP1 PUSH2 0x920 JUMP JUMPDEST DUP2 ADD MLOAD DUP3 SSTORE PUSH1 0x20 SWAP4 DUP5 ADD SWAP4 PUSH1 0x1 SWAP1 SWAP3 ADD SWAP2 ADD PUSH2 0x903 JUMP JUMPDEST DUP3 DUP10 MSTORE PUSH1 0x20 DUP10 KECCAK256 PUSH1 0x1F DUP4 ADD PUSH1 0x5 SHR DUP2 ADD PUSH1 0x20 DUP5 LT PUSH2 0x996 JUMPI JUMPDEST PUSH1 0x1F DUP4 ADD PUSH1 0x5 SHR DUP3 ADD DUP2 LT PUSH2 0x98B JUMPI POP POP PUSH2 0x63B JUMP JUMPDEST DUP11 DUP2 SSTORE PUSH1 0x1 ADD PUSH2 0x975 JUMP JUMPDEST POP DUP1 PUSH2 0x975 JUMP JUMPDEST PUSH4 0x4E487B71 PUSH1 0xE0 SHL DUP9 MSTORE PUSH1 0x41 PUSH1 0x4 MSTORE PUSH1 0x24 DUP9 REVERT JUMPDEST POP POP POP PUSH2 0x9BF PUSH1 0x4 CALLDATALOAD PUSH2 0x3FB7 JUMP JUMPDEST PUSH2 0x9CA PUSH1 0x4 CALLDATALOAD PUSH2 0x31B3 JUMP JUMPDEST SLOAD DUP7 DUP2 PUSH19 0x184F03E93FF9F4DAA797ED6E38ED64BF6A1F01 PUSH1 0x40 SHL DUP2 LT ISZERO PUSH2 0xB68 JUMPI JUMPDEST DUP1 PUSH14 0x4EE2D6D415B85ACEF8100000000 PUSH1 0xA SWAP3 LT ISZERO PUSH2 0xB4D JUMPI JUMPDEST PUSH7 0x2386F26FC10000 DUP2 LT ISZERO PUSH2 0xB39 JUMPI JUMPDEST PUSH4 0x5F5E100 DUP2 LT ISZERO PUSH2 0xB28 JUMPI JUMPDEST PUSH2 0x2710 DUP2 LT ISZERO PUSH2 0xB19 JUMPI JUMPDEST PUSH1 0x64 DUP2 LT ISZERO PUSH2 0xB0B JUMPI JUMPDEST LT ISZERO PUSH2 0xB03 JUMPI JUMPDEST PUSH1 0x1 DUP2 ADD SWAP2 PUSH1 0xA PUSH1 0x21 PUSH2 0xA6A PUSH2 0xA54 DUP7 PUSH2 0x31CC JUMP JUMPDEST SWAP6 PUSH2 0xA62 PUSH1 0x40 MLOAD SWAP8 DUP9 PUSH2 0x30D5 JUMP JUMPDEST DUP1 DUP8 MSTORE PUSH2 0x31CC JUMP JUMPDEST PUSH1 0x20 DUP7 ADD SWAP5 SWAP1 PUSH1 0x1F NOT ADD CALLDATASIZE DUP7 CALLDATACOPY DUP6 ADD ADD JUMPDEST PUSH1 0x0 NOT ADD SWAP2 PUSH16 0x181899199A1A9B1B9C1CB0B131B232B3 PUSH1 0x81 SHL DUP3 DUP3 MOD BYTE DUP4 MSTORE8 DIV SWAP1 DUP2 ISZERO PUSH2 0xAAA JUMPI PUSH1 0xA SWAP1 PUSH2 0xA7B JUMP JUMPDEST POP POP PUSH2 0xAEC SWAP3 PUSH1 0x20 PUSH1 0x3 SWAP3 PUSH2 0xAFD SWAP5 PUSH1 0x40 MLOAD SWAP7 DUP5 PUSH2 0xAD1 DUP10 SWAP7 MLOAD DUP1 SWAP3 DUP8 DUP1 DUP11 ADD SWAP2 ADD PUSH2 0x2EA1 JUMP JUMPDEST DUP6 ADD SWAP2 PUSH3 0x10169 PUSH1 0xED SHL DUP6 DUP5 ADD MSTORE MLOAD DUP1 SWAP4 PUSH1 0x23 DUP5 ADD SWAP1 PUSH2 0x2EA1 JUMP JUMPDEST ADD ADD SUB ADD PUSH1 0x1F NOT DUP2 ADD DUP4 MSTORE DUP3 PUSH2 0x30D5 JUMP JUMPDEST SWAP7 PUSH2 0x5E1 JUMP JUMPDEST PUSH1 0x1 ADD PUSH2 0xA3F JUMP JUMPDEST PUSH1 0x64 PUSH1 0x2 SWAP2 DIV SWAP3 ADD SWAP2 PUSH2 0xA38 JUMP JUMPDEST PUSH2 0x2710 PUSH1 0x4 SWAP2 DIV SWAP3 ADD SWAP2 PUSH2 0xA2E JUMP JUMPDEST PUSH4 0x5F5E100 PUSH1 0x8 SWAP2 DIV SWAP3 ADD SWAP2 PUSH2 0xA23 JUMP JUMPDEST PUSH7 0x2386F26FC10000 PUSH1 0x10 SWAP2 DIV SWAP3 ADD SWAP2 PUSH2 0xA16 JUMP JUMPDEST PUSH14 0x4EE2D6D415B85ACEF8100000000 PUSH1 0x20 SWAP2 DIV SWAP3 ADD SWAP2 PUSH2 0xA06 JUMP JUMPDEST POP PUSH1 0x40 SWAP1 POP PUSH19 0x184F03E93FF9F4DAA797ED6E38ED64BF6A1F01 PUSH1 0x40 SHL DUP3 DIV PUSH2 0x9EC JUMP JUMPDEST PUSH4 0xB06EBF3D PUSH1 0xE0 SHL DUP8 MSTORE PUSH1 0x4 DUP8 REVERT JUMPDEST PUSH1 0x40 MLOAD PUSH3 0x461BCD PUSH1 0xE5 SHL DUP2 MSTORE PUSH1 0x20 PUSH1 0x4 DUP3 ADD MSTORE PUSH1 0x35 PUSH1 0x24 DUP3 ADD MSTORE PUSH32 0x4C61737420726F756E64207061757365206475726174696F6E206D7573742062 PUSH1 0x44 DUP3 ADD MSTORE PUSH21 0x65206174206C65617374203630207365636F6E6473 PUSH1 0x58 SHL PUSH1 0x64 DUP3 ADD MSTORE PUSH1 0x84 SWAP1 REVERT JUMPDEST PUSH1 0x40 MLOAD PUSH3 0x461BCD PUSH1 0xE5 SHL DUP2 MSTORE PUSH1 0x20 PUSH1 0x4 DUP3 ADD MSTORE PUSH1 0x30 PUSH1 0x24 DUP3 ADD MSTORE PUSH32 0x526F756E64207061757365206475726174696F6E206D75737420626520617420 PUSH1 0x44 DUP3 ADD MSTORE PUSH16 0x6C65617374203630207365636F6E6473 PUSH1 0x80 SHL PUSH1 0x64 DUP3 ADD MSTORE PUSH1 0x84 SWAP1 REVERT JUMPDEST PUSH1 0x40 MLOAD PUSH3 0x461BCD PUSH1 0xE5 SHL DUP2 MSTORE PUSH1 0x20 PUSH1 0x4 DUP3 ADD MSTORE PUSH1 0x2B PUSH1 0x24 DUP3 ADD MSTORE PUSH32 0x456E726F6C6C6D656E7420616D6F756E74206D75737420626520677265617465 PUSH1 0x44 DUP3 ADD MSTORE PUSH11 0x72207468616E207A65726F PUSH1 0xA8 SHL PUSH1 0x64 DUP3 ADD MSTORE PUSH1 0x84 SWAP1 REVERT JUMPDEST PUSH1 0x64 PUSH1 0x40 MLOAD PUSH3 0x461BCD PUSH1 0xE5 SHL DUP2 MSTORE PUSH1 0x20 PUSH1 0x4 DUP3 ADD MSTORE PUSH1 0x20 PUSH1 0x24 DUP3 ADD MSTORE PUSH32 0x4D697373696F6E207374617274206D757374206265206265666F726520656E64 PUSH1 0x44 DUP3 ADD MSTORE REVERT JUMPDEST PUSH1 0x40 MLOAD PUSH3 0x461BCD PUSH1 0xE5 SHL DUP2 MSTORE PUSH1 0x20 PUSH1 0x4 DUP3 ADD MSTORE PUSH1 0x30 PUSH1 0x24 DUP3 ADD MSTORE PUSH32 0x4D697373696F6E207374617274206D757374206265206F6E206F722061667465 PUSH1 0x44 DUP3 ADD MSTORE PUSH16 0x1C88195B9C9BDB1B1B595B9D08195B99 PUSH1 0x82 SHL PUSH1 0x64 DUP3 ADD MSTORE PUSH1 0x84 SWAP1 REVERT JUMPDEST PUSH1 0x40 MLOAD PUSH3 0x461BCD PUSH1 0xE5 SHL DUP2 MSTORE PUSH1 0x20 PUSH1 0x4 DUP3 ADD MSTORE PUSH1 0x23 PUSH1 0x24 DUP3 ADD MSTORE PUSH32 0x456E726F6C6C6D656E74207374617274206D757374206265206265666F726520 PUSH1 0x44 DUP3 ADD MSTORE PUSH3 0x195B99 PUSH1 0xEA SHL PUSH1 0x64 DUP3 ADD MSTORE PUSH1 0x84 SWAP1 REVERT JUMPDEST PUSH1 0x84 PUSH1 0x40 MLOAD PUSH3 0x461BCD PUSH1 0xE5 SHL DUP2 MSTORE PUSH1 0x20 PUSH1 0x4 DUP3 ADD MSTORE PUSH1 0x40 PUSH1 0x24 DUP3 ADD MSTORE PUSH32 0x4D6178696D756D20706C6179657273206D757374206265206772656174657220 PUSH1 0x44 DUP3 ADD MSTORE PUSH32 0x7468616E206F7220657175616C20746F206D696E696D756D20706C6179657273 PUSH1 0x64 DUP3 ADD MSTORE REVERT JUMPDEST PUSH1 0x40 MLOAD PUSH3 0x461BCD PUSH1 0xE5 SHL DUP2 MSTORE PUSH1 0x20 PUSH1 0x4 DUP3 ADD MSTORE PUSH1 0x3F PUSH1 0x24 DUP3 ADD MSTORE PUSH32 0x4D696E696D756D20706C6179657273206D757374206265206772656174657220 PUSH1 0x44 DUP3 ADD MSTORE PUSH32 0x7468616E206F7220657175616C20746F206D697373696F6E20726F756E647300 PUSH1 0x64 DUP3 ADD MSTORE PUSH1 0x84 SWAP1 REVERT JUMPDEST PUSH1 0x40 MLOAD PUSH3 0x461BCD PUSH1 0xE5 SHL DUP2 MSTORE PUSH1 0x20 PUSH1 0x4 DUP3 ADD MSTORE PUSH1 0x31 PUSH1 0x24 DUP3 ADD MSTORE PUSH32 0x4D697373696F6E20726F756E6473206D75737420626520677265617465722074 PUSH1 0x44 DUP3 ADD MSTORE PUSH17 0x68616E206F7220657175616C20746F2035 PUSH1 0x78 SHL PUSH1 0x64 DUP3 ADD MSTORE PUSH1 0x84 SWAP1 REVERT JUMPDEST POP CALLER DUP7 MSTORE PUSH1 0xB PUSH1 0x20 MSTORE PUSH1 0x40 DUP7 KECCAK256 SLOAD PUSH1 0xFF AND PUSH2 0x4AA JUMP JUMPDEST DUP6 DUP1 REVERT JUMPDEST DUP5 DUP1 REVERT JUMPDEST DUP4 DUP1 REVERT JUMPDEST DUP3 DUP1 REVERT JUMPDEST POP CALLVALUE PUSH2 0x285 JUMPI DUP1 PUSH1 0x3 NOT CALLDATASIZE ADD SLT PUSH2 0x285 JUMPI PUSH2 0x100 SWAP1 PUSH1 0x40 MLOAD PUSH2 0xF23 DUP4 DUP3 PUSH2 0x30D5 JUMP JUMPDEST PUSH1 0x7 DUP2 MSTORE PUSH1 0x20 DUP2 ADD SWAP2 PUSH1 0x1F NOT DUP5 ADD CALLDATASIZE DUP5 CALLDATACOPY DUP1 JUMPDEST PUSH1 0x7 DUP2 LT ISZERO PUSH2 0xF5D JUMPI PUSH1 0x1 SWAP1 PUSH2 0xF4B DUP2 PUSH2 0x319A JUMP JUMPDEST SLOAD PUSH2 0xF56 DUP3 DUP7 PUSH2 0x32D3 JUMP JUMPDEST MSTORE ADD PUSH2 0xF36 JUMP JUMPDEST POP SWAP2 SWAP1 SWAP2 PUSH1 0x1 DUP1 PUSH1 0xA0 SHL SUB DUP2 SLOAD AND PUSH1 0x2 SLOAD SWAP4 PUSH1 0x3 SLOAD SWAP6 PUSH1 0x4 SLOAD SWAP1 PUSH1 0x5 SLOAD SWAP1 PUSH1 0x6 SLOAD SWAP2 PUSH1 0x7 SLOAD SWAP4 PUSH1 0xFF PUSH1 0x40 MLOAD SWAP12 DUP13 SWAP12 PUSH2 0x160 DUP14 ADD SWAP10 DUP14 MSTORE DUP13 PUSH1 0x20 ADDRESS SWAP2 ADD MSTORE DUP13 PUSH1 0x40 PUSH1 0x1 DUP1 PUSH1 0xA0 SHL SUB PUSH32 0x0 AND SWAP2 ADD MSTORE PUSH1 0x60 DUP14 ADD MSTORE DUP2 DUP2 AND PUSH1 0x80 DUP14 ADD MSTORE PUSH1 0x8 SHR AND PUSH1 0xA0 DUP12 ADD MSTORE PUSH1 0xC0 DUP11 ADD MSTORE PUSH1 0xE0 DUP10 ADD MSTORE DUP8 ADD MSTORE PUSH2 0x120 DUP7 ADD MSTORE PUSH2 0x160 PUSH2 0x140 DUP7 ADD MSTORE MLOAD DUP1 SWAP2 MSTORE PUSH2 0x180 DUP5 ADD SWAP3 SWAP2 JUMPDEST DUP2 DUP2 LT PUSH2 0x1015 JUMPI POP POP POP SUB SWAP1 RETURN JUMPDEST DUP3 MLOAD DUP5 MSTORE DUP6 SWAP5 POP PUSH1 0x20 SWAP4 DUP5 ADD SWAP4 SWAP1 SWAP3 ADD SWAP2 PUSH1 0x1 ADD PUSH2 0x1007 JUMP JUMPDEST POP CALLVALUE PUSH2 0x285 JUMPI DUP1 PUSH1 0x3 NOT CALLDATASIZE ADD SLT PUSH2 0x285 JUMPI PUSH1 0xE0 SWAP1 DUP2 PUSH1 0x40 MLOAD PUSH2 0x1050 DUP3 DUP3 PUSH2 0x30D5 JUMP JUMPDEST CALLDATASIZE SWAP1 CALLDATACOPY PUSH1 0x40 MLOAD SWAP1 PUSH2 0x1061 DUP4 DUP4 PUSH2 0x30D5 JUMP JUMPDEST DUP3 CALLDATASIZE DUP4 CALLDATACOPY DUP1 JUMPDEST PUSH1 0x7 DUP2 LT ISZERO PUSH2 0x108A JUMPI PUSH1 0x1 SWAP1 PUSH2 0x107C DUP2 PUSH2 0x319A JUMP JUMPDEST SLOAD DUP2 PUSH1 0x5 SHL DUP6 ADD MSTORE ADD PUSH2 0x1067 JUMP JUMPDEST POP PUSH1 0x40 MLOAD SWAP2 SWAP1 DUP3 JUMPDEST PUSH1 0x7 DUP3 LT PUSH2 0x109F JUMPI POP POP POP RETURN JUMPDEST PUSH1 0x20 DUP1 PUSH1 0x1 SWAP3 DUP6 MLOAD DUP2 MSTORE ADD SWAP4 ADD SWAP2 ADD SWAP1 SWAP2 PUSH2 0x1092 JUMP JUMPDEST POP CALLVALUE PUSH2 0x285 JUMPI PUSH1 0x20 CALLDATASIZE PUSH1 0x3 NOT ADD SLT PUSH2 0x285 JUMPI PUSH1 0x4 CALLDATALOAD PUSH1 0x8 DUP2 LT ISZERO PUSH2 0x8A8 JUMPI CALLER DUP3 MSTORE PUSH1 0xC PUSH1 0x20 MSTORE PUSH2 0x10EB PUSH1 0xFF PUSH1 0x40 DUP5 KECCAK256 SLOAD AND PUSH2 0x3B89 JUMP JUMPDEST CALLER DUP3 MSTORE PUSH1 0xD PUSH1 0x20 MSTORE PUSH1 0xFF PUSH1 0x40 DUP4 KECCAK256 SLOAD AND SWAP1 CALLER DUP4 MSTORE PUSH1 0xD PUSH1 0x20 MSTORE PUSH1 0x40 DUP4 KECCAK256 SWAP2 PUSH1 0xFF NOT DUP4 SLOAD AND SWAP3 PUSH1 0xFF DUP4 AND DUP1 SWAP5 OR SWAP1 SSTORE DUP4 SWAP1 PUSH1 0x6 DUP4 EQ SWAP2 DUP3 PUSH1 0x0 EQ PUSH2 0x1235 JUMPI PUSH2 0x1133 PUSH1 0x6 SLOAD PUSH2 0x31E7 JUMP JUMPDEST PUSH1 0x6 SSTORE JUMPDEST PUSH1 0x8 DUP3 LT ISZERO PUSH2 0x1221 JUMPI PUSH2 0x120D JUMPI DUP4 SWAP1 PUSH1 0x40 MLOAD TIMESTAMP DUP2 MSTORE PUSH32 0xEA143FC1698242668979798AE4AB3FBBECE2356EDB72793BC92F1C4ACA96CA9 PUSH1 0x20 CALLER SWAP3 LOG4 DUP4 SWAP2 PUSH1 0x5 DUP2 EQ SWAP2 DUP3 ISZERO PUSH2 0x1202 JUMPI JUMPDEST POP DUP3 DUP3 ISZERO PUSH2 0x11DD JUMPI JUMPDEST POP POP PUSH2 0x1193 JUMPI DUP3 DUP1 RETURN JUMPDEST PUSH2 0x11C9 JUMPI PUSH1 0x40 MLOAD TIMESTAMP DUP2 MSTORE PUSH32 0x471602128A67197776B2E0CAF0FFDABF9BB93EFCCA8B7CB74862AA9F63F2347F PUSH1 0x20 CALLER SWAP3 LOG3 CODESIZE DUP1 DUP3 DUP1 RETURN JUMPDEST PUSH4 0x4E487B71 PUSH1 0xE0 SHL DUP3 MSTORE PUSH1 0x21 PUSH1 0x4 MSTORE PUSH1 0x24 DUP3 REVERT JUMPDEST SWAP1 SWAP2 POP PUSH2 0x11EE JUMPI PUSH1 0x7 EQ CODESIZE DUP3 PUSH2 0x1189 JUMP JUMPDEST PUSH4 0x4E487B71 PUSH1 0xE0 SHL DUP5 MSTORE PUSH1 0x21 PUSH1 0x4 MSTORE PUSH1 0x24 DUP5 REVERT JUMPDEST DUP6 SWAP4 POP SWAP2 POP CODESIZE PUSH2 0x1180 JUMP JUMPDEST PUSH4 0x4E487B71 PUSH1 0xE0 SHL DUP6 MSTORE PUSH1 0x21 PUSH1 0x4 MSTORE PUSH1 0x24 DUP6 REVERT JUMPDEST PUSH4 0x4E487B71 PUSH1 0xE0 SHL DUP7 MSTORE PUSH1 0x21 PUSH1 0x4 MSTORE PUSH1 0x24 DUP7 REVERT JUMPDEST POP DUP5 PUSH1 0x7 DUP5 SUB PUSH2 0x1137 JUMPI PUSH2 0x124A PUSH1 0x7 SLOAD PUSH2 0x31E7 JUMP JUMPDEST PUSH1 0x7 SSTORE PUSH2 0x1137 JUMP JUMPDEST POP CALLVALUE PUSH2 0x285 JUMPI PUSH1 0x40 CALLDATASIZE PUSH1 0x3 NOT ADD SLT PUSH2 0x285 JUMPI PUSH1 0x4 CALLDATALOAD PUSH1 0xFF DUP2 AND DUP1 SWAP2 SUB PUSH2 0x8A8 JUMPI PUSH1 0x24 CALLDATALOAD PUSH1 0xFF DUP2 AND SWAP2 DUP3 DUP3 SUB PUSH2 0xEF9 JUMPI PUSH32 0x321994B8855AE38E4FD6162F7A0BD7CDE88BE83AA3ACC96E03C17B7F733B43E1 SWAP3 PUSH1 0x40 SWAP3 PUSH1 0x1 DUP1 PUSH1 0xA0 SHL SUB DUP7 SLOAD AND CALLER EQ DUP1 ISZERO PUSH2 0x12E7 JUMPI JUMPDEST PUSH2 0x12C2 SWAP1 PUSH2 0x35E0 JUMP JUMPDEST DUP3 PUSH2 0xFF00 PUSH1 0x3 SLOAD SWAP3 PUSH1 0x8 SHL AND SWAP2 PUSH2 0xFFFF NOT AND OR OR PUSH1 0x3 SSTORE DUP3 MLOAD SWAP2 DUP3 MSTORE PUSH1 0x20 DUP3 ADD MSTORE LOG1 DUP1 RETURN JUMPDEST POP CALLER DUP7 MSTORE PUSH1 0xB PUSH1 0x20 MSTORE DUP4 DUP7 KECCAK256 SLOAD PUSH1 0xFF AND PUSH2 0x12B9 JUMP JUMPDEST POP CALLVALUE PUSH2 0x285 JUMPI DUP1 PUSH1 0x3 NOT CALLDATASIZE ADD SLT PUSH2 0x285 JUMPI PUSH1 0x20 PUSH1 0x40 MLOAD PUSH3 0x15180 DUP2 MSTORE RETURN JUMPDEST POP CALLVALUE PUSH2 0x285 JUMPI PUSH1 0x20 CALLDATASIZE PUSH1 0x3 NOT ADD SLT PUSH2 0x285 JUMPI PUSH1 0x1 PUSH1 0x1 PUSH1 0xA0 SHL SUB PUSH2 0x133C PUSH2 0x2E26 JUMP JUMPDEST AND DUP2 MSTORE PUSH1 0xF PUSH1 0x20 MSTORE PUSH1 0x40 DUP2 KECCAK256 DUP2 SWAP1 DUP3 SWAP1 DUP4 DUP1 SWAP2 DUP2 SWAP1 DUP1 SLOAD SWAP2 JUMPDEST DUP3 DUP2 LT PUSH2 0x1402 JUMPI POP POP POP PUSH1 0x3 SLOAD SWAP5 DUP1 ISZERO PUSH1 0x0 EQ PUSH2 0x13D0 JUMPI POP DUP1 SWAP2 JUMPDEST DUP1 PUSH2 0x13AA JUMPI POP PUSH1 0xC0 SWAP5 PUSH1 0xFF DUP1 SWAP3 SWAP5 JUMPDEST DUP2 PUSH1 0x40 MLOAD SWAP8 AND DUP8 MSTORE DUP2 DUP4 AND PUSH1 0x20 DUP9 ADD MSTORE AND PUSH1 0x40 DUP7 ADD MSTORE PUSH1 0x8 SHR AND PUSH1 0x60 DUP5 ADD MSTORE PUSH1 0x80 DUP4 ADD MSTORE PUSH1 0xA0 DUP3 ADD MSTORE RETURN JUMPDEST SWAP1 PUSH3 0x278D00 DUP3 ADD DUP1 SWAP3 GT PUSH2 0x361 JUMPI POP PUSH1 0xC0 SWAP5 PUSH1 0xFF PUSH2 0x13CA DUP2 SWAP4 TIMESTAMP SWAP1 PUSH2 0x3648 JUMP JUMPDEST SWAP5 PUSH2 0x137F JUMP JUMPDEST PUSH3 0x93A80 DUP2 ADD DUP1 SWAP2 GT PUSH2 0x13EE JUMPI PUSH2 0x13E8 SWAP1 TIMESTAMP SWAP1 PUSH2 0x3648 JUMP JUMPDEST SWAP2 PUSH2 0x1370 JUMP JUMPDEST PUSH4 0x4E487B71 PUSH1 0xE0 SHL DUP3 MSTORE PUSH1 0x11 PUSH1 0x4 MSTORE PUSH1 0x24 DUP3 REVERT JUMPDEST PUSH2 0x140C DUP2 DUP4 PUSH2 0x2FE8 JUMP JUMPDEST SWAP1 SLOAD SWAP1 PUSH1 0x3 SHL SHR PUSH3 0x278D00 DUP2 ADD DUP1 DUP3 GT PUSH2 0x1488 JUMPI TIMESTAMP LT PUSH2 0x1430 JUMPI JUMPDEST POP PUSH1 0x1 ADD PUSH2 0x1355 JUMP JUMPDEST SWAP6 PUSH2 0x143A SWAP1 PUSH2 0x31E7 JUMP JUMPDEST SWAP6 DUP6 ISZERO DUP1 ISZERO PUSH2 0x14A4 JUMPI JUMPDEST PUSH2 0x149C JUMPI JUMPDEST PUSH3 0x93A80 DUP2 ADD DUP1 DUP3 GT PUSH2 0x1488 JUMPI TIMESTAMP LT ISZERO PUSH2 0x1427 JUMPI SWAP7 PUSH2 0x1467 SWAP1 PUSH2 0x31E7 JUMP JUMPDEST SWAP7 DUP9 ISZERO DUP1 ISZERO PUSH2 0x147F JUMPI JUMPDEST ISZERO PUSH2 0x1427 JUMPI SWAP8 POP PUSH1 0x1 PUSH2 0x1427 JUMP JUMPDEST POP DUP9 DUP2 LT PUSH2 0x1471 JUMP JUMPDEST PUSH4 0x4E487B71 PUSH1 0xE0 SHL DUP7 MSTORE PUSH1 0x11 PUSH1 0x4 MSTORE PUSH1 0x24 DUP7 REVERT JUMPDEST SWAP5 POP DUP5 PUSH2 0x1449 JUMP JUMPDEST POP DUP6 DUP2 LT PUSH2 0x1444 JUMP JUMPDEST POP CALLVALUE PUSH2 0x285 JUMPI DUP1 PUSH1 0x3 NOT CALLDATASIZE ADD SLT PUSH2 0x285 JUMPI PUSH1 0x20 PUSH1 0x6 SLOAD PUSH1 0x40 MLOAD SWAP1 DUP2 MSTORE RETURN JUMPDEST POP CALLVALUE PUSH2 0x285 JUMPI PUSH1 0x20 CALLDATASIZE PUSH1 0x3 NOT ADD SLT PUSH2 0x285 JUMPI PUSH1 0x4 CALLDATALOAD SWAP1 PUSH1 0x7 DUP3 LT ISZERO PUSH2 0x285 JUMPI PUSH1 0x20 PUSH2 0x2E8 DUP4 PUSH2 0x319A JUMP JUMPDEST POP CALLVALUE PUSH2 0x285 JUMPI PUSH1 0x20 CALLDATASIZE PUSH1 0x3 NOT ADD SLT PUSH2 0x285 JUMPI PUSH2 0x150F PUSH2 0x2E26 JUMP JUMPDEST CALLER DUP3 MSTORE PUSH1 0xD PUSH1 0x20 MSTORE PUSH1 0xFF PUSH1 0x40 DUP4 KECCAK256 SLOAD AND PUSH1 0x8 DUP2 LT ISZERO PUSH2 0x16DE JUMPI PUSH1 0x1 SUB PUSH2 0x16A8 JUMPI PUSH3 0x278CFF NOT TIMESTAMP ADD SWAP1 TIMESTAMP DUP3 GT PUSH2 0x1694 JUMPI PUSH1 0x1 PUSH1 0x1 PUSH1 0xA0 SHL SUB AND DUP1 DUP4 MSTORE PUSH1 0xF PUSH1 0x20 MSTORE PUSH1 0x40 DUP4 KECCAK256 DUP1 SLOAD SWAP3 DUP5 JUMPDEST DUP5 DUP2 LT DUP1 PUSH2 0x167B JUMPI JUMPDEST ISZERO PUSH2 0x1574 JUMPI PUSH2 0x156F SWAP1 PUSH2 0x31E7 JUMP JUMPDEST PUSH2 0x1558 JUMP JUMPDEST DUP4 DUP4 DUP8 SWAP3 DUP1 PUSH2 0x15FA JUMPI JUMPDEST POP DUP1 SLOAD SWAP1 PUSH1 0x1 PUSH1 0x40 SHL DUP3 LT ISZERO PUSH2 0x15E6 JUMPI DUP2 PUSH2 0x15A1 SWAP2 PUSH1 0x1 PUSH2 0x15B9 SWAP5 ADD DUP2 SSTORE PUSH2 0x2FE8 JUMP JUMPDEST TIMESTAMP SWAP1 DUP3 SLOAD SWAP1 PUSH1 0x3 SHL SWAP2 DUP3 SHL SWAP2 PUSH1 0x0 NOT SWAP1 SHL NOT AND OR SWAP1 SSTORE JUMP JUMPDEST PUSH32 0x498F5E6DCF570483A1848853791046A7F10012193176D71F959F46EB7713D744 PUSH1 0x20 PUSH1 0x40 MLOAD TIMESTAMP DUP2 MSTORE LOG2 DUP1 RETURN JUMPDEST PUSH4 0x4E487B71 PUSH1 0xE0 SHL DUP5 MSTORE PUSH1 0x41 PUSH1 0x4 MSTORE PUSH1 0x24 DUP5 REVERT JUMPDEST SWAP3 DUP1 JUMPDEST PUSH2 0x1608 DUP6 DUP5 SLOAD PUSH2 0x3648 JUMP JUMPDEST DUP2 LT ISZERO PUSH2 0x1658 JUMPI DUP1 PUSH2 0x1652 PUSH2 0x1628 PUSH2 0x1622 DUP9 PUSH1 0x1 SWAP6 PUSH2 0x363B JUMP JUMPDEST DUP7 PUSH2 0x2FE8 JUMP JUMPDEST SWAP1 SLOAD SWAP1 PUSH1 0x3 SHL SHR PUSH2 0x1639 DUP4 DUP8 PUSH2 0x2FE8 JUMP JUMPDEST SWAP1 SWAP2 SWAP1 DUP3 SLOAD SWAP1 PUSH1 0x3 SHL SWAP2 DUP3 SHL SWAP2 PUSH1 0x0 NOT SWAP1 SHL NOT AND OR SWAP1 SSTORE JUMP JUMPDEST ADD PUSH2 0x15FD JUMP JUMPDEST POP SWAP3 DUP4 JUMPDEST DUP2 DUP2 LT PUSH2 0x1669 JUMPI POP PUSH2 0x157E JUMP JUMPDEST PUSH1 0x1 SWAP1 PUSH2 0x1675 DUP5 PUSH2 0x3BF4 JUMP JUMPDEST ADD PUSH2 0x165C JUMP JUMPDEST POP DUP2 PUSH2 0x1687 DUP3 DUP6 PUSH2 0x2FE8 JUMP JUMPDEST SWAP1 SLOAD SWAP1 PUSH1 0x3 SHL SHR LT PUSH2 0x1561 JUMP JUMPDEST PUSH4 0x4E487B71 PUSH1 0xE0 SHL DUP4 MSTORE PUSH1 0x11 PUSH1 0x4 MSTORE PUSH1 0x24 DUP4 REVERT JUMPDEST PUSH1 0x40 MLOAD PUSH3 0x461BCD PUSH1 0xE5 SHL DUP2 MSTORE PUSH1 0x20 PUSH1 0x4 DUP3 ADD MSTORE PUSH1 0xE PUSH1 0x24 DUP3 ADD MSTORE PUSH14 0x24B73B30B634B21031B0B63632B9 PUSH1 0x91 SHL PUSH1 0x44 DUP3 ADD MSTORE PUSH1 0x64 SWAP1 REVERT JUMPDEST PUSH4 0x4E487B71 PUSH1 0xE0 SHL DUP4 MSTORE PUSH1 0x21 PUSH1 0x4 MSTORE PUSH1 0x24 DUP4 REVERT JUMPDEST POP CALLVALUE PUSH2 0x285 JUMPI DUP1 PUSH1 0x3 NOT CALLDATASIZE ADD SLT PUSH2 0x285 JUMPI PUSH1 0x40 MLOAD PUSH32 0x0 PUSH1 0x1 PUSH1 0x1 PUSH1 0xA0 SHL SUB AND DUP2 MSTORE PUSH1 0x20 SWAP1 RETURN JUMPDEST POP CALLVALUE PUSH2 0x285 JUMPI PUSH1 0x20 CALLDATASIZE PUSH1 0x3 NOT ADD SLT PUSH2 0x285 JUMPI PUSH1 0x20 SWAP1 PUSH1 0xFF SWAP1 PUSH1 0x40 SWAP1 PUSH1 0x1 PUSH1 0x1 PUSH1 0xA0 SHL SUB PUSH2 0x1762 PUSH2 0x2E26 JUMP JUMPDEST AND DUP2 MSTORE PUSH1 0xB DUP5 MSTORE KECCAK256 SLOAD AND PUSH1 0x40 MLOAD SWAP1 ISZERO ISZERO DUP2 MSTORE RETURN JUMPDEST POP CALLVALUE PUSH2 0x285 JUMPI PUSH1 0x20 CALLDATASIZE PUSH1 0x3 NOT ADD SLT PUSH2 0x285 JUMPI PUSH2 0x2BA SWAP1 PUSH2 0x17B1 SWAP1 PUSH1 0x40 SWAP1 PUSH1 0x1 PUSH1 0x1 PUSH1 0xA0 SHL SUB PUSH2 0x17A3 PUSH2 0x2E26 JUMP JUMPDEST AND DUP2 MSTORE PUSH1 0x10 PUSH1 0x20 MSTORE KECCAK256 PUSH2 0x30F6 JUMP JUMPDEST PUSH1 0x40 MLOAD SWAP2 DUP3 SWAP2 PUSH1 0x20 DUP4 MSTORE PUSH1 0x20 DUP4 ADD SWAP1 PUSH2 0x2EC4 JUMP JUMPDEST POP CALLVALUE PUSH2 0x285 JUMPI DUP1 PUSH1 0x3 NOT CALLDATASIZE ADD SLT PUSH2 0x285 JUMPI PUSH1 0x2 SLOAD DUP2 SWAP1 DUP3 JUMPDEST DUP2 DUP2 LT PUSH2 0x192B JUMPI POP PUSH2 0x17EE DUP3 PUSH2 0x3223 JUMP JUMPDEST SWAP1 PUSH2 0x1801 PUSH2 0x17FB DUP5 PUSH2 0x3223 JUMP JUMPDEST SWAP4 PUSH2 0x3289 JUMP JUMPDEST SWAP1 DUP5 DUP1 JUMPDEST DUP3 DUP3 LT PUSH2 0x181F JUMPI POP POP POP PUSH2 0x2BA SWAP1 PUSH1 0x40 MLOAD SWAP4 DUP5 SWAP4 DUP5 PUSH2 0x2F42 JUMP JUMPDEST PUSH2 0x1828 DUP3 PUSH2 0x2FB7 JUMP JUMPDEST SWAP1 SLOAD PUSH1 0x3 SWAP2 SWAP1 SWAP2 SHL SHR PUSH1 0x1 PUSH1 0x1 PUSH1 0xA0 SHL SUB AND DUP8 MSTORE PUSH1 0xD PUSH1 0x20 MSTORE PUSH1 0x40 DUP8 KECCAK256 SLOAD PUSH1 0xFF AND PUSH1 0x8 DUP2 LT ISZERO DUP1 PUSH2 0x1917 JUMPI PUSH1 0x6 DUP3 EQ DUP1 ISZERO PUSH2 0x190B JUMPI JUMPDEST PUSH2 0x186F JUMPI JUMPDEST POP POP SWAP1 PUSH1 0x1 ADD SWAP1 PUSH2 0x1805 JUMP JUMPDEST PUSH2 0x1878 DUP5 PUSH2 0x2FB7 JUMP JUMPDEST SWAP1 SLOAD PUSH1 0x3 SWAP2 SWAP1 SWAP2 SHL SHR PUSH1 0x1 PUSH1 0x1 PUSH1 0xA0 SHL SUB AND PUSH2 0x1894 DUP5 DUP10 PUSH2 0x32D3 JUMP JUMPDEST MSTORE PUSH2 0x18F7 JUMPI DUP2 PUSH2 0x18F0 SWAP2 PUSH2 0x18AA PUSH1 0x1 SWAP5 DUP11 PUSH2 0x32D3 JUMP JUMPDEST MSTORE PUSH2 0x18B4 DUP5 PUSH2 0x2FB7 JUMP JUMPDEST DUP5 DUP1 PUSH1 0xA0 SHL SUB SWAP2 SLOAD SWAP1 PUSH1 0x3 SHL SHR AND DUP10 MSTORE PUSH1 0x10 PUSH1 0x20 MSTORE PUSH2 0x18D5 PUSH1 0x40 DUP11 KECCAK256 PUSH2 0x30F6 JUMP JUMPDEST PUSH2 0x18DF DUP3 DUP9 PUSH2 0x32D3 JUMP JUMPDEST MSTORE PUSH2 0x18EA DUP2 DUP8 PUSH2 0x32D3 JUMP JUMPDEST POP PUSH2 0x31E7 JUMP JUMPDEST SWAP1 CODESIZE PUSH2 0x1863 JUMP JUMPDEST PUSH4 0x4E487B71 PUSH1 0xE0 SHL DUP9 MSTORE PUSH1 0x21 PUSH1 0x4 MSTORE PUSH1 0x24 DUP9 REVERT JUMPDEST POP POP DUP8 PUSH1 0x7 DUP3 EQ PUSH2 0x185E JUMP JUMPDEST PUSH4 0x4E487B71 PUSH1 0xE0 SHL DUP10 MSTORE PUSH1 0x21 PUSH1 0x4 MSTORE PUSH1 0x24 DUP10 REVERT JUMPDEST PUSH2 0x1934 DUP2 PUSH2 0x2FB7 JUMP JUMPDEST SWAP1 SLOAD PUSH1 0x3 SWAP2 SWAP1 SWAP2 SHL SHR PUSH1 0x1 PUSH1 0x1 PUSH1 0xA0 SHL SUB AND DUP5 MSTORE PUSH1 0xD PUSH1 0x20 MSTORE PUSH1 0x40 DUP5 KECCAK256 SLOAD PUSH1 0xFF AND PUSH1 0x8 DUP2 LT ISZERO PUSH2 0x120D JUMPI PUSH1 0x6 DUP2 EQ SWAP1 DUP2 ISZERO PUSH2 0x198C JUMPI JUMPDEST POP PUSH2 0x1978 JUMPI JUMPDEST PUSH1 0x1 ADD PUSH2 0x17DD JUMP JUMPDEST SWAP2 PUSH2 0x1984 PUSH1 0x1 SWAP2 PUSH2 0x31E7 JUMP JUMPDEST SWAP3 SWAP1 POP PUSH2 0x1970 JUMP JUMPDEST PUSH1 0x7 SWAP2 POP EQ CODESIZE PUSH2 0x196A JUMP JUMPDEST POP CALLVALUE PUSH2 0x285 JUMPI PUSH1 0x20 CALLDATASIZE PUSH1 0x3 NOT ADD SLT PUSH2 0x285 JUMPI PUSH1 0x20 SWAP1 PUSH1 0xFF SWAP1 PUSH1 0x40 SWAP1 PUSH1 0x1 PUSH1 0x1 PUSH1 0xA0 SHL SUB PUSH2 0x19C2 PUSH2 0x2E26 JUMP JUMPDEST AND DUP2 MSTORE PUSH1 0xC DUP5 MSTORE KECCAK256 SLOAD AND PUSH1 0x40 MLOAD SWAP1 ISZERO ISZERO DUP2 MSTORE RETURN JUMPDEST POP PUSH1 0x20 CALLDATASIZE PUSH1 0x3 NOT ADD SLT PUSH2 0x285 JUMPI PUSH1 0x4 CALLDATALOAD PUSH1 0x7 DUP2 LT ISZERO PUSH2 0x8A8 JUMPI CALLER DUP3 MSTORE PUSH1 0xC PUSH1 0x20 MSTORE PUSH2 0x1A07 PUSH1 0xFF PUSH1 0x40 DUP5 KECCAK256 SLOAD AND PUSH2 0x3B89 JUMP JUMPDEST PUSH2 0x1A0F PUSH2 0x3F4E JUMP JUMPDEST CALLVALUE ISZERO PUSH2 0x1B06 JUMPI CALLER DUP3 MSTORE PUSH1 0xD PUSH1 0x20 MSTORE PUSH1 0xFF PUSH1 0x40 DUP4 KECCAK256 SLOAD AND PUSH1 0x8 DUP2 LT ISZERO PUSH2 0x16DE JUMPI PUSH1 0x6 EQ DUP1 ISZERO PUSH2 0x1AE4 JUMPI JUMPDEST ISZERO PUSH2 0x1AA8 JUMPI PUSH2 0x1A46 DUP2 PUSH2 0x319A JUMP JUMPDEST PUSH2 0x1A51 CALLVALUE DUP3 SLOAD PUSH2 0x363B JUMP JUMPDEST SWAP1 SSTORE PUSH2 0x1A5F CALLVALUE PUSH1 0x4 SLOAD PUSH2 0x363B JUMP JUMPDEST PUSH1 0x4 SSTORE PUSH2 0x1A71 PUSH1 0x3 CALLVALUE DIV PUSH1 0x5 SLOAD PUSH2 0x363B JUMP JUMPDEST PUSH1 0x5 SSTORE PUSH1 0x40 MLOAD SWAP1 CALLVALUE DUP3 MSTORE PUSH32 0x606617FD09D9890413E3C46147B844D4562351F86E0F7A5C60849BBF0EF02811 PUSH1 0x20 CALLER SWAP4 LOG3 PUSH1 0x1 DUP1 SSTORE DUP1 RETURN JUMPDEST PUSH1 0x40 MLOAD PUSH3 0x461BCD PUSH1 0xE5 SHL DUP2 MSTORE PUSH1 0x20 PUSH1 0x4 DUP3 ADD MSTORE PUSH1 0x14 PUSH1 0x24 DUP3 ADD MSTORE PUSH20 0x21B0B63632B9103737BA10309036B4B9B9B4B7B7 PUSH1 0x61 SHL PUSH1 0x44 DUP3 ADD MSTORE PUSH1 0x64 SWAP1 REVERT JUMPDEST POP CALLER DUP3 MSTORE PUSH1 0xD PUSH1 0x20 MSTORE PUSH1 0xFF PUSH1 0x40 DUP4 KECCAK256 SLOAD AND PUSH1 0x8 DUP2 LT ISZERO PUSH2 0x16DE JUMPI PUSH1 0x7 EQ PUSH2 0x1A38 JUMP JUMPDEST PUSH1 0x64 PUSH1 0x40 MLOAD PUSH3 0x461BCD PUSH1 0xE5 SHL DUP2 MSTORE PUSH1 0x20 PUSH1 0x4 DUP3 ADD MSTORE PUSH1 0x20 PUSH1 0x24 DUP3 ADD MSTORE PUSH32 0x416D6F756E74206D7573742062652067726561746572207468616E207A65726F PUSH1 0x44 DUP3 ADD MSTORE REVERT JUMPDEST POP CALLVALUE PUSH2 0x285 JUMPI PUSH1 0x60 CALLDATASIZE PUSH1 0x3 NOT ADD SLT PUSH2 0x285 JUMPI PUSH2 0x26E PUSH2 0x1B67 PUSH2 0x2E26 JUMP JUMPDEST CALLER DUP4 MSTORE PUSH1 0xC PUSH1 0x20 MSTORE PUSH2 0x1B7F PUSH1 0xFF PUSH1 0x40 DUP6 KECCAK256 SLOAD AND PUSH2 0x3B89 JUMP JUMPDEST PUSH1 0x44 CALLDATALOAD SWAP1 PUSH1 0x24 CALLDATALOAD SWAP1 PUSH2 0x3C33 JUMP JUMPDEST POP CALLVALUE PUSH2 0x285 JUMPI PUSH1 0x20 CALLDATASIZE PUSH1 0x3 NOT ADD SLT PUSH2 0x285 JUMPI PUSH2 0x1BAE PUSH2 0x1BA9 PUSH2 0x2E26 JUMP JUMPDEST PUSH2 0x3A0A JUMP JUMPDEST PUSH1 0x40 MLOAD SWAP2 ISZERO ISZERO DUP3 MSTORE PUSH1 0x3 DUP2 LT ISZERO PUSH2 0x16DE JUMPI PUSH1 0x40 SWAP3 POP PUSH1 0x20 DUP3 ADD MSTORE RETURN JUMPDEST POP CALLVALUE PUSH2 0x285 JUMPI DUP1 PUSH1 0x3 NOT CALLDATASIZE ADD SLT PUSH2 0x285 JUMPI SLOAD PUSH1 0x40 MLOAD PUSH1 0x1 PUSH1 0x1 PUSH1 0xA0 SHL SUB SWAP1 SWAP2 AND DUP2 MSTORE PUSH1 0x20 SWAP1 RETURN JUMPDEST POP CALLVALUE PUSH2 0x285 JUMPI DUP1 PUSH1 0x3 NOT CALLDATASIZE ADD SLT PUSH2 0x285 JUMPI PUSH1 0x80 PUSH2 0x1C0C PUSH2 0x3999 JUMP JUMPDEST PUSH1 0x40 DUP1 MLOAD PUSH1 0x1 PUSH1 0x1 PUSH1 0xA0 SHL SUB SWAP6 DUP7 AND DUP2 MSTORE SWAP5 SWAP1 SWAP4 AND PUSH1 0x20 DUP6 ADD MSTORE SWAP2 DUP4 ADD MSTORE PUSH1 0x60 DUP3 ADD MSTORE RETURN JUMPDEST POP CALLVALUE PUSH2 0x285 JUMPI DUP1 PUSH1 0x3 NOT CALLDATASIZE ADD SLT PUSH2 0x285 JUMPI PUSH1 0x20 PUSH1 0xFF PUSH1 0x3 SLOAD AND PUSH1 0x40 MLOAD SWAP1 DUP2 MSTORE RETURN JUMPDEST POP CALLVALUE PUSH2 0x285 JUMPI DUP1 PUSH1 0x3 NOT CALLDATASIZE ADD SLT PUSH2 0x285 JUMPI PUSH1 0x20 PUSH1 0x7 SLOAD PUSH1 0x40 MLOAD SWAP1 DUP2 MSTORE RETURN JUMPDEST POP CALLVALUE PUSH2 0x285 JUMPI PUSH1 0x20 CALLDATASIZE PUSH1 0x3 NOT ADD SLT PUSH2 0x285 JUMPI PUSH1 0x4 CALLDATALOAD SWAP1 PUSH1 0x2 SLOAD DUP1 DUP4 GT PUSH2 0x1D71 JUMPI JUMPDEST PUSH2 0x1C9A DUP4 PUSH2 0x3223 JUMP JUMPDEST SWAP2 PUSH2 0x1CA4 DUP5 PUSH2 0x3223 JUMP JUMPDEST SWAP4 PUSH2 0x1CAE DUP2 PUSH2 0x3289 JUMP JUMPDEST SWAP3 PUSH1 0x0 NOT DUP2 ADD SWAP1 DUP2 GT DUP4 JUMPDEST DUP4 DUP2 LT PUSH2 0x1CD0 JUMPI PUSH1 0x40 MLOAD DUP1 PUSH2 0x2BA DUP9 DUP12 DUP12 DUP5 PUSH2 0x2F42 JUMP JUMPDEST DUP2 PUSH2 0x3E6 JUMPI PUSH2 0x1CE7 PUSH2 0x1CE2 DUP3 DUP6 PUSH2 0x3648 JUMP JUMPDEST PUSH2 0x2FB7 JUMP JUMPDEST SWAP1 SLOAD PUSH1 0x3 SWAP2 SWAP1 SWAP2 SHL SHR PUSH1 0x1 PUSH1 0x1 PUSH1 0xA0 SHL SUB AND DUP1 PUSH2 0x1D04 DUP4 DUP11 PUSH2 0x32D3 JUMP JUMPDEST MSTORE DUP1 DUP7 MSTORE PUSH1 0xD PUSH1 0x20 MSTORE PUSH1 0xFF PUSH1 0x40 DUP8 KECCAK256 SLOAD AND PUSH1 0x8 DUP2 LT ISZERO PUSH2 0x1D5D JUMPI SWAP1 DUP3 SWAP2 PUSH2 0x1D2D PUSH1 0x1 SWAP5 DUP13 PUSH2 0x32D3 JUMP JUMPDEST MSTORE DUP7 MSTORE PUSH1 0x10 PUSH1 0x20 MSTORE PUSH2 0x1D41 PUSH1 0x40 DUP8 KECCAK256 PUSH2 0x30F6 JUMP JUMPDEST PUSH2 0x1D4B DUP3 DUP10 PUSH2 0x32D3 JUMP JUMPDEST MSTORE PUSH2 0x1D56 DUP2 DUP9 PUSH2 0x32D3 JUMP JUMPDEST POP ADD PUSH2 0x1CB9 JUMP JUMPDEST PUSH4 0x4E487B71 PUSH1 0xE0 SHL DUP8 MSTORE PUSH1 0x21 PUSH1 0x4 MSTORE PUSH1 0x24 DUP8 REVERT JUMPDEST SWAP2 POP DUP2 PUSH2 0x1C91 JUMP JUMPDEST POP CALLVALUE PUSH2 0x285 JUMPI DUP1 PUSH1 0x3 NOT CALLDATASIZE ADD SLT PUSH2 0x285 JUMPI DUP1 SLOAD PUSH1 0x1 PUSH1 0x1 PUSH1 0xA0 SHL SUB AND CALLER EQ DUP1 ISZERO PUSH2 0x1ECB JUMPI JUMPDEST PUSH2 0x1DA7 SWAP1 PUSH2 0x35E0 JUMP JUMPDEST PUSH1 0xA SLOAD PUSH1 0x1 PUSH1 0x1 PUSH1 0xA0 SHL SUB AND CALLER EQ PUSH2 0x1E87 JUMPI PUSH1 0x8 SLOAD PUSH3 0x15180 DUP2 ADD DUP1 SWAP2 GT PUSH2 0x13EE JUMPI TIMESTAMP GT PUSH2 0x1E4F JUMPI PUSH1 0x9 SLOAD PUSH2 0x1DE4 SWAP1 PUSH1 0x1 PUSH1 0x1 PUSH1 0xA0 SHL SUB AND PUSH2 0x3F70 JUMP JUMPDEST PUSH1 0x9 SLOAD PUSH1 0x40 DUP1 MLOAD PUSH1 0x1 PUSH1 0x1 PUSH1 0xA0 SHL SUB SWAP1 SWAP3 AND DUP3 MSTORE TIMESTAMP PUSH1 0x20 DUP4 ADD MSTORE CALLER SWAP2 PUSH32 0xDD72DD33198968A9CDC9B1E5CBFF344FB8D04D99F8C15C0A02416B04E857B467 SWAP2 SWAP1 LOG2 PUSH1 0x1 PUSH1 0x1 PUSH1 0x60 SHL SUB PUSH1 0xA0 SHL PUSH1 0x9 SLOAD AND PUSH1 0x9 SSTORE PUSH1 0x1 PUSH1 0x1 PUSH1 0x60 SHL SUB PUSH1 0xA0 SHL PUSH1 0xA SLOAD AND PUSH1 0xA SSTORE DUP1 PUSH1 0x8 SSTORE DUP1 RETURN JUMPDEST PUSH1 0x40 MLOAD PUSH3 0x461BCD PUSH1 0xE5 SHL DUP2 MSTORE PUSH1 0x20 PUSH1 0x4 DUP3 ADD MSTORE PUSH1 0x10 PUSH1 0x24 DUP3 ADD MSTORE PUSH16 0x141C9BDC1BDCD85B08195E1C1A5C9959 PUSH1 0x82 SHL PUSH1 0x44 DUP3 ADD MSTORE PUSH1 0x64 SWAP1 REVERT JUMPDEST PUSH1 0x64 PUSH1 0x40 MLOAD PUSH3 0x461BCD PUSH1 0xE5 SHL DUP2 MSTORE PUSH1 0x20 PUSH1 0x4 DUP3 ADD MSTORE PUSH1 0x20 PUSH1 0x24 DUP3 ADD MSTORE PUSH32 0x43616E6E6F7420636F6E6669726D20796F7572206F776E2070726F706F73616C PUSH1 0x44 DUP3 ADD MSTORE REVERT JUMPDEST POP CALLER DUP2 MSTORE PUSH1 0xB PUSH1 0x20 MSTORE PUSH1 0x40 DUP2 KECCAK256 SLOAD PUSH1 0xFF AND PUSH2 0x1D9E JUMP JUMPDEST POP CALLVALUE PUSH2 0x285 JUMPI DUP1 PUSH1 0x3 NOT CALLDATASIZE ADD SLT PUSH2 0x285 JUMPI PUSH2 0x1EFA PUSH2 0x3F25 JUMP JUMPDEST DUP1 SLOAD PUSH1 0x1 PUSH1 0x1 PUSH1 0xA0 SHL SUB NOT DUP2 AND DUP3 SSTORE DUP2 SWAP1 PUSH1 0x1 PUSH1 0x1 PUSH1 0xA0 SHL SUB AND PUSH32 0x8BE0079C531659141344CD1FD0A4F28419497F9722A3DAAFE3B4186F6B6457E0 DUP3 DUP1 LOG3 DUP1 RETURN JUMPDEST POP CALLVALUE PUSH2 0x285 JUMPI PUSH1 0x20 CALLDATASIZE PUSH1 0x3 NOT ADD SLT PUSH2 0x285 JUMPI PUSH2 0x1F55 PUSH2 0x2E26 JUMP JUMPDEST DUP2 SLOAD PUSH1 0x1 PUSH1 0x1 PUSH1 0xA0 SHL SUB AND CALLER EQ DUP1 ISZERO PUSH2 0x200C JUMPI JUMPDEST PUSH2 0x1F72 SWAP1 PUSH2 0x35E0 JUMP JUMPDEST PUSH1 0x1 PUSH1 0x1 PUSH1 0xA0 SHL SUB AND PUSH2 0x1F86 DUP2 ISZERO ISZERO PUSH2 0x3655 JUMP JUMPDEST DUP1 DUP3 MSTORE PUSH1 0xB PUSH1 0x20 MSTORE PUSH1 0xFF PUSH1 0x40 DUP4 KECCAK256 SLOAD AND ISZERO PUSH2 0x1FD6 JUMPI DUP1 DUP3 MSTORE PUSH1 0xB PUSH1 0x20 MSTORE PUSH1 0x40 DUP3 KECCAK256 DUP1 SLOAD PUSH1 0xFF NOT AND SWAP1 SSTORE PUSH32 0x66D5F06F711AF3C9FEBA3203FDB00B51345D514C68585D9D319C5FF5E6F77592 DUP3 DUP1 LOG2 DUP1 RETURN JUMPDEST PUSH1 0x40 MLOAD PUSH3 0x461BCD PUSH1 0xE5 SHL DUP2 MSTORE PUSH1 0x20 PUSH1 0x4 DUP3 ADD MSTORE PUSH1 0xE PUSH1 0x24 DUP3 ADD MSTORE PUSH14 0x139BDD08185D5D1A1BDC9A5E9959 PUSH1 0x92 SHL PUSH1 0x44 DUP3 ADD MSTORE PUSH1 0x64 SWAP1 REVERT JUMPDEST POP CALLER DUP3 MSTORE PUSH1 0xB PUSH1 0x20 MSTORE PUSH1 0x40 DUP3 KECCAK256 SLOAD PUSH1 0xFF AND PUSH2 0x1F69 JUMP JUMPDEST POP CALLVALUE PUSH2 0x285 JUMPI DUP1 PUSH1 0x3 NOT CALLDATASIZE ADD SLT PUSH2 0x285 JUMPI PUSH2 0x2BA PUSH2 0x203E PUSH2 0x36C4 JUMP JUMPDEST PUSH1 0x40 SWAP4 SWAP2 SWAP4 MLOAD SWAP4 DUP5 SWAP4 DUP5 PUSH2 0x3000 JUMP JUMPDEST POP CALLVALUE PUSH2 0x285 JUMPI DUP1 PUSH1 0x3 NOT CALLDATASIZE ADD SLT PUSH2 0x285 JUMPI PUSH1 0x2 SLOAD DUP2 SWAP1 DUP3 JUMPDEST DUP2 DUP2 LT PUSH2 0x2140 JUMPI POP PUSH2 0x2076 DUP3 PUSH2 0x3223 JUMP JUMPDEST SWAP1 PUSH2 0x2083 PUSH2 0x17FB DUP5 PUSH2 0x3223 JUMP JUMPDEST SWAP1 DUP5 DUP1 JUMPDEST DUP3 DUP3 LT PUSH2 0x20A1 JUMPI POP POP POP PUSH2 0x2BA SWAP1 PUSH1 0x40 MLOAD SWAP4 DUP5 SWAP4 DUP5 PUSH2 0x2F42 JUMP JUMPDEST PUSH2 0x20AA DUP3 PUSH2 0x2FB7 JUMP JUMPDEST SWAP1 SLOAD PUSH1 0x3 SWAP2 SWAP1 SWAP2 SHL SHR PUSH1 0x1 PUSH1 0x1 PUSH1 0xA0 SHL SUB AND DUP8 MSTORE PUSH1 0xD PUSH1 0x20 MSTORE PUSH1 0x40 DUP8 KECCAK256 SLOAD PUSH1 0xFF AND PUSH1 0x8 DUP2 LT ISZERO DUP1 PUSH2 0x1917 JUMPI PUSH1 0x6 DUP3 EQ ISZERO DUP1 PUSH2 0x2133 JUMPI JUMPDEST PUSH2 0x20F1 JUMPI JUMPDEST POP POP SWAP1 PUSH1 0x1 ADD SWAP1 PUSH2 0x2087 JUMP JUMPDEST PUSH2 0x20FA DUP5 PUSH2 0x2FB7 JUMP JUMPDEST SWAP1 SLOAD PUSH1 0x3 SWAP2 SWAP1 SWAP2 SHL SHR PUSH1 0x1 PUSH1 0x1 PUSH1 0xA0 SHL SUB AND PUSH2 0x2116 DUP5 DUP10 PUSH2 0x32D3 JUMP JUMPDEST MSTORE PUSH2 0x18F7 JUMPI DUP2 PUSH2 0x212C SWAP2 PUSH2 0x18AA PUSH1 0x1 SWAP5 DUP11 PUSH2 0x32D3 JUMP JUMPDEST SWAP1 CODESIZE PUSH2 0x20E5 JUMP JUMPDEST POP POP DUP8 PUSH1 0x7 DUP3 EQ ISZERO PUSH2 0x20E0 JUMP JUMPDEST PUSH2 0x2149 DUP2 PUSH2 0x2FB7 JUMP JUMPDEST SWAP1 SLOAD PUSH1 0x3 SWAP2 SWAP1 SWAP2 SHL SHR PUSH1 0x1 PUSH1 0x1 PUSH1 0xA0 SHL SUB AND DUP5 MSTORE PUSH1 0xD PUSH1 0x20 MSTORE PUSH1 0x40 DUP5 KECCAK256 SLOAD PUSH1 0xFF AND PUSH1 0x8 DUP2 LT ISZERO PUSH2 0x120D JUMPI PUSH1 0x6 DUP2 EQ ISZERO SWAP1 DUP2 PUSH2 0x21A1 JUMPI JUMPDEST POP PUSH2 0x218D JUMPI JUMPDEST PUSH1 0x1 ADD PUSH2 0x2065 JUMP JUMPDEST SWAP2 PUSH2 0x2199 PUSH1 0x1 SWAP2 PUSH2 0x31E7 JUMP JUMPDEST SWAP3 SWAP1 POP PUSH2 0x2185 JUMP JUMPDEST PUSH1 0x7 SWAP2 POP EQ ISZERO CODESIZE PUSH2 0x217F JUMP JUMPDEST POP CALLVALUE PUSH2 0x285 JUMPI DUP1 PUSH1 0x3 NOT CALLDATASIZE ADD SLT PUSH2 0x285 JUMPI PUSH1 0x20 PUSH1 0x4 SLOAD PUSH1 0x40 MLOAD SWAP1 DUP2 MSTORE RETURN JUMPDEST POP CALLVALUE PUSH2 0x285 JUMPI DUP1 PUSH1 0x3 NOT CALLDATASIZE ADD SLT PUSH2 0x285 JUMPI PUSH1 0x20 PUSH1 0x2 SLOAD PUSH1 0x40 MLOAD SWAP1 DUP2 MSTORE RETURN JUMPDEST POP CALLVALUE PUSH2 0x285 JUMPI PUSH1 0x20 CALLDATASIZE PUSH1 0x3 NOT ADD SLT PUSH2 0x285 JUMPI PUSH2 0x2203 PUSH2 0x2E26 JUMP JUMPDEST PUSH1 0x2 SLOAD PUSH1 0x1 PUSH1 0x1 PUSH1 0xA0 SHL SUB SWAP1 SWAP2 AND SWAP1 DUP3 SWAP1 DUP1 DUP1 JUMPDEST PUSH2 0x23AC JUMPI POP PUSH2 0x2225 DUP5 PUSH2 0x3223 JUMP JUMPDEST SWAP3 PUSH2 0x2238 PUSH2 0x2232 DUP7 PUSH2 0x3223 JUMP JUMPDEST SWAP6 PUSH2 0x3289 JUMP JUMPDEST SWAP3 DUP1 SWAP3 DUP1 JUMPDEST PUSH2 0x2251 JUMPI PUSH1 0x40 MLOAD DUP1 PUSH2 0x2BA DUP8 DUP11 DUP11 DUP5 PUSH2 0x3000 JUMP JUMPDEST PUSH1 0x0 NOT DUP2 ADD DUP2 DUP2 GT PUSH2 0x1694 JUMPI PUSH2 0x2266 SWAP1 PUSH2 0x2FB7 JUMP JUMPDEST SWAP1 SLOAD PUSH1 0x40 MLOAD PUSH3 0x9C95E1 PUSH1 0xE4 SHL DUP2 MSTORE PUSH1 0x4 DUP2 ADD DUP7 SWAP1 MSTORE PUSH1 0x3 SWAP3 SWAP1 SWAP3 SHL SHR PUSH1 0x1 PUSH1 0x1 PUSH1 0xA0 SHL SUB AND SWAP1 PUSH1 0x20 DUP2 PUSH1 0x24 DUP2 DUP6 GAS STATICCALL SWAP1 DUP2 ISZERO PUSH2 0x2373 JUMPI DUP5 SWAP2 PUSH2 0x237E JUMPI JUMPDEST POP PUSH2 0x22B9 JUMPI JUMPDEST POP PUSH2 0x22B3 SWAP1 PUSH2 0x3693 JUMP JUMPDEST DUP1 PUSH2 0x223D JUMP JUMPDEST DUP1 PUSH2 0x22C7 DUP7 DUP10 SWAP8 SWAP5 SWAP8 PUSH2 0x32D3 JUMP JUMPDEST MSTORE PUSH1 0x40 MLOAD PUSH4 0x68C6BA21 PUSH1 0xE0 SHL DUP2 MSTORE PUSH1 0x20 DUP2 PUSH1 0x4 DUP2 DUP6 GAS STATICCALL SWAP1 DUP2 ISZERO PUSH2 0x2373 JUMPI DUP5 SWAP2 PUSH2 0x2337 JUMPI JUMPDEST POP SWAP2 PUSH2 0x2330 SWAP2 PUSH2 0x2308 PUSH2 0x22B3 SWAP5 PUSH2 0x2303 DUP5 DUP14 PUSH2 0x32D3 JUMP JUMPDEST PUSH2 0x36B8 JUMP JUMPDEST DUP5 MSTORE PUSH1 0x10 PUSH1 0x20 MSTORE PUSH2 0x231B PUSH1 0x40 DUP6 KECCAK256 PUSH2 0x30F6 JUMP JUMPDEST PUSH2 0x2325 DUP3 DUP10 PUSH2 0x32D3 JUMP JUMPDEST MSTORE PUSH2 0x18EA DUP2 DUP9 PUSH2 0x32D3 JUMP JUMPDEST SWAP4 SWAP1 PUSH2 0x22A9 JUMP JUMPDEST SWAP1 POP PUSH1 0x20 DUP2 RETURNDATASIZE DUP3 GT PUSH2 0x236B JUMPI JUMPDEST DUP2 PUSH2 0x2351 PUSH1 0x20 SWAP4 DUP4 PUSH2 0x30D5 JUMP JUMPDEST DUP2 ADD SUB SLT PUSH2 0xEF9 JUMPI MLOAD PUSH1 0x8 DUP2 LT ISZERO PUSH2 0xEF9 JUMPI PUSH2 0x2330 PUSH2 0x22EC JUMP JUMPDEST RETURNDATASIZE SWAP2 POP PUSH2 0x2344 JUMP JUMPDEST PUSH1 0x40 MLOAD RETURNDATASIZE DUP7 DUP3 RETURNDATACOPY RETURNDATASIZE SWAP1 REVERT JUMPDEST PUSH2 0x239F SWAP2 POP PUSH1 0x20 RETURNDATASIZE DUP2 GT PUSH2 0x23A5 JUMPI JUMPDEST PUSH2 0x2397 DUP2 DUP4 PUSH2 0x30D5 JUMP JUMPDEST DUP2 ADD SWAP1 PUSH2 0x36A0 JUMP JUMPDEST CODESIZE PUSH2 0x22A3 JUMP JUMPDEST POP RETURNDATASIZE PUSH2 0x238D JUMP JUMPDEST PUSH1 0x0 NOT DUP2 ADD DUP2 DUP2 GT PUSH2 0x2446 JUMPI PUSH1 0x20 PUSH2 0x23C5 PUSH1 0x24 SWAP3 PUSH2 0x2FB7 JUMP JUMPDEST SWAP1 SLOAD PUSH1 0x40 MLOAD PUSH3 0x9C95E1 PUSH1 0xE4 SHL DUP2 MSTORE PUSH1 0x4 DUP2 ADD DUP10 SWAP1 MSTORE SWAP4 DUP5 SWAP3 SWAP1 SWAP2 DUP4 SWAP2 PUSH1 0x3 SHL SHR PUSH1 0x1 PUSH1 0x1 PUSH1 0xA0 SHL SUB AND GAS STATICCALL SWAP1 DUP2 ISZERO PUSH2 0x2373 JUMPI DUP5 SWAP2 PUSH2 0x2428 JUMPI JUMPDEST POP PUSH2 0x2413 JUMPI JUMPDEST PUSH2 0x240D SWAP1 PUSH2 0x3693 JUMP JUMPDEST DUP1 PUSH2 0x2217 JUMP JUMPDEST SWAP4 PUSH2 0x2420 PUSH2 0x240D SWAP2 PUSH2 0x31E7 JUMP JUMPDEST SWAP5 SWAP1 POP PUSH2 0x2404 JUMP JUMPDEST PUSH2 0x2440 SWAP2 POP PUSH1 0x20 RETURNDATASIZE DUP2 GT PUSH2 0x23A5 JUMPI PUSH2 0x2397 DUP2 DUP4 PUSH2 0x30D5 JUMP JUMPDEST CODESIZE PUSH2 0x23FE JUMP JUMPDEST PUSH4 0x4E487B71 PUSH1 0xE0 SHL DUP5 MSTORE PUSH1 0x11 PUSH1 0x4 MSTORE PUSH1 0x24 DUP5 REVERT JUMPDEST POP CALLVALUE PUSH2 0x285 JUMPI PUSH1 0x20 CALLDATASIZE PUSH1 0x3 NOT ADD SLT PUSH2 0x285 JUMPI PUSH2 0x2474 PUSH2 0x2E26 JUMP JUMPDEST DUP2 SLOAD PUSH1 0x1 PUSH1 0x1 PUSH1 0xA0 SHL SUB AND CALLER EQ DUP1 ISZERO PUSH2 0x2531 JUMPI JUMPDEST PUSH2 0x2491 SWAP1 PUSH2 0x35E0 JUMP JUMPDEST PUSH1 0x1 PUSH1 0x1 PUSH1 0xA0 SHL SUB AND PUSH2 0x24A5 DUP2 ISZERO ISZERO PUSH2 0x3655 JUMP JUMPDEST DUP1 DUP3 MSTORE PUSH1 0xB PUSH1 0x20 MSTORE PUSH1 0xFF PUSH1 0x40 DUP4 KECCAK256 SLOAD AND PUSH2 0x24F7 JUMPI DUP1 DUP3 MSTORE PUSH1 0xB PUSH1 0x20 MSTORE PUSH1 0x40 DUP3 KECCAK256 DUP1 SLOAD PUSH1 0xFF NOT AND PUSH1 0x1 OR SWAP1 SSTORE PUSH32 0x10AC961F00D5E732BA4DCC2C6FB09BEBEA0EB9EDD2A75C8109775EF288382E67 DUP3 DUP1 LOG2 DUP1 RETURN JUMPDEST PUSH1 0x40 MLOAD PUSH3 0x461BCD PUSH1 0xE5 SHL DUP2 MSTORE PUSH1 0x20 PUSH1 0x4 DUP3 ADD MSTORE PUSH1 0x12 PUSH1 0x24 DUP3 ADD MSTORE PUSH18 0x105B1C9958591E48185D5D1A1BDC9A5E9959 PUSH1 0x72 SHL PUSH1 0x44 DUP3 ADD MSTORE PUSH1 0x64 SWAP1 REVERT JUMPDEST POP CALLER DUP3 MSTORE PUSH1 0xB PUSH1 0x20 MSTORE PUSH1 0x40 DUP3 KECCAK256 SLOAD PUSH1 0xFF AND PUSH2 0x2488 JUMP JUMPDEST POP CALLVALUE PUSH2 0x285 JUMPI PUSH1 0x20 CALLDATASIZE PUSH1 0x3 NOT ADD SLT PUSH2 0x285 JUMPI PUSH1 0x1 PUSH1 0x1 PUSH1 0xA0 SHL SUB PUSH2 0x2569 PUSH2 0x2E26 JUMP JUMPDEST AND DUP2 MSTORE PUSH1 0xF PUSH1 0x20 MSTORE PUSH1 0x40 DUP2 KECCAK256 DUP1 SLOAD DUP3 SWAP2 DUP3 JUMPDEST DUP3 DUP2 LT PUSH2 0x25B1 JUMPI POP POP POP DUP2 PUSH2 0x2596 JUMPI PUSH1 0x20 SWAP2 POP PUSH1 0x40 MLOAD SWAP1 DUP2 MSTORE RETURN JUMPDEST PUSH3 0x278D00 DUP3 ADD DUP1 SWAP3 GT PUSH2 0x361 JUMPI POP PUSH2 0x35C PUSH1 0x20 SWAP2 TIMESTAMP SWAP1 PUSH2 0x3648 JUMP JUMPDEST PUSH2 0x25BB DUP2 DUP4 PUSH2 0x2FE8 JUMP JUMPDEST SWAP1 SLOAD SWAP1 PUSH1 0x3 SHL SHR PUSH3 0x278D00 DUP2 ADD DUP1 SWAP2 GT PUSH2 0x3E6 JUMPI TIMESTAMP LT PUSH2 0x25DE JUMPI JUMPDEST PUSH1 0x1 ADD PUSH2 0x257B JUMP JUMPDEST DUP5 ISZERO DUP1 ISZERO PUSH2 0x2609 JUMPI JUMPDEST ISZERO PUSH2 0x25D6 JUMPI SWAP4 POP PUSH1 0x1 PUSH2 0x25FA DUP6 DUP4 PUSH2 0x2FE8 JUMP JUMPDEST SWAP1 SLOAD SWAP1 PUSH1 0x3 SHL SHR SWAP5 SWAP1 POP PUSH2 0x25D6 JUMP JUMPDEST POP DUP5 PUSH2 0x2615 DUP3 DUP5 PUSH2 0x2FE8 JUMP JUMPDEST SWAP1 SLOAD SWAP1 PUSH1 0x3 SHL SHR LT PUSH2 0x25E7 JUMP JUMPDEST POP CALLVALUE PUSH2 0x285 JUMPI DUP1 PUSH1 0x3 NOT CALLDATASIZE ADD SLT PUSH2 0x285 JUMPI PUSH1 0x20 PUSH1 0x5 SLOAD PUSH1 0x40 MLOAD SWAP1 DUP2 MSTORE RETURN JUMPDEST POP CALLVALUE PUSH2 0x285 JUMPI DUP1 PUSH1 0x3 NOT CALLDATASIZE ADD SLT PUSH2 0x285 JUMPI PUSH1 0xA SLOAD PUSH1 0x40 MLOAD PUSH1 0x1 PUSH1 0x1 PUSH1 0xA0 SHL SUB SWAP1 SWAP2 AND DUP2 MSTORE PUSH1 0x20 SWAP1 RETURN JUMPDEST POP CALLVALUE PUSH2 0x285 JUMPI PUSH1 0x20 CALLDATASIZE PUSH1 0x3 NOT ADD SLT PUSH2 0x285 JUMPI PUSH1 0x4 CALLDATALOAD SWAP1 PUSH1 0x2 SLOAD DUP3 LT ISZERO PUSH2 0x285 JUMPI PUSH1 0x20 PUSH2 0x2694 DUP4 PUSH2 0x2FB7 JUMP JUMPDEST SWAP1 SLOAD PUSH1 0x40 MLOAD PUSH1 0x3 SWAP3 SWAP1 SWAP3 SHL SHR PUSH1 0x1 PUSH1 0x1 PUSH1 0xA0 SHL SUB AND DUP2 MSTORE RETURN JUMPDEST POP CALLVALUE PUSH2 0x285 JUMPI PUSH1 0x20 CALLDATASIZE PUSH1 0x3 NOT ADD SLT PUSH2 0x285 JUMPI PUSH2 0x26C7 PUSH2 0x2E26 JUMP JUMPDEST DUP2 SLOAD PUSH1 0x1 PUSH1 0x1 PUSH1 0xA0 SHL SUB AND CALLER EQ DUP1 ISZERO PUSH2 0x27A5 JUMPI JUMPDEST PUSH2 0x26E4 SWAP1 PUSH2 0x35E0 JUMP JUMPDEST PUSH1 0x1 PUSH1 0x1 PUSH1 0xA0 SHL SUB DUP2 AND DUP1 ISZERO PUSH2 0x276C JUMPI PUSH1 0x1 PUSH1 0x1 PUSH1 0x60 SHL SUB PUSH1 0xA0 SHL PUSH1 0x9 SLOAD AND OR PUSH1 0x9 SSTORE CALLER PUSH1 0x1 PUSH1 0x1 PUSH1 0x60 SHL SUB PUSH1 0xA0 SHL PUSH1 0xA SLOAD AND OR PUSH1 0xA SSTORE TIMESTAMP PUSH1 0x8 SSTORE PUSH32 0xC29BDBD554E41DF97E5C40FC273A09677AC133C245F0064BDFFEF5CC72176E19 PUSH1 0x40 MLOAD DUP1 PUSH2 0x2766 CALLER SWAP5 TIMESTAMP SWAP1 DUP4 PUSH1 0x20 SWAP1 SWAP4 SWAP3 SWAP2 SWAP4 PUSH1 0x40 DUP2 ADD SWAP5 PUSH1 0x1 DUP1 PUSH1 0xA0 SHL SUB AND DUP2 MSTORE ADD MSTORE JUMP JUMPDEST SUB SWAP1 LOG2 DUP1 RETURN JUMPDEST PUSH1 0x40 MLOAD PUSH3 0x461BCD PUSH1 0xE5 SHL DUP2 MSTORE PUSH1 0x20 PUSH1 0x4 DUP3 ADD MSTORE PUSH1 0x11 PUSH1 0x24 DUP3 ADD MSTORE PUSH17 0x24B73B30B634B2103732BB9037BBB732B9 PUSH1 0x79 SHL PUSH1 0x44 DUP3 ADD MSTORE PUSH1 0x64 SWAP1 REVERT JUMPDEST POP CALLER DUP3 MSTORE PUSH1 0xB PUSH1 0x20 MSTORE PUSH1 0x40 DUP3 KECCAK256 SLOAD PUSH1 0xFF AND PUSH2 0x26DB JUMP JUMPDEST POP CALLVALUE PUSH2 0x285 JUMPI PUSH1 0x20 CALLDATASIZE PUSH1 0x3 NOT ADD SLT PUSH2 0x285 JUMPI PUSH2 0x27D5 PUSH2 0x2E26 JUMP JUMPDEST DUP2 PUSH2 0x260 PUSH1 0x40 MLOAD PUSH2 0x27E5 DUP2 PUSH2 0x30A3 JUMP JUMPDEST PUSH1 0x60 DUP2 MSTORE DUP3 PUSH1 0x20 DUP3 ADD MSTORE DUP3 PUSH1 0x40 DUP3 ADD MSTORE DUP3 PUSH1 0x60 DUP3 ADD MSTORE DUP3 PUSH1 0x80 DUP3 ADD MSTORE DUP3 PUSH1 0xA0 DUP3 ADD MSTORE DUP3 PUSH1 0xC0 DUP3 ADD MSTORE DUP3 PUSH1 0xE0 DUP3 ADD MSTORE DUP3 PUSH2 0x100 DUP3 ADD MSTORE DUP3 PUSH2 0x120 DUP3 ADD MSTORE DUP3 PUSH2 0x140 DUP3 ADD MSTORE DUP3 PUSH2 0x160 DUP3 ADD MSTORE DUP3 PUSH2 0x180 DUP3 ADD MSTORE DUP3 PUSH2 0x1A0 DUP3 ADD MSTORE DUP3 PUSH2 0x1C0 DUP3 ADD MSTORE PUSH1 0x60 PUSH2 0x1E0 DUP3 ADD MSTORE DUP3 PUSH2 0x200 DUP3 ADD MSTORE PUSH1 0x60 PUSH2 0x220 DUP3 ADD MSTORE PUSH1 0x60 PUSH2 0x240 DUP3 ADD MSTORE ADD MSTORE PUSH1 0x1 DUP1 PUSH1 0xA0 SHL SUB AND DUP1 ISZERO PUSH2 0x2A3A JUMPI DUP2 PUSH1 0x4 SWAP2 PUSH1 0x40 MLOAD SWAP3 DUP4 DUP1 SWAP3 PUSH4 0x1F385F79 PUSH1 0xE2 SHL DUP3 MSTORE GAS STATICCALL SWAP1 DUP2 ISZERO PUSH2 0x89D JUMPI DUP3 SWAP2 PUSH2 0x2A18 JUMPI JUMPDEST POP PUSH1 0x40 MLOAD SWAP1 PUSH1 0x20 DUP3 MSTORE PUSH2 0x28B9 DUP2 MLOAD PUSH2 0x280 PUSH1 0x20 DUP6 ADD MSTORE PUSH2 0x2A0 DUP5 ADD SWAP1 PUSH2 0x2E64 JUMP JUMPDEST SWAP3 PUSH2 0x28CC PUSH1 0x20 DUP4 ADD MLOAD PUSH1 0x40 DUP6 ADD SWAP1 PUSH2 0x2FAA JUMP JUMPDEST PUSH1 0x40 DUP3 ADD MLOAD PUSH1 0x60 DUP5 ADD MSTORE PUSH1 0x60 DUP3 ADD MLOAD PUSH1 0x80 DUP5 ADD MSTORE PUSH1 0x80 DUP3 ADD MLOAD PUSH1 0xA0 DUP5 ADD MSTORE PUSH1 0xFF PUSH1 0xA0 DUP4 ADD MLOAD AND PUSH1 0xC0 DUP5 ADD MSTORE PUSH1 0xFF PUSH1 0xC0 DUP4 ADD MLOAD AND PUSH1 0xE0 DUP5 ADD MSTORE PUSH1 0xFF PUSH1 0xE0 DUP4 ADD MLOAD AND PUSH2 0x100 DUP5 ADD MSTORE PUSH1 0xFF PUSH2 0x100 DUP4 ADD MLOAD AND PUSH2 0x120 DUP5 ADD MSTORE PUSH2 0x120 DUP3 ADD MLOAD PUSH2 0x140 DUP5 ADD MSTORE PUSH2 0x140 DUP3 ADD MLOAD PUSH2 0x160 DUP5 ADD MSTORE PUSH1 0xFF PUSH2 0x160 DUP4 ADD MLOAD AND PUSH2 0x180 DUP5 ADD MSTORE PUSH1 0xFF PUSH2 0x180 DUP4 ADD MLOAD AND PUSH2 0x1A0 DUP5 ADD MSTORE PUSH2 0x1A0 DUP3 ADD MLOAD PUSH2 0x1C0 DUP5 ADD MSTORE PUSH2 0x1C0 DUP3 ADD MLOAD PUSH2 0x1E0 DUP5 ADD MSTORE PUSH2 0x1E0 DUP3 ADD MLOAD SWAP4 PUSH1 0x1F NOT DUP5 DUP3 SUB ADD PUSH2 0x200 DUP6 ADD MSTORE PUSH1 0x20 DUP1 DUP7 MLOAD SWAP3 DUP4 DUP2 MSTORE ADD SWAP6 ADD SWAP2 JUMPDEST DUP2 DUP2 LT PUSH2 0x29ED JUMPI POP POP POP PUSH2 0x260 PUSH2 0x29E0 PUSH2 0x29CA DUP5 SWAP6 PUSH2 0x200 DUP6 ADD MLOAD PUSH2 0x220 DUP8 ADD MSTORE PUSH2 0x220 DUP6 ADD MLOAD PUSH1 0x1F NOT DUP8 DUP4 SUB ADD PUSH2 0x240 DUP9 ADD MSTORE PUSH2 0x2E64 JUMP JUMPDEST PUSH2 0x240 DUP5 ADD MLOAD DUP6 DUP3 SUB PUSH1 0x1F NOT ADD DUP5 DUP8 ADD MSTORE PUSH2 0x2EC4 JUMP JUMPDEST SWAP2 ADD MLOAD PUSH2 0x280 DUP4 ADD MSTORE SUB SWAP1 RETURN JUMPDEST DUP3 MLOAD DUP1 MLOAD PUSH1 0x1 PUSH1 0x1 PUSH1 0xA0 SHL SUB AND DUP8 MSTORE PUSH1 0x20 SWAP1 DUP2 ADD MLOAD DUP2 DUP9 ADD MSTORE PUSH1 0x40 SWAP1 SWAP7 ADD SWAP6 SWAP1 SWAP3 ADD SWAP2 PUSH1 0x1 ADD PUSH2 0x2991 JUMP JUMPDEST PUSH2 0x2A34 SWAP2 POP RETURNDATASIZE DUP1 DUP5 DUP4 RETURNDATACOPY PUSH2 0x2A2C DUP2 DUP4 PUSH2 0x30D5 JUMP JUMPDEST DUP2 ADD SWAP1 PUSH2 0x336E JUMP JUMPDEST CODESIZE PUSH2 0x2898 JUMP JUMPDEST PUSH1 0x40 MLOAD PUSH3 0x461BCD PUSH1 0xE5 SHL DUP2 MSTORE PUSH1 0x20 PUSH1 0x4 DUP3 ADD MSTORE PUSH1 0x17 PUSH1 0x24 DUP3 ADD MSTORE PUSH32 0x496E76616C6964206D697373696F6E2061646472657373000000000000000000 PUSH1 0x44 DUP3 ADD MSTORE PUSH1 0x64 SWAP1 REVERT JUMPDEST POP CALLVALUE PUSH2 0x285 JUMPI PUSH1 0x20 CALLDATASIZE PUSH1 0x3 NOT ADD SLT PUSH2 0x285 JUMPI PUSH1 0x4 CALLDATALOAD SWAP1 PUSH1 0x8 DUP3 LT ISZERO SWAP2 DUP3 PUSH2 0x8A8 JUMPI PUSH1 0x2 SLOAD SWAP3 DUP3 SWAP4 DUP4 JUMPDEST DUP2 DUP2 LT PUSH2 0x2BB6 JUMPI POP PUSH2 0x2AB9 DUP6 PUSH2 0x3223 JUMP JUMPDEST SWAP4 PUSH2 0x2ACC PUSH2 0x2AC6 DUP8 PUSH2 0x3223 JUMP JUMPDEST SWAP7 PUSH2 0x3289 JUMP JUMPDEST SWAP4 DUP2 SWAP1 DUP3 JUMPDEST DUP5 DUP2 LT PUSH2 0x2AE8 JUMPI PUSH1 0x40 MLOAD DUP1 PUSH2 0x2BA DUP10 DUP13 DUP13 DUP5 PUSH2 0x2F42 JUMP JUMPDEST PUSH2 0x2AF1 DUP2 PUSH2 0x2FB7 JUMP JUMPDEST SWAP1 SLOAD PUSH1 0x3 SWAP2 SWAP1 SWAP2 SHL SHR PUSH1 0x1 PUSH1 0x1 PUSH1 0xA0 SHL SUB AND DUP5 MSTORE PUSH1 0xD PUSH1 0x20 MSTORE PUSH1 0x40 DUP5 KECCAK256 SLOAD PUSH1 0xFF AND DUP7 PUSH2 0x120D JUMPI PUSH1 0x8 DUP2 LT ISZERO PUSH2 0x120D JUMPI DUP3 EQ PUSH2 0x2B2F JUMPI JUMPDEST PUSH1 0x1 ADD PUSH2 0x2AD1 JUMP JUMPDEST SWAP2 SWAP5 POP PUSH2 0x2B3B DUP3 PUSH2 0x2FB7 JUMP JUMPDEST SWAP1 SLOAD PUSH1 0x3 SWAP2 SWAP1 SWAP2 SHL SHR PUSH1 0x1 PUSH1 0x1 PUSH1 0xA0 SHL SUB AND PUSH2 0x2B57 DUP7 DUP10 PUSH2 0x32D3 JUMP JUMPDEST MSTORE PUSH1 0x1 PUSH2 0x2BAE DUP5 SWAP7 PUSH2 0x2B69 DUP2 DUP13 PUSH2 0x32D3 JUMP JUMPDEST PUSH1 0xFF DUP6 AND SWAP1 MSTORE PUSH2 0x2B78 DUP6 PUSH2 0x2FB7 JUMP JUMPDEST DUP5 DUP1 PUSH1 0xA0 SHL SUB SWAP2 SLOAD SWAP1 PUSH1 0x3 SHL SHR AND DUP7 MSTORE PUSH1 0x10 PUSH1 0x20 MSTORE PUSH2 0x2B99 PUSH1 0x40 DUP8 KECCAK256 PUSH2 0x30F6 JUMP JUMPDEST PUSH2 0x2BA3 DUP3 DUP12 PUSH2 0x32D3 JUMP JUMPDEST MSTORE PUSH2 0x18EA DUP2 DUP11 PUSH2 0x32D3 JUMP JUMPDEST SWAP3 SWAP1 POP PUSH2 0x2B27 JUMP JUMPDEST PUSH2 0x2BBF DUP2 PUSH2 0x2FB7 JUMP JUMPDEST SWAP1 SLOAD PUSH1 0x3 SWAP2 SWAP1 SWAP2 SHL SHR PUSH1 0x1 PUSH1 0x1 PUSH1 0xA0 SHL SUB AND DUP6 MSTORE PUSH1 0xD PUSH1 0x20 MSTORE PUSH1 0x40 DUP6 KECCAK256 SLOAD PUSH1 0xFF AND DUP4 PUSH2 0x1221 JUMPI PUSH1 0x8 DUP2 LT ISZERO PUSH2 0x1221 JUMPI DUP5 EQ PUSH2 0x2BFD JUMPI JUMPDEST PUSH1 0x1 ADD PUSH2 0x2AA8 JUMP JUMPDEST SWAP5 PUSH2 0x2C09 PUSH1 0x1 SWAP2 PUSH2 0x31E7 JUMP JUMPDEST SWAP6 SWAP1 POP PUSH2 0x2BF5 JUMP JUMPDEST POP CALLVALUE PUSH2 0x285 JUMPI PUSH1 0x20 CALLDATASIZE PUSH1 0x3 NOT ADD SLT PUSH2 0x285 JUMPI PUSH1 0x4 CALLDATALOAD PUSH2 0x2C2E PUSH2 0x3F25 JUMP JUMPDEST PUSH2 0x2C36 PUSH2 0x3F4E JUMP JUMPDEST DUP2 SLOAD PUSH1 0x1 PUSH1 0x1 PUSH1 0xA0 SHL SUB AND SWAP1 DUP1 DUP3 ISZERO PUSH2 0x2D3C JUMPI ISZERO PUSH2 0x2D35 JUMPI JUMPDEST SELFBALANCE DUP2 GT PUSH2 0x2CF9 JUMPI DUP3 DUP1 DUP1 DUP1 DUP5 DUP7 GAS CALL RETURNDATASIZE ISZERO PUSH2 0x2CF4 JUMPI RETURNDATASIZE PUSH2 0x2C6E DUP2 PUSH2 0x31CC JUMP JUMPDEST SWAP1 PUSH2 0x2C7C PUSH1 0x40 MLOAD SWAP3 DUP4 PUSH2 0x30D5 JUMP JUMPDEST DUP2 MSTORE DUP5 PUSH1 0x20 RETURNDATASIZE SWAP3 ADD RETURNDATACOPY JUMPDEST ISZERO PUSH2 0x2CBD JUMPI PUSH1 0x20 PUSH32 0xEAFF4B37086828766AD3268786972C0CD24259D4C87A80F9D3963A3C3D999B0D SWAP2 PUSH1 0x40 MLOAD SWAP1 DUP2 MSTORE LOG2 PUSH1 0x1 DUP1 SSTORE DUP1 RETURN JUMPDEST PUSH1 0x40 MLOAD PUSH3 0x461BCD PUSH1 0xE5 SHL DUP2 MSTORE PUSH1 0x20 PUSH1 0x4 DUP3 ADD MSTORE PUSH1 0xF PUSH1 0x24 DUP3 ADD MSTORE PUSH15 0x151C985B9CD9995C8819985A5B1959 PUSH1 0x8A SHL PUSH1 0x44 DUP3 ADD MSTORE PUSH1 0x64 SWAP1 REVERT JUMPDEST PUSH2 0x2C86 JUMP JUMPDEST PUSH1 0x40 MLOAD PUSH3 0x461BCD PUSH1 0xE5 SHL DUP2 MSTORE PUSH1 0x20 PUSH1 0x4 DUP3 ADD MSTORE PUSH1 0x14 PUSH1 0x24 DUP3 ADD MSTORE PUSH20 0x496E73756666696369656E742062616C616E6365 PUSH1 0x60 SHL PUSH1 0x44 DUP3 ADD MSTORE PUSH1 0x64 SWAP1 REVERT JUMPDEST POP SELFBALANCE PUSH2 0x2C4F JUMP JUMPDEST PUSH1 0x40 MLOAD PUSH3 0x461BCD PUSH1 0xE5 SHL DUP2 MSTORE PUSH1 0x20 PUSH1 0x4 DUP3 ADD MSTORE PUSH1 0x15 PUSH1 0x24 DUP3 ADD MSTORE PUSH21 0x24B73B30B634B21036B0B730B3B2B91037BBB732B9 PUSH1 0x59 SHL PUSH1 0x44 DUP3 ADD MSTORE PUSH1 0x64 SWAP1 REVERT JUMPDEST POP CALLVALUE PUSH2 0x285 JUMPI DUP1 PUSH1 0x3 NOT CALLDATASIZE ADD SLT PUSH2 0x285 JUMPI PUSH1 0x9 SLOAD PUSH1 0x40 MLOAD PUSH1 0x1 PUSH1 0x1 PUSH1 0xA0 SHL SUB SWAP1 SWAP2 AND DUP2 MSTORE PUSH1 0x20 SWAP1 RETURN JUMPDEST POP CALLVALUE PUSH2 0x285 JUMPI DUP1 PUSH1 0x3 NOT CALLDATASIZE ADD SLT PUSH2 0x285 JUMPI PUSH1 0x20 PUSH1 0xFF PUSH1 0x3 SLOAD PUSH1 0x8 SHR AND PUSH1 0x40 MLOAD SWAP1 DUP2 MSTORE RETURN JUMPDEST POP CALLVALUE PUSH2 0x285 JUMPI PUSH1 0x20 CALLDATASIZE PUSH1 0x3 NOT ADD SLT PUSH2 0x285 JUMPI PUSH1 0x20 SWAP1 PUSH1 0xFF SWAP1 PUSH1 0x40 SWAP1 PUSH1 0x1 PUSH1 0x1 PUSH1 0xA0 SHL SUB PUSH2 0x2DF1 PUSH2 0x2E26 JUMP JUMPDEST AND DUP2 MSTORE PUSH1 0xD DUP5 MSTORE KECCAK256 SLOAD AND PUSH2 0x2E08 PUSH1 0x40 MLOAD DUP1 SWAP3 PUSH2 0x2E41 JUMP JUMPDEST RETURN JUMPDEST SWAP1 POP CALLVALUE PUSH2 0x8A8 JUMPI DUP2 PUSH1 0x3 NOT CALLDATASIZE ADD SLT PUSH2 0x8A8 JUMPI PUSH1 0x20 SWAP1 PUSH1 0x8 SLOAD DUP2 MSTORE RETURN JUMPDEST PUSH1 0x4 CALLDATALOAD SWAP1 PUSH1 0x1 PUSH1 0x1 PUSH1 0xA0 SHL SUB DUP3 AND DUP3 SUB PUSH2 0x2E3C JUMPI JUMP JUMPDEST PUSH1 0x0 DUP1 REVERT JUMPDEST SWAP1 PUSH1 0x8 DUP3 LT ISZERO PUSH2 0x2E4E JUMPI MSTORE JUMP JUMPDEST PUSH4 0x4E487B71 PUSH1 0xE0 SHL PUSH1 0x0 MSTORE PUSH1 0x21 PUSH1 0x4 MSTORE PUSH1 0x24 PUSH1 0x0 REVERT JUMPDEST SWAP1 PUSH1 0x20 DUP1 DUP4 MLOAD SWAP3 DUP4 DUP2 MSTORE ADD SWAP3 ADD SWAP1 PUSH1 0x0 JUMPDEST DUP2 DUP2 LT PUSH2 0x2E82 JUMPI POP POP POP SWAP1 JUMP JUMPDEST DUP3 MLOAD PUSH1 0x1 PUSH1 0x1 PUSH1 0xA0 SHL SUB AND DUP5 MSTORE PUSH1 0x20 SWAP4 DUP5 ADD SWAP4 SWAP1 SWAP3 ADD SWAP2 PUSH1 0x1 ADD PUSH2 0x2E75 JUMP JUMPDEST PUSH1 0x0 JUMPDEST DUP4 DUP2 LT PUSH2 0x2EB4 JUMPI POP POP PUSH1 0x0 SWAP2 ADD MSTORE JUMP JUMPDEST DUP2 DUP2 ADD MLOAD DUP4 DUP3 ADD MSTORE PUSH1 0x20 ADD PUSH2 0x2EA4 JUMP JUMPDEST SWAP1 PUSH1 0x20 SWAP2 PUSH2 0x2EDD DUP2 MLOAD DUP1 SWAP3 DUP2 DUP6 MSTORE DUP6 DUP1 DUP7 ADD SWAP2 ADD PUSH2 0x2EA1 JUMP JUMPDEST PUSH1 0x1F ADD PUSH1 0x1F NOT AND ADD ADD SWAP1 JUMP JUMPDEST SWAP1 DUP1 PUSH1 0x20 DUP4 MLOAD SWAP2 DUP3 DUP2 MSTORE ADD SWAP2 PUSH1 0x20 DUP1 DUP4 PUSH1 0x5 SHL DUP4 ADD ADD SWAP5 ADD SWAP3 PUSH1 0x0 SWAP2 JUMPDEST DUP4 DUP4 LT PUSH2 0x2F15 JUMPI POP POP POP POP POP SWAP1 JUMP JUMPDEST SWAP1 SWAP2 SWAP3 SWAP4 SWAP5 PUSH1 0x20 DUP1 PUSH2 0x2F33 PUSH1 0x1 SWAP4 PUSH1 0x1F NOT DUP7 DUP3 SUB ADD DUP8 MSTORE DUP10 MLOAD PUSH2 0x2EC4 JUMP JUMPDEST SWAP8 ADD SWAP4 ADD SWAP4 ADD SWAP2 SWAP4 SWAP3 SWAP1 PUSH2 0x2F06 JUMP JUMPDEST SWAP4 SWAP3 SWAP1 PUSH2 0x2F57 SWAP1 PUSH1 0x60 DUP7 MSTORE PUSH1 0x60 DUP7 ADD SWAP1 PUSH2 0x2E64 JUMP JUMPDEST SWAP4 DUP1 DUP6 SUB PUSH1 0x20 DUP3 ADD MSTORE PUSH1 0x20 DUP1 DUP5 MLOAD SWAP7 DUP8 DUP2 MSTORE ADD SWAP4 ADD PUSH1 0x0 SWAP6 JUMPDEST DUP1 DUP8 LT PUSH2 0x2F8F JUMPI POP POP PUSH2 0x2F8C SWAP4 SWAP5 POP PUSH1 0x40 DUP2 DUP5 SUB SWAP2 ADD MSTORE PUSH2 0x2EE9 JUMP JUMPDEST SWAP1 JUMP JUMPDEST SWAP1 SWAP4 PUSH1 0x20 DUP1 PUSH1 0x1 SWAP3 PUSH1 0xFF DUP9 MLOAD AND DUP2 MSTORE ADD SWAP6 ADD SWAP7 ADD SWAP6 SWAP1 PUSH2 0x2F70 JUMP JUMPDEST SWAP1 PUSH1 0x7 DUP3 LT ISZERO PUSH2 0x2E4E JUMPI MSTORE JUMP JUMPDEST PUSH1 0x2 SLOAD DUP2 LT ISZERO PUSH2 0x2FD2 JUMPI PUSH1 0x2 PUSH1 0x0 MSTORE PUSH1 0x20 PUSH1 0x0 KECCAK256 ADD SWAP1 PUSH1 0x0 SWAP1 JUMP JUMPDEST PUSH4 0x4E487B71 PUSH1 0xE0 SHL PUSH1 0x0 MSTORE PUSH1 0x32 PUSH1 0x4 MSTORE PUSH1 0x24 PUSH1 0x0 REVERT JUMPDEST DUP1 SLOAD DUP3 LT ISZERO PUSH2 0x2FD2 JUMPI PUSH1 0x0 MSTORE PUSH1 0x20 PUSH1 0x0 KECCAK256 ADD SWAP1 PUSH1 0x0 SWAP1 JUMP JUMPDEST SWAP4 SWAP3 SWAP1 PUSH2 0x3015 SWAP1 PUSH1 0x60 DUP7 MSTORE PUSH1 0x60 DUP7 ADD SWAP1 PUSH2 0x2E64 JUMP JUMPDEST SWAP4 DUP1 DUP6 SUB PUSH1 0x20 DUP3 ADD MSTORE PUSH1 0x20 DUP1 DUP5 MLOAD SWAP7 DUP8 DUP2 MSTORE ADD SWAP4 ADD PUSH1 0x0 SWAP6 JUMPDEST DUP1 DUP8 LT PUSH2 0x304A JUMPI POP POP PUSH2 0x2F8C SWAP4 SWAP5 POP PUSH1 0x40 DUP2 DUP5 SUB SWAP2 ADD MSTORE PUSH2 0x2EE9 JUMP JUMPDEST SWAP1 SWAP4 PUSH1 0x20 DUP1 DUP3 PUSH2 0x305D PUSH1 0x1 SWAP5 DUP10 MLOAD PUSH2 0x2E41 JUMP JUMPDEST ADD SWAP6 ADD SWAP7 ADD SWAP6 SWAP1 PUSH2 0x302E JUMP JUMPDEST SWAP1 PUSH1 0x1 DUP3 DUP2 SHR SWAP3 AND DUP1 ISZERO PUSH2 0x3099 JUMPI JUMPDEST PUSH1 0x20 DUP4 LT EQ PUSH2 0x3083 JUMPI JUMP JUMPDEST PUSH4 0x4E487B71 PUSH1 0xE0 SHL PUSH1 0x0 MSTORE PUSH1 0x22 PUSH1 0x4 MSTORE PUSH1 0x24 PUSH1 0x0 REVERT JUMPDEST SWAP2 PUSH1 0x7F AND SWAP2 PUSH2 0x3078 JUMP JUMPDEST PUSH2 0x280 DUP2 ADD SWAP1 DUP2 LT PUSH1 0x1 PUSH1 0x1 PUSH1 0x40 SHL SUB DUP3 GT OR PUSH2 0x30BF JUMPI PUSH1 0x40 MSTORE JUMP JUMPDEST PUSH4 0x4E487B71 PUSH1 0xE0 SHL PUSH1 0x0 MSTORE PUSH1 0x41 PUSH1 0x4 MSTORE PUSH1 0x24 PUSH1 0x0 REVERT JUMPDEST SWAP1 PUSH1 0x1F DUP1 NOT SWAP2 ADD AND DUP2 ADD SWAP1 DUP2 LT PUSH1 0x1 PUSH1 0x1 PUSH1 0x40 SHL SUB DUP3 GT OR PUSH2 0x30BF JUMPI PUSH1 0x40 MSTORE JUMP JUMPDEST SWAP1 PUSH1 0x40 MLOAD SWAP2 DUP3 PUSH1 0x0 DUP3 SLOAD SWAP3 PUSH2 0x310A DUP5 PUSH2 0x3069 JUMP JUMPDEST DUP1 DUP5 MSTORE SWAP4 PUSH1 0x1 DUP2 AND SWAP1 DUP2 ISZERO PUSH2 0x3178 JUMPI POP PUSH1 0x1 EQ PUSH2 0x3131 JUMPI JUMPDEST POP PUSH2 0x312F SWAP3 POP SUB DUP4 PUSH2 0x30D5 JUMP JUMPDEST JUMP JUMPDEST SWAP1 POP PUSH1 0x0 SWAP3 SWAP2 SWAP3 MSTORE PUSH1 0x20 PUSH1 0x0 KECCAK256 SWAP1 PUSH1 0x0 SWAP2 JUMPDEST DUP2 DUP4 LT PUSH2 0x315C JUMPI POP POP SWAP1 PUSH1 0x20 PUSH2 0x312F SWAP3 DUP3 ADD ADD CODESIZE PUSH2 0x3122 JUMP JUMPDEST PUSH1 0x20 SWAP2 SWAP4 POP DUP1 PUSH1 0x1 SWAP2 SLOAD DUP4 DUP6 DUP10 ADD ADD MSTORE ADD SWAP2 ADD SWAP1 SWAP2 DUP5 SWAP3 PUSH2 0x3143 JUMP JUMPDEST SWAP1 POP PUSH1 0x20 SWAP3 POP PUSH2 0x312F SWAP5 SWAP2 POP PUSH1 0xFF NOT AND DUP3 DUP5 ADD MSTORE ISZERO ISZERO PUSH1 0x5 SHL DUP3 ADD ADD CODESIZE PUSH2 0x3122 JUMP JUMPDEST PUSH1 0x7 DUP2 LT ISZERO PUSH2 0x2E4E JUMPI PUSH1 0x0 MSTORE PUSH1 0xE PUSH1 0x20 MSTORE PUSH1 0x40 PUSH1 0x0 KECCAK256 SWAP1 JUMP JUMPDEST PUSH1 0x7 DUP2 LT ISZERO PUSH2 0x2E4E JUMPI PUSH1 0x0 MSTORE PUSH1 0x11 PUSH1 0x20 MSTORE PUSH1 0x40 PUSH1 0x0 KECCAK256 SWAP1 JUMP JUMPDEST PUSH1 0x1 PUSH1 0x1 PUSH1 0x40 SHL SUB DUP2 GT PUSH2 0x30BF JUMPI PUSH1 0x1F ADD PUSH1 0x1F NOT AND PUSH1 0x20 ADD SWAP1 JUMP JUMPDEST PUSH1 0x0 NOT DUP2 EQ PUSH2 0x31F6 JUMPI PUSH1 0x1 ADD SWAP1 JUMP JUMPDEST PUSH4 0x4E487B71 PUSH1 0xE0 SHL PUSH1 0x0 MSTORE PUSH1 0x11 PUSH1 0x4 MSTORE PUSH1 0x24 PUSH1 0x0 REVERT JUMPDEST PUSH1 0x1 PUSH1 0x1 PUSH1 0x40 SHL SUB DUP2 GT PUSH2 0x30BF JUMPI PUSH1 0x5 SHL PUSH1 0x20 ADD SWAP1 JUMP JUMPDEST SWAP1 PUSH2 0x322D DUP3 PUSH2 0x320C JUMP JUMPDEST PUSH2 0x323A PUSH1 0x40 MLOAD SWAP2 DUP3 PUSH2 0x30D5 JUMP JUMPDEST DUP3 DUP2 MSTORE DUP1 SWAP3 PUSH2 0x324B PUSH1 0x1F NOT SWAP2 PUSH2 0x320C JUMP JUMPDEST ADD SWAP1 PUSH1 0x20 CALLDATASIZE SWAP2 ADD CALLDATACOPY JUMP JUMPDEST PUSH1 0x40 MLOAD SWAP1 PUSH2 0x3264 PUSH1 0x20 DUP4 PUSH2 0x30D5 JUMP JUMPDEST PUSH1 0x0 DUP1 DUP4 MSTORE DUP3 DUP2 JUMPDEST DUP3 DUP2 LT PUSH2 0x3278 JUMPI POP POP POP JUMP JUMPDEST DUP1 PUSH1 0x60 PUSH1 0x20 DUP1 SWAP4 DUP6 ADD ADD MSTORE ADD PUSH2 0x326C JUMP JUMPDEST SWAP1 PUSH2 0x3293 DUP3 PUSH2 0x320C JUMP JUMPDEST PUSH2 0x32A0 PUSH1 0x40 MLOAD SWAP2 DUP3 PUSH2 0x30D5 JUMP JUMPDEST DUP3 DUP2 MSTORE DUP1 SWAP3 PUSH2 0x32B1 PUSH1 0x1F NOT SWAP2 PUSH2 0x320C JUMP JUMPDEST ADD SWAP1 PUSH1 0x0 JUMPDEST DUP3 DUP2 LT PUSH2 0x32C2 JUMPI POP POP POP JUMP JUMPDEST DUP1 PUSH1 0x60 PUSH1 0x20 DUP1 SWAP4 DUP6 ADD ADD MSTORE ADD PUSH2 0x32B6 JUMP JUMPDEST DUP1 MLOAD DUP3 LT ISZERO PUSH2 0x2FD2 JUMPI PUSH1 0x20 SWAP2 PUSH1 0x5 SHL ADD ADD SWAP1 JUMP JUMPDEST MLOAD SWAP1 PUSH1 0x1 PUSH1 0x1 PUSH1 0xA0 SHL SUB DUP3 AND DUP3 SUB PUSH2 0x2E3C JUMPI JUMP JUMPDEST SWAP1 DUP1 PUSH1 0x1F DUP4 ADD SLT ISZERO PUSH2 0x2E3C JUMPI DUP2 MLOAD PUSH2 0x3312 DUP2 PUSH2 0x320C JUMP JUMPDEST SWAP3 PUSH2 0x3320 PUSH1 0x40 MLOAD SWAP5 DUP6 PUSH2 0x30D5 JUMP JUMPDEST DUP2 DUP5 MSTORE PUSH1 0x20 DUP1 DUP6 ADD SWAP3 PUSH1 0x5 SHL DUP3 ADD ADD SWAP3 DUP4 GT PUSH2 0x2E3C JUMPI PUSH1 0x20 ADD SWAP1 JUMPDEST DUP3 DUP3 LT PUSH2 0x3348 JUMPI POP POP POP SWAP1 JUMP JUMPDEST PUSH1 0x20 DUP1 SWAP2 PUSH2 0x3355 DUP5 PUSH2 0x32E7 JUMP JUMPDEST DUP2 MSTORE ADD SWAP2 ADD SWAP1 PUSH2 0x333B JUMP JUMPDEST MLOAD SWAP1 PUSH1 0xFF DUP3 AND DUP3 SUB PUSH2 0x2E3C JUMPI JUMP JUMPDEST PUSH1 0x20 DUP2 DUP4 SUB SLT PUSH2 0x2E3C JUMPI DUP1 MLOAD SWAP1 PUSH1 0x1 PUSH1 0x1 PUSH1 0x40 SHL SUB DUP3 GT PUSH2 0x2E3C JUMPI ADD SWAP1 PUSH2 0x280 DUP3 DUP3 SUB SLT PUSH2 0x2E3C JUMPI PUSH1 0x40 MLOAD SWAP2 PUSH2 0x33A3 DUP4 PUSH2 0x30A3 JUMP JUMPDEST DUP1 MLOAD PUSH1 0x1 PUSH1 0x1 PUSH1 0x40 SHL SUB DUP2 GT PUSH2 0x2E3C JUMPI DUP3 PUSH2 0x33BF SWAP2 DUP4 ADD PUSH2 0x32FB JUMP JUMPDEST DUP4 MSTORE PUSH1 0x20 DUP2 ADD MLOAD PUSH1 0x7 DUP2 LT ISZERO PUSH2 0x2E3C JUMPI PUSH1 0x20 DUP5 ADD MSTORE PUSH1 0x40 DUP2 ADD MLOAD PUSH1 0x40 DUP5 ADD MSTORE PUSH1 0x60 DUP2 ADD MLOAD PUSH1 0x60 DUP5 ADD MSTORE PUSH1 0x80 DUP2 ADD MLOAD PUSH1 0x80 DUP5 ADD MSTORE PUSH2 0x33FE PUSH1 0xA0 DUP3 ADD PUSH2 0x3360 JUMP JUMPDEST PUSH1 0xA0 DUP5 ADD MSTORE PUSH2 0x340F PUSH1 0xC0 DUP3 ADD PUSH2 0x3360 JUMP JUMPDEST PUSH1 0xC0 DUP5 ADD MSTORE PUSH2 0x3420 PUSH1 0xE0 DUP3 ADD PUSH2 0x3360 JUMP JUMPDEST PUSH1 0xE0 DUP5 ADD MSTORE PUSH2 0x3432 PUSH2 0x100 DUP3 ADD PUSH2 0x3360 JUMP JUMPDEST PUSH2 0x100 DUP5 ADD MSTORE PUSH2 0x120 DUP2 ADD MLOAD PUSH2 0x120 DUP5 ADD MSTORE PUSH2 0x140 DUP2 ADD MLOAD PUSH2 0x140 DUP5 ADD MSTORE PUSH2 0x345D PUSH2 0x160 DUP3 ADD PUSH2 0x3360 JUMP JUMPDEST PUSH2 0x160 DUP5 ADD MSTORE PUSH2 0x3470 PUSH2 0x180 DUP3 ADD PUSH2 0x3360 JUMP JUMPDEST PUSH2 0x180 DUP5 ADD MSTORE PUSH2 0x1A0 DUP2 ADD MLOAD PUSH2 0x1A0 DUP5 ADD MSTORE PUSH2 0x1C0 DUP2 ADD MLOAD PUSH2 0x1C0 DUP5 ADD MSTORE PUSH2 0x1E0 DUP2 ADD MLOAD PUSH1 0x1 PUSH1 0x1 PUSH1 0x40 SHL SUB DUP2 GT PUSH2 0x2E3C JUMPI DUP2 ADD DUP3 PUSH1 0x1F DUP3 ADD SLT ISZERO PUSH2 0x2E3C JUMPI DUP1 MLOAD PUSH2 0x34BA DUP2 PUSH2 0x320C JUMP JUMPDEST SWAP2 PUSH2 0x34C8 PUSH1 0x40 MLOAD SWAP4 DUP5 PUSH2 0x30D5 JUMP JUMPDEST DUP2 DUP4 MSTORE PUSH1 0x20 DUP1 DUP5 ADD SWAP3 PUSH1 0x6 SHL DUP3 ADD ADD SWAP1 DUP6 DUP3 GT PUSH2 0x2E3C JUMPI PUSH1 0x20 ADD SWAP2 JUMPDEST DUP2 DUP4 LT PUSH2 0x3595 JUMPI POP POP POP PUSH2 0x1E0 DUP5 ADD MSTORE PUSH2 0x200 DUP2 ADD MLOAD PUSH2 0x200 DUP5 ADD MSTORE PUSH2 0x220 DUP2 ADD MLOAD PUSH1 0x1 PUSH1 0x1 PUSH1 0x40 SHL SUB DUP2 GT PUSH2 0x2E3C JUMPI DUP3 PUSH2 0x3520 SWAP2 DUP4 ADD PUSH2 0x32FB JUMP JUMPDEST PUSH2 0x220 DUP5 ADD MSTORE PUSH2 0x240 DUP2 ADD MLOAD PUSH1 0x1 PUSH1 0x1 PUSH1 0x40 SHL SUB DUP2 GT PUSH2 0x2E3C JUMPI DUP2 ADD SWAP2 DUP1 PUSH1 0x1F DUP5 ADD SLT ISZERO PUSH2 0x2E3C JUMPI DUP3 MLOAD SWAP3 PUSH2 0x3554 DUP5 PUSH2 0x31CC JUMP JUMPDEST SWAP2 PUSH2 0x3562 PUSH1 0x40 MLOAD SWAP4 DUP5 PUSH2 0x30D5 JUMP JUMPDEST DUP5 DUP4 MSTORE PUSH1 0x20 DUP6 DUP4 ADD ADD GT PUSH2 0x2E3C JUMPI PUSH2 0x260 SWAP4 PUSH2 0x3584 SWAP2 PUSH1 0x20 DUP1 DUP6 ADD SWAP2 ADD PUSH2 0x2EA1 JUMP JUMPDEST PUSH2 0x240 DUP5 ADD MSTORE ADD MLOAD PUSH2 0x260 DUP3 ADD MSTORE SWAP1 JUMP JUMPDEST PUSH1 0x40 DUP4 DUP8 SUB SLT PUSH2 0x2E3C JUMPI PUSH1 0x40 MLOAD SWAP1 PUSH1 0x40 DUP3 ADD SWAP1 DUP3 DUP3 LT PUSH1 0x1 PUSH1 0x1 PUSH1 0x40 SHL SUB DUP4 GT OR PUSH2 0x30BF JUMPI PUSH1 0x40 SWAP3 PUSH1 0x20 SWAP3 DUP5 MSTORE PUSH2 0x35CB DUP7 PUSH2 0x32E7 JUMP JUMPDEST DUP2 MSTORE DUP3 DUP7 ADD MLOAD DUP4 DUP3 ADD MSTORE DUP2 MSTORE ADD SWAP3 ADD SWAP2 PUSH2 0x34E4 JUMP JUMPDEST ISZERO PUSH2 0x35E7 JUMPI JUMP JUMPDEST PUSH1 0x40 MLOAD PUSH3 0x461BCD PUSH1 0xE5 SHL DUP2 MSTORE PUSH1 0x20 PUSH1 0x4 DUP3 ADD MSTORE PUSH1 0x26 PUSH1 0x24 DUP3 ADD MSTORE PUSH32 0x4E6F74206F776E6572206F72204D697373696F6E466163746F72792061757468 PUSH1 0x44 DUP3 ADD MSTORE PUSH6 0x1BDC9A5E9959 PUSH1 0xD2 SHL PUSH1 0x64 DUP3 ADD MSTORE PUSH1 0x84 SWAP1 REVERT JUMPDEST SWAP2 SWAP1 DUP3 ADD DUP1 SWAP3 GT PUSH2 0x31F6 JUMPI JUMP JUMPDEST SWAP2 SWAP1 DUP3 SUB SWAP2 DUP3 GT PUSH2 0x31F6 JUMPI JUMP JUMPDEST ISZERO PUSH2 0x365C JUMPI JUMP JUMPDEST PUSH1 0x40 MLOAD PUSH3 0x461BCD PUSH1 0xE5 SHL DUP2 MSTORE PUSH1 0x20 PUSH1 0x4 DUP3 ADD MSTORE PUSH1 0xF PUSH1 0x24 DUP3 ADD MSTORE PUSH15 0x496E76616C69642061646472657373 PUSH1 0x88 SHL PUSH1 0x44 DUP3 ADD MSTORE PUSH1 0x64 SWAP1 REVERT JUMPDEST DUP1 ISZERO PUSH2 0x31F6 JUMPI PUSH1 0x0 NOT ADD SWAP1 JUMP JUMPDEST SWAP1 DUP2 PUSH1 0x20 SWAP2 SUB SLT PUSH2 0x2E3C JUMPI MLOAD DUP1 ISZERO ISZERO DUP2 SUB PUSH2 0x2E3C JUMPI SWAP1 JUMP JUMPDEST PUSH1 0x8 DUP3 LT ISZERO PUSH2 0x2E4E JUMPI MSTORE JUMP JUMPDEST PUSH1 0x2 SLOAD DUP1 ISZERO PUSH2 0x3959 JUMPI PUSH3 0x4F19FF NOT TIMESTAMP ADD TIMESTAMP DUP2 GT PUSH2 0x31F6 JUMPI PUSH3 0x278CFF NOT TIMESTAMP ADD TIMESTAMP DUP2 GT PUSH2 0x31F6 JUMPI PUSH1 0x0 SWAP3 SWAP2 DUP3 DUP1 JUMPDEST PUSH2 0x386A JUMPI JUMPDEST POP PUSH2 0x36FF DUP5 PUSH2 0x3223 JUMP JUMPDEST PUSH2 0x3708 DUP6 PUSH2 0x3223 JUMP JUMPDEST SWAP6 PUSH2 0x3712 DUP7 PUSH2 0x3289 JUMP JUMPDEST SWAP5 PUSH1 0x0 SWAP1 JUMPDEST DUP1 ISZERO ISZERO DUP1 PUSH2 0x3861 JUMPI JUMPDEST ISZERO PUSH2 0x3856 JUMPI PUSH1 0x0 NOT ADD SWAP1 PUSH2 0x3733 DUP3 PUSH2 0x2FB7 JUMP JUMPDEST PUSH1 0x1 DUP1 PUSH1 0xA0 SHL SUB SWAP2 SLOAD SWAP1 PUSH1 0x3 SHL SHR AND DUP1 PUSH1 0x0 MSTORE PUSH1 0xD PUSH1 0x20 MSTORE PUSH1 0xFF PUSH1 0x40 PUSH1 0x0 KECCAK256 SLOAD AND PUSH1 0x40 MLOAD PUSH4 0x1F385F79 PUSH1 0xE2 SHL DUP2 MSTORE PUSH1 0x0 DUP2 PUSH1 0x4 DUP2 DUP7 GAS STATICCALL SWAP1 DUP2 ISZERO PUSH2 0x384A JUMPI DUP13 SWAP2 DUP11 SWAP2 PUSH1 0x0 SWAP2 PUSH2 0x3831 JUMPI JUMPDEST POP DUP10 PUSH2 0x120 DUP3 ADD DUP2 DUP2 MLOAD LT DUP1 PUSH2 0x380A JUMPI JUMPDEST ISZERO PUSH2 0x37FF JUMPI POP POP PUSH2 0x140 ADD MLOAD LT JUMPDEST PUSH2 0x37F0 JUMPI DUP3 SWAP2 PUSH2 0x2303 DUP6 PUSH2 0x37BE SWAP4 DUP2 SWAP7 PUSH2 0x37B8 PUSH1 0x1 SWAP10 DUP14 PUSH2 0x32D3 JUMP JUMPDEST MSTORE PUSH2 0x32D3 JUMP JUMPDEST PUSH1 0x0 MSTORE PUSH1 0x10 PUSH1 0x20 MSTORE PUSH2 0x37D3 PUSH1 0x40 PUSH1 0x0 KECCAK256 PUSH2 0x30F6 JUMP JUMPDEST PUSH2 0x37DD DUP3 DUP11 PUSH2 0x32D3 JUMP JUMPDEST MSTORE PUSH2 0x37E8 DUP2 DUP10 PUSH2 0x32D3 JUMP JUMPDEST POP ADD SWAP1 PUSH2 0x3717 JUMP JUMPDEST POP SWAP5 SWAP10 SWAP9 POP SWAP3 SWAP6 POP POP POP POP POP POP JUMP JUMPDEST SWAP2 POP SWAP2 POP MLOAD LT PUSH2 0x379C JUMP JUMPDEST POP SWAP3 POP POP SWAP2 POP PUSH1 0x8 DUP4 LT ISZERO PUSH2 0x2E4E JUMPI DUP13 SWAP2 DUP10 DUP12 SWAP3 PUSH1 0x6 DUP7 EQ DUP1 PUSH2 0x378E JUMPI POP PUSH1 0x7 DUP7 EQ PUSH2 0x378E JUMP JUMPDEST PUSH2 0x3844 SWAP2 RETURNDATASIZE DUP1 SWAP2 DUP4 RETURNDATACOPY PUSH2 0x2A2C DUP2 DUP4 PUSH2 0x30D5 JUMP JUMPDEST CODESIZE PUSH2 0x377D JUMP JUMPDEST PUSH1 0x40 MLOAD RETURNDATASIZE PUSH1 0x0 DUP3 RETURNDATACOPY RETURNDATASIZE SWAP1 REVERT JUMPDEST POP SWAP2 SWAP7 SWAP6 POP SWAP3 POP POP POP JUMP JUMPDEST POP DUP8 DUP3 LT PUSH2 0x3720 JUMP JUMPDEST PUSH1 0x0 SWAP5 SWAP4 SWAP5 NOT ADD SWAP3 PUSH2 0x387B DUP5 PUSH2 0x2FB7 JUMP JUMPDEST PUSH1 0x1 DUP1 PUSH1 0xA0 SHL SUB SWAP2 SLOAD SWAP1 PUSH1 0x3 SHL SHR AND DUP1 PUSH1 0x0 MSTORE PUSH1 0xD PUSH1 0x20 MSTORE PUSH1 0x4 PUSH1 0x0 PUSH1 0xFF PUSH1 0x40 DUP3 KECCAK256 SLOAD AND SWAP3 PUSH1 0x40 MLOAD SWAP3 DUP4 DUP1 SWAP3 PUSH4 0x1F385F79 PUSH1 0xE2 SHL DUP3 MSTORE GAS STATICCALL SWAP1 DUP2 ISZERO PUSH2 0x384A JUMPI DUP6 SWAP3 DUP6 SWAP2 PUSH1 0x0 SWAP4 PUSH2 0x393E JUMPI JUMPDEST POP PUSH2 0x120 DUP4 ADD SWAP1 DUP3 DUP3 MLOAD LT SWAP1 DUP2 PUSH2 0x390E JUMPI JUMPDEST POP ISZERO PUSH2 0x3903 JUMPI POP POP PUSH2 0x140 ADD MLOAD LT JUMPDEST PUSH2 0x38FC JUMPI PUSH2 0x38F5 DUP5 SWAP2 PUSH2 0x31E7 JUMP JUMPDEST SWAP5 SWAP4 PUSH2 0x36F0 JUMP JUMPDEST SWAP4 SWAP3 PUSH2 0x36F5 JUMP JUMPDEST SWAP2 POP SWAP2 POP MLOAD LT PUSH2 0x38E7 JUMP JUMPDEST SWAP3 POP POP SWAP3 POP PUSH1 0x8 DUP2 LT ISZERO PUSH2 0x2E4E JUMPI DUP6 SWAP3 DUP2 PUSH1 0x6 DUP8 SWAP4 EQ SWAP1 DUP2 ISZERO PUSH2 0x3933 JUMPI JUMPDEST POP CODESIZE PUSH2 0x38D8 JUMP JUMPDEST PUSH1 0x7 SWAP2 POP EQ CODESIZE PUSH2 0x392C JUMP JUMPDEST PUSH2 0x3952 SWAP2 SWAP4 RETURNDATASIZE DUP1 SWAP2 DUP4 RETURNDATACOPY PUSH2 0x2A2C DUP2 DUP4 PUSH2 0x30D5 JUMP JUMPDEST SWAP2 CODESIZE PUSH2 0x38C6 JUMP JUMPDEST POP PUSH1 0x40 MLOAD PUSH1 0x20 SWAP2 PUSH2 0x396A DUP4 DUP4 PUSH2 0x30D5 JUMP JUMPDEST PUSH1 0x0 DUP3 MSTORE PUSH1 0x0 CALLDATASIZE DUP2 CALLDATACOPY PUSH1 0x40 MLOAD SWAP3 PUSH2 0x3981 DUP2 DUP6 PUSH2 0x30D5 JUMP JUMPDEST PUSH1 0x0 DUP5 MSTORE POP PUSH1 0x0 CALLDATASIZE DUP2 CALLDATACOPY PUSH2 0x3993 PUSH2 0x3255 JUMP JUMPDEST SWAP2 SWAP3 SWAP2 SWAP1 JUMP JUMPDEST PUSH1 0x8 SLOAD DUP1 ISZERO PUSH2 0x39FB JUMPI PUSH3 0x15180 DUP2 ADD SWAP2 DUP3 DUP3 GT PUSH2 0x31F6 JUMPI DUP3 TIMESTAMP LT ISZERO PUSH2 0x39E0 JUMPI PUSH1 0x9 SLOAD PUSH1 0xA SLOAD PUSH1 0x1 PUSH1 0x1 PUSH1 0xA0 SHL SUB SWAP1 DUP2 AND SWAP5 SWAP2 AND SWAP2 SWAP1 PUSH2 0x39D9 SWAP1 TIMESTAMP SWAP1 PUSH2 0x3648 JUMP JUMPDEST SWAP2 SWAP4 SWAP3 SWAP2 SWAP1 JUMP JUMPDEST PUSH1 0x9 SLOAD PUSH1 0xA SLOAD PUSH1 0x1 PUSH1 0x1 PUSH1 0xA0 SHL SUB SWAP2 DUP3 AND SWAP5 POP AND SWAP2 SWAP1 PUSH1 0x0 SWAP1 JUMP JUMPDEST POP PUSH1 0x0 SWAP1 PUSH1 0x0 SWAP1 PUSH1 0x0 SWAP1 PUSH1 0x0 SWAP1 JUMP JUMPDEST PUSH1 0x1 PUSH1 0x1 PUSH1 0xA0 SHL SUB AND PUSH1 0x0 SWAP1 DUP2 MSTORE PUSH1 0xF PUSH1 0x20 MSTORE PUSH1 0x40 DUP2 KECCAK256 DUP1 SLOAD DUP3 SWAP2 DUP3 SWAP2 DUP3 SWAP2 DUP3 JUMPDEST DUP3 DUP2 LT PUSH2 0x3AF2 JUMPI POP POP POP PUSH1 0x3 SLOAD SWAP2 PUSH1 0xFF DUP4 AND GT SWAP1 PUSH1 0xFF DUP3 ISZERO SWAP4 PUSH1 0x8 SHR AND GT SWAP2 DUP3 ISZERO SWAP3 DUP3 DUP1 PUSH2 0x3AEB JUMPI JUMPDEST PUSH2 0x3ADD JUMPI DUP2 PUSH2 0x3AD5 JUMPI JUMPDEST POP PUSH2 0x3AC9 JUMPI DUP2 PUSH2 0x3AC1 JUMPI JUMPDEST POP PUSH2 0x3AB7 JUMPI PUSH3 0x93A80 DUP2 ADD DUP1 SWAP2 GT PUSH2 0x31F6 JUMPI PUSH2 0x3A86 SWAP1 TIMESTAMP SWAP1 PUSH2 0x3648 JUMP JUMPDEST SWAP1 PUSH3 0x278D00 DUP2 ADD DUP1 SWAP2 GT PUSH2 0x31F6 JUMPI PUSH2 0x3A9F SWAP1 TIMESTAMP SWAP1 PUSH2 0x3648 JUMP JUMPDEST GT ISZERO PUSH2 0x3AAF JUMPI PUSH1 0x2 SWAP1 JUMPDEST PUSH1 0x0 SWAP2 SWAP1 JUMP JUMPDEST PUSH1 0x1 SWAP1 PUSH2 0x3AA9 JUMP JUMPDEST POP POP PUSH1 0x0 SWAP1 PUSH1 0x2 SWAP1 JUMP JUMPDEST SWAP1 POP CODESIZE PUSH2 0x3A69 JUMP JUMPDEST POP POP POP POP PUSH1 0x0 SWAP1 PUSH1 0x1 SWAP1 JUMP JUMPDEST SWAP1 POP CODESIZE PUSH2 0x3A5E JUMP JUMPDEST POP POP POP POP POP POP PUSH1 0x1 SWAP1 PUSH1 0x0 SWAP1 JUMP JUMPDEST POP DUP1 PUSH2 0x3A54 JUMP JUMPDEST PUSH2 0x3AFC DUP2 DUP4 PUSH2 0x2FE8 JUMP JUMPDEST SWAP1 SLOAD SWAP1 PUSH1 0x3 SHL SHR PUSH3 0x278D00 DUP2 ADD DUP1 DUP3 GT PUSH2 0x31F6 JUMPI TIMESTAMP LT PUSH2 0x3B20 JUMPI JUMPDEST POP PUSH1 0x1 ADD PUSH2 0x3A2B JUMP JUMPDEST SWAP4 PUSH2 0x3B2A SWAP1 PUSH2 0x31E7 JUMP JUMPDEST SWAP4 DUP8 ISZERO DUP1 ISZERO PUSH2 0x3B80 JUMPI JUMPDEST PUSH2 0x3B78 JUMPI JUMPDEST PUSH3 0x93A80 DUP2 ADD DUP1 DUP3 GT PUSH2 0x31F6 JUMPI TIMESTAMP LT ISZERO PUSH2 0x3B17 JUMPI SWAP5 PUSH2 0x3B57 SWAP1 PUSH2 0x31E7 JUMP JUMPDEST SWAP5 DUP7 ISZERO DUP1 ISZERO PUSH2 0x3B6F JUMPI JUMPDEST ISZERO PUSH2 0x3B17 JUMPI SWAP6 POP PUSH1 0x1 PUSH2 0x3B17 JUMP JUMPDEST POP DUP7 DUP2 LT PUSH2 0x3B61 JUMP JUMPDEST SWAP7 POP DUP7 PUSH2 0x3B39 JUMP JUMPDEST POP DUP8 DUP2 LT PUSH2 0x3B34 JUMP JUMPDEST ISZERO PUSH2 0x3B90 JUMPI JUMP JUMPDEST PUSH1 0x40 MLOAD PUSH3 0x461BCD PUSH1 0xE5 SHL DUP2 MSTORE PUSH1 0x20 PUSH1 0x4 DUP3 ADD MSTORE PUSH1 0x36 PUSH1 0x24 DUP3 ADD MSTORE PUSH32 0x4D697373696F6E466163746F72793A2063616C6C6572206973206E6F74206120 PUSH1 0x44 DUP3 ADD MSTORE PUSH22 0x1D985B1A59081B5A5CDCDA5BDB8818DBDB9D1C9858DD PUSH1 0x52 SHL PUSH1 0x64 DUP3 ADD MSTORE PUSH1 0x84 SWAP1 REVERT JUMPDEST DUP1 SLOAD DUP1 ISZERO PUSH2 0x3C1D JUMPI PUSH1 0x0 NOT ADD SWAP1 PUSH2 0x3C0B DUP3 DUP3 PUSH2 0x2FE8 JUMP JUMPDEST DUP2 SLOAD SWAP1 PUSH1 0x0 NOT SWAP1 PUSH1 0x3 SHL SHL NOT AND SWAP1 SSTORE SSTORE JUMP JUMPDEST PUSH4 0x4E487B71 PUSH1 0xE0 SHL PUSH1 0x0 MSTORE PUSH1 0x31 PUSH1 0x4 MSTORE PUSH1 0x24 PUSH1 0x0 REVERT JUMPDEST PUSH1 0x1 PUSH1 0x1 PUSH1 0xA0 SHL SUB AND SWAP2 SWAP1 DUP3 ISZERO PUSH2 0x3D2A JUMPI DUP3 PUSH1 0x0 MSTORE PUSH1 0xF PUSH1 0x20 MSTORE PUSH1 0x40 PUSH1 0x0 KECCAK256 SWAP3 DUP4 SLOAD SWAP1 DUP2 ISZERO PUSH2 0x3D23 JUMPI PUSH1 0x0 JUMPDEST DUP3 DUP2 LT PUSH2 0x3C6E JUMPI POP POP POP POP POP POP JUMP JUMPDEST PUSH2 0x3C78 DUP2 DUP8 PUSH2 0x2FE8 JUMP JUMPDEST SWAP1 SLOAD SWAP1 PUSH1 0x3 SHL SHR DUP5 DUP2 LT ISZERO DUP1 PUSH2 0x3D19 JUMPI JUMPDEST PUSH2 0x3C96 JUMPI POP PUSH1 0x1 ADD PUSH2 0x3C5F JUMP JUMPDEST SWAP6 SWAP7 SWAP4 POP SWAP1 SWAP2 SWAP4 POP JUMPDEST PUSH1 0x1 DUP2 ADD DUP1 DUP3 GT PUSH2 0x31F6 JUMPI DUP5 DUP2 LT ISZERO PUSH2 0x3CDE JUMPI SWAP1 PUSH2 0x3CD4 PUSH2 0x3CC3 PUSH2 0x3CD9 SWAP4 DUP10 PUSH2 0x2FE8 JUMP JUMPDEST SWAP1 SLOAD SWAP1 PUSH1 0x3 SHL SHR PUSH2 0x1639 DUP4 DUP11 PUSH2 0x2FE8 JUMP JUMPDEST PUSH2 0x31E7 JUMP JUMPDEST PUSH2 0x3C9F JUMP JUMPDEST POP POP SWAP3 PUSH32 0x1529614EC434373BEB3B1A50817EFD69E07A771B06EB9950B86A7F01D783AAB SWAP3 POP PUSH2 0x3D10 PUSH1 0x20 SWAP3 SWAP6 PUSH2 0x3BF4 JUMP JUMPDEST PUSH1 0x40 MLOAD SWAP1 DUP2 MSTORE LOG2 JUMP JUMPDEST POP DUP6 DUP2 GT ISZERO PUSH2 0x3C89 JUMP JUMPDEST POP POP POP POP POP JUMP JUMPDEST PUSH1 0x40 MLOAD PUSH3 0x461BCD PUSH1 0xE5 SHL DUP2 MSTORE PUSH1 0x20 PUSH1 0x4 DUP3 ADD MSTORE PUSH1 0xC PUSH1 0x24 DUP3 ADD MSTORE PUSH12 0x24B73B30B634B2103AB9B2B9 PUSH1 0xA1 SHL PUSH1 0x44 DUP3 ADD MSTORE PUSH1 0x64 SWAP1 REVERT JUMPDEST SWAP1 SWAP2 PUSH1 0x2 SLOAD SWAP3 DUP4 DUP4 LT ISZERO PUSH2 0x3F11 JUMPI PUSH2 0x3D76 SWAP1 DUP4 PUSH2 0x363B JUMP JUMPDEST SWAP3 DUP1 DUP5 GT PUSH2 0x3F09 JUMPI JUMPDEST POP PUSH1 0x0 SWAP3 DUP3 JUMPDEST DUP2 DUP2 LT PUSH2 0x3E89 JUMPI POP PUSH2 0x3D96 DUP5 PUSH2 0x3223 JUMP JUMPDEST SWAP1 PUSH2 0x3DA3 PUSH2 0x2232 DUP7 PUSH2 0x3223 JUMP JUMPDEST SWAP4 PUSH1 0x0 SWAP1 JUMPDEST DUP3 DUP2 LT PUSH2 0x3DB7 JUMPI POP POP POP SWAP3 SWAP2 SWAP1 JUMP JUMPDEST PUSH2 0x3DC0 DUP2 PUSH2 0x2FB7 JUMP JUMPDEST SWAP1 SLOAD PUSH1 0x3 SWAP2 SWAP1 SWAP2 SHL SHR PUSH1 0x1 PUSH1 0x1 PUSH1 0xA0 SHL SUB AND PUSH1 0x0 DUP2 DUP2 MSTORE PUSH1 0xD PUSH1 0x20 MSTORE PUSH1 0x40 SWAP1 KECCAK256 SLOAD PUSH1 0xFF AND PUSH1 0x8 DUP2 LT ISZERO DUP1 PUSH2 0x2E4E JUMPI PUSH1 0x5 DUP3 EQ DUP1 ISZERO PUSH2 0x3E7C JUMPI JUMPDEST DUP2 DUP2 ISZERO PUSH2 0x3E6C JUMPI JUMPDEST POP PUSH2 0x3E12 JUMPI JUMPDEST POP POP POP PUSH1 0x1 ADD PUSH2 0x3DA8 JUMP JUMPDEST DUP3 PUSH2 0x3E22 DUP7 DUP10 SWAP8 SWAP5 SWAP6 SWAP7 SWAP8 PUSH2 0x32D3 JUMP JUMPDEST MSTORE PUSH2 0x2E4E JUMPI PUSH1 0x1 SWAP3 DUP4 SWAP3 PUSH2 0x3E36 DUP4 DUP13 PUSH2 0x32D3 JUMP JUMPDEST MSTORE PUSH1 0x0 MSTORE PUSH1 0x10 PUSH1 0x20 MSTORE PUSH2 0x3E4C PUSH1 0x40 PUSH1 0x0 KECCAK256 PUSH2 0x30F6 JUMP JUMPDEST PUSH2 0x3E56 DUP3 DUP11 PUSH2 0x32D3 JUMP JUMPDEST MSTORE PUSH2 0x3E61 DUP2 DUP10 PUSH2 0x32D3 JUMP JUMPDEST POP ADD SWAP2 SWAP1 CODESIZE DUP1 PUSH2 0x3E07 JUMP JUMPDEST SWAP1 POP PUSH2 0x2E4E JUMPI PUSH1 0x7 DUP3 EQ DUP2 PUSH2 0x3E01 JUMP JUMPDEST POP POP PUSH1 0x0 PUSH1 0x6 DUP3 EQ PUSH2 0x3DF9 JUMP JUMPDEST PUSH2 0x3E92 DUP2 PUSH2 0x2FB7 JUMP JUMPDEST PUSH1 0x1 DUP1 PUSH1 0xA0 SHL SUB SWAP2 SLOAD SWAP1 PUSH1 0x3 SHL SHR AND PUSH1 0x0 MSTORE PUSH1 0xD PUSH1 0x20 MSTORE PUSH1 0xFF PUSH1 0x40 PUSH1 0x0 KECCAK256 SLOAD AND PUSH1 0x8 DUP2 LT ISZERO SWAP1 DUP2 PUSH2 0x2E4E JUMPI PUSH1 0x5 DUP2 EQ SWAP2 DUP3 ISZERO PUSH2 0x3EFB JUMPI JUMPDEST DUP3 ISZERO PUSH2 0x3EEA JUMPI JUMPDEST POP POP PUSH2 0x3EDF JUMPI JUMPDEST PUSH1 0x1 ADD PUSH2 0x3D85 JUMP JUMPDEST PUSH1 0x1 SWAP1 SWAP5 ADD SWAP4 PUSH2 0x3ED7 JUMP JUMPDEST SWAP1 SWAP2 POP PUSH2 0x2E4E JUMPI PUSH1 0x7 EQ CODESIZE DUP1 PUSH2 0x3ED0 JUMP JUMPDEST POP PUSH1 0x6 DUP2 EQ SWAP2 POP PUSH1 0x0 PUSH2 0x3EC9 JUMP JUMPDEST SWAP3 POP CODESIZE PUSH2 0x3D7F JUMP JUMPDEST POP PUSH1 0x40 MLOAD PUSH1 0x20 SWAP4 POP SWAP2 POP PUSH2 0x396A DUP4 DUP4 PUSH2 0x30D5 JUMP JUMPDEST PUSH1 0x0 SLOAD PUSH1 0x1 PUSH1 0x1 PUSH1 0xA0 SHL SUB AND CALLER SUB PUSH2 0x3F39 JUMPI JUMP JUMPDEST PUSH4 0x118CDAA7 PUSH1 0xE0 SHL PUSH1 0x0 MSTORE CALLER PUSH1 0x4 MSTORE PUSH1 0x24 PUSH1 0x0 REVERT JUMPDEST PUSH1 0x2 PUSH1 0x1 SLOAD EQ PUSH2 0x3F5F JUMPI PUSH1 0x2 PUSH1 0x1 SSTORE JUMP JUMPDEST PUSH4 0x3EE5AEB5 PUSH1 0xE0 SHL PUSH1 0x0 MSTORE PUSH1 0x4 PUSH1 0x0 REVERT JUMPDEST PUSH1 0x0 DUP1 SLOAD PUSH1 0x1 PUSH1 0x1 PUSH1 0xA0 SHL SUB SWAP3 DUP4 AND PUSH1 0x1 PUSH1 0x1 PUSH1 0xA0 SHL SUB NOT DUP3 AND DUP2 OR DUP4 SSTORE SWAP3 AND SWAP1 PUSH32 0x8BE0079C531659141344CD1FD0A4F28419497F9722A3DAAFE3B4186F6B6457E0 SWAP1 DUP1 LOG3 JUMP JUMPDEST PUSH1 0x7 DUP2 LT ISZERO PUSH2 0x2E4E JUMPI PUSH1 0x1 DUP2 EQ PUSH2 0x40E1 JUMPI PUSH1 0x0 PUSH1 0x2 DUP3 EQ PUSH2 0x40B4 JUMPI POP PUSH1 0x3 DUP2 EQ PUSH2 0x408E JUMPI PUSH1 0x0 PUSH1 0x4 DUP3 EQ PUSH2 0x4068 JUMPI POP PUSH1 0x5 DUP2 EQ PUSH2 0x4043 JUMPI PUSH1 0x6 PUSH1 0x0 SWAP2 EQ PUSH2 0x401D JUMPI POP PUSH1 0x40 MLOAD PUSH2 0x4007 PUSH1 0x40 DUP3 PUSH2 0x30D5 JUMP JUMPDEST PUSH1 0x6 DUP2 MSTORE PUSH6 0x437573746F6D PUSH1 0xD0 SHL PUSH1 0x20 DUP3 ADD MSTORE SWAP1 JUMP JUMPDEST POP PUSH1 0x40 MLOAD PUSH2 0x402C PUSH1 0x40 DUP3 PUSH2 0x30D5 JUMP JUMPDEST PUSH1 0x7 DUP2 MSTORE PUSH7 0x4D6F6E74686C79 PUSH1 0xC8 SHL PUSH1 0x20 DUP3 ADD MSTORE SWAP1 JUMP JUMPDEST POP PUSH1 0x40 MLOAD PUSH2 0x4052 PUSH1 0x40 DUP3 PUSH2 0x30D5 JUMP JUMPDEST PUSH1 0x6 DUP2 MSTORE PUSH6 0x5765656B6C79 PUSH1 0xD0 SHL PUSH1 0x20 DUP3 ADD MSTORE SWAP1 JUMP JUMPDEST POP POP PUSH1 0x40 DUP1 MLOAD SWAP1 PUSH2 0x4079 SWAP1 DUP3 PUSH2 0x30D5 JUMP JUMPDEST PUSH1 0x5 DUP2 MSTORE PUSH5 0x4461696C79 PUSH1 0xD8 SHL PUSH1 0x20 DUP3 ADD MSTORE SWAP1 JUMP JUMPDEST POP PUSH1 0x40 MLOAD PUSH2 0x409D PUSH1 0x40 DUP3 PUSH2 0x30D5 JUMP JUMPDEST PUSH1 0x7 DUP2 MSTORE PUSH7 0x42694461696C79 PUSH1 0xC8 SHL PUSH1 0x20 DUP3 ADD MSTORE SWAP1 JUMP JUMPDEST POP POP PUSH1 0x40 DUP1 MLOAD SWAP1 PUSH2 0x40C5 SWAP1 DUP3 PUSH2 0x30D5 JUMP JUMPDEST PUSH1 0xC DUP2 MSTORE PUSH12 0x517561727465724461696C79 PUSH1 0xA0 SHL PUSH1 0x20 DUP3 ADD MSTORE SWAP1 JUMP JUMPDEST POP PUSH1 0x40 MLOAD PUSH2 0x40F0 PUSH1 0x40 DUP3 PUSH2 0x30D5 JUMP JUMPDEST PUSH1 0x6 DUP2 MSTORE PUSH6 0x486F75726C79 PUSH1 0xD0 SHL PUSH1 0x20 DUP3 ADD MSTORE SWAP1 JUMP INVALID LOG2 PUSH5 0x6970667358 0x22 SLT KECCAK256 0xA9 CALLDATACOPY JUMPI PUSH27 0x2E4BFACD33EB31FA4A63923965F8ABFDF5DF32BB4F60A1C84F84B6 PUSH29 0x64736F6C634300081E0033000000000000000000000000000000000000 "},"methodIdentifiers":{"OWNERSHIP_PROPOSAL_WINDOW()":"d3050eba","addAuthorizedAddress(address)":"42f1181e","authorized(address)":"b9181611","canEnroll(address)":"9804a586","confirmOwnershipTransfer()":"7200b829","createMission(uint8,uint256,uint256,uint256,uint8,uint8,uint8,uint8,uint256,uint256,uint8,string)":"ea507dad","getAllMissions()":"6d8a1390","getFactorySummary()":"e5047770","getFundsByType(uint8)":"2e33b07f","getLatestMissions(uint256)":"7e9eae50","getMissionData(address)":"20c5718f","getMissionsByStatus(uint8)":"1e59d584","getMissionsEnded()":"b6202913","getMissionsEndedPaged(uint256,uint256)":"f225b56d","getMissionsNotEnded()":"6805036d","getOwnershipProposal()":"8c09b7c3","getPlayerLimits(address)":"cbf2080d","getPlayerParticipation(address)":"503c0b88","getTotalMissions()":"5c5bb6f2","isMission(address)":"aa1f0595","missionImplementation()":"bd487725","missionNames(address)":"b6de7b43","missionStatus(address)":"0814ab82","missionTypeCounts(uint8)":"f08e231e","missions(uint256)":"2c8fe526","monthlyLimit()":"0a6005da","owner()":"8da5cb5b","proposalProposer()":"2d771f30","proposalTimestamp()":"04a61752","proposeOwnershipTransfer(address)":"21040fc3","proposedNewOwner()":"0fc8c4ed","recordEnrollment(address)":"c17f9e59","registerMissionFunds(uint8)":"a9bea789","removeAuthorizedAddress(address)":"70712939","renounceOwnership()":"715018a6","reservedFunds(uint8)":"c416ad2a","reservedFundsBreakdown()":"df4db463","secondsTillMonthlySlot(address)":"37012762","secondsTillWeeklySlot(address)":"eff0ab92","setEnrollmentLimits(uint8,uint8)":"d41eca64","setMissionStatus(uint8)":"d8d6e8ff","totalMissionFailures()":"83fbea51","totalMissionFunds()":"63679723","totalMissionSuccesses()":"c892fde3","totalOwnerEarnedFunds()":"3589cf72","transferOwnership(address)":"f2fde38b","undoEnrollmentInWindow(address,uint256,uint256)":"98d05c3e","weeklyLimit()":"861a68d6","withdrawFunds(uint256)":"155dd5ee"}}}}}