{"contracts/MissionFactory.sol":{"Mission":{"abi":[{"inputs":[],"stateMutability":"nonpayable","type":"constructor"},{"inputs":[],"name":"AllRoundsDone","type":"error"},{"inputs":[],"name":"AlreadyJoined","type":"error"},{"inputs":[],"name":"AlreadyWon","type":"error"},{"inputs":[],"name":"ContractsNotAllowed","type":"error"},{"inputs":[{"internalType":"uint256","name":"secondsLeft","type":"uint256"}],"name":"Cooldown","type":"error"},{"inputs":[{"internalType":"uint256","name":"nowTs","type":"uint256"},{"internalType":"uint256","name":"endTs","type":"uint256"}],"name":"EnrollmentClosed","type":"error"},{"inputs":[{"internalType":"uint256","name":"nowTs","type":"uint256"},{"internalType":"uint256","name":"startTs","type":"uint256"}],"name":"EnrollmentNotStarted","type":"error"},{"inputs":[{"internalType":"uint8","name":"maxPlayers","type":"uint8"}],"name":"MaxPlayers","type":"error"},{"inputs":[],"name":"MissionEnded","type":"error"},{"inputs":[{"internalType":"uint256","name":"secondsLeft","type":"uint256"}],"name":"MonthlyLimit","type":"error"},{"inputs":[{"internalType":"uint256","name":"nowTs","type":"uint256"},{"internalType":"uint256","name":"missionStart","type":"uint256"}],"name":"NotActive","type":"error"},{"inputs":[],"name":"NotJoined","type":"error"},{"inputs":[{"internalType":"address","name":"owner","type":"address"}],"name":"OwnableInvalidOwner","type":"error"},{"inputs":[{"internalType":"address","name":"account","type":"address"}],"name":"OwnableUnauthorizedAccount","type":"error"},{"inputs":[{"internalType":"address","name":"winner","type":"address"},{"internalType":"uint256","name":"amount","type":"uint256"},{"internalType":"bytes","name":"data","type":"bytes"}],"name":"PayoutFailed","type":"error"},{"inputs":[],"name":"ReentrancyGuardReentrantCall","type":"error"},{"inputs":[{"internalType":"uint256","name":"secondsLeft","type":"uint256"}],"name":"WeeklyLimit","type":"error"},{"inputs":[{"internalType":"uint256","name":"expected","type":"uint256"},{"internalType":"uint256","name":"sent","type":"uint256"}],"name":"WrongEntryFee","type":"error"},{"anonymous":false,"inputs":[{"indexed":false,"internalType":"uint256","name":"ownerAmount","type":"uint256"},{"indexed":false,"internalType":"uint256","name":"factoryAmount","type":"uint256"}],"name":"FundsWithdrawn","type":"event"},{"anonymous":false,"inputs":[{"indexed":true,"internalType":"address","name":"owner","type":"address"},{"indexed":true,"internalType":"enum MissionType","name":"missionType","type":"uint8"},{"indexed":false,"internalType":"uint256","name":"timestamp","type":"uint256"}],"name":"MissionInitialized","type":"event"},{"anonymous":false,"inputs":[{"indexed":true,"internalType":"uint256","name":"nrOfPlayers","type":"uint256"},{"indexed":true,"internalType":"uint256","name":"amount","type":"uint256"},{"indexed":false,"internalType":"address[]","name":"player","type":"address[]"},{"indexed":false,"internalType":"uint256","name":"timestamp","type":"uint256"}],"name":"MissionRefunded","type":"event"},{"anonymous":false,"inputs":[{"indexed":true,"internalType":"enum Status","name":"previousStatus","type":"uint8"},{"indexed":true,"internalType":"enum Status","name":"newStatus","type":"uint8"},{"indexed":false,"internalType":"uint256","name":"timestamp","type":"uint256"}],"name":"MissionStatusChanged","type":"event"},{"anonymous":false,"inputs":[{"indexed":true,"internalType":"address","name":"previousOwner","type":"address"},{"indexed":true,"internalType":"address","name":"newOwner","type":"address"}],"name":"OwnershipTransferred","type":"event"},{"anonymous":false,"inputs":[{"indexed":true,"internalType":"address","name":"player","type":"address"},{"indexed":false,"internalType":"uint256","name":"amount","type":"uint256"},{"indexed":false,"internalType":"uint256","name":"totalPlayers","type":"uint256"}],"name":"PlayerEnrolled","type":"event"},{"anonymous":false,"inputs":[{"indexed":true,"internalType":"address","name":"player","type":"address"},{"indexed":false,"internalType":"uint256","name":"amount","type":"uint256"}],"name":"PlayerRefunded","type":"event"},{"anonymous":false,"inputs":[{"indexed":false,"internalType":"uint256","name":"value","type":"uint256"},{"indexed":false,"internalType":"uint256","name":"croCurrent","type":"uint256"}],"name":"PotIncreased","type":"event"},{"anonymous":false,"inputs":[{"indexed":true,"internalType":"address","name":"player","type":"address"},{"indexed":false,"internalType":"uint256","name":"amount","type":"uint256"}],"name":"RefundFailed","type":"event"},{"anonymous":false,"inputs":[{"indexed":true,"internalType":"address","name":"player","type":"address"},{"indexed":true,"internalType":"uint8","name":"roundNumber","type":"uint8"},{"indexed":false,"internalType":"uint256","name":"payout","type":"uint256"},{"indexed":false,"internalType":"uint256","name":"croRemaining","type":"uint256"}],"name":"RoundCalled","type":"event"},{"inputs":[],"name":"callRound","outputs":[],"stateMutability":"nonpayable","type":"function"},{"inputs":[],"name":"checkMissionStartCondition","outputs":[],"stateMutability":"nonpayable","type":"function"},{"inputs":[],"name":"currentProgressPct","outputs":[{"internalType":"uint256","name":"","type":"uint256"}],"stateMutability":"view","type":"function"},{"inputs":[],"name":"enrollPlayer","outputs":[],"stateMutability":"payable","type":"function"},{"inputs":[{"internalType":"address","name":"","type":"address"}],"name":"enrolled","outputs":[{"internalType":"bool","name":"","type":"bool"}],"stateMutability":"view","type":"function"},{"inputs":[],"name":"factoryShare","outputs":[{"internalType":"uint256","name":"","type":"uint256"}],"stateMutability":"view","type":"function"},{"inputs":[{"internalType":"address","name":"","type":"address"}],"name":"failedRefundAmounts","outputs":[{"internalType":"uint256","name":"","type":"uint256"}],"stateMutability":"view","type":"function"},{"inputs":[],"name":"forceFinalizeMission","outputs":[],"stateMutability":"nonpayable","type":"function"},{"inputs":[],"name":"getFailedRefundPlayers","outputs":[{"internalType":"address[]","name":"","type":"address[]"}],"stateMutability":"view","type":"function"},{"inputs":[],"name":"getIndexerSnapshot","outputs":[{"internalType":"uint8","name":"status","type":"uint8"},{"internalType":"uint8","name":"roundCount","type":"uint8"},{"internalType":"uint256","name":"croCurrent","type":"uint256"},{"internalType":"uint32","name":"playersCount","type":"uint32"},{"internalType":"uint32","name":"winnersCount","type":"uint32"},{"internalType":"uint32","name":"refundedCount","type":"uint32"}],"stateMutability":"view","type":"function"},{"inputs":[],"name":"getMissionData","outputs":[{"components":[{"internalType":"address[]","name":"players","type":"address[]"},{"internalType":"enum MissionType","name":"missionType","type":"uint8"},{"internalType":"uint256","name":"enrollmentStart","type":"uint256"},{"internalType":"uint256","name":"enrollmentEnd","type":"uint256"},{"internalType":"uint256","name":"enrollmentAmount","type":"uint256"},{"internalType":"uint8","name":"enrollmentMinPlayers","type":"uint8"},{"internalType":"uint8","name":"enrollmentMaxPlayers","type":"uint8"},{"internalType":"uint8","name":"roundPauseDuration","type":"uint8"},{"internalType":"uint8","name":"lastRoundPauseDuration","type":"uint8"},{"internalType":"uint256","name":"missionStart","type":"uint256"},{"internalType":"uint256","name":"missionEnd","type":"uint256"},{"internalType":"uint8","name":"missionRounds","type":"uint8"},{"internalType":"uint8","name":"roundCount","type":"uint8"},{"internalType":"uint256","name":"croStart","type":"uint256"},{"internalType":"uint256","name":"croCurrent","type":"uint256"},{"components":[{"internalType":"address","name":"player","type":"address"},{"internalType":"uint256","name":"amountWon","type":"uint256"}],"internalType":"struct Mission.PlayersWon[]","name":"playersWon","type":"tuple[]"},{"internalType":"uint256","name":"pauseTimestamp","type":"uint256"},{"internalType":"address[]","name":"refundedPlayers","type":"address[]"},{"internalType":"string","name":"name","type":"string"},{"internalType":"uint256","name":"missionCreated","type":"uint256"}],"internalType":"struct Mission.MissionData","name":"","type":"tuple"}],"stateMutability":"view","type":"function"},{"inputs":[],"name":"getPlayerCount","outputs":[{"internalType":"uint256","name":"","type":"uint256"}],"stateMutability":"view","type":"function"},{"inputs":[],"name":"getRealtimeStatus","outputs":[{"internalType":"enum Status","name":"","type":"uint8"}],"stateMutability":"view","type":"function"},{"inputs":[{"internalType":"uint256","name":"offset","type":"uint256"},{"internalType":"uint256","name":"limit","type":"uint256"}],"name":"getRefundedPlayersSlice","outputs":[{"internalType":"address[]","name":"slice","type":"address[]"}],"stateMutability":"view","type":"function"},{"inputs":[],"name":"getWinners","outputs":[{"components":[{"internalType":"address","name":"player","type":"address"},{"internalType":"uint256","name":"amountWon","type":"uint256"}],"internalType":"struct Mission.PlayersWon[]","name":"","type":"tuple[]"}],"stateMutability":"view","type":"function"},{"inputs":[{"internalType":"address","name":"","type":"address"}],"name":"hasWon","outputs":[{"internalType":"bool","name":"","type":"bool"}],"stateMutability":"view","type":"function"},{"inputs":[],"name":"increasePot","outputs":[],"stateMutability":"payable","type":"function"},{"inputs":[{"internalType":"address","name":"_owner","type":"address"},{"internalType":"address","name":"_missionFactory","type":"address"},{"internalType":"enum MissionType","name":"_missionType","type":"uint8"},{"internalType":"uint256","name":"_enrollmentStart","type":"uint256"},{"internalType":"uint256","name":"_enrollmentEnd","type":"uint256"},{"internalType":"uint256","name":"_enrollmentAmount","type":"uint256"},{"internalType":"uint8","name":"_enrollmentMinPlayers","type":"uint8"},{"internalType":"uint8","name":"_enrollmentMaxPlayers","type":"uint8"},{"internalType":"uint8","name":"_roundPauseDuration","type":"uint8"},{"internalType":"uint8","name":"_lastRoundPauseDuration","type":"uint8"},{"internalType":"uint256","name":"_missionStart","type":"uint256"},{"internalType":"uint256","name":"_missionEnd","type":"uint256"},{"internalType":"uint8","name":"_missionRounds","type":"uint8"},{"internalType":"string","name":"_name","type":"string"}],"name":"initialize","outputs":[],"stateMutability":"payable","type":"function"},{"inputs":[],"name":"isArming","outputs":[{"internalType":"bool","name":"","type":"bool"}],"stateMutability":"view","type":"function"},{"inputs":[],"name":"isFinalized","outputs":[{"internalType":"bool","name":"","type":"bool"}],"stateMutability":"view","type":"function"},{"inputs":[{"internalType":"address","name":"addr","type":"address"}],"name":"isPlayer","outputs":[{"internalType":"bool","name":"","type":"bool"}],"stateMutability":"view","type":"function"},{"inputs":[],"name":"missionFactory","outputs":[{"internalType":"contract MissionFactory","name":"","type":"address"}],"stateMutability":"view","type":"function"},{"inputs":[],"name":"missionStartConditionChecked","outputs":[{"internalType":"bool","name":"","type":"bool"}],"stateMutability":"view","type":"function"},{"inputs":[],"name":"owner","outputs":[{"internalType":"address","name":"","type":"address"}],"stateMutability":"view","type":"function"},{"inputs":[],"name":"ownerShare","outputs":[{"internalType":"uint256","name":"","type":"uint256"}],"stateMutability":"view","type":"function"},{"inputs":[{"internalType":"address","name":"player","type":"address"}],"name":"pendingPayout","outputs":[{"internalType":"uint256","name":"","type":"uint256"}],"stateMutability":"view","type":"function"},{"inputs":[{"internalType":"address","name":"player","type":"address"}],"name":"playerState","outputs":[{"internalType":"bool","name":"joined","type":"bool"},{"internalType":"bool","name":"won","type":"bool"}],"stateMutability":"view","type":"function"},{"inputs":[],"name":"refundPlayers","outputs":[],"stateMutability":"nonpayable","type":"function"},{"inputs":[{"internalType":"address","name":"","type":"address"}],"name":"refunded","outputs":[{"internalType":"bool","name":"","type":"bool"}],"stateMutability":"view","type":"function"},{"inputs":[],"name":"remainingRounds","outputs":[{"internalType":"uint8","name":"","type":"uint8"}],"stateMutability":"view","type":"function"},{"inputs":[],"name":"renounceOwnership","outputs":[],"stateMutability":"nonpayable","type":"function"},{"inputs":[],"name":"secondsUntilNextRound","outputs":[{"internalType":"uint256","name":"","type":"uint256"}],"stateMutability":"view","type":"function"},{"inputs":[{"internalType":"address","name":"newOwner","type":"address"}],"name":"transferOwnership","outputs":[],"stateMutability":"nonpayable","type":"function"},{"inputs":[{"internalType":"address","name":"addr","type":"address"}],"name":"wasRefunded","outputs":[{"internalType":"bool","name":"","type":"bool"}],"stateMutability":"view","type":"function"},{"inputs":[],"name":"withdrawFunds","outputs":[],"stateMutability":"nonpayable","type":"function"}],"evm":{"bytecode":{"linkReferences":{},"object":"608080604052346083573315606d5760008054336001600160a01b0319821681178355916001600160a01b03909116907f8be0079c531659141344cd1fd0a4f28419497f9722a3daafe3b4186f6b6457e09080a36001805560ff196009541660095561389690816100898239f35b631e4fbdf760e01b600052600060045260246000fd5b600080fdfe608080604052600436101561001357600080fd5b600090813560e01c9081623e16a5146124395750806309c95e10146123ef57806310eb0e0e146123b057806312124848146120e357806324600fc314612029578063268b2b5114611ffb578063293c221314611fd85780635407441f14611fbd57806357985d1014611f4a578063667c7f68146119d657806368c6ba21146119ae578063715018a6146119545780637475a4cb146112c55780637ce17de414610ecc5780637cf61b6914610dc55780638d4e408314610d7a5780638da5cb5b14610d535780638f1c315114610d35578063987c543a1461088757806398bdae43146107cd578063a52b2b881461078e578063a7e22a3e14610768578063ad1ca6bf146106a7578063b2a4a5d21461066e578063c033a4901461062f578063c2e5220614610611578063dd1121f6146105dd578063df15c37e146104fa578063e6810a50146104d6578063eb2bab77146102c6578063f2fde38b14610275578063fa4cf5a11461024c578063faf9175d14610219578063fb84e12f146101f65763fcca0c84146101a157600080fd5b346101f35760203660031901126101f35760409060ff826001600160a01b036101c8612455565b1692838152600360205282828220541693815260046020522054168251911515825215156020820152f35b80fd5b50346101f357806003193601126101f3576020610211612dad565b604051908152f35b50346101f35760403660031901126101f35761024861023c602435600435612d0e565b60405191829182612552565b0390f35b50346101f357806003193601126101f3576002546040516001600160a01b039091168152602090f35b50346101f35760203660031901126101f35761028f612455565b6102976132a8565b6001600160a01b038116156102b2576102af90613261565b80f35b631e4fbdf760e01b82526004829052602482fd5b50806003193601126101f35734156104a15760018060a01b0360025416803314908115610422575b50801561040f575b156103be57610303612e16565b60088110156103aa5760031115610365576103203460135461283f565b6013557f7272b264c9ef2a1e8e9303944736f4977b14a5761227b7b9869fecaa60f8938760406103523460145461283f565b806014558151903482526020820152a180f35b60405162461bcd60e51b815260206004820152601960248201527f4d697373696f6e207061737365642061637469766174696f6e000000000000006044820152606490fd5b634e487b7160e01b82526021600452602482fd5b60405162461bcd60e51b815260206004820152602360248201527f4f6e6c7920666163746f7279206f7220617574686f72697a65642063616e20666044820152621d5b9960ea1b6064820152608490fd5b5080546001600160a01b031633146102f6565b60405163b918161160e01b81523360048201529150602090829060249082905afa908115610496578291610458575b50386102ee565b90506020813d60201161048e575b8161047360209383612622565b8101031261048a5761048490612644565b38610451565b5080fd5b3d9150610466565b6040513d84823e3d90fd5b60405162461bcd60e51b815260206004820152600d60248201526c139bc8199d5b991cc81cd95b9d609a1b6044820152606490fd5b50346101f35760203660031901126101f35760206102116104f5612455565b612bf5565b50346101f357806003193601126101f357610513612e16565b60088110156103aa576006149081156105ab575b501561054c576102486105386129f3565b6040519182916020835260208301906124c8565b60405162461bcd60e51b815260206004820152603160248201527f4d697373696f6e206973206e6f7420696e2053756363657373206f7220506172604482015270746c79537563636573732073746174757360781b6064820152608490fd5b90506105b5612e16565b9060088210156105c9575060051438610527565b634e487b7160e01b81526021600452602490fd5b50346101f357806003193601126101f357600d54421180610606575b6020906040519015158152f35b5060105442106105f9565b50346101f357806003193601126101f3576020600a54604051908152f35b50346101f35760203660031901126101f35760209060ff906040906001600160a01b0361065a612455565b168152600584522054166040519015158152f35b50346101f35760203660031901126101f3576020906040906001600160a01b03610696612455565b168152600683522054604051908152f35b50346101f357806003193601126101f3576106c0612df4565b80546001600160a01b0316331480156106ec575b6106dd90612651565b6106e5612adb565b6001805580f35b5060025460405163b918161160e01b815233600482015290602090829060249082906001600160a01b03165afa801561049657829061072d575b90506106d4565b506020813d602011610760575b8161074760209383612622565b8101031261048a5761075b6106dd91612644565b610726565b3d915061073a565b50346101f357806003193601126101f3576020610783612a90565b60ff60405191168152f35b50346101f35760203660031901126101f35760209060ff906040906001600160a01b036107b9612455565b168152600484522054166040519015158152f35b50346101f357806003193601126101f3576107e6612df4565b80546001600160a01b03163314801561080b575b61080390612651565b6106e56132d1565b5060025460405163b918161160e01b815233600482015290602090829060249082906001600160a01b03165afa801561049657829061084c575b90506107fa565b506020813d60201161087f575b8161086660209383612622565b8101031261048a5761087a61080391612644565b610845565b3d9150610859565b50806003193601126101f35761089b612df4565b333b610d2757600c54804210610d115750600d54804211610cfb5750600a5460ff600f5460081c1680911015610ce95750600e54803403610cd35750338152600360205260ff604082205416610cc55760025460408051634c0252c360e11b81523360048201526001600160a01b0390921692919081602481865afa9081156104965782908392610c77575b5015610b625750600a54600160401b811015610b4e5780600161094f9201600a55600a612735565b81549060031b9033821b9160018060a01b03901b1916179055338152600360205260408120600160ff1982541617905561098b3460135461283f565b60135561099a3460145461283f565b60145560ff601a5460081c1660088110156103aa57600103610a4a575b60025481906001600160a01b0316803b15610a475781809160246040518094819363c17f9e5960e01b83523360048401525af1801561049657610a32575b50600a546040519034825260208201527fbedd10d90b8962eb521114c7e2b49019403d371ffa1e46afbda7a3f1fde8f06f60403392a26001805580f35b81610a3c91612622565b6101f35780826109f5565b50fd5b80600181610b41575b8015610b34575b8015610b27575b610ac4575b6105c95750601a5460ff8160081c16906008821015610aae576101009060016000936000805160206138018339815191526020604051428152a361ff00191617601a556109b7565b634e487b7160e01b600052602160045260246000fd5b506002546001600160a01b0316803b1561048a5760405163d8d6e8ff60e01b815260016004820152829182908290602490829084905af1908115610496578291610b10575b5050610a66565b81610b1a91612622565b610b25578083610b09565bfd5b506105c957806000610a61565b506105c957806000610a5a565b506105c957806000610a53565b634e487b7160e01b82526041600452602482fd5b6024926003821015610c6457602091600103610bf7576040516377f855c960e11b815233600482015293849182905afa8015610bea578190610bb2575b631b62787960e31b825260045260249150fd5b506020823d602011610be2575b81610bcc60209383612622565b81010312610bdd5760249151610b9f565b600080fd5b3d9150610bbf565b50604051903d90823e3d90fd5b604051631b8093b160e11b815233600482015293849182905afa8015610bea578190610c31575b63147ce66f60e31b825260045260249150fd5b506020823d602011610c5c575b81610c4b60209383612622565b81010312610bdd5760249151610c1e565b3d9150610c3e565b5050634e487b7160e01b81526021600452fd5b9150506040813d604011610cbd575b81610c9360409383612622565b8101031261048a576020610ca682612644565b910151906003821015610cb95738610927565b8280fd5b3d9150610c86565b621d934160e11b8152600490fd5b6354d7a6b360e01b825260045234602452604490fd5b63647bcfa160e01b8252600452602490fd5b63166450c960e31b825242600452602452604490fd5b634cd01efb60e11b825242600452602452604490fd5b628b531560e01b8152600490fd5b50346101f357806003193601126101f3576020600754604051908152f35b50346101f357806003193601126101f357546040516001600160a01b039091168152602090f35b50346101f357806003193601126101f357610d93612e16565b9060088210156105c95781600660209314918215610db8575b50506040519015158152f35b6007925050143880610dac565b50346101f357806003193601126101f357610dde612e16565b60088110156103aa576007610df3911461269d565b600a5481805b828110610e845750610e0a906128de565b9180805b838110610e2357604051806102488782612552565b80610e2f6001926126e9565b838060a01b0391549060031b1c16835260066020526040832054610e54575b01610e0e565b610e5d816126e9565b838060a01b0391549060031b1c16610e7e610e7786612a6d565b9588612a7c565b52610e4e565b610e8d816126e9565b905460039190911b1c6001600160a01b0316845260066020526040842054610eb8575b600101610df9565b90610ec4600191612a6d565b919050610eb0565b50346101f357806003193601126101f35780610260604051610eed81612605565b606081528260208201528260408201528260608201528260808201528260a08201528260c08201528260e08201528261010082015282610120820152826101408201528261016082015282610180820152826101a0820152826101c082015260606101e08201528261020082015260606102208201526060610240820152015260405190610f7a82612605565b604051600a548082528160208101600a85526020852092855b8181106112a3575050610fa892500382612622565b825260ff600b541660078110156103aa576020830152600c546040830152600d546060830152600e54608083015260ff600f5481811660a0850152818160081c1660c0850152818160101c1660e085015260181c1661010083015260105461012083015260115461014083015260ff60125481811661016085015260081c166101808301526013546101a08301526014546101c08301526110476129f3565b6101e08301526016546102008301526040516017548082528160208101601785526020852092855b81811061128157505061108492500382612622565b6102208301526040519081816018549261109d8461293a565b808452936001811690811561125f5750600114611212575b506110c292500382612622565b6102408201526019546102608201526040518091602082526102606112056111ef6111cb6110fe855161028060208901526102a088019061247e565b611110602087015160408901906124bb565b6040860151606088015260608601516080880152608086015160a088015260ff60a08701511660c088015260ff60c08701511660e088015260ff60e08701511661010088015260ff6101008701511661012088015261012086015161014088015261014086015161016088015260ff6101608701511661018088015260ff610180870151166101a08801526101a08601516101c08801526101c08601516101e08801526101e0860151601f19888303016102008901526124c8565b610200850151610220870152610220850151601f198783030161024088015261247e565b610240840151858203601f190184870152612511565b9101516102808301520390f35b60188152919290506000805160206138218339815191525b8183106112435750509060206110c292820101386110b5565b602091935080600191548385880101520191019091839261122a565b9050602092506110c294915060ff191682840152151560051b820101386110b5565b84546001600160a01b031683526001948501948694506020909301920161106f565b84546001600160a01b0316835260019485019486945060209093019201610f93565b50346101f357806003193601126101f3576112de612df4565b6112e6612e16565b60088110156103aa57600481146118ec57600381106118d3576003106118c457338152600460205260ff6040822054166118b557338152600360205260ff604082205416156118a65760125460ff8160081c169060ff811682101561189757601054611352814261284c565b90606482029180830460641490151715611883579061137661137c9260115461284c565b90612974565b91601354606461139960145495611393878561284c565b93612910565b0490808210611848576113ab9161284c565b92808411611840575b831561180357836113c49161284c565b60145560ff81146117ef57600161ff00910160081b169061ff00191617601255338252600460205260408220600160ff19825416179055604051611407816125d3565b338152816020820152601554600160401b8110156117db5780600161142f9201601555612994565b6117c757815181546001600160a01b0319166001600160a01b03919091161781556020909101516001909101558180808084335af161146c6129b3565b9015611793575060ff601254818160081c16809360145460405191825260208201527fbbdd894f5e6d754c18172761a1a461095c26de58905e706a8c33657573d4067260403392a31603611731576114c2612f21565b6114ca612e16565b60088110156103aa576006148015611717575b156101f357476114ee81151561306f565b600a541561170a575b818291600a545b8084106116cf575061151792508082116116c75761284c565b8015611523811561306f565b601982029082820460191417156116b35760646115429104809261284c565b600254604051638da5cb5b60e01b81529192918491602090829060049082906001600160a01b03165afa9081156104965782918491839161166b575b50829182916001600160a01b03165af16115966129b3565b501561162e57600254600b5484916001600160a01b03169060ff16813b15610cb9576115dc6024849287604051958694859363a9bea78960e01b855260048501906124bb565b5af1801561049657611619575b505060008051602061384183398151915260408051838152846020820152a1600755600855476014556001805580f35b8161162391612622565b610cb95782386115e9565b60405162461bcd60e51b815260206004820152601560248201527413dddb995c881d1c985b9cd9995c8819985a5b1959605a1b6044820152606490fd5b925050506020813d6020116116ab575b8161168860209383612622565b8101031261048a57516001600160a01b038116810361048a57819083908261157e565b3d915061167b565b634e487b7160e01b83526011600452602483fd5b90508061284c565b90916117006001916116e0866126e9565b848060a01b0391549060031b1c168752600660205260408720549061283f565b93019291906114fe565b611712612fce565b6114f7565b50611720612e16565b60088110156103aa576007146114dd565b806105c95750600042601655601a5460ff8160081c1690600882101561177f57826004610400936000805160206138018339815191526020604051428152a35061ff00191617601a556106e5565b634e487b7160e01b83526021600452602483fd5b906117c360405192839263d086db4360e01b84523360048501526024840152606060448401526064830190612511565b0390fd5b634e487b7160e01b84526004849052602484fd5b634e487b7160e01b84526041600452602484fd5b634e487b7160e01b84526011600452602484fd5b60405162461bcd60e51b8152602060048201526015602482015274139bc81a5b98dc995b595b9d185b081c185e5bdd5d605a1b6044820152606490fd5b9250826113b4565b60405162461bcd60e51b8152602060048201526013602482015272283937b3b932b9b9903932b3b932b9b9b4b7b760691b6044820152606490fd5b634e487b7160e01b85526011600452602485fd5b6321b94f7b60e21b8352600483fd5b63c394a43360e01b8152600490fd5b6302ab8f8960e11b8152600490fd5b630d6a05df60e41b8152600490fd5b6010546316f5e3b760e21b835242600452602452604482fd5b60248260125460ff80611903818460081c16612817565b92169116146000146119435761193160ff600f5460181c165b61192c60ff42921660165461283f565b61284c565b600162269d7960e21b03198252600452fd5b61193160ff600f5460101c1661191c565b50346101f357806003193601126101f35761196d6132a8565b80546001600160a01b03198116825581906001600160a01b03167f8be0079c531659141344cd1fd0a4f28419497f9722a3daafe3b4186f6b6457e08280a380f35b50346101f357806003193601126101f3576102486119ca612e16565b6040519182918261246b565b506101c03660031901126101f3576119ec612455565b6024356001600160a01b0381169190829003610cb957604435916007831015611f465760c43560ff8116809103611f425760e4359160ff83168303611f3e57610104359160ff83168303611f3a57610124359260ff84168403611f3657610184359260ff8416809403611f32576101a4359567ffffffffffffffff8711611f2e5736602388011215611f2e5786600401359567ffffffffffffffff8711611f2a57366024888a010111611f2a57611aa1612df4565b601a549060ff8216611eef5762ff000093600161ff009360ff191617601a55611ac98b613261565b6bffffffffffffffffffffffff60a01b600254161760025560ff19600b541660ff8c1617600b55606435600c55608435600d5560a435600e5563ff000000600f549160181b169563ff000000199162ffffff191617169160081b16179160101b161717600f55610144356010556101643560115561ffff196012541617601255346013553460145584601655602091604051611b658482612622565b868152600036813780519067ffffffffffffffff8211611e4c57600160401b8211611e4c578490600a5483600a55808410611e9b575b5001600a8852875b828110611e6057505050604051611bba8482612622565b8681528690600160401b8211611e4c57849060155483601555808410611dc8575b5001601588526000805160206137e18339815191528589925b848410611d8a575050505050611c0b60185461293a565b601f8111611d2a575b508590601f8311600114611c92577fe9597995b7a2af444cc28b2b776b88b1253d701282a9bcf902d4f59750df7c57939291879183611c84575b50508160011b916000199060031b1c1916176018555b4260198190556040519081526001600160a01b0390931692a36001805580f35b602492500101353880611c4e565b6018875260008051602061382183398151915291601f198416885b818110611d1057509160019391857fe9597995b7a2af444cc28b2b776b88b1253d701282a9bcf902d4f59750df7c5797969410611cf3575b505050811b01601855611c64565b0160240135600019600384901b60f8161c19169055388080611ce5565b919386600181926024888801013581550195019201611cad565b611d6e9060188852601f840160051c6000805160206138218339815191520190858510611d74575b601f0160051c6000805160206138218339815191520190612923565b38611c14565b6000805160206138218339815191529150611d52565b8051805184546001600160a01b0319166001600160a01b03919091161784556020015160018481019190915591600291019201920191908690611bf4565b9091506001600160ff1b0381168103611e38576001600160ff1b0383168303611e385790859160011b6000805160206137e1833981519152018360011b6000805160206137e1833981519152015b818110611e235750611bdb565b8a8155600181018b9055879350600201611e16565b634e487b7160e01b89526011600452602489fd5b634e487b7160e01b88526041600452602488fd5b81516001600160a01b03167fc65a7bb8d6351c1cf70c95a316cc6a92839c986682d98bc35f958f4883f9d2a882015590850190600101611ba3565b611ee9907fc65a7bb8d6351c1cf70c95a316cc6a92839c986682d98bc35f958f4883f9d2a801847fc65a7bb8d6351c1cf70c95a316cc6a92839c986682d98bc35f958f4883f9d2a801612923565b38611b9b565b60405162461bcd60e51b8152602060048201526013602482015272105b1c9958591e481a5b9a5d1a585b1a5e9959606a1b6044820152606490fd5b8a80fd5b8980fd5b8880fd5b8780fd5b8680fd5b8580fd5b8480fd5b8380fd5b50346101f357806003193601126101f357611f63612e16565b9060088210156105c95760c08260ff60125460081c1660145463ffffffff600a541663ffffffff601554169163ffffffff601754169360ff60405196168652602086015260408501526060840152608083015260a0820152f35b50346101f357806003193601126101f3576020610211612859565b50346101f357806003193601126101f357602060ff600954166040519015158152f35b50346101f35760203660031901126101f357602061201f61201a612455565b61274d565b6040519015158152f35b50346101f357806003193601126101f357612042612df4565b80546001600160a01b031633148015612067575b61205f90612651565b6106e56130b2565b5060025460405163b918161160e01b815233600482015290602090829060249082906001600160a01b03165afa80156104965782906120a8575b9050612056565b506020813d6020116120db575b816120c260209383612622565b8101031261048a576120d661205f91612644565b6120a1565b3d91506120b5565b50346101f357806003193601126101f35780546001600160a01b031633148015612334575b61211190612651565b612119612df4565b612121612e16565b60088110156103aa576005036101f357612139612f21565b612141612e16565b60088110156103aa57600614801561231a575b156101f3574761216581151561306f565b600a541561230d575b818291600a545b8084106122f2575061218e92508082116116c75761284c565b801561219a811561306f565b601982029082820460191417156116b35760646121b99104809261284c565b600254604051638da5cb5b60e01b81529192918491602090829060049082906001600160a01b03165afa908115610496578291849183916122aa575b50829182916001600160a01b03165af161220d6129b3565b501561162e5760018060a01b03600254168360ff600b5416823b1561048a57602461224f9186604051958694859363a9bea78960e01b855260048501906124bb565b5af1801561229f5761228b575b5060008051602061384183398151915260408051838152846020820152a1600755600855476014556001805580f35b8361229891949294612622565b913861225c565b6040513d86823e3d90fd5b925050506020813d6020116122ea575b816122c760209383612622565b8101031261048a57516001600160a01b038116810361048a5781908390826121f5565b3d91506122ba565b90916123036001916116e0866126e9565b9301929190612175565b612315612fce565b61216e565b50612323612e16565b60088110156103aa57600714612154565b5060025460405163b918161160e01b815233600482015290602090829060249082906001600160a01b03165afa8015610496578290612375575b9050612108565b506020813d6020116123a8575b8161238f60209383612622565b8101031261048a576123a361211191612644565b61236e565b3d9150612382565b50346101f35760203660031901126101f35760209060ff906040906001600160a01b036123db612455565b168152600384522054166040519015158152f35b50346101f35760203660031901126101f35760209060ff906040906001600160a01b0361241a612455565b16612426811515612595565b8152600384522054166040519015158152f35b90503461048a578160031936011261048a576020906008548152f35b600435906001600160a01b0382168203610bdd57565b919060208301926008821015610aae5752565b906020808351928381520192019060005b81811061249c5750505090565b82516001600160a01b031684526020938401939092019160010161248f565b906007821015610aae5752565b906020808351928381520192019060005b8181106124e65750505090565b825180516001600160a01b0316855260209081015181860152604090940193909201916001016124d9565b919082519283825260005b84811061253d575050826000602080949584010152601f8019910116010190565b8060208092840101518282860101520161251c565b602060408183019282815284518094520192019060005b8181106125765750505090565b82516001600160a01b0316845260209384019390920191600101612569565b1561259c57565b60405162461bcd60e51b815260206004820152600f60248201526e496e76616c6964206164647265737360881b6044820152606490fd5b6040810190811067ffffffffffffffff8211176125ef57604052565b634e487b7160e01b600052604160045260246000fd5b610280810190811067ffffffffffffffff8211176125ef57604052565b90601f8019910116810190811067ffffffffffffffff8211176125ef57604052565b51908115158203610bdd57565b1561265857565b60405162461bcd60e51b815260206004820152601760248201527f4e6f74206f776e6572206f7220617574686f72697a65640000000000000000006044820152606490fd5b156126a457565b60405162461bcd60e51b815260206004820152601f60248201527f4d697373696f6e206973206e6f7420696e204661696c656420737461747573006044820152606490fd5b600a5481101561270457600a60005260206000200190600090565b634e487b7160e01b600052603260045260246000fd5b60175481101561270457601760005260206000200190600090565b80548210156127045760005260206000200190600090565b612755612e16565b6008811015610aae57600761276a911461269d565b6001600160a01b031661277e811515612595565b80600052600360205260ff60406000205416156127dc576017549060005b8281106127ab57505050600090565b816127b58261271a565b905460039190911b1c6001600160a01b0316146127d45760010161279c565b505050600190565b60405162461bcd60e51b8152602060048201526013602482015272141b185e595c881b9bdd08195b9c9bdb1b1959606a1b6044820152606490fd5b60ff60019116019060ff821161282957565b634e487b7160e01b600052601160045260246000fd5b9190820180921161282957565b9190820391821161282957565b612861612e16565b6008811015610aae576004036128c15760125460ff80612885818460081c16612817565b92169116146000146128b0576128ad60ff600f5460181c1661192c60ff42921660165461283f565b90565b6128ad60ff600f5460101c1661191c565b600090565b67ffffffffffffffff81116125ef5760051b60200190565b906128e8826128c6565b6128f56040519182612622565b8281528092612906601f19916128c6565b0190602036910137565b8181029291811591840414171561282957565b81811061292e575050565b60008155600101612923565b90600182811c9216801561296a575b602083101461295457565b634e487b7160e01b600052602260045260246000fd5b91607f1691612949565b811561297e570490565b634e487b7160e01b600052601260045260246000fd5b60155481101561270457601560005260206000209060011b0190600090565b3d156129ee573d9067ffffffffffffffff82116125ef57604051916129e2601f8201601f191660200184612622565b82523d6000602084013e565b606090565b60155490612a00826128c6565b91612a0e6040519384612622565b808352601560009081526000805160206137e1833981519152602085015b838310612a395750505050565b60026020600192604051612a4c816125d3565b848060a01b0386541681528486015483820152815201920192019190612a2c565b60001981146128295760010190565b80518210156127045760209160051b010190565b612a98612e16565b6008811015610aae5760038114908115612ad0575b50612ab757600090565b60125460ff808260081c1691160360ff81116128295790565b600491501438612aad565b600d54421180612bea575b15612b7f5760095460ff8116612b3a5760ff1916600117600955600a5415612b2a57600a5460ff600f541611612b1857565b612b20612fce565b612b286132d1565b565b612b32612fce565b612b286130b2565b60405162461bcd60e51b815260206004820152601f60248201527f416c726561647920636865636b656420737461727420636f6e646974696f6e006044820152606490fd5b60405162461bcd60e51b815260206004820152603860248201527f4d697373696f6e206e6f7420696e2061726d696e672077696e646f772e20436160448201527f6c6c20726566756e64506c617965727320696e737465616400000000000000006064820152608490fd5b506010544210612ae6565b612bfd612e16565b6008811015610aae5760038114159081612d02575b50612cfc576001600160a01b031660008181526003602052604090205460ff1615612cfc57600052600460205260ff604060002054166128c157601054804210612cfc5760115480421015612cf557612c6b824261284c565b9060648202918083046064149015171561282957612c8c926113769161284c565b60155460008115612ced5750600019810190811161282957612caf600191612994565b500154905b60648202918083046064149015171561282957606491612ce4612ce992612cde6013548094612974565b9061284c565b612910565b0490565b905090612cb4565b5050600090565b50600090565b60049150141538612c12565b91906017549081841015612d8f57612d3a91612d2b85928361283f565b90808211612d87575b5061284c565b612d43816128de565b9260005b828110612d5357505050565b80612d68612d636001938561283f565b61271a565b838060a01b0391549060031b1c16612d808288612a7c565b5201612d47565b905038612d34565b50509050604051612da1602082612622565b60008152600036813790565b601054804210612cfc5760115480421015612ded57612dcc824261284c565b90606482029180830460641490151715612829576128ad926113769161284c565b5050606490565b600260015414612e05576002600155565b633ee5aeb560e01b60005260046000fd5b60ff601a5460081c166008811015610aae57600681148015612f17575b6128ad5750600c5442106128c157600d54421115612f1257600a54600f549060ff821611612f0c576010544210612f0657601154421015612edb5760125460ff808260081c16911680821015612ed3576016549182612e955750505050600390565b612eb99360ff9283612ea78194612817565b1603612eca5760181c165b169061283f565b421015612ec557600490565b600390565b60101c16612eb2565b505050600690565b5060125460ff8160081c16908115612eff5760ff1611612efa57600690565b600590565b5050600790565b50600290565b50600790565b600190565b5060078114612e33565b6002546000906001600160a01b0316803b15610bdd5760405163d8d6e8ff60e01b815260066004820152906000908290602490829084905af18015612fc257612fad575b50806105c95750601a5460ff8160081c16906008821015610aae576106009160066000916000805160206138018339815191526020604051428152a35061ff00191617601a55565b612fba9150600090612622565b600038612f65565b6040513d6000823e3d90fd5b6002546000906001600160a01b0316803b15610bdd5760405163d8d6e8ff60e01b815260076004820152906000908290602490829084905af18015612fc25761305a575b50806105c95750601a5460ff8160081c16906008821015610aae576107009160076000916000805160206138018339815191526020604051428152a35061ff00191617601a55565b6130679150600090612622565b600038613012565b1561307657565b60405162461bcd60e51b81526020600482015260146024820152734e6f2066756e647320746f20776974686472617760601b6044820152606490fd5b6130ba612e16565b60009060088110156103aa576006148015613247575b156101f3574780156130f381156130e68161306f565b600a541561323a5761306f565b601982029082820460191417156116b35760646131129104809261284c565b600254604051638da5cb5b60e01b815291939190602090829060049082906001600160a01b03165afa908115610496578291849183916131f2575b50829182918291906001600160a01b03165af16131686129b3565b501561162e5760018060a01b036002541660ff600b5416813b15610cb9576131aa6024849287604051958694859363a9bea78960e01b855260048501906124bb565b5af18015610496576131e2575b505060008051602061384183398151915260408051838152846020820152a160075560085547601455565b816131ec91612622565b386131b7565b925050506020813d602011613232575b8161320f60209383612622565b8101031261048a57516001600160a01b038116810361048a57819083908261314d565b3d9150613202565b613242612fce565b61306f565b50613250612e16565b60088110156103aa576007146130d0565b600080546001600160a01b039283166001600160a01b03198216811783559216907f8be0079c531659141344cd1fd0a4f28419497f9722a3daafe3b4186f6b6457e09080a3565b6000546001600160a01b031633036132bc57565b63118cdaa760e01b6000523360045260246000fd5b6132d9612e16565b6008811015610aae5760070361379b57600a541561375f5760019060005b600a548110156134985761330a816126e9565b60018060a01b0391549060031b1c169081600052600560205260ff604060002054161561333c575b60019150016132f7565b6000808080600e54865af161334f6129b3565b5015613441578160005260056020526040600020600160ff19825416179055601754600160401b8110156125ef5780600161338f92016017556017612735565b81549060031b9084821b9160018060a01b03901b1916179055817f48d31f1c958cd44f1f83a52ae2dfaf61e88a1b82c07a6d5711a4abef60b6531e6020600e54604051908152a2600254600c54600d5493916001600160a01b0316803b15610bdd57600092836064926040519788958694634c682e1f60e11b86526004860152602485015260448401525af1918215612fc257600192613430575b50613332565b600061343b91612622565b3861342a565b9250600e5481600052600660205261345f604060002091825461283f565b90557faf73b0b217208b61be286bbc37095bce7eb8b9ccf617244c2f0f154e8e04e3ff6020600e54604051908152a26001600092613332565b50906134a2612fce565b47613541575b50601754600e5490604051816040820160408352526060810160176000527fc624b66cc0138b8fabc209247f72d758e1cf3343756d543badbf24212bed8c1560005b84811061352257505090807fbb93c7c839bddd97272c8e974d54d30adfa3aa55df63a52f02b7192efd361a24924260208301520390a3565b81546001600160a01b03168352602090920191600191820191016134ea565b613549612e16565b6008811015610aae576006148015613745575b15610bdd57479061356e82151561306f565b600a5415613738575b156136d5575b8015613589811561306f565b601982029082820460191417156128295760646135a89104809261284c565b600254604051638da5cb5b60e01b815291929190602090829060049082906001600160a01b03165afa8015612fc257829160009161368d575b506000918291829182916001600160a01b03165af16135fe6129b3565b501561162e5760018060a01b036002541660ff600b5416813b15610bdd57613641602460009286604051958694859363a9bea78960e01b855260048501906124bb565b5af18015612fc25761367c575b5060008051602061384183398151915260408051838152846020820152a160075560085547601455386134a8565b600061368791612622565b3861364e565b9091506020813d6020116136cd575b816136a960209383612622565b8101031261048a5751906001600160a01b03821682036101f35750819060006135e1565b3d915061369c565b60008091600a545b8084106136fb57506136f692508082116116c75761284c565b61357d565b909161372e60019161370c866126e9565b848060a01b0391549060031b1c1660005260066020526040600020549061283f565b93019291906136dd565b613740612fce565b613577565b5061374e612e16565b6008811015610aae5760071461355c565b60405162461bcd60e51b8152602060048201526014602482015273139bc81c1b185e595c9cc81d1bc81c99599d5b9960621b6044820152606490fd5b60405162461bcd60e51b815260206004820152601c60248201527f4d697373696f6e206e6f7420696e204661696c656420737461747573000000006044820152606490fdfe55f448fdea98c4d29eb340757ef0a66cd03dbb9538908a6a81d96026b71ec47539ba628632d48c45c7f562c07db20a44cf68423691d5d79b20f87ba84138aedfb13d2d76d1f4b7be834882e410b3e3a8afaf69f83600ae24db354391d2378d2ed66662c0ded9e58fd31d5e44944bcfd07ffc15e6927ecc1382e7941cb7bd24c4a2646970667358221220d29d3b7d8f06aeed3499d9ac0874f0666dbb416496757d61908f5e1778156bbd64736f6c634300081e0033","opcodes":"PUSH1 0x80 DUP1 PUSH1 0x40 MSTORE CALLVALUE PUSH1 0x83 JUMPI CALLER ISZERO PUSH1 0x6D JUMPI PUSH1 0x0 DUP1 SLOAD CALLER PUSH1 0x1 PUSH1 0x1 PUSH1 0xA0 SHL SUB NOT DUP3 AND DUP2 OR DUP4 SSTORE SWAP2 PUSH1 0x1 PUSH1 0x1 PUSH1 0xA0 SHL SUB SWAP1 SWAP2 AND SWAP1 PUSH32 0x8BE0079C531659141344CD1FD0A4F28419497F9722A3DAAFE3B4186F6B6457E0 SWAP1 DUP1 LOG3 PUSH1 0x1 DUP1 SSTORE PUSH1 0xFF NOT PUSH1 0x9 SLOAD AND PUSH1 0x9 SSTORE PUSH2 0x3896 SWAP1 DUP2 PUSH2 0x89 DUP3 CODECOPY RETURN JUMPDEST PUSH4 0x1E4FBDF7 PUSH1 0xE0 SHL PUSH1 0x0 MSTORE PUSH1 0x0 PUSH1 0x4 MSTORE PUSH1 0x24 PUSH1 0x0 REVERT JUMPDEST PUSH1 0x0 DUP1 REVERT INVALID PUSH1 0x80 DUP1 PUSH1 0x40 MSTORE PUSH1 0x4 CALLDATASIZE LT ISZERO PUSH2 0x13 JUMPI PUSH1 0x0 DUP1 REVERT JUMPDEST PUSH1 0x0 SWAP1 DUP2 CALLDATALOAD PUSH1 0xE0 SHR SWAP1 DUP2 PUSH3 0x3E16A5 EQ PUSH2 0x2439 JUMPI POP DUP1 PUSH4 0x9C95E10 EQ PUSH2 0x23EF JUMPI DUP1 PUSH4 0x10EB0E0E EQ PUSH2 0x23B0 JUMPI DUP1 PUSH4 0x12124848 EQ PUSH2 0x20E3 JUMPI DUP1 PUSH4 0x24600FC3 EQ PUSH2 0x2029 JUMPI DUP1 PUSH4 0x268B2B51 EQ PUSH2 0x1FFB JUMPI DUP1 PUSH4 0x293C2213 EQ PUSH2 0x1FD8 JUMPI DUP1 PUSH4 0x5407441F EQ PUSH2 0x1FBD JUMPI DUP1 PUSH4 0x57985D10 EQ PUSH2 0x1F4A JUMPI DUP1 PUSH4 0x667C7F68 EQ PUSH2 0x19D6 JUMPI DUP1 PUSH4 0x68C6BA21 EQ PUSH2 0x19AE JUMPI DUP1 PUSH4 0x715018A6 EQ PUSH2 0x1954 JUMPI DUP1 PUSH4 0x7475A4CB EQ PUSH2 0x12C5 JUMPI DUP1 PUSH4 0x7CE17DE4 EQ PUSH2 0xECC JUMPI DUP1 PUSH4 0x7CF61B69 EQ PUSH2 0xDC5 JUMPI DUP1 PUSH4 0x8D4E4083 EQ PUSH2 0xD7A JUMPI DUP1 PUSH4 0x8DA5CB5B EQ PUSH2 0xD53 JUMPI DUP1 PUSH4 0x8F1C3151 EQ PUSH2 0xD35 JUMPI DUP1 PUSH4 0x987C543A EQ PUSH2 0x887 JUMPI DUP1 PUSH4 0x98BDAE43 EQ PUSH2 0x7CD JUMPI DUP1 PUSH4 0xA52B2B88 EQ PUSH2 0x78E JUMPI DUP1 PUSH4 0xA7E22A3E EQ PUSH2 0x768 JUMPI DUP1 PUSH4 0xAD1CA6BF EQ PUSH2 0x6A7 JUMPI DUP1 PUSH4 0xB2A4A5D2 EQ PUSH2 0x66E JUMPI DUP1 PUSH4 0xC033A490 EQ PUSH2 0x62F JUMPI DUP1 PUSH4 0xC2E52206 EQ PUSH2 0x611 JUMPI DUP1 PUSH4 0xDD1121F6 EQ PUSH2 0x5DD JUMPI DUP1 PUSH4 0xDF15C37E EQ PUSH2 0x4FA JUMPI DUP1 PUSH4 0xE6810A50 EQ PUSH2 0x4D6 JUMPI DUP1 PUSH4 0xEB2BAB77 EQ PUSH2 0x2C6 JUMPI DUP1 PUSH4 0xF2FDE38B EQ PUSH2 0x275 JUMPI DUP1 PUSH4 0xFA4CF5A1 EQ PUSH2 0x24C JUMPI DUP1 PUSH4 0xFAF9175D EQ PUSH2 0x219 JUMPI DUP1 PUSH4 0xFB84E12F EQ PUSH2 0x1F6 JUMPI PUSH4 0xFCCA0C84 EQ PUSH2 0x1A1 JUMPI PUSH1 0x0 DUP1 REVERT JUMPDEST CALLVALUE PUSH2 0x1F3 JUMPI PUSH1 0x20 CALLDATASIZE PUSH1 0x3 NOT ADD SLT PUSH2 0x1F3 JUMPI PUSH1 0x40 SWAP1 PUSH1 0xFF DUP3 PUSH1 0x1 PUSH1 0x1 PUSH1 0xA0 SHL SUB PUSH2 0x1C8 PUSH2 0x2455 JUMP JUMPDEST AND SWAP3 DUP4 DUP2 MSTORE PUSH1 0x3 PUSH1 0x20 MSTORE DUP3 DUP3 DUP3 KECCAK256 SLOAD AND SWAP4 DUP2 MSTORE PUSH1 0x4 PUSH1 0x20 MSTORE KECCAK256 SLOAD AND DUP3 MLOAD SWAP2 ISZERO ISZERO DUP3 MSTORE ISZERO ISZERO PUSH1 0x20 DUP3 ADD MSTORE RETURN JUMPDEST DUP1 REVERT JUMPDEST POP CALLVALUE PUSH2 0x1F3 JUMPI DUP1 PUSH1 0x3 NOT CALLDATASIZE ADD SLT PUSH2 0x1F3 JUMPI PUSH1 0x20 PUSH2 0x211 PUSH2 0x2DAD JUMP JUMPDEST PUSH1 0x40 MLOAD SWAP1 DUP2 MSTORE RETURN JUMPDEST POP CALLVALUE PUSH2 0x1F3 JUMPI PUSH1 0x40 CALLDATASIZE PUSH1 0x3 NOT ADD SLT PUSH2 0x1F3 JUMPI PUSH2 0x248 PUSH2 0x23C PUSH1 0x24 CALLDATALOAD PUSH1 0x4 CALLDATALOAD PUSH2 0x2D0E JUMP JUMPDEST PUSH1 0x40 MLOAD SWAP2 DUP3 SWAP2 DUP3 PUSH2 0x2552 JUMP JUMPDEST SUB SWAP1 RETURN JUMPDEST POP CALLVALUE PUSH2 0x1F3 JUMPI DUP1 PUSH1 0x3 NOT CALLDATASIZE ADD SLT PUSH2 0x1F3 JUMPI PUSH1 0x2 SLOAD PUSH1 0x40 MLOAD PUSH1 0x1 PUSH1 0x1 PUSH1 0xA0 SHL SUB SWAP1 SWAP2 AND DUP2 MSTORE PUSH1 0x20 SWAP1 RETURN JUMPDEST POP CALLVALUE PUSH2 0x1F3 JUMPI PUSH1 0x20 CALLDATASIZE PUSH1 0x3 NOT ADD SLT PUSH2 0x1F3 JUMPI PUSH2 0x28F PUSH2 0x2455 JUMP JUMPDEST PUSH2 0x297 PUSH2 0x32A8 JUMP JUMPDEST PUSH1 0x1 PUSH1 0x1 PUSH1 0xA0 SHL SUB DUP2 AND ISZERO PUSH2 0x2B2 JUMPI PUSH2 0x2AF SWAP1 PUSH2 0x3261 JUMP JUMPDEST DUP1 RETURN JUMPDEST PUSH4 0x1E4FBDF7 PUSH1 0xE0 SHL DUP3 MSTORE PUSH1 0x4 DUP3 SWAP1 MSTORE PUSH1 0x24 DUP3 REVERT JUMPDEST POP DUP1 PUSH1 0x3 NOT CALLDATASIZE ADD SLT PUSH2 0x1F3 JUMPI CALLVALUE ISZERO PUSH2 0x4A1 JUMPI PUSH1 0x1 DUP1 PUSH1 0xA0 SHL SUB PUSH1 0x2 SLOAD AND DUP1 CALLER EQ SWAP1 DUP2 ISZERO PUSH2 0x422 JUMPI JUMPDEST POP DUP1 ISZERO PUSH2 0x40F JUMPI JUMPDEST ISZERO PUSH2 0x3BE JUMPI PUSH2 0x303 PUSH2 0x2E16 JUMP JUMPDEST PUSH1 0x8 DUP2 LT ISZERO PUSH2 0x3AA JUMPI PUSH1 0x3 GT ISZERO PUSH2 0x365 JUMPI PUSH2 0x320 CALLVALUE PUSH1 0x13 SLOAD PUSH2 0x283F JUMP JUMPDEST PUSH1 0x13 SSTORE PUSH32 0x7272B264C9EF2A1E8E9303944736F4977B14A5761227B7B9869FECAA60F89387 PUSH1 0x40 PUSH2 0x352 CALLVALUE PUSH1 0x14 SLOAD PUSH2 0x283F JUMP JUMPDEST DUP1 PUSH1 0x14 SSTORE DUP2 MLOAD SWAP1 CALLVALUE DUP3 MSTORE PUSH1 0x20 DUP3 ADD MSTORE LOG1 DUP1 RETURN JUMPDEST PUSH1 0x40 MLOAD PUSH3 0x461BCD PUSH1 0xE5 SHL DUP2 MSTORE PUSH1 0x20 PUSH1 0x4 DUP3 ADD MSTORE PUSH1 0x19 PUSH1 0x24 DUP3 ADD MSTORE PUSH32 0x4D697373696F6E207061737365642061637469766174696F6E00000000000000 PUSH1 0x44 DUP3 ADD MSTORE PUSH1 0x64 SWAP1 REVERT JUMPDEST PUSH4 0x4E487B71 PUSH1 0xE0 SHL DUP3 MSTORE PUSH1 0x21 PUSH1 0x4 MSTORE PUSH1 0x24 DUP3 REVERT JUMPDEST PUSH1 0x40 MLOAD PUSH3 0x461BCD PUSH1 0xE5 SHL DUP2 MSTORE PUSH1 0x20 PUSH1 0x4 DUP3 ADD MSTORE PUSH1 0x23 PUSH1 0x24 DUP3 ADD MSTORE PUSH32 0x4F6E6C7920666163746F7279206F7220617574686F72697A65642063616E2066 PUSH1 0x44 DUP3 ADD MSTORE PUSH3 0x1D5B99 PUSH1 0xEA SHL PUSH1 0x64 DUP3 ADD MSTORE PUSH1 0x84 SWAP1 REVERT JUMPDEST POP DUP1 SLOAD PUSH1 0x1 PUSH1 0x1 PUSH1 0xA0 SHL SUB AND CALLER EQ PUSH2 0x2F6 JUMP JUMPDEST PUSH1 0x40 MLOAD PUSH4 0xB9181611 PUSH1 0xE0 SHL DUP2 MSTORE CALLER PUSH1 0x4 DUP3 ADD MSTORE SWAP2 POP PUSH1 0x20 SWAP1 DUP3 SWAP1 PUSH1 0x24 SWAP1 DUP3 SWAP1 GAS STATICCALL SWAP1 DUP2 ISZERO PUSH2 0x496 JUMPI DUP3 SWAP2 PUSH2 0x458 JUMPI JUMPDEST POP CODESIZE PUSH2 0x2EE JUMP JUMPDEST SWAP1 POP PUSH1 0x20 DUP2 RETURNDATASIZE PUSH1 0x20 GT PUSH2 0x48E JUMPI JUMPDEST DUP2 PUSH2 0x473 PUSH1 0x20 SWAP4 DUP4 PUSH2 0x2622 JUMP JUMPDEST DUP2 ADD SUB SLT PUSH2 0x48A JUMPI PUSH2 0x484 SWAP1 PUSH2 0x2644 JUMP JUMPDEST CODESIZE PUSH2 0x451 JUMP JUMPDEST POP DUP1 REVERT JUMPDEST RETURNDATASIZE SWAP2 POP PUSH2 0x466 JUMP JUMPDEST PUSH1 0x40 MLOAD RETURNDATASIZE DUP5 DUP3 RETURNDATACOPY RETURNDATASIZE SWAP1 REVERT JUMPDEST PUSH1 0x40 MLOAD PUSH3 0x461BCD PUSH1 0xE5 SHL DUP2 MSTORE PUSH1 0x20 PUSH1 0x4 DUP3 ADD MSTORE PUSH1 0xD PUSH1 0x24 DUP3 ADD MSTORE PUSH13 0x139BC8199D5B991CC81CD95B9D PUSH1 0x9A SHL PUSH1 0x44 DUP3 ADD MSTORE PUSH1 0x64 SWAP1 REVERT JUMPDEST POP CALLVALUE PUSH2 0x1F3 JUMPI PUSH1 0x20 CALLDATASIZE PUSH1 0x3 NOT ADD SLT PUSH2 0x1F3 JUMPI PUSH1 0x20 PUSH2 0x211 PUSH2 0x4F5 PUSH2 0x2455 JUMP JUMPDEST PUSH2 0x2BF5 JUMP JUMPDEST POP CALLVALUE PUSH2 0x1F3 JUMPI DUP1 PUSH1 0x3 NOT CALLDATASIZE ADD SLT PUSH2 0x1F3 JUMPI PUSH2 0x513 PUSH2 0x2E16 JUMP JUMPDEST PUSH1 0x8 DUP2 LT ISZERO PUSH2 0x3AA JUMPI PUSH1 0x6 EQ SWAP1 DUP2 ISZERO PUSH2 0x5AB JUMPI JUMPDEST POP ISZERO PUSH2 0x54C JUMPI PUSH2 0x248 PUSH2 0x538 PUSH2 0x29F3 JUMP JUMPDEST PUSH1 0x40 MLOAD SWAP2 DUP3 SWAP2 PUSH1 0x20 DUP4 MSTORE PUSH1 0x20 DUP4 ADD SWAP1 PUSH2 0x24C8 JUMP JUMPDEST PUSH1 0x40 MLOAD PUSH3 0x461BCD PUSH1 0xE5 SHL DUP2 MSTORE PUSH1 0x20 PUSH1 0x4 DUP3 ADD MSTORE PUSH1 0x31 PUSH1 0x24 DUP3 ADD MSTORE PUSH32 0x4D697373696F6E206973206E6F7420696E2053756363657373206F7220506172 PUSH1 0x44 DUP3 ADD MSTORE PUSH17 0x746C795375636365737320737461747573 PUSH1 0x78 SHL PUSH1 0x64 DUP3 ADD MSTORE PUSH1 0x84 SWAP1 REVERT JUMPDEST SWAP1 POP PUSH2 0x5B5 PUSH2 0x2E16 JUMP JUMPDEST SWAP1 PUSH1 0x8 DUP3 LT ISZERO PUSH2 0x5C9 JUMPI POP PUSH1 0x5 EQ CODESIZE PUSH2 0x527 JUMP JUMPDEST PUSH4 0x4E487B71 PUSH1 0xE0 SHL DUP2 MSTORE PUSH1 0x21 PUSH1 0x4 MSTORE PUSH1 0x24 SWAP1 REVERT JUMPDEST POP CALLVALUE PUSH2 0x1F3 JUMPI DUP1 PUSH1 0x3 NOT CALLDATASIZE ADD SLT PUSH2 0x1F3 JUMPI PUSH1 0xD SLOAD TIMESTAMP GT DUP1 PUSH2 0x606 JUMPI JUMPDEST PUSH1 0x20 SWAP1 PUSH1 0x40 MLOAD SWAP1 ISZERO ISZERO DUP2 MSTORE RETURN JUMPDEST POP PUSH1 0x10 SLOAD TIMESTAMP LT PUSH2 0x5F9 JUMP JUMPDEST POP CALLVALUE PUSH2 0x1F3 JUMPI DUP1 PUSH1 0x3 NOT CALLDATASIZE ADD SLT PUSH2 0x1F3 JUMPI PUSH1 0x20 PUSH1 0xA SLOAD PUSH1 0x40 MLOAD SWAP1 DUP2 MSTORE RETURN JUMPDEST POP CALLVALUE PUSH2 0x1F3 JUMPI PUSH1 0x20 CALLDATASIZE PUSH1 0x3 NOT ADD SLT PUSH2 0x1F3 JUMPI PUSH1 0x20 SWAP1 PUSH1 0xFF SWAP1 PUSH1 0x40 SWAP1 PUSH1 0x1 PUSH1 0x1 PUSH1 0xA0 SHL SUB PUSH2 0x65A PUSH2 0x2455 JUMP JUMPDEST AND DUP2 MSTORE PUSH1 0x5 DUP5 MSTORE KECCAK256 SLOAD AND PUSH1 0x40 MLOAD SWAP1 ISZERO ISZERO DUP2 MSTORE RETURN JUMPDEST POP CALLVALUE PUSH2 0x1F3 JUMPI PUSH1 0x20 CALLDATASIZE PUSH1 0x3 NOT ADD SLT PUSH2 0x1F3 JUMPI PUSH1 0x20 SWAP1 PUSH1 0x40 SWAP1 PUSH1 0x1 PUSH1 0x1 PUSH1 0xA0 SHL SUB PUSH2 0x696 PUSH2 0x2455 JUMP JUMPDEST AND DUP2 MSTORE PUSH1 0x6 DUP4 MSTORE KECCAK256 SLOAD PUSH1 0x40 MLOAD SWAP1 DUP2 MSTORE RETURN JUMPDEST POP CALLVALUE PUSH2 0x1F3 JUMPI DUP1 PUSH1 0x3 NOT CALLDATASIZE ADD SLT PUSH2 0x1F3 JUMPI PUSH2 0x6C0 PUSH2 0x2DF4 JUMP JUMPDEST DUP1 SLOAD PUSH1 0x1 PUSH1 0x1 PUSH1 0xA0 SHL SUB AND CALLER EQ DUP1 ISZERO PUSH2 0x6EC JUMPI JUMPDEST PUSH2 0x6DD SWAP1 PUSH2 0x2651 JUMP JUMPDEST PUSH2 0x6E5 PUSH2 0x2ADB JUMP JUMPDEST PUSH1 0x1 DUP1 SSTORE DUP1 RETURN JUMPDEST POP PUSH1 0x2 SLOAD PUSH1 0x40 MLOAD PUSH4 0xB9181611 PUSH1 0xE0 SHL DUP2 MSTORE CALLER PUSH1 0x4 DUP3 ADD MSTORE SWAP1 PUSH1 0x20 SWAP1 DUP3 SWAP1 PUSH1 0x24 SWAP1 DUP3 SWAP1 PUSH1 0x1 PUSH1 0x1 PUSH1 0xA0 SHL SUB AND GAS STATICCALL DUP1 ISZERO PUSH2 0x496 JUMPI DUP3 SWAP1 PUSH2 0x72D JUMPI JUMPDEST SWAP1 POP PUSH2 0x6D4 JUMP JUMPDEST POP PUSH1 0x20 DUP2 RETURNDATASIZE PUSH1 0x20 GT PUSH2 0x760 JUMPI JUMPDEST DUP2 PUSH2 0x747 PUSH1 0x20 SWAP4 DUP4 PUSH2 0x2622 JUMP JUMPDEST DUP2 ADD SUB SLT PUSH2 0x48A JUMPI PUSH2 0x75B PUSH2 0x6DD SWAP2 PUSH2 0x2644 JUMP JUMPDEST PUSH2 0x726 JUMP JUMPDEST RETURNDATASIZE SWAP2 POP PUSH2 0x73A JUMP JUMPDEST POP CALLVALUE PUSH2 0x1F3 JUMPI DUP1 PUSH1 0x3 NOT CALLDATASIZE ADD SLT PUSH2 0x1F3 JUMPI PUSH1 0x20 PUSH2 0x783 PUSH2 0x2A90 JUMP JUMPDEST PUSH1 0xFF PUSH1 0x40 MLOAD SWAP2 AND DUP2 MSTORE RETURN JUMPDEST POP CALLVALUE PUSH2 0x1F3 JUMPI PUSH1 0x20 CALLDATASIZE PUSH1 0x3 NOT ADD SLT PUSH2 0x1F3 JUMPI PUSH1 0x20 SWAP1 PUSH1 0xFF SWAP1 PUSH1 0x40 SWAP1 PUSH1 0x1 PUSH1 0x1 PUSH1 0xA0 SHL SUB PUSH2 0x7B9 PUSH2 0x2455 JUMP JUMPDEST AND DUP2 MSTORE PUSH1 0x4 DUP5 MSTORE KECCAK256 SLOAD AND PUSH1 0x40 MLOAD SWAP1 ISZERO ISZERO DUP2 MSTORE RETURN JUMPDEST POP CALLVALUE PUSH2 0x1F3 JUMPI DUP1 PUSH1 0x3 NOT CALLDATASIZE ADD SLT PUSH2 0x1F3 JUMPI PUSH2 0x7E6 PUSH2 0x2DF4 JUMP JUMPDEST DUP1 SLOAD PUSH1 0x1 PUSH1 0x1 PUSH1 0xA0 SHL SUB AND CALLER EQ DUP1 ISZERO PUSH2 0x80B JUMPI JUMPDEST PUSH2 0x803 SWAP1 PUSH2 0x2651 JUMP JUMPDEST PUSH2 0x6E5 PUSH2 0x32D1 JUMP JUMPDEST POP PUSH1 0x2 SLOAD PUSH1 0x40 MLOAD PUSH4 0xB9181611 PUSH1 0xE0 SHL DUP2 MSTORE CALLER PUSH1 0x4 DUP3 ADD MSTORE SWAP1 PUSH1 0x20 SWAP1 DUP3 SWAP1 PUSH1 0x24 SWAP1 DUP3 SWAP1 PUSH1 0x1 PUSH1 0x1 PUSH1 0xA0 SHL SUB AND GAS STATICCALL DUP1 ISZERO PUSH2 0x496 JUMPI DUP3 SWAP1 PUSH2 0x84C JUMPI JUMPDEST SWAP1 POP PUSH2 0x7FA JUMP JUMPDEST POP PUSH1 0x20 DUP2 RETURNDATASIZE PUSH1 0x20 GT PUSH2 0x87F JUMPI JUMPDEST DUP2 PUSH2 0x866 PUSH1 0x20 SWAP4 DUP4 PUSH2 0x2622 JUMP JUMPDEST DUP2 ADD SUB SLT PUSH2 0x48A JUMPI PUSH2 0x87A PUSH2 0x803 SWAP2 PUSH2 0x2644 JUMP JUMPDEST PUSH2 0x845 JUMP JUMPDEST RETURNDATASIZE SWAP2 POP PUSH2 0x859 JUMP JUMPDEST POP DUP1 PUSH1 0x3 NOT CALLDATASIZE ADD SLT PUSH2 0x1F3 JUMPI PUSH2 0x89B PUSH2 0x2DF4 JUMP JUMPDEST CALLER EXTCODESIZE PUSH2 0xD27 JUMPI PUSH1 0xC SLOAD DUP1 TIMESTAMP LT PUSH2 0xD11 JUMPI POP PUSH1 0xD SLOAD DUP1 TIMESTAMP GT PUSH2 0xCFB JUMPI POP PUSH1 0xA SLOAD PUSH1 0xFF PUSH1 0xF SLOAD PUSH1 0x8 SHR AND DUP1 SWAP2 LT ISZERO PUSH2 0xCE9 JUMPI POP PUSH1 0xE SLOAD DUP1 CALLVALUE SUB PUSH2 0xCD3 JUMPI POP CALLER DUP2 MSTORE PUSH1 0x3 PUSH1 0x20 MSTORE PUSH1 0xFF PUSH1 0x40 DUP3 KECCAK256 SLOAD AND PUSH2 0xCC5 JUMPI PUSH1 0x2 SLOAD PUSH1 0x40 DUP1 MLOAD PUSH4 0x4C0252C3 PUSH1 0xE1 SHL DUP2 MSTORE CALLER PUSH1 0x4 DUP3 ADD MSTORE PUSH1 0x1 PUSH1 0x1 PUSH1 0xA0 SHL SUB SWAP1 SWAP3 AND SWAP3 SWAP2 SWAP1 DUP2 PUSH1 0x24 DUP2 DUP7 GAS STATICCALL SWAP1 DUP2 ISZERO PUSH2 0x496 JUMPI DUP3 SWAP1 DUP4 SWAP3 PUSH2 0xC77 JUMPI JUMPDEST POP ISZERO PUSH2 0xB62 JUMPI POP PUSH1 0xA SLOAD PUSH1 0x1 PUSH1 0x40 SHL DUP2 LT ISZERO PUSH2 0xB4E JUMPI DUP1 PUSH1 0x1 PUSH2 0x94F SWAP3 ADD PUSH1 0xA SSTORE PUSH1 0xA PUSH2 0x2735 JUMP JUMPDEST DUP2 SLOAD SWAP1 PUSH1 0x3 SHL SWAP1 CALLER DUP3 SHL SWAP2 PUSH1 0x1 DUP1 PUSH1 0xA0 SHL SUB SWAP1 SHL NOT AND OR SWAP1 SSTORE CALLER DUP2 MSTORE PUSH1 0x3 PUSH1 0x20 MSTORE PUSH1 0x40 DUP2 KECCAK256 PUSH1 0x1 PUSH1 0xFF NOT DUP3 SLOAD AND OR SWAP1 SSTORE PUSH2 0x98B CALLVALUE PUSH1 0x13 SLOAD PUSH2 0x283F JUMP JUMPDEST PUSH1 0x13 SSTORE PUSH2 0x99A CALLVALUE PUSH1 0x14 SLOAD PUSH2 0x283F JUMP JUMPDEST PUSH1 0x14 SSTORE PUSH1 0xFF PUSH1 0x1A SLOAD PUSH1 0x8 SHR AND PUSH1 0x8 DUP2 LT ISZERO PUSH2 0x3AA JUMPI PUSH1 0x1 SUB PUSH2 0xA4A JUMPI JUMPDEST PUSH1 0x2 SLOAD DUP2 SWAP1 PUSH1 0x1 PUSH1 0x1 PUSH1 0xA0 SHL SUB AND DUP1 EXTCODESIZE ISZERO PUSH2 0xA47 JUMPI DUP2 DUP1 SWAP2 PUSH1 0x24 PUSH1 0x40 MLOAD DUP1 SWAP5 DUP2 SWAP4 PUSH4 0xC17F9E59 PUSH1 0xE0 SHL DUP4 MSTORE CALLER PUSH1 0x4 DUP5 ADD MSTORE GAS CALL DUP1 ISZERO PUSH2 0x496 JUMPI PUSH2 0xA32 JUMPI JUMPDEST POP PUSH1 0xA SLOAD PUSH1 0x40 MLOAD SWAP1 CALLVALUE DUP3 MSTORE PUSH1 0x20 DUP3 ADD MSTORE PUSH32 0xBEDD10D90B8962EB521114C7E2B49019403D371FFA1E46AFBDA7A3F1FDE8F06F PUSH1 0x40 CALLER SWAP3 LOG2 PUSH1 0x1 DUP1 SSTORE DUP1 RETURN JUMPDEST DUP2 PUSH2 0xA3C SWAP2 PUSH2 0x2622 JUMP JUMPDEST PUSH2 0x1F3 JUMPI DUP1 DUP3 PUSH2 0x9F5 JUMP JUMPDEST POP REVERT JUMPDEST DUP1 PUSH1 0x1 DUP2 PUSH2 0xB41 JUMPI JUMPDEST DUP1 ISZERO PUSH2 0xB34 JUMPI JUMPDEST DUP1 ISZERO PUSH2 0xB27 JUMPI JUMPDEST PUSH2 0xAC4 JUMPI JUMPDEST PUSH2 0x5C9 JUMPI POP PUSH1 0x1A SLOAD PUSH1 0xFF DUP2 PUSH1 0x8 SHR AND SWAP1 PUSH1 0x8 DUP3 LT ISZERO PUSH2 0xAAE JUMPI PUSH2 0x100 SWAP1 PUSH1 0x1 PUSH1 0x0 SWAP4 PUSH1 0x0 DUP1 MLOAD PUSH1 0x20 PUSH2 0x3801 DUP4 CODECOPY DUP2 MLOAD SWAP2 MSTORE PUSH1 0x20 PUSH1 0x40 MLOAD TIMESTAMP DUP2 MSTORE LOG3 PUSH2 0xFF00 NOT AND OR PUSH1 0x1A SSTORE PUSH2 0x9B7 JUMP JUMPDEST PUSH4 0x4E487B71 PUSH1 0xE0 SHL PUSH1 0x0 MSTORE PUSH1 0x21 PUSH1 0x4 MSTORE PUSH1 0x24 PUSH1 0x0 REVERT JUMPDEST POP PUSH1 0x2 SLOAD PUSH1 0x1 PUSH1 0x1 PUSH1 0xA0 SHL SUB AND DUP1 EXTCODESIZE ISZERO PUSH2 0x48A JUMPI PUSH1 0x40 MLOAD PUSH4 0xD8D6E8FF PUSH1 0xE0 SHL DUP2 MSTORE PUSH1 0x1 PUSH1 0x4 DUP3 ADD MSTORE DUP3 SWAP2 DUP3 SWAP1 DUP3 SWAP1 PUSH1 0x24 SWAP1 DUP3 SWAP1 DUP5 SWAP1 GAS CALL SWAP1 DUP2 ISZERO PUSH2 0x496 JUMPI DUP3 SWAP2 PUSH2 0xB10 JUMPI JUMPDEST POP POP PUSH2 0xA66 JUMP JUMPDEST DUP2 PUSH2 0xB1A SWAP2 PUSH2 0x2622 JUMP JUMPDEST PUSH2 0xB25 JUMPI DUP1 DUP4 PUSH2 0xB09 JUMP JUMPDEST REVERT JUMPDEST POP PUSH2 0x5C9 JUMPI DUP1 PUSH1 0x0 PUSH2 0xA61 JUMP JUMPDEST POP PUSH2 0x5C9 JUMPI DUP1 PUSH1 0x0 PUSH2 0xA5A JUMP JUMPDEST POP PUSH2 0x5C9 JUMPI DUP1 PUSH1 0x0 PUSH2 0xA53 JUMP JUMPDEST PUSH4 0x4E487B71 PUSH1 0xE0 SHL DUP3 MSTORE PUSH1 0x41 PUSH1 0x4 MSTORE PUSH1 0x24 DUP3 REVERT JUMPDEST PUSH1 0x24 SWAP3 PUSH1 0x3 DUP3 LT ISZERO PUSH2 0xC64 JUMPI PUSH1 0x20 SWAP2 PUSH1 0x1 SUB PUSH2 0xBF7 JUMPI PUSH1 0x40 MLOAD PUSH4 0x77F855C9 PUSH1 0xE1 SHL DUP2 MSTORE CALLER PUSH1 0x4 DUP3 ADD MSTORE SWAP4 DUP5 SWAP2 DUP3 SWAP1 GAS STATICCALL DUP1 ISZERO PUSH2 0xBEA JUMPI DUP2 SWAP1 PUSH2 0xBB2 JUMPI JUMPDEST PUSH4 0x1B627879 PUSH1 0xE3 SHL DUP3 MSTORE PUSH1 0x4 MSTORE PUSH1 0x24 SWAP2 POP REVERT JUMPDEST POP PUSH1 0x20 DUP3 RETURNDATASIZE PUSH1 0x20 GT PUSH2 0xBE2 JUMPI JUMPDEST DUP2 PUSH2 0xBCC PUSH1 0x20 SWAP4 DUP4 PUSH2 0x2622 JUMP JUMPDEST DUP2 ADD SUB SLT PUSH2 0xBDD JUMPI PUSH1 0x24 SWAP2 MLOAD PUSH2 0xB9F JUMP JUMPDEST PUSH1 0x0 DUP1 REVERT JUMPDEST RETURNDATASIZE SWAP2 POP PUSH2 0xBBF JUMP JUMPDEST POP PUSH1 0x40 MLOAD SWAP1 RETURNDATASIZE SWAP1 DUP3 RETURNDATACOPY RETURNDATASIZE SWAP1 REVERT JUMPDEST PUSH1 0x40 MLOAD PUSH4 0x1B8093B1 PUSH1 0xE1 SHL DUP2 MSTORE CALLER PUSH1 0x4 DUP3 ADD MSTORE SWAP4 DUP5 SWAP2 DUP3 SWAP1 GAS STATICCALL DUP1 ISZERO PUSH2 0xBEA JUMPI DUP2 SWAP1 PUSH2 0xC31 JUMPI JUMPDEST PUSH4 0x147CE66F PUSH1 0xE3 SHL DUP3 MSTORE PUSH1 0x4 MSTORE PUSH1 0x24 SWAP2 POP REVERT JUMPDEST POP PUSH1 0x20 DUP3 RETURNDATASIZE PUSH1 0x20 GT PUSH2 0xC5C JUMPI JUMPDEST DUP2 PUSH2 0xC4B PUSH1 0x20 SWAP4 DUP4 PUSH2 0x2622 JUMP JUMPDEST DUP2 ADD SUB SLT PUSH2 0xBDD JUMPI PUSH1 0x24 SWAP2 MLOAD PUSH2 0xC1E JUMP JUMPDEST RETURNDATASIZE SWAP2 POP PUSH2 0xC3E JUMP JUMPDEST POP POP PUSH4 0x4E487B71 PUSH1 0xE0 SHL DUP2 MSTORE PUSH1 0x21 PUSH1 0x4 MSTORE REVERT JUMPDEST SWAP2 POP POP PUSH1 0x40 DUP2 RETURNDATASIZE PUSH1 0x40 GT PUSH2 0xCBD JUMPI JUMPDEST DUP2 PUSH2 0xC93 PUSH1 0x40 SWAP4 DUP4 PUSH2 0x2622 JUMP JUMPDEST DUP2 ADD SUB SLT PUSH2 0x48A JUMPI PUSH1 0x20 PUSH2 0xCA6 DUP3 PUSH2 0x2644 JUMP JUMPDEST SWAP2 ADD MLOAD SWAP1 PUSH1 0x3 DUP3 LT ISZERO PUSH2 0xCB9 JUMPI CODESIZE PUSH2 0x927 JUMP JUMPDEST DUP3 DUP1 REVERT JUMPDEST RETURNDATASIZE SWAP2 POP PUSH2 0xC86 JUMP JUMPDEST PUSH3 0x1D9341 PUSH1 0xE1 SHL DUP2 MSTORE PUSH1 0x4 SWAP1 REVERT JUMPDEST PUSH4 0x54D7A6B3 PUSH1 0xE0 SHL DUP3 MSTORE PUSH1 0x4 MSTORE CALLVALUE PUSH1 0x24 MSTORE PUSH1 0x44 SWAP1 REVERT JUMPDEST PUSH4 0x647BCFA1 PUSH1 0xE0 SHL DUP3 MSTORE PUSH1 0x4 MSTORE PUSH1 0x24 SWAP1 REVERT JUMPDEST PUSH4 0x166450C9 PUSH1 0xE3 SHL DUP3 MSTORE TIMESTAMP PUSH1 0x4 MSTORE PUSH1 0x24 MSTORE PUSH1 0x44 SWAP1 REVERT JUMPDEST PUSH4 0x4CD01EFB PUSH1 0xE1 SHL DUP3 MSTORE TIMESTAMP PUSH1 0x4 MSTORE PUSH1 0x24 MSTORE PUSH1 0x44 SWAP1 REVERT JUMPDEST PUSH3 0x8B5315 PUSH1 0xE0 SHL DUP2 MSTORE PUSH1 0x4 SWAP1 REVERT JUMPDEST POP CALLVALUE PUSH2 0x1F3 JUMPI DUP1 PUSH1 0x3 NOT CALLDATASIZE ADD SLT PUSH2 0x1F3 JUMPI PUSH1 0x20 PUSH1 0x7 SLOAD PUSH1 0x40 MLOAD SWAP1 DUP2 MSTORE RETURN JUMPDEST POP CALLVALUE PUSH2 0x1F3 JUMPI DUP1 PUSH1 0x3 NOT CALLDATASIZE ADD SLT PUSH2 0x1F3 JUMPI SLOAD PUSH1 0x40 MLOAD PUSH1 0x1 PUSH1 0x1 PUSH1 0xA0 SHL SUB SWAP1 SWAP2 AND DUP2 MSTORE PUSH1 0x20 SWAP1 RETURN JUMPDEST POP CALLVALUE PUSH2 0x1F3 JUMPI DUP1 PUSH1 0x3 NOT CALLDATASIZE ADD SLT PUSH2 0x1F3 JUMPI PUSH2 0xD93 PUSH2 0x2E16 JUMP JUMPDEST SWAP1 PUSH1 0x8 DUP3 LT ISZERO PUSH2 0x5C9 JUMPI DUP2 PUSH1 0x6 PUSH1 0x20 SWAP4 EQ SWAP2 DUP3 ISZERO PUSH2 0xDB8 JUMPI JUMPDEST POP POP PUSH1 0x40 MLOAD SWAP1 ISZERO ISZERO DUP2 MSTORE RETURN JUMPDEST PUSH1 0x7 SWAP3 POP POP EQ CODESIZE DUP1 PUSH2 0xDAC JUMP JUMPDEST POP CALLVALUE PUSH2 0x1F3 JUMPI DUP1 PUSH1 0x3 NOT CALLDATASIZE ADD SLT PUSH2 0x1F3 JUMPI PUSH2 0xDDE PUSH2 0x2E16 JUMP JUMPDEST PUSH1 0x8 DUP2 LT ISZERO PUSH2 0x3AA JUMPI PUSH1 0x7 PUSH2 0xDF3 SWAP2 EQ PUSH2 0x269D JUMP JUMPDEST PUSH1 0xA SLOAD DUP2 DUP1 JUMPDEST DUP3 DUP2 LT PUSH2 0xE84 JUMPI POP PUSH2 0xE0A SWAP1 PUSH2 0x28DE JUMP JUMPDEST SWAP2 DUP1 DUP1 JUMPDEST DUP4 DUP2 LT PUSH2 0xE23 JUMPI PUSH1 0x40 MLOAD DUP1 PUSH2 0x248 DUP8 DUP3 PUSH2 0x2552 JUMP JUMPDEST DUP1 PUSH2 0xE2F PUSH1 0x1 SWAP3 PUSH2 0x26E9 JUMP JUMPDEST DUP4 DUP1 PUSH1 0xA0 SHL SUB SWAP2 SLOAD SWAP1 PUSH1 0x3 SHL SHR AND DUP4 MSTORE PUSH1 0x6 PUSH1 0x20 MSTORE PUSH1 0x40 DUP4 KECCAK256 SLOAD PUSH2 0xE54 JUMPI JUMPDEST ADD PUSH2 0xE0E JUMP JUMPDEST PUSH2 0xE5D DUP2 PUSH2 0x26E9 JUMP JUMPDEST DUP4 DUP1 PUSH1 0xA0 SHL SUB SWAP2 SLOAD SWAP1 PUSH1 0x3 SHL SHR AND PUSH2 0xE7E PUSH2 0xE77 DUP7 PUSH2 0x2A6D JUMP JUMPDEST SWAP6 DUP9 PUSH2 0x2A7C JUMP JUMPDEST MSTORE PUSH2 0xE4E JUMP JUMPDEST PUSH2 0xE8D DUP2 PUSH2 0x26E9 JUMP JUMPDEST SWAP1 SLOAD PUSH1 0x3 SWAP2 SWAP1 SWAP2 SHL SHR PUSH1 0x1 PUSH1 0x1 PUSH1 0xA0 SHL SUB AND DUP5 MSTORE PUSH1 0x6 PUSH1 0x20 MSTORE PUSH1 0x40 DUP5 KECCAK256 SLOAD PUSH2 0xEB8 JUMPI JUMPDEST PUSH1 0x1 ADD PUSH2 0xDF9 JUMP JUMPDEST SWAP1 PUSH2 0xEC4 PUSH1 0x1 SWAP2 PUSH2 0x2A6D JUMP JUMPDEST SWAP2 SWAP1 POP PUSH2 0xEB0 JUMP JUMPDEST POP CALLVALUE PUSH2 0x1F3 JUMPI DUP1 PUSH1 0x3 NOT CALLDATASIZE ADD SLT PUSH2 0x1F3 JUMPI DUP1 PUSH2 0x260 PUSH1 0x40 MLOAD PUSH2 0xEED DUP2 PUSH2 0x2605 JUMP JUMPDEST PUSH1 0x60 DUP2 MSTORE DUP3 PUSH1 0x20 DUP3 ADD MSTORE DUP3 PUSH1 0x40 DUP3 ADD MSTORE DUP3 PUSH1 0x60 DUP3 ADD MSTORE DUP3 PUSH1 0x80 DUP3 ADD MSTORE DUP3 PUSH1 0xA0 DUP3 ADD MSTORE DUP3 PUSH1 0xC0 DUP3 ADD MSTORE DUP3 PUSH1 0xE0 DUP3 ADD MSTORE DUP3 PUSH2 0x100 DUP3 ADD MSTORE DUP3 PUSH2 0x120 DUP3 ADD MSTORE DUP3 PUSH2 0x140 DUP3 ADD MSTORE DUP3 PUSH2 0x160 DUP3 ADD MSTORE DUP3 PUSH2 0x180 DUP3 ADD MSTORE DUP3 PUSH2 0x1A0 DUP3 ADD MSTORE DUP3 PUSH2 0x1C0 DUP3 ADD MSTORE PUSH1 0x60 PUSH2 0x1E0 DUP3 ADD MSTORE DUP3 PUSH2 0x200 DUP3 ADD MSTORE PUSH1 0x60 PUSH2 0x220 DUP3 ADD MSTORE PUSH1 0x60 PUSH2 0x240 DUP3 ADD MSTORE ADD MSTORE PUSH1 0x40 MLOAD SWAP1 PUSH2 0xF7A DUP3 PUSH2 0x2605 JUMP JUMPDEST PUSH1 0x40 MLOAD PUSH1 0xA SLOAD DUP1 DUP3 MSTORE DUP2 PUSH1 0x20 DUP2 ADD PUSH1 0xA DUP6 MSTORE PUSH1 0x20 DUP6 KECCAK256 SWAP3 DUP6 JUMPDEST DUP2 DUP2 LT PUSH2 0x12A3 JUMPI POP POP PUSH2 0xFA8 SWAP3 POP SUB DUP3 PUSH2 0x2622 JUMP JUMPDEST DUP3 MSTORE PUSH1 0xFF PUSH1 0xB SLOAD AND PUSH1 0x7 DUP2 LT ISZERO PUSH2 0x3AA JUMPI PUSH1 0x20 DUP4 ADD MSTORE PUSH1 0xC SLOAD PUSH1 0x40 DUP4 ADD MSTORE PUSH1 0xD SLOAD PUSH1 0x60 DUP4 ADD MSTORE PUSH1 0xE SLOAD PUSH1 0x80 DUP4 ADD MSTORE PUSH1 0xFF PUSH1 0xF SLOAD DUP2 DUP2 AND PUSH1 0xA0 DUP6 ADD MSTORE DUP2 DUP2 PUSH1 0x8 SHR AND PUSH1 0xC0 DUP6 ADD MSTORE DUP2 DUP2 PUSH1 0x10 SHR AND PUSH1 0xE0 DUP6 ADD MSTORE PUSH1 0x18 SHR AND PUSH2 0x100 DUP4 ADD MSTORE PUSH1 0x10 SLOAD PUSH2 0x120 DUP4 ADD MSTORE PUSH1 0x11 SLOAD PUSH2 0x140 DUP4 ADD MSTORE PUSH1 0xFF PUSH1 0x12 SLOAD DUP2 DUP2 AND PUSH2 0x160 DUP6 ADD MSTORE PUSH1 0x8 SHR AND PUSH2 0x180 DUP4 ADD MSTORE PUSH1 0x13 SLOAD PUSH2 0x1A0 DUP4 ADD MSTORE PUSH1 0x14 SLOAD PUSH2 0x1C0 DUP4 ADD MSTORE PUSH2 0x1047 PUSH2 0x29F3 JUMP JUMPDEST PUSH2 0x1E0 DUP4 ADD MSTORE PUSH1 0x16 SLOAD PUSH2 0x200 DUP4 ADD MSTORE PUSH1 0x40 MLOAD PUSH1 0x17 SLOAD DUP1 DUP3 MSTORE DUP2 PUSH1 0x20 DUP2 ADD PUSH1 0x17 DUP6 MSTORE PUSH1 0x20 DUP6 KECCAK256 SWAP3 DUP6 JUMPDEST DUP2 DUP2 LT PUSH2 0x1281 JUMPI POP POP PUSH2 0x1084 SWAP3 POP SUB DUP3 PUSH2 0x2622 JUMP JUMPDEST PUSH2 0x220 DUP4 ADD MSTORE PUSH1 0x40 MLOAD SWAP1 DUP2 DUP2 PUSH1 0x18 SLOAD SWAP3 PUSH2 0x109D DUP5 PUSH2 0x293A JUMP JUMPDEST DUP1 DUP5 MSTORE SWAP4 PUSH1 0x1 DUP2 AND SWAP1 DUP2 ISZERO PUSH2 0x125F JUMPI POP PUSH1 0x1 EQ PUSH2 0x1212 JUMPI JUMPDEST POP PUSH2 0x10C2 SWAP3 POP SUB DUP3 PUSH2 0x2622 JUMP JUMPDEST PUSH2 0x240 DUP3 ADD MSTORE PUSH1 0x19 SLOAD PUSH2 0x260 DUP3 ADD MSTORE PUSH1 0x40 MLOAD DUP1 SWAP2 PUSH1 0x20 DUP3 MSTORE PUSH2 0x260 PUSH2 0x1205 PUSH2 0x11EF PUSH2 0x11CB PUSH2 0x10FE DUP6 MLOAD PUSH2 0x280 PUSH1 0x20 DUP10 ADD MSTORE PUSH2 0x2A0 DUP9 ADD SWAP1 PUSH2 0x247E JUMP JUMPDEST PUSH2 0x1110 PUSH1 0x20 DUP8 ADD MLOAD PUSH1 0x40 DUP10 ADD SWAP1 PUSH2 0x24BB JUMP JUMPDEST PUSH1 0x40 DUP7 ADD MLOAD PUSH1 0x60 DUP9 ADD MSTORE PUSH1 0x60 DUP7 ADD MLOAD PUSH1 0x80 DUP9 ADD MSTORE PUSH1 0x80 DUP7 ADD MLOAD PUSH1 0xA0 DUP9 ADD MSTORE PUSH1 0xFF PUSH1 0xA0 DUP8 ADD MLOAD AND PUSH1 0xC0 DUP9 ADD MSTORE PUSH1 0xFF PUSH1 0xC0 DUP8 ADD MLOAD AND PUSH1 0xE0 DUP9 ADD MSTORE PUSH1 0xFF PUSH1 0xE0 DUP8 ADD MLOAD AND PUSH2 0x100 DUP9 ADD MSTORE PUSH1 0xFF PUSH2 0x100 DUP8 ADD MLOAD AND PUSH2 0x120 DUP9 ADD MSTORE PUSH2 0x120 DUP7 ADD MLOAD PUSH2 0x140 DUP9 ADD MSTORE PUSH2 0x140 DUP7 ADD MLOAD PUSH2 0x160 DUP9 ADD MSTORE PUSH1 0xFF PUSH2 0x160 DUP8 ADD MLOAD AND PUSH2 0x180 DUP9 ADD MSTORE PUSH1 0xFF PUSH2 0x180 DUP8 ADD MLOAD AND PUSH2 0x1A0 DUP9 ADD MSTORE PUSH2 0x1A0 DUP7 ADD MLOAD PUSH2 0x1C0 DUP9 ADD MSTORE PUSH2 0x1C0 DUP7 ADD MLOAD PUSH2 0x1E0 DUP9 ADD MSTORE PUSH2 0x1E0 DUP7 ADD MLOAD PUSH1 0x1F NOT DUP9 DUP4 SUB ADD PUSH2 0x200 DUP10 ADD MSTORE PUSH2 0x24C8 JUMP JUMPDEST PUSH2 0x200 DUP6 ADD MLOAD PUSH2 0x220 DUP8 ADD MSTORE PUSH2 0x220 DUP6 ADD MLOAD PUSH1 0x1F NOT DUP8 DUP4 SUB ADD PUSH2 0x240 DUP9 ADD MSTORE PUSH2 0x247E JUMP JUMPDEST PUSH2 0x240 DUP5 ADD MLOAD DUP6 DUP3 SUB PUSH1 0x1F NOT ADD DUP5 DUP8 ADD MSTORE PUSH2 0x2511 JUMP JUMPDEST SWAP2 ADD MLOAD PUSH2 0x280 DUP4 ADD MSTORE SUB SWAP1 RETURN JUMPDEST PUSH1 0x18 DUP2 MSTORE SWAP2 SWAP3 SWAP1 POP PUSH1 0x0 DUP1 MLOAD PUSH1 0x20 PUSH2 0x3821 DUP4 CODECOPY DUP2 MLOAD SWAP2 MSTORE JUMPDEST DUP2 DUP4 LT PUSH2 0x1243 JUMPI POP POP SWAP1 PUSH1 0x20 PUSH2 0x10C2 SWAP3 DUP3 ADD ADD CODESIZE PUSH2 0x10B5 JUMP JUMPDEST PUSH1 0x20 SWAP2 SWAP4 POP DUP1 PUSH1 0x1 SWAP2 SLOAD DUP4 DUP6 DUP9 ADD ADD MSTORE ADD SWAP2 ADD SWAP1 SWAP2 DUP4 SWAP3 PUSH2 0x122A JUMP JUMPDEST SWAP1 POP PUSH1 0x20 SWAP3 POP PUSH2 0x10C2 SWAP5 SWAP2 POP PUSH1 0xFF NOT AND DUP3 DUP5 ADD MSTORE ISZERO ISZERO PUSH1 0x5 SHL DUP3 ADD ADD CODESIZE PUSH2 0x10B5 JUMP JUMPDEST DUP5 SLOAD PUSH1 0x1 PUSH1 0x1 PUSH1 0xA0 SHL SUB AND DUP4 MSTORE PUSH1 0x1 SWAP5 DUP6 ADD SWAP5 DUP7 SWAP5 POP PUSH1 0x20 SWAP1 SWAP4 ADD SWAP3 ADD PUSH2 0x106F JUMP JUMPDEST DUP5 SLOAD PUSH1 0x1 PUSH1 0x1 PUSH1 0xA0 SHL SUB AND DUP4 MSTORE PUSH1 0x1 SWAP5 DUP6 ADD SWAP5 DUP7 SWAP5 POP PUSH1 0x20 SWAP1 SWAP4 ADD SWAP3 ADD PUSH2 0xF93 JUMP JUMPDEST POP CALLVALUE PUSH2 0x1F3 JUMPI DUP1 PUSH1 0x3 NOT CALLDATASIZE ADD SLT PUSH2 0x1F3 JUMPI PUSH2 0x12DE PUSH2 0x2DF4 JUMP JUMPDEST PUSH2 0x12E6 PUSH2 0x2E16 JUMP JUMPDEST PUSH1 0x8 DUP2 LT ISZERO PUSH2 0x3AA JUMPI PUSH1 0x4 DUP2 EQ PUSH2 0x18EC JUMPI PUSH1 0x3 DUP2 LT PUSH2 0x18D3 JUMPI PUSH1 0x3 LT PUSH2 0x18C4 JUMPI CALLER DUP2 MSTORE PUSH1 0x4 PUSH1 0x20 MSTORE PUSH1 0xFF PUSH1 0x40 DUP3 KECCAK256 SLOAD AND PUSH2 0x18B5 JUMPI CALLER DUP2 MSTORE PUSH1 0x3 PUSH1 0x20 MSTORE PUSH1 0xFF PUSH1 0x40 DUP3 KECCAK256 SLOAD AND ISZERO PUSH2 0x18A6 JUMPI PUSH1 0x12 SLOAD PUSH1 0xFF DUP2 PUSH1 0x8 SHR AND SWAP1 PUSH1 0xFF DUP2 AND DUP3 LT ISZERO PUSH2 0x1897 JUMPI PUSH1 0x10 SLOAD PUSH2 0x1352 DUP2 TIMESTAMP PUSH2 0x284C JUMP JUMPDEST SWAP1 PUSH1 0x64 DUP3 MUL SWAP2 DUP1 DUP4 DIV PUSH1 0x64 EQ SWAP1 ISZERO OR ISZERO PUSH2 0x1883 JUMPI SWAP1 PUSH2 0x1376 PUSH2 0x137C SWAP3 PUSH1 0x11 SLOAD PUSH2 0x284C JUMP JUMPDEST SWAP1 PUSH2 0x2974 JUMP JUMPDEST SWAP2 PUSH1 0x13 SLOAD PUSH1 0x64 PUSH2 0x1399 PUSH1 0x14 SLOAD SWAP6 PUSH2 0x1393 DUP8 DUP6 PUSH2 0x284C JUMP JUMPDEST SWAP4 PUSH2 0x2910 JUMP JUMPDEST DIV SWAP1 DUP1 DUP3 LT PUSH2 0x1848 JUMPI PUSH2 0x13AB SWAP2 PUSH2 0x284C JUMP JUMPDEST SWAP3 DUP1 DUP5 GT PUSH2 0x1840 JUMPI JUMPDEST DUP4 ISZERO PUSH2 0x1803 JUMPI DUP4 PUSH2 0x13C4 SWAP2 PUSH2 0x284C JUMP JUMPDEST PUSH1 0x14 SSTORE PUSH1 0xFF DUP2 EQ PUSH2 0x17EF JUMPI PUSH1 0x1 PUSH2 0xFF00 SWAP2 ADD PUSH1 0x8 SHL AND SWAP1 PUSH2 0xFF00 NOT AND OR PUSH1 0x12 SSTORE CALLER DUP3 MSTORE PUSH1 0x4 PUSH1 0x20 MSTORE PUSH1 0x40 DUP3 KECCAK256 PUSH1 0x1 PUSH1 0xFF NOT DUP3 SLOAD AND OR SWAP1 SSTORE PUSH1 0x40 MLOAD PUSH2 0x1407 DUP2 PUSH2 0x25D3 JUMP JUMPDEST CALLER DUP2 MSTORE DUP2 PUSH1 0x20 DUP3 ADD MSTORE PUSH1 0x15 SLOAD PUSH1 0x1 PUSH1 0x40 SHL DUP2 LT ISZERO PUSH2 0x17DB JUMPI DUP1 PUSH1 0x1 PUSH2 0x142F SWAP3 ADD PUSH1 0x15 SSTORE PUSH2 0x2994 JUMP JUMPDEST PUSH2 0x17C7 JUMPI DUP2 MLOAD DUP2 SLOAD PUSH1 0x1 PUSH1 0x1 PUSH1 0xA0 SHL SUB NOT AND PUSH1 0x1 PUSH1 0x1 PUSH1 0xA0 SHL SUB SWAP2 SWAP1 SWAP2 AND OR DUP2 SSTORE PUSH1 0x20 SWAP1 SWAP2 ADD MLOAD PUSH1 0x1 SWAP1 SWAP2 ADD SSTORE DUP2 DUP1 DUP1 DUP1 DUP5 CALLER GAS CALL PUSH2 0x146C PUSH2 0x29B3 JUMP JUMPDEST SWAP1 ISZERO PUSH2 0x1793 JUMPI POP PUSH1 0xFF PUSH1 0x12 SLOAD DUP2 DUP2 PUSH1 0x8 SHR AND DUP1 SWAP4 PUSH1 0x14 SLOAD PUSH1 0x40 MLOAD SWAP2 DUP3 MSTORE PUSH1 0x20 DUP3 ADD MSTORE PUSH32 0xBBDD894F5E6D754C18172761A1A461095C26DE58905E706A8C33657573D40672 PUSH1 0x40 CALLER SWAP3 LOG3 AND SUB PUSH2 0x1731 JUMPI PUSH2 0x14C2 PUSH2 0x2F21 JUMP JUMPDEST PUSH2 0x14CA PUSH2 0x2E16 JUMP JUMPDEST PUSH1 0x8 DUP2 LT ISZERO PUSH2 0x3AA JUMPI PUSH1 0x6 EQ DUP1 ISZERO PUSH2 0x1717 JUMPI JUMPDEST ISZERO PUSH2 0x1F3 JUMPI SELFBALANCE PUSH2 0x14EE DUP2 ISZERO ISZERO PUSH2 0x306F JUMP JUMPDEST PUSH1 0xA SLOAD ISZERO PUSH2 0x170A JUMPI JUMPDEST DUP2 DUP3 SWAP2 PUSH1 0xA SLOAD JUMPDEST DUP1 DUP5 LT PUSH2 0x16CF JUMPI POP PUSH2 0x1517 SWAP3 POP DUP1 DUP3 GT PUSH2 0x16C7 JUMPI PUSH2 0x284C JUMP JUMPDEST DUP1 ISZERO PUSH2 0x1523 DUP2 ISZERO PUSH2 0x306F JUMP JUMPDEST PUSH1 0x19 DUP3 MUL SWAP1 DUP3 DUP3 DIV PUSH1 0x19 EQ OR ISZERO PUSH2 0x16B3 JUMPI PUSH1 0x64 PUSH2 0x1542 SWAP2 DIV DUP1 SWAP3 PUSH2 0x284C JUMP JUMPDEST PUSH1 0x2 SLOAD PUSH1 0x40 MLOAD PUSH4 0x8DA5CB5B PUSH1 0xE0 SHL DUP2 MSTORE SWAP2 SWAP3 SWAP2 DUP5 SWAP2 PUSH1 0x20 SWAP1 DUP3 SWAP1 PUSH1 0x4 SWAP1 DUP3 SWAP1 PUSH1 0x1 PUSH1 0x1 PUSH1 0xA0 SHL SUB AND GAS STATICCALL SWAP1 DUP2 ISZERO PUSH2 0x496 JUMPI DUP3 SWAP2 DUP5 SWAP2 DUP4 SWAP2 PUSH2 0x166B JUMPI JUMPDEST POP DUP3 SWAP2 DUP3 SWAP2 PUSH1 0x1 PUSH1 0x1 PUSH1 0xA0 SHL SUB AND GAS CALL PUSH2 0x1596 PUSH2 0x29B3 JUMP JUMPDEST POP ISZERO PUSH2 0x162E JUMPI PUSH1 0x2 SLOAD PUSH1 0xB SLOAD DUP5 SWAP2 PUSH1 0x1 PUSH1 0x1 PUSH1 0xA0 SHL SUB AND SWAP1 PUSH1 0xFF AND DUP2 EXTCODESIZE ISZERO PUSH2 0xCB9 JUMPI PUSH2 0x15DC PUSH1 0x24 DUP5 SWAP3 DUP8 PUSH1 0x40 MLOAD SWAP6 DUP7 SWAP5 DUP6 SWAP4 PUSH4 0xA9BEA789 PUSH1 0xE0 SHL DUP6 MSTORE PUSH1 0x4 DUP6 ADD SWAP1 PUSH2 0x24BB JUMP JUMPDEST GAS CALL DUP1 ISZERO PUSH2 0x496 JUMPI PUSH2 0x1619 JUMPI JUMPDEST POP POP PUSH1 0x0 DUP1 MLOAD PUSH1 0x20 PUSH2 0x3841 DUP4 CODECOPY DUP2 MLOAD SWAP2 MSTORE PUSH1 0x40 DUP1 MLOAD DUP4 DUP2 MSTORE DUP5 PUSH1 0x20 DUP3 ADD MSTORE LOG1 PUSH1 0x7 SSTORE PUSH1 0x8 SSTORE SELFBALANCE PUSH1 0x14 SSTORE PUSH1 0x1 DUP1 SSTORE DUP1 RETURN JUMPDEST DUP2 PUSH2 0x1623 SWAP2 PUSH2 0x2622 JUMP JUMPDEST PUSH2 0xCB9 JUMPI DUP3 CODESIZE PUSH2 0x15E9 JUMP JUMPDEST PUSH1 0x40 MLOAD PUSH3 0x461BCD PUSH1 0xE5 SHL DUP2 MSTORE PUSH1 0x20 PUSH1 0x4 DUP3 ADD MSTORE PUSH1 0x15 PUSH1 0x24 DUP3 ADD MSTORE PUSH21 0x13DDDB995C881D1C985B9CD9995C8819985A5B1959 PUSH1 0x5A SHL PUSH1 0x44 DUP3 ADD MSTORE PUSH1 0x64 SWAP1 REVERT JUMPDEST SWAP3 POP POP POP PUSH1 0x20 DUP2 RETURNDATASIZE PUSH1 0x20 GT PUSH2 0x16AB JUMPI JUMPDEST DUP2 PUSH2 0x1688 PUSH1 0x20 SWAP4 DUP4 PUSH2 0x2622 JUMP JUMPDEST DUP2 ADD SUB SLT PUSH2 0x48A JUMPI MLOAD PUSH1 0x1 PUSH1 0x1 PUSH1 0xA0 SHL SUB DUP2 AND DUP2 SUB PUSH2 0x48A JUMPI DUP2 SWAP1 DUP4 SWAP1 DUP3 PUSH2 0x157E JUMP JUMPDEST RETURNDATASIZE SWAP2 POP PUSH2 0x167B JUMP JUMPDEST PUSH4 0x4E487B71 PUSH1 0xE0 SHL DUP4 MSTORE PUSH1 0x11 PUSH1 0x4 MSTORE PUSH1 0x24 DUP4 REVERT JUMPDEST SWAP1 POP DUP1 PUSH2 0x284C JUMP JUMPDEST SWAP1 SWAP2 PUSH2 0x1700 PUSH1 0x1 SWAP2 PUSH2 0x16E0 DUP7 PUSH2 0x26E9 JUMP JUMPDEST DUP5 DUP1 PUSH1 0xA0 SHL SUB SWAP2 SLOAD SWAP1 PUSH1 0x3 SHL SHR AND DUP8 MSTORE PUSH1 0x6 PUSH1 0x20 MSTORE PUSH1 0x40 DUP8 KECCAK256 SLOAD SWAP1 PUSH2 0x283F JUMP JUMPDEST SWAP4 ADD SWAP3 SWAP2 SWAP1 PUSH2 0x14FE JUMP JUMPDEST PUSH2 0x1712 PUSH2 0x2FCE JUMP JUMPDEST PUSH2 0x14F7 JUMP JUMPDEST POP PUSH2 0x1720 PUSH2 0x2E16 JUMP JUMPDEST PUSH1 0x8 DUP2 LT ISZERO PUSH2 0x3AA JUMPI PUSH1 0x7 EQ PUSH2 0x14DD JUMP JUMPDEST DUP1 PUSH2 0x5C9 JUMPI POP PUSH1 0x0 TIMESTAMP PUSH1 0x16 SSTORE PUSH1 0x1A SLOAD PUSH1 0xFF DUP2 PUSH1 0x8 SHR AND SWAP1 PUSH1 0x8 DUP3 LT ISZERO PUSH2 0x177F JUMPI DUP3 PUSH1 0x4 PUSH2 0x400 SWAP4 PUSH1 0x0 DUP1 MLOAD PUSH1 0x20 PUSH2 0x3801 DUP4 CODECOPY DUP2 MLOAD SWAP2 MSTORE PUSH1 0x20 PUSH1 0x40 MLOAD TIMESTAMP DUP2 MSTORE LOG3 POP PUSH2 0xFF00 NOT AND OR PUSH1 0x1A SSTORE PUSH2 0x6E5 JUMP JUMPDEST PUSH4 0x4E487B71 PUSH1 0xE0 SHL DUP4 MSTORE PUSH1 0x21 PUSH1 0x4 MSTORE PUSH1 0x24 DUP4 REVERT JUMPDEST SWAP1 PUSH2 0x17C3 PUSH1 0x40 MLOAD SWAP3 DUP4 SWAP3 PUSH4 0xD086DB43 PUSH1 0xE0 SHL DUP5 MSTORE CALLER PUSH1 0x4 DUP6 ADD MSTORE PUSH1 0x24 DUP5 ADD MSTORE PUSH1 0x60 PUSH1 0x44 DUP5 ADD MSTORE PUSH1 0x64 DUP4 ADD SWAP1 PUSH2 0x2511 JUMP JUMPDEST SUB SWAP1 REVERT JUMPDEST PUSH4 0x4E487B71 PUSH1 0xE0 SHL DUP5 MSTORE PUSH1 0x4 DUP5 SWAP1 MSTORE PUSH1 0x24 DUP5 REVERT JUMPDEST PUSH4 0x4E487B71 PUSH1 0xE0 SHL DUP5 MSTORE PUSH1 0x41 PUSH1 0x4 MSTORE PUSH1 0x24 DUP5 REVERT JUMPDEST PUSH4 0x4E487B71 PUSH1 0xE0 SHL DUP5 MSTORE PUSH1 0x11 PUSH1 0x4 MSTORE PUSH1 0x24 DUP5 REVERT JUMPDEST PUSH1 0x40 MLOAD PUSH3 0x461BCD PUSH1 0xE5 SHL DUP2 MSTORE PUSH1 0x20 PUSH1 0x4 DUP3 ADD MSTORE PUSH1 0x15 PUSH1 0x24 DUP3 ADD MSTORE PUSH21 0x139BC81A5B98DC995B595B9D185B081C185E5BDD5D PUSH1 0x5A SHL PUSH1 0x44 DUP3 ADD MSTORE PUSH1 0x64 SWAP1 REVERT JUMPDEST SWAP3 POP DUP3 PUSH2 0x13B4 JUMP JUMPDEST PUSH1 0x40 MLOAD PUSH3 0x461BCD PUSH1 0xE5 SHL DUP2 MSTORE PUSH1 0x20 PUSH1 0x4 DUP3 ADD MSTORE PUSH1 0x13 PUSH1 0x24 DUP3 ADD MSTORE PUSH19 0x283937B3B932B9B9903932B3B932B9B9B4B7B7 PUSH1 0x69 SHL PUSH1 0x44 DUP3 ADD MSTORE PUSH1 0x64 SWAP1 REVERT JUMPDEST PUSH4 0x4E487B71 PUSH1 0xE0 SHL DUP6 MSTORE PUSH1 0x11 PUSH1 0x4 MSTORE PUSH1 0x24 DUP6 REVERT JUMPDEST PUSH4 0x21B94F7B PUSH1 0xE2 SHL DUP4 MSTORE PUSH1 0x4 DUP4 REVERT JUMPDEST PUSH4 0xC394A433 PUSH1 0xE0 SHL DUP2 MSTORE PUSH1 0x4 SWAP1 REVERT JUMPDEST PUSH4 0x2AB8F89 PUSH1 0xE1 SHL DUP2 MSTORE PUSH1 0x4 SWAP1 REVERT JUMPDEST PUSH4 0xD6A05DF PUSH1 0xE4 SHL DUP2 MSTORE PUSH1 0x4 SWAP1 REVERT JUMPDEST PUSH1 0x10 SLOAD PUSH4 0x16F5E3B7 PUSH1 0xE2 SHL DUP4 MSTORE TIMESTAMP PUSH1 0x4 MSTORE PUSH1 0x24 MSTORE PUSH1 0x44 DUP3 REVERT JUMPDEST PUSH1 0x24 DUP3 PUSH1 0x12 SLOAD PUSH1 0xFF DUP1 PUSH2 0x1903 DUP2 DUP5 PUSH1 0x8 SHR AND PUSH2 0x2817 JUMP JUMPDEST SWAP3 AND SWAP2 AND EQ PUSH1 0x0 EQ PUSH2 0x1943 JUMPI PUSH2 0x1931 PUSH1 0xFF PUSH1 0xF SLOAD PUSH1 0x18 SHR AND JUMPDEST PUSH2 0x192C PUSH1 0xFF TIMESTAMP SWAP3 AND PUSH1 0x16 SLOAD PUSH2 0x283F JUMP JUMPDEST PUSH2 0x284C JUMP JUMPDEST PUSH1 0x1 PUSH3 0x269D79 PUSH1 0xE2 SHL SUB NOT DUP3 MSTORE PUSH1 0x4 MSTORE REVERT JUMPDEST PUSH2 0x1931 PUSH1 0xFF PUSH1 0xF SLOAD PUSH1 0x10 SHR AND PUSH2 0x191C JUMP JUMPDEST POP CALLVALUE PUSH2 0x1F3 JUMPI DUP1 PUSH1 0x3 NOT CALLDATASIZE ADD SLT PUSH2 0x1F3 JUMPI PUSH2 0x196D PUSH2 0x32A8 JUMP JUMPDEST DUP1 SLOAD PUSH1 0x1 PUSH1 0x1 PUSH1 0xA0 SHL SUB NOT DUP2 AND DUP3 SSTORE DUP2 SWAP1 PUSH1 0x1 PUSH1 0x1 PUSH1 0xA0 SHL SUB AND PUSH32 0x8BE0079C531659141344CD1FD0A4F28419497F9722A3DAAFE3B4186F6B6457E0 DUP3 DUP1 LOG3 DUP1 RETURN JUMPDEST POP CALLVALUE PUSH2 0x1F3 JUMPI DUP1 PUSH1 0x3 NOT CALLDATASIZE ADD SLT PUSH2 0x1F3 JUMPI PUSH2 0x248 PUSH2 0x19CA PUSH2 0x2E16 JUMP JUMPDEST PUSH1 0x40 MLOAD SWAP2 DUP3 SWAP2 DUP3 PUSH2 0x246B JUMP JUMPDEST POP PUSH2 0x1C0 CALLDATASIZE PUSH1 0x3 NOT ADD SLT PUSH2 0x1F3 JUMPI PUSH2 0x19EC PUSH2 0x2455 JUMP JUMPDEST PUSH1 0x24 CALLDATALOAD PUSH1 0x1 PUSH1 0x1 PUSH1 0xA0 SHL SUB DUP2 AND SWAP2 SWAP1 DUP3 SWAP1 SUB PUSH2 0xCB9 JUMPI PUSH1 0x44 CALLDATALOAD SWAP2 PUSH1 0x7 DUP4 LT ISZERO PUSH2 0x1F46 JUMPI PUSH1 0xC4 CALLDATALOAD PUSH1 0xFF DUP2 AND DUP1 SWAP2 SUB PUSH2 0x1F42 JUMPI PUSH1 0xE4 CALLDATALOAD SWAP2 PUSH1 0xFF DUP4 AND DUP4 SUB PUSH2 0x1F3E JUMPI PUSH2 0x104 CALLDATALOAD SWAP2 PUSH1 0xFF DUP4 AND DUP4 SUB PUSH2 0x1F3A JUMPI PUSH2 0x124 CALLDATALOAD SWAP3 PUSH1 0xFF DUP5 AND DUP5 SUB PUSH2 0x1F36 JUMPI PUSH2 0x184 CALLDATALOAD SWAP3 PUSH1 0xFF DUP5 AND DUP1 SWAP5 SUB PUSH2 0x1F32 JUMPI PUSH2 0x1A4 CALLDATALOAD SWAP6 PUSH8 0xFFFFFFFFFFFFFFFF DUP8 GT PUSH2 0x1F2E JUMPI CALLDATASIZE PUSH1 0x23 DUP9 ADD SLT ISZERO PUSH2 0x1F2E JUMPI DUP7 PUSH1 0x4 ADD CALLDATALOAD SWAP6 PUSH8 0xFFFFFFFFFFFFFFFF DUP8 GT PUSH2 0x1F2A JUMPI CALLDATASIZE PUSH1 0x24 DUP9 DUP11 ADD ADD GT PUSH2 0x1F2A JUMPI PUSH2 0x1AA1 PUSH2 0x2DF4 JUMP JUMPDEST PUSH1 0x1A SLOAD SWAP1 PUSH1 0xFF DUP3 AND PUSH2 0x1EEF JUMPI PUSH3 0xFF0000 SWAP4 PUSH1 0x1 PUSH2 0xFF00 SWAP4 PUSH1 0xFF NOT AND OR PUSH1 0x1A SSTORE PUSH2 0x1AC9 DUP12 PUSH2 0x3261 JUMP JUMPDEST PUSH12 0xFFFFFFFFFFFFFFFFFFFFFFFF PUSH1 0xA0 SHL PUSH1 0x2 SLOAD AND OR PUSH1 0x2 SSTORE PUSH1 0xFF NOT PUSH1 0xB SLOAD AND PUSH1 0xFF DUP13 AND OR PUSH1 0xB SSTORE PUSH1 0x64 CALLDATALOAD PUSH1 0xC SSTORE PUSH1 0x84 CALLDATALOAD PUSH1 0xD SSTORE PUSH1 0xA4 CALLDATALOAD PUSH1 0xE SSTORE PUSH4 0xFF000000 PUSH1 0xF SLOAD SWAP2 PUSH1 0x18 SHL AND SWAP6 PUSH4 0xFF000000 NOT SWAP2 PUSH3 0xFFFFFF NOT AND OR AND SWAP2 PUSH1 0x8 SHL AND OR SWAP2 PUSH1 0x10 SHL AND OR OR PUSH1 0xF SSTORE PUSH2 0x144 CALLDATALOAD PUSH1 0x10 SSTORE PUSH2 0x164 CALLDATALOAD PUSH1 0x11 SSTORE PUSH2 0xFFFF NOT PUSH1 0x12 SLOAD AND OR PUSH1 0x12 SSTORE CALLVALUE PUSH1 0x13 SSTORE CALLVALUE PUSH1 0x14 SSTORE DUP5 PUSH1 0x16 SSTORE PUSH1 0x20 SWAP2 PUSH1 0x40 MLOAD PUSH2 0x1B65 DUP5 DUP3 PUSH2 0x2622 JUMP JUMPDEST DUP7 DUP2 MSTORE PUSH1 0x0 CALLDATASIZE DUP2 CALLDATACOPY DUP1 MLOAD SWAP1 PUSH8 0xFFFFFFFFFFFFFFFF DUP3 GT PUSH2 0x1E4C JUMPI PUSH1 0x1 PUSH1 0x40 SHL DUP3 GT PUSH2 0x1E4C JUMPI DUP5 SWAP1 PUSH1 0xA SLOAD DUP4 PUSH1 0xA SSTORE DUP1 DUP5 LT PUSH2 0x1E9B JUMPI JUMPDEST POP ADD PUSH1 0xA DUP9 MSTORE DUP8 JUMPDEST DUP3 DUP2 LT PUSH2 0x1E60 JUMPI POP POP POP PUSH1 0x40 MLOAD PUSH2 0x1BBA DUP5 DUP3 PUSH2 0x2622 JUMP JUMPDEST DUP7 DUP2 MSTORE DUP7 SWAP1 PUSH1 0x1 PUSH1 0x40 SHL DUP3 GT PUSH2 0x1E4C JUMPI DUP5 SWAP1 PUSH1 0x15 SLOAD DUP4 PUSH1 0x15 SSTORE DUP1 DUP5 LT PUSH2 0x1DC8 JUMPI JUMPDEST POP ADD PUSH1 0x15 DUP9 MSTORE PUSH1 0x0 DUP1 MLOAD PUSH1 0x20 PUSH2 0x37E1 DUP4 CODECOPY DUP2 MLOAD SWAP2 MSTORE DUP6 DUP10 SWAP3 JUMPDEST DUP5 DUP5 LT PUSH2 0x1D8A JUMPI POP POP POP POP POP PUSH2 0x1C0B PUSH1 0x18 SLOAD PUSH2 0x293A JUMP JUMPDEST PUSH1 0x1F DUP2 GT PUSH2 0x1D2A JUMPI JUMPDEST POP DUP6 SWAP1 PUSH1 0x1F DUP4 GT PUSH1 0x1 EQ PUSH2 0x1C92 JUMPI PUSH32 0xE9597995B7A2AF444CC28B2B776B88B1253D701282A9BCF902D4F59750DF7C57 SWAP4 SWAP3 SWAP2 DUP8 SWAP2 DUP4 PUSH2 0x1C84 JUMPI JUMPDEST POP POP DUP2 PUSH1 0x1 SHL SWAP2 PUSH1 0x0 NOT SWAP1 PUSH1 0x3 SHL SHR NOT AND OR PUSH1 0x18 SSTORE JUMPDEST TIMESTAMP PUSH1 0x19 DUP2 SWAP1 SSTORE PUSH1 0x40 MLOAD SWAP1 DUP2 MSTORE PUSH1 0x1 PUSH1 0x1 PUSH1 0xA0 SHL SUB SWAP1 SWAP4 AND SWAP3 LOG3 PUSH1 0x1 DUP1 SSTORE DUP1 RETURN JUMPDEST PUSH1 0x24 SWAP3 POP ADD ADD CALLDATALOAD CODESIZE DUP1 PUSH2 0x1C4E JUMP JUMPDEST PUSH1 0x18 DUP8 MSTORE PUSH1 0x0 DUP1 MLOAD PUSH1 0x20 PUSH2 0x3821 DUP4 CODECOPY DUP2 MLOAD SWAP2 MSTORE SWAP2 PUSH1 0x1F NOT DUP5 AND DUP9 JUMPDEST DUP2 DUP2 LT PUSH2 0x1D10 JUMPI POP SWAP2 PUSH1 0x1 SWAP4 SWAP2 DUP6 PUSH32 0xE9597995B7A2AF444CC28B2B776B88B1253D701282A9BCF902D4F59750DF7C57 SWAP8 SWAP7 SWAP5 LT PUSH2 0x1CF3 JUMPI JUMPDEST POP POP POP DUP2 SHL ADD PUSH1 0x18 SSTORE PUSH2 0x1C64 JUMP JUMPDEST ADD PUSH1 0x24 ADD CALLDATALOAD PUSH1 0x0 NOT PUSH1 0x3 DUP5 SWAP1 SHL PUSH1 0xF8 AND SHR NOT AND SWAP1 SSTORE CODESIZE DUP1 DUP1 PUSH2 0x1CE5 JUMP JUMPDEST SWAP2 SWAP4 DUP7 PUSH1 0x1 DUP2 SWAP3 PUSH1 0x24 DUP9 DUP9 ADD ADD CALLDATALOAD DUP2 SSTORE ADD SWAP6 ADD SWAP3 ADD PUSH2 0x1CAD JUMP JUMPDEST PUSH2 0x1D6E SWAP1 PUSH1 0x18 DUP9 MSTORE PUSH1 0x1F DUP5 ADD PUSH1 0x5 SHR PUSH1 0x0 DUP1 MLOAD PUSH1 0x20 PUSH2 0x3821 DUP4 CODECOPY DUP2 MLOAD SWAP2 MSTORE ADD SWAP1 DUP6 DUP6 LT PUSH2 0x1D74 JUMPI JUMPDEST PUSH1 0x1F ADD PUSH1 0x5 SHR PUSH1 0x0 DUP1 MLOAD PUSH1 0x20 PUSH2 0x3821 DUP4 CODECOPY DUP2 MLOAD SWAP2 MSTORE ADD SWAP1 PUSH2 0x2923 JUMP JUMPDEST CODESIZE PUSH2 0x1C14 JUMP JUMPDEST PUSH1 0x0 DUP1 MLOAD PUSH1 0x20 PUSH2 0x3821 DUP4 CODECOPY DUP2 MLOAD SWAP2 MSTORE SWAP2 POP PUSH2 0x1D52 JUMP JUMPDEST DUP1 MLOAD DUP1 MLOAD DUP5 SLOAD PUSH1 0x1 PUSH1 0x1 PUSH1 0xA0 SHL SUB NOT AND PUSH1 0x1 PUSH1 0x1 PUSH1 0xA0 SHL SUB SWAP2 SWAP1 SWAP2 AND OR DUP5 SSTORE PUSH1 0x20 ADD MLOAD PUSH1 0x1 DUP5 DUP2 ADD SWAP2 SWAP1 SWAP2 SSTORE SWAP2 PUSH1 0x2 SWAP2 ADD SWAP3 ADD SWAP3 ADD SWAP2 SWAP1 DUP7 SWAP1 PUSH2 0x1BF4 JUMP JUMPDEST SWAP1 SWAP2 POP PUSH1 0x1 PUSH1 0x1 PUSH1 0xFF SHL SUB DUP2 AND DUP2 SUB PUSH2 0x1E38 JUMPI PUSH1 0x1 PUSH1 0x1 PUSH1 0xFF SHL SUB DUP4 AND DUP4 SUB PUSH2 0x1E38 JUMPI SWAP1 DUP6 SWAP2 PUSH1 0x1 SHL PUSH1 0x0 DUP1 MLOAD PUSH1 0x20 PUSH2 0x37E1 DUP4 CODECOPY DUP2 MLOAD SWAP2 MSTORE ADD DUP4 PUSH1 0x1 SHL PUSH1 0x0 DUP1 MLOAD PUSH1 0x20 PUSH2 0x37E1 DUP4 CODECOPY DUP2 MLOAD SWAP2 MSTORE ADD JUMPDEST DUP2 DUP2 LT PUSH2 0x1E23 JUMPI POP PUSH2 0x1BDB JUMP JUMPDEST DUP11 DUP2 SSTORE PUSH1 0x1 DUP2 ADD DUP12 SWAP1 SSTORE DUP8 SWAP4 POP PUSH1 0x2 ADD PUSH2 0x1E16 JUMP JUMPDEST PUSH4 0x4E487B71 PUSH1 0xE0 SHL DUP10 MSTORE PUSH1 0x11 PUSH1 0x4 MSTORE PUSH1 0x24 DUP10 REVERT JUMPDEST PUSH4 0x4E487B71 PUSH1 0xE0 SHL DUP9 MSTORE PUSH1 0x41 PUSH1 0x4 MSTORE PUSH1 0x24 DUP9 REVERT JUMPDEST DUP2 MLOAD PUSH1 0x1 PUSH1 0x1 PUSH1 0xA0 SHL SUB AND PUSH32 0xC65A7BB8D6351C1CF70C95A316CC6A92839C986682D98BC35F958F4883F9D2A8 DUP3 ADD SSTORE SWAP1 DUP6 ADD SWAP1 PUSH1 0x1 ADD PUSH2 0x1BA3 JUMP JUMPDEST PUSH2 0x1EE9 SWAP1 PUSH32 0xC65A7BB8D6351C1CF70C95A316CC6A92839C986682D98BC35F958F4883F9D2A8 ADD DUP5 PUSH32 0xC65A7BB8D6351C1CF70C95A316CC6A92839C986682D98BC35F958F4883F9D2A8 ADD PUSH2 0x2923 JUMP JUMPDEST CODESIZE PUSH2 0x1B9B JUMP JUMPDEST PUSH1 0x40 MLOAD PUSH3 0x461BCD PUSH1 0xE5 SHL DUP2 MSTORE PUSH1 0x20 PUSH1 0x4 DUP3 ADD MSTORE PUSH1 0x13 PUSH1 0x24 DUP3 ADD MSTORE PUSH19 0x105B1C9958591E481A5B9A5D1A585B1A5E9959 PUSH1 0x6A SHL PUSH1 0x44 DUP3 ADD MSTORE PUSH1 0x64 SWAP1 REVERT JUMPDEST DUP11 DUP1 REVERT JUMPDEST DUP10 DUP1 REVERT JUMPDEST DUP9 DUP1 REVERT JUMPDEST DUP8 DUP1 REVERT JUMPDEST DUP7 DUP1 REVERT JUMPDEST DUP6 DUP1 REVERT JUMPDEST DUP5 DUP1 REVERT JUMPDEST DUP4 DUP1 REVERT JUMPDEST POP CALLVALUE PUSH2 0x1F3 JUMPI DUP1 PUSH1 0x3 NOT CALLDATASIZE ADD SLT PUSH2 0x1F3 JUMPI PUSH2 0x1F63 PUSH2 0x2E16 JUMP JUMPDEST SWAP1 PUSH1 0x8 DUP3 LT ISZERO PUSH2 0x5C9 JUMPI PUSH1 0xC0 DUP3 PUSH1 0xFF PUSH1 0x12 SLOAD PUSH1 0x8 SHR AND PUSH1 0x14 SLOAD PUSH4 0xFFFFFFFF PUSH1 0xA SLOAD AND PUSH4 0xFFFFFFFF PUSH1 0x15 SLOAD AND SWAP2 PUSH4 0xFFFFFFFF PUSH1 0x17 SLOAD AND SWAP4 PUSH1 0xFF PUSH1 0x40 MLOAD SWAP7 AND DUP7 MSTORE PUSH1 0x20 DUP7 ADD MSTORE PUSH1 0x40 DUP6 ADD MSTORE PUSH1 0x60 DUP5 ADD MSTORE PUSH1 0x80 DUP4 ADD MSTORE PUSH1 0xA0 DUP3 ADD MSTORE RETURN JUMPDEST POP CALLVALUE PUSH2 0x1F3 JUMPI DUP1 PUSH1 0x3 NOT CALLDATASIZE ADD SLT PUSH2 0x1F3 JUMPI PUSH1 0x20 PUSH2 0x211 PUSH2 0x2859 JUMP JUMPDEST POP CALLVALUE PUSH2 0x1F3 JUMPI DUP1 PUSH1 0x3 NOT CALLDATASIZE ADD SLT PUSH2 0x1F3 JUMPI PUSH1 0x20 PUSH1 0xFF PUSH1 0x9 SLOAD AND PUSH1 0x40 MLOAD SWAP1 ISZERO ISZERO DUP2 MSTORE RETURN JUMPDEST POP CALLVALUE PUSH2 0x1F3 JUMPI PUSH1 0x20 CALLDATASIZE PUSH1 0x3 NOT ADD SLT PUSH2 0x1F3 JUMPI PUSH1 0x20 PUSH2 0x201F PUSH2 0x201A PUSH2 0x2455 JUMP JUMPDEST PUSH2 0x274D JUMP JUMPDEST PUSH1 0x40 MLOAD SWAP1 ISZERO ISZERO DUP2 MSTORE RETURN JUMPDEST POP CALLVALUE PUSH2 0x1F3 JUMPI DUP1 PUSH1 0x3 NOT CALLDATASIZE ADD SLT PUSH2 0x1F3 JUMPI PUSH2 0x2042 PUSH2 0x2DF4 JUMP JUMPDEST DUP1 SLOAD PUSH1 0x1 PUSH1 0x1 PUSH1 0xA0 SHL SUB AND CALLER EQ DUP1 ISZERO PUSH2 0x2067 JUMPI JUMPDEST PUSH2 0x205F SWAP1 PUSH2 0x2651 JUMP JUMPDEST PUSH2 0x6E5 PUSH2 0x30B2 JUMP JUMPDEST POP PUSH1 0x2 SLOAD PUSH1 0x40 MLOAD PUSH4 0xB9181611 PUSH1 0xE0 SHL DUP2 MSTORE CALLER PUSH1 0x4 DUP3 ADD MSTORE SWAP1 PUSH1 0x20 SWAP1 DUP3 SWAP1 PUSH1 0x24 SWAP1 DUP3 SWAP1 PUSH1 0x1 PUSH1 0x1 PUSH1 0xA0 SHL SUB AND GAS STATICCALL DUP1 ISZERO PUSH2 0x496 JUMPI DUP3 SWAP1 PUSH2 0x20A8 JUMPI JUMPDEST SWAP1 POP PUSH2 0x2056 JUMP JUMPDEST POP PUSH1 0x20 DUP2 RETURNDATASIZE PUSH1 0x20 GT PUSH2 0x20DB JUMPI JUMPDEST DUP2 PUSH2 0x20C2 PUSH1 0x20 SWAP4 DUP4 PUSH2 0x2622 JUMP JUMPDEST DUP2 ADD SUB SLT PUSH2 0x48A JUMPI PUSH2 0x20D6 PUSH2 0x205F SWAP2 PUSH2 0x2644 JUMP JUMPDEST PUSH2 0x20A1 JUMP JUMPDEST RETURNDATASIZE SWAP2 POP PUSH2 0x20B5 JUMP JUMPDEST POP CALLVALUE PUSH2 0x1F3 JUMPI DUP1 PUSH1 0x3 NOT CALLDATASIZE ADD SLT PUSH2 0x1F3 JUMPI DUP1 SLOAD PUSH1 0x1 PUSH1 0x1 PUSH1 0xA0 SHL SUB AND CALLER EQ DUP1 ISZERO PUSH2 0x2334 JUMPI JUMPDEST PUSH2 0x2111 SWAP1 PUSH2 0x2651 JUMP JUMPDEST PUSH2 0x2119 PUSH2 0x2DF4 JUMP JUMPDEST PUSH2 0x2121 PUSH2 0x2E16 JUMP JUMPDEST PUSH1 0x8 DUP2 LT ISZERO PUSH2 0x3AA JUMPI PUSH1 0x5 SUB PUSH2 0x1F3 JUMPI PUSH2 0x2139 PUSH2 0x2F21 JUMP JUMPDEST PUSH2 0x2141 PUSH2 0x2E16 JUMP JUMPDEST PUSH1 0x8 DUP2 LT ISZERO PUSH2 0x3AA JUMPI PUSH1 0x6 EQ DUP1 ISZERO PUSH2 0x231A JUMPI JUMPDEST ISZERO PUSH2 0x1F3 JUMPI SELFBALANCE PUSH2 0x2165 DUP2 ISZERO ISZERO PUSH2 0x306F JUMP JUMPDEST PUSH1 0xA SLOAD ISZERO PUSH2 0x230D JUMPI JUMPDEST DUP2 DUP3 SWAP2 PUSH1 0xA SLOAD JUMPDEST DUP1 DUP5 LT PUSH2 0x22F2 JUMPI POP PUSH2 0x218E SWAP3 POP DUP1 DUP3 GT PUSH2 0x16C7 JUMPI PUSH2 0x284C JUMP JUMPDEST DUP1 ISZERO PUSH2 0x219A DUP2 ISZERO PUSH2 0x306F JUMP JUMPDEST PUSH1 0x19 DUP3 MUL SWAP1 DUP3 DUP3 DIV PUSH1 0x19 EQ OR ISZERO PUSH2 0x16B3 JUMPI PUSH1 0x64 PUSH2 0x21B9 SWAP2 DIV DUP1 SWAP3 PUSH2 0x284C JUMP JUMPDEST PUSH1 0x2 SLOAD PUSH1 0x40 MLOAD PUSH4 0x8DA5CB5B PUSH1 0xE0 SHL DUP2 MSTORE SWAP2 SWAP3 SWAP2 DUP5 SWAP2 PUSH1 0x20 SWAP1 DUP3 SWAP1 PUSH1 0x4 SWAP1 DUP3 SWAP1 PUSH1 0x1 PUSH1 0x1 PUSH1 0xA0 SHL SUB AND GAS STATICCALL SWAP1 DUP2 ISZERO PUSH2 0x496 JUMPI DUP3 SWAP2 DUP5 SWAP2 DUP4 SWAP2 PUSH2 0x22AA JUMPI JUMPDEST POP DUP3 SWAP2 DUP3 SWAP2 PUSH1 0x1 PUSH1 0x1 PUSH1 0xA0 SHL SUB AND GAS CALL PUSH2 0x220D PUSH2 0x29B3 JUMP JUMPDEST POP ISZERO PUSH2 0x162E JUMPI PUSH1 0x1 DUP1 PUSH1 0xA0 SHL SUB PUSH1 0x2 SLOAD AND DUP4 PUSH1 0xFF PUSH1 0xB SLOAD AND DUP3 EXTCODESIZE ISZERO PUSH2 0x48A JUMPI PUSH1 0x24 PUSH2 0x224F SWAP2 DUP7 PUSH1 0x40 MLOAD SWAP6 DUP7 SWAP5 DUP6 SWAP4 PUSH4 0xA9BEA789 PUSH1 0xE0 SHL DUP6 MSTORE PUSH1 0x4 DUP6 ADD SWAP1 PUSH2 0x24BB JUMP JUMPDEST GAS CALL DUP1 ISZERO PUSH2 0x229F JUMPI PUSH2 0x228B JUMPI JUMPDEST POP PUSH1 0x0 DUP1 MLOAD PUSH1 0x20 PUSH2 0x3841 DUP4 CODECOPY DUP2 MLOAD SWAP2 MSTORE PUSH1 0x40 DUP1 MLOAD DUP4 DUP2 MSTORE DUP5 PUSH1 0x20 DUP3 ADD MSTORE LOG1 PUSH1 0x7 SSTORE PUSH1 0x8 SSTORE SELFBALANCE PUSH1 0x14 SSTORE PUSH1 0x1 DUP1 SSTORE DUP1 RETURN JUMPDEST DUP4 PUSH2 0x2298 SWAP2 SWAP5 SWAP3 SWAP5 PUSH2 0x2622 JUMP JUMPDEST SWAP2 CODESIZE PUSH2 0x225C JUMP JUMPDEST PUSH1 0x40 MLOAD RETURNDATASIZE DUP7 DUP3 RETURNDATACOPY RETURNDATASIZE SWAP1 REVERT JUMPDEST SWAP3 POP POP POP PUSH1 0x20 DUP2 RETURNDATASIZE PUSH1 0x20 GT PUSH2 0x22EA JUMPI JUMPDEST DUP2 PUSH2 0x22C7 PUSH1 0x20 SWAP4 DUP4 PUSH2 0x2622 JUMP JUMPDEST DUP2 ADD SUB SLT PUSH2 0x48A JUMPI MLOAD PUSH1 0x1 PUSH1 0x1 PUSH1 0xA0 SHL SUB DUP2 AND DUP2 SUB PUSH2 0x48A JUMPI DUP2 SWAP1 DUP4 SWAP1 DUP3 PUSH2 0x21F5 JUMP JUMPDEST RETURNDATASIZE SWAP2 POP PUSH2 0x22BA JUMP JUMPDEST SWAP1 SWAP2 PUSH2 0x2303 PUSH1 0x1 SWAP2 PUSH2 0x16E0 DUP7 PUSH2 0x26E9 JUMP JUMPDEST SWAP4 ADD SWAP3 SWAP2 SWAP1 PUSH2 0x2175 JUMP JUMPDEST PUSH2 0x2315 PUSH2 0x2FCE JUMP JUMPDEST PUSH2 0x216E JUMP JUMPDEST POP PUSH2 0x2323 PUSH2 0x2E16 JUMP JUMPDEST PUSH1 0x8 DUP2 LT ISZERO PUSH2 0x3AA JUMPI PUSH1 0x7 EQ PUSH2 0x2154 JUMP JUMPDEST POP PUSH1 0x2 SLOAD PUSH1 0x40 MLOAD PUSH4 0xB9181611 PUSH1 0xE0 SHL DUP2 MSTORE CALLER PUSH1 0x4 DUP3 ADD MSTORE SWAP1 PUSH1 0x20 SWAP1 DUP3 SWAP1 PUSH1 0x24 SWAP1 DUP3 SWAP1 PUSH1 0x1 PUSH1 0x1 PUSH1 0xA0 SHL SUB AND GAS STATICCALL DUP1 ISZERO PUSH2 0x496 JUMPI DUP3 SWAP1 PUSH2 0x2375 JUMPI JUMPDEST SWAP1 POP PUSH2 0x2108 JUMP JUMPDEST POP PUSH1 0x20 DUP2 RETURNDATASIZE PUSH1 0x20 GT PUSH2 0x23A8 JUMPI JUMPDEST DUP2 PUSH2 0x238F PUSH1 0x20 SWAP4 DUP4 PUSH2 0x2622 JUMP JUMPDEST DUP2 ADD SUB SLT PUSH2 0x48A JUMPI PUSH2 0x23A3 PUSH2 0x2111 SWAP2 PUSH2 0x2644 JUMP JUMPDEST PUSH2 0x236E JUMP JUMPDEST RETURNDATASIZE SWAP2 POP PUSH2 0x2382 JUMP JUMPDEST POP CALLVALUE PUSH2 0x1F3 JUMPI PUSH1 0x20 CALLDATASIZE PUSH1 0x3 NOT ADD SLT PUSH2 0x1F3 JUMPI PUSH1 0x20 SWAP1 PUSH1 0xFF SWAP1 PUSH1 0x40 SWAP1 PUSH1 0x1 PUSH1 0x1 PUSH1 0xA0 SHL SUB PUSH2 0x23DB PUSH2 0x2455 JUMP JUMPDEST AND DUP2 MSTORE PUSH1 0x3 DUP5 MSTORE KECCAK256 SLOAD AND PUSH1 0x40 MLOAD SWAP1 ISZERO ISZERO DUP2 MSTORE RETURN JUMPDEST POP CALLVALUE PUSH2 0x1F3 JUMPI PUSH1 0x20 CALLDATASIZE PUSH1 0x3 NOT ADD SLT PUSH2 0x1F3 JUMPI PUSH1 0x20 SWAP1 PUSH1 0xFF SWAP1 PUSH1 0x40 SWAP1 PUSH1 0x1 PUSH1 0x1 PUSH1 0xA0 SHL SUB PUSH2 0x241A PUSH2 0x2455 JUMP JUMPDEST AND PUSH2 0x2426 DUP2 ISZERO ISZERO PUSH2 0x2595 JUMP JUMPDEST DUP2 MSTORE PUSH1 0x3 DUP5 MSTORE KECCAK256 SLOAD AND PUSH1 0x40 MLOAD SWAP1 ISZERO ISZERO DUP2 MSTORE RETURN JUMPDEST SWAP1 POP CALLVALUE PUSH2 0x48A JUMPI DUP2 PUSH1 0x3 NOT CALLDATASIZE ADD SLT PUSH2 0x48A JUMPI PUSH1 0x20 SWAP1 PUSH1 0x8 SLOAD DUP2 MSTORE RETURN JUMPDEST PUSH1 0x4 CALLDATALOAD SWAP1 PUSH1 0x1 PUSH1 0x1 PUSH1 0xA0 SHL SUB DUP3 AND DUP3 SUB PUSH2 0xBDD JUMPI JUMP JUMPDEST SWAP2 SWAP1 PUSH1 0x20 DUP4 ADD SWAP3 PUSH1 0x8 DUP3 LT ISZERO PUSH2 0xAAE JUMPI MSTORE JUMP JUMPDEST SWAP1 PUSH1 0x20 DUP1 DUP4 MLOAD SWAP3 DUP4 DUP2 MSTORE ADD SWAP3 ADD SWAP1 PUSH1 0x0 JUMPDEST DUP2 DUP2 LT PUSH2 0x249C JUMPI POP POP POP SWAP1 JUMP JUMPDEST DUP3 MLOAD PUSH1 0x1 PUSH1 0x1 PUSH1 0xA0 SHL SUB AND DUP5 MSTORE PUSH1 0x20 SWAP4 DUP5 ADD SWAP4 SWAP1 SWAP3 ADD SWAP2 PUSH1 0x1 ADD PUSH2 0x248F JUMP JUMPDEST SWAP1 PUSH1 0x7 DUP3 LT ISZERO PUSH2 0xAAE JUMPI MSTORE JUMP JUMPDEST SWAP1 PUSH1 0x20 DUP1 DUP4 MLOAD SWAP3 DUP4 DUP2 MSTORE ADD SWAP3 ADD SWAP1 PUSH1 0x0 JUMPDEST DUP2 DUP2 LT PUSH2 0x24E6 JUMPI POP POP POP SWAP1 JUMP JUMPDEST DUP3 MLOAD DUP1 MLOAD PUSH1 0x1 PUSH1 0x1 PUSH1 0xA0 SHL SUB AND DUP6 MSTORE PUSH1 0x20 SWAP1 DUP2 ADD MLOAD DUP2 DUP7 ADD MSTORE PUSH1 0x40 SWAP1 SWAP5 ADD SWAP4 SWAP1 SWAP3 ADD SWAP2 PUSH1 0x1 ADD PUSH2 0x24D9 JUMP JUMPDEST SWAP2 SWAP1 DUP3 MLOAD SWAP3 DUP4 DUP3 MSTORE PUSH1 0x0 JUMPDEST DUP5 DUP2 LT PUSH2 0x253D JUMPI POP POP DUP3 PUSH1 0x0 PUSH1 0x20 DUP1 SWAP5 SWAP6 DUP5 ADD ADD MSTORE PUSH1 0x1F DUP1 NOT SWAP2 ADD AND ADD ADD SWAP1 JUMP JUMPDEST DUP1 PUSH1 0x20 DUP1 SWAP3 DUP5 ADD ADD MLOAD DUP3 DUP3 DUP7 ADD ADD MSTORE ADD PUSH2 0x251C JUMP JUMPDEST PUSH1 0x20 PUSH1 0x40 DUP2 DUP4 ADD SWAP3 DUP3 DUP2 MSTORE DUP5 MLOAD DUP1 SWAP5 MSTORE ADD SWAP3 ADD SWAP1 PUSH1 0x0 JUMPDEST DUP2 DUP2 LT PUSH2 0x2576 JUMPI POP POP POP SWAP1 JUMP JUMPDEST DUP3 MLOAD PUSH1 0x1 PUSH1 0x1 PUSH1 0xA0 SHL SUB AND DUP5 MSTORE PUSH1 0x20 SWAP4 DUP5 ADD SWAP4 SWAP1 SWAP3 ADD SWAP2 PUSH1 0x1 ADD PUSH2 0x2569 JUMP JUMPDEST ISZERO PUSH2 0x259C JUMPI JUMP JUMPDEST PUSH1 0x40 MLOAD PUSH3 0x461BCD PUSH1 0xE5 SHL DUP2 MSTORE PUSH1 0x20 PUSH1 0x4 DUP3 ADD MSTORE PUSH1 0xF PUSH1 0x24 DUP3 ADD MSTORE PUSH15 0x496E76616C69642061646472657373 PUSH1 0x88 SHL PUSH1 0x44 DUP3 ADD MSTORE PUSH1 0x64 SWAP1 REVERT JUMPDEST PUSH1 0x40 DUP2 ADD SWAP1 DUP2 LT PUSH8 0xFFFFFFFFFFFFFFFF DUP3 GT OR PUSH2 0x25EF JUMPI PUSH1 0x40 MSTORE JUMP JUMPDEST PUSH4 0x4E487B71 PUSH1 0xE0 SHL PUSH1 0x0 MSTORE PUSH1 0x41 PUSH1 0x4 MSTORE PUSH1 0x24 PUSH1 0x0 REVERT JUMPDEST PUSH2 0x280 DUP2 ADD SWAP1 DUP2 LT PUSH8 0xFFFFFFFFFFFFFFFF DUP3 GT OR PUSH2 0x25EF JUMPI PUSH1 0x40 MSTORE JUMP JUMPDEST SWAP1 PUSH1 0x1F DUP1 NOT SWAP2 ADD AND DUP2 ADD SWAP1 DUP2 LT PUSH8 0xFFFFFFFFFFFFFFFF DUP3 GT OR PUSH2 0x25EF JUMPI PUSH1 0x40 MSTORE JUMP JUMPDEST MLOAD SWAP1 DUP2 ISZERO ISZERO DUP3 SUB PUSH2 0xBDD JUMPI JUMP JUMPDEST ISZERO PUSH2 0x2658 JUMPI JUMP JUMPDEST PUSH1 0x40 MLOAD PUSH3 0x461BCD PUSH1 0xE5 SHL DUP2 MSTORE PUSH1 0x20 PUSH1 0x4 DUP3 ADD MSTORE PUSH1 0x17 PUSH1 0x24 DUP3 ADD MSTORE PUSH32 0x4E6F74206F776E6572206F7220617574686F72697A6564000000000000000000 PUSH1 0x44 DUP3 ADD MSTORE PUSH1 0x64 SWAP1 REVERT JUMPDEST ISZERO PUSH2 0x26A4 JUMPI JUMP JUMPDEST PUSH1 0x40 MLOAD PUSH3 0x461BCD PUSH1 0xE5 SHL DUP2 MSTORE PUSH1 0x20 PUSH1 0x4 DUP3 ADD MSTORE PUSH1 0x1F PUSH1 0x24 DUP3 ADD MSTORE PUSH32 0x4D697373696F6E206973206E6F7420696E204661696C65642073746174757300 PUSH1 0x44 DUP3 ADD MSTORE PUSH1 0x64 SWAP1 REVERT JUMPDEST PUSH1 0xA SLOAD DUP2 LT ISZERO PUSH2 0x2704 JUMPI PUSH1 0xA PUSH1 0x0 MSTORE PUSH1 0x20 PUSH1 0x0 KECCAK256 ADD SWAP1 PUSH1 0x0 SWAP1 JUMP JUMPDEST PUSH4 0x4E487B71 PUSH1 0xE0 SHL PUSH1 0x0 MSTORE PUSH1 0x32 PUSH1 0x4 MSTORE PUSH1 0x24 PUSH1 0x0 REVERT JUMPDEST PUSH1 0x17 SLOAD DUP2 LT ISZERO PUSH2 0x2704 JUMPI PUSH1 0x17 PUSH1 0x0 MSTORE PUSH1 0x20 PUSH1 0x0 KECCAK256 ADD SWAP1 PUSH1 0x0 SWAP1 JUMP JUMPDEST DUP1 SLOAD DUP3 LT ISZERO PUSH2 0x2704 JUMPI PUSH1 0x0 MSTORE PUSH1 0x20 PUSH1 0x0 KECCAK256 ADD SWAP1 PUSH1 0x0 SWAP1 JUMP JUMPDEST PUSH2 0x2755 PUSH2 0x2E16 JUMP JUMPDEST PUSH1 0x8 DUP2 LT ISZERO PUSH2 0xAAE JUMPI PUSH1 0x7 PUSH2 0x276A SWAP2 EQ PUSH2 0x269D JUMP JUMPDEST PUSH1 0x1 PUSH1 0x1 PUSH1 0xA0 SHL SUB AND PUSH2 0x277E DUP2 ISZERO ISZERO PUSH2 0x2595 JUMP JUMPDEST DUP1 PUSH1 0x0 MSTORE PUSH1 0x3 PUSH1 0x20 MSTORE PUSH1 0xFF PUSH1 0x40 PUSH1 0x0 KECCAK256 SLOAD AND ISZERO PUSH2 0x27DC JUMPI PUSH1 0x17 SLOAD SWAP1 PUSH1 0x0 JUMPDEST DUP3 DUP2 LT PUSH2 0x27AB JUMPI POP POP POP PUSH1 0x0 SWAP1 JUMP JUMPDEST DUP2 PUSH2 0x27B5 DUP3 PUSH2 0x271A JUMP JUMPDEST SWAP1 SLOAD PUSH1 0x3 SWAP2 SWAP1 SWAP2 SHL SHR PUSH1 0x1 PUSH1 0x1 PUSH1 0xA0 SHL SUB AND EQ PUSH2 0x27D4 JUMPI PUSH1 0x1 ADD PUSH2 0x279C JUMP JUMPDEST POP POP POP PUSH1 0x1 SWAP1 JUMP JUMPDEST PUSH1 0x40 MLOAD PUSH3 0x461BCD PUSH1 0xE5 SHL DUP2 MSTORE PUSH1 0x20 PUSH1 0x4 DUP3 ADD MSTORE PUSH1 0x13 PUSH1 0x24 DUP3 ADD MSTORE PUSH19 0x141B185E595C881B9BDD08195B9C9BDB1B1959 PUSH1 0x6A SHL PUSH1 0x44 DUP3 ADD MSTORE PUSH1 0x64 SWAP1 REVERT JUMPDEST PUSH1 0xFF PUSH1 0x1 SWAP2 AND ADD SWAP1 PUSH1 0xFF DUP3 GT PUSH2 0x2829 JUMPI JUMP JUMPDEST PUSH4 0x4E487B71 PUSH1 0xE0 SHL PUSH1 0x0 MSTORE PUSH1 0x11 PUSH1 0x4 MSTORE PUSH1 0x24 PUSH1 0x0 REVERT JUMPDEST SWAP2 SWAP1 DUP3 ADD DUP1 SWAP3 GT PUSH2 0x2829 JUMPI JUMP JUMPDEST SWAP2 SWAP1 DUP3 SUB SWAP2 DUP3 GT PUSH2 0x2829 JUMPI JUMP JUMPDEST PUSH2 0x2861 PUSH2 0x2E16 JUMP JUMPDEST PUSH1 0x8 DUP2 LT ISZERO PUSH2 0xAAE JUMPI PUSH1 0x4 SUB PUSH2 0x28C1 JUMPI PUSH1 0x12 SLOAD PUSH1 0xFF DUP1 PUSH2 0x2885 DUP2 DUP5 PUSH1 0x8 SHR AND PUSH2 0x2817 JUMP JUMPDEST SWAP3 AND SWAP2 AND EQ PUSH1 0x0 EQ PUSH2 0x28B0 JUMPI PUSH2 0x28AD PUSH1 0xFF PUSH1 0xF SLOAD PUSH1 0x18 SHR AND PUSH2 0x192C PUSH1 0xFF TIMESTAMP SWAP3 AND PUSH1 0x16 SLOAD PUSH2 0x283F JUMP JUMPDEST SWAP1 JUMP JUMPDEST PUSH2 0x28AD PUSH1 0xFF PUSH1 0xF SLOAD PUSH1 0x10 SHR AND PUSH2 0x191C JUMP JUMPDEST PUSH1 0x0 SWAP1 JUMP JUMPDEST PUSH8 0xFFFFFFFFFFFFFFFF DUP2 GT PUSH2 0x25EF JUMPI PUSH1 0x5 SHL PUSH1 0x20 ADD SWAP1 JUMP JUMPDEST SWAP1 PUSH2 0x28E8 DUP3 PUSH2 0x28C6 JUMP JUMPDEST PUSH2 0x28F5 PUSH1 0x40 MLOAD SWAP2 DUP3 PUSH2 0x2622 JUMP JUMPDEST DUP3 DUP2 MSTORE DUP1 SWAP3 PUSH2 0x2906 PUSH1 0x1F NOT SWAP2 PUSH2 0x28C6 JUMP JUMPDEST ADD SWAP1 PUSH1 0x20 CALLDATASIZE SWAP2 ADD CALLDATACOPY JUMP JUMPDEST DUP2 DUP2 MUL SWAP3 SWAP2 DUP2 ISZERO SWAP2 DUP5 DIV EQ OR ISZERO PUSH2 0x2829 JUMPI JUMP JUMPDEST DUP2 DUP2 LT PUSH2 0x292E JUMPI POP POP JUMP JUMPDEST PUSH1 0x0 DUP2 SSTORE PUSH1 0x1 ADD PUSH2 0x2923 JUMP JUMPDEST SWAP1 PUSH1 0x1 DUP3 DUP2 SHR SWAP3 AND DUP1 ISZERO PUSH2 0x296A JUMPI JUMPDEST PUSH1 0x20 DUP4 LT EQ PUSH2 0x2954 JUMPI JUMP JUMPDEST PUSH4 0x4E487B71 PUSH1 0xE0 SHL PUSH1 0x0 MSTORE PUSH1 0x22 PUSH1 0x4 MSTORE PUSH1 0x24 PUSH1 0x0 REVERT JUMPDEST SWAP2 PUSH1 0x7F AND SWAP2 PUSH2 0x2949 JUMP JUMPDEST DUP2 ISZERO PUSH2 0x297E JUMPI DIV SWAP1 JUMP JUMPDEST PUSH4 0x4E487B71 PUSH1 0xE0 SHL PUSH1 0x0 MSTORE PUSH1 0x12 PUSH1 0x4 MSTORE PUSH1 0x24 PUSH1 0x0 REVERT JUMPDEST PUSH1 0x15 SLOAD DUP2 LT ISZERO PUSH2 0x2704 JUMPI PUSH1 0x15 PUSH1 0x0 MSTORE PUSH1 0x20 PUSH1 0x0 KECCAK256 SWAP1 PUSH1 0x1 SHL ADD SWAP1 PUSH1 0x0 SWAP1 JUMP JUMPDEST RETURNDATASIZE ISZERO PUSH2 0x29EE JUMPI RETURNDATASIZE SWAP1 PUSH8 0xFFFFFFFFFFFFFFFF DUP3 GT PUSH2 0x25EF JUMPI PUSH1 0x40 MLOAD SWAP2 PUSH2 0x29E2 PUSH1 0x1F DUP3 ADD PUSH1 0x1F NOT AND PUSH1 0x20 ADD DUP5 PUSH2 0x2622 JUMP JUMPDEST DUP3 MSTORE RETURNDATASIZE PUSH1 0x0 PUSH1 0x20 DUP5 ADD RETURNDATACOPY JUMP JUMPDEST PUSH1 0x60 SWAP1 JUMP JUMPDEST PUSH1 0x15 SLOAD SWAP1 PUSH2 0x2A00 DUP3 PUSH2 0x28C6 JUMP JUMPDEST SWAP2 PUSH2 0x2A0E PUSH1 0x40 MLOAD SWAP4 DUP5 PUSH2 0x2622 JUMP JUMPDEST DUP1 DUP4 MSTORE PUSH1 0x15 PUSH1 0x0 SWAP1 DUP2 MSTORE PUSH1 0x0 DUP1 MLOAD PUSH1 0x20 PUSH2 0x37E1 DUP4 CODECOPY DUP2 MLOAD SWAP2 MSTORE PUSH1 0x20 DUP6 ADD JUMPDEST DUP4 DUP4 LT PUSH2 0x2A39 JUMPI POP POP POP POP JUMP JUMPDEST PUSH1 0x2 PUSH1 0x20 PUSH1 0x1 SWAP3 PUSH1 0x40 MLOAD PUSH2 0x2A4C DUP2 PUSH2 0x25D3 JUMP JUMPDEST DUP5 DUP1 PUSH1 0xA0 SHL SUB DUP7 SLOAD AND DUP2 MSTORE DUP5 DUP7 ADD SLOAD DUP4 DUP3 ADD MSTORE DUP2 MSTORE ADD SWAP3 ADD SWAP3 ADD SWAP2 SWAP1 PUSH2 0x2A2C JUMP JUMPDEST PUSH1 0x0 NOT DUP2 EQ PUSH2 0x2829 JUMPI PUSH1 0x1 ADD SWAP1 JUMP JUMPDEST DUP1 MLOAD DUP3 LT ISZERO PUSH2 0x2704 JUMPI PUSH1 0x20 SWAP2 PUSH1 0x5 SHL ADD ADD SWAP1 JUMP JUMPDEST PUSH2 0x2A98 PUSH2 0x2E16 JUMP JUMPDEST PUSH1 0x8 DUP2 LT ISZERO PUSH2 0xAAE JUMPI PUSH1 0x3 DUP2 EQ SWAP1 DUP2 ISZERO PUSH2 0x2AD0 JUMPI JUMPDEST POP PUSH2 0x2AB7 JUMPI PUSH1 0x0 SWAP1 JUMP JUMPDEST PUSH1 0x12 SLOAD PUSH1 0xFF DUP1 DUP3 PUSH1 0x8 SHR AND SWAP2 AND SUB PUSH1 0xFF DUP2 GT PUSH2 0x2829 JUMPI SWAP1 JUMP JUMPDEST PUSH1 0x4 SWAP2 POP EQ CODESIZE PUSH2 0x2AAD JUMP JUMPDEST PUSH1 0xD SLOAD TIMESTAMP GT DUP1 PUSH2 0x2BEA JUMPI JUMPDEST ISZERO PUSH2 0x2B7F JUMPI PUSH1 0x9 SLOAD PUSH1 0xFF DUP2 AND PUSH2 0x2B3A JUMPI PUSH1 0xFF NOT AND PUSH1 0x1 OR PUSH1 0x9 SSTORE PUSH1 0xA SLOAD ISZERO PUSH2 0x2B2A JUMPI PUSH1 0xA SLOAD PUSH1 0xFF PUSH1 0xF SLOAD AND GT PUSH2 0x2B18 JUMPI JUMP JUMPDEST PUSH2 0x2B20 PUSH2 0x2FCE JUMP JUMPDEST PUSH2 0x2B28 PUSH2 0x32D1 JUMP JUMPDEST JUMP JUMPDEST PUSH2 0x2B32 PUSH2 0x2FCE JUMP JUMPDEST PUSH2 0x2B28 PUSH2 0x30B2 JUMP JUMPDEST PUSH1 0x40 MLOAD PUSH3 0x461BCD PUSH1 0xE5 SHL DUP2 MSTORE PUSH1 0x20 PUSH1 0x4 DUP3 ADD MSTORE PUSH1 0x1F PUSH1 0x24 DUP3 ADD MSTORE PUSH32 0x416C726561647920636865636B656420737461727420636F6E646974696F6E00 PUSH1 0x44 DUP3 ADD MSTORE PUSH1 0x64 SWAP1 REVERT JUMPDEST PUSH1 0x40 MLOAD PUSH3 0x461BCD PUSH1 0xE5 SHL DUP2 MSTORE PUSH1 0x20 PUSH1 0x4 DUP3 ADD MSTORE PUSH1 0x38 PUSH1 0x24 DUP3 ADD MSTORE PUSH32 0x4D697373696F6E206E6F7420696E2061726D696E672077696E646F772E204361 PUSH1 0x44 DUP3 ADD MSTORE PUSH32 0x6C6C20726566756E64506C617965727320696E73746561640000000000000000 PUSH1 0x64 DUP3 ADD MSTORE PUSH1 0x84 SWAP1 REVERT JUMPDEST POP PUSH1 0x10 SLOAD TIMESTAMP LT PUSH2 0x2AE6 JUMP JUMPDEST PUSH2 0x2BFD PUSH2 0x2E16 JUMP JUMPDEST PUSH1 0x8 DUP2 LT ISZERO PUSH2 0xAAE JUMPI PUSH1 0x3 DUP2 EQ ISZERO SWAP1 DUP2 PUSH2 0x2D02 JUMPI JUMPDEST POP PUSH2 0x2CFC JUMPI PUSH1 0x1 PUSH1 0x1 PUSH1 0xA0 SHL SUB AND PUSH1 0x0 DUP2 DUP2 MSTORE PUSH1 0x3 PUSH1 0x20 MSTORE PUSH1 0x40 SWAP1 KECCAK256 SLOAD PUSH1 0xFF AND ISZERO PUSH2 0x2CFC JUMPI PUSH1 0x0 MSTORE PUSH1 0x4 PUSH1 0x20 MSTORE PUSH1 0xFF PUSH1 0x40 PUSH1 0x0 KECCAK256 SLOAD AND PUSH2 0x28C1 JUMPI PUSH1 0x10 SLOAD DUP1 TIMESTAMP LT PUSH2 0x2CFC JUMPI PUSH1 0x11 SLOAD DUP1 TIMESTAMP LT ISZERO PUSH2 0x2CF5 JUMPI PUSH2 0x2C6B DUP3 TIMESTAMP PUSH2 0x284C JUMP JUMPDEST SWAP1 PUSH1 0x64 DUP3 MUL SWAP2 DUP1 DUP4 DIV PUSH1 0x64 EQ SWAP1 ISZERO OR ISZERO PUSH2 0x2829 JUMPI PUSH2 0x2C8C SWAP3 PUSH2 0x1376 SWAP2 PUSH2 0x284C JUMP JUMPDEST PUSH1 0x15 SLOAD PUSH1 0x0 DUP2 ISZERO PUSH2 0x2CED JUMPI POP PUSH1 0x0 NOT DUP2 ADD SWAP1 DUP2 GT PUSH2 0x2829 JUMPI PUSH2 0x2CAF PUSH1 0x1 SWAP2 PUSH2 0x2994 JUMP JUMPDEST POP ADD SLOAD SWAP1 JUMPDEST PUSH1 0x64 DUP3 MUL SWAP2 DUP1 DUP4 DIV PUSH1 0x64 EQ SWAP1 ISZERO OR ISZERO PUSH2 0x2829 JUMPI PUSH1 0x64 SWAP2 PUSH2 0x2CE4 PUSH2 0x2CE9 SWAP3 PUSH2 0x2CDE PUSH1 0x13 SLOAD DUP1 SWAP5 PUSH2 0x2974 JUMP JUMPDEST SWAP1 PUSH2 0x284C JUMP JUMPDEST PUSH2 0x2910 JUMP JUMPDEST DIV SWAP1 JUMP JUMPDEST SWAP1 POP SWAP1 PUSH2 0x2CB4 JUMP JUMPDEST POP POP PUSH1 0x0 SWAP1 JUMP JUMPDEST POP PUSH1 0x0 SWAP1 JUMP JUMPDEST PUSH1 0x4 SWAP2 POP EQ ISZERO CODESIZE PUSH2 0x2C12 JUMP JUMPDEST SWAP2 SWAP1 PUSH1 0x17 SLOAD SWAP1 DUP2 DUP5 LT ISZERO PUSH2 0x2D8F JUMPI PUSH2 0x2D3A SWAP2 PUSH2 0x2D2B DUP6 SWAP3 DUP4 PUSH2 0x283F JUMP JUMPDEST SWAP1 DUP1 DUP3 GT PUSH2 0x2D87 JUMPI JUMPDEST POP PUSH2 0x284C JUMP JUMPDEST PUSH2 0x2D43 DUP2 PUSH2 0x28DE JUMP JUMPDEST SWAP3 PUSH1 0x0 JUMPDEST DUP3 DUP2 LT PUSH2 0x2D53 JUMPI POP POP POP JUMP JUMPDEST DUP1 PUSH2 0x2D68 PUSH2 0x2D63 PUSH1 0x1 SWAP4 DUP6 PUSH2 0x283F JUMP JUMPDEST PUSH2 0x271A JUMP JUMPDEST DUP4 DUP1 PUSH1 0xA0 SHL SUB SWAP2 SLOAD SWAP1 PUSH1 0x3 SHL SHR AND PUSH2 0x2D80 DUP3 DUP9 PUSH2 0x2A7C JUMP JUMPDEST MSTORE ADD PUSH2 0x2D47 JUMP JUMPDEST SWAP1 POP CODESIZE PUSH2 0x2D34 JUMP JUMPDEST POP POP SWAP1 POP PUSH1 0x40 MLOAD PUSH2 0x2DA1 PUSH1 0x20 DUP3 PUSH2 0x2622 JUMP JUMPDEST PUSH1 0x0 DUP2 MSTORE PUSH1 0x0 CALLDATASIZE DUP2 CALLDATACOPY SWAP1 JUMP JUMPDEST PUSH1 0x10 SLOAD DUP1 TIMESTAMP LT PUSH2 0x2CFC JUMPI PUSH1 0x11 SLOAD DUP1 TIMESTAMP LT ISZERO PUSH2 0x2DED JUMPI PUSH2 0x2DCC DUP3 TIMESTAMP PUSH2 0x284C JUMP JUMPDEST SWAP1 PUSH1 0x64 DUP3 MUL SWAP2 DUP1 DUP4 DIV PUSH1 0x64 EQ SWAP1 ISZERO OR ISZERO PUSH2 0x2829 JUMPI PUSH2 0x28AD SWAP3 PUSH2 0x1376 SWAP2 PUSH2 0x284C JUMP JUMPDEST POP POP PUSH1 0x64 SWAP1 JUMP JUMPDEST PUSH1 0x2 PUSH1 0x1 SLOAD EQ PUSH2 0x2E05 JUMPI PUSH1 0x2 PUSH1 0x1 SSTORE JUMP JUMPDEST PUSH4 0x3EE5AEB5 PUSH1 0xE0 SHL PUSH1 0x0 MSTORE PUSH1 0x4 PUSH1 0x0 REVERT JUMPDEST PUSH1 0xFF PUSH1 0x1A SLOAD PUSH1 0x8 SHR AND PUSH1 0x8 DUP2 LT ISZERO PUSH2 0xAAE JUMPI PUSH1 0x6 DUP2 EQ DUP1 ISZERO PUSH2 0x2F17 JUMPI JUMPDEST PUSH2 0x28AD JUMPI POP PUSH1 0xC SLOAD TIMESTAMP LT PUSH2 0x28C1 JUMPI PUSH1 0xD SLOAD TIMESTAMP GT ISZERO PUSH2 0x2F12 JUMPI PUSH1 0xA SLOAD PUSH1 0xF SLOAD SWAP1 PUSH1 0xFF DUP3 AND GT PUSH2 0x2F0C JUMPI PUSH1 0x10 SLOAD TIMESTAMP LT PUSH2 0x2F06 JUMPI PUSH1 0x11 SLOAD TIMESTAMP LT ISZERO PUSH2 0x2EDB JUMPI PUSH1 0x12 SLOAD PUSH1 0xFF DUP1 DUP3 PUSH1 0x8 SHR AND SWAP2 AND DUP1 DUP3 LT ISZERO PUSH2 0x2ED3 JUMPI PUSH1 0x16 SLOAD SWAP2 DUP3 PUSH2 0x2E95 JUMPI POP POP POP POP PUSH1 0x3 SWAP1 JUMP JUMPDEST PUSH2 0x2EB9 SWAP4 PUSH1 0xFF SWAP3 DUP4 PUSH2 0x2EA7 DUP2 SWAP5 PUSH2 0x2817 JUMP JUMPDEST AND SUB PUSH2 0x2ECA JUMPI PUSH1 0x18 SHR AND JUMPDEST AND SWAP1 PUSH2 0x283F JUMP JUMPDEST TIMESTAMP LT ISZERO PUSH2 0x2EC5 JUMPI PUSH1 0x4 SWAP1 JUMP JUMPDEST PUSH1 0x3 SWAP1 JUMP JUMPDEST PUSH1 0x10 SHR AND PUSH2 0x2EB2 JUMP JUMPDEST POP POP POP PUSH1 0x6 SWAP1 JUMP JUMPDEST POP PUSH1 0x12 SLOAD PUSH1 0xFF DUP2 PUSH1 0x8 SHR AND SWAP1 DUP2 ISZERO PUSH2 0x2EFF JUMPI PUSH1 0xFF AND GT PUSH2 0x2EFA JUMPI PUSH1 0x6 SWAP1 JUMP JUMPDEST PUSH1 0x5 SWAP1 JUMP JUMPDEST POP POP PUSH1 0x7 SWAP1 JUMP JUMPDEST POP PUSH1 0x2 SWAP1 JUMP JUMPDEST POP PUSH1 0x7 SWAP1 JUMP JUMPDEST PUSH1 0x1 SWAP1 JUMP JUMPDEST POP PUSH1 0x7 DUP2 EQ PUSH2 0x2E33 JUMP JUMPDEST PUSH1 0x2 SLOAD PUSH1 0x0 SWAP1 PUSH1 0x1 PUSH1 0x1 PUSH1 0xA0 SHL SUB AND DUP1 EXTCODESIZE ISZERO PUSH2 0xBDD JUMPI PUSH1 0x40 MLOAD PUSH4 0xD8D6E8FF PUSH1 0xE0 SHL DUP2 MSTORE PUSH1 0x6 PUSH1 0x4 DUP3 ADD MSTORE SWAP1 PUSH1 0x0 SWAP1 DUP3 SWAP1 PUSH1 0x24 SWAP1 DUP3 SWAP1 DUP5 SWAP1 GAS CALL DUP1 ISZERO PUSH2 0x2FC2 JUMPI PUSH2 0x2FAD JUMPI JUMPDEST POP DUP1 PUSH2 0x5C9 JUMPI POP PUSH1 0x1A SLOAD PUSH1 0xFF DUP2 PUSH1 0x8 SHR AND SWAP1 PUSH1 0x8 DUP3 LT ISZERO PUSH2 0xAAE JUMPI PUSH2 0x600 SWAP2 PUSH1 0x6 PUSH1 0x0 SWAP2 PUSH1 0x0 DUP1 MLOAD PUSH1 0x20 PUSH2 0x3801 DUP4 CODECOPY DUP2 MLOAD SWAP2 MSTORE PUSH1 0x20 PUSH1 0x40 MLOAD TIMESTAMP DUP2 MSTORE LOG3 POP PUSH2 0xFF00 NOT AND OR PUSH1 0x1A SSTORE JUMP JUMPDEST PUSH2 0x2FBA SWAP2 POP PUSH1 0x0 SWAP1 PUSH2 0x2622 JUMP JUMPDEST PUSH1 0x0 CODESIZE PUSH2 0x2F65 JUMP JUMPDEST PUSH1 0x40 MLOAD RETURNDATASIZE PUSH1 0x0 DUP3 RETURNDATACOPY RETURNDATASIZE SWAP1 REVERT JUMPDEST PUSH1 0x2 SLOAD PUSH1 0x0 SWAP1 PUSH1 0x1 PUSH1 0x1 PUSH1 0xA0 SHL SUB AND DUP1 EXTCODESIZE ISZERO PUSH2 0xBDD JUMPI PUSH1 0x40 MLOAD PUSH4 0xD8D6E8FF PUSH1 0xE0 SHL DUP2 MSTORE PUSH1 0x7 PUSH1 0x4 DUP3 ADD MSTORE SWAP1 PUSH1 0x0 SWAP1 DUP3 SWAP1 PUSH1 0x24 SWAP1 DUP3 SWAP1 DUP5 SWAP1 GAS CALL DUP1 ISZERO PUSH2 0x2FC2 JUMPI PUSH2 0x305A JUMPI JUMPDEST POP DUP1 PUSH2 0x5C9 JUMPI POP PUSH1 0x1A SLOAD PUSH1 0xFF DUP2 PUSH1 0x8 SHR AND SWAP1 PUSH1 0x8 DUP3 LT ISZERO PUSH2 0xAAE JUMPI PUSH2 0x700 SWAP2 PUSH1 0x7 PUSH1 0x0 SWAP2 PUSH1 0x0 DUP1 MLOAD PUSH1 0x20 PUSH2 0x3801 DUP4 CODECOPY DUP2 MLOAD SWAP2 MSTORE PUSH1 0x20 PUSH1 0x40 MLOAD TIMESTAMP DUP2 MSTORE LOG3 POP PUSH2 0xFF00 NOT AND OR PUSH1 0x1A SSTORE JUMP JUMPDEST PUSH2 0x3067 SWAP2 POP PUSH1 0x0 SWAP1 PUSH2 0x2622 JUMP JUMPDEST PUSH1 0x0 CODESIZE PUSH2 0x3012 JUMP JUMPDEST ISZERO PUSH2 0x3076 JUMPI JUMP JUMPDEST PUSH1 0x40 MLOAD PUSH3 0x461BCD PUSH1 0xE5 SHL DUP2 MSTORE PUSH1 0x20 PUSH1 0x4 DUP3 ADD MSTORE PUSH1 0x14 PUSH1 0x24 DUP3 ADD MSTORE PUSH20 0x4E6F2066756E647320746F207769746864726177 PUSH1 0x60 SHL PUSH1 0x44 DUP3 ADD MSTORE PUSH1 0x64 SWAP1 REVERT JUMPDEST PUSH2 0x30BA PUSH2 0x2E16 JUMP JUMPDEST PUSH1 0x0 SWAP1 PUSH1 0x8 DUP2 LT ISZERO PUSH2 0x3AA JUMPI PUSH1 0x6 EQ DUP1 ISZERO PUSH2 0x3247 JUMPI JUMPDEST ISZERO PUSH2 0x1F3 JUMPI SELFBALANCE DUP1 ISZERO PUSH2 0x30F3 DUP2 ISZERO PUSH2 0x30E6 DUP2 PUSH2 0x306F JUMP JUMPDEST PUSH1 0xA SLOAD ISZERO PUSH2 0x323A JUMPI PUSH2 0x306F JUMP JUMPDEST PUSH1 0x19 DUP3 MUL SWAP1 DUP3 DUP3 DIV PUSH1 0x19 EQ OR ISZERO PUSH2 0x16B3 JUMPI PUSH1 0x64 PUSH2 0x3112 SWAP2 DIV DUP1 SWAP3 PUSH2 0x284C JUMP JUMPDEST PUSH1 0x2 SLOAD PUSH1 0x40 MLOAD PUSH4 0x8DA5CB5B PUSH1 0xE0 SHL DUP2 MSTORE SWAP2 SWAP4 SWAP2 SWAP1 PUSH1 0x20 SWAP1 DUP3 SWAP1 PUSH1 0x4 SWAP1 DUP3 SWAP1 PUSH1 0x1 PUSH1 0x1 PUSH1 0xA0 SHL SUB AND GAS STATICCALL SWAP1 DUP2 ISZERO PUSH2 0x496 JUMPI DUP3 SWAP2 DUP5 SWAP2 DUP4 SWAP2 PUSH2 0x31F2 JUMPI JUMPDEST POP DUP3 SWAP2 DUP3 SWAP2 DUP3 SWAP2 SWAP1 PUSH1 0x1 PUSH1 0x1 PUSH1 0xA0 SHL SUB AND GAS CALL PUSH2 0x3168 PUSH2 0x29B3 JUMP JUMPDEST POP ISZERO PUSH2 0x162E JUMPI PUSH1 0x1 DUP1 PUSH1 0xA0 SHL SUB PUSH1 0x2 SLOAD AND PUSH1 0xFF PUSH1 0xB SLOAD AND DUP2 EXTCODESIZE ISZERO PUSH2 0xCB9 JUMPI PUSH2 0x31AA PUSH1 0x24 DUP5 SWAP3 DUP8 PUSH1 0x40 MLOAD SWAP6 DUP7 SWAP5 DUP6 SWAP4 PUSH4 0xA9BEA789 PUSH1 0xE0 SHL DUP6 MSTORE PUSH1 0x4 DUP6 ADD SWAP1 PUSH2 0x24BB JUMP JUMPDEST GAS CALL DUP1 ISZERO PUSH2 0x496 JUMPI PUSH2 0x31E2 JUMPI JUMPDEST POP POP PUSH1 0x0 DUP1 MLOAD PUSH1 0x20 PUSH2 0x3841 DUP4 CODECOPY DUP2 MLOAD SWAP2 MSTORE PUSH1 0x40 DUP1 MLOAD DUP4 DUP2 MSTORE DUP5 PUSH1 0x20 DUP3 ADD MSTORE LOG1 PUSH1 0x7 SSTORE PUSH1 0x8 SSTORE SELFBALANCE PUSH1 0x14 SSTORE JUMP JUMPDEST DUP2 PUSH2 0x31EC SWAP2 PUSH2 0x2622 JUMP JUMPDEST CODESIZE PUSH2 0x31B7 JUMP JUMPDEST SWAP3 POP POP POP PUSH1 0x20 DUP2 RETURNDATASIZE PUSH1 0x20 GT PUSH2 0x3232 JUMPI JUMPDEST DUP2 PUSH2 0x320F PUSH1 0x20 SWAP4 DUP4 PUSH2 0x2622 JUMP JUMPDEST DUP2 ADD SUB SLT PUSH2 0x48A JUMPI MLOAD PUSH1 0x1 PUSH1 0x1 PUSH1 0xA0 SHL SUB DUP2 AND DUP2 SUB PUSH2 0x48A JUMPI DUP2 SWAP1 DUP4 SWAP1 DUP3 PUSH2 0x314D JUMP JUMPDEST RETURNDATASIZE SWAP2 POP PUSH2 0x3202 JUMP JUMPDEST PUSH2 0x3242 PUSH2 0x2FCE JUMP JUMPDEST PUSH2 0x306F JUMP JUMPDEST POP PUSH2 0x3250 PUSH2 0x2E16 JUMP JUMPDEST PUSH1 0x8 DUP2 LT ISZERO PUSH2 0x3AA JUMPI PUSH1 0x7 EQ PUSH2 0x30D0 JUMP JUMPDEST PUSH1 0x0 DUP1 SLOAD PUSH1 0x1 PUSH1 0x1 PUSH1 0xA0 SHL SUB SWAP3 DUP4 AND PUSH1 0x1 PUSH1 0x1 PUSH1 0xA0 SHL SUB NOT DUP3 AND DUP2 OR DUP4 SSTORE SWAP3 AND SWAP1 PUSH32 0x8BE0079C531659141344CD1FD0A4F28419497F9722A3DAAFE3B4186F6B6457E0 SWAP1 DUP1 LOG3 JUMP JUMPDEST PUSH1 0x0 SLOAD PUSH1 0x1 PUSH1 0x1 PUSH1 0xA0 SHL SUB AND CALLER SUB PUSH2 0x32BC JUMPI JUMP JUMPDEST PUSH4 0x118CDAA7 PUSH1 0xE0 SHL PUSH1 0x0 MSTORE CALLER PUSH1 0x4 MSTORE PUSH1 0x24 PUSH1 0x0 REVERT JUMPDEST PUSH2 0x32D9 PUSH2 0x2E16 JUMP JUMPDEST PUSH1 0x8 DUP2 LT ISZERO PUSH2 0xAAE JUMPI PUSH1 0x7 SUB PUSH2 0x379B JUMPI PUSH1 0xA SLOAD ISZERO PUSH2 0x375F JUMPI PUSH1 0x1 SWAP1 PUSH1 0x0 JUMPDEST PUSH1 0xA SLOAD DUP2 LT ISZERO PUSH2 0x3498 JUMPI PUSH2 0x330A DUP2 PUSH2 0x26E9 JUMP JUMPDEST PUSH1 0x1 DUP1 PUSH1 0xA0 SHL SUB SWAP2 SLOAD SWAP1 PUSH1 0x3 SHL SHR AND SWAP1 DUP2 PUSH1 0x0 MSTORE PUSH1 0x5 PUSH1 0x20 MSTORE PUSH1 0xFF PUSH1 0x40 PUSH1 0x0 KECCAK256 SLOAD AND ISZERO PUSH2 0x333C JUMPI JUMPDEST PUSH1 0x1 SWAP2 POP ADD PUSH2 0x32F7 JUMP JUMPDEST PUSH1 0x0 DUP1 DUP1 DUP1 PUSH1 0xE SLOAD DUP7 GAS CALL PUSH2 0x334F PUSH2 0x29B3 JUMP JUMPDEST POP ISZERO PUSH2 0x3441 JUMPI DUP2 PUSH1 0x0 MSTORE PUSH1 0x5 PUSH1 0x20 MSTORE PUSH1 0x40 PUSH1 0x0 KECCAK256 PUSH1 0x1 PUSH1 0xFF NOT DUP3 SLOAD AND OR SWAP1 SSTORE PUSH1 0x17 SLOAD PUSH1 0x1 PUSH1 0x40 SHL DUP2 LT ISZERO PUSH2 0x25EF JUMPI DUP1 PUSH1 0x1 PUSH2 0x338F SWAP3 ADD PUSH1 0x17 SSTORE PUSH1 0x17 PUSH2 0x2735 JUMP JUMPDEST DUP2 SLOAD SWAP1 PUSH1 0x3 SHL SWAP1 DUP5 DUP3 SHL SWAP2 PUSH1 0x1 DUP1 PUSH1 0xA0 SHL SUB SWAP1 SHL NOT AND OR SWAP1 SSTORE DUP2 PUSH32 0x48D31F1C958CD44F1F83A52AE2DFAF61E88A1B82C07A6D5711A4ABEF60B6531E PUSH1 0x20 PUSH1 0xE SLOAD PUSH1 0x40 MLOAD SWAP1 DUP2 MSTORE LOG2 PUSH1 0x2 SLOAD PUSH1 0xC SLOAD PUSH1 0xD SLOAD SWAP4 SWAP2 PUSH1 0x1 PUSH1 0x1 PUSH1 0xA0 SHL SUB AND DUP1 EXTCODESIZE ISZERO PUSH2 0xBDD JUMPI PUSH1 0x0 SWAP3 DUP4 PUSH1 0x64 SWAP3 PUSH1 0x40 MLOAD SWAP8 DUP9 SWAP6 DUP7 SWAP5 PUSH4 0x4C682E1F PUSH1 0xE1 SHL DUP7 MSTORE PUSH1 0x4 DUP7 ADD MSTORE PUSH1 0x24 DUP6 ADD MSTORE PUSH1 0x44 DUP5 ADD MSTORE GAS CALL SWAP2 DUP3 ISZERO PUSH2 0x2FC2 JUMPI PUSH1 0x1 SWAP3 PUSH2 0x3430 JUMPI JUMPDEST POP PUSH2 0x3332 JUMP JUMPDEST PUSH1 0x0 PUSH2 0x343B SWAP2 PUSH2 0x2622 JUMP JUMPDEST CODESIZE PUSH2 0x342A JUMP JUMPDEST SWAP3 POP PUSH1 0xE SLOAD DUP2 PUSH1 0x0 MSTORE PUSH1 0x6 PUSH1 0x20 MSTORE PUSH2 0x345F PUSH1 0x40 PUSH1 0x0 KECCAK256 SWAP2 DUP3 SLOAD PUSH2 0x283F JUMP JUMPDEST SWAP1 SSTORE PUSH32 0xAF73B0B217208B61BE286BBC37095BCE7EB8B9CCF617244C2F0F154E8E04E3FF PUSH1 0x20 PUSH1 0xE SLOAD PUSH1 0x40 MLOAD SWAP1 DUP2 MSTORE LOG2 PUSH1 0x1 PUSH1 0x0 SWAP3 PUSH2 0x3332 JUMP JUMPDEST POP SWAP1 PUSH2 0x34A2 PUSH2 0x2FCE JUMP JUMPDEST SELFBALANCE PUSH2 0x3541 JUMPI JUMPDEST POP PUSH1 0x17 SLOAD PUSH1 0xE SLOAD SWAP1 PUSH1 0x40 MLOAD DUP2 PUSH1 0x40 DUP3 ADD PUSH1 0x40 DUP4 MSTORE MSTORE PUSH1 0x60 DUP2 ADD PUSH1 0x17 PUSH1 0x0 MSTORE PUSH32 0xC624B66CC0138B8FABC209247F72D758E1CF3343756D543BADBF24212BED8C15 PUSH1 0x0 JUMPDEST DUP5 DUP2 LT PUSH2 0x3522 JUMPI POP POP SWAP1 DUP1 PUSH32 0xBB93C7C839BDDD97272C8E974D54D30ADFA3AA55DF63A52F02B7192EFD361A24 SWAP3 TIMESTAMP PUSH1 0x20 DUP4 ADD MSTORE SUB SWAP1 LOG3 JUMP JUMPDEST DUP2 SLOAD PUSH1 0x1 PUSH1 0x1 PUSH1 0xA0 SHL SUB AND DUP4 MSTORE PUSH1 0x20 SWAP1 SWAP3 ADD SWAP2 PUSH1 0x1 SWAP2 DUP3 ADD SWAP2 ADD PUSH2 0x34EA JUMP JUMPDEST PUSH2 0x3549 PUSH2 0x2E16 JUMP JUMPDEST PUSH1 0x8 DUP2 LT ISZERO PUSH2 0xAAE JUMPI PUSH1 0x6 EQ DUP1 ISZERO PUSH2 0x3745 JUMPI JUMPDEST ISZERO PUSH2 0xBDD JUMPI SELFBALANCE SWAP1 PUSH2 0x356E DUP3 ISZERO ISZERO PUSH2 0x306F JUMP JUMPDEST PUSH1 0xA SLOAD ISZERO PUSH2 0x3738 JUMPI JUMPDEST ISZERO PUSH2 0x36D5 JUMPI JUMPDEST DUP1 ISZERO PUSH2 0x3589 DUP2 ISZERO PUSH2 0x306F JUMP JUMPDEST PUSH1 0x19 DUP3 MUL SWAP1 DUP3 DUP3 DIV PUSH1 0x19 EQ OR ISZERO PUSH2 0x2829 JUMPI PUSH1 0x64 PUSH2 0x35A8 SWAP2 DIV DUP1 SWAP3 PUSH2 0x284C JUMP JUMPDEST PUSH1 0x2 SLOAD PUSH1 0x40 MLOAD PUSH4 0x8DA5CB5B PUSH1 0xE0 SHL DUP2 MSTORE SWAP2 SWAP3 SWAP2 SWAP1 PUSH1 0x20 SWAP1 DUP3 SWAP1 PUSH1 0x4 SWAP1 DUP3 SWAP1 PUSH1 0x1 PUSH1 0x1 PUSH1 0xA0 SHL SUB AND GAS STATICCALL DUP1 ISZERO PUSH2 0x2FC2 JUMPI DUP3 SWAP2 PUSH1 0x0 SWAP2 PUSH2 0x368D JUMPI JUMPDEST POP PUSH1 0x0 SWAP2 DUP3 SWAP2 DUP3 SWAP2 DUP3 SWAP2 PUSH1 0x1 PUSH1 0x1 PUSH1 0xA0 SHL SUB AND GAS CALL PUSH2 0x35FE PUSH2 0x29B3 JUMP JUMPDEST POP ISZERO PUSH2 0x162E JUMPI PUSH1 0x1 DUP1 PUSH1 0xA0 SHL SUB PUSH1 0x2 SLOAD AND PUSH1 0xFF PUSH1 0xB SLOAD AND DUP2 EXTCODESIZE ISZERO PUSH2 0xBDD JUMPI PUSH2 0x3641 PUSH1 0x24 PUSH1 0x0 SWAP3 DUP7 PUSH1 0x40 MLOAD SWAP6 DUP7 SWAP5 DUP6 SWAP4 PUSH4 0xA9BEA789 PUSH1 0xE0 SHL DUP6 MSTORE PUSH1 0x4 DUP6 ADD SWAP1 PUSH2 0x24BB JUMP JUMPDEST GAS CALL DUP1 ISZERO PUSH2 0x2FC2 JUMPI PUSH2 0x367C JUMPI JUMPDEST POP PUSH1 0x0 DUP1 MLOAD PUSH1 0x20 PUSH2 0x3841 DUP4 CODECOPY DUP2 MLOAD SWAP2 MSTORE PUSH1 0x40 DUP1 MLOAD DUP4 DUP2 MSTORE DUP5 PUSH1 0x20 DUP3 ADD MSTORE LOG1 PUSH1 0x7 SSTORE PUSH1 0x8 SSTORE SELFBALANCE PUSH1 0x14 SSTORE CODESIZE PUSH2 0x34A8 JUMP JUMPDEST PUSH1 0x0 PUSH2 0x3687 SWAP2 PUSH2 0x2622 JUMP JUMPDEST CODESIZE PUSH2 0x364E JUMP JUMPDEST SWAP1 SWAP2 POP PUSH1 0x20 DUP2 RETURNDATASIZE PUSH1 0x20 GT PUSH2 0x36CD JUMPI JUMPDEST DUP2 PUSH2 0x36A9 PUSH1 0x20 SWAP4 DUP4 PUSH2 0x2622 JUMP JUMPDEST DUP2 ADD SUB SLT PUSH2 0x48A JUMPI MLOAD SWAP1 PUSH1 0x1 PUSH1 0x1 PUSH1 0xA0 SHL SUB DUP3 AND DUP3 SUB PUSH2 0x1F3 JUMPI POP DUP2 SWAP1 PUSH1 0x0 PUSH2 0x35E1 JUMP JUMPDEST RETURNDATASIZE SWAP2 POP PUSH2 0x369C JUMP JUMPDEST PUSH1 0x0 DUP1 SWAP2 PUSH1 0xA SLOAD JUMPDEST DUP1 DUP5 LT PUSH2 0x36FB JUMPI POP PUSH2 0x36F6 SWAP3 POP DUP1 DUP3 GT PUSH2 0x16C7 JUMPI PUSH2 0x284C JUMP JUMPDEST PUSH2 0x357D JUMP JUMPDEST SWAP1 SWAP2 PUSH2 0x372E PUSH1 0x1 SWAP2 PUSH2 0x370C DUP7 PUSH2 0x26E9 JUMP JUMPDEST DUP5 DUP1 PUSH1 0xA0 SHL SUB SWAP2 SLOAD SWAP1 PUSH1 0x3 SHL SHR AND PUSH1 0x0 MSTORE PUSH1 0x6 PUSH1 0x20 MSTORE PUSH1 0x40 PUSH1 0x0 KECCAK256 SLOAD SWAP1 PUSH2 0x283F JUMP JUMPDEST SWAP4 ADD SWAP3 SWAP2 SWAP1 PUSH2 0x36DD JUMP JUMPDEST PUSH2 0x3740 PUSH2 0x2FCE JUMP JUMPDEST PUSH2 0x3577 JUMP JUMPDEST POP PUSH2 0x374E PUSH2 0x2E16 JUMP JUMPDEST PUSH1 0x8 DUP2 LT ISZERO PUSH2 0xAAE JUMPI PUSH1 0x7 EQ PUSH2 0x355C JUMP JUMPDEST PUSH1 0x40 MLOAD PUSH3 0x461BCD PUSH1 0xE5 SHL DUP2 MSTORE PUSH1 0x20 PUSH1 0x4 DUP3 ADD MSTORE PUSH1 0x14 PUSH1 0x24 DUP3 ADD MSTORE PUSH20 0x139BC81C1B185E595C9CC81D1BC81C99599D5B99 PUSH1 0x62 SHL PUSH1 0x44 DUP3 ADD MSTORE PUSH1 0x64 SWAP1 REVERT JUMPDEST PUSH1 0x40 MLOAD PUSH3 0x461BCD PUSH1 0xE5 SHL DUP2 MSTORE PUSH1 0x20 PUSH1 0x4 DUP3 ADD MSTORE PUSH1 0x1C PUSH1 0x24 DUP3 ADD MSTORE PUSH32 0x4D697373696F6E206E6F7420696E204661696C65642073746174757300000000 PUSH1 0x44 DUP3 ADD MSTORE PUSH1 0x64 SWAP1 REVERT INVALID SSTORE DELEGATECALL BASEFEE REVERT 0xEA SWAP9 0xC4 0xD2 SWAP15 0xB3 BLOCKHASH PUSH22 0x7EF0A66CD03DBB9538908A6A81D96026B71EC47539BA PUSH3 0x8632D4 DUP13 GASLIMIT 0xC7 CREATE2 PUSH3 0xC07DB2 EXP PREVRANDAO 0xCF PUSH9 0x423691D5D79B20F87B 0xA8 COINBASE CODESIZE 0xAE 0xDF 0xB1 RETURNDATASIZE 0x2D PUSH23 0xD1F4B7BE834882E410B3E3A8AFAF69F83600AE24DB3543 SWAP2 0xD2 CALLDATACOPY DUP14 0x2E 0xD6 PUSH7 0x62C0DED9E58FD3 SAR MCOPY PREVRANDAO SWAP5 0x4B 0xCF 0xD0 PUSH32 0xFC15E6927ECC1382E7941CB7BD24C4A2646970667358221220D29D3B7D8F06AE 0xED CALLVALUE SWAP10 0xD9 0xAC ADDMOD PUSH21 0xF0666DBB416496757D61908F5E1778156BBD64736F PUSH13 0x634300081E0033000000000000 "},"methodIdentifiers":{"callRound()":"7475a4cb","checkMissionStartCondition()":"ad1ca6bf","currentProgressPct()":"fb84e12f","enrollPlayer()":"987c543a","enrolled(address)":"10eb0e0e","factoryShare()":"003e16a5","failedRefundAmounts(address)":"b2a4a5d2","forceFinalizeMission()":"12124848","getFailedRefundPlayers()":"7cf61b69","getIndexerSnapshot()":"57985d10","getMissionData()":"7ce17de4","getPlayerCount()":"c2e52206","getRealtimeStatus()":"68c6ba21","getRefundedPlayersSlice(uint256,uint256)":"faf9175d","getWinners()":"df15c37e","hasWon(address)":"a52b2b88","increasePot()":"eb2bab77","initialize(address,address,uint8,uint256,uint256,uint256,uint8,uint8,uint8,uint8,uint256,uint256,uint8,string)":"667c7f68","isArming()":"dd1121f6","isFinalized()":"8d4e4083","isPlayer(address)":"09c95e10","missionFactory()":"fa4cf5a1","missionStartConditionChecked()":"293c2213","owner()":"8da5cb5b","ownerShare()":"8f1c3151","pendingPayout(address)":"e6810a50","playerState(address)":"fcca0c84","refundPlayers()":"98bdae43","refunded(address)":"c033a490","remainingRounds()":"a7e22a3e","renounceOwnership()":"715018a6","secondsUntilNextRound()":"5407441f","transferOwnership(address)":"f2fde38b","wasRefunded(address)":"268b2b51","withdrawFunds()":"24600fc3"}}}}}